:040800002CEF05F0E4
:10080800FACF1CF0FBCF1DF0E9CF1EF0C9EF61F065
:10081800D8CF8FF0E8CF90F0E0CF91F0FACF92F0F8
:10082800FBCF93F0E9CF94F0EACF95F0E1CF96F0C3
:10083800E2CF97F0D9CF98F0DACF99F0F3CF9AF0CA
:10084800F4CF9BF0F6CF9CF0F7CF9DF0F8CF9EF059
:10085800F5CF9FF0D1D0000E0001A26FF2A08FD08B
:1008680081CFA0F000F0F2900001A0A984D0600E22
:100878000101BE19D8A466D00001CE51D8A43AD03F
:100888000001CA51D8A436D019EC73F00101F56FF4
:10089800040E00016C6F010ED6EC55F06CC077F0B9
:1008A8006DC078F0F0EC72F0D3B606D001D004D069
:1008B800010E0101D26F00D0CCEC72F0EBEC72F0BB
:1008C8000001A351000160270001A4510001612328
:1008D800000160C062F0000161C063F00001646B58
:1008E800656B5FEC71F0010E0101BB6F010E000139
:1008F800CE6F41D00001CA51D8B409D0FB0E000117
:100908006C6FFE0E00016D6FF2EC30F034D01DEC10
:1009180073F00009D8B409D0350E00016C6FFF0ED2
:1009280000016D6FF2EC30F009D00F0E00016C6F12
:10093800FF0E00016D6FF2EC30F000D0010E0101E6
:10094800BC6F19D0800E0101BE19D8A406D0010EC3
:100958000101BD6F76EC70F00ED0200E0101BE19BA
:10096800D8A409D0E50E00016C6FFE0E00016D6F72
:10097800F2EC30F000D0010E0001A26F00D09EBA58
:100988009DAA3ED08AEC70F00001A16F9E9AABA29E
:1009980010D04F0EAB16AC9ACF0E9D1680EC4BF0D4
:1009A800690E00016C6FFF0E00016D6FF2EC30F004
:1009B80023D0ABA409D0580E00016C6FFF0E0001C4
:1009C8006D6FF2EC30F018D0A7A209D0980E000194
:1009D8006C6FFE0E00016D6FF2EC30F00DD0000E62
:1009E8000001616F010E606FA1C062F010EC53F05E
:1009F800640E0101CF6F00D0010E0001A26F00D07C
:100A08000001A2510001D8A426D79FC0F5FF9EC0BF
:100A1800F8FF9DC0F7FF9CC0F6FF9BC0F4FF9AC08B
:100A2800F3FF99C0DAFF98C0D9FF97C0E2FF96C0DC
:100A3800E1FF95C0EAFF94C0E9FF93C0FBFF92C0B5
:100A4800FAFF91C0E0FF90C0E8FF8FC0D8FF100008
:100A5800C3EF54F0000ED0B6010E0101F86F000E7E
:100A6800D0B2010E0201FF6F000ED0B0010E0201DC
:100A7800FE6FD0CFFEF365EC64F0030E0101016F49
:100A8800E80E006F30EC6BF0030E0101016FF00E01
:100A9800006FBDEC71F00101D66F0101D629D8B401
:100AA80004D0010E0101C56F00D0E1EC56F005D06D
:100AB8009386E6EC72F0E1EC56F00DC1ABF00EC196
:100AC800ACF000D00001ACBFF3D73E0E0001AB5D27
:100AD800080E0001AC59D8A0EBD7CFEC6DF0360E5C
:100AE8000101016FB00E006F30EC6BF00101C551D0
:100AF8000101D8A40ED00001ACBF0BD0870E0001B5
:100B0800AB5D0B0E0001AC59D8A003D0EAEC5EF047
:100B180000D0000E0101006F000E0101016F020EEE
:100B280064EC6BF0040047EC35F00400F5C200F10A
:100B38000101016B91EC72F0E5EC70F0010E00011F
:100B4800C16F0101F8510101D8A413D0E20E0101CF
:100B5800126FFF0E0101136F8EEC2EF0000E0101D3
:100B6800016F040E006F060E0101026F7DEC52F05A
:100B78002CD00201FF510201D8B418D00201FE5155
:100B88000201D8A413D0F60E0101126FFF0E010165
:100B9800136F8EEC2EF0000E0101016F040E006F32
:100BA800070E0101026F7DEC52F00FD00201FF51D8
:100BB8000201D8A40AD0FA0E0101126FFF0E01013A
:100BC800136F8EEC2EF0D08200D0000E70EC69F01E
:100BD800CF0E0101126FFF0E0101136F8EEC2EF084
:100BE800580E0101126FFE0E0101136F8EEC2EF0EC
:100BF800F20E0101126FFF0E0101136F300E010199
:100C0800C9250101146F0101156B000E15238EEC27
:100C18002EF0B10E0101126FFF0E0101136FABC070
:100C280014F1ACC015F18EEC2EF0CD0E0101126F4F
:100C3800FE0E0101136FF2C214F10101156BF3C22C
:100C480016F10101176BF4C218F10101196BF5C215
:100C58001AF101011B6B8EEC2EF0B30E0101126F1D
:100C6800FE0E0101136FFCC114F10101156BFDC1EA
:100C780016F10101176BFEC118F10101196BFFC1D3
:100C88001AF101011B6B8EEC2EF0980E0101126F08
:100C9800FF0E0101136FF9EC72F00301F76F030106
:100CA800F7510101146F156B8EEC2EF07A0E0101CD
:100CB800126FFF0E0101136FCBC014F10101156B08
:100CC8008EEC2EF0230E0101126FFF0E0101136F3F
:100CD8008EEC2EF0A60E0101126FFF0E0101136FAC
:100CE800D6C114F10101156B8EEC2EF0C60E010170
:100CF800126FFF0E0101136F81BA02D0010E01D0ED
:100D0800000E0101146F156B8EEC2EF0F20E01012E
:100D18000F6F020E0101106F37EC6EF081EC39F0A5
:100D2800C9EC6FF0000E0101276F1E0E266F010E31
:100D38000101286F040E72EC66F0000E0501936F36
:100D4800000E0101066F000E076F020E086F000EFD
:100D5800096F010E01010A6F000E0B6F000E0C6F78
:100D6800000E0D6F930E01010E6F050E01010F6F3E
:100D7800B6EC64F005019305D8A41ED0000E050159
:100D8800936F000E0101056F000E066F020E076FCC
:100D9800000E086F930E0101096F050E01010A6F1D
:100DA800010E01010B6F000E0C6F000E0D6F000E8F
:100DB8000E6F9BEC65F000D0F20E0101066F020E7B
:100DC8000101076FE20E0101086F010E0101096FB1
:100DD800040E01010A6F25EC6CF00009D8B403D0A9
:100DE8000400FED700D032EC72F0000E0001C16F93
:100DF80000D00101D9510101D8A479EF0CF0000EFF
:100E0800BEEC6EF00101DF510101D8B402D0FF0041
:100E180000D0000E0101E16F04000101BA51D8B4FD
:100E280085D00101BE51D8B41CD069EC6FF017C150
:100E38005EF218C15FF202015F510CE11F0E020160
:100E48005E5DD8B007D0000E01014A6F010EB1EC0B
:100E580019F007D0000E01014A6F000EB1EC19F02D
:100E680000D00101F9510101D8B426D0FC0E0101CE
:100E78000B6F010E01010C6F840E01010D6F050E41
:100E880001010E6FB5EC3BF00301F76F1F0E030174
:100E9800F76112D0FC0E0101186F010E0101196FE4
:100EA800000E01011A6F1FEC6AF00009D8B404D0D3
:100EB800000E0101F96F00D0000E0101BA6F3E0E5D
:100EC80056EC33F0EA0E0101006F010E0101016FCB
:100ED800F0EC47F007EC60F009EC73F00009D8B4C7
:100EE80025D00101F7510101D8B420D0010E00012D
:100EF800C16FBC0E0101126FFF0E0101136F99EC57
:100F080072F002C1D9FF03C1DAFFDF500301F76FA6
:100F18000301F7510101146F156B8EEC2EF0000ED2
:100F28000001C16F000E0101F76F00D069EC6FF08E
:100F380017C15EF218C15FF202015F5105E1070EA9
:100F480002015E5DD8A02AD002015F5127E11F0E81
:100F580002015E5DD8B022D00101D451D8B41ED0B0
:100F68008A0E01010E6F050E01010F6FB90E010106
:100F7800106F030E0101116FBFC112F1000E0101C4
:100F8800136F010E0101146F000E0101156F8DEC36
:100F98003EF000D0000E0101D46F00D00101BC5119
:100FA800D8B409D0000E0101BC6F200EC1EC50F07E
:100FB800600EC1EC50F00001CE51D8B43AD0E1EC4B
:100FC80072F000C117F101C118F1040E01010C6F94
:100FD800010E50EC55F00CC119F10DC11AF1C6EC17
:100FE80072F0010100C11BF1010101C11CF10101F5
:100FF8001D6B1E6BB7EC5BF017C188F518C189F53E
:101008004B0E0501885D010E05018959D8A011D044
:101018000101BB51D8B40AD00001CA51D8A406D0E6
:10102800FEEC66F0000E0101BB6F00D0C8EC6BF05F
:1010380000D03E0E01010E6F030E01010F6FED0E81
:101048000101106F010E0101116FA2EC3DF00009C2
:10105800D8B452D03E0E01012C6F030E01012D6F42
:10106800EDC12EF1D2C12FF1F5C130F1C0EC2BF05A
:101078000009D8B43AD0410E01010E6F030E0101E8
:101088000F6FA40E0101106F020E0101116F910E76
:101098000101126F050E0101136FE3EC65F0000901
:1010A800D8B423D00B0E0501906FA40E0101896FEF
:1010B800020E01018A6F05019051010D3E0EF324C5
:1010C80001018B6F030EF42001018C6F0501905113
:1010D80000080101ED2501018D6F91C58EF1000E0B
:1010E80001018F6F55EC13F000D0000E0001CE6F98
:1010F800000E0101D26F00D0030E0101EA19D8A435
:1011080014D0030E0101EB19D8A40FD0000E010171
:10111800EA6F000E0101EB6F030E0101006F010E73
:101128002EEC73F00101C48944D0020E0101EB19C1
:10113800D8A40CD0000E0101EB6F020E0101006F64
:10114800010E2EEC73F00101C48733D00101EB05C9
:10115800D8A40CD0000E0101EB6F010E0101006F45
:10116800010E2EEC73F00101C48523D0020E01019B
:10117800EA19D8A40ED0000E0101EA6FE7EC58F086
:10118800020E0101006F000E2EEC73F00101C48302
:1011980010D00101EA05D8A40CD0000E0101EA6FB5
:1011A800010E0101006F000E2EEC73F00101C481E5
:1011B80000D00101BD51D8B42BD0000E0101BD6F84
:1011C800800E0101BE19D8A411D00101D851010126
:1011D800D8A405D00101D9510101D8B407D0000E17
:1011E800C1EC50F0000E0101D86F10D0800E010143
:1011F800BE19D8A40BD00001CA51D8A407D0200E1C
:10120800C1EC50F0600EC1EC50F000D0040000D0EA
:10121800ACA21AD0000E0101016F020E006FEF0E92
:101228000101026F010E0101036F82EC4FF000090A
:10123800D8B406D00101EF510EEC72F0010E01D0C6
:10124800000E0101E06F00D0000E0101016F010ED8
:10125800006FEF0E0101026F010E0101036F82ECB6
:101268004FF00009D8B408D0EFC12CF1010EF2EC10
:101278006DF00101B96F07D00101CF51D8B403D087
:101288000101CF0700D00101B951D8B46BD10401D5
:101298000151C00B0501946F05019445E846030B05
:1012A8000501946FED0E0101126FFF0E0101136F1E
:1012B8008EEC2EF0050194510501D8A409D1000E39
:1012C8000101C06F09EC73F00009D8B43FD1000EDA
:1012D8000101006F040E0101016F020E0101026F8E
:1012E800E20E0101036F010E0101046F000E0101FE
:1012F800056F040E0101066FC5EC67F00009D8B44C
:10130800BDD00A0E0101BF6FE6C1B9F3E7C1BAF358
:10131800E8C1BBF3E9C1BCF31D0E0301BD6F2B0E81
:101328000301BE6F02C4BFF303C4C0F304C4C1F316
:1013380005C4C2F3010E0001C16F0101ED51FA0F9E
:101348000101ED6F000E0101016F020E006F240E06
:101358000101026F7DEC52F0000E0101016F020ED7
:10136800006F240E0101026F7DEC52F0000E0101A6
:10137800016F020E006F0101ED51040F0101026FB0
:101388007DEC52F0000E0101016F020E006F000E9D
:101398000101026F7DEC52F0000E05018E6F000E08
:1013A8000501926F22D0000E0101016F020E006F3D
:1013B80005019251010DB90EF324D96E030EF420E4
:1013C800DA6EDF500101026F7DEC52F00501925197
:1013D800010DB90EF324D96E030EF420DA6EDF5036
:1013E80005018E1B0501922B00D0FF0E0301F76F3C
:1013F800FF0E0301F86F0101BF510301F96FFA6B8A
:101408000301F7510301F9270301F8510301FA23F6
:10141800050192510301FB6FFC6B0301F9510301B4
:10142800FB5D0301FC51800A0301FD6F0301FA51C2
:10143800800A0301FD59D8A0B6D7000E0101016F3B
:10144800020E006F8EC502F17DEC52F0000E010114
:10145800016F020E006F0D0E0101026F7DEC52F05C
:10146800000E0101016F020E006F0A0E0101026FEA
:101478007DEC52F0000E0001C16F68D00101EC5103
:10148800F80F0101BF6F020E0301B96F000E0101D1
:10149800006F040E0101016F060E0101026FB90E03
:1014A8000101036F030E0101046F010E0101056FB5
:1014B800BFC106F151EC65F002C48AF503C48BF58F
:1014C80004C48CF505C48DF5010E0101D46F3ED01E
:1014D800020E05019419D8A439D0020E0101C06F7B
:1014E80009EC73F00009D8B431D0020E01010E6F77
:1014F800040E01010F6F800E0101106F050E01012E
:10150800116F8F0E0101126F050E0101136FE3ECCD
:1015180065F00009D8B41AD0060E0101896F040ECF
:1015280001018A6F0A0E01018B6F040E01018C6F95
:101538000101EC51F30F01018D6F280E01018E6F2F
:10154800010E01018F6F55EC13F000D0000E010160
:10155800B96FDC0E0101126FFF0E0101136F8EECE3
:101568002EF000D0010E9DEC6EF00009D8B417D013
:10157800050E0101276FA00E266F020E0101286FCC
:101588000C0E72EC66F00D0E80EC71F00101D85172
:101598000101D8B404D0000E0101D86F00D00A0EA2
:1015A8009DEC6EF00009D8B420D0FC0E0101066F46
:1015B800010E0101076FE20E0101086F010E010122
:1015C800096F040E01010A6F25EC6CF00009D8A41C
:1015D8000CD0FC0E0101186F010E0101196F000EED
:1015E80001011A6F3DEC40F000D00B0E9DEC6EF03F
:1015F8000009D8B415D0000E02014F6F000E4E6FCF
:10160800000E0101B06F000EAF6F000E0201616F96
:10161800000E606F000E0201636F000E626F00D053
:10162800000E9DEC6EF00009D8B404D0000E010144
:10163800C46F00D00B0E62EC70F00009D8B40BD068
:10164800050E0101276FA00E266F020E0101286FFB
:101658000B0E72EC66F00A0E62EC70F000D002011C
:10166800435105E10B0E0201425DD8A00CD0070ED4
:1016780067EC58F0000ED9EC71F0000E0201436FD0
:10168800000E426F00D00101C351D8B40AD0000E39
:1016980001010D6F240E0C6FA9EC5FF00101C30767
:1016A80000D0000E02016B6F0C0E62EC70F00009A6
:1016B800D8B40CD0050E0101276FA00E266F020EBC
:1016C8000101286F0C0E72EC66F000D00101D351B5
:1016D800D8B41ED0050E0101276FA00E266F020E8A
:1016E8000101286F0C0E72EC66F0000E0101D36F39
:1016F8000101BE51D8B40CD00101C2510101D8A4D6
:1017080007D0000E0101D86F0D0E80EC71F000D0EB
:101718000C0E9DEC6EF00009D8B40BD0040E01013C
:10172800276FB00E266F010E0101286F0D0E72ECA7
:1017380066F00D0E9DEC6EF00009D8B40BD0020EC9
:101748000101276F580E266F010E0101286F0C0E3C
:1017580072EC66F0110E9DEC6EF00009D8B406D05C
:10176800010E0101DB6FDFEC28F000D0100E9DECBC
:101778006EF00009D8B41DD009EC73F00009D8A4A4
:1017880018D00101FA510101D8B404D041EC68F035
:10179800000E0CD0FC0E0101186F010E0101196F2B
:1017A800010E01011A6F3DEC40F0010E0101FA6FC4
:1017B80000D0100E62EC70F00009D8B40CD0000E06
:1017C8000101276F1E0E266F010E0101286F100EF2
:1017D80072EC66F000D00001ACBF08D03E0E0001EC
:1017E800AB5D080E0001AC59D8B00BD00101C25155
:1017F8000101D8B452D00101BE51D8B455D04DD052
:1018080053D00101C2510101D8B410D00101C25115
:101818000101D8B439D00001ACBF36D07D0E00012B
:10182800AB5D080E0001AC59D8A02ED0000E010106
:10183800C26F010E8EEC6AF0010100510101011125
:10184800D8B404D00CD030D010D02ED00D0E8EECE1
:101858006AF00101005101010111D8B40DD0010154
:10186800BE51D8B421D001D01FD00101D8510101F7
:10187800D8A41AD015D018D00101BE51D8A414D0BC
:10188800000E70EC69F010D00101C2510101D8B40A
:101898000BD00101BE51D8B407D0010E0101C26FAF
:1018A800010E0101D86F00D0040E01010C6F000E6B
:1018B80025EC5CF00CC140F20DC141F2020140512F
:1018C8000101AF5D020141510101B059D8B009D001
:1018D8000101E151D8A405D040C2AFF141C2B0F135
:1018E80000D0F8EC6BF0FDEF06F02CEC73F000097B
:1018F800D8B4FDEF06F0E6EC72F0010E0101DF6FDF
:10190800FDEF06F02CEF05F02DC121F12EC122F1DB
:1019180034C123F131C106F132C107F133C108F1F5
:1019280057EC51F00101246F000E0101256F1FECE7
:1019380038F00101576F2DC106F12EC107F12FC1F3
:1019480008F130C109F1040E01010A6FF4EC6CF0E2
:10195800010135510101D8A410D02DC106F12EC1C5
:1019680007F1FA0E0101086F020E0101096F040E5A
:1019780001010A6FF4EC6CF000D0010E010133652F
:1019880052EF13F031C1D9FF32C1DAFFDE04D8A417
:1019980066D1050E0101336562D1F90E01013325C7
:1019A8000101006F0101016BFF0E0123000E01010F
:1019B800036F050E026F64EC60F001010051010134
:1019C8000111D8A44CD1FF0E0101366FFF0E0101A1
:1019D800376F010133510101386F396B01013651FD
:1019E800010138270101375101013923010138511B
:1019F80001013125D96E0101395101013221DA6E17
:101A08000001CB51DE18D8B424D0FF0E0101366F87
:101A1800FF0E0101376F010133510101386F396B36
:101A280001013651010138270101375101013923DC
:101A38000101385101013125D96E010139510101E6
:101A48003221DA6EDE28D8A452EF13F002D052EF1A
:101A580013F0000E0101596F010E586FE7D0050E03
:101A6800010158250101366F000E010159210101BC
:101A7800376F010133510101386F396B010136515C
:101A88000101385D01013951800A01013A6F0101F4
:101A98003751800A01013A59D8A082D0010159BFB3
:101AA8007FD00101595105E1060E0101585DD8A00A
:101AB80077D031C100F132C101F158C102F1400EB5
:101AC8000101036F010E0101046F000E0101056F92
:101AD800040E0101066F51EC65F0040E0101582552
:101AE8000101366F000E010159210101376F010113
:101AF800365101013125D96E0101375101013221D9
:101B0800DA6EDF500101386F050E0101396F0101EE
:101B1800D89038330101392FFAD701013851070B12
:101B280001014C6F040E010158250101366F000EAA
:101B3800010159210101376F010136510101312598
:101B4800D96E0101375101013221DA6EDF501F0BC6
:101B58000101546F1E0E0101546506D0000E0101EB
:101B68004F6F1F0E4E6F0AD0010E0101542501015F
:101B78004E6F01014F6B000E4F2300D0400E010144
:101B8800156F010E0101166F57C117F14EC118F1FB
:101B98004CC119F1000E01011A6F17EC1EF03CD070
:101BA8000101580501015911D8A436D031C100F1FD
:101BB80032C101F1010E0101026FE60E0101036F4E
:101BC800010E0101046F000E0101056F040E0101F1
:101BD800066FC5EC67F00009D8B41ED02DC10EF110
:101BE8002EC10FF1040E010158250101366F000EB8
:101BF800010159210101376F0101365101013125D8
:101C0800D96E0101375101013221DA6EDF5001012D
:101C1800106F1EEC63F000D0050E0101582501017C
:101C2800586F000E010159210101596F010133510B
:101C38000101366F376B010136510101585D010111
:101C48005951800A0101386F01013751800A010199
:101C58003859D8B052EF13F002D752EF13F031C110
:101C6800D9FF32C1DAFF020EDE18D8A423D0010151
:101C780020EE02F03151D9263251DA22DE5002012B
:101C88007719D8A452EF13F0000E02016E6F000E00
:101C98000201A16F020E0201A26F000E0101DA6FAC
:101CA800510E0101346152EF13F0010E0101D06FA2
:101CB80052EF13F031C1D9FF32C1DAFF020EDF64EF
:101CC80052EF13F00B0E0101336552EF13F0010EC2
:101CD8000101D36F010120EE02F03151D9263251B2
:101CE800DA22DE5002017719D8A40AD0000E0201C8
:101CF8006E6F000E0201A16F020E0201A26F00D0EA
:101D0800010120EE01F03151D9263251DA22DE509C
:101D180002017719D8A498D16F0E0101006F020E45
:101D28000101016F000E0101026F31C103F132C1DF
:101D380004F1030E0101056F040E0101066FC5ECE5
:101D480067F00009D8B480D1010120EE01F03151CB
:101D5800D9263251DA22DF500101B66F010E000197
:101D6800BC6F2DC106F12EC107F1EE0E0101086FFF
:101D7800020E0101096F040E01010A6FF4EC6CF008
:101D8800010120EE07F03151D9263251DA22010142
:101D9800E651DE18D8A424D0010120EE08F0315114
:101DA800D9263251DA220101E751DE18D8A418D019
:101DB800010120EE09F03151D9263251DA22010110
:101DC800E851DE18D8A40CD0010120EE0AF03151F8
:101DD800D9263251DA220101E951DE18D8B434D1BA
:101DE80031C1D9FF32C1DAFF040EDE18D8B429D1C7
:101DF80001D027D131C100F132C101F1030E010137
:101E0800026FE60E0101036F010E0101046F000E5F
:101E18000101056F040E0101066FC5EC67F00009AA
:101E2800D8A40FD101D00DD1010120EE0BF0315112
:101E3800D9263251DA220201A351DE5CD8B003D090
:101E4800000E1200FED0D4C250F1D5C251F1D6C254
:101E580052F1D7C253F131C100F132C101F1070E7D
:101E68000101026F440E0101036F010E0101046FAD
:101E7800000E0101056F040E0101066F51EC65F0BB
:101E8800440E01010B6F010E01010C6F500E010190
:101E98000D6F010E01010E6FB5EC3BF001014D6FA6
:101EA80001015569500E0101066F010E0101076F0E
:101EB800E20E0101086F010E0101096F040E010114
:101EC8000A6F25EC6CF00009D8A40AD0500E010165
:101ED8000E6F010E01010F6F03EC68F00101556FE1
:101EE8006F0E0101066F020E0101076FF60E010168
:101EF800086F020E0101096F040E01010A6FF4EC6C
:101F08006CF077C2F4F153EC72F00201776F040EB3
:101F18000201786F060E02016E6F000E0201A16FBA
:101F2800020E0201A26F31C100F132C101F1030EAC
:101F38000101026F730E0101036F020E0101046FAC
:101F4800000E0101056F040E0101066F51EC65F0EA
:101F5800E60E0101066F010E0101076F6F0E010108
:101F6800086F020E0101096F040E01010A6FF4ECFB
:101F78006CF0000E0201A36F1D0E0201796F2B0E8B
:101F880002017A6F440E0101006F010E0101016F19
:101F9800000E0101026F790E0101036F020E0101AB
:101FA800046F020E0101056F040E0101066F51EC6A
:101FB80065F0500E0101006F010E0101016F000E66
:101FC8000101026F790E0101036F020E0101046F16
:101FD800060E0101056F040E0101066F51EC65F054
:101FE8002DC100F12EC101F1000E0101026F790E21
:101FF8000101036F020E0101046F0A0E0101056F52
:10200800040E0101066F51EC65F04DC187F255C110
:1020180088F201015551060D040EF326000EF42234
:10202800BD0EF324D96E0A0EF420DA6EDF500F0BC2
:102038000201896F110E02019F6F000E0101DA6F14
:1020480000D0000E120000D002016E51D8A408D0B2
:102058000001BC51D8A404D00201A051D8B44ED07C
:10206800730E0101066F020E0101076F030E0101D5
:1020780031250101086F000E010132210101096FAC
:10208800040E01010A6F25EC6CF00009D8B433D0B6
:1020980002016E51D8B42FD00001BC51D8A42BD066
:1020A8000201A051D8A427D0010120EE01F031513E
:1020B800D9263251DA220101F451DE18D8A41ED0F3
:1020C800F60E0101006F020E0101016F000E010101
:1020D800026F31C103F132C104F1030E0101056F32
:1020E800040E0101066FC5EC67F00009D8B406D0EC
:1020F800000E120003D0000E120000D0010120EEE5
:1021080007F03151D9263251DA220101E651DE18A1
:10211800D8A424D0010120EE08F03151D92632513B
:10212800DA220101E751DE18D8A418D0010120EE07
:1021380009F03151D9263251DA220101E851DE186D
:10214800D8A40CD0010120EE0AF03151D926325121
:10215800DA220101E951DE18D8B4D0D0010120EE0D
:102168000BF03151D9263251DA221F0EDE18D8A4CD
:1021780002D0000E12006F0E0101066F020E01015F
:10218800076FF60E0101086F020E0101096F040EB8
:1021980001010A6FF4EC6CF077C2F4F1010120EE52
:1021A80001F03151D9263251DA22DF500201776F1E
:1021B80031C1D9FF32C1DAFFDF500201786F060E54
:1021C80002016E6F000E0201A16F020E0201A26FE2
:1021D80031C100F132C101F1070E0101026F730E26
:1021E8000101036F020E0101046F000E0101056F6A
:1021F800040E0101066F51EC65F031C100F132C1E6
:1022080001F1030E0101026F6F0E0101036F020E4F
:102218000101046F000E0101056F040E0101066F34
:1022280051EC65F0010120EE0BF03151D926325105
:10223800DA22DF500101366F010136290201A36F4E
:1022480031C100F132C101F10C0E0101026F790EAA
:102258000101036F020E0101046F000E0101056FF9
:1022680001013351F40F0101066F51EC65F00101D2
:102278003351F40F02019F6F000E0101DA6F010163
:1022880020EE01F03151D9263251DA22DF50010116
:10229800B66F010E0001BC6F2DC106F12EC107F10A
:1022A800EE0E0101086F020E0101096F040E010113
:1022B8000A6FF4EC6CF02DC121F12EC122F134C16A
:1022C80023F1010E0101246F010E0101256F1FEC9E
:1022D80038F00101576F6F0E0101156F020E0101F1
:1022E800166F57C117F1A3C218F1000E0101196F3B
:1022F800010E01011A6F17EC1EF0D0D1000E33EC5D
:102308006FF06F0E0101066F020E0101076FF60EE6
:102318000101086F020E0101096F040E01010A6F25
:10232800F4EC6CF077C2F4F1010120EE01F03151C8
:10233800D9263251DA22DF500201776F31C1D9FF35
:1023480032C1DAFFDF500201786F000E02016E6FB2
:10235800000E0201A16F020E0201A26F31C100F14D
:1023680032C101F1070E0101026F730E0101036F03
:10237800020E0101046F000E0101056F040E010138
:10238800066F51EC65F031C100F132C101F1030E65
:102398000101026F6F0E0101036F020E0101046F4C
:1023A800000E0101056F040E0101066F51EC65F086
:1023B80031C100F132C101F1030E0101026F2FC1D9
:1023C80003F130C104F1000E0101056F040E010193
:1023D800066F51EC65F0010120EE0BF03151D92662
:1023E8003251DA22DF500101366F0101362902012C
:1023F800A36F31C100F132C101F10C0E0101026F6E
:10240800790E0101036F020E0101046F000E010134
:10241800056F01013351F40F0101066F51EC65F0AE
:1024280001013351F40F02019F6F010120EE01F009
:102438003151D9263251DA22DF500101B66F010E2F
:102448000001BC6F2DC106F12EC107F1EE0E01018E
:10245800086F020E0101096F040E01010A6FF4EC06
:102468006CF0000E0101DA6F2DC121F12EC122F1AD
:1024780034C123F1010E0101246F010E0101256F02
:102488001FEC38F00101576F6F0E0101156F020E36
:102498000101166F57C117F1A3C218F1000E01010F
:1024A800196F010E01011A6F17EC1EF0090E0201D7
:1024B8007819D8A405D002017A51B1EC72F0EED0A7
:1024C80002017939E842070B0101566F01015651A3
:1024D8000101D8B41ED00101C951D8B41AD00D0ECB
:1024E800010131250101006F000E010132210101B6
:1024F800016FF30E010133250101026F0101036B26
:10250800FF0E032356C104F15AEC5AF0010E1200D3
:10251800C5D0010156510101D8A409D00101C95102
:10252800D8A405D0F3D703D0F1D71200B7D0020151
:1025380079511F0B0C0AD8B4E9D7020179511F0B46
:102548001E0AD8A407D002017A51D8A403D0DED736
:102558001200A4D0D8C248F1D9C249F1DAC24AF16E
:10256800DBC24BF131C100F132C101F1070E0101AB
:10257800026F3B0E0101036F010E0101046F000E93
:102588000101056F040E0101066F51EC65F03B0E69
:1025980001010B6F010E01010C6F480E01010D6F57
:1025A800010E01010E6FB5EC3BF001013F69480EC9
:1025B8000101066F010E0101076FE20E0101086FAC
:1025C800010E0101096F040E01010A6F25EC6CF080
:1025D8000009D8A40AD0480E01010E6F010E0101AE
:1025E8000F6F03EC68F001013F6F6F0E0101066F7A
:1025F800020E0101076FF60E0101086F020E0101BC
:10260800096F040E01010A6FF4EC6CF077C2F4F163
:1026180053EC72F00201776F040E0201786F060E18
:1026280002016E6F000E0201A16F020E0201A26F7D
:1026380031C100F132C101F1030E0101026F730EC5
:102648000101036F020E0101046F000E0101056F05
:10265800040E0101066F51EC65F0E60E0101066FEC
:10266800010E0101076F6F0E0101086F020E0101D3
:10267800096F040E01010A6FF4EC6CF0000E020100
:10268800A36F1D0E0201796F2C0E02017A6F020EE4
:1026980002019F6F000E0101DA6F00D0000E1200D8
:1026A800120089C12DF18AC12EF1A00E01012F6FF0
:1026B800010E0101306F8BC131F18CC132F18DC136
:1026C80033F18EC134F18FC135F188EC0CF000097B
:1026D800D8B41200000E01019F6F010120EE0CF02A
:1026E8008B51D9268C51DA22DF501F0B0101A46FC0
:1026F8000101A6691B0E0101A4650BD0010120EEA2
:102708000DF08B51D9268C51DA22DF500101A66FCA
:1027180000D0000E0101986F0C0E01018B250101FC
:10272800006F000E01018C210101016F020E0101F1
:10273800026F0C0E01018B250101036F000E0101D0
:102748008C210101046F060E0101056F040E0101C1
:10275800066FC5EC67F00009D8B426D00C0E01014D
:102768008B250101006F000E01018C210101016F11
:10277800060E0101026F0C0E01018B250101036F8A
:10278800000E01018C210101046F0A0E0101056F81
:10279800040E0101066FC5EC67F00009D8B404D037
:1027A800010E0101986F00D098C1A7F1000E010138
:1027B800996F0C0E01018B250101006F000E0101BC
:1027C8008C210101016F030E0101026F0C0E010142
:1027D8008B250101036F000E01018C210101046F9B
:1027E800070E0101056F040E0101066FC5EC67F0C5
:1027F8000009D8B426D00C0E01018B250101006F09
:10280800000E01018C210101016F070E0101026F09
:102818000C0E01018B250101036F000E01018C21B3
:102828000101046F0B0E0101056F040E0101066F13
:10283800C5EC67F00009D8B404D0010E0101996F06
:1028480000D099C19AF132EF18F04EEF18F01AD073
:102858004EEF18F0190E01018D19D8A44EEF18F09B
:102868000D0E01018B250101186F000E01018C214D
:102878000101196F000E01011A6F1FEC6AF04EEF8B
:1028880018F044D0010E01019F6F4EEF18F00101BE
:1028980020EE0EF08B51D9268C51DA22410EDE182B
:1028A800D8A4F8D3010120EE0FF08B51D9268C5112
:1028B800DA22530EDE18D8A4EDD3010120EE10F071
:1028C8008B51D9268C51DA22460EDE18D8A4E2D3D1
:1028D800EC0E0101066F030E0101076F110E0101D5
:1028E8008B250101086F000E01018C210101096F80
:1028F8000B0E01010A6F25EC6CF00009D8B4CAD39D
:10290800000E0101DB6FDFEC28F0C4D30101A651F2
:10291800030AD8B4B7D7290AD8B4B9D7BBD306D1D4
:102928000101A7510101D8B4B5D30E0E01018B25C1
:102938000101186F000E01018C210101196F000EB1
:1029480001011A6F1FEC6AF0A5D301019A51010128
:10295800D8B417D00F0E01018B250101206F000E8E
:1029680001018C210101216F010120EE0EF08B5134
:10297800D9268C51DA22DF500101226FAAEC48F0E7
:1029880089D3A00E0101186F010E0101196F2D0ED8
:1029980001011A6F010120EE01F08B51D9268C51EB
:1029A800DA22DF5001011B6F15EC6EF073D30101C1
:1029B8009A510101D8B417D00F0E01018B250101DE
:1029C8000E6F000E01018C2101010F6F010120EE35
:1029D8000EF08B51D9268C51DA22DF500101106F8D
:1029E800FAEC44F057D3A00E0101186F010E010153
:1029F800196F2D0E01011A6F010120EE01F08B51A4
:102A0800D9268C51DA22DF5001011B6F15EC6EF0CC
:102A180041D30101A7510101D8A43CD301D03AD335
:102A2800A00E0101186F010E0101196F2D0E010191
:102A38001A6F010120EE01F08B51D9268C51DA2250
:102A4800DF5001011B6F15EC6EF024D30101A75173
:102A58000101D8B41FD30E0E01018B250101186F97
:102A6800000E01018C210101196FACEC6DF012D33D
:102A7800010120EE0EF08B51D9268C51DA22520E2C
:102A8800DE18D8A419D0010120EE0FF08B51D926F9
:102A98008C51DA22530EDE18D8A40ED0010120EE94
:102AA80010F08B51D9268C51DA22490EDE18D8A4A1
:102AB80003D0A1EC72F0EED2A00E0101186F010E46
:102AC8000101196F2D0E01011A6F010120EE01F0AD
:102AD8008B51D9268C51DA22DF5001011B6F15EC7E
:102AE8006EF0D8D20101A7510101D8B4D3D20E0E8D
:102AF80001018B250101186F000E01018C210101D4
:102B0800196F7CEC6CF0C6D20101A7510101D8B451
:102B1800C1D20E0E01018B250101186F000E0101B3
:102B28008C210101196FC3EC63F0B4D20101A651E5
:102B3800000AD8B4F5D6040AD8B4ACD2240AD8B45A
:102B480004D7010AD8B433D7030AD8B462D7010A24
:102B5800D8B47CD7070AD8B48BD7010AD8B4C2D75F
:102B68000B0AD8B4D1D796D25BD20E0E01018B25B1
:102B780001012F6F000E01018C210101306FBAECA9
:102B880036F0A00E0101186F010E0101196FACECAF
:102B98006DF080D28BC100F18CC101F10E0E0101E4
:102BA800026FFC0E0101036F010E0101046F000E9C
:102BB8000101056F040E0101066F51EC65F00D0E61
:102BC80001018B250101186F000E01018C21010103
:102BD800196F7CEC6CF05ED28BC100F18CC101F1F5
:102BE8000E0E0101026F8BC103F18CC104F1170EA7
:102BF8000101056F040E0101066FC5EC67F00009BD
:102C0800D8B499D08BC100F18CC101F1170E010124
:102C1800026F8BC103F18CC104F1200E0101056F15
:102C2800040E0101066FC5EC67F00009D8B483D023
:102C38008BC100F18CC101F1120E0101026F8BC131
:102C480003F18CC104F11B0E0101056F040E010193
:102C5800066FC5EC67F00009D8B46DD08BC100F1E0
:102C68008CC101F11B0E0101026F8BC103F18CC1F4
:102C780004F1240E0101056F040E0101066FC5EC75
:102C880067F00009D8B457D0010120EE1FF08B512E
:102C9800D9268C51DA22010110EE16F08B51E1266B
:102CA8008C51E222DE50E618D8A445D0010120EE6E
:102CB80028F08B51D9268C51DA22010110EE1FF031
:102CC8008B51E1268C51E222DE50E618D8A433D08D
:102CD8000E0E01018B2501012A6F000E01018C21C6
:102CE80001012B6F120E01018B2501012C6F000EC3
:102CF80001018C2101012D6F010120EE16F08B518D
:102D0800D9268C51DA22DF5001012E6FA6EC6CF027
:102D1800A00E0101186F010E0101196F0E0E0101BD
:102D28008B2501011A6F000E01018C2101011B6F17
:102D380036EC47F0AFD1A00E0101186F010E01016A
:102D4800196F2D0E01011A6F010120EE01F08B5150
:102D5800D9268C51DA22DF5001011B6F15EC6EF079
:102D680099D10E0E01018B2501010E6F000E010194
:102D78008C2101010F6F18EC61F0A00E0101186F92
:102D8800010E0101196F010E01011A6F1FEC6AF0A3
:102D980081D1010120EE0EF08B51D9268C51DA2217
:102DA800520EDE18D8A476D1010120EE0FF08B5117
:102DB800D9268C51DA22530EDE18D8A46BD1010122
:102DC80020EE10F08B51D9268C51DA22540EDE18E1
:102DD800D8A460D1FF005ED1010120EE0EF08B5126
:102DE800D9268C51DA22530EDE18D8A453D101010A
:102DF80020EE0FF08B51D9268C51DA22460EDE18C0
:102E0800D8A448D1010120EE10F08B51D9268C515D
:102E1800DA22540EDE18D8A43DD1A00E0101186F95
:102E2800010E0101196F14EC64F0010120EE11F09C
:102E38008B51D9268C51DA22DF500001D76F150E3D
:102E48000101276F7C0E266F000E0101286F110EFD
:102E580072EC66F01FD1010120EE0EF08B51D926DD
:102E68008C51DA22530EDE18D8A458D0010120EE76
:102E78000FF08B51D9268C51DA22520EDE18D8A4C5
:102E88004DD0010120EE10F08B51D9268C51DA2259
:102E9800460EDE18D8A442D0010120EE11F08B5165
:102EA800D9268C51DA22040EDF6038D0010120EED9
:102EB80011F08B51D9268C51DA22DF500101976F1E
:102EC800010120EE12F08B51D9268C51DA22DF5005
:102ED8000101906F0101905101019C6F9D6B0101EF
:102EE8009C5101019D6F9C6B010120EE13F08B51E9
:102EF800D9268C51DA22DF500101906F01019051DF
:102F080001019C27000E9D239CC126F19DC127F13C
:102F180097C128F1010E72EC66F0BCD0A00E010139
:102F2800186F010E0101196F2D0E01011A6F0101B1
:102F380020EE01F08B51D9268C51DA22DF500101A5
:102F48001B6F15EC6EF0A6D00101A7510101D8B492
:102F5800A1D0010120EE1BF08B51D9268C51DA2229
:102F6800DF500101906F010190510101B16FB26B07
:102F78000101B1510101B26FB16B010120EE1AF0EC
:102F88008B51D9268C51DA22DF500101906F010153
:102F980090510101B127000EB2230101B105090EBC
:102FA8000101B259D8A006D0000E0101B26F000E7F
:102FB800B16F70D0010120EE1CF08B51D9268C51D5
:102FC800DA22DF500001D76F0E0E01018B250101B7
:102FD800186F000E01018C210101196FE6EC69F0F0
:102FE800010120EE1DF08B51D9268C51DA22DF50D9
:102FF8000101EE6F1E0E01018B250101066F000E07
:1030080001018C210101076FEC0E0101086F030E0D
:103018000101096F0B0E01010A6FF4EC6CF03AD054
:103028000101A651040AD8B48FD7270AD8B49DD570
:10303800060AD8B4AFD5030AD8B4CED5010AD8B495
:1030480090D60F0AD8B4A5D6010AD8B423D0030A5B
:10305800D8B4C2D66A0AD8B4FED61CD00101A4518D
:10306800000AD8B417D0020AD8B40CD4060AD8B4C7
:1030780011D0080AD8B42EEF14F0100AD8B40AD028
:10308800010AD8B443D4030AD8B450D5010AD8B435
:10309800C7D700D001019F510101D8A420D00C0E40
:1030A80001018B250101816F000E01018C210101B5
:1030B800826F8EC183F1A00E0101846F010E0101A0
:1030C800856FA4C186F1A6C187F101018D51F40F66
:1030D8000101886F76EC62F001019F6F00D0010159
:1030E8009F510101D8B41200E80E0101126FFF0EC2
:1030F8000101136F8EEC2EF00101C051D8A423D129
:10310800010E0001C16F01018D51FD0F01019B6F7F
:10311800000E0101016F020E006F240E0101026F03
:103128007DEC52F0000E0101016F020E006F240EBB
:103138000101026F7DEC52F0000E0101016F020ED9
:10314800006F9BC102F17DEC52F0000E0101016F8E
:10315800020E006F000E0101026F7DEC52F0000EAE
:1031680001019E6F000E0101016F020E006F010147
:1031780020EE03F08B51D9268C51DA22DF50010161
:10318800026F7DEC52F0010120EE03F08B51D9263D
:103198008C51DA22DF5001019E1B000E0101016FE4
:1031A800020E006F010120EE04F08B51D9268C51DC
:1031B800DA22DF500101026F7DEC52F0010120EEAE
:1031C80004F08B51D9268C51DA22DF5001019E1B65
:1031D800000E0101016F020E006F010120EE05F0E3
:1031E8008B51D9268C51DA22DF500101026F7DEC18
:1031F80052F0010120EE05F08B51D9268C51DA22CC
:10320800DF5001019E1B000E0101016F020E006FCD
:10321800010120EE06F08B51D9268C51DA22DF50BD
:103228000101026F7DEC52F0010120EE06F08B5196
:10323800D9268C51DA22DF5001019E1B000E0101B4
:10324800A56F38D0000E0101016F020E006F010159
:10325800A5510101906F916B0C0E01019027000E92
:1032680091230101905101018B25D96E01019151E2
:1032780001018C21DA6EDF500101026F7DEC52F002
:103288000101A5510101906F916B0C0E010190276E
:10329800000E91230101905101018B25D96E010186
:1032A800915101018C21DA6EDF5001019E1B010151
:1032B800A52B00D0F70E0101906FFF0E0101916F51
:1032C80001019B510101926F936B01019051010122
:1032D800922701019151010193230101A551010197
:1032E800946F956B010192510101945D0101955113
:1032F800800A0101966F01019351800A01019659D4
:10330800D8A0A0D7000E0101016F020E006F9EC168
:1033180002F17DEC52F0000E0101016F020E006F08
:103328000D0E0101026F7DEC52F0000E0101016FDC
:10333800020E006F0A0E0101026F7DEC52F0000EC2
:103348000001C16F00D0D60E0101126FFF0E0101FE
:10335800136F8EEC2EF01200120001015A6F020159
:103368006E51D8A414D00001BC51D8A410D00201C9
:10337800A051D8A40CD001014A05D8A408D0010E48
:103388000101486F01015A516FEC72F008D0000E2C
:103398000101486F01015A516FEC72F000D0870E9D
:1033A80001015B6F030E01015C6F01EC73F0000912
:1033B800D8A416D0E4C20CF1E5C20DF1A9EC5FF077
:1033C800010E01010C250201366F000E01010D21CD
:1033D8000201376F000E0201E76F000EE66F00D0A2
:1033E800FDEC72F00009D8B4DED00201A051D8B4C7
:1033F8007BD001015A510101D8B476D0000E0201E8
:10340800A06F5BC1D9FF5CC1DAFF78C2DFFF0101A1
:1034180020EE01F05B51D9265C51DA2277C2DFFF3A
:10342800010120EE02F05B51D9265C51DA22B6C1C7
:10343800DFFF6F0E0101006F020E0101016F000E28
:103448000101026F5BC103F15CC104F1030E0101CC
:10345800056F040E0101066F51EC65F0730E010152
:10346800006F020E0101016F000E0101026F5BC1C6
:1034780003F15CC104F1070E0101056F040E01019F
:10348800066F51EC65F0010120EE0BF05B51D92677
:103498005C51DA22A3C2DFFF790E0101006F020E30
:1034A8000101016F000E0101026F5BC103F15CC1F4
:1034B80004F10C0E0101056F9FC206F151EC65F095
:1034C800E20E0101326F010E0101336F7C0E010122
:1034D800346F030E0101356F02019F510C0F01017A
:1034E800366FD2EC5AF05BD0020136510201E61970
:1034F80056E1020137510201E719D8A450D0010161
:103508005A510101D8B442D009EC73F00009D8B47B
:103518003DD00101F251D8B427D00EEC41F00101A1
:10352800516FE20E0101326F010E0101336F7C0E03
:103538000101346F030E0101356F51C136F1D2EC30
:103548005AF00009D8A42BD001D029D00201E451A7
:103558000201365D0201E55102013759D8B01FD08A
:103568000201364B372B1BD0E20E0101326F010EE0
:103578000101336F7C0E0101346F030E0101356FB9
:10358800000E0101366FD2EC5AF009D07D0E010110
:10359800126FFE0E0101136F8EEC2EF000D00201A7
:1035A800E64BE72BDBD2D0C256F1D1C257F1D2C2DB
:1035B80058F1D3C259F10101DA51D8A4C1D001019F
:1035C800DA2B0201A151D8A4B8D0010E02016E6510
:1035D800C5D2730E01010B6F020E01010C6F560E5E
:1035E80001010D6F010E01010E6FB5EC3BF00101F9
:1035F800526F0001BC51D8B416D0560E0101066FA7
:10360800010E0101076FEE0E0101086F020E0101A4
:10361800096F040E01010A6F25EC6CF00009D8A4AB
:103628009DD201D09BD2A2C20CF101010D6BA9EC75
:103638005FF001010C510201A16F01015A51010112
:10364800D8B48CD202016E070201A22B1F0E010111
:10365800526184D25BC1D9FF5CC1DAFF78C2DFFF57
:10366800010120EE01F05B51D9265C51DA2277C2C4
:10367800DFFF010120EE02F05B51D9265C51DA220E
:10368800B6C1DFFF6F0E0101006F020E0101016F6D
:10369800000E0101026F5BC103F15CC104F1030E6E
:1036A8000101056F040E0101066F51EC65F0730E00
:1036B8000101006F020E0101016F000E0101026F8E
:1036C8005BC103F15CC104F1070E0101056F040E33
:1036D8000101066F51EC65F0010120EE0BF05B5122
:1036E800D9265C51DA22A3C2DFFF790E0101006FEF
:1036F800020E0101016F000E0101026F5BC103F1AF
:103708005CC104F10C0E0101056F9FC206F151EC7A
:1037180065F0560E0101326F010E0101336F7C0E08
:103728000101346F030E0101356F02019F510C0F27
:103738000101366FD2EC5AF011D20201A1070ED264
:103748000101DA05D8A4E8D00001BC51D8B4E4D00E
:103758000101DA2B730E01010B6F020E01010C6FD0
:10376800560E01010D6F010E01010E6FB5EC3BF015
:103778000101536F010E02016E659CD0560E0101C6
:10378800066F010E0101076FEE0E0101086F020EB0
:103798000101096F040E01010A6F25EC6CF00009A4
:1037A800D8B488D0000E02016E6F000E0201A16F1E
:1037B800020E0201A26F01015A510101D8B4CED103
:1037C8001F0E01015361CAD1000E0001BC6F5BC11D
:1037D800D9FF5CC1DAFF78C2DFFF010120EE01F0FA
:1037E8005B51D9265C51DA2277C2DFFF010120EE56
:1037F80002F05B51D9265C51DA22B6C1DFFF6F0EA9
:103808000101006F020E0101016F000E0101026F3C
:103818005BC103F15CC104F1030E0101056F040EE5
:103828000101066F51EC65F0730E0101006F020E85
:103838000101016F000E0101026F5BC103F15CC160
:1038480004F1070E0101056F040E0101066F51EC2A
:1038580065F0010120EE0BF05B51D9265C51DA22AC
:10386800A3C2DFFF790E0101006F020E0101016F93
:10387800000E0101026F5BC103F15CC104F10C0E83
:103888000101056F9FC206F151EC65F0560E01016A
:10389800326F010E0101336F7C0E0101346F030E8C
:1038A8000101356F02019F510C0F0101366FD2ECF7
:1038B8005AF054D1000E0001BC6F5BC1D9FF5CC146
:1038C800DAFF020EDF6E010120EE01F05B51D9260E
:1038D8005C51DA22000EDF6E010120EE02F05B512E
:1038E800D9265C51DA22B6C1DFFF01015A51010124
:1038F800D8B434D1EE0E0101326F020E0101336FDC
:103908007C0E0101346F030E0101356F030E0101B6
:10391800366FD2EC5AF022D1020E0101DA651BD1C2
:1039280002016E05D8A413D1730E01010B6F020EAC
:1039380001010C6F560E01010D6F010E01010E6F92
:10394800B5EC3BF00101546F01015569560E0101B8
:10395800066F010E0101076FE20E0101086F010EEB
:103968000101096F040E01010A6F25EC6CF00009D2
:10397800D8A40BD0560E01010E6F010E01010F6F76
:1039880003EC68F00101556F00D0040E02017819AC
:10399800D8B414D06F0E0101066F020E0101076F33
:1039A800E60E0101086F010E0101096F040E010105
:1039B8000A6F25EC6CF00009D8B40AD0000E020199
:1039C8006E6F000E0201A16F020E0201A26FBFD03E
:1039D8006F0E0101066F020E0101076FE60E01016D
:1039E800086F010E0101096F040E01010A6F25EC31
:1039F8006CF00009D8A4ABD001D0A9D06F0E01019A
:103A0800066F020E0101076FF60E0101086F020E24
:103A18000101096F040E01010A6FF4EC6CF077C222
:103A2800F4F153EC72F00201776F040E0201786F23
:103A3800060E02016E6F000E0201A16F020E020156
:103A4800A26F730E0101066F020E0101076F4D0E82
:103A58000101086F010E0101096F040E01010A6FCF
:103A6800F4EC6CF06F0E0101066F020E0101076F96
:103A7800730E0101086F020E0101096F040E0101A6
:103A88000A6FF4EC6CF0E60E0101066F010E0101FD
:103A9800076F6F0E0101086F020E0101096F040E16
:103AA80001010A6FF4EC6CF0000E0201A36F1D0E09
:103AB8000201796F2B0E02017A6F4D0E0101006F22
:103AC800010E0101016F000E0101026F790E010163
:103AD800036F020E0101046F020E0101056F040E4F
:103AE8000101066F51EC65F0560E0101006F010EE1
:103AF8000101016F000E0101026F790E0101036FD0
:103B0800020E0101046F060E0101056F040E01018A
:103B1800066F51EC65F054C183F255C184F201017E
:103B28005551060D040EF326000EF422BD0EF324A3
:103B3800D96E0A0EF420DA6EDF500F0B0201856F82
:103B48000D0E02019F6F000E0101DA6F00D0000E0A
:103B58000101DA6F03D00101DA2B00D001EC73F018
:103B68000009D8A40CD00101C72B020E0101C765BA
:103B780006D0BCEC45F0000E0101C76F00D0010172
:103B8800B82B0101F1510101B85DD8A03FD0010166
:103B9800B751020DC90EF324D96E080EF420DA6E5F
:103BA800DF38E832E832030B0009D8B422D0010E1E
:103BB80001014B6F0101B751020DC90EF324D96EF3
:103BC800080EF420DA6EDF3801014C6F4C334C31AB
:103BD800030B4C6F01014B5101014C5F01014C3B40
:103BE8004C374C37DF5001014C193F0B4C19DF6E35
:103BF80000D00101B72BF90E0101B76503D0000E03
:103C08000101B76F000E0101B86F00D0070E9DECDF
:103C18006EF00009D8B4120081EC39F0010E0101F0
:103C2800F26F1200120015C106F116C107F1E60E77
:103C38000101086F010E0101096F040E01010A6FED
:103C480025EC6CF00009D8A4120001D01200010183
:103C58001729D8B4120001D01200030E0101086F11
:103C680001011751060D050EF326000EF422BD0EB4
:103C7800F324D96E0A0EF420DA6EDF50DDEC41F041
:103C88000101196151D0030E0101086F010117519B
:103C9800060D050EF326000EF422BD0EF324D96E90
:103CA8000A0EF420DA6EDF50DDEC41F001011B6FE3
:103CB80001011751060D040EF326000EF422BD0E65
:103CC800F324D96E0A0EF420DA6EDF380F0B82EC7B
:103CD8006FF001011B5DD8B012D001011751060D1C
:103CE800040EF326000EF422BD0EF324D96E0A0E3C
:103CF800F420DA6EDF380F0B82EC6FF03AD0030E47
:103D08000101086F01011751060D050EF326000E7B
:103D1800F422BD0EF324D96E0A0EF420DA6EDF50B9
:103D2800DDEC41F026D02BD001011751060D040E11
:103D3800F326000EF422BD0EF324D96E0A0EF420E9
:103D4800DA6EDF380F0B82EC6FF00101196114D0C5
:103D580001011751060D040EF326000EF422BD0EC4
:103D6800F324D96E0A0EF420DA6EDF380F0B82ECDA
:103D78006FF001011F6F03D019C11FF100D0000EB1
:103D88000101206FF90E0101206501D06BD215C128
:103D980004F116C105F101012051E6EC57F00009C4
:103DA800D8B45DD201012051020DC90EF324D96E99
:103DB800080EF420DA6EDF503F0BCBEC62F0010105
:103DC8001C6F01012051020D010EF326000EF42292
:103DD800C90EF324D96E080EF420DA6EDF38E83203
:103DE800070B01011B6F01011C5101011B5DD8B0BC
:103DF80019D01CC11BF101012051020D010EF3263F
:103E0800000EF422C90EF324D96E080EF420DA6EDF
:103E180001011B3B1B47DF5001011B191F0B1B191D
:103E2800DF6E00D001011A510101D8B42DD0010173
:103E38002051020D010EF326000EF422C90EF324C0
:103E4800D96E080EF420DA6EDF5001011819E00B64
:103E58001819DF6E01012051020DC90EF324D96E25
:103E6800080EF420DA6EDF5001011719C00B17197C
:103E7800DF6E01012051020DC90EF324D96E080E20
:103E8800F420DA6EC00EDF1201012051020DC90EB6
:103E9800F324D96E080EF420DA6EDF503F0B0101CF
:103EA8001719D8A444D01FC11BF101012051020DDC
:103EB800010EF326000EF422C90EF324D96E080E63
:103EC800F420DA6E01011B3B1B47DF5001011B196F
:103ED8001F0B1B19DF6E01012051020D010EF32685
:103EE800000EF422C90EF324D96E080EF420DA6EFF
:103EF800DF501F0B01011819D8B405D00101175163
:103F08009DEC70F000D001012051020D010EF32646
:103F1800000EF422C90EF324D96E080EF420DA6ECE
:103F2800DF5001011819E00B1819DF6E12000101AA
:103F38002051020DC90EF324D96E080EF420DA6E52
:103F4800DF38E832E832030B0009D8A41200010177
:103F58002051020D010EF326000EF422C90EF3249F
:103F6800D96E080EF420DA6EDF38E832070B070A3C
:103F7800D8A43BD001012051020D010EF326000EFA
:103F8800F422C90EF324D96E080EF420DA6EDF503D
:103F980001011819E00B1819DF6E01012051020DFB
:103FA800C90EF324D96E080EF420DA6EDF50010131
:103FB8001719C00B1719DF6E1FC11BF10101205122
:103FC800020D010EF326000EF422C90EF324D96E59
:103FD800080EF420DA6E01011B3B1B47DF5001017C
:103FE8001B191F0B1B19DF6E120001012051020D56
:103FF800010EF326000EF422C90EF324D96E080E22
:10400800F420DA6EDF501F0B0101186145D0010161
:104018001F510001D85DD8A0120001012051020DE6
:10402800010EF326000EF422C90EF324D96E080EF1
:10403800F420DA6EDF5001011819E00B1819DF6E51
:1040480001012051020DC90EF324D96E080EF42087
:10405800DA6EDF5001011719C00B1719DF6E1FC187
:104068001BF101012051020D010EF326000EF4226E
:10407800C90EF324D96E080EF420DA6E01011B3B39
:104088001B47DF5001011B191F0B1B19DF6E0101B4
:1040980017519DEC70F0120001012051020D010E24
:1040A800F326000EF422C90EF324D96E080EF4206C
:1040B800DA6EDF501F0B01011819D8A461D0010175
:1040C8002051020D010EF326000EF422C90EF3242E
:1040D800D96E080EF420DA6EDF38E832070B0101DA
:1040E8001F61120001012051020D010EF326000E7E
:1040F800F422C90EF324D96E080EF420DA6EDF38E4
:10410800E832070B0001D861120001012051020DAD
:10411800010EF326000EF422C90EF324D96E080E00
:10412800F420DA6EDF5001011819E00B1819DF6E60
:1041380001012051020DC90EF324D96E080EF42096
:10414800DA6EDF5001011719C00B1719DF6E1FC196
:104158001BF101012051020D010EF326000EF4227D
:10416800C90EF324D96E080EF420DA6E01011B3B48
:104178001B47DF5001011B191F0B1B19DF6E1200B3
:1041880001012051020D010EF326000EF422C90E82
:10419800F324D96E080EF420DA6EDF501F0B0101EC
:1041A8001B6F0101185101011B5DD8B012000001FD
:1041B800D85101011F5DD8B0120001012051020D34
:1041C800010EF326000EF422C90EF324D96E080E50
:1041D800F420DA6EDF38E832070B0001D8611200EC
:1041E80001012051020D010EF326000EF422C90E22
:1041F800F324D96E080EF420DA6EDF500101181985
:10420800E00B1819DF6E01012051020DC90EF324CD
:10421800D96E080EF420DA6EDF5001011719C00BB1
:104228001719DF6E1FC11BF101012051020D010E8C
:10423800F326000EF422C90EF324D96E080EF420DA
:10424800DA6E01011B3B1B47DF5001011B191F0BD5
:104258001B19DF6E010117519DEC70F0120001016E
:10426800202B90D51F0E0101186160D0000E0101AE
:104278001E6FF90E01011E6501D058D0E20E010132
:10428800046F010E0101056F01011E51E6EC57F0A4
:104298000009D8B447D015C107F116C108F10101CA
:1042A8001E512BEC66F001011E51020D010EF32682
:1042B800000EF422C90EF324D96E080EF420DA6E2B
:1042C800DF5001011819E00B1819DF6E01011E51AA
:1042D800020DC90EF324D96E080EF420DA6EDF50F1
:1042E80001011719C00B1719DF6E1FC11BF101015E
:1042F8001E51020D010EF326000EF422C90EF324FE
:10430800D96E080EF420DA6E01011B3B1B47DF5003
:1043180001011B191F0B1B19DF6E010117519DECC1
:1043280070F0120001011E2BA4D700D01F0E01014E
:1043380018611200B0C01DF1F90E01011D6502D00F
:104348001200120001011D51020D010EF326000E8C
:10435800F422C90EF324D96E080EF420DA6EDF5069
:104368001F0B1F0AD8B40ED001011D51020DC90E32
:10437800F324D96E080EF420DA6EDF503F0B3F0AA3
:10438800D8A454D015C107F116C108F10001B051E5
:104398002BEC66F00001B051020D010EF326000E61
:1043A800F422C90EF324D96E080EF420DA6EDF5019
:1043B80001011819E00B1819DF6E0001B051020D48
:1043C800C90EF324D96E080EF420DA6EDF5001010D
:1043D8001719C00B1719DF6E1FC11BF10001B0516F
:1043E800020D010EF326000EF422C90EF324D96E35
:1043F800080EF420DA6E01011B3B1B47DF50010158
:104408001B191F0B1B19DF6E0001B051020DC90EDD
:10441800F324D96E080EF420DA6E3F0EDF16010180
:1044280017519DEC70F01DC1B0F01200F90E01019A
:104438001D19D8A404D0000E0001B06F00D00101EE
:104448001D2BF90E01011D657DD712001200120007
:10445800000E0001D16F000E0001D26F000E0001A6
:10446800B36F000E0001BA6F020E9DEC6EF00009EA
:10447800D8B43BD1010E0001D16F0001B52B020E5B
:104488000001B519D8A400D1000E0001B56FFCD009
:10449800000E0001B36F000E0101276F1E0E266F7C
:1044A800000E0101286F020E72EC66F01ED1010E9B
:1044B8000001B36F000E0101276F1E0E266F000E5C
:1044C8000101286F020E72EC66F00FD10001B505EC
:1044D800D8A404D0010E0001B36F00D0000E010172
:1044E800276F400E266F000E0101286F020E72EC36
:1044F80066F0FBD00001B505D8A404D0010E000178
:10450800B36F00D0000E0101276F7D0E266F000EDD
:104518000101286F020E72EC66F0E7D000D00001AE
:10452800B505D8A404D0010E0001B36F00D0000E69
:104538000101276FFA0E266F000E0101286F020E87
:1045480072EC66F0D2D00001B505D8A404D0010EF3
:104558000001B36F00D0010E0101276FF40E266F22
:10456800000E0101286F020E72EC66F0BED0000149
:10457800B505D8A404D0010E0001B36F00D0030E16
:104588000101276FE80E266F000E0101286F020E49
:1045980072EC66F0AAD00001B505D8A404D0010ECB
:1045A8000001B36F00D0090E0101276FC40E266FFA
:1045B800000E0101286F020E72EC66F096D0000121
:1045C800B505D8A404D0010E0001B36F00D0130EB6
:1045D8000101276F880E266F000E0101286F020E59
:1045E80072EC66F082D00001B505D8A424D0010E83
:1045F8000001B36F0001B4510001D8A40DD0000E22
:104608000101276F500E266F000E0101286F020E60
:1046180072EC66F0010E0CD0090E0101276F740EC2
:10462800266F000E0101286F020E72EC66F0000E74
:104638000001B46F5AD00001B4510001D8B40CD0B5
:10464800000E0101276F500E266F000E0101286F22
:10465800020E72EC66F049D0090E0101276F740E44
:10466800266F000E0101286F020E72EC66F03DD035
:10467800000E0101276F1E0E266F000E0101286F24
:10468800020E72EC66F031D00001B251000AD8B4C3
:10469800FFD6010AD8B40BD7030AD8B417D7010A32
:1046A800D8B428D7070AD8B43AD7010AD8B44BD710
:1046B800030AD8B45CD70D0AD8B431D7070AD8B4DE
:1046C8002ED7010AD8B42BD7030AD8B428D7010AA1
:1046D800D8B425D71F0AD8B45ED7010AD8B46FD783
:1046E800030AD8B480D7C4D700D0030E9DEC6EF06F
:1046F8000009D8B436D1010E0001D26F0001B62BE3
:10470800020E0001B619D8A4FBD0000E0001B66F46
:10471800F7D0000E0001BA6F000E0101276F1E0EC0
:10472800266F000E0101286F030E72EC66F019D196
:10473800010E0001BA6F000E0101276F1E0E266FD1
:10474800000E0101286F030E72EC66F00AD1000119
:10475800B605D8A404D0010E0001BA6F00D0000E2F
:104768000101276F400E266F000E0101286F030E0E
:1047780072EC66F0F6D00001B605D8A404D0010E9C
:104788000001BA6F00D0000E0101276F7D0E266F61
:10479800000E0101286F030E72EC66F0E2D000D023
:1047A8000001B605D8A404D0010E0001BA6F00D0EC
:1047B800000E0101276FFA0E266F000E0101286F07
:1047C800030E72EC66F0CDD00001B605D8A404D073
:1047D800010E0001BA6F00D0010E0101276FF40E1F
:1047E800266F000E0101286F030E72EC66F0B9D037
:1047F8000001B605D8A404D0010E0001BA6F00D09C
:10480800030E0101276FE80E266F000E0101286FC5
:10481800030E72EC66F0A5D00001B605D8A404D04A
:10482800010E0001BA6F00D0090E0101276FC40EF6
:10483800266F000E0101286F030E72EC66F091D00E
:104848000001B605D8A404D0010E0001BA6F00D04B
:10485800130E0101276F880E266F000E0101286FC5
:10486800030E72EC66F07DD00001B605D8A421D005
:10487800010E0001BA6F3950D8A40DD0000E010105
:10488800276F500E266F000E0101286F030E72EC81
:1048980066F0010E0CD0090E0101276F740E266F09
:1048A800000E0101286F030E72EC66F0000E396EDF
:1048B80058D03950D8B40CD0000E0101276F500ED3
:1048C800266F000E0101286F030E72EC66F049D0C6
:1048D800090E0101276F740E266F000E0101286F63
:1048E800030E72EC66F03DD0000E0101276F1E0E1C
:1048F800266F000E0101286F030E72EC66F031D0AE
:104908000001B951000AD8B404D7010AD8B410D7A5
:10491800030AD8B41CD7010AD8B42DD7070AD8B4CB
:104928003FD7010AD8B450D7030AD8B461D70D0AC3
:10493800D8B436D7070AD8B433D7010AD8B430D791
:10494800030AD8B42DD7010AD8B42AD71F0AD8B475
:1049580063D7010AD8B474D7030AD8B485D7C4D7A3
:1049680000D0090E0001B219D8A40ED00001D2510E
:104978000001D8B409D00001B6510001D8A404D070
:10498800010E0001B36F00D00A0E0001B919D8A4B6
:104998000ED00001D1510001D8B409D00001B551A1
:1049A8000001D8A404D0010E0001BA6F00D0080E8F
:1049B8000001B219D8A40ED00001D2510001D8B418
:1049C80009D00001BA510001D8B404D0010E000189
:1049D800B36F00D0070E0001B919D8A40ED000019A
:1049E800D1510001D8B409D00001B3510001D8B4A5
:1049F80004D0010E0001BA6F00D00001BA510001C5
:104A0800D8B40DD03850D8B402D0380600D0000140
:104A1800B8510001D8B403D00001B80700D0000194
:104A2800B3510001D8B40DD03650D8B402D03606F0
:104A380000D00001B1510001D8B403D00001B10782
:104A480000D00001B1510001D8B403D0000E00011C
:104A5800B36F0001B8510001D8B403D0000E0001B3
:104A6800BA6F3650D8B424D035D022D00A0E0001FF
:104A7800B16F0001B151040F13D00A0E0001B16FDC
:104A88000001B151030F0CD00A0E0001B16F0001F3
:104A9800B151020F05D00A0E0001B16F0001B12912
:104AA800366E18D00A0E0001B16FB1C036F012D0C0
:104AB8000001B2510B0AD8B4D9D7070AD8B4DDD748
:104AC800010AD8B4E1D7030AD8B4E5D7010AD8B4A3
:104AD800E9D700D03850D8B424D035D022D00A0E27
:104AE8000001B86F0001B851040F13D00A0E00017D
:104AF800B86F0001B851030F0CD00A0E0001B86F4F
:104B08000001B851020F05D00A0E0001B86F00016C
:104B1800B829386E18D00A0E0001B86FB8C038F03E
:104B280012D00001B9510B0AD8B4D9D7070AD8B4A2
:104B3800DDD7010AD8B4E1D7030AD8B4E5D7010A0A
:104B4800D8B4E9D700D00001B35115EC73F00001D7
:104B5800BA5126EC72F012000101416F0101C651F1
:104B6800D8A404D00101DE51D8B44AD2800E010184
:104B7800BE19D8B459D02CC00DF12DC00EF1E8C221
:104B88000FF1E9C210F1C4EC6AF001010D51010105
:104B98000E11D8A413D0000E01010E6F0001C851E8
:104BA800010D000EF324D96E060EF420DA6EDF50E4
:104BB800D3EC70F0010E0001C26F27D02CC10EF1AA
:104BC800C8C000F10101016BD1C102F10101036B01
:104BD800C90E0101046F000E056F000E066F000E6E
:104BE800076FABEC69F0000E01010025D96E060EC7
:104BF80001010121DA6EDF50D3EC70F0000E0001E4
:104C0800C26F000E0101C16F00D0020E0101DE1952
:104C1800D8A406D0010E0101C66F000E0101DE6F97
:104C2800000E0101DC6F2BD0020E0101DE19D8A4A1
:104C380007D0010E0101C66F000E0101DE6F1FD003
:104C48000101DC2B010E0101DC6519D0F25000D006
:104C5800070E67EC58F0000E0101C66F000E010147
:104C6800DE6F010E0101F36F000E0101016F040EEA
:104C7800006F030E0101026F7DEC52F000D02C048E
:104C88002D10D8A407D0010E406EA3C034F0A4C0E4
:104C980035F000D0080E9DEC6EF00009D8B408D0AD
:104CA8000101CD51D8B404D0010E0101D56F00D057
:104CB800080E62EC70F00009D8B42ED00101CD5175
:104CC800D8A41CD0F6C10CF101010D6BA9EC5FF062
:104CD80001010C510101CE6F0101CE510008010103
:104CE800F6250101CD6FCEC126F10101276B010E1A
:104CF8000101286F080E72EC66F00ED0CDC126F1C6
:104D08000101276B010E0101286F080E72EC66F095
:104D1800000E0101CD6F00D00101C8510101D8A4D6
:104D280006D00201445102014511D8B442D1000114
:104D3800C251D8B43ED1010141510101D8B439D191
:104D480046C22DF147C22EF101012D1F2E1F2D4BFA
:104D58002E2B040E01010C6F010E50EC55F00101D1
:104D68002D5101010C250101466F01012E51010150
:104D78000D210101476F46C12DF147C12EF10101F7
:104D88002D1F2E1F2D4B2E2B2DC144F12EC145F169
:104D9800080E0101475DD8A00BD0FE0E0101465D4B
:104DA8000F0E01014759D8B003D00101C82B36D0E6
:104DB800010146290F0E01014759D8A00CD0FD0E5C
:104DC8000101465D170E01014759D8B004D0020E03
:104DD8000101C82723D0080E0101455DD8A00BD0DA
:104DE800FE0E0101445D0F0E01014559D8B003D0F4
:104DF8000101C80713D0010144290F0E01014559CB
:104E0800D8A00CD0FD0E0101445D170E01014559D3
:104E1800D8B004D0020E0101C85F00D0040E010111
:104E28000C6F010E50EC55F00CC146F10DC147F165
:104E3800A3C000F1A4C001F146C102F147C103F1CA
:104E4800000E0101046F000E056F010E066F000EC3
:104E5800076FABEC69F000C137F101C138F137C118
:104E680017F138C118F144C219F145C21AF1000E00
:104E780001011B6F000E1C6F010E1D6F000E1E6FCF
:104E8800B7EC5BF017C142F118C143F142C10DF113
:104E980043C10EF1070E0101106F0F69C4EC6AF0EF
:104EA8000DC13DF10EC13EF13DC10DF13EC10EF106
:104EB800040E01010F6F010E66EC3FF001013D5138
:104EC8000101425F01013E510101435B42C1A3F070
:104ED80043C1A4F042C106F143C107F1070E010125
:104EE800096F086943EC67F006C12CF007C12DF083
:104EF800C8C017F10101186BC8C119F101011A6B7B
:104F0800C90E01011B6F000E1C6F000E1D6F000EF5
:104F18001E6FB7EC5BF0010117510001C86FC8C1E3
:104F28002FF10101306B000E0101C86F000E020164
:104F3800456F000E446F000E02013B6F000E3A6F82
:104F48002C502D10D8A408D0000E2D6E100E2C6EEB
:104F580038C2A3F039C2A4F0070E356E3468020EC9
:104F68000101DE6F040E01010C6F010E50EC55F0CB
:104F78000001A35101010C2501013F6F0001A4515B
:104F880001010D210101406F01EC73F00101316F46
:104F98003FC133F1010140510101326F000E01019F
:104FA800016F040E006F020E0101026F7DEC52F0DA
:104FB80023D00001C8510101DD19D8A40BD001018B
:104FC800C651D8B407D0010141510101D8A414D069
:104FD80001D012D00101D551D8B40ED005EC73F030
:104FE8000009D8B409D0010141510101D8B404D055
:104FF800000E0101D56F00D00201524B532B4ED049
:10500800060E62EC70F00009D8B41CD0000E010145
:105018000D6F320E0C6FA9EC5FF0540E01010C25D8
:105028000101396F240E01010D2101013A6F39C1C7
:1050380026F13AC127F1000E0101286F060E72EC25
:1050480066F000D0060E9DEC6EF00009D8B40DD0C5
:10505800000E01010E6F0101FB51D3EC70F0000E40
:105068000201EB6F010EEA6F00D00201EB510BE178
:10507800330E0201EA5DD8B006D02CEC71F00201C3
:10508800EA4BEB2B00D0330E0201EA190201EB11B7
:10509800D8A404D00201EA4BEB2B00D00101DD516A
:1050A8000101D8A404D0C80E0101DD6F03D00101AD
:1050B800DD0700D0050E9DEC6EF00009D8A496EC33
:1050C8006BF0090E62EC70F00009D8B44CD011EC0A
:1050D80073F001012D6F01012D513E0DF3CF3BF10E
:1050E800F4CF3CF13BC108F13CC109F10DEC70F083
:1050F80008C10BF109C10CF10AC10DF1000E010143
:105108000E6F7A0E01010F6F440E0101106F30EC23
:105118004EF00BC134F10CC135F10DC136F1000E62
:1051280001010B6F280E01010C6F430E01010D6F79
:1051380034C108F135C109F136C10AF161EC49F011
:1051480008C117F109C118F10AC119F187EC4DF02E
:1051580017C126F118C127F1010E0101286F090EA8
:1051680072EC66F000D0090E9DEC6EF00009D8B420
:1051780017D0070E67EC58F0000E0101C66F000E3D
:105188000101DE6F010E0101F36F000E0101016FD5
:10519800040E006F050E0101026F7DEC52F000D085
:1051A8000F0E9DEC6EF00009D8B41200010E01013B
:1051B800F36F12001200000E01015F6F000E000174
:1051C800CA6F000E0101006F000E59EC6EF0000E60
:1051D800516E000E486E200EC1EC50F0000E00011A
:1051E800CE6F000E0101B96F0001D7511AEC72F0B1
:1051F800020EDEEC6EF0600EC1EC50F0000E010104
:105208000E6F000ED3EC70F0190E0101276F640EBB
:10521800266F000E0101286F110E72EC66F0000E69
:105228000101276F780E266F010E0101286F120EFB
:1052380072EC66F0010E0001C16F04000101BA5161
:10524800D8B409D0000E0101BA6F3E0E56EC33F007
:105258000101CA2B00D00101BC51D8B409D0000EFD
:105268000101BC6F200EC1EC50F0600EC1EC50F093
:105278000101BD51D8B407D0600EC1EC50F0000E4A
:105288000101BD6F00D00101BB51D8A404D00101B8
:10529800B951D8B4ACD1000E0101676F000E0101FD
:1052A8006A6F000E696F000E0101CA6F0101BB51E0
:1052B800D8B455D0000E0101BB6F3EEC72F001016D
:1052C800ED6F3EEC72F0000E0101656F1DD001011B
:1052D8006551010D3E0EF324D96E030EF420DA6EEB
:1052E8003EEC72F0DF6E01016551010D3E0EF324B4
:1052F800D96E030EF420DA6EDF500101671901013F
:10530800676F0101652B00D0FF0E0101546FFF0E7E
:105318000101556F0101ED510101566F576B0101F4
:10532800545101015627010155510101572301012B
:1053380065510101586F596B010156510101585DC2
:1053480001015951800A01015A6F01015751800A20
:1053580001015A59D8A0BBD7000E0001CE6F010138
:10536800B951D8B41DD0000E0101666F3A0E010183
:10537800666501D011D001016651010D3E0EF3247E
:10538800D96E030EF420DA6EDF50010167190101AE
:10539800676F0101662BEAD7000E0101B96F00D0D3
:1053A8003FC369F101016A6B0101695101016A6F2B
:1053B800696B03013E5101016927000E6A2301014F
:1053C800DB510101D8B41CD0D00E0101546FCA0EB4
:1053D800E82EFED7542FFCD7D00E0101546FCA0E09
:1053E800E82EFED7542FFCD7090E01016A5DD8B00C
:1053F800DCD069C114F16AC115F157EC6AF0D5D057
:10540800010E01015F6F010167510101D8A4CDD0E0
:1054180001D0CBD00101AD510101691905E10101AC
:10542800AE5101016A19D8A4C0D00101AD510101E2
:10543800AE11D8A42BD0000E0101616F000E626F6F
:10544800000E636F000E646F010164511FE1100EBE
:105458000101625D020E01016359D8B017D001D075
:1054680015D061C105F162C106F163C107F164C1DC
:1054780008F1F7EC6FF0000E01016127100E6223AE
:10548800000E6323000E6423DFD700D0000E010155
:10549800686F370E0101686501D044D0ADC100F1D5
:1054A800AEC101F1000E0101036F380E026FFBEC73
:1054B8006EF0010100510101682501015B6F0101D6
:1054C800015101015C6F000E01015C2301015D6B5C
:1054D80001015D2301015E6B5BC105F15CC106F151
:1054E8005DC107F15EC108F101016851010D020EAD
:1054F800F326000EF4223E0EF3240101096F030E79
:10550800F42001010A6F040E01010B6F000E0C6FED
:10551800000E0D6F000E0E6F9BEC65F0040E01017E
:105528006827B7D70101AD4BAE2B0101B15101017D
:10553800AD193BE10101B2510101AE19D8A435D032
:10554800000E0101056F000E066F020E076F000EB8
:10555800086FEE0E0101096F010E01010A6F010EBD
:1055680001010B6F000E0C6F000E0D6F000E0E6F19
:105578009BEC65F0010E0101056F000E066F020E2F
:10558800076F000E086FEC0E0101096F030E010191
:105598000A6F0B0E01010B6F000E0C6F000E0D6FE2
:1055A800000E0E6F9BEC65F000D0030E0101276F13
:1055B800E80E266F000E0101286F110E72EC66F0DE
:1055C8000101DB510101D8B412D001016951010177
:1055D8006A11D8A40CD0270E0101276F100E266F70
:1055E800000E0101286F110E72EC66F000D0010167
:1055F800DB510101D8A424D0020E0101CA6506D0EE
:10560800010E01015F6F000E0101CA6F01015F51B8
:105618000101D8B415D00101B1510101AD5D0101FD
:10562800B2510101AE59D8B007D0ADC10BF1AEC12E
:105638000CF1AFEC70F000D0000E01015F6F00D0EC
:10564800000E0101016F010E006FEF0E0101026FE4
:10565800010E0101036F82EC4FF00009D8B438D075
:10566800000E01010C6F040E01010D6FEC0E01011B
:105678000E6F010E01010F6F0101EF51B6EC3AF008
:105688000009D8B425D004010151C00B0101606F95
:1056980001016045E846030B0101606F030E01013B
:1056A8006019D8A415D0020E0101066F040E01017D
:1056B800076F3E0E0101086F030E0101096F3B0ED3
:1056C80001010A6FF4EC6CF0010E0101B96F00D012
:1056D800020E9DEC6EF00009D8B405D0937693B60F
:1056E80002D08A9600D0110E9DEC6EF00009D8A465
:1056F80002D017D000D0ACA2FED7720E0EEC72F01A
:1057080000D0ACA2FED7730E0EEC72F000D0ACA2A3
:10571800FED7740E0EEC72F000D0ACA2FED7FF00DC
:1057280000D0020E62EC70F00009D8B40BD0000E65
:105738000101276FFA0E266F000E0101286F020E75
:1057480072EC66F0110E62EC70F00009D8B40BD060
:10575800030E0101276FE80E266F000E0101286F66
:10576800110E72EC66F0120E9DEC6EF00009D8B4C2
:1057780064D5FF0062D5120001012E510101D8B491
:10578800C6D2C90E01013061C2D22CC1D9FF2DC1C8
:10579800DAFFDE28D8A42AD00101DE51D8A426D009
:1057A800050E62EC70F00009D8B41CD0060E010199
:1057B8000D6F0E0E0C6FA9EC5FF01C0E01010C258D
:1057C80001013B6F0C0E01010D2101013C6F3BC132
:1057D80026F13CC127F1000E0101286F050E72EC7D
:1057E80066F000D0010E0101C66F45D2020E01011C
:1057F8002E6541D2010120EE01F02C51D9262D5100
:10580800DA22DF500101316F0101315101014E6F80
:105818004F6B01014E5101014F6F4E6B010120EE9C
:1058280002F02C51D9262D51DA22DF500101316FB7
:105838000101315101014E27000E4F234EC133F1B2
:105848004FC134F1040E01010C6F010E50EC55F0FC
:105858000CC14AF10DC14BF1B3C117F1B4C118F134
:105868004AC119F14BC11AF1FF0E01011B6F070E56
:105878001C6F000E1D6F000E1E6FB7EC5BF017C19A
:105888003DF118C13EF1A3C000F1A4C001F14AC125
:1058980002F14BC103F1000E0101046F000E056F08
:1058A800010E066F000E076FABEC69F000C14CF1FA
:1058B80001C14DF14CC144F14DC145F14CC100F15C
:1058C8004DC101F1000E0101036F3D0E026F000E84
:1058D8000101046F000E056F010E066F000E076FC1
:1058E800ABEC69F000C14AF101C14BF101012F5144
:1058F8000101D8B415D04AC100F14BC101F1000E25
:105908000101036F050E026F000E0101046F000E06
:10591800056F010E066F000E076FABEC69F014D02F
:105928004AC100F14BC101F1000E0101036F000EE5
:10593800026F000E0101046F000E056F010E066F65
:10594800000E076FABEC69F000C14CF101C14DF1DD
:105958004EC117F14FC118F13DC119F13EC11AF1FD
:10596800000E01011B6F000E1C6F010E1D6F000E53
:105978001E6FB7EC5BF017C14AF118C14BF14AC171
:105988004EF14BC14FF14CC131F14DC132F1010122
:10599800311F321F314B322B01014E51010131258C
:1059A8000101486F01014F51010132210101496F85
:1059B80048C131F149C132F10101311F321F314B68
:1059C800322BFF0E010131250101466FFF0E010147
:1059D80032210101476F2CC1D9FF2DC1DAFF010126
:1059E8003051DE18D8A414D0080E0101495DD8A0A2
:1059F80005D0800E0101495DD8A00AD0080E01012A
:105A0800475DD8A075D0800E0101475DD8B070D031
:105A18000101F351D8A404D00101C651D8A4D4D0AF
:105A28004CC117F14DC118F14EC119F14FC11AF10E
:105A3800000E01011B6F000E1C6F010E1D6F000E82
:105A48001E6FB7EC5BF017C144F218C145F24CC1A8
:105A58000DF14DC10EF1070E0101106F0F69C4EC75
:105A68006AF00DC131F10EC132F14EC10DF14FC1D5
:105A78000EF1070E0101106F0F69C4EC6AF0010105
:105A88000D1F01010E1F01010D4B0E2B01010D51C0
:105A9800010131250201466F01010E510101322138
:105AA8000201476F30C117F10101186B2CC1D9FFF2
:105AB8002DC1DAFFDF500101316F010131510101C0
:105AC800196F1A6BC90E01011B6F000E1C6F000EB7
:105AD8001D6F000E1E6FB7EC5BF00101175101013D
:105AE800C86F010E0101DE6F000E0101C66F6CD098
:105AF80001014E5101014C5D01014F5101014D5908
:105B0800D8B047D0800E0101495DD8B042D001011C
:105B18004C51000801014E250101436F0101435119
:105B28000001A327000EA4234CC131F14DC132F16D
:105B38000101311F321F314B322B01014E5101013E
:105B4800312502014C6F01014F510101322102013F
:105B58004D6F02014C5102014E5D02014D5102018F
:105B68004F59D8B016D04CC131F14DC132F10101B5
:105B7800311F321F314B322B01014E5101013125AA
:105B880002014E6F01014F510101322102014F6F95
:105B980000D00101C651D8B404D00101DE51D8A407
:105BA80004D0010E0101C66F00D001014451020169
:105BB800605D0101455102016159D8B005D044C169
:105BC80060F245C161F200D011EC73F00101316F50
:105BD800010131513E0DF3CF3FF1F4CF40F13FC108
:105BE80008F140C109F10DEC70F008C10BF109C1D1
:105BF8000CF10AC10DF1000E01010E6F7A0E0101C0
:105C08000F6F440E0101106F30EC4EF00BC135F1EF
:105C18000CC136F10DC137F1000E01010B6F280ED2
:105C280001010C6F430E01010D6F35C108F136C13A
:105C380009F137C10AF161EC49F008C117F109C14E
:105C480018F10AC119F187EC4DF017C126F118C1F6
:105C580027F1010E0101286F090E72EC66F0000EA3
:105C68000201536F000E526F030E01012E6503D01F
:105C7800010E120000D011EC73F00101316F010127
:105C880031513E0DF3CF41F1F4CF42F141C108F15A
:105C980042C109F10DEC70F008C10BF109C10CF11A
:105CA8000AC10DF1000E01010E6F7A0E01010F6F8E
:105CB800440E0101106F30EC4EF00BC138F10CC1ED
:105CC80039F10DC13AF1000E01010B6F280E0101E7
:105CD8000C6F430E01010D6F38C108F139C109F18C
:105CE8003AC10AF161EC49F008C117F109C118F18C
:105CF8000AC119F187EC4DF017C126F118C127F137
:105D0800010E0101286F090E72EC66F000D0000E3A
:105D180012001200140E0101266F010E0101276FF7
:105D28004CD2250E01012D19D8B405D001012D51F1
:105D380070EC71F042D2000E01012C6F000E2B6F37
:105D4800000E01012A6F07D001012A850101124BBB
:105D5800132B01D00BD012C1F6FF13C1F7FF0800B7
:105D6800F550300AD8B4F0D701D0F5D712C1F6FFF4
:105D780013C1F7FF0800F550B2EC6FF0D8A0A5D01A
:105D8800000E01012C6F000E2B6F00D02BC100F10B
:105D98002CC101F1000E0101036F0A0E026FFBEC2A
:105DA8006EF000C12BF101C12CF1D00E01011C6F66
:105DB800FF0E01011D6F12C1F6FF13C1F7FF0800A6
:105DC800F55001011E6F1F6B01011C5101011E27B7
:105DD80001011D5101011F2301011E5101012B2742
:105DE80001011F5101012C230101124B132B12C178
:105DF800F6FF13C1F7FF0800F550B2EC6FF0D8A01A
:105E080064D0C4D762D012007FD000D001012A8F9D
:105E18007BD001012B510101235D01012C510101AE
:105E28002459D8B009D00101235101012B5F010188
:105E3800245101012C5B0AD0000E01012C6F000EC9
:105E48002B6F04D0200E70EC71F000D001012B07ED
:105E5800D8A02C0701012B29F5E101012C29D8B480
:105E68000DD0F0D70BD021C1D9FF22C1DAFFDF5006
:105E780070EC71F00101214B222B00D001012307A6
:105E8800D8A0240701012329EEE101012429D8B46F
:105E980094D1E9D792D126C1D9FF27C1DAFFDF50C3
:105EA80001012D6F020E01012627000E272300D0C5
:105EB8002D0E0101216F010E0101226F000E01015B
:105EC800246F010E236FA5D71FD012C1F6FF13C18F
:105ED800F7FF0101124B132B0800F5CF2DF101013B
:105EE8002D51000AD8B41200580AD8B48FD73B0AEB
:105EF800D8B4D1D7070AD8B407D00D0AD8B404D07B
:105F0800110AD8B483D7D4D701012ABF19D026C122
:105F1800D9FF27C1DAFFDECF28F1DDCF29F1020E44
:105F280001012627000E2723010129AF5DD0030EAA
:105F380001012A130101286D291FD8B0292B54D03B
:105F480026C1D9FF27C1DAFFDECF28F1DDCF29F13D
:105F5800020E01012627000E272346D0010E01015B
:105F68002D6F050E01012D19D8B448D001D046D0A7
:105F780001012D51020D430EF324F66EFE0EF4209E
:105F8800F76E0900F5500101285D0900F55001017F
:105F98002959D8A033D001D031D001012D2BE1D718
:105FA8002DD0010E01012D6F040E01012D19D8B459
:105FB80025D001D023D001012D51020D4D0EF3241F
:105FC800F66EFE0EF420F76E0900F5500101285D0B
:105FD8000900F55001012959D8A010D001D00ED0E0
:105FE80001012D2BE1D70AD001012A51800B000AAB
:105FF800D8B4B4D7800AD8B4D4D700D001012B5173
:1060080001012C11D8B40CD02AC11CF1030E0101D6
:106018001C17D8B405D001012B07D8A02C0700D035
:10602800800E01012DBF7F0E01011C6F01012B5154
:1060380001012D5D01012C51800A01011C59D8B0C4
:106048000BD001012D5101012B5F000E01012DBF65
:10605800FF0E01012C5B06D0000E01012C6F000E13
:106068002B6F00D001012AA520D02AC11CF1030EF4
:1060780001011C17D8B404D02D0E70EC71F000D0BB
:1060880001012B5101012C11D8B42FD0300E70EC26
:1060980071F001012B07D8A02C0701012B51010138
:1060A8002C11D8B422D0F2D720D001012B510101F4
:1060B8002C11D8B40FD0200E70EC71F001012B0711
:1060C800D8A02C0701012B5101012C11D8B402D002
:1060D800F2D700D02AC11CF1030E01011C17D8B455
:1060E80004D02D0E70EC71F000D02DC125F15DD0DB
:1060F8004DD001012551020D430EF324F66EFE0E1C
:10610800F420F76E0900F5CF08F10A00F5CF09F180
:1061180028C106F129C107F143EC67F006C10DF16A
:1061280007C10EF1000E0101106F0A0E0F6FC4ECCB
:106138006AF001010D51300F01012D6F31D028C1D6
:1061480006F129C107F101012551020D4D0EF32475
:10615800F66EFE0EF420F76E0900F5CF08F10A007E
:10616800F5CF09F143EC67F0010106510F0B01016E
:10617800206F01012051010D470EF324F66EFF0E2A
:10618800F420F76E0800F5CF2DF10AD001012A514D
:10619800800B000AD8B4ADD7800AD8B4D0D700D0C5
:1061A80001012D5170EC71F000D0010125070101AA
:1061B8002529D8B402D0EAD700D012C1F6FF13C1FE
:1061C800F7FF0101124B132B0800F5CF2DF1010148
:1061D8002D51D8B41200A5D5120012006E0E000180
:1061E800786F000E0001796F4CD2250E00017F19DF
:1061F800D8B405D000017F5190EC71F042D2000E66
:1062080000017E6F000E7D6F000E00017C6F07D0CD
:1062180000017C8500016C4B6D2B01D00BD06CC04C
:10622800F6FF6DC0F7FF0800F550300AD8B4F0D774
:1062380001D0F5D76CC0F6FF6DC0F7FF0800F55028
:10624800E0EC6FF0D8A0A5D0000E00017E6F000E24
:106258007D6F00D07DC060F07EC061F0000E00014F
:10626800636F0A0E626F17EC6FF060C07DF061C05B
:106278007EF0D00E00016E6FFF0E00016F6F6CC0D4
:10628800F6FF6DC0F7FF0800F5500001706F716BE5
:1062980000016E510001702700016F510001712348
:1062A8000001705100017D270001715100017E231A
:1062B80000016C4B6D2B6CC0F6FF6DC0F7FF08003A
:1062C800F550E0EC6FF0D8A064D0C4D762D01200CB
:1062D8007FD000D000017C8F7BD000017D51000170
:1062E800755D00017E5100017659D8B009D00001D2
:1062F800755100017D5F0001765100017E5B0AD077
:10630800000E00017E6F000E7D6F04D0200E90EC11
:1063180071F000D000017D07D8A07E0700017D291B
:10632800F5E100017E29D8B40DD0F0D70BD073C0A9
:10633800D9FF74C0DAFFDF5090EC71F00001734BA5
:10634800742B00D000017507D8A0760700017529C5
:10635800EEE100017629D8B494D1E9D792D178C07A
:10636800D9FF79C0DAFFDF5000017F6F020E00010C
:106378007827000E792300D07F0E0001736F000E7E
:106388000001746F000E0001766F010E756FA5D7BE
:106398001FD06CC0F6FF6DC0F7FF00016C4B6D2B72
:1063A8000800F5CF7FF000017F51000AD8B4120031
:1063B800580AD8B48FD73B0AD8B4D1D7070AD8B46B
:1063C80007D00D0AD8B404D0110AD8B483D7D4D7CB
:1063D80000017CBF19D078C0D9FF79C0DAFFDECFC1
:1063E8007AF0DDCF7BF0020E00017827000E7923CA
:1063F80000017BAF5DD0030E00017C1300017A6DB4
:106408007B1FD8B07B2B54D078C0D9FF79C0DAFF76
:10641800DECF7AF0DDCF7BF0020E00017827000E88
:10642800792346D0010E00017F6F050E00017F1908
:10643800D8B448D001D046D000017F51020D430E98
:10644800F324F66EFE0EF420F76E0900F5500001F5
:106458007A5D0900F55000017B59D8A033D001D0EE
:1064680031D000017F2BE1D72DD0010E00017F6FC5
:10647800040E00017F19D8B425D001D023D0000123
:106488007F51020D4D0EF324F66EFE0EF420F76ECA
:106498000900F55000017A5D0900F55000017B59AB
:1064A800D8A010D001D00ED000017F2BE1D70AD0A0
:1064B80000017C51800B000AD8B4B4D7800AD8B444
:1064C800D4D700D000017D5100017E11D8B40CD082
:1064D8007CC06EF0030E00016E17D8B405D0000121
:1064E8007D07D8A07E0700D0800E00017FBF7F0EF9
:1064F80000016E6F00017D5100017F5D00017E513A
:10650800800A00016E59D8B00BD000017F510001FC
:106518007D5F000E00017FBFFF0E00017E5B06D08D
:10652800000E00017E6F000E7D6F00D000017CA57B
:1065380020D07CC06EF0030E00016E17D8B404D0D2
:106548002D0E90EC71F000D000017D5100017E11FC
:10655800D8B42FD0300E90EC71F000017D07D8A090
:106568007E0700017D5100017E11D8B422D0F2D7F8
:1065780020D000017D5100017E11D8B40FD0200E2B
:1065880090EC71F000017D07D8A07E0700017D51D5
:1065980000017E11D8B402D0F2D700D07CC06EF0D2
:1065A800030E00016E17D8B404D02D0E90EC71F0D4
:1065B80000D07FC077F05DD04DD000017751020D3B
:1065C800430EF324F66EFE0EF420F76E0900F5CFA5
:1065D80062F00A00F5CF63F07AC060F07BC061F02A
:1065E80084EC67F060C067F061C068F0000E0001DD
:1065F8006A6F0A0E696FFAEC6AF000016751300F92
:1066080000017F6F31D07AC060F07BC061F000017B
:106618007751020D4D0EF324F66EFE0EF420F76E40
:106628000900F5CF62F00A00F5CF63F084EC67F05B
:10663800000160510F0B0001726F00017251010DD2
:10664800470EF324F66EFF0EF420F76E0800F5CF20
:106658007FF00AD000017C51800B000AD8B4ADD776
:10666800800AD8B4D0D700D000017F5190EC71F0E7
:1066780000D00001770700017729D8B402D0EAD703
:1066880000D06CC0F6FF6DC0F7FF00016C4B6D2B9E
:106698000800F5CF7FF000017F51D8B41200A5D5CE
:1066A800120012000101046F01010451020150257A
:1066B8000201506F000E020151210201516F000EBC
:1066C8000101056F160E0101056501D072D00101A7
:1066D8000551010D270EF324D96E030EF420DA6E4E
:1066E800DF50D8A463D001010551020D000EF32438
:1066F800D96E020EF420DA6E010104510101026F15
:10670800036B010E01010227000E0323DE50010175
:10671800025DDE5001010359D8B02DD001010551A9
:10672800020D000EF324D96E020EF420DA6EDECFCD
:1067380000F1DDCF01F1010104510101026F036B8A
:106748000101021F031F024B032B0101005101012C
:106758000227010101510101032301010551020D25
:10676800000EF324D96E020EF420DA6E02C1DEFFA9
:1067780003C1DDFF1BD001010551020D000EF324FA
:10678800D96E020EF420DA6EDE50DE10D8B40ED0C8
:1067980001010551020D000EF324D96E020EF420FA
:1067A800DA6E010EDE6E000EDD6E00D00101052BE3
:1067B80089D7E80E0201505D030E02015159D8A095
:1067C8001200180E020150250201506FFC0E020142
:1067D80051210201516F4D2A000E0101066F160E5C
:1067E8000101066501D063D001010651010D270E94
:1067F800F324D96E030EF420DA6EDE04D8A454D044
:1068080001010651020D000EF324D96E020EF42088
:10681800DA6E010EDB5004E1020EDE5CD8A029D04E
:10682800FF0E0101006FFF0E0101016F010106510A
:10683800020D000EF324D96E020EF420DA6EDECFBC
:1068480002F1DDCF03F1010100510101022701012D
:1068580001510101032301010651020D000EF32429
:10686800D96E020EF420DA6E02C1DEFF03C1DDFF2D
:106878001BD001010651020D000EF324D96E020E41
:10688800F420DA6EDE50DE10D8B40ED001010651C5
:10689800020D000EF324D96E020EF420DA6E010EFA
:1068A800DE6E000EDD6E00D00101062B98D73B0E80
:1068B8004D6412004D50C40F4D6E462A000E010162
:1068C800076F160E0101076501D064D00101075159
:1068D800010D270EF324D96E030EF420DA6E020E92
:1068E800DE18D8A454D001010751020D000EF3247C
:1068F800D96E020EF420DA6E010EDB5004E1020EAE
:10690800DE5CD8A029D0FF0E0101006FFF0E010147
:10691800016F01010751020D000EF324D96E020E1A
:10692800F420DA6EDECF02F1DDCF03F10101005170
:10693800010102270101015101010323010107514E
:10694800020D000EF324D96E020EF420DA6E02C195
:10695800DEFF03C1DDFF1BD001010751020D000E50
:10696800F324D96E020EF420DA6EDE50DE10D8B4AD
:106978000ED001010751020D000EF324D96E020E4C
:10698800F420DA6E010EDE6E000EDD6E00D001011D
:10699800072B97D73B0E466412004650C40F466E2D
:1069A800000E0101086F160E0101086502D01200E1
:1069B800120001010851010D270EF324D96E030EB0
:1069C800F420DA6E030EDE18D8A454D00101085161
:1069D800020D000EF324D96E020EF420DA6E010EB9
:1069E800DB5004E1020EDE5CD8A029D0FF0E0101C5
:1069F800006FFF0E0101016F01010851020D000E29
:106A0800F324D96E020EF420DA6EDECF02F1DDCF68
:106A180003F10101005101010227010101510101A6
:106A2800032301010851020D000EF324D96E020E52
:106A3800F420DA6E02C1DEFF03C1DDFF1BD00101C5
:106A48000851020D000EF324D96E020EF420DA6EFE
:106A5800DE50DE10D8B40ED001010851020D000E30
:106A6800F324D96E020EF420DA6E010EDE6E000EEB
:106A7800DD6E00D00101082B160E0101086599D7BB
:106A8800120012001200030E0101016F0069BDEC33
:106A980071F00101156F01011505D8A440D0000E51
:106AA80001011A6F000E196F01011ABF0AD0F00E0A
:106AB8000101195D030E01011A59D8B011D001D096
:106AC8000FD00DEC73F019C100F11AC101F1FF0EDE
:106AD8000101026F64EC6DF00101194B1A2BE4D728
:106AE800030E01011A6FF40E196F01011ABF07D0C6
:106AF800040E01011A5DD8B012D001D010D00DECEF
:106B080073F019C100F11AC101F1FF0E0101026F02
:106B180064EC6DF00101194B1A2BE7D700D0010E78
:106B28000101156504D001011529D8A40CD00DEC7C
:106B380073F0030E0101016F0069020E0101026F7B
:106B480064EC6DF000D0000E0101166F030E010118
:106B5800166501D018D001011651010DFC0EF32461
:106B6800D96E010EF420DA6EE80E01011625010136
:106B7800006F0101016B030E0123BDEC71F0DF6EA4
:106B88000101162BE3D70101FC29D8A419D0010172
:106B9800FD29D8A415D00101FE29D8A411D00101DE
:106BA800FF29D8A40DD0000E0101FC6F000E0101D1
:106BB800FD6F000E0101FE6F020E0101FF6F00D094
:106BC800030E0101016FEF0E006FBDEC71F00101C2
:106BD800146F01011429D8A404D0080E0101146F00
:106BE80000D001011451D7EC72F00201F229D8A4A7
:106BF80051D00201F329D8A44DD00201F429D8A418
:106C080049D00201F529D8A445D0899E4B0EF7EC4E
:106C180070F0000EF7EC70F0000EF7EC70F0000E5C
:106C2800F7EC70F0000EF7EC70F0000E0101176F32
:106C38002BD02ED0F4EC71F0010100510101136F3B
:106C4800030E010117651ED0FC0E0101076FFF0E30
:106C58000101086F010117510101096F0A6B010158
:106C68000751010109270101085101010A23F20E08
:106C780001010925D96E020E01010A21DA6E13C13C
:106C8800DFFF00D00101172B070E01011765D2D7CE
:106C9800898E00D0000E0101186F070E01011865DA
:106CA80001D018D001011851010D0B0EF324D96E33
:106CB800010EF420DA6EF40E010118250101006FAF
:106CC8000101016B030E0123BDEC71F0DF6E0101C0
:106CD800182BE3D70B0E0101006F010E0101016FA4
:106CE80004EC65F0030E0101016FFC0E006FBDECB2
:106CF80071F0FF0AD8A404D0000E1AEC72F009D083
:106D0800030E0101016FFC0E006FBDEC71F01AEC6F
:106D180072F0030E0101016FFD0E006FBDEC71F002
:106D2800FF0AD8B40BD001D009D0030E0101016FBE
:106D3800FD0E006FBDEC71F03DEC71F0030E01012A
:106D4800016FFE0E006FBDEC71F0FF0AD8A403D0EE
:106D58000001CB691200030E0101016FFE0E006FE6
:106D6800BDEC71F00001CB6F12001200010120EEA2
:106D780001F02F51D9263051DA222FC1E1FF30C15D
:106D8800E2FFDE50E618D8A41200010120EE02F05E
:106D98002F51D9263051DA22010110EE01F02F517E
:106DA800E1263051E222DE50E618D8A41200010193
:106DB80020EE02F02F51D9263051DA22DE28D8B43D
:106DC80012002FC1D9FF30C1DAFFDF500101336F44
:106DD800010133A14CD0010120EE04F02F51D92636
:106DE8003051DA22010110EE03F02F51E126305123
:106DF800E222DE50E618D8A43AD0010120EE05F0D0
:106E08002F51D9263051DA22010110EE04F02F510A
:106E1800E1263051E222DE50E618D8A428D001013C
:106E280020EE05F02F51D9263051DA22DE28D8B4C9
:106E38001ED00DEC73F0030E0101016FFD0E006F03
:106E4800010120EE03F02F51D9263051DA22DF500C
:106E58000101026F64EC6DF0010120EE03F02F5187
:106E6800D9263051DA22DF503DEC71F000D0010113
:106E780033A342D0010120EE07F02F51D92630511B
:106E8800DA22010110EE06F02F51E1263051E222FC
:106E9800DE50E618D8A430D0010120EE08F02F51BA
:106EA800D9263051DA22010110EE07F02F51E126E0
:106EB8003051E222DE50E618D8A41ED00DEC73F053
:106EC800030E0101016FFE0E006F010120EE06F0B6
:106ED8002F51D9263051DA22DF500101026F64ECBC
:106EE8006DF0010120EE06F02F51D9263051DA223B
:106EF800DF50CEEC6CF000D0010133A54CD001017D
:106F080020EE0AF02F51D9263051DA22010110EE75
:106F180009F02F51E1263051E222DE50E618D8A4BC
:106F28003AD0010120EE0BF02F51D9263051DA2248
:106F3800010110EE0AF02F51E1263051E222DE5015
:106F4800E618D8A428D0010120EE0BF02F51D9263D
:106F58003051DA22DE28D8B41ED00DEC73F0030EBF
:106F68000101016FFC0E006F010120EE09F02F51A5
:106F7800D9263051DA22DF500101026F64EC6DF03E
:106F8800010120EE09F02F51D9263051DA22DF50C5
:106F98001AEC72F000D0010133A71200010120EEB3
:106FA8000DF02F51D9263051DA22010110EE0CF0E4
:106FB8002F51E1263051E222DE50E618D8A4120003
:106FC800010120EE0EF02F51D9263051DA220101AD
:106FD80010EE0DF02F51E1263051E222DE50E61876
:106FE800D8A41200010120EE0EF02F51D9263051FD
:106FF800DA22DE28D8B412000DEC73F0030E01017A
:10700800016FEF0E006F010120EE0CF02F51D92611
:107018003051DA22DF500101026F64EC6DF001019A
:1070280020EE0CF02F51D9263051DA22DF50D7EC60
:1070380072F012001200400E0101286F000E0101CB
:10704800296F3E0E0101296501D0D7D001012951D0
:10705800060DBD0EF3240101066F0A0EF42001018E
:10706800076F21C108F122C109F1040E01010A6F5D
:1070780025EC6CF00009D8B4A0D001012951060D07
:10708800040EF326000EF422BD0EF324D96E0A0E68
:10709800F420DA6EDF500F0B0F0AD8A440D001019C
:1070A80024510101D8B43BD0492A01012951060DC8
:1070B800040EF326000EF422BD0EF324D96E0A0E38
:1070C800F420DA6EDF90DF92DF94DF9623C100F1BF
:1070D80001012951F7EC5CF0020E01012419D8B422
:1070E8001AD0030E0101086F01012351DDEC41F0B4
:1070F8000101266F21C115F122C116F129C117F12D
:10710800010E0101186F26C119F1000E01011A6F55
:1071180017EC1EF000D00101295112006BD00101BB
:107128002951060D040EF326000EF422BD0EF32499
:10713800D96E0A0EF420DA6EDF500F0B0F0AD8B49E
:1071480039D001012951060D040EF326000EF42250
:10715800BD0EF324D96E0A0EF420DA6EDF90DF92AA
:10716800DF94DF9623C100F101012951F7EC5CF0AF
:10717800020E01012419D8B4CED7030E0101086FFD
:1071880001012351DDEC41F00101266F21C115F108
:1071980022C116F129C117F1010E0101186F26C18C
:1071A80019F1000E01011A6F17EC1EF0B4D7B3D70E
:1071B800120020D0FF0E12001DD001012951060D2A
:1071C800BD0EF3240101066F0A0EF4200101076FBA
:1071D800E20E0101086F010E0101096F040E0101A1
:1071E8000A6F25EC6CF00009D8B404D029C128F145
:1071F80004D000D00101292B24D73E0E01012865B7
:1072080021D0000E0101276F3E0E0101276501D034
:1072180019D001012751060D040EF326000EF422A1
:10722800BD0EF324D96E0A0EF420DA6EDF500F0B70
:107238000F0AD8A403D027C128F104D00101272BB5
:10724800E3D700D03F0E0101286154D00101245139
:107258000101D8B44FD021C106F122C107F10101C3
:107268002851060DBD0EF3240101086F0A0EF42003
:107278000101096F040E01010A6FF4EC6CF00101C1
:107288002851060D040EF326000EF422BD0EF32439
:10729800D96E0A0EF420DA6EDF90DF92DF94DF9663
:1072A80023C100F101012851F7EC5CF0492A020ED4
:1072B80001012419D8B41AD0030E0101086F010185
:1072C8002351DDEC41F00101266F21C115F122C1E6
:1072D80016F128C117F1010E0101186F26C119F125
:1072E800000E01011A6F17EC1EF000D001012851A1
:1072F800120000D0FF0E12001200000E0101126FE2
:10730800000E116F010112BF0AD00101125106E1EE
:107318003F0E0101115DD8B082D001D080D0E20EBD
:107328000101066F010E0101076F11C100F112C1C1
:1073380001F1000E0101036F060E026FFBEC6EF007
:10734800BD0E010100250101086F0A0E010101218E
:107358000101096F040E01010A6FF4EC6CF011C110
:1073680000F112C101F1000E0101036F060E026F58
:10737800FBEC6EF0040E01010027000E0101012351
:10738800BD0E01010025D96E0A0E01010121DA6E38
:10739800DF80DF82DF84DF8611C100F112C101F1D5
:1073A800000E0101036F060E026FFBEC6EF0040E77
:1073B80001010027000E01010123BD0E0101002576
:1073C800D96E0A0E01010121DA6EDF88DF8ADF8CAF
:1073D800DF8E11C100F112C101F1000E0101036F2E
:1073E800060E026FFBEC6EF0050E01010027000E81
:1073F80001010123BD0E01010025D96E0A0E01010C
:107408000121DA6EFF0EDF6E0101114B122B010113
:1074180012BF85D70101125102E17AD700D0000EC0
:1074280002016E6F000E0101126F000E116F010153
:1074380012BF0AD00101125166E1FA0E0101115D75
:10744800D8B061D001D05FD011C10FF112C110F1D5
:10745800D89001010F371037010E01010F27000ED8
:107468001023C90E01010F25D96E080E0101102144
:10747800DA6EDF80DF82DF84DF86DF88E20E0101DB
:10748800076F010E0101086F010111512BEC66F025
:1074980011C10FF112C110F1D89001010F37103747
:1074A800010E01010F27000E1023C90E01010F253F
:1074B800D96E080E01011021DA6EDF8ADF8CDF8EAB
:1074C800D89001011135D96E01011235DA6EC90E55
:1074D800D926080EDA22DF80DF82DF84DF86DF88A4
:1074E800DF8AD89001011135D96E01011235DA6EA3
:1074F800C90ED926080EDA223F0EDF160101114BFC
:10750800122B95D700D0E20E0101066F010E010182
:10751800076FF60E0101086F020E0101096F040ED4
:1075280001010A6FF4EC6CF00101F469000E02012C
:10753800776F030E0201786F000E02019F6F000E35
:107548000201A16F020E0201A26F000E0201A36FD9
:10755800010E0101F26F000E0101E16F000E010141
:10756800D36F12000101166F5450D8B421D0240EE5
:1075780001011619D8A419D04F2A020E4F18D8A401
:10758800EDD0000E546E010E436E000E416E000EDB
:10759800446E000E456E010E426E000E0001C36F70
:1075A800000E4F6E000E4E6ED9D0000E4F6ED6D024
:1075B8004250D8B4C4D04350D8B406D016C1CDF088
:1075C800000E436E010E04D04150D8B403D0000E13
:1075D800416E5AD00001C3510101106F116BFE0EAC
:1075E8000101126FFF0E0101136F0001CD5101015E
:1075F800146F156B01011251010114270101135178
:107608000101152301011051010114190EE10101B5
:10761800115101011519D8A408D00D0E0101161930
:10762800D8A432D0010E446E2FD00001C3510101FD
:10763800106F116BFF0E0101126FFF0E0101136F26
:107648000001CD510101146F156B010112510101A7
:1076580014270101135101011523010110510101E2
:1076680014190EE10101115101011519D8A408D00E
:107678000A0E01011619D8A407D0010E456E04D0D0
:10768800010116514E1A00D00001C351010DC00E60
:10769800F324D96E040EF420DA6E16C1DFFF000160
:1076A800C32B0001C3510001CD19D8A431D0000E5D
:1076B800426E0EC1D9FF0FC1DAFFC3C0DFFFC00E93
:1076C8000101066F040E0101076F0CC108F10DC11D
:1076D80009F1C3C00AF1F4EC6CF0010E546E000E0F
:1076E8004F6E4E50D8B404D0000E4E6E000E1200ED
:1076F8004450D8B408D04550D8B405D0000E4E6ECA
:10770800010E12002BD0000E4E6E16D0120026D09D
:107718003E0E0001C36522D0010E546E000E4F6E5E
:10772800000E0001C36F000E436E000E416E000E86
:10773800446E000E456EE7D7000E12000FD0010E02
:10774800546E000E4F6E000E4E6E000E436E000E0D
:10775800446E000E456E000E416E00D0000E120001
:107768001200000E0101126F000E116F010112BF0D
:107778000AD00101125106E1FA0E0101115DD8B0DB
:10778800E8D001D0E6D00BC104F10CC105F101012C
:107798001151E6EC57F00009D8B4D0D011C10FF15F
:1077A80012C110F1D89001010F371037010E0101F5
:1077B8000F27000E1023C90E01010F25D96E080EE0
:1077C80001011021DA6EDF501F0B1F0AD8B4A6D0B2
:1077D800D89001011135D96E01011235DA6EC90E42
:1077E800D926080EDA22DF503F0B01010F6F010185
:1077F8000F51060DBD0EF324D96E0A0EF420DA6E71
:107808000DC1E1FF0EC1E2FFDFCFE7FFD890010114
:107818001135D96E01011235DA6EC90ED926080E56
:10782800DA22DF503F0B01010F6F01010F51060DE6
:10783800010EF326000EF422BD0EF324D96E0A0EB3
:10784800F420DA6E010110EE01F00D51E1260E511F
:10785800E222DFCFE7FFD89001011135D96E01018F
:107868001235DA6EC90ED926080EDA22DF503F0B20
:1078780001010F6F01010F51060D020EF326000ED4
:10788800F422BD0EF324D96E0A0EF420DA6E01013B
:1078980010EE02F00D51E1260E51E222DFCFE7FF94
:1078A800D89001011135D96E01011235DA6EC90E71
:1078B800D926080EDA22DF503F0B01010F6F0101B4
:1078C8000F51060D030EF326000EF422BD0EF3240D
:1078D800D96E0A0EF420DA6E010110EE03F00D5194
:1078E800E1260E51E222DFCFE7FF11C10FF112C1ED
:1078F80010F1D89001010F371037010E01010F2741
:10790800000E1023C90E01010F25D96E080E0101C2
:107918001021DA6EDF501F0B120010D0D890010131
:107928001135D96E01011235DA6EC90ED926080E45
:10793800DA223F0EDF161F0E120000D00101114B94
:10794800122B010112BF1FD70101125102E114D7F6
:1079580000D01F0E12001200000E01010F6F000E62
:107968000E6F01010FBF0AD001010F5106E13F0E52
:1079780001010E5DD8B0D4D001D0D2D006C1D9FF54
:1079880007C1DAFF0EC100F10FC101F1000E0101BC
:10799800036F060E026FFBEC6EF0BD0E01010025B1
:1079A800E16E0A0E01010121E26EDE50E618D8A44C
:1079B800ACD0010120EE01F00651D9260751DA2298
:1079C8000EC100F10FC101F1000E0101036F060E97
:1079D800026FFBEC6EF0010E01010027000E0101A1
:1079E8000123BD0E01010025E16E0A0E01010121EE
:1079F800E26EDE50E618D8A488D0010120EE02F02D
:107A08000651D9260751DA220EC100F10FC101F142
:107A1800000E0101036F060E026FFBEC6EF0020E02
:107A280001010027000E01010123BD0E01010025FF
:107A3800E16E0A0E01010121E26EDE50E618D8A4BB
:107A480064D0010120EE03F00651D9260751DA224D
:107A58000EC100F10FC101F1000E0101036F060E06
:107A6800026FFBEC6EF0030E01010027000E01010E
:107A78000123BD0E01010025E16E0A0E010101215D
:107A8800E26EDE50E618D8A440D00EC100F10FC156
:107A980001F1000E0101036F060E026FFBEC6EF0A0
:107AA800050E01010027000E01010123BD0E010191
:107AB8000025D96E0A0E01010121DA6E08C1E1FF25
:107AC80009C1E2FFDFCFE7FF0EC100F10FC101F1ED
:107AD800000E0101036F060E026FFBEC6EF0040E40
:107AE80001010027000E01010123BD0E010100253F
:107AF800D96E0A0E01010121DA6EDF380F0B0AC1B7
:107B0800D9FF0BC1DAFFDF6E120001010E4B0F2BFC
:107B180001010FBF33D701010F5102E128D700D06F
:107B280008C1D9FF09C1DAFFFF0EDF6E0AC1D9FF0C
:107B38000BC1DAFF0F0EDF6E120012003750D8B4F7
:107B4800D6D04C50D8B40FD0000E4C6E000E0001A9
:107B5800CF6F000E0001D06F000E376E000E0001CF
:107B6800CE6F000E12004750D8A40DD0000E0001B1
:107B7800CF6F000E0001D06F000E376E000E0001AF
:107B8800CE6F000E12000001D051FD0F10C1D9FFB9
:107B980011C1DAFFDF6E000E0101186F400E0001FF
:107BA800D0650DD0000E0001CF6F000E0001D06F20
:107BB800000E376E000E0001CE6F000E1200020E8E
:107BC8000101196F11D001011951010D800EF32423
:107BD800D96E040EF420DA6EDF5001011819010184
:107BE800186F0101192B00D00001D0510101195D56
:107BF800D8A0E9D7010118510101D8B40DD0000E61
:107C08000001CF6F000E0001D06F000E376E000E1E
:107C18000001CE6F000E120010C1D9FF11C1DAFFAA
:107C28003D0EDF640DD0000E0001CF6F000E000185
:107C3800D06F000E376E000E0001CE6F000E1200DE
:107C480010C1D9FF11C1DAFFDF500101126F136BA8
:107C5800FD0E0101146FFF0E0101156F0001D051D7
:107C68000101166F176B010114510101162701015B
:107C7800155101011723010112510101161906E1DD
:107C88000101135101011719D8B40DD0000E0001DC
:107C9800CF6F000E0001D06F000E376E000E00018E
:107CA800CE6F000E1200800E0101006F040E01015C
:107CB800016F020E0101026F0EC103F10FC104F141
:107CC800000E0101056F10C1D9FF11C1DAFFDF50A5
:107CD8000101066F51EC65F0000E0001CF6F000E38
:107CE8000001D06F000E376E010E12000FD0375012
:107CF800D8B40CD0000E0001CF6F000E0001D06F79
:107D0800000E376E000E0001CE6F00D0000E12007C
:107D1800120002016E51D8A4D2D00201A051D8A4F9
:107D2800CED06F0E0101066F020E0101076FF60E2D
:107D38000101086F020E0101096F040E01010A6FAB
:107D4800F4EC6CF077C2F4F1060E02016E6F0EC10E
:107D580006F10FC107F1730E0101086F020E010150
:107D6800096F040E01010A6FF4EC6CF0E60E0101D4
:107D7800066F010E0101076F6F0E0101086F020EF9
:107D88000101096F040E01010A6FF4EC6CF053EC69
:107D980072F00201776F000E0201A36F0101155105
:107DA8000101D8B402D0040E01D0030E0201786F8D
:107DB80000D0270E0101126156D00101C951D8B473
:107DC80031D0010114510101D8B42CD0010E0101A8
:107DD80010250101006F000E010111210101016F41
:107DE800FF0E010112250101026F0101036BFF0E55
:107DF80003235CEC56F00101166F050E0101176FA5
:107E08000101D89016370101172FFAD70101165131
:107E18000201796F10C1D9FF11C1DAFFDF500201E9
:107E2800792708D010C1D9FF11C1DAFFDF5002014C
:107E3800796F00D010C100F111C101F1010E0101EB
:107E4800026F790E0101036F020E0101046F010E2A
:107E58000101056F010112050101066F51EC65F082
:107E680012C19FF200D013C1A0F201011351010108
:107E7800D8B403D0000E02016E6F0001BC51D8A423
:107E880004D0000E0101DA6F18D0730E0101066FDD
:107E9800020E0101076FEE0E0101086F020E0101CB
:107EA800096F040E01010A6F25EC6CF00009D8B4C3
:107EB80004D0020E02016E6F00D0010E1200000EF7
:107EC800120012000101146F000E0101166F000E5E
:107ED800176F000E186F000E196F040E01010F19AD
:107EE800D8A40BD00DC116F10EC117F10101000E77
:107EF80017BFFF0E186F196F54D001010F51010100
:107F0800D8A42FD00DC110F10EC111F1000E01013E
:107F180011BFFF0E126F136F0F0ED89001011037AB
:107F2800113712371337E82EF8D710C100F111C1F5
:107F380001F112C102F113C103F1E80E0101046F4E
:107F4800030E056F000E066F000E076FC1EC5DF0A3
:107F580000C116F101C117F102C118F103C119F1ED
:107F680020D001010F05D8A41CD00DC110F10EC1FD
:107F780011F1000E010111BFFF0E126F136F0F0EEA
:107F8800D89001011037113712371337E82EF8D778
:107F980010C116F111C117F112C118F113C119F16D
:107FA80000D016C110F117C111F118C112F119C191
:107FB80013F10101101F111F121F131F102B000EA8
:107FC800112312231323FF0E010110250101166F3F
:107FD800FF0E010111210101176F000E010112218D
:107FE8000101186F000E010113210101196F010130
:107FF8001405D8A40BD017C1CFFF16C1CEFF8C0E25
:10800800CD6E9F809E909D80CD8000D0030E010193
:108018001419D8A40AD017C1B3FF16C1B2FF8C0E29
:10802800B16EA292A192A082B1803D50D8A4120054
:10803800010E3D6E000E0101156F160E010115654A
:1080480002D01200120001011551020D000EF32496
:10805800D96E020EF420DA6E000EDE6E000EDD6EB2
:108068000101152B160E01011565EDD7120012003E
:108078001200000E0101806FABC07CF1ACC07DF135
:10808800010E0101566F18C10BF119C10CF1580E00
:1080980001010D6F010E01010E6FB5EC3BF00101FE
:1080A800576FCBC05CF17CC15DF17DC15EF1580EAC
:1080B8000101066F010E0101076F7E0E0101086FB5
:1080C800010E0101096F7F0E01010A6F010E010106
:1080D8000B6FB0EC3CF07EC15FF17FC160F118C15D
:1080E8000BF119C10CF171EC61F00101616FF9EC50
:1080F80072F00101626F01EC73F00101636FD5C08A
:108108001BF101011B3BF00E1B17D2EC72F00101B1
:108118001B250001D3250101646FC4C165F1AFC1FE
:1081280066F1B0C167F14EC268F14FC269F14CC245
:108138006AF14DC26BF162C26CF163C26DF160C24B
:108148006EF161C26FF181BA02D0010E01D0000E4A
:108158000101706F1B0E0101806F560E0101802511
:10816800D96EDA6A010EDA22ADC0DFFF0101802B79
:1081780001011A510101D8B434D0560E0101006F23
:10818800010E0101016F000E0101026F1C0E0101B9
:10819800036F010E0101046F140E0101056F80C108
:1081A80006F151EC65F01C0E01010E6F010E010184
:1081B8000F6F18C110F119C111F148EC5BF01C0EDA
:1081C8000101046F010E0101056F01018051140FB7
:1081D8000101066F000E0101076F020EDFEC59F076
:1081E800120018C10EF119C10FF1560E0101106FDE
:1081F800010E0101116F80C112F1000E0101136F10
:10820800010E0101146F000E0101156F8DEC3EF097
:1082180012001200000E0101156F870E0101196F7F
:10822800030E01011A6F19C1D9FF1AC1DAFF010E35
:10823800DF6E000E0101166F060E0101166F010EAA
:108248000101186F010E0101186501D096D00001D7
:10825800BD51060DBD0EF3240101066F0A0EF42070
:108268000101076FE20E0101086F010E0101096F9C
:10827800040E01010A6F25EC6CF00009D8A449D05E
:108288000001BD51060D050EF326000EF422BD0EA9
:10829800F324D96E0A0EF420DA6EDE28D8B439D069
:1082A8000001BD51060DBD0EF3240101006F0A0E39
:1082B800F4200101016F000E0101026F19C103F1E1
:1082C8001AC104F1010E0101056F040E0101066FC8
:1082D80051EC65F0010120EE05F01951D9261A512B
:1082E800DA22040E0101086F0001BD51060D050ECA
:1082F800F326000EF422BD0EF324E16E0A0EF420DC
:10830800E26EE750DDEC41F0DF6E010E0101156F02
:1083180003D00101180700D03E0E0001BD6103D053
:108328000001BD2B27D0000E0001BD6F01011551C2
:108338000101D8A422D0E20E0101006F010E010153
:10834800016F000E0101026F19C103F11AC104F196
:10835800010E0101056F040E0101066F51EC65F075
:10836800010120EE05F01951D9261A51DA22FF0E23
:10837800DF6E03D00101182B65D7000E0101146FC1
:1083880001011651010114250101176F010117514F
:10839800010DF35001011925D96EF45001011A217C
:1083A800DA6ECBC0DFFF0101172B01011751120054
:1083B80012000101116F030E01010819D8A460D041
:1083C8003C0E0101116102D0000E12D0C30E010152
:1083D80011250101006F0101016BFF0E0123000E41
:1083E8000101036F050E026F8FEC5CF00101005173
:1083F8000101126F00D0010112510101096F0A6BCE
:10840800FF0E01010B6FFF0E01010C6F08C10DF18A
:10841800010E01010E6F000E01010F6F01010D2BFE
:1084280004D0D89001010E370F3701010D2FF9D76D
:1084380001010B5101010E2701010C5101010F230C
:108448000101095101010E5D01010F51800A01016D
:10845800106F01010A51800A01011059D8B071D07A
:1084680008C109F1010E01010A6F0101092B03D0AE
:108478000101D8900A370101092FFAD75DD061D0E0
:10848800040E01010819D8A45CD0DC0E01011125E5
:108498000101006F0101016BFF0E0123000E0101B4
:1084A800036F050E026F8FEC5CF0010100510101B2
:1084B800126F010112510101096F0A6BFF0E0101D0
:1084C8000B6FFF0E01010C6F08C10DF1010E0101C8
:1084D8000E6F000E01010F6F01010D2B04D0D89013
:1084E80001010E370F3701010D2FF9D701010B518B
:1084F80001010E2701010C5101010F23010109514E
:1085080001010E5D01010F51800A0101106F010187
:108518000A51800A01011059D8B013D008C109F1D5
:10852800010E01010A6F0101092B03D00101D89046
:108538000A370101092FFAD701010A050101126F53
:1085480000D0010112511200120001012F6F010128
:10855800D751D8B404D0000E0101D76F1200040E11
:108568009DEC6EF00009D8B46FD00101B551010D32
:10857800550EF324F66EFE0EF420F76E0800F55043
:108588000009D8A461D0010E0101B56F010E0201E6
:10859800696F5AD0E1EC56F00DC1ABF00EC1ACF0EA
:1085A8000001ACBF08D03E0E0001AB5D080E000113
:1085B800AC59D8B004D0000E0101B56F120001010A
:1085C800B52B12002DEC73F000C15CF201C15DF215
:1085D8000101B52B120001012F510201485D000E67
:1085E8004959D8B003D00101B52B120001012F5110
:1085F8000201485F000E495B1200000E0101F06F96
:1086080001012F5102014A5D000E4B59D8A01200FA
:1086180001D0120001012F5102014A5F000E4B5B8D
:108628001200040E62EC70F00009D8B412002CC1DC
:1086380026F12DC127F12EC128F1040E72EC66F047
:10864800000E0201696F12000101B551010D550EAE
:10865800F324F66EFE0EF420F76E0800F550000ABB
:10866800D8B4DFD7010AD8B495D7030AD8B4AAD7A3
:10867800010AD8B41200070AD8B41200010AD8B403
:108688001200030AD8B41200010AD8B412000F0A63
:10869800D8B4A1D7010AD8B41200030AD8B4ADD708
:1086A800010AD8B41200070AD8B41200010AD8B4D3
:1086B8001200030AD8B41200010AD8B412001F0A23
:1086C800D8B41200010AD8B41200030AD8B41200B0
:1086D800010AD8B41200070A120012000101066F3D
:1086E800010104510101D8B402D0200E01D0600E5E
:1086F8000101056F9AD00101055102090201A86F15
:10870800630E0201AF6F010106511B0F55D0010125
:10871800055102090201A86F640E0201AF6F010141
:108728000651040F49D0210E010106610BD0010149
:1087380005510A090201A86F650E0201AF6F06C153
:10874800B0F281D0010105510A090201A86F640E37
:108758000201AF6F01010651190F2ED074D001012B
:1087680005510A090201A86F650E0201AF6F0101E8
:108778000651210F21D00C0E010106610DD0010117
:10878800055102090201A86F630E0201AF6F0101D2
:108798000651040DF350B9D70B0E010106650FD031
:1087A800190E010106610BD001010551020912D011
:1087B800640E0201AF6F11D00201B06F44D0180EE1
:1087C8000101066510D01F0E010106610CD00101E0
:1087D80005510A090201A86FEBD701010645E846D1
:1087E800FC0BD00FE9D71E0E0101066509D0270E34
:1087F8000101066105D00CD0650E0201AF6F0ED0E5
:10880800260E010106651FD0320E010106611BD03C
:10881800010105510A090201A86FEED701010645B9
:10882800E846FC0B850FC8D70ED05350010AD8B4C0
:1088380062D7030AD8B46BD7010AD8B474D7070A29
:10884800D8B48DD798D7A8C202F1000E4EEC6FF0BD
:10885800AFC202F10E0E4EEC6FF0B0C202F1100E74
:108868004EEC6FF0120004004850D8A4120001D05A
:1088780012001AC148F0000E01011B6FB0D0000EA3
:108888000001C96F0001CE51D8A49DD03E0E010150
:10889800196199D0010E0001CA6F0001CE51D8B4F8
:1088A80004D0000E0001CA6F95D0200EC1EC50F024
:1088B8000201B55101090101026F1A0E4EEC6FF069
:1088C800800EC1EC50F001011951020F49EC72F011
:1088D8000001B75149EC72F0000E01011F6F64D01E
:1088E80001011F51010DF35001011725D96EF450F4
:1088F80001011821DA6EDF5001011C6F01011F050B
:10890800D8B410D0020E01011F19D8B40BD0000141
:10891800C95101011C190001C96F01011C5149EC21
:1089280072F03FD001011F05D8A42BD0040E01011D
:108938000C6F010E50EC55F00001A35101010C25FC
:1089480001011D6F0001A45101010D2101011E6FDC
:1089580001011E5149EC72F001011E510001C919B3
:108968000001C96F01011D510201625D01011E5123
:1089780002016359D8B015D01DC162F21EC163F25D
:1089880010D0020E01011F19D8A40BD001011D51EE
:1089980049EC72F00001C95101011D190001C96FAC
:1089A80000D001011F2B00D00101195101011F5DE9
:1089B800D8A096D70001C95149EC72F00400010E05
:1089C8000101D76F09D03D0E0101196501D002D010
:1089D8000001CE51480600D001011B2B00D0010137
:1089E8001A5101011B5DD8A04AD7120002016E512D
:1089F800D8A4BBD00201A051D8A4B7D06F0E0101F2
:108A0800066F020E0101076FF60E0101086F020ED4
:108A18000101096F040E01010A6FF4EC6CF077C2D2
:108A2800F4F1060E02016E6F000E0201A16F020E34
:108A38000201A26F0EC106F10FC107F1730E010109
:108A4800086F020E0101096F040E01010A6FF4ECB0
:108A58006CF0E60E0101066F010E0101076F6F0E43
:108A68000101086F020E0101096F040E01010A6F6E
:108A7800F4EC6CF053EC72F00201776F000E020117
:108A8800A06F1D0E0201796F210E02017A6F10C1CD
:108A98007BF23F0E02017C6F080E0101116F01018C
:108AA800105101011103F3CF12F1000E0101136FF0
:108AB80046D03F0E0101126121D001011251060D6D
:108AC800BD0EF3240101006F0A0EF4200101016FAD
:108AD800000E0101026F790E0101036F020E010100
:108AE800046F01011351040DF350060F0101056FC6
:108AF800040E0101066F51EC65F01CD0E20E010175
:108B0800006F010E0101016F000E0101026F790E65
:108B18000101036F020E0101046F01011351040DDD
:108B2800F350060F0101056F040E0101066F51ECA9
:108B380065F000D00101122B0101132B00D00101B7
:108B480011510101135DD8A0B4D7030E0201786F4B
:108B5800260E02019F6F0001BC51D8A404D0000E5C
:108B68000101DA6F00D0010E1200000E120012008F
:108B7800000E01010B6F3E0E01010B6502D01200C1
:108B8800120001010B51060D040EF326000EF4220B
:108B9800BD0EF324D96E0A0EF420DA6EDF500F0BE7
:108BA8000F0AD8B49CD0010E0101086F01010B51C6
:108BB800060D040EF326000EF422BD0EF324D96E22
:108BC8000A0EF420DA6EDF500F0B0101096F010164
:108BD800085101010927DF5001010919F00B0101B2
:108BE8000919DF6E49500F0DF3CF00F1F4CF01F1F1
:108BF800000E0101036F400E026F8FEC5CF0040E53
:108C080001010027000E0101012301010B51060D8E
:108C1800040EF326000EF422BD0EF324D96E0A0EBC
:108C2800F420DA6EDF500F0B0101086F096B0101A8
:108C380000510101085D01010951800A01010A6F13
:108C480001010151800A01010A59D8B012D001016D
:108C58000B51060D040EF326000EF422BD0EF3246C
:108C6800D96E0A0EF420DA6EDF500F0B0F0AD8A463
:108C780036D001010B51060D040EF326000EF42226
:108C8800BD0EF324D96E0A0EF420DA6EDF80DF827F
:108C9800DF84DF8601010B51060D050EF326000E59
:108CA800F422BD0EF324D96E0A0EF420DA6EFF0EFC
:108CB800DF6E01010B51060D040EF326000EF4229F
:108CC800BD0EF324D96E0A0EF420DA6EDF88DF8A2F
:108CD800DF8CDF8E4950D8B402D0490600D001019C
:108CE8000B2B3E0E01010B654CD712001200156EBE
:108CF800000E176E000E186E000E196E000E1A6E1A
:108D0800040E1018D8A40AD00EC017F00FC018F01F
:108D1800000E18BEFF0E196E1A6E4CD01050D8A453
:108D28002CD00EC011F00FC012F0000E12BEFF0EB4
:108D3800136E146E0F0ED890113612361336143681
:108D4800E82EF9D711C001F012C002F013C003F0E9
:108D580014C004F0E80E056E030E066E000E076ED2
:108D6800000E086EB8EC66F001C017F002C018F0EB
:108D780003C019F004C01AF01DD01004D8A41AD0EA
:108D88000EC011F00FC012F0000E12BEFF0E136ECF
:108D9800146E0F0ED8901136123613361436E82E8C
:108DA800F9D711C017F012C018F013C019F014C089
:108DB8001AF000D017C011F018C012F019C013F043
:108DC8001AC014F0111E121E131E141E112A000EB2
:108DD800122213221422FF0E1124176EFF0E1220E6
:108DE800186E000E1320196E000E14201A6E15044A
:108DF800D8A40BD018C0CFFF17C0CEFF8C0ECD6EF5
:108E08009F809E909D80CD8000D0030E1518D8A419
:108E18000AD018C0B3FF17C0B2FF8C0EB16EA29271
:108E2800A192A082B1803D50D8A41200010E3D6EDF
:108E3800000E166E160E166402D01200120016509E
:108E4800020D000EF324D96E020EF420DA6E000E25
:108E5800DE6E000EDD6E162A160E1664F0D71200AE
:108E6800120012001D0E0101426F1AC10BF11BC145
:108E78000CF1430E01010D6F010E01010E6FB5ECEF
:108E88003BF00101476F1D0E01011C6F260E010109
:108E98001D6F1AC100F11BC101F1000E0101026F23
:108EA8001C0E0101036F010E0101046F020E010186
:108EB800056F040E0101066F51EC65F0430E0101C8
:108EC800006F010E0101016F000E0101026F1C0EFF
:108ED8000101036F010E0101046F060E0101056F08
:108EE800040E0101066F51EC65F047C126F11AC165
:108EF80000F11BC101F1000E0101026F1C0E0101FE
:108F0800036F010E0101046F0B0E0101056F040EC2
:108F18000101066F51EC65F0430E0101006F010E6F
:108F28000101016F000E0101026F1C0E0101036FA8
:108F3800010E0101046F0F0E0101056F040E0101FE
:108F4800066F51EC65F047C12FF11AC100F11BC142
:108F580001F1000E0101026F1C0E0101036F010EE9
:108F68000101046F140E0101056F040E0101066F63
:108F780051EC65F0430E0101006F010E0101016F14
:108F8800000E0101026F1C0E0101036F010E0101A9
:108F9800046F180E0101056F040E0101066F51ECF4
:108FA80065F047C138F118C10EF119C10FF11C0E57
:108FB8000101106F010E0101116F42C112F1000E83
:108FC8000101136F010E0101146F000E0101156FED
:108FD8008DEC3EF01200120000C1D9FF01C1DAFF8A
:108FE800000EDF6E010120EE01F00051D92601517B
:108FF800DA22000EDF6E3E50D8A404D00001C4511E
:10900800D8B439D01E0E0001C56103D00001C52BAC
:1090180000D01E0E0001C519D8A41AD00E0E0001EA
:10902800C76516D000C1D9FF01C1DAFF030EDF6E94
:109038002D0E0001C56F010120EE01F00051D92667
:109048000151DA22030EDF6E2D0E0001C76F0FD01B
:109058001E0E0001C519D8A40AD000C1D9FF01C14C
:10906800DAFF020EDF6E2D0E0001C56F00D0000E74
:109078000001C46F13D0010E0001C5650BD01F0E8F
:109088000001C56107D000C1D9FF01C1DAFF010E97
:10909800DF6E00D0000E0001C56F00D03F50D8A48D
:1090A80004D00001C651D8B43AD01E0E0001C761E1
:1090B80003D00001C72B00D01E0E0001C719D8A489
:1090C8001AD00E0E0001C56516D000C1D9FF01C126
:1090D800DAFF030EDF6E2D0E0001C56F010120EED1
:1090E80001F00051D9260151DA22030E11D02D0EBC
:1090F8000001C76F10D01E0E0001C719D8A40BD0ED
:10910800010120EE01F00051D9260151DA22020EA8
:10911800DF6EEDD700D0000E0001C66F1200010E01
:109128000001C7650ED01F0E0001C7610AD00101FA
:1091380020EE01F00051D9260151DA22010EDF6E2E
:1091480000D0000E0001C76F120012001D0E0101B1
:10915800266F200E0101276F22C128F124EC73F03D
:109168000101296F030E0101556F0101225101010F
:109178005503F3CF54F1000E0101586F000E576FDD
:109188006DD04C0E0101146F010E0101156F500EC8
:109198000101166F010E0101176F560E0101186FBC
:1091A800010E0101196F0101545164EC59F04C0E84
:1091B8000101006F010E0101016F000E0101026F34
:1091C800260E0101036F010E0101046F01015751C1
:1091D800090DF350040F0101056F040E0101066F1C
:1091E80051EC65F0500E0101006F010E0101016F95
:1091F800000E0101026F260E0101036F010E01012D
:10920800046F01015751090DF350080F0101056F53
:10921800040E0101066F51EC65F057C100F158C109
:1092280001F1000E0101036F090E026FFBEC6EF0F5
:109238000C0E01010027000E01010123260E010179
:109248000025D96E010E01010121DA6E56C1DFFF3A
:109258000101542B0101574B582B00D001015551E6
:109268000101236F246B010123510101575D0101A5
:109278005851800A0101256F01012451800A01011A
:109288002559D8A07ED720C10EF121C10FF1260E95
:109298000101106F010E0101116F260E0101126FFD
:1092A800000E0101136F010E0101146F000E010180
:1092B800156F8DEC3EF0120012000AC10EF101018B
:1092C8000F6B106B0101093501010E3701E30F81A6
:1092D80001010E510101116F01011151D8A40AD0E9
:1092E800000E0101086F000E0101096F000E010157
:1092F8000A6F12000DC10EF101010F6B106B010115
:109308000C3501010E3701E30F8101010E510101F6
:10931800166F01011651D8A40AD0000E0101086F7A
:10932800000E0101096F000E01010A6F1200010110
:1093380016517B0F010111270AC116F101010D51C8
:109348000101161B800E010116170101098F010189
:109358000C8FFF0E01010B17FF0E01010C17000EF9
:1093680001010D17000E0101126F000E0101136FAC
:10937800000E0101146F070E0101156F00D00101E5
:1093880008A10DD001010B510101122701010C5157
:109398000101132301010D510101142300D0010122
:1093A800D8900A33093308330101D8900B370C37AA
:1093B8000D370101152FE3D700D0090E0101156FF4
:1093C80000D0010108A10DD001010B5101011227A4
:1093D80001010C510101132301010D510101142355
:1093E80000D00101D8900A33093308330101D8901D
:1093F8001433133312330101152FE3D700D012C1F0
:1094080000F113C101F114C102F111C103F116C138
:1094180004F1A3EC53F000C108F101C109F102C144
:109428000AF1120012006EC072F00001736B746BC7
:1094380000016D350001723701E37381000172513B
:109448000001756F00017551D8A40AD0000E000103
:109458006C6F000E00016D6F000E00016E6F120040
:1094680071C072F00001736B746B000170350001FC
:10947800723701E373810001725100017A6F0001B4
:109488007A51D8A40AD0000E00016C6F000E0001BA
:109498006D6F000E00016E6F120000017A517B0F94
:1094A800000175276EC07AF00001715100017A1B26
:1094B800800E00017A1700016D8F0001708FFF0E7A
:1094C80000016F17FF0E00017017000E00017117E1
:1094D800000E0001766F000E0001776F000E00018C
:1094E800786F070E0001796F00D000016CA10DD0D4
:1094F80000016F51000176270001705100017723A8
:10950800000171510001782300D00001D8906E331A
:109518006D336C330001D8906F37703771370001A5
:10952800792FE3D700D0090E0001796F00D0000130
:109538006CA10DD000016F51000176270001705118
:1095480000017723000171510001782300D0000148
:10955800D8906E336D336C330001D89078337733FD
:1095680076330001792FE3D700D076C060F077C05A
:1095780061F078C062F075C063F07AC064F033ECD3
:1095880054F060C06CF061C06DF062C06EF0120003
:1095980012000001DC510001DB1132E1610E000113
:1095A800D95D090E0001DA59D8B02AD0A786000E75
:1095B8000101006F900E016FD00E026F030E036F52
:1095C800D9C00DF1DAC00EF1DBC00FF1DCC010F12B
:1095D800040ED89001010D370E370F371037E82EDB
:1095E800F8D70DC104F10EC105F10FC106F110C184
:1095F80007F1C1EC5DF035D06C0E0001C06F6CD086
:109608000001DC510001DB1137E1810E0001D95D59
:10961800250E0001DA59D8B02FD0000E0101006FD5
:10962800900E016FD00E026F030E036FD9C00DF1BB
:10963800DAC00EF1DBC00FF1DCC010F1060ED890D5
:1096480001010D370E370F371037E82EF8D70DC147
:1096580004F10EC105F10FC106F110C107F1C1EC0B
:109668005DF0FF0E0101002502013E6FFF0E0101B2
:10967800012102013F6FC0D7000E0101006F900E5B
:10968800016FD00E026F030E036FD9C004F1DAC068
:1096980005F1DBC006F1DCC007F1C1EC5DF0050E99
:1096A80007D00101D890033302330101013300339D
:1096B800E82EF7D7FF0E0101002502013E6FFF0ECD
:1096C8000101012102013F6F000E02013F6F220ECE
:1096D8003E6F7C0E92D700D03EC200F13FC201F12E
:1096E8000001C051F8EC68F0010E0001BB6FAB98A7
:1096F800AB88AECF6DF212000001DC510001DB1126
:1097080032E1610E0001D95D090E0001DA59D8B0C5
:109718002AD0A786000E0001606F900E616FD00EF0
:10972800626F030E636FD9C06DF0DAC06EF0DBC0F4
:109738006FF0DCC070F0040ED89000016D376E3702
:109748006F377037E82EF8D76DC064F06EC065F0DB
:109758006FC066F070C067F024EC5EF035D06C0E18
:109768000001C06F6CD00001DC510001DB1137E152
:10977800810E0001D95D250E0001DA59D8B02FD02D
:10978800000E0001606F900E616FD00E626F030EC5
:10979800636FD9C06DF0DAC06EF0DBC06FF0DCC06B
:1097A80070F0060ED89000016D376E376F3770373E
:1097B800E82EF8D76DC064F06EC065F06FC066F033
:1097C80070C067F024EC5EF0FF0E00016025020116
:1097D8003E6FFF0E0001612102013F6FC0D7000EEE
:1097E8000001606F900E616FD00E626F030E636FA1
:1097F800D9C064F0DAC065F0DBC066F0DCC067F0A1
:1098080024EC5EF0050E07D00001D8906333623374
:10981800000161336033E82EF7D7FF0E00016025A1
:1098280002013E6FFF0E0001612102013F6F000E31
:1098380002013F6F220E3E6F7C0E92D700D03EC2CF
:1098480060F03FC261F00001C05134EC69F0010ED4
:109858000001BB6FAB98AB88AECF6DF21200000170
:10986800C251D8B4A4D00001CE51D8A4A0D0C8C049
:1098780000F10101016B000E0101036F000E026F80
:10988800C90E0101046F000E056F000E066F000E71
:10989800076FABEC69F00101005101012F6F010165
:1098A8002F510101D8A402D0000E1200000E0101B0
:1098B8000E6F01012F51010D000EF324D96E060E13
:1098C800F420DA6EDF50D3EC70F0D3A60FD0040E7C
:1098D80001010C6F010E50EC55F00001A35101017C
:1098E8000C250101306F0001A45114D0040E0101B0
:1098F8000C6F010E50EC55F00001A35101010C272B
:109908000001A45101010D23E60E01010C250101FE
:10991800306FFF0E01010D210101316F00D001EC04
:1099280073F02CC1D9FF2DC1DAFFDF6E010120EEE3
:1099380002F02C51D9262D51DA2230C1DFFF010166
:1099480020EE01F02C51D9262D51DA220101315196
:10995800DF6E2CC117F12DC118F101012E51030F33
:109968000101196F010E01011A6F37EC44F0010172
:10997800CD51D8A417D0080E8EEC6AF00101005121
:109988000101CD250101CD6FCDC126F10101276B64
:10999800010E0101286F080E72EC66F0000E01013D
:1099A800CD6F00D0000E0101D56F010E1200000E20
:1099B8001200120000C1D9FF01C1DAFF1D0EDF6ECF
:1099C800010120EE01F00051D9260151DA22230EBF
:1099D800DF6E010120EE02F00051D9260151DA2292
:1099E800D5C002F10101023BF00E0217D2EC72F071
:1099F800010102250001D325DF6E010120EE03F0ED
:109A08000051D9260151DA22D5C002F10101023BE9
:109A1800F00E0217D2EC72F0010102250001D325E5
:109A2800DF6E010120EE04F00051D9260151DA223F
:109A3800D5C002F10101023BF00E0217D2EC72F020
:109A4800010102250001D325DF6E010120EE05F09A
:109A58000051D9260151DA22CBC0DFFF010120EEE7
:109A680006F00051D9260151DA22CBC0DFFF0101EF
:109A780020EE07F00051D9260151DA22CBC0DFFFD2
:109A8800010120EE08F00051D9260151DA22F9EC43
:109A980072F0DF6E010120EE09F00051D926015164
:109AA800DA22F9EC72F0DF6E010120EE0AF00051C3
:109AB800D9260151DA22F9EC72F0DF6E010120EEAD
:109AC8000BF00051D9260151DA22F5EC72F0DF6E65
:109AD800010120EE0CF00051D9260151DA22F5ECF3
:109AE80072F0DF6E010120EE0DF00051D926015110
:109AF800DA22F5EC72F0DF6E0E0E0101036F010140
:109B080003511200120019C11BF101011C6B1D6BDE
:109B18000101183501011B3701E31C8101011B51AB
:109B28000101256F01012551D8A40AD0000E0101B9
:109B3800176F000E186F000E196F000E1A6F1200C3
:109B4800170E01011B6F17C11CF118C11DF119C1B6
:109B58001EF101011B2901011F6F05D00101D890D9
:109B68001E331D331C3301011F2FF8D701011C516F
:109B78000101206F0101188FFF0E01011717FF0E59
:109B880001011817000E01011917010117510101F0
:109B9800216F010118510101226F010119510101C1
:109BA800236F0101246B8E0E0101255F010125AF92
:109BB8001BD001012551800A8F0FD8B00BD0000EA1
:109BC8000101176F000E186F000E196F000E1A6F43
:109BD800120000D00101D8902433233322332133DB
:109BE8000101253FF7D71FD0170E0101256514D0B5
:109BF800000E0101176F000E186F000E196F000E8E
:109C08001A6F120009D00101D89021372237233763
:109C180024370101250700D0010125510101D8B4DD
:109C280002D0F1D700D0010120510101D8B40AD0E7
:109C38000101241F231F221F216D000E222323232D
:109C4800242300D021C117F122C118F123C119F131
:109C580024C11AF1120012000DC111F10101126B99
:109C6800136B01010C350101113701E31281010168
:109C780011510101186F01011851D8A40AD0000E22
:109C880001010B6F000E01010C6F000E01010D6F39
:109C9800120010C111F10101126B136B01010F3594
:109CA8000101113701E31281010111510101196FFD
:109CB80001011951D8A40AD0000E01010B6F000E42
:109CC80001010C6F000E01010D6F1200000E010161
:109CD800156F000E0101166F000E0101176F0101CB
:109CE8001951890F0101185F0DC119F101011051B6
:109CF8000101191B800E0101191701010C8FFF0EBC
:109D080001010B17FF0E01010C17000E01010D17C1
:109D180001010F8FFF0E01010E17FF0E01010F1732
:109D2800000E01011017180E0101146F00D0010177
:109D3800D89015371637173701010E5101010B5D01
:109D480001010F5101010C590101105101010D5977
:109D5800D8A00ED001010E5101010B5F01010F5176
:109D680001010C5B0101105101010D5B010115811D
:109D78000101D8900B370C370D370101142FD7D7B5
:109D880000D015C100F116C101F117C102F118C1C7
:109D980003F119C104F1A3EC53F000C10BF101C1A7
:109DA8000CF102C10DF1120012007DC07FF000011C
:109DB800806B816B00017C3500017F3701E3808176
:109DC80000017F510001896F00018951D8A40AD090
:109DD800000E00017B6F000E7C6F000E7D6F000E81
:109DE8007E6F1200170E00017F6F7BC080F07CC071
:109DF80081F07DC082F000017F290001836F05D0CA
:109E08000001D8908233813380330001832FF8D743
:109E1800000180510001846F00017C8FFF0E00015A
:109E28007B17FF0E00017C17000E00017D17000153
:109E38007B510001856F00017C510001866F000194
:109E48007D510001876F0001886B8E0E0001895FCC
:109E5800000189AF1BD000018951800A8F0FD8B04B
:109E68000BD0000E00017B6F000E7C6F000E7D6F23
:109E7800000E7E6F120000D00001D890883387331F
:109E8800863385330001893FF7D71FD0170E0001AD
:109E9800896514D0000E00017B6F000E7C6F000EE8
:109EA8007D6F000E7E6F120009D00001D8908537B3
:109EB8008637873788370001890700D00001895124
:109EC8000001D8B402D0F1D700D0000184510001BC
:109ED800D8B40AD00001881F871F861F856D000E21
:109EE80086238723882300D085C07BF086C07CF03A
:109EF80087C07DF088C07EF01200120001010005C5
:109F080001010111D8A42FD00001A751301805E193
:109F18000001A8513118D8B495D03A50D8B402D01D
:109F2800000E1200010E3A6E000E3024D96E050E96
:109F38003120DA6E02C1E1FF03C1E2FFDFCFE7FFA4
:109F4800304A312A31BE0AD0315004E1800E305CEB
:109F5800D8A004D0000E316E000E306E000E3A6E9E
:109F6800010E12006FD0020E01010019010101114A
:109F7800D8A42FD00001A951321805E10001AA5137
:109F88003318D8B45FD03B50D8B402D0000E1200BA
:109F9800010E3B6EC90E3224D96E060E3320DA6EDE
:109FA80002C1E1FF03C1E2FFDFCFE7FF324A332AF4
:109FB80033BE0AD0800E325C010E3358D8A004D0CC
:109FC800000E336E000E326E000E3B6EC9D71200C3
:109FD80039D0040E0101001901010111D8A432D0B1
:109FE8000001A5512E1805E10001A6512F18D8B47B
:109FF80029D00001AE51D8B402D0000E1200010ED3
:10A008000001AE6F000E2E24D96E030E2F20DA6EDB
:10A0180002C1E1FF03C1E2FFDFCFE7FF2E4A2F2A8B
:10A028002FBE0AD02F5004E1270E2E5CD8A004D0F2
:10A03800000E2F6E000E2E6E000E0001AE6F90D730
:10A04800120000D0000E120012000001C251D8A464
:10A0580004D00001CE51D8B403D0000E12008AD02B
:10A068000101C1510101D8A485D0C8C000F1010186
:10A07800016B23C102F10101036BC90E0101046FD9
:10A08800000E056F000E066F000E076FABEC69F04F
:10A09800010100510101246F010124510101D8A4DB
:10A0A80002D0000E1200000E01010E6F01012451B2
:10A0B800010D000EF324D96E060EF420DA6EDF507F
:10A0C800D3EC70F0D3A60FD0040E01010C6F010E73
:10A0D80050EC55F00001A35101010C250101256F39
:10A0E8000001A45114D0040E01010C6F010E50ECB4
:10A0F80055F00001A35101010C270001A4510101F1
:10A108000D23E60E01010C250101256FFF0E01014B
:10A118000D210101266F00D001EC73F020C1D9FF99
:10A1280021C1DAFFDF6E010120EE02F02051D926AD
:10A138002151DA2225C1DFFF010120EE01F0205173
:10A14800D9262151DA2201012651DF6E20C117F1EB
:10A1580021C118F101012251030F0101196F010EEC
:10A1680001011A6F37EC44F0010E0101C16F010EB5
:10A17800120000D0000E120012000101056F80D0FD
:10A18800000E0101006F010E59EC6EF0E40E00D0D4
:10A1980000D0E82EFCD700D000D00201A8511F0B38
:10A1A80080090201A86FA8C202F1000E4EEC6FF000
:10A1B800800E0101BE6F0B0E0101046F620EE82EC6
:10A1C800FED7042FFCD700D012000201A8511F0BA4
:10A1D80060090201A86FA8C202F1000E4EEC6FF0F0
:10A1E800D5C000F1000E59EC6EF0600E0101BE6F93
:10A1F8001200000E0101006F000E59EC6EF0020112
:10A20800A8511F0B20090201A86FA8C202F1000E75
:10A218004EEC6FF0680E0101046FE40EE82EFED7D5
:10A22800042FFCD700D0200E0101BE6F1200000ED3
:10A238000101006F000E59EC6EF00201A8511F0BCE
:10A2480040090201A86FA8C202F1000E4EEC6FF09F
:10A25800400E0101BE6F1200000E0101006F000EDA
:10A2680059EC6EF00201A8511F0B0201A86F000EF5
:10A278000101BE6FA8C202F1000E4EEC6FF0120091
:10A2880001010551000AD8B4E7D7200AD8B4B1D7DC
:10A29800600AD8B4CCD7200AD8B497D7E00AD8A493
:10A2A80012006ED7120006C1D9FF07C1DAFFDE041B
:10A2B800D8A489D0050E0101086585D0F90E0101E1
:10A2C80008250101006F0101016BFF0E0123000E3B
:10A2D8000101036F050E026F64EC60F0010100518B
:10A2E80001010111D8A46FD0FF0E0101096FFF0E03
:10A2F80001010A6F0101085101010B6F0C6B01018B
:10A30800095101010B2701010A5101010C23010127
:10A318000B5101010625D96E01010C5101010721DC
:10A32800DA6E0001CB51DE18D8B420D0FF0E01013F
:10A33800096FFF0E01010A6F0101085101010B6F3E
:10A348000C6B0101095101010B2701010A5101019F
:10A358000C2301010B5101010625D96E01010C5195
:10A3680001010721DA6EDE28D8A403D0010E1200FD
:10A378002AD00001CB29D8A423D0FF0E0101096FF0
:10A38800FF0E01010A6F0101085101010B6F0C6BEF
:10A398000101095101010B2701010A5101010C2397
:10A3A80001010B5101010625D96E01010C51010172
:10A3B8000721DA6EDE28D8B403D0020E120003D0CB
:10A3C800000E120000D0000E12001200000E000154
:10A3D800C96F3E0E010108611200200EC1EC50F059
:10A3E800800EC1EC50F001010851020F49EC72F0E7
:10A3F8000001B75149EC72F0000E01010A6F21D03B
:10A4080001010A51010DF35001010625D96EF450DE
:10A4180001010721DA6EDF500001C9190001C96F77
:10A4280001010A51010DF35001010625D96EF450BE
:10A4380001010721DA6EDF5049EC72F001010A2BA5
:10A4480000D00101085101010A5DD8A0D9D7000147
:10A45800C95149EC72F000D0ACA2FED7240E0EEC24
:10A4680072F000D0ACA2FED7240E0EEC72F000D031
:10A47800ACA2FED701010851050F0EEC72F000D016
:10A48800ACA2FED7C00E0EEC72F0000E0101096FEF
:10A4980014D000D0ACA2FED701010951010DF35030
:10A4A80001010625D96EF45001010721DA6EDF504B
:10A4B8000EEC72F00101092B00D0010108510101D5
:10A4C800095DD8B002D0E6D700D0ACA2FED7000113
:10A4D800C9510EEC72F000D0ACA2FED70D0E0EECF6
:10A4E80072F000D0ACA2FED70A0E0EEC72F0120089
:10A4F80012000101000501010111D8A42AD00001B0
:10A50800BE51D8A4120001D01200010E0001BE6F86
:10A51800000E0001A725D96E050E0001A821DA6EEC
:10A5280002C1DFFF0001A74BA82B0001A8BF0DD077
:10A538000001A85105E1800E0001A75DD8A005D053
:10A54800000E0001A86F000EA76F000E0001BE6F7D
:10A558001200020E0101001901010111D8A42AD02C
:10A568000001BF51D8A4120001D01200010E000151
:10A57800BF6FC90E0001A925D96E060E0001AA21D8
:10A58800DA6E02C1DFFF0001A94BAA2B0001AABFA6
:10A598000DD0800E0001A95D010E0001AA59D8A0B6
:10A5A80005D0000E0001AA6F000EA96F000E000171
:10A5B800BF6F1200040E0101001901010111D8A496
:10A5C80012000001AF51D8A4120001D01200010EF0
:10A5D8000001AF6F000E0001A525D96E030E000122
:10A5E800A621DA6E02C1DFFF0001A54BA62B0001F0
:10A5F800A6BF0DD00001A65105E1270E0001A55DFB
:10A60800D8A005D0000E0001A66F000EA56F000EA1
:10A618000001AF6F12001200000160050001611116
:10A62800D8A42AD00001BE51D8A4120001D012002B
:10A63800010E0001BE6F000E0001A725D96E050EA0
:10A648000001A821DA6E62C0DFFF0001A74BA82B2A
:10A658000001A8BF0DD00001A85105E1800E00013E
:10A66800A75DD8A005D0000E0001A86F000EA76F47
:10A67800000E0001BE6F1200020E000160190001F9
:10A688006111D8A42AD00001BF51D8A4120001D06A
:10A698001200010E0001BF6FC90E0001A925D96E75
:10A6A800060E0001AA21DA6E62C0DFFF0001A94B85
:10A6B800AA2B0001AABF0DD0800E0001A95D010ED2
:10A6C8000001AA59D8A005D0000E0001AA6F000EFB
:10A6D800A96F000E0001BF6F1200040E000160197F
:10A6E80000016111D8A412000001AF51D8A41200D2
:10A6F80001D01200010E0001AF6F000E0001A52568
:10A70800D96E030E0001A621DA6E62C0DFFF0001D8
:10A71800A54BA62B0001A6BF0DD00001A65105E14F
:10A72800270E0001A55DD8A005D0000E0001A66F78
:10A73800000EA56F000E0001AF6F1200120001019C
:10A7480003510101D8B408D00101005101010111E0
:10A7580001010211D8A413D0000E0101006F000EF0
:10A768000101016F000E0101026F120008D0010102
:10A77800032B0101D89002330133003300D0000EBF
:10A78800010100150101056F000E0101011501010C
:10A79800066FFE0E010102150101076F0101055147
:10A7A8000101061101010711D8B413D0E0D711D067
:10A7B8000101032B010E01010027000E01010123F5
:10A7C800000E010102230101D89002330133003346
:10A7D80000D0000E010100150101056F000E0101F6
:10A7E80001150101066FFF0E010102150101076F36
:10A7F800010105510101061101010711D8B40AD060
:10A80800D7D708D0010103070101D89000370137D5
:10A81800023700D0010101BF05D0020E010103611A
:10A82800F1D700D0010103B103D00101019F00D08D
:10A838000101D89003330101035101010213010101
:10A8480004510101D8B403D00101028F00D000C126
:10A8580000F101C101F102C102F112001200000170
:10A8680063510001D8B408D00001605100016111A2
:10A8780000016211D8A413D0000E0001606F000E11
:10A888000001616F000E0001626F120008D0000124
:10A89800632B0001D89062336133603300D0000E1F
:10A8A800000160150001656F000E000161150001CF
:10A8B800666FFE0E000162150001676F00016551A9
:10A8C8000001661100016711D8B413D0E0D711D088
:10A8D8000001632B010E00016027000E00016123B7
:10A8E800000E000162230001D890623361336033A7
:10A8F80000D0000E000160150001656F000E000118
:10A9080061150001666FFF0E000162150001676F97
:10A91800000165510001661100016711D8B40AD021
:10A92800D7D708D0000163070001D8906037613796
:10A93800623700D0000161BF05D0020E00016361DB
:10A94800F1D700D0000163B103D00001619F00D0AE
:10A958000001D890633300016351000162130001C4
:10A9680064510001D8B403D00001628F00D060C0E8
:10A9780060F061C061F062C062F01200120006EE81
:10A98800C9F015EE6EF0EE6AE550E150FCE1E250D8
:10A99800FAE105EE00F0800EEE6AE806FDE104EE4D
:10A9A80000F010EEFFF0EE6AE550E150FCE1E250F5
:10A9B800FAE103EE00F0F70EEE6AE806FDE102EEBA
:10A9C80000F0A80EEE6AE806FDE101EEADF0430ED8
:10A9D800EE6AE806FDE100EEA3F0340EEE6AE80642
:10A9E800FDE100EE2CF0260EEE6AE806FDE1B80E59
:10A9F800F66EBA0EF76E000EF86E06EE00F010EE68
:10AA0800C9F00900F5CFEEFFE550E150FAE1A20EDA
:10AA1800F66ED80EF76E000EF86E02EEA8F010EE85
:10AA280056F00900F5CFEEFFE550E150FAE1020ECD
:10AA3800F66EE50EF76E000EF86E01EEF0F010EE11
:10AA480010F00900F5CFEEFFE550E150FAE1420EB3
:10AA5800F66EE60EF76E000EF86E00EED7F010EE0A
:10AA680006F00900F5CFEEFFE550E150FAE14E0E91
:10AA7800F66EE60EF76E000EF86E00EE52F010EE6F
:10AA880005F00900F5CFEEFFE550E150FAE1000EC0
:10AA9800F86E00012EEF05F00101126F0101120599
:10AAA800D8A416D0CECF13F10101146BCFCF15F176
:10AAB8000101166B010115510101166F156B01019A
:10AAC800135101011527010114510101162300D06A
:10AAD800030E01011219D8A416D0B2CF13F1010147
:10AAE800146BB3CF15F10101166B0101155101016A
:10AAF800166F156B0101135101011527010114513E
:10AB08000101162300D001010C510101D8A435D050
:10AB180015C10EF116C10FF101010E1F0F1F0E4BCB
:10AB28000F2BFF0E01010E250101106FFF0E010111
:10AB38000F210101116F10C100F111C101F10101D3
:10AB4800026B036BE80E0101046F030E056F000E24
:10AB5800066F000E076F7EEC68F0100E07D001013B
:10AB6800D89003330233010101330033E82EF7D7BD
:10AB780000C10CF101C10DF1120015C10EF116C191
:10AB88000FF101010E1F0F1F0E4B0F2BFF0E0101BE
:10AB98000E2501010C6FFF0E01010F2101010D6F40
:10ABA800120012000001706F00017005D8A416D0C1
:10ABB800CECF73F00001746BCFCF75F00001766BC8
:10ABC800000175510001766F756B0001735100012A
:10ABD8007527000174510001762300D0030E00018F
:10ABE8007019D8A416D0B2CF73F00001746BB3CF2C
:10ABF80075F00001766B000175510001766F756B79
:10AC0800000173510001752700017451000176237A
:10AC180000D000016C510001D8A435D075C06EF089
:10AC280076C06FF000016E1F6F1F6E4B6F2BFF0E0B
:10AC380000016E250001716FFF0E00016F210001F8
:10AC4800726F71C060F072C061F00001626B636B7B
:10AC5800E80E0001646F030E656F000E666F000E4C
:10AC6800676FBBEC68F0100E07D00001D890633313
:10AC78006233000161336033E82EF7D760C06CF0AF
:10AC880061C06DF0120075C06EF076C06FF0000103
:10AC98006E1F6F1F6E4B6F2BFF0E00016E2500019C
:10ACA8006C6FFF0E00016F2100016D6F1200120022
:10ACB8000001CC510001D8A404D0010E0001CC6FD2
:10ACC80000D0CCC007F1000E01010A6F5DD0000E64
:10ACD8000101096F000E086F2CD001010A51010D06
:10ACE800F35001010025D96EF45001010121DA6EFB
:10ACF8000001CC51010DC80EF324E16E020EF420C0
:10AD0800E26EE7500101046F01010A51010DF35091
:10AD180001010025E16EF45001010121E26EE750C6
:10AD28000101042501010A25DF6E0101084B092BE9
:10AD380000D00001CC51010DC80EF324D96E020ECB
:10AD4800F420DA6EDF50070B0101046F056B010177
:10AD580004510101085D01010951800A0101066FD2
:10AD680001010551800A01010659D8A0B6D7000192
:10AD7800CC2B070E0001CC6504D0000E0001CC6F6F
:10AD880000D001010A2B00D001010A510101046F12
:10AD9800056B010102510101045D01010551800AA1
:10ADA8000101066F01010351800A01010659D8A06B
:10ADB8008ED70101075112001200000E0101116F18
:10ADC800000E0101106F000E0F6F000E0101136FCE
:10ADD800000E126F000E0101006F040E1AEC6DF0E8
:10ADE800000E0101136F000E126F000E0101116FAA
:10ADF800090E0101116501D023D02AEC73F000D0AF
:10AE0800BFEC72F00009D8A4FBD7C4500101106F41
:10AE18000F6BC35001010F13040E0101116509D016
:10AE280001010F51010112270101105101011323E2
:10AE380000D00A0EE82EFED700D00101112BD8D77A
:10AE480012C106F113C107F1000E0101096F050EC9
:10AE5800086F43EC67F006C112F107C113F1020E47
:10AE68000101006F040E1AEC6DF0C29012C100F1DE
:10AE780013C101F1000E0101036F070E026FFBEC15
:10AE88006EF000C106F101C107F1000E0101096F62
:10AE9800060E086F43EC67F006C112F107C113F103
:10AEA8000101D6510101125F000E0101D6BFFF0E4C
:10AEB8000101135B12C10DF113C10EF11200120052
:10AEC800000E0101096F010103AF0DD00101031F3D
:10AED800021F011F006D000E012302230323010E30
:10AEE8000101096F00D0010107AF0AD00101071F56
:10AEF800061F051F046D000E05230623072300D037
:10AF08000101045101010511010106110101071197
:10AF1800D8B43FD0010E0101086F09D00101D890C3
:10AF280004370537063707370101082B00D0010120
:10AF380007BF02D0F3D700D0010104510101005D21
:10AF4800010105510101015901010651010102598F
:10AF58000101075101010359D8A011D00101045181
:10AF68000101005F010105510101015B0101065169
:10AF78000101025B010107510101035B00D00101DE
:10AF8800D89007330633053304330101082FD4D78B
:10AF980000D0010109510101D8B40AD00101031FF1
:10AFA800021F011F006D000E01230223032300D09E
:10AFB80000C100F101C101F102C102F103C103F1B5
:10AFC800120012000101086FFA0E0101086178D021
:10AFD80008C109F101010A6B09C106F10AC107F1AB
:10AFE8000101D890063707370101D890063707378F
:10AFF80006C109F107C10AF104C1D9FF05C1DAFF89
:10B0080009C102F10AC103F1A9EC72F00101076F4D
:10B01800DE5001010719D8A451D0010120EE01F03A
:10B028000451D9260551DA22010E01010925010131
:10B03800026F000E01010A210101036FA9EC72F0F1
:10B048000101076FDE5001010719D8A437D00101AB
:10B0580020EE02F00451D9260551DA22020E010130
:10B0680009250101026F000E01010A210101036F88
:10B07800A9EC72F00101076FDE5001010719D8A48D
:10B088001DD0010120EE03F00451D9260551DA2222
:10B09800030E010109250101026F000E01010A21B9
:10B0A8000101036FA9EC72F00101076FDE50010185
:10B0B8000719D8A403D0010E120000D0000E120008
:10B0C800000E120012000101096F000E01010A6F43
:10B0D8000F015A99000E0001CE6F000E0001D66FC5
:10B0E800000E0001CF6F000E0001D06F000E4B6EF6
:10B0F800000E376E200E0101BE6F000E476E000E67
:10B108000001CA6F000E0101D76F000E516E000ECC
:10B11800486E8986050E0101076F260EE82EFED7B8
:10B12800072FFCD700D08996680E0101076FE40E3F
:10B13800E82EFED7072FFCD700D0000E0101046FC0
:10B148000101095172EC43F0000E01010A6F1F0E54
:10B1580001010A6501D015D001010A51010DA80E9F
:10B16800F324D96E020EF420DA6EDF500101026F6B
:10B1780001010A51020DF3504EEC6FF001010A2B48
:10B18800E6D70001B7511AEC72F0F29600F00F0101
:10B198005A8900F081CF08F100F0F290F28609C1D7
:10B1A80052F0150E0101076FC60EE82EFED7072FC5
:10B1B800FCD700D0CBEC71F0010E0001D36F000E6C
:10B1C8000001D56F1200010E0001D36F000EA0EC34
:10B1D80071F0000E0001D56FFF0ECEEC6CF0000E82
:10B1E8001AEC72F0080ED7EC72F0E2C1FCF1E3C180
:10B1F800FDF1E4C1FEF1E5C1FFF1D3C02FF10DEC83
:10B2080073F0030E0101016FEF0E006FF5EC72F0A1
:10B218000101026F64EC6DF00DEC73F0030E010197
:10B22800016FFC0E006FF9EC72F00101026F64EC23
:10B238006DF00DEC73F0030E0101016FFD0E006F50
:10B248002FC102F164EC6DF00DEC73F0030E0101F7
:10B25800016FFE0E006FCBC002F164EC6DF00DECD7
:10B2680073F0030E0101016FE80E006FFF0E01017C
:10B27800026F64EC6DF00DEC73F0030E0101016FC9
:10B28800E90E006FFF0E0101026F64EC6DF00DEC2A
:10B2980073F0030E0101016FEA0E006FFF0E01014A
:10B2A800026F64EC6DF00DEC73F0030E0101016F99
:10B2B800EB0E006FFF0E0101026F64EC6DF01200DF
:10B2C80001011F6FFA0E01011F614FD01B0E010112
:10B2D8000C6F010E01010D6F01011F5121EC62F08D
:10B2E8001B0E0101066F010E0101076F14C108F161
:10B2F80015C109F1040E01010A6FF4EC6CF00101AB
:10B308001F51020DC90EF324D96E080EF420DA6E0F
:10B31800DF503F0B01011A6F01011A51060DBD0ED6
:10B32800F3240101066F0A0EF4200101076F16C10C
:10B3380008F117C109F1040E01010A6FF4EC6CF071
:10B3480001011F51020D010EF326000EF422C90E51
:10B35800F324D96E080EF420DA6EDF501F0B18C1E3
:10B36800D9FF19C1DAFFDF6E1200E20E0101066F84
:10B37800010E0101076F14C108F115C109F1040E8E
:10B3880001010A6FF4EC6CF0E20E0101066F010E88
:10B398000101076F16C108F117C109F1040E010177
:10B3A8000A6FF4EC6CF018C1D9FF19C1DAFFFF0E6F
:10B3B800DF6E1200120001010D6F01010D5123EC27
:10B3C80070F00DC100F10101016B01010651050F7B
:10B3D8000101026F7DEC52F007C108F1060E010170
:10B3E8000827020E0101096F0101082B03D0010192
:10B3F800D89009370101082FFAD701010951010135
:10B408000A6F0DC100F10101016B0AC102F17DEC67
:10B4180052F0000E01010B6F000E01010C6F25D0D8
:10B428000DC100F10101016B01010C51010DF35037
:10B4380001010425D96EF45001010521DA6EDF50AF
:10B448000101026F7DEC52F001010C51010DF35026
:10B4580001010425D96EF45001010521DA6EDF508F
:10B4680001010B1B01010C2B00D001010651010148
:10B478000C5DD8A0D5D70DC100F10101016B0BC13E
:10B4880002F17DEC52F00DC100F10101016B0D0ECE
:10B498000101026F7DEC52F00DC100F10101016B59
:10B4A8000A0E0101026F7DEC52F01200000E01013C
:10B4B8000A6F5ED0000E0101096F000E086F2DD0D3
:10B4C80001010A51010DF35001010025D96EF45014
:10B4D80001010121DA6E01010A51010DF350010148
:10B4E8000025E16EF45001010121E26EE7500101EF
:10B4F800056F01010451010DC80EF324E16E020E1F
:10B50800F420E26EE75001010A2500080101052533
:10B51800DF6E0101084B092B00D001010451010D18
:10B52800C80EF324D96E020EF420DA6EDF50070B32
:10B538000101056F066B010105510101085D01015B
:10B548000951800A0101076F01010651800A0101B2
:10B558000759D8A0B5D70101042B070E01010465CE
:10B5680004D0000E0101046F00D001010A2B00D0A5
:10B5780001010A510101056F066B01010251010128
:10B58800055D01010651800A0101076F01010351A0
:10B59800800A01010759D8A08DD71200030E0101B6
:10B5A80034250101386F000E010135210101396F81
:10B5B80032C106F133C107F171EC63F00101376F55
:10B5C80032C106F133C107F138C108F139C109F1B7
:10B5D800040E01010A6FF4EC6CF0E60E0101066F2F
:10B5E800010E0101076F040E010138250101086FE2
:10B5F800000E010139210101096F040E01010A6FD2
:10B60800F4EC6CF0020E0101C019D8A410D038C1B6
:10B6180004F139C105F101013651080F0101066F26
:10B62800000E0101076F020EDFEC59F000D032C1A5
:10B6380006F133C107F1E20E0101086F010E0101A5
:10B64800096F040E01010A6F25EC6CF00009D8A4FB
:10B658000ED034C120F135C121F101013651080F56
:10B668000101226F37C123F129EC50F0120034C1D7
:10B678002CF135C12DF101013651080F01012E6F52
:10B6880033EC4CF01200120010C106F111C107F1A1
:10B698000EC108F10FC109F1040E01010A6FF4ECA3
:10B6A8006CF0E60E0101006F010E0101016F000E42
:10B6B8000101026F0EC103F10FC104F1040E010173
:10B6C800056F040E0101066F51EC65F0010120EED3
:10B6D80008F00E51D9260F51DA22030EDF6E010150
:10B6E80020EE09F00E51D9260F51DA22000EDF6E36
:10B6F800010120EE0AF00E51D9260F51DA22000E70
:10B70800DF6EE60E0101006F010E0101016F000EF0
:10B718000101026F0EC103F10FC104F10B0E01010B
:10B72800056F040E0101066F51EC65F010C100F1C0
:10B7380011C101F1000E0101026F0EC103F10FC129
:10B7480004F10F0E0101056F040E0101066F51ECA3
:10B7580065F0010120EE13F00E51D9260F51DA22BF
:10B76800000EDF6E1200010119510101175D010180
:10B778001A5101011859D8B045D0010119510101D8
:10B788001F6F01011A510101206F0101216B010195
:10B79800226B01011F1F201F211F221F1F2B000EBC
:10B7A8002023212322230101175101011F25010113
:10B7B800236F01011851010120210101246F000E9E
:10B7C800010121210101256F000E01012221010142
:10B7D800266F01011B51010123250101276F01017A
:10B7E8001C51010124210101286F01011D51010192
:10B7F80025210101296F01011E51010126210101A5
:10B808002A6F19D019C11FF11AC120F101011F1F98
:10B81800201F1F4B202B0101175101011F27010178
:10B828001851010120231FC127F120C128F101016E
:10B83800296B2A6B00D027C117F128C118F1120013
:10B8480012000101126F010112510101D8A40DD09B
:10B85800D6CF13F10101146BD7CF15F111D0010127
:10B8680015510101166F156B0ED0030E0101121947
:10B87800D8A412D0B2CF13F10101146BB3CF15F1D4
:10B888000101166BECD701011351010115270101C4
:10B8980014510101162300D001010C510101D8A453
:10B8A80035D015C10EF116C10FF101010E1F0F1F82
:10B8B8000E4B0F2BFF0E01010E250101106FFF0E1D
:10B8C80001010F210101116F10C100F111C101F136
:10B8D8000101026B036BE80E0101046F030E056F93
:10B8E800000E066F000E076F7EEC68F0100E07D092
:10B8F8000101D89003330233010101330033E82EEC
:10B90800F7D700C10CF101C10DF1120015C10CF1FE
:10B9180016C10DF11200000E0101056F010103AF00
:10B9280009D00101026D031FD8B0032B010E0101DC
:10B93800056F00D0010101AF09D00101006D011FA1
:10B94800D8B0012B010E0101051B00D0000E01012A
:10B95800076F000E066F0101025101010311D8B4EF
:10B9680031D0010E0101046F07D00101D8900237D0
:10B9780003370101042B00D0010103BF02D0F5D722
:10B9880000D00101D89006370737010102510101A3
:10B99800005D0101035101010159D8A00BD001013B
:10B9A80002510101005F010103510101015B010125
:10B9B800068100D00101D890033302330101042F1E
:10B9C800E0D700D0010105510101D8B406D001012A
:10B9D800066D071FD8B0072B00D006C100F107C1BC
:10B9E80001F1120012000101026F01010251060D5E
:10B9F800050EF326000EF422BD0EF324D96E0A0EAE
:10BA0800F420DA6EDE28D8A410D001010251060D08
:10BA1800050EF326000EF422BD0EF324D96E0A0E8D
:10BA2800F420DA6E00C1DFFF120001010251060D99
:10BA3800050EF326000EF422BD0EF324D96E0A0E6D
:10BA4800F420DA6E01010051DE5CD8B00FD001019C
:10BA58000251060D050EF326000EF422BD0EF32446
:10BA6800D96E0A0EF420DA6EDF2A120001010251A3
:10BA7800060D050EF326000EF422BD0EF324D96E32
:10BA88000A0EF420DA6EDE500101005DD8B0120013
:10BA980001010251060D050EF326000EF422BD0E1B
:10BAA800F324D96E0A0EF420DA6EDF0612001200B3
:10BAB80000010203040A0B0C0D0E14151617181EAC
:10BAC8001F20212228292A2B2C05060708090F10D8
:10BAD800111213191A1B1C1D23242526272D2E2F5E
:10BAE80030310031302F2E2D27262524231D1C1BF5
:10BAF8001A19131211100F09080706052C2B2A29E9
:10BB0800282221201F1E18171615140E0D0C0B0ABB
:10BB18000403020100010203040A0B0C0D0E1415A4
:10BB28001617181E1F20212228292A2B2C05060744
:10BB380008090F10111213191A1B1C1D232425267E
:10BB4800272D2E2F30310031302F2E2D272625245A
:10BB5800231D1C1B1A19131211100F0908070605BB
:10BB68002C2B2A29282221201F1E18171615140EDF
:10BB78000D0C0B0A040302010000000E0101086FFE
:10BB8800000E096F000E0A6F000E0B6F01010451C1
:10BB9800010105110101061101010711D8B447D0AF
:10BBA800010E01010C6F09D00101D8900437053747
:10BBB8000637073701010C2B00D0010107BF02D05F
:10BBC800F3D700D00101D890083709370A370B3767
:10BBD800010104510101005D0101055101010159F3
:10BBE80001010651010102590101075101010359DF
:10BBF800D8A013D0010104510101005F01010551D2
:10BC08000101015B010106510101025B01010751BC
:10BC18000101035B0101088100D00101D8900733BD
:10BC280006330533043301010C2FCCD700D008C1EB
:10BC380000F109C101F10AC102F10BC103F11200BF
:10BC4800000E0001686F000E696F000E6A6F000E2B
:10BC58006B6F00016451000165110001661100015C
:10BC68006711D8B447D0010E00016C6F09D00001EC
:10BC7800D890643765376637673700016C2B00D07A
:10BC8800000167BF02D0F3D700D00001D890683711
:10BC980069376A376B37000164510001605D000144
:10BCA80065510001615900016651000162590001A6
:10BCB800675100016359D8A013D0000164510001F5
:10BCC800605F000165510001615B00016651000180
:10BCD800625B000167510001635B0001688100D06D
:10BCE8000001D890673366336533643300016C2FE5
:10BCF800CCD700D068C060F069C061F06AC062F05B
:10BD08006BC063F012001B6E4050D8B41FD01B509C
:10BD1800D8B40CD0FF0E34240E6EFF0E35200F6EF3
:10BD2800040E106E010E7BEC46F00AD034C00EF003
:10BD380035C00FF0040E106E010E7BEC46F000D0FB
:10BD4800070E356E3468000E406E00D0010E0001FB
:10BD5800A3250001A36FF80E0001A4210001A46F20
:10BD68002C06D8A02D062C502D10D8A40ED0000ECD
:10BD78002D6E100E2C6E38C2A3F039C2A4F07F0EBF
:10BD88000201396FF00E386F0BD02C042D10D8A497
:10BD980007D0010E406EA3C034F0A4C035F000D027
:10BDA8000001C82BC80E0001C86504D0000E0001B0
:10BDB800C86F00D002013A2904E102013B29D8B436
:10BDC800120002013A4B3B2B12001200000E010137
:10BDD800156F000E146F010115BF0AD0010115512E
:10BDE8003CE10A0E0101145DD8B037D001D035D03E
:10BDF800E1EC56F00DC1ABF00EC1ACF00001ACBFE8
:10BE08000ED0230E0001AB5D0C0E0001AC59D8A07A
:10BE180006D00001AB51DE0F0101D62712D0000178
:10BE2800ACBF08D01C0E0001AB5D0C0E0001AC5974
:10BE3800D8B007D00001AB5100081C0F0101D65F34
:10BE480000D0020E0101016F8A0E006F30EC6BF01A
:10BE58000101144B152BBFD700D00101D651800A20
:10BE68009F0FD8A012000101D651800A600FD8B0E8
:10BE780012000DEC73F0030E0101016FF00E006F5C
:10BE8800D6C102F164EC6DF01200120000018E6F51
:10BE98008EC0D6F0D6C060F00001616B000E0001C4
:10BEA800636F070E626FBEEC60F000016051010124
:10BEB800C36F880E0001D66504D0280E0001D66F26
:10BEC8001200000E00016F6F000E0001706F3F0E30
:10BED8000001716FDA0E00018A6FFF0E00018B6F8F
:10BEE8000001D65100018C6F8D6B00018A51000151
:10BEF8008C2700018B5100018D2300018C1F8D1FA1
:10BF08008C4B8D2B640E00018C250001686F000E90
:10BF180000018D210001696F88EC6DF068C06CF03C
:10BF280069C06DF06AC06EF017EC4AF06CC07BF027
:10BF38006DC07CF06EC07DF0D9EC4EF000017B51F5
:10BF4800280F0001D66F12001200DCC200F1DDC21A
:10BF580001F1DEC202F1DFC203F1E0C204F1E1C285
:10BF680005F1E2C206F1E3C207F17EEC68F000C118
:10BF7800DCF201C1DDF202C1DEF203C1DFF2390EEB
:10BF88000201DC27300EDD23000EDE23000EDF2346
:10BF9800100E01010E6FDCC20FF1DDC210F1DEC21E
:10BFA80011F1DFC212F101010E6701D009D00101C0
:10BFB80012351233113310330F3301010E2FF3D71B
:10BFC800FF0E01010F150101006F7F0E0101101511
:10BFD8000101016F000E010111150101026F000E30
:10BFE800010112150101036F0CC104F10DC105F126
:10BFF8000101066B076B64EC57F000C10CF101C13D
:10C008000DF112001200000E01012D6F0A0E2C6FA7
:10C01800010E01012E6F3E0EA9EC42F002013DBF58
:10C028000CD002013D5104E102013C05D8A005D025
:10C0380002013C07D8A03D0700D00101BE51D8A499
:10C0480002D0110E18D002013C5102013D11D8A4B2
:10C0580018D03FEC6DF00009D8B407D0010E0201EA
:10C068003D6F2C0E3C6F120E06D0000E02013D6F84
:10C078001E0E3C6F100E0001B96F010E0101CB6F4F
:10C0880000D00101CC510101D8A40DD02CEC22F034
:10C0980093B609D00101CB510101D8B402D08A86E8
:10C0A80002D08A9600D0010E0001AD6F130E9DECF0
:10C0B8006EF00009D8B41200CDEC4AF0120012005C
:10C0C800000E0101056F010101AF09D00101006DEA
:10C0D800011FD8B0012B010E0101056F00D001012D
:10C0E80003AF06D00101026D031FD8B0032B00D0A7
:10C0F8000101025101010311D8B42BD0010E010135
:10C10800046F07D00101D890023703370101042BCF
:10C1180000D0010103BF02D0F5D700D001010251C0
:10C128000101005D0101035101010159D8A009D0A5
:10C13800010102510101005F010103510101015B8D
:10C1480000D00101D890033302330101042FE6D750
:10C1580000D0010105510101D8B406D00101006DDC
:10C16800011FD8B0012B00D000C100F101C101F1BD
:10C1780012001200000E0001656F000161AF09D0C6
:10C188000001606D611FD8B0612B010E0001656F61
:10C1980000D0000163AF06D00001626D631FD8B004
:10C1A800632B00D00001625100016311D8B42BD079
:10C1B800010E0001646F07D00001D8906237633721
:10C1C8000001642B00D0000163BF02D0F5D700D076
:10C1D800000162510001605D000163510001615975
:10C1E800D8A009D0000162510001605F00016351CD
:10C1F8000001615B00D00001D89063336233000115
:10C20800642FE6D700D0000165510001D8B406D0EC
:10C218000001606D611FD8B0612B00D060C060F074
:10C2280061C061F0120012000EC100F10FC101F1EE
:10C23800000E0101026F0EC103F10FC104F1080ED7
:10C248000101056F080E0101066FC5EC67F00009D2
:10C25800D8B412000EC100F10FC101F1080E01019E
:10C26800026F0EC103F10FC104F1100E0101056F39
:10C27800080E0101066FC5EC67F00009D8B412007A
:10C28800000E0101106F070E0101106501D01DD0CD
:10C298000DEC73F0F40E010110250101006F01018E
:10C2A800016B030E01230101105101010E25D96E06
:10C2B8000101000E01010F21DA6EDF500101026F4A
:10C2C80064EC6DF00101102BDED70EC100F10FC137
:10C2D80001F104EC65F012001200000E0101106F6C
:10C2E800000E0F6F010110BF0AD0010110514AE181
:10C2F800FA0E01010F5DD8B045D001D043D00BC173
:10C3080004F10CC105F101010F51E6EC57F00009E9
:10C31800D8B433D00FC10DF110C10EF1D89001017E
:10C328000D370E37010E01010D27000E0E23C90E21
:10C3380001010D25D96E080E01010E21DA6EDF50BC
:10C348001F0B1F0AD8B419D00FC10DF110C10EF17F
:10C35800D89001010D370E37010E01010D27000E8F
:10C368000E23C90E01010D25D96E080E01010E21FB
:10C37800DA6EDF38E832070B120001010F4B102B81
:10C38800B1D700D0000E12001200EACF1FF0E1CFA3
:10C3980020F0E2CF21F0D9CF22F0DACF23F0F3CF8B
:10C3A80024F0F4CF25F0F6CF26F0F7CF27F0F8CF1A
:10C3B80028F0F5CF29F09EB09DA022D09E90F80ECF
:10C3C8002B6E000E2A6E2B50CF6ED3B603D0010E03
:10C3D800506E00D0505087EC5EF0010E0101BA6F2C
:10C3E80002016B2B0001CE51D8B404D00201424B9C
:10C3F800432B06D0000E0201436F000E426F00D09F
:10C4080029C0F5FF28C0F8FF27C0F7FF26C0F6FFB0
:10C4180025C0F4FF24C0F3FF23C0DAFF22C0D9FFF0
:10C4280021C0E2FF20C0E1FF1FC0EAFF1EC0E9FFF4
:10C438001DC0FBFF1CC0FAFF11000101106FFA0EAE
:10C44800010110613ED010C111F10101126B11C13F
:10C458000EF112C10FF10101D8900E370F3701010B
:10C46800D8900E370F370EC111F10FC112F1000E1F
:10C478000101136F030E0101136502D012001200AF
:10C4880001011351010DF35001010C25D96EF4502F
:10C4980001010D21DA6E010113510101112501017C
:10C4A800026F000E010112210101036FA9EC72F065
:10C4B800DF6E0101132B030E01011365E1D7120092
:10C4C8001200E20E0101066F010E0101076F0CC197
:10C4D80008F10DC109F1040E01010A6FF4EC6CF0CA
:10C4E8001200120047D001018705D8A44DD0020ED2
:10C4F800010181250101186F000E0101822101014E
:10C50800196F000E01011A6F3DEC40F0040E62EC49
:10C5180070F00009D8A411D0040E9DEC6EF000094B
:10C52800D8A40BD0000E0101276F010E266F000E54
:10C538000101286F040E72EC66F0000E62EC70F0D8
:10C548000009D8B421D0130E0101276F880E266F79
:10C55800000E0101286F000E72EC66F015D0890EEE
:10C568000101126FFF0E0101136F8EEC2EF0010E08
:10C5780012000AD001018651010AD8B4F0D71F0A67
:10C58800D8B4B1D7010A00D0000E12001200010180
:10C59800146F030E0101086F01011451060D050EF9
:10C5A800F326000EF422BD0EF324D96E0A0EF420F1
:10C5B800DA6EDF50DDEC41F00101136F0101145117
:10C5C800060D040EF326000EF422BD0EF324D96ED8
:10C5D8000A0EF420DA6EDF380F0B82EC6FF00101DF
:10C5E800135DD8B012D001011451060D040EF326C4
:10C5F800000EF422BD0EF324D96E0A0EF420DA6E72
:10C60800DF380F0B82EC6FF01200030E0101086F88
:10C6180001011451060D050EF326000EF422BD0E7D
:10C62800F324D96E0A0EF420DA6EDF50DDEC41F007
:10C63800120012000EC106F10FC107F1E20E01014E
:10C64800086F010E0101096F040E01010A6F25EC44
:10C658006CF00009D8A41200000E0101126F3E0E02
:10C668000101126502D01200120001011251060DDB
:10C67800BD0EF3240101066F0A0EF4200101076FB5
:10C688000EC108F10FC109F1040E01010A6F25EC72
:10C698006CF00009D8B418D010C111F10101125181
:10C6A800060D040EF326000EF422BD0EF324D96EF7
:10C6B8000A0EF420DA6E0101113BDF500101111955
:10C6C8000F0B1119DF6E12000101122B3E0E010132
:10C6D8001265CBD7120012001200000E01010E6F76
:10C6E800000E0D6F010120EE03F00651D926075107
:10C6F800DA22DF500101086F06C1D9FF07C1DAFF4E
:10C70800DF500101096F0A6B010120EE01F00651AB
:10C71800D9260751DA22DF5001010B6F01010B51B5
:10C7280001010927000E0A23010120EE02F006513B
:10C73800D9260751DA22DF5001010C6F01010C5193
:10C7480001010927000E0A230101085101010925E9
:10C758000101006F0101000E01010A210101016FB1
:10C76800000E0101036FC90E026F64EC60F000C196
:10C778000DF101C10EF101010D5112001200100E50
:10C788000101446F18C10BF119C10CF1400E0101F0
:10C798000D6F010E01010E6FB5EC3BF01D0E01018E
:10C7A8001A6F2E0E01011B6F460E01011C6F480EF9
:10C7B80001011D6F430E01011E6F010E0101066F7D
:10C7C800000E076F020E086F000E096F0B0E0101B5
:10C7D8000A6F000E0B6F000E0C6F000E0D6F1F0E10
:10C7E80001010E6F010E01010F6FB6EC64F018C164
:10C7F8000EF119C10FF11A0E0101106F010E01019E
:10C80800116F44C112F1000E0101136F010E0101F5
:10C81800146F000E0101156F8DEC3EF0120012002E
:10C82800100E0101446F18C10BF119C10CF1400E33
:10C8380001010D6F010E01010E6FB5EC3BF01D0EED
:10C8480001011A6F2A0E01011B6F410E01011C6FB5
:10C85800530E01011D6F460E01011E6F010E0101ED
:10C86800066F000E076F020E086F000E096F0B0EA1
:10C8780001010A6F000E0B6F000E0C6F000E0D6F9A
:10C888001F0E01010E6F010E01010F6FB6EC64F06F
:10C8980018C10EF119C10FF11A0E0101106F010E26
:10C8A8000101116F44C112F1000E0101136F010E55
:10C8B8000101146F000E0101156F8DEC3EF012009E
:10C8C80012007C0ED36E9B8CD2909B8E200E926EA3
:10C8D800BA0E936E930E946E860E806E010E816E64
:10C8E800040E826E100E0F015D6F000E0F015C6F5B
:10C8F800F19E0F015B810F015B930F015B850F01B7
:10C908005B970F015B990F015B9B0F015B9D0F010B
:10C918005B9FD180CDEC4AF0010E0101F26F000E51
:10C9280002014F6F000E4E6F000E02014D6F000E98
:10C938004C6F000E0201616F000E606F000E020165
:10C94800636F000E626F000E0101C46F0201A469DB
:10C958000201A5690201A6690201A769000E010189
:10C96800D06F1200000E0101106F000E116F000E43
:10C97800126F000E136F899E030EF7EC70F0010121
:10C988000851F7EC70F001010751F7EC70F0010164
:10C998000651F7EC70F0000E0101106F000E116FD8
:10C9A800000E126F000E136F17D001011051010114
:10C9B8000E25D96E0101115101010F21DA6EF4EC37
:10C9C80071F001010051DF6E010E01011027000E08
:10C9D80011231223132300D001010A510101105D14
:10C9E80001010B510101115901010C5101011259A9
:10C9F80001010D5101011359D8A0D7D7898E120012
:10CA0800000E0101036F070E0101036501D019D063
:10CA180001010351010DF35001010025D96EF450B5
:10CA280001010121DA6E01010351010DC80EF32441
:10CA3800E16E020EF420E26EDFCFE7FF0101032B67
:10CA4800E2D7000E0101036F070E0101036502D052
:10CA58001200120001010351010DF35001010025DC
:10CA6800D96EF45001010121DA6EDE28D8A409D06C
:10CA7800070E01010319D8A408D0000E0101C96FDF
:10CA880004D0010E0101C96F12000101032B070E2A
:10CA980001010365DFD712001200000E01010D6FBE
:10CAA8003FD0010102510DC107F10101086B0101DD
:10CAB8000727000E082300C109F101C10AF101018D
:10CAC8000751010109270101085101010A2309C180
:10CAD800F6FF0AC1F7FF000EF86E010105510DC1FE
:10CAE8000BF101010C6B01010B27000E0C23010156
:10CAF8000B5101010325D96E01010C5101010421DB
:10CB0800DA6E0E0EF76403D00800F55005D0F6CFA4
:10CB1800E1FFF7CFE2FFE750DF6E01010D2B00D0F8
:10CB28000101065101010D5DD8A0BBD7120089ECA7
:10CB380072F0899E020EF7EC70F001010751F7ECD4
:10CB480070F001010651F7EC70F001010551F7ECA6
:10CB580070F0000E01010F6F000E106F000E116FC4
:10CB6800000E126F15D001010F5101010925D96E70
:10CB78000101105101010A21DA6EDF50F7EC70F063
:10CB8800010E01010F27000E10231123122300D0DC
:10CB980001010B5101010F5D01010C5101011059F7
:10CBA80001010D510101115901010E5101011259E3
:10CBB800D8A0D9D7898E5DEC72F012001200040E4D
:10CBC80001010E250101066F000E01010F2101016F
:10CBD800076F10C108F111C109F1040E01010A6FB4
:10CBE800F4EC6CF099EC72F002C1D9FF03C1DAFFE2
:10CBF80012C1E1FF13C1E2FFDFCFE7FF0EC106F16B
:10CC08000FC107F1E20E0101086F010E0101096F62
:10CC1800040E01010A6F25EC6CF00009D8A412D0AB
:10CC28000EC106F10FC107F1E60E0101086F010EF2
:10CC38000101096F040E01010A6F25EC6CF000096F
:10CC4800D8B402D0010E1200000E12001200010129
:10CC58000B6FFA0E01010B6112000BC10CF10101FF
:10CC68000D6B0CC109F10DC10AF10101D89009370A
:10CC78000A370101D89009370A3709C10CF10AC1EE
:10CC88000DF1000E01010E6F030E01010E6502D0B9
:10CC98001200120001010E5101010C250101046F5F
:10CCA800000E01010D210101056F01010E51010D59
:10CCB800F35001010725D96EF45001010821DA6EFD
:10CCC800DF500101066FAFEC71F001010E2B030E6E
:10CCD80001010E65DFD712001200120001012B6F4F
:10CCE800010126291DE101012729D8A419D0010134
:10CCF8002B51020D000EF324D96E020EF420DA6EC9
:10CD0800FF0EDE6EFF0EDD6E01012B51010D270EA9
:10CD1800F324D96E030EF420DA6E28C1DFFF120067
:10CD2800010E010126250101296F000E01012721AD
:10CD380001012A6F01012B51020D000EF324D96E57
:10CD4800020EF420DA6E29C1DEFF2AC1DDFF0101DF
:10CD58002B51010D270EF324D96E030EF420DA6E41
:10CD680028C1DFFF12001200000E096E000E0A6EC5
:10CD7800000E0B6E000E0C6E055006100710081002
:10CD8800D8B42FD0010E0D6E07D0D89005360636D0
:10CD9800073608360D2A00D008BE02D0F6D700D0D4
:10CDA800D89009360A360B360C360550015C065009
:10CDB80002580750035808500458D8A00AD0055004
:10CDC800015E0650025A0750035A0850045A098057
:10CDD80000D0D89008320732063205320D2EE0D73F
:10CDE80000D009C001F00AC002F00BC003F00CC06B
:10CDF80004F012003EEC72F00101046F0001CF5103
:10CE0800D8A41BD001010429D8A403D004C1D0F0B0
:10CE180007D0010104290001D06F0001D0054B6E35
:10CE2800400E0001D06509D0400E0001D06F00010E
:10CE3800D0054B6E010E4C6E00D00001D0510001A0
:10CE4800CF5DD8B00ED00001CF51010D800EF32474
:10CE5800D96E040EF420DA6E04C1DFFF0001CF2B77
:10CE680000D00001D0510001CF19D8A41200000150
:10CE7800D051D8B41200010E376E12001200000E05
:10CE880001010C6F000E0B6F01010851010109111E
:10CE9800D8B431D0010E01010A6F07D00101D89032
:10CEA8000837093701010A2B00D0010109BF02D058
:10CEB800F5D700D00101D8900B370C370101085184
:10CEC8000101065D0101095101010759D8A00BD0E4
:10CED800010108510101065F010109510101075BC8
:10CEE80001010B8100D00101D890093308330101F9
:10CEF8000A2FE0D700D00BC106F10CC107F11200D0
:10CF0800000E0001666F000E656F0001625100019E
:10CF18006311D8B431D0010E0001646F07D000014D
:10CF2800D890623763370001642B00D0000163BFDB
:10CF380002D0F5D700D00001D890653766370001D8
:10CF480062510001605D0001635100016159D8A080
:10CF58000BD0000162510001605F000163510001C4
:10CF6800615B0001658100D00001D89063336233B2
:10CF78000001642FE0D700D065C060F066C061F0A2
:10CF88001200000E01010D6F31D0010105510DC1D4
:10CF980007F10101086B01010727000E08230101B1
:10CFA800075101010325D96E01010851010104212E
:10CFB800DA6E010102510DC10AF101010B6B010189
:10CFC8000A27000E0B2301010A5101010025E16E19
:10CFD80001010B5101010121E26EDE50E618D8B4BF
:10CFE80002D0000E120001010D2B00D001010651E4
:10CFF80001010D5DD8A0C9D7010E12001200000E64
:10D008000101116F000E106F010111BF0AD001015B
:10D01800115130E13F0E0101105DD8B02BD001D085
:10D0280029D010C100F111C101F1000E0101036FF7
:10D03800060E026FFBEC6EF0BD0E0101002501012A
:10D04800066F0A0E010101210101076F0EC108F1E7
:10D058000FC109F1040E01010A6F25EC6CF00009FB
:10D06800D8B403D00101105112000101104B112B4B
:10D07800CBD700D0FF0E12001200120E01010E6F66
:10D08800010E01010F6FFC0E0101106F010E01016D
:10D09800116F48EC5BF0000E0101266F580E01017C
:10D0A800006FFE0E0101016F000E0101026F120EEA
:10D0B8000101036F010E0101046F150E0101056FD7
:10D0C800240E0101066F51EC65F00101C951300FC2
:10D0D80001014B6F120E0101046F010E0101056F72
:10D0E8003A0E0101066F000E0101076F020EDFEC18
:10D0F80059F01200000E0101086F000E096F000EB2
:10D108000A6F000E0B6F00D0010100A111D00101C0
:10D1180004510101082701010551010109230101F9
:10D12800065101010A230101075101010B2300D017
:10D138000101D89004370537063707370101D89021
:10D14800033302330133003301010051010101119E
:10D158000101021101010311D8A4D6D708C100F1B9
:10D1680009C101F10AC102F10BC103F11200000E5D
:10D178000001686F000E696F000E6A6F000E6B6F1A
:10D1880000D0000160A111D000016451000168279E
:10D1980000016551000169230001665100016A23FD
:10D1A8000001675100016B2300D00001D89064375B
:10D1B8006537663767370001D89063336233613368
:10D1C800603300016051000161110001621100012A
:10D1D8006311D8A4D6D768C060F069C061F06AC08E
:10D1E80062F06BC063F012000101026F000EAC6EBA
:10D1F800000EAB6E010102A102D0AC8800D0010183
:10D2080002A303D0AC8CAB8C00D0010102A502D0E4
:10D21800AC8E00D0010102A702D0AB8802D0AB8A45
:10D2280000D0010102A902D0AC8400D0010102ABF8
:10D2380002D0AB8600D0010102AD02D09D8A02D097
:10D248009D9A00D0010102AF02D09D8801D09D981F
:10D2580000C1AFFF010101517D6EAC8AAB8E120097
:10D268000001626F000EAC6E000EAB6E000162A191
:10D2780002D0AC8800D0000162A303D0AC8CAB8C88
:10D2880000D0000162A502D0AC8E00D0000162A7D8
:10D2980002D0AB8802D0AB8A00D0000162A902D0CC
:10D2A800AC8400D0000162AB02D0AB8600D0000194
:10D2B80062AD02D09D8A02D09D9A00D0000162AF73
:10D2C80002D09D8801D09D9860C0AFFF00016151D8
:10D2D8007D6EAC8AAB8E120001011A6F01011A51E2
:10D2E80067EC58F0000E0101C66F000E0101DE6FF9
:10D2F800010E0101F36F7F0E0201396FF00E386FD6
:10D308007F0E0001A46FF00EA36F000E2D6E100E9D
:10D318002C6E070E01010E6F0D69040E01010F6FCF
:10D32800010E66EC3FF0010E0001A3250001A36F7A
:10D33800F80E0001A4210001A46F2C06D8A02D0628
:10D34800070E356E3468090E80EC71F01200010189
:10D358000251010100250101086F0101035101017A
:10D3680001210101096F08C10AF109C10BF101018D
:10D378000C6B0D6B10D00101045101010A5F010112
:10D38800055101010B5B0101065101010C5B010113
:10D39800075101010D5B0101045101010A5D010101
:10D3A800055101010B590101065101010C590101F7
:10D3B800075101010D59D8B0DED70AC100F10BC1E0
:10D3C80001F11200060E0101446F18C10BF119C1D9
:10D3D8000CF1400E01010D6F010E01010E6FB5EC4D
:10D3E8003BF01F0E01011A6F2A0E01011B6F530E2D
:10D3F80001011C6F460E01011D6F540E01011E6FC5
:10D40800D7C01FF118C10EF119C10FF11A0E010191
:10D41800106F010E0101116F44C112F1000E0101DC
:10D42800136F010E0101146F000E0101156F8DECD1
:10D438003EF012001200000E01011B6F580E010190
:10D44800006FFE0E0101016F000E0101026F1B0E3D
:10D458000101036F010E0101046F010E0101056F47
:10D46800240E0101066F51EC65F00101C951300F1E
:10D478000101406F18C10EF119C10FF11B0E010116
:10D48800106F010E0101116F260E0101126F000EBF
:10D498000101136F1AC114F1000E0101156F8DEC13
:10D4A8003EF0120012003D0E0101536F14C116F137
:10D4B80015C117F114C100F115C101F1000E0101E8
:10D4C800036F380E026FFBEC6EF0010100C106F12C
:10D4D800010101C107F10101086B096B380E010157
:10D4E8000A6F000E0B6F000E0C6F000E0D6F180EFA
:10D4F80001010E6F010E01010F6FB6EC64F0160EFC
:10D508000101066F010E0101076F53C108F1EAEC32
:10D5180051F012000101046F01010451020D000EC7
:10D52800F324D96E020EF420DA6EDE50DE10D8B481
:10D5380018D001010451020D000EF324D96E020E19
:10D54800F420DA6EDECF02F1DDCF03F1FF0E010128
:10D5580002250101006FFF0E010103210101016F86
:10D56800120001010451020D000EF324D96E020EBF
:10D57800F420DA6EDECF00F1DDCF01F112001200E7
:10D5880001010F5101011011D8B42BD0010E010176
:10D59800116F07D00101D8900F3710370101112BF7
:10D5A80000D0010110BF02D0F5D700D001010F5102
:10D5B80001010D5D0101105101010E59D8A009D0DA
:10D5C80001010F5101010D5F0101105101010E5BB5
:10D5D80000D00101D89010330F330101112FE6D785
:10D5E80000D00DC10DF10EC10EF1120000016951FC
:10D5F80000016A11D8B42BD0010E00016B6F07D05F
:10D608000001D89069376A3700016B2B00D0000100
:10D618006ABF02D0F5D700D0000169510001675DEB
:10D6280000016A5100016859D8A009D00001695168
:10D638000001675F00016A510001685B00D00001CA
:10D64800D8906A33693300016B2FE6D700D067C0E2
:10D6580067F068C068F0120014D0D00E0101026FA4
:10D66800CA0EE82EFED7022FFCD7F60E01010025C0
:10D678000101006FFF0E010101210101016F04008A
:10D6880000D001010151E9E10B0E0101005DD8A0B4
:10D6980010D0E3D70ED0150E0101026FC60EE82E8A
:10D6A800FED7022FFCD700D001010007D8A0010740
:10D6B80004000101005101010111D8A4ECD71200A6
:10D6C8000101026F3F0EC716000EC66E010102511E
:10D6D800C61201010151C71205D0C78C16D0C78CDC
:10D6E800C68813D001010051000AD8B4F6D7020A3F
:10D6F800D8B4F5D7010AD8B4F3D707D09486928A5C
:10D708000DD094860BD0949609D001010251040AD9
:10D71800D8B4F4D7010AD8B4F4D7F5D79488949A32
:10D72800C68A1200000E01010E6F0101FB51D3ECF5
:10D7380070F0040E01010C6F010E50EC55F0000161
:10D74800A35101010C250101236F0001A45101011E
:10D758000D210101246F01EC73F00101206F23C139
:10D7680022F1010124510101216F200E0101176FDF
:10D77800010E0101186F030E0101196F010E01015D
:10D788001A6F37EC44F012002BD04B04D8A404D005
:10D79800E7EC71F0476E00D00001D0510001CF5D79
:10D7A800D8B00FD00001CF51010D800EF324D96EEF
:10D7B800040EF420DA6E3EEC72F0DF6E0001CF2B1F
:10D7C80000D00001D0510001CF19D8A407D0000122
:10D7D800D051D8B403D0010E376E00D04B0600D01C
:10D7E8004B50D8A4D2D712000101BA51D8A41200C4
:10D7F8000101BB51D8A412000101BD51D8A41200E7
:10D808000001CE51D8A412000001CA51D8A41200B8
:10D818000101D451D8A412000101E0510101D8A49A
:10D8280012000101CF51D8A412000001AD51D8A4B3
:10D8380012000101F051D8B41200E6EC72F01200A7
:10D848001200000E01010D6F1FD001010D51010DD5
:10D85800F35001010825D96EF45001010921DA6E4F
:10D8680001010D51010DF35001010625E16EF4503F
:10D8780001010721E26EDE50E618D8B402D0000E8E
:10D88800120001010D2B00D001010A5101010D5DAB
:10D89800D8A0DBD7010E120012002A8C02020CC19C
:10D8A80077643277623238F81180E9383807000037
:10D8B8000507090CF2004010DC80FFFFFFFFFFFFA7
:10D8C800FFFFFFFFFFFFFFFFFFFFFFFFFFFF01005D
:10D8D80000006D4EC641170001000800FF0001015D
:10D8E800FFFFFFFFFFFFFFFFFFFFFFFFFFFFFFFF40
:10D8F8001D0E01011A6F250E01011B6FFCC11CF1E1
:10D90800FDC11DF1FEC11EF1FFC11FF1060E01018F
:10D91800406F18C10EF119C10FF11A0E0101106FF5
:10D92800010E0101116F40C112F1000E0101136FC8
:10D93800010E0101146F000E0101156F8DEC3EF010
:10D94800120012002CC121F12DC122F13C0E01015F
:10D95800236F010E0101246F010E0101256F1FECD9
:10D9680038F02CC10EF12DC10FF103EC68F0010164
:10D978002F6F2AC115F12BC116F12FC117F12EC136
:10D9880018F1000E0101196F010E01011A6F17EC51
:10D998001EF0120001012C6F000E0101F26F2CC164
:10D9A800CBF0000E01012E6F3E0E2D6F2DC100F140
:10D9B8002EC101F1000E0101036F1E0E026FFBEC78
:10D9C8006EF000C12DF101C12EF12DC126F12EC13D
:10D9D80027F1000E0101286F070E72EC66F01200A5
:10D9E800000E01010B6F1BD001010B51010DF3500B
:10D9F80001010625D96EF45001010721DA6E0101F3
:10DA08000B51010DF35001010825E16EF45001019D
:10DA18000921E26EDFCFE7FF01010B2B00D00101E6
:10DA28000A5101010B5DD8A0DFD712000101026F76
:10DA380000C101F10101013BC15001010119CF0BE6
:10DA48000119C16EC196C190C192C19402C101F180
:10DA5800010101470147C25001010119830B011956
:10DA6800C26EC086C088C08AC050F80B0609C06E56
:10DA7800C08EC2801200000E0101016F3E0E01012E
:10DA8800016501D01AD001010151060D040EF326DB
:10DA9800000EF422BD0EF324D96E0A0EF420DA6EBD
:10DAA800DF500F0B0101006F020E0101006102D06F
:10DAB800010E12000101012BE1D7000E1200120025
:10DAC800000E0101036F01010151030B756E00C1C6
:10DAD80074FF02C173FF7F9E7F9C7F84000EF2BE9D
:10DAE800010E0101036FF29E550E7E6EAA0E7E6E28
:10DAF8007F8200D07FB2FED7010103B102D0F29E2F
:10DB080001D0F28E7F941200000E00016B6F0001AD
:10DB180069AF09D00001686D691FD8B0692B010E83
:10DB280000016B6F00D068C060F069C061F000014F
:10DB3800626B8E0E0001636F6BC064F033EC54F0BF
:10DB480060C068F061C069F062C06AF0120012003B
:10DB58001A0E0101006F010E0101016FDEEC4CF09D
:10DB68000101406F18C10EF119C10FF11A0E010120
:10DB7800106F010E0101116F40C112F1000E010179
:10DB8800136F010E0101146F000E0101156F8DEC6A
:10DB98003EF01200120093968A868986050E0101CE
:10DBA800046F260EE82EFED7042FFCD700D08996E6
:10DBB800680E0101046FE40EE82EFED7042FFCD78F
:10DBC80000D00DEC73F0030E0101016FFE0E006F23
:10DBD800FF0E0101026F64EC6DF01200000E0101EE
:10DBE8000C6F040E01010D6FEC0E01010E6F010E9A
:10DBF80001010F6F01012C51B6EC3AF00009D8B4BD
:10DC08000DD0010E0101276F2C0E266F010E0101A8
:10DC1800286F130E72EC66F0010E1200000E12004F
:10DC280012001D0E01011C6F1AC11DF11BC11EF14E
:10DC3800030E0101426F18C10EF119C10FF11C0E3C
:10DC48000101106F010E0101116F42C112F1000EA6
:10DC58000101136F010E0101146F010E0101156F0F
:10DC68008DEC3EF012000FC106F110C107F1E60E6F
:10DC78000101086F010E0101096F040E01010A6F0D
:10DC8800F4EC6CF00101E2690101E3690101E46966
:10DC98000101E569E60E0101066F010E0101076F3A
:10DCA80071EC63F0DCEC72F012000101016F01010C
:10DCB80001510101D8B409D00001D351D8B413D00F
:10DCC800899C8B94898012000ED0010100510101BA
:10DCD800D8B409D00001D551D8B405D0898C8B941B
:10DCE8008990120000D0899C8B84899012000001D1
:10DCF800616F000161510001D8B409D00001D3510E
:10DD0800D8B413D0899C8B94898012000ED000015E
:10DD180060510001D8B409D00001D551D8B405D05C
:10DD2800898C8B948990120000D0899C8B8489906F
:10DD380012000101026F01010251020D000EF324CD
:10DD4800D96E020EF420DA6EDE04DE10D8A40FD0ED
:10DD580001010251020D000EF324D96E020EF420C7
:10DD6800DA6E000EDE6E000EDD6E010E1200000E81
:10DD7800120012000101006F010100510101D8A435
:10DD880009D0D59E000ED76E000ED66E850ED56EC4
:10DD9800D58E1200030E01010019D8A41200000E3E
:10DDA800B36E000EB26E8C0EB16EA292A192B180CB
:10DDB800120012000101046F01010451D809010188
:10DDC800056F05C102F13C0E4EEC6FF0C80E010163
:10DDD800056F05C102F11A0E4EEC6FF0000E01013D
:10DDE800056F05C102F13E0E4EEC6FF01200010105
:10DDF800005101010203F3CF04F1F4CF05F1010151
:10DE0800005101010303F3500101052701010151EC
:10DE180001010203F3500101052704C100F105C106
:10DE280001F1120012000001605100016203F3CFFA
:10DE380064F0F4CF65F00001605100016303F35012
:10DE4800000165270001615100016203F3500001E0
:10DE5800652764C060F065C061F01200120001011E
:10DE68002C6F01012C510101D8B404D0010E01011D
:10DE7800F36F1200000E0101F36F010E0101276F0D
:10DE8800680E266F010E0101286F0F0E72EC66F006
:10DE9800120012000101036F899401010351F7EC8C
:10DEA80070F0E40E00D000D0E82EFCD700D000D0EF
:10DEB80001010251F7EC70F0E40E00D000D0E82E1A
:10DEC800FCD700D000D089841200000E01010C6F2D
:10DED800010E50EC55F001010C1F01010D1F01014D
:10DEE8000C4B0D2B3E0E01010C250101176F000E86
:10DEF80001010D210101186F120012000101006FCC
:10DF0800060E0101006102D0000E03D0010100518C
:10DF1800FB0F0101016F070E0101016503D0070E18
:10DF28000101016F0101015112001200000E0101EF
:10DF3800056F000E0101066F0BD01C0E38EC70F057
:10DF48000101066F01010651020B0101056F00D0A6
:10DF5800010105510101D8B4F0D712000101026F87
:10DF6800000E0101016F3A0E0101026108D02F0E67
:10DF78000101026504D0010E0101016F00D001C149
:10DF880000F10101003112001200000E0101276F9B
:10DF9800010E266F010E0101286F020E72EC66F069
:10DFA800000E0101276F010E266F010E0101286F77
:10DFB800030E72EC66F012000001626F000E0001A1
:10DFC800616F3A0E0001626108D02F0E0001626590
:10DFD80004D0010E0001616F00D061C060F0000143
:10DFE80060311200120089EC72F0899E200EF7EC65
:10DFF80070F001010751F7EC70F001010651F7ECE0
:10E0080070F001010551F7EC70F0898E5DEC72F04B
:10E01800120008C100F109C101F10101026B8E0E65
:10E028000101036F000E0101046FA3EC53F000C15E
:10E0380008F101C109F102C10AF11200120001013F
:10E04800036F03C100F10101016B240E0101026F8E
:10E058007DEC52F003C100F10101016B240E0101B6
:10E06800026F7DEC52F012000101046F89940101E6
:10E07800045140090101046F01010451F7EC70F0EB
:10E08800F4EC71F000C103F189840101035112001D
:10E0980012000001646F8994000164514009000175
:10E0A800646F0001645109EC71F001EC72F060C01A
:10E0B80063F0898400016351120012000101026FAC
:10E0C80001010251020D000EF324D96E020EF42054
:10E0D800DA6EDE50DE10D8A402D0010E1200000E57
:10E0E80012001200512A51504818D8A41200000EEC
:10E0F8000001CA6F000E0001606F000E7BEC6EF02D
:10E10800000E516E000E486E12001200F20E3C1600
:10E11800ABAC05D03C90ABA002D03C8000D0ABB4F7
:10E128003C84ABB23C86AECF60F000016051120077
:10E1380012000101006F080E4A6012004A50010DDA
:10E148002E0EF324D96E020EF420DA6E00C1DFFF22
:10E158004A2A12001200020E01010D6F0BC10EF1C6
:10E168000CC10FF10E0E0101066F010E0101076FC0
:10E178000DC108F1EAEC51F01200000E0101036F25
:10E18800899E050EF7EC70F0F4EC71F00101005176
:10E198000101036F898E0101035112001200010170
:10E1A8000F6F01010F515218D8B4120001D012009C
:10E1B8000EC104F101010F5172EC43F00FC152F08E
:10E1C8001200D08EF290F28CF196F1920F015A9FC4
:10E1D8000F015A9D0F015A9B0F015A99F286F1902F
:10E1E800F28E9F9A12000101016FC9CF00F19E962D
:10E1F800C69E01C1C9FFC6BE120002D0120000D0DF
:10E208009EB61200FDD7120012000001616FC9CF3F
:10E2180060F09E96C69E61C0C9FFC6BE120002D0BD
:10E22800120000D09EB61200FDD7120012000101A4
:10E23800036F0001BB51D8B41200000E0101016F39
:10E24800020E006F03C102F17DEC52F012001200C1
:10E2580056C020F1200E0101176F010E0101186F41
:10E26800010E0101196F010E01011A6F37EC44F01C
:10E2780012000101066F01010651010B0001D36F65
:10E28800010106510E0B0101056F01010551A0ECBA
:10E2980071F012000001636F0001BB51D8B4120085
:10E2A800000E0001616F020E606F63C062F010EC37
:10E2B80053F012001200000162510201E027000130
:10E2C80063510201E123000164510201E2230001CC
:10E2D80065510201E32312000101046F0001D451CA
:10E2E800D8A404D00001C151D8B4120001010451CE
:10E2F8001BEC71F0120012000101006F01010051C6
:10E30800020D000EF324D96E020EF420DA6E000E10
:10E31800DE6E000EDD6E12000001646F0001D45144
:10E32800D8A404D00001C151D8B41200000164512E
:10E338004EEC71F0120012000101046F0201C2518B
:10E34800F00B010104110201C26FC2C202F1340EC6
:10E358004EEC6FF01200010E0101E16F0DEC73F04D
:10E3680004C100F105C101F106C102F164EC6DF0D0
:10E37800120001010151030B756E00C174FF7F9CEF
:10E388007F9E7F8000F000F0735012001200200E74
:10E39800C1EC50F0400EC1EC50F078EC72F09AEC01
:10E3A8006FF0600EC1EC50F012000101006F00C167
:10E3B800C6F1010100510101D8A41200010E0101AA
:10E3C800F36F120012003C0E38EC70F00101056F7B
:10E3D800010105A102D0010E1200000E1200120068
:10E3E800C9CF02F19E96000EC96E00D09EA6FED738
:10E3F800C9CF00F10101016B1200C9CF62F09E96EE
:10E40800000EC96E00D09EA6FED7C9CF60F00001ED
:10E41800616B12000101006FACAC05D0AC903CA25E
:10E4280002D0AC8000D000C1ADFF12000101046F22
:10E4380004C1B7F004C1C5F2C5C202F13A0E4EECF0
:10E448006FF012000101006F010100510101D8B401
:10E4580002D093961200938612001200010E010159
:10E46800276F2C0E266F010E0101286F130E72EC18
:10E4780066F0120089848992F4EC71F000C103F10E
:10E48800898201010351120012000101026F89847F
:10E49800899201010251F7EC70F089821200552827
:10E4A800D8B402D0552A02D0000E556E555012002D
:10E4B800120000D0C1EC70F00101046F010104B139
:10E4C800F9D7120000D0C1EC70F00101046F01010E
:10E4D80004A3F9D712000101496F48C12CF10101C9
:10E4E8004951B0EC25F01200070E0101046F04C178
:10E4F80002F11C0E4EEC6FF0120001080101FFFF43
:10E508003C0101010119FFFFFFFF899E060EF7EC90
:10E5180070F0898E66EC72F0120000C1DCF201C165
:10E52800DDF20201DE6BDF6B1200A1EC72F000C1BC
:10E5380002F101C103F112001200D60E0101006FB1
:10E54800000E0101016F1200120002C100F103C1A7
:10E5580001F1BDEC71F0120012000101066F01011A
:10E568000651B8EC72F012000101056F0101055166
:10E578001AEC72F01200C2A202D0010E1200000EB4
:10E5880012001200070E0101016F0069120012004B
:10E59800280E4DEC70F04AEC5FF012000201C251F7
:10E5A8000E0B120012000101006F00C1F1F1120000
:10E5B8000101006F00C1D1F11200B3C100F1B4C173
:10E5C80001F11200D39ED18E030004001200B3C1E2
:10E5D80060F0B4C161F0120077C0B3F178C0B4F153
:10E5E80012000101F151120012000001B75112008E
:10E5F800120005EC73F0120012000001C85112005D
:10E6080012000001C251120012000101C65112008D
:10E61800120000D07FB2FED712000201E8511200AA
:10E6280012000101006F120012000001C85112000F
:10E6380012000001C25112001200FF0300C20100C3
:10E64800FA0E1200120003FF01FFFF00C28212003F
:06E6580012001200120086
:10FE42000001000A006400E803102701001000000E
:10FE5200010010000100656D526563656976657287
:10FE6200582C322E3137382C312E33312C322C3063
:10FE72002C302C3030303030302C003C453E4E6F30
:10FE82007420416C6C6F77656420746F2073656EAB
:10FE9200643C2F453E003C453E5541525420426150
:10FEA200756472617465204572726F723C2F453EB3
:10FEB200004D6173743A2030782530325825303243
:10FEC200582530325825303258200049443A2030E3
:10FED2007825303258253032582530325825303284
:10FEE2005820003C453E73746279207768696C65DE
:10FEF20020696E743C2F453E003C453E476F696E5B
:10FF02006720746F205458313C2F453E003C453EDB
:10FF12005265637620583220444154413C2F453E7D
:10FF2200004669726D776172653A2076322E3137FA
:10FF32003820003C453E52656376205832204243C9
:10FF42003C2F453E00303132333435363738394173
:10FF52004243444546003C453E55415254204645A5
:10FF620052523C2F453E003C453E55415254204F93
:10FF72004552523C2F453E0047726F75703A203011
:10FF8200782530325820003C543E526566726573C3
:10FF9200683C2F543E004E6F64653A20307825301D
:10FFA20032582000436F723A2025303258200042E6
:10FFB20061743A2025303458200053533A202530BA
:10FFC200325820005070723A20256920005479700E
:10FFD200653A20003C2F44413E003C2F55413E00F3
:10FFE2005744525354003C44413E003C55413E006C
:0EFFF20025632000424F5200504F5200000085
:020000040020DA
:08000000FFFFFFFFFFFFFFFF00
:020000040030CA
:0E0000001D981B36FF8980FF0FC00FE00F40D8
:00000001FF
