:04080000EBEF04F026
:10080800FACF1CF0FBCF1DF0E9CF1EF031EF6CF0F2
:10081800D8CF8FF0E8CF90F0E0CF91F0FACF92F0F8
:10082800FBCF93F0E9CF94F0EACF95F0E1CF96F0C3
:10083800E2CF97F0D9CF98F0DACF99F0F3CF9AF0CA
:10084800F4CF9BF0F6CF9CF0F7CF9DF0F8CF9EF059
:10085800F5CF9FF090D0000E0001A16FF2A08FD0CD
:1008680081CFA0F000F0F2900001A0A984D0600E22
:100878000101C019D8A466D00001CD51D8A43AD03E
:100888000001C851D8A436D0A2EC7EF00101F06F67
:10089800040E00016C6F010EA2EC61F06CC077F0E1
:1008A8006DC078F079EC7EF0D3B606D001D004D0D4
:1008B800010E0101CF6F00D055EC7EF074EC7EF094
:1008C8000001A251000160270001A351000161232A
:1008D800000160C062F0000161C063F00001646B58
:1008E800656BE4EC7CF0010E0101BD6F010E0001A7
:1008F800CD6F41D00001C851D8B409D00C0E000109
:10090800826FFF0E0001836F86EC78F034D0A6EC7E
:100918007EF00009D8B409D0460E0001826FFF0EA0
:100928000001836F86EC78F009D0200E0001826FF9
:10093800FF0E0001836F86EC78F000D0010E0101F4
:10094800BE6F19D0800E0101C019D8A406D0010EBF
:100958000101BF6F0EEC7CF00ED0200E0101C01912
:10096800D8A409D0F60E0001826FFE0E0001836F35
:1009780086EC78F000D0010E0001A16F00D00001D4
:10098800A1510001D8A467D79FC0F5FF9EC0F8FF0A
:100998009DC0F7FF9CC0F6FF9BC0F4FF9AC0F3FF11
:1009A80099C0DAFF98C0D9FF97C0E2FF96C0E1FF6F
:1009B80095C0EAFF94C0E9FF93C0FBFF92C0FAFF1D
:1009C80091C0E0FF90C0E8FF8FC0D8FF100062EF31
:1009D8005EF0000ED0B6010E0101F26F000ED0B22B
:1009E800010E0201FB6F000ED0B0010E0201FA6F7A
:1009F800000E0001CE6F39EC56F0030E0101016FB5
:100A0800E80E006FF4EC75F0030E0101016FF00EB3
:100A1800006F50EC7DF00101D26F0101D229D8B4EA
:100A280004D0010E0101C66F00D01CEC61F006D0A5
:100A38008A9493866FEC7EF01CEC61F00DC1AAF0ED
:100A48000EC1ABF000D00001ABBFF2D73E0E0001E3
:100A5800AA5D080E0001AB59D8A0EAD7CFEC4BF03D
:100A6800360E0101016FB00E006FF4EC75F0010154
:100A7800C6510101D8A40ED00001ABBF0BD0870E20
:100A88000001AA5D0B0E0001AB59D8A003D050ECB1
:100A980069F000D0000E0101006F000E0101016F26
:100AA800020E28EC76F0040062EC41F00400F1C27A
:100AB80000F10101016B19EC7EF0C2EC7CF0010E33
:100AC8000001BE6F0101F2510101D8A413D0E30E59
:100AD8000101286FFF0E0101296F3AEC78F0000E32
:100AE8000101016F040E006F060E0101026FF1ECA7
:100AF8005EF02CD00201FB510201D8B418D00201DB
:100B0800FA510201D8A413D0F70E0101286FFF0E85
:100B18000101296F3AEC78F0000E0101016F040E13
:100B2800006F070E0101026FF1EC5EF00FD00201B9
:100B3800FB510201D8A40AD0FB0E0101286FFF0E59
:100B48000101296F3AEC78F0D08200D0000E2AEC2F
:100B58006EF0D00E0101286FFF0E0101296F3AECEB
:100B680078F0DC0E0101286F030E0101296F3AECC1
:100B780078F0F30E0101286FFF0E0101296F300E86
:100B88000101C82501012A6F01012B6B000E2B23DF
:100B98003AEC78F0B20E0101286FFF0E0101296FBF
:100BA800AAC02AF1ABC02BF13AEC78F0DE0E0101B5
:100BB800286FFE0E0101296FEEC22AF101012B6B8D
:100BC800EFC22CF101012D6BF0C22EF101012F6B48
:100BD800F1C230F10101316B3AEC78F0C40E010139
:100BE800286FFE0E0101296FF6C12AF101012B6B56
:100BF800F7C12CF101012D6BF8C12EF101012F6B0A
:100C0800F9C130F10101316B3AEC78F0990E01012C
:100C1800286FFF0E0101296F86EC7EF00401E46F56
:100C28000401E45101012A6F2B6B3AEC78F07B0E3A
:100C38000101286FFF0E0101296FC9C02AF10101C6
:100C48002B6B3AEC78F0340E0101286FFF0E01018E
:100C5800296F3AEC78F0A70E0101286FFF0E010109
:100C6800296FD2C12AF101012B6B3AEC78F0C70E3B
:100C78000101286FFF0E0101296F81BA02D0010E10
:100C880001D0000E01012A6F2B6B3AEC78F0EE0EC2
:100C980001010F6F020E0101106F83EC79F0BEECB9
:100CA80042F01EEC7BF0000E0101276F1E0E266F2E
:100CB800010E0101286F040E64EC71F0000E0401AE
:100CC800FE6F000E01010C6F000E0D6F020E0E6F0D
:100CD800000E0F6F010E0101106F000E116F000E54
:100CE800126F000E136FFE0E0101146F040E010146
:100CF800156F1EEC6FF00401FE05D8A41ED0000E7F
:100D08000401FE6F000E0101056F000E066F020E52
:100D1800076F000E086FFE0E0101096F040E010136
:100D28000A6F010E01010B6F000E0C6F000E0D6FA4
:100D3800000E0E6FB9EC6FF000D0EE0E0101066FD9
:100D4800020E0101076FDD0E0101086F010E01019E
:100D5800096F040E01010A6F19EC77F00009D8B485
:100D680003D00400FED700D04CEC7BF0000E00014D
:100D7800BE6F00D00101D5510101D8A46DEF0CF070
:100D8800000E2AEC7AF00101DB510101D8B402D03F
:100D9800FF0000D0000E0101DC6F04000101BC510E
:100DA800D8B485D00101C051D8B41CD0D5EC7AF0A4
:100DB80017C13AF218C13BF202013B510CE11F0E78
:100DC80002013A5DD8B007D0000E01014A6F010E4A
:100DD80032EC23F007D0000E01014A6F000E32EC0E
:100DE80023F000D00101F3510101D8B426D0F60E4A
:100DF80001010B6F010E01010C6FEF0E01010D6F68
:100E0800040E01010E6F4FEC46F00401E46F1F0E53
:100E18000401E46112D0F60E0101186F010E010100
:100E2800196F000E01011A6FE2EC74F00009D8B4D2
:100E380004D0000E0101F36F00D0000E0101BC6F59
:100E48003E0E21EC3BF0E50E0101006F010E0101A1
:100E5800016FA7EC52F0E8EC5AF096EC7EF000092E
:100E6800D8B425D00101F1510101D8B420D0010E28
:100E78000001BE6FBD0E0101286FFF0E0101296F31
:100E880021EC7EF002C1D9FF03C1DAFFDF50040173
:100E9800E46F0401E45101012A6F2B6B3AEC78F0FE
:100EA800000E0001BE6F000E0101F16F00D0D5ECFD
:100EB8007AF017C13AF218C13BF202013B5105E141
:100EC800070E02013A5DD8A02AD002013B5127E162
:100ED8001F0E02013A5DD8B022D00101D151D8B419
:100EE8001ED0F60E01010E6F040E01010F6FA90E40
:100EF8000101106F030E0101116FC1C112F1000E43
:100F08000101136F010E0101146F000E0101156F2D
:100F18001FEC4AF000D0000E0101D16F00D0010192
:100F2800BE51D8B409D0000E0101BE6F200E84EC6A
:100F38005BF0600E84EC5BF00001CD51D8B43AD080
:100F48006AEC7EF000C117F101C118F1040E01012D
:100F58000C6F010E96EC60F00CC119F10DC11AF17D
:100F68004FEC7EF0010100C11BF1010101C11CF130
:100F780001011D6B1E6B80EC66F017C1F3F418C1FC
:100F8800F4F44B0E0401F35D010E0401F459D8A0EA
:100F980011D00101BD51D8B40AD00001C851D8A45C
:100FA80006D01EEC71F0000E0101BD6F00D08CEC74
:100FB80076F000D06B0E01010C6F030E01010D6F6E
:100FC800E80E01010E6F010E01010F6F31EC49F0BF
:100FD8000009D8B452D06B0E01012C6F030E010129
:100FE8002D6FE8C12EF1CFC12FF1F0C130F148ECDF
:100FF80035F00009D8B43AD06E0E01010E6F030E19
:1010080001010F6F9A0E0101106F020E0101116F9D
:10101800FB0E0101126F040E0101136F01EC70F059
:101028000009D8B423D00B0E0401FC6F9A0E0101FD
:101038008A6F020E01018B6F0401FC51010D6B0ECA
:10104800F32401018C6F030EF42001018D6F04015C
:10105800FC5100080101E82501018E6FFBC48FF1E6
:10106800000E0101906F76EC13F000D0000E000125
:10107800CD6F000E0101CF6F00D0030E0101E519FD
:10108800D8A414D0030E0101E619D8A40FD0000E7D
:101098000101E56F000E0101E66F030E0101006F0B
:1010A800010EB5EC7EF00101C58944D0020E0101A4
:1010B800E619D8A40CD0000E0101E66F020E01015A
:1010C800006F010EB5EC7EF00101C58733D0010138
:1010D800E605D8A40CD0000E0101E66F010E01014F
:1010E800006F010EB5EC7EF00101C58523D0020E1C
:1010F8000101E519D8A40ED0000E0101E56FB0EC8E
:1011080063F0020E0101006F000EB5EC7EF00101E4
:10111800C58310D00101E505D8A40CD0000E01014B
:10112800E56F010E0101006F000EB5EC7EF00101C4
:10113800C58100D00101BF51D8B42BD0000E0101E8
:10114800BF6F800E0101C019D8A411D00101D4517C
:101158000101D8A405D00101D5510101D8B407D0A7
:10116800000E84EC5BF0000E0101D46F10D0800EED
:101178000101C019D8A40BD00001C851D8A407D0C8
:10118800200E84EC5BF0600E84EC5BF000D0040071
:1011980000D0000E0101016F010E006FEA0E01017F
:1011A800026F010E0101036FEBEC56F00009D8B491
:1011B80008D0EAC100F1010EADEC7EF00101BB6F71
:1011C80007D00101CD51D8B403D00101CD0700D01B
:1011D8000101BB51D8B46BD104012851C00B0401E3
:1011E800FF6F0401FF45E846030B0401FF6FEE0E95
:1011F8000101286FFF0E0101296F3AEC78F0040114
:10120800FF510401D8A409D1000E0101C26F96EC68
:101218007EF00009D8B43FD1270E0101006F040EFB
:101228000101016F020E0101026FDD0E0101036F62
:10123800010E0101046F000E0101056F040E01018A
:10124800066F3BEC73F00009D8B4BDD00A0E01015B
:10125800C16FE1C1A9F3E2C1AAF3E3C1ABF3E4C1F1
:10126800ACF31D0E0301AD6F2B0E0301AE6F29C445
:10127800AFF32AC4B0F32BC4B1F32CC4B2F3010EFC
:101288000001BE6F0101E851FA0F0101E86F000E7D
:101298000101016F020E006F240E0101026FF1ECD3
:1012A8005EF0000E0101016F020E006F240E0101B5
:1012B800026FF1EC5EF0000E0101016F020E006F8B
:1012C8000101E851040F0101026FF1EC5EF0000E1C
:1012D8000101016F020E006F000E0101026FF1ECB7
:1012E8005EF0000E0401FA6F000E0401FD6F22D0BB
:1012F800000E0101016F020E006F0401FD51010D86
:10130800A90EF324D96E030EF420DA6EDF50010122
:10131800026FF1EC5EF00401FD51010DA90EF324FA
:10132800D96E030EF420DA6EDF500401FA1B0401B3
:10133800FD2B00D0FF0E0401E46FFF0E0401E56FE2
:101348000101C1510401E66FE76B0401E451040196
:10135800E6270401E5510401E7230401FD510401D6
:10136800E86FE96B0401E6510401E85D0401E95105
:10137800800A0401EA6F0401E751800A0401EA596E
:10138800D8A0B6D7000E0101016F020E006FFAC493
:1013980002F1F1EC5EF0000E0101016F020E006F28
:1013A8000D0E0101026FF1EC5EF0000E0101016FFC
:1013B800020E006F0A0E0101026FF1EC5EF0000EE2
:1013C8000001BE6F68D00101E751F80F0101C16F3C
:1013D800020E0301A96F270E0101006F040E01011F
:1013E800016F060E0101026FA90E0101036F030EC2
:1013F8000101046F010E0101056FC1C106F11AEC6C
:1014080075F029C4F6F42AC4F7F42BC4F8F42CC4F4
:10141800F9F4010E0101D16F3ED0020E0401FF194B
:10142800D8A439D0020E0101C26F96EC7EF00009F3
:10143800D8B431D0290E01010E6F040E01010F6FCF
:10144800EB0E0101106F040E0101116FF50E010181
:10145800126F040E0101136F01EC70F00009D8B48B
:101468001AD02D0E01018A6F040E01018B6F310E07
:1014780001018C6F040E01018D6F0101E751F30F1B
:1014880001018E6F280E01018F6F010E0101906F0F
:1014980076EC13F000D0000E0101BB6FDD0E0101E8
:1014A800286FFF0E0101296F3AEC78F000D0010E89
:1014B800E9EC79F00009D8B417D0050E0101276FBF
:1014C800A00E266F020E0101286F0C0E64EC71F05D
:1014D8000D0E05EC7DF00101D4510101D8B404D002
:1014E800000E0101D46F00D00A0EE9EC79F0000972
:1014F800D8B420D0F60E0101066F010E0101076F66
:10150800DD0E0101086F010E0101096F040E0101D2
:101518000A6F19EC77F00009D8A40CD0F60E010177
:10152800186F010E0101196F000E01011A6F4AECC4
:1015380047F000D00B0EE9EC79F00009D8B415D0CB
:10154800000E0201236F000E226F000E0201256FAC
:10155800000E246F000E02013D6F000E3C6F000E5E
:1015680002013F6F000E3E6F00D0000EE9EC79F0EB
:101578000009D8B404D0000E0101C56F00D00B0ECD
:10158800FAEC7BF00009D8B40BD0050E0101276FE7
:10159800A00E266F020E0101286F0B0E64EC71F08D
:1015A8000A0EFAEC7BF000D00201175105E10B0E90
:1015B8000201165DD8A00CD0070EB3EC4FF0000E58
:1015C8005EEC7DF0000E0201176F000E166F00D062
:1015D8000101C451D8B40AD0000E01010D6F240EC8
:1015E8000C6F6EEC6AF00101C40700D0000E020116
:1015F800566F0C0EFAEC7BF00009D8B40CD0050E2F
:101608000101276FA00E266F020E0101286F0C0E34
:1016180064EC71F000D00101D051D8B41ED0050E91
:101628000101276FA00E266F020E0101286F0C0E14
:1016380064EC71F0000E0101D06F0101C051D8B403
:101648000CD00101C3510101D8A407D0000E01013B
:10165800D46F0D0E05EC7DF000D0170EE9EC79F093
:101668000009D8B40ED0070E2AEC6EF0000E010166
:10167800276F0A0E266F020E0101286F170E64EC01
:1016880071F0170EFAEC7BF00009D8B40BD0000EFD
:101698000101276F0A0E266F020E0101286F170E2F
:1016A80064EC71F00C0EE9EC79F00009D8B40BD0B9
:1016B800040E0101276FB00E266F010E0101286F7D
:1016C8000D0E64EC71F00D0EE9EC79F00009D8B458
:1016D8000BD0020E0101276F580E266F010E010173
:1016E800286F0C0E64EC71F0180EE9EC79F0000923
:1016F800D8B413D0FA0E0001CE6103D00001CE2B6E
:1017080000D0000E0101276F0A0E266F020E01019C
:10171800286F180E64EC71F000D0180EFAEC7BF00C
:101728000009D8B40BD0000E0101276F0A0E266FEE
:10173800020E0101286F180E64EC71F0110EE9EC2D
:1017480079F00009D8B406D0010E0101D76F42EC38
:1017580038F000D0100EE9EC79F00009D8B41DD0AB
:1017680096EC7EF00009D8A418D00101F4510101CB
:10177800D8B404D0B7EC73F0000E0CD0F60E01010B
:10178800186F010E0101196F010E01011A6F4AEC61
:1017980047F0010E0101F46F00D0100EFAEC7BF057
:1017A8000009D8B40CD0000E0101276F1E0E266F59
:1017B800010E0101286F100E64EC71F000D00001D9
:1017C800ABBF08D03E0E0001AA5D080E0001AB5960
:1017D800D8B00BD00101C3510101D8B452D00101D6
:1017E800C051D8B455D04DD053D00101C3510101D7
:1017F800D8B410D00101C3510101D8B439D00001C7
:10180800ABBF36D07D0E0001AA5D080E0001AB59B2
:10181800D8A02ED0000E0101C36F010E52EC75F056
:101828000101005101010111D8B404D00CD030D00D
:1018380010D02ED00D0E52EC75F0010100510101AF
:101848000111D8B40DD00101C051D8B421D001D0B4
:101858001FD00101D4510101D8A41AD015D018D035
:101868000101C051D8A414D0000E2AEC6EF010D09B
:101878000101C3510101D8B40BD00101C051D8B442
:1018880007D0010E0101C36F010E0101D46F00D012
:10189800040E01010C6F000EEEEC66F00CC112F2A2
:1018A8000DC113F2020112510201245D020113510C
:1018B80002012559D8B009D00101DC51D8A405D0BE
:1018C80012C224F213C225F200D099EC77F0BEEFD1
:1018D80006F0B4EC7EF00009D8B4BEEF06F06FEC69
:1018E8007EF0010E0101DB6FBEEF06F0EBEF04F0B6
:1018F8002DC121F12EC122F134C123F131C106F1EC
:1019080032C107F133C108F1AFEC5CF00101246F7B
:10191800000E0101256F00EC40F00101576F2DC149
:1019280006F12EC107F12FC108F130C109F1040EEB
:1019380001010A6F60EC78F0010135510101D8A46A
:1019480010D02DC106F12EC107F1F60E0101086F66
:10195800020E0101096F040E01010A6F60EC78F0B4
:1019680000D0010E0101336573EF13F031C1D9FFC7
:1019780032C1DAFFDE04D8A41AD0050E010133659E
:1019880016D0F90E010133250101006F0101016B29
:10199800FF0E0123000E0101036F050E026FCCEC50
:1019A8006AF00101005101010111D8B40CD0000EF8
:1019B8000101276F0A0E266F020E0101286F170E0C
:1019C80064EC71F000D031C1D9FF32C1DAFFDE0416
:1019D800D8A466D1050E0101336562D1F90E010163
:1019E80033250101006F0101016BFF0E0123000E79
:1019F8000101036F050E026FCCEC6AF00101005182
:101A080001010111D8A44CD1FF0E0101366FFF0E60
:101A18000101376F010133510101386F396B010141
:101A280036510101382701013751010139230101DC
:101A3800385101013125D96E010139510101322195
:101A4800DA6E0001C951DE18D8B424D0FF0E0101A6
:101A5800366FFF0E0101376F010133510101386FF5
:101A6800396B010136510101382701013751010154
:101A780039230101385101013125D96E010139514C
:101A880001013221DA6EDE28D8A473EF13F002D0F8
:101A980073EF13F0000E0101596F010E586FE7D074
:101AA800050E010158250101366F000E010159216B
:101AB8000101376F010133510101386F396B0101A1
:101AC80036510101385D01013951800A01013A6F2F
:101AD80001013751800A01013A59D8A082D0010189
:101AE80059BF7FD00101595105E1060E0101585D2A
:101AF800D8A077D031C100F132C101F158C102F14B
:101B0800400E0101036F010E0101046F000E010177
:101B1800056F040E0101066F1AEC75F0040E010141
:101B280058250101366F000E010159210101376F57
:101B38000101365101013125D96E010137510101E9
:101B48003221DA6EDF500101386F050E0101396F5D
:101B58000101D89038330101392FFAD701013851E2
:101B6800070B01014C6F040E010158250101366F66
:101B7800000E010159210101376F010136510101A0
:101B88003125D96E0101375101013221DA6EDF505A
:101B98001F0B0101546F1E0E0101546506D0000E83
:101BA80001014F6F1F0E4E6F0AD0010E010154251F
:101BB80001014E6F01014F6B000E4F2300D0400E04
:101BC8000101156F010E0101166F57C117F14EC1C2
:101BD80018F14CC119F1000E01011A6F98EC27F0A9
:101BE8003CD00101580501015911D8A436D031C1A2
:101BF80000F132C101F1010E0101026FE10E010194
:101C0800036F010E0101046F000E0101056F040E40
:101C18000101066F3BEC73F00009D8B41ED02DC14A
:101C28000EF12EC10FF1040E010158250101366F86
:101C3800000E010159210101376F010136510101DF
:101C48003125D96E0101375101013221DA6EDF5099
:101C58000101106F85EC6DF000D0050E01015825CB
:101C68000101586F000E010159210101596F01014D
:101C780033510101366F376B010136510101585D4F
:101C880001015951800A0101386F01013751800A59
:101C980001013859D8B073EF13F002D773EF13F07E
:101CA80031C1D9FF32C1DAFF020EDE18D8A423D021
:101CB800010120EE02F03151D9263251DA22DE50EC
:101CC80002016219D8A473EF13F0000E0201596FD4
:101CD800000E02018C6F020E02018D6F000E0101D1
:101CE800D66F510E0101346173EF13F0010E02013A
:101CF800506F73EF13F031C1D9FF32C1DAFF020E12
:101D0800DF6473EF13F00B0E0101336573EF13F00B
:101D1800010E0101D06F000E9FEC7AF0010120EE58
:101D280002F03151D9263251DA22DE50020162190D
:101D3800D8A40AD0000E0201596F000E02018C6F60
:101D4800020E02018D6F00D0010120EE01F0315129
:101D5800D9263251DA22DE5002016219D8A498D16C
:101D68005A0E0101006F020E0101016F000E010100
:101D7800026F31C103F132C104F1030E0101056F95
:101D8800040E0101066F3BEC73F00009D8B480D152
:101D9800010120EE01F03151D9263251DA22DF500B
:101DA8000101B96F010E0001BB6F2DC106F12EC1F3
:101DB80007F1EA0E0101086F020E0101096F040E16
:101DC80001010A6F60EC78F0010120EE07F0315153
:101DD800D9263251DA220101E151DE18D8A424D0E3
:101DE800010120EE08F03151D9263251DA220101E1
:101DF800E251DE18D8A418D0010120EE09F03151C3
:101E0800D9263251DA220101E351DE18D8A40CD0C8
:101E1800010120EE0AF03151D9263251DA220101AE
:101E2800E451DE18D8B434D131C1D9FF32C1DAFF58
:101E3800040EDE18D8B429D101D027D131C100F160
:101E480032C101F1030E0101026FE10E0101036FBE
:101E5800010E0101046F000E0101056F040E01015E
:101E6800066F3BEC73F00009D8A40FD101D00DD157
:101E7800010120EE0BF03151D9263251DA2202014C
:101E88008E51DE5CD8B003D0000E1200FED0CAC25C
:101E980050F1CBC251F1CCC252F1CDC253F131C194
:101EA80000F132C101F1070E0101026F440E010178
:101EB800036F010E0101046F000E0101056F040E8E
:101EC8000101066F1AEC75F0440E01010B6F010E4B
:101ED80001010C6F500E01010D6F010E01010E6F13
:101EE8004FEC46F001014D6F01015569500E01019B
:101EF800066F010E0101076FDD0E0101086F010E6B
:101F08000101096F040E01010A6F19EC77F000094D
:101F1800D8A40AD0500E01010E6F010E01010F6FF7
:101F280079EC73F00101556F5A0E0101066F020E2C
:101F38000101076FF20E0101086F020E0101096F1E
:101F4800040E01010A6F60EC78F062C2E7F2DAEC85
:101F58007DF00201626F040E0201636F060E02013A
:101F6800596F000E02018C6F020E02018D6F31C194
:101F780000F132C101F1030E0101026F5E0E010191
:101F8800036F020E0101046F000E0101056F040EBC
:101F98000101066F1AEC75F0E10E0101066F010EE2
:101FA8000101076F5A0E0101086F020E0101096F46
:101FB800040E01010A6F60EC78F0000E02018E6FCA
:101FC8001D0E0201646F2B0E0201656F440E0101A4
:101FD800006F010E0101016F000E0101026F640E16
:101FE8000101036F020E0101046F020E0101056F6A
:101FF800040E0101066F1AEC75F0500E0101006F16
:10200800010E0101016F000E0101026F640E010152
:10201800036F020E0101046F060E0101056F040E25
:102028000101066F1AEC75F02DC100F12EC101F106
:10203800000E0101026F640E0101036F020E01011F
:10204800046F0A0E0101056F040E0101066F1AECF8
:1020580075F04DC172F255C173F201015551060D6B
:10206800040EF326000EF422BD0EF324D96E0A0ED8
:10207800F420DA6EDF500F0B0201746F110E0201AB
:102088008A6F000E0101D66F00D0000E120000D03A
:1020980002015951D8A408D00001BB51D8A404D0DA
:1020A80002018B51D8B44ED05E0E0101066F020EAC
:1020B8000101076F030E010131250101086F000EB0
:1020C800010132210101096F040E01010A6F19ECA7
:1020D80077F00009D8B433D002015951D8B42FD0C1
:1020E8000001BB51D8A42BD002018B51D8A427D012
:1020F800010120EE01F03151D9263251DA220201D4
:10210800E751DE18D8A41ED0F20E0101006F020EAE
:102118000101016F000E0101026F31C103F132C1EB
:1021280004F1030E0101056F040E0101066F3BEC7B
:1021380073F00009D8B406D0000E120003D0000EC8
:10214800120000D0010120EE07F03151D92632519A
:10215800DA220101E151DE18D8A424D0010120EED1
:1021680008F03151D9263251DA220101E251DE1844
:10217800D8A418D0010120EE09F03151D9263251E6
:10218800DA220101E351DE18D8A40CD0010120EEB7
:102198000AF03151D9263251DA220101E451DE1810
:1021A800D8B4D0D0010120EE0BF03151D9263251EC
:1021B800DA221F0EDE18D8A402D0000E12005A0E22
:1021C8000101066F020E0101076FF20E0101086F8F
:1021D800020E0101096F040E01010A6F60EC78F02C
:1021E80062C2E7F2010120EE01F03151D9263251E5
:1021F800DA22DF500201626F31C1D9FF32C1DAFF42
:10220800DF500201636F060E0201596F000E0201D2
:102218008C6F020E02018D6F31C100F132C101F1E4
:10222800070E0101026F5E0E0101036F020E01012C
:10223800046F000E0101056F040E0101066F1AEC10
:1022480075F031C100F132C101F1030E0101026FD5
:102258005A0E0101036F020E0101046F000E010105
:10226800056F040E0101066F1AEC75F0010120EEEE
:102278000BF03151D9263251DA22DF500101366F85
:102288000101362902018E6F31C100F132C101F11D
:102298000C0E0101026F640E0101036F020E0101B1
:1022A800046F000E0101056F01013351F40F0101A4
:1022B800066F1AEC75F001013351F40F02018A6FB1
:1022C800000E0101D66F010120EE01F03151D9262F
:1022D8003251DA22DF500101B96F010E0001BB6FE4
:1022E8002DC106F12EC107F1EA0E0101086F020E99
:1022F8000101096F040E01010A6F60EC78F02DC12D
:1023080021F12EC122F134C123F1010E0101246F04
:10231800010E0101256F00EC40F00101576F5A0EC4
:102328000101156F020E0101166F57C117F18EC218
:1023380018F1000E0101196F010E01011A6F98ECD6
:1023480027F0CDD15A0E0101066F020E0101076F69
:10235800F20E0101086F020E0101096F040E01015E
:102368000A6F60EC78F062C2E7F2010120EE01F03A
:102378003151D9263251DA22DF500201626F31C160
:10238800D9FF32C1DAFFDF500201636F000E02018C
:10239800596F000E02018C6F020E02018D6F31C160
:1023A80000F132C101F1070E0101026F5E0E010159
:1023B800036F020E0101046F000E0101056F040E88
:1023C8000101066F1AEC75F031C100F132C101F15B
:1023D800030E0101026F5A0E0101036F020E010183
:1023E800046F000E0101056F040E0101066F1AEC5F
:1023F80075F031C100F132C101F1030E0101026F24
:102408002FC103F130C104F1000E0101056F040E64
:102418000101066F1AEC75F0010120EE0BF0315145
:10242800D9263251DA22DF500101366F01013629EF
:1024380002018E6F31C100F132C101F10C0E0101B0
:10244800026F640E0101036F020E0101046F000E9A
:102458000101056F01013351F40F0101066F1AECF8
:1024680075F001013351F40F02018A6F010120EE6A
:1024780001F03151D9263251DA22DF500101B96F0A
:10248800010E0001BB6F2DC106F12EC107F1EA0E46
:102498000101086F020E0101096F040E01010A6FA4
:1024A80060EC78F0000E0101D66F2DC121F12EC12C
:1024B80022F134C123F1010E0101246F010E010143
:1024C800256F00EC40F00101576F5A0E0101156F9E
:1024D800020E0101166F57C117F18EC218F1000ED6
:1024E8000101196F010E01011A6F98EC27F0090E0E
:1024F80002016319D8A405D00201655141EC7EF0B0
:10250800EED002016439E842070B0101566F010160
:1025180056510101D8B41ED00101C851D8B41AD0FF
:102528000D0E010131250101006F000E010132215C
:102538000101016FF30E010133250101026F010151
:10254800036BFF0E032356C104F123EC65F0010E63
:102558001200C5D0010156510101D8A409D00101CA
:10256800C851D8A405D0F3D703D0F1D71200B7D0FB
:10257800020164511F0B0C0AD8B4E9D70201645157
:102588001F0B1E0AD8A407D002016551D8A403D096
:10259800DED71200A4D0CEC248F1CFC249F1D0C2D2
:1025A8004AF1D1C24BF131C100F132C101F1070E3C
:1025B8000101026F3B0E0101036F010E0101046F5F
:1025C800000E0101056F040E0101066F1AEC75F08B
:1025D8003B0E01010B6F010E01010C6F480E01014A
:1025E8000D6F010E01010E6F4FEC46F001013F69BE
:1025F800480E0101066F010E0101076FDD0E010192
:10260800086F010E0101096F040E01010A6F19EC30
:1026180077F00009D8A40AD0480E01010E6F010E08
:1026280001010F6F79EC73F001013F6F5A0E010140
:10263800066F020E0101076FF20E0101086F020E0C
:102648000101096F040E01010A6F60EC78F062C2A3
:10265800E7F2DAEC7DF00201626F040E0201636FAB
:10266800060E0201596F000E02018C6F020E020164
:102678008D6F31C100F132C101F1030E0101026F0A
:102688005E0E0101036F020E0101046F000E0101CD
:10269800056F040E0101066F1AEC75F0E10E0101D9
:1026A800066F010E0101076F5A0E0101086F020E35
:1026B8000101096F040E01010A6F60EC78F0000E49
:1026C80002018E6F1D0E0201646F2C0E0201656FF0
:1026D800020E02018A6F000E0101D66F00D0000EB3
:1026E800120012008AC12DF18BC12EF1A30E010137
:1026F8002F6F010E0101306F8CC131F18DC132F1A4
:102708008EC133F18FC134F190C135F17CEC0CF0FE
:102718000009D8B41200000E0101A26F010120EED9
:102728000CF08C51D9268D51DA22DF501F0B010194
:10273800A16F0101A8691B0E0101A1650BD0010160
:1027480020EE0DF08C51D9268D51DA22DF5001018F
:10275800A86F00D0000E01019A6F0C0E01018C25A4
:102768000101006F000E01018D210101016F020EB0
:102778000101026F0C0E01018C250101036F000E8F
:1027880001018D210101046F060E0101056F040E80
:102798000101066F3BEC73F00009D8B426D00C0E8B
:1027A80001018C250101006F000E01018D2101013D
:1027B800016F060E0101026F0C0E01018C2501014B
:1027C800036F000E01018D210101046F0A0E010142
:1027D800056F040E0101066F3BEC73F00009D8B4D5
:1027E80004D0010E01019A6F00D09AC1A9F1000E20
:1027F80001019B6F0C0E01018C250101006F000E79
:1028080001018D210101016F030E0101026F0C0E00
:1028180001018C250101036F000E01018D210101C9
:10282800046F070E0101056F040E0101066F3BECF2
:1028380073F00009D8B426D00C0E01018C250101D3
:10284800006F000E01018D210101016F070E0101CA
:10285800026F0C0E01018C250101036F000E0101AE
:102868008D210101046F0B0E0101056F040E01019A
:10287800066F3BEC73F00009D8B404D0010E0101D7
:102888009B6F00D09BC19CF16AEF18F087EF18F09E
:102898001AD087EF18F0190E01018E19D8A487EF06
:1028A80018F00D0E01018C250101186F000E0101B1
:1028B8008D210101196F000E01011A6FE2EC74F00D
:1028C80087EF18F046D0010E0101A26F87EF18F0CC
:1028D800010120EE0EF08C51D9268D51DA22410EDD
:1028E800DE18D8A487EF18F0010120EE0FF08C5104
:1028F800D9268D51DA22530EDE18D8A487EF18F0A6
:10290800010120EE10F08C51D9268D51DA22460EA5
:10291800DE18D8A4F8D38F0E0101066F020E01014C
:10292800076F110E01018C250101086F000E0101CE
:102938008D210101096F0B0E01010A6F19EC77F067
:102948000009D8B4E0D3000E0101D76F42EC38F08B
:10295800DAD30101A851030AD8B4B5D7290AD8B4E3
:10296800B7D7D1D306D10101A9510101D8B4CBD32E
:102978000E0E01018C250101186F000E01018D2139
:102988000101196F000E01011A6FE2EC74F0BBD35C
:1029980001019C510101D8B417D00F0E01018C25FB
:1029A8000101206F000E01018D210101216F01013C
:1029B80020EE0EF08C51D9268D51DA22DF5001011C
:1029C800226F61EC53F09FD3A30E0101186F010E23
:1029D8000101196F2D0E01011A6F010120EE01F09E
:1029E8008C51D9268D51DA22DF5001011B6F61EC21
:1029F80079F089D301019C510101D8B417D00F0E89
:102A080001018C2501010C6F000E01018D210101CE
:102A18000D6F010120EE0EF08C51D9268D51DA226E
:102A2800DF5001010E6FF1EC4EF06DD3A30E0101E2
:102A3800186F010E0101196F2D0E01011A6F0101A6
:102A480020EE01F08C51D9268D51DA22DF50010198
:102A58001B6F61EC79F057D30101A9510101D8A48A
:102A680052D301D050D3A30E0101186F010E0101FA
:102A7800196F2D0E01011A6F010120EE01F08C5122
:102A8800D9268D51DA22DF5001011B6F61EC79F0F4
:102A98003AD30101A9510101D8B435D30E0E010171
:102AA8008C250101186F000E01018D210101196F9C
:102AB8003EEC79F028D3010120EE0EF08C51D92696
:102AC8008D51DA22520EDE18D8A419D0010120EE59
:102AD8000FF08C51D9268D51DA22530EDE18D8A466
:102AE8000ED0010120EE10F08C51D9268D51DA223A
:102AF800490EDE18D8A403D029EC7EF004D3A30E27
:102B08000101186F010E0101196F2D0E01011A6FD5
:102B1800010120EE01F08C51D9268D51DA22DF50C7
:102B280001011B6F61EC79F0EED20101A95101019D
:102B3800D8B4E9D20E0E01018C250101186F000EE0
:102B480001018D210101196F45EC77F0DCD20101FB
:102B5800A9510101D8B4D7D20E0E01018C2501016B
:102B68001A6F000E01018D2101011B6F7CEC6EF0C4
:102B7800CAD20101A851000AD8B4F5D6040AD8B4BB
:102B8800C2D2240AD8B404D7010AD8B433D7030A66
:102B9800D8B462D7010AD8B47CD7070AD8B48BD77F
:102BA800010AD8B4C2D70B0AD8B4D1D7ACD26DD2E7
:102BB8000E0E01018C2501012F6F000E01018D21E0
:102BC8000101306F9BEC3EF0A30E0101186F010E5E
:102BD8000101196F3EEC79F096D28CC100F18DC1DC
:102BE80001F10E0E0101026FF60E0101036F010ED5
:102BF8000101046F000E0101056F040E0101066F4B
:102C08001AEC75F00D0E01018C250101186F000EEC
:102C180001018D210101196F45EC77F074D28CC147
:102C280000F18DC101F10E0E0101026F8CC103F19B
:102C38008DC104F1170E0101056F040E0101066F25
:102C48003BEC73F00009D8B499D08CC100F18DC168
:102C580001F1170E0101026F8CC103F18DC104F15E
:102C6800200E0101056F040E0101066F3BEC73F0A5
:102C78000009D8B483D08CC100F18DC101F1120EC6
:102C88000101026F8CC103F18DC104F11B0E01011A
:102C9800056F040E0101066F3BEC73F00009D8B410
:102CA8006DD08CC100F18DC101F11B0E0101026FC5
:102CB8008CC103F18DC104F1240E0101056F040ECE
:102CC8000101066F3BEC73F00009D8B457D001013D
:102CD80020EE1FF08C51D9268D51DA22010110EE19
:102CE80016F08C51E1268D51E222DE50E618D8A468
:102CF80045D0010120EE28F08C51D9268D51DA22D9
:102D0800010110EE1FF08C51E1268D51E222DE50B8
:102D1800E618D8A433D00E0E01018C2501012A6FC4
:102D2800000E01018D2101012B6F120E01018C256E
:102D380001012C6F000E01018D2101012D6F010190
:102D480020EE16F08C51D9268D51DA22DF50010180
:102D58002E6FECEC77F0A30E0101186F010E010144
:102D6800196F0E0E01018C2501011A6F000E010169
:102D78008D2101011B6FEDEC51F0C5D1A30E0101AE
:102D8800186F010E0101196F2D0E01011A6F010153
:102D980020EE01F08C51D9268D51DA22DF50010145
:102DA8001B6F61EC79F0AFD10E0E01018C2501018A
:102DB8000E6F000E01018D2101010F6F80EC6BF089
:102DC800A30E0101186F010E0101196F010E010117
:102DD8001A6FE2EC74F097D1010120EE0EF08C51DD
:102DE800D9268D51DA22520EDE18D8A48CD10101D1
:102DF80020EE0FF08C51D9268D51DA22530EDE18B1
:102E0800D8A481D1010120EE10F08C51D9268D5122
:102E1800DA22540EDE18D8A476D1FF0074D101014D
:102E280020EE0EF08C51D9268D51DA22530EDE1881
:102E3800D8A469D1010120EE0FF08C51D9268D510B
:102E4800DA22460EDE18D8A45ED1010120EE10F079
:102E58008C51D9268D51DA22540EDE18D8A453D1BC
:102E6800A30E01011A6F010E01011B6FCDEC6EF06C
:102E7800010120EE11F08C51D9268D51DA22DF5054
:102E88000001D76F150E0101276F7C0E266F000E0B
:102E98000101286F110E64EC71F035D1010120EEAB
:102EA8000EF08C51D9268D51DA22530EDE18D8A493
:102EB80058D0010120EE0FF08C51D9268D51DA221D
:102EC800520EDE18D8A44DD0010120EE10F08C511E
:102ED800D9268D51DA22460EDE18D8A442D0010137
:102EE80020EE11F08C51D9268D51DA22040EDF60C4
:102EF80038D0010120EE11F08C51D9268D51DA22FB
:102F0800DF500101996F010120EE12F08C51D92692
:102F18008D51DA22DF500101916F010191510101B8
:102F28009E6F9F6B01019E5101019F6F9E6B010176
:102F380020EE13F08C51D9268D51DA22DF50010191
:102F4800916F0101915101019E27000E9F239EC19F
:102F580026F19FC127F199C128F1010E64EC71F0A7
:102F6800D2D0A30E0101186F010E0101196F2D0EA9
:102F780001011A6F010120EE01F08C51D9268D5103
:102F8800DA22DF5001011B6F61EC79F0BCD001013E
:102F980020EE0EF08C51D9268D51DA22DF50D80957
:102FA8000101986F98C102F13C0EBAEC7AF0ABD0EF
:102FB8000101A9510101D8B4A6D0010120EE1BF0EE
:102FC8008C51D9268D51DA22DF500101916F010110
:102FD80091510101B36FB46B0101B3510101B46F99
:102FE800B36B010120EE1AF08C51D9268D51DA22EB
:102FF800DF500101916F010191510101B327000ECA
:10300800B423260E0101B35D090E0101B459D8A0FD
:1030180006D0000E0101B46F000EB36F74D0010129
:1030280020EE1CF08C51D9268D51DA22DF50000198
:10303800D76F0E0E01018C250101186F000E0101DA
:103048008D210101196FA9EC74F0010120EE1DF02A
:103058008C51D9268D51DA22DF500101E96F1E0EFD
:1030680001018C250101066F000E01018D2101016E
:10307800076F8F0E0101086F020E0101096F0B0E19
:1030880001010A6F60EC78F03ED00101A851040AF2
:10309800D8B48ED7270AD8B48BD5060AD8B49DD50C
:1030A800030AD8B4BCD5010AD8B47ED60F0AD8B45E
:1030B80093D6010AD8B427D0030AD8B4B0D66A0A7E
:1030C800D8B4ECD6BE0AD8B462D71DD00101A1513C
:1030D800000AD8B418D0020AD8B467EF14F0060A68
:1030E800D8B411D0080AD8B44FEF14F0100AD8B4E5
:1030F8000AD0010AD8B42DD4030AD8B43AD5010AA3
:10310800D8B4C3D700D00101A2510101D8A420D05E
:103118000C0E01018C250101816F000E01018D212A
:103128000101826F8FC183F1A30E0101846F010E2B
:103138000101856FA1C186F1A8C187F101018E51F6
:10314800F40F0101886F12EC3DF00101A26F00D06D
:103158000101A2510101D8B41200E90E0101286F42
:10316800FF0E0101296F3AEC78F00101C251D8A491
:1031780023D1010E0001BE6F01018E51FD0F010127
:103188009D6F000E0101016F020E006F240E0101F8
:10319800026FF1EC5EF0000E0101016F020E006F8C
:1031A800240E0101026FF1EC5EF0000E0101016FC7
:1031B800020E006F9DC102F1F1EC5EF0000E0101FC
:1031C800016F020E006F000E0101026FF1EC5EF05C
:1031D800000E0101A06F000E0101016F020E006FC9
:1031E800010120EE03F08C51D9268D51DA22DF50EF
:1031F8000101026FF1EC5EF0010120EE03F08C5149
:10320800D9268D51DA22DF500101A01B000E0101E1
:10321800016F020E006F010120EE04F08C51D926D7
:103228008D51DA22DF500101026FF1EC5EF00101ED
:1032380020EE04F08C51D9268D51DA22DF5001019D
:10324800A01B000E0101016F020E006F010120EEAC
:1032580005F08C51D9268D51DA22DF500101026F19
:10326800F1EC5EF0010120EE05F08C51D9268D516C
:10327800DA22DF500101A01B000E0101016F020ECE
:10328800006F010120EE06F08C51D9268D51DA220B
:10329800DF500101026FF1EC5EF0010120EE06F053
:1032A8008C51D9268D51DA22DF500101A01B000E66
:1032B8000101A76F38D0000E0101016F020E006FE7
:1032C8000101A7510101916F926B0C0E0101912729
:1032D800000E92230101915101018C25D96E010143
:1032E800925101018D21DA6EDF500101026FF1EC7C
:1032F8005EF00101A7510101916F926B0C0E010163
:103308009127000E92230101915101018C25D96E5C
:103318000101925101018D21DA6EDF500101A01BDC
:103328000101A72B00D0F70E0101916FFF0E0101DB
:10333800926F01019D510101936F946B01019151AD
:103348000101932701019251010194230101A75121
:103358000101956F966B010193510101955D010182
:103368009651800A0101976F01019451800A010169
:103378009759D8A0A0D7000E0101016F020E006F67
:10338800A0C102F1F1EC5EF0000E0101016F020E26
:10339800006F0D0E0101026FF1EC5EF0000E0101ED
:1033A800016F020E006F0A0E0101026FF1EC5EF070
:1033B800000E0001BE6F00D0D70E0101286FFF0E6E
:1033C8000101296F3AEC78F01200120062EF1EF04A
:1033D800250E01012719D8B43CD0010120EE02F0D6
:1033E8001251D9261351DA22DE50DE10D8B41AD081
:1033F800010120EE02F01251D9261351DA22DECF54
:1034080018F1DDCF19F102D862EF1EF00500FA6E4F
:1034180001011851FD6E1951FE6EFF6AFA50010143
:103428002751120012C1D9FF13C1DAFFDECF18F1FC
:10343800DDCF19F118C1D9FF19C1DAFF27C1DFFFA4
:1034480012C1D9FF13C1DAFFDE2A000EDD2262EFB6
:103458001EF0000E0101266F000E256F000E0101FF
:10346800246F07D0010124850101144B152B01D0CD
:1034780016D014C1F6FF15C1F7FF000EF86E0E0E38
:10348800F76403D00800F55005D0F6CFE9FFF7CF71
:10349800EAFFEF50300AD8B4E5D701D0EAD714C113
:1034A800F6FF15C1F7FF000EF86E0E0EF76403D095
:1034B8000800F55005D0F6CFE9FFF7CFEAFFEF5047
:1034C80035EC7BF0D8A037D1000E0101266F000E35
:1034D800256F00D025C100F126C101F1000E0101C0
:1034E800036F0A0E026F67EC7AF000C125F101C183
:1034F80026F1D00E0101186FFF0E0101196F14C1DA
:10350800F6FF15C1F7FF000EF86E0E0EF76403D034
:103518000800F55005D0F6CFE9FFF7CFEAFFEF50E6
:1035280001011A6F1B6B0101185101011A270101D2
:10353800195101011B2301011A510101252701011C
:103548001B51010126230101144B152B14C1F6FF51
:1035580015C1F7FF000EF86E0E0EF76403D00800D1
:10356800F55005D0F6CFE9FFF7CFEAFFEF5035EC7D
:103578007BF0D8A0E0D0AED7DED0C5D312D100D032
:103588000101248F0ED10101255101011F5D0101A7
:10359800265101012059D8B009D001011F5101015C
:1035A800255F010120510101265B3FD0000E01017A
:1035B800266F000E256F39D0010120EE02F012515E
:1035C800D9261351DA22DE50DE10D8B418D0010102
:1035D80020EE02F01251D9261351DA22DECF18F16B
:1035E800DDCF19F101D821D00500FA6E010118517B
:1035F800FD6E1951FE6EFF6AFA50200E120012C1BC
:10360800D9FF13C1DAFFDECF18F1DDCF19F118C1E8
:10361800D9FF19C1DAFF200EDF6E12C1D9FF13C11D
:10362800DAFFDE2A000EDD2200D001012507D8A02E
:10363800260701012529C0E101012629D8B44AD06D
:10364800BBD748D0010120EE02F01251D926135100
:10365800DA22DE50DE10D8B420D0010120EE02F0CC
:103668001251D9261351DA22DECF18F1DDCF19F124
:1036780001D80FD00500FA6E01011851FD6E1951DD
:10368800FE6EFF6AFA501DC1D9FF1EC1DAFFDF5076
:10369800120001011D4B1E2B1DD01DC1D9FF1EC1DB
:1036A800DAFF12C1E1FF13C1E2FFE6CF18F1E5CF5F
:1036B80019F118C1E1FF19C1E2FFDFCFE7FF0101EE
:1036C8001D4B1E2B12C1D9FF13C1DAFFDE2A000ED3
:1036D800DD2200D001011F07D8A0200701011F2902
:1036E800B1E101012029D8B4E9D2ACD7E7D216C19B
:1036F800D9FF17C1DAFFDFCF18F1020EDE26DFCFC0
:1037080019F1000EDD2218C1D9FF19C1DAFFDF5007
:103718000101276F00D0270E01011D6F010E010165
:103728001E6F000E0101206F010E1F6F2CD7C00EF7
:103738000101241336D0010114510101186F010150
:1037480015510101196F0101144B152B18C1F6FF12
:1037580019C1F7FF000EF86E0E0EF76403D00800CB
:10376800F55005D0F6CFE9FFF7CFEAFFEF5001019A
:10377800276F01012751000AD8B4C5D2580AD8B416
:10378800FFD63B0AD8B4B3D7070AD8B40AD00D0A73
:10379800D8B407D01C0AD8B4CAD70D0AD8B4F0D602
:1037A800BAD724C118F1C00E01011817D8A420D027
:1037B80016C1D9FF17C1DAFFDFCF18F1020EDE26D6
:1037C800DFCF19F1000EDD2218C1D9FF19C1DAFFC8
:1037D800DECF22F1DDCF23F1010123AF6BD0030E41
:1037E800010124130101226D231FD8B0232B62D0BD
:1037F80016C1D9FF17C1DAFFDFCF18F1020EDE2696
:10380800DFCF19F1000EDD2218C1D9FF19C1DAFF87
:10381800DECF22F1DDCF23F14DD000D0010E010122
:10382800276F050E01012719D8B451D001D04FD008
:1038380001012751020D610EF324F66EFE0EF420ED
:10384800F76EF86A000EF8220900F5500101225DB2
:103858000900F55001012359D8A039D001D037D03B
:103868000101272BDED733D0010E0101276F040E8B
:1038780001012719D8B42BD001D029D00101275133
:10388800020D6B0EF324F66EFE0EF420F76EF86A46
:10389800000EF8220900F5500101225D0900F550DB
:1038A80001012359D8A013D001D011D00101272B31
:1038B800DED70DD001012451C00B000AD8B4AED711
:1038C800800AD8B4D1D7400AD8B4A8D700D001010B
:1038D800255101012611D8B40CD024C118F1030ECA
:1038E80001011817D8B405D001012507D8A026076B
:1038F80000D0800E010127BF7F0E0101186F010162
:1039080025510101275D01012651800A010118593D
:10391800D8B00BD0010127510101255F000E01012C
:1039280027BFFF0E0101265B06D0000E0101266F9E
:10393800000E256F00D0010124A58BD024C118F1F9
:10394800030E01011817D8B439D0010120EE02F096
:103958001251D9261351DA22DE50DE10D8B418D00D
:10396800010120EE02F01251D9261351DA22DECFDE
:1039780018F1DDCF19F101D821D00500FA6E010147
:103988001851FD6E1951FE6EFF6AFA502D0E120085
:1039980012C1D9FF13C1DAFFDECF18F1DDCF19F15B
:1039A80018C1D9FF19C1DAFF2D0EDF6E12C1D9FF78
:1039B80013C1DAFFDE2A000EDD2200D001012551F5
:1039C80001012611D8B4D0D0010120EE02F0125125
:1039D800D9261351DA22DE50DE10D8B418D00101EE
:1039E80020EE02F01251D9261351DA22DECF18F157
:1039F800DDCF19F101D821D00500FA6E0101185167
:103A0800FD6E1951FE6EFF6AFA50300E120012C197
:103A1800D9FF13C1DAFFDECF18F1DDCF19F118C1D4
:103A2800D9FF19C1DAFF300EDF6E12C1D9FF13C1F9
:103A3800DAFFDE2A000EDD2200D001012507D8A01A
:103A480026070101255101012611D8B48DD0BCD714
:103A58008BD00101255101012611D8B445D00101AF
:103A680020EE02F01251D9261351DA22DE50DE1070
:103A7800D8B418D0010120EE02F01251D926135102
:103A8800DA22DECF18F1DDCF19F101D821D00500F7
:103A9800FA6E01011851FD6E1951FE6EFF6AFA5057
:103AA800200E120012C1D9FF13C1DAFFDECF18F1C0
:103AB800DDCF19F118C1D9FF19C1DAFF200EDF6E69
:103AC80012C1D9FF13C1DAFFDE2A000EDD2200D0B1
:103AD80001012507D8A0260701012551010126115A
:103AE800D8B402D0BCD700D024C118F1030E01010C
:103AF8001817D8B439D0010120EE02F01251D92696
:103B08001351DA22DE50DE10D8B418D0010120EEAD
:103B180002F01251D9261351DA22DECF18F1DDCF87
:103B280019F101D821D00500FA6E01011851FD6E76
:103B38001951FE6EFF6AFA502D0E120012C1D9FFFC
:103B480013C1DAFFDECF18F1DDCF19F118C1D9FFA3
:103B580019C1DAFF2D0EDF6E12C1D9FF13C1DAFFCA
:103B6800DE2A000EDD2200D027C121F19FD057D0D8
:103B780000D001012151020D610EF324F66EFE0EF4
:103B8800F420F76EF86A000EF8220900F5CF08F164
:103B98000A00F5CF09F122C106F123C107F178EC3B
:103BA80072F006C10DF107C10EF1000E0101106F90
:103BB8000A0E0F6F88EC75F001010D51300F0101ED
:103BC800276F3AD022C106F123C107F10101215123
:103BD800020D6B0EF324F66EFE0EF420F76EF86AF3
:103BE800000EF8220900F5CF08F10A00F5CF09F117
:103BF80078EC72F0010106510F0B01011C6F0101F5
:103C08001C51010D6A0EF324F66EFF0EF420F76EB8
:103C1800F86A000EF8220800F5CF27F10DD001014F
:103C28002451C00B000AD8B4A4D7800AD8B4CAD784
:103C3800400AD8B49ED700D0010120EE02F01251FC
:103C4800D9261351DA22DE50DE10D8B419D001017A
:103C580020EE02F01251D9261351DA22DECF18F1E4
:103C6800DDCF19F101D822D00500FA6E01011851F3
:103C7800FD6E1951FE6EFF6AFA50010127511200BC
:103C880012C1D9FF13C1DAFFDECF18F1DDCF19F168
:103C980018C1D9FF19C1DAFF27C1DFFF12C1D9FF47
:103CA80013C1DAFFDE2A000EDD2200D00101210750
:103CB80001012129D8B402D0B2D700D00101145192
:103CC8000101186F010115510101196F0101144B10
:103CD800152B18C1F6FF19C1F7FF000EF86E0E0E6E
:103CE800F76403D00800F55005D0F6CFE9FFF7CF09
:103CF800EAFFEF500101276F01012751D8B403D023
:103D0800ECEF19F000D0000E0101136F000E126FD6
:103D18001200120006EF23F0250E00018119D8B415
:103D28003CD0000120EE02F06C51D9266D51DA2208
:103D3800DE50DE10D8B41AD0000120EE02F06C512B
:103D4800D9266D51DA22DECF72F0DDCF73F002D8BA
:103D580006EF23F00500FA6E00017251FD6E7351F3
:103D6800FE6EFF6AFA500001815112006CC0D9FF43
:103D78006DC0DAFFDECF72F0DDCF73F072C0D9FF0D
:103D880073C0DAFF81C0DFFF6CC0D9FF6DC0DAFFF6
:103D9800DE2A000EDD2206EF23F0000E0001806F00
:103DA800000E7F6F000E00017E6F07D000017E8538
:103DB80000016E4B6F2B01D016D06EC0F6FF6FC09E
:103DC800F7FF000EF86E0E0EF76403D00800F550EA
:103DD80005D0F6CFE9FFF7CFEAFFEF50300AD8B4A5
:103DE800E5D701D0EAD76EC0F6FF6FC0F7FF000E27
:103DF800F86E0E0EF76403D00800F55005D0F6CF24
:103E0800E9FFF7CFEAFFEF5063EC7BF0D8A037D19A
:103E1800000E0001806F000E7F6F00D07FC060F041
:103E280080C061F0000E0001636F0A0E626F83ECC0
:103E38007AF060C07FF061C080F0D00E0001726F30
:103E4800FF0E0001736F6EC0F6FF6FC0F7FF000E24
:103E5800F86E0E0EF76403D00800F55005D0F6CFC3
:103E6800E9FFF7CFEAFFEF500001746F756B0001AF
:103E7800725100017427000173510001752300017C
:103E8800745100017F270001755100018023000152
:103E98006E4B6F2B6EC0F6FF6FC0F7FF000EF86E0B
:103EA8000E0EF76403D00800F55005D0F6CFE9FFF1
:103EB800F7CFEAFFEF5063EC7BF0D8A0E0D0AED7A5
:103EC800DED0C5D312D100D000017E8F0ED1000103
:103ED8007F510001795D0001805100017A59D8B005
:103EE80009D00001795100017F5F00017A5100017A
:103EF800805B3FD0000E0001806F000E7F6F39D0CD
:103F0800000120EE02F06C51D9266D51DA22DE5004
:103F1800DE10D8B418D0000120EE02F06C51D9267A
:103F28006D51DA22DECF72F0DDCF73F001D821D0E7
:103F38000500FA6E00017251FD6E7351FE6EFF6A44
:103F4800FA50200E12006CC0D9FF6DC0DAFFDECF28
:103F580072F0DDCF73F072C0D9FF73C0DAFF200EA4
:103F6800DF6E6CC0D9FF6DC0DAFFDE2A000EDD22DD
:103F780000D000017F07D8A0800700017F29C0E199
:103F880000018029D8B44AD0BBD748D0000120EE20
:103F980002F06C51D9266D51DA22DE50DE10D8B409
:103FA80020D0000120EE02F06C51D9266D51DA22A2
:103FB800DECF72F0DDCF73F001D80FD00500FA6EB6
:103FC80000017251FD6E7351FE6EFF6AFA5077C0A0
:103FD800D9FF78C0DAFFDF5012000001774B782B49
:103FE8001DD077C0D9FF78C0DAFF6CC0E1FF6DC083
:103FF800E2FFE6CF72F0E5CF73F072C0E1FF73C065
:10400800E2FFDFCFE7FF0001774B782B6CC0D9FFC9
:104018006DC0DAFFDE2A000EDD2200D0000179072C
:10402800D8A07A0700017929B1E100017A29D8B42A
:10403800E9D2ACD7E7D270C0D9FF71C0DAFFDFCFC1
:1040480072F0020EDE26DFCF73F0000EDD2272C0A2
:10405800D9FF73C0DAFFDF500001816F00D0810EF5
:104068000001776F000E0001786F000E00017A6F73
:10407800010E796F2CD7C00E00017E1336D00001D7
:104088006E510001726F00016F510001736F0001E2
:104098006E4B6F2B72C0F6FF73C0F7FF000EF86E01
:1040A8000E0EF76403D00800F55005D0F6CFE9FFEF
:1040B800F7CFEAFFEF500001816F00018151000A3C
:1040C800D8B4C5D2580AD8B4FFD63B0AD8B4B3D7A7
:1040D800070AD8B40AD00D0AD8B407D01C0AD8B435
:1040E800CAD70D0AD8B4F0D6BAD77EC072F0C00EBF
:1040F80000017217D8A420D070C0D9FF71C0DAFFB0
:10410800DFCF72F0020EDE26DFCF73F0000EDD2265
:1041180072C0D9FF73C0DAFFDECF7CF0DDCF7DF04F
:1041280000017DAF6BD0030E00017E1300017C6D92
:104138007D1FD8B07D2B62D070C0D9FF71C0DAFF67
:10414800DFCF72F0020EDE26DFCF73F0000EDD2225
:1041580072C0D9FF73C0DAFFDECF7CF0DDCF7DF00F
:104168004DD000D0010E0001816F050E00018119AC
:10417800D8B451D001D04FD000018151020D610E49
:10418800F324F66EFE0EF420F76EF86A000EF8229D
:104198000900F55000017C5D0900F55000017D59CA
:1041A800D8A039D001D037D00001812BDED733D049
:1041B800010E0001816F040E00018119D8B42BD0C3
:1041C80001D029D000018151020D6B0EF324F66E47
:1041D800FE0EF420F76EF86A000EF8220900F5507A
:1041E80000017C5D0900F55000017D59D8A013D06D
:1041F80001D011D00001812BDED70DD000017E51F6
:10420800C00B000AD8B4AED7800AD8B4D1D7400AB8
:10421800D8B4A8D700D000017F5100018011D8B4CC
:104228000CD07EC072F0030E00017217D8B405D00E
:1042380000017F07D8A0800700D0800E000181BF51
:104248007F0E0001726F00017F510001815D000146
:104258008051800A00017259D8B00BD000018151F9
:1042680000017F5F000E000181BFFF0E0001805B2F
:1042780006D0000E0001806F000E7F6F00D0000195
:104288007EA58BD07EC072F0030E00017217D8B4E1
:1042980039D0000120EE02F06C51D9266D51DA2296
:1042A800DE50DE10D8B418D0000120EE02F06C51B8
:1042B800D9266D51DA22DECF72F0DDCF73F001D846
:1042C80021D00500FA6E00017251FD6E7351FE6E29
:1042D800FF6AFA502D0E12006CC0D9FF6DC0DAFFCC
:1042E800DECF72F0DDCF73F072C0D9FF73C0DAFF92
:1042F8002D0EDF6E6CC0D9FF6DC0DAFFDE2A000E0E
:10430800DD2200D000017F5100018011D8B4D0D047
:10431800000120EE02F06C51D9266D51DA22DE50F0
:10432800DE10D8B418D0000120EE02F06C51D92666
:104338006D51DA22DECF72F0DDCF73F001D821D0D3
:104348000500FA6E00017251FD6E7351FE6EFF6A30
:10435800FA50300E12006CC0D9FF6DC0DAFFDECF04
:1043680072F0DDCF73F072C0D9FF73C0DAFF300E80
:10437800DF6E6CC0D9FF6DC0DAFFDE2A000EDD22C9
:1043880000D000017F07D8A0800700017F510001FD
:104398008011D8B48DD0BCD78BD000017F510001DB
:1043A8008011D8B445D0000120EE02F06C51D92616
:1043B8006D51DA22DE50DE10D8B418D0000120EE9C
:1043C80002F06C51D9266D51DA22DECF72F0DDCFC2
:1043D80073F001D821D00500FA6E00017251FD6E0C
:1043E8007351FE6EFF6AFA50200E12006CC0D9FF9E
:1043F8006DC0DAFFDECF72F0DDCF73F072C0D9FF87
:1044080073C0DAFF200EDF6E6CC0D9FF6DC0DAFF13
:10441800DE2A000EDD2200D000017F07D8A0800729
:1044280000017F5100018011D8B402D0BCD700D060
:104438007EC072F0030E00017217D8B439D00001A3
:1044480020EE02F06C51D9266D51DA22DE50DE10D2
:10445800D8B418D0000120EE02F06C51D9266D5165
:10446800DA22DECF72F0DDCF73F001D821D005005B
:10447800FA6E00017251FD6E7351FE6EFF6AFA50BA
:104488002D0E12006CC0D9FF6DC0DAFFDECF72F0BE
:10449800DDCF73F072C0D9FF73C0DAFF2D0EDF6E67
:1044A8006CC0D9FF6DC0DAFFDE2A000EDD2200D015
:1044B80081C07BF09FD057D000D000017B51020D06
:1044C800610EF324F66EFE0EF420F76EF86A000E05
:1044D800F8220900F5CF62F00A00F5CF63F07CC03E
:1044E80060F07DC061F0FAEC72F060C067F061C006
:1044F80068F0000E00016A6F0A0E696FBEEC75F075
:1045080000016751300F0001816F3AD07CC060F024
:104518007DC061F000017B51020D6B0EF324F66E35
:10452800FE0EF420F76EF86A000EF8220900F5CFA7
:1045380062F00A00F5CF63F0FAEC72F00001605106
:104548000F0B0001766F00017651010D6A0EF324FE
:10455800F66EFF0EF420F76EF86A000EF8220800D7
:10456800F5CF81F00DD000017E51C00B000AD8B400
:10457800A4D7800AD8B4CAD7400AD8B49ED700D0E6
:10458800000120EE02F06C51D9266D51DA22DE507E
:10459800DE10D8B419D0000120EE02F06C51D926F3
:1045A8006D51DA22DECF72F0DDCF73F001D822D060
:1045B8000500FA6E00017251FD6E7351FE6EFF6ABE
:1045C800FA500001815112006CC0D9FF6DC0DAFFAA
:1045D800DECF72F0DDCF73F072C0D9FF73C0DAFF9F
:1045E80081C0DFFF6CC0D9FF6DC0DAFFDE2A000E84
:1045F800DD2200D000017B0700017B29D8B402D05E
:10460800B2D700D000016E510001726F00016F51E6
:104618000001736F00016E4B6F2B72C0F6FF73C001
:10462800F7FF000EF86E0E0EF76403D00800F55081
:1046380005D0F6CFE9FFF7CFEAFFEF500001816F11
:1046480000018151D8B403D090EF1EF000D0000EC5
:1046580000016D6F000E6C6F1200120001015A6F9D
:1046680002015951D8A414D00001BB51D8A410D0CC
:1046780002018B51D8A40CD001014A05D8A408D056
:10468800010E0101486F01015A51F6EC7DF008D086
:10469800000E0101486F01015A51F6EC7DF000D07F
:1046A800B20E01015B6F040E01015C6F8EEC7EF0AF
:1046B8000009D8A416D0DCC20CF1DDC20DF16EECF5
:1046C8006AF0010E01010C250201086F000E0101BC
:1046D8000D210201096F000E0201DF6F000EDE6F6F
:1046E80000D08AEC7EF00009D8B4DED002018B51EC
:1046F800D8B47BD001015A510101D8B476D0000E4C
:1047080002018B6F5BC1D9FF5CC1DAFF63C2DFFFB7
:10471800010120EE01F05B51D9265C51DA2262C218
:10472800DFFF010120EE02F05B51D9265C51DA224D
:10473800B9C1DFFF5A0E0101006F020E0101016FBE
:10474800000E0101026F5BC103F15CC104F1030EAD
:104758000101056F040E0101066F1AEC75F05E0E7B
:104768000101006F020E0101016F000E0101026FCD
:104778005BC103F15CC104F1070E0101056F040E72
:104788000101066F1AEC75F0010120EE0BF05B5188
:10479800D9265C51DA228EC2DFFF640E0101006F58
:1047A800020E0101016F000E0101026F5BC103F1EE
:1047B8005CC104F10C0E0101056F8AC206F11AEC06
:1047C80075F0DD0E0101326F010E0101336FA70E86
:1047D8000101346F040E0101356F02018A510C0F7B
:1047E8000101366F9BEC65F05BD0020108510201B4
:1047F800DE1956E1020109510201DF19D8A450D08F
:1048080001015A510101D8B442D096EC7EF000095A
:10481800D8B43DD00101EE51D8B427D04BEC32F0DA
:104828000101516FDD0E0101326F010E0101336F7D
:10483800A70E0101346F040E0101356F51C136F125
:104848009BEC65F00009D8A42BD001D029D0020137
:10485800DC510201085D0201DD5102010959D8B09D
:104868001FD00201084B092B1BD0DD0E0101326F4E
:10487800010E0101336FA70E0101346F040E01010F
:10488800356F000E0101366F9BEC65F009D0A90E5B
:104898000101286FFE0E0101296F3AEC78F000D073
:1048A8000201DE4BDF2BDBD2C6C256F1C7C257F17D
:1048B800C8C258F1C9C259F10101D651D8A4C1D012
:1048C8000101D62B02018C51D8A4B8D0010E0201E7
:1048D8005965C5D25E0E01010B6F020E01010C6F06
:1048E800560E01010D6F010E01010E6F4FEC46F0DF
:1048F8000101526F0001BB51D8B416D0560E010108
:10490800066F010E0101076FEA0E0101086F020E22
:104918000101096F040E01010A6F19EC77F0000913
:10492800D8A49DD201D09BD28DC20CF101010D6B90
:104938006EEC6AF001010C5102018C6F01015A51B1
:104948000101D8B48CD20201590702018D2B1F0E28
:104958000101526184D25BC1D9FF5CC1DAFF63C235
:10496800DFFF010120EE01F05B51D9265C51DA220C
:1049780062C2DFFF010120EE02F05B51D9265C51D3
:10498800DA22B9C1DFFF5A0E0101006F020E0101E0
:10499800016F000E0101026F5BC103F15CC104F1FC
:1049A800030E0101056F040E0101066F1AEC75F084
:1049B8005E0E0101006F020E0101016F000E010180
:1049C800026F5BC103F15CC104F1070E0101056FC1
:1049D800040E0101066F1AEC75F0010120EE0BF0D0
:1049E8005B51D9265C51DA228EC2DFFF640E0101C9
:1049F800006F020E0101016F000E0101026F5BC121
:104A080003F15CC104F10C0E0101056F8AC206F1C5
:104A18001AEC75F0560E0101326F010E0101336F69
:104A2800A70E0101346F040E0101356F02018A518E
:104A38000C0F0101366F9BEC65F011D202018C0757
:104A48000ED20101D605D8A4E8D00001BB51D8B4D4
:104A5800E4D00101D62B5E0E01010B6F020E01019D
:104A68000C6F560E01010D6F010E01010E6F4FEC18
:104A780046F00101536F010E020159659CD0560E94
:104A88000101066F010E0101076FEA0E0101086FAF
:104A9800020E0101096F040E01010A6F19EC77F08B
:104AA8000009D8B488D0000E0201596F000E020127
:104AB8008C6F020E02018D6F01015A510101D8B4A9
:104AC800CED11F0E01015361CAD1000E0001BB6F88
:104AD8005BC1D9FF5CC1DAFF63C2DFFF010120EED1
:104AE80001F05B51D9265C51DA2262C2DFFF010175
:104AF80020EE02F05B51D9265C51DA22B9C1DFFF02
:104B08005A0E0101006F020E0101016F000E010132
:104B1800026F5BC103F15CC104F1030E0101056F73
:104B2800040E0101066F1AEC75F05E0E0101006FAC
:104B3800020E0101016F000E0101026F5BC103F15A
:104B48005CC104F1070E0101056F040E0101066F37
:104B58001AEC75F0010120EE0BF05B51D9265C517F
:104B6800DA228EC2DFFF640E0101006F020E01011E
:104B7800016F000E0101026F5BC103F15CC104F11A
:104B88000C0E0101056F8AC206F11AEC75F0560E7B
:104B98000101326F010E0101336FA70E0101346F5D
:104BA800040E0101356F02018A510C0F0101366FA5
:104BB8009BEC65F054D1000E0001BB6F5BC1D9FFBF
:104BC8005CC1DAFF020EDF6E010120EE01F05B51DD
:104BD800D9265C51DA22000EDF6E010120EE02F0C8
:104BE8005B51D9265C51DA22B9C1DFFF01015A5164
:104BF8000101D8B434D1EA0E0101326F020E01016D
:104C0800336FA70E0101346F040E0101356F030ED7
:104C18000101366F9BEC65F022D1020E0101D665C9
:104C28001BD102015905D8A413D15E0E01010B6FE7
:104C3800020E01010C6F560E01010D6F010E0101EC
:104C48000E6F4FEC46F00101546F01015569560E85
:104C58000101066F010E0101076FDD0E0101086FEA
:104C6800010E0101096F040E01010A6F19EC77F0BA
:104C78000009D8A40BD0560E01010E6F010E0101D8
:104C88000F6F79EC73F00101556F00D0040E02012B
:104C98006319D8B414D05A0E0101066F020E01012F
:104CA800076FE10E0101086F010E0101096F040E83
:104CB80001010A6F19EC77F00009D8B40AD0000E88
:104CC8000201596F000E02018C6F020E02018D6FF6
:104CD800BFD05A0E0101066F020E0101076FE10EE7
:104CE8000101086F010E0101096F040E01010A6F2D
:104CF80019EC77F00009D8A4ABD001D0A9D05A0E8E
:104D08000101066F020E0101076FF20E0101086F23
:104D1800020E0101096F040E01010A6F60EC78F0C0
:104D280062C2E7F2DAEC7DF00201626F040E020162
:104D3800636F060E0201596F000E02018C6F020E9E
:104D480002018D6F5E0E0101066F020E0101076FF1
:104D58004D0E0101086F010E0101096F040E0101DA
:104D68000A6F60EC78F05A0E0101066F020E01011D
:104D7800076F5E0E0101086F020E0101096F040E34
:104D880001010A6F60EC78F0E10E0101066F010E77
:104D98000101076F5A0E0101086F020E0101096F28
:104DA800040E01010A6F60EC78F0000E02018E6FAC
:104DB8001D0E0201646F2B0E0201656F4D0E01017D
:104DC800006F010E0101016F000E0101026F640EF8
:104DD8000101036F020E0101046F020E0101056F4C
:104DE800040E0101066F1AEC75F0560E0101006FF2
:104DF800010E0101016F000E0101026F640E010135
:104E0800036F020E0101046F060E0101056F040E07
:104E18000101066F1AEC75F054C16EF255C16FF2BC
:104E280001015551060D040EF326000EF422BD0EA5
:104E3800F324D96E0A0EF420DA6EDF500F0B02014C
:104E4800706F0D0E02018A6F000E0101D66F00D03F
:104E5800000E0101D66F03D00101D62B00D08EECD5
:104E68007EF00009D8A40CD00201462B020E0201E4
:104E7800466506D073EC50F0000E0201466F00D074
:104E88000201402B0101ED510201405DD8A03FD045
:104E98000101BA51020DC90EF324D96E080EF4208F
:104EA800DA6EDF38E832E832030B0009D8B422D0D2
:104EB800010E01014B6F0101BA51020DC90EF32415
:104EC800D96E080EF420DA6EDF3801014C6F4C33CE
:104ED8004C31030B4C6F01014B5101014C5F010137
:104EE8004C3B4C374C37DF5001014C193F0B4C19E8
:104EF800DF6E00D00101BA2BF90E0101BA6503D0AB
:104F0800000E0101BA6F000E0201406F00D0070EBB
:104F1800E9EC79F00009D8B41200BEEC42F0010EB9
:104F28000101EE6F1200120015C106F116C107F15A
:104F3800E10E0101086F010E0101096F040E010164
:104F48000A6F19EC77F00009D8A4120001D01200FA
:104F580001011729D8B4120001D01200030E010173
:104F6800086F01011751060D050EF326000EF422F5
:104F7800BD0EF324D96E0A0EF420DA6EDF509DECD4
:104F88004CF00101196151D0030E0101086F0101B4
:104F98001751060D050EF326000EF422BD0EF3245C
:104FA800D96E0A0EF420DA6EDF509DEC4CF0010148
:104FB8001B6F01011751060D040EF326000EF42293
:104FC800BD0EF324D96E0A0EF420DA6EDF380F0B0B
:104FD800EEEC7AF001011B5DD8B012D00101175137
:104FE800060D040EF326000EF422BD0EF324D96E2E
:104FF8000A0EF420DA6EDF380F0BEEEC7AF03AD0B6
:10500800030E0101086F01011751060D050EF32665
:10501800000EF422BD0EF324D96E0A0EF420DA6EC7
:10502800DF509DEC4CF026D02BD001011751060D16
:10503800040EF326000EF422BD0EF324D96E0A0ED8
:10504800F420DA6EDF380F0BEEEC7AF0010119610B
:1050580014D001011751060D040EF326000EF42298
:10506800BD0EF324D96E0A0EF420DA6EDF380F0B6A
:10507800EEEC7AF001011F6F03D019C11FF100D0C7
:10508800000E0101206FF90E0101206501D06BD2DD
:1050980015C104F116C105F1010120512FEC63F08F
:1050A8000009D8B45DD201012051020DC90EF324C4
:1050B800D96E080EF420DA6EDF503F0B32EC6DF03B
:1050C80001011C6F01012051020D010EF326000E93
:1050D800F422C90EF324D96E080EF420DA6EDF38F4
:1050E800E832070B01011B6F01011C5101011B5D17
:1050F800D8B019D01CC11BF101012051020D010EBD
:10510800F326000EF422C90EF324D96E080EF420FB
:10511800DA6E01011B3B1B47DF5001011B191F0BF6
:105128001B19DF6E00D001011A510101D8B42DD02E
:1051380001012051020D010EF326000EF422C90EC2
:10514800F324D96E080EF420DA6EDF500101181925
:10515800E00B1819DF6E01012051020DC90EF3246E
:10516800D96E080EF420DA6EDF5001011719C00B52
:105178001719DF6E01012051020DC90EF324D96EF3
:10518800080EF420DA6EC00EDF1201012051020D64
:10519800C90EF324D96E080EF420DA6EDF503F0BE7
:1051A80001011719D8A444D01FC11BF101012051D6
:1051B800020D010EF326000EF422C90EF324D96E57
:1051C800080EF420DA6E01011B3B1B47DF5001017A
:1051D8001B191F0B1B19DF6E01012051020D010E57
:1051E800F326000EF422C90EF324D96E080EF4201B
:1051F800DA6EDF501F0B01011819D8B405D0010170
:105208001751A6EC7BF000D001012051020D010ED0
:10521800F326000EF422C90EF324D96E080EF420EA
:10522800DA6EDF5001011819E00B1819DF6E120051
:1052380001012051020DC90EF324D96E080EF42085
:10524800DA6EDF38E832E832030B0009D8A412001E
:1052580001012051020D010EF326000EF422C90EA1
:10526800F324D96E080EF420DA6EDF38E832070B23
:10527800070AD8A43BD001012051020D010EF326E4
:10528800000EF422C90EF324D96E080EF420DA6E4B
:10529800DF5001011819E00B1819DF6E01012051C8
:1052A800020DC90EF324D96E080EF420DA6EDF5011
:1052B80001011719C00B1719DF6E1FC11BF101017E
:1052C8002051020D010EF326000EF422C90EF3241C
:1052D800D96E080EF420DA6E01011B3B1B47DF5024
:1052E80001011B191F0B1B19DF6E12000101205150
:1052F800020D010EF326000EF422C90EF324D96E16
:10530800080EF420DA6EDF501F0B0101186145D03A
:1053180001011F510001D95DD8A0120001012051DF
:10532800020D010EF326000EF422C90EF324D96EE5
:10533800080EF420DA6EDF5001011819E00B181975
:10534800DF6E01012051020DC90EF324D96E080E3B
:10535800F420DA6EDF5001011719C00B1719DF6E40
:105368001FC11BF101012051020D010EF326000E91
:10537800F422C90EF324D96E080EF420DA6E010166
:105388001B3B1B47DF5001011B191F0B1B19DF6E4D
:1053980001011751A6EC7BF0120001012051020D0A
:1053A800010EF326000EF422C90EF324D96E080E5E
:1053B800F420DA6EDF501F0B01011819D8A461D050
:1053C80001012051020D010EF326000EF422C90E30
:1053D800F324D96E080EF420DA6EDF38E832070BB2
:1053E80001011F61120001012051020D010EF32677
:1053F800000EF422C90EF324D96E080EF420DA6EDA
:10540800DF38E832070B0001D96112000101205191
:10541800020D010EF326000EF422C90EF324D96EF4
:10542800080EF420DA6EDF5001011819E00B181984
:10543800DF6E01012051020DC90EF324D96E080E4A
:10544800F420DA6EDF5001011719C00B1719DF6E4F
:105458001FC11BF101012051020D010EF326000EA0
:10546800F422C90EF324D96E080EF420DA6E010175
:105478001B3B1B47DF5001011B191F0B1B19DF6E5C
:10548800120001012051020D010EF326000EF42234
:10549800C90EF324D96E080EF420DA6EDF501F0B04
:1054A80001011B6F0101185101011B5DD8B01200E9
:1054B8000001D95101011F5DD8B01200010120512E
:1054C800020D010EF326000EF422C90EF324D96E44
:1054D800080EF420DA6EDF38E832070B0001D961D4
:1054E800120001012051020D010EF326000EF422D4
:1054F800C90EF324D96E080EF420DA6EDF500101CC
:105508001819E00B1819DF6E01012051020DC90EA0
:10551800F324D96E080EF420DA6EDF500101171952
:10552800C00B1719DF6E1FC11BF101012051020DBD
:10553800010EF326000EF422C90EF324D96E080ECC
:10554800F420DA6E01011B3B1B47DF5001011B19D8
:105558001F0B1B19DF6E01011751A6EC7BF012001F
:105568000101202B90D51F0E0101186160D0000E9B
:1055780001011E6FF90E01011E6501D058D0DD0E24
:105588000101046F010E0101056F01011E512FEC8D
:1055980063F00009D8B447D015C107F116C108F166
:1055A80001011E5190EC70F001011E51020D010E17
:1055B800F326000EF422C90EF324D96E080EF42047
:1055C800DA6EDF5001011819E00B1819DF6E0101BE
:1055D8001E51020DC90EF324D96E080EF420DA6E9E
:1055E800DF5001011719C00B1719DF6E1FC11BF11E
:1055F80001011E51020D010EF326000EF422C90E00
:10560800F324D96E080EF420DA6E01011B3B1B4708
:10561800DF5001011B191F0B1B19DF6E0101175108
:10562800A6EC7BF0120001011E2BA4D700D01F0EA0
:10563800010118611200B0C01DF1F90E01011D65CC
:1056480002D01200120001011D51020D010EF326B5
:10565800000EF422C90EF324D96E080EF420DA6E77
:10566800DF501F0B1F0AD8B40ED001011D51020DC7
:10567800C90EF324D96E080EF420DA6EDF503F0B02
:105688003F0AD8A454D015C107F116C108F100018A
:10569800B05190EC70F00001B051020D010EF326EC
:1056A800000EF422C90EF324D96E080EF420DA6E27
:1056B800DF5001011819E00B1819DF6E0001B05115
:1056C800020DC90EF324D96E080EF420DA6EDF50ED
:1056D80001011719C00B1719DF6E1FC11BF100015B
:1056E800B051020D010EF326000EF422C90EF32468
:1056F800D96E080EF420DA6E01011B3B1B47DF5000
:1057080001011B191F0B1B19DF6E0001B051020D9F
:10571800C90EF324D96E080EF420DA6E3F0EDF1698
:1057280001011751A6EC7BF01DC1B0F01200F90E73
:1057380001011D19D8A404D0000E0001B06F00D0DB
:1057480001011D2BF90E01011D657DD71200120004
:105758001200000E4A6E000E4B6E000E0001B36F71
:10576800000E0001B96F020EE9EC79F00009D8B417
:1057780035D1010E4A6E0001B42B020E0001B41996
:10578800D8A4FBD0000E0001B46FF7D0000E0001C2
:10579800B36F000E0101276F1E0E266F000E010168
:1057A800286F020E64EC71F019D1010E0001B36F7D
:1057B800000E0101276F1E0E266F000E0101286FD3
:1057C800020E64EC71F00AD10001B405D8A404D02B
:1057D800010E0001B36F00D0000E0101276F400ECB
:1057E800266F000E0101286F020E64EC71F0F6D0EE
:1057F8000001B405D8A404D0010E0001B36F00D095
:10580800000E0101276F7D0E266F000E0101286F23
:10581800020E64EC71F0E2D000D00001B405D8A407
:1058280004D0010E0001B36F00D0000E0101276FF4
:10583800FA0E266F000E0101286F020E64EC71F05B
:10584800CDD00001B405D8A404D0010E0001B36F77
:1058580000D0010E0101276FF40E266F000E010122
:10586800286F020E64EC71F0B9D00001B405D8A419
:1058780004D0010E0001B36F00D0030E0101276FA1
:10588800E80E266F000E0101286F020E64EC71F01D
:10589800A5D00001B405D8A404D0010E0001B36F4F
:1058A80000D0090E0101276FC40E266F000E0101FA
:1058B800286F020E64EC71F091D00001B405D8A4F1
:1058C80004D0010E0001B36F00D0130E0101276F41
:1058D800880E266F000E0101286F020E64EC71F02D
:1058E8007DD00001B405D8A421D0010E0001B36F0A
:1058F8003850D8A40DD0000E0101276F500E266F26
:10590800000E0101286F020E64EC71F0010E0CD03C
:10591800090E0101276F740E266F000E0101286F12
:10592800020E64EC71F0000E386E58D03850D8B4BE
:105938000CD0000E0101276F500E266F000E0101DA
:10594800286F020E64EC71F049D0090E0101276F2F
:10595800740E266F000E0101286F020E64EC71F0C0
:105968003DD0000E0101276F1E0E266F000E0101AB
:10597800286F020E64EC71F031D00001B251000AB8
:10598800D8B404D7010AD8B410D7030AD8B41CD79E
:10599800010AD8B42DD7070AD8B43FD7010AD8B41A
:1059A80050D7030AD8B461D70D0AD8B436D7070A36
:1059B800D8B433D7010AD8B430D7030AD8B42DD70E
:1059C800010AD8B42AD71F0AD8B463D7010AD8B4B1
:1059D80074D7030AD8B485D7C4D700D0030EE9EC2E
:1059E80079F00009D8B435D1010E4B6E0001B52B02
:1059F800020E0001B519D8A4FBD0000E0001B56F46
:105A0800F7D0000E0001B96F000E0101276F1E0EBE
:105A1800266F000E0101286F030E64EC71F019D196
:105A2800010E0001B96F000E0101276F1E0E266FCF
:105A3800000E0101286F030E64EC71F00AD1000119
:105A4800B505D8A404D0010E0001B96F00D0000E2E
:105A58000101276F400E266F000E0101286F030E0B
:105A680064EC71F0F6D00001B505D8A404D0010E9D
:105A78000001B96F00D0000E0101276F7D0E266F5F
:105A8800000E0101286F030E64EC71F0E2D000D023
:105A98000001B505D8A404D0010E0001B96F00D0EB
:105AA800000E0101276FFA0E266F000E0101286F04
:105AB800030E64EC71F0CDD00001B505D8A404D074
:105AC800010E0001B96F00D0010E0101276FF40E1D
:105AD800266F000E0101286F030E64EC71F0B9D037
:105AE8000001B505D8A404D0010E0001B96F00D09B
:105AF800030E0101276FE80E266F000E0101286FC3
:105B0800030E64EC71F0A5D00001B505D8A404D04B
:105B1800010E0001B96F00D0090E0101276FC40EF4
:105B2800266F000E0101286F030E64EC71F091D00E
:105B38000001B505D8A404D0010E0001B96F00D04A
:105B4800130E0101276F880E266F000E0101286FC2
:105B5800030E64EC71F07DD00001B505D8A421D006
:105B6800010E0001B96F3B50D8A40DD0000E010101
:105B7800276F500E266F000E0101286F030E64EC8C
:105B880071F0010E0CD0090E0101276F740E266FFB
:105B9800000E0101286F030E64EC71F0000E3B6EDD
:105BA80058D03B50D8B40CD0000E0101276F500ECE
:105BB800266F000E0101286F030E64EC71F049D0C6
:105BC800090E0101276F740E266F000E0101286F60
:105BD800030E64EC71F03DD0000E0101276F1E0E1C
:105BE800266F000E0101286F030E64EC71F031D0AE
:105BF8000001B851000AD8B404D7010AD8B410D7A4
:105C0800030AD8B41CD7010AD8B42DD7070AD8B4C8
:105C18003FD7010AD8B450D7030AD8B461D70D0AC0
:105C2800D8B436D7070AD8B433D7010AD8B430D78E
:105C3800030AD8B42DD7010AD8B42AD71F0AD8B472
:105C480063D7010AD8B474D7030AD8B485D7C4D7A0
:105C580000D0090E0001B219D8A40CD04B50D8B40A
:105C680009D00001B5510001D8A404D0010E0001EB
:105C7800B36F00D00A0E0001B819D8A40CD04A504E
:105C8800D8B409D00001B4510001D8A404D0010E41
:105C98000001B96F00D0080E0001B219D8A40CD0C9
:105CA8004B50D8B409D00001B9510001D8B404D080
:105CB800010E0001B36F00D0070E0001B819D8A477
:105CC8000CD04A50D8B409D00001B3510001D8B45F
:105CD80004D0010E0001B96F00D00001B9510001D4
:105CE800D8B40DD03A50D8B402D03A0600D000014A
:105CF800B7510001D8B403D00001B70700D00001A4
:105D0800B3510001D8B40DD03750D8B402D03706FB
:105D180000D00001B1510001D8B403D00001B1078F
:105D280000D00001B1510001D8B403D0000E000129
:105D3800B36F0001B7510001D8B403D0000E0001C1
:105D4800B96F3750D8B424D035D022D00A0E00010C
:105D5800B16F0001B151040F13D00A0E0001B16FE9
:105D68000001B151030F0CD00A0E0001B16F000100
:105D7800B151020F05D00A0E0001B16F0001B1291F
:105D8800376E18D00A0E0001B16FB1C037F012D0CB
:105D98000001B2510B0AD8B4D9D7070AD8B4DDD755
:105DA800010AD8B4E1D7030AD8B4E5D7010AD8B4B0
:105DB800E9D700D03A50D8B424D035D022D00A0E32
:105DC8000001B76F0001B751040F13D00A0E00018C
:105DD800B76F0001B751030F0CD00A0E0001B76F5F
:105DE8000001B751020F05D00A0E0001B76F00017C
:105DF800B7293A6E18D00A0E0001B76FB7C03AF04B
:105E080012D00001B8510B0AD8B4D9D7070AD8B4B0
:105E1800DDD7010AD8B4E1D7030AD8B4E5D7010A17
:105E2800D8B4E9D700D00001B351B9EC7DF0000136
:105E3800B951ADEC7DF012000101416F0101C7516C
:105E4800D8A404D00101D851D8B443D2800E01019E
:105E5800C019D8B457D02CC00DF12DC00EF1E0C236
:105E68000FF1E1C210F188EC75F001010D5101014B
:105E78000E11D8A413D0000E01010E6F0001C551F8
:105E8800010D000EF324D96E060EF420DA6EDF50F1
:105E980059EC7CF0010E0001BF6F26D02CC10EF129
:105EA800C5C000F10101016BCEC102F10101036B14
:105EB800C90E0101046F000E056F000E066F000E7B
:105EC800076F6EEC74F0000E01010025D96E060E06
:105ED80001010121DA6EDF5059EC7CF0000E00015F
:105EE800BF6F000E3E6E00D0020E0101D819D8A473
:105EF80006D0010E0101C76F000E0101D86F000E18
:105F0800496E29D0020E0101D819D8A407D0010E74
:105F18000101C76F000E0101D86F1DD0492A010E7B
:105F2800496419D0F25000D0070EB3EC4FF0000EC0
:105F38000101C76F000E0101D86F010E0101EF6F5B
:105F4800000E0101016F040E006F030E0101026FC4
:105F5800F1EC5EF000D02C042D10D8A407D0010E6F
:105F6800426EA2C034F0A3C035F000D0080EE9ECB0
:105F780079F00009D8B407D00101CC51D8B403D0C6
:105F8800010E486E00D0080EFAEC7BF00009D8B478
:105F98002ED00101CC51D8A41CD0D8C00CF10101DD
:105FA8000D6B6EEC6AF001010C510001CC6F000121
:105FB800CC5100080001D8250101CC6FCCC026F1D6
:105FC8000101276B010E0101286F080E64EC71F0C6
:105FD8000ED0CCC126F10101276B010E0101286FFB
:105FE800080E64EC71F0000E0101CC6F00D00001C6
:105FF800C7510001D8A406D0020118510201191195
:10600800D8B442D10001BF51D8B43ED101014151A9
:106018000101D8B439D11AC22DF11BC22EF10101E8
:106028002D1F2E1F2D4B2E2B040E01010C6F010E60
:1060380096EC60F001012D5101010C250101466F1C
:1060480001012E5101010D210101476F46C12DF1BA
:1060580047C12EF101012D1F2E1F2D4B2E2B2DC1B7
:1060680044F12EC145F1080E0101475DD8A00BD0BF
:10607800FE0E0101465D0F0E01014759D8B003D04D
:106088000001C72B36D0010146290F0E01014759DF
:10609800D8A00CD0FD0E0101465D170E010147592D
:1060A800D8B004D0020E0001C72723D0080E010182
:1060B800455DD8A00BD0FE0E0101445D0F0E010115
:1060C8004559D8B003D00001C70713D001014429AE
:1060D8000F0E01014559D8A00CD0FD0E0101445DF9
:1060E800170E01014559D8B004D0020E0001C75F50
:1060F80000D0040E01010C6F010E96EC60F00CC18B
:1061080046F10DC147F1A2C000F1A3C001F146C19B
:1061180002F147C103F1000E0101046F000E056F83
:10612800010E066F000E076F6EEC74F000C137F1B8
:1061380001C138F137C117F138C118F118C219F186
:1061480019C21AF1000E01011B6F000E1C6F010E1F
:106158001D6F000E1E6F80EC66F017C142F118C16A
:1061680043F142C10DF143C10EF1070E0101106F59
:106178000F6988EC75F00DC13DF10EC13EF13DC1CE
:106188000DF13EC10EF1040E01010F6F010EF8EC86
:106198004AF001013D510101425F01013E510101F7
:1061A800435B42C1A2F043C1A3F042C106F143C11F
:1061B80007F1070E0101096F086978EC72F006C152
:1061C8002CF007C12DF0C5C017F10101186BC7C02D
:1061D80019F101011A6BC90E01011B6F000E1C6F2A
:1061E800000E1D6F000E1E6F80EC66F00101175146
:1061F8000001C56FC7C02FF10101306B000E00010F
:10620800C76F000E0201196F000E186F000E020111
:106218000D6F000E0C6F2C502D10D8A408D0000E56
:106228002D6E100E2C6E0AC2A2F00BC2A3F0070E40
:10623800356E3468020E0101D86F040E01010C6F2F
:10624800010E96EC60F00001A25101010C2501013C
:106258003F6F0001A35101010D210101406F8EEC38
:106268007EF00101316F3FC133F10101405101015D
:10627800326F000E0101016F040E006F020E010162
:10628800026FF1EC5EF021D00001C5510001D21976
:10629800D8A40BD00101C751D8B407D0010141518E
:1062A8000101D8A412D001D010D04850D8B40DD0D4
:1062B80092EC7EF00009D8B408D0010141510101E7
:1062C800D8B403D0000E486E00D00201284B292B09
:1062D8004ED0060EFAEC7BF00009D8B41CD0000EA4
:1062E80001010D6F320E0C6F6EEC6AF0540E010155
:1062F8000C250101396F240E01010D2101013A6FAE
:1063080039C126F13AC127F1000E0101286F060EA6
:1063180064EC71F000D0060EE9EC79F00009D8B40D
:106328000DD0000E01010E6F0001DA5159EC7CF01E
:10633800000E0201E36F010EE26F00D00201E3518B
:106348000BE1330E0201E25DD8B006D08FEC7CF091
:106358000201E24BE32B00D0330E0201E2190201E5
:10636800E311D8A404D00201E24BE32B00D00001D2
:10637800D2510001D8A404D0C80E0001D26F03D0B6
:106388000001D20700D0050EE9EC79F00009D8A485
:106398005AEC76F0090EFAEC7BF00009D8B44CD030
:1063A8009EEC7EF001012D6F01012D513E0DF3CFC2
:1063B8003BF1F4CF3CF13BC108F13CC109F190EC51
:1063C8007BF008C10BF109C10CF10AC10DF1000EF7
:1063D80001010E6F7A0E01010F6F440E0101106F5B
:1063E80096EC59F00BC134F10CC135F10DC136F101
:1063F800000E01010B6F280E01010C6F430E010105
:106408000D6F34C108F135C109F136C10AF118EC34
:1064180054F008C117F109C118F10AC119F1EDECDE
:1064280058F017C126F118C127F1010E0101286F94
:10643800090E64EC71F000D0090EE9EC79F000095E
:10644800D8B417D0070EB3EC4FF0000E0101C76F98
:10645800000E0101D86F010E0101EF6F000E01015E
:10646800016F040E006F050E0101026FF1EC5EF082
:1064780000D00F0EE9EC79F00009D8B404D0010E71
:106488000101EF6F00D00E0EE9EC79F01200000E5A
:106498000101176FB20E0101256F040E0101266F6D
:1064A80025C1D9FF26C1DAFF010EDF6E000E0101FA
:1064B800186F060E0101186F010E0101226F010EFF
:1064C8000101226501D096D00001BD51060DBD0E17
:1064D800F3240101066F0A0EF4200101076FDD0E97
:1064E8000101086F010E0101096F040E01010A6F15
:1064F80019EC77F00009D8A449D00001BD51060D68
:10650800050EF326000EF422BD0EF324D96E0A0EF2
:10651800F420DA6EDE28D8B439D00001BD51060D5A
:10652800BD0EF3240101006F0A0EF4200101016F72
:10653800000E0101026F25C103F126C104F1010E0D
:106548000101056F040E0101066F1AEC75F00101D7
:1065580020EE05F02551D9262651DA22040E010134
:10656800086F0001BD51060D050EF326000EF4223A
:10657800BD0EF324E16E0A0EF420E26EE7509DECA6
:106588004CF0DF6E010E0101176F03D001012207E5
:1065980000D03E0E0001BD6103D00001BD2B27D005
:1065A800000E0001BD6F010117510101D8A422D0CE
:1065B800DD0E0101006F010E0101016F000E0101E6
:1065C800026F25C103F126C104F1010E0101056F17
:1065D800040E0101066F1AEC75F0010120EE05F0BA
:1065E8002551D9262651DA22FF0EDF6E03D001018C
:1065F800222B65D7000E01011C6F000E0101246FCC
:10660800000E0101196FBCC016F11AD20001CF515A
:10661800D8B4FCD001012451010D000EF324D96E29
:10662800020EF420DA6EDF500101236F1E0E010105
:106638000C6F010E01010D6F0101235189EC6CF003
:10664800010E010124250101006F0101016B000EFB
:106658000123000E0101036F050E026F67EC7AF04B
:10666800010E01010027000E010101230101005163
:1066780001012525D96E0101015101012621DA6E9A
:106688001EC1DFFF010E010124250101006F010178
:10669800016B000E0123000E0101036F050E026F4E
:1066A80067EC7AF0020E01010027000E01010123B8
:1066B8000101005101012525D96E01010151010196
:1066C8002621DA6E1FC1DFFF010E01012425010119
:1066D800006F0101016B000E0123000E0101036F21
:1066E800050E026F67EC7AF0030E01010027000E19
:1066F800010101230101005101012525D96E010184
:10670800015101012621DA6E20C1DFFF010E0101CE
:1067180024250101006F0101016B000E0123000E09
:106728000101036F050E026F67EC7AF0040E010198
:106738000027000E01010123010100510101252557
:10674800D96E0101015101012621DA6E21C1DFFF55
:1067580001012351020D010EF326000EF422C90E89
:10676800F324D96E080EF420DA6EDF38E832070B0E
:106778000101146F050E0101156F0101D89014373E
:106788000101152FFAD70101145101011A6F0101F6
:106798002351020D010EF326000EF422C90EF32434
:1067A800D96E080EF420DA6EDF501F0B01011A278C
:1067B800010E010124250101006F0101016B000E8A
:1067C8000123000E0101036F050E026F67EC7AF0DA
:1067D800050E01010027000E0101012301010051EE
:1067E80001012525D96E0101015101012621DA6E29
:1067F8001AC1DFFF050E01011C270101242B00012E
:10680800CF51D8B41DD10001CF071AD1DD0E010137
:10681800046F010E0101056F0001BC512FEC63F0FC
:106828000009D8A4F8D00001BC51020DC90EF32408
:10683800D96E080EF420DA6EDF503F0B3F0AD8B449
:10684800EAD01E0E01010C6F010E01010D6F00014F
:10685800BC5189EC6CF0010E010124250101006F87
:106868000101016B000E0123000E0101036F050EEB
:10687800026F67EC7AF0010E01010027000E01019A
:1068880001230101005101012525D96E01010151A2
:1068980001012621DA6E1EC1DFFF010E0101242548
:1068A8000101006F0101016B000E0123000E0101BF
:1068B800036F050E026F67EC7AF0020E01010027E4
:1068C800000E010101230101005101012525D96EA6
:1068D8000101015101012621DA6E1FC1DFFF010EFE
:1068E800010124250101006F0101016B000E012344
:1068F800000E0101036F050E026F67EC7AF0030EBC
:1069080001010027000E01010123010100510101CD
:106918002525D96E0101015101012621DA6E20C118
:10692800DFFF010E010124250101006F0101016B48
:10693800000E0123000E0101036F050E026F67ECC4
:106948007AF0040E01010027000E01010123010164
:10695800005101012525D96E0101015101012621AE
:10696800DA6E21C1DFFF0001BC51020D010EF326D2
:10697800000EF422C90EF324D96E080EF420DA6E44
:10698800DF38E832070B0101146F050E0101156F9E
:106998000101D89014370101152FFAD701011451BC
:1069A80001011B6F0001BC51020D010EF326000E00
:1069B800F422C90EF324D96E080EF420DA6EDF50E3
:1069C8001F0B01011B27010E010124250101006F86
:1069D8000101016B000E0123000E0101036F050E7A
:1069E800026F67EC7AF0050E01010027000E010125
:1069F80001230101005101012525D96E0101015131
:106A080001012621DA6E1BC1DFFF050E01011C27DB
:106A18000101242B00D0F90E0001BC6103D0000154
:106A2800BC2B04D0000E0001BC6F00D00001BC518B
:106A380001011619D8A404D0010E0101196F00D064
:106A4800080E0101246107D0010119510101D8A4E0
:106A580002D0DCD500D00101185101011C2501012B
:106A68001D6F01011D51010DF35001012525D96E3E
:106A7800F45001012621DA6EC9C0DFFF01011D2B88
:106A880001011D511200120001012E510101D8B45B
:106A9800F2D2C90E01013061EED22CC1D9FF2DC14D
:106AA800DAFFDE28D8A456D00101D851D8A452D094
:106AB8000101C751D8B422D0050EFAEC7BF00009C9
:106AC800D8B48DD2060E01010D6F0E0E0C6F6EEC50
:106AD8006AF01C0E01010C2501013B6F0C0E01012F
:106AE8000D2101013C6F3BC126F13CC127F1000E8D
:106AF8000101286F050E64EC71F071D20E0EFAECEC
:106B08007BF00009D8B46BD2050EFAEC7BF00009D3
:106B1800D8B41CD0060E01010D6F0E0E0C6F6EEC72
:106B28006AF01C0E01010C2501013D6F0C0E0101DC
:106B38000D2101013E6F3DC126F13EC127F1000E36
:106B48000101286F050E64EC71F000D0010E0101FF
:106B5800C76F45D2020E01012E6541D2010120EE18
:106B680001F02C51D9262D51DA22DF500101316F65
:106B7800010131510101506F516B01015051010167
:106B8800516F506B010120EE02F02C51D9262D5186
:106B9800DA22DF500101316F010131510101502723
:106BA800000E512350C133F151C134F1040E0101DB
:106BB8000C6F010E96EC60F00CC14CF10DC14DF15B
:106BC800B5C117F1B6C118F14CC119F14DC11AF18F
:106BD800FF0E01011B6F070E1C6F000E1D6F000ECC
:106BE8001E6F80EC66F017C13FF118C140F1A2C0DA
:106BF80000F1A3C001F14CC102F14DC103F1000E37
:106C08000101046F000E056F010E066F000E076F7D
:106C18006EEC74F000C14EF101C14FF14EC146F166
:106C28004FC147F14EC100F14FC101F1000E010102
:106C3800036F3D0E026F000E0101046F000E056F19
:106C4800010E066F000E076F6EEC74F000C14CF178
:106C580001C14DF101012F510101D8B415D04CC12A
:106C680000F14DC101F1000E0101036F050E026F25
:106C7800000E0101046F000E056F010E066F000E75
:106C8800076F6EEC74F014D04CC100F14DC101F1E6
:106C9800000E0101036F000E026F000E0101046F68
:106CA800000E056F010E066F000E076F6EEC74F094
:106CB80000C14EF101C14FF150C117F151C118F196
:106CC8003FC119F140C11AF1000E01011B6F000EFE
:106CD8001C6F010E1D6F000E1E6F80EC66F017C151
:106CE8004CF118C14DF14CC150F14DC151F14EC19B
:106CF80031F14FC132F10101311F321F314B322BBB
:106D0800010150510101312501014A6F0101515121
:106D18000101322101014B6F4AC131F14BC132F1FE
:106D28000101311F321F314B322BFF0E010131257A
:106D38000101486FFF0E010132210101496F2CC189
:106D4800D9FF2DC1DAFF01013051DE18D8A414D0C3
:106D5800080E01014B5DD8A005D0800E01014B5DE6
:106D6800D8A00AD0080E0101495DD8A075D0800EC0
:106D78000101495DD8B070D00101EF51D8A404D009
:106D88000101C751D8A4D4D04EC117F14FC118F191
:106D980050C119F151C11AF1000E01011B6F000E0B
:106DA8001C6F010E1D6F000E1E6F80EC66F017C180
:106DB80018F218C119F24EC10DF14FC10EF1070EAC
:106DC8000101106F0F6988EC75F00DC131F10EC12A
:106DD80032F150C10DF151C10EF1070E0101106FD2
:106DE8000F6988EC75F001010D1F01010E1F0101EB
:106DF8000D4B0E2B01010D510101312502011A6FB6
:106E080001010E510101322102011B6F30C117F13E
:106E18000101186B2CC1D9FF2DC1DAFFDF50010128
:106E2800316F010131510101196F1A6BC90E01014E
:106E38001B6F000E1C6F000E1D6F000E1E6F80EC86
:106E480066F0010117510001C76F010E0101D86FEB
:106E5800000E0101C76F6CD00101505101014E5D58
:106E68000101515101014F59D8B047D0800E01019D
:106E78004B5DD8B042D001014E51000801015025A8
:106E88000101456F010145510001A227000EA3230E
:106E98004EC131F14FC132F10101311F321F314B67
:106EA800322B01015051010131250201206F0101EE
:106EB8005151010132210201216F020120510201C9
:106EC800225D0201215102012359D8B016D04EC1CA
:106ED80031F14FC132F10101311F321F314B322BD9
:106EE80001015051010131250201226F0101515167
:106EF800010132210201236F00D00101C751D8B42A
:106F080004D00101D851D8A404D0010E0101C76FE3
:106F180000D00101465102013C5D010147510201C7
:106F28003D59D8B005D046C13CF247C13DF200D02A
:106F38009EEC7EF00101316F010131513E0DF3CF1E
:106F480041F1F4CF42F141C108F142C109F190EC9D
:106F58007BF008C10BF109C10CF10AC10DF1000E5B
:106F680001010E6F7A0E01010F6F440E0101106FBF
:106F780096EC59F00BC135F10CC136F10DC137F162
:106F8800000E01010B6F280E01010C6F430E010169
:106F98000D6F35C108F136C109F137C10AF118EC96
:106FA80054F008C117F109C118F10AC119F1EDEC43
:106FB80058F017C126F118C127F1010E0101286FF9
:106FC800090E64EC71F0000E0201296F000E286FA3
:106FD800030E01012E6503D0010E120000D09EECB5
:106FE8007EF00101316F010131513E0DF3CF43F1C4
:106FF800F4CF44F143C108F144C109F190EC7BF0AE
:1070080008C10BF109C10CF10AC10DF1000E010113
:107018000E6F7A0E01010F6F440E0101106F96EC8E
:1070280059F00BC138F10CC139F10DC13AF1000E1C
:1070380001010B6F280E01010C6F430E01010D6F4A
:1070480038C108F139C109F13AC10AF118EC54F014
:1070580008C117F109C118F10AC119F1EDEC58F08E
:1070680017C126F118C127F1010E0101286F090E79
:1070780064EC71F000D0000E12001200000E010145
:107088006D6F000E0001C86F000E0101006F000E49
:10709800A5EC79F0000E4D6E000E446E200E84ECC7
:1070A8005BF0000E0001CD6F000E0101BB6F000107
:1070B800D751A1EC7DF0020E4AEC7AF0600E84EC18
:1070C8005BF0000E01010E6F000E59EC7CF0190EFA
:1070D8000101276F640E266F000E0101286F110E43
:1070E80064EC71F0000E0101276FB40E266F010EDB
:1070F8000101286F120E64EC71F0010E0001BE6FE1
:1071080004000101BC51D8B409D0000E0101BC6FC4
:107118003E0E21EC3BF00101C92B00D00101BE510C
:10712800D8B409D0000E0101BE6F200E84EC5BF0CC
:10713800600E84EC5BF00101BF51D8B407D0600E3B
:1071480084EC5BF0000E0101BF6F00D00101BD515E
:10715800D8A404D00101BB51D8B4C0D1000E01019C
:10716800756F000E0101786F000E776F000E010138
:10717800C96F0101BD51D8B455D0000E0101BD6FD2
:10718800C5EC7DF00101E86FC5EC7DF0000E010152
:10719800736F1DD001017351010D6B0EF324D96E6D
:1071A800030EF420DA6EC5EC7DF0DF6E0101735139
:1071B800010D6B0EF324D96E030EF420DA6EDF5046
:1071C800010175190101756F0101732B00D0FF0EC4
:1071D80001015E6FFF0E01015F6F0101E8510101BE
:1071E800606F616B01015E510101602701015F5110
:1071F80001016123010173510101626F636B010198
:1072080060510101625D01016351800A0101646FEF
:1072180001016151800A01016459D8A0BBD7000E51
:107228000001CD6F0101BB51D8B41DD0000E010182
:10723800746F3A0E0101746501D011D001017451C7
:10724800010D6B0EF324D96E030EF420DA6EDF50B5
:10725800010175190101756F0101742BEAD7000E40
:107268000101BB6F00D06CC377F10101786B01019C
:1072780077510101786F776B03016B510101772713
:10728800000E78230101D7510101D8B41FD0D00EC8
:1072980001015E6FCA0EE82EFED75E2FFCD7D00E16
:1072A80001015E6FCA0EE82EFED75E2FFCD7250EB1
:1072B8000101775D090E01017859D8B0EDD077C189
:1072C8001AF178C11BF1F0EC71F0E6D0010E010162
:1072D8006D6F010175510101D8A4DED001D0DCD059
:1072E8000101B1510101771905E10101B251010113
:1072F8007819D8A4D1D00101B1510101B211D8A493
:107308002BD0000E01016F6F000E706F000E716FB1
:10731800000E726F010172511FE1100E0101705DC4
:10732800020E01017159D8B017D001D015D06FC124
:1073380005F170C106F171C107F172C108F17AEC6B
:107348007BF0000E01016F27100E7023000E7123D1
:10735800000E7223DFD700D0000E0101766F370EC2
:107368000101766501D055D0B1C165F1B2C166F1B0
:107378000101676B686B65C100F166C101F167C106
:1073880002F168C103F1380E0101046F000E056FA8
:10739800000E066F000E076FF4EC73F001017651D2
:1073A800010100250101696F000E010101210101A0
:1073B8006A6F000E0101022101016B6F000E0101CD
:1073C800032101016C6F69C105F16AC106F16BC146
:1073D80007F16CC108F101017651010D020EF32687
:1073E800000EF4226B0EF3240101096F030EF42042
:1073F80001010A6F040E01010B6F000E0C6F000EE5
:107408000D6F000E0E6FB9EC6FF0040E01017627B8
:10741800A6D70101B14BB22B0101B3510101B1193A
:107428003BE10101B4510101B219D8A435D0000ED5
:107438000101056F000E066F020E076F000E086F40
:10744800E90E0101096F010E01010A6F010E010128
:107458000B6F000E0C6F000E0D6F000E0E6FB9EC67
:107468006FF0010E0101056F000E066F020E076F27
:10747800000E086F8F0E0101096F020E01010A6FDD
:107488000B0E01010B6F000E0C6F000E0D6F000E3E
:107498000E6FB9EC6FF000D0030E0101276FE80EF4
:1074A800266F000E0101286F110E64EC71F00101C6
:1074B800D7510101D8B412D00101775101017811D7
:1074C800D8A40CD0270E0101276F100E266F000ECE
:1074D8000101286F110E64EC71F000D00101D75141
:1074E8000101D8A424D0020E0101C96506D0010EFD
:1074F80001016D6F000E0101C96F01016D5101019C
:10750800D8B415D00101B3510101B15D0101B451E5
:107518000101B259D8B007D0B1C10AF1B2C10BF11B
:1075280035EC7CF000D0000E01016D6F00D0000E2C
:107538000101016F010E006FEA0E0101026F010ED9
:107548000101036FEBEC56F00009D8B438D0270ED0
:1075580001010C6F040E01010D6FE70E01010E6FA2
:10756800010E01010F6F0101EA51F3EC43F000092C
:10757800D8B425D004012851C00B01016E6F010158
:107588006E45E846030B01016E6F030E01016E198B
:10759800D8A415D0290E0101066F040E0101076F4A
:1075A8006B0E0101086F030E0101096F3B0E01010B
:1075B8000A6F60EC78F0010E0101BB6F00D0020E7B
:1075C800E9EC79F00009D8B405D0937693B602D0E7
:1075D8008A9600D0110EE9EC79F00009D8B402D0EF
:1075E800FF0000D0020EFAEC7BF00009D8B40BD0F3
:1075F800000E0101276FFA0E266F000E0101286F99
:10760800020E64EC71F0110EFAEC7BF00009D8B4AC
:107618000BD0030E0101276FE80E266F000E010143
:10762800286F110E64EC71F0120EE9EC79F0000984
:10763800D8B466D5FF0064D512000101046F0101BA
:107648000451020126250201266F000E020127219E
:107658000201276F000E0101056F180E0101056573
:1076680001D072D001010551010D320EF324D96EFB
:10767800030EF420DA6EDF50D8A463D0010105515F
:10768800020D000EF324D96E030EF420DA6E010108
:1076980004510101026F036B010E01010227000E64
:1076A8000323DE500101025DDE5001010359D8B009
:1076B8002DD001010551020D000EF324D96E030EE1
:1076C800F420DA6EDECF00F1DDCF01F101010451C3
:1076D8000101026F036B0101021F031F024B032B01
:1076E8000101005101010227010101510101032398
:1076F80001010551020D000EF324D96E030EF4208A
:10770800DA6E02C1DEFF03C1DDFF1BD001010551A6
:10771800020D000EF324D96E030EF420DA6EDE504B
:10772800DE10D8B40ED001010551020D000EF3246D
:10773800D96E030EF420DA6E010EDE6E000EDD6ED9
:1077480000D00101052B89D7E80E0201265D030E42
:1077580002012759D8A01200180E0201262502019D
:10776800266FFC0E020127210201276F472A000E0F
:107778000101066F180E0101066501D063D00101F1
:107788000651010D320EF324D96E030EF420DA6E81
:10779800DE04D8A454D001010651020D000EF324D2
:1077A800D96E030EF420DA6E010EDB5004E1020EEE
:1077B800DE5CD8A029D0FF0E0101006FFF0E010189
:1077C800016F01010651020D000EF324D96E030E5C
:1077D800F420DA6EDECF02F1DDCF03F101010051B2
:1077E8000101022701010151010103230101065191
:1077F800020D000EF324D96E030EF420DA6E02C1D6
:10780800DEFF03C1DDFF1BD001010651020D000E92
:10781800F324D96E030EF420DA6EDE50DE10D8B4ED
:107828000ED001010651020D000EF324D96E030E8D
:10783800F420DA6E010EDE6E000EDD6E00D001015E
:10784800062B98D73B0E476412004750C40F476E6B
:10785800432A000E0101076F180E0101076501D0C8
:1078680064D001010751010D320EF324D96E030EC5
:10787800F420DA6E020EDE18D8A454D001010751A4
:10788800020D000EF324D96E030EF420DA6E010EF9
:10789800DB5004E1020EDE5CD8A029D0FF0E010106
:1078A800006FFF0E0101016F01010751020D000E6B
:1078B800F324D96E030EF420DA6EDECF02F1DDCFA9
:1078C80003F10101005101010227010101510101E8
:1078D800032301010751020D000EF324D96E030E94
:1078E800F420DA6E02C1DEFF03C1DDFF1BD0010107
:1078F8000751020D000EF324D96E030EF420DA6E40
:10790800DE50DE10D8B40ED001010751020D000E72
:10791800F324D96E030EF420DA6E010EDE6E000E2B
:10792800DD6E00D00101072B97D73B0E4364120090
:107938004350C40F436E000E0101086F180E010179
:10794800086502D01200120001010851010D320E23
:10795800F324D96E030EF420DA6E030EDE18D8A4D1
:1079680054D001010851020D000EF324D96E030E04
:10797800F420DA6E010EDB5004E1020EDE5CD8A0C2
:1079880029D0FF0E0101006FFF0E0101016F0101F7
:107998000851020D000EF324D96E030EF420DA6E9E
:1079A800DECF02F1DDCF03F1010100510101022711
:1079B800010101510101032301010851020D000ECB
:1079C800F324D96E030EF420DA6E02C1DEFF03C180
:1079D800DDFF1BD001010851020D000EF324D96E02
:1079E800030EF420DA6EDE50DE10D8B40ED001019A
:1079F8000851020D000EF324D96E030EF420DA6E3E
:107A0800010EDE6E000EDD6E00D00101082B180E8F
:107A18000101086599D712001200120048D101012E
:107A28008705D8A450D1580E0101286FFF0E010117
:107A3800296F3AEC78F0020E010181250101186FD7
:107A4800000E010182210101196F000E01011A6F58
:107A58004AEC47F0040EFAEC7BF00009D8A411D0E8
:107A6800040EE9EC79F00009D8A40BD0000E01014E
:107A7800276F010E266F000E0101286F040E64ECBB
:107A880071F0000EFAEC7BF00009D8B40CD0130E9C
:107A98000101276F880E266F000E0101286F000E66
:107AA80064EC71F000D0010E0001B26F0CD1440EED
:107AB80001018719D8A436D0010120EE03F08151C5
:107AC800D9268251DA22DF500101896F01018951DB
:107AD8000101AF6FB06B0101AF510101B06FAF6B26
:107AE800010120EE02F08151D9268251DA22DF50BD
:107AF8000101896F010189510101AF27000EB023EF
:107B0800AFC103F1B0C104F1F5C105F1C3EC77F0E1
:107B180084C118F185C119F1000E01011A6F4AECF0
:107B280047F0D1D0450E01018719D8A4CCD0010166
:107B380020EE02F08151D9268251DA22DF5001016C
:107B4800896F010189510101FA6FFB6B0101FA513B
:107B5800FB6FFA6B010120EE03F08151D9268251A7
:107B6800DA22DF500101896F010189510101FA27E9
:107B7800000EFB23010120EE04F08151D926825129
:107B8800DA22DF500101896F010189510101FC6F7F
:107B9800FD6B0101FC51FD6FFC6B010120EE05F04E
:107BA8008151D9268251DA22DF500101896F010102
:107BB80089510101FC27000EFD23010120EE06F08A
:107BC8008151D9268251DA22DF500101896F0101E2
:107BD80089510101FE6FFF6B0101FE51FF6FFE6BC2
:107BE800010120EE07F08151D9268251DA22DF50B7
:107BF8000101896F010189510101FE27000EFF2350
:107C08009AEC7EF0030E0101016FEC0E006FFAC1D1
:107C180002F1F6EC78F09AEC7EF0030E0101016FA8
:107C2800ED0E006FFBC102F1F6EC78F09AEC7EF0F5
:107C3800030E0101016FEE0E006FFCC102F1F6ECBC
:107C480078F09AEC7EF0030E0101016FF10E006FDF
:107C5800FDC102F1F6EC78F09AEC7EF0030E01011A
:107C6800016FF20E006FFEC102F1F6EC78F09AECAB
:107C78007EF0030E0101016FF30E006FFFC102F1E8
:107C8800F6EC78F084C118F185C119F1000E0101F4
:107C98001A6F4AEC47F017D08A0E0101286FFF0EC1
:107CA8000101296F3AEC78F0010E12000CD00101A5
:107CB8008651010AD8B4F0D71F0AD8B4B0D6010A41
:107CC800D8B4F5D600D084C1D9FF85C1DAFFDF501A
:107CD800D8A42AD0010120EE01F08451D92685517B
:107CE800DA22DF50D8A420D0010120EE02F084511E
:107CF800D9268551DA22DF50D8A416D0010120EE0A
:107D080003F08451D9268551DA22100EDF600CD099
:107D1800010E0101276F2C0E266F010E0101286F3D
:107D2800130E64EC71F000D0000E12001200010175
:107D380020EE01F02F51D9263051DA222FC1E1FF70
:107D480030C1E2FFDE50E618D8A41200010120EE8F
:107D580002F02F51D9263051DA22010110EE01F03C
:107D68002F51E1263051E222DE50E618D8A4120045
:107D7800010120EE02F02F51D9263051DA22DE28F7
:107D8800D8B412002FC1D9FF30C1DAFFDF5001018A
:107D9800336F010133A14CD0010120EE04F02F51C3
:107DA800D9263051DA22010110EE03F02F51E126D5
:107DB8003051E222DE50E618D8A43AD0010120EE74
:107DC80005F02F51D9263051DA22010110EE04F0C6
:107DD8002F51E1263051E222DE50E618D8A428D0EF
:107DE800010120EE05F02F51D9263051DA22DE2884
:107DF800D8B41ED09AEC7EF0030E0101016FFD0E7F
:107E0800006F010120EE03F02F51D9263051DA22FC
:107E1800DF500101026FF6EC78F0010120EE03F06B
:107E28002F51D9263051DA22DF50A0EC7CF000D057
:107E3800010133A342D0010120EE07F02F51D926CA
:107E48003051DA22010110EE06F02F51E1263051AF
:107E5800E222DE50E618D8A430D0010120EE08F066
:107E68002F51D9263051DA22010110EE07F02F5197
:107E7800E1263051E222DE50E618D8A41ED09AEC52
:107E88007EF0030E0101016FFE0E006F010120EE6E
:107E980006F02F51D9263051DA22DF500101026F46
:107EA800F6EC78F0010120EE06F02F51D92630517A
:107EB800DA22DF5014EC78F000D0010133A54CD061
:107EC800010120EE0AF02F51D9263051DA220101A2
:107ED80010EE09F02F51E1263051E222DE50E6186B
:107EE800D8A43AD0010120EE0BF02F51D9263051F9
:107EF800DA22010110EE0AF02F51E1263051E22278
:107F0800DE50E618D8A428D0010120EE0BF02F513E
:107F1800D9263051DA22DE28D8B41ED09AEC7EF069
:107F2800030E0101016FFC0E006F010120EE09F044
:107F38002F51D9263051DA22DF500101026FF6ECB9
:107F480078F0010120EE09F02F51D9263051DA22BC
:107F5800DF50A1EC7DF000D0010133A71200010130
:107F680020EE0DF02F51D9263051DA22010110EE02
:107F78000CF02F51E1263051E222DE50E618D8A449
:107F88001200010120EE0EF02F51D9263051DA22CD
:107F9800010110EE0DF02F51E1263051E222DE50A2
:107FA800E618D8A41200010120EE0EF02F51D926B0
:107FB8003051DA22DE28D8B412009AEC7EF0030E93
:107FC8000101016FEF0E006F010120EE0CF02F513F
:107FD800D9263051DA22DF500101026FF6EC78F031
:107FE800010120EE0CF02F51D9263051DA22DF5052
:107FF80060EC7EF012001200400E0101286F000EA6
:108008000101296F3E0E0101296501D0D7D0010178
:108018002951060DBD0EF3240101066F0A0EF42046
:108028000101076F21C108F122C109F1040E010104
:108038000A6F19EC77F00009D8B4A0D001012951D2
:10804800060D040EF326000EF422BD0EF324D96E9D
:108058000A0EF420DA6EDF500F0B0F0AD8A440D0B6
:10806800010124510101D8B43BD0452A010129510D
:10807800060D040EF326000EF422BD0EF324D96E6D
:108088000A0EF420DA6EDF90DF92DF94DF9623C1C8
:1080980000F101012951C0EC67F0020E0101241919
:1080A800D8B41AD0030E0101086F010123519DECC9
:1080B8004CF00101266F21C115F122C116F129C129
:1080C80017F1010E0101186F26C119F1000E010107
:1080D8001A6F98EC27F000D00101295112006BD0DB
:1080E80001012951060D040EF326000EF422BD0EDF
:1080F800F324D96E0A0EF420DA6EDF500F0B0F0A44
:10810800D8B439D001012951060D040EF326000E0A
:10811800F422BD0EF324D96E0A0EF420DA6EDF9035
:10812800DF92DF94DF9623C100F101012951C0ECF1
:1081380067F0020E01012419D8B4CED7030E01014D
:10814800086F010123519DEC4CF00101266F21C1FC
:1081580015F122C116F129C117F1010E0101186F9D
:1081680026C119F1000E01011A6F98EC27F0B4D757
:10817800B3D7120020D0FF0E12001DD001012951E3
:10818800060DBD0EF3240101066F0A0EF42001014D
:10819800076FDD0E0101086F010E0101096F040E62
:1081A80001010A6F19EC77F00009D8B404D029C18D
:1081B80028F104D000D00101292B24D73E0E01015B
:1081C800286521D0000E0101276F3E0E01012765A9
:1081D80001D019D001012751060D040EF326000E17
:1081E800F422BD0EF324D96E0A0EF420DA6EDF50A5
:1081F8000F0B0F0AD8A403D027C128F104D001011E
:10820800272BE3D700D03F0E0101286154D001018C
:1082180024510101D8B44FD021C106F122C107F180
:1082280001012851060DBD0EF3240101086F0A0E45
:10823800F4200101096F040E01010A6F60EC78F067
:1082480001012851060D040EF326000EF422BD0E7E
:10825800F324D96E0A0EF420DA6EDF90DF92DF94F1
:10826800DF9623C100F101012851C0EC67F0452ACF
:10827800020E01012419D8B41AD0030E0101086FA7
:10828800010123519DEC4CF00101266F21C115F12C
:1082980022C116F128C117F1010E0101186F26C17C
:1082A80019F1000E01011A6F98EC27F000D00101B6
:1082B8002851120000D0FF0E12001200030E010117
:1082C800016F006950EC7DF00101156F0101150582
:1082D800D8A440D0000E01011A6F000E196F0101D9
:1082E8001ABF0AD0F00E0101195D030E01011A59D7
:1082F800D8B011D001D00FD09AEC7EF019C100F19E
:108308001AC101F1FF0E0101026FF6EC78F00101CC
:10831800194B1A2BE4D7030E01011A6FF40E196FCB
:1083280001011ABF07D0040E01011A5DD8B012D09E
:1083380001D010D09AEC7EF019C100F11AC101F1F8
:10834800FF0E0101026FF6EC78F00101194B1A2BB0
:10835800E7D700D0010E0101156504D001011529E8
:10836800D8A40CD09AEC7EF0030E0101016F0069CD
:10837800020E0101026FF6EC78F000D0000E010148
:10838800166F030E0101166501D018D001011651B0
:10839800010DF60EF324D96E010EF420DA6EE80E04
:1083A800010116250101006F0101016B030E012374
:1083B80050EC7DF0DF6E0101162BE3D70101F629A1
:1083C800D8A419D00101F729D8A415D00101F8299A
:1083D800D8A411D00101F929D8A40DD0000E0101AB
:1083E800F66F000E0101F76F000E0101F86F020E23
:1083F8000101F96F00D0030E0101016FEF0E006F4C
:1084080050EC7DF00101146F01011429D8A404D0A7
:10841800080E0101146F00D00101145160EC7EF0C8
:108428000201EE29D8A451D00201EF29D8A44DD0D9
:108438000201F029D8A449D00201F129D8A445D0D5
:10844800899E4B0E6BEC7CF0000E6BEC7CF0000E02
:108458006BEC7CF0000E6BEC7CF0000E6BEC7CF0AF
:10846800000E0101176F2BD02ED087EC7DF0010193
:1084780000510101136F030E010117651ED0FC0E98
:108488000101076FFF0E0101086F0101175101017A
:10849800096F0A6B01010751010109270101085100
:1084A80001010A23EE0E01010925D96E020E010110
:1084B8000A21DA6E13C1DFFF00D00101172B070E66
:1084C80001011765D2D7898E00D0000E0101186FFF
:1084D800070E0101186501D018D001011851010DCE
:1084E8000B0EF324D96E010EF420DA6EF40E01019E
:1084F80018250101006F0101016B030E012350ECE7
:108508007DF0DF6E0101182BE3D70B0E0101006F20
:10851800010E0101016F6CEC6FF0030E0101016F98
:10852800FD0E006F50EC7DF0FF0AD8B40BD001D0DF
:1085380009D0030E0101016FFD0E006F50EC7DF0B4
:10854800A0EC7CF0030E0101016FFE0E006F50ECF1
:108558007DF0FF0AD8A403D00001C9691200030EF8
:108568000101016FFE0E006F50EC7DF00001C96F34
:1085780012001200000E0101126F000E116F0101AE
:1085880012BF0AD00101125106E13F0E0101115D2F
:10859800D8B082D001D080D0DD0E0101066F010E67
:1085A8000101076F11C100F112C101F1000E0101B3
:1085B800036F060E026F67EC7AF0BD0E010100250D
:1085C8000101086F0A0E010101210101096F040E62
:1085D80001010A6F60EC78F011C100F112C101F1DC
:1085E800000E0101036F060E026F67EC7AF0040EAD
:1085F80001010027000E01010123BD0E0101002524
:10860800D96E0A0E01010121DA6EDF80DF82DF8474
:10861800DF8611C100F112C101F1000E0101036FE3
:10862800060E026F67EC7AF0040E01010027000EB7
:1086380001010123BD0E01010025D96E0A0E0101B9
:108648000121DA6EDF88DF8ADF8CDF8E11C100F14D
:1086580012C101F1000E0101036F060E026F67ECF3
:108668007AF0050E01010027000E01010123BD0E5D
:1086780001010025D96E0A0E01010121DA6EFF0EF3
:10868800DF6E0101114B122B010112BF85D70101C9
:10869800125102E17AD700D0000E0201596F000E84
:1086A8000101126F000E116F010112BF0AD0010102
:1086B800125166E1FA0E0101115DD8B061D001D006
:1086C8005FD011C10FF112C110F1D89001010F371D
:1086D8001037010E01010F27000E1023C90E0101EA
:1086E8000F25D96E080E01011021DA6EDF80DF82B6
:1086F800DF84DF86DF88DD0E0101076F010E0101CF
:10870800086F0101115190EC70F011C10FF112C105
:1087180010F1D89001010F371037010E01010F2712
:10872800000E1023C90E01010F25D96E080E010194
:108738001021DA6EDF8ADF8CDF8ED89001011135C7
:10874800D96E01011235DA6EC90ED926080EDA2261
:10875800DF80DF82DF84DF86DF88DF8AD89001014F
:108768001135D96E01011235DA6EC90ED926080EF7
:10877800DA223F0EDF160101114B122B95D700D0DC
:10878800DD0E0101066F010E0101076FF20E0101F6
:10879800086F020E0101096F040E01010A6F60ECF7
:1087A80078F00201E769000E0201626F030E020110
:1087B800636F000E02018A6F000E02018C6F020EB9
:1087C80002018D6F000E02018E6F010E0101EE6F26
:1087D800000E0101DC6F000E0101D06F12000101D3
:1087E800166F0201E6510201D8B42CD0240E010103
:1087F8001619D8A423D00201552B020E02015519CF
:10880800D8A41AD1000E0201E66F010E02014A6FC8
:10881800000E0201476F000E02014B6F000E0201AD
:108828004C6F010E0201486F000E0001C06F000E70
:108838000201556F000E0201546FFED0000E0201B6
:10884800556FFAD0020148510201D8B4DFD00201B5
:108858004A510201D8B407D016C1CBF0000E02016C
:108868004A6F010E06D0020147510201D8B404D064
:10887800000E0201476F5DD00001C0510101106F69
:10888800116BFE0E0101126FFF0E0101136F000143
:10889800CB510101146F156B01011251010114270D
:1088A800010113510101152301011051010114198E
:1088B8000FE10101115101011519D8A409D00D0EBC
:1088C80001011619D8A435D0010E02014B6F31D021
:1088D8000001C0510101106F116BFF0E0101126FF1
:1088E800FF0E0101136F0001CB510101146F156BCD
:1088F800010112510101142701011351010115232E
:1089080001011051010114190FE101011151010177
:108918001519D8A409D00A0E01011619D8A409D02E
:10892800010E02014C6F05D0010116510201541BC2
:1089380000D00001C051010DC00EF324D96E050E00
:10894800F420DA6E16C1DFFF0001C02B0001C05110
:108958000001CB19D8A43DD0000E0201486F0EC10A
:10896800D9FF0FC1DAFFC0C0DFFFC00E0101066FDB
:10897800050E0101076F0CC108F10DC109F1C0C056
:108988000AF160EC78F0010E0201E66F000E0201B8
:10899800556F020154510201D8B405D0000E0201EE
:1089A800546F000E120002014B510201D8B40BD0D3
:1089B80002014C510201D8B406D0000E0201546FD6
:1089C800010E120039D0000E0201546F1CD01200A3
:1089D80033D03E0E0001C0652FD0010E0201E66FB4
:1089E800000E0201556F000E0001C06F000E02015B
:1089F8004A6F000E0201476F000E02014B6F000E16
:108A080002014C6FE0D7000E120016D0010E0201D1
:108A1800E66F000E0201556F000E0201546F000E42
:108A280002014A6F000E02014B6F000E02014C6FEB
:108A3800000E0201476F00D0000E12001200010163
:108A48002F6F0101D351D8B404D0000E0101D36FA8
:108A58001200040EE9EC79F00009D8B4BDD0010188
:108A6800B851010D730EF324F66EFE0EF420F76E66
:108A7800F86A000EF8220800F5500009D8A4ACD016
:108A8800010E0101B86F010E0201536FA5D01CEC55
:108A980061F00DC1AAF00EC1ABF00001ABBF08D068
:108AA8003E0E0001AA5D080E0001AB59D8B004D0F3
:108AB800000E0101B86F12000101B82B1200B0ECD2
:108AC80069F00DC136F20EC137F20101B82B120060
:108AD80001012F5102011C5D000E1D59D8B003D0B1
:108AE8000101B82B120001012F5102011C5F000E79
:108AF8001D5B120001012F5102011E5D000E1F595E
:108B0800D8A0120001D0120001012F5102011E5FEE
:108B1800000E1F5B1200040EFAEC7BF00009D8B4BB
:108B280012002CC126F12DC127F12EC128F1040E07
:108B380064EC71F0000E0201536F1200000E010187
:108B4800006F080EACEC78F00101B82B120002019E
:108B5800155105E1D20E0201145DD8A00BD0DAC17F
:108B680003F10101D95184EC55F003C1ACF004C103
:108B7800ADF007D0DEEC6CF00DC1ACF00EC1ADF07D
:108B880000D00001AC5102012C5D0001AD51020181
:108B98002D59D8B005D0ACC02CF2ADC02DF200D004
:108BA8000101EB510001AC5D0101EC510001AD592F
:108BB800D8B005D0ACC0EBF1ADC0ECF100D0ACC082
:108BC8000DF1ADC00EF1D7EC70F00DC12EF20EC153
:108BD8002FF20101B82B12000101B851010D730EDB
:108BE800F324F66EFE0EF420F76EF86A000EF822F3
:108BF8000800F550000AD8B48ED7010AD8B447D770
:108C0800030AD8B45CD7010AD8B41200070AD8B44A
:108C18001200010AD8B41200030AD8B41200010ADB
:108C2800D8B412000F0AD8B453D7010AD8B4120026
:108C3800030AD8B45FD7010AD8B41200070AD8B417
:108C48001200010AD8B41200030AD8B41200010AAB
:108C5800D8B412001F0AD8B47AD7010AD8B46ED78C
:108C6800030AD8B41200010AD8B41200070AD8B40B
:108C78001200010AD8B41200030AD8B41200010A7B
:108C8800D8B412000F0AD8B41200010AD8B41200DE
:108C9800030A12001200000E0101126F000E116F7C
:108CA800010112BF0AD00101125106E1FA0E0101B9
:108CB800115DD8B0E8D001D0E6D00BC104F10CC1E9
:108CC80005F1010111512FEC63F00009D8B4D0D09F
:108CD80011C10FF112C110F1D89001010F371037EF
:108CE800010E01010F27000E1023C90E01010F25E7
:108CF800D96E080E01011021DA6EDF501F0B1F0A12
:108D0800D8B4A6D0D89001011135D96E0101123519
:108D1800DA6EC90ED926080EDA22DF503F0B0101A0
:108D28000F6F01010F51060DBD0EF324D96E0A0E07
:108D3800F420DA6E0DC1E1FF0EC1E2FFDFCFE7FFDD
:108D4800D89001011135D96E01011235DA6EC90EBC
:108D5800D926080EDA22DF503F0B01010F6F0101FF
:108D68000F51060D010EF326000EF422BD0EF3245A
:108D7800D96E0A0EF420DA6E010110EE01F00D51E1
:108D8800E1260E51E222DFCFE7FFD890010111352D
:108D9800D96E01011235DA6EC90ED926080EDA220B
:108DA800DF503F0B01010F6F01010F51060D020E3D
:108DB800F326000EF422BD0EF324D96E0A0EF42019
:108DC800DA6E010110EE02F00D51E1260E51E22299
:108DD800DFCFE7FFD89001011135D96E01011235B7
:108DE800DA6EC90ED926080EDA22DF503F0B0101D0
:108DF8000F6F01010F51060D030EF326000EF4222A
:108E0800BD0EF324D96E0A0EF420DA6E010110EEBD
:108E180003F00D51E1260E51E222DFCFE7FF11C129
:108E28000FF112C110F1D89001010F371037010E60
:108E380001010F27000E1023C90E01010F25D96E5D
:108E4800080E01011021DA6EDF501F0B120010D03E
:108E5800D89001011135D96E01011235DA6EC90EAB
:108E6800D926080EDA223F0EDF161F0E120000D098
:108E78000101114B122B010112BF1FD70101125121
:108E880002E114D700D01F0E12001200000E0101DB
:108E9800806FAAC07CF1ABC07DF1010E0101566F55
:108EA80018C10BF119C10CF1580E01010D6F010E1B
:108EB80001010E6F4FEC46F00101576FC9C05CF11C
:108EC8007CC15DF17DC15EF1580E0101066F010E96
:108ED8000101076F7E0E0101086F010E0101096F84
:108EE8007F0E01010A6F010E01010B6F3FEC48F084
:108EF8007EC15FF17FC160F118C10BF119C10CF19E
:108F0800D9EC6BF00101616F86EC7EF00101626FB4
:108F18008EEC7EF00101636FD5C01BF101011B3B94
:108F2800F00E1B175BEC7EF001011B250001D32519
:108F38000101646FC5C165F10101EB290DE10F0E57
:108F48000101EC19D8A408D0ACC0EBF1ADC0ECF12C
:108F5800EBC12CF2ECC12DF22CC266F12DC267F1E7
:108F6800EBC168F1ECC169F12EC26AF12FC26BF155
:108F78003EC26CF13FC26DF1FAC16EF1FBC16FF1F7
:108F880081BC02D0010E01D0000E0101706FAFC18B
:108F980071F1B0C172F1ACC073F1ADC074F136C2F9
:108FA80075F137C276F1FCC177F1FDC178F1FEC1E8
:108FB80079F1FFC17AF1CEC07BF1260E0101806FF5
:108FC800000E02012D6F000E2C6F0F0E0101EC6FC9
:108FD800EB6901011A510101D8B434D0560E0101D0
:108FE800006F010E0101016F000E0101026F1C0EDE
:108FF8000101036F010E0101046F140E0101056FD9
:1090080080C106F11AEC75F01C0E01010C6F010EFF
:1090180001010D6F18C10EF119C10FF111EC66F0C5
:109028001C0E0101046F010E0101056F0101805141
:10903800140F0101066F000E0101076F020EA8EC64
:1090480064F0120018C10EF119C10FF1560E01019A
:10905800106F010E0101116F80C112F1000E0101A4
:10906800136F010E0101146F000E0101156F1FEC43
:109078004AF012001200000E01010F6F000E0E6F71
:1090880001010FBF0AD001010F5106E13F0E010196
:109098000E5DD8B0D4D001D0D2D006C1D9FF07C157
:1090A800DAFF0EC100F10FC101F1000E0101036FDB
:1090B800060E026F67EC7AF0BD0E01010025E16E25
:1090C8000A0E01010121E26EDE50E618D8A4ACD0E8
:1090D800010120EE01F00651D9260751DA220EC10E
:1090E80000F10FC101F1000E0101036F060E026FBE
:1090F80067EC7AF0010E01010027000E010101233F
:10910800BD0E01010025E16E0A0E01010121E26E8A
:10911800DE50E618D8A488D0010120EE02F00651EE
:10912800D9260751DA220EC100F10FC101F1000E54
:109138000101036F060E026F67EC7AF0020E01015F
:109148000027000E01010123BD0E01010025E16E7B
:109158000A0E01010121E26EDE50E618D8A464D09F
:10916800010120EE03F00651D9260751DA220EC17B
:1091780000F10FC101F1000E0101036F060E026F2D
:1091880067EC7AF0030E01010027000E01010123AC
:10919800BD0E01010025E16E0A0E01010121E26EFA
:1091A800DE50E618D8A440D00EC100F10FC101F17D
:1091B800000E0101036F060E026F67EC7AF0050ED0
:1091C80001010027000E01010123BD0E0101002548
:1091D800D96E0A0E01010121DA6E08C1E1FF09C149
:1091E800E2FFDFCFE7FF0EC100F10FC101F1000E72
:1091F8000101036F060E026F67EC7AF0040E01019D
:109208000027000E01010123BD0E01010025D96EC2
:109218000A0E01010121DA6EDF380F0B0AC1D9FFEE
:109228000BC1DAFFDF6E120001010E4B0F2B01019B
:109238000FBF33D701010F5102E128D700D008C171
:10924800D9FF09C1DAFFFF0EDF6E0AC1D9FF0BC1D2
:10925800DAFF0F0EDF6E120012003950D8B4D9D0E1
:1092680002015151D8B410D0000E0201516F000E06
:109278000001D06F000E0001D16F000E396E000E94
:109288000001CD6F000E120002014F51D8A40DD07D
:10929800000E0001D06F000E0001D16F000E396E74
:1092A800000E0001CD6F000E12000001D151FD0F1C
:1092B8000EC1D9FF0FC1DAFFDF6E000E0101166F74
:1092C800400E0001D1650DD0000E0001D06F000ED8
:1092D8000001D16F000E396E000E0001CD6F000E37
:1092E8001200020E0101176F11D001011751010D73
:1092F800800EF324D96E050EF420DA6EDF500101DA
:1093080016190101166F0101172B00D00001D15168
:109318000101175DD8A0E9D7010116510101D8B4A0
:109328000DD0000E0001D06F000E0001D16F000EAD
:10933800396E000E0001CD6F000E12000EC1D9FF6C
:109348000FC1DAFF3D0EDF640DD0000E0001D06FB3
:10935800000E0001D16F000E396E000E0001CD6FB6
:10936800000E12000EC1D9FF0FC1DAFFDF50010154
:10937800106F116BFD0E0101126FFF0E0101136FCB
:109388000001D1510101146F156B01011251010146
:109398001427010113510101152301011051010185
:1093A800141906E10101115101011519D8B40DD0A4
:1093B800000E0001D06F000E0001D16F000E396E53
:1093C800000E0001CD6F000E1200800E0101006F2B
:1093D800050E0101016F020E0101026F0CC103F1BC
:1093E8000DC104F1000E0101056F0EC1D9FF0FC1B7
:1093F800DAFFDF500101066F1AEC75F0000E00016C
:10940800D06F000E0001D16F000E396E010E1200F0
:109418000FD03950D8B40CD0000E0001D06F000E18
:109428000001D16F000E396E000E0001CD6F00D023
:10943800000E1200120002015951D8A4D2D0020124
:109448008B51D8A4CED05A0E0101066F020E01012D
:10945800076FF20E0101086F020E0101096F040E79
:1094680001010A6F60EC78F062C2E7F2060E0201B1
:10947800596F0EC106F10FC107F15E0E0101086FA9
:10948800020E0101096F040E01010A6F60EC78F009
:10949800E10E0101066F010E0101076F5A0E01016D
:1094A800086F020E0101096F040E01010A6F60ECDA
:1094B80078F0DAEC7DF00201626F000E02018E6F27
:1094C800010115510101D8B402D0040E01D0030ED8
:1094D8000201636F00D0270E0101126156D001010D
:1094E800C851D8B431D0010114510101D8B42CD0DD
:1094F800010E010110250101006F000E010111216B
:109508000101016FFF0E010112250101026F010126
:10951800036BFF0E032328EC62F00101166F050EA2
:109528000101176F0101D89016370101172FFAD7DB
:10953800010116510201646F10C1D9FF11C1DAFF90
:10954800DF500201642708D010C1D9FF11C1DAFF2A
:10955800DF500201646F00D010C100F111C101F1A8
:10956800010E0101026F640E0101036F020E010179
:10957800046F010E0101056F010112050101066F5B
:109588001AEC75F012C18AF200D013C18BF20101F6
:1095980013510101D8B403D0000E0201596F000124
:1095A800BB51D8A404D0000E0101D66F18D05E0EAE
:1095B8000101066F020E0101076FEA0E0101086F33
:1095C800020E0101096F040E01010A6F19EC77F010
:1095D8000009D8B404D0020E0201596F00D0010E60
:1095E8001200000E120012000101146F000E01019A
:1095F800166F000E176F000E186F000E196F040E0D
:1096080001010F19D8A40BD00DC116F10EC117F125
:109618000101000E17BFFF0E186F196F54D001011A
:109628000F510101D8A42FD00DC110F10EC111F1B5
:10963800000E010111BFFF0E126F136F0F0ED890AD
:1096480001011037113712371337E82EF8D710C138
:1096580000F111C101F112C102F113C103F1E80EC9
:109668000101046F030E056F000E066F000E076FF1
:109678008AEC68F000C116F101C117F102C118F1B6
:1096880003C119F120D001010F05D8A41CD00DC1C8
:1096980010F10EC111F1000E010111BFFF0E126F82
:1096A800136F0F0ED8900101103711371237133787
:1096B800E82EF8D710C116F111C117F112C118F12F
:1096C80013C119F100D016C110F117C111F118C159
:1096D80012F119C113F10101101F111F121F131FDD
:1096E800102B000E112312231323FF0E0101102546
:1096F8000101166FFF0E010111210101176F000E04
:10970800010112210101186F000E0101132101014D
:10971800196F01011405D8A40BD017C1CFFF16C1CA
:10972800CEFF8C0ECD6E9F809E909D80CD8000D008
:10973800030E01011419D8A40AD017C1B3FF16C12A
:10974800B2FF8C0EB16EA292A192A082B1803F505E
:10975800D8A41200010E3F6E000E0101156F180EFD
:109768000101156502D01200120001011551020D08
:10977800000EF324D96E030EF420DA6E000EDE6EAE
:10978800000EDD6E0101152B180E01011565EDD7D0
:1097980012001200120093968A868986050E01012E
:1097A800426F260EE82EFED7422FFCD700D08996AE
:1097B800680E0101426FE40EE82EFED7422FFCD757
:1097C80000D09AEC7EF0030E0101016FFE0E006FCF
:1097D800FF0E0101026FF6EC78F0000E0201156F22
:1097E800820E146F000E0101046F010E036F0D0E3F
:1097F8000101056FC3EC77F00D0E0BEC60F003C1AF
:1098080043F104C144F1000E0101046F000E036F1F
:109818000D0E0101056FC3EC77F00101430501014D
:109828004411D8A40BD0000E0201156FE60E146F78
:109838000D0E0101F56F070E0101D96F000E010130
:10984800446F000E436F000E0101046F010E036F99
:10985800600E0101056FC3EC77F0600E0BEC60F051
:1098680003C143F104C144F1000E0101046F000E6D
:10987800036F600E0101056FC3EC77F0010143052A
:1098880001014411D8A41FD0600E0101F56F000E2C
:109898000AEC7AF00009D8B407D0000E0201156F5F
:1098A800D20E146F000E0CD0070E0AEC7AF00009E5
:1098B800D8B409D0000E0201156FF00E146F070E10
:1098C8000101D96F00D0DC0E0101286F030E0101E0
:1098D800296F790E01012A6FFE0E01012B6F000E10
:1098E80001012D6F020E2C6F000E01012F6FD70E94
:1098F8002E6F000E0101316F010E306F000E010155
:10990800336F1F0E326F000E0101356F020E346F78
:10991800000E0101376F010E366F000E0101396F1D
:10992800000E386F14C23AF115C23BF16FEC77F0B4
:1099380012000101116F030E01010819D8A460D0AB
:109948003C0E0101116102D0000E12D0C30E0101BC
:1099580011250101006F0101016BFF0E0123000EAB
:109968000101036F050E026F58EC67F00101005109
:109978000101126F00D0010112510101096F0A6B38
:10998800FF0E01010B6FFF0E01010C6F08C10DF1F5
:10999800010E01010E6F000E01010F6F01010D2B69
:1099A80004D0D89001010E370F3701010D2FF9D7D8
:1099B80001010B5101010E2701010C5101010F2377
:1099C8000101095101010E5D01010F51800A0101D8
:1099D800106F01010A51800A01011059D8B071D0E5
:1099E80008C109F1010E01010A6F0101092B03D019
:1099F8000101D8900A370101092FFAD75DD061D04B
:109A0800040E01010819D8A45CD0DC0E010111254F
:109A18000101006F0101016BFF0E0123000E01011E
:109A2800036F050E026F58EC67F001010051010148
:109A3800126F010112510101096F0A6BFF0E01013A
:109A48000B6FFF0E01010C6F08C10DF1010E010132
:109A58000E6F000E01010F6F01010D2B04D0D8907D
:109A680001010E370F3701010D2FF9D701010B51F5
:109A780001010E2701010C5101010F2301010951B8
:109A880001010E5D01010F51800A0101106F0101F2
:109A98000A51800A01011059D8B013D008C109F140
:109AA800010E01010A6F0101092B03D00101D890B1
:109AB8000A370101092FFAD701010A050101126FBE
:109AC80000D001011251120012000101066F0101BC
:109AD80004510101D8B402D0200E01D0600E01015A
:109AE800056F9AD001010551020902019E6F630EAC
:109AF8000201A56F010106511B0F55D00101055147
:109B0800020902019E6F640E0201A56F0101065150
:109B1800040F49D0210E010106610BD00101055146
:109B28000A0902019E6F650E0201A56F06C1A6F221
:109B380081D0010105510A0902019E6F640E0201DC
:109B4800A56F01010651190F2ED074D001010551DE
:109B58000A0902019E6F650E0201A56F01010651F7
:109B6800210F21D00C0E010106610DD00101055114
:109B7800020902019E6F630E0201A56F01010651E1
:109B8800040DF350B9D70B0E010106650FD0190E5D
:109B9800010106610BD001010551020912D0640EC2
:109BA8000201A56F11D00201A66F44D0180E010161
:109BB800066510D01F0E010106610CD00101055188
:109BC8000A0902019E6FEBD701010645E846FC0B26
:109BD800D00FE9D71E0E0101066509D0270E010135
:109BE800066105D00CD0650E0201A56F0ED0260EB9
:109BF800010106651FD0320E010106611BD001016B
:109C080005510A0902019E6FEED701010645E84693
:109C1800FC0B850FC8D70ED05150010AD8B462D7B3
:109C2800030AD8B46BD7010AD8B474D7070AD8B4D2
:109C38008DD798D79EC202F1000EBAEC7AF0A5C271
:109C480002F10E0EBAEC7AF0A6C202F1100EBAECCE
:109C58007AF0120004004450D8A4120001D0120077
:109C68001AC144F0000E01011B6FB0D0000E0001B4
:109C7800C66F0001CD51D8A49DD03E0E01011961D7
:109C880099D0010E0001C86F0001CD51D8B404D09D
:109C9800000E0001C86F95D0200E84EC5BF0020125
:109CA800AB5101090101026F1A0EBAEC7AF0800E6D
:109CB80084EC5BF001011951020FD0EC7DF000013A
:109CC800B651D0EC7DF0000E01011F6F64D0010188
:109CD8001F51010DF35001011725D96EF4500101F0
:109CE8001821DA6EDF5001011C6F01011F05D8B47D
:109CF80010D0020E01011F19D8B40BD00001C651B3
:109D080001011C190001C66F01011C51D0EC7DF046
:109D18003FD001011F05D8A42BD0040E01010C6F00
:109D2800010E96EC60F00001A25101010C25010121
:109D38001D6F0001A35101010D2101011E6F0101D9
:109D48001E51D0EC7DF001011E510001C619000121
:109D5800C66F01011D5102013E5D01011E51020144
:109D68003F59D8B015D01DC13EF21EC13FF210D0E8
:109D7800020E01011F19D8A40BD001011D51D0EC0E
:109D88007DF00001C65101011D190001C66F00D008
:109D980001011F2B00D00101195101011F5DD8A03D
:109DA80096D70001C651D0EC7DF00400010E0101E8
:109DB800D36F09D03D0E0101196501D002D0000111
:109DC800CD51440600D001011B2B00D001011A51CE
:109DD80001011B5DD8A04AD7120002015951D8A42D
:109DE800BBD002018B51D8A4B7D05A0E0101066F1F
:109DF800020E0101076FF20E0101086F020E010148
:109E0800096F040E01010A6F60EC78F062C2E7F294
:109E1800060E0201596F000E02018C6F020E02013C
:109E28008D6F0CC106F10DC107F15E0E0101086FBF
:109E3800020E0101096F040E01010A6F60EC78F04F
:109E4800E10E0101066F010E0101076F5A0E0101B3
:109E5800086F020E0101096F040E01010A6F60EC20
:109E680078F0DAEC7DF00201626F000E02018B6F70
:109E78001D0E0201646F210E0201656F0EC166F2AC
:109E88003F0E0201676F080E01010F6F01010E51AD
:109E980001010F03F3CF10F1000E0101116F46D03D
:109EA8003F0E0101106121D001011051060DBD0EB8
:109EB800F3240101006F0A0EF4200101016F000E66
:109EC8000101026F640E0101036F020E0101046FAC
:109ED80001011151040DF350060F0101056F040E25
:109EE8000101066F1AEC75F01CD0DD0E0101006F40
:109EF800010E0101016F000E0101026F640E0101E4
:109F0800036F020E0101046F01011151040DF3509A
:109F1800060F0101056F040E0101066F1AEC75F0BA
:109F280000D00101102B0101112B00D001010F51AC
:109F38000101115DD8A0B4D7030E0201636F260E8C
:109F480002018A6F0001BB51D8A404D0000E0101A0
:109F5800D66F00D0010E1200000E1200120001018F
:109F68000C6F000E01010E6F0F015A99000E0001CF
:109F7800CD6F000E0001D66F000E0001D06F000EED
:109F88000001D16F000E466E000E396E200E0101E1
:109F9800C06F000E02014F6F000E0001C86F000E67
:109FA8000101D36F000E4D6E000E446E8986050EBA
:109FB8000101076F260EE82EFED7072FFCD700D029
:109FC8008996680E0101076FE40EE82EFED7072F69
:109FD800FCD700D0000E0101046F01010C5169EC9F
:109FE8004DF0000E01010E6F1F0E01010E6501D02C
:109FF80015D001010E51010D9E0EF324D96E020EEB
:10A00800F420DA6EDF500101026F01010E51020DDA
:10A01800F350BAEC7AF001010E2BE6D7030E0101DA
:10A02800016FFC0E006F50EC7DF001010D6F010116
:10A038000D29D8A418D09AEC7EF0030E0101016F07
:10A04800FC0E006F000E0101026FF6EC78F0000EB6
:10A05800A1EC7DF0D80E0101096F09C102F13C0E97
:10A06800BAEC7AF01ED001010D510101D8A40CD030
:10A07800000EA1EC7DF0D80E01010A6F0AC102F1B1
:10A088003C0EBAEC7AF00DD001010D51A1EC7DF037
:10A09800DA0E01010B6F0BC102F13C0EBAEC7AF03B
:10A0A80000D0F29600F00F015A8900F081CF08F134
:10A0B80000F0F290F2860CC150F0150E0101076F06
:10A0C800C60EE82EFED7072FFCD700D042EC7DF055
:10A0D800010E0001D36F000E0001D56F1200000EB3
:10A0E80001010B6F3E0E01010B6502D01200120038
:10A0F80001010B51060D040EF326000EF422BD0ECD
:10A10800F324D96E0A0EF420DA6EDF500F0B0F0A13
:10A11800D8B49CD0010E0101086F01010B51060D46
:10A12800040EF326000EF422BD0EF324D96E0A0E97
:10A13800F420DA6EDF500F0B0101096F010108519D
:10A1480001010927DF5001010919F00B0101091963
:10A15800DF6E45500F0DF3CF00F1F4CF01F1000E83
:10A168000101036F400E026F58EC67F0040E010105
:10A178000027000E0101012301010B51060D040EF9
:10A18800F326000EF422BD0EF324D96E0A0EF42035
:10A19800DA6EDF500F0B0101086F096B01010051E6
:10A1A8000101085D01010951800A01010A6F0101DD
:10A1B8000151800A01010A59D8B012D001010B518E
:10A1C800060D040EF326000EF422BD0EF324D96EFC
:10A1D8000A0EF420DA6EDF500F0B0F0AD8A436D01F
:10A1E80001010B51060D040EF326000EF422BD0EDC
:10A1F800F324D96E0A0EF420DA6EDF80DF82DF8462
:10A20800DF8601010B51060D050EF326000EF42220
:10A21800BD0EF324D96E0A0EF420DA6EFF0EDF6E3F
:10A2280001010B51060D040EF326000EF422BD0E9B
:10A23800F324D96E0A0EF420DA6EDF88DF8ADF8C09
:10A24800DF8E4550D8B402D0450600D001010B2B53
:10A258003E0E01010B654CD712001200156E000E60
:10A26800176E000E186E000E196E000E1A6E040E90
:10A278001018D8A40AD00EC017F00FC018F0000E9E
:10A2880018BEFF0E196E1A6E4CD01050D8A42CD0E0
:10A298000EC011F00FC012F0000E12BEFF0E136EAA
:10A2A800146E0F0ED8901136123613361436E82E67
:10A2B800F9D711C001F012C002F013C003F014C0A6
:10A2C80004F0E80E056E030E066E000E076E000E13
:10A2D800086EAAEC71F001C017F002C018F003C0B4
:10A2E80019F004C01AF01DD01004D8A41AD00EC05A
:10A2F80011F00FC012F0000E12BEFF0E136E146E96
:10A308000F0ED8901136123613361436E82EF9D7B8
:10A3180011C017F012C018F013C019F014C01AF0C9
:10A3280000D017C011F018C012F019C013F01AC0ED
:10A3380014F0111E121E131E141E112A000E1222D2
:10A3480013221422FF0E1124176EFF0E1220186E0E
:10A35800000E1320196E000E14201A6E1504D8A4CE
:10A368000BD018C0CFFF17C0CEFF8C0ECD6E9F80CC
:10A378009E909D80CD8000D0030E1518D8A40AD0D9
:10A3880018C0B3FF17C0B2FF8C0EB16EA292A19293
:10A39800A082B1803F50D8A41200010E3F6E000E7B
:10A3A800166E180E166402D0120012001650020D16
:10A3B800000EF324D96E030EF420DA6E000EDE6E62
:10A3C800000EDD6E162A180E1664F0D71200120061
:10A3D80012001D0E0101426F1AC10BF11BC10CF1D5
:10A3E800430E01010D6F010E01010E6F4FEC46F097
:10A3F8000101476F1D0E01011C6F260E01011D6F23
:10A408001AC100F11BC101F1000E0101026F1C0EFF
:10A418000101036F010E0101046F020E0101056FB6
:10A42800040E0101066F1AEC75F0430E0101006F6E
:10A43800010E0101016F000E0101026F1C0E0101E6
:10A44800036F010E0101046F060E0101056F040E72
:10A458000101066F1AEC75F047C126F11AC100F127
:10A468001BC101F1000E0101026F1C0E0101036FF7
:10A47800010E0101046F0B0E0101056F040E0101AD
:10A48800066F1AEC75F0430E0101006F010E010111
:10A49800016F000E0101026F1C0E0101036F010E16
:10A4A8000101046F0F0E0101056F040E0101066F13
:10A4B8001AEC75F047C12FF11AC100F11BC101F167
:10A4C800000E0101026F1C0E0101036F010E010154
:10A4D800046F140E0101056F040E0101066F1AECDA
:10A4E80075F0430E0101006F010E0101016F000EAE
:10A4F8000101026F1C0E0101036F010E0101046FBF
:10A50800180E0101056F040E0101066F1AEC75F0B3
:10A5180047C138F118C10EF119C10FF11C0E010124
:10A52800106F010E0101116F42C112F1000E0101FD
:10A53800136F010E0101146F000E0101156F1FEC5E
:10A548004AF01200120000C1D9FF01C1DAFF000E63
:10A55800DF6E010120EE01F00051D9260151DA2207
:10A56800000EDF6E4050D8A404D00001C151D8B409
:10A5780039D01E0E0001C26103D00001C22B00D0E9
:10A588001E0E0001C219D8A41AD00E0E0001C4650F
:10A5980016D000C1D9FF01C1DAFF030EDF6E2D0E00
:10A5A8000001C26F010120EE01F00051D9260151CE
:10A5B800DA22030EDF6E2D0E0001C46F0FD01E0EBF
:10A5C8000001C219D8A40AD000C1D9FF01C1DAFF1D
:10A5D800020EDF6E2D0E0001C26F00D0000E0001CA
:10A5E800C16F13D0010E0001C2650BD01F0E000110
:10A5F800C26107D000C1D9FF01C1DAFF010EDF6EC9
:10A6080000D0000E0001C26F00D04150D8A404D081
:10A618000001C351D8B43AD01E0E0001C46103D062
:10A628000001C42B00D01E0E0001C419D8A41AD0F2
:10A638000E0E0001C26516D000C1D9FF01C1DAFFB4
:10A64800030EDF6E2D0E0001C26F010120EE01F036
:10A658000051D9260151DA22030E11D02D0E000126
:10A66800C46F10D01E0E0001C419D8A40BD001016C
:10A6780020EE01F00051D9260151DA22020EDF6ED8
:10A68800EDD700D0000E0001C36F1200010E0001CB
:10A69800C4650ED01F0E0001C4610AD0010120EE6E
:10A6A80001F00051D9260151DA22010EDF6E00D0E7
:10A6B800000E0001C46F120012001D0E0101266F6A
:10A6C800200E0101276F22C128F1AAEC7EF00101BA
:10A6D800296F030E0101556F010122510101550334
:10A6E800F3CF54F1000E0101586F000E576F6DD073
:10A6F8004C0E0101146F010E0101156F500E01017E
:10A70800166F010E0101176F560E0101186F010E29
:10A718000101196F010154512DEC64F04C0E010137
:10A72800006F010E0101016F000E0101026F260E7C
:10A738000101036F010E0101046F01015751090D59
:10A74800F350040F0101056F040E0101066F1AECA6
:10A7580075F0500E0101006F010E0101016F000E2E
:10A768000101026F260E0101036F010E0101046F42
:10A7780001015751090DF350080F0101056F040E2F
:10A788000101066F1AEC75F057C100F158C101F1CB
:10A79800000E0101036F090E026F67EC7AF00C0ED0
:10A7A80001010027000E01010123260E01010025E9
:10A7B800D96E010E01010121DA6E56C1DFFF0101D8
:10A7C800542B0101574B582B00D001015551010161
:10A7D800236F246B010123510101575D0101585179
:10A7E800800A0101256F01012451800A01012559C0
:10A7F800D8A07ED720C10EF121C10FF1260E01018C
:10A80800106F010E0101116F260E0101126F000E6B
:10A818000101136F010E0101146F000E0101156F84
:10A828001FEC4AF0120012000AC10EF101010F6B71
:10A83800106B0101093501010E3701E30F81010198
:10A848000E510101116F01011151D8A40AD0000E57
:10A858000101086F000E0101096F000E01010A6F66
:10A8680012000DC10EF101010F6B106B01010C35C7
:10A8780001010E3701E30F8101010E510101166F2D
:10A8880001011651D8A40AD0000E0101086F000E6C
:10A898000101096F000E01010A6F12000101165132
:10A8A8007B0F010111270AC116F101010D510101A8
:10A8B800161B800E010116170101098F01010C8F6B
:10A8C800FF0E01010B17FF0E01010C17000E01010D
:10A8D8000D17000E0101126F000E0101136F000E1B
:10A8E8000101146F070E0101156F00D0010108A1C5
:10A8F8000DD001010B510101122701010C51010179
:10A90800132301010D510101142300D00101D89036
:10A918000A33093308330101D8900B370C370D3748
:10A928000101152FE3D700D0090E0101156F00D0E2
:10A93800010108A10DD001010B51010112270101EC
:10A948000C510101132301010D510101142300D001
:10A958000101D8900A33093308330101D890143320
:10A96800133312330101152FE3D700D012C100F1C0
:10A9780013C101F114C102F111C103F116C104F1AF
:10A9880042EC5DF000C108F101C109F102C10AF110
:10A99800120012006EC072F00001736B746B00013C
:10A9A8006D350001723701E37381000172510001B6
:10A9B800756F00017551D8A40AD0000E00016C6FA4
:10A9C800000E00016D6F000E00016E6F120071C065
:10A9D80072F00001736B746B0001703500017237FF
:10A9E80001E373810001725100017A6F00017A510D
:10A9F800D8A40AD0000E00016C6F000E00016D6F24
:10AA0800000E00016E6F120000017A517B0F0001E9
:10AA180075276EC07AF00001715100017A1B800E13
:10AA280000017A1700016D8F0001708FFF0E000181
:10AA38006F17FF0E00017017000E00017117000E4E
:10AA48000001766F000E0001776F000E0001786F2D
:10AA5800070E0001796F00D000016CA10DD0000134
:10AA68006F51000176270001705100017723000122
:10AA780071510001782300D00001D8906E336D33F6
:10AA88006C330001D8906F37703771370001792F18
:10AA9800E3D700D0090E0001796F00D000016CA146
:10AAA8000DD000016F51000176270001705100019F
:10AAB8007723000171510001782300D00001D8905C
:10AAC8006E336D336C330001D89078337733763337
:10AAD8000001792FE3D700D076C060F077C061F02D
:10AAE80078C062F075C063F07AC064F0D2EC5DF0B3
:10AAF80060C06CF061C06DF062C06EF012001200B0
:10AB080001010B6F070E01010F6F0E69000E0101A5
:10AB18000C6F000E01010D6F000E0101146F000E85
:10AB2800136F000E0101166F000E156F01010B5116
:10AB38000B250101116F4B0E0101106F010111511D
:10AB4800910F0101116F000E0101146F000E136FB8
:10AB5800EBEC76F022EC7CF001011151B9EC72F0CB
:10AB68000009D8A461D0000E0101126F55D0000E63
:10AB78000101146F000E136F000E35EC72F0010125
:10AB88000C6F010112510101056F066BFF0E0101E7
:10AB9800076FFF0E0101086F010110510101096FD4
:10ABA8000A6B01010751010109270101085101013F
:10ABB8000A2301010551010109190AE101010651A0
:10ABC80001010A19D8A404D0010E35EC72F003D0A3
:10ABD800000E35EC72F001010D6F00D001010C512F
:10ABE8000101131301011351146F136B01010D516E
:10ABF80001011313010113510101155D01011451E4
:10AC080001011659D8B005D013C115F114C116F1B8
:10AC180000D00101122B00D0010110510101125D79
:10AC2800D8B002D0A4D700D06CEC7DF001010E5151
:10AC38000101155D01010F5101011659D8B006D067
:10AC4800000E0101166F000E156F09D001010E519B
:10AC58000101155F01010F510101165B00D015C1FB
:10AC680003F116C104F1120012007C0ED36E9B8C06
:10AC7800D2909B8E200E926EFB0E936E130E946EE6
:10AC8800860E806E000E816EC40E826E100E0F014D
:10AC98005D6F050E0F015C6FF19E0F015B910F0157
:10ACA8005B930F015B850F015B970F015B990F01A8
:10ACB8005B9B0F015B9D0F015B9FD180030E010120
:10ACC800016FED0E006F50EC7DF00101026F010184
:10ACD80002510101FA6FFB6B0101FA51FB6FFA6B2C
:10ACE800030E0101016FEC0E006F50EC7DF00101C5
:10ACF800026F010102510101FA27000EFB23030E26
:10AD08000101016FF10E006F50EC7DF00101026F3F
:10AD1800010102510101FC6FFD6B0101FC51FD6F46
:10AD2800FC6B030E0101016FEE0E006F50EC7DF01D
:10AD38000101026F010102510101FC27000EFD23F0
:10AD4800030E0101016FF30E006F50EC7DF001015D
:10AD5800026F010102510101FE6FFF6B0101FE51FB
:10AD6800FF6FFE6B030E0101016FF20E006F50ECD6
:10AD78007DF00101026F010102510101FE27000E61
:10AD8800FF23010E0101EE6F000E0201236F000E7A
:10AD9800226F000E0201216F000E206F000E0201CB
:10ADA8003D6F000E3C6F000E02013F6F000E3E6FBC
:10ADB800000E0101C56F02019A6902019B69020137
:10ADC8009C6902019D69000E0201506F1200010189
:10ADD800000501010111D8A433D00001A651301893
:10ADE80005E10001A7513118D8B49DD002014351A3
:10ADF8000201D8B402D0000E1200010E0201436F06
:10AE0800000E3024D96E050E3120DA6E02C1E1FF42
:10AE180003C1E2FFDFCFE7FF304A312A31BE0AD053
:10AE2800315004E1800E305CD8A004D0000E316EA1
:10AE3800000E306E000E0201436F010E120073D037
:10AE4800020E0101001901010111D8A433D000013B
:10AE5800A851321805E10001A9513318D8B463D0BC
:10AE6800020144510201D8B402D0000E1200010EB2
:10AE78000201446FC90E3224D96E060E3320DA6EF1
:10AE880002C1E1FF03C1E2FFDFCFE7FF324A332A05
:10AE980033BE0AD0800E325C010E3358D8A004D0DD
:10AEA800000E336E000E326E000E0201446FC5D7DD
:10AEB800120039D0040E0101001901010111D8A4B2
:10AEC80032D00001A4512E1805E10001A5512F1818
:10AED800D8B429D00001AE51D8B402D0000E120067
:10AEE800010E0001AE6F000E2E24D96E040E2F2025
:10AEF800DA6E02C1E1FF03C1E2FFDFCFE7FF2E4AAE
:10AF08002F2A2FBE0AD02F5004E1270E2E5CD8A07E
:10AF180004D0000E2F6E000E2E6E000E0001AE6FD4
:10AF28008CD7120000D0000E120012000001BF5191
:10AF3800D8B4A3D00001CD51D8A49FD0C5C000F18A
:10AF48000101016B000E0101036F000E026FC90EB3
:10AF58000101046F000E056F000E066F000E076FEB
:10AF68006EEC74F00101005101012F6F01012F51A6
:10AF78000101D8A402D0000E1200000E01010E6FCC
:10AF880001012F51010D000EF324D96E060EF42095
:10AF9800DA6EDF5059EC7CF0D3A60FD0040E010115
:10AFA8000C6F010E96EC60F00001A25101010C2516
:10AFB8000101306F0001A35114D0040E01010C6F80
:10AFC800010E96EC60F00001A25101010C2700016E
:10AFD800A35101010D23E60E01010C250101306F7B
:10AFE800FF0E01010D210101316F00D08EEC7EF0C2
:10AFF8002CC1D9FF2DC1DAFFDF6E010120EE02F06E
:10B008002C51D9262D51DA2230C1DFFF010120EE63
:10B0180001F02C51D9262D51DA2201013151DF6E70
:10B028002CC117F12DC118F101012E51030F010197
:10B03800196F010E01011A6F2EEC4EF00101CC516F
:10B04800D8A417D0080E52EC75F001010051010187
:10B05800CC250101CC6FCCC126F10101276B010E73
:10B068000101286F080E64EC71F0000E0101CC6F2D
:10B0780000D0000E486E010E1200000E12001200E1
:10B0880000C1D9FF01C1DAFF1D0EDF6E010120EEFC
:10B0980001F00051D9260151DA22230EDF6E010199
:10B0A80020EE02F00051D9260151DA22D5C002F172
:10B0B8000101023BF00E02175BEC7EF00101022554
:10B0C8000001D325DF6E010120EE03F00051D926DF
:10B0D8000151DA22D5C002F10101023BF00E02173C
:10B0E8005BEC7EF0010102250001D325DF6E010132
:10B0F80020EE04F00051D9260151DA22D5C002F120
:10B108000101023BF00E02175BEC7EF00101022503
:10B118000001D325DF6E010120EE05F00051D9268C
:10B128000151DA22C9C0DFFF010120EE06F000510B
:10B13800D9260151DA22C9C0DFFF010120EE07F04C
:10B148000051D9260151DA22C9C0DFFF010120EEE2
:10B1580008F00051D9260151DA2286EC7EF0DF6E24
:10B16800010120EE09F00051D9260151DA2286ECBE
:10B178007EF0DF6E010120EE0AF00051D926015160
:10B18800DA2286EC7EF0DF6E010120EE0BF0005132
:10B19800D9260151DA2282EC7EF0DF6E010120EE21
:10B1A8000CF00051D9260151DA2282EC7EF0DF6ED4
:10B1B800010120EE0DF00051D9260151DA2282EC6E
:10B1C8007EF0DF6E0E0E0101036F010103511200C4
:10B1D800120019C11BF101011C6B1D6B010118350F
:10B1E80001011B3701E31C8101011B510101256F7E
:10B1F80001012551D8A40AD0000E0101176F000ED5
:10B20800186F000E196F000E1A6F1200170E010149
:10B218001B6F17C11CF118C11DF119C11EF10101E5
:10B228001B2901011F6F05D00101D8901E331D3362
:10B238001C3301011F2FF8D701011C510101206F98
:10B248000101188FFF0E01011717FF0E01011817D2
:10B25800000E01011917010117510101216F0101A8
:10B2680018510101226F010119510101236F0101D8
:10B27800246B8E0E0101255F010125AF1BD0010152
:10B288002551800A8F0FD8B00BD0000E0101176F1F
:10B29800000E186F000E196F000E1A6F120000D002
:10B2A8000101D89024332333223321330101253F70
:10B2B800F7D71FD0170E0101256514D0000E010124
:10B2C800176F000E186F000E196F000E1A6F12001C
:10B2D80009D00101D89021372237233724370101BB
:10B2E800250700D0010125510101D8B402D0F1D7BA
:10B2F80000D0010120510101D8B40AD00101241F56
:10B30800231F221F216D000E22232323242300D074
:10B3180021C117F122C118F123C119F124C11AF171
:10B32800120012000DC111F10101126B136B010122
:10B338000C350101113701E312810101115101019D
:10B34800186F01011851D8A40AD0000E01010B6F23
:10B35800000E01010C6F000E01010D6F120010C1EB
:10B3680011F10101126B136B01010F350101113746
:10B3780001E31281010111510101196F01011951F4
:10B38800D8A40AD0000E01010B6F000E01010C6F4A
:10B39800000E01010D6F1200000E0101156F000E65
:10B3A8000101166F000E0101176F01011951890F74
:10B3B8000101185F0DC119F1010110510101191B9B
:10B3C800800E0101191701010C8FFF0E01010B17E7
:10B3D800FF0E01010C17000E01010D1701010F8F5F
:10B3E800FF0E01010E17FF0E01010F17000E0101DC
:10B3F8001017180E0101146F00D00101D8901537ED
:10B408001637173701010E5101010B5D01010F516C
:10B4180001010C590101105101010D59D8A00ED09C
:10B4280001010E5101010B5F01010F5101010C5B7C
:10B438000101105101010D5B010115810101D89035
:10B448000B370C370D370101142FD7D700D015C192
:10B4580000F116C101F117C102F118C103F119C1B8
:10B4680004F142EC5DF000C10BF101C10CF102C125
:10B478000DF1120012007DC07FF00001806B816B1E
:10B4880000017C3500017F3701E3808100017F5195
:10B498000001896F00018951D8A40AD0000E00016B
:10B4A8007B6F000E7C6F000E7D6F000E7E6F1200AA
:10B4B800170E00017F6F7BC080F07CC081F07DC0DB
:10B4C80082F000017F290001836F05D00001D89028
:10B4D8008233813380330001832FF8D700018051F4
:10B4E8000001846F00017C8FFF0E00017B17FF0EA7
:10B4F80000017C17000E00017D1700017B5100013F
:10B50800856F00017C510001866F00017D510001AB
:10B51800876F0001886B8E0E0001895F000189AF7B
:10B528001BD000018951800A8F0FD8B00BD0000EB4
:10B5380000017B6F000E7C6F000E7D6F000E7E6F2A
:10B54800120000D00001D8908833873386338533C2
:10B558000001893FF7D71FD0170E0001896514D065
:10B56800000E00017B6F000E7C6F000E7D6F000ED9
:10B578007E6F120009D00001D8908537863787374B
:10B5880088370001890700D0000189510001D8B42B
:10B5980002D0F1D700D0000184510001D8B40AD0FC
:10B5A8000001881F871F861F856D000E862387234D
:10B5B800882300D085C07BF086C07CF087C07DF0F2
:10B5C80088C07EF012001200000E01012D6F0A0ED5
:10B5D8002C6F010E01012E6F3E0E23EC45F0020187
:10B5E8000FBF0CD002010F5104E102010E05D8A0D3
:10B5F80005D002010E07D8A00F0700D00101C051E5
:10B60800D8A402D0110E18D002010E5102010F1158
:10B61800D8A418D0D1EC78F00009D8B407D0010E1E
:10B6280002010F6F2C0E0E6F120E06D0000E0201D3
:10B638000F6F1E0E0E6F100E0001B86F010E010184
:10B64800CA6F00D00101CB510101D8A40DD0ADECD7
:10B658002BF093B609D00101CA510101D8B402D028
:10B668008A8602D08A9600D0130EE9EC79F0000998
:10B67800D8B42FD00101FA2904E10101FB29D8B47B
:10B6880024D00101FA510201365D0101FB5102018A
:10B698003759D8B00DD0FCC103F1FDC104F1F5C193
:10B6A80005F1C3EC77F0FCC1AFF1FDC1B0F10DD0ED
:10B6B800FEC103F1FFC104F1F5C105F1C3EC77F058
:10B6C800FEC1AFF1FFC1B0F100D0000E0001B26FB2
:10B6D80000D0130EFAEC7BF00009D8B40CD0000EA1
:10B6E8000101276F3C0E266F010E0101286F130E12
:10B6F80064EC71F000D0010E0101B76F1200120066
:10B708000101056F80D0000E0101006F010EA5EC4C
:10B7180079F0E40E00D000D0E82EFCD700D000D09D
:10B7280002019E511F0B800902019E6F9EC202F109
:10B73800000EBAEC7AF0800E0101C06F0B0E010109
:10B74800046F620EE82EFED7042FFCD700D012003B
:10B7580002019E511F0B600902019E6F9EC202F1F9
:10B76800000EBAEC7AF0D5C000F1000EA5EC79F025
:10B77800600E0101C06F1200000E0101006F000E83
:10B78800A5EC79F002019E511F0B200902019E6F62
:10B798009EC202F1000EBAEC7AF0680E0101046F45
:10B7A800E40EE82EFED7042FFCD700D0200E0101AE
:10B7B800C06F1200000E0101006F000EA5EC79F0B9
:10B7C80002019E511F0B400902019E6F9EC202F1A9
:10B7D800000EBAEC7AF0400E0101C06F1200000EA4
:10B7E8000101006F000EA5EC79F002019E511F0BBC
:10B7F80002019E6F000E0101C06F9EC202F1000E91
:10B80800BAEC7AF0120001010551000AD8B4E7D762
:10B81800200AD8B4B1D7600AD8B4CCD7200AD8B493
:10B8280097D7E00AD8A412006ED712000001BF51C2
:10B83800D8A404D00001CD51D8B403D0000E120012
:10B8480087D03E50D8A484D0C5C000F10101016B57
:10B8580023C102F10101036BC90E0101046F000E3F
:10B86800056F000E066F000E076F6EEC74F0010195
:10B8780000510101246F010124510101D8A402D013
:10B88800000E1200000E01010E6F01012451010D7E
:10B89800000EF324D96E060EF420DA6EDF5059EC50
:10B8A8007CF0D3A60FD0040E01010C6F010E96ECAC
:10B8B80060F00001A25101010C250101256F000172
:10B8C800A35114D0040E01010C6F010E96EC60F028
:10B8D8000001A25101010C270001A35101010D2310
:10B8E800E60E01010C250101256FFF0E01010D2156
:10B8F8000101266F00D08EEC7EF020C1D9FF21C156
:10B90800DAFFDF6E010120EE02F02051D926215125
:10B91800DA2225C1DFFF010120EE01F02051D926EE
:10B928002151DA2201012651DF6E20C117F121C110
:10B9380018F101012251030F0101196F010E0101D4
:10B948001A6F2EEC4EF0010E3E6E010E120000D062
:10B95800000E1200120006C1D9FF07C1DAFFDE048B
:10B96800D8A489D0050E0101086585D0F90E01011A
:10B9780008250101006F0101016BFF0E0123000E74
:10B988000101036F050E026FCCEC6AF00101005152
:10B9980001010111D8A46FD0FF0E0101096FFF0E3C
:10B9A80001010A6F0101085101010B6F0C6B0101C4
:10B9B800095101010B2701010A5101010C23010161
:10B9C8000B5101010625D96E01010C510101072116
:10B9D800DA6E0001C951DE18D8B420D0FF0E01017B
:10B9E800096FFF0E01010A6F0101085101010B6F78
:10B9F8000C6B0101095101010B2701010A510101D9
:10BA08000C2301010B5101010625D96E01010C51CE
:10BA180001010721DA6EDE28D8A403D0010E120036
:10BA28002AD00001C929D8A423D0FF0E0101096F2B
:10BA3800FF0E01010A6F0101085101010B6F0C6B28
:10BA48000101095101010B2701010A5101010C23D0
:10BA580001010B5101010625D96E01010C510101AB
:10BA68000721DA6EDE28D8B403D0020E120003D004
:10BA7800000E120000D0000E120012000101035146
:10BA88000101D8B408D001010051010101110101DF
:10BA98000211D8A413D0000E0101006F000E01019D
:10BAA800016F000E0101026F120008D00101032B83
:10BAB8000101D89002330133003300D0000E010198
:10BAC80000150101056F000E010101150101066F46
:10BAD800FE0E010102150101076F01010551010167
:10BAE800061101010711D8B413D0E0D711D0010114
:10BAF800032B010E01010027000E01010123000E96
:10BB0800010102230101D89002330133003300D030
:10BB1800000E010100150101056F000E010101155C
:10BB28000101066FFF0E010102150101076F0101F6
:10BB380005510101061101010711D8B40AD0D7D760
:10BB480008D0010103070101D890003701370237F7
:10BB580000D0010101BF05D0020E01010361F1D738
:10BB680000D0010103B103D00101019F00D0010100
:10BB7800D89003330101035101010213010104515B
:10BB88000101D8B403D00101028F00D000C100F137
:10BB980001C101F102C102F112001200000163515A
:10BBA8000001D8B408D00001605100016111000102
:10BBB8006211D8A413D0000E0001606F000E0001BE
:10BBC800616F000E0001626F120008D00001632B44
:10BBD8000001D89062336133603300D0000E000159
:10BBE80060150001656F000E000161150001666FA8
:10BBF800FE0E000162150001676F0001655100012A
:10BC0800661100016711D8B413D0E0D711D0000134
:10BC1800632B010E00016027000E00016123000E56
:10BC2800000162230001D89062336133603300D091
:10BC3800000E000160150001656F000E000161151E
:10BC48000001666FFF0E000162150001676F0001B9
:10BC580065510001661100016711D8B40AD0D7D721
:10BC680008D0000163070001D89060376137623758
:10BC780000D0000161BF05D0020E00016361F1D759
:10BC880000D0000163B103D00001619F00D0000122
:10BC9800D8906333000163510001621300016451BD
:10BCA8000001D8B403D00001628F00D060C060F0FA
:10BCB80061C061F062C062F01200120006EEC9F0C5
:10BCC80015EE6EF0EE6AE550E150FCE1E250FAE163
:10BCD80005EE00F010EEFFF0EE6AE550E150FCE1F1
:10BCE800E250FAE104EE00F0E40EEE6AE806FDE147
:10BCF80003EE00F011EE00F0EE6AE550E150FCE1D1
:10BD0800E250FAE102EE00F09E0EEE6AE806FDE16E
:10BD180001EEAFF03C0EEE6AE806FDE100EEA2F09F
:10BD2800350EEE6AE806FDE100EE2CF0230EEE6A11
:10BD3800E806FDE14A0EF66ED00EF76E000EF86EBC
:10BD480006EE00F010EEC9F00900F5CFEEFFE55061
:10BD5800E150FAE17A0EF66EED0EF76E000EF86E0F
:10BD680002EE9EF010EE5CF00900F5CFEEFFE55014
:10BD7800E150FAE1720EF66EFC0EF76E000EF86EE8
:10BD880001EEEBF010EE0FF00900F5CFEEFFE550F5
:10BD9800E150FAE1600EF66EFD0EF76E000EF86ED9
:10BDA80000EED7F010EE04F00900F5CFEEFFE550F5
:10BDB800E150FAE1FC0EF66EFC0EF76E000EF86E1E
:10BDC80000EE4FF010EE08F00900F5CFEEFFE55059
:10BDD800E150FAE10001EDEF04F001010005010175
:10BDE8000111D8A427D03C50D8A4120001D01200C9
:10BDF800010E3C6E000E0001A625D96E050E00014D
:10BE0800A721DA6E02C1DFFF0001A64BA72B0001B4
:10BE1800A7BF0DD00001A75105E1800E0001A65D66
:10BE2800D8A005D0000E0001A76F000EA66F000E67
:10BE38003C6E1200020E0101001901010111D8A483
:10BE480027D03D50D8A4120001D01200010E3D6E3B
:10BE5800C90E0001A825D96E060E0001A921DA6EC7
:10BE680002C1DFFF0001A84BA92B0001A9BF0DD01B
:10BE7800800E0001A85D010E0001A959D8A005D0C7
:10BE8800000E0001A96F000EA86F000E3D6E120093
:10BE9800040E0101001901010111D8A412000001CA
:10BEA800AF51D8A4120001D01200010E0001AF6FEB
:10BEB800000E0001A425D96E040E0001A521DA6E3A
:10BEC80002C1DFFF0001A44BA52B0001A5BF0DD0C7
:10BED8000001A55105E1270E0001A45DD8A005D0F9
:10BEE800000E0001A56F000EA46F000E0001AF6FD9
:10BEF800120012000001600500016111D8A427D0CA
:10BF08003C50D8A4120001D01200010E3C6E000E65
:10BF18000001A625D96E050E0001A721DA6E62C0C0
:10BF2800DFFF0001A64BA72B0001A7BF0DD0000122
:10BF3800A75105E1800E0001A65DD8A005D0000E2E
:10BF48000001A76F000EA66F000E3C6E1200020ED5
:10BF58000001601900016111D8A427D03D50D8A470
:10BF6800120001D01200010E3D6EC90E0001A82575
:10BF7800D96E060E0001A921DA6E62C0DFFF00014A
:10BF8800A84BA92B0001A9BF0DD0800E0001A85D08
:10BF9800010E0001A959D8A005D0000E0001A96F13
:10BFA800000EA86F000E3D6E1200040E000160190D
:10BFB80000016111D8A412000001AF51D8A41200E9
:10BFC80001D01200010E0001AF6F000E0001A42580
:10BFD800D96E040E0001A521DA6E62C0DFFF0001F0
:10BFE800A44BA52B0001A5BF0DD00001A55105E16B
:10BFF800270E0001A45DD8A005D0000E0001A56F92
:10C00800000EA46F000E0001AF6F120012000101B4
:10C01800066F06C10AF10D0E01010A19D8A434D021
:10C028000101D8900A37EBEC76F022EC7CF00101A4
:10C038000A29B9EC72F00009D8A41FD0000E35EC1B
:10C0480072F00101056F010105510101086F096BCB
:10C0580001010851096F086B010E35EC72F00101FE
:10C06800056F01010551010108250101086F000E46
:10C07800010109210101096F00D06CEC7DF008C1B4
:10C0880003F109C104F11200600E01010A19D8A4D4
:10C0980012000101D8900A37EBEC76F022EC7CF024
:10C0A80001010A29B9EC72F00009D8A433D0000EB6
:10C0B80035EC72F00101076F000E35EC72F00101EA
:10C0C800056F010105510101086F096B0101083B6A
:10C0D800093BF00E091708510F0B0913F00E08174A
:10C0E800000E35EC72F00101076F0101073B0F0EDE
:10C0F80007170101075101010827000E0923000E47
:10C1080035EC72F00101076F010E35EC72F0010198
:10C11800076F00D06CEC7DF008C103F109C104F190
:10C12800120012000101126F01011205D8A416D0E5
:10C13800CECF13F10101146BCFCF15F10101166BAE
:10C14800010115510101166F156B01011351010110
:10C158001527010114510101162300D0030E010116
:10C168001219D8A416D0B2CF13F10101146BB3CFB2
:10C1780015F10101166B010115510101166F156BBF
:10C188000101135101011527010114510101162361
:10C1980000D001010C510101D8A435D015C10EF110
:10C1A80016C10FF101010E1F0F1F0E4B0F2BFF0EB3
:10C1B80001010E250101106FFF0E01010F21010180
:10C1C800116F10C100F111C101F10101026B036B84
:10C1D800E80E0101046F030E056F000E066F000ED6
:10C1E800076FF4EC73F0100E07D00101D8900333F9
:10C1F8000233010101330033E82EF7D700C10CF1F7
:10C2080001C10DF1120015C10EF116C10FF10101A6
:10C218000E1F0F1F0E4B0F2BFF0E01010E250101E4
:10C228000C6FFF0E01010F2101010D6F12001200AA
:10C23800000E0101116F000E0101106F000E0F6F4B
:10C24800000E0101136F000E126F000E0101006F46
:10C25800040EACEC78F0000E0101136F000E126FA3
:10C26800000E0101116F090E0101116501D026D0E0
:10C27800B2EC7EF000D008EC7EF001010051010123
:10C288000111D8A4F8D7C4500101106F0F6BC35027
:10C2980001010F13040E0101116509D001010F51AD
:10C2A80001011227010110510101132300D00A0EC8
:10C2B800E82EFED700D00101112BD5D712C106F107
:10C2C80013C107F1000E0101096F050E086F78EC24
:10C2D80072F006C112F107C113F1020E0101006FDD
:10C2E800040EACEC78F0C29012C100F113C101F158
:10C2F800000E0101036F070E026F67EC7AF000C1B0
:10C3080006F101C107F1000E0101096F060E086F61
:10C3180078EC72F006C112F107C113F10101D25194
:10C328000101125F000E0101D2BFFF0E0101135B74
:10C3380012C10DF113C10EF1120012000001706F4D
:10C3480000017005D8A416D0CECF73F00001746B2D
:10C35800CFCF75F00001766B000175510001766F43
:10C36800756B0001735100017527000174510001BC
:10C37800762300D0030E00017019D8A416D0B2CFCE
:10C3880073F00001746BB3CF75F00001766B000198
:10C3980075510001766F756B0001735100017527A7
:10C3A800000174510001762300D000016C51000196
:10C3B800D8A435D075C06EF076C06FF000016E1F3E
:10C3C8006F1F6E4B6F2BFF0E00016E250001716F02
:10C3D800FF0E00016F210001726F71C060F072C022
:10C3E80061F00001626B636BE80E0001646F030E7D
:10C3F800656F000E666F000E676F31EC74F0100EFB
:10C4080007D00001D8906333623300016133603391
:10C41800E82EF7D760C06CF061C06DF0120075C0EF
:10C428006EF076C06FF000016E1F6F1F6E4B6F2BA2
:10C43800FF0E00016E2500016C6FFF0E00016F21D9
:10C4480000016D6F120012000001CA510001D8A44A
:10C4580004D0010E0001CA6F00D0CAC007F1000E57
:10C4680001010A6F5DD0000E0101096F000E086F0F
:10C478002CD001010A51010DF35001010025D96E9C
:10C48800F45001010121DA6E0001CA51010DBE0EFE
:10C49800F324E16E020EF420E26EE7500101046F0E
:10C4A80001010A51010DF35001010025E16EF4501C
:10C4B80001010121E26EE7500101042501010A256D
:10C4C800DF6E0101084B092B00D00001CA51010D94
:10C4D800BE0EF324D96E020EF420DA6EDF50070B7D
:10C4E8000101046F056B010104510101085D01019F
:10C4F8000951800A0101066F01010551800A0101F5
:10C508000659D8A0B6D70001CA2B070E0001CA6584
:10C5180004D0000E0001CA6F00D001010A2B00D020
:10C5280001010A510101046F056B0101025101016A
:10C53800045D01010551800A0101066F01010351E3
:10C54800800A01010659D8A08ED7010107511200AF
:10C558001200000E0101096F010103AF0DD00101A6
:10C56800031F021F011F006D000E01230223032376
:10C57800010E0101096F00D0010107AF0AD00101C6
:10C58800071F061F051F046D000E0523062307233A
:10C5980000D0010104510101051101010611010139
:10C5A8000711D8B43FD0010E0101086F09D001016D
:10C5B800D89004370537063707370101082B00D014
:10C5C800010107BF02D0F3D700D0010104510101D6
:10C5D800005D0101055101010159010106510101E7
:10C5E80002590101075101010359D8A011D00101D5
:10C5F80004510101005F010105510101015B0101C5
:10C6080006510101025B010107510101035B00D0E2
:10C618000101D89007330633053304330101082F8D
:10C62800D4D700D0010109510101D8B40AD00101C1
:10C63800031F021F011F006D000E012302230323A5
:10C6480000D000C100F101C101F102C102F103C132
:10C6580003F1120012000101086FFA0E01010861CE
:10C6680078D008C109F101010A6B09C106F10AC1B4
:10C6780007F10101D890063707370101D89006372E
:10C68800073706C109F107C10AF104C1D9FF05C17D
:10C69800DAFF09C102F10AC103F131EC7EF00101B0
:10C6A800076FDE5001010719D8A451D0010120EE0F
:10C6B80001F00451D9260551DA22010E010109259C
:10C6C8000101026F000E01010A210101036F31EC23
:10C6D8007EF00101076FDE5001010719D8A437D099
:10C6E800010120EE02F00451D9260551DA22020E8A
:10C6F800010109250101026F000E01010A21010152
:10C70800036F31EC7EF00101076FDE50010107195C
:10C71800D8A41DD0010120EE03F00451D9260551FB
:10C72800DA22030E010109250101026F000E010141
:10C738000A210101036F31EC7EF00101076FDE5021
:10C7480001010719D8A403D0010E120000D0000E71
:10C758001200000E12001200010E0001D36F000E2D
:10C7680025EC7DF0000E0001D56FFF0E14EC78F07B
:10C77800000EA1EC7DF0080E60EC7EF0DDC1F6F154
:10C78800DEC1F7F1DFC1F8F1E0C1F9F1D3C02FF153
:10C798009AEC7EF0030E0101016FEF0E006F82EC40
:10C7A8007EF00101026FF6EC78F09AEC7EF0030E51
:10C7B8000101016FFC0E006F86EC7EF00101026F33
:10C7C800F6EC78F09AEC7EF0030E0101016FFD0E95
:10C7D800006F2FC102F1F6EC78F09AEC7EF0030EB0
:10C7E8000101016FFE0E006FC9C002F1F6EC78F08E
:10C7F8009AEC7EF0030E0101016FE80E006FFF0E48
:10C808000101026FF6EC78F09AEC7EF0030E01015C
:10C81800016FE90E006FFF0E0101026FF6EC78F070
:10C828009AEC7EF0030E0101016FEA0E006FFF0E15
:10C838000101026FF6EC78F09AEC7EF0030E01012C
:10C84800016FEB0E006FFF0E0101026FF6EC78F03E
:10C85800120001011F6FFA0E01011F614FD01B0E5C
:10C8680001010C6F010E01010D6F01011F5189ECCF
:10C878006CF01B0E0101066F010E0101076F14C158
:10C8880008F115C109F1040E01010A6F60EC78F096
:10C8980001011F51020DC90EF324D96E080EF420B0
:10C8A800DA6EDF503F0B01011A6F01011A51060DB4
:10C8B800BD0EF3240101066F0A0EF4200101076F73
:10C8C80016C108F117C109F1040E01010A6F60ECE5
:10C8D80078F001011F51020D010EF326000EF4221B
:10C8E800C90EF324D96E080EF420DA6EDF501F0B40
:10C8F80018C1D9FF19C1DAFFDF6E1200DD0E010180
:10C90800066F010E0101076F14C108F115C109F185
:10C91800040E01010A6F60EC78F0DD0E0101066F6C
:10C92800010E0101076F16C108F117C109F1040EC4
:10C9380001010A6F60EC78F018C1D9FF19C1DAFF5C
:10C94800FF0EDF6E1200120001010D6F01010D5183
:10C95800BBEC7BF00DC100F10101016B0101065137
:10C96800050F0101026FF1EC5EF007C108F1060E38
:10C9780001010827020E0101096F0101082B03D0EC
:10C988000101D89009370101082FFAD7010109518F
:10C9980001010A6F0DC100F10101016B0AC102F129
:10C9A800F1EC5EF0000E01010B6F000E01010C6F3F
:10C9B80025D00DC100F10101016B01010C51010DE0
:10C9C800F35001010425D96EF45001010521DA6EF6
:10C9D800DF500101026FF1EC5EF001010C51010D15
:10C9E800F35001010425D96EF45001010521DA6ED6
:10C9F800DF5001010B1B01010C2B00D00101065176
:10CA080001010C5DD8A0D5D70DC100F10101016B62
:10CA18000BC102F1F1EC5EF00DC100F10101016BF7
:10CA28000D0E0101026FF1EC5EF00DC100F1010184
:10CA3800016B0A0E0101026FF1EC5EF01200000EAC
:10CA480001010A6F5ED0000E0101096F000E086F28
:10CA58002DD001010A51010DF35001010025D96EB5
:10CA6800F45001010121DA6E01010A51010DF35060
:10CA780001010025E16EF45001010121E26EE75049
:10CA88000101056F01010451010DBE0EF324E16E91
:10CA9800020EF420E26EE75001010A2500080101A8
:10CAA8000525DF6E0101084B092B00D00101045157
:10CAB800010DBE0EF324D96E020EF420DA6EDF509B
:10CAC800070B0101056F066B010105510101085DA6
:10CAD80001010951800A0101076F01010651800A0D
:10CAE80001010759D8A0B5D70101042B070E010190
:10CAF800046504D0000E0101046F00D001010A2B67
:10CB080000D001010A510101056F066B01010251B4
:10CB18000101055D01010651800A0101076F01014C
:10CB28000351800A01010759D8A08DD71200030EBE
:10CB3800010134250101386F000E01013521010181
:10CB4800396F32C106F133C107F1D8EC6DF001013C
:10CB5800376F32C106F133C107F138C108F139C165
:10CB680009F1040E01010A6F60EC78F0E10E010191
:10CB7800066F010E0101076F040E0101382501013E
:10CB8800086F000E010139210101096F040E01012E
:10CB98000A6F60EC78F0020E0101C219D8A410D017
:10CBA80038C104F139C105F101013651080F0101FD
:10CBB800066F000E0101076F020EA8EC64F000D0AA
:10CBC80032C106F133C107F1DD0E0101086F010E14
:10CBD8000101096F040E01010A6F19EC77F00009D1
:10CBE800D8A40ED034C120F135C121F1010136514C
:10CBF800080F0101226F37C123F11AEC5CF0120013
:10CC080034C12CF135C12DF101013651080F010154
:10CC18002E6F9AEC57F0120012000EC106F10FC1E8
:10CC280007F10CC108F10DC109F1040E01010A6FE9
:10CC380060EC78F0E10E0101006F010E0101016F57
:10CC4800000E0101026F0CC103F10DC104F1040EC5
:10CC58000101056F040E0101066F1AEC75F0010160
:10CC680020EE08F00C51D9260D51DA22030EDF6EA2
:10CC7800010120EE09F00C51D9260D51DA22000EDF
:10CC8800DF6E010120EE0AF00C51D9260D51DA228F
:10CC9800000EDF6EE10E0101006F010E0101016F50
:10CCA800000E0101026F0CC103F10DC104F10B0E5E
:10CCB8000101056F040E0101066F1AEC75F00EC133
:10CCC80000F10FC101F1000E0101026F0CC103F167
:10CCD8000DC104F10F0E0101056F040E0101066F6D
:10CCE8001AEC75F0010120EE13F00C51D9260D5104
:10CCF800DA22000EDF6E1200010119510101175DE1
:10CD080001011A5101011859D8B045D00101195132
:10CD180001011F6F01011A510101206F0101216BEF
:10CD28000101226B01011F1F201F211F221F1F2B22
:10CD3800000E2023212322230101175101011F2561
:10CD48000101236F01011851010120210101246F04
:10CD5800000E010121210101256F000E0101222190
:10CD68000101266F01011B51010123250101276FD4
:10CD780001011C51010124210101286F01011D51EC
:10CD8800010125210101296F01011E5101012621FF
:10CD980001012A6F19D019C11FF11AC120F101012F
:10CDA8001F1F201F1F4B202B0101175101011F2797
:10CDB80001011851010120231FC127F120C128F1C9
:10CDC8000101296B2A6B00D027C117F128C118F17E
:10CDD800120012000101126F010112510101D8A4C1
:10CDE8000DD0D6CF13F10101146BD7CF15F111D0A7
:10CDF800010115510101166F156B0ED0030E0101CB
:10CE08001219D8A412D0B2CF13F10101146BB3CF09
:10CE180015F10101166BECD701011351010115271A
:10CE2800010114510101162300D001010C51010127
:10CE3800D8A435D015C10EF116C10FF101010E1F8E
:10CE48000F1F0E4B0F2BFF0E01010E250101106F56
:10CE5800FF0E01010F210101116F10C100F111C175
:10CE680001F10101026B036BE80E0101046F030E6F
:10CE7800056F000E066F000E076FF4EC73F0100ECE
:10CE880007D00101D8900333023301010133003385
:10CE9800E82EF7D700C10CF101C10DF1120015C140
:10CEA8000CF116C10DF11200000E0101056F010110
:10CEB80003AF09D00101026D031FD8B0032B010E87
:10CEC8000101056F00D0010101AF09D00101006D1A
:10CED800011FD8B0012B010E0101051B00D0000E67
:10CEE8000101076F000E066F0101025101010311D4
:10CEF800D8B431D0010E0101046F07D00101D890D8
:10CF0800023703370101042B00D0010103BF02D00F
:10CF1800F5D700D00101D890063707370101025133
:10CF28000101005D0101035101010159D8A00BD095
:10CF3800010102510101005F010103510101015B7F
:10CF48000101068100D00101D890033302330101A9
:10CF5800042FE0D700D0010105510101D8B406D053
:10CF68000101066D071FD8B0072B00D006C100F1DC
:10CF780007C101F1120012000101026F0101025103
:10CF8800060D050EF326000EF422BD0EF324D96E0D
:10CF98000A0EF420DA6EDE28D8A410D0010102515E
:10CFA800060D050EF326000EF422BD0EF324D96EED
:10CFB8000A0EF420DA6E00C1DFFF120001010251EF
:10CFC800060D050EF326000EF422BD0EF324D96ECD
:10CFD8000A0EF420DA6E01010051DE5CD8B00FD0E1
:10CFE80001010251060D050EF326000EF422BD0EB6
:10CFF800F324D96E0A0EF420DA6EDF2A120001013A
:10D008000251060D050EF326000EF422BD0EF32480
:10D01800D96E0A0EF420DA6EDE500101005DD8B038
:10D02800120001010251060D050EF326000EF4222E
:10D03800BD0EF324D96E0A0EF420DA6EDF06120054
:10D04800120000010203040A0B0C0D0E141516172A
:10D05800181E1F20212228292A2B2C05060708091B
:10D068000F10111213191A1B1C1D23242526272DF6
:10D078002E2F30310031302F2E2D27262524231D29
:10D088001C1B1A19131211100F09080706052C2B5F
:10D098002A29282221201F1E18171615140E0D0CD8
:10D0A8000B0A0403020100010203040A0B0C0D0E13
:10D0B80014151617181E1F20212228292A2B2C0583
:10D0C800060708090F10111213191A1B1C1D232417
:10D0D8002526272D2E2F30310031302F2E2D2726B3
:10D0E8002524231D1C1B1A19131211100F090807D8
:10D0F80006052C2B2A29282221201F1E1817161551
:10D10800140E0D0C0B0A040302010000000E0101AD
:10D11800086F000E096F000E0A6F000E0B6F0101F9
:10D128000451010105110101061101010711D8B4CB
:10D1380047D0010E01010C6F09D00101D8900437C6
:10D1480005370637073701010C2B00D0010107BF4F
:10D1580002D0F3D700D00101D890083709370A3731
:10D168000B37010104510101005D01010551010165
:10D17800015901010651010102590101075101013B
:10D188000359D8A013D0010104510101005F010126
:10D1980005510101015B010106510101025B010119
:10D1A80007510101035B0101088100D00101D890FA
:10D1B800073306330533043301010C2FCCD700D0D5
:10D1C80008C100F109C101F10AC102F10BC103F163
:10D1D80012001B6E4250D8B41FD01B50D8B40CD0CC
:10D1E800FF0E34240E6EFF0E35200F6E040E106EE7
:10D1F800010E32EC51F00AD034C00EF035C00FF0F9
:10D20800040E106E010E32EC51F000D0070E356E90
:10D218003468000E426E00D0010E0001A225000104
:10D22800A26FF80E0001A3210001A36F2C06D8A05D
:10D238002D062C502D10D8A40ED0000E2D6E100ED9
:10D248002C6E0AC2A2F00BC2A3F07F0E02010B6F74
:10D25800F00E0A6F0BD02C042D10D8A407D0010EA5
:10D26800426EA2C034F0A3C035F000D00001C52B37
:10D27800C80E0001C56504D0000E0001C56F00D0BE
:10D2880002010C2904E102010D29D8B4120002019F
:10D298000C4B0D2B12001200000E0101156F000E31
:10D2A800146F010115BF0AD0010115513CE10A0EA6
:10D2B8000101145DD8B037D001D035D01CEC61F035
:10D2C8000DC1AAF00EC1ABF00001ABBF0ED0230E0A
:10D2D8000001AA5D0C0E0001AB59D8A006D00001D0
:10D2E800AA51DE0F0101D22712D00001ABBF08D02E
:10D2F8001C0E0001AA5D0C0E0001AB59D8B007D076
:10D308000001AA5100081C0F0101D25F00D0020ED3
:10D318000101016F8A0E006FF4EC75F00101144BE6
:10D32800152BBFD700D00101D251800A9F0FD8A07A
:10D3380012000101D251800A600FD8B012009AEC95
:10D348007EF0030E0101016FF00E006FD2C102F1F1
:10D35800F6EC78F012001200000E0101106F000EBA
:10D368000F6F000E0101126F000E116F000E010108
:10D37800006F0A0EACEC78F0000E0101126F000E7F
:10D38800116F000E0101136F090E0101136501D021
:10D398002DD0B2EC7EF000D008EC7EF001010051F7
:10D3A80001010111D8A4F8D7C4500101106F0F6B07
:10D3B800C35001010F13040E0101136514D0100EA0
:10D3C8000101105DD8A006D0000E0101106F000EFB
:10D3D8000F6F00D001010F510101112701011051F8
:10D3E8000101122300D00101132BCED711C106F180
:10D3F80012C107F1000E0101096F050E086F78ECE4
:10D4080072F006C111F107C112F111C10DF112C17B
:10D418000EF11200120000018E6F8EC0D6F0D6C039
:10D4280060F00001616B000E0001636F070E626F10
:10D4380026EC6BF0000160510101C46F880E0001F9
:10D44800D66504D0280E0001D66F1200000E000128
:10D458006F6F000E0001706F3F0E0001716FDA0EE2
:10D4680000018A6FFF0E00018B6F0001D651000189
:10D478008C6F8D6B00018A5100018C2700018B5144
:10D4880000018D2300018C1F8D1F8C4B8D2B640E8A
:10D4980000018C250001686F000E00018D2100013C
:10D4A800696F1AEC79F068C06CF069C06DF06AC0F9
:10D4B8006EF0CEEC54F06CC07BF06DC07CF06EC0AA
:10D4C8007DF03FEC5AF000017B51280F0001D66F28
:10D4D80012001200D2C200F1D3C201F1D4C202F18B
:10D4E800D5C203F1D6C204F1D7C205F1D8C206F1FC
:10D4F800D9C207F1F4EC73F000C1D2F201C1D3F242
:10D5080002C1D4F203C1D5F2390E0201D227300E7E
:10D51800D323000ED423000ED523100E01010E6F65
:10D52800D2C20FF1D3C210F1D4C211F1D5C212F197
:10D5380001010E6701D009D00101123512331133F0
:10D5480010330F3301010E2FF3D7FF0E01010F1512
:10D558000101006F7F0E010110150101016F000E1E
:10D56800010111150101026F000E010112150101DF
:10D57800036F0CC104F10DC105F10101066B076BC6
:10D58800ADEC62F000C10CF101C10DF11200120006
:10D59800000E0101056F010101AF09D00101006D05
:10D5A800011FD8B0012B010E0101056F00D0010148
:10D5B80003AF06D00101026D031FD8B0032B00D0C2
:10D5C8000101025101010311D8B42BD0010E010150
:10D5D800046F07D00101D890023703370101042BEB
:10D5E80000D0010103BF02D0F5D700D001010251DC
:10D5F8000101005D0101035101010159D8A009D0C1
:10D60800010102510101005F010103510101015BA8
:10D6180000D00101D890033302330101042FE6D76B
:10D6280000D0010105510101D8B406D00101006DF7
:10D63800011FD8B0012B00D000C100F101C101F1D8
:10D6480012001200000E0001656F000161AF09D0E1
:10D658000001606D611FD8B0612B010E0001656F7C
:10D6680000D0000163AF06D00001626D631FD8B01F
:10D67800632B00D00001625100016311D8B42BD094
:10D68800010E0001646F07D00001D890623763373C
:10D698000001642B00D0000163BF02D0F5D700D091
:10D6A800000162510001605D000163510001615990
:10D6B800D8A009D0000162510001605F00016351E8
:10D6C8000001615B00D00001D89063336233000130
:10D6D800642FE6D700D0000165510001D8B406D008
:10D6E8000001606D611FD8B0612B00D060C060F090
:10D6F80061C061F0120012000EC100F10FC101F10A
:10D70800000E0101026F0EC103F10FC104F1080EF2
:10D718000101056F080E0101066F3BEC73F000096B
:10D72800D8B412000EC100F10FC101F1080E0101B9
:10D73800026F0EC103F10FC104F1100E0101056F54
:10D74800080E0101066F3BEC73F00009D8B4120013
:10D75800000E0101106F070E0101106501D01DD0E8
:10D768009AEC7EF0F40E010110250101006F010111
:10D77800016B030E01230101105101010E25D96E21
:10D788000101000E01010F21DA6EDF500101026F65
:10D79800F6EC78F00101102BDED70EC100F10FC1B5
:10D7A80001F16CEC6FF012001200000E0101106F15
:10D7B800000E0F6F010110BF0AD0010110514AE19C
:10D7C800FA0E01010F5DD8B045D001D043D00BC18E
:10D7D80004F10CC105F101010F512FEC63F00009B0
:10D7E800D8B433D00FC10DF110C10EF1D89001019A
:10D7F8000D370E37010E01010D27000E0E23C90E3D
:10D8080001010D25D96E080E01010E21DA6EDF50D7
:10D818001F0B1F0AD8B419D00FC10DF110C10EF19A
:10D82800D89001010D370E37010E01010D27000EAA
:10D838000E23C90E01010D25D96E080E01010E2116
:10D84800DA6EDF38E832070B120001010F4B102B9C
:10D85800B1D700D0000E12001200EACF1FF0E1CFBE
:10D8680020F0E2CF21F0D9CF22F0DACF23F0F3CFA6
:10D8780024F0F4CF25F0F6CF26F0F7CF27F0F8CF35
:10D8880028F0F5CF29F09EB09DA022D09E90F80EEA
:10D898002B6E000E2A6E2B50CF6ED3B603D0010E1E
:10D8A8004C6E00D04C50EDEC68F0010E0101BC6FDD
:10D8B8000201562B0001CD51D8B404D00201164BF9
:10D8C800172B06D0000E0201176F000E166F00D03E
:10D8D80029C0F5FF28C0F8FF27C0F7FF26C0F6FFCC
:10D8E80025C0F4FF24C0F3FF23C0DAFF22C0D9FF0C
:10D8F80021C0E2FF20C0E1FF1FC0EAFF1EC0E9FF10
:10D908001DC0FBFF1CC0FAFF11000101106FFA0EC9
:10D91800010110613ED010C111F10101126B11C15A
:10D928000EF112C10FF10101D8900E370F37010126
:10D93800D8900E370F370EC111F10FC112F1000E3A
:10D948000101136F030E0101136502D012001200CA
:10D9580001011351010DF35001010C25D96EF4504A
:10D9680001010D21DA6E0101135101011125010197
:10D97800026F000E010112210101036F31EC7EF0EC
:10D98800DF6E0101132B030E01011365E1D71200AD
:10D998001200DD0E0101066F010E0101076F0CC1B7
:10D9A80008F10DC109F1040E01010A6F60EC78F06D
:10D9B80012001200000E0101126F000E116F000E0E
:10D9C8000101106F000E0F6F000E0101136F090E99
:10D9D8000101136501D02DD0B2EC7EF000D008EC27
:10D9E8007EF00101005101010111D8A4F8D7C450FB
:10D9F8000101126F116BC35001011113040E0101D3
:10DA0800136514D0100E0101125DD8A006D0000EC7
:10DA18000101126F000E116F00D0010111510101B7
:10DA28000F27010112510101102300D00101132B0E
:10DA3800CED70FC106F110C107F1000E0101096F21
:10DA4800050E086F78EC72F006C10FF107C110F1EE
:10DA58000FC10DF110C10EF1120012000101146F77
:10DA6800030E0101086F01011451060D050EF3267E
:10DA7800000EF422BD0EF324D96E0A0EF420DA6EDD
:10DA8800DF509DEC4CF00101136F01011451060D9C
:10DA9800040EF326000EF422BD0EF324D96E0A0EEE
:10DAA800F420DA6EDF380F0BEEEC7AF00101135D2B
:10DAB800D8B012D001011451060D040EF326000E41
:10DAC800F422BD0EF324D96E0A0EF420DA6EDF3884
:10DAD8000F0BEEEC7AF01200030E0101086F010142
:10DAE8001451060D050EF326000EF422BD0EF32484
:10DAF800D96E0A0EF420DA6EDF509DEC4CF012005D
:10DB080012000EC106F10FC107F1DD0E0101086F09
:10DB1800010E0101096F040E01010A6F19EC77F07B
:10DB28000009D8A41200000E0101126F3E0E010177
:10DB3800126502D01200120001011251060DBD0E2D
:10DB4800F3240101066F0A0EF4200101076F0EC1CC
:10DB580008F10FC109F1040E01010A6F19EC77F001
:10DB68000009D8B418D010C111F101011251060DE5
:10DB7800040EF326000EF422BD0EF324D96E0A0E0D
:10DB8800F420DA6E0101113BDF50010111190F0B6E
:10DB98001119DF6E12000101122B3E0E01011265F0
:10DBA800CBD7120012001200000E01010E6F000EFA
:10DBB8000D6F010120EE03F00651D9260751DA2234
:10DBC800DF500101086F06C1D9FF07C1DAFFDF5036
:10DBD8000101096F0A6B010120EE01F00651D926F7
:10DBE8000751DA22DF5001010B6F01010B510101CE
:10DBF8000927000E0A23010120EE02F00651D9265A
:10DC08000751DA22DF5001010C6F01010C510101AB
:10DC18000927000E0A230101085101010925010104
:10DC2800006F0101000E01010A210101016F000EC0
:10DC38000101036FC90E026FCCEC6AF000C10DF14F
:10DC480001C10EF101010D511200120001012C6FEA
:10DC580001012C51B3EC4FF0000E0101C76F000E0B
:10DC68000101D86F010E0101EF6F7F0E02010B6FEA
:10DC7800F00E0A6F7F0E0001A36FF00EA26F000E68
:10DC88002D6E100E2C6E070E01010E6F0D69040E1D
:10DC980001010F6F010EF8EC4AF0010E0001A225F8
:10DCA8000001A26FF80E0001A3210001A36F2C064A
:10DCB800D8A02D06070E356E3468090E05EC7DF0E8
:10DCC800000E01010D6F1E0E0C6F6EEC6AF05A0EFD
:10DCD80001010C250101266F000E01010D21010132
:10DCE800276F010E0101286F0E0E64EC71F012000F
:10DCF800100E0101466F1AC10BF11BC10CF1420E47
:10DD080001010D6F010E01010E6F4FEC46F01D0E63
:10DD180001011C6F2E0E01011D6F460E01011E6FC1
:10DD2800480E01011F6F430E0101206F010E010112
:10DD38000C6F000E0D6F020E0E6F000E0F6F0B0EA4
:10DD48000101106F000E116F000E126F000E136F9D
:10DD5800210E0101146F010E0101156F1EEC6FF009
:10DD68001AC10EF11BC10FF11C0E0101106F010E3B
:10DD78000101116F46C112F1000E0101136F010E6E
:10DD88000101146F000E0101156F1FEC4AF012001B
:10DD98001200100E0101466F1AC10BF11BC10CF1E4
:10DDA800420E01010D6F010E01010E6F4FEC46F09E
:10DDB8001D0E01011C6F2A0E01011D6F410E01018C
:10DDC8001E6F530E01011F6F460E0101206F010ED9
:10DDD80001010C6F000E0D6F020E0E6F000E0F6F1B
:10DDE8000B0E0101106F000E116F000E126F000E66
:10DDF800136F210E0101146F010E0101156F1EEC46
:10DE08006FF01AC10EF11BC10FF11C0E0101106F4A
:10DE1800010E0101116F46C112F1000E0101136FCD
:10DE2800010E0101146F000E0101156F1FEC4AF07D
:10DE380012001200000E0101166F000E176F000E7F
:10DE4800186F000E196F899E030E6BEC7CF00101B0
:10DE58000E516BEC7CF001010D516BEC7CF0010173
:10DE68000C516BEC7CF0000E0101166F000E176F61
:10DE7800000E186F000E196F17D00101165101011D
:10DE88001425D96E0101175101011521DA6E87ECAD
:10DE98007DF001010051DF6E010E01011627000E11
:10DEA80017231823192300D0010110510101165D11
:10DEB80001011151010117590101125101011859AC
:10DEC8000101135101011959D8A0D7D7898E120021
:10DED800000E0101036F070E0101036501D019D07F
:10DEE80001010351010DF35001010025D96EF450D1
:10DEF80001010121DA6E01010351010DBE0EF32467
:10DF0800E16E020EF420E26EDFCFE7FF0101032B82
:10DF1800E2D7000E0101036F070E0101036502D06D
:10DF28001200120001010351010DF35001010025F7
:10DF3800D96EF45001010121DA6EDE28D8A409D087
:10DF4800070E01010319D8A408D0000E0101C86FFB
:10DF580004D0010E0101C86F12000101032B070E46
:10DF680001010365DFD71200120011EC7EF0899ED3
:10DF7800020E6BEC7CF0010107516BEC7CF00101A7
:10DF880006516BEC7CF0010105516BEC7CF0000E46
:10DF980001010F6F000E106F000E116F000E126F4F
:10DFA80015D001010F5101010925D96E0101105148
:10DFB80001010A21DA6EDF506BEC7CF0010E0101E1
:10DFC8000F27000E10231123122300D001010B513B
:10DFD80001010F5D01010C510101105901010D51A1
:10DFE8000101115901010E5101011259D8A0D9D7C7
:10DFF800898EE4EC7DF012001200040E01010E255A
:10E008000101066F000E01010F210101076F10C108
:10E0180008F111C109F1040E01010A6F60EC78F0F2
:10E0280021EC7EF002C1D9FF03C1DAFF12C1E1FF82
:10E0380013C1E2FFDFCFE7FF0EC106F10FC107F101
:10E04800DD0E0101086F010E0101096F040E0101C7
:10E058000A6F19EC77F00009D8A412D00EC106F1A6
:10E068000FC107F1E10E0101086F010E0101096FEF
:10E07800040E01010A6F19EC77F00009D8B402D038
:10E08800010E1200000E12001200000E0001C66FF1
:10E098003E0E010108611200200E84EC5BF0800E38
:10E0A80084EC5BF001010851020FD0EC7DF0000117
:10E0B800B651D0EC7DF0000E0101096F21D00101AD
:10E0C8000951010DF35001010625D96EF4500101E3
:10E0D8000721DA6EDF500001C6190001C66F010181
:10E0E8000951010DF35001010625D96EF4500101C3
:10E0F8000721DA6EDF50D0EC7DF00101092B00D04A
:10E10800010108510101095DD8A0D9D70001C65104
:10E11800D0EC7DF01200120001010B6FFA0E010124
:10E128000B6112000BC10CF101010D6B0CC109F15F
:10E138000DC10AF10101D89009370A370101D890B9
:10E1480009370A3709C10CF10AC10DF1000E0101A6
:10E158000E6F030E01010E6502D0120012000101BC
:10E168000E5101010C250101046F000E01010D2162
:10E178000101056F01010E51010DF3500101072541
:10E18800D96EF45001010821DA6EDF500101066FE3
:10E1980034EC7DF001010E2B030E01010E65DFD773
:10E1A800120012001200000E0101106F000E0F6F16
:10E1B8000B0E366403D0000E366E00D03650020DBA
:10E1C8004B0EF324D96E030EF420DA6E0DC1DEFF78
:10E1D8000EC1DDFF000E0101116F0B0E010111656B
:10E1E80001D012D001011151020D4B0EF324D96E4A
:10E1F800030EF420DA6EDE5001010F27DD50010115
:10E2080010230101112BE9D70FC106F110C107F145
:10E21800000E0101096F0C0E086F78EC72F006C150
:10E228000FF107C110F1362A0FC10DF110C10EF11F
:10E2380012001200C5EC7DF00101046F0001D051FD
:10E24800D8A41CD001010429D8A403D004C1D1F05A
:10E2580007D0010104290001D16F0001D105466EE4
:10E26800400E0001D1650AD0400E0001D16F0001B7
:10E27800D105466E010E0201516F00D00001D15147
:10E288000001D05DD8B00ED00001D051010D800E34
:10E29800F324D96E050EF420DA6E04C1DFFF000105
:10E2A800D02B00D00001D1510001D019D8A4120000
:10E2B8000001D151D8B41200010E396E12001200BB
:10E2C80001012B6F010126291DE101012729D8A48D
:10E2D80019D001012B51020D000EF324D96E030E43
:10E2E800F420DA6EFF0EDE6EFF0EDD6E01012B519B
:10E2F800010D320EF324D96E030EF420DA6E28C114
:10E30800DFFF1200010E010126250101296F000E11
:10E318000101272101012A6F01012B51020D000E75
:10E32800F324D96E030EF420DA6E29C1DEFF2AC168
:10E33800DDFF01012B51010D320EF324D96E030EBE
:10E34800F420DA6E28C1DFFF12001200000E096EF9
:10E35800000E0A6E000E0B6E000E0C6E05500610B5
:10E3680007100810D8B42FD0010E0D6E07D0D89022
:10E3780005360636073608360D2A00D008BE02D004
:10E38800F6D700D0D89009360A360B360C36055029
:10E39800015C065002580750035808500458D8A08A
:10E3A8000AD00550015E0650025A0750035A085019
:10E3B800045A098000D0D890083207320632053254
:10E3C8000D2EE0D700D009C001F00AC002F00BC042
:10E3D80003F00CC004F012003D0E01015D6F1AC17C
:10E3E8001CF11BC11DF11AC159F11BC15AF10101E0
:10E3F8005B6B5C6B59C100F15AC101F15BC102F161
:10E408005CC103F1380E0101046F000E056F000EA8
:10E41800066F000E076FF4EC73F000C10CF101C138
:10E428000DF102C10EF103C10FF1380E0101106F99
:10E43800000E116F000E126F000E136F1E0E0101F9
:10E44800146F010E0101156F1EEC6FF01C0E010117
:10E45800066F010E0101076F5DC108F149EC70F00C
:10E4680012000101006F000E0101016F949E8B9E46
:10E47800948C1A0EE82EFED700D0000E0101026F10
:10E48800070E0101026501D015D00101D8900137AE
:10E498008B8E1A0EE82EFED700D082AC03D0010175
:10E4A800018100D08B9E1A0EE82EFED700D0010104
:10E4B800022BE6D7010100510101D8A403D08B9C9F
:10E4C800949C00D01A0EE82EFED700D08B8E1A0E20
:10E4D800E82EFED700D08B9E1A0EE82EFED700D06D
:10E4E8000101015112001200000E01010C6F000E13
:10E4F8000B6F0101085101010911D8B431D0010E87
:10E5080001010A6F07D00101D890083709370101C6
:10E518000A2B00D0010109BF02D0F5D700D00101B4
:10E52800D8900B370C37010108510101065D010134
:10E53800095101010759D8A00BD001010851010167
:10E54800065F010109510101075B01010B8100D040
:10E558000101D8900933083301010A2FE0D700D010
:10E568000BC106F10CC107F112000101006F00C1D7
:10E5780001F1949C949E000E0101026F1BD01ED0E5
:10E58800010101AF02D08B8C02D08B9C00D001011D
:10E59800D89001371A0EE82EFED700D08B8E1A0EAF
:10E5A800E82EFED700D08B9E1A0EE82EFED700D09C
:10E5B8000101022B070E01010265E2D7948C1A0EA5
:10E5C800E82EFED700D08B8E1A0EE82EFED700D08C
:10E5D800000E82BC010E0101026F8B9E1A0EE82EFE
:10E5E800FED700D00101025112001200000E0001F6
:10E5F800666F000E656F0001625100016311D8B4A7
:10E6080031D0010E0001646F07D00001D890623745
:10E6180063370001642B00D0000163BF02D0F5D737
:10E6280000D00001D89065376637000162510001BB
:10E63800605D0001635100016159D8A00BD0000151
:10E6480062510001605F000163510001615B0001DC
:10E65800658100D00001D890633362330001642FD4
:10E66800E0D700D065C060F066C061F01200000E0F
:10E6780001010D6F31D0010105510DC107F10101F3
:10E68800086B01010727000E08230101075101014A
:10E698000325D96E0101085101010421DA6E010137
:10E6A80002510DC10AF101010B6B01010A27000E8D
:10E6B8000B2301010A5101010025E16E01010B51F3
:10E6C80001010121E26EDE50E618D8B402D0000E36
:10E6D800120001010D2B00D00101065101010D5D51
:10E6E800D8A0C9D7010E12001200000E0101116F47
:10E6F800000E106F010111BF0AD00101115130E164
:10E708003F0E0101105DD8B02BD001D029D010C127
:10E7180000F111C101F1000E0101036F060E026F35
:10E7280067EC7AF0BD0E010100250101066F0A0EA3
:10E73800010101210101076F0EC108F10FC109F1A3
:10E74800040E01010A6F19EC77F00009D8B403D060
:10E758000101105112000101104B112BCBD700D031
:10E76800FF0E12001200100E01010C6F010E0101C4
:10E778000D6FF60E01010E6F010E01010F6F11EC06
:10E7880066F0000E0101246FDC0E0101006F030E1C
:10E798000101016F000E0101026F100E0101036FEC
:10E7A800010E0101046F150E0101056F240E010110
:10E7B800066F1AEC75F00101C851300F0101496F5D
:10E7C800100E0101046F010E0101056F3A0E0101DF
:10E7D800066F000E0101076F020EA8EC64F012002C
:10E7E800000E0101086F000E096F000E0A6F000E7F
:10E7F8000B6F00D0010100A111D0010104510101EA
:10E8080008270101055101010923010106510101F0
:10E818000A230101075101010B2300D00101D890FF
:10E8280004370537063707370101D8900333023319
:10E8380001330033010100510101011101010211ED
:10E8480001010311D8A4D6D708C100F109C101F10B
:10E858000AC102F10BC103F11200000E0001686F3A
:10E86800000E696F000E6A6F000E6B6F00D000011A
:10E8780060A111D0000164510001682700016551B1
:10E88800000169230001665100016A2300016751F4
:10E8980000016B2300D00001D890643765376637D4
:10E8A80067370001D8906333623361336033000106
:10E8B8006051000161110001621100016311D8A4C7
:10E8C800D6D768C060F069C061F06AC062F06BC0FA
:10E8D80063F0120001010251010100250101086FD6
:10E8E80001010351010101210101096F08C10AF168
:10E8F80009C10BF101010C6B0D6B10D00101045122
:10E9080001010A5F0101055101010B5B010106517B
:10E9180001010C5B0101075101010D5B010104516B
:10E9280001010A5D0101055101010B59010106515F
:10E9380001010C590101075101010D59D8B0DED769
:10E948000AC100F10BC101F11200060E0101446F6A
:10E9580018C10BF119C10CF1400E01010D6F010E28
:10E9680001010E6F4FEC46F01F0E01011A6F2A0EBF
:10E9780001011B6F530E01011C6F460E01011D6F33
:10E98800540E01011E6FD7C01FF118C10EF119C135
:10E998000FF11A0E0101106F010E0101116F44C130
:10E9A80012F1000E0101136F010E0101146F000E28
:10E9B8000101156F1FEC4AF012001200000E010150
:10E9C8001B6FDC0E0101006F030E0101016F000EC9
:10E9D8000101026F1B0E0101036F010E0101046F9B
:10E9E800010E0101056F240E0101066F1AEC75F086
:10E9F8000101C851300F0101406F18C10EF119C152
:10EA08000FF11B0E0101106F010E0101116F260E8F
:10EA18000101126F000E0101136F1AC114F1000EEB
:10EA28000101156F1FEC4AF012001200000E0101DF
:10EA38000B6F2DD0010102510BC107F10101086BC9
:10EA480001010727000E08230101075101010025D4
:10EA5800D96E0101085101010121DA6E0101055148
:10EA68000BC109F101010A6B01010927000E0A23F4
:10EA78000101095101010325E16E01010A5101015A
:10EA88000421E26EDFCFE7FF01010B2B00D001016B
:10EA9800065101010B5DD8A0CDD712000101046F0A
:10EAA80001010451020D000EF324D96E030EF42067
:10EAB800DA6EDE50DE10D8B418D001010451020D10
:10EAC800000EF324D96E030EF420DA6EDECF02F1C5
:10EAD800DDCF03F1FF0E010102250101006FFF0EDA
:10EAE800010103210101016F120001010451020D0E
:10EAF800000EF324D96E030EF420DA6EDECF00F197
:10EB0800DDCF01F11200120001010F5101011011B6
:10EB1800D8B42BD0010E0101116F07D00101D89094
:10EB28000F3710370101112B00D0010110BF02D09F
:10EB3800F5D700D001010F5101010D5D0101105100
:10EB480001010E59D8A009D001010F5101010D5F33
:10EB58000101105101010E5B00D00101D890103362
:10EB68000F330101112FE6D700D00DC10DF10EC1F1
:10EB78000EF112000001695100016A11D8B42BD0BE
:10EB8800010E00016B6F07D00001D89069376A3712
:10EB980000016B2B00D000016ABF02D0F5D700D06E
:10EBA800000169510001675D00016A51000168595F
:10EBB800D8A009D0000169510001675F00016A51BE
:10EBC8000001685B00D00001D8906A336933000106
:10EBD8006B2FE6D700D067C067F068C068F01200F6
:10EBE80014D0D00E0101026FCA0EE82EFED7022FF4
:10EBF800FCD7F60E010100250101006FFF0E01018F
:10EC080001210101016F040000D001010151E9E176
:10EC18000B0E0101005DD8A010D0E3D70ED0150E61
:10EC28000101026FC60EE82EFED7022FFCD700D0D6
:10EC380001010007D8A001070400010100510101EA
:10EC48000111D8A4ECD712000101026F3F0EC716BC
:10EC5800000EC66E01010251C61201010151C71210
:10EC680005D0C78C16D0C78CC68813D001010051B7
:10EC7800000AD8B4F6D7020AD8B4F5D7010AD8B42E
:10EC8800F3D707D09486928A0DD094860BD09496A9
:10EC980009D001010251040AD8B4F4D7010AD8B442
:10ECA800F4D7F5D79488949AC68A1200000E010109
:10ECB8000E6F0001DA5159EC7CF0040E01010C6F63
:10ECC800010E96EC60F00001A25101010C25010132
:10ECD800236F0001A35101010D210101246F8EEC66
:10ECE8007EF00101206F23C122F1010124510101AD
:10ECF800216F200E0101176F010E0101186F030E1D
:10ED08000101196F010E01011A6F2EEC4EF012006D
:10ED18002CD04604D8A405D07AEC7DF002014F6FC0
:10ED280000D00001D1510001D05DD8B00FD0000152
:10ED3800D051010D800EF324D96E050EF420DA6E41
:10ED4800C5EC7DF0DF6E0001D02B00D00001D15161
:10ED58000001D019D8A407D00001D151D8B403D0EC
:10ED6800010E396E00D0460600D04650D8A4D1D73F
:10ED780012002A8C02020CC177643277623238F8AA
:10ED88001180E938380700000507090CF200400037
:10ED9800D880FFFFFFFFFFFFFFFFFFFFFFFFFFFF21
:10EDA800FFFFFFFFFFFF010000006D4EC641A406F4
:10EDB800170001000800FF00010101FF01FFFFFF2C
:10EDC800FFFFFFFFFFFFFFFFFFFFFFFFFFFF000E3B
:10EDD8000101006F948C1A0EE82EFED700D0000EA9
:10EDE80082BC010E0101006F010100510101D8A48C
:10EDF800120001D01200949E000E0101006F080E4F
:10EE08000101006501D00DD08B8E1A0EE82EFED7B9
:10EE180000D08B9E1A0EE82EFED700D00101002BE1
:10EE2800EED76CEC7DF012001200000E01010D6FA0
:10EE38001FD001010D51010DF35001010825D96EB4
:10EE4800F45001010921DA6E01010D51010DF35051
:10EE580001010625E16EF45001010721E26EDE5042
:10EE6800E618D8B402D0000E120001010D2B00D014
:10EE780001010A5101010D5DD8A0DBD7010E120076
:10EE880012001D0E01011A6F250E01011B6FF6C13C
:10EE98001CF1F7C11DF1F8C11EF1F9C11FF1060EF1
:10EEA8000101406F18C10EF119C10FF11A0E0101CD
:10EEB800106F010E0101116F40C112F1000E010126
:10EEC800136F010E0101146F000E0101156F1FEC85
:10EED8004AF01200120028C13EF129C13FF1000E8C
:10EEE8000101406F000E0101416F2C0E01013C6FC2
:10EEF800010E01013D6F3E0E0101126F010E01016D
:10EF0800136F2AC114F12BC115F13C0E0101166FC4
:10EF1800010E0101176FEAEC19F03EC1D9FF3FC19C
:10EF2800DAFF000EDF6E120012000101BC51D8A4F6
:10EF380012000101BD51D8A412000101BF51D8A48B
:10EF480012000001CD51D8A412000001C851D8A464
:10EF580012000101D151D8A412004E50D8A41200B9
:10EF68000101CD51D8A412000101B751D8A4120053
:10EF78004F50D8B412006FEC7EF01200120001015D
:10EF880004510101096F010109510F0B0101096FBA
:10EF980003C106F105C108F103C107F10101D890C9
:10EFA8000837EBEC76F022EC7CF001010851B9EC63
:10EFB80072F00009D8A409D001010951B9EC72F026
:10EFC80001010751B9EC72F000D06CEC7DF0120031
:10EFD8002CC121F12DC122F13C0E0101236F010E3C
:10EFE8000101246F010E0101256F00EC40F02CC1D6
:10EFF8000EF12DC10FF179EC73F001012F6F2AC1C9
:10F0080015F12BC116F12FC117F12EC118F1000E01
:10F018000101196F010E01011A6F98EC27F0120017
:10F0280001012C6F000E0101EE6F2CC1C9F0000E1A
:10F0380001012E6F3E0E2D6F2DC100F12EC101F181
:10F04800000E0101036F1E0E026F67EC7AF000C11B
:10F058002DF101C12EF12DC126F12EC127F1000E8F
:10F068000101286F070E64EC71F01200000E010117
:10F07800346F000E0101356FEA0E0101366FF90E8B
:10F088000101376F2A0E0101326F010E0101336F42
:10F09800340E0101126F010E0101136F28C114F122
:10F0A80029C115F1320E0101166F010E0101176F0A
:10F0B800EAEC19F012001200000E01010B6F1BD0D0
:10F0C80001010B51010DF35001010625D96EF450D1
:10F0D80001010721DA6E01010B51010DF350010105
:10F0E8000825E16EF45001010921E26EDFCFE7FF48
:10F0F80001010B2B00D001010A5101010B5DD8A0C1
:10F10800DFD71200000E0001866F000E0001876F26
:10F118002A0E0001886FFA0E0001896F840E000123
:10F12800846F000E0001856F860E00016C6F000E63
:10F1380000016D6F82C06EF083C06FF0840E000115
:10F14800706F000E0001716F8EEC1EF0120012003D
:10F158000101026F00C101F10101013BC150010130
:10F168000119CF0B0119C16EC196C190C192C1940A
:10F1780002C101F1010101470147C2500101011912
:10F18800830B0119C26EC086C088C08AC050F80BB4
:10F198000609C06EC08EC2801200000E0101016F08
:10F1A8003E0E0101016501D01AD001010151060D81
:10F1B800040EF326000EF422BD0EF324D96E0A0EB7
:10F1C800F420DA6EDF500F0B0101006F020E01010F
:10F1D800006102D0010E12000101012BE1D7000EDF
:10F1E80012001200000E0101036F01010151030B0F
:10F1F800756E00C174FF02C173FF7F9E7F9C7F8480
:10F20800000EF2BE010E0101036FF29E550E7E6ED6
:10F21800AA0E7E6E7F8200D07FB2FED7010103B1B5
:10F2280002D0F29E01D0F28E7F941200000E0001EF
:10F238006B6F000169AF09D00001686D691FD8B014
:10F24800692B010E00016B6F00D068C060F069C0C7
:10F2580061F00001626B8E0E0001636F6BC064F099
:10F26800D2EC5DF060C068F061C069F062C06AF01D
:10F27800120012001A0E0101006F010E0101016F48
:10F2880044EC58F00101406F18C10EF119C10FF19B
:10F298001A0E0101106F010E0101116F40C112F128
:10F2A800000E0101136F010E0101146F000E010120
:10F2B800156F1FEC4AF0120012001D0E01011C6FA1
:10F2C8001AC11DF11BC11EF1030E0101426F18C1C5
:10F2D8000EF119C10FF11C0E0101106F010E010191
:10F2E800116F42C112F1000E0101136F010E0101ED
:10F2F800146F010E0101156F1FEC4AF012000FC1C7
:10F3080006F110C107F1E10E0101086F010E0101BC
:10F31800096F040E01010A6F60EC78F00101DD69E4
:10F328000101DE690101DF690101E069E10E010106
:10F33800066F010E0101076FD8EC6DF065EC7EF0E9
:10F3480012000101016F010101510101D8B409D076
:10F358000001D351D8B413D0899C8B9489801200B2
:10F368000ED0010100510101D8B409D00001D551D6
:10F37800D8B405D0898C8B948990120000D0899CD0
:10F388008B84899012000001616F000161510001B6
:10F39800D8B409D00001D351D8B413D0899C8B9428
:10F3A800898012000ED0000160510001D8B409D044
:10F3B8000001D551D8B405D0898C8B94899012005E
:10F3C80000D0899C8B84899012000101026F010191
:10F3D8000251020D000EF324D96E030EF420DA6EEA
:10F3E800DE04DE10D8A40FD001010251020D000E78
:10F3F800F324D96E030EF420DA6E000EDE6E000ED2
:10F40800DD6E010E1200000E120012000101036FE2
:10F418000101035103250101046F01010451900FFB
:10F428000101046FEBEC76F022EC7CF00101045151
:10F43800B9EC72F00009D8A404D06CEC7DF0010E90
:10F4480012006CEC7DF0000E120012000101006F3A
:10F45800010100510101D8A409D0D59E000ED76E34
:10F46800000ED66E850ED56ED58E1200030E0101E4
:10F478000019D8A41200000EB36E000EB26E8C0EE6
:10F48800B16EA292A192B180120012000101046F24
:10F4980001010451D8090101056F05C102F13C0EB3
:10F4A800BAEC7AF0C80E0101056F05C102F11A0E17
:10F4B800BAEC7AF0000E0101056F05C102F13E0EAB
:10F4C800BAEC7AF012000101005101010203F3CFF6
:10F4D80004F1F4CF05F10101005101010303F350D8
:10F4E800010105270101015101010203F350010146
:10F4F800052704C100F105C101F112001200000145
:10F50800605100016203F3CF64F0F4CF65F00001AD
:10F51800605100016303F350000165270001615148
:10F5280000016203F3500001652764C060F065C004
:10F5380061F01200120001012C6F01012C51010130
:10F54800D8B404D0010E0101EF6F1200000E0101C2
:10F55800EF6F010E0101276F680E266F010E010182
:10F56800286F0F0E64EC71F0120012000101036F96
:10F578008994010103516BEC7CF0E40E00D000D0BB
:10F58800E82EFCD700D000D0010102516BEC7CF0D2
:10F59800E40E00D000D0E82EFCD700D000D089843B
:10F5A8001200000E01010C6F010E96EC60F00101D3
:10F5B8000C1F01010D1F01010C4B0D2B3E0E01010B
:10F5C8000C250101176F000E01010D210101186FB3
:10F5D800120012000101006F060E0101006102D045
:10F5E800000E03D001010051FB0F0101016F070E4E
:10F5F8000101016503D0070E0101016F01010151ED
:10F6080012001200000E0101056F000E0101066FC5
:10F618000BD01C0ED0EC7BF00101066F01010651E6
:10F62800020B0101056F00D0010105510101D8B499
:10F63800F0D71200000E0101276F010E266F010E90
:10F648000101286F020E64EC71F0000E0101276FB2
:10F65800010E266F010E0101286F030E64EC71F094
:10F6680012000101026F000E0101016F3A0E010143
:10F67800026108D02F0E0101026504D0010E0101BC
:10F68800016F00D001C100F1010100311200120028
:10F69800000E0101276F010E266F000E0101286F71
:10F6A800040E64EC71F0000E0101276F050E266F41
:10F6B800010E0101286F130E64EC71F012000001B5
:10F6C800626F000E0001616F3A0E0001626108D09E
:10F6D8002F0E0001626504D0010E0001616F00D099
:10F6E80061C060F0000160311200120011EC7EF080
:10F6F800899E200E6BEC7CF0010107516BEC7CF0CD
:10F70800010106516BEC7CF0010105516BEC7CF0BA
:10F71800898EE4EC7DF0120008C100F109C101F105
:10F728000101026B8E0E0101036F000E0101046FCF
:10F7380042EC5DF000C108F101C109F102C10AF112
:10F74800120012000101006F080E0001CF611200C3
:10F758000001CF51010D000EF324D96E020EF420E2
:10F76800DA6E00C1DFFF0001CF2B12001200010189
:10F77800036F03C100F10101016B240E0101026F47
:10F78800F1EC5EF003C100F10101016B240E0101EF
:10F79800026FF1EC5EF012000101046F899401011F
:10F7A800045140090101046F010104516BEC7CF024
:10F7B80087EC7DF000C103F1898401010351120037
:10F7C80012000001646F899400016451400900012E
:10F7D800646F000164517DEC7CF094EC7DF060C0B6
:10F7E80063F0898400016351120012000101026F65
:10F7F80001010251020D000EF324D96E030EF4200C
:10F80800DA6EDE50DE10D8A402D0010E1200000E0F
:10F81800120012004D2A4D504418D8A41200000EB0
:10F828000001C86F000E0001606F000EC7EC79F090
:10F83800000E4D6E000E446E12001200948C1A0ECB
:10F84800E82EFED700D08B8E949E8B9C949C1A0E2B
:10F85800E82EFED700D08B9E1A0EE82EFED700D0D9
:10F868001200020E01010C6F0AC10DF10BC10EF15D
:10F878000D0E0101066F010E0101076F0CC108F1A1
:10F8880049EC70F01200000E0101036F899E050E0D
:10F898006BEC7CF087EC7DF0010100510101036FF6
:10F8A800898E010103511200120001010F6F01013D
:10F8B8000F515018D8B4120001D012000EC104F133
:10F8C80001010F5169EC4DF00FC150F01200010118
:10F8D800016FC9CF00F19E96C69E01C1C9FFC6BE81
:10F8E800120002D0120000D09EB61200FDD71200FE
:10F8F80012000001616FC9CF60F09E96C69E61C07C
:10F90800C9FFC6BE120002D0120000D09EB6120077
:10F91800FDD712001200E9C220F1200E0101176F75
:10F92800010E0101186F010E0101196F010E01018D
:10F938001A6F2EEC4EF012000101066F01010651FC
:10F94800010B0001D36F010106510E0B0101056F78
:10F958000101055125EC7DF012000101036F000142
:10F96800BA51D8B41200000E0101016F020E006FE7
:10F9780003C102F1F1EC5EF012001200D08EF29099
:10F98800F28CF196F1920F015A9F0F015A9D0F01C7
:10F998005A9B0F015A99F286F190F28E12000001DB
:10F9A800636F0001BA51D8B41200000E0001616FF4
:10F9B800020E606F63C062F07EEC5FF0120012000E
:10F9C800000162510201D627000163510201D723C9
:10F9D800000164510201D823000165510201D923B5
:10F9E80012000101046F0001D451D8A404D0000111
:10F9F800BE51D8B4120001010451B1EC7CF01200E0
:10FA080012000101006F01010051020D000EF324E4
:10FA1800D96E030EF420DA6E000EDE6E000EDD6E77
:10FA280012000001646F0001D451D8A404D0000171
:10FA3800BE51D8B4120000016451D3EC7CF012001E
:10FA480012000101046F0201B851F00B0101041109
:10FA58000201B86FB8C202F1340EBAEC7AF01200A3
:10FA6800010E0101DC6F9AEC7EF004C100F105C1C2
:10FA780001F106C102F1F6EC78F01200200E84ECD8
:10FA88005BF0400E84EC5BF0FFEC7DF006EC7BF065
:10FA9800600E84EC5BF0120001010151030B756EDE
:10FAA80000C174FF7F9C7F9E7F8000F000F0735040
:10FAB800120012000101006F00C1C7F101010051DD
:10FAC8000101D8A41200010E0101EF6F120012000B
:10FAD8008B9C949C1A0EE82EFED700D0949E8B8E99
:10FAE8001A0EE82EFED700D0948C12003C0ED0ECF3
:10FAF8007BF00101056F010105A102D0010E120082
:10FB0800000E12001200C9CF02F19E96000EC96EB7
:10FB180000D09EA6FED7C9CF00F10101016B1200EB
:10FB2800C9CF62F09E96000EC96E00D09EA6FED781
:10FB3800C9CF60F00001616B12000101046F04C1BC
:10FB4800B6F004C1BBF2BBC202F13A0EBAEC7AF0CD
:10FB580012000101006F010100510101D8B402D067
:10FB6800939612009386120012000101006F0101A2
:10FB780000510101D8B402D08A8412008A9412007C
:10FB880012008984899287EC7DF000C103F1898293
:10FB980001010351120012000101026F8984899248
:10FBA800010102516BEC7CF0898212005228D8B412
:10FBB80002D0522A02D0000E526E52501200120089
:10FBC80000D047EC7CF00101046F010104B1F9D7C2
:10FBD800120000D047EC7CF00101046F010104A37E
:10FBE800F9D712000101496F48C12CF101014951AF
:10FBF80020EC2FF01200070E0101046F04C102F17E
:10FC08001C0EBAEC7AF012000101016B006BC2A263
:10FC180002D00101002B12001200899E060E6BEC27
:10FC28007CF0898EEDEC7DF0120000C1D2F201C1AA
:10FC3800D3F20201D46BD56B120029EC7EF000C11F
:10FC480002F101C103F112001200D60E0101006F8A
:10FC5800000E0101016F1200120002C100F103C180
:10FC680001F150EC7DF012001200FF0F080101FFB6
:10FC78000101010160FFFFFFFF000101066F0101A3
:10FC8800065148EC7EF012000101056F0101055193
:10FC9800A1EC7DF01200070E0101016F006912004E
:10FCA8001200280EE5EC7BF00FEC6AF0120002015E
:10FCB800B8510E0B120012000101006F00C1EDF1E6
:10FCC80012000101006F00C1CEF11200B5C100F1B0
:10FCD800B6C101F11200D39ED18E030004001200B8
:10FCE800B5C160F0B6C161F0120077C0B5F178C057
:10FCF800B6F112000103FFFF00C201000101ED513E
:10FD0800120012000001B6511200120092EC7EF0AF
:10FD1800120012000001C551120012000001BF516B
:10FD2800120012000101C7511200120000D07FB268
:10FD3800FED712000201E051120012000001C55165
:10FD4800120012000001BF5112001200FA0E120038
:10FD58001200000E12001200FF3C0319C2821200AA
:04FD68001200120073
:10FE60000001000A006400E80310270100100000F0
:10FE7000010010000111100200656D447269766581
:10FE8000542C2531752E2533752C2531752E2532B0
:10FE9000752C2531752C2531752C2531752C253384
:10FEA000752C30303030302C003C453E4E6F742085
:10FEB000416C6C6F77656420746F2073656E643C71
:10FEC0002F453E004D6173743A203078253032580A
:10FED00025303258253032582530325820004944D8
:10FEE0003A20307825303258253032582530325873
:10FEF0002530325820003C453E7374627920776883
:10FF0000696C6520696E743C2F453E003C453E4758
:10FF10006F696E6720746F205458313C2F453E0046
:10FF20003C453E5265637620583220444154413C62
:10FF30002F453E004669726D776172653A207632D0
:10FF40002E32313520003C453E52656376205832D2
:10FF50002042433C2F453E003C543E476574526569
:10FF600066726573683C2F543E003031323334354D
:10FF7000363738394142434445460047726F757001
:10FF80003A2030782530325820003C543E52656685
:10FF9000726573683C2F543E004E6F64653A2030A2
:10FFA00078253032582000436F723A20253032587D
:10FFB00020004261743A2025303458200053533ACF
:10FFC000202530325820005070723A2025692000D8
:10FFD000547970653A20003C2F44413E003C2F5537
:10FFE000413E005744525354003C44413E003C556E
:10FFF000413E0025632000424F5200504F52000006
:020000040020DA
:08000000FFFFFFFFFFFFFFFF00
:020000040030CA
:0E0000001D981B36FF8980FF0FC00FE00F40D8
:00000001FF
