:040000000EEF00F00F
:0400080004EF04F00D
:100018000CEF04F086EF03F0000E276E000E036E5F
:10002800000E046E020E056E000E066E010E076EBF
:10003800000E086E000E096E000E0A6E270E0B6E7B
:10004800000E0C6E19EC02F02704D8A42FD1FF0E75
:100058001F6E000E206E000E216E000E226E000E26
:10006800236E000E246E000E256E000E266E000E06
:10007800036EF80E046E000E056E000E066E040E7A
:10008800076E000E086E000E096E000E0A6E1F0E37
:100098000B6E000E0C6E19EC02F0040E036EF80ED7
:1000A800046E000E056E000E066E040E076E000E3E
:1000B800086E000E096E000E0A6E230E0B6E000EFF
:1000C8000C6E19EC02F0000E306E000E286E080E51
:1000D800296E000E2A6E000E2B6E2B5067E12A0443
:1000E800D8B064D001D062D03050010D1B0EF3247B
:1000F800D96E000EF420DA6E000E2824036EF80E76
:100108002920046EFF0E2A20056EFF0E2B20066E96
:1001180036EC03F0DF6E3050010D1B0EF324D96E60
:10012800000EF420DA6EDF50166E16C017F0186A4B
:10013800196A1A6A1750235E1850245A1950255AFA
:100148001A50265A020E306421D030C016F0FD0E27
:100158001626030E1616D8A419D0FD0E166EFF0E1D
:10016800176E3050010D1650F3261750F4221B0E4F
:10017800F324D96E000EF420DA6EDE501F1ADE501A
:10018800201ADE50211ADD50221A00D0302A040E1F
:100198003018D8A402D0000E306E0400010E2826B4
:1001A800000E29222A222B2298D700D01F50201077
:1001B80021102210D8A47AD02350241025102610FC
:1001C800D8A474D0000E016E080E026E000E036EE5
:1001D800000E046EFF0E056EFF0E066E000E076E13
:1001E800000E086EDEEC01F0000E2C6E080E2D6E6F
:1001F800000E2E6E000E2F6E2F5055E12E04D8B033
:1002080052D001D050D0000E2C24036EF80E2D20B1
:10021800046EFF0E2E20056EFF0E2F20066E040EB4
:10022800076E000E086E000E096E000E0A6E1B0E99
:100238000B6E000E0C6E19EC02F02CC001F02DC0F4
:1002480002F02EC003F02FC004F0000E066E040E5C
:10025800056E1B0E076E000E086E5DEC01F00400C3
:100268002CC001F02DC002F02EC003F02FC004F006
:10027800290E056E000E066E000E076E000E086E43
:1002880053EC02F00150021003100410D8A403D05C
:100298006EEC03F000D0040E2C26000E2D222E2228
:1002A8002F22AAD700D0010E120000D0000E120093
:1002B8001200000E0D6E000E0E6E01C012F002C08C
:1002C80013F003C014F004C015F0060E096ED890A0
:1002D8000432033202320132092EF9D7060ED890C1
:1002E8000136023603360436E82EF9D7400E0126C9
:1002F800000E0222032204221250000801240D6E6F
:1003080054D012C00FF013C010F014C011F01FD059
:1003180007C0D9FF08C0DAFFDF500FC0F6FF10C0D2
:10032800F7FF11C0F8FFF56E0C00074A082A010E06
:100338000F26000E1022000E11220506D8A0060670
:1003480005500610D8B407D002D005D000D00D064D
:100358000D28D8A4DDD70FC00AF010C00BF011C0CB
:100368000CF012C00FF013C010F014C011F07F8E03
:100378007F9C7F84F2AE03D0F29E010E0E6E550E66
:100388007E6EAA0E7E6E7F827F940E50D8B403D004
:10039800F28E000E0E6E400E0D6E0A50126E0B504D
:1003A800136E0C50146E156A00D005500610D8A4B0
:1003B800A8D71200000E096E01C00AF002C00BF0A7
:1003C80003C00CF004C00DF025D00CC0F8FF0BC022
:1003D800F7FF0AC0F6FF7F8E7F9C7F847F88F2AE8E
:1003E80003D0F29E010E096E550E7E6EAA0E7E6E29
:1003F8007F820950D8B402D0F28E00D0400E0A2471
:100408000A6E000E0B200B6E000E0C200C6E000EF8
:100418000D200D6E05500A5C06500B5807500C58FD
:1004280008500D58D8A0D1D71200000E0D6E000E3E
:100438000E6E000E0F6E000E106E899E030E5DECA0
:1004480003F005505DEC03F004505DEC03F003503D
:100458005DEC03F0000E0D6E000E0E6E000E0F6EBA
:10046800000E106E10D00D500B24D96E0E500C20BB
:10047800DA6E7BEC03F0DF6E010E0D26000E0E2205
:100488000F22102200D007500D5C08500E5809505A
:100498000F580A501058D8A0E6D7898E1200055078
:1004A800061007100810D8B429D0010E096E07D01D
:1004B800D8900536063607360836092A00D008BE11
:1004C80002D0F6D700D00550015C065002580750FC
:1004D800035808500458D8A009D00550015E0650AA
:1004E800025A0750035A0850045A00D0D8900832CC
:1004F800073206320532092EE6D700D001C001F0D6
:1005080002C002F003C003F004C004F01200036E3E
:100518003F0EC716000EC66E0350C6120250C71211
:1005280005D0C78C15D0C78CC68812D00150000AD8
:10053800D8B4F7D7020AD8B4F6D7010AD8B4F4D792
:1005480007D09486928A0CD094860AD0949608D0C4
:100558000350040AD8B4F5D7010AD8B4F5D7F6D7AA
:100568009488949AC68A1200E3EC02F0000E016E99
:10057800800E026E020E8BEC02F093968A96010EA4
:10058800346E10EC00F000D04CEC03F00009D8A455
:1005980010D093968A86000E026EC80E016E0DEC7E
:1005A80003F09386000E026EC80E016E0DEC03F088
:1005B800F0D79386938600EF04F00EEF00F07C0EE0
:1005C800D36E9B8CD2909B8E200E926EBD0E936E36
:1005D800930E946E860E806E070E816E040E826EE8
:1005E800100E0F015D6F000E0F015C6FF19E0F0181
:1005F8005B810F015B930F015B950F015B970F0107
:100608005B990F015B9B0F015B9D0F015B9FD18085
:1006180012000FD0D00E036ECA0EE82EFED7032E9E
:10062800FCD7F60E0124016EFF0E0220026E0400B4
:1006380000D00250EFE10B0E015CD8A00ED0EAD733
:100648000CD0150E036EC60EE82EFED7032EFCD76F
:1006580000D00106D8A00206040001500210D8A458
:10066800F0D71200000E076E899E030E5DEC03F0B2
:1006780005505DEC03F004505DEC03F003505DECB5
:1006880003F07BEC03F0076E898E0750120012000E
:10069800000EF86E080EF76E000EF66E0800F5CF25
:1006A80001F00128D8A402D0000E1200010E120099
:1006B8001200026EC9CF01F09E96C69E02C0C9FF05
:1006C800C6BE120002D0120000D09EB61200FDD79E
:1006D800120012003450D8B404D09386000E346E41
:1006E800120093968A86010E346E12001200C9CF4A
:1006F80001F09E96000EC96E00D09EA6FED7C95086
:1007080012001200346A336A326A316A000EF86ED7
:060718000001B8EF02F041
:0408000010EF05F000
:10080800FACF7BF0FBCF7CF0E9CF7DF052EF64F0BC
:10081800D8CF30F0E8CF31F0E0CF32F0FACF33F074
:10082800FBCF34F0E9CF35F0EACF36F0E1CF37F03F
:10083800E2CF38F0D9CF39F0DACF3AF0F3CF3BF046
:10084800F4CF3CF0F6CF3DF0F7CF3EF0F8CF3FF0D5
:10085800F5CF40F0B8D0000E436EF2A07FD081CF24
:1008680041F000F0F29041A876D0600E0101B01975
:10087800D8A45AD00101C251D8A434D00101BC5126
:10088800D8A430D031EC76F00101E86F040E0D6E7B
:10089800010EB5EC61F00DC018F00EC019F010ECA7
:1008A80076F0D3B606D001D004D0010E0101C56F91
:1008B80000D0ECEC75F00BEC76F00001AA510126A3
:1008C8000001AB51022201C003F002C004F0056A26
:1008D800066A11EC75F0010E0101AC6F010E010101
:1008E800C26F39D00101BC51D8B407D0EA0E0D6EE1
:1008F800FE0E0E6E1DEC36F02ED035EC76F00009AB
:10090800D8B407D0120E0D6EFF0E0E6E1DEC36F029
:1009180007D0FE0E0D6EFE0E0E6E1DEC36F000D0EA
:10092800010E0101AD6F17D0800E0101B019D8A4D6
:1009380006D0010E0101AF6F38EC73F00CD0200E19
:100948000101B019D8A407D0D40E0D6EFE0E0E6E9C
:100958001DEC36F000D0010E436E00D09EBA9DAA61
:1009680035D095EC72F0426E9E9AABA20ED04F0E27
:10097800AB16AC9ACF0E9D1677EC53F06A0E0D6E3F
:10098800FF0E0E6E1DEC36F01ED0ABA407D0590E2C
:100998000D6EFF0E0E6E1DEC36F015D0A7A207D017
:1009A8006C0E0D6EFE0E0E6E1DEC36F00CD0000EA9
:1009B800026E010E016E42C003F08BEC5BF0640E18
:1009C8000101C16F00D0010E436E00D04350D8A47E
:1009D80042D740C0F5FF3FC0F8FF3EC0F7FF3DC01B
:1009E800F6FF3CC0F4FF3BC0F3FF3AC0DAFF39C062
:1009F800D9FF38C0E2FF37C0E1FF36C0EAFF35C093
:100A0800E9FF34C0FBFF33C0FAFF32C0E0FF31C05A
:100A1800E8FF30C0D8FF1000FDEF57F0000ED0B649
:100A2800010E0201E46F000ED0B2010E0201F76F51
:100A3800000ED0B0010E0201F66F000E0101C36F67
:100A480004EC59F0030E00018C6FE80E8B6F0EEC6E
:100A58006EF0030E00018C6FF00E8B6FE9EC74F0F2
:100A68000101C96F0101C929D8B404D0010E0201DE
:100A7800446F00D081EC58F006D08A94938601EC3C
:100A880076F081EC58F098C0A4F199C0A5F100D097
:100A98000101A5BFF2D73E0E0101A45D080E0101B8
:100AA800A559D8A0EAD708EC71F0360E00018C6F72
:100AB800B00E8B6F0EEC6EF0020144510201D8A407
:100AC8000ED00101A5BF0BD0870E0101A45D0B0E4E
:100AD8000101A559D8A003D0DEEC62F000D0000EC9
:100AE80000018B6F000E00018C6F020E42EC6EF05D
:100AF800040059EC3CF00400EDC28BF000018C6B53
:100B0800B1EC75F0ECEC73F0010E516E0201E4519A
:100B18000201D8A413D0E30E00019D6FFF0E00015F
:100B28009E6FC0EC31F0000E00018C6F040E8B6FCD
:100B3800060E00018D6FF2EC56F02CD00201F75131
:100B48000201D8B418D00201F6510201D8A413D07A
:100B5800F70E00019D6FFF0E00019E6FC0EC31F093
:100B6800000E00018C6F040E8B6F070E00018D6F55
:100B7800F2EC56F00FD00201F7510201D8A40AD0C6
:100B8800FB0E00019D6FFF0E00019E6FC0EC31F05F
:100B9800D08200D0000EADEC66F0D00E00019D6F43
:100BA800FF0E00019E6FC0EC31F0470E00019D6FF3
:100BB800FE0E00019E6FC0EC31F0F30E00019D6F38
:100BC800FF0E00019E6F300E0101BB2500019F6FD3
:100BD8000001A06B000EA023C0EC31F0B20E0001A2
:100BE8009D6FFF0E00019E6FA4C19FF0A5C1A0F0EC
:100BF800C0EC31F0BC0E00019D6FFE0E00019E6F2F
:100C0800EAC29FF00001A06BEBC2A1F00001A26B49
:100C1800ECC2A3F00001A46BEDC2A5F00001A66B25
:100C2800C0EC31F0A20E00019D6FFE0E00019E6F18
:100C3800F0C19FF00001A06BF1C1A1F00001A26B0F
:100C4800F2C1A3F00001A46BF3C1A5F00001A66BEB
:100C5800C0EC31F0990E00019D6FFF0E00019E6FF0
:100C68003FEC76F00101936F0101935100019F6FF2
:100C7800A06BC0EC31F08A0E00019D6FFF0E0001E1
:100C88009E6FBDC19FF00001A06BC0EC31F0360E25
:100C980000019D6FFF0E00019E6FC0EC31F0A70EA2
:100CA80000019D6FFF0E00019E6FC9C19FF00001FA
:100CB800A06BC0EC31F0C70E00019D6FFF0E000164
:100CC8009E6F81BA02D0010E01D0000E00019F6F05
:100CD800A06BC0EC31F0EA0E00019A6F020E000121
:100CE8009B6F4DEC71F0EAEC3EF0F5EC72F0000E03
:100CF8000001A76F1E0EA66F010E0001A86F040E5B
:100D080086EC6AF0000E0501D26F000E0001916FAB
:100D1800000E926F020E936F000E946F010E000189
:100D2800956F000E966F000E976F000E986FD20E9B
:100D38000001996F050E00019A6FF4EC67F0050148
:100D4800D205D8A41ED0000E0501D26F000E0001F6
:100D5800906F000E916F020E926F000E936FD20E7D
:100D68000001946F050E0001956F010E0001966F4A
:100D7800000E976F000E986F000E996F22EC69F0C5
:100D880000D0EA0E0001916F020E0001926FD10EA1
:100D98000001936F010E0001946F040E0001956F1E
:100DA8005DEC6FF00009D8B403D00400FED700D082
:100DB80042EC75F0000E516E00D00101CC510101DA
:100DC800D8A48CEF0CF0000EB2EC71F00101CF51F9
:100DD8000101D8B402D0FF0000D0000E02015C6F00
:100DE80004000101AB51D8B483D00101B051D8B48B
:100DF8001CD07CEC72F0A2C036F2A3C037F202011C
:100E080037510CE11F0E0201365DD8B007D0000E35
:100E180001012B6F010E06EC1AF007D0000E01013C
:100E28002B6F000E06EC1AF000D00101EA51010107
:100E3800D8B426D0F00E0001966F010E0001976F0E
:100E4800C30E0001986F050E0001996F4CEC41F03C
:100E58000101936F1F0E0101936112D0F00E000182
:100E6800A36F010E0001A46F000E0001A56FFEEC38
:100E78006CF00009D8B404D0000E0101EA6F00D06C
:100E8800000E0101AB6F3E0E24EC34F0DC0E0001C5
:100E98008B6F010E00018C6FAAEC4EF016EC38F047
:100EA8001DEC76F00009D8B423D00201E351020109
:100EB800D8B41ED0010E516EBD0E00019D6FFF0EFD
:100EC80000019E6FB9EC75F08DC0D9FF8EC0DAFFB6
:100ED800DF500101936F0101935100019F6FA06BD7
:100EE800C0EC31F0000E516E000E0201E36F00D02D
:100EF8007CEC72F0A2C036F2A3C037F2020137517F
:100F080005E1070E0201365DD8A02AD0020137514B
:100F180027E11F0E0201365DD8B022D00101C85169
:100F2800D8B41ED0C90E0001996F050E00019A6F42
:100F3800B00E00019B6F030E00019C6FB1C19DF0C4
:100F4800000E00019E6F010E00019F6F000E000150
:100F5800A06FDFEC46F000D0000E0101C86F00D092
:100F68000101AD51D8B409D0000E0101AD6F200EBA
:100F7800B3EC54F0600EB3EC54F00101C251D8B494
:100F88003AD0FCEC75F08BC0A2F08CC0A3F0040E34
:100F98000001976F010E6CEC56F097C0A4F098C052
:100FA800A5F0E6EC75F000018BC0A6F000018CC03E
:100FB800A7F00001A86BA96BDBEC5EF0A2C0C7F537
:100FC800A3C0C8F54B0E0501C75D010E0501C85940
:100FD800D8A011D00101AC51D8B40AD00101BC513C
:100FE800D8A406D0D9EC68F0000E0101AC6F00D08F
:100FF800D9EC6DF000D0720E0001996F030E00015C
:101008009A6FDF0E00019B6F010E00019C6F47EC89
:1010180042F00009D8B452D0720E01010D6F030ED0
:1010280001010E6FDFC10FF1C5C110F1E8C111F167
:10103800FBEC2BF00009D8B43AD0750E0001996F7B
:10104800030E00019A6F940E00019B6F020E0001BF
:101058009C6FD00E00019D6F050E00019E6F6AEC1B
:1010680069F00009D8B423D00B0E0501CF6F940E98
:1010780001016E6F020E01016F6F0501CF51010D65
:10108800720EF3240101706F030EF4200101716FD9
:101098000501CF5100080101DF250101726FD0C59C
:1010A80073F1000E0101746F95EC13F000D0000E7F
:1010B8000101C26F000E0101C56F00D0030E0101CE
:1010C800DC19D8A414D0030E0101DD19D8A40FD05F
:1010D800000E0101DC6F000E0101DD6F030E00013F
:1010E8008B6F010E48EC76F00101B98944D0020EED
:1010F8000101DD19D8A40CD0000E0101DD6F020E2C
:1011080000018B6F010E48EC76F00101B98733D0EE
:101118000101DD05D8A40CD0000E0101DD6F010E20
:1011280000018B6F010E48EC76F00101B98523D0E0
:10113800020E0101DC19D8A40ED0000E0101DC6FEB
:101148000BEC5CF0020E00018B6F000E48EC76F0A1
:101158000101B98310D00101DC05D8A40CD0000E20
:101168000101DC6F010E00018B6F000E48EC76F078
:101178000101B98100D00101AF51D8B42BD0000EC4
:101188000101AF6F800E0101B019D8A411D001017F
:10119800CB510101D8A405D00101CC510101D8B42B
:1011A80007D0000EB3EC54F0000E0101CB6F10D045
:1011B800800E0101B019D8A40BD00101BC51D8A4EC
:1011C80007D0200EB3EC54F0600EB3EC54F000D00E
:1011D800040000D0000E00018C6F010E8B6FE00E32
:1011E80000018D6F010E00018E6F23EC4AF000099B
:1011F800D8B408D0E0C18BF0010E3CEC76F00101C8
:10120800AA6F07D00101C151D8B403D00101C107A9
:1012180000D00101AA51D8B469D104010151C00B11
:101228000501D36F0501D345E846030B0501D36FCC
:10123800EE0E00019D6FFF0E00019E6FC0EC31F0B5
:101248000501D3510501D8A407D1000E0101B36FE0
:101258001DEC76F00009D8B43DD1000E00018B6F6B
:10126800040E00018C6F020E00018D6FD10E00017B
:101278008E6F010E00018F6F000E0001906F040E3B
:101288000001916F94EC6BF00009D8B4BBD00A0E42
:101298000101B16FD5C1B0F3D6C1B1F3D7C1B2F373
:1012A800D8C1B3F31D0E0301B46F2B0E0301B56F44
:1012B80002C4B6F303C4B7F304C4B8F305C4B9F35E
:1012C800010E516E0101DF51FA0F0101DF6F000EAF
:1012D80000018C6F020E8B6F240E00018D6FF2ECF3
:1012E80056F0000E00018C6F020E8B6F240E000169
:1012F8008D6FF2EC56F0000E00018C6F020E8B6FB2
:101308000101DF51040F00018D6FF2EC56F0000E61
:1013180000018C6F020E8B6F000E00018D6FF2ECD6
:1013280056F0000E0501CD6F000E0501D16F22D0D9
:10133800000E00018C6F020E8B6F0501D151010D5B
:10134800B00EF324D96E030EF420DA6EDF500001DC
:101358008D6FF2EC56F00501D151010DB00EF3245A
:10136800D96E030EF420DA6EDF500501CD1B05019E
:10137800D12B00D0FF0E0101936FFF0E0101946F76
:101388000101B1510101956F966B01019351010162
:10139800952701019451010196230501D1510101BD
:1013A800976F986B010195510101975D0101985163
:1013B800800A0101996F01019651800A010199592A
:1013C800D8A0B6D7000E00018C6F020E8B6FCDC56A
:1013D8008DF0F2EC56F0000E00018C6F020E8B6F50
:1013E8000D0E00018D6FF2EC56F0000E00018C6FAF
:1013F800020E8B6F0A0E00018D6FF2EC56F0000E94
:10140800516E68D00101DE51F80F0101B16F020E73
:101418000301B06F000E00018B6F040E00018C6F8A
:10142800060E00018D6FB00E00018E6F030E0001D5
:101438008F6F010E0001906FB1C191F08FEC68F0D1
:1014480002C4C9F503C4CAF504C4CBF505C4CCF578
:10145800010E0101C86F3ED0020E0501D319D8A4B0
:1014680039D0020E0101B36F1DEC76F00009D8B433
:1014780031D0020E0001996F040E00019A6FBF0E61
:1014880000019B6F050E00019C6FCE0E00019D6F41
:10149800050E00019E6F6AEC69F00009D8B41AD0F5
:1014A800060E01016E6F040E01016F6F0A0E010135
:1014B800706F040E0101716F0101DE51F30F01011C
:1014C800726F280E0101736F010E0101746F95ECA4
:1014D80013F000D0000E0101AA6FDD0E00019D6F10
:1014E800FF0E00019E6FC0EC31F000D0010E91ECB0
:1014F80071F00009D8B417D0050E0001A76FA00E2F
:10150800A66F020E0001A86F0C0E86EC6AF00D0E95
:1015180065EC74F00101CB510101D8B404D0000E80
:101528000101CB6F00D00A0E91EC71F00009D8B41C
:1015380020D0F00E0001916F010E0001926FD10EC4
:101548000001936F010E0001946F040E0001956F66
:101558005DEC6FF00009D8A40CD0F00E0001A36F69
:10156800010E0001A46F000E0001A56F31EC44F0DC
:1015780000D00B0E91EC71F00009D8B415D0000E14
:101588000201236F000E226F000E0201256F000E6C
:10159800246F000E0201396F000E386F000E020131
:1015A8003B6F000E3A6F00D0000E91EC71F000090D
:1015B800D8B404D0000E0101B96F00D00B0E8DEC29
:1015C80073F00009D8B40BD0050E0001A76FA00E68
:1015D800A66F020E0001A86F0B0E86EC6AF00A0EC9
:1015E8008DEC73F000D00201175105E10B0E0201DA
:1015F800165DD8A00CD0070E2EEC4DF0000ECDECE9
:1016080074F0000E0201176F000E166F00D0010172
:10161800B651D8B40AD0000E0001986F240E976F07
:101628003EEC63F00101B60700D0000E0201596FCD
:101638000C0E8DEC73F00009D8B40CD0050E000127
:10164800A76FA00EA66F020E0001A86F0C0E86EC05
:101658006AF000D00101C651D8B41ED0050E0001B1
:10166800A76FA00EA66F020E0001A86F0C0E86ECE5
:101678006AF0000E0101C66F0101B051D8B40CD058
:101688000101B4510101D8A407D0000E0101CB6FAC
:101698000D0E65EC74F000D0170E91EC71F0000996
:1016A800D8B40ED0070EADEC66F0000E0001A76F9F
:1016B8000A0EA66F020E0001A86F170E86EC6AF0DC
:1016C800170E8DEC73F00009D8B40BD0000E000192
:1016D800A76F0A0EA66F020E0001A86F170E86EC00
:1016E8006AF00C0E91EC71F00009D8B40BD0040E1E
:1016F8000001A76FB00EA66F010E0001A86F0D0EB6
:1017080086EC6AF00D0E91EC71F00009D8B40BD09C
:10171800020E0001A76F580EA66F010E0001A86FF8
:101728000C0E86EC6AF0180E91EC71F00009D8B432
:1017380013D0FA0E0101C36103D00101C32B00D0FD
:10174800000E0001A76F0A0EA66F020E0001A86F17
:10175800180E86EC6AF000D0180E8DEC73F00009B4
:10176800D8B40BD0000E0001A76F0A0EA66F020EA8
:101778000001A86F180E86EC6AF0110E91EC71F05A
:101788000009D8B406D0010E0001CE6FF5EC2EF09A
:1017980000D0100E91EC71F00009D8B41DD01DECEA
:1017A80076F00009D8A418D00101EB510101D8B492
:1017B80004D010EC6CF0000E0CD0F00E0001A36FFA
:1017C800010E0001A46F010E0001A56F31EC44F079
:1017D800010E0101EB6F00D0100E8DEC73F00009C3
:1017E800D8B40CD0000E0001A76F1E0EA66F010E14
:1017F8000001A86F100E86EC6AF000D00101A5BFA9
:1018080008D03E0E0101A45D080E0101A559D8B00B
:101818000BD00101B4510101D8B452D00101B0512B
:10182800D8B455D04DD053D00101B4510101D8B42A
:1018380010D00101B4510101D8B439D00101A5BFBC
:1018480036D07D0E0101A45D080E0101A559D8A06E
:101858002ED0000E0101B46F010E6DEC6DF0000189
:101868008B5100018C11D8B404D00CD030D010D0DA
:101878002ED00D0E6DEC6DF000018B5100018C1116
:10188800D8B40DD00101B051D8B421D001D01FD0A7
:101898000101CB510101D8A41AD015D018D00101EB
:1018A800B051D8A414D0000EADEC66F010D00101F0
:1018B800B4510101D8B40BD00101B051D8B407D04C
:1018C800010E0101B46F010E0101CB6F00D0040EAF
:1018D8000001976F000EB6EC5FF097C012F298C047
:1018E80013F2020112510201245D02011351020197
:1018F8002559D8B009D002015C51D8A405D012C22C
:1019080024F213C225F200D0D4EC6EF0E1EF06F019
:1019180047EC76F00009D8B4E1EF06F001EC76F078
:10192800010E0101CF6FE1EF06F010EF05F00EC1D7
:1019380005F10FC106F115C107F112C191F013C1EC
:1019480092F014C193F049EC55F00101086F000EB4
:101958000101096FF5EC3AF00101386F0EC191F001
:101968000FC192F010C193F011C194F0040E000160
:10197800956F2BEC70F0010116510101D8A410D01D
:101988000EC191F00FC192F0F20E0001936F020E9A
:101998000001946F040E0001956F2BEC70F000D0DD
:1019A800010E0101146592EF13F012C1D9FF13C1A2
:1019B800DAFFDE04D8A41AD0050E0101146516D08A
:1019C800F90E0101142500018B6F00018C6BFF0ECD
:1019D8008C23000E00018E6F050E8D6FF8EC63F0FE
:1019E80000018B5100018C11D8B40CD0000E0001FD
:1019F800A76F0A0EA66F020E0001A86F170E86ECDD
:101A08006AF000D012C1D9FF13C1DAFFDE04D8A4EE
:101A180066D1050E0101146562D1F90E0101142584
:101A280000018B6F00018C6BFF0E8C23000E0001F0
:101A38008E6F050E8D6FF8EC63F000018B5100017D
:101A48008C11D8A44CD1FF0E0101176FFF0E0101B4
:101A5800186F010114510101196F1A6B0101175117
:101A6800010119270101185101011A230101195116
:101A780001011225D96E01011A5101011321DA6EF3
:101A88000101BD51DE18D8B424D0FF0E0101176F33
:101A9800FF0E0101186F010114510101196F1A6B32
:101AA80001011751010119270101185101011A23D8
:101AB8000101195101011225D96E01011A510101C3
:101AC8001321DA6EDE28D8A492EF13F002D092EF39
:101AD80013F0000E01013A6F010E396FE7D0050EC1
:101AE800010139250101176F000E01013A21010199
:101AF800186F010114510101196F1A6B0101175177
:101B08000101195D01011A51800A01011B6F0101D0
:101B18001851800A01011B59D8A082D001013ABF8F
:101B28007FD001013A5105E1060E0101395DD8A0C7
:101B380077D012C18BF013C18CF039C18DF0210E12
:101B480000018E6F010E00018F6F000E0001906F73
:101B5800040E0001916F8FEC68F0040E0101392525
:101B68000101176F000E01013A210101186F0101EF
:101B7800175101011225D96E0101185101011321D4
:101B8800DA6EDF500101196F050E01011A6F0101AC
:101B9800D890193301011A2FFAD701011951070BEF
:101BA80001012D6F040E010139250101176F000E87
:101BB80001013A210101186F010117510101122594
:101BC800D96E0101185101011321DA6EDF501F0B84
:101BD8000101356F1E0E0101356506D0000E0101A9
:101BE800306F1F0E2F6F0AD0010E0101352501013C
:101BF8002F6F0101306B000E302300D0210E000141
:101C0800A06F010E0001A16F38C1A2F02FC1A3F08F
:101C18002DC1A4F0000E0001A56F6CEC1EF03CD0A5
:101C28000101390501013A11D8A436D012C18BF04F
:101C380013C18CF0010E00018D6FD50E00018E6F5F
:101C4800010E00018F6F000E0001906F040E00015D
:101C5800916F94EC6BF00009D8B41ED00EC199F0C6
:101C68000FC19AF0040E010139250101176F000E0A
:101C780001013A210101186F0101175101011225D3
:101C8800D96E0101185101011321DA6EDF500001EC
:101C98009B6F5AEC66F000D0050E01013925010151
:101CA800396F000E01013A2101013A6F0101145107
:101CB8000101176F186B010117510101395D01010D
:101CC8003A51800A0101196F01011851800A010176
:101CD8001959D8B092EF13F002D792EF13F012C14E
:101CE800D9FF13C1DAFF020EDE18D8A423D00101F0
:101CF80020EE02F01251D9261351DA22DE500201E9
:101D08006719D8A492EF13F0000E02015E6F000E5F
:101D18000201916F020E0201926F000E0101CD6F58
:101D2800510E0101156192EF13F0010E0201516F7E
:101D380092EF13F012C1D9FF13C1DAFF020EDF646C
:101D480092EF13F00B0E0101146592EF13F0010EE0
:101D58000101C66F000E46EC72F0010120EE02F0A0
:101D68001251D9261351DA22DE5002016719D8A47C
:101D78000AD0000E02015E6F000E0201916F020E82
:101D88000201926F00D0010120EE01F01251D92614
:101D98001351DA22DE5002016719D8A498D15F0ED8
:101DA80000018B6F020E00018C6F000E00018D6F19
:101DB80012C18EF013C18FF0030E0001906F040E54
:101DC8000001916F94EC6BF00009D8B480D1010147
:101DD80020EE01F01251D9261351DA22DF50010109
:101DE800A86F010E0001BF6F0EC191F00FC192F0F4
:101DF800E60E0001936F020E0001946F040E0001BD
:101E0800956F2BEC70F0010120EE07F01251D926E6
:101E18001351DA220101D551DE18D8A424D00101CA
:101E280020EE08F01251D9261351DA220101D651B9
:101E3800DE18D8A418D0010120EE09F01251D926D5
:101E48001351DA220101D751DE18D8A40CD00101B0
:101E580020EE0AF01251D9261351DA220101D85185
:101E6800DE18D8B434D112C1D9FF13C1DAFF040E79
:101E7800DE18D8B429D101D027D112C18BF013C1F3
:101E88008CF0030E00018D6FD50E00018E6F010ED0
:101E980000018F6F000E0001906F040E0001916F1A
:101EA80094EC6BF00009D8A40FD101D00DD1010139
:101EB80020EE0BF01251D9261351DA220201935168
:101EC800DE5CD8B003D0000E1200FED0C5C231F1DE
:101ED800C6C232F1C7C233F1C8C234F112C18BF0A5
:101EE80013C18CF0070E00018D6F250E00018E6F57
:101EF800010E00018F6F000E0001906F040E0001AB
:101F0800916F8FEC68F0250E0001966F010E0001AD
:101F1800976F310E0001986F010E0001996F4CEC1C
:101F280041F001012E6F01013669310E0001916FF8
:101F3800010E0001926FD10E0001936F010E000196
:101F4800946F040E0001956F5DEC6FF00009D8A442
:101F58000AD0310E0001996F010E00019A6FD2EC80
:101F68006BF00101366F5F0E0001916F020E0001E8
:101F7800926FEE0E0001936F020E0001946F040E33
:101F88000001956F2BEC70F067C2E2F2DBEC74F0A5
:101F98000201676F040E0201686F060E02015E6F90
:101FA800000E0201916F020E0201926F12C18BF0B6
:101FB80013C18CF0030E00018D6F630E00018E6F4C
:101FC800020E00018F6F000E0001906F040E0001D9
:101FD800916F8FEC68F0D50E0001916F010E000132
:101FE800926F5F0E0001936F020E0001946F040E52
:101FF8000001956F2BEC70F0000E0201936F1D0E1F
:102008000201696F2B0E02016A6F250E00018B6FAA
:10201800010E00018C6F000E00018D6F690E00012A
:102028008E6F020E00018F6F020E0001906F040E7A
:102038000001916F8FEC68F0310E00018B6F010E7B
:1020480000018C6F000E00018D6F690E00018E6F0C
:10205800020E00018F6F060E0001906F040E000142
:10206800916F8FEC68F00EC18BF00FC18CF0000EF1
:1020780000018D6F690E00018E6F020E00018F6FD7
:102088000A0E0001906F040E0001916F8FEC68F04A
:102098002EC177F236C178F201013651060D040ED1
:1020A800F326000EF422BD0EF324D96E0A0EF42096
:1020B800DA6EDF500F0B0201796F110E02018F6F7C
:1020C800000E0101CD6F00D0000E120000D00201F9
:1020D8005E51D8A408D00001BF51D8A404D0020191
:1020E8009051D8B44ED0630E0001916F020E0001DA
:1020F800926F030E010112250001936F000E01017A
:1021080013210001946F040E0001956F5DEC6FF0D0
:102118000009D8B433D002015E51D8B42FD00001E1
:10212800BF51D8A42BD002019051D8A427D00101C7
:1021380020EE01F01251D9261351DA220201E251A0
:10214800DE18D8A41ED0EE0E00018B6F020E00011F
:102158008C6F000E00018D6F12C18EF013C18FF0CD
:10216800030E0001906F040E0001916F94EC6BF068
:102178000009D8B406D0000E120003D0000E1200D9
:1021880000D0010120EE07F01251D9261351DA22AE
:102198000101D551DE18D8A424D0010120EE08F0A1
:1021A8001251D9261351DA220101D651DE18D8A4CA
:1021B80018D0010120EE09F01251D9261351DA2264
:1021C8000101D751DE18D8A40CD0010120EE0AF085
:1021D8001251D9261351DA220101D851DE18D8B488
:1021E800D0D0010120EE0BF01251D9261351DA227A
:1021F8001F0EDE18D8A402D0000E12005F0E0001D8
:10220800916F020E0001926FEE0E0001936F020EA5
:102218000001946F040E0001956F2BEC70F067C2FB
:10222800E2F2010120EE01F01251D9261351DA220F
:10223800DF500201676F12C1D9FF13C1DAFFDF5007
:102248000201686F060E02015E6F000E0201916FB7
:10225800020E0201926F12C18BF013C18CF0070EAF
:1022680000018D6F630E00018E6F020E00018F6FEB
:10227800000E0001906F040E0001916F8FEC68F062
:1022880012C18BF013C18CF0030E00018D6F5F0E2D
:1022980000018E6F020E00018F6F000E0001906F1B
:1022A800040E0001916F8FEC68F0010120EE0BF035
:1022B8001251D9261351DA22DF500101176F01019B
:1022C80017290201936F12C18BF013C18CF00C0E09
:1022D80000018D6F690E00018E6F020E00018F6F75
:1022E800000E0001906F01011451F40F0001916F6D
:1022F8008FEC68F001011451F40F02018F6F000E8A
:102308000101CD6F010120EE01F01251D9261351C0
:10231800DA22DF500101A86F010E0001BF6F0EC164
:1023280091F00FC192F0E60E0001936F020E0001CA
:10233800946F040E0001956F2BEC70F00EC105F13F
:102348000FC106F115C107F1010E0101086F010E59
:102358000101096FF5EC3AF00101386F5F0E0001D9
:10236800A06F020E0001A16F38C1A2F093C2A3F0C2
:10237800000E0001A46F010E0001A56F6CEC1EF0A9
:10238800CDD15F0E0001916F020E0001926FEE0E2B
:102398000001936F020E0001946F040E0001956F07
:1023A8002BEC70F067C2E2F2010120EE01F012514D
:1023B800D9261351DA22DF500201676F12C1D9FF03
:1023C80013C1DAFFDF500201686F000E02015E6F71
:1023D800000E0201916F020E0201926F12C18BF082
:1023E80013C18CF0070E00018D6F630E00018E6F14
:1023F800020E00018F6F000E0001906F040E0001A5
:10240800916F8FEC68F012C18BF013C18CF0030E42
:1024180000018D6F5F0E00018E6F020E00018F6F3D
:10242800000E0001906F040E0001916F8FEC68F0B0
:1024380012C18BF013C18CF0030E00018D6F10C117
:102448008EF011C18FF0000E0001906F040E000194
:10245800916F8FEC68F0010120EE0BF01251D92634
:102468001351DA22DF500101176F01011729020108
:10247800936F12C18BF013C18CF00C0E00018D6F9D
:10248800690E00018E6F020E00018F6F000E0001B1
:10249800906F01011451F40F0001916F8FEC68F0F7
:1024A80001011451F40F02018F6F010120EE01F0B8
:1024B8001251D9261351DA22DF500101A86F010EFB
:1024C8000001BF6F0EC191F00FC192F0E60E00013E
:1024D800936F020E0001946F040E0001956F2BECB0
:1024E80070F0000E0101CD6F0EC105F10FC106F1AC
:1024F80015C107F1010E0101086F010E0101096FF5
:10250800F5EC3AF00101386F5F0E0001A06F020E82
:102518000001A16F38C1A2F093C2A3F0000E000120
:10252800A46F010E0001A56F6CEC1EF0090E0201EC
:102538006819D8A405D002016A51D1EC75F0EED023
:1025480002016939E842070B0101376F0101375170
:102558000101D8B41ED00101BB51D8B41AD00D0E58
:102568000101122500018B6F000E010113210001EA
:102578008C6FF30E0101142500018D6F00018E6B25
:10258800FF0E8E2337C18FF07EEC5DF0010E120036
:10259800C5D0010137510101D8A409D00101BB51AF
:1025A800D8A405D0F3D703D0F1D71200B7D00201D1
:1025B80069511F0B0C0AD8B4E9D7020169511F0BE6
:1025C8001E0AD8A407D002016A51D8A403D0DED7C6
:1025D8001200A4D0C9C229F1CAC22AF1CBC22BF178
:1025E800CCC22CF112C18BF013C18CF0070E000184
:1025F8008D6F1C0E00018E6F010E00018F6F000E93
:102608000001906F040E0001916F8FEC68F01C0EB2
:102618000001966F010E0001976F290E0001986F57
:10262800010E0001996F4CEC41F001012069290E5F
:102638000001916F010E0001926FD10E0001936F9E
:10264800010E0001946F040E0001956F5DEC6FF0B0
:102658000009D8A40AD0290E0001996F010E0001C3
:102668009A6FD2EC6BF00101206F5F0E0001916F41
:10267800020E0001926FEE0E0001936F020E000130
:10268800946F040E0001956F2BEC70F067C2E2F2B4
:10269800DBEC74F00201676F040E0201686F060E2E
:1026A80002015E6F000E0201916F020E0201926F2D
:1026B80012C18BF013C18CF0030E00018D6F630EF5
:1026C80000018E6F020E00018F6F000E0001906FE7
:1026D800040E0001916F8FEC68F0D50E0001916F28
:1026E800010E0001926F5F0E0001936F020E000150
:1026F800946F040E0001956F2BEC70F0000E020130
:10270800936F1D0E0201696F2C0E02016A6F020E93
:1027180002018F6F000E0101CD6F00D0000E120074
:1027280012006EC10EF16FC10FF1880E0101106F1A
:10273800010E0101116F70C112F171C113F172C163
:1027480014F173C115F174C116F19BEC0CF000097A
:10275800D8B41200000E0101856F010120EE0CF0C3
:102768007051D9267151DA22DF501F0B0101866F93
:1027780001018C691B0E010186650BD0010120EE59
:102788000DF07051D9267151DA22DF5001018C6F9A
:1027980000D0000E01017E6F0C0E010170250001B2
:1027A8008B6F000E0101712100018C6F020E000178
:1027B8008D6F0C0E0101702500018E6F000E010156
:1027C800712100018F6F060E0001906F040E000149
:1027D800916F94EC6BF00009D8B426D00C0E01016F
:1027E800702500018B6F000E0101712100018C6FB3
:1027F800060E00018D6F0C0E0101702500018E6F11
:10280800000E0101712100018F6F0A0E0001906F07
:10281800040E0001916F94EC6BF00009D8B404D059
:10282800010E01017E6F00D07EC18DF1000E010105
:102838007F6F0C0E0101702500018B6F000E0101E6
:10284800712100018C6F030E00018D6F0C0E0101C8
:10285800702500018E6F000E0101712100018F6F3C
:10286800070E0001906F040E0001916F94EC6BF05D
:102878000009D8B426D00C0E0101702500018B6F19
:10288800000E0101712100018C6F070E00018D6F90
:102898000C0E0101702500018E6F000E01017121DF
:1028A80000018F6F0B0E0001906F040E0001916FF5
:1028B80094EC6BF00009D8B404D0010E01017F6FCD
:1028C80000D07FC180F188EF18F0A5EF18F01AD07A
:1028D800A5EF18F0190E01017219D8A4A5EF18F088
:1028E8000D0E010170250001A36F000E0101712179
:1028F8000001A46F000E0001A56FFEEC6CF0A5EFBF
:1029080018F046D0010E0101856FA5EF18F00101FE
:1029180020EE0EF07051D9267151DA22410EDE18E0
:10292800D8A4A5EF18F0010120EE0FF07051D926B8
:102938007151DA22530EDE18D8A4A5EF18F0010160
:1029480020EE10F07051D9267151DA22460EDE18A9
:10295800D8A4F7D3E30E0001916F030E0001926F24
:10296800110E010170250001936F000E0101712104
:102978000001946F0B0E0001956F5DEC6FF000097C
:10298800D8B4DFD3000E0001CE6FF5EC2EF0D9D30A
:1029980001018C51030AD8B4B5D7290AD8B4B7D7DE
:1029A800D0D306D101018D510101D8B4CAD30E0E7E
:1029B800010170250001A36F000E010171210001C2
:1029C800A46F000E0001A56FFEEC6CF0BAD30101F4
:1029D80080510101D8B417D00F0E010170250001F4
:1029E800A66F000E010171210001A76F010120EE01
:1029F8000EF07051D9267151DA22DF500001A86F0C
:102A080064EC4FF09ED3880E0001A36F010E000105
:102A1800A46F2D0E0001A56F010120EE01F0705189
:102A2800D9267151DA22DF500001A66F2BEC71F024
:102A380088D3010180510101D8B417D00F0E0101CC
:102A480070250001996F000E0101712100019A6F34
:102A5800010120EE0EF07051D9267151DA22DF50B3
:102A680000019B6FE8EC4AF06CD3880E0001A36F5D
:102A7800010E0001A46F2D0E0001A56F010120EECB
:102A880001F07051D9267151DA22DF500001A66F8A
:102A98002BEC71F056D301018D510101D8A451D30B
:102AA80001D04FD3880E0001A36F010E0001A46F5F
:102AB8002D0E0001A56F010120EE01F07051D926FD
:102AC8007151DA22DF500001A66F2BEC71F039D377
:102AD80001018D510101D8B434D30E0E01017025C6
:102AE8000001A36F000E010171210001A46FE5EC44
:102AF80070F027D3010120EE0EF07051D9267151E4
:102B0800DA22520EDE18D8A419D0010120EE0FF0F7
:102B18007051D9267151DA22530EDE18D8A40ED07E
:102B2800010120EE10F07051D9267151DA22490EB8
:102B3800DE18D8A403D0C1EC75F003D3880E0001C9
:102B4800A36F010E0001A46F2D0E0001A56F0101F6
:102B580020EE01F07051D9267151DA22DF500001C0
:102B6800A66F2BEC71F0EDD201018D510101D8B4A3
:102B7800E8D20E0E010170250001A36F000E0101BD
:102B880071210001A46F89EC6FF0DBD201018D5136
:102B98000101D8B4D6D20E0E010170250001A36F31
:102BA800000E010171210001A46F52EC67F0C9D237
:102BB80001018C51000AD8B4F5D6040AD8B4C1D2A0
:102BC800240AD8B404D7010AD8B433D7030AD8B42E
:102BD80062D7010AD8B47CD7070AD8B48BD7010AC0
:102BE800D8B4C2D70B0AD8B4D1D7ABD26CD20E0E98
:102BF800010170250101106F000E01017121010111
:102C0800116F90EC39F0880E0001A36F010E0001DE
:102C1800A46FE5EC70F095D270C18BF071C18CF0A7
:102C28000E0E00018D6FF00E00018E6F010E000177
:102C38008F6F000E0001906F040E0001916F8FECF2
:102C480068F00D0E010170250001A36F000E01014F
:102C580071210001A46F89EC6FF073D270C18BF001
:102C680071C18CF00E0E00018D6F70C18EF071C1B4
:102C78008FF0170E0001906F040E0001916F94EC15
:102C88006BF00009D8B499D070C18BF071C18CF089
:102C9800170E00018D6F70C18EF071C18FF0200E7C
:102CA8000001906F040E0001916F94EC6BF0000925
:102CB800D8B483D070C18BF071C18CF0120E0001B2
:102CC8008D6F70C18EF071C18FF01B0E0001906F77
:102CD800040E0001916F94EC6BF00009D8B46DD02C
:102CE80070C18BF071C18CF01B0E00018D6F70C12B
:102CF8008EF071C18FF0240E0001906F040E000158
:102D0800916F94EC6BF00009D8B457D0010120EE14
:102D18001FF07051D9267151DA22010110EE16F018
:102D28007051E1267151E222DE50E618D8A445D050
:102D3800010120EE28F07051D9267151DA220101E3
:102D480010EE1FF07051E1267151E222DE50E618B4
:102D5800D8A433D00E0E0101702501010E6F000EAC
:102D68000101712101010F6F120E0101702501018E
:102D7800106F000E010171210101116F010120EE98
:102D880016F07051D9267151DA22DF500101126F05
:102D9800DDEC6FF0880E0001A36F010E0001A46F37
:102DA8000E0E010170250001A56F000E01017121B1
:102DB8000001A66FF0EC4DF0C4D1880E0001A36F9E
:102DC800010E0001A46F2D0E0001A56F010120EE78
:102DD80001F07051D9267151DA22DF500001A66F37
:102DE8002BEC71F0AED10E0E010170250001996F28
:102DF800000E0101712100019A6FACEC64F0880E9D
:102E08000001A36F010E0001A46F010E0001A56F60
:102E1800FEEC6CF096D1010120EE0EF07051D9262F
:102E28007151DA22520EDE18D8A48BD1010120EE9E
:102E38000FF07051D9267151DA22530EDE18D8A43A
:102E480080D1010120EE10F07051D9267151DA229B
:102E5800540EDE18D8A475D1FF0073D1010120EEFD
:102E68000EF07051D9267151DA22530EDE18D8A40B
:102E780068D1010120EE0FF07051D9267151DA2284
:102E8800460EDE18D8A45DD1010120EE10F0705175
:102E9800D9267151DA22540EDE18D8A452D1880EE0
:102EA8000001A36F010E0001A46FA3EC67F00101FC
:102EB80020EE11F07051D9267151DA22DF5001014C
:102EC800E76F150E0001A76F7C0EA66F000E0001BC
:102ED800A86F110E86EC6AF034D1010120EE0EF0D5
:102EE8007051D9267151DA22530EDE18D8A458D061
:102EF800010120EE0FF07051D9267151DA22520EDD
:102F0800DE18D8A44DD0010120EE10F07051D9265A
:102F18007151DA22460EDE18D8A442D0010120EE03
:102F280011F07051D9267151DA22040EDF6038D0C1
:102F3800010120EE11F07051D9267151DA22DF50CB
:102F480001017D6F010120EE12F07051D9267151F7
:102F5800DA22DF500101756F010175510101826F9D
:102F6800836B010182510101836F826B010120EEA5
:102F780013F07051D9267151DA22DF500101756FB3
:102F88000101755101018227000E832382C1A6F039
:102F980083C1A7F07DC1A8F0010E86EC6AF0D1D0FC
:102FA800880E0001A36F010E0001A46F2D0E000111
:102FB800A56F010120EE01F07051D9267151DA2276
:102FC800DF500001A66F2BEC71F0BBD0010120EEA1
:102FD8000EF07051D9267151DA22DF50D80901015B
:102FE8007C6F7CC18DF03C0E61EC72F0AAD00101BF
:102FF8008D510101D8B4A5D0010120EE1BF070510C
:10300800D9267151DA22DF500101756F010175511E
:103018000101A06FA16B0101A0510101A16FA06B7B
:10302800010120EE1AF07051D9267151DA22DF50D1
:103038000101756F010175510101A027000EA1233F
:103048000101A005090E0101A159D8A006D0000E62
:103058000101A16F000EA06F74D0010120EE1CF0D9
:103068007051D9267151DA22DF500101E76F0E0E37
:10307800010170250001A36F000E010171210001FB
:10308800A46FC5EC6CF0010120EE1DF07051D9263B
:103098007151DA22DF500201986F1E0E010170256E
:1030A8000001916F000E010171210001926FE30E82
:1030B8000001936F030E0001946F0B0E0001956FD2
:1030C8002BEC70F03ED001018C51040AD8B48FD794
:1030D800270AD8B48CD5060AD8B49ED5030AD8B422
:1030E800BDD5010AD8B47FD60F0AD8B494D6010A40
:1030F800D8B427D0030AD8B4B1D66A0AD8B4EDD662
:10310800BE0AD8B463D71DD001018651000AD8B4CD
:1031180018D0020AD8B486EF14F0060AD8B411D031
:10312800080AD8B46EEF14F0100AD8B40AD0010A0D
:10313800D8B42ED4030AD8B43BD5010AD8B4C3D71F
:1031480000D0010185510101D8A420D00C0E010145
:1031580070250101656F000E010171210101666F83
:1031680073C167F1880E0101686F010E0101696F73
:1031780086C16AF18CC16BF101017251F40F010132
:103188006C6FB5EC3DF00101856F00D001018551F0
:103198000101D8B41200E90E00019D6FFF0E000175
:1031A8009E6FC0EC31F00101B351D8A421D1010EBA
:1031B800516E01017251FD0F0101816F000E000176
:1031C8008C6F020E8B6F240E00018D6FF2EC56F09F
:1031D800000E00018C6F020E8B6F240E00018D6FA4
:1031E800F2EC56F0000E00018C6F020E8B6F81C15D
:1031F8008DF0F2EC56F0000E00018C6F020E8B6F12
:10320800000E00018D6FF2EC56F0000E0101846F84
:10321800000E00018C6F020E8B6F010120EE03F08F
:103228007051D9267151DA22DF5000018D6FF2EC0E
:1032380056F0010120EE03F07051D9267151DA22BF
:10324800DF500101841B000E00018C6F020E8B6F92
:10325800010120EE04F07051D9267151DA22DF50B5
:1032680000018D6FF2EC56F0010120EE04F0705170
:10327800D9267151DA22DF500101841B000E0001AA
:103288008C6F020E8B6F010120EE05F07051D9266C
:103298007151DA22DF5000018D6FF2EC56F0010116
:1032A80020EE05F07051D9267151DA22DF50010164
:1032B800841B000E00018C6F020E8B6F010120EE43
:1032C80006F07051D9267151DA22DF5000018D6F56
:1032D800F2EC56F0010120EE06F07051D92671513A
:1032E800DA22DF500101841B000E0101876F38D0FC
:1032F800000E00018C6F020E8B6F010187510101D6
:10330800756F766B0C0E01017527000E762301018F
:10331800755101017025D96E0101765101017121A4
:10332800DA6EDF5000018D6FF2EC56F00101875123
:103338000101756F766B0C0E01017527000E76235F
:103348000101755101017025D96E01017651010104
:103358007121DA6EDF500101841B0101872B00D037
:10336800F70E0101756FFF0E0101766F01018151A2
:103378000101776F786B0101755101017727010110
:10338800765101017823010187510101796F7A6B28
:10339800010177510101795D01017A51800A01012A
:1033A8007B6F01017851800A01017B59D8A0A0D711
:1033B800000E00018C6F020E8B6F84C18DF0F2EC51
:1033C80056F0000E00018C6F020E8B6F0D0E00017F
:1033D8008D6FF2EC56F0000E00018C6F020E8B6FB1
:1033E8000A0E00018D6FF2EC56F0000E516E00D0FF
:1033F800D70E00019D6FFF0E00019E6FC0EC31F0EB
:103408001200120001013B6F02015E51D8A414D0D2
:103418000001BF51D8A410D002019051D8A40CD0FB
:1034280001012B05D8A408D0010E0101296F010163
:103438003B5197EC75F008D0000E0101296F01018E
:103448003B5197EC75F000D0CB0E01013C6F040E98
:1034580001013D6F2DEC76F00009D8A416D0D5C235
:1034680097F0D6C298F03EEC63F0010E0001972564
:103478000201086F000E000198210201096F000E79
:103488000201D86F000ED76F00D015EC76F0000956
:10349800D8B4DED002019051D8B47BD001013B51A1
:1034A8000101D8B476D0000E0201906F3CC1D9FF5B
:1034B8003DC1DAFF68C2DFFF010120EE01F03C5197
:1034C800D9263D51DA2267C2DFFF010120EE02F062
:1034D8003C51D9263D51DA22A8C1DFFF5F0E000119
:1034E8008B6F020E00018C6F000E00018D6F3CC1C6
:1034F8008EF03DC18FF0030E0001906F040E0001A5
:10350800916F8FEC68F0630E00018B6F020E000163
:103518008C6F000E00018D6F3CC18EF03DC18FF0A5
:10352800070E0001906F040E0001916F8FEC68F098
:10353800010120EE0BF03C51D9263D51DA2293C20D
:10354800DFFF690E00018B6F020E00018C6F000E09
:1035580000018D6F3CC18EF03DC18FF00C0E000153
:10356800906F8FC291F08FEC68F0D10E0101136F4C
:10357800010E0101146FC00E0101156F040E010147
:10358800166F02018F510C0F0101176FF6EC5DF0F9
:103598005BD0020108510201D71956E10201095115
:1035A8000201D819D8A450D001013B510101D8B467
:1035B80042D01DEC76F00009D8B43DD00101E551A8
:1035C800D8B427D0FEEC28F00101326FD10E0101EA
:1035D800136F010E0101146FC00E0101156F040E67
:1035E8000101166F32C117F1F6EC5DF00009D8A49D
:1035F8002BD001D029D00201D5510201085D02016A
:10360800D65102010959D8B01FD00201084B092B25
:103618001BD0D10E0101136F010E0101146FC00EF2
:103628000101156F040E0101166F000E0101176FDD
:10363800F6EC5DF009D0870E00019D6FFE0E0001CB
:103648009E6FC0EC31F000D00201D74BD82BDBD2F3
:10365800C1C237F1C2C238F1C3C239F1C4C23AF1AA
:103668000101CD51D8A4C1D00101CD2B0201915146
:10367800D8A4B8D0010E02015E65C5D2630E000160
:10368800966F020E0001976F370E0001986F010EBA
:103698000001996F4CEC41F00101336F0001BF51FB
:1036A800D8B416D0370E0001916F010E0001926F49
:1036B800E60E0001936F020E0001946F040E0001E4
:1036C800956F5DEC6FF00009D8A49DD201D09BD214
:1036D80092C297F00001986B3EEC63F0000197519D
:1036E8000201916F01013B510101D8B48CD2020152
:1036F8005E070201922B1F0E0101336184D23CC187
:10370800D9FF3DC1DAFF68C2DFFF010120EE01F0F9
:103718003C51D9263D51DA2267C2DFFF010120EE74
:1037280002F03C51D9263D51DA22A8C1DFFF5F0ED5
:1037380000018B6F020E00018C6F000E00018D6F6F
:103748003CC18EF03DC18FF0030E0001906F040E56
:103758000001916F8FEC68F0630E00018B6F020E11
:1037680000018C6F000E00018D6F3CC18EF03DC1D1
:103778008FF0070E0001906F040E0001916F8FEC1F
:1037880068F0010120EE0BF03C51D9263D51DA22B8
:1037980093C2DFFF690E00018B6F020E00018C6F70
:1037A800000E00018D6F3CC18EF03DC18FF00C0EF4
:1037B8000001906F8FC291F08FEC68F0370E010115
:1037C800136F010E0101146FC00E0101156F040E75
:1037D8000101166F02018F510C0F0101176FF6ECF2
:1037E8005DF011D2020191070ED20101CD05D8A4D6
:1037F800E8D00001BF51D8B4E4D00101CD2B630E4D
:103808000001966F020E0001976F370E0001986F46
:10381800010E0001996F4CEC41F00101346F010E6B
:1038280002015E659CD0370E0001916F010E000108
:10383800926FE60E0001936F020E0001946F040E62
:103848000001956F5DEC6FF00009D8B488D0000EC8
:1038580002015E6F000E0201916F020E0201926F6B
:1038680001013B510101D8B4CED11F0E01013461D1
:10387800CAD1000E0001BF6F3CC1D9FF3DC1DAFFBC
:1038880068C2DFFF010120EE01F03C51D9263D510D
:10389800DA2267C2DFFF010120EE02F03C51D9268F
:1038A8003D51DA22A8C1DFFF5F0E00018B6F020EC7
:1038B80000018C6F000E00018D6F3CC18EF03DC180
:1038C8008FF0030E0001906F040E0001916F8FECD2
:1038D80068F0630E00018B6F020E00018C6F000E02
:1038E80000018D6F3CC18EF03DC18FF0070E0001C5
:1038F800906F040E0001916F8FEC68F0010120EECB
:103908000BF03C51D9263D51DA2293C2DFFF690EF4
:1039180000018B6F020E00018C6F000E00018D6F8D
:103928003CC18EF03DC18FF00C0E0001906F8FC22C
:1039380091F08FEC68F0370E0101136F010E010151
:10394800146FC00E0101156F040E0101166F0201FC
:103958008F510C0F0101176FF6EC5DF054D1000E7A
:103968000001BF6F3CC1D9FF3DC1DAFF020EDF6E17
:10397800010120EE01F03C51D9263D51DA22000E1A
:10398800DF6E010120EE02F03C51D9263D51DA22CA
:10399800A8C1DFFF01013B510101D8B434D1E60EC3
:1039A8000101136F020E0101146FC00E0101156FA2
:1039B800040E0101166F030E0101176FF6EC5DF09E
:1039C80022D1020E0101CD651BD102015E05D8A4EA
:1039D80013D1630E0001966F020E0001976F370E28
:1039E8000001986F010E0001996F4CEC41F0010144
:1039F800356F01013669370E0001916F010E000124
:103A0800926FD10E0001936F010E0001946F040EA6
:103A18000001956F5DEC6FF00009D8A40BD0370E4C
:103A28000001996F010E00019A6FD2EC6BF0010151
:103A3800366F00D0040E02016819D8B414D05F0E96
:103A48000001916F020E0001926FD50E0001936F75
:103A5800010E0001946F040E0001956F5DEC6FF08C
:103A68000009D8B40AD0000E02015E6F000E0201F0
:103A7800916F020E0201926FBFD05F0E0001916F2D
:103A8800020E0001926FD50E0001936F010E000126
:103A9800946F040E0001956F5DEC6FF00009D8A4D7
:103AA800ABD001D0A9D05F0E0001916F020E0001CA
:103AB800926FEE0E0001936F020E0001946F040ED8
:103AC8000001956F2BEC70F067C2E2F2DBEC74F04A
:103AD8000201676F040E0201686F060E02015E6F35
:103AE800000E0201916F020E0201926F630E000137
:103AF800916F020E0001926F2E0E0001936F010E5E
:103B08000001946F040E0001956F2BEC70F05F0EAE
:103B18000001916F020E0001926F630E0001936F16
:103B2800020E0001946F040E0001956F2BEC70F0EB
:103B3800D50E0001916F010E0001926F5F0E00011A
:103B4800936F020E0001946F040E0001956F2BEC29
:103B580070F0000E0201936F1D0E0201696F2B0EAB
:103B680002016A6F2E0E00018B6F010E00018C6F2F
:103B7800000E00018D6F690E00018E6F020E0001AC
:103B88008F6F020E0001906F040E0001916F8FEC91
:103B980068F0370E00018B6F010E00018C6F000E6C
:103BA80000018D6F690E00018E6F020E00018F6F8C
:103BB800060E0001906F040E0001916F8FEC68F003
:103BC80035C173F236C174F201013651060D040E87
:103BD800F326000EF422BD0EF324D96E0A0EF4204B
:103BE800DA6EDF500F0B0201756F0D0E02018F6F39
:103BF800000E0101CD6F00D0000E0101CD6F03D082
:103C08000101CD2B00D02DEC76F00009D8A40CD002
:103C18000201452B020E0201456506D06CEC4CF002
:103C2800000E0201456F00D002013C2B0101E35157
:103C380002013C5DD8A03FD00101A951020DC90E77
:103C4800F324D96E080EF420DA6EDF38E832E83251
:103C5800030B0009D8B422D0010E01012C6F010119
:103C6800A951020DC90EF324D96E080EF420DA6E9C
:103C7800DF3801012D6F2D332D31030B2D6F01011D
:103C88002C5101012D5F01012D3B2D372D37DF50C0
:103C980001012D193F0B2D19DF6E00D00101A92B51
:103CA800F90E0101A96503D0000E0101A96F000EEC
:103CB80002013C6F00D0070E91EC71F00009D8B4F6
:103CC8001200EAEC3EF0010E0101E56F120012004D
:103CD800A0C091F0A1C092F0D50E0001936F010E23
:103CE8000001946F040E0001956F5DEC6FF0000900
:103CF800D8A4120001D012000001A229D8B41200E1
:103D080001D01200030E0001936F0001A251060DAD
:103D1800050EF326000EF422BD0EF324D96E0A0E0A
:103D2800F420DA6EDF5091EC48F00001A46151D024
:103D3800030E0001936F0001A251060D050EF32634
:103D4800000EF422BD0EF324D96E0A0EF420DA6EAA
:103D5800DF5091EC48F00001A66F0001A251060D5A
:103D6800040EF326000EF422BD0EF324D96E0A0EBB
:103D7800F420DA6EDF380F0BAEEC72F00001A65DAE
:103D8800D8B012D00001A251060D040EF326000E81
:103D9800F422BD0EF324D96E0A0EF420DA6EDF3851
:103DA8000F0BAEEC72F03AD0030E0001936F0001D6
:103DB800A251060D050EF326000EF422BD0EF324C3
:103DC800D96E0A0EF420DA6EDF5091EC48F026D056
:103DD8002BD00001A251060D040EF326000EF4228A
:103DE800BD0EF324D96E0A0EF420DA6EDF380F0BFD
:103DF800AEEC72F00001A46114D00001A251060DCE
:103E0800040EF326000EF422BD0EF324D96E0A0E1A
:103E1800F420DA6EDF380F0BAEEC72F00101036F9D
:103E280003D0A4C003F100D0000E0101046FF90E05
:103E38000101046501D06BD2A0C08FF0A1C090F041
:103E48000101045108EC5AF00009D8B45DD201010F
:103E58000451020DC90EF324D96E080EF420DA6E4F
:103E6800DF503F0B07EC66F00101006F01010451C0
:103E7800020D010EF326000EF422C90EF324D96EAA
:103E8800080EF420DA6EDF38E832070B0001A66F5F
:103E9800010100510001A65DD8B019D000C1A6F0FB
:103EA80001010451020D010EF326000EF422C90E81
:103EB800F324D96E080EF420DA6E0001A63BA6475B
:103EC800DF500001A6191F0BA619DF6E00D00001F4
:103ED800A5510001D8B42DD001010451020D010EE5
:103EE800F326000EF422C90EF324D96E080EF4202E
:103EF800DA6EDF500001A319E00BA319DF6E010190
:103F08000451020DC90EF324D96E080EF420DA6E9E
:103F1800DF500001A219C00BA219DF6E0101045184
:103F2800020DC90EF324D96E080EF420DA6EC00E05
:103F3800DF1201010451020DC90EF324D96E080ED7
:103F4800F420DA6EDF503F0B0001A219D8A444D048
:103F580003C1A6F001010451020D010EF326000E63
:103F6800F422C90EF324D96E080EF420DA6E00018B
:103F7800A63BA647DF500001A6191F0BA619DF6E46
:103F880001010451020D010EF326000EF422C90EA0
:103F9800F324D96E080EF420DA6EDF501F0B0001EF
:103FA800A319D8B405D00001A2514EEC73F000D08B
:103FB80001010451020D010EF326000EF422C90E70
:103FC800F324D96E080EF420DA6EDF500001A3192D
:103FD800E00BA319DF6E120001010451020DC90E96
:103FE800F324D96E080EF420DA6EDF38E832E832AE
:103FF800030B0009D8A4120001010451020D010E9F
:10400800F326000EF422C90EF324D96E080EF4200C
:10401800DA6EDF38E832070B070AD8A43BD0010173
:104028000451020D010EF326000EF422C90EF324EA
:10403800D96E080EF420DA6EDF500001A319E00BE8
:10404800A319DF6E01010451020DC90EF324D96EC4
:10405800080EF420DA6EDF500001A219C00BA21975
:10406800DF6E03C1A6F001010451020D010EF32613
:10407800000EF422C90EF324D96E080EF420DA6E6D
:104088000001A63BA647DF500001A6191F0BA61981
:10409800DF6E120001010451020D010EF326000E1D
:1040A800F422C90EF324D96E080EF420DA6EDF501C
:1040B8001F0B0001A36145D0010103510001D45D2C
:1040C800D8A0120001010451020D010EF326000EC2
:1040D800F422C90EF324D96E080EF420DA6EDF50EC
:1040E8000001A319E00BA319DF6E01010451020DB1
:1040F800C90EF324D96E080EF420DA6EDF500001E1
:10410800A219C00BA219DF6E03C1A6F00101045168
:10411800020D010EF326000EF422C90EF324D96E07
:10412800080EF420DA6E0001A63BA647DF50000116
:10413800A6191F0BA619DF6E0001A2514EEC73F0F1
:10414800120001010451020D010EF326000EF422A3
:10415800C90EF324D96E080EF420DA6EDF501F0B57
:104168000001A319D8A461D001010451020D010E68
:10417800F326000EF422C90EF324D96E080EF4209B
:10418800DA6EDF38E832070B010103611200010122
:104198000451020D010EF326000EF422C90EF32479
:1041A800D96E080EF420DA6EDF38E832070B00010A
:1041B800D461120001010451020D010EF326000E14
:1041C800F422C90EF324D96E080EF420DA6EDF50FB
:1041D8000001A319E00BA319DF6E01010451020DC0
:1041E800C90EF324D96E080EF420DA6EDF500001F0
:1041F800A219C00BA219DF6E03C1A6F00101045178
:10420800020D010EF326000EF422C90EF324D96E16
:10421800080EF420DA6E0001A63BA647DF50000125
:10422800A6191F0BA619DF6E120001010451020D19
:10423800010EF326000EF422C90EF324D96E080EDF
:10424800F420DA6EDF501F0B0001A66F0001A351A6
:104258000001A65DD8B012000001D4510101035D30
:10426800D8B0120001010451020D010EF326000E10
:10427800F422C90EF324D96E080EF420DA6EDF3862
:10428800E832070B0001D461120001010451020D4C
:10429800010EF326000EF422C90EF324D96E080E7F
:1042A800F420DA6EDF500001A319E00BA319DF6ECA
:1042B80001010451020DC90EF324D96E080EF42031
:1042C800DA6EDF500001A219C00BA219DF6E03C11C
:1042D800A6F001010451020D010EF326000EF4228E
:1042E800C90EF324D96E080EF420DA6E0001A63B3D
:1042F800A647DF500001A6191F0BA619DF6E0001A3
:10430800A2514EEC73F012000101042B90D51F0E40
:104318000001A36160D0000E0101026FF90E0101D6
:10432800026501D058D0D10E00018F6F010E000137
:10433800906F0101025108EC5AF00009D8B447D037
:10434800A0C092F0A1C093F001010251B2EC69F053
:1043580001010251020D010EF326000EF422C90ECE
:10436800F324D96E080EF420DA6EDF500001A31989
:10437800E00BA319DF6E01010251020DC90EF324EF
:10438800D96E080EF420DA6EDF500001A219C00BB6
:10439800A219DF6E03C1A6F001010251020D010E40
:1043A800F326000EF422C90EF324D96E080EF42069
:1043B800DA6E0001A63BA647DF500001A6191F0BC5
:1043C800A619DF6E0001A2514EEC73F01200010134
:1043D800022BA4D700D01F0E0001A3611200B7C0A2
:1043E80001F1F90E0101016502D01200120001016C
:1043F8000151020D010EF326000EF422C90EF3241A
:10440800D96E080EF420DA6EDF501F0B1F0AD8B4DD
:104418000ED001010151020DC90EF324D96E080E08
:10442800F420DA6EDF503F0B3F0AD8A454D0A0C066
:1044380092F0A1C093F00001B751B2EC69F000010D
:10444800B751020D010EF326000EF422C90EF32413
:10445800D96E080EF420DA6EDF500001A319E00BC4
:10446800A319DF6E0001B751020DC90EF324D96EEE
:10447800080EF420DA6EDF500001A219C00BA21951
:10448800DF6E03C1A6F00001B751020D010EF3263D
:10449800000EF422C90EF324D96E080EF420DA6E49
:1044A8000001A63BA647DF500001A6191F0BA6195D
:1044B800DF6E0001B751020DC90EF324D96E080E44
:1044C800F420DA6E3F0EDF160001A2514EEC73F0B5
:1044D80001C1B7F01200F90E01010119D8A404D0E6
:1044E800000E0001B76F00D00101012BF90E010188
:1044F80001657DD7120012001200000E596E000EE1
:104508005A6E000E4A6E000E4D6E020E91EC71F05E
:104518000009D8B42BD1010E596E0001BA2B020E36
:104528000001BA19D8A4F1D0000E0001BA6FEDD07D
:10453800000E4A6E000E0001A76F1E0EA66F000E39
:104548000001A86F020E86EC6AF010D1010E4A6EC7
:10455800000E0001A76F1E0EA66F000E0001A86FC7
:10456800020E86EC6AF002D10001BA05D8A403D085
:10457800010E4A6E00D0000E0001A76F400EA66F14
:10458800000E0001A86F020E86EC6AF0EFD0000161
:10459800BA05D8A403D0010E4A6E00D0000E00015F
:1045A800A76F7D0EA66F000E0001A86F020E86ECA5
:1045B8006AF0DCD000D00001BA05D8A403D0010EFF
:1045C8004A6E00D0000E0001A76FFA0EA66F000E0B
:1045D8000001A86F020E86EC6AF0C8D00001BA0587
:1045E800D8A403D0010E4A6E00D0010E0001A76FB7
:1045F800F40EA66F000E0001A86F020E86EC6AF09A
:10460800B5D00001BA05D8A403D0010E4A6E00D077
:10461800030E0001A76FE80EA66F000E0001A86F39
:10462800020E86EC6AF0A2D00001BA05D8A403D025
:10463800010E4A6E00D0090E0001A76FC40EA66FC6
:10464800000E0001A86F020E86EC6AF08FD0000100
:10465800BA05D8A403D0010E4A6E00D0130E00018B
:10466800A76F880EA66F000E0001A86F020E86ECD9
:104678006AF07CD00001BA05D8A420D0010E4A6E99
:104688004B50D8A40DD0000E0001A76F500EA66F96
:10469800000E0001A86F020E86EC6AF0010E0CD025
:1046A800090E0001A76F740EA66F000E0001A86F17
:1046B800020E86EC6AF0000E4B6E58D04B50D8B400
:1046C8000CD0000E0001A76F500EA66F000E00015F
:1046D800A86F020E86EC6AF049D0090E0001A76F98
:1046E800740EA66F000E0001A86F020E86EC6AF029
:1046F8003DD0000E0001A76F1E0EA66F000E000130
:10470800A86F020E86EC6AF031D00001B951000A98
:10471800D8B40ED7010AD8B419D7030AD8B424D705
:10472800010AD8B434D7070AD8B445D7010AD8B48F
:1047380055D7030AD8B465D70D0AD8B43CD7070AA9
:10474800D8B439D7010AD8B436D7030AD8B433D77E
:10475800010AD8B430D71F0AD8B466D7010AD8B42A
:1047680076D7030AD8B486D7C4D700D0030E91EC05
:1047780071F00009D8B42BD1010E5A6E0001BB2B81
:10478800020E0001BB19D8A4F1D0000E0001BB6FC6
:10479800EDD0000E4D6E000E0001A76F1E0EA66F25
:1047A800000E0001A86F030E86EC6AF010D1010E0E
:1047B8004D6E000E0001A76F1E0EA66F000E0001C1
:1047C800A86F030E86EC6AF002D10001BB05D8A4DD
:1047D80003D0010E4D6E00D0000E0001A76F400EF1
:1047E800A66F000E0001A86F030E86EC6AF0EFD0EA
:1047F8000001BB05D8A403D0010E4D6E00D0000EF9
:104808000001A76F7D0EA66F000E0001A86F030EB2
:1048180086EC6AF0DCD000D00001BB05D8A403D038
:10482800010E4D6E00D0000E0001A76FFA0EA66FA4
:10483800000E0001A86F030E86EC6AF0C8D00001D4
:10484800BB05D8A403D0010E4D6E00D0010E0001A7
:10485800A76FF40EA66F000E0001A86F030E86EC7A
:104868006AF0B5D00001BB05D8A403D0010E4D6E87
:1048780000D0030E0001A76FE80EA66F000E00011E
:10488800A86F030E86EC6AF0A2D00001BB05D8A47D
:1048980003D0010E4D6E00D0090E0001A76FC40EA3
:1048A800A66F000E0001A86F030E86EC6AF08FD089
:1048B8000001BB05D8A403D0010E4D6E00D0130E25
:1048C8000001A76F880EA66F000E0001A86F030EE7
:1048D80086EC6AF07CD00001BB05D8A420D0010E7C
:1048E8004D6E4E50D8A40DD0000E0001A76F500E8B
:1048F800A66F000E0001A86F030E86EC6AF0010E89
:104908000CD0090E0001A76F740EA66F000E0001EF
:10491800A86F030E86EC6AF0000E4E6E58D04E500B
:10492800D8B40CD0000E0001A76F500EA66F000E71
:104938000001A86F030E86EC6AF049D0090E000149
:10494800A76F740EA66F000E0001A86F030E86EC09
:104958006AF03DD0000E0001A76F1E0EA66F000E74
:104968000001A86F030E86EC6AF031D00001BD513A
:10497800000AD8B40ED7010AD8B419D7030AD8B494
:1049880024D7010AD8B434D7070AD8B445D7010ABE
:10499800D8B455D7030AD8B465D70D0AD8B43CD7CC
:1049A800070AD8B439D7010AD8B436D7030AD8B415
:1049B80033D7010AD8B430D71F0AD8B466D7010A4A
:1049C800D8B476D7030AD8B486D7C4D700D0090E8E
:1049D8000001B919D8A40BD05A50D8B408D0000196
:1049E800BB510001D8A403D0010E4A6E00D00A0EB4
:1049F8000001BD19D8A40BD05950D8B408D0000173
:104A0800BA510001D8A403D0010E4D6E00D0080E93
:104A18000001B919D8A409D05A50D8B406D04D50BD
:104A2800D8B403D0010E4A6E00D0070E0001BD199C
:104A3800D8A409D05950D8B406D04A50D8B403D015
:104A4800010E4D6E00D04D50D8B410D00101B251B6
:104A58000101D8B403D00101B20700D00001BC5154
:104A68000001D8B403D00001BC0700D04A50D8B424
:104A78000DD04950D8B402D0490600D00001B85131
:104A88000001D8B403D00001B80700D00001B85124
:104A98000001D8B402D0000E4A6E0001BC510001DA
:104AA800D8B402D0000E4D6E4950D8B424D035D0B9
:104AB80022D00A0E0001B86F0001B851040F13D0BC
:104AC8000A0E0001B86F0001B851030F0CD00A0E8E
:104AD8000001B86F0001B851020F05D00A0E00019D
:104AE800B86F0001B829496E18D00A0E0001B86FD6
:104AF800B8C049F012D00001B9510B0AD8B4D9D7BF
:104B0800070AD8B4DDD7010AD8B4E1D7030AD8B464
:104B1800E5D7010AD8B4E9D700D00101B2510101A3
:104B2800D8B425D036D023D00A0E0001BC6F0001BE
:104B3800BC51040F13D00A0E0001BC6F0001BC5118
:104B4800030F0CD00A0E0001BC6F0001BC51020F0C
:104B580005D00A0E0001BC6F0001BC290101B26F2B
:104B680018D00A0E0001BC6FBCC0B2F112D000010F
:104B7800BD510B0AD8B4D8D7070AD8B4DCD7010A74
:104B8800D8B4E0D7030AD8B4E4D7010AD8B4E9D72F
:104B980000D04A5036EC75F04D502AEC75F01200F2
:104BA8000101226F0001C651D8A404D00001CF51E1
:104BB800D8B447D2800E0101B019D8B459D044C036
:104BC80098F045C099F0D9C29AF0DAC29BF0A3ECEC
:104BD8006DF00001985100019911D8A413D0000E6E
:104BE8000001996F0001C751010D000EF324D96E21
:104BF800060EF420DA6EDF50B5EC73F0010E0001FA
:104C0800C26F27D00DC199F0C7C08BF000018C6B23
:104C180053C28DF000018E6BC90E00018F6F000E1C
:104C2800906F000E916F000E926F8AEC6CF0000E80
:104C380000018B25D96E060E00018C21DA6EDF503B
:104C4800B5EC73F0000E0001C26F000E0201436F55
:104C580000D0020E0001CF19D8A406D0010E000121
:104C6800C66F000E0001CF6F000E0201576F2BD0E8
:104C7800020E0001CF19D8A407D0010E0001C66F9B
:104C8800000E0001CF6F1FD00201572B010E020149
:104C9800576519D0F25000D0070E2EEC4DF0000EDB
:104CA8000001C66F000E0001CF6F010E0201DE6F1A
:104CB800000E00018C6F040E8B6F030E00018D6FC8
:104CC800F2EC56F000D044044510D8A407D0010EE9
:104CD800546EAAC0A2F1ABC0A3F100D0080E91ECAB
:104CE80071F00009D8B408D00001CA51D8B404D072
:104CF800010E0201556F00D0080E8DEC73F000090B
:104D0800D8B42BD00001CA51D8A419D05EC097F0EE
:104D18000001986B3EEC63F000019751576E5750B5
:104D280000085E240001CA6F57C0A6F00001A76BF7
:104D3800010E0001A86F080E86EC6AF00ED0CAC0FA
:104D4800A6F00001A76B010E0001A86F080E86EC03
:104D58006AF0000E0001CA6F00D00101BA510101CA
:104D6800D8A406D00201185102011911D8B443D1B0
:104D78000001C251D8B43FD1010122510101D8B478
:104D88003AD11AC20EF11BC20FF101010E1F0F1FFB
:104D98000E4B0F2B040E0001976F010E6CEC56F0B2
:104DA80001010E51000197250101276F01010F51E3
:104DB800000198210101286F27C10EF128C10FF1C8
:104DC80001010E1F0F1F0E4B0F2B0EC125F10FC136
:104DD80026F1080E0101285DD8A00BD0FE0E0101B6
:104DE800275D0F0E01012859D8B003D00101BA2B55
:104DF80036D0010127290F0E01012859D8A00CD05F
:104E0800FD0E0101275D170E01012859D8B004D005
:104E1800020E0101BA2723D0080E0101265DD8A091
:104E28000BD0FE0E0101255D0F0E01012659D8B0E9
:104E380003D00101BA0713D0010125290F0E010182
:104E48002659D8A00CD0FD0E0101255D170E0101D1
:104E58002659D8B004D0020E0101BA5F00D0040E62
:104E68000001976F010E6CEC56F097C027F198C0BF
:104E780028F1AAC08BF0ABC08CF027C18DF028C1F7
:104E88008EF0000E00018F6F000E906F010E916F73
:104E9800000E926F8AEC6CF08BC018F18CC019F17F
:104EA80018C1A2F019C1A3F018C2A4F019C2A5F044
:104EB800000E0001A66F000EA76F010EA86F000E6E
:104EC800A96FDBEC5EF0A2C023F1A3C024F123C1DB
:104ED80098F024C199F0070E00019B6F9A69A3EC22
:104EE8006DF098C01EF199C01FF11EC198F01FC146
:104EF80099F0040E00019A6F010E06EC46F00101CC
:104F08001E510101235F01011F510101245B23C1CF
:104F1800AAF024C1ABF023C191F024C192F0070E8E
:104F28000001946F936912EC6BF091C044F092C049
:104F380045F0C7C0A2F00001A36BBAC1A4F00001FC
:104F4800A56BC90E0001A66F000EA76F000EA86F13
:104F5800000EA96FDBEC5EF00001A2510001C76FE3
:104F6800BAC110F10101116B000E0101BA6F000EF8
:104F78000201196F000E186F000E02010D6F000E6E
:104F88000C6F44504510D8A408D0000E456E100E82
:104F9800446E0AC2AAF00BC2ABF0070E0101A36F60
:104FA800A269020E0001CF6F040E0001976F010E77
:104FB8006CEC56F00001AA51000197250101206F01
:104FC8000001AB51000198210101216F2DEC76F011
:104FD8000101126F20C114F1010121510101136F68
:104FE800000E00018C6F040E8B6F020E00018D6F96
:104FF800F2EC56F022D00001C7515818D8A40BD0B3
:105008000001C651D8B407D0010122510101D8A42A
:1050180014D001D012D002015551D8B40ED019ECD9
:1050280076F00009D8B409D0010122510101D8B4A1
:1050380004D0000E0201556F00D00201284B292B25
:105048004DD0060E8DEC73F00009D8B41CD0000EBC
:105058000001986F320E976F3EEC63F0540E00011A
:10506800972501011A6F240E0001982101011B6F79
:105078001AC1A6F01BC1A7F0000E0001A86F060E0A
:1050880086EC6AF000D0060E91EC71F00009D8B4F5
:105098000CD0000E0001996F5F50B5EC73F0000E54
:1050A8000201DC6F010EDB6F00D00201DC510BE165
:1050B800330E0201DB5DD8B006D021EC74F002019A
:1050C800DB4BDC2B00D0330E0201DB190201DC11B3
:1050D800D8A404D00201DB4BDC2B00D05850D8A454
:1050E80003D0C80E586E02D0580600D0050E91ECB9
:1050F80071F00009D8A474EC6EF0090E8DEC73F011
:105108000009D8B44CD025EC76F001010E6F0101EE
:105118000E513E0DF3CF1CF1F4CF1DF11CC193F0DD
:105128001DC194F022EC73F093C096F094C097F0F0
:1051380095C098F0000E0001996F7A0E00019A6FE1
:10514800440E00019B6FCEEC52F096C015F197C04B
:1051580016F198C017F1000E0001966F280E000195
:10516800976F430E0001986F15C193F016C194F024
:1051780017C195F01BEC50F093C0A2F094C0A3F0B7
:1051880095C0A4F025EC52F0A2C0A6F0A3C0A7F0E9
:10519800010E0001A86F090E86EC6AF000D0090E16
:1051A80091EC71F00009D8B417D0070E2EEC4DF031
:1051B800000E0001C66F000E0001CF6F010E020144
:1051C800DE6F000E00018C6F040E8B6F050E000160
:1051D8008D6FF2EC56F000D00F0E91EC71F00009D3
:1051E800D8B404D0010E0201DE6F00D00E0E91EC8F
:1051F80071F01200000E0101016FCB0E01010F6F5B
:10520800040E0101106F0FC1D9FF10C1DAFF010EA2
:10521800DF6E000E0101026F060E0101026F010E22
:1052280001010C6F010E01010C6501D096D000013F
:10523800C151060DBD0EF3240001916F0A0EF42032
:105248000001926FD10E0001936F010E0001946F5F
:10525800040E0001956F5DEC6FF00009D8A449D0E9
:105268000001C151060D050EF326000EF422BD0EF5
:10527800F324D96E0A0EF420DA6EDE28D8B439D0B9
:105288000001C151060DBD0EF32400018B6F0A0EFB
:10529800F42000018C6F000E00018D6F0FC18EF09D
:1052A80010C18FF0010E0001906F040E0001916F84
:1052B8008FEC68F0010120EE05F00F51D92610514E
:1052C800DA22040E0001936F0001C151060D050E8C
:1052D800F326000EF422BD0EF324E16E0A0EF4202C
:1052E800E26EE75091EC48F0DF6E010E0101016FAC
:1052F80003D001010C0700D03E0E0001C16103D0AC
:105308000001C12B27D0000E0001C16F010101511E
:105318000101D8A422D0D10E00018B6F010E00012B
:105328008C6F000E00018D6F0FC18EF010C18FF0D1
:10533800010E0001906F040E0001916F8FEC68F070
:10534800010120EE05F00F51D9261051DA22FF0E87
:10535800DF6E03D001010C2B65D7000E0101066F2B
:10536800000E01010E6F000E0101036FC0C000F1B5
:105378001AD20001CB51D8B4FCD001010E51010D55
:10538800000EF324D96E020EF420DA6EDF5001010C
:105398000D6F080E0001976F010E0001986F010153
:1053A8000D515DEC65F0010E01010E2500018B6FBA
:1053B80000018C6B000E8C23000E00018E6F050E11
:1053C8008D6F2AEC72F0010E00018B27000E000190
:1053D8008C2300018B5101010F25D96E00018C51DE
:1053E80001011021DA6E08C1DFFF010E01010E254F
:1053F80000018B6F00018C6B000E8C23000E0001E6
:105408008E6F050E8D6F2AEC72F0020E00018B274D
:10541800000E00018C2300018B5101010F25D96E6C
:1054280000018C5101011021DA6E09C1DFFF010E64
:1054380001010E2500018B6F00018C6B000E8C237F
:10544800000E00018E6F050E8D6F2AEC72F0030EB0
:1054580000018B27000E00018C2300018B510101F4
:105468000F25D96E00018C5101011021DA6E0AC195
:10547800DFFF010E01010E2500018B6F00018C6B0F
:10548800000E8C23000E00018E6F050E8D6F2AEC26
:1054980072F0040E00018B27000E00018C2300011E
:1054A8008B5101010F25D96E00018C51010110218A
:1054B800DA6E0BC1DFFF01010D51020D010EF3265B
:1054C800000EF422C90EF324D96E080EF420DA6E09
:1054D800DF38E832070B00019F6F050E0001A06F4F
:1054E8000001D8909F370001A02FFAD700019F51E3
:1054F8000101046F01010D51020D010EF326000E8A
:10550800F422C90EF324D96E080EF420DA6EDF50A7
:105518001F0B01010427010E01010E2500018B6FED
:1055280000018C6B000E8C23000E00018E6F050E9F
:105538008D6F2AEC72F0050E00018B27000E00011A
:105548008C2300018B5101010F25D96E00018C516C
:1055580001011021DA6E04C1DFFF050E01010627E3
:1055680001010E2B0001CB51D8B41DD10001CB078E
:105578001AD1D10E00018F6F010E0001906F00014A
:10558800C05108EC5AF00009D8A4F8D00001C05165
:10559800020DC90EF324D96E080EF420DA6EDF501E
:1055A8003F0B3F0AD8B4EAD0080E0001976F010EEE
:1055B8000001986F0001C0515DEC65F0010E01011A
:1055C8000E2500018B6F00018C6B000E8C23000EE2
:1055D80000018E6F050E8D6F2AEC72F0010E00012E
:1055E8008B27000E00018C2300018B5101010F2530
:1055F800D96E00018C5101011021DA6E08C1DFFF5C
:10560800010E01010E2500018B6F00018C6B000E4D
:105618008C23000E00018E6F050E8D6F2AEC72F040
:10562800020E00018B27000E00018C2300018B5114
:1056380001010F25D96E00018C5101011021DA6E8C
:1056480009C1DFFF010E01010E2500018B6F00016A
:105658008C6B000E8C23000E00018E6F050E8D6F73
:105668002AEC72F0030E00018B27000E00018C2338
:1056780000018B5101010F25D96E00018C510101E8
:105688001021DA6E0AC1DFFF010E01010E250001AB
:105698008B6F00018C6B000E8C23000E00018E6F47
:1056A800050E8D6F2AEC72F0040E00018B27000E98
:1056B80000018C2300018B5101010F25D96E0001D7
:1056C8008C5101011021DA6E0BC1DFFF0001C051BE
:1056D800020D010EF326000EF422C90EF324D96E32
:1056E800080EF420DA6EDF38E832070B00019F6FEE
:1056F800050E0001A06F0001D8909F370001A02F70
:10570800FAD700019F510101056F0001C051020D38
:10571800010EF326000EF422C90EF324D96E080EEA
:10572800F420DA6EDF501F0B01010527010E01017D
:105738000E2500018B6F00018C6B000E8C23000E70
:1057480000018E6F050E8D6F2AEC72F0050E0001B8
:105758008B27000E00018C2300018B5101010F25BE
:10576800D96E00018C5101011021DA6E05C1DFFFED
:10577800050E0101062701010E2B00D0F90E0001CC
:10578800C06103D00001C02B04D0000E0001C06F1F
:1057980000D00001C05101010019D8A404D0010EA5
:1057A8000101036F00D0080E01010E6107D001014D
:1057B80003510101D8A402D0DCD500D00101025167
:1057C800010106250101076F01010751010DF35081
:1057D80001010F25D96EF45001011021DA6EBDC107
:1057E800DFFF0101072B010107511200120001011F
:1057F8000F510101D8B4F2D2C90E01011161EED2E4
:105808000DC1D9FF0EC1DAFFDE28D8A456D0000199
:10581800CF51D8A452D00001C651D8B422D0050E19
:105828008DEC73F00009D8B48DD2060E0001986F84
:105838000E0E976F3EEC63F01C0E000197250101D8
:105848001C6F0C0E0001982101011D6F1CC1A6F0F0
:105858001DC1A7F0000E0001A86F050E86EC6AF0C6
:1058680071D20E0E8DEC73F00009D8B46BD2050E10
:105878008DEC73F00009D8B41CD0060E0001986FA7
:105888000E0E976F3EEC63F01C0E00019725010188
:105898001E6F0C0E0001982101011F6F1EC1A6F09A
:1058A8001FC1A7F0000E0001A86F050E86EC6AF074
:1058B80000D0010E0001C66F45D2020E01010F652E
:1058C80041D2010120EE01F00D51D9260E51DA2204
:1058D800DF500101126F010112510101316F326B6A
:1058E800010131510101326F316B010120EE02F0EB
:1058F8000D51D9260E51DA22DF500101126F010134
:10590800125101013127000E322331C114F132C185
:1059180015F1040E0001976F010E6CEC56F097C05C
:105928002DF198C02EF1B4C0A2F0B5C0A3F02DC1DE
:10593800A4F02EC1A5F0FF0E0001A66F070EA76FF9
:10594800000EA86F000EA96FDBEC5EF0A2C020F17C
:10595800A3C021F1AAC08BF0ABC08CF02DC18DF093
:105968002EC18EF0000E00018F6F000E906F010E99
:10597800916F000E926F8AEC6CF08BC02FF18CC087
:1059880030F12FC127F130C128F12FC18BF030C180
:105998008CF0000E00018E6F3D0E8D6F000E000121
:1059A8008F6F000E906F010E916F000E926F8AEC50
:1059B8006CF08BC02DF18CC02EF10101105101014A
:1059C800D8B415D02DC18BF02EC18CF0000E00017B
:1059D8008E6F050E8D6F000E00018F6F000E906F99
:1059E800010E916F000E926F8AEC6CF014D02DC1ED
:1059F8008BF02EC18CF0000E00018E6F000E8D6FA3
:105A0800000E00018F6F000E906F010E916F000E57
:105A1800926F8AEC6CF08BC02FF18CC030F131C1E1
:105A2800A2F032C1A3F020C1A4F021C1A5F0000E5C
:105A38000001A66F000EA76F010EA86F000EA96FD8
:105A4800DBEC5EF0A2C02DF1A3C02EF12DC131F127
:105A58002EC132F12FC112F130C113F10101121F11
:105A6800131F124B132B01013151010112250101A2
:105A78002B6F010132510101132101012C6F2BC140
:105A880012F12CC113F10101121F131F124B132B1A
:105A9800FF0E010112250101296FFF0E01011321DB
:105AA80001012A6F0DC1D9FF0EC1DAFF01011151A1
:105AB800DE18D8A414D0080E01012C5DD8A005D09A
:105AC800800E01012C5DD8A00AD0080E01012A5DC4
:105AD800D8A075D0800E01012A5DD8B070D002011F
:105AE800DE51D8A404D00001C651D8A4D4D02FC107
:105AF800A2F030C1A3F031C1A4F032C1A5F0000E6C
:105B08000001A66F000EA76F010EA86F000EA96F07
:105B1800DBEC5EF0A2C018F2A3C019F22FC198F016
:105B280030C199F0070E00019B6F9A69A3EC6DF0E4
:105B380098C012F199C013F131C198F032C199F0AF
:105B4800070E00019B6F9A69A3EC6DF00001981F86
:105B58000001991F0001984B992B000198510101F0
:105B6800122502011A6F0001995101011321020146
:105B78001B6F11C1A2F00001A36B0DC1D9FF0EC1AB
:105B8800DAFFDF500101126F010112510001A46F09
:105B9800A56BC90E0001A66F000EA76F000EA86FB7
:105BA800000EA96FDBEC5EF00001A2510101BA6F93
:105BB800010E0001CF6F000E0001C66F6CD001010D
:105BC800315101012F5D0101325101013059D8B025
:105BD80047D0800E01012C5DD8B042D001012F5171
:105BE8000008010131250101266F0101265100013C
:105BF800AA27000EAB232FC112F130C113F1010106
:105C0800121F131F124B132B0101315101011225D1
:105C18000201206F01013251010113210201216F9C
:105C2800020120510201225D020121510201235982
:105C3800D8B016D02FC112F130C113F10101121FD3
:105C4800131F124B132B01013151010112250201BF
:105C5800226F01013251010113210201236F00D08B
:105C68000001C651D8B404D00001CF51D8A404D043
:105C7800010E0001C66F00D0010127510201385DF5
:105C88000101285102013959D8B005D027C138F28D
:105C980028C139F200D025EC76F00101126F01011C
:105CA80012513E0DF3CF22F1F4CF23F122C193F02C
:105CB80023C194F022EC73F093C096F094C097F04F
:105CC80095C098F0000E0001996F7A0E00019A6F46
:105CD800440E00019B6FCEEC52F096C016F197C0AF
:105CE80017F198C018F1000E0001966F280E0001F8
:105CF800976F430E0001986F16C193F017C194F087
:105D080018C195F01BEC50F093C0A2F094C0A3F01A
:105D180095C0A4F025EC52F0A2C0A6F0A3C0A7F04D
:105D2800010E0001A86F090E86EC6AF0000E020150
:105D3800296F000E286F030E01010F6503D0010EB5
:105D4800120000D025EC76F00101126F010112510A
:105D58003E0DF3CF24F1F4CF25F124C193F025C1F2
:105D680094F022EC73F093C096F094C097F095C02D
:105D780098F0000E0001996F7A0E00019A6F440E98
:105D880000019B6FCEEC52F096C019F197C01AF142
:105D980098C01BF1000E0001966F280E0001976F46
:105DA800430E0001986F19C193F01AC194F01BC1FA
:105DB80095F01BEC50F093C0A2F094C0A3F095C0EE
:105DC800A4F025EC52F0A2C0A6F0A3C0A7F0010EE3
:105DD8000001A86F090E86EC6AF000D0000E1200D0
:105DE8001200000E0101496F000E0101BC6F000E88
:105DF80000018B6F000E6FEC71F0000E0101CE6F89
:105E0800000E566E200EB3EC54F0000E0101C26F66
:105E1800000E0101AA6F0101E7511EEC75F0020E98
:105E2800F0EC71F0600EB3EC54F0000E0001996FC5
:105E3800000EB5EC73F0190E0001A76F640EA66F83
:105E4800000E0001A86F110E86EC6AF0000E00012A
:105E5800A76F780EA66F010E0001A86F120E86ECD0
:105E68006AF0010E516E04000101AB51D8B409D09B
:105E7800000E0101AB6F3E0E24EC34F002014C2BF6
:105E880000D00101AD51D8B409D0000E0101AD6FA9
:105E9800200EB3EC54F0600EB3EC54F00101AF5196
:105EA800D8B407D0600EB3EC54F0000E0101AF6F08
:105EB80000D00101AC51D8A404D00101AA51D8B432
:105EC800ACD1000E0101516F000E0101546F000E9C
:105ED800536F000E02014C6F0101AC51D8B455D07C
:105EE800000E0101AC6F66EC75F00101DF6F66EC26
:105EF80075F0000E01014F6F1DD001014F51010DCA
:105F0800720EF324D96E030EF420DA6E66EC75F087
:105F1800DF6E01014F51010D720EF324D96E030E8D
:105F2800F420DA6EDF50010151190101516F0101AE
:105F38004F2B00D0FF0E01013E6FFF0E01013F6F96
:105F48000101DF510101406F416B01013E51010127
:105F5800402701013F510101412301014F51010136
:105F6800426F436B010140510101425D0101435100
:105F7800800A0101446F01014151800A010144591D
:105F8800D8A0BBD7000E0101C26F0101AA51D8B435
:105F98001DD0000E0101506F3A0E0101506501D06D
:105FA80011D001015051010D720EF324D96E030E68
:105FB800F420DA6EDF50010151190101516F01011E
:105FC800502BEAD7000E0101AA6F00D073C353F11A
:105FD8000101546B010153510101546F536B0301CB
:105FE800725101015327000E54230001CE510001C4
:105FF800D8B41CD0D00E01013E6FCA0EE82EFED7D1
:106008003E2FFCD7D00E01013E6FCA0EE82EFED7F8
:106018003E2FFCD7090E0101545DD8B0DCD053C126
:106028009FF054C1A0F036EC6DF0D5D0010E0101FF
:10603800496F010151510101D8A4CDD001D0CBD075
:106048000001B0510101531905E10001B1510101ED
:106058005419D8A4C0D00001B0510001B111D8A47E
:106068002BD0000E01014B6F000E4C6F000E4D6FD0
:10607800000E4E6F01014E511FE1100E01014C5DE3
:10608800020E01014D59D8B017D001D015D04BC11F
:1060980090F04CC191F04DC192F04EC193F00CECD0
:1060A80073F0000E01014B27100E4C23000E4D23F8
:1060B800000E4E23DFD700D0000E0101526F370EBD
:1060C8000101526501D044D0B0C08BF0B1C08CF052
:1060D800000E00018E6F380E8D6F2AEC72F00001F1
:1060E8008B51010152250101456F00018C510101BD
:1060F800466F000E010146230101476B010147234A
:106108000101486B45C190F046C191F047C192F03A
:1061180048C193F001015251010D020EF326000E01
:10612800F422720EF3240001946F030EF420000190
:10613800956F040E0001966F000E976F000E986F12
:10614800000E996F22EC69F0040E01015227B7D7AF
:106158000001B04BB12B0101A0510001B0193BE186
:106168000101A1510001B119D8A435D0000E0001D8
:10617800906F000E916F020E926F000E936F980E43
:106188000001946F020E0001956F010E0001966FD9
:10619800000E976F000E986F000E996F22EC69F051
:1061A800010E0001906F000E916F020E926F000EAB
:1061B800936FE30E0001946F030E0001956F0B0EB1
:1061C8000001966F000E976F000E986F000E996F82
:1061D80022EC69F000D0030E0001A76FE80EA66F4D
:1061E800000E0001A86F110E86EC6AF00001CE5176
:1061F8000001D8B412D00101535101015411D8A49F
:106208000CD0270E0001A76F100EA66F000E00011C
:10621800A86F110E86EC6AF000D00001CE51000183
:10622800D8A424D0020E02014C6506D0010E01014B
:10623800496F000E02014C6F010149510101D8B4A8
:1062480015D00101A0510001B05D0101A15100016B
:10625800B159D8B007D0B0C095F0B1C096F0C8EC2D
:1062680073F000D0000E0101496F00D0000E00014C
:106278008C6F010E8B6FE00E00018D6F010E000117
:106288008E6F23EC4AF00009D8B438D0000E000114
:10629800976F040E0001986FDE0E0001996F010ED2
:1062A80000019A6F0101E0511FEC40F00009D8B4D9
:1062B80025D004010151C00B01014A6F01014A4573
:1062C800E846030B01014A6F030E01014A19D8A4DD
:1062D80015D0020E0001916F040E0001926F720E2C
:1062E8000001936F030E0001946F3B0E0001956F40
:1062F8002BEC70F0010E0101AA6F00D0020E91EC98
:1063080071F00009D8B405D0937693B602D08A9676
:1063180000D0110E91EC71F00009D8B402D0FF0042
:1063280000D0020E8DEC73F00009D8B40BD0000E2B
:106338000001A76FFA0EA66F000E0001A86F020EEB
:1063480086EC6AF0110E8DEC73F00009D8B40BD00E
:10635800030E0001A76FE80EA66F000E0001A86FDC
:10636800110E86EC6AF0120E91EC71F00009D8B4A7
:106378007AD5FF0078D512009F0E01010A6F000E32
:1063880001010B6F4CD2250E01011119D8B405D0AB
:1063980001011151A3EC74F042D2000E0101106FFB
:1063A800000E0F6F000E01010E6F07D001010E8560
:1063B80000019D4B9E2B01D00BD09DC0F6FF9EC0C7
:1063C800F7FF0800F550300AD8B4F0D701D0F5D758
:1063D8009DC0F6FF9EC0F7FF0800F550DEEC72F096
:1063E800D8A0A5D0000E0101106F000E0F6F00D0CD
:1063F8000FC18BF010C18CF0000E00018E6F0A0ED9
:106408008D6F2AEC72F08BC00FF18CC010F1D00E9A
:106418000101006FFF0E0101016F9DC0F6FF9EC0D4
:10642800F7FF0800F5500101026F036B01010051ED
:106438000101022701010151010103230101025158
:1064480001010F27010103510101102300019D4B98
:106458009E2B9DC0F6FF9EC0F7FF0800F550DEECAE
:1064680072F0D8A064D0C4D762D012007FD000D018
:1064780001010E8F7BD001010F510101075D010160
:10648800105101010859D8B009D001010751010183
:106498000F5F010108510101105B0AD0000E0101D4
:1064A800106F000E0F6F04D0200EA3EC74F000D014
:1064B80001010F07D8A0100701010F29F5E101011B
:1064C8001029D8B40DD0F0D70BD005C1D9FF06C11B
:1064D800DAFFDF50A3EC74F00101054B062B00D066
:1064E80001010707D8A0080701010729EEE101010A
:1064F8000829D8B494D1E9D792D10AC1D9FF0BC1E0
:10650800DAFFDF500101116F020E01010A27000EA8
:106518000B2300D0110E0101056F010E0101066F5A
:10652800000E0101086F010E076FA5D71FD09DC08F
:10653800F6FF9EC0F7FF00019D4B9E2B0800F5CF8C
:1065480011F101011151000AD8B41200580AD8B447
:106558008FD73B0AD8B4D1D7070AD8B407D00D0AC9
:10656800D8B404D0110AD8B483D7D4D701010EBF48
:1065780019D00AC1D9FF0BC1DAFFDECF0CF1DDCF8C
:106588000DF1020E01010A27000E0B2301010DAFC8
:106598005DD0030E01010E1301010C6D0D1FD8B063
:1065A8000D2B54D00AC1D9FF0BC1DAFFDECF0CF195
:1065B800DDCF0DF1020E01010A27000E0B2346D094
:1065C800010E0101116F050E01011119D8B448D04F
:1065D80001D046D001011151020D2F0EF324F66EA1
:1065E800FE0EF420F76E0900F55001010C5D09005C
:1065F800F55001010D59D8A033D001D031D0010197
:10660800112BE1D72DD0010E0101116F040E0101EC
:106618001119D8B425D001D023D001011151020D90
:10662800390EF324F66EFE0EF420F76E0900F550CD
:1066380001010C5D0900F55001010D59D8A010D0D9
:1066480001D00ED00101112BE1D70AD001010E5162
:10665800800B000AD8B4B4D7800AD8B4D4D700D0F5
:1066680001010F5101011011D8B40CD00EC100F175
:10667800030E01010017D8B405D001010F07D8A0F7
:10668800100700D0800E010111BF7F0E0101006FBD
:1066980001010F510101115D01011051800A010131
:1066A8000059D8B00BD00101115101010F5F000E44
:1066B800010111BFFF0E0101105B06D0000E0101A0
:1066C800106F000E0F6F00D001010EA520D00EC173
:1066D80000F1030E01010017D8B404D02D0EA3EC6D
:1066E80074F000D001010F5101011011D8B42FD05E
:1066F800300EA3EC74F001010F07D8A010070101B8
:106708000F5101011011D8B422D0F2D720D00101C5
:106718000F5101011011D8B40FD0200EA3EC74F062
:1067280001010F07D8A0100701010F510101101135
:10673800D8B402D0F2D700D00EC100F1030E010187
:106748000017D8B404D02D0EA3EC74F000D011C1FA
:1067580009F15DD04DD001010951020D2F0EF3242E
:10676800F66EFE0EF420F76E0900F5CF93F00A00DE
:10677800F5CF94F00CC191F00DC192F012EC6BF0D2
:1067880091C098F092C099F0000E00019B6F0A0E1C
:106798009A6FA3EC6DF000019851300F0101116F51
:1067A80031D00CC191F00DC192F001010951020DD7
:1067B800390EF324F66EFE0EF420F76E0900F5CFBD
:1067C80093F00A00F5CF94F012EC6BF000019151B0
:1067D8000F0B0101046F01010451010D480EF32450
:1067E800F66EFF0EF420F76E0800F5CF11F10AD00F
:1067F80001010E51800B000AD8B4ADD7800AD8B475
:10680800D0D700D001011151A3EC74F000D00101E0
:10681800090701010929D8B402D0EAD700D09DC0E0
:10682800F6FF9EC0F7FF00019D4B9E2B0800F5CF99
:1068380011F101011151D8B41200A5D512001200AE
:1068480000018F6F00018F51020126250201266F7A
:10685800000E020127210201276F000E0001906F30
:10686800180E0001906501D072D000019051010D01
:10687800590EF324D96E030EF420DA6EDF50D8A433
:1068880063D000019051020D000EF324D96E030E5F
:10689800F420DA6E00018F5100018D6F8E6B010EAE
:1068A80000018D27000E8E23DE5000018D5DDE5025
:1068B80000018E59D8B02DD000019051020D000E64
:1068C800F324D96E030EF420DA6EDECF8BF0DDCF21
:1068D8008CF000018F5100018D6F8E6B00018D1FB0
:1068E8008E1F8D4B8E2B00018B5100018D270001CF
:1068F8008C5100018E2300019051020D000EF324EB
:10690800D96E030EF420DA6E8DC0DEFF8EC0DDFF77
:106918001BD000019051020D000EF324D96E030E16
:10692800F420DA6EDE50DE10D8B40ED0000190519B
:10693800020D000EF324D96E030EF420DA6E010E58
:10694800DE6E000EDD6E00D00001902B89D7E80EB8
:106958000201265D030E02012759D8A01200180E65
:10696800020126250201266FFC0E020127210201E1
:10697800276F0101C72B000E0001916F180E00014F
:10698800916501D063D000019151010D590EF32496
:10699800D96E030EF420DA6EDE04D8A454D00001B8
:1069A8009151020D000EF324D96E030EF420DA6E15
:1069B800010EDB5004E1020EDE5CD8A029D0FF0EE8
:1069C80000018B6FFF0E00018C6F00019151020DC9
:1069D800000EF324D96E030EF420DA6EDECF8DF0AC
:1069E800DDCF8EF000018B5100018D2700018C5105
:1069F80000018E2300019151020D000EF324D96E7F
:106A0800030EF420DA6E8DC0DEFF8EC0DDFF1BD0D2
:106A180000019151020D000EF324D96E030EF420EB
:106A2800DA6EDE50DE10D8B40ED000019151020D9E
:106A3800000EF324D96E030EF420DA6E010EDE6E1A
:106A4800000EDD6E00D00001912B98D73B0E01019E
:106A5800C76512000101C751C40F0101C76F0101C9
:106A6800BF2B000E0001926F180E0001926501D035
:106A780064D000019251010D590EF324D96E030E12
:106A8800F420DA6E020EDE18D8A454D00001925118
:106A9800020D000EF324D96E030EF420DA6E010EF7
:106AA800DB5004E1020EDE5CD8A029D0FF0E000105
:106AB8008B6FFF0E00018C6F00019251020D000ECA
:106AC800F324D96E030EF420DA6EDECF8DF0DDCF1D
:106AD8008EF000018B5100018D2700018C510001BF
:106AE8008E2300019251020D000EF324D96E030E7D
:106AF800F420DA6E8DC0DEFF8EC0DDFF1BD00001F2
:106B08009251020D000EF324D96E030EF420DA6EB2
:106B1800DE50DE10D8B40ED000019251020D000EE6
:106B2800F324D96E030EF420DA6E010EDE6E000E29
:106B3800DD6E00D00001922B97D73B0E0101BF6597
:106B480012000101BF51C40F0101BF6F000E000107
:106B5800936F180E0001936502D012001200000115
:106B68009351010D590EF324D96E030EF420DA6EF9
:106B7800030EDE18D8A454D000019351020D000E64
:106B8800F324D96E030EF420DA6E010EDB5004E113
:106B9800020EDE5CD8A029D0FF0E00018B6FFF0E1D
:106BA80000018C6F00019351020D000EF324D96E81
:106BB800030EF420DA6EDECF8DF0DDCF8EF000010B
:106BC8008B5100018D2700018C5100018E2300019B
:106BD8009351020D000EF324D96E030EF420DA6EE1
:106BE8008DC0DEFF8EC0DDFF1BD000019351020D6A
:106BF800000EF324D96E030EF420DA6EDE50DE1098
:106C0800D8B40ED000019351020D000EF324D96EB2
:106C1800030EF420DA6E010EDE6E000EDD6E00D07B
:106C28000001932B180E0001936599D712001200EA
:106C380012000F0E196E000E1A6EE5D1250E2018DF
:106C4800D8B404D020504EEC75F0DDD1000E1F6E84
:106C5800000E1E6E000E1D6E05D01D840D4A0E2AF4
:106C680001D00BD00DC0F6FF0EC0F7FF0800F5509D
:106C7800300AD8B4F2D701D0F5D70DC0F6FF0EC050
:106C8800F7FF0800F55043EC74F0D8A081D0000E4F
:106C98001F6E000E1E6E00D01EC001F01FC002F055
:106CA800000E046E0A0E036EA1EC73F001C01EF014
:106CB80002C01FF0D00E0F6EFF0E106E0DC0F6FF53
:106CC8000EC0F7FF0800F550116E126A0F5011261A
:106CD8001050122211501E2612501F220D4A0E2A41
:106CE8000DC0F6FF0EC0F7FF0800F55043EC74F036
:106CF800D8A04ED0D1D74CD0120067D000D01D8E6E
:106D080064D01E50165C1F501758D8B005D01650C6
:106D18001E5E17501F5A09D0000E1F6E000E1E6E01
:106D280004D0200E4EEC75F000D01E06D8A01F0629
:106D38001E28F7E11F28D8B40CD0F3D70AD014C006
:106D4800D9FF15C0DAFFDF504EEC75F0144A152A4A
:106D580000D01606D8A017061628F1E11728D8B4CF
:106D680052D1EDD750D119C0D9FF1AC0DAFFDF5080
:106D7800206E020E1926000E1A2200D0200E146E64
:106D8800000E156E000E176E010E166EBAD71DD0C6
:106D98000DC0F6FF0EC0F7FF0D4A0E2A0800F5CF0A
:106DA80020F02050000AD8B41200580AD8B4A7D747
:106DB8003B0AD8B4D8D7070AD8B407D00D0AD8B434
:106DC80004D0110AD8B49BD7D9D71DBE15D019C085
:106DD800D9FF1AC0DAFFDECF1BF0DDCF1CF0020EA0
:106DE8001926000E1A221CAE4ED0030E1D121B6C63
:106DF8001C1ED8B01C2A47D019C0D9FF1AC0DAFF08
:106E0800DECF1BF0DDCF1CF0020E1926000E1A2271
:106E18003AD0010E206E050E2018D8B43DD001D00E
:106E28003BD02050020D2F0EF324F66EFE0EF420F8
:106E3800F76E0900F5501B5C0900F5501C58D8A0E6
:106E48002BD001D029D0202AE6D726D0010E206EDB
:106E5800040E2018D8B420D001D01ED02050020D26
:106E6800390EF324F66EFE0EF420F76E0900F55085
:106E78001B5C0900F5501C58D8A00ED001D00CD0CE
:106E8800202AE6D709D01D50800B000AD8B4C1D7F4
:106E9800800AD8B4DBD700D01E501F10D8B40AD04F
:106EA8001DC00FF0030E0F16D8B404D01E06D8A0CC
:106EB8001F0600D0800E20BE7F0E0F6E1E50205C75
:106EC8001F50800A0F58D8B007D020501E5E000E01
:106ED80020BEFF0E1F5A05D0000E1F6E000E1E6E3C
:106EE80000D01DA41AD01DC00FF0030E0F16D8B481
:106EF80004D02D0E4EEC75F000D01E501F10D8B4E3
:106F080026D0300E4EEC75F01E06D8A01F061E5077
:106F18001F10D8B41CD0F5D71AD01E501F10D8B4E3
:106F28000CD0200E4EEC75F01E06D8A01F061E5081
:106F38001F10D8B402D0F5D700D01DC00FF0030E33
:106F48000F16D8B404D02D0E4EEC75F000D020C02A
:106F580018F053D045D01850020D2F0EF324F66EBA
:106F6800FE0EF420F76E0900F5CF03F00A00F5CF06
:106F780004F01BC001F01CC002F002EC6FF001C06D
:106F880008F002C009F0000E0B6E0A0E0A6E51ECF2
:106F980070F00850300F206E2CD01BC001F01CC0C0
:106FA80002F01850020D390EF324F66EFE0EF4208E
:106FB800F76E0900F5CF03F00A00F5CF04F002ECF4
:106FC8006FF001500F0B136E1350010D480EF32490
:106FD800F66EFF0EF420F76E0800F5CF20F009D00A
:106FE8001D50800B000AD8B4B6D7800AD8B4D5D7BC
:106FF80000D020504EEC75F000D018061828D8B4F0
:1070080002D0EED700D00DC0F6FF0EC0F7FF0D4A34
:107018000E2A0800F5CF20F02050D8B412000ED662
:1070280012001200000E01010E6F010E0D6F010E0D
:1070380001010F6F3E0E22EC45F00001B3BF05D0F1
:10704800100E0001B35DD8B00DD00001B3BF0AD057
:10705800CE0E0001B25D0F0E0001B359D8A002D0C8
:10706800030E3CD00001B3BF08D0CC0E0001B25DC6
:107078000F0E0001B359D8B00DD00001B3BF0AD02C
:10708800B90E0001B25D0B0E0001B359D8A002D0B1
:10709800010E24D00001B3BF08D0B70E0001B25DC5
:1070A8000B0E0001B359D8B00DD00001B3BF0AD000
:1070B800F50E0001B25D010E0001B359D8A002D04F
:1070C800020E0CD00001B3BF08D0F30E0001B25D70
:1070D800010E0001B359D8B004D0000E0001D26FE0
:1070E80000D00201E1510001D219D8B40ED0D2C0AB
:1070F800E1F2F00E0001A36F010E0001A46F000E73
:107108000001A56F31EC44F000D002010FBF0CD094
:1071180002010F5104E102010E05D8A005D00201B9
:107128000E07D8A00F0700D00101B051D8A402D093
:10713800110E18D002010E5102010F11D8A418D057
:107148009CEC70F00009D8B407D0010E02010F6F53
:107158002C0E0E6F120E06D0000E02010F6F1E0EBF
:107168000E6F100E0001BD6F010E02014F6F00D0AF
:107178000101BE510101D8A40DD081EC22F093B6D3
:1071880009D002014F510201D8B402D08A8602D038
:107198008A9600D0130E91EC71F00009D8B402D091
:1071A8008B8E00D0140E91EC71F00009D8B47ED00B
:1071B800DAC165F10101666B01016551666F656BA6
:1071C8000101DB5101016527000E6623100E010144
:1071D800665DD8B068D0010165510201325D0101D8
:1071E800665102013359D8B025D00101D951030B9A
:1071F800E806D8A415D00101E6510101D8B43DD064
:10720800010E0001D36F010E0001A76F2C0EA66FAF
:10721800010E0001A86F160E86EC6AF025D02DD05D
:107228000101D951030B0009D8A427D0000E000191
:10723800D36F23D00101D931E832030BE806D8A473
:1072480017D00101E6510101D8B417D0010E000191
:10725800D36F010E0001A76F2C0EA66F010E00015F
:10726800A86F160E86EC6AF0000E0101E66F05D0D5
:107278000101D931E832D6D700D0020E0001D31966
:10728800D8B411D0B3EC6FF0000E0001A76F3C0E1C
:10729800A66F010E0001A86F150E86EC6AF0000EAD
:1072A8000201466F00D0000E0001B96F140E8DEC7C
:1072B80073F00009D8B40BD0000E0001A76F3C0E84
:1072C800A66F010E0001A86F140E86EC6AF0150E69
:1072D80091EC71F00009D8B414D0B3EC6FF002014E
:1072E800462B0B0E020146610CD0000E0001A76F61
:1072F8003C0EA66F010E0001A86F150E86EC6AF011
:1073080000D0160E91EC71F00009D8B41200010EED
:107318000101E66F12001200010120EE01F0105188
:10732800D9261151DA2210C1E1FF11C1E2FFDE5066
:10733800E618D8A41200010120EE02F01051D92657
:107348001151DA22010110EE01F01051E12611511C
:10735800E222DE50E618D8A41200010120EE02F065
:107368001051D9261151DA22DE28D8B4120010C1E2
:10737800D9FF11C1DAFFDF500101146F010114A117
:107388004CD0010120EE04F01051D9261151DA2217
:10739800010110EE03F01051E1261151E222DE50F6
:1073A800E618D8A43AD0010120EE05F01051D926EC
:1073B8001151DA22010110EE04F01051E1261151A9
:1073C800E222DE50E618D8A428D0010120EE05F00C
:1073D8001051D9261151DA22DE28D8B41ED021EC5A
:1073E80076F0030E00018C6FFD0E8B6F010120EE0D
:1073F80003F01051D9261151DA22DF5000018D6FA8
:10740800C1EC70F0010120EE03F01051D9261151A2
:10741800DA22DF5032EC74F000D0010114A342D01C
:10742800010120EE07F01051D9261151DA2201018D
:1074380010EE06F01051E1261151E222DE50E61856
:10744800D8A430D0010120EE08F01051D9261151EE
:10745800DA22010110EE07F01051E1261151E22263
:10746800DE50E618D8A41ED021EC76F0030E0001F9
:107478008C6FFE0E8B6F010120EE06F01051D9269D
:107488001151DA22DF5000018D6FC1EC70F001015B
:1074980020EE06F01051D9261151DA22DF5005EC02
:1074A80070F000D0010114A54CD0010120EE0AF0C3
:1074B8001051D9261151DA22010110EE09F01051AC
:1074C800E1261151E222DE50E618D8A43AD0010193
:1074D80020EE0BF01051D9261151DA22010110EEDD
:1074E8000AF01051E1261151E222DE50E618D8A424
:1074F80028D0010120EE0BF01051D9261151DA22C3
:10750800DE28D8B41ED021EC76F0030E00018C6F73
:10751800FC0E8B6F010120EE09F01051D926115194
:10752800DA22DF5000018D6FC1EC70F0010120EE0E
:1075380009F01051D9261151DA22DF501EEC75F0EE
:1075480000D0010114A71200010120EE0DF0105126
:10755800D9261151DA22010110EE0CF01051E12662
:107568001151E222DE50E618D8A41200010120EEE3
:107578000EF01051D9261151DA22010110EE0DF04A
:107588001051E1261151E222DE50E618D8A412006B
:10759800010120EE0EF01051D9261151DA22DE2811
:1075A800D8B4120021EC76F0030E00018C6FEF0EB8
:1075B8008B6F010120EE0CF01051D9261151DA22FF
:1075C800DF5000018D6FC1EC70F0010120EE0CF06E
:1075D8001051D9261151DA22DF50F2EC75F0120061
:1075E8001200400E01010C6F000E01010D6F3E0EDE
:1075F80001010D6501D0D8D001010D51060DBD0E58
:10760800F3240001916F0A0EF4200001926F05C166
:1076180093F006C194F0040E0001956F5DEC6FF0D5
:107628000009D8B4A1D001010D51060D040EF326AE
:10763800000EF422BD0EF324D96E0A0EF420DA6E81
:10764800DF500F0B0F0AD8A441D0010108510101E6
:10765800D8B43CD00101C02B01010D51060D040E18
:10766800F326000EF422BD0EF324D96E0A0EF42080
:10767800DA6EDF90DF92DF94DF9607C18BF00101AD
:107688000D5188EC60F0020E01010819D8B41AD027
:10769800030E0001936F0101075191EC48F00101BD
:1076A8000A6F05C1A0F006C1A1F00DC1A2F0010E3C
:1076B8000001A36F0AC1A4F0000E0001A56F6CECD5
:1076C8001EF000D001010D5112006BD001010D51C7
:1076D800060D040EF326000EF422BD0EF324D96E17
:1076E8000A0EF420DA6EDF500F0B0F0AD8B439D027
:1076F80001010D51060D040EF326000EF422BD0EF5
:10770800F324D96E0A0EF420DA6EDF90DF92DF944C
:10771800DF9607C18BF001010D5188EC60F0020E75
:1077280001010819D8B4CED7030E0001936F0101E7
:10773800075191EC48F001010A6F05C1A0F006C19C
:10774800A1F00DC1A2F0010E0001A36F0AC1A4F0BF
:10775800000E0001A56F6CEC1EF0B4D7B3D7120071
:1077680020D0FF0E12001DD001010D51060DBD0ED7
:10777800F3240001916F0A0EF4200001926FD10EDC
:107788000001936F010E0001946F040E0001956FC4
:107798005DEC6FF00009D8B404D00DC10CF104D031
:1077A80000D001010D2B23D73E0E01010C6521D01D
:1077B800000E01010B6F3E0E01010B6501D019D0BF
:1077C80001010B51060D040EF326000EF422BD0E26
:1077D800F324D96E0A0EF420DA6EDF500F0B0F0A6D
:1077E800D8A403D00BC10CF104D001010B2BE3D7B3
:1077F80000D03F0E01010C6155D001010851010173
:10780800D8B450D005C191F006C192F001010C51D5
:10781800060DBD0EF3240001936F0A0EF42000013B
:10782800946F040E0001956F2BEC70F001010C5160
:10783800060D040EF326000EF422BD0EF324D96EB5
:107848000A0EF420DA6EDF90DF92DF94DF9607C12C
:107858008BF001010C5188EC60F00101C02B020E85
:1078680001010819D8B41AD0030E0001936F010161
:10787800075191EC48F001010A6F05C1A0F006C15B
:10788800A1F00CC1A2F0010E0001A36F0AC1A4F07F
:10789800000E0001A56F6CEC1EF000D001010C5128
:1078A800120000D0FF0E12001200030E00018C6FB0
:1078B8008B69E9EC74F00001A06F0001A005D8A461
:1078C80040D0000E0001A56F000EA46F0001A5BFF7
:1078D8000AD0F00E0001A45D030E0001A559D8B02E
:1078E80011D001D00FD021EC76F0A4C08BF0A5C048
:1078F8008CF0FF0E00018D6FC1EC70F00001A44BFD
:10790800A52BE4D7030E0001A56FF40EA46F0001A8
:10791800A5BF07D0040E0001A55DD8B012D001D0D4
:1079280010D021EC76F0A4C08BF0A5C08CF0FF0E2F
:1079380000018D6FC1EC70F00001A44BA52BE7D7B7
:1079480000D0010E0001A06504D00001A029D8A430
:107958000CD021EC76F0030E00018C6F8B69020EBF
:1079680000018D6FC1EC70F000D0000E0001A16F16
:10797800030E0001A16501D018D00001A151010D2D
:10798800F00EF324D96E010EF420DA6EE80E000131
:10799800A12500018B6F00018C6B030E8C23E9EC91
:1079A80074F0DF6E0001A12BE3D70101F029D8A400
:1079B80019D00101F129D8A415D00101F229D8A4C0
:1079C80011D00101F329D8A40DD0000E0101F06FE8
:1079D800000E0101F16F000E0101F26F020E0101AC
:1079E800F36F00D0030E00018C6FEF0E8B6FE9EC84
:1079F80074F000019F6F00019F29D8A404D0080EDD
:107A080000019F6F00D000019F51F2EC75F0020158
:107A1800EA29D8A451D00201EB29D8A44DD00201FB
:107A2800EC29D8A449D00201ED29D8A445D0899ED3
:107A38004B0EFEEC73F0000EFEEC73F0000EFEEC45
:107A480073F0000EFEEC73F0000EFEEC73F0000E07
:107A58000001A26F2BD02ED004EC75F000018B51E1
:107A680000019E6F030E0001A2651ED0FC0E0001EE
:107A7800926FFF0E0001936F0001A2510001946FF5
:107A8800956B000192510001942700019351000168
:107A98009523EA0E00019425D96E020E0001952166
:107AA800DA6E9EC0DFFF00D00001A22B070E000196
:107AB800A265D2D7898E00D0000E0001A36F070EF1
:107AC8000001A36501D018D00001A351010D960E45
:107AD800F324D96E000EF420DA6EF40E0001A3250B
:107AE80000018B6F00018C6B030E8C23E9EC74F0A2
:107AF800DF6E0001A32BE3D7960E00018B6F000EFB
:107B080000018C6F42EC68F0030E00018C6FFD0ED3
:107B18008B6FE9EC74F0FF0AD8B40BD001D009D010
:107B2800030E00018C6FFD0E8B6FE9EC74F032ECE4
:107B380074F0030E00018C6FFE0E8B6FE9EC74F08D
:107B4800FF0AD8A403D00101BD691200030E000189
:107B58008C6FFE0E8B6FE9EC74F00101BD6F1200A3
:107B68001200F4D001016B05D8A4FCD0240E00014A
:107B78009D6FFF0E00019E6FC0EC31F0020E0101F7
:107B880065250001A36F000E010166210001A46FA5
:107B9800000E0001A56F31EC44F0040E8DEC73F07B
:107BA8000009D8A411D0040E91EC71F00009D8A4F2
:107BB8000BD0000E0001A76F010EA66F000E00018A
:107BC800A86F040E86EC6AF0000E8DEC73F00009C5
:107BD800D8B40CD0130E0001A76F880EA66F000E44
:107BE8000001A86F000E86EC6AF000D0010E0001BB
:107BF800B96FB8D0410E01016B19D8A431D0010179
:107C080020EE02F06551D9266651DA220001D351DF
:107C1800DE18D8B41BD0010120EE02F06551D92638
:107C28006651DA22DF500001D36FB3EC6FF0000E1B
:107C38000001A76F3C0EA66F010E0001A86F150E7C
:107C480086EC6AF0000E0201466F00D068C1A3F00E
:107C580069C1A4F0000E0001A56F31EC44F082D098
:107C6800420E01016B19D8A47DD0010120EE02F06B
:107C78006551D9266651DA22DF5001016D6F010185
:107C8800D95101016D19FC0B6D190101D96F010161
:107C980020EE03F06551D9266651DA22DF50010142
:107CA8006D6F01016D476D470101D95101016D19D2
:107CB800F30B6D190101D96F010120EE04F0655134
:107CC800D9266651DA22DF500101DA6F010120EE70
:107CD80005F06551D9266651DA22DF500101DB6FC4
:107CE80021EC76F0030E00018C6FEC0E8B6FD9C17E
:107CF8008DF0C1EC70F021EC76F0030E00018C6F72
:107D0800ED0E8B6FDAC18DF0C1EC70F021EC76F0DE
:107D1800030E00018C6FEE0E8B6FDBC18DF0C1EC92
:107D280070F068C1A3F069C1A4F0000E0001A56F4E
:107D380031EC44F017D07B0E00019D6FFF0E00015F
:107D48009E6FC0EC31F0010E12000CD001016A5197
:107D5800010AD8B4F0D71F0AD8B404D7010AD8B496
:107D680049D700D068C1D9FF69C1DAFFDF50D8A46C
:107D78002AD0010120EE01F06851D9266951DA2292
:107D8800DF50D8A420D0010120EE02F06851D92696
:107D98006951DA22DF50D8A416D0010120EE03F091
:107DA8006851D9266951DA22100EDF600CD0010E15
:107DB8000001A76F2C0EA66F010E0001A86F140E0C
:107DC80086EC6AF000D0000E12001200000E0001CE
:107DD8009D6F000E9C6F00019DBF0AD000019D5150
:107DE80006E13F0E00019C5DD8B082D001D080D062
:107DF800D10E0001916F010E0001926F9CC08BF0B3
:107E08009DC08CF0000E00018E6F060E8D6F2AEC5F
:107E180072F0BD0E00018B250001936F0A0E000160
:107E28008C210001946F040E0001956F2BEC70F00B
:107E38009CC08BF09DC08CF0000E00018E6F060E6A
:107E48008D6F2AEC72F0040E00018B27000E0001E2
:107E58008C23BD0E00018B25D96E0A0E00018C21E2
:107E6800DA6EDF80DF82DF84DF869CC08BF09DC006
:107E78008CF0000E00018E6F060E8D6F2AEC72F0EA
:107E8800040E00018B27000E00018C23BD0E00019B
:107E98008B25D96E0A0E00018C21DA6EDF88DF8A05
:107EA800DF8CDF8E9CC08BF09DC08CF0000E000133
:107EB8008E6F060E8D6F2AEC72F0050E00018B276F
:107EC800000E00018C23BD0E00018B25D96E0A0E11
:107ED80000018C21DA6EFF0EDF6E00019C4B9D2B9A
:107EE80000019DBF85D700019D5102E17AD700D0DE
:107EF800000E02015E6F000E00019D6F000E9C6F68
:107F080000019DBF0AD000019D5166E1FA0E0001F3
:107F18009C5DD8B061D001D05FD09CC09AF09DC064
:107F28009BF0D89000019A379B37010E00019A27E1
:107F3800000E9B23C90E00019A25D96E080E000178
:107F48009B21DA6EDF80DF82DF84DF86DF88D10E57
:107F58000001926F010E0001936F00019C51B2EC79
:107F680069F09CC09AF09DC09BF0D89000019A37A8
:107F78009B37010E00019A27000E9B23C90E0001B2
:107F88009A25D96E080E00019B21DA6EDF8ADF8CF4
:107F9800DF8ED89000019C35D96E00019D35DA6ED0
:107FA800C90ED926080EDA22DF80DF82DF84DF8659
:107FB800DF88DF8AD89000019C35D96E00019D3595
:107FC800DA6EC90ED926080EDA223F0EDF16000136
:107FD8009C4B9D2B95D700D0D10E0001916F010EBF
:107FE8000001926FEE0E0001936F020E0001946F74
:107FF800040E0001956F2BEC70F00201E269000E8F
:108008000201676F030E0201686F000E02018F6F95
:10801800000E0201916F020E0201926F000E020122
:10802800936F010E0101E56F000E02015C6F000EF7
:108038000101C66F12000001A16F0201E0510201A7
:10804800D8B42CD0240E0001A119D8A423D0020141
:10805800582B020E02015819D8A417D1000E02019C
:10806800E06F010E0201496F000E0201476F000E1A
:1080780002014A6F000E02014B6F010E0201486FA8
:10808800000E0001C36F000E0201586F000E0201BE
:10809800566FFBD0000E0201586FF7D0020148510D
:1080A8000201D8B4DCD0020149510201D8B407D08A
:1080B800A1C055F0000E0201496F010E06D0020161
:1080C80047510201D8B404D0000E0201476F5BD0BB
:1080D8000001C35100019B6F9C6BFE0E00019D6F58
:1080E800FF0E00019E6F555000019F6FA06B0001AD
:1080F8009D5100019F2700019E510001A02300010E
:108108009B5100019F190FE100019C510001A0192A
:10811800D8A409D00D0E0001A119D8A434D0010E9D
:1081280002014A6F30D00001C35100019B6F9C6B64
:10813800FF0E00019D6FFF0E00019E6F555000015C
:108148009F6FA06B00019D5100019F2700019E5168
:108158000001A02300019B5100019F190FE10001BC
:108168009C510001A019D8A409D00A0E0001A11938
:10817800D8A409D0010E02014B6F05D00001A1510E
:108188000201561B00D00001C351010D800EF324DB
:10819800D96E050EF420DA6EA1C0DFFF0001C32BF3
:1081A8000001C3515518D8A43DD0000E0201486FF4
:1081B80099C0D9FF9AC0DAFFC3C0DFFF800E000163
:1081C800916F050E0001926F97C093F098C094F0DC
:1081D800C3C095F02BEC70F0010E0201E06F000EA9
:1081E8000201586F020156510201D8B405D0000EA1
:1081F8000201566F000E120002014A510201D8B462
:108208000BD002014B510201D8B406D0000E020176
:10821800566F010E120039D0000E0201566F1CD0A5
:10822800120033D03E0E0001C3652FD0010E0201AB
:10823800E06F000E0201586F000E0001C36F000EC0
:108248000201496F000E0201476F000E02014A6FDA
:10825800000E02014B6FE0D7000E120016D0010E7F
:108268000201E06F000E0201586F000E0201566F06
:10827800000E0201496F000E02014A6F000E020152
:108288004B6F000E0201476F00D0000E1200120063
:10829800000E00019D6F000E9C6F00019DBF0AD06B
:1082A80000019D5106E1FA0E00019C5DD8B0E8D0AE
:1082B80001D0E6D096C08FF097C090F000019C5195
:1082C80008EC5AF00009D8B4D0D09CC09AF09DC0F0
:1082D8009BF0D89000019A379B37010E00019A272E
:1082E800000E9B23C90E00019A25D96E080E0001C5
:1082F8009B21DA6EDF501F0B1F0AD8B4A6D0D89086
:1083080000019C35D96E00019D35DA6EC90ED9265B
:10831800080EDA22DF503F0B00019A6F00019A51D4
:10832800060DBD0EF324D96E0A0EF420DA6E98C03D
:10833800E1FF99C0E2FFDFCFE7FFD89000019C354D
:10834800D96E00019D35DA6EC90ED926080EDA22DB
:10835800DF503F0B00019A6F00019A51060D010E84
:10836800F326000EF422BD0EF324D96E0A0EF42073
:10837800DA6E000110EE01F09851E1269951E222DF
:10838800DFCFE7FFD89000019C35D96E00019D35FD
:10839800DA6EC90ED926080EDA22DF503F0B00012B
:1083A8009A6F00019A51060D020EF326000EF42270
:1083B800BD0EF324D96E0A0EF420DA6E000110EE19
:1083C80002F09851E1269951E222DFCFE7FFD890D9
:1083D80000019C35D96E00019D35DA6EC90ED9268B
:1083E800080EDA22DF503F0B00019A6F00019A5104
:1083F800060D030EF326000EF422BD0EF324D96EEB
:108408000A0EF420DA6E000110EE03F09851E1260E
:108418009951E222DFCFE7FF9CC09AF09DC09BF004
:10842800D89000019A379B37010E00019A27000E59
:108438009B23C90E00019A25D96E080E00019B21C5
:10844800DA6EDF501F0B120010D0D89000019C3557
:10845800D96E00019D35DA6EC90ED926080EDA22CA
:108468003F0EDF161F0E120000D000019C4B9D2B03
:1084780000019DBF1FD700019D5102E114D700D014
:108488001F0E120012000101AE51D8B4E0D0020153
:108498005251D8B411D0000E0201526F000E0001E3
:1084A800CC6F000E0001CD6F000E0101AE6F000E03
:1084B8000101C26F000E120002015051D8A40ED063
:1084C800000E0001CC6F000E0001CD6F000E0101FF
:1084D800AE6F000E0101C26F000E12000001CD51F7
:1084E800FD0F9BC0D9FF9CC0DAFFDF6E000E0001B4
:1084F800A36F400E0001CD650ED0000E0001CC6FB9
:10850800000E0001CD6F000E0101AE6F000E0101DB
:10851800C26F000E1200020E0001A46F11D00001FC
:10852800A451010D800EF324D96E040EF420DA6EE6
:10853800DF500001A3190001A36F0001A42B00D094
:108548000001CD510001A45DD8A0E9D70001A351D5
:108558000001D8B40ED0000E0001CC6F000E00014F
:10856800CD6F000E0101AE6F000E0101C26F000E4B
:1085780012009BC0D9FF9CC0DAFF3D0EDF640ED00D
:10858800000E0001CC6F000E0001CD6F000E01013E
:10859800AE6F000E0101C26F000E12009BC0D9FF22
:1085A8009CC0DAFFDF5000019D6F9E6BFD0E00013D
:1085B8009F6FFF0E0001A06F0001CD510001A16F58
:1085C800A26B00019F510001A1270001A0510001E9
:1085D800A22300019D510001A11906E100019E514D
:1085E8000001A219D8B40ED0000E0001CC6F000E05
:1085F8000001CD6F000E0101AE6F000E0101C26FC8
:10860800000E1200800E00018B6F040E00018C6FAB
:10861800020E00018D6F99C08EF09AC08FF0000E87
:108628000001906F9BC0D9FF9CC0DAFFDF500001AA
:10863800916F8FEC68F0000E0001CC6F000E000106
:10864800CD6F000E0101AE6F010E120011D00101B5
:10865800AE51D8B40DD0000E0001CC6F000E000151
:10866800CD6F000E0101AE6F000E0101C26F00D088
:10867800000E12001200000E00019A6F000E996F92
:1086880000019ABF0AD000019A5106E13F0E00018D
:10869800995DD8B0D4D001D0D2D091C0D9FF92C0C2
:1086A800DAFF99C08BF09AC08CF0000E00018E6F33
:1086B800060E8D6F2AEC72F0BD0E00018B25E16E5F
:1086C8000A0E00018C21E26EDE50E618D8A4ACD068
:1086D800000120EE01F09151D9269251DA2299C079
:1086E8008BF09AC08CF0000E00018E6F060E8D6F15
:1086F8002AEC72F0010E00018B27000E00018C237A
:10870800BD0E00018B25E16E0A0E00018C21E26E80
:10871800DE50E618D8A488D0000120EE02F091516E
:10872800D9269251DA2299C08BF09AC08CF0000EAB
:1087380000018E6F060E8D6F2AEC72F0020E00019A
:108748008B27000E00018C23BD0E00018B25E16EE6
:108758000A0E00018C21E26EDE50E618D8A464D01F
:10876800000120EE03F09151D9269251DA2299C0E6
:108778008BF09AC08CF0000E00018E6F060E8D6F84
:108788002AEC72F0030E00018B27000E00018C23E7
:10879800BD0E00018B25E16E0A0E00018C21E26EF0
:1087A800DE50E618D8A440D099C08BF09AC08CF05F
:1087B800000E00018E6F060E8D6F2AEC72F0050E0A
:1087C80000018B27000E00018C23BD0E00018B25B4
:1087D800D96E0A0E00018C21DA6E93C0E1FF94C0B5
:1087E800E2FFDFCFE7FF99C08BF09AC08CF0000E54
:1087F80000018E6F060E8D6F2AEC72F0040E0001D8
:108808008B27000E00018C23BD0E00018B25D96E2D
:108818000A0E00018C21DA6EDF380F0B95C0D9FFE4
:1088280096C0DAFFDF6E12000001994B9A2B000107
:108838009ABF33D700019A5102E128D700D093C0DC
:10884800D9FF94C0DAFFFF0EDF6E95C0D9FF96C03E
:10885800DAFF0F0EDF6E12001200000E0101646FC6
:10886800A4C160F1A5C161F1010E01013A6FA3C075
:1088780096F0A4C097F03C0E0001986F010E00011D
:10888800996F4CEC41F001013B6FBDC140F160C1F3
:1088980041F161C142F13C0E0001916F010E0001EE
:1088A800926F620E0001936F010E0001946F630EC8
:1088B8000001956F010E0001966F3FEC43F062C115
:1088C80043F163C144F1A3C096F0A4C097F005EC4E
:1088D80065F00101456F3FEC76F00101466F2DEC24
:1088E80076F00101476FD1C0A6F00001A63BF00E5B
:1088F800A61706EC76F00001A6250001D025010197
:10890800486FB9C149F124C24AF125C24BF122C2CC
:108918004CF123C24DF120C24EF121C24FF13AC2AF
:1089280050F13BC251F138C252F139C253F181BA08
:1089380002D0010E01D0000E0101546FD2C055F1D2
:10894800D3C056F10101D951030B0001A66F0101F3
:10895800D931E832030B0001A76F0001D890A7377F
:108968000001D890A7350001A6250101576FB2C0B4
:1089780058F1B3C059F132C25AF133C25BF129EC54
:1089880076F001015C6FDAC15DF1DBC15EF1C3C154
:108998005FF1260E0101646F0001A5510001D8B4F2
:1089A80034D03A0E00018B6F010E00018C6F000E5F
:1089B80000018D6F000E00018E6F010E00018F6F98
:1089C800140E0001906F64C191F08FEC68F0000EF6
:1089D8000001996F010E00019A6FA3C09BF0A4C01B
:1089E8009CF06CEC5EF0000E00018F6F010E000130
:1089F800906F01016451140F0001916F000E000186
:108A0800926F020E03EC5DF01200A3C099F0A4C0AF
:108A18009AF03A0E00019B6F010E00019C6F64C131
:108A28009DF0000E00019E6F010E00019F6F000E69
:108A38000001A06FDFEC46F0120012000101106F78
:108A48000101CA51D8B404D0000E0101CA6F120046
:108A5800040E91EC71F00009D8B484D00101A7513B
:108A6800010D410EF324F66EFE0EF420F76E080099
:108A7800F5500009D8A476D0010E0101A76F010EA8
:108A88000201546F6FD081EC58F098C0A4F199C0DE
:108A9800A5F10101A5BF08D03E0E0101A45D080E95
:108AA8000101A559D8B004D0000E0101A76F12002A
:108AB8000101A72B12009CEC63F098C032F299C018
:108AC80033F20101A72B12000101105102011C5DB4
:108AD800000E1D59D8B003D00101A72B12000101C7
:108AE800105102011C5F000E1D5B1200000E0101F7
:108AF800E16F0101105102011E5D000E1F59D8A03F
:108B0800120001D012000101105102011E5F000E77
:108B18001F5B1200040E8DEC73F00009D8B412002C
:108B28000DC1A6F00EC1A7F00FC1A8F0040E86EC87
:108B38006AF0000E0201546F1200000E00018B6FE4
:108B48000A0E77EC70F00101A72B1200B2EC65F069
:108B580098C0B2F099C0B3F00101A72B120001012F
:108B6800A72B12000101A751010D410EF324F66E47
:108B7800FE0EF420F76E0800F550000AD8B4CAD7E4
:108B8800010AD8B480D7030AD8B495D7010AD8B453
:108B98001200070AD8B41200010AD8B41200030A56
:108BA800D8B41200010AD8B412000F0AD8B48CD76E
:108BB800010AD8B41200030AD8B498D7010AD8B465
:108BC8001200070AD8B4B9D7010AD8B4BFD7030A24
:108BD800D8B41200010AD8B412001F0AD8B4BFD7FB
:108BE800010AD8B41200030AD8B41200010AD8B492
:108BF8001200070AD8B41200010AD8B41200030AF6
:108C08001200120000019F6F000E0001A16F000EFC
:108C1800A26F000EA36F000EA46F040E00019A1934
:108C2800D8A40BD098C0A1F099C0A2F00001000E02
:108C3800A2BFFF0EA36FA46F54D000019A51000188
:108C4800D8A42FD098C09BF099C09CF0000E0001CA
:108C58009CBFFF0E9D6F9E6F0F0ED89000019B3733
:108C68009C379D379E37E82EF8D79BC08BF09CC069
:108C78008CF09DC08DF09EC08EF0E80E00018F6FC5
:108C8800030E906F000E916F000E926F52EC61F020
:108C98008BC0A1F08CC0A2F08DC0A3F08EC0A4F050
:108CA80020D000019A05D8A41CD098C09BF099C088
:108CB8009CF0000E00019CBFFF0E9D6F9E6F0F0E73
:108CC800D89000019B379C379D379E37E82EF8D700
:108CD8009BC0A1F09CC0A2F09DC0A3F09EC0A4F0D0
:108CE80000D0A1C09BF0A2C09CF0A3C09DF0A4C07E
:108CF8009EF000019B1F9C1F9D1F9E1F9B2B000E1B
:108D08009C239D239E23FF0E00019B250001A16F3C
:108D1800FF0E00019C210001A26F000E00019D21A1
:108D28000001A36F000E00019E210001A46F000145
:108D38009F05D8A40BD0A2C0CFFFA1C0CEFF8C0E38
:108D4800CD6E9F809E909D80CD8000D0030E000147
:108D58009F19D8A40AD0A2C0B3FFA1C0B2FF8C0E3D
:108D6800B16EA292A192A082B1800101B551D8A49E
:108D78001200010E0101B56F000E0001A06F180E60
:108D88000001A06502D0120012000001A051020DDE
:108D9800000EF324D96E030EF420DA6E000EDE6E98
:108DA800000EDD6E0001A02B180E0001A065EDD7A6
:108DB80012001200120002015E51D8A4D2D00201A2
:108DC8009051D8A4CED05F0E0001916F020E000121
:108DD800926FEE0E0001936F020E0001946F040E65
:108DE8000001956F2BEC70F067C2E2F2060E0201EB
:108DF8005E6F99C091F09AC092F0630E0001936F74
:108E0800020E0001946F040E0001956F2BEC70F0B8
:108E1800D50E0001916F010E0001926F5F0E0001E7
:108E2800936F020E0001946F040E0001956F2BECF6
:108E380070F0DBEC74F00201676F000E0201936FB3
:108E48000001A0510001D8B402D0040E01D0030ED5
:108E58000201686F00D0270E00019D6156D0010104
:108E6800BB51D8B431D000019F510001D8B42CD0E7
:108E7800010E00019B2500018B6F000E00019C2153
:108E880000018C6FFF0E00019D2500018D6F000110
:108E98008E6BFF0E8E2378EC57F00001A16F050E44
:108EA8000001A26F0001D890A1370001A22FFAD7C4
:108EB8000001A1510201696F9BC0D9FF9CC0DAFF74
:108EC800DF500201692708D09BC0D9FF9CC0DAFF98
:108ED800DF500201696F00D09BC08BF09CC08CF002
:108EE800010E00018D6F690E00018E6F020E0001E8
:108EF8008F6F010E0001906F00019D050001916FB9
:108F08008FEC68F09DC08FF200D09EC090F20001F7
:108F18009E510001D8B403D0000E02015E6F00011B
:108F2800BF51D8A404D0000E0101CD6F18D0630E34
:108F38000001916F020E0001926FE60E0001936F1F
:108F4800020E0001946F040E0001956F5DEC6FF046
:108F58000009D8B404D0020E02015E6F00D0010EE1
:108F68001200000E120012000001746F000E0001C2
:108F7800766F000E776F000E786F000E796F040E13
:108F880000016F19D8A40BD06DC076F06EC077F0D1
:108F98000001000E77BFFF0E786F796F54D0000183
:108FA8006F510001D8A42FD06DC070F06EC071F061
:108FB800000E000171BFFF0E726F736F0F0ED89015
:108FC80000017037713772377337E82EF8D770C0E1
:108FD80060F071C061F072C062F073C063F0E80EB7
:108FE8000001646F030E656F000E666F000E676FF9
:108FF8007BEC62F060C076F061C077F062C078F018
:1090080063C079F020D000016F05D8A41CD06DC0D2
:1090180070F06EC071F0000E000171BFFF0E726F2C
:10902800736F0F0ED890000170377137723773372E
:10903800E82EF8D770C076F071C077F072C078F07B
:1090480073C079F000D076C070F077C071F078C046
:1090580072F079C073F00001701F711F721F731FC7
:10906800702B000E712372237323FF0E00017025ED
:109078000001766FFF0E000171210001776F000E6D
:10908800000172210001786F000E000173210001B8
:10909800796F00017405D8A40BD077C0CFFF76C0D4
:1090A800CEFF8C0ECD6E9F809E909D80CD8000D08F
:1090B800030E00017419D8A40AD077C0B3FF76C094
:1090C800B2FF8C0EB16EA292A192A082B180010172
:1090D800B551D8A41200010E0101B56F000E0001B0
:1090E800756F180E0001756502D01200120000019C
:1090F8007551020D000EF324D96E030EF420DA6EBA
:10910800000EDE6E000EDD6E0001752B180E0001DC
:109118007565EDD712001200120000019C6F030E56
:1091280000019319D8A460D03C0E00019C6102D0C4
:10913800000E12D0C30E00019C2500018B6F0001A8
:109148008C6BFF0E8C23000E00018E6F050E8D6F49
:1091580020EC60F000018B5100019D6F00D00001F0
:109168009D510001946F956BFF0E0001966FFF0EE5
:109178000001976F93C098F0010E0001996F000EDF
:1091880000019A6F0001982B04D0D89000019937FC
:109198009A370001982FF9D70001965100019927B5
:1091A8000001975100019A23000194510001995D33
:1091B80000019A51800A00019B6F00019551800AB5
:1091C80000019B59D8B071D093C094F0010E0001F2
:1091D800956F0001942B03D00001D89095370001BA
:1091E800942FFAD75DD061D0040E00019319D8A44A
:1091F8005CD0DC0E00019C2500018B6F00018C6B9C
:10920800FF0E8C23000E00018E6F050E8D6F20EC73
:1092180060F000018B5100019D6F00019D5100011C
:10922800946F956BFF0E0001966FFF0E0001976F0C
:1092380093C098F0010E0001996F000E00019A6F1B
:109248000001982B04D0D890000199379A37000173
:10925800982FF9D7000196510001992700019751DD
:1092680000019A23000194510001995D00019A516F
:10927800800A00019B6F00019551800A00019B59EB
:10928800D8B013D093C094F0010E0001956F00017F
:10929800942B03D00001D89095370001942FFAD76A
:1092A8000001950500019D6F00D000019D5112003D
:1092B80012000001916F00018F510001D8B402D053
:1092C800200E01D0600E0001906F9AD000019051DD
:1092D80002090201996F630E0201A06F000191510A
:1092E8001B0F55D00001905102090201996F640EBD
:1092F8000201A06F00019151040F49D0210E000115
:1093080091610BD0000190510A090201996F650E15
:109318000201A06F91C0A1F282D0000190510A0908
:109328000201996F640E0201A06F00019151190F9B
:109338002ED075D0000190510A090201996F650E6F
:109348000201A06F00019151210F21D00C0E0001E4
:1093580091610DD00001905102090201996F630ECD
:109368000201A06F00019151040DF350B9D70B0E03
:10937800000191650FD0190E000191610BD0000119
:109388009051020912D0640E0201A06F11D002019F
:10939800A16F45D0180E0001916510D01F0E000175
:1093A80091610CD0000190510A090201996FEBD725
:1093B80000019145E846FC0BD00FE9D71E0E0001CD
:1093C800916509D0270E0001916105D00CD0650E7A
:1093D8000201A06F0ED0260E0001916520D0320E3A
:1093E800000191611CD0000190510A090201996F96
:1093F800EED700019145E846FC0B850FC8D70FD082
:109408000101E451010AD8B461D7030AD8B46AD774
:10941800010AD8B473D7070AD8B48CD797D799C29A
:109428008DF0000E61EC72F0A0C28DF00E0E61ECB2
:1094380072F0A1C28DF0100E61EC72F01200000102
:109448008B0500018C11D8A43CD00001AE5101015C
:109458009C1906E10001AF5101019D19D8B4B1D0A2
:1094680002013F510201D8B402D0000E1200010ED1
:1094780002013F6F000E01019C25D96E050E010106
:109488009D21DA6E8DC0E1FF8EC0E2FFDFCFE7FFDE
:1094980001019C4B9D2B01019DBF0DD001019D51E8
:1094A80005E1800E01019C5DD8A005D0000E0101E8
:1094B8009D6F000E9C6F000E02013F6F010E12009F
:1094C80080D0020E00018B1900018C11D8A43AD06B
:1094D800465001019E1905E1475001019F19D8B472
:1094E80070D0020140510201D8B402D0000E12001F
:1094F800010E0201406FC90E01019E25D96E060EAC
:1095080001019F21DA6E8DC0E1FF8EC0E2FFDFCF3F
:10951800E7FF01019E4B9F2B01019FBF0DD0800EDD
:1095280001019E5D010E01019F59D8A005D0000ED2
:1095380001019F6F000E9E6F000E0201406FBED7A3
:1095480012003FD0040E00018B1900018C11D8A421
:1095580038D00001AC5101019A1906E10001AD5162
:1095680001019B19D8B42DD04850D8B402D0000EB0
:109578001200010E486E320E01019A25D96E030EB3
:1095880001019B21DA6E8DC0E1FF8EC0E2FFDFCFC3
:10959800E7FF01019A4B9B2B01019BBF0DD00101F5
:1095A8009B5105E1270E01019A5DD8A005D0000E58
:1095B80001019B6F000E9A6F000E486E7FD7120054
:1095C80000D0000E1200120002015E51D8A4BBD0D8
:1095D80002019051D8A4B7D05F0E0001916F020E1E
:1095E8000001926FEE0E0001936F020E0001946F5E
:1095F800040E0001956F2BEC70F067C2E2F2060EC4
:1096080002015E6F000E0201916F020E0201926F5D
:1096180099C091F09AC092F0630E0001936F020E08
:109628000001946F040E0001956F2BEC70F0D50EBD
:109638000001916F010E0001926F5F0E0001936FA0
:10964800020E0001946F040E0001956F2BEC70F070
:10965800DBEC74F00201676F000E0201906F1D0EC3
:109668000201696F210E02016A6F9BC06BF23F0E07
:1096780002016C6F080E00019C6F00019B510001F4
:109688009C03F3CF9DF0000E00019E6F46D03F0E65
:1096980000019D6121D000019D51060DBD0EF324EE
:1096A80000018B6F0A0EF42000018C6F000E000180
:1096B8008D6F690E00018E6F020E00018F6F000121
:1096C8009E51040DF350060F0001906F040E000127
:1096D800916F8FEC68F01CD0D10E00018B6F010EDA
:1096E80000018C6F000E00018D6F690E00018E6FF6
:1096F800020E00018F6F00019E51040DF350060FFA
:109708000001906F040E0001916F8FEC68F000D09B
:1097180000019D2B00019E2B00D000019C510001EF
:109728009E5DD8A0B4D7030E0201686F260E020111
:109738008F6F0001BF51D8A404D0000E0101CD6F76
:1097480000D0010E1200000E120012000400565044
:10975800D8A4120001D01200A5C056F0000E0101D5
:10976800006FAFD0000E0001C86F0101C251D8A42C
:109778009CD03E0E0001A46198D0010E0101BC6F7F
:109788000101C251D8B404D0000E0101BC6F94D0BD
:10979800200EB3EC54F00201A651010900018D6FAF
:1097A8001A0E61EC72F0800EB3EC54F00001A45173
:1097B800020F71EC75F04C5071EC75F0000E010160
:1097C800046F64D001010451010DF3500001A2257A
:1097D800D96EF4500001A321DA6EDF500101016F48
:1097E80001010405D8B410D0020E01010419D8B43F
:1097F8000BD00001C851010101190001C86F010116
:10980800015171EC75F03FD001010405D8A42BD0AB
:10981800040E0001976F010E6CEC56F00001AA517E
:10982800000197250101026F0001AB510001982149
:109838000101036F0101035171EC75F0010103513E
:109848000001C8190001C86F0101025102013A5D07
:109858000101035102013B59D8B015D002C13AF2B7
:1098680003C13BF210D0020E01010419D8A40BD099
:109878000101025171EC75F00001C8510101021992
:109888000001C86F00D00101042B00D00001A451D1
:109898000101045DD8A096D70001C85171EC75F09C
:1098A8000400010E0101CA6F09D03D0E0001A46534
:1098B80001D002D00101C251560600D00101002B8F
:1098C80000D00001A5510101005DD8A04BD71200BE
:1098D800000E0001966F3E0E0001966502D0120040
:1098E800120000019651060D040EF326000EF42214
:1098F800BD0EF324D96E0A0EF420DA6EDF500F0B7A
:109908000F0AD8B49FD0010E0001936F0001965141
:10991800060D040EF326000EF422BD0EF324D96EB4
:109928000A0EF420DA6EDF500F0B0001946F00016D
:10993800935100019427DF5000019419F00B0001A6
:109948009419DF6E0101C0510F0DF3CF8BF0F4CFE6
:109958008CF0000E00018E6F400E8D6F20EC60F0D1
:10996800040E00018B27000E00018C230001965184
:10997800060D040EF326000EF422BD0EF324D96E54
:109988000A0EF420DA6EDF500F0B0001936F946B10
:1099980000018B510001935D00019451800A000180
:1099A800956F00018C51800A00019559D8B012D0EA
:1099B80000019651060D040EF326000EF422BD0E8A
:1099C800F324D96E0A0EF420DA6EDF500F0B0F0A5B
:1099D800D8A438D000019651060D040EF326000EC7
:1099E800F422BD0EF324D96E0A0EF420DA6EDF805D
:1099F800DF82DF84DF8600019651060D050EF3260F
:109A0800000EF422BD0EF324D96E0A0EF420DA6E8D
:109A1800FF0EDF6E00019651060D040EF326000EB0
:109A2800F422BD0EF324D96E0A0EF420DA6EDF8814
:109A3800DF8ADF8CDF8E0101C051D8B403D0010169
:109A4800C00700D00001962B3E0E0001966549D74D
:109A5800120012000001976F000E0001996F0F01AC
:109A68005A99000E0101C26F000E5D6E000E0001D2
:109A7800CC6F000E0001CD6F000E0101C46F000E07
:109A88000101AE6F200E0101B06F000E0201506F90
:109A9800000E0101BC6F000E0101CA6F000E01012A
:109AA800CE6F000E566E8986050E0001926F260E47
:109AB800E82EFED7922FFCD700D08996680E0001B9
:109AC800926FE40EE82EFED7922FFCD700D0000E3E
:109AD80000018F6F000197515DEC49F0000E000105
:109AE800996F1F0E0001996501D015D00001995199
:109AF800010D990EF324D96E020EF420DA6EDF50B0
:109B080000018D6F00019951020DF35061EC72F064
:109B18000001992BE6D7030E00018C6FFC0E8B6FAA
:109B2800E9EC74F00001986F00019829D8A418D0C6
:109B380021EC76F0030E00018C6FFC0E8B6F000E8B
:109B480000018D6FC1EC70F0000E1EEC75F0D80EA0
:109B58000001946F94C08DF03C0E61EC72F01ED041
:109B6800000198510001D8A40CD0000E1EEC75F02D
:109B7800D80E0001956F95C08DF03C0E61EC72F027
:109B88000DD0000198511EEC75F0DA0E0001966FA9
:109B980096C08DF03C0E61EC72F000D0F29600F0A9
:109BA8000F015A8900F081CF93F000F0F290F2860D
:109BB80097C0E2F1150E0001926FC60EE82EFED78F
:109BC800922FFCD700D0BFEC74F0010E0001D06FCB
:109BD800000E0001D16F12001D0E0101266FA5C0F5
:109BE80096F0A6C097F0270E0001986F010E0001AD
:109BF800996F4CEC41F001012B6F1D0E0101006FB4
:109C0800260E0101016FA5C08BF0A6C08CF0000ED6
:109C180000018D6F000E00018E6F010E00018F6F25
:109C2800020E0001906F040E0001916F8FEC68F036
:109C3800270E00018B6F010E00018C6F000E0001D2
:109C48008D6F000E00018E6F010E00018F6F060EE2
:109C58000001906F040E0001916F8FEC68F02BC12A
:109C68000AF1A5C08BF0A6C08CF0000E00018D6F24
:109C7800000E00018E6F010E00018F6F0B0E0001A8
:109C8800906F040E0001916F8FEC68F0270E0001B1
:109C98008B6F010E00018C6F000E00018D6F000E9E
:109CA80000018E6F010E00018F6F0F0E0001906F83
:109CB800040E0001916F8FEC68F02BC113F1A5C061
:109CC8008BF0A6C08CF0000E00018D6F000E000115
:109CD8008E6F010E00018F6F140E0001906F040E3D
:109CE8000001916F8FEC68F0270E00018B6F010E59
:109CF80000018C6F000E00018D6F000E00018E6F49
:109D0800010E00018F6F180E0001906F040E000104
:109D1800916F8FEC68F02BC11CF1A3C099F0A4C01F
:109D28009AF0000E00019B6F010E00019C6F26C186
:109D38009DF0000E00019E6F010E00019F6F000E46
:109D48000001A06FDFEC46F0120012008BC0D9FFB3
:109D58008CC0DAFF000EDF6E000120EE01F08B519F
:109D6800D9268C51DA22000EDF6E0101B7510101AC
:109D7800D8A403D05250D8B438D01E0E0001C46104
:109D880003D00001C42B00D01E0E0001C419D8A4B2
:109D98001AD00E0E0001C56516D08BC0D9FF8CC035
:109DA800DAFF030EDF6E2D0E0001C46F000120EEF6
:109DB80001F08B51D9268C51DA22030EDF6E2D0E5D
:109DC8000001C56F0FD01E0E0001C419D8A40AD017
:109DD8008BC0D9FF8CC0DAFF020EDF6E2D0E00019A
:109DE800C46F00D0000E526E13D0010E0001C4657E
:109DF8000BD01F0E0001C46107D08BC0D9FF8CC0E7
:109E0800DAFF010EDF6E00D0000E0001C46F00D033
:109E18000101B8510101D8A403D05350D8B439D0A6
:109E28001E0E0001C56103D00001C52B00D01E0E17
:109E38000001C519D8A41AD00E0E0001C46516D0A9
:109E48008BC0D9FF8CC0DAFF030EDF6E2D0E000128
:109E5800C46F000120EE01F08B51D9268C51DA2213
:109E6800030E11D02D0E0001C56F10D01E0E00017B
:109E7800C519D8A40BD0000120EE01F08B51D926CA
:109E88008C51DA22020EDF6EEDD700D0000E536E31
:109E98001200010E0001C5650ED01F0E0001C5613C
:109EA8000AD0000120EE01F08B51D9268C51DA221C
:109EB800010EDF6E00D0000E0001C56F1200120007
:109EC8001D0E0101086F200E0101096FA8C00AF1DB
:109ED80039EC76F001010B6F030E0101376F0001B9
:109EE800A85101013703F3CF36F1000E01013A6F93
:109EF800000E396F6DD02E0E00019F6F010E00010C
:109F0800A06F320E0001A16F010E0001A26F380E82
:109F18000001A36F010E0001A46F0101365188EC06
:109F28005CF02E0E00018B6F010E00018C6F000E8D
:109F380000018D6F080E00018E6F010E00018F6FFA
:109F480001013951090DF350040F0001906F040EFF
:109F58000001916F8FEC68F0320E00018B6F010EDB
:109F680000018C6F000E00018D6F080E00018E6FCE
:109F7800010E00018F6F01013951090DF350080FCF
:109F88000001906F040E0001916F8FEC68F039C1E9
:109F98008BF03AC18CF0000E00018E6F090E8D6FA8
:109FA8002AEC72F00C0E00018B27000E00018C23A6
:109FB800080E00018B25D96E010E00018C21DA6E86
:109FC80038C1DFFF0101362B0101394B3A2B00D094
:109FD800010137510101056F066B010105510101AE
:109FE800395D01013A51800A0101076F01010651EB
:109FF800800A01010759D8A07ED7A6C099F0A7C04A
:10A008009AF0080E00019B6F010E00019C6F260E4E
:10A0180000019D6F000E00019E6F010E00019F6FF1
:10A02800000E0001A06FDFEC46F01200120095C090
:10A0380099F000019A6B9B6B0001943500019937E8
:10A0480001E39A810001995100019C6F00019C5124
:10A05800D8A40AD0000E0001936F000E0001946F7F
:10A06800000E0001956F120098C099F000019A6BDC
:10A078009B6B000197350001993701E39A81000134
:10A0880099510001A16F0001A151D8A40AD0000E76
:10A098000001936F000E0001946F000E0001956F90
:10A0A80012000001A1517B0F00019C2795C0A1F06F
:10A0B800000198510001A11B800E0001A1170001A9
:10A0C800948F0001978FFF0E00019617FF0E000175
:10A0D8009717000E00019817000E00019D6F000EE3
:10A0E80000019E6F000E00019F6F070E0001A06F18
:10A0F80000D0000193A10DD00001965100019D27C9
:10A108000001975100019E230001985100019F23EF
:10A1180000D00001D8909533943393330001D89040
:10A128009637973798370001A02FE3D700D0090E4C
:10A138000001A06F00D0000193A10DD0000196513D
:10A1480000019D270001975100019E2300019851AD
:10A1580000019F2300D00001D890953394339333A6
:10A168000001D8909F339E339D330001A02FE3D781
:10A1780000D09DC08BF09EC08CF09FC08DF09CC01D
:10A188008EF0A1C08FF0DCEC55F08BC093F08CC042
:10A1980094F08DC095F0120012000001C251D8B49D
:10A1A800A4D00101C251D8A4A0D0C7C08BF000012F
:10A1B8008C6B000E00018E6F000E8D6FC90E0001B2
:10A1C8008F6F000E906F000E916F000E926F8AECE9
:10A1D8006CF000018B510101106F01011051010158
:10A1E800D8A402D0000E1200000E0001996F0101E0
:10A1F8001051010D000EF324D96E060EF420DA6E0C
:10A20800DF50B5EC73F0D3A60FD0040E0001976FA2
:10A21800010E6CEC56F00001AA51000197250101CE
:10A22800116F0001AB5114D0040E0001976F010E9D
:10A238006CEC56F00001AA51000197270001AB51C0
:10A2480000019823E60E000197250101116FFF0E0A
:10A25800000198210101126F00D02DEC76F00DC19C
:10A26800D9FF0EC1DAFFDF6E010120EE02F00D51B9
:10A27800D9260E51DA2211C1DFFF010120EE01F0CB
:10A288000D51D9260E51DA2201011251DF6E0DC18E
:10A29800A2F00EC1A3F001010F51030F0001A46F3A
:10A2A800010E0001A56FAAEC4BF00001CA51D8A419
:10A2B80017D0080E6DEC6DF000018B510001CA2516
:10A2C8000001CA6FCAC0A6F00001A76B010E000109
:10A2D800A86F080E86EC6AF0000E0001CA6F00D065
:10A2E800000E0201556F010E1200000E120012003E
:10A2F8008BC0D9FF8CC0DAFF1D0EDF6E000120EE87
:10A3080001F08B51D9268C51DA22230EDF6E000121
:10A3180020EE02F08B51D9268C51DA22D1C08DF073
:10A3280000018D3BF00E8D1706EC76F000018D25AF
:10A338000001D025DF6E000120EE03F08B51D926F5
:10A348008C51DA22D1C08DF000018D3BF00E8D17B3
:10A3580006EC76F000018D250001D025DF6E0001A6
:10A3680020EE04F08B51D9268C51DA22D1C08DF021
:10A3780000018D3BF00E8D1706EC76F000018D255F
:10A388000001D025DF6E000120EE05F08B51D926A3
:10A398008C51DA22BDC1DFFF000120EE06F08B519F
:10A3A800D9268C51DA22BDC1DFFF000120EE07F06B
:10A3B8008B51D9268C51DA22BDC1DFFF000120EE76
:10A3C80008F08B51D9268C51DA223FEC76F0DF6EFB
:10A3D800000120EE09F08B51D9268C51DA223FEC8E
:10A3E80076F0DF6E000120EE0AF08B51D9268C51F1
:10A3F800DA223FEC76F0DF6E000120EE0BF08B5195
:10A40800D9268C51DA2229EC76F0DF6E000120EE95
:10A418000CF08B51D9268C51DA2229EC76F0DF6EBC
:10A42800000120EE0DF08B51D9268C51DA2229EC4F
:10A4380076F0DF6E0E0E00018E6F00018E51120055
:10A448001200A4C000F10101016B026B0001A335E9
:10A458000101003701E301810101005101010A6F87
:10A4680001010A51D8A40AD0000E0001A26F000E03
:10A47800A36F000EA46F000EA56F1200170E010146
:10A48800006FA2C001F1A3C002F1A4C003F1010151
:10A4980000290101046F05D00101D890033302336C
:10A4A80001330101042FF8D7010101510101056FA2
:10A4B8000001A38FFF0E0001A217FF0E0001A317D2
:10A4C800000E0001A4170001A2510101066F00014E
:10A4D800A3510101076F0001A4510101086F010197
:10A4E800096B8E0E01010A5F01010AAF1BD0010141
:10A4F8000A51800A8F0FD8B00BD0000E0001A26F4E
:10A50800000EA36F000EA46F000EA56F120000D0FE
:10A518000101D890093308330733063301010A3F94
:10A52800F7D71FD0170E01010A6514D0000E0001DD
:10A53800A26F000EA36F000EA46F000EA56F12008D
:10A5480009D00101D89006370737083709370101C4
:10A558000A0700D001010A510101D8B402D0F1D78D
:10A5680000D0010105510101D8B40AD00101091F29
:10A57800081F071F066D000E07230823092300D0B4
:10A5880006C1A2F007C1A3F008C1A4F009C1A5F053
:10A598001200120098C09CF000019D6B9E6B000198
:10A5A800973500019C3701E39D8100019C51000112
:10A5B800A36F0001A351D8A40AD0000E0001966F22
:10A5C800000E0001976F000E0001986F12009BC0EB
:10A5D8009CF000019D6B9E6B00019A3500019C3731
:10A5E80001E39D8100019C510001A46F0001A45169
:10A5F800D8A40AD0000E0001966F000E0001976FD4
:10A60800000E0001986F1200000E0001A06F000EEE
:10A618000001A16F000E0001A26F0001A451890F73
:10A628000001A35F98C0A4F000019B510001A41B86
:10A63800800E0001A4170001978FFF0E00019617E6
:10A64800FF0E00019717000E0001981700019A8F5E
:10A65800FF0E00019917FF0E00019A17000E000166
:10A668009B17180E00019F6F00D00001D890A037EB
:10A67800A137A237000199510001965D00019A5156
:10A688000001975900019B5100019859D8A00ED09C
:10A69800000199510001965F00019A510001975BF2
:10A6A80000019B510001985B0001A0810001D89036
:10A6B80096379737983700019F2FD7D700D0A0C07B
:10A6C8008BF0A1C08CF0A2C08DF0A3C08EF0A4C006
:10A6D8008FF0DCEC55F08BC096F08CC097F08DC0F5
:10A6E80098F0120012000101EF510101EE1137E15B
:10A6F800610E0101EC5D090E0101ED59D8B02FD0B2
:10A70800A786000E016E900E026ED00E036E030E29
:10A71800046EECC10EF0EDC10FF0EEC110F0EFC108
:10A7280011F0040ED8900E360F3610361136E82E7A
:10A73800F9D70EC005F00FC006F010C007F011C021
:10A7480008F0CCEC6AF0FF0E01240201106FFF0E36
:10A7580002200201116F6C0E0201426F120001010A
:10A76800EF510101EE1136E1810E0101EC5D250E7C
:10A778000101ED59D8B02ED0000E016E900E026E78
:10A78800D00E036E030E046EECC10EF0EDC10FF097
:10A79800EEC110F0EFC111F0060ED8900E360F364C
:10A7A80010361136E82EF9D70EC005F00FC006F0A6
:10A7B80010C007F011C008F0CCEC6AF0FF0E0124BD
:10A7C8000201106FFF0E02200201116F6C0E0201D0
:10A7D800426F1200000E016E900E026ED00E036ED4
:10A7E800030E046EECC105F0EDC106F0EEC107F0F2
:10A7F800EFC108F0CCEC6AF0050E05D0D890043211
:10A80800033202320132E82EF9D7FF0E0124020189
:10A81800106FFF0E02200201116F000E0201116F6E
:10A82800220E106F7C0E0201426F1200120000010E
:10A83800C251D8A404D00101C251D8B403D0000E2B
:10A8480012008AD0020143510201D8A485D0C7C0A2
:10A858008BF000018C6BA9C08DF000018E6BC90EC6
:10A8680000018F6F000E906F000E916F000E926FB7
:10A878008AEC6CF000018B510101056F0101055153
:10A888000101D8A402D0000E1200000E0001996F39
:10A8980001010551010D000EF324D96E060EF420B6
:10A8A800DA6EDF50B5EC73F0D3A60FD0040E0001BA
:10A8B800976F010E6CEC56F00001AA510001972524
:10A8C8000101066F0001AB5114D0040E0001976F0F
:10A8D800010E6CEC56F00001AA5100019727000107
:10A8E800AB5100019823E60E000197250101066F80
:10A8F800FF0E000198210101076F00D02DEC76F0C2
:10A90800A6C0D9FFA7C0DAFFDF6E000120EE02F073
:10A91800A651D926A751DA2206C1DFFF000120EE91
:10A9280001F0A651D926A751DA2201010751DF6E9D
:10A93800A6C0A2F0A7C0A3F00001A851030F000110
:10A94800A46F010E0001A56FAAEC4BF0010E0201E5
:10A95800436F010E120000D0000E12001200000119
:10A96800906F80D0000E00018B6F010E6FEC71F0BC
:10A97800E40E00D000D0E82EFCD700D000D00201B1
:10A9880099511F0B80090201996F99C28DF0000E31
:10A9980061EC72F0800E0101B06F0B0E00018F6F39
:10A9A800620EE82EFED78F2FFCD700D012000201CE
:10A9B80099511F0B60090201996F99C28DF0000E21
:10A9C80061EC72F0D1C08BF0000E6FEC71F0600E8C
:10A9D8000101B06F1200000E00018B6F000E6FECCA
:10A9E80071F0020199511F0B20090201996F99C258
:10A9F8008DF0000E61EC72F0680E00018F6FE40EAE
:10AA0800E82EFED78F2FFCD700D0200E0101B06FA3
:10AA18001200000E00018B6F000E6FEC71F0020146
:10AA280099511F0B40090201996F99C28DF0000ED0
:10AA380061EC72F0400E0101B06F1200000E0001CF
:10AA48008B6F000E6FEC71F0020199511F0B020120
:10AA5800996F000E0101B06F99C28DF0000E61EC84
:10AA680072F0120000019051000AD8B4E7D7200A0A
:10AA7800D8B4B1D7600AD8B4CCD7200AD8B497D7FD
:10AA8800E00AD8A412006ED7120091C0D9FF92C074
:10AA9800DAFFDE04D8A489D0050E0001936585D0BD
:10AAA800F90E0001932500018B6F00018C6BFF0EDE
:10AAB8008C23000E00018E6F050E8D6FF8EC63F08D
:10AAC80000018B5100018C11D8A46FD0FF0E00013A
:10AAD800946FFF0E0001956F000193510001966F6E
:10AAE800976B0001945100019627000195510001D0
:10AAF80097230001965100019125D96E00019751C5
:10AB080000019221DA6E0101BD51DE18D8B420D0BF
:10AB1800FF0E0001946FFF0E0001956F0001935125
:10AB28000001966F976B0001945100019627000170
:10AB38009551000197230001965100019125D96E86
:10AB48000001975100019221DA6EDE28D8A403D0C3
:10AB5800010E12002AD00101BD29D8A423D0FF0E6E
:10AB68000001946FFF0E0001956F000193510001E1
:10AB7800966F976B0001945100019627000195513B
:10AB8800000197230001965100019125D96E00011B
:10AB9800975100019221DA6EDE28D8B403D0020E54
:10ABA800120003D0000E120000D0000E1200120096
:10ABB80000018E510001D8B408D000018B5100016A
:10ABC8008C1100018D11D8A413D0000E00018B6FD9
:10ABD800000E00018C6F000E00018D6F120008D06E
:10ABE80000018E2B0001D8908D338C338B3300D02D
:10ABF800000E00018B150001906F000E00018C15EE
:10AC08000001916FFE0E00018D150001926F000189
:10AC180090510001911100019211D8B413D0E0D7DE
:10AC280011D000018E2B010E00018B27000E0001B0
:10AC38008C23000E00018D230001D8908D338C33B6
:10AC48008B3300D0000E00018B150001906F000EB1
:10AC580000018C150001916FFF0E00018D15000198
:10AC6800926F000190510001911100019211D8B426
:10AC78000AD0D7D708D000018E070001D8908B37AB
:10AC88008C378D3700D000018CBF05D0020E000133
:10AC98008E61F1D700D000018EB103D000018C9FE6
:10ACA80000D00001D8908E3300018E5100018D1321
:10ACB80000018F510001D8B403D000018D8F00D05E
:10ACC8008BC08BF08CC08CF08DC08DF01200120000
:10ACD80000019D6F00019D05D8A416D0CECF9EF02F
:10ACE80000019F6BCFCFA0F00001A16B0001A05124
:10ACF8000001A16FA06B00019E510001A027000177
:10AD08009F510001A12300D0030E00019D19D8A472
:10AD180016D0B2CF9EF000019F6BB3CFA0F0000118
:10AD2800A16B0001A0510001A16FA06B00019E5111
:10AD38000001A02700019F510001A12300D00001BC
:10AD480097510001D8A435D0A0C099F0A1C09AF0BD
:10AD58000001991F9A1F994B9A2BFF0E0001992504
:10AD680000019B6FFF0E00019A2100019C6F9BC0A0
:10AD78008BF09CC08CF000018D6B8E6BE80E00018F
:10AD88008F6F030E906F000E916F000E926F4DEC57
:10AD98006CF0100E07D00001D8908E338D3300016F
:10ADA8008C338B33E82EF7D78BC097F08CC098F094
:10ADB8001200A0C099F0A1C09AF00001991F9A1F33
:10ADC800994B9A2BFF0E000199250001976FFF0EF2
:10ADD80000019A210001986F1200120000018B05F2
:10ADE80000018C11D8A427D04F50D8A4120001D04C
:10ADF8001200010E4F6E000E0001AE25D96E050E31
:10AE08000001AF21DA6E8DC0DFFF0001AE4BAF2B22
:10AE18000001AFBF0DD00001AF5105E1800E000168
:10AE2800AE5DD8A005D0000E0001AF6F000EAE6F6A
:10AE3800000E4F6E1200020E00018B1900018C11DA
:10AE4800D8A420D05050D8A4120001D01200010E6E
:10AE5800506EC90E4624D96E060E4720DA6E8DC094
:10AE6800DFFF464A472A47BE0AD0800E465C010EDD
:10AE78004758D8A004D0000E476E000E466E000E4C
:10AE8800506E1200040E00018B1900018C11D8A419
:10AE980012000001B651D8A4120001D01200010E10
:10AEA8000001B66F320E0001AC25D96E030E000109
:10AEB800AD21DA6E8DC0DFFF0001AC4BAD2B000178
:10AEC800ADBF0DD00001AD5105E1270E0001AC5D0D
:10AED800D8A005D0000E0001AD6F000EAC6F000EBB
:10AEE8000001B66F120012000001C9510001D8A478
:10AEF80004D0010E0001C96F00D0C9C092F0000E45
:10AF08000001956F5DD0000E0001946F000E936FE5
:10AF18002CD000019551010DF35000018B25D96EFD
:10AF2800F45000018C21DA6E0001C951010DB90EEF
:10AF3800F324E16E020EF420E26EE75000018F6FF9
:10AF480000019551010DF35000018B25E16EF4507D
:10AF580000018C21E26EE75000018F250001952544
:10AF6800DF6E0001934B942B00D00001C951010DF5
:10AF7800B90EF324D96E020EF420DA6EDF50070BF7
:10AF880000018F6F906B00018F510001935D0001EC
:10AF98009451800A0001916F00019051800A0001CC
:10AFA8009159D8A0B6D70001C92B070E0001C96571
:10AFB80004D0000E0001C96F00D00001952B00D00D
:10AFC8000001955100018F6F906B00018D510001B8
:10AFD8008F5D00019051800A0001916F00018E5130
:10AFE800800A00019159D8A08ED700019251120011
:10AFF800120006EEC9F015EE6EF0EE6AE550E1506B
:10B00800FCE1E250FAE105EE00F0BF0EEE6AE80658
:10B01800FDE104EE00F0FD0EEE6AE806FDE103EE48
:10B0280000F0EE0EEE6AE806FDE102EE00F0990E81
:10B03800EE6AE806FDE101EE9AF0470EEE6AE806D0
:10B04800FDE100EEAAF0280EEE6AE806FDE100EE4A
:10B0580044F01A0EEE6AE806FDE1DA0EF66EC10E4D
:10B06800F76E000EF86E06EE00F010EEC9F009005B
:10B07800F5CFEEFFE550E150FAE14A0EF66EDD0E2F
:10B08800F76E000EF86E02EE99F010EE5DF0090012
:10B09800F5CFEEFFE550E150FAE1F60EF66EEA0E56
:10B0A800F76E000EF86E01EEE1F010EE13F00900F5
:10B0B800F5CFEEFFE550E150FAE1880EF66EEC0EA2
:10B0C800F76E000EF86E0900F5CFD2F00900F5CF43
:10B0D800D3F00900F5CFD4F08B0EF66EEC0EF76EB8
:10B0E800000EF86E0900F5CF5EF00900F5CF5FF0AD
:10B0F800000EF86E000112EF05F0000E00019C6FC3
:10B10800000E00019B6F000E9A6F000E00019E6FEB
:10B11800000E9D6F000E00018B6F040E77EC70F02F
:10B12800000E00019E6F000E9D6F000E00019C6FC7
:10B13800090E00019C6501D023D042EC76F000D0C6
:10B14800DFEC75F00009D8A4FBD7C45000019B6F51
:10B158009A6BC35000019A13040E00019C6509D034
:10B1680000019A5100019D2700019B5100019E2377
:10B1780000D00A0EE82EFED700D000019C2BD8D7AD
:10B188009DC091F09EC092F0000E0001946F050ED4
:10B19800936F12EC6BF091C09DF092C09EF0020E7E
:10B1A80000018B6F040E77EC70F0C2909DC08BF09D
:10B1B8009EC08CF0000E00018E6F070E8D6F2AEC7A
:10B1C80072F08BC091F08CC092F0000E0001946F69
:10B1D800060E936F12EC6BF091C09DF092C09EF03A
:10B1E8000101C95100019D5F000E0101C9BFFF0E99
:10B1F80000019E5B9DC098F09EC099F0120012005D
:10B208007C0ED36E9B8CD2909B8E200E926EBB0EC2
:10B21800936E130E946E860E806E010E816E840EF0
:10B22800826E100E0F015D6F040E0F015C6FF19EB0
:10B238000F015B910F015B930F015B850F015B971A
:10B248000F015B990F015B9B0F015B9D0F015B9FDA
:10B25800D180030E00018C6FEC0E8B6FE9EC74F05B
:10B268000101D96F030E00018C6FED0E8B6FE9ECB5
:10B2780074F00101DA6F030E00018C6FEE0E8B6F14
:10B28800E9EC74F00101DB6F0101D951030B030AEA
:10B29800D8A406D00101D951FC0B0209D96F00D0FE
:10B2A8000101D931E832030B030AD8A405D0010102
:10B2B800D951F30B0809D96F010E0101E56F000E92
:10B2C8000201236F000E226F000E0201216F000E93
:10B2D800206F000E0201396F000E386F000E020158
:10B2E8003B6F000E3A6F000E0101B96F02019469BD
:10B2F800020195690201966902019769000E02012F
:10B30800516F1200000E0001946F00018EAF0DD036
:10B3180000018E1F8D1F8C1F8B6D000E8C238D23BB
:10B328008E23010E0001946F00D0000192AF0AD065
:10B338000001921F911F901F8F6D000E9023912383
:10B34800922300D000018F5100019011000191114A
:10B3580000019211D8B43FD0010E0001936F09D0BB
:10B368000001D8908F379037913792370001932B8F
:10B3780000D0000192BF02D0F3D700D000018F5156
:10B3880000018B5D0001905100018C590001915121
:10B3980000018D590001925100018E59D8A011D099
:10B3A80000018F5100018B5F0001905100018C5BFF
:10B3B8000001915100018D5B0001925100018E5BEB
:10B3C80000D00001D8909233913390338F3300012D
:10B3D800932FD4D700D0000194510001D8B40AD0DB
:10B3E80000018E1F8D1F8C1F8B6D000E8C238D23EB
:10B3F8008E2300D08BC08BF08CC08CF08DC08DF06C
:10B408008EC08EF0120012000001936FFA0E000138
:10B41800936178D093C094F00001956B94C091F03B
:10B4280095C092F00001D890913792370001D890DA
:10B438009137923791C094F092C095F08FC0D9FFA0
:10B4480090C0DAFF94C08DF095C08EF0C9EC75F00D
:10B458000001926FDE5000019219D8A451D000016A
:10B4680020EE01F08F51D9269051DA22010E000109
:10B47800942500018D6F000E0001952100018E6F4B
:10B48800C9EC75F00001926FDE5000019219D8A442
:10B4980037D0000120EE02F08F51D9269051DA22E0
:10B4A800020E0001942500018D6F000E0001952108
:10B4B80000018E6FC9EC75F00001926FDE5000013B
:10B4C8009219D8A41DD0000120EE03F08F51D9267F
:10B4D8009051DA22030E0001942500018D6F000EB1
:10B4E8000001952100018E6FC9EC75F00001926F83
:10B4F800DE5000019219D8A403D0010E120000D02A
:10B50800000E1200000E120012001EC020F0216A68
:10B51800226A1D34203601E3218020502A6E2A50E9
:10B52800D8A409D0000E1C6E000E1D6E000E1E6EF3
:10B53800000E1F6E1200170E206E1CC021F01DC0D9
:10B5480022F01EC023F02028246E04D0D890233285
:10B5580022322132242EFAD72150256E1D8EFF0E5D
:10B568001C16FF0E1D16000E1E161C50266E1D50B2
:10B57800276E1E50286E296A8E0E2A5E2AAE17D0B4
:10B588002A50800A8F0FD8B00AD0000E1C6E000E09
:10B598001D6E000E1E6E000E1F6E120000D0D89099
:10B5A80029322832273226322A3EF9D719D0170EE7
:10B5B8002A6411D0000E1C6E000E1D6E000E1E6E49
:10B5C800000E1F6E120007D0D89026362736283670
:10B5D80029362A0600D02A50D8B402D0F5D700D090
:10B5E8002550D8B409D0291E281E271E266C000E07
:10B5F80027222822292200D026C01CF027C01DF0AF
:10B6080028C01EF029C01FF0120012000FC013F04E
:10B61800146A156A0E34133601E314801350166E3B
:10B628001650D8A407D0000E0D6E000E0E6E000E38
:10B638000F6E120012C013F0146A156A1134133613
:10B6480001E3148013501B6E1B50D8A407D0000EC2
:10B658000D6E000E0E6E000E0F6E12001B507B0F4B
:10B6680016260FC01BF012501B1A800E1B160E8ECA
:10B67800118EFF0E1016FF0E1116000E1216000E78
:10B68800176E000E186E000E196E070E1A6E00D097
:10B698000DA007D010501726115018221250192249
:10B6A80000D0D8900F320E320D32D89010361136A5
:10B6B80012361A2EEDD700D0090E1A6E00D00DA042
:10B6C80007D010501726115018221250192200D0F6
:10B6D800D8900F320E320D32D890193218321732F4
:10B6E8001A2EEDD700D017C001F018C002F019C00B
:10B6F80003F016C004F01BC005F018EC62F001C09E
:10B708000DF002C00EF003C00FF012001200010489
:10B718000210D8A427D04F50D8A4120001D012008C
:10B72800010E4F6E000E0001AE25D96E050E000108
:10B73800AF21DA6E03C0DFFF0001AE4BAF2B000173
:10B74800AFBF0DD00001AF5105E1800E0001AE5D25
:10B75800D8A005D0000E0001AF6F000EAE6F000E2E
:10B768004F6E1200020E01180210D8A420D05050BB
:10B77800D8A4120001D01200010E506EC90E462442
:10B78800D96E060E4720DA6E03C0DFFF464A472A05
:10B7980047BE0AD0800E465C010E4758D8A004D098
:10B7A800000E476E000E466E000E506E1200040E1C
:10B7B80001180210D8A412000001B651D8A4120032
:10B7C80001D01200010E0001B66F320E0001AC2547
:10B7D800D96E030E0001AD21DA6E03C0DFFF000150
:10B7E800AC4BAD2B0001ADBF0DD00001AD5105E153
:10B7F800270E0001AC5DD8A005D0000E0001AD6F8A
:10B80800000EAC6F000E0001B66F12001200010EA0
:10B818000001D06F000E85EC74F0000E0001D16FAE
:10B82800FF0E05EC70F0000E1EEC75F0080EF2EC41
:10B8380075F0D1C1F0F1D2C1F1F1D3C1F2F1D4C1A7
:10B84800F3F1D0C010F121EC76F0030E00018C6FFB
:10B85800EF0E8B6F29EC76F000018D6FC1EC70F064
:10B8680021EC76F0030E00018C6FFC0E8B6F3FEC21
:10B8780076F000018D6FC1EC70F021EC76F0030ECC
:10B8880000018C6FFD0E8B6F10C18DF0C1EC70F054
:10B8980021EC76F0030E00018C6FFE0E8B6FBDC19C
:10B8A8008DF0C1EC70F021EC76F0030E00018C6F86
:10B8B800E80E8B6FFF0E00018D6FC1EC70F021EC6C
:10B8C80076F0030E00018C6FE90E8B6FFF0E0001FE
:10B8D8008D6FC1EC70F021EC76F0030E00018C6FD7
:10B8E800EA0E8B6FFF0E00018D6FC1EC70F021EC3A
:10B8F80076F0030E00018C6FEB0E8B6FFF0E0001CC
:10B908008D6FC1EC70F012000101046FFA0E010195
:10B9180004614FD0000E0001976F010E0001986F6F
:10B92800010104515DEC65F0000E0001916F010EFC
:10B938000001926F9FC093F0A0C094F0040E000124
:10B94800956F2BEC70F001010451020DC90EF32420
:10B95800D96E080EF420DA6EDF503F0B0001A56F98
:10B968000001A551060DBD0EF3240001916F0A0ECA
:10B97800F4200001926FA1C093F0A2C094F0040ECD
:10B988000001956F2BEC70F001010451020D010EBE
:10B99800F326000EF422C90EF324D96E080EF42003
:10B9A800DA6EDF501F0BA3C0D9FFA4C0DAFFDF6E29
:10B9B8001200D10E0001916F010E0001926F9FC01D
:10B9C80093F0A0C094F0040E0001956F2BEC70F07A
:10B9D800D10E0001916F010E0001926FA1C093F08A
:10B9E800A2C094F0040E0001956F2BEC70F0A3C078
:10B9F800D9FFA4C0DAFFFF0EDF6E120012000001AB
:10BA0800986F0001985178EC73F098C08BF00001A2
:10BA18008C6B00019151050F00018D6FF2EC56F00F
:10BA280092C093F0060E00019327020E0001946F56
:10BA38000001932B03D00001D89094370001932F75
:10BA4800FAD7000194510001956F98C08BF000015E
:10BA58008C6B95C08DF0F2EC56F0000E0001966FDD
:10BA6800000E0001976F25D098C08BF000018C6BF9
:10BA780000019751010DF35000018F25D96EF45044
:10BA880000019021DA6EDF5000018D6FF2EC56F064
:10BA980000019751010DF35000018F25D96EF45024
:10BAA80000019021DA6EDF500001961B0001972BF0
:10BAB80000D0000191510001975DD8A0D5D798C05A
:10BAC8008BF000018C6B96C08DF0F2EC56F098C0AC
:10BAD8008BF000018C6B0D0E00018D6FF2EC56F0AF
:10BAE80098C08BF000018C6B0A0E00018D6FF2EC90
:10BAF80056F01200000E0001956F5ED0000E000196
:10BB0800946F000E936F2DD000019551010DF350E5
:10BB180000018B25D96EF45000018C21DA6E0001EA
:10BB28009551010DF35000018B25E16EF450000191
:10BB38008C21E26EE7500001906F00018F51010DDA
:10BB4800B90EF324E16E020EF420E26EE750000114
:10BB58009525000800019025DF6E0001934B942B7A
:10BB680000D000018F51010DB90EF324D96E020ED9
:10BB7800F420DA6EDF50070B0001906F916B000123
:10BB880090510001935D00019451800A0001926F69
:10BB980000019151800A00019259D8A0B5D700013F
:10BBA8008F2B070E00018F6504D0000E00018F6FE8
:10BBB80000D00001952B00D0000195510001906F35
:10BBC800916B00018D510001905D00019151800A37
:10BBD8000001926F00018E51800A00019259D8A08D
:10BBE8008DD71200030E010115250101196F000EF2
:10BBF8000101162101011A6F13C191F014C192F0CD
:10BC080000EC67F00101186F13C191F014C192F0B4
:10BC180019C193F01AC194F0040E0001956F2BEC32
:10BC280070F0D50E0001916F010E0001926F040EA5
:10BC3800010119250001936F000E01011A2100016D
:10BC4800946F040E0001956F2BEC70F0020E010149
:10BC5800B319D8A410D019C18FF01AC190F00101FE
:10BC68001751080F0001916F000E0001926F020E2C
:10BC780003EC5DF000D013C191F014C192F0D10E25
:10BC88000001936F010E0001946F040E0001956F7F
:10BC98005DEC6FF00009D8A40ED015C1A6F016C14E
:10BCA800A7F001011751080F0001A86F18C1A9F0EA
:10BCB8001BEC54F0120015C10DF116C10EF1010173
:10BCC8001751080F01010F6FD1EC50F0120012004C
:10BCD8009BC091F09CC092F099C093F09AC094F0E8
:10BCE800040E0001956F2BEC70F0D50E00018B6FE0
:10BCF800010E00018C6F000E00018D6F99C08EF04F
:10BD08009AC08FF0040E0001906F040E0001916F2D
:10BD18008FEC68F0000120EE08F09951D9269A516D
:10BD2800DA22030EDF6E000120EE09F09951D926C0
:10BD38009A51DA22000EDF6E000120EE0AF09951C6
:10BD4800D9269A51DA22000EDF6ED50E00018B6FCC
:10BD5800010E00018C6F000E00018D6F99C08EF0EE
:10BD68009AC08FF00B0E0001906F040E0001916FC6
:10BD78008FEC68F09BC08BF09CC08CF0000E00012B
:10BD88008D6F99C08EF09AC08FF00F0E0001906FE2
:10BD9800040E0001916F8FEC68F0000120EE13F0A3
:10BDA8009951D9269A51DA22000EDF6E120000014D
:10BDB800A4510001A25D0001A5510001A359D8B00A
:10BDC80045D00001A4510101006F0001A5510101F6
:10BDD800016F0101026B0101036B0101001F011FCB
:10BDE800021F031F002B000E01230223032300015F
:10BDF800A251010100250101046F0001A3510101B5
:10BE080001210101056F000E010102210101066FE8
:10BE1800000E010103210101076F0001A651010174
:10BE280004250101086F0001A75101010521010145
:10BE3800096F0001A8510101062101010A6F0001E3
:10BE4800A9510101072101010B6F19D0A4C000F10C
:10BE5800A5C001F10101001F011F004B012B0001CA
:10BE6800A251010100270001A3510101012300C1D2
:10BE780008F101C109F101010A6B0B6B00D008C17F
:10BE8800A2F009C1A3F01200120000017A6F545009
:10BE9800D8B428D000017A510001D8B411D0FF0ECF
:10BEA8000101A22500016D6FFF0E0101A321000110
:10BEB8006E6F040E00016F6F010EB8EC47F00BD0E7
:10BEC800A2C16DF0A3C16EF0040E00016F6F010EE8
:10BED800B8EC47F000D0070E0101A36FA269000E6D
:10BEE800546E00D0010E0001AA250001AA6FF80EB9
:10BEF8000001AB210001AB6F4406D8A045064450B1
:10BF08004510D8A40ED0000E456E100E446E0AC21D
:10BF1800AAF00BC2ABF07F0E02010B6FF00E0A6F96
:10BF28000BD044044510D8A407D0010E546EAAC003
:10BF3800A2F1ABC0A3F100D00001C72BC80E0001CD
:10BF4800C76504D0000E0001C76F00D002010C299C
:10BF580004E102010D29D8B4120002010C4B0D2B8B
:10BF68001200120000019D6F00019D510001D8A42C
:10BF78000DD0D6CF9EF000019F6BD7CFA0F011D087
:10BF88000001A0510001A16FA06B0ED0030E0001AB
:10BF98009D19D8A412D0B2CF9EF000019F6BB3CFE9
:10BFA800A0F00001A16BECD700019E510001A02771
:10BFB80000019F510001A12300D000019751000109
:10BFC800D8A435D0A0C099F0A1C09AF00001991F5B
:10BFD8009A1F994B9A2BFF0E0001992500019B6F20
:10BFE800FF0E00019A2100019C6F9BC08BF09CC042
:10BFF8008CF000018D6B8E6BE80E00018F6F030EC5
:10C00800906F000E916F000E926F4DEC6CF0100E59
:10C0180007D00001D8908E338D3300018C338B33D9
:10C02800E82EF7D78BC097F08CC098F01200A0C00C
:10C0380097F0A1C098F01200000E0001906F000167
:10C048008EAF09D000018D6D8E1FD8B08E2B010EDA
:10C058000001906F00D000018CAF09D000018B6DFA
:10C068008C1FD8B08C2B010E0001901B00D0000E45
:10C078000001926F000E916F00018D5100018E1129
:10C08800D8B431D0010E00018F6F07D00001D890CD
:10C098008D378E3700018F2B00D000018EBF02D064
:10C0A800F5D700D00001D8909137923700018D5113
:10C0B80000018B5D00018E5100018C59D8A00BD076
:10C0C80000018D5100018B5F00018E5100018C5BD6
:10C0D8000001918100D00001D8908E338D3300018A
:10C0E8008F2FE0D700D0000190510001D8B406D0BE
:10C0F8000001916D921FD8B0922B00D091C08BF0A7
:10C1080092C08CF01200120000018D6F00018D5159
:10C11800060D050EF326000EF422BD0EF324D96E8B
:10C128000A0EF420DA6EDE28D8A410D000018D5152
:10C13800060D050EF326000EF422BD0EF324D96E6B
:10C148000A0EF420DA6E8BC0DFFF120000018D5159
:10C15800060D050EF326000EF422BD0EF324D96E4B
:10C168000A0EF420DA6E00018B51DE5CD8B00FD0D5
:10C1780000018D51060D050EF326000EF422BD0EAA
:10C18800F324D96E0A0EF420DA6EDF2A12000001B9
:10C198008D51060D050EF326000EF422BD0EF32474
:10C1A800D96E0A0EF420DA6EDE5000018B5DD8B02D
:10C1B800120000018D51060D050EF326000EF42223
:10C1C800BD0EF324D96E0A0EF420DA6EDF061200D3
:10C1D800120000010203040A0B0C0D0E14151617A9
:10C1E800181E1F20212228292A2B2C05060708099A
:10C1F8000F10111213191A1B1C1D23242526272D75
:10C208002E2F30310031302F2E2D27262524231DA7
:10C218001C1B1A19131211100F09080706052C2BDD
:10C228002A29282221201F1E18171615140E0D0C56
:10C238000B0A0403020100010203040A0B0C0D0E91
:10C2480014151617181E1F20212228292A2B2C0501
:10C25800060708090F10111213191A1B1C1D232495
:10C268002526272D2E2F30310031302F2E2D272631
:10C278002524231D1C1B1A19131211100F09080756
:10C2880006052C2B2A29282221201F1E18171615CF
:10C29800140E0D0C0B0A040302010000000E00012D
:10C2A800936F000E946F000E956F000E966F00014D
:10C2B8008F51000190110001911100019211D8B421
:10C2C80047D0010E0001976F09D00001D8908F3731
:10C2D8009037913792370001972B00D0000192BF19
:10C2E80002D0F3D700D00001D89093379437953710
:10C2F800963700018F5100018B5D000190510001BC
:10C308008C590001915100018D5900019251000191
:10C318008E59D8A013D000018F5100018B5F000106
:10C32800905100018C5B0001915100018D5B00016F
:10C33800925100018E5B0001938100D00001D890DA
:10C348009233913390338F330001972FCCD700D09D
:10C3580093C08BF094C08CF095C08DF096C08EF091
:10C368001200116E1104D8A40ED0CECF14F0156AA5
:10C37800CFCF16F0176A1650176E166A1450162685
:10C388001550172200D0030E1118D8A40ED0B2CF22
:10C3980014F0156AB3CF16F0176A1650176E166A9E
:10C3A800145016261550172200D00D50D8A42CD0A2
:10C3B80016C00FF017C010F00F1E101E0F4A102ADB
:10C3C800FF0E0F24126EFF0E1020136E12C001F024
:10C3D80013C002F0036A046AE80E056E030E066EC7
:10C3E800000E076E000E086E30EC6FF0100E05D0D0
:10C3F800D8900432033202320132E82EF9D701C054
:10C408000DF002C00EF0120016C00FF017C010F0A9
:10C418000F1E101E0F4A102AFF0E0F240D6EFF0E5E
:10C4280010200E6E120012000450D8B405D001502E
:10C4380002100310D8A40ED0000E016E000E026E7A
:10C44800000E036E120006D0042AD890033202327E
:10C45800013200D0000E0114066E000E0214076EA1
:10C46800FE0E0314086E065007100810D8B40ED03C
:10C47800EBD70CD0042A010E0126000E0222000E72
:10C488000322D89003320232013200D0000E011488
:10C49800066E000E0214076EFF0E0314086E065097
:10C4A80007100810D8B408D0E5D706D00406D890ED
:10C4B80001360236033600D002BE04D0020E0460F4
:10C4C800F5D700D004B002D0029E00D0D890043234
:10C4D800045003120550D8B402D0038E00D001C016
:10C4E80001F002C002F003C003F012001200000EB7
:10C4F8000001686F000E696F000E6A6F000E6B6FA7
:10C508000001645100016511000166110001671105
:10C51800D8B447D0010E00016C6F09D00001D89043
:10C52800643765376637673700016C2B00D0000128
:10C5380067BF02D0F3D700D00001D89068376937B9
:10C548006A376B37000164510001605D0001655175
:10C5580000016159000166510001625900016751EB
:10C5680000016359D8A013D0000164510001605F35
:10C57800000165510001615B000166510001625BC9
:10C58800000167510001635B0001688100D0000170
:10C59800D890673366336533643300016C2FCCD78A
:10C5A80000D068C060F069C061F06AC062F06BC01A
:10C5B80063F01200000E0001A06F000E9F6F0001D3
:10C5C800A0BF0AD00001A0513CE10A0E00019F5D06
:10C5D800D8B037D001D035D081EC58F098C0A4F14C
:10C5E80099C0A5F10101A5BF0ED0230E0101A45DDC
:10C5F8000C0E0101A559D8A006D00101A451DE0FE7
:10C608000101C92712D00101A5BF08D01C0E0101E4
:10C61800A45D0C0E0101A559D8B007D00101A451A1
:10C6280000081C0F0101C95F00D0020E00018C6FC9
:10C638008A0E8B6F0EEC6EF000019F4BA02BBFD7BC
:10C6480000D00101C951800A9F0FD8A01200010132
:10C65800C951800A600FD8B0120021EC76F0030EA1
:10C6680000018C6FF00E8B6FC9C18DF0C1EC70F0BA
:10C6780012001200CDC28BF0CEC28CF0CFC28DF06A
:10C68800D0C28EF0D1C28FF0D2C290F0D3C291F056
:10C69800D4C292F04DEC6CF08BC0CDF28CC0CEF2CF
:10C6A8008DC0CFF28EC0D0F2390E0201CD27300EE8
:10C6B800CE23000ECF23000ED023100E0001996F59
:10C6C800CDC29AF0CEC29BF0CFC29CF0D0C29DF0F2
:10C6D8000001996701D009D000019D359D339C3335
:10C6E8009B339A330001992FF3D7FF0E00019A1557
:10C6F80000018B6F7F0E00019B1500018C6F000EEF
:10C7080000019C1500018D6F000E00019D150001B0
:10C718008E6F97C08FF098C090F00001916B926B6C
:10C7280086EC59F08BC097F08CC098F0120012007C
:10C73800000E00019B6F000E9A6F000E00019D6FA6
:10C74800000E9C6F000E00018B6F080E77EC70F0E6
:10C75800000E00019D6F000E9C6F000E00019E6F81
:10C76800090E00019E6501D02AD042EC76F000D077
:10C77800DFEC75F00009D8A4FBD7C45000019B6F0B
:10C788009A6BC35000019A13040E00019E6514D0E1
:10C79800100E00019B5DD8A006D0000E00019B6F13
:10C7A800000E9A6F00D000019A5100019C270001E9
:10C7B8009B5100019D2300D000019E2BD1D79CC026
:10C7C80091F09DC092F0000E0001946F050E936FDA
:10C7D80012EC6BF091C09CF092C09DF09CC098F058
:10C7E8009DC099F012001200000E0001906F000128
:10C7F8008CAF09D000018B6D8C1FD8B08C2B010E2B
:10C808000001906F00D000018EAF06D000018D6D41
:10C818008E1FD8B08E2B00D000018D5100018E11D3
:10C82800D8B42BD0010E00018F6F07D00001D8902B
:10C838008D378E3700018F2B00D000018EBF02D0BC
:10C84800F5D700D000018D5100018B5D00018E519C
:10C8580000018C59D8A009D000018D5100018B5FCF
:10C8680000018E5100018C5B00D00001D8908E33FE
:10C878008D3300018F2FE6D700D0000190510001C1
:10C88800D8B406D000018B6D8C1FD8B08C2B00D08B
:10C898008BC08BF08CC08CF012001200EACF7EF0B7
:10C8A800E1CF7FF0E2CF80F0D9CF81F0DACF82F00C
:10C8B800F3CF83F0F4CF84F0F6CF85F0F7CF86F08E
:10C8C800F8CF87F0F5CF88F09EB09DA024D09E9039
:10C8D800F80E00018A6F000E896F00018A51CF6E31
:10C8E800D3B603D0010E5B6E00D05B5049EC5FF00D
:10C8F800010E0101AB6F0201592B0101C251D8B4DD
:10C9080004D00201164B172B06D0000E0201176F38
:10C91800000E166F00D088C0F5FF87C0F8FF86C0EC
:10C92800F7FF85C0F6FF84C0F4FF83C0F3FF82C021
:10C93800DAFF81C0D9FF80C0E2FF7FC0E1FF7EC07F
:10C94800EAFF7DC0E9FF7CC0FBFF7BC0FAFF110056
:10C9580099C08BF09AC08CF0000E00018D6F99C0C1
:10C968008EF09AC08FF0080E0001906F080E00013B
:10C97800916F94EC6BF00009D8B4120099C08BF059
:10C988009AC08CF0080E00018D6F99C08EF09AC085
:10C998008FF0100E0001906F080E0001916F94EC5B
:10C9A8006BF00009D8B41200000E00019B6F070E4F
:10C9B80000019B6501D01DD021EC76F0F40E00013A
:10C9C8009B2500018B6F00018C6B030E8C230001EB
:10C9D8009B5100019925D96E0001000E00019A2192
:10C9E800DA6EDF5000018D6FC1EC70F000019B2BF7
:10C9F800DED799C08BF09AC08CF042EC68F0120038
:10CA08001200000E00019B6F000E9A6F00019BBF81
:10CA18000AD000019B514AE1FA0E00019A5DD8B094
:10CA280045D001D043D096C08FF097C090F0000158
:10CA38009A5108EC5AF00009D8B433D09AC098F04B
:10CA48009BC099F0D890000198379937010E0001E2
:10CA58009827000E9923C90E00019825D96E080E53
:10CA680000019921DA6EDF501F0B1F0AD8B419D0C4
:10CA78009AC098F09BC099F0D890000198379937E0
:10CA8800010E00019827000E9923C90E0001982570
:10CA9800D96E080E00019921DA6EDF38E832070BEB
:10CAA800120000019A4B9B2BB1D700D0000E120048
:10CAB800120000019B6FFA0E00019B613ED09BC0E3
:10CAC8009CF000019D6B9CC099F09DC09AF00001FC
:10CAD800D89099379A370001D89099379A3799C0E2
:10CAE8009CF09AC09DF0000E00019E6F030E00019D
:10CAF8009E6502D01200120000019E51010DF350F4
:10CB080000019725D96EF45000019821DA6E0001D2
:10CB18009E5100019C2500018D6F000E00019D2192
:10CB280000018E6FC9EC75F0DF6E00019E2B030EBD
:10CB380000019E65E1D712001200D10E0001916F2D
:10CB4800010E0001926F97C093F098C094F0040E04
:10CB58000001956F2BEC70F012001200000E00011E
:10CB68009D6F000E9C6F000E00019B6F000E9A6F68
:10CB7800000E00019E6F090E00019E6501D02ED0A7
:10CB880042EC76F000D0DFEC75F00009D8A4FBD7B2
:10CB9800C45000019D6F9C6BC35000019C13040E90
:10CBA80000019E6514D0100E00019D5DD8A006D02E
:10CBB800000E00019D6F000E9C6F00D000019C517B
:10CBC80000019A2700019D5100019B2300D00A0E05
:10CBD800E82EFED700D000019E2BCDD79AC091F049
:10CBE8009BC092F0000E0001946F050E936F12EC3B
:10CBF8006BF091C09AF092C09BF09AC098F09BC0DD
:10CC080099F01200120000019F6F030E0001936F4C
:10CC180000019F51060D050EF326000EF422BD0EED
:10CC2800F324D96E0A0EF420DA6EDF5091EC48F046
:10CC380000019E6F00019F51060D040EF326000EA1
:10CC4800F422BD0EF324D96E0A0EF420DA6EDF3812
:10CC58000F0BAEEC72F000019E5DD8B012D000014F
:10CC68009F51060D040EF326000EF422BD0EF32488
:10CC7800D96E0A0EF420DA6EDF380F0BAEEC72F0C4
:10CC88001200030E0001936F00019F51060D050E5F
:10CC9800F326000EF422BD0EF324D96E0A0EF420FA
:10CCA800DA6EDF5091EC48F01200120099C091F052
:10CCB8009AC092F0D10E0001936F010E0001946F9B
:10CCC800040E0001956F5DEC6FF00009D8A4120006
:10CCD800000E00019D6F3E0E00019D6502D01200FE
:10CCE800120000019D51060DBD0EF3240001916F45
:10CCF8000A0EF4200001926F99C093F09AC094F044
:10CD0800040E0001956F5DEC6FF00009D8B418D0DF
:10CD18009BC09CF000019D51060D040EF326000EE9
:10CD2800F422BD0EF324D96E0A0EF420DA6E000147
:10CD38009C3BDF5000019C190F0B9C19DF6E120001
:10CD480000019D2B3E0E00019D65CBD712001200FD
:10CD5800120001010D6F01010D512EEC4DF0000E76
:10CD68000001C66F000E0001CF6F010E0201DE6FD9
:10CD78007F0E02010B6FF00E0A6F7F0E0001AB6F82
:10CD8800F00EAA6F000E456E100E446E070E0001DD
:10CD9800996F9869040E00019A6F010E06EC46F02F
:10CDA800010E0001AA250001AA6FF80E0001AB21AF
:10CDB8000001AB6F4406D8A04506070E0101A36F1A
:10CDC800A269090E65EC74F0000E0001986F1E0E42
:10CDD800976F3EEC63F05A0E000197250001A66F8D
:10CDE800000E000198210001A76F010E0001A86F35
:10CDF8000E0E86EC6AF01200000E0001996F000E0C
:10CE0800986F000120EE03F09151D9269251DA2251
:10CE1800DF500001936F91C0D9FF92C0DAFFDF5055
:10CE28000001946F956B000120EE01F09151D92615
:10CE38009251DA22DF500001966F000196510001ED
:10CE48009427000E9523000120EE02F09151D92677
:10CE58009251DA22DF500001976F000197510001CB
:10CE68009427000E95230001935100019425000199
:10CE78008B6F0001000E0001952100018C6F000EE0
:10CE880000018E6FC90E8D6FF8EC63F08BC098F0BF
:10CE98008CC099F00001985112001200100E010187
:10CEA8002A6FA3C096F0A4C097F0260E0001986FD1
:10CEB800010E0001996F4CEC41F01D0E0101006F4D
:10CEC8002E0E0101016F460E0101026F480E01018D
:10CED800036F430E0101046F010E0001916F000EF4
:10CEE800926F020E936F000E946F0B0E0001956FF8
:10CEF800000E966F000E976F000E986F050E0001DA
:10CF0800996F010E00019A6FF4EC67F0A3C099F0D5
:10CF1800A4C09AF0000E00019B6F010E00019C6FE7
:10CF28002AC19DF0000E00019E6F010E00019F6F47
:10CF3800000E0001A06FDFEC46F012001200100E88
:10CF480001012A6FA3C096F0A4C097F0260E000135
:10CF5800986F010E0001996F4CEC41F01D0E010114
:10CF6800006F2A0E0101016F410E0101026F530E7D
:10CF78000101036F460E0101046F010E0001916F5C
:10CF8800000E926F020E936F000E946F0B0E00014D
:10CF9800956F000E966F000E976F000E986F050E36
:10CFA8000001996F010E00019A6FF4EC67F0A3C0BD
:10CFB80099F0A4C09AF0000E00019B6F010E0001C9
:10CFC8009C6F2AC19DF0000E00019E6F010E0001AA
:10CFD8009F6F000E0001A06FDFEC46F012001200F8
:10CFE800000E00019B6F000E9C6F000E9D6F000EDF
:10CFF8009E6F899E030EFEEC73F000019351FEECC8
:10D0080073F000019251FEEC73F000019151FEECB7
:10D0180073F0000E00019B6F000E9C6F000E9D6F59
:10D02800000E9E6F17D000019B5100019925D96E03
:10D0380000019C5100019A21DA6E04EC75F00001A0
:10D048008B51DF6E010E00019B27000E9C239D2350
:10D058009E2300D00001955100019B5D000196516F
:10D0680000019C590001975100019D5900019851F8
:10D0780000019E59D8A0D7D7898E1200000E000152
:10D088008E6F070E00018E6501D019D000018E51F8
:10D09800010DF35000018B25D96EF45000018C214D
:10D0A800DA6E00018E51010DB90EF324E16E020E05
:10D0B800F420E26EDFCFE7FF00018E2BE2D7000EEF
:10D0C80000018E6F070E00018E6502D0120012005B
:10D0D80000018E51010DF35000018B25D96EF450DB
:10D0E80000018C21DA6EDE28D8A409D0070E0001D1
:10D0F8008E19D8A408D0000E0101BB6F04D0010E10
:10D108000101BB6F120000018E2B070E00018E6516
:10D11800DFD712001200000E0001986F3FD0000107
:10D128008D5198C092F00001936B00019227000E78
:10D1380093238BC094F08CC095F0000192510001AC
:10D148009427000193510001952394C0F6FF95C0E0
:10D15800F7FF000EF86E0001905198C096F000019C
:10D16800976B00019627000E972300019651000146
:10D178008E25D96E0001975100018F21DA6E0E0EAF
:10D18800F76403D00800F55005D0F6CFE9FFF7CFD4
:10D19800EAFFEF50DF6E0001982B00D0000191519B
:10D1A8000001985DD8A0BBD7120066EC75F00001AD
:10D1B8008F6F0001CC51D8A41ED000018F29D8A4AC
:10D1C80003D08FC0CDF008D000018F290001CD6FAA
:10D1D8000001CD050101C46F400E0001CD650BD0E3
:10D1E800400E0001CD6F0001CD050101C46F010E95
:10D1F8000201526F00D00001CD510001CC5DD8B0C2
:10D208000ED00001CC51010D800EF324D96E040E0E
:10D21800F420DA6E8FC0DFFF0001CC2B00D00001B4
:10D22800CD510001CC19D8A412000001CD51D8B4B9
:10D238001200010E0101AE6F12001200A9EC75F088
:10D24800899E020EFEEC73F000019251FEEC73F021
:10D2580000019151FEEC73F000019051FEEC73F067
:10D26800000E00019A6F000E9B6F000E9C6F000E5F
:10D278009D6F15D000019A5100019425D96E0001C7
:10D288009B5100019521DA6EDF50FEEC73F0010E20
:10D2980000019A27000E9B239C239D2300D00001A8
:10D2A800965100019A5D0001975100019B590001B8
:10D2B800985100019C590001995100019D59D8A02D
:10D2C800D9D7898E85EC75F012001200040E000182
:10D2D80099250001916F000E00019A210001926FBB
:10D2E8009BC093F09CC094F0040E0001956F2BEC4A
:10D2F80070F0B9EC75F08DC0D9FF8EC0DAFF9DC013
:10D30800E1FF9EC0E2FFDFCFE7FF99C091F09AC02E
:10D3180092F0D10E0001936F010E0001946F040E7C
:10D328000001956F5DEC6FF00009D8A412D099C088
:10D3380091F09AC092F0D50E0001936F010E000192
:10D34800946F040E0001956F5DEC6FF00009D8B47E
:10D3580002D0010E1200000E120012000001966F9A
:10D36800FA0E00019661120096C097F00001986BC2
:10D3780097C094F098C095F00001D89094379537ED
:10D388000001D8909437953794C097F095C098F0DD
:10D39800000E0001996F030E0001996502D012007A
:10D3A8001200000199510001972500018F6F000EAE
:10D3B800000198210001906F00019951010DF3506F
:10D3C80000019225D96EF45000019321DA6EDF50E6
:10D3D8000001916FB1EC74F00001992B030E00016C
:10D3E8009965DFD71200120012002F6E2FC05DF072
:10D3F8005DC001F0026A000E046E070E036E53EC66
:10D408006BF001500101B66F880E5D6403D0280EE1
:10D418005D6E1200000E106E000E116E3F0E126E41
:10D42800DA0E2B6EFF0E2C6E5D502D6E2E6A2B5071
:10D438002D262C502E222D1E2E1E2D4A2E2A640EED
:10D448002D24096E000E2E200A6ED2EC71F009C050
:10D458000DF00AC00EF00BC00FF00AEC5BF00DC027
:10D468001CF00EC01DF00FC01EF089EC5AF01C50C5
:10D47800280F5D6E12001200000E0001C86F3E0EEC
:10D48800000193611200200EB3EC54F0800EB3EC4F
:10D4980054F000019351020F71EC75F04C5071EC8F
:10D4A80075F0000E0001946F21D000019451010D18
:10D4B800F35000019125D96EF45000019221DA6EE3
:10D4C800DF500001C8190001C86F00019451010D17
:10D4D800F35000019125D96EF45000019221DA6EC3
:10D4E800DF5071EC75F00001942B00D000019351CE
:10D4F8000001945DD8A0D9D70001C85171EC75F02E
:10D50800120012000001A96F0001A6291DE1000107
:10D51800A729D8A419D00001A951020D000EF3249F
:10D52800D96E030EF420DA6EFF0EDE6EFF0EDD6E8E
:10D538000001A951010D590EF324D96E030EF420F0
:10D54800DA6EA8C0DFFF1200010E0001A625010156
:10D558000B6F000E0001A72101010C6F0001A951FA
:10D56800020D000EF324D96E030EF420DA6E0BC1FF
:10D57800DEFF0CC1DDFF0001A951010D590EF32496
:10D58800D96E030EF420DA6EA8C0DFFF1200120075
:10D59800000E096E000E0A6E000E0B6E000E0C6E69
:10D5A8000550061007100810D8B42FD0010E0D6EC4
:10D5B80007D0D89005360636073608360D2A00D02B
:10D5C80008BE02D0F6D700D0D89009360A360B36F6
:10D5D8000C360550015C0650025807500358085095
:10D5E8000458D8A00AD00550015E0650025A0750C8
:10D5F800035A0850045A098000D0D89008320732DC
:10D60800063205320D2EE0D700D009C001F00AC05D
:10D6180002F00BC003F00CC004F01200000E000171
:10D62800976F000E966F0001935100019411D8B4C2
:10D6380031D0010E0001956F07D00001D8909337C3
:10D6480094370001952B00D0000194BF02D0F5D784
:10D6580000D00001D8909637973700019351000108
:10D66800915D0001945100019259D8A00BD000019E
:10D6780093510001915F000194510001925B0001F8
:10D68800968100D00001D890943393330001952FF0
:10D69800E0D700D096C091F097C092F01200000E2B
:10D6A800066E02AE07D0016C021ED8B0022A010E27
:10D6B800066E00D004AE05D0036C041ED8B0042A50
:10D6C80000D003500410D8B41DD0010E056E05D04B
:10D6D800D89003360436052A00D004BE02D0F8D705
:10D6E80000D00350015C04500258D8A005D0035064
:10D6F800015E0450025A00D0D89004320332052E3D
:10D70800F0D700D00650D8B405D0016C021ED8B0AE
:10D71800022A00D001C001F002C002F0120012007B
:10D72800000E0001986F31D00001905198C092F01E
:10D738000001936B00019227000E93230001925180
:10D7480000018E25D96E0001935100018F21DA6EF8
:10D7580000018D5198C095F00001966B0001952746
:10D76800000E96230001955100018B25E16E000102
:10D77800965100018C21E26EDE50E618D8B402D032
:10D78800000E12000001982B00D0000191510001F9
:10D79800985DD8A0C9D7010E12001200000E000132
:10D7A8009C6F000E9B6F00019CBF0AD000019C512A
:10D7B80030E13F0E00019B5DD8B02BD001D029D0BD
:10D7C8009BC08BF09CC08CF0000E00018E6F060E83
:10D7D8008D6F2AEC72F0BD0E00018B250001916F50
:10D7E8000A0E00018C210001926F99C093F09AC033
:10D7F80094F0040E0001956F5DEC6FF00009D8B449
:10D8080003D000019B51120000019B4B9C2BCBD7EE
:10D8180000D0FF0E12001200000E0001996F010ED9
:10D8280000019A6FF00E00019B6F010E00019C6FC2
:10D838006CEC5EF0000E0101146F470E00018B6F57
:10D84800FE0E00018C6F000E00018D6F000E0001AE
:10D858008E6F010E00018F6F150E0001906F240E60
:10D868000001916F8FEC68F00101BB51300F01018D
:10D87800396F000E00018F6F010E0001906F3A0E94
:10D888000001916F000E0001926F020E03EC5DF033
:10D898001200000E0001936F000E946F000E956F3A
:10D8A800000E966F00D000018BA111D000018F519E
:10D8B8000001932700019051000194230001915128
:10D8C80000019523000192510001962300D0000128
:10D8D800D8908F379037913792370001D8908E3390
:10D8E8008D338C338B3300018B5100018C11000177
:10D8F8008D1100018E11D8A4D6D793C08BF094C097
:10D908008CF095C08DF096C08EF0120000018D51FC
:10D9180000018B250001936F00018E5100018C21BD
:10D928000001946F93C095F094C096F00001976B36
:10D93800986B10D000018F510001955F0001905144
:10D948000001965B000191510001975B0001925123
:10D958000001985B00018F510001955D0001905115
:10D968000001965900019151000197590001925107
:10D9780000019859D8B0DED795C08BF096C08CF0CE
:10D988001200060E01012A6FA3C096F0A4C097F0FA
:10D99800260E0001986F010E0001996F4CEC41F0C2
:10D9A8001F0E0101006F2A0E0101016F530E0101C4
:10D9B800026F460E0101036F540E0101046FE7C1A7
:10D9C80005F1A3C099F0A4C09AF0000E00019B6F66
:10D9D800010E00019C6F2AC19DF0000E00019E6F90
:10D9E800010E00019F6F000E0001A06FDFEC46F0F2
:10D9F80012001200000E0101006F470E00018B6F2C
:10DA0800FE0E00018C6F000E00018D6F000E0001EC
:10DA18008E6F010E00018F6F010E0001906F240EB2
:10DA28000001916F8FEC68F00101BB51300F0101CB
:10DA3800256FA3C099F0A4C09AF0000E00019B6F57
:10DA4800010E00019C6F260E00019D6F000E000163
:10DA58009E6FA5C09FF0000E0001A06FDFEC46F09E
:10DA6800120012003D0E01013D6F9FC000F1A0C0E1
:10DA780001F19FC08BF0A0C08CF0000E00018E6FEA
:10DA8800380E8D6F2AEC72F000018BC091F0000106
:10DA98008CC092F00001936B946B380E0001956F67
:10DAA800000E966F000E976F000E986F020E000121
:10DAB800996F010E00019A6FF4EC67F0000E0001F7
:10DAC800916F010E0001926F3DC193F040EC6AF036
:10DAD800120000018F6F00018F51020D000EF32418
:10DAE800D96E030EF420DA6EDE50DE10D8B418D0EA
:10DAF80000018F51020D000EF324D96E030EF4209D
:10DB0800DA6EDECF8DF0DDCF8EF0FF0E00018D25B1
:10DB180000018B6FFF0E00018E2100018C6F120037
:10DB280000018F51020D000EF324D96E030EF4206C
:10DB3800DA6EDECF8BF0DDCF8CF012001200000120
:10DB48009A5100019B11D8B42BD0010E00019C6F93
:10DB580007D00001D8909A379B3700019C2B00D042
:10DB680000019BBF02D0F5D700D000019A510001F7
:10DB7800985D00019B5100019959D8A009D0000176
:10DB88009A510001985F00019B510001995B00D0F8
:10DB98000001D8909B339A3300019C2FE6D700D020
:10DBA80098C098F099C099F012002FD00101C405CF
:10DBB800D8A405D0F7EC74F00201506F00D0000132
:10DBC800CD510001CC5DD8B00FD00001CC51010D72
:10DBD800800EF324D96E040EF420DA6E66EC75F02C
:10DBE800DF6E0001CC2B00D00001CD510001CC1913
:10DBF800D8A408D00001CD51D8B404D0010E010139
:10DC0800AE6F00D00101C40700D00101C451D8A4EF
:10DC1800CDD7120014D0D00E00018D6FCA0EE82E99
:10DC2800FED78D2FFCD7F60E00018B2500018B6FD8
:10DC3800FF0E00018C2100018C6F040000D0000150
:10DC48008C51E9E10B0E00018B5DD8A010D0E3D711
:10DC58000ED0150E00018D6FC60EE82EFED78D2F43
:10DC6800FCD700D000018B07D8A08C070400000166
:10DC78008B5100018C11D8A4ECD7120000018D6FD4
:10DC88003F0EC716000EC66E00018D51C612000168
:10DC98008C51C71205D0C78C16D0C78CC68813D034
:10DCA80000018B51000AD8B4F6D7020AD8B4F5D7C8
:10DCB800010AD8B4F3D707D09486928A0DD09486F7
:10DCC8000BD0949609D000018D51040AD8B4F4D72A
:10DCD800010AD8B4F4D7F5D79488949AC68A120062
:10DCE800000E0001996F5F50B5EC73F0040E00014F
:10DCF800976F010E6CEC56F00001AA5100019725B0
:10DD08000101086F0001AB51000198210101096F61
:10DD18002DEC76F00101056F08C107F101010951E9
:10DD28000101066F050E0001A26F010E0001A36F2D
:10DD3800030E0001A46F010E0001A56FAAEC4BF0C1
:10DD480012002A8C02020CC177643277623238F8EA
:10DD58001180E938380700000507090CF200400077
:10DD6800D880FFFFFFFFFFFFFFFFFFFFFFFFFFFF61
:10DD7800FFFFFFFFFFFF010000006D4EC6411700C7
:10DD880001000800FF000101010102FF0101FFFF7E
:10DD9800FFFFFFFFFFFFFFFFFFFFFFFFFFFFFF008A
:10DDA8000101AB51D8A412000101AC51D8A4120052
:10DDB8000101AF51D8A412000101C251D8A4120028
:10DDC8000101BC51D8A412000101C851D8A4120005
:10DDD8000101D0510101D8A412000101C151D8A4F8
:10DDE80012000101A6510101D8A412000101E1515C
:10DDF800D8B4120001EC76F012001200000E076E83
:10DE0800000E066E03500410D8B421D0010E056E22
:10DE180005D0D89003360436052A00D004BE02D0B7
:10DE2800F8D700D0D890063607360350015C045066
:10DE38000258D8A006D00350015E0450025A06804A
:10DE480000D0D89004320332052EECD700D006C09B
:10DE580001F007C002F01200000E096E000E0A6EF3
:10DE6800000E0B6E000E0C6E00D001A009D00550FC
:10DE7800092606500A2207500B2208500C2200D00F
:10DE8800D8900536063607360836D890043203325D
:10DE9800023201320150021003100410D8A4E5D751
:10DEA80009C001F00AC002F00BC003F00CC004F076
:10DEB8001200000E0001986F1FD000019851010D4B
:10DEC800F35000019325D96EF45000019421DA6EC5
:10DED80000019851010DF35000019125E16EF450B5
:10DEE80000019221E26EDE50E618D8B402D0000E8E
:10DEF80012000001982B00D0000195510001985D97
:10DF0800D8A0DBD7010E120012001D0E0101006F10
:10DF1800250E0101016FF0C102F1F1C103F1F2C157
:10DF280004F1F3C105F1060E0101266FA3C099F0B3
:10DF3800A4C09AF0000E00019B6F010E00019C6FB7
:10DF480026C19DF0000E00019E6F010E00019F6F1B
:10DF5800000E0001A06FDFEC46F012001200000175
:10DF6800D3510001D219D8B41200020E0001D319FE
:10DF7800D8B412000001D251D8B40DD08B9E030E34
:10DF88000001A76FE80EA66F000E0001A86F130E20
:10DF980086EC6AF012008B9E030E0001A76FE80E54
:10DFA800A66F000E0001A86F130E86EC6AF012002F
:10DFB800120010C105F111C106F13C0E0101076FF5
:10DFC800010E0101086F010E0101096FF5EC3AF02D
:10DFD80010C199F011C19AF0D2EC6BF00001A76F53
:10DFE8000EC1A0F00FC1A1F0A7C0A2F012C1A3F00A
:10DFF800000E0001A46F010E0001A56F6CEC1EF06D
:10E00800120001010D6F000E0101E56F0DC1BDF198
:10E01800000E01010F6F3E0E0E6F0EC18BF00FC187
:10E028008CF0000E00018E6F1E0E8D6F2AEC72F0C0
:10E038008BC00EF18CC00FF10EC1A6F00FC1A7F076
:10E04800000E0001A86F070E86EC6AF01200000EA1
:10E058000001966F1BD000019651010DF35000018D
:10E068009125D96EF45000019221DA6E0001965183
:10E07800010DF35000019325E16EF4500001942145
:10E08800E26EDFCFE7FF0001962B00D0000195512B
:10E098000001965DD8A0DFD712000A500B10D8B443
:10E0A8001DD0010E0C6E05D0D8900A360B360C2AFE
:10E0B80000D00BBE02D0F8D700D00A50085C0B5035
:10E0C8000958D8A005D00A50085E0B50095A00D04C
:10E0D800D8900B320A320C2EF0D700D008C008F0C6
:10E0E80009C009F0120000018D6F8BC08CF000018F
:10E0F8008C3BC15000018C19CF0B8C19C16EC19695
:10E10800C190C192C1948DC08CF000018C478C479E
:10E11800C25000018C19830B8C19C26EC086C0884E
:10E12800C08AC050F80B0609C06EC08EC2801200AB
:10E13800000E00018C6F3E0E00018C6501D01AD0D4
:10E1480000018C51060D040EF326000EF422BD0EBC
:10E15800F324D96E0A0EF420DA6EDF500F0B00019B
:10E168008B6F020E00018B6102D0010E12000001BC
:10E178008C2BE1D7000E12001200000E00018E6FEA
:10E1880000018C51030B756E8BC074FF8DC073FF3B
:10E198007F9E7F9C7F84000EF2BE010E00018E6F71
:10E1A800F29E550E7E6EAA0E7E6E7F8200D07FB2E2
:10E1B800FED700018EB102D0F29E01D0F28E7F947C
:10E1C8001200000E00018B6F010E00018C6F7CECB9
:10E1D80051F00101266FA3C099F0A4C09AF0000E77
:10E1E80000019B6F010E00019C6F26C19DF0000E7F
:10E1F80000019E6F010E00019F6F000E0001A06FCD
:10E20800DFEC46F01200120093968A868986050E86
:10E2180000018F6F260EE82EFED78F2FFCD700D077
:10E228008996680E00018F6FE40EE82EFED78F2FB7
:10E23800FCD700D021EC76F0030E00018C6FFE0EA7
:10E248008B6FFF0E00018D6FC1EC70F012001D0E78
:10E258000101006FA5C001F1A6C002F1030E010182
:10E26800266FA3C099F0A4C09AF0000E00019B6F1E
:10E27800010E00019C6F26C19DF0000E00019E6FEB
:10E28800010E00019F6F010E0001A06FDFEC46F048
:10E2980012009AC091F09BC092F0D50E0001936FC6
:10E2A800010E0001946F040E0001956F2BEC70F0C5
:10E2B8000101D1690101D2690101D3690101D46960
:10E2C800D50E0001916F010E0001926F00EC67F00E
:10E2D800F7EC75F0120000018C6F00018C51000101
:10E2E800D8B409D00001D051D8B413D0899C8B94EC
:10E2F800898012000ED000018B510001D8B409D0DA
:10E308000001D151D8B405D0898C8B948990120022
:10E3180000D0899C8B848990120000018D6F0001C8
:10E328008D51020D000EF324D96E030EF420DA6E1F
:10E33800DE04DE10D8A40FD000018D51020D000EAE
:10E34800F324D96E030EF420DA6E000EDE6E000E92
:10E35800DD6E010E1200000E1200120000018B6F1C
:10E3680000018B510001D8A409D0D59E000ED76EAC
:10E37800000ED66E850ED56ED58E1200030E0001E6
:10E388008B19D8A41200000EB36E000EB26E8C0E5C
:10E39800B16EA292A192B18012001200000E0C6E12
:10E3A8000AAE07D0096C0A1ED8B00A2A010E0C6EF4
:10E3B80000D009C001F00AC002F0036A8E0E046E94
:10E3C8000CC005F018EC62F001C009F002C00AF0B8
:10E3D80003C00BF01200120000018F6F00018F5173
:10E3E800D8090001906F90C08DF03C0E61EC72F07E
:10E3F800C80E0001906F90C08DF01A0E61EC72F09B
:10E40800000E0001906F90C08DF03E0E61EC72F02E
:10E418001200026E0250D8B409D00001D051D8B40D
:10E4280011D0899C8B94898012000CD00150D8B4EB
:10E4380009D00001D151D8B405D0898C8B9489902A
:10E44800120000D0899C8B848990120000018B51A6
:10E4580000018D03F3CF8FF0F4CF90F000018B51C2
:10E4680000018E03F3500001902700018C51000138
:10E478008D03F350000190278FC08BF090C08CF073
:10E488001200120001010D6F01010D510101D8B4F4
:10E4980004D0010E0201DE6F1200000E0201DE6FD1
:10E4A800010E0001A76F680EA66F010E0001A86F8C
:10E4B8000F0E86EC6AF01200120000018E6F89942C
:10E4C80000018E51FEEC73F0E40E00D000D0E82E6F
:10E4D800FCD700D000D000018D51FEEC73F0E40EA3
:10E4E80000D000D0E82EFCD700D000D089841200DC
:10E4F800000E0001976F010E6CEC56F00001971F9B
:10E508000001981F0001974B982B3E0E000197259C
:10E518000001A26F000E000198210001A36F1200F4
:10E528001200F20E02014117ABAC07D00201419173
:10E53800ABA003D00201418100D0ABA402D00201FC
:10E548004185ABA202D002014187AECF01F0015054
:10E558001200120000018B6F060E00018B6102D0C1
:10E56800000E03D000018B51FB0F00018C6F070ECA
:10E5780000018C6503D0070E00018C6F00018C51DF
:10E5880012001200000E0001906F000E0001916F42
:10E598000BD01C0E63EC73F00001916F00019151D8
:10E5A800020B0001906F00D0000190510001D8B417
:10E5B800F0D7120000018D6F000E00018C6F3A0E2B
:10E5C80000018D6108D02F0E00018D6504D0010E69
:10E5D80000018C6F00D08CC08BF000018B311200D1
:10E5E8001200000E0001A76F010EA66F010E0001B8
:10E5F800A86F020E86EC6AF0000E0001A76F010EEC
:10E60800A66F010E0001A86F030E86EC6AF01200D7
:10E61800A9EC75F0899E200EFEEC73F00001925172
:10E62800FEEC73F000019151FEEC73F00001905183
:10E63800FEEC73F0898E85EC75F0120093C08BF0B8
:10E6480094C08CF000018D6B8E0E00018E6F000E51
:10E6580000018F6FDCEC55F08BC093F08CC094F008
:10E668008DC095F0120012000101CE2B0101CE5190
:10E678005618D8A41200000E0101BC6F000E016EDE
:10E68800000E0DEC72F0000E0101CE6F000E566EFA
:10E698001200120000018B6F080E0001CB611200FE
:10E6A8000001CB51010D000EF324D96E020EF420A7
:10E6B800DA6E8BC0DFFF0001CB2B120012000001C5
:10E6C8008F6F899400018F51400900018F6F0001FD
:10E6D8008F51FEEC73F004EC75F08BC08EF08984DA
:10E6E80000018E511200120000018E6F8EC08BF057
:10E6F80000018C6B240E00018D6FF2EC56F08EC079
:10E708008BF000018C6B240E00018D6FF2EC56F03B
:10E71800120000018D6F00018D51020D000EF324CF
:10E72800D96E030EF420DA6EDE50DE10D8A402D0C3
:10E73800010E1200000E1200120001500302F3CF66
:10E7480005F0F4CF06F001500402F35006260250FB
:10E758000302F350062605C001F006C002F01200BD
:10E76800120000019A6F00019A510101E219D8B410
:10E77800120001D0120099C08FF000019A515DEC8F
:10E7880049F09AC0E2F11200020E0001976F95C09D
:10E7980098F096C099F0980E0001916F000E000154
:10E7A800926F97C093F040EC6AF01200000E0001DF
:10E7B8008E6F899E050EFEEC73F004EC75F0000177
:10E7C8008B5100018E6F898E00018E51120012004C
:10E7D800D08EF290F28CF196F1920F015A9F0F01B0
:10E7E8005A9D0F015A9B0F015A99F286F190F28EA9
:10E7F8009F9A120000018C6FC9CF8BF09E96C69E1F
:10E808008CC0C9FFC6BE120002D0120000D09EB64E
:10E818001200FDD71200120000018E6F0001BE51D8
:10E82800D8B41200000E00018C6F020E8B6F8EC0E0
:10E838008DF0F2EC56F012001200E5C2A6F0A60E1A
:10E848000001A26F000E0001A36F010E0001A46F6A
:10E85800010E0001A56FAAEC4BF012000001916FA8
:10E8680000019151010B0001D06F000191510E0B75
:10E878000001906F0001905185EC74F01200036E56
:10E88800000E026E3A0E036006D02F0E036403D00A
:10E89800010E026E00D002C001F001301200120019
:10E8A800026EC9CF01F09E96C69E02C0C9FFC6BEC1
:10E8B800120002D0120000D09EB61200FDD712003E
:10E8C800120000018B6F00018B51020D000EF32422
:10E8D800D96E030EF420DA6E000EDE6E000EDD6EC9
:10E8E8001200056E899405504009056E055054ECD8
:10E8F80074F05AEC75F001C004F0898404501200D9
:10E90800120000018F6F0201B351F00B00018F114B
:10E918000201B36FB3C28DF0340E61EC72F01200D5
:10E92800046E0001BE51D8B41200000E026E020E31
:10E93800016E04C003F08BEC5BF0120012000001C2
:10E948008F6F5C50D8A403D05150D8B41200000186
:10E958008F5110EC74F012001200010E02015C6F6E
:10E9680021EC76F08FC08BF090C08CF091C08DF0C8
:10E97800C1EC70F01200200EB3EC54F0400EB3EC72
:10E9880054F0A0EC75F0C6EC72F0600EB3EC54F0E5
:10E99800120000018B6F8BC0C6F000018B51000183
:10E9A800D8A41200010E0201DE6F1200120001014C
:10E9B800E929D8B403D00101E92B03D0000E0101E5
:10E9C800E96F0101E9511200120000018C51030B9B
:10E9D800756E8BC074FF7F9C7F9E7F8000F000F077
:10E9E8007350120012003C0E63EC73F00001906F3C
:10E9F800000190A102D0010E1200000E12001200B8
:10EA0800C9CF8DF09E96000EC96E00D09EA6FED787
:10EA1800C9CF8BF000018C6B120003500201D12783
:10EA280004500201D22305500201D32306500201EB
:10EA3800D423120000018F6F8FC04CF08FC0B6F244
:10EA4800B6C28DF03A0E61EC72F0120000018B6FC5
:10EA580000018B510001D8B402D09396120093861E
:10EA68001200120000018B6F00018B510001D8B415
:10EA780002D08A8412008A9412001200010E00014A
:10EA8800A76F2C0EA66F010E0001A86F140E86EC5E
:10EA98006AF01200056E5C50D8A403D05150D8B467
:10EAA8001200055094EC74F012001200C9CF03F064
:10EAB8009E96000EC96E00D09EA6FED7C9CF01F063
:10EAC800026A12008984899204EC75F08BC08EF07A
:10EAD800898200018E511200120000018D6F898415
:10EAE800899200018D51FEEC73F0898212000103B6
:10EAF80008FF0101FFFFFF010100C20100FFFFFF46
:10EB0800FF0000D0DAEC73F000018F6F00018FB1C5
:10EB1800F9D7120000D0DAEC73F000018F6F000112
:10EB28008FA3F9D7120001012A6F29C10DF1010144
:10EB38002A51D4EC25F01200070E00018F6F8FC008
:10EB48008DF01C0E61EC72F01200899E060EFEEC30
:10EB580073F0898E8EEC75F012008BC0CDF28CC0EC
:10EB6800CEF20201CF6BD06B1200C1EC75F08BC0F6
:10EB78008DF08CC08EF0120012005D0E00018B6FBC
:10EB8800000E00018C6F120012008DC08BF08EC039
:10EB98008CF0E9EC74F0120012000001916F000192
:10EBA8009151D8EC75F012000001906F000190515E
:10EBB8001EEC75F01200C2A202D0010E1200000E67
:10EBC80012001200070E00018C6F8B6912001200F0
:10EBD800280E75EC74F0F9EC69F0120000018B6FE7
:10EBE8008BC0E3F1120000018B6F8BC053F212004F
:10EBF800B4C08BF0B5C08CF01200D39ED18E030048
:10EC0800040012000201B3510E0B12001200B4C02E
:10EC180001F0B5C002F0120018C0B4F019C0B5F088
:10EC2800120019EC76F0120012000001C251120015
:10EC380012000001C6511200120000D07FB2FED7A8
:10EC480012000201D951120012000101E351120011
:10EC580012000001C751120012000001C751120032
:10EC680012000001C25112001200FA0E1200120026
:10EC7800000E120012004C5012001200C282120044
:0AEC88000202033C19001200120002
:10FE2E000001000A006400E8031027010010000022
:10FE3E0001001000010C0D0200656D446967696ECA
:10FE4E002C322E3230342C312E33312C322C312CAC
:10FE5E00302C303030303030303030302C003C45AB
:10FE6E003E5541525420426175647261746520455D
:10FE7E0072726F723C2F453E003C453E4E6F7420B1
:10FE8E00416C6C6F77656420746F2073656E643C93
:10FE9E002F453E004D6173743A203078253032582C
:10FEAE0025303258253032582530325820004944FA
:10FEBE003A20307825303258253032582530325895
:10FECE002530325820003C453E73746279207768A5
:10FEDE00696C6520696E743C2F453E003C453E477B
:10FEEE006F696E6720746F205458313C2F453E0069
:10FEFE003C453E5265637620583220444154413C85
:10FF0E002F453E003C453E526563762058322042D6
:10FF1E00433C2F453E003C543E4765745265667225
:10FF2E006573683C2F543E004669726D7761726549
:10FF3E003A2076322E32303420003031323334359E
:10FF4E0036373839414243444546003C453E5541DB
:10FF5E00525420464552523C2F453E003C453E559C
:10FF6E00415254204F4552523C2F453E003C543E88
:10FF7E00526566726573683C2F543E0047726F750A
:10FF8E00703A2030782530325820004E6F64653A32
:10FF9E00203078253032582000436F723A202530B9
:10FFAE00325820004261743A2025303458200053D4
:10FFBE00533A202530325820005070723A2025696D
:10FFCE002000547970653A20003C2F44413E003C9D
:10FFDE002F55413E005744525354003C44413E007D
:10FFEE003C55413E0025632000424F5200504F5277
:02FFFE00000001
:020000040020DA
:08000000FFFFFFFFFFFFFFFF00
:020000040030CA
:0E0000001D981B36FF8980FF0FC00FE00F40D8
:00000001FF
