:040000000EEF00F00F
:0400080004EF04F00D
:100018000CEF04F086EF03F0000E276E000E036E5F
:10002800000E046E020E056E000E066E010E076EBF
:10003800000E086E000E096E000E0A6E270E0B6E7B
:10004800000E0C6E19EC02F02704D8A42FD1FF0E75
:100058001F6E000E206E000E216E000E226E000E26
:10006800236E000E246E000E256E000E266E000E06
:10007800036EF80E046E000E056E000E066E040E7A
:10008800076E000E086E000E096E000E0A6E1F0E37
:100098000B6E000E0C6E19EC02F0040E036EF80ED7
:1000A800046E000E056E000E066E040E076E000E3E
:1000B800086E000E096E000E0A6E230E0B6E000EFF
:1000C8000C6E19EC02F0000E306E000E286E080E51
:1000D800296E000E2A6E000E2B6E2B5067E12A0443
:1000E800D8B064D001D062D03050010D1B0EF3247B
:1000F800D96E000EF420DA6E000E2824036EF80E76
:100108002920046EFF0E2A20056EFF0E2B20066E96
:1001180036EC03F0DF6E3050010D1B0EF324D96E60
:10012800000EF420DA6EDF50166E16C017F0186A4B
:10013800196A1A6A1750235E1850245A1950255AFA
:100148001A50265A020E306421D030C016F0FD0E27
:100158001626030E1616D8A419D0FD0E166EFF0E1D
:10016800176E3050010D1650F3261750F4221B0E4F
:10017800F324D96E000EF420DA6EDE501F1ADE501A
:10018800201ADE50211ADD50221A00D0302A040E1F
:100198003018D8A402D0000E306E0400010E2826B4
:1001A800000E29222A222B2298D700D01F50201077
:1001B80021102210D8A47AD02350241025102610FC
:1001C800D8A474D0000E016E080E026E000E036EE5
:1001D800000E046EFF0E056EFF0E066E000E076E13
:1001E800000E086EDEEC01F0000E2C6E080E2D6E6F
:1001F800000E2E6E000E2F6E2F5055E12E04D8B033
:1002080052D001D050D0000E2C24036EF80E2D20B1
:10021800046EFF0E2E20056EFF0E2F20066E040EB4
:10022800076E000E086E000E096E000E0A6E1B0E99
:100238000B6E000E0C6E19EC02F02CC001F02DC0F4
:1002480002F02EC003F02FC004F0000E066E040E5C
:10025800056E1B0E076E000E086E5DEC01F00400C3
:100268002CC001F02DC002F02EC003F02FC004F006
:10027800290E056E000E066E000E076E000E086E43
:1002880053EC02F00150021003100410D8A403D05C
:100298006EEC03F000D0040E2C26000E2D222E2228
:1002A8002F22AAD700D0010E120000D0000E120093
:1002B8001200000E0D6E000E0E6E01C012F002C08C
:1002C80013F003C014F004C015F0060E096ED890A0
:1002D8000432033202320132092EF9D7060ED890C1
:1002E8000136023603360436E82EF9D7400E0126C9
:1002F800000E0222032204221250000801240D6E6F
:1003080054D012C00FF013C010F014C011F01FD059
:1003180007C0D9FF08C0DAFFDF500FC0F6FF10C0D2
:10032800F7FF11C0F8FFF56E0C00074A082A010E06
:100338000F26000E1022000E11220506D8A0060670
:1003480005500610D8B407D002D005D000D00D064D
:100358000D28D8A4DDD70FC00AF010C00BF011C0CB
:100368000CF012C00FF013C010F014C011F07F8E03
:100378007F9C7F84F2AE03D0F29E010E0E6E550E66
:100388007E6EAA0E7E6E7F827F940E50D8B403D004
:10039800F28E000E0E6E400E0D6E0A50126E0B504D
:1003A800136E0C50146E156A00D005500610D8A4B0
:1003B800A8D71200000E096E01C00AF002C00BF0A7
:1003C80003C00CF004C00DF025D00CC0F8FF0BC022
:1003D800F7FF0AC0F6FF7F8E7F9C7F847F88F2AE8E
:1003E80003D0F29E010E096E550E7E6EAA0E7E6E29
:1003F8007F820950D8B402D0F28E00D0400E0A2471
:100408000A6E000E0B200B6E000E0C200C6E000EF8
:100418000D200D6E05500A5C06500B5807500C58FD
:1004280008500D58D8A0D1D71200000E0D6E000E3E
:100438000E6E000E0F6E000E106E899E030E5DECA0
:1004480003F005505DEC03F004505DEC03F003503D
:100458005DEC03F0000E0D6E000E0E6E000E0F6EBA
:10046800000E106E10D00D500B24D96E0E500C20BB
:10047800DA6E7BEC03F0DF6E010E0D26000E0E2205
:100488000F22102200D007500D5C08500E5809505A
:100498000F580A501058D8A0E6D7898E1200055078
:1004A800061007100810D8B429D0010E096E07D01D
:1004B800D8900536063607360836092A00D008BE11
:1004C80002D0F6D700D00550015C065002580750FC
:1004D800035808500458D8A009D00550015E0650AA
:1004E800025A0750035A0850045A00D0D8900832CC
:1004F800073206320532092EE6D700D001C001F0D6
:1005080002C002F003C003F004C004F01200036E3E
:100518003F0EC716000EC66E0350C6120250C71211
:1005280005D0C78C15D0C78CC68812D00150000AD8
:10053800D8B4F7D7020AD8B4F6D7010AD8B4F4D792
:1005480007D09486928A0CD094860AD0949608D0C4
:100558000350040AD8B4F5D7010AD8B4F5D7F6D7AA
:100568009488949AC68A1200E3EC02F0000E016E99
:10057800800E026E020E8BEC02F093968A96010EA4
:10058800346E10EC00F000D04CEC03F00009D8A455
:1005980010D093968A86000E026EC80E016E0DEC7E
:1005A80003F09386000E026EC80E016E0DEC03F088
:1005B800F0D79386938600EF04F00EEF00F07C0EE0
:1005C800D36E9B8CD2909B8E200E926EBD0E936E36
:1005D800930E946E860E806E070E816E040E826EE8
:1005E800100E0F015D6F000E0F015C6FF19E0F0181
:1005F8005B810F015B930F015B950F015B970F0107
:100608005B990F015B9B0F015B9D0F015B9FD18085
:1006180012000FD0D00E036ECA0EE82EFED7032E9E
:10062800FCD7F60E0124016EFF0E0220026E0400B4
:1006380000D00250EFE10B0E015CD8A00ED0EAD733
:100648000CD0150E036EC60EE82EFED7032EFCD76F
:1006580000D00106D8A00206040001500210D8A458
:10066800F0D71200000E076E899E030E5DEC03F0B2
:1006780005505DEC03F004505DEC03F003505DECB5
:1006880003F07BEC03F0076E898E0750120012000E
:10069800000EF86E080EF76E000EF66E0800F5CF25
:1006A80001F00128D8A402D0000E1200010E120099
:1006B8001200026EC9CF01F09E96C69E02C0C9FF05
:1006C800C6BE120002D0120000D09EB61200FDD79E
:1006D800120012003450D8B404D09386000E346E41
:1006E800120093968A86010E346E12001200C9CF4A
:1006F80001F09E96000EC96E00D09EA6FED7C95086
:1007080012001200346A336A326A316A000EF86ED7
:060718000001B8EF02F041
:04080000EBEF04F026
:10080800FACF1CF0FBCF1DF0E9CF1EF0B0EF60F07F
:10081800D8CF8FF0E8CF90F0E0CF91F0FACF92F0F8
:10082800FBCF93F0E9CF94F0EACF95F0E1CF96F0C3
:10083800E2CF97F0D9CF98F0DACF99F0F3CF9AF0CA
:10084800F4CF9BF0F6CF9CF0F7CF9DF0F8CF9EF059
:10085800F5CF9FF090D0000E0001A26FF2A066D0F5
:1008680081CFA0F000F0F2900001A0A95BD0600E4B
:100878000101BE19D8A44BD00001D051D8A43AD058
:100888000001CB51D8A436D0B9EC70F00101F56F56
:10089800040E00016C6F010E78EC55F06CC077F017
:1008A8006DC078F094EC70F0D3B606D001D004D0C7
:1008B800010E0101D36F00D06BEC70F08FEC70F07B
:1008C8000001A351000160270001A4510001612328
:1008D800000160C062F0000161C063F00001646B58
:1008E800656BFEEC6EF0010E0101BB6F010E00019D
:1008F800D06F18D00001CB51D8A414D001D012D099
:10090800BDEC70F000D0010E0101BC6F0BD0800E61
:100918000101BE19D8A406D0010E0101BD6F5DEC1E
:100928006EF000D0010E0001A26F00D09EBA9DAA01
:1009380026D038EC6DF00001A16F9E9AABA206D0CC
:100948004F0EAB16AC9ACF0E9D1615D0ABB413D084
:1009580001D011D0A7B20FD001D00DD0000E0001E8
:10096800616F010E606FA1C062F024EC52F0640E5A
:100978000101D16F00D0010E0001A26F00D000016B
:10098800A2510001D8A467D79FC0F5FF9EC0F8FF09
:100998009DC0F7FF9CC0F6FF9BC0F4FF9AC0F3FF11
:1009A80099C0DAFF98C0D9FF97C0E2FF96C0E1FF6F
:1009B80095C0EAFF94C0E9FF93C0FBFF92C0FAFF1D
:1009C80091C0E0FF90C0E8FF8FC0D8FF1000FEEF95
:1009D80055F0000ED0B6010E0101F86F000ED0B22E
:1009E800010E0201FE6F000ED0B0010E0201FD6F74
:1009F800000E0001D16F49EC63F0030E0101016F95
:100A0800E80E006F3EEC69F0030E0101016FF00E75
:100A1800006F78EC6FF00101D76F0101D729D8B4C6
:100A280004D0010E0101C56F00D008EC57F006D0C4
:100A38008B9E938685EC70F008EC57F00DC1ABF0F7
:100A48000EC1ACF000D00001ACBFF2D73E0E0001E1
:100A5800AB5D080E0001AC59D8A0EAD7DDEC6BF00D
:100A6800360E0101016FB00E006F3EEC69F0010116
:100A7800C5510101D8A40ED00001ACBF0BD0870E20
:100A88000001AB5D0B0E0001AC59D8A003D02EECD1
:100A98005EF000D0000E0101006F000E0101016F31
:100AA800020E72EC69F0040021EC39F00400EDC28A
:100AB80000F10101016B30EC70F01FEC6FF0010EDA
:100AC8000101C16F0101F8510101D8A413D0E30E4F
:100AD8000101126FFF0E0101136FFDEC31F0000EE2
:100AE8000101016F040E006F060E0101026F91EC07
:100AF80051F02CD00201FE510201D8B418D00201E5
:100B0800FD510201D8A413D0F70E0101126FFF0E98
:100B18000101136FFDEC31F0000E0101016F040EAD
:100B2800006F070E0101026F91EC51F00FD0020126
:100B3800FE510201D8A40AD0FB0E0101126FFF0E6C
:100B48000101136FFDEC31F0D08200D0000E55EC9E
:100B580062F0D00E0101126FFF0E0101136FFDEC60
:100B680031F0D40E0101126FFE0E0101136FFDEC7E
:100B780031F0F30E0101126FFF0E0101136F300EF9
:100B88000101C9250101146F0101156B000E152320
:100B9800FDEC31F0B20E0101126FFF0E0101136F6F
:100BA800ABC014F1ACC015F1FDEC31F02E0E010113
:100BB800126FFF0E0101136FEAC214F10101156BE8
:100BC800EBC216F10101176BECC218F10101196BA8
:100BD800EDC21AF101011B6BFDEC31F0140E01019D
:100BE800126FFF0E0101136FFCC114F10101156BA7
:100BF800FDC116F10101176BFEC118F10101196B56
:100C0800FFC11AF101011B6BFDEC31F0990E0101D6
:100C1800126FFF0E0101136FB1EC70F00201F66F55
:100C28000201F6510101146F156BFDEC31F07B0EDA
:100C38000101126FFF0E0101136FCCC014F1010105
:100C4800156BFDEC31F0460E0101126FFF0E01012C
:100C5800136FFDEC31F0A70E0101126FFF0E0101B9
:100C6800136FD7C114F10101156BFDEC31F0C70EFC
:100C78000101126FFF0E0101136F81BA02D0010E3C
:100C880001D0000E0101146F156BFDEC31F0EA0E76
:100C980001010F6F020E0101106F22EC6CF07DEC68
:100CA8003AF0B2EC6DF0000E0101276F1E0E266FB0
:100CB800010E0101286F040EE1EC65F0000E04013D
:100CC800FA6F000E01010C6F000E0D6F020E0E6F11
:100CD800000E0F6F010E0101106F000E116F000E54
:100CE800126F000E136FFA0E0101146F040E01014A
:100CF800156F98EC63F00401FA05D8A41ED0000E15
:100D08000401FA6F000E0101056F000E066F020E56
:100D1800076F000E086FFA0E0101096F040E01013A
:100D28000A6F010E01010B6F000E0C6F000E0D6FA4
:100D3800000E0E6F7DEC64F000D0EA0E0101066F24
:100D4800020E0101076FE20E0101086F010E010199
:100D5800096F040E01010A6F07EC6AF00009D8B4A4
:100D680003D00400FED700D0D1EC6FF0000E0101D3
:100D7800C16F00D00101DA510101D8A46DEF0CF068
:100D8800000EA9EC6CF00101E0510101D8B402D0C9
:100D9800FF0000D0000E0101E16F04000101BA510B
:100DA800D8B485D00101BE51D8B41CD052EC6DF036
:100DB80017C142F218C143F2020143510CE11F0E60
:100DC8000201425DD8B007D0000E01014A6F010E42
:100DD800E9EC19F007D0000E01014A6F000EE9ECAA
:100DE80019F000D00101F9510101D8B426D0FC0E48
:100DF80001010B6F010E01010C6FEB0E01010D6F6C
:100E0800040E01010E6FB0EC3CF00201F66F1F0EEC
:100E18000201F66112D0FC0E0101186F010E0101EA
:100E2800196F000E01011A6F9AEC68F00009D8B426
:100E380004D0000E0101F96F00D0000E0101BA6F55
:100E48003E0E61EC34F0EA0E0101006F010E010163
:100E5800016F00EC49F069EC54F0A1EC70F0000966
:100E6800D8B425D00101F7510101D8B420D0010E22
:100E78000101C16FBD0E0101126FFF0E0101136F59
:100E880038EC70F002C1D9FF03C1DAFFDF5002016C
:100E9800F66F0201F6510101146F156BFDEC31F08C
:100EA800000E0101C16F000E0101F76F00D052EC76
:100EB8006DF017C142F218C143F20201435105E136
:100EC800070E0201425DD8A02AD00201435127E152
:100ED8001F0E0201425DD8B022D00101D551D8B40D
:100EE8001ED0F10E01010E6F040E01010F6FC60E28
:100EF8000101106F030E0101116FBFC112F1000E45
:100F08000101136F010E0101146F000E0101156F2D
:100F180071EC40F000D0000E0101D56F00D0010146
:100F2800BC51D8B409D0000E0101BC6F200ED3EC1F
:100F38004FF0600ED3EC4FF00001D051D8B43AD046
:100F480080EC70F000C117F101C118F1040E010125
:100F58000C6F010EF2EC54F00CC119F10DC11AF12D
:100F680065EC70F0010100C11BF1010101C11CF128
:100F780001011D6B1E6B5EEC5BF017C1EFF418C12D
:100F8800F0F44B0E0401EF5D010E0401F059D8A0F6
:100F980011D00101BB51D8B40AD00001CB51D8A45B
:100FA80006D09BEC65F0000E0101BB6F00D0D6ECBB
:100FB80069F000D04B0E01010E6F030E01010F6F97
:100FC800ED0E0101106F010E0101116F9DEC3EF055
:100FD8000009D8B452D04B0E01012C6F030E010149
:100FE8002D6FEDC12EF1D3C12FF1F5C130F124ECF5
:100FF8002CF00009D8B43AD04E0E01010E6F030E42
:1010080001010F6F9B0E0101106F020E0101116F9C
:10101800F80E0101126F040E0101136FC5EC64F0A4
:101028000009D8B423D00B0E0401F76F9B0E010101
:101038008A6F020E01018B6F0401F751010D4B0EEF
:10104800F32401018C6F030EF42001018D6F04015C
:10105800F75100080101ED2501018E6FF8C48FF1E9
:10106800000E0101906F75EC13F000D0000E000126
:10107800D06F000E0101D36F00D0030E0101EA19F1
:10108800D8A414D0030E0101EB19D8A40FD0000E78
:101098000101EA6F000E0101EB6F030E0101006F01
:1010A800010ECCEC70F00101C48944D0020E01019C
:1010B800EB19D8A40CD0000E0101EB6F020E010150
:1010C800006F010ECCEC70F00101C48733D0010130
:1010D800EB05D8A40CD0000E0101EB6F010E010145
:1010E800006F010ECCEC70F00101C48523D0020E14
:1010F8000101EA19D8A40ED0000E0101EA6F8EECA6
:1011080058F0020E0101006F000ECCEC70F00101E6
:10111800C48310D00101EA05D8A40CD0000E010147
:10112800EA6F010E0101006F000ECCEC70F00101B6
:10113800C48100D00101BD51D8B42BD0000E0101EB
:10114800BD6F800E0101BE19D8A411D00101D9517B
:101158000101D8A405D00101DA510101D8B407D0A2
:10116800000ED3EC4FF0000E0101D96F10D0800EA5
:101178000101BE19D8A40BD00001CB51D8A407D0C7
:10118800200ED3EC4FF0600ED3EC4FF000D00400EB
:1011980000D0000E0101016F010E006FEF0E01017A
:1011A800026F010E0101036F2CEC4FF00009D8B457
:1011B80008D0EFC100F1010EC4EC70F00101B96F65
:1011C80007D00101D151D8B403D00101D10700D013
:1011D8000101B951D8B46BD104012851C00B0401E5
:1011E800FB6F0401FB45E846030B0401FB6FEE0EA1
:1011F8000101126FFF0E0101136FFDEC31F00401C4
:10120800FB510401D8A409D1000E0101C06FA1EC63
:1012180070F00009D8B43FD1270E0101006F040E09
:101228000101016F020E0101026FE20E0101036F5D
:10123800010E0101046F000E0101056F040E01018A
:10124800066FF3EC66F00009D8B4BDD00A0E0101B0
:10125800BF6FE6C1C6F3E7C1C7F3E8C1C8F3E9C188
:10126800C9F31D0E0301CA6F2B0E0301CB6F29C4EE
:10127800CCF32AC4CDF32BC4CEF32CC4CFF3010E88
:101288000101C16F0101ED51FA0F0101ED6F000E6F
:101298000101016F020E006F240E0101026F91EC33
:1012A80051F0000E0101016F020E006F240E0101C2
:1012B800026F91EC51F0000E0101016F020E006FF8
:1012C8000101ED51040F0101026F91EC51F0000E84
:1012D8000101016F020E006F000E0101026F91EC17
:1012E80051F0000E0401F56F000E0401F96F22D0D1
:1012F800000E0101016F020E006F0401F951010D8A
:10130800C60EF324D96E030EF420DA6EDF50010105
:10131800026F91EC51F00401F951010DC60EF3244E
:10132800D96E030EF420DA6EDF500401F51B0401B8
:10133800F92B00D0FF0E0201F66FFF0E0201F76FC6
:101348000101BF510201F86FF96B0201F651020168
:10135800F8270201F7510201F9230401F9510201AA
:10136800FA6FFB6B0201F8510201FA5D0201FB51B1
:10137800800A0201FC6F0201F951800A0201FC593E
:10138800D8A0B6D7000E0101016F020E006FF5C498
:1013980002F191EC51F0000E0101016F020E006F95
:1013A8000D0E0101026F91EC51F0000E0101016F69
:1013B800020E006F0A0E0101026F91EC51F0000E4F
:1013C8000101C16F68D00101EC51F80F0101BF6F35
:1013D800020E0301C66F270E0101006F040E010102
:1013E800016F060E0101026FC60E0101036F030EA5
:1013F8000101046F010E0101056FBFC106F133EC55
:1014080064F029C4F1F42AC4F2F42BC4F3F42CC414
:10141800F4F4010E0101D56F3ED0020E0401FB1950
:10142800D8A439D0020E0101C06FA1EC70F00009F8
:10143800D8B431D0290E01010E6F040E01010F6FCF
:10144800E70E0101106F040E0101116FF60E010184
:10145800126F040E0101136FC5EC64F00009D8B4D3
:101468001AD02D0E01018A6F040E01018B6F310E07
:1014780001018C6F040E01018D6F0101EC51F30F16
:1014880001018E6F280E01018F6F010E0101906F0F
:1014980075EC13F000D0000E0101B96FDD0E0101EB
:1014A800126FFF0E0101136FFDEC31F000D0010E39
:1014B80088EC6CF00009D8B417D0050E0101276F2D
:1014C800A00E266F020E0101286F0C0EE1EC65F0EC
:1014D8000D0E2FEC6FF00101D9510101D8B404D0E1
:1014E800000E0101D96F00D00A0E88EC6CF00009DB
:1014F800D8B420D0FC0E0101066F010E0101076F60
:10150800E20E0101086F010E0101096F040E0101CD
:101518000A6F07EC6AF00009D8A40CD0FC0E010190
:10152800186F010E0101196F000E01011A6F8BEC83
:101538003FF000D00B0E88EC6CF00009D8B415D041
:10154800000E02012F6F000E2E6F000E0201316F88
:10155800000E306F000E0201456F000E446F000E42
:101568000201476F000E466F00D0000E88EC6CF049
:101578000009D8B404D0000E0101C46F00D00B0ECE
:1015880049EC6EF00009D8B40BD0050E0101276FA5
:10159800A00E266F020E0101286F0B0EE1EC65F01C
:1015A8000A0E49EC6EF000D00201235105E10B0E42
:1015B8000201225DD8A00CD0070E0CEC46F0000EFC
:1015C8006AEC6FF0000E0201236F000E226F00D04C
:1015D8000101C351D8B40AD0000E01010D6F240EC9
:1015E8000C6FEDEC5EF00101C30700D0000E0201A4
:1015F800556F0C0E49EC6EF00009D8B40CD0050EEE
:101608000101276FA00E266F020E0101286F0C0E34
:10161800E1EC65F000D00101D451D8B41ED0050E1C
:101628000101276FA00E266F020E0101286F0C0E14
:10163800E1EC65F0000E0101D46F0101BE51D8B490
:101648000CD00101C2510101D8A407D0000E01013C
:10165800D96F0D0E2FEC6FF000D0170E88EC6CF0E0
:101668000009D8B40ED0070E55EC62F0000E010147
:10167800276F0A0E266F020E0101286F170EE1EC84
:1016880065F0170E49EC6EF00009D8B40BD0000EC7
:101698000101276F0A0E266F020E0101286F170E2F
:1016A800E1EC65F00C0E88EC6CF00009D8B40BD0B6
:1016B800040E0101276FB00E266F010E0101286F7D
:1016C8000D0EE1EC65F00D0E88EC6CF00009D8B455
:1016D8000BD0020E0101276F580E266F010E010173
:1016E800286F0C0EE1EC65F0180E88EC6CF0000920
:1016F800D8B413D0FA0E0001D16103D00001D12B68
:1017080000D0000E0101276F0A0E266F020E01019C
:10171800286F180EE1EC65F000D0180E49EC6EF059
:101728000009D8B40BD0000E0101276F0A0E266FEE
:10173800020E0101286F180EE1EC65F0110E88EC1D
:101748006CF00009D8B406D0010E0101DC6F1EEC64
:101758002FF000D0100E88EC6CF00009D8B41DD022
:10176800A1EC70F00009D8A418D00101FA510101C8
:10177800D8B404D06FEC67F0000E0CD0FC0E010159
:10178800186F010E0101196F010E01011A6F8BEC20
:101798003FF0010E0101FA6F00D0100E49EC6EF017
:1017A8000009D8B40CD0000E0101276F1E0E266F59
:1017B800010E0101286F100EE1EC65F000D0000168
:1017C800ACBF08D03E0E0001AB5D080E0001AC595D
:1017D800D8B00BD00101C2510101D8B452D00101D7
:1017E800BE51D8B455D04DD053D00101C2510101DA
:1017F800D8B410D00101C2510101D8B439D00001C8
:10180800ACBF36D07D0E0001AB5D080E0001AC59AF
:10181800D8A02ED0000E0101C26F010ED2EC68F0E4
:101828000101005101010111D8B404D00CD030D00D
:1018380010D02ED00D0ED2EC68F00101005101013C
:101848000111D8B40DD00101BE51D8B421D001D0B6
:101858001FD00101D9510101D8A41AD015D018D030
:101868000101BE51D8A414D0000E55EC62F010D07E
:101878000101C2510101D8B40BD00101BE51D8B445
:1018880007D0010E0101C26F010E0101D96F00D00E
:10189800040E01010C6F000ECCEC5BF00CC11EF2C3
:1018A8000DC11FF202011E510201305D02011F51DC
:1018B80002013159D8B009D00101E151D8A405D0AD
:1018C8001EC230F21FC231F200D05FEC6AF0BEEFE8
:1018D80006F0CAEC70F00009D8B4BEEF06F085EC4B
:1018E80070F0010E0101E06FBEEF06F0EBEF04F0BF
:1018F8002DC121F12EC122F134C123F131C106F1EC
:1019080032C107F133C108F1FEEC50F00101246F38
:10191800000E0101256FBFEC37F00101576F2DC193
:1019280006F12EC107F12FC108F130C109F1040EEB
:1019380001010A6F02EC6BF0010135510101D8A4D5
:1019480010D02DC106F12EC107F1F20E0101086F6A
:10195800020E0101096F040E01010A6F02EC6BF01F
:1019680000D0010E0101336572EF13F031C1D9FFC8
:1019780032C1DAFFDE04D8A41AD0050E010133659E
:1019880016D0F90E010133250101006F0101016B29
:10199800FF0E0123000E0101036F050E026F4BECD1
:1019A8005FF00101005101010111D8B40CD0000E03
:1019B8000101276F0A0E266F020E0101286F170E0C
:1019C800E1EC65F000D031C1D9FF32C1DAFFDE04A5
:1019D800D8A466D1050E0101336562D1F90E010163
:1019E80033250101006F0101016BFF0E0123000E79
:1019F8000101036F050E026F4BEC5FF0010100510E
:101A080001010111D8A44CD1FF0E0101366FFF0E60
:101A18000101376F010133510101386F396B010141
:101A280036510101382701013751010139230101DC
:101A3800385101013125D96E010139510101322195
:101A4800DA6E0001CC51DE18D8B424D0FF0E0101A3
:101A5800366FFF0E0101376F010133510101386FF5
:101A6800396B010136510101382701013751010154
:101A780039230101385101013125D96E010139514C
:101A880001013221DA6EDE28D8A472EF13F002D0F9
:101A980072EF13F0000E0101596F010E586FE7D075
:101AA800050E010158250101366F000E010159216B
:101AB8000101376F010133510101386F396B0101A1
:101AC80036510101385D01013951800A01013A6F2F
:101AD80001013751800A01013A59D8A082D0010189
:101AE80059BF7FD00101595105E1060E0101585D2A
:101AF800D8A077D031C100F132C101F158C102F14B
:101B0800400E0101036F010E0101046F000E010177
:101B1800056F040E0101066F33EC64F0040E010139
:101B280058250101366F000E010159210101376F57
:101B38000101365101013125D96E010137510101E9
:101B48003221DA6EDF500101386F050E0101396F5D
:101B58000101D89038330101392FFAD701013851E2
:101B6800070B01014C6F040E010158250101366F66
:101B7800000E010159210101376F010136510101A0
:101B88003125D96E0101375101013221DA6EDF505A
:101B98001F0B0101546F1E0E0101546506D0000E83
:101BA80001014F6F1F0E4E6F0AD0010E010154251F
:101BB80001014E6F01014F6B000E4F2300D0400E04
:101BC8000101156F010E0101166F57C117F14EC1C2
:101BD80018F14CC119F1000E01011A6F4CEC1EF0FE
:101BE8003CD00101580501015911D8A436D031C1A2
:101BF80000F132C101F1010E0101026FE60E01018F
:101C0800036F010E0101046F000E0101056F040E40
:101C18000101066FF3EC66F00009D8B41ED02DC19F
:101C28000EF12EC10FF1040E010158250101366F86
:101C3800000E010159210101376F010136510101DF
:101C48003125D96E0101375101013221DA6EDF5099
:101C58000101106FB0EC61F000D0050E01015825AC
:101C68000101586F000E010159210101596F01014D
:101C780033510101366F376B010136510101585D4F
:101C880001015951800A0101386F01013751800A59
:101C980001013859D8B072EF13F002D772EF13F080
:101CA80031C1D9FF32C1DAFF020EDE18D8A423D021
:101CB800010120EE02F03151D9263251DA22DE50EC
:101CC80002016319D8A472EF13F0000E02015A6FD3
:101CD800000E02018D6F020E02018E6F000E0101CF
:101CE800DB6F510E0101346172EF13F0010E020136
:101CF800516F72EF13F031C1D9FF32C1DAFF020E12
:101D0800DF6472EF13F00B0E0101336572EF13F00D
:101D1800010E0101D46F000E02EC6DF0010120EEFE
:101D280002F03151D9263251DA22DE50020163190C
:101D3800D8A40AD0000E02015A6F000E02018D6F5E
:101D4800020E02018E6F00D0010120EE01F0315128
:101D5800D9263251DA22DE5002016319D8A498D16B
:101D68005B0E0101006F020E0101016F000E0101FF
:101D7800026F31C103F132C104F1030E0101056F95
:101D8800040E0101066FF3EC66F00009D8B480D1A7
:101D9800010120EE01F03151D9263251DA22DF500B
:101DA8000101B76F010E0001BE6F2DC106F12EC1F2
:101DB80007F1E60E0101086F020E0101096F040E1A
:101DC80001010A6F02EC6BF0010120EE07F03151BE
:101DD800D9263251DA220101E651DE18D8A424D0DE
:101DE800010120EE08F03151D9263251DA220101E1
:101DF800E751DE18D8A418D0010120EE09F03151BE
:101E0800D9263251DA220101E851DE18D8A40CD0C3
:101E1800010120EE0AF03151D9263251DA220101AE
:101E2800E951DE18D8B434D131C1D9FF32C1DAFF53
:101E3800040EDE18D8B429D101D027D131C100F160
:101E480032C101F1030E0101026FE60E0101036FB9
:101E5800010E0101046F000E0101056F040E01015E
:101E6800066FF3EC66F00009D8A40FD101D00DD1AC
:101E7800010120EE0BF03151D9263251DA2202014C
:101E88008F51DE5CD8B003D0000E1200FED0CBC25A
:101E980050F1CCC251F1CDC252F1CEC253F131C191
:101EA80000F132C101F1070E0101026F440E010178
:101EB800036F010E0101046F000E0101056F040E8E
:101EC8000101066F33EC64F0440E01010B6F010E43
:101ED80001010C6F500E01010D6F010E01010E6F13
:101EE800B0EC3CF001014D6F01015569500E010144
:101EF800066F010E0101076FE20E0101086F010E66
:101F08000101096F040E01010A6F07EC6AF000096C
:101F1800D8A40AD0500E01010E6F010E01010F6FF7
:101F280031EC67F00101556F5B0E0101066F020E7F
:101F38000101076FEE0E0101086F020E0101096F22
:101F4800040E01010A6F02EC6BF063C250F0F2EC70
:101F58006FF00201636F040E0201646F060E020146
:101F68005A6F000E02018D6F020E02018E6F31C191
:101F780000F132C101F1030E0101026F5F0E010190
:101F8800036F020E0101046F000E0101056F040EBC
:101F98000101066F33EC64F0E60E0101066F010ED5
:101FA8000101076F5B0E0101086F020E0101096F45
:101FB800040E01010A6F02EC6BF0000E02018F6F34
:101FC8001D0E0201656F2B0E0201666F440E0101A2
:101FD800006F010E0101016F000E0101026F650E15
:101FE8000101036F020E0101046F020E0101056F6A
:101FF800040E0101066F33EC64F0500E0101006F0E
:10200800010E0101016F000E0101026F650E010151
:10201800036F020E0101046F060E0101056F040E25
:102028000101066F33EC64F02DC100F12EC101F1FE
:10203800000E0101026F650E0101036F020E01011E
:10204800046F0A0E0101056F040E0101066F33ECDF
:1020580064F04DC173F255C174F201015551060D7A
:10206800040EF326000EF422BD0EF324D96E0A0ED8
:10207800F420DA6EDF500F0B0201756F110E0201AA
:102088008B6F000E0101DB6F00D0000E120000D034
:1020980002015A51D8A408D00001BE51D8A404D0D6
:1020A80002018C51D8B44DD05F0E0101066F020EAB
:1020B8000101076F030E010131250101086F000EB0
:1020C800010132210101096F040E01010A6F07ECB9
:1020D8006AF00009D8B432D002015A51D8B42ED0CF
:1020E8000001BE51D8A42AD002018C51D8A426D010
:1020F800010120EE01F03151D9263251DA22505037
:10210800DE18D8A41ED0EE0E0101006F020E0101E8
:10211800016F000E0101026F31C103F132C104F1F8
:10212800030E0101056F040E0101066FF3EC66F062
:102138000009D8B406D0000E120003D0000E120019
:1021480000D0010120EE07F03151D9263251DA22B0
:102158000101E651DE18D8A424D0010120EE08F0D0
:102168003151D9263251DA220101E751DE18D8A4BB
:1021780018D0010120EE09F03151D9263251DA2266
:102188000101E851DE18D8A40CD0010120EE0AF0B4
:102198003151D9263251DA220101E951DE18D8B479
:1021A800D0D0010120EE0BF03151D9263251DA227C
:1021B8001F0EDE18D8A402D0000E12005B0E01011B
:1021C800066F020E0101076FEE0E0101086F020E85
:1021D8000101096F040E01010A6F02EC6BF063C282
:1021E80050F0010120EE01F03151D9263251DA22A6
:1021F800DF500201636F31C1D9FF32C1DAFFDF500E
:102208000201646F060E02015A6F000E02018D6F03
:10221800020E02018E6F31C100F132C101F1070EC9
:102228000101026F5F0E0101036F020E0101046FCD
:10223800000E0101056F040E0101066F33EC64F016
:1022480031C100F132C101F1030E0101026F5B0ED1
:102258000101036F020E0101046F000E0101056FF9
:10226800040E0101066F33EC64F0010120EE0BF05F
:102278003151D9263251DA22DF500101366F01017E
:10228800362902018F6F31C100F132C101F10C0E04
:102298000101026F650E0101036F020E0101046F57
:1022A800000E0101056F01013351F40F0101066FA2
:1022B80033EC64F001013351F40F02018B6F000E0F
:1022C8000101DB6F010120EE01F03151D9263251B5
:1022D800DA22DF500101B76F010E0001BE6F2DC178
:1022E80006F12EC107F1E60E0101086F020E010189
:1022F800096F040E01010A6F02EC6BF02DC121F188
:102308002EC122F134C123F1010E0101246F010E07
:102318000101256FBFEC37F00101576F5B0E01011A
:10232800156F020E0101166F57C117F18FC218F110
:10233800000E0101196F010E01011A6F4CEC1EF01D
:10234800CDD15B0E0101066F020E0101076FEE0E83
:102358000101086F020E0101096F040E01010A6FE5
:1023680002EC6BF063C250F0010120EE01F0315134
:10237800D9263251DA22DF500201636F31C1D9FF09
:1023880032C1DAFFDF500201646F000E02015A6F9A
:10239800000E02018D6F020E02018E6F31C100F135
:1023A80032C101F1070E0101026F5F0E0101036FD7
:1023B800020E0101046F000E0101056F040E0101F8
:1023C800066F33EC64F031C100F132C101F1030E44
:1023D8000101026F5B0E0101036F020E0101046F20
:1023E800000E0101056F040E0101066F33EC64F065
:1023F80031C100F132C101F1030E0101026F2FC199
:1024080003F130C104F1000E0101056F040E010152
:10241800066F33EC64F0010120EE0BF03151D92640
:102428003251DA22DF500101366F010136290201EB
:102438008F6F31C100F132C101F10C0E0101026F41
:10244800650E0101036F020E0101046F000E010108
:10245800056F01013351F40F0101066F33EC64F08D
:1024680001013351F40F02018B6F010120EE01F0DD
:102478003151D9263251DA22DF500101B76F010EEE
:102488000001BE6F2DC106F12EC107F1E60E010154
:10249800086F020E0101096F040E01010A6F02ECB8
:1024A8006BF0000E0101DB6F2DC121F12EC122F16D
:1024B80034C123F1010E0101246F010E0101256FC2
:1024C800BFEC37F00101576F5B0E0101156F020E6B
:1024D8000101166F57C117F18FC218F1000E0101E3
:1024E800196F010E01011A6F4CEC1EF0090E020162
:1024F8006419D8A405D00201665150EC70F0EED0F2
:1025080002016539E842070B0101566F0101565176
:102518000101D8B41ED00101C951D8B41AD00D0E8A
:10252800010131250101006F000E01013221010175
:10253800016FF30E010133250101026F0101036BE5
:10254800FF0E032356C104F101EC5AF0010E1200EC
:10255800C5D0010156510101D8A409D00101C951C2
:10256800D8A405D0F3D703D0F1D71200B7D0020111
:1025780065511F0B0C0AD8B4E9D7020165511F0B2E
:102588001E0AD8A407D002016651D8A403D0DED70A
:102598001200A4D0CFC248F1D0C249F1D1C24AF149
:1025A800D2C24BF131C100F132C101F1070E010174
:1025B800026F3B0E0101036F010E0101046F000E53
:1025C8000101056F040E0101066F33EC64F03B0E48
:1025D80001010B6F010E01010C6F480E01010D6F17
:1025E800010E01010E6FB0EC3CF001013F69480E8D
:1025F8000101066F010E0101076FE20E0101086F6C
:10260800010E0101096F040E01010A6F07EC6AF05F
:102618000009D8A40AD0480E01010E6F010E01016D
:102628000F6F31EC67F001013F6F5B0E0101066F20
:10263800020E0101076FEE0E0101086F020E010183
:10264800096F040E01010A6F02EC6BF063C250F0CF
:10265800F2EC6FF00201636F040E0201646F060E64
:1026680002015A6F000E02018D6F020E02018E6F79
:1026780031C100F132C101F1030E0101026F5F0E99
:102688000101036F020E0101046F000E0101056FC5
:10269800040E0101066F33EC64F0E60E0101066FCB
:1026A800010E0101076F5B0E0101086F020E0101A7
:1026B800096F040E01010A6F02EC6BF0000E0201B3
:1026C8008F6F1D0E0201656F2C0E0201666F020EE0
:1026D80002018B6F000E0101DB6F00D0000E1200AB
:1026E80012008AC12DF18BC12EF1A30E01012F6FAB
:1026F800010E0101306F8CC131F18DC132F18EC1F3
:1027080033F18FC134F190C135F17CEC0CF0000944
:10271800D8B41200000E0101A16F010120EE0CF0E7
:102728008C51D9268D51DA22DF501F0B0101A26F7F
:102738000101A8691B0E0101A2650BD0010120EE61
:102748000DF08C51D9268D51DA22DF500101A86F86
:1027580000D0000E01019A6F0C0E01018C250101B9
:10276800006F000E01018D210101016F020E0101B0
:10277800026F0C0E01018C250101036F000E01018F
:102788008D210101046F060E0101056F040E010180
:10279800066FF3EC66F00009D8B426D00C0E0101E0
:1027A8008C250101006F000E01018D210101016FCF
:1027B800060E0101026F0C0E01018C250101036F49
:1027C800000E01018D210101046F0A0E0101056F40
:1027D800040E0101066FF3EC66F00009D8B404D0CA
:1027E800010E01019A6F00D09AC1A9F1000E0101F2
:1027F8009B6F0C0E01018C250101006F000E010179
:102808008D210101016F030E0101026F0C0E010100
:102818008C250101036F000E01018D210101046F58
:10282800070E0101056F040E0101066FF3EC66F057
:102838000009D8B426D00C0E01018C250101006FC7
:10284800000E01018D210101016F070E0101026FC8
:102858000C0E01018C250101036F000E01018D2171
:102868000101046F0B0E0101056F040E0101066FD3
:10287800F3EC66F00009D8B404D0010E01019B6F97
:1028880000D09BC19CF169EF18F086EF18F01AD0C0
:1028980086EF18F0190E01018E19D8A486EF18F0EA
:1028A8000D0E01018C250101186F000E01018D210B
:1028B8000101196F000E01011A6F9AEC68F086EF9A
:1028C80018F046D0010E0101A16F86EF18F0010142
:1028D80020EE0EF08C51D9268D51DA22410EDE18E9
:1028E800D8A486EF18F0010120EE0FF08C51D926FC
:1028F8008D51DA22530EDE18D8A486EF18F00101A4
:1029080020EE10F08C51D9268D51DA22460EDE18B1
:10291800D8A4F8D3900E0101066F020E0101076FCB
:10292800110E01018C250101086F000E01018D2196
:102938000101096F0B0E01010A6F07EC6AF000092B
:10294800D8B4E0D3000E0101DC6F1EEC2FF0DAD30F
:102958000101A851030AD8B4B5D7290AD8B4B7D702
:10296800D1D306D10101A9510101D8B4CBD30E0EA0
:1029780001018C250101186F000E01018D21010153
:10298800196F000E01011A6F9AEC68F0BBD30101B0
:102998009C510101D8B417D00F0E01018C250101FB
:1029A800206F000E01018D210101216F010120EE30
:1029B8000EF08C51D9268D51DA22DF500101226F99
:1029C800BAEC49F09FD3A30E0101186F010E010163
:1029D800196F2D0E01011A6F010120EE01F08C51C3
:1029E800D9268D51DA22DF5001011B6F00EC6CF003
:1029F80089D301019C510101D8B417D00F0E0101F0
:102A08008C2501010E6F000E01018D2101010F6F50
:102A1800010120EE0EF08C51D9268D51DA22DF50BB
:102A28000101106F4AEC45F06DD3A30E0101186F38
:102A3800010E0101196F2D0E01011A6F010120EE1F
:102A480001F08C51D9268D51DA22DF5001011B6F1C
:102A580000EC6CF057D30101A9510101D8A452D35D
:102A680001D050D3A30E0101186F010E0101196F97
:102A78002D0E01011A6F010120EE01F08C51D926AB
:102A88008D51DA22DF5001011B6F00EC6CF03AD354
:102A98000101A9510101D8B435D30E0E01018C25CD
:102AA8000101186F000E01018D210101196FBAECA7
:102AB8006BF028D3010120EE0EF08C51D9268D51F0
:102AC800DA22520EDE18D8A419D0010120EE0FF038
:102AD8008C51D9268D51DA22530EDE18D8A40ED087
:102AE800010120EE10F08C51D9268D51DA22490EC1
:102AF800DE18D8A403D040EC70F004D3A30E010173
:102B0800186F010E0101196F2D0E01011A6F0101D5
:102B180020EE01F08C51D9268D51DA22DF500101C7
:102B28001B6F00EC6CF0EED20101A9510101D8B481
:102B3800E9D20E0E01018C250101186F000E01016A
:102B48008D210101196F8AEC6AF0DCD20101A951CB
:102B58000101D8B4D7D20E0E01018C2501011A6FDC
:102B6800000E01018D2101011B6FA7EC62F0CAD292
:102B78000101A851000AD8B4F5D6040AD8B4C2D2C3
:102B8800240AD8B404D7010AD8B433D7030AD8B46E
:102B980062D7010AD8B47CD7070AD8B48BD7010A00
:102BA800D8B4C2D70B0AD8B4D1D7ACD26DD20E0ED6
:102BB80001018C2501012F6F000E01018D210101FA
:102BC800306F5AEC36F0A30E0101186F010E0101A7
:102BD800196FBAEC6BF096D28CC100F18DC101F17E
:102BE8000E0E0101026FFC0E0101036F010E0101BF
:102BF800046F000E0101056F040E0101066F33EC2E
:102C080064F00D0E01018C250101186F000E010101
:102C18008D210101196F8AEC6AF074D28CC100F120
:102C28008DC101F10E0E0101026F8CC103F18DC13E
:102C380004F1170E0101056F040E0101066FF3EC94
:102C480066F00009D8B499D08CC100F18DC101F1AA
:102C5800170E0101026F8CC103F18DC104F1200E22
:102C68000101056F040E0101066FF3EC66F000091F
:102C7800D8B483D08CC100F18DC101F1120E0101CD
:102C8800026F8CC103F18DC104F11B0E0101056FA8
:102C9800040E0101066FF3EC66F00009D8B46DD09C
:102CA8008CC100F18DC101F11B0E0101026F8CC1B5
:102CB80003F18DC104F1240E0101056F040E010119
:102CC800066FF3EC66F00009D8B457D0010120EE86
:102CD8001FF08C51D9268D51DA22010110EE16F021
:102CE8008C51E1268D51E222DE50E618D8A445D059
:102CF800010120EE28F08C51D9268D51DA220101EC
:102D080010EE1FF08C51E1268D51E222DE50E618BC
:102D1800D8A433D00E0E01018C2501012A6F000EB4
:102D280001018D2101012B6F120E01018C2501017A
:102D38002C6F000E01018D2101012D6F010120EE84
:102D480016F08C51D9268D51DA22DF5001012E6FF1
:102D5800B4EC6AF0A30E0101186F010E0101196F9E
:102D68000E0E01018C2501011A6F000E01018D2143
:102D780001011B6F46EC48F0C5D1A30E0101186F85
:102D8800010E0101196F2D0E01011A6F010120EECC
:102D980001F08C51D9268D51DA22DF5001011B6FC9
:102DA80000EC6CF0AFD10E0E01018C2501010E6F05
:102DB800000E01018D2101010F6FFFEC5FF0A30EE2
:102DC8000101186F010E0101196F010E01011A6F3F
:102DD8009AEC68F097D1010120EE0EF08C51D926BB
:102DE8008D51DA22520EDE18D8A48CD1010120EEC2
:102DF8000FF08C51D9268D51DA22530EDE18D8A443
:102E080081D1010120EE10F08C51D9268D51DA22A2
:102E1800540EDE18D8A476D1FF0074D1010120EE3B
:102E28000EF08C51D9268D51DA22530EDE18D8A413
:102E380069D1010120EE0FF08C51D9268D51DA228B
:102E4800460EDE18D8A45ED1010120EE10F08C5198
:102E5800D9268D51DA22540EDE18D8A453D1A30EE8
:102E680001011A6F010E01011B6FF8EC62F00101FC
:102E780020EE11F08C51D9268D51DA22DF50000155
:102E8800DB6F150E0101276F7C0E266F000E010106
:102E9800286F110EE1EC65F035D1010120EE0EF03E
:102EA8008C51D9268D51DA22530EDE18D8A458D069
:102EB800010120EE0FF08C51D9268D51DA22520EE5
:102EC800DE18D8A44DD0010120EE10F08C51D9267F
:102ED8008D51DA22460EDE18D8A442D0010120EE28
:102EE80011F08C51D9268D51DA22040EDF6038D0CA
:102EF800010120EE11F08C51D9268D51DA22DF50D4
:102F08000101996F010120EE12F08C51D9268D51E3
:102F1800DA22DF500101916F0101915101019E6F89
:102F28009F6B01019E5101019F6F9E6B010120EE75
:102F380013F08C51D9268D51DA22DF500101916F9F
:102F48000101915101019E27000E9F239EC126F188
:102F58009FC127F199C128F1010EE1EC65F0D2D0AB
:102F6800A30E0101186F010E0101196F2D0E010149
:102F78001A6F010120EE01F08C51D9268D51DA2209
:102F8800DF5001011B6F00EC6CF0BCD0010120EE9A
:102F98000EF08C51D9268D51DA22DF50D809010163
:102FA800986F98C102F13C0E1DEC6DF0ABD0010199
:102FB800A9510101D8B4A6D0010120EE1BF08C5113
:102FC800D9268D51DA22DF500101916F010191510B
:102FD8000101B16FB26B0101B1510101B26FB16B67
:102FE800010120EE1AF08C51D9268D51DA22DF50DA
:102FF8000101916F010191510101B127000EB22326
:10300800260E0101B15D090E0101B259D8A006D002
:10301800000E0101B26F000EB16F74D0010120EEF5
:103028001CF08C51D9268D51DA22DF500001DB6F5C
:103038000E0E01018C250101186F000E01018D2172
:103048000101196F61EC68F0010120EE1DF08C514F
:10305800D9268D51DA22DF500101EE6F1E0E0101D3
:103068008C250101066F000E01018D210101076FFA
:10307800900E0101086F020E0101096F0B0E01018C
:103088000A6F02EC6BF03ED00101A851040AD8B4D3
:103098008ED7270AD8B48BD5060AD8B49DD5030A8B
:1030A800D8B4BCD5010AD8B47ED60F0AD8B493D602
:1030B800010AD8B427D0030AD8B4B0D66A0AD8B45B
:1030C800ECD6BE0AD8B462D71DD00101A251000ABD
:1030D800D8B418D0020AD8B466EF14F0060AD8B4E7
:1030E80011D0080AD8B44EEF14F0100AD8B40AD098
:1030F800010AD8B42DD4030AD8B43AD5010AD8B4F1
:10310800C3D700D00101A1510101D8A420D00C0ED1
:1031180001018C250101816F000E01018D21010142
:10312800826F8FC183F1A30E0101846F010E01012B
:10313800856FA2C186F1A8C187F101018E51F40FF4
:103148000101886FB7EC52F00101A16F00D00101B5
:10315800A1510101D8B41200E90E0101126FFF0E4E
:103168000101136FFDEC31F00101C051D8A423D146
:10317800010E0101C16F01018E51FD0F01019D6F0B
:10318800000E0101016F020E006F240E0101026F93
:1031980091EC51F0000E0101016F020E006F240E38
:1031A8000101026F91EC51F0000E0101016F020E56
:1031B800006F9DC102F191EC51F0000E0101016F09
:1031C800020E006F000E0101026F91EC51F0000E2B
:1031D8000101A06F000E0101016F020E006F0101D5
:1031E80020EE03F08C51D9268D51DA22DF500101EF
:1031F800026F91EC51F0010120EE03F08C51D926B9
:103208008D51DA22DF500101A01B000E0101016F70
:10321800020E006F010120EE04F08C51D9268D5169
:10322800DA22DF500101026F91EC51F0010120EE2A
:1032380004F08C51D9268D51DA22DF500101A01BF0
:10324800000E0101016F020E006F010120EE05F072
:103258008C51D9268D51DA22DF500101026F91EC91
:1032680051F0010120EE05F08C51D9268D51DA225A
:10327800DF500101A01B000E0101016F020E006F5B
:10328800010120EE06F08C51D9268D51DA22DF504B
:103298000101026F91EC51F0010120EE06F08C5112
:1032A800D9268D51DA22DF500101A01B000E010141
:1032B800A76F38D0000E0101016F020E006F0101E7
:1032C800A7510101916F926B0C0E01019127000E1D
:1032D80092230101915101018C25D96E010192516E
:1032E80001018D21DA6EDF500101026F91EC51F07E
:1032F8000101A7510101916F926B0C0E01019127F9
:10330800000E92230101915101018C25D96E010112
:10331800925101018D21DA6EDF500101A01B0101DC
:10332800A72B00D0F70E0101916FFF0E0101926FDC
:1033380001019D510101936F946B010191510101AC
:10334800932701019251010194230101A751010121
:10335800956F966B010193510101955D010196519D
:10336800800A0101976F01019451800A0101975960
:10337800D8A0A0D7000E0101016F020E006FA0C1F6
:1033880002F191EC51F0000E0101016F020E006F85
:103398000D0E0101026F91EC51F0000E0101016F59
:1033A800020E006F0A0E0101026F91EC51F0000E3F
:1033B8000101C16F00D0D70E0101126FFF0E01018C
:1033C800136FFDEC31F01200120001015A6F020177
:1033D8005A51D8A414D00001BE51D8A410D002016B
:1033E8008C51D8A40CD001014A05D8A408D0010EEC
:1033F8000101486F01015A510EEC70F008D0000E1F
:103408000101486F01015A510EEC70F000D0940E82
:1034180001015B6F030E01015C6FB5EC70F00009F0
:10342800D8A416D0DBC20CF1DCC20DF1EDEC5EF0D5
:10343800010E01010C250201146F000E01010D217E
:103448000201156F000E0201DE6F000EDD6F00D065
:1034580099EC70F00009D8B4DED002018C51D8B4D0
:103468007BD001015A510101D8B476D0000E020177
:103478008C6F5BC1D9FF5CC1DAFF64C2DFFF010159
:1034880020EE01F05B51D9265C51DA2263C2DFFFDE
:10349800010120EE02F05B51D9265C51DA22B7C156
:1034A800DFFF5B0E0101006F020E0101016F000ECC
:1034B8000101026F5BC103F15CC104F1030E01015C
:1034C800056F040E0101066F33EC64F05F0E010115
:1034D800006F020E0101016F000E0101026F5BC156
:1034E80003F15CC104F1070E0101056F040E01012F
:1034F800066F33EC64F0010120EE0BF05B51D92626
:103508005C51DA228FC2DFFF650E0101006F020EE7
:103518000101016F000E0101026F5BC103F15CC183
:1035280004F10C0E0101056F8BC206F133EC64F057
:10353800E20E0101326F010E0101336F890E0101A4
:10354800346F030E0101356F02018B510C0F01011D
:10355800366F79EC5AF05BD0020114510201DD1983
:1035680056E1020115510201DE19D8A450D001011B
:103578005A510101D8B442D0A1EC70F00009D8B476
:103588003DD00101F251D8B427D027EC29F0010130
:10359800516FE20E0101326F010E0101336F890E86
:1035A8000101346F030E0101356F51C136F179EC19
:1035B8005AF00009D8A42BD001D029D00201DB5140
:1035C8000201145D0201DC5102011559D8B01FD067
:1035D8000201144B152B1BD0E20E0101326F010EB4
:1035E8000101336F890E0101346F030E0101356F3C
:1035F800000E0101366F79EC5AF009D0F90E01017D
:10360800126FFE0E0101136FFDEC31F000D00201C4
:10361800DD4BDE2BDBD2C7C256F1C8C257F1C9C297
:1036280058F1CAC259F10101DB51D8A4C1D0010136
:10363800DB2B02018D51D8A4B8D0010E02015A65C6
:10364800C5D25F0E01010B6F020E01010C6F560E01
:1036580001010D6F010E01010E6FB0EC3CF001018C
:10366800526F0001BE51D8B416D0560E0101066F34
:10367800010E0101076FE60E0101086F020E01013C
:10368800096F040E01010A6F07EC6AF00009D8A45B
:103698009DD201D09BD28EC20CF101010D6BEDECD5
:1036A8005EF001010C5102018D6F01015A510101B7
:1036B800D8B48CD202015A0702018E2B1F0E0101C9
:1036C800526184D25BC1D9FF5CC1DAFF64C2DFFFFB
:1036D800010120EE01F05B51D9265C51DA2263C268
:1036E800DFFF010120EE02F05B51D9265C51DA229E
:1036F800B7C1DFFF5B0E0101006F020E0101016F10
:10370800000E0101026F5BC103F15CC104F1030EFD
:103718000101056F040E0101066F33EC64F05F0EC2
:103728000101006F020E0101016F000E0101026F1D
:103738005BC103F15CC104F1070E0101056F040EC2
:103748000101066F33EC64F0010120EE0BF05B51D0
:10375800D9265C51DA228FC2DFFF650E0101006FA6
:10376800020E0101016F000E0101026F5BC103F13E
:103778005CC104F10C0E0101056F8BC206F133EC3C
:1037880064F0560E0101326F010E0101336F890E8C
:103798000101346F030E0101356F02018B510C0FCB
:1037A8000101366F79EC5AF011D202018D070ED261
:1037B8000101DB05D8A4E8D00001BE51D8B4E4D09B
:1037C8000101DB2B5F0E01010B6F020E01010C6F73
:1037D800560E01010D6F010E01010E6FB0EC3CF0A9
:1037E8000101536F010E02015A659CD0560E01016A
:1037F800066F010E0101076FE60E0101086F020E48
:103808000101096F040E01010A6F07EC6AF0000953
:10381800D8B488D0000E02015A6F000E02018D6FD5
:10382800020E02018E6F01015A510101D8B4CED1A6
:103838001F0E01015361CAD1000E0001BE6F5BC1AA
:10384800D9FF5CC1DAFF64C2DFFF010120EE01F09D
:103858005B51D9265C51DA2263C2DFFF010120EEF9
:1038680002F05B51D9265C51DA22B7C1DFFF5B0E4B
:103878000101006F020E0101016F000E0101026FCC
:103888005BC103F15CC104F1030E0101056F040E75
:103898000101066F33EC64F05F0E0101006F020E48
:1038A8000101016F000E0101026F5BC103F15CC1F0
:1038B80004F1070E0101056F040E0101066F33ECD8
:1038C80064F0010120EE0BF05B51D9265C51DA223D
:1038D8008FC2DFFF650E0101006F020E0101016F4B
:1038E800000E0101026F5BC103F15CC104F10C0E13
:1038F8000101056F8BC206F133EC64F0560E01012D
:10390800326F010E0101336F890E0101346F030E0E
:103918000101356F02018B510C0F0101366F79ECF3
:103928005AF054D1000E0001BE6F5BC1D9FF5CC1D3
:10393800DAFF020EDF6E010120EE01F05B51D9269D
:103948005C51DA22000EDF6E010120EE02F05B51BD
:10395800D9265C51DA22B7C1DFFF01015A510101B2
:10396800D8B434D1E60E0101326F020E0101336F73
:10397800890E0101346F030E0101356F030E010139
:10398800366F79EC5AF022D1020E0101DB651BD1AA
:1039980002015A05D8A413D15F0E01010B6F020E64
:1039A80001010C6F560E01010D6F010E01010E6F22
:1039B800B0EC3CF00101546F01015569560E01014C
:1039C800066F010E0101076FE20E0101086F010E7B
:1039D8000101096F040E01010A6F07EC6AF0000982
:1039E800D8A40BD0560E01010E6F010E01010F6F06
:1039F80031EC67F00101556F00D0040E0201641923
:103A0800D8B414D05B0E0101066F020E0101076FD6
:103A1800E60E0101086F010E0101096F040E010194
:103A28000A6F07EC6AF00009D8B40AD0000E020148
:103A38005A6F000E02018D6F020E02018E6FBFD009
:103A48005B0E0101066F020E0101076FE60E010110
:103A5800086F010E0101096F040E01010A6F07ECDE
:103A68006AF00009D8A4ABD001D0A9D05B0E01013F
:103A7800066F020E0101076FEE0E0101086F020EBC
:103A88000101096F040E01010A6F02EC6BF063C2B9
:103A980050F0F2EC6FF00201636F040E0201646FE4
:103AA800060E02015A6F000E02018D6F020E02010E
:103AB8008E6F5F0E0101066F020E0101076F4D0E3A
:103AC8000101086F010E0101096F040E01010A6F5F
:103AD80002EC6BF05B0E0101066F020E0101076F2D
:103AE8005F0E0101086F020E0101096F040E01014A
:103AF8000A6F02EC6BF0E60E0101066F010E010180
:103B0800076F5B0E0101086F020E0101096F040EB9
:103B180001010A6F02EC6BF0000E02018F6F1D0E9F
:103B28000201656F2B0E0201666F4D0E0101006FD9
:103B3800010E0101016F000E0101026F650E010106
:103B4800036F020E0101046F020E0101056F040EDE
:103B58000101066F33EC64F0560E0101006F010E8F
:103B68000101016F000E0101026F650E0101036F73
:103B7800020E0101046F060E0101056F040E01011A
:103B8800066F33EC64F054C16FF255C170F2010155
:103B98005551060D040EF326000EF422BD0EF32433
:103BA800D96E0A0EF420DA6EDF500F0B0201716F26
:103BB8000D0E02018B6F000E0101DB6F00D0000EAD
:103BC8000101DB6F03D00101DB2B00D0B5EC70F0F5
:103BD8000009D8A40CD002014C2B020E02014C653E
:103BE80006D0CCEC46F0000E02014C6F00D0362A0D
:103BF8000101F151365CD8A03ED00101B851020D47
:103C0800C90EF324D96E080EF420DA6EDF38E832D4
:103C1800E832030B0009D8B422D0010E01014B6F22
:103C28000101B851020DC90EF324D96E080EF42013
:103C3800DA6EDF3801014C6F4C334C31030B4C6F9B
:103C480001014B5101014C5F01014C3B4C374C3792
:103C5800DF5001014C193F0B4C19DF6E00D00101F8
:103C6800B82BF90E0101B86503D0000E0101B86F39
:103C7800000E366E00D0070E88EC6CF00009D8B440
:103C880012007DEC3AF0010E0101F26F12001200F1
:103C980015C106F116C107F1E60E0101086F010E04
:103CA8000101096F040E01010A6F07EC6AF00009AF
:103CB800D8A4120001D0120001011729D8B41200AB
:103CC80001D01200030E0101086F01011751060D02
:103CD800050EF326000EF422BD0EF324D96E0A0E4B
:103CE800F420DA6EDF50F6EC42F00101196151D090
:103CF800030E0101086F01011751060D050EF32689
:103D0800000EF422BD0EF324D96E0A0EF420DA6EEA
:103D1800DF50F6EC42F001011B6F01011751060D4F
:103D2800040EF326000EF422BD0EF324D96E0A0EFB
:103D3800F420DA6EDF380F0B6BEC6DF001011B5DC0
:103D4800D8B012D001011751060D040EF326000E4B
:103D5800F422BD0EF324D96E0A0EF420DA6EDF3891
:103D68000F0B6BEC6DF03AD0030E0101086F0101E7
:103D78001751060D050EF326000EF422BD0EF3248E
:103D8800D96E0A0EF420DA6EDF50F6EC42F026D037
:103D98002BD001011751060D040EF326000EF42254
:103DA800BD0EF324D96E0A0EF420DA6EDF380F0B3D
:103DB8006BEC6DF00101196114D001011751060D6A
:103DC800040EF326000EF422BD0EF324D96E0A0E5B
:103DD800F420DA6EDF380F0B6BEC6DF001011F6F0A
:103DE80003D019C11FF100D0000E0101206FF90E98
:103DF8000101206501D06BD215C104F116C105F18E
:103E0800010120510DEC58F00009D8B45DD2010130
:103E18002051020DC90EF324D96E080EF420DA6E73
:103E2800DF503F0B5DEC61F001011C6F0101205177
:103E3800020D010EF326000EF422C90EF324D96EEA
:103E4800080EF420DA6EDF38E832070B01011B6F29
:103E580001011C5101011B5DD8B019D01CC11BF117
:103E680001012051020D010EF326000EF422C90EA5
:103E7800F324D96E080EF420DA6E01011B3B1B47B0
:103E8800DF5001011B191F0B1B19DF6E00D0010148
:103E98001A510101D8B42DD001012051020D010E93
:103EA800F326000EF422C90EF324D96E080EF4206E
:103EB800DA6EDF5001011819E00B1819DF6E0101E5
:103EC8002051020DC90EF324D96E080EF420DA6EC3
:103ED800DF5001011719C00B1719DF6E01012051BE
:103EE800020DC90EF324D96E080EF420DA6EC00E46
:103EF800DF1201012051020DC90EF324D96E080EFC
:103F0800F420DA6EDF503F0B01011719D8A444D012
:103F18001FC11BF101012051020D010EF326000EF5
:103F2800F422C90EF324D96E080EF420DA6E0101CA
:103F38001B3B1B47DF5001011B191F0B1B19DF6EB1
:103F480001012051020D010EF326000EF422C90EC4
:103F5800F324D96E080EF420DA6EDF501F0B01012E
:103F68001819D8B405D001011751F5EC6DF000D03F
:103F780001012051020D010EF326000EF422C90E94
:103F8800F324D96E080EF420DA6EDF5001011819F7
:103F9800E00B1819DF6E120001012051020DC90E45
:103FA800F324D96E080EF420DA6EDF38E832E832EE
:103FB800030B0009D8A4120001012051020D010EC3
:103FC800F326000EF422C90EF324D96E080EF4204D
:103FD800DA6EDF38E832070B070AD8A43BD00101B4
:103FE8002051020D010EF326000EF422C90EF3240F
:103FF800D96E080EF420DA6EDF5001011819E00BB3
:104008001819DF6E01012051020DC90EF324D96E73
:10401800080EF420DA6EDF5001011719C00B1719CA
:10402800DF6E1FC11BF101012051020D010EF326A5
:10403800000EF422C90EF324D96E080EF420DA6EAD
:1040480001011B3B1B47DF5001011B191F0B1B19EB
:10405800DF6E120001012051020D010EF326000E41
:10406800F422C90EF324D96E080EF420DA6EDF505C
:104078001F0B0101186145D001011F510001DC5DD2
:10408800D8A0120001012051020D010EF326000EE6
:10409800F422C90EF324D96E080EF420DA6EDF502C
:1040A80001011819E00B1819DF6E01012051020DEA
:1040B800C90EF324D96E080EF420DA6EDF50010120
:1040C8001719C00B1719DF6E1FC11BF10101205111
:1040D800020D010EF326000EF422C90EF324D96E48
:1040E800080EF420DA6E01011B3B1B47DF5001016B
:1040F8001B191F0B1B19DF6E01011751F5EC6DF031
:10410800120001012051020D010EF326000EF422C7
:10411800C90EF324D96E080EF420DA6EDF501F0B97
:1041280001011819D8A461D001012051020D010E16
:10413800F326000EF422C90EF324D96E080EF420DB
:10414800DA6EDF38E832070B01011F611200010146
:104158002051020D010EF326000EF422C90EF3249D
:10416800D96E080EF420DA6EDF38E832070B00014A
:10417800DC61120001012051020D010EF326000E30
:10418800F422C90EF324D96E080EF420DA6EDF503B
:1041980001011819E00B1819DF6E01012051020DF9
:1041A800C90EF324D96E080EF420DA6EDF5001012F
:1041B8001719C00B1719DF6E1FC11BF10101205120
:1041C800020D010EF326000EF422C90EF324D96E57
:1041D800080EF420DA6E01011B3B1B47DF5001017A
:1041E8001B191F0B1B19DF6E120001012051020D54
:1041F800010EF326000EF422C90EF324D96E080E20
:10420800F420DA6EDF501F0B01011B6F01011851FA
:1042180001011B5DD8B012000001DC5101011F5DD6
:10422800D8B0120001012051020D010EF326000E34
:10423800F422C90EF324D96E080EF420DA6EDF38A2
:10424800E832070B0001DC61120001012051020D68
:10425800010EF326000EF422C90EF324D96E080EBF
:10426800F420DA6EDF5001011819E00B1819DF6E1F
:1042780001012051020DC90EF324D96E080EF42055
:10428800DA6EDF5001011719C00B1719DF6E1FC155
:104298001BF101012051020D010EF326000EF4223C
:1042A800C90EF324D96E080EF420DA6E01011B3B07
:1042B8001B47DF5001011B191F0B1B19DF6E010182
:1042C8001751F5EC6DF012000101202B90D51F0E4F
:1042D8000101186160D0000E01011E6FF90E010185
:1042E8001E6501D058D0E20E0101046F010E0101D4
:1042F800056F01011E510DEC58F00009D8B447D0E4
:1043080015C107F116C108F101011E5154EC65F001
:1043180001011E51020D010EF326000EF422C90EF2
:10432800F324D96E080EF420DA6EDF500101181953
:10433800E00B1819DF6E01011E51020DC90EF3249E
:10434800D96E080EF420DA6EDF5001011719C00B80
:104358001719DF6E1FC11BF101011E51020D010E5D
:10436800F326000EF422C90EF324D96E080EF420A9
:10437800DA6E01011B3B1B47DF5001011B191F0BA4
:104388001B19DF6E01011751F5EC6DF012000101E8
:104398001E2BA4D700D01F0E010118611200AFC058
:1043A8001DF1F90E01011D6502D012001200010174
:1043B8001D51020D010EF326000EF422C90EF3243E
:1043C800D96E080EF420DA6EDF501F0B1F0AD8B41E
:1043D8000ED001011D51020DC90EF324D96E080E2D
:1043E800F420DA6EDF503F0B3F0AD8A454D015C131
:1043F80007F116C108F10001AF5154EC65F0000156
:10440800AF51020D010EF326000EF422C90EF3245B
:10441800D96E080EF420DA6EDF5001011819E00B8E
:104428001819DF6E0001AF51020DC90EF324D96EC1
:10443800080EF420DA6EDF5001011719C00B1719A6
:10444800DF6E1FC11BF10001AF51020D010EF326F3
:10445800000EF422C90EF324D96E080EF420DA6E89
:1044680001011B3B1B47DF5001011B191F0B1B19C7
:10447800DF6E0001AF51020DC90EF324D96E080E8C
:10448800F420DA6E3F0EDF1601011751F5EC6DF0DE
:104498001DC1AFF01200F90E01011D19D8A404D0F6
:1044A800000E0001AF6F00D001011D2BF90E0101B4
:1044B8001D657DD7120012001200000E0001D66F94
:1044C800000E0001D76F000E0001B36F000E00014F
:1044D800BB6F020E88EC6CF00009D8B43BD1010E1A
:1044E8000001D66F0001B52B020E0001B519D8A442
:1044F80000D1000E0001B56FFCD0000E0001B36FB3
:10450800000E0101276F1E0E266F000E0101286F95
:10451800020EE1EC65F01ED1010E0001B36F000E32
:104528000101276F1E0E266F000E0101286F020E73
:10453800E1EC65F00FD10001B505D8A404D0010E57
:104548000001B36F00D0000E0101276F400E266FE7
:10455800000E0101286F020EE1EC65F0FBD00001AE
:10456800B505D8A404D0010E0001B36F00D0000E29
:104578000101276F7D0E266F000E0101286F020EC4
:10458800E1EC65F0E7D000D00001B505D8A404D06F
:10459800010E0001B36F00D0000E0101276FFA0E63
:1045A800266F000E0101286F020EE1EC65F0D2D0F3
:1045B8000001B505D8A404D0010E0001B36F00D0E6
:1045C800010E0101276FF40E266F000E0101286FFE
:1045D800020EE1EC65F0BED00001B505D8A404D008
:1045E800010E0001B36F00D0030E0101276FE80E22
:1045F800266F000E0101286F020EE1EC65F0AAD0CB
:104608000001B505D8A404D0010E0001B36F00D095
:10461800090E0101276FC40E266F000E0101286FD5
:10462800020EE1EC65F096D00001B505D8A404D0DF
:10463800010E0001B36F00D0130E0101276F880E21
:10464800266F000E0101286F020EE1EC65F082D0A2
:104658000001B505D8A424D0010E0001B36F0001F4
:10466800B4510001D8A40DD0000E0101276F500EDF
:10467800266F000E0101286F020EE1EC65F0010EB5
:104688000CD0090E0101276F740E266F000E010170
:10469800286F020EE1EC65F0000E0001B46F5AD0ED
:1046A8000001B4510001D8B40CD0000E0101276FED
:1046B800500E266F000E0101286F020EE1EC65F026
:1046C80049D0090E0101276F740E266F000E0101F3
:1046D800286F020EE1EC65F03DD0000E0101276F56
:1046E8001E0E266F000E0101286F020EE1EC65F028
:1046F80031D00001B251000AD8B4FFD6010AD8B4AB
:104708000BD7030AD8B417D7010AD8B428D7070A91
:10471800D8B43AD7010AD8B44BD7030AD8B45CD76F
:104728000D0AD8B431D7070AD8B42ED7010AD8B49D
:104738002BD7030AD8B428D7010AD8B425D71F0A1B
:10474800D8B45ED7010AD8B46FD7030AD8B480D7D3
:10475800C4D700D0030E88EC6CF00009D8B43BD164
:10476800010E0001D76F0001B62B020E0001B61929
:10477800D8A400D1000E0001B66FFCD0000E0001D5
:10478800BB6F000E0101276F1E0E266F000E010180
:10479800286F030EE1EC65F01ED1010E0001BB6F1E
:1047A800000E0101276F1E0E266F000E0101286FF3
:1047B800030EE1EC65F00FD10001B605D8A404D0D2
:1047C800010E0001BB6F00D0000E0101276F400EE3
:1047D800266F000E0101286F030EE1EC65F0FBD097
:1047E8000001B605D8A404D0010E0001BB6F00D0AB
:1047F800000E0101276F7D0E266F000E0101286F44
:10480800030EE1EC65F0E7D000D00001B605D8A4AE
:1048180004D0010E0001BB6F00D0000E0101276F0C
:10482800FA0E266F000E0101286F030EE1EC65F009
:10483800D2D00001B605D8A404D0010E0001BB6F88
:1048480000D0010E0101276FF40E266F000E010142
:10485800286F030EE1EC65F0BED00001B605D8A4C0
:1048680004D0010E0001BB6F00D0030E0101276FB9
:10487800E80E266F000E0101286F030EE1EC65F0CB
:10488800AAD00001B605D8A404D0010E0001BB6F60
:1048980000D0090E0101276FC40E266F000E01011A
:1048A800286F030EE1EC65F096D00001B605D8A498
:1048B80004D0010E0001BB6F00D0130E0101276F59
:1048C800880E266F000E0101286F030EE1EC65F0DB
:1048D80082D00001B605D8A424D0010E0001BB6F18
:1048E8000001BC510001D8A40DD0000E0101276FB2
:1048F800500E266F000E0101286F030EE1EC65F0E3
:10490800010E0CD0090E0101276F740E266F000EE0
:104918000101286F030EE1EC65F0000E0001BC6F89
:104928005AD00001BC510001D8B40CD0000E0101CE
:10493800276F500E266F000E0101286F030EE1EC61
:1049480065F049D0090E0101276F740E266F000E1D
:104958000101286F030EE1EC65F03DD0000E010166
:10496800276F1E0E266F000E0101286F030EE1EC63
:1049780065F031D00001BA51000AD8B4FFD6010A57
:10498800D8B40BD7030AD8B417D7010AD8B428D794
:10499800070AD8B43AD7010AD8B44BD7030AD8B40F
:1049A8005CD70D0AD8B431D7070AD8B42ED7010A74
:1049B800D8B42BD7030AD8B428D7010AD8B425D736
:1049C8001F0AD8B45ED7010AD8B46FD7030AD8B47F
:1049D80080D7C4D700D0090E0001B219D8A40ED0D0
:1049E8000001D7510001D8B409D00001B651000127
:1049F800D8A404D0010E0001B36F00D00A0E000144
:104A0800BA19D8A40ED00001D6510001D8B409D0E3
:104A18000001B5510001D8A404D0010E0001BB6FFC
:104A280000D0080E0001B219D8A40ED00001D75149
:104A38000001D8B409D00001BB510001D8B404D09A
:104A4800010E0001B36F00D0070E0001BA19D8A4F7
:104A58000ED00001D6510001D8B409D00001B351DD
:104A68000001D8B404D0010E0001BB6F00D00001D2
:104A7800BB510001D8B410D00001B8510001D8B41E
:104A880003D00001B80700D00001B9510001D8B423
:104A980003D00001B90700D00001B3510001D8B418
:104AA80010D00001B0510001D8B403D00001B00704
:104AB80000D00001B1510001D8B403D00001B10702
:104AC80000D00001B1510001D8B403D0000E00019C
:104AD800B36F0001B9510001D8B403D0000E000132
:104AE800BB6F0001B0510001D8B425D036D023D017
:104AF8000A0E0001B16F0001B151040F13D00A0E64
:104B08000001B16F0001B151030F0CD00A0E000172
:104B1800B16F0001B151020F05D00A0E0001B16F4B
:104B28000001B1290001B06F18D00A0E0001B16F61
:104B3800B1C0B0F012D00001B2510B0AD8B4D8D726
:104B4800070AD8B4DCD7010AD8B4E0D7030AD8B426
:104B5800E4D7010AD8B4E9D700D00001B851000160
:104B6800D8B425D036D023D00A0E0001B96F000181
:104B7800B951040F13D00A0E0001B96F0001B951E1
:104B8800030F0CD00A0E0001B96F0001B951020FD2
:104B980005D00A0E0001B96F0001B9290001B86FEC
:104BA80018D00A0E0001B96FB9C0B8F012D00001D0
:104BB800BA510B0AD8B4D8D7070AD8B4DCD7010A37
:104BC800D8B4E0D7030AD8B4E4D7010AD8B4E9D7EF
:104BD80000D00001B351C5EC6FF00001BB51B9EC36
:104BE8006FF012000101416F0101C651D8A404D031
:104BF8000101DF51D8B449D2800E0101BE19D8B4E1
:104C080058D02CC00DF12DC00EF1DFC20FF1E0C25B
:104C180010F108EC69F001010D5101010E11D8A441
:104C280013D0000E01010E6F0001C951010D000ED5
:104C3800F324D96E060EF420DA6EDF5095EC6EF090
:104C4800010E0001C36F26D02CC10EF1C9C000F1BE
:104C58000101016BD2C102F10101036BC90E01010F
:104C6800046F000E056F000E066F000E076F26EC2E
:104C780068F0000E01010025D96E060E0101012120
:104C8800DA6EDF5095EC6EF0000E0001C36F000E77
:104C98003A6E00D0020E0101DF19D8A406D0010E29
:104CA8000101C66F000E0101DF6F000E0101DD6F0B
:104CB8002BD0020E0101DF19D8A407D0010E010183
:104CC800C66F000E0101DF6F1FD00101DD2B010E41
:104CD8000101DD6519D0F25000D0070E0CEC46F04A
:104CE800000E0101C66F000E0101DF6F010E010108
:104CF800F36F000E0101016F040E006F030E010136
:104D0800026F91EC51F000D02C042D10D8A407D0DC
:104D1800010E3E6EA3C034F0A4C035F000D0080EDA
:104D280088EC6CF00009D8B408D00101CF51D8B490
:104D380004D0010E0101D66F00D0080E49EC6EF0C8
:104D48000009D8B42ED00101CF51D8A41CD0F6C187
:104D58000CF101010D6BEDEC5EF001010C5101014C
:104D6800D06F0101D05100080101F6250101CF6F74
:104D7800D0C126F10101276B010E0101286F080E31
:104D8800E1EC65F00ED0CFC126F10101276B010ED1
:104D98000101286F080EE1EC65F0000E0101CF6FEC
:104DA80000D00101C7510101D8A406D00201245145
:104DB80002012511D8B442D10001C351D8B43ED163
:104DC800010141510101D8B439D126C22DF127C2C0
:104DD8002EF101012D1F2E1F2D4B2E2B040E01012C
:104DE8000C6F010EF2EC54F001012D5101010C255C
:104DF8000101466F01012E5101010D210101476F8B
:104E080046C12DF147C12EF101012D1F2E1F2D4B3B
:104E18002E2B2DC144F12EC145F1080E0101475D2D
:104E2800D8A00BD0FE0E0101465D0F0E01014759B7
:104E3800D8B003D00101C72B36D0010146290F0E87
:104E480001014759D8A00CD0FD0E0101465D170E8F
:104E580001014759D8B004D0020E0101C72723D059
:104E6800080E0101455DD8A00BD0FE0E0101445D7E
:104E78000F0E01014559D8B003D00101C70713D05F
:104E8800010144290F0E01014559D8A00CD0FD0E8F
:104E98000101445D170E01014559D8B004D0020E36
:104EA8000101C75F00D0040E01010C6F010EF2EC86
:104EB80054F00CC146F10DC147F1A3C000F1A4C0E4
:104EC80001F146C102F147C103F1000E0101046F6F
:104ED800000E056F010E066F000E076F26EC68F0D6
:104EE80000C137F101C138F137C117F138C118F1E4
:104EF80024C219F125C21AF1000E01011B6F000E20
:104F08001C6F010E1D6F000E1E6F5EEC5BF017C16B
:104F180042F118C143F142C10DF143C10EF1070E30
:104F28000101106F0F6908EC69F00DC13DF10EC168
:104F38003EF13DC10DF13EC10EF1040E01010F6FAE
:104F4800010E4AEC41F001013D510101425F0101AE
:104F58003E510101435B42C1A3F043C1A4F042C1E9
:104F680006F143C107F1070E0101096F0869B2ECA8
:104F780066F006C12CF007C12DF0C9C017F1010178
:104F8800186BC7C119F101011A6BC90E01011B6F1A
:104F9800000E1C6F000E1D6F000E1E6F5EEC5BF0A6
:104FA800010117510001C96FC7C12FF10101306B11
:104FB800000E0101C76F000E0201256F000E246F5D
:104FC800000E0201196F000E186F2C502D10D8A476
:104FD80008D0000E2D6E100E2C6E16C2A3F017C24C
:104FE800A4F0070E356E3468020E0101DF6F040E5F
:104FF80001010C6F010EF2EC54F00001A351010104
:105008000C2501013F6F0001A45101010D2101018F
:10501800406FB5EC70F00101316F3FC133F1010110
:1050280040510101326F000E0101016F040E006F43
:10503800020E0101026F91EC51F023D00001C95119
:105048000101DE19D8A40BD00101C651D8B407D08C
:10505800010141510101D8A414D001D012D001019D
:10506800D651D8B40ED09DEC70F00009D8B409D050
:10507800010141510101D8B404D0000E0101D66FDD
:1050880000D00201344B352B4ED0060E49EC6EF0A1
:105098000009D8B41CD0000E01010D6F320E0C6F40
:1050A800EDEC5EF0540E01010C250101396F240E60
:1050B80001010D2101013A6F39C126F13AC127F1E9
:1050C800000E0101286F060EE1EC65F000D0060E17
:1050D80088EC6CF00009D8B40DD0000E01010E6FF9
:1050E8000101FB5195EC6EF0000E0201E26F010E1A
:1050F800E16F00D00201E2510BE1330E0201E15DE4
:10510800D8B006D0DCEC6EF00201E14BE22B00D007
:10511800330E0201E1190201E211D8A404D0020100
:10512800E14BE22B00D00101DE510101D8A404D0EB
:10513800C80E0101DE6F03D00101DE0700D0050EA5
:1051480088EC6CF00009D8A4A4EC69F0090E49ECCD
:105158006EF00009D8B44CD0A9EC70F001012D6FA5
:1051680001012D513E0DF3CF3BF1F4CF3CF13BC192
:1051780008F13CC109F1DFEC6DF008C10BF109C180
:105188000CF10AC10DF1000E01010E6F7A0E01013A
:105198000F6F440E0101106FDAEC4DF00BC134F1C2
:1051A8000CC135F10DC136F1000E01010B6F280E4F
:1051B80001010C6F430E01010D6F34C108F135C1B7
:1051C80009F136C10AF171EC4AF008C117F109C1B9
:1051D80018F10AC119F131EC4DF017C126F118C1C7
:1051E80027F1010E0101286F090EE1EC65F000D0EE
:1051F800090E88EC6CF00009D8B417D0070E0CEC37
:1052080046F0000E0101C66F000E0101DF6F010EAE
:105218000101F36F000E0101016F040E006F050E0E
:105228000101026F91EC51F000D00F0E88EC6CF088
:105238000009D8B404D0010E0101F36F00D00E0E9E
:1052480088EC6CF01200000E0101176F940E01013A
:10525800256F030E0101266F25C1D9FF26C1DAFF8C
:10526800010EDF6E000E0101186F060E0101186FA6
:10527800010E0101226F010E0101226501D096D0B5
:105288000001C051060DBD0EF3240101066F0A0E80
:10529800F4200101076FE20E0101086F010E010100
:1052A800096F040E01010A6F07EC6AF00009D8A41F
:1052B80049D00001C051060D050EF326000EF42258
:1052C800BD0EF324D96E0A0EF420DA6EDE28D8B4A7
:1052D80039D00001C051060DBD0EF3240101006F45
:1052E8000A0EF4200101016F000E0101026F25C1B1
:1052F80003F126C104F1010E0101056F040E01013D
:10530800066F33EC64F0010120EE05F02551D92633
:105318002651DA22040E0101086F0001C051060D62
:10532800050EF326000EF422BD0EF324E16E0A0EDC
:10533800F420E26EE750F6EC42F0DF6E010E010158
:10534800176F03D00101220700D03E0E0001C06193
:1053580003D00001C02B27D0000E0001C06F01014F
:1053680017510101D8A422D0E20E0101006F010EED
:105378000101016F000E0101026F25C103F126C171
:1053880004F1010E0101056F040E0101066F33ECF3
:1053980064F0010120EE05F02551D9262651DA22C4
:1053A800FF0EDF6E03D00101222B65D7000E01012D
:1053B8001C6F000E0101246F000E0101196FBFC0A0
:1053C80016F11AD20001D251D8B4FCD001012451EF
:1053D800010D000EF324D96E020EF420DA6EDF50B0
:1053E8000101236F1E0E01010C6F010E01010D6FEB
:1053F8000101235108EC61F0010E0101242501018E
:10540800006F0101016B000E0123000E0101036F03
:10541800050E026FE6EC6CF0010E01010027000E8C
:10542800010101230101005101012525D96E010166
:10543800015101012621DA6E1EC1DFFF010E0101B3
:1054480024250101006F0101016B000E0123000EEC
:105458000101036F050E026FE6EC6CF0020E01010C
:105468000027000E0101012301010051010125253A
:10547800D96E0101015101012621DA6E1FC1DFFF3A
:10548800010E010124250101006F0101016B000ECD
:105498000123000E0101036F050E026FE6EC6CF0AC
:1054A800030E01010027000E010101230101005133
:1054B80001012525D96E0101015101012621DA6E6C
:1054C80020C1DFFF010E010124250101006F010148
:1054D800016B000E0123000E0101036F050E026F20
:1054E800E6EC6CF0040E01010027000E0101012317
:1054F8000101005101012525D96E01010151010168
:105508002621DA6E21C1DFFF01012351020D010EB0
:10551800F326000EF422C90EF324D96E080EF420E7
:10552800DA6EDF38E832070B0101146F050E01014E
:10553800156F0101D89014370101152FFAD7010111
:10554800145101011A6F01012351020D010EF326B6
:10555800000EF422C90EF324D96E080EF420DA6E78
:10556800DF501F0B01011A27010E0101242501013B
:10557800006F0101016B000E0123000E0101036F92
:10558800050E026FE6EC6CF0050E01010027000E17
:10559800010101230101005101012525D96E0101F5
:1055A800015101012621DA6E1AC1DFFF050E010142
:1055B8001C270101242B0001D251D8B41DD10001B0
:1055C800D2071AD1E20E0101046F010E0101056F25
:1055D8000001BF510DEC58F00009D8A4F8D0000123
:1055E800BF51020DC90EF324D96E080EF420DA6EED
:1055F800DF503F0B3F0AD8B4EAD01E0E01010C6FF2
:10560800010E01010D6F0001BF5108EC61F0010EA0
:10561800010124250101006F0101016B000E012326
:10562800000E0101036F050E026FE6EC6CF0010E2F
:1056380001010027000E01010123010100510101B0
:105648002525D96E0101015101012621DA6E1EC1FD
:10565800DFFF010E010124250101006F0101016B2B
:10566800000E0123000E0101036F050E026FE6EC28
:105678006CF0020E01010027000E01010123010157
:10568800005101012525D96E010101510101262191
:10569800DA6E1FC1DFFF010E010124250101006F31
:1056A8000101016B000E0123000E0101036F050EBD
:1056B800026FE6EC6CF0030E01010027000E0101F9
:1056C80001230101005101012525D96E0101015174
:1056D80001012621DA6E20C1DFFF010E0101242518
:1056E8000101006F0101016B000E0123000E010191
:1056F800036F050E026FE6EC6CF0040E0101002743
:10570800000E010101230101005101012525D96E77
:105718000101015101012621DA6E21C1DFFF0001DB
:10572800BF51020D010EF326000EF422C90EF32418
:10573800D96E080EF420DA6EDF38E832070B010163
:10574800146F050E0101156F0101D890143701017E
:10575800152FFAD70101145101011B6F0001BF5128
:10576800020D010EF326000EF422C90EF324D96EA1
:10577800080EF420DA6EDF501F0B01011B27010E03
:10578800010124250101006F0101016B000E0123B5
:10579800000E0101036F050E026FE6EC6CF0050EBA
:1057A80001010027000E010101230101005101013F
:1057B8002525D96E0101015101012621DA6E1BC18F
:1057C800DFFF050E01011C270101242B00D0F90E73
:1057D8000001BF6103D00001BF2B04D0000E0001FF
:1057E800BF6F00D00001BF5101011619D8A404D021
:1057F800010E0101196F00D0080E0101246107D0C4
:10580800010119510101D8A402D0DCD500D0010151
:10581800185101011C2501011D6F01011D51010DC8
:10582800F35001012525D96EF45001012621DA6EC5
:10583800CCC0DFFF01011D2B01011D511200120018
:1058480001012E510101D8B4F2D2C90E0101306113
:10585800EED22CC1D9FF2DC1DAFFDE28D8A456D04C
:105868000101DF51D8A452D00101C651D8B422D0C9
:10587800050E49EC6EF00009D8B48DD2060E010170
:105888000D6F0E0E0C6FEDEC5EF01C0E01010C2579
:1058980001013B6F0C0E01010D2101013C6F3BC161
:1058A80026F13CC127F1000E0101286F050EE1EC3D
:1058B80065F071D20E0E49EC6EF00009D8B46BD2C7
:1058C800050E49EC6EF00009D8B41CD0060E010193
:1058D8000D6F0E0E0C6FEDEC5EF01C0E01010C2529
:1058E80001013D6F0C0E01010D2101013E6F3DC10B
:1058F80026F13EC127F1000E0101286F050EE1ECEB
:1059080065F000D0010E0101C66F45D2020E0101FB
:105918002E6541D2010120EE01F02C51D9262D51DE
:10592800DA22DF500101316F010131510101506F5D
:10593800516B010150510101516F506B010120EE73
:1059480002F02C51D9262D51DA22DF500101316F96
:105958000101315101015027000E512350C133F18B
:1059680051C134F1040E01010C6F010EF2EC54F038
:105978000CC14CF10DC14DF1B3C117F1B4C118F10F
:105988004CC119F14DC11AF1FF0E01011B6F070E31
:105998001C6F000E1D6F000E1E6F5EEC5BF017C1D2
:1059A8003FF118C140F1A3C000F1A4C001F14CC1FE
:1059B80002F14DC103F1000E0101046F000E056FE5
:1059C800010E066F000E076F26EC68F000C14EF15D
:1059D80001C14FF14EC146F14FC147F14EC100F12F
:1059E8004FC101F1000E0101036F3D0E026F000E61
:1059F8000101046F000E056F010E066F000E076FA0
:105A080026EC68F000C14CF101C14DF101012F51A4
:105A18000101D8B415D04CC100F14DC101F1000EFF
:105A28000101036F050E026F000E0101046F000EE5
:105A3800056F010E066F000E076F26EC68F014D094
:105A48004CC100F14DC101F1000E0101036F000EC0
:105A5800026F000E0101046F000E056F010E066F44
:105A6800000E076F26EC68F000C14EF101C14FF13E
:105A780050C117F151C118F13FC119F140C11AF1D4
:105A8800000E01011B6F000E1C6F010E1D6F000E32
:105A98001E6F5EEC5BF017C14CF118C14DF14CC1A3
:105AA80050F14DC151F14EC131F14FC132F10101F7
:105AB800311F321F314B322B010150510101312569
:105AC80001014A6F010151510101322101014B6F5E
:105AD8004AC131F14BC132F10101311F321F314B43
:105AE800322BFF0E010131250101486FFF0E010124
:105AF80032210101496F2CC1D9FF2DC1DAFF010103
:105B08003051DE18D8A414D0080E01014B5DD8A07E
:105B180005D0800E01014B5DD8A00AD0080E010106
:105B2800495DD8A075D0800E0101495DD8B070D00C
:105B38000101F351D8A404D00101C651D8A4D4D08E
:105B48004EC117F14FC118F150C119F151C11AF1E5
:105B5800000E01011B6F000E1C6F010E1D6F000E61
:105B68001E6F5EEC5BF017C124F218C125F24EC11E
:105B78000DF14FC10EF1070E0101106F0F6908EC0E
:105B880069F00DC131F10EC132F150C10DF151C1B1
:105B98000EF1070E0101106F0F6908EC69F00101A1
:105BA8000D1F01010E1F01010D4B0E2B01010D519F
:105BB800010131250201266F01010E510101322137
:105BC8000201276F30C117F10101186B2CC1D9FFF1
:105BD8002DC1DAFFDF500101316F0101315101019F
:105BE800196F1A6BC90E01011B6F000E1C6F000E96
:105BF8001D6F000E1E6F5EEC5BF001011751010175
:105C0800C76F010E0101DF6F000E0101C66F6CD076
:105C18000101505101014E5D0101515101014F59DE
:105C2800D8B047D0800E01014B5DD8B042D00101F9
:105C38004E510008010150250101456F01014551F0
:105C48000001A327000EA4234EC131F14FC132F148
:105C58000101311F321F314B322B0101505101011B
:105C6800312502012C6F010151510101322102013C
:105C78002D6F02012C5102012E5D02012D510201EE
:105C88002F59D8B016D04EC131F14FC132F10101B0
:105C9800311F321F314B322B010150510101312587
:105CA80002012E6F010151510101322102012F6FB2
:105CB80000D00101C651D8B404D00101DF51D8A4E5
:105CC80004D0010E0101C66F00D001014651020146
:105CD800445D0101475102014559D8B005D046C17C
:105CE80044F247C145F200D0A9EC70F00101316FD0
:105CF800010131513E0DF3CF41F1F4CF42F141C1E1
:105D080008F142C109F1DFEC6DF008C10BF109C1DE
:105D18000CF10AC10DF1000E01010E6F7A0E01019E
:105D28000F6F440E0101106FDAEC4DF00BC135F125
:105D38000CC136F10DC137F1000E01010B6F280EB1
:105D480001010C6F430E01010D6F35C108F136C119
:105D580009F137C10AF171EC4AF008C117F109C11C
:105D680018F10AC119F131EC4DF017C126F118C12B
:105D780027F1010E0101286F090EE1EC65F0000E14
:105D88000201356F000E346F030E01012E6503D03A
:105D9800010E120000D0A9EC70F00101316F010171
:105DA80031513E0DF3CF43F1F4CF44F143C108F133
:105DB80044C109F1DFEC6DF008C10BF109C10CF128
:105DC8000AC10DF1000E01010E6F7A0E01010F6F6D
:105DD800440E0101106FDAEC4DF00BC138F10CC123
:105DE80039F10DC13AF1000E01010B6F280E0101C6
:105DF8000C6F430E01010D6F38C108F139C109F16B
:105E08003AC10AF171EC4AF008C117F109C118F159
:105E18000AC119F131EC4DF017C126F118C127F16B
:105E2800010E0101286F090EE1EC65F000D0000EAB
:105E380012001200000E01016D6F000E0001CB6F01
:105E4800000E0101006F000E44EC6CF0000E4A6E6B
:105E5800000E446E200ED3EC4FF0000E0001D06F00
:105E6800000E0101B96F0001DB51ADEC6FF0020EBD
:105E7800C9EC6CF0600ED3EC4FF0000E01010E6F10
:105E8800000E95EC6EF0190E0101276F640E266F57
:105E9800000E0101286F110EE1EC65F0000E010102
:105EA800276FB40E266F010E0101286F120EE1EC68
:105EB80065F0010E0101C16F04000101BA51D8B4A7
:105EC80009D0000E0101BA6F3E0E61EC34F00101F9
:105ED800CB2B00D00101BC51D8B409D0000E010170
:105EE800BC6F200ED3EC4FF0600ED3EC4FF00101E5
:105EF800BD51D8B407D0600ED3EC4FF0000E0101AD
:105F0800BD6F00D00101BB51D8A404D00101B95123
:105F1800D8B4C0D1000E0101756F000E0101786F71
:105F2800000E776F000E0101CB6F0101BB51D8B491
:105F380055D0000E0101BB6FDDEC6FF00101ED6F74
:105F4800DDEC6FF0000E0101736F1DD0010173517C
:105F5800010D4B0EF324D96E030EF420DA6EDDEC3E
:105F68006FF0DF6E01017351010D4B0EF324D96EF2
:105F7800030EF420DA6EDF50010175190101756F07
:105F88000101732B00D0FF0E01015E6FFF0E0101AE
:105F98005F6F0101ED510101606F616B01015E519D
:105FA8000101602701015F51010161230101735162
:105FB8000101626F636B010160510101625D0101C2
:105FC8006351800A0101646F01016151800A010176
:105FD8006459D8A0BBD7000E0001D06F0101B95198
:105FE800D8B41DD0000E0101746F3A0E010174651A
:105FF80001D011D001017451010D4B0EF324D96E5B
:10600800030EF420DA6EDF50010175190101756F76
:106018000101742BEAD7000E0101B96F00D04CC3FF
:1060280077F10101786B010177510101786F776B86
:1060380003014B5101017727000E78230101DC5140
:106048000101D8B41FD0D00E01015E6FCA0EE82E30
:10605800FED75E2FFCD7D00E01015E6FCA0EE82E68
:10606800FED75E2FFCD7250E0101775D090E0101D1
:106078007859D8B0EDD077C11AF178C11BF16DEC21
:1060880066F0E6D0010E01016D6F01017551010145
:10609800D8A4DED001D0DCD00101AF5101017719BD
:1060A80005E10101B05101017819D8A4D1D001014D
:1060B800AF510101B011D8A42BD0000E01016F6FB0
:1060C800000E706F000E716F000E726F0101725139
:1060D8001FE1100E0101705D020E01017159D8B067
:1060E80017D001D015D06FC105F170C106F171C18B
:1060F80007F172C108F1C9EC6DF0000E01016F27BC
:10610800100E7023000E7123000E7223DFD700D00B
:10611800000E0101766F370E0101766501D055D06A
:10612800AFC165F1B0C166F10101676B686B65C10C
:1061380000F166C101F167C102F168C103F1380ECF
:106148000101046F000E056F000E066F000E076F49
:10615800ACEC67F001017651010100250101696F7E
:10616800000E0101012101016A6F000E01010221E7
:1061780001016B6F000E0101032101016C6F69C100
:1061880005F16AC106F16BC107F16CC108F10101A3
:106198007651010D020EF326000EF4224B0EF32465
:1061A8000101096F030EF42001010A6F040E0101B9
:1061B8000B6F000E0C6F000E0D6F000E0E6F7DEC56
:1061C80064F0040E01017627A6D70101AF4BB02B6E
:1061D8000101B1510101AF193BE10101B2510101C6
:1061E800B019D8A435D0000E0101056F000E066F56
:1061F800020E076F000E086FEE0E0101096F010E07
:1062080001010A6F010E01010B6F000E0C6F000EE9
:106218000D6F000E0E6F7DEC64F0010E0101056F2D
:10622800000E066F020E076F000E086F900E010138
:10623800096F020E01010A6F0B0E01010B6F000EB0
:106248000C6F000E0D6F000E0E6F7DEC64F000D029
:10625800030E0101276FE80E266F000E0101286F5B
:10626800110EE1EC65F00101DC510101D8B412D046
:106278000101775101017811D8A40CD0270E010132
:10628800276F100E266F000E0101286F110EE1EC2A
:1062980065F000D00101DC510101D8A424D0020E20
:1062A8000101CB6506D0010E01016D6F000E0101E1
:1062B800CB6F01016D510101D8B415D00101B15165
:1062C8000101AF5D0101B2510101B059D8B007D049
:1062D800AFC10AF1B0C10BF171EC6EF000D0000E45
:1062E80001016D6F00D0000E0101016F010E006FFA
:1062F800EF0E0101026F010E0101036F2CEC4FF04C
:106308000009D8B438D0270E01010C6F040E010122
:106318000D6FEC0E01010E6F010E01010F6F0101EF
:10632800EF51B1EC3BF00009D8B425D00401285155
:10633800C00B01016E6F01016E45E846030B0101B8
:106348006E6F030E01016E19D8A415D0290E010134
:10635800066F040E0101076F4B0E0101086F030E53
:106368000101096F3B0E01010A6F02EC6BF0010E8F
:106378000101B96F00D0020E88EC6CF00009D8B4A6
:1063880005D0937693B602D08A9600D0110E88EC89
:106398006CF00009D8B402D0FF0000D0020E49EC1E
:1063A8006EF00009D8B40BD0000E0101276FFA0E69
:1063B800266F000E0101286F020EE1EC65F0110E48
:1063C80049EC6EF00009D8B40BD0030E0101276F19
:1063D800E80E266F000E0101286F110EE1EC65F042
:1063E800120E88EC6CF00009D8B466D5FF0064D5AD
:1063F8001200140E0101266F010E0101276F4CD205
:10640800250E01012D19D8B405D001012D510FEC2D
:106418006FF042D2000E01012C6F000E2B6F000EA0
:1064280001012A6F07D001012A850101124B132BA4
:1064380001D00BD012C1F6FF13C1F7FF0800F550C9
:10644800300AD8B4F0D701D0F5D712C1F6FF13C17E
:10645800F7FF0800F5509BEC6DF0D8A0A5D0000E12
:1064680001012C6F000E2B6F00D02BC100F12CC145
:1064780001F1000E0101036F0A0E026FE6EC6CF0E9
:1064880000C12BF101C12CF1D00E01011C6FFF0ED0
:1064980001011D6F12C1F6FF13C1F7FF0800F55087
:1064A80001011E6F1F6B01011C5101011E27010113
:1064B8001D5101011F2301011E5101012B2701015B
:1064C8001F5101012C230101124B132B12C1F6FF9E
:1064D80013C1F7FF0800F5509BEC6DF0D8A064D00D
:1064E800C4D762D012007FD000D001012A8F7BD0A0
:1064F80001012B510101235D01012C510101245996
:10650800D8B009D00101235101012B5F01012451A9
:1065180001012C5B0AD0000E01012C6F000E2B6FBD
:1065280004D0200E0FEC6FF000D001012B07D8A08B
:106538002C0701012B29F5E101012C29D8B40DD034
:10654800F0D70BD021C1D9FF22C1DAFFDF500FEC01
:106558006FF00101214B222B00D001012307D8A0A5
:10656800240701012329EEE101012429D8B494D19B
:10657800E9D792D126C1D9FF27C1DAFFDF5001013F
:106588002D6F020E01012627000E272300D02D0EA5
:106598000101216F010E0101226F000E0101246F1C
:1065A800010E236FA5D71FD012C1F6FF13C1F7FF45
:1065B8000101124B132B0800F5CF2DF101012D51CC
:1065C800000AD8B41200580AD8B48FD73B0AD8B4F6
:1065D800D1D7070AD8B407D00D0AD8B404D0110A05
:1065E800D8B483D7D4D701012ABF19D026C1D9FF7F
:1065F80027C1DAFFDECF28F1DDCF29F1020E010134
:106608002627000E2723010129AF5DD0030E0101C3
:106618002A130101286D291FD8B0292B54D026C16F
:10662800D9FF27C1DAFFDECF28F1DDCF29F1020E2D
:1066380001012627000E272346D0010E01012D6FE8
:10664800050E01012D19D8B448D001D046D001015A
:106658002D51020DBF0EF324F66EFE0EF420F76ED8
:106668000900F5500101285D0900F550010129597B
:10667800D8A033D001D031D001012D2BE1D72DD0B6
:10668800010E01012D6F040E01012D19D8B425D07A
:1066980001D023D001012D51020DC90EF324F66E4D
:1066A800FE0EF420F76E0900F5500101285D09007F
:1066B800F55001012959D8A010D001D00ED0010100
:1066C8002D2BE1D70AD001012A51800B000AD8B43A
:1066D800B4D7800AD8B4D4D700D001012B51010116
:1066E8002C11D8B40CD02AC11CF1030E01011C17BF
:1066F800D8B405D001012B07D8A02C0700D0800EF4
:1067080001012DBF7F0E01011C6F01012B510101F9
:106718002D5D01012C51800A01011C59D8B00BD004
:1067280001012D5101012B5F000E01012DBFFF0E4C
:1067380001012C5B06D0000E01012C6F000E2B6F9F
:1067480000D001012AA520D02AC11CF1030E0101A5
:106758001C17D8B404D02D0E0FEC6FF000D0010137
:106768002B5101012C11D8B42FD0300E0FEC6FF043
:1067780001012B07D8A02C0701012B5101012C1175
:10678800D8B422D0F2D720D001012B5101012C110D
:10679800D8B40FD0200E0FEC6FF001012B07D8A052
:1067A8002C0701012B5101012C11D8B402D0F2D7CA
:1067B80000D02AC11CF1030E01011C17D8B404D063
:1067C8002D0E0FEC6FF000D02DC125F15DD04DD00E
:1067D80001012551020DBF0EF324F66EFE0EF420C2
:1067E800F76E0900F5CF08F10A00F5CF09F128C1C5
:1067F80006F129C107F1B2EC66F006C10DF107C137
:106808000EF1000E0101106F0A0E0F6F08EC69F00F
:1068180001010D51300F01012D6F31D028C106F152
:1068280029C107F101012551020DC90EF324F66EA5
:10683800FE0EF420F76E0900F5CF08F10A00F5CF37
:1068480009F1B2EC66F0010106510F0B0101206F4E
:1068580001012051010D6A0EF324F66EFF0EF4209B
:10686800F76E0800F5CF2DF10AD001012A51800BEF
:10687800000AD8B4ADD7800AD8B4D0D700D0010167
:106888002D510FEC6FF000D00101250701012529DA
:10689800D8B402D0EAD700D012C1F6FF13C1F7FF6F
:1068A8000101124B132B0800F5CF2DF101012D51D9
:1068B800D8B41200A5D5120012000101046F01011D
:1068C8000451020132250201326F000E0201332108
:1068D8000201336F000E0101056F180E01010565F5
:1068E80001D072D001010551010D320EF324D96E89
:1068F800030EF420DA6EDF50D8A463D001010551ED
:10690800020D000EF324D96E030EF420DA6E010195
:1069180004510101026F036B010E01010227000EF1
:106928000323DE500101025DDE5001010359D8B096
:106938002DD001010551020D000EF324D96E030E6E
:10694800F420DA6EDECF00F1DDCF01F10101045150
:106958000101026F036B0101021F031F024B032B8E
:106968000101005101010227010101510101032325
:1069780001010551020D000EF324D96E030EF42017
:10698800DA6E02C1DEFF03C1DDFF1BD00101055134
:10699800020D000EF324D96E030EF420DA6EDE50D9
:1069A800DE10D8B40ED001010551020D000EF324FB
:1069B800D96E030EF420DA6E010EDE6E000EDD6E67
:1069C80000D00101052B89D7E80E0201325D030EC4
:1069D80002013359D8A01200180E02013225020113
:1069E800326FFC0E020133210201336F0001D52BF7
:1069F800000E0101066F180E0101066501D063D073
:106A080001010651010D320EF324D96E030EF42054
:106A1800DA6EDE04D8A454D001010651020D000E2E
:106A2800F324D96E030EF420DA6E010EDB5004E174
:106A3800020EDE5CD8A029D0FF0E0101006FFF0E08
:106A48000101016F01010651020D000EF324D96EF8
:106A5800030EF420DA6EDECF02F1DDCF03F101017F
:106A68000051010102270101015101010323010124
:106A78000651020D000EF324D96E030EF420DA6ECF
:106A880002C1DEFF03C1DDFF1BD001010651020D6B
:106A9800000EF324D96E030EF420DA6EDE50DE10F9
:106AA800D8B40ED001010651020D000EF324D96EA0
:106AB800030EF420DA6E010EDE6E000EDD6E00D0DD
:106AC8000101062B98D73B0E0001D5651200000185
:106AD800D551C40F0001D56F0001CF2B000E010165
:106AE800076F180E0101076501D064D00101075135
:106AF800010D320EF324D96E030EF420DA6E020E65
:106B0800DE18D8A454D001010751020D000EF32459
:106B1800D96E030EF420DA6E010EDB5004E1020E8A
:106B2800DE5CD8A029D0FF0E0101006FFF0E010125
:106B3800016F01010751020D000EF324D96E030EF7
:106B4800F420DA6EDECF02F1DDCF03F1010100514E
:106B5800010102270101015101010323010107512C
:106B6800020D000EF324D96E030EF420DA6E02C172
:106B7800DEFF03C1DDFF1BD001010751020D000E2E
:106B8800F324D96E030EF420DA6EDE50DE10D8B48A
:106B98000ED001010751020D000EF324D96E030E29
:106BA800F420DA6E010EDE6E000EDD6E00D00101FB
:106BB800072B97D73B0E0001CF6512000001CF517C
:106BC800C40F0001CF6F000E0101086F180E0101FC
:106BD800086502D01200120001010851010D320EA1
:106BE800F324D96E030EF420DA6E030EDE18D8A44F
:106BF80054D001010851020D000EF324D96E030E82
:106C0800F420DA6E010EDB5004E1020EDE5CD8A03F
:106C180029D0FF0E0101006FFF0E0101016F010174
:106C28000851020D000EF324D96E030EF420DA6E1B
:106C3800DECF02F1DDCF03F101010051010102278E
:106C4800010101510101032301010851020D000E48
:106C5800F324D96E030EF420DA6E02C1DEFF03C1FD
:106C6800DDFF1BD001010851020D000EF324D96E7F
:106C7800030EF420DA6EDE50DE10D8B40ED0010117
:106C88000851020D000EF324D96E030EF420DA6EBB
:106C9800010EDE6E000EDD6E00D00101082B180E0D
:106CA8000101086599D7120012001200010120EEB7
:106CB80001F02F51D9263051DA222FC1E1FF30C11E
:106CC800E2FFDE50E618D8A41200010120EE02F01F
:106CD8002F51D9263051DA22010110EE01F02F513F
:106CE800E1263051E222DE50E618D8A41200010154
:106CF80020EE02F02F51D9263051DA22DE28D8B4FE
:106D080012002FC1D9FF30C1DAFFDF500101336F04
:106D1800010133A14CD0010120EE04F02F51D926F6
:106D28003051DA22010110EE03F02F51E1263051E3
:106D3800E222DE50E618D8A43AD0010120EE05F090
:106D48002F51D9263051DA22010110EE04F02F51CB
:106D5800E1263051E222DE50E618D8A428D00101FD
:106D680020EE05F02F51D9263051DA22DE28D8B48A
:106D78001ED0A5EC70F0030E0101016FFD0E006F2F
:106D8800010120EE03F02F51D9263051DA22DF50CD
:106D98000101026F72EC6BF0010120EE03F02F513C
:106DA800D9263051DA22DF50EDEC6EF000D0010127
:106DB80033A342D0010120EE07F02F51D9263051DC
:106DC800DA22010110EE06F02F51E1263051E222BD
:106DD800DE50E618D8A430D0010120EE08F02F517B
:106DE800D9263051DA22010110EE07F02F51E126A1
:106DF8003051E222DE50E618D8A41ED0A5EC70F07F
:106E0800030E0101016FFE0E006F010120EE06F076
:106E18002F51D9263051DA22DF500101026F72EC6E
:106E28006BF0010120EE06F02F51D9263051DA22FD
:106E3800DF50DCEC6AF000D0010133A54CD0010131
:106E480020EE0AF02F51D9263051DA22010110EE36
:106E580009F02F51E1263051E222DE50E618D8A47D
:106E68003AD0010120EE0BF02F51D9263051DA2209
:106E7800010110EE0AF02F51E1263051E222DE50D6
:106E8800E618D8A428D0010120EE0BF02F51D926FE
:106E98003051DA22DE28D8B41ED0A5EC70F0030EEB
:106EA8000101016FFC0E006F010120EE09F02F5166
:106EB800D9263051DA22DF500101026F72EC6BF0F3
:106EC800010120EE09F02F51D9263051DA22DF5086
:106ED800ADEC6FF000D0010133A71200010120EEE4
:106EE8000DF02F51D9263051DA22010110EE0CF0A5
:106EF8002F51E1263051E222DE50E618D8A41200C4
:106F0800010120EE0EF02F51D9263051DA2201016D
:106F180010EE0DF02F51E1263051E222DE50E61836
:106F2800D8A41200010120EE0EF02F51D9263051BD
:106F3800DA22DE28D8B41200A5EC70F0030E0101A5
:106F4800016FEF0E006F010120EE0CF02F51D926D2
:106F58003051DA22DF500101026F72EC6BF001014F
:106F680020EE0CF02F51D9263051DA22DF5076EC82
:106F780070F012001200400E0101286F000E01018E
:106F8800296F3E0E0101296501D0D7D00101295191
:106F9800060DBD0EF3240101066F0A0EF42001014F
:106FA800076F21C108F122C109F1040E01010A6F1E
:106FB80007EC6AF00009D8B4A0D001012951060DE8
:106FC800040EF326000EF422BD0EF324D96E0A0E29
:106FD800F420DA6EDF500F0B0F0AD8A440D001015D
:106FE80024510101D8B43BD0452A01012951060D8D
:106FF800040EF326000EF422BD0EF324D96E0A0EF9
:10700800F420DA6EDF90DF92DF94DF9623C100F17F
:10701800010129519EEC5CF0020E01012419D8B43B
:107028001AD0030E0101086F01012351F6EC42F05A
:107038000101266F21C115F122C116F129C117F1ED
:10704800010E0101186F26C119F1000E01011A6F16
:107058004CEC1EF000D00101295112006BD0010147
:107068002951060D040EF326000EF422BD0EF3245A
:10707800D96E0A0EF420DA6EDF500F0B0F0AD8B45F
:1070880039D001012951060D040EF326000EF42211
:10709800BD0EF324D96E0A0EF420DA6EDF90DF926B
:1070A800DF94DF9623C100F1010129519EEC5CF0C9
:1070B800020E01012419D8B4CED7030E0101086FBE
:1070C80001012351F6EC42F00101266F21C115F1AF
:1070D80022C116F129C117F1010E0101186F26C14D
:1070E80019F1000E01011A6F4CEC1EF0B4D7B3D79A
:1070F800120020D0FF0E12001DD001012951060DEB
:10710800BD0EF3240101066F0A0EF4200101076F7A
:10711800E20E0101086F010E0101096F040E010161
:107128000A6F07EC6AF00009D8B404D029C128F125
:1071380004D000D00101292B24D73E0E0101286577
:1071480021D0000E0101276F3E0E0101276501D0F5
:1071580019D001012751060D040EF326000EF42262
:10716800BD0EF324D96E0A0EF420DA6EDF500F0B31
:107178000F0AD8A403D027C128F104D00101272B76
:10718800E3D700D03F0E0101286154D001012451FA
:107198000101D8B44FD021C106F122C107F1010184
:1071A8002851060DBD0EF3240101086F0A0EF420C4
:1071B8000101096F040E01010A6F02EC6BF0010175
:1071C8002851060D040EF326000EF422BD0EF324FA
:1071D800D96E0A0EF420DA6EDF90DF92DF94DF9624
:1071E80023C100F1010128519EEC5CF0452A020EF2
:1071F80001012419D8B41AD0030E0101086F010146
:107208002351F6EC42F00101266F21C115F122C18C
:1072180016F128C117F1010E0101186F26C119F1E5
:10722800000E01011A6F4CEC1EF000D0010128512C
:10723800120000D0FF0E12001200030E0101016FB0
:10724800006978EC6FF00101156F01011505D8A4EC
:1072580040D0000E01011A6F000E196F01011ABF0C
:107268000AD0F00E0101195D030E01011A59D8B0B8
:1072780011D001D00FD0A5EC70F019C100F11AC1DE
:1072880001F1FF0E0101026F72EC6BF00101194B65
:107298001A2BE4D7030E01011A6FF40E196F0101BE
:1072A8001ABF07D0040E01011A5DD8B012D001D060
:1072B80010D0A5EC70F019C100F11AC101F1FF0E50
:1072C8000101026F72EC6BF00101194B1A2BE7D721
:1072D80000D0010E0101156504D001011529D8A4BB
:1072E8000CD0A5EC70F0030E0101016F0069020ECD
:1072F8000101026F72EC6BF000D0000E0101166FF5
:10730800030E0101166501D018D001011651010DB7
:10731800FC0EF324D96E010EF420DA6EE80E01019A
:1073280016250101006F0101016B030E012378ECA2
:107338006FF0DF6E0101162BE3D70101FC29D8A4F9
:1073480019D00101FD29D8A415D00101FE29D8A41E
:1073580011D00101FF29D8A40DD0000E0101FC6F46
:10736800000E0101FD6F000E0101FE6F020E01010A
:10737800FF6F00D0030E0101016FEF0E006F78EC74
:107388006FF00101146F01011429D8A404D0080E6C
:107398000101146F00D00101145176EC70F0020164
:1073A800EA29D8A451D00201EB29D8A44DD0020172
:1073B800EC29D8A449D00201ED29D8A445D0899E4A
:1073C8004B0EA7EC6EF0000EA7EC6EF0000EA7ECCB
:1073D8006EF0000EA7EC6EF0000EA7EC6EF0000E3B
:1073E8000101176F2BD02ED093EC6FF001010051E3
:1073F8000101136F030E010117651ED0FC0E010178
:10740800076FFF0E0101086F010117510101096F94
:107418000A6B010107510101092701010851010106
:107428000A23EA0E01010925D96E020E01010A217B
:10743800DA6E13C1DFFF00D00101172B070E01011F
:107448001765D2D7898E00D0000E0101186F070E7C
:107458000101186501D018D001011851010D0B0E5A
:10746800F324D96E010EF420DA6EF40E010118250A
:107478000101006F0101016B030E012378EC6FF02D
:10748800DF6E0101182BE3D70B0E0101006F010E0F
:107498000101016FE6EC63F0030E0101016FFD0EBF
:1074A800006F78EC6FF0FF0AD8B40BD001D009D088
:1074B800030E0101016FFD0E006F78EC6FF0EDEC2B
:1074C8006EF0030E0101016FFE0E006F78EC6FF095
:1074D800FF0AD8A403D00001CC691200030E0101F1
:1074E800016FFE0E006F78EC6FF00001CC6F120098
:1074F8001200000E0101126F000E116F010112BF80
:107508000AD00101125106E13F0E0101115DD8B008
:1075180082D001D080D0E20E0101066F010E010178
:10752800076F11C100F112C101F1000E0101036FD3
:10753800060E026FE6EC6CF0BD0E0101002501019C
:10754800086F0A0E010101210101096F040E0101F2
:107558000A6F02EC6BF011C100F112C101F1000ECB
:107568000101036F060E026FE6EC6CF0040E0101D8
:107578000027000E01010123BD0E01010025D96E6F
:107588000A0E01010121DA6EDF80DF82DF84DF86E7
:1075980011C100F112C101F1000E0101036F060EC5
:1075A800026FE6EC6CF0040E01010027000E0101E9
:1075B8000123BD0E01010025D96E0A0E010101212A
:1075C800DA6EDF88DF8ADF8CDF8E11C100F112C12D
:1075D80001F1000E0101036F060E026FE6EC6CF07C
:1075E800050E01010027000E01010123BD0E010156
:1075F8000025D96E0A0E01010121DA6EFF0EDF6E39
:107608000101114B122B010112BF85D70101125143
:1076180002E17AD700D0000E02015A6F000E010174
:10762800126F000E116F010112BF0AD00101125131
:1076380066E1FA0E0101115DD8B061D001D05FD0CA
:1076480011C10FF112C110F1D89001010F37103795
:10765800010E01010F27000E1023C90E01010F258D
:10766800D96E080E01011021DA6EDF80DF82DF8417
:10767800DF86DF88E20E0101076F010E0101086F46
:107688000101115154EC65F011C10FF112C110F153
:10769800D89001010F371037010E01010F27000E96
:1076A8001023C90E01010F25D96E080E0101102102
:1076B800DA6EDF8ADF8CDF8ED89001011135D96E42
:1076C80001011235DA6EC90ED926080EDA22DF80DA
:1076D800DF82DF84DF86DF88DF8AD89001011135F9
:1076E800D96E01011235DA6EC90ED926080EDA22D2
:1076F8003F0EDF160101114B122B95D700D0E20E79
:107708000101066F010E0101076FEE0E0101086FFE
:10771800020E0101096F040E01010A6F02EC6BF001
:107728005068000E0201636F030E0201646F000EC1
:1077380002018B6F000E02018D6F020E02018E6F27
:10774800000E02018F6F010E0101F26F000E0101A0
:10775800E16F000E0101D46F12000101166F4F5046
:10776800D8B421D0240E01011619D8A419D0482A5A
:10777800020E4818D8A4EDD0000E4F6E010E416ECF
:10778800000E3F6E000E426E000E436E010E406EFC
:10779800000E0001C46F000E486E000E476ED9D06F
:1077A800000E486ED6D04050D8B4C4D04150D8B49A
:1077B80006D016C1CEF0000E416E010E04D03F5027
:1077C800D8B403D0000E3F6E5AD00001C451010155
:1077D800106F116BFE0E0101126FFF0E0101136F86
:1077E8000001CE510101146F156B01011251010105
:1077F8001427010113510101152301011051010141
:1078080014190EE10101115101011519D8A408D06C
:107818000D0E01011619D8A432D0010E426E2FD0D8
:107828000001C4510101106F116BFF0E0101126FAD
:10783800FF0E0101136F0001CE510101146F156B8A
:1078480001011251010114270101135101011523EE
:1078580001011051010114190EE101011151010139
:107868001519D8A408D00A0E01011619D8A407D0F2
:10787800010E436E04D001011651471A00D00001D1
:10788800C451010D800EF324D96E050EF420DA6E72
:1078980016C1DFFF0001C42B0001C4510001CE193D
:1078A800D8A431D0000E406E0EC1D9FF0FC1DAFF47
:1078B800C4C0DFFF800E0101066F050E0101076FCE
:1078C8000CC108F10DC109F1C4C00AF102EC6BF05A
:1078D800010E4F6E000E486E4750D8B404D0000E0B
:1078E800476E000E12004250D8B408D04350D8B4A6
:1078F80005D0000E476E010E12002BD0000E476E09
:1079080016D0120026D03E0E0001C46522D0010E0A
:107918004F6E000E486E000E0001C46F000E416EDF
:10792800000E3F6E000E426E000E436EE7D7000E4B
:1079380012000FD0010E4F6E000E486E000E476EFB
:10794800000E416E000E426E000E436E000E3F6E3A
:1079580000D0000E12001200000E0101126F000E7E
:10796800116F010112BF0AD00101125106E1FA0E8E
:107978000101115DD8B0E8D001D0E6D00BC104F107
:107988000CC105F1010111510DEC58F00009D8B4F2
:10799800D0D011C10FF112C110F1D89001010F37E9
:1079A8001037010E01010F27000E1023C90E010127
:1079B8000F25D96E080E01011021DA6EDF501F0B5A
:1079C8001F0AD8B4A6D0D89001011135D96E01018B
:1079D8001235DA6EC90ED926080EDA22DF503F0BAF
:1079E80001010F6F01010F51060DBD0EF324D96E71
:1079F8000A0EF420DA6E0DC1E1FF0EC1E2FFDFCFFF
:107A0800E7FFD89001011135D96E01011235DA6E00
:107A1800C90ED926080EDA22DF503F0B01010F6F7D
:107A280001010F51060D010EF326000EF422BD0EC2
:107A3800F324D96E0A0EF420DA6E010110EE01F07B
:107A48000D51E1260E51E222DFCFE7FFD890010168
:107A58001135D96E01011235DA6EC90ED926080E14
:107A6800DA22DF503F0B01010F6F01010F51060DA4
:107A7800020EF326000EF422BD0EF324D96E0A0E70
:107A8800F420DA6E010110EE02F00D51E1260E51DC
:107A9800E222DFCFE7FFD89001011135D96E01014D
:107AA8001235DA6EC90ED926080EDA22DF503F0BDE
:107AB80001010F6F01010F51060D030EF326000E91
:107AC800F422BD0EF324D96E0A0EF420DA6E0101F9
:107AD80010EE03F00D51E1260E51E222DFCFE7FF51
:107AE80011C10FF112C110F1D89001010F371037F1
:107AF800010E01010F27000E1023C90E01010F25E9
:107B0800D96E080E01011021DA6EDF501F0B12002A
:107B180010D0D89001011135D96E01011235DA6EF5
:107B2800C90ED926080EDA223F0EDF161F0E1200E4
:107B380000D00101114B122B010112BF1FD7010107
:107B4800125102E114D700D01F0E12001200000ECD
:107B580001010F6F000E0E6F01010FBF0AD0010166
:107B68000F5106E13F0E01010E5DD8B0D4D001D00F
:107B7800D2D006C1D9FF07C1DAFF0EC100F10FC18B
:107B880001F1000E0101036F060E026FE6EC6CF0C6
:107B9800BD0E01010025E16E0A0E01010121E26E10
:107BA800DE50E618D8A4ACD0010120EE01F0065151
:107BB800D9260751DA220EC100F10FC101F1000EDA
:107BC8000101036F060E026FE6EC6CF0010E010175
:107BD8000027000E01010123BD0E01010025E16E01
:107BE8000A0E01010121E26EDE50E618D8A488D001
:107BF800010120EE02F00651D9260751DA220EC102
:107C080000F10FC101F1000E0101036F060E026FB2
:107C1800E6EC6CF0020E01010027000E01010123C1
:107C2800BD0E01010025E16E0A0E01010121E26E7F
:107C3800DE50E618D8A464D0010120EE03F0065106
:107C4800D9260751DA220EC100F10FC101F1000E49
:107C58000101036F060E026FE6EC6CF0030E0101E2
:107C68000027000E01010123BD0E01010025E16E70
:107C78000A0E01010121E26EDE50E618D8A440D0B8
:107C88000EC100F10FC101F1000E0101036F060ED4
:107C9800026FE6EC6CF0050E01010027000E0101F1
:107CA8000123BD0E01010025D96E0A0E0101012133
:107CB800DA6E08C1E1FF09C1E2FFDFCFE7FF0EC1BD
:107CC80000F10FC101F1000E0101036F060E026FF2
:107CD800E6EC6CF0040E01010027000E01010123FF
:107CE800BD0E01010025D96E0A0E01010121DA6ECF
:107CF800DF380F0B0AC1D9FF0BC1DAFFDF6E1200A4
:107D080001010E4B0F2B01010FBF33D701010F519A
:107D180002E128D700D008C1D9FF09C1DAFFFF0E58
:107D2800DF6E0AC1D9FF0BC1DAFF0F0EDF6E12003A
:107D380012003750D8B4D9D002015251D8B410D05B
:107D4800000E0201526F000E0001D36F000E0001F9
:107D5800D46F000E376E000E0001D06F000E1200B7
:107D680002015051D8A40DD0000E0001D36F000EAF
:107D78000001D46F000E376E000E0001D06F000EA8
:107D880012000001D451FD0F10C1D9FF11C1DAFF53
:107D9800DF6E000E0101186F400E0001D4650DD092
:107DA800000E0001D36F000E0001D46F000E376E75
:107DB800000E0001D06F000E1200020E0101196FB3
:107DC80011D001011951010DA70EF324D96E040E2B
:107DD800F420DA6EDF50010118190101186F010152
:107DE800192B00D00001D4510101195DD8A0E9D7A1
:107DF800010118510101D8B40DD0000E0001D36F54
:107E0800000E0001D46F000E376E000E0001D06F17
:107E1800000E120010C1D9FF11C1DAFF3D0EDF6458
:107E28000DD0000E0001D36F000E0001D46F000EBC
:107E3800376E000E0001D06F000E120010C1D9FF7E
:107E480011C1DAFFDF500101126F136BFD0E010142
:107E5800146FFF0E0101156F0001D4510101166F57
:107E6800176B010114510101162701011551010178
:107E78001723010112510101161906E101011351DD
:107E880001011719D8B40DD0000E0001D36F000EF0
:107E98000001D46F000E376E000E0001D06F000E87
:107EA8001200A70E0101006F040E0101016F020EFE
:107EB8000101026F0EC103F10FC104F1000E0101AF
:107EC800056F10C1D9FF11C1DAFFDF500101066F3C
:107ED80033EC64F0000E0001D36F000E0001D46F84
:107EE800000E376E010E12000FD03750D8B40CD0E8
:107EF800000E0001D36F000E0001D46F000E376E24
:107F0800000E0001D06F00D0000E12001200000E0B
:107F18000101806FABC07CF1ACC07DF1010E0101A5
:107F2800566F18C10BF119C10CF1580E01010D6FF4
:107F3800010E01010E6FB0EC3CF00101576FCCC08F
:107F48005CF17CC15DF17DC15EF1580E0101066FE7
:107F5800010E0101076F7E0E0101086F010E01017C
:107F6800096F7F0E01010A6F010E01010B6FABEC67
:107F78003DF07EC15FF17FC160F118C10BF119C1FD
:107F88000CF158EC60F00101616FB1EC70F0010187
:107F9800626FB5EC70F00101636FD9C01BF101018C
:107FA8001B3BF00E1B178AEC70F001011B2500012A
:107FB800D8250101646FC4C165F130C266F131C2D0
:107FC80067F12EC268F12FC269F12CC26AF12DC285
:107FD8006BF146C26CF147C26DF144C26EF145C205
:107FE8006FF181BA02D0010E01D0000E0101706F4D
:107FF800C8C171F1000E0101726F000E0101736FAB
:10800800000E0101746F000E0101756F000E010171
:10801800766F000E0101776FADEC70F00101786F9B
:10802800000E0101796F000E01017A6FD1C07BF15A
:10803800260E0101806F01011A510101D8B434D014
:10804800560E0101006F010E0101016F000E0101C2
:10805800026F1C0E0101036F010E0101046F140E63
:108068000101056F80C106F133EC64F01C0E0101BB
:108078000E6F010E01010F6F18C110F119C111F136
:10808800EFEC5AF01C0E0101046F010E0101056F9F
:1080980001018051140F0101066F000E0101076FE5
:1080A800020E86EC59F0120018C10EF119C10FF139
:1080B800560E0101106F010E0101116F80C112F1FE
:1080C800000E0101136F010E0101146F000E010172
:1080D800156F71EC40F01200120002015A51D8A439
:1080E800D2D002018C51D8A4CED05B0E0101066F0C
:1080F800020E0101076FEE0E0101086F020E010169
:10810800096F040E01010A6F02EC6BF063C250F0B4
:10811800060E02015A6F0EC106F10FC107F15F0E7C
:108128000101086F020E0101096F040E01010A6FB7
:1081380002EC6BF0E60E0101066F010E0101076FFC
:108148005B0E0101086F020E0101096F040E0101A7
:108158000A6F02EC6BF0F2EC6FF00201636F000E35
:1081680002018F6F010115510101D8B402D0040E2C
:1081780001D0030E0201646F00D0270E01011261C5
:1081880056D00101C951D8B431D0010114510101AF
:10819800D8B42CD0010E010110250101006F000E8A
:1081A800010111210101016FFF0E010112250101D9
:1081B800026F0101036BFF0E032383EC56F00101EC
:1081C800166F050E0101176F0101D89016370101CE
:1081D800172FFAD7010116510201656F10C1D9FF97
:1081E80011C1DAFFDF500201652708D010C1D9FF9D
:1081F80011C1DAFFDF500201656F00D010C100F134
:1082080011C101F1010E0101026F650E0101036F39
:10821800020E0101046F010E0101056F0101120533
:108228000101066F33EC64F012C18BF200D013C168
:108238008CF2010113510101D8B403D0000E0201E0
:108248005A6F0001BE51D8A404D0000E0101DB6FA3
:1082580018D05F0E0101066F020E0101076FE60ECE
:108268000101086F020E0101096F040E01010A6F76
:1082780007EC6AF00009D8B404D0020E02015A6F64
:1082880000D0010E1200000E120012000101146F3E
:10829800000E0101166F000E176F000E186F000E0A
:1082A800196F040E01010F19D8A40BD00DC116F1D6
:1082B8000EC117F10101000E17BFFF0E186F196FDD
:1082C80054D001010F510101D8A42FD00DC110F1D4
:1082D8000EC111F1000E010111BFFF0E126F136FD5
:1082E8000F0ED89001011037113712371337E82EC7
:1082F800F8D710C100F111C101F112C102F113C187
:1083080003F1E80E0101046F030E056F000E066FFE
:10831800000E076F68EC5DF000C116F101C117F19E
:1083280002C118F103C119F120D001010F05D8A429
:108338001CD00DC110F10EC111F1000E010111BFC9
:10834800FF0E126F136F0F0ED890010110371137FF
:1083580012371337E82EF8D710C116F111C117F1EB
:1083680012C118F113C119F100D016C110F117C1CB
:1083780011F118C112F119C113F10101101F111FD8
:10838800121F131F102B000E112312231323FF0E8D
:10839800010110250101166FFF0E010111210101D4
:1083A800176F000E010112210101186F000E010163
:1083B80013210101196F01011405D8A40BD017C1AD
:1083C800CFFF16C1CEFF8C0ECD6E9F809E909D80F4
:1083D800CD8000D0030E01011419D8A40AD017C10A
:1083E800B3FF16C1B2FF8C0EB16EA292A192A08209
:1083F800B1803B50D8A41200010E3B6E000E010163
:10840800156F180E0101156502D012001200010146
:108418001551020D000EF324D96E030EF420DA6E06
:10842800000EDE6E000EDD6E0101152B180E010127
:108438001565EDD712001200120001012F6F01011E
:10844800D851D8B404D0000E0101D86F1200040E20
:1084580088EC6CF00009D8B472D00101B651010D56
:10846800D10EF324F66EFE0EF420F76E0800F550D8
:108478000009D8A464D0010E0101B66F010E0201F3
:10848800546F5DD008EC57F00DC1ABF00EC1ACF0E5
:108498000001ACBF08D03E0E0001AB5D080E000124
:1084A800AC59D8B004D0000E0101B66F120001011A
:1084B800B62B1200CBEC70F000C13EF201C13FF2C6
:1084C8000101B62B120001012F510201285D000E97
:1084D8002959D8B003D00101B62B120001012F5140
:1084E8000201285F000E295B1200000E0101F06FE7
:1084F80001012F5102012A5D000E2B59D8A012004C
:1085080001D0120001012F5102012A5F000E2B5BDE
:108518001200040E49EC6EF00009D8B412002CC108
:1085280026F12DC127F12EC128F1040EE1EC65F0EA
:10853800000E0201546F12000101B62B1200010156
:10854800B651010DD10EF324F66EFE0EF420F76E2F
:108558000800F550000AD8B4DCD7010AD8B492D77D
:10856800030AD8B4A7D7010AD8B41200070AD8B4A6
:108578001200010AD8B41200030AD8B41200010A82
:10858800D8B412000F0AD8B49ED7010AD8B4120082
:10859800030AD8B4AAD7010AD8B41200070AD8B473
:1085A8001200010AD8B41200030AD8B41200010A52
:1085B800D8B412001F0AD8B4BFD7010AD8B4120021
:1085C800030AD8B41200010AD8B41200070AD8B4B2
:1085D8001200010AD8B41200030AD8B41200010A22
:1085E800120012000101116F030E01010819D8A42D
:1085F80060D03C0E0101116102D0000E12D0C30EF2
:10860800010111250101006F0101016BFF0E01231A
:10861800000E0101036F050E026F36EC5CF00101DC
:1086280000510101126F00D0010112510101096FBF
:108638000A6BFF0E01010B6FFF0E01010C6F08C1E1
:108648000DF1010E01010E6F000E01010F6F010106
:108658000D2B04D0D89001010E370F3701010D2FD3
:10866800F9D701010B5101010E2701010C5101013C
:108678000F230101095101010E5D01010F51800A0B
:108688000101106F01010A51800A01011059D8B087
:1086980071D008C109F1010E01010A6F0101092B0E
:1086A80003D00101D8900A370101092FFAD75DD00C
:1086B80061D0040E01010819D8A45CD0DC0E0101B8
:1086C80011250101006F0101016BFF0E0123000E4E
:1086D8000101036F050E026F36EC5CF001010051D9
:1086E8000101126F010112510101096F0A6BFF0E9E
:1086F80001010B6FFF0E01010C6F08C10DF1010E96
:1087080001010E6F000E01010F6F01010D2B04D046
:10871800D89001010E370F3701010D2FF9D701014C
:108728000B5101010E2701010C5101010F23010119
:10873800095101010E5D01010F51800A0101106FFD
:1087480001010A51800A01011059D8B013D008C19B
:1087580009F1010E01010A6F0101092B03D0010182
:10876800D8900A370101092FFAD701010A0501013A
:10877800126F00D001011251120012000101066FA0
:10878800010104510101D8B402D0200E01D0600EBD
:108798000101056F9AD001010551020902019F6F7D
:1087A800630E0201A66F010106511B0F55D001018E
:1087B8000551020902019F6F640E0201A66F0101B3
:1087C8000651040F49D0210E010106610BD00101A9
:1087D80005510A0902019F6F650E0201A66F06C1C5
:1087E800A7F281D0010105510A0902019F6F640EA9
:1087F8000201A66F01010651190F2ED074D0010194
:1088080005510A0902019F6F650E0201A66F010159
:108818000651210F21D00C0E010106610DD0010176
:108828000551020902019F6F630E0201A66F010143
:108838000651040DF350B9D70B0E010106650FD090
:10884800190E010106610BD001010551020912D070
:10885800640E0201A66F11D00201A76F44D0180E52
:108868000101066510D01F0E010106610CD001013F
:1088780005510A0902019F6FEBD701010645E84639
:10888800FC0BD00FE9D71E0E0101066509D0270E93
:108898000101066105D00CD0650E0201A66F0ED04D
:1088A800260E010106651FD0320E010106611BD09C
:1088B800010105510A0902019F6FEED70101064522
:1088C800E846FC0B850FC8D70ED04E50010AD8B425
:1088D80062D7030AD8B46BD7010AD8B474D7070A89
:1088E800D8B48DD798D79FC202F1000E1DEC6DF059
:1088F800A6C202F10E0E1DEC6DF0A7C202F1100E19
:108908001DEC6DF0120004004450D8A4120001D0F0
:1089180012001AC144F0000E01011B6FB0D0000E06
:108928000001CA6F0001D051D8A49DD03E0E0101AC
:10893800196199D0010E0001CB6F0001D051D8B454
:1089480004D0000E0001CB6F95D0200ED3EC4FF071
:108958000201AC5101090101026F1A0E1DEC6DF004
:10896800800ED3EC4FF001011951020FE8EC6FF0C3
:108978000001B751E8EC6FF0000E01011F6F64D0E1
:1089880001011F51010DF35001011725D96EF45053
:1089980001011821DA6EDF5001011C6F01011F056A
:1089A800D8B410D0020E01011F19D8B40BD00001A1
:1089B800CA5101011C190001CA6F01011C51E8ECE0
:1089C8006FF03FD001011F05D8A42BD0040E010180
:1089D8000C6F010EF2EC54F00001A35101010C25BB
:1089E80001011D6F0001A45101010D2101011E6F3C
:1089F80001011E51E8EC6FF001011E510001CA1976
:108A08000001CA6F01011D510201465D01011E519D
:108A180002014759D8B015D01DC146F21EC147F210
:108A280010D0020E01011F19D8A40BD001011D514D
:108A3800E8EC6FF00001CA5101011D190001CA6F6D
:108A480000D001011F2B00D00101195101011F5D48
:108A5800D8A096D70001CA51E8EC6FF00400010EC7
:108A68000101D86F09D03D0E0101196501D002D06E
:108A78000001D051440600D001011B2B00D0010198
:108A88001A5101011B5DD8A04AD7120002015A51A0
:108A9800D8A4BBD002018C51D8A4B7D05B0E010179
:108AA800066F020E0101076FEE0E0101086F020E3C
:108AB8000101096F040E01010A6F02EC6BF063C239
:108AC80050F0060E02015A6F000E02018D6F020E61
:108AD80002018E6F0EC106F10FC107F15F0E010191
:108AE800086F020E0101096F040E01010A6F02EC02
:108AF8006BF0E60E0101066F010E0101076F5B0EB8
:108B08000101086F020E0101096F040E01010A6FCD
:108B180002EC6BF0F2EC6FF00201636F000E0201E1
:108B28008C6F1D0E0201656F210E0201666F10C168
:108B380067F23F0E0201686F080E0101116F010113
:108B4800105101011103F3CF12F1000E0101136F4F
:108B580046D03F0E0101126121D001011251060DCC
:108B6800BD0EF3240101006F0A0EF4200101016F0C
:108B7800000E0101026F650E0101036F020E010173
:108B8800046F01011351040DF350060F0101056F25
:108B9800040E0101066F33EC64F01CD0E20E0101F3
:108BA800006F010E0101016F000E0101026F650ED9
:108BB8000101036F020E0101046F01011351040D3D
:108BC800F350060F0101056F040E0101066F33EC27
:108BD80064F000D00101122B0101132B00D0010118
:108BE80011510101135DD8A0B4D7030E0201646FBF
:108BF800260E02018B6F0001BE51D8A404D0000ECE
:108C08000101DB6F00D0010E1200000E12001200ED
:108C180001010C6F000E01010E6F0F015A99000E31
:108C28000001D06F000E0001DA6F000E0001D36F53
:108C3800000E0001D46F000E466E000E376E200E37
:108C48000101BE6F000E0201506F000E0001CB6FD4
:108C5800000E0101D86F000E4A6E000E446E898620
:108C6800050E0101076F260EE82EFED7072FFCD749
:108C780000D08996680E0101076FE40EE82EFED732
:108C8800072FFCD700D0000E0101046F01010C5121
:108C9800C2EC43F0000E01010E6F1F0E01010E65BC
:108CA80001D015D001010E51010D9F0EF324D96E8C
:108CB800020EF420DA6EDF500101026F01010E513D
:108CC800020DF3501DEC6DF001010E2BE6D7030EDB
:108CD8000101016FFC0E006F78EC6FF001010D6F60
:108CE80001010D29D8A418D0A5EC70F0030E0101DC
:108CF800016FFC0E006F000E0101026F72EC6BF049
:108D0800000EADEC6FF0D80E0101096F09C102F138
:108D18003C0E1DEC6DF01ED001010D510101D8A4CF
:108D28000CD0000EADEC6FF0D80E01010A6F0AC12D
:108D380002F13C0E1DEC6DF00DD001010D51ADECB2
:108D48006FF0DA0E01010B6F0BC102F13C0E1DEC46
:108D58006DF000D0F29600F00F015A8900F081CF33
:108D680008F100F0F290F2860CC14DF0150E0101E9
:108D7800076FC60EE82EFED7072FFCD700D05CEC95
:108D88006FF0010E0001D86F000E0001D96F1200BC
:108D9800000E01010B6F3E0E01010B6502D012009F
:108DA800120001010B51060D040EF326000EF422E9
:108DB800BD0EF324D96E0A0EF420DA6EDF500F0BC5
:108DC8000F0AD8B49CD0010E0101086F01010B51A4
:108DD800060D040EF326000EF422BD0EF324D96E00
:108DE8000A0EF420DA6EDF500F0B0101096F010142
:108DF800085101010927DF5001010919F00B010190
:108E08000919DF6E45500F0DF3CF00F1F4CF01F1D2
:108E1800000E0101036F400E026F36EC5CF0040E89
:108E280001010027000E0101012301010B51060D6C
:108E3800040EF326000EF422BD0EF324D96E0A0E9A
:108E4800F420DA6EDF500F0B0101086F096B010186
:108E580000510101085D01010951800A01010A6FF1
:108E680001010151800A01010A59D8B012D001014B
:108E78000B51060D040EF326000EF422BD0EF3244A
:108E8800D96E0A0EF420DA6EDF500F0B0F0AD8A441
:108E980036D001010B51060D040EF326000EF42204
:108EA800BD0EF324D96E0A0EF420DA6EDF80DF825D
:108EB800DF84DF8601010B51060D050EF326000E37
:108EC800F422BD0EF324D96E0A0EF420DA6EFF0EDA
:108ED800DF6E01010B51060D040EF326000EF4227D
:108EE800BD0EF324D96E0A0EF420DA6EDF88DF8A0D
:108EF800DF8CDF8E4550D8B402D0450600D0010182
:108F08000B2B3E0E01010B654CD712001200156E9B
:108F1800000E176E000E186E000E196E000E1A6EF7
:108F2800040E1018D8A40AD00EC017F00FC018F0FD
:108F3800000E18BEFF0E196E1A6E4CD01050D8A431
:108F48002CD00EC011F00FC012F0000E12BEFF0E92
:108F5800136E146E0F0ED89011361236133614365F
:108F6800E82EF9D711C001F012C002F013C003F0C7
:108F780014C004F0E80E056E030E066E000E076EB0
:108F8800000E086E27EC66F001C017F002C018F05A
:108F980003C019F004C01AF01DD01004D8A41AD0C8
:108FA8000EC011F00FC012F0000E12BEFF0E136EAD
:108FB800146E0F0ED8901136123613361436E82E6A
:108FC800F9D711C017F012C018F013C019F014C067
:108FD8001AF000D017C011F018C012F019C013F021
:108FE8001AC014F0111E121E131E141E112A000E90
:108FF800122213221422FF0E1124176EFF0E1220C4
:10900800186E000E1320196E000E14201A6E150427
:10901800D8A40BD018C0CFFF17C0CEFF8C0ECD6ED2
:109028009F809E909D80CD8000D0030E1518D8A4F7
:109038000AD018C0B3FF17C0B2FF8C0EB16EA2924F
:10904800A192A082B1803B50D8A41200010E3B6EC1
:10905800000E166E180E166402D01200120016507A
:10906800020D000EF324D96E030EF420DA6E000E02
:10907800DE6E000EDD6E162A180E1664F0D712008A
:10908800120012001D0E0101426F1AC10BF11BC123
:109098000CF1430E01010D6F010E01010E6FB0ECD2
:1090A8003CF00101476F1D0E01011C6F260E0101E6
:1090B8001D6F1AC100F11BC101F1000E0101026F01
:1090C8001C0E0101036F010E0101046F020E010164
:1090D800056F040E0101066F33EC64F0430E0101C5
:1090E800006F010E0101016F000E0101026F1C0EDD
:1090F8000101036F010E0101046F060E0101056FE6
:10910800040E0101066F33EC64F047C126F11AC161
:1091180000F11BC101F1000E0101026F1C0E0101DB
:10912800036F010E0101046F0B0E0101056F040EA0
:109138000101066F33EC64F0430E0101006F010E6C
:109148000101016F000E0101026F1C0E0101036F86
:10915800010E0101046F0F0E0101056F040E0101DC
:10916800066F33EC64F047C12FF11AC100F11BC13F
:1091780001F1000E0101026F1C0E0101036F010EC7
:109188000101046F140E0101056F040E0101066F41
:1091980033EC64F0430E0101006F010E0101016F11
:1091A800000E0101026F1C0E0101036F010E010187
:1091B800046F180E0101056F040E0101066F33ECF0
:1091C80064F047C138F118C10EF119C10FF11C0E36
:1091D8000101106F010E0101116F42C112F1000E61
:1091E8000101136F010E0101146F000E0101156FCB
:1091F80071EC40F01200120000C1D9FF01C1DAFF82
:10920800000EDF6E010120EE01F00051D926015158
:10921800DA22000EDF6E3C50D8A404D00001C551FC
:10922800D8B439D01E0E0001C66103D00001C62B88
:1092380000D01E0E0001C619D8A41AD00E0E0001C7
:10924800C86516D000C1D9FF01C1DAFF030EDF6E71
:109258002D0E0001C66F010120EE01F00051D92644
:109268000151DA22030EDF6E2D0E0001C86F0FD0F8
:109278001E0E0001C619D8A40AD000C1D9FF01C129
:10928800DAFF020EDF6E2D0E0001C66F00D0000E51
:109298000001C56F13D0010E0001C6650BD01F0E6B
:1092A8000001C66107D000C1D9FF01C1DAFF010E74
:1092B800DF6E00D0000E0001C66F00D03D50D8A46C
:1092C80004D00001C751D8B43AD01E0E0001C861BD
:1092D80003D00001C82B00D01E0E0001C819D8A465
:1092E8001AD00E0E0001C66516D000C1D9FF01C103
:1092F800DAFF030EDF6E2D0E0001C66F010120EEAE
:1093080001F00051D9260151DA22030E11D02D0E99
:109318000001C86F10D01E0E0001C819D8A40BD0C8
:10932800010120EE01F00051D9260151DA22020E86
:10933800DF6EEDD700D0000E0001C76F1200010EDE
:109348000001C8650ED01F0E0001C8610AD00101D6
:1093580020EE01F00051D9260151DA22010EDF6E0C
:1093680000D0000E0001C86F120012001D0E01018E
:10937800266F200E0101276F22C128F1C1EC70F081
:109388000101296F030E0101556F010122510101ED
:109398005503F3CF54F1000E0101586F000E576FBB
:1093A8006DD04C0E0101146F010E0101156F500EA6
:1093B8000101166F010E0101176F560E0101186F9A
:1093C800010E0101196F010154510BEC59F04C0EBB
:1093D8000101006F010E0101016F000E0101026F12
:1093E800260E0101036F010E0101046F010157519F
:1093F800090DF350040F0101056F040E0101066FFA
:1094080033EC64F0500E0101006F010E0101016F91
:10941800000E0101026F260E0101036F010E01010A
:10942800046F01015751090DF350080F0101056F31
:10943800040E0101066F33EC64F057C100F158C106
:1094480001F1000E0101036F090E026FE6EC6CF0EA
:109458000C0E01010027000E01010123260E010157
:109468000025D96E010E01010121DA6E56C1DFFF18
:109478000101542B0101574B582B00D001015551C4
:109488000101236F246B010123510101575D010183
:109498005851800A0101256F01012451800A0101F8
:1094A8002559D8A07ED720C10EF121C10FF1260E73
:1094B8000101106F010E0101116F260E0101126FDB
:1094C800000E0101136F010E0101146F000E01015E
:1094D800156F71EC40F0120012000AC10EF1010183
:1094E8000F6B106B0101093501010E3701E30F8184
:1094F80001010E510101116F01011151D8A40AD0C7
:10950800000E0101086F000E0101096F000E010134
:109518000A6F12000DC10EF101010F6B106B0101F2
:109528000C3501010E3701E30F8101010E510101D4
:10953800166F01011651D8A40AD0000E0101086F58
:10954800000E0101096F000E01010A6F12000101EE
:1095580016517B0F010111270AC116F101010D51A6
:109568000101161B800E010116170101098F010167
:109578000C8FFF0E01010B17FF0E01010C17000ED7
:1095880001010D17000E0101126F000E0101136F8A
:10959800000E0101146F070E0101156F00D00101C3
:1095A80008A10DD001010B510101122701010C5135
:1095B8000101132301010D510101142300D0010100
:1095C800D8900A33093308330101D8900B370C3788
:1095D8000D370101152FE3D700D0090E0101156FD2
:1095E80000D0010108A10DD001010B510101122782
:1095F80001010C510101132301010D510101142333
:1096080000D00101D8900A33093308330101D890FA
:109618001433133312330101152FE3D700D012C1CD
:1096280000F113C101F114C102F111C103F116C116
:1096380004F149EC53F000C108F101C109F102C17C
:109648000AF1120012006EC072F00001736B746BA5
:1096580000016D350001723701E373810001725119
:109668000001756F00017551D8A40AD0000E0001E1
:109678006C6F000E00016D6F000E00016E6F12001E
:1096880071C072F00001736B746B000170350001DA
:10969800723701E373810001725100017A6F000192
:1096A8007A51D8A40AD0000E00016C6F000E000198
:1096B8006D6F000E00016E6F120000017A517B0F72
:1096C800000175276EC07AF00001715100017A1B04
:1096D800800E00017A1700016D8F0001708FFF0E58
:1096E80000016F17FF0E00017017000E00017117BF
:1096F800000E0001766F000E0001776F000E00016A
:10970800786F070E0001796F00D000016CA10DD0B1
:1097180000016F5100017627000170510001772385
:10972800000171510001782300D00001D8906E33F8
:109738006D336C330001D8906F3770377137000183
:10974800792FE3D700D0090E0001796F00D000010E
:109758006CA10DD000016F510001762700017051F6
:1097680000017723000171510001782300D0000126
:10977800D8906E336D336C330001D89078337733DB
:1097880076330001792FE3D700D076C060F077C038
:1097980061F078C062F075C063F07AC064F0D9EC0B
:1097A80053F060C06CF061C06DF062C06EF01200E2
:1097B80012000001C351D8B4A4D00001D051D8A4DC
:1097C800A0D0C9C000F10101016B000E0101036FB7
:1097D800000E026FC90E0101046F000E056F000E26
:1097E800066F000E076F26EC68F0010100510101B9
:1097F8002F6F01012F510101D8A402D0000E1200D1
:10980800000E01010E6F01012F51010D000EF3240E
:10981800D96E060EF420DA6EDF5095EC6EF0D3A602
:109828000FD0040E01010C6F010EF2EC54F0000190
:10983800A35101010C250101306F0001A45114D07E
:10984800040E01010C6F010EF2EC54F00001A3515B
:1098580001010C270001A45101010D23E60E0101AD
:109868000C250101306FFF0E01010D210101316F3F
:1098780000D0B5EC70F02CC1D9FF2DC1DAFFDF6E36
:10988800010120EE02F02C51D9262D51DA2230C1E7
:10989800DFFF010120EE01F02C51D9262D51DA22EB
:1098A80001013151DF6E2CC117F12DC118F10101F1
:1098B8002E51030F0101196F010E01011A6F87EC78
:1098C80044F00101CF51D8A417D0080ED2EC68F0AB
:1098D800010100510101CF250101CF6FCFC126F150
:1098E8000101276B010E0101286F080EE1EC65F0FC
:1098F800000E0101CF6F00D0000E0101D66F010EDE
:109908001200000E1200120000C1D9FF01C1DAFFD7
:109918001D0EDF6E010120EE01F00051D926015124
:10992800DA22230EDF6E010120EE02F00051D92663
:109938000151DA22D9C002F10101023BF00E0217EF
:109948008AEC70F0010102250001D825DF6E0101C3
:1099580020EE03F00051D9260151DA22D9C002F1D4
:109968000101023BF00E02178AEC70F0010102259A
:109978000001D825DF6E010120EE04F00051D92640
:109988000151DA22D9C002F10101023BF00E02179F
:109998008AEC70F0010102250001D825DF6E010173
:1099A80020EE05F00051D9260151DA22CCC0DFFFA4
:1099B800010120EE06F00051D9260151DA22CCC06F
:1099C800DFFF010120EE07F00051D9260151DA220C
:1099D800CCC0DFFF010120EE08F00051D92601516B
:1099E800DA22B1EC70F0DF6E010120EE09F00051CF
:1099F800D9260151DA22B1EC70F0DF6E010120EEB8
:109A08000AF00051D9260151DA22B1EC70F0DF6E6C
:109A1800010120EE0BF00051D9260151DA22ADECFC
:109A280070F0DF6E010120EE0CF00051D9260151D3
:109A3800DA22ADEC70F0DF6E010120EE0DF000517E
:109A4800D9260151DA22ADEC70F0DF6E0E0E01015D
:109A5800036F010103511200120019C11BF101012A
:109A68001C6B1D6B0101183501011B3701E31C81BB
:109A780001011B510101256F01012551D8A40AD00C
:109A8800000E0101176F000E186F000E196F000EFF
:109A98001A6F1200170E01011B6F17C11CF118C1B4
:109AA8001DF119C11EF101011B2901011F6F05D00C
:109AB8000101D8901E331D331C3301011F2FF8D725
:109AC80001011C510101206F0101188FFF0E0101D6
:109AD8001717FF0E01011817000E010119170101D0
:109AE80017510101216F010118510101226F010174
:109AF80019510101236F0101246B8E0E0101255FAD
:109B0800010125AF1BD001012551800A8F0FD8B064
:109B18000BD0000E0101176F000E186F000E196FA1
:109B2800000E1A6F120000D00101D890243323339D
:109B3800223321330101253FF7D71FD0170E01012A
:109B4800256514D0000E0101176F000E186F000E66
:109B5800196F000E1A6F120009D00101D890213731
:109B68002237233724370101250700D00101255169
:109B78000101D8B402D0F1D700D001012051010170
:109B8800D8B40AD00101241F231F221F216D000E03
:109B980022232323242300D021C117F122C118F145
:109BA80023C119F124C11AF1120012000DC111F1DB
:109BB8000101126B136B01010C350101113701E32F
:109BC8001281010111510101186F01011851D8A426
:109BD8000AD0000E01010B6F000E01010C6F000E80
:109BE80001010D6F120010C111F10101126B136B0D
:109BF80001010F350101113701E3128101011151F2
:109C08000101196F01011951D8A40AD0000E0101F0
:109C18000B6F000E01010C6F000E01010D6F120099
:109C2800000E0101156F000E0101166F000E0101F3
:109C3800176F01011951890F0101185F0DC119F141
:109C4800010110510101191B800E010119170101B1
:109C58000C8FFF0E01010B17FF0E01010C17000EF0
:109C680001010D1701010F8FFF0E01010E17FF0EE5
:109C780001010F17000E01011017180E0101146FD2
:109C880000D00101D89015371637173701010E514A
:109C980001010B5D01010F5101010C590101105126
:109CA80001010D59D8A00ED001010E5101010B5F21
:109CB80001010F5101010C5B0101105101010D5B04
:109CC800010115810101D8900B370C370D370101BF
:109CD800142FD7D700D015C100F116C101F117C153
:109CE80002F118C103F119C104F149EC53F000C1A4
:109CF8000BF101C10CF102C10DF1120012007DC07F
:109D08007FF00001806B816B00017C3500017F379B
:109D180001E3808100017F510001896F00018951B1
:109D2800D8A40AD0000E00017B6F000E7C6F000ED5
:109D38007D6F000E7E6F1200170E00017F6F7BC0D3
:109D480080F07CC081F07DC082F000017F29000195
:109D5800836F05D00001D8908233813380330001AE
:109D6800832FF8D7000180510001846F00017C8F98
:109D7800FF0E00017B17FF0E00017C17000E00018B
:109D88007D1700017B510001856F00017C510001A6
:109D9800866F00017D510001876F0001886B8E0E70
:109DA8000001895F000189AF1BD000018951800A39
:109DB8008F0FD8B00BD0000E00017B6F000E7C6FA8
:109DC800000E7D6F000E7E6F120000D00001D8904B
:109DD80088338733863385330001893FF7D71FD00F
:109DE800170E0001896514D0000E00017B6F000E6C
:109DF8007C6F000E7D6F000E7E6F120009D000018F
:109E0800D89085378637873788370001890700D08B
:109E1800000189510001D8B402D0F1D700D0000167
:109E280084510001D8B40AD00001881F871F861FFB
:109E3800856D000E86238723882300D085C07BF09C
:109E480086C07CF087C07DF088C07EF012001200CA
:109E58000101000501010111D8A42FD00001A7516B
:109E6800301805E10001A8513118D8B495D0385000
:109E7800D8B402D0000E1200010E386E000E302445
:109E8800D96E050E3120DA6E02C1E1FF03C1E2FF8F
:109E9800DFCFE7FF304A312A31BE0AD0315004E122
:109EA800800E305CD8A004D0000E316E000E306EEB
:109EB800000E386E010E12006FD0020E010100195B
:109EC80001010111D8A42FD00001A951321805E1D0
:109ED8000001AA513318D8B45FD03950D8B402D091
:109EE800000E1200010E396EC90E3224D96E060E0C
:109EF8003320DA6E02C1E1FF03C1E2FFDFCFE7FFE3
:109F0800324A332A33BE0AD0800E325C010E3358EF
:109F1800D8A004D0000E336E000E326E000E396EDB
:109F2800C9D7120039D0040E01010019010101112D
:109F3800D8A432D00001A5512E1805E10001A65180
:109F48002F18D8B429D00001AD51D8B402D0000ED2
:109F58001200010E0001AD6F000E2E24D96E040E02
:109F68002F20DA6E02C1E1FF03C1E2FFDFCFE7FF76
:109F78002E4A2F2A2FBE0AD02F5004E1270E2E5C1E
:109F8800D8A004D0000E2F6E000E2E6E000E000119
:109F9800AD6F90D7120000D0000E12001200010120
:109FA800056F80D0000E0101006F010E44EC6CF0CB
:109FB800E40E00D000D0E82EFCD700D000D002017B
:109FC8009F511F0B800902019F6F9FC202F1000E73
:109FD8001DEC6DF0800E0101BE6F0B0E0101046FC8
:109FE800620EE82EFED7042FFCD700D01200020123
:109FF8009F511F0B600902019F6F9FC202F1000E63
:10A008001DEC6DF0D9C000F1000E44EC6CF0600E50
:10A018000101BE6F1200000E0101006F000E44EC3A
:10A028006CF002019F511F0B200902019F6F9FC214
:10A0380002F1000E1DEC6DF0680E0101046FE40ED4
:10A04800E82EFED7042FFCD700D0200E0101BE6FEA
:10A058001200000E0101006F000E44EC6CF00201CA
:10A068009F511F0B400902019F6F9FC202F1000E12
:10A078001DEC6DF0400E0101BE6F1200000E0101D3
:10A08800006F000E44EC6CF002019F511F0B02019F
:10A098009F6F000E0101BE6F9FC202F1000E1DEC02
:10A0A8006DF0120001010551000AD8B4E7D7200A63
:10A0B800D8B4B1D7600AD8B4CCD7200AD8B497D7C7
:10A0C800E00AD8A412006ED712000001C351D8A428
:10A0D80004D00001D051D8B403D0000E120087D0AC
:10A0E8003A50D8A484D0C9C000F10101016B23C142
:10A0F80002F10101036BC90E0101046F000E056F27
:10A10800000E066F000E076F26EC68F00101005183
:10A118000101246F010124510101D8A402D0000ECD
:10A128001200000E01010E6F01012451010D000EF5
:10A13800F324D96E060EF420DA6EDF5095EC6EF03B
:10A14800D3A60FD0040E01010C6F010EF2EC54F0EF
:10A158000001A35101010C250101256F0001A45143
:10A1680014D0040E01010C6F010EF2EC54F0000142
:10A17800A35101010C270001A45101010D23E60E92
:10A1880001010C250101256FFF0E01010D210101BF
:10A19800266F00D0B5EC70F020C1D9FF21C1DAFFDD
:10A1A800DF6E010120EE02F02051D9262151DA227A
:10A1B80025C1DFFF010120EE01F02051D9262151F0
:10A1C800DA2201012651DF6E20C117F121C118F1F1
:10A1D80001012251030F0101196F010E01011A6FCC
:10A1E80087EC44F0010E3A6E010E120000D0000E0A
:10A1F8001200120006C1D9FF07C1DAFFDE04D8A495
:10A2080089D0050E0101086585D0F90E01010825E0
:10A218000101006F0101016BFF0E0123000E010116
:10A22800036F050E026F4BEC5FF001010051010155
:10A238000111D8A46FD0FF0E0101096FFF0E0101B3
:10A248000A6F0101085101010B6F0C6B01010951E3
:10A2580001010B2701010A5101010C2301010B51D6
:10A2680001010625D96E01010C5101010721DA6EA1
:10A278000001CC51DE18D8B420D0FF0E0101096FBF
:10A28800FF0E01010A6F0101085101010B6F0C6BF0
:10A298000101095101010B2701010A5101010C2398
:10A2A80001010B5101010625D96E01010C51010173
:10A2B8000721DA6EDE28D8A403D0010E12002AD0B6
:10A2C8000001CC29D8A423D0FF0E0101096FFF0E8D
:10A2D80001010A6F0101085101010B6F0C6B0101AB
:10A2E800095101010B2701010A5101010C23010148
:10A2F8000B5101010625D96E01010C5101010721FD
:10A30800DA6EDE28D8B403D0020E120003D0000E95
:10A31800120000D0000E1200120001010005010118
:10A328000111D8A42AD00001C151D8A4120001D02B
:10A338001200010E0001C16F000E0001A725D96EA1
:10A34800050E0001A821DA6E02C1DFFF0001A74B4C
:10A35800A82B0001A8BF0DD00001A85105E1800E6F
:10A368000001A75DD8A005D0000E0001A86F000E5F
:10A37800A76F000E0001C16F1200020E0101001943
:10A3880001010111D8A42AD00001C251D8A4120099
:10A3980001D01200010E0001C26FC90E0001A925EB
:10A3A800D96E060E0001AA21DA6E02C1DFFF000194
:10A3B800A94BAA2B0001AABF0DD0800E0001A95DF0
:10A3C800010E0001AA59D8A005D0000E0001AA6FFD
:10A3D800000EA96F000E0001C26F1200040E0101E9
:10A3E800001901010111D8A412000001AE51D8A42E
:10A3F800120001D01200010E0001AE6F000E000124
:10A40800A525D96E040E0001A621DA6E02C1DFFF70
:10A418000001A54BA62B0001A6BF0DD00001A65137
:10A4280005E1270E0001A55DD8A005D0000E0001AA
:10A43800A66F000EA56F000E0001AE6F120012008D
:10A448000001600500016111D8A42AD00001C151A2
:10A45800D8A4120001D01200010E0001C16F000E35
:10A468000001A725D96E050E0001A821DA6E62C089
:10A47800DFFF0001A74BA82B0001A8BF0DD00001EA
:10A48800A85105E1800E0001A75DD8A005D0000EF7
:10A498000001A86F000EA76F000E0001C16F120027
:10A4A800020E0001601900016111D8A42AD0000130
:10A4B800C251D8A4120001D01200010E0001C26FCF
:10A4C800C90E0001A925D96E060E0001AA21DA6E6F
:10A4D80062C0DFFF0001A94BAA2B0001AABF0DD063
:10A4E800800E0001A95D010E0001AA59D8A005D06F
:10A4F800000E0001AA6F000EA96F000E0001C26FC6
:10A508001200040E0001601900016111D8A41200A4
:10A518000001AE51D8A4120001D01200010E0001B2
:10A52800AE6F000E0001A525D96E040E0001A6210C
:10A53800DA6E62C0DFFF0001A54BA62B0001A6BFA3
:10A548000DD00001A65105E1270E0001A55DD8A098
:10A5580005D0000E0001A66F000EA56F000E0001C9
:10A56800AE6F1200120053D001018705D8A459D04C
:10A57800580E0101126FFF0E0101136FFDEC31F04F
:10A58800020E010181250101186F000E01018221CF
:10A598000101196F000E01011A6F8BEC3FF0040ED8
:10A5A80049EC6EF00009D8A411D0040E88EC6CF0C8
:10A5B8000009D8A40BD0000E0101276F010E266FE9
:10A5C800000E0101286F040EE1EC65F0000E49EC65
:10A5D8006EF00009D8B40CD0130E0101276F880E55
:10A5E800266F000E0101286F000EE1EC65F000D027
:10A5F800010E0001B26F15D08A0E0101126FFF0E15
:10A608000101136FFDEC31F0010E12000AD00101B7
:10A618008651010AD8B4F0D71F0AD8B4A5D7010AC1
:10A6280000D084C1D9FF85C1DAFFDF50D8A42AD071
:10A63800010120EE01F08451D9268551DA22DF503C
:10A64800D8A420D0010120EE02F08451D9268551EA
:10A65800DA22DF50D8A416D0010120EE03F084518D
:10A66800D9268551DA22100EDF600CD0010E0101C7
:10A67800276F2C0E266F010E0101286F140EE1ECD6
:10A6880065F000D0000E1200120001010351010113
:10A69800D8B408D0010100510101011101010211D2
:10A6A800D8A413D0000E0101006F000E0101016F44
:10A6B800000E0101026F120008D00101032B0101F5
:10A6C800D89002330133003300D0000E0101001589
:10A6D8000101056F000E010101150101066FFE0E53
:10A6E800010102150101076F010105510101061160
:10A6F80001010711D8B413D0E0D711D00101032B01
:10A70800010E01010027000E01010123000E0101C5
:10A7180002230101D89002330133003300D0000E28
:10A72800010100150101056F000E0101011501016C
:10A73800066FFF0E010102150101076F01010551A6
:10A748000101061101010711D8B40AD0D7D708D0E2
:10A75800010103070101D89000370137023700D003
:10A76800010101BF05D0020E01010361F1D700D03C
:10A77800010103B103D00101019F00D00101D8906C
:10A7880003330101035101010213010104510101C5
:10A79800D8B403D00101028F00D000C100F101C17B
:10A7A80001F102C102F1120012000001635100011F
:10A7B800D8B408D000016051000161110001621194
:10A7C800D8A413D0000E0001606F000E0001616F65
:10A7D800000E0001626F120008D00001632B000117
:10A7E800D89062336133603300D0000E00016015E9
:10A7F8000001656F000E000161150001666FFE0E15
:10A80800000162150001676F0001655100016611C2
:10A8180000016711D8B413D0E0D711D00001632B21
:10A82800010E00016027000E00016123000E0001E7
:10A8380062230001D89062336133603300D0000E88
:10A84800000160150001656F000E0001611500012F
:10A85800666FFF0E000162150001676F0001655108
:10A868000001661100016711D8B40AD0D7D708D003
:10A87800000163070001D89060376137623700D064
:10A88800000161BF05D0020E00016361F1D700D05D
:10A89800000163B103D00001619F00D00001D8908E
:10A8A8006333000163510001621300016451000128
:10A8B800D8B403D00001628F00D060C060F061C0DE
:10A8C80061F062C062F012001200000E01012D6FEB
:10A8D8000A0E2C6F010E01012E6F3E0E21EC42F084
:10A8E80081B402D0030E01D0000E0101C86F00D060
:10A8F8000101CC510101C819D8B40ED0C8C1CCF19E
:10A90800FC0E0101186F010E0101196F000E010103
:10A918001A6F8BEC3FF000D002011BBF0CD0020174
:10A928001B5104E102011A05D8A005D002011A073B
:10A93800D8A01B0700D00101BE51D8A402D0110E27
:10A9480018D002011A5102011B11D8A418D04DECDD
:10A958006BF00009D8B407D0010E02011B6F2C0E52
:10A968001A6F120E06D0000E02011B6F1E0E1A6F10
:10A97800100E0001BA6F010E0101CD6F00D0010168
:10A98800F4510101D8A40AD00101CA2B0F0E01010C
:10A99800CA6504D0010E0101F46F00D00101CE5147
:10A9A8000101D8A40DD061EC22F093B609D00101C1
:10A9B800CD510101D8B402D08A8602D08A9600D03F
:10A9C800140E88EC6CF00009D8B403D0000E000116
:10A9D800B26F010E0101B56F120012000101126F72
:10A9E80001011205D8A416D0CECF13F10101146BC2
:10A9F800CFCF15F10101166B010115510101166F39
:10AA0800156B0101135101011527010114510101B1
:10AA1800162300D0030E01011219D8A416D0B2CF04
:10AA280013F10101146BB3CF15F10101166B01018C
:10AA380015510101166F156B0101135101011527FD
:10AA4800010114510101162300D001010C5101012B
:10AA5800D8A435D015C10EF116C10FF101010E1F92
:10AA68000F1F0E4B0F2BFF0E01010E250101106F5A
:10AA7800FF0E01010F210101116F10C100F111C179
:10AA880001F10101026B036BE80E0101046F030E73
:10AA9800056F000E066F000E076FACEC67F0100E26
:10AAA80007D00101D8900333023301010133003389
:10AAB800E82EF7D700C10CF101C10DF1120015C144
:10AAC8000EF116C10FF101010E1F0F1F0E4B0F2BB8
:10AAD800FF0E01010E2501010C6FFF0E01010F2170
:10AAE80001010D6F120012000001706F0001700566
:10AAF800D8A416D0CECF73F00001746BCFCF75F009
:10AB08000001766B000175510001766F756B0001CD
:10AB1800735100017527000174510001762300D09C
:10AB2800030E00017019D8A416D0B2CF73F000013B
:10AB3800746BB3CF75F00001766B0001755100019D
:10AB4800766F756B00017351000175270001745110
:10AB58000001762300D000016C510001D8A435D043
:10AB680075C06EF076C06FF000016E1F6F1F6E4BE0
:10AB78006F2BFF0E00016E250001716FFF0E0001A3
:10AB88006F210001726F71C060F072C061F0000146
:10AB9800626B636BE80E0001646F030E656F000E55
:10ABA800666F000E676FE9EC67F0100E07D00001C2
:10ABB800D89063336233000161336033E82EF7D7EE
:10ABC80060C06CF061C06DF0120075C06EF076C0A8
:10ABD8006FF000016E1F6F1F6E4B6F2BFF0E000191
:10ABE8006E2500016C6FFF0E00016F2100016D6F73
:10ABF8001200120006EEC9F015EE6EF0EE6AE5508E
:10AC0800E150FCE1E250FAE105EE00F0BF0EEE6A19
:10AC1800E806FDE104EE00F0E70EEE6AE806FDE165
:10AC280003EE00F0F90EEE6AE806FDE102EE00F030
:10AC38009F0EEE6AE806FDE101EEAFF0410EEE6A06
:10AC4800E806FDE100EEA3F0380EEE6AE806FDE145
:10AC580000EE2CF0210EEE6AE806FDE1060EF66E17
:10AC6800BA0EF76E000EF86E06EE00F010EEC9F0A0
:10AC78000900F5CFEEFFE550E150FAE1660EF66EF9
:10AC8800D40EF76E000EF86E02EE9FF010EE57F03D
:10AC98000900F5CFEEFFE550E150FAE1400EF66EFF
:10ACA800E00EF76E000EF86E01EEF0F010EE10F008
:10ACB8000900F5CFEEFFE550E150FAE1920EF66E8D
:10ACC800E10EF76E000EF86E0900F5CFDBF0090013
:10ACD800F5CFDCF0E20EF66EE00EF76E000EF86EC1
:10ACE80000EE4DF010EE0AF00900F5CFEEFFE5504A
:10ACF800E150FAE1000EF86E0001EDEF04F00001FA
:10AD0800CD510001D8A404D0010E0001CD6F00D0B0
:10AD1800CDC007F1000E01010A6F5DD0000E0101E0
:10AD2800096F000E086F2CD001010A51010DF35074
:10AD380001010025D96EF45001010121DA6E0001EC
:10AD4800CD51010DBF0EF324E16E020EF420E26E28
:10AD5800E7500101046F01010A51010DF35001018F
:10AD68000025E16EF45001010121E26EE750010176
:10AD7800042501010A25DF6E0101084B092B00D0CB
:10AD88000001CD51010DBF0EF324D96E020EF4203F
:10AD9800DA6EDF50070B0101046F056B01010451E6
:10ADA8000101085D01010951800A0101066F0101D5
:10ADB8000551800A01010659D8A0B6D70001CD2B4C
:10ADC800070E0001CD6504D0000E0001CD6F00D044
:10ADD80001010A2B00D001010A510101046F056B22
:10ADE800010102510101045D01010551800A0101BF
:10ADF800066F01010351800A01010659D8A08ED7B8
:10AE08000101075112001200000E0101116F000E1E
:10AE18000101106F000E0F6F000E0101136F000E7D
:10AE2800126F000E0101006F040E28EC6BF0000E8B
:10AE38000101136F000E126F000E0101116F090E50
:10AE48000101116501D023D0C7EC70F000D05EEC91
:10AE580070F00009D8A4FBD7C4500101106F0F6B24
:10AE6800C35001010F13040E0101116509D001013E
:10AE78000F5101011227010110510101132300D0C4
:10AE88000A0EE82EFED700D00101112BD8D712C127
:10AE980006F113C107F1000E0101096F050E086FD5
:10AEA800B2EC66F006C112F107C113F1020E0101FE
:10AEB800006F040E28EC6BF0C29012C100F113C1B0
:10AEC80001F1000E0101036F070E026FE6EC6CF052
:10AED80000C106F101C107F1000E0101096F060E5C
:10AEE800086FB2EC66F006C112F107C113F1010157
:10AEF800D7510101125F000E0101D7BFFF0E0101FA
:10AF0800135B12C10DF113C10EF112001200000EF5
:10AF18000101096F010103AF0DD00101031F021FD9
:10AF2800011F006D000E012302230323010E0101FE
:10AF3800096F00D0010107AF0AD00101071F061FE2
:10AF4800051F046D000E05230623072300D0010109
:10AF58000451010105110101061101010711D8B4BD
:10AF68003FD0010E0101086F09D00101D8900437C4
:10AF78000537063707370101082B00D0010107BF45
:10AF880002D0F3D700D0010104510101005D010195
:10AF9800055101010159010106510101025901013F
:10AFA800075101010359D8A011D001010451010131
:10AFB800005F010105510101015B01010651010119
:10AFC800025B010107510101035B00D00101D89028
:10AFD80007330633053304330101082FD4D700D0D3
:10AFE800010109510101D8B40AD00101031F021F50
:10AFF800011F006D000E01230223032300D000C1AE
:10B0080000F101C101F102C102F103C103F1120013
:10B0180012000101086FFA0E0101086178D008C119
:10B0280009F101010A6B09C106F10AC107F1010121
:10B03800D890063707370101D8900637073706C179
:10B0480009F107C10AF104C1D9FF05C1DAFF09C135
:10B0580002F10AC103F148EC70F00101076FDE50FC
:10B0680001010719D8A451D0010120EE01F00451C3
:10B07800D9260551DA22010E010109250101026FC5
:10B08800000E01010A210101036F48EC70F0010173
:10B09800076FDE5001010719D8A437D0010120EE4F
:10B0A80002F00451D9260551DA22020E01010925C0
:10B0B8000101026F000E01010A210101036F48EC32
:10B0C80070F00101076FDE5001010719D8A41DD0E7
:10B0D800010120EE03F00451D9260551DA22030EAE
:10B0E800010109250101026F000E01010A21010178
:10B0F800036F48EC70F00101076FDE50010107197A
:10B10800D8A403D0010E120000D0000E1200000EC9
:10B1180012001200010E0001D86F000E3FEC6FF014
:10B12800000E0001D96FFF0EDCEC6AF0000EADECEA
:10B138006FF0080E76EC70F0E2C1FCF1E3C1FDF1AE
:10B14800E4C1FEF1E5C1FFF1D8C02FF1A5EC70F024
:10B15800030E0101016FEF0E006FADEC70F00101FD
:10B16800026F72EC6BF0A5EC70F0030E0101016F39
:10B17800FC0E006FB1EC70F00101026F72EC6BF025
:10B18800A5EC70F0030E0101016FFD0E006F2FC1D9
:10B1980002F172EC6BF0A5EC70F0030E0101016F87
:10B1A800FE0E006FCCC002F172EC6BF0A5EC70F0F3
:10B1B800030E0101016FE80E006FFF0E0101026F1F
:10B1C80072EC6BF0A5EC70F0030E0101016FE90E53
:10B1D800006FFF0E0101026F72EC6BF0A5EC70F0CE
:10B1E800030E0101016FEA0E006FFF0E0101026FED
:10B1F80072EC6BF0A5EC70F0030E0101016FEB0E21
:10B20800006FFF0E0101026F72EC6BF0120001017A
:10B218001F6FFA0E01011F614FD01B0E01010C6F49
:10B22800010E01010D6F01011F5108EC61F01B0EA9
:10B238000101066F010E0101076F14C108F115C164
:10B2480009F1040E01010A6F02EC6BF001011F51B4
:10B25800020DC90EF324D96E080EF420DA6EDF5001
:10B268003F0B01011A6F01011A51060DBD0EF3249F
:10B278000101066F0A0EF4200101076F16C108F1DB
:10B2880017C109F1040E01010A6F02EC6BF001010C
:10B298001F51020D010EF326000EF422C90EF324ED
:10B2A800D96E080EF420DA6EDF501F0B18C1D9FFD3
:10B2B80019C1DAFFDF6E1200E20E0101066F010EFE
:10B2C8000101076F14C108F115C109F1040E01014C
:10B2D8000A6F02EC6BF0E20E0101066F010E01012C
:10B2E800076F16C108F117C109F1040E01010A6FB1
:10B2F80002EC6BF018C1D9FF19C1DAFFFF0EDF6E3F
:10B308001200120001010D6F01010D511FEC6EF0CA
:10B318000DC100F10101016B01010651050F010189
:10B32800026F91EC51F007C108F1060E01010827E0
:10B33800020E0101096F0101082B03D00101D89009
:10B3480009370101082FFAD70101095101010A6FD4
:10B358000DC100F10101016B0AC102F191EC51F03C
:10B36800000E01010B6F000E01010C6F25D00DC1FD
:10B3780000F10101016B01010C51010DF3500101B4
:10B388000425D96EF45001010521DA6EDF50010160
:10B39800026F91EC51F001010C51010DF3500101C4
:10B3A8000425D96EF45001010521DA6EDF50010140
:10B3B8000B1B01010C2B00D00101065101010C5D92
:10B3C800D8A0D5D70DC100F10101016B0BC102F165
:10B3D80091EC51F00DC100F10101016B0D0E01015D
:10B3E800026F91EC51F00DC100F10101016B0A0EE1
:10B3F8000101026F91EC51F01200000E01010A6F79
:10B408005ED0000E0101096F000E086F2DD00101FA
:10B418000A51010DF35001010025D96EF4500101C4
:10B428000121DA6E01010A51010DF35001010025D5
:10B43800E16EF45001010121E26EE7500101056F50
:10B4480001010451010DBF0EF324E16E020EF42038
:10B45800E26EE75001010A25000801010525DF6EAB
:10B468000101084B092B00D001010451010DBF0E49
:10B47800F324D96E020EF420DA6EDF50070B0101B7
:10B48800056F066B010105510101085D01010951B4
:10B49800800A0101076F01010651800A010107595D
:10B4A800D8A0B5D70101042B070E0101046504D00B
:10B4B800000E0101046F00D001010A2B00D0010128
:10B4C8000A510101056F066B010102510101055D79
:10B4D80001010651800A0101076F01010351800A29
:10B4E80001010759D8A08DD71200030E0101342598
:10B4F8000101386F000E010135210101396F32C198
:10B5080006F133C107F103EC62F00101376F32C174
:10B5180006F133C107F138C108F139C109F1040E48
:10B5280001010A6F02EC6BF0E60E0101066F010ED5
:10B538000101076F040E010138250101086F000E93
:10B54800010139210101096F040E01010A6F02ECA2
:10B558006BF0020E0101C019D8A410D038C104F153
:10B5680039C105F101013651080F0101066F000EBE
:10B578000101076F020E86EC59F000D032C106F1C6
:10B5880033C107F1E20E0101086F010E0101096FD5
:10B59800040E01010A6F07EC6AF00009D8A40ED066
:10B5A80034C120F135C121F101013651080F0101E3
:10B5B800226F37C123F169EC50F0120034C12CF12D
:10B5C80035C12DF101013651080F01012E6FDDEC57
:10B5D8004BF01200120010C106F111C107F10EC1A3
:10B5E80008F10FC109F1040E01010A6F02EC6BF0BA
:10B5F800E60E0101006F010E0101016F000E01014D
:10B60800026F0EC103F10FC104F1040E0101056FB1
:10B61800040E0101066F33EC64F0010120EE08F01E
:10B628000E51D9260F51DA22030EDF6E010120EEEA
:10B6380009F00E51D9260F51DA22000EDF6E0101F2
:10B6480020EE0AF00E51D9260F51DA22000EDF6ED5
:10B65800E60E0101006F010E0101016F000E0101EC
:10B66800026F0EC103F10FC104F10B0E0101056F4A
:10B67800040E0101066F33EC64F010C100F111C132
:10B6880001F1000E0101026F0EC103F10FC104F1B7
:10B698000F0E0101056F040E0101066F33EC64F013
:10B6A800010120EE13F00E51D9260F51DA22000EB7
:10B6B800DF6E1200010119510101175D01011A51D4
:10B6C80001011859D8B045D00101195101011F6F66
:10B6D80001011A510101206F0101216B0101226B47
:10B6E80001011F1F201F211F221F1F2B000E2023B7
:10B6F800212322230101175101011F250101236F75
:10B7080001011851010120210101246F000E0101DE
:10B7180021210101256F000E010122210101266F5F
:10B7280001011B51010123250101276F01011C5152
:10B73800010124210101286F01011D510101252169
:10B748000101296F01011E510101262101012A6F02
:10B7580019D019C11FF11AC120F101011F1F201FA3
:10B768001F4B202B0101175101011F2701011851FF
:10B77800010120231FC127F120C128F10101296BF4
:10B788002A6B00D027C117F128C118F11200120046
:10B798000101126F010112510101D8A40DD0D6CFB9
:10B7A80013F10101146BD7CF15F111D00101155117
:10B7B8000101166F156B0ED0030E01011219D8A4E2
:10B7C80012D0B2CF13F10101146BB3CF15F10101FF
:10B7D800166BECD701011351010115270101145112
:10B7E8000101162300D001010C510101D8A435D064
:10B7F80015C10EF116C10FF101010E1F0F1F0E4BDF
:10B808000F2BFF0E01010E250101106FFF0E010124
:10B818000F210101116F10C100F111C101F10101E6
:10B82800026B036BE80E0101046F030E056F000E37
:10B83800066F000E076FACEC67F0100E07D0010121
:10B84800D89003330233010101330033E82EF7D7D0
:10B8580000C10CF101C10DF1120015C10CF116C1A6
:10B868000DF11200000E0101056F010103AF09D0AF
:10B878000101026D031FD8B0032B010E0101056FF2
:10B8880000D0010101AF09D00101006D011FD8B03E
:10B89800012B010E0101051B00D0000E0101076FED
:10B8A800000E066F0101025101010311D8B431D015
:10B8B800010E0101046F07D00101D8900237033748
:10B8C8000101042B00D0010103BF02D0F5D700D03D
:10B8D8000101D89006370737010102510101005DC7
:10B8E8000101035101010159D8A00BD001010251F6
:10B8F8000101005F010103510101015B01010681A2
:10B9080000D00101D890033302330101042FE0D79E
:10B9180000D0010105510101D8B406D00101066D1E
:10B92800071FD8B0072B00D006C100F107C101F1ED
:10B93800120012000101026F01010251060D050EED
:10B94800F326000EF422BD0EF324D96E0A0EF4205D
:10B95800DA6EDE28D8A410D001010251060D050EBA
:10B96800F326000EF422BD0EF324D96E0A0EF4203D
:10B97800DA6E00C1DFFF120001010251060D050E4B
:10B98800F326000EF422BD0EF324D96E0A0EF4201D
:10B99800DA6E01010051DE5CD8B00FD0010102510E
:10B9A800060D050EF326000EF422BD0EF324D96E03
:10B9B8000A0EF420DA6EDF2A120001010251060D88
:10B9C800050EF326000EF422BD0EF324D96E0A0EDE
:10B9D800F420DA6EDE500101005DD8B012000101DA
:10B9E8000251060D050EF326000EF422BD0EF324B7
:10B9F800D96E0A0EF420DA6EDF061200120000017A
:10BA08000203040A0B0C0D0E14151617181E1F201E
:10BA1800212228292A2B2C05060708090F101112A4
:10BA280013191A1B1C1D23242526272D2E2F3031D0
:10BA38000031302F2E2D27262524231D1C1B1A19D3
:10BA4800131211100F09080706052C2B2A29282282
:10BA580021201F1E18171615140E0D0C0B0A0403AF
:10BA6800020100010203040A0B0C0D0E141516172F
:10BA7800181E1F20212228292A2B2C050607080911
:10BA88000F10111213191A1B1C1D23242526272DEC
:10BA98002E2F30310031302F2E2D27262524231D1F
:10BAA8001C1B1A19131211100F09080706052C2B55
:10BAB8002A29282221201F1E18171615140E0D0CCE
:10BAC8000B0A040302010000000E0101086F000EBA
:10BAD800096F000E0A6F000E0B6F0101045101017E
:10BAE80005110101061101010711D8B447D0010E53
:10BAF80001010C6F09D00101D890043705370637CA
:10BB0800073701010C2B00D0010107BF02D0F3D782
:10BB180000D00101D890083709370A370B370101DF
:10BB280004510101005D01010551010101590101A3
:10BB38000651010102590101075101010359D8A019
:10BB480013D0010104510101005F010105510101F8
:10BB5800015B010106510101025B0101075101016D
:10BB6800035B0101088100D00101D8900733063337
:10BB78000533043301010C2FCCD700D008C100F1E4
:10BB880009C101F10AC102F10BC103F112001B6ED8
:10BB98003E50D8B41FD01B50D8B40CD0FF0E34245C
:10BBA8000E6EFF0E35200F6E040E106E010E8BEC1C
:10BBB80047F00AD034C00EF035C00FF0040E106EF6
:10BBC800010E8BEC47F000D0070E356E3468000E7E
:10BBD8003E6E00D0010E0001A3250001A36FF80EF0
:10BBE8000001A4210001A46F2C06D8A02D062C501A
:10BBF8002D10D8A40ED0000E2D6E100E2C6E16C26D
:10BC0800A3F017C2A4F07F0E0201176FF00E166F93
:10BC18000BD02C042D10D8A407D0010E3E6EA3C063
:10BC280034F0A4C035F000D00001C92BC80E0001C3
:10BC3800C96504D0000E0001C96F00D0020118299F
:10BC480004E102011929D8B412000201184B192B7A
:10BC580012001200000E0101156F000E146F010191
:10BC680015BF0AD0010115513CE10A0E0101145D0E
:10BC7800D8B037D001D035D008EC57F00DC1ABF0B3
:10BC88000EC1ACF00001ACBF0ED0230E0001AB5DBD
:10BC98000C0E0001AC59D8A006D00001AB51DE0F44
:10BCA8000101D72712D00001ACBF08D01C0E00013B
:10BCB800AB5D0C0E0001AC59D8B007D00001AB51F8
:10BCC80000081C0F0101D75F00D0020E0101016FAF
:10BCD8008A0E006F3EEC69F00101144B152BBFD79B
:10BCE80000D00101D751800A9F0FD8A0120001018E
:10BCF800D751800A600FD8B01200A5EC70F0030E7F
:10BD08000101016FF00E006FD7C102F172EC6BF008
:10BD18001200120000018E6F8EC0DAF0DAC060F0F7
:10BD28000001616B000E0001636F070E626FA5ECE6
:10BD38005FF0000160510101C36F880E0001DA65F0
:10BD480004D0280E0001DA6F1200000E00016F6F98
:10BD5800000E0001706F3F0E0001716FDA0E0001D6
:10BD68008A6FFF0E00018B6F0001DA5100018C6FA2
:10BD78008D6B00018A5100018C2700018B51000155
:10BD88008D2300018C1F8D1F8C4B8D2B640E0001A1
:10BD98008C250001686F000E00018D210001696F7C
:10BDA80096EC6BF068C06CF069C06DF06AC06EF01C
:10BDB80027EC4BF06CC07BF06DC07CF06EC07DF062
:10BDC80083EC4EF000017B51280F0001DA6F12005E
:10BDD8001200D3C200F1D4C201F1D5C202F1D6C219
:10BDE80003F1D7C204F1D8C205F1D9C206F1DAC20B
:10BDF80007F1ACEC67F000C1D3F201C1D4F202C183
:10BE0800D5F203C1D6F2390E0201D327300ED4235E
:10BE1800000ED523000ED623100E01010E6FD3C2DB
:10BE28000FF1D4C210F1D5C211F1D6C212F101013D
:10BE38000E6701D009D001011235123311331033C6
:10BE48000F3301010E2FF3D7FF0E01010F1501016A
:10BE5800006F7F0E010110150101016F000E010135
:10BE680011150101026F000E010112150101036F86
:10BE78000CC104F10DC105F10101066B076B8BECD8
:10BE880057F000C10CF101C10DF112001200000EB3
:10BE98000101056F010101AF09D00101006D011F0A
:10BEA800D8B0012B010E0101056F00D0010103AFCD
:10BEB80006D00101026D031FD8B0032B00D0010189
:10BEC800025101010311D8B42BD0010E0101046FF6
:10BED80007D00101D890023703370101042B00D0A5
:10BEE800010103BF02D0F5D700D0010102510101C1
:10BEF800005D0101035101010159D8A009D00101D8
:10BF080002510101005F010103510101015B00D0F1
:10BF18000101D890033302330101042FE6D700D082
:10BF2800010105510101D8B406D00101006D011FBE
:10BF3800D8B0012B00D000C100F101C101F11200FD
:10BF48001200000E0001656F000161AF09D0000109
:10BF5800606D611FD8B0612B010E0001656F00D0C4
:10BF6800000163AF06D00001626D631FD8B0632B78
:10BF780000D00001625100016311D8B42BD0010E2A
:10BF88000001646F07D00001D89062376337000161
:10BF9800642B00D0000163BF02D0F5D700D00001A8
:10BFA80062510001605D0001635100016159D8A030
:10BFB80009D0000162510001605F00016351000176
:10BFC800615B00D00001D890633362330001642FB5
:10BFD800E6D700D0000165510001D8B406D00001B1
:10BFE800606D611FD8B0612B00D060C060F061C087
:10BFF80061F0120012000EC100F10FC101F1000E34
:10C008000101026F0EC103F10FC104F1080E010115
:10C01800056F080E0101066FF3EC66F00009D8B44D
:10C0280012000EC100F10FC101F1080E0101026FEB
:10C038000EC103F10FC104F1100E0101056F080EC6
:10C048000101066FF3EC66F00009D8B41200000E87
:10C058000101106F070E0101106501D01DD0A5EC7C
:10C0680070F0F40E010110250101006F0101016B50
:10C07800030E01230101105101010E25D96E0101A2
:10C08800000E01010F21DA6EDF500101026F72EC20
:10C098006BF00101102BDED70EC100F10FC101F1C9
:10C0A800E6EC63F012001200000E0101106F000EA2
:10C0B8000F6F010110BF0AD0010110514AE1FA0EB9
:10C0C80001010F5DD8B045D001D043D00BC104F1B8
:10C0D8000CC105F101010F510DEC58F00009D8B45D
:10C0E80033D00FC10DF110C10EF1D89001010D37F9
:10C0F8000E37010E01010D27000E0E23C90E010196
:10C108000D25D96E080E01010E21DA6EDF501F0BC6
:10C118001F0AD8B419D00FC10DF110C10EF1D89073
:10C1280001010D370E37010E01010D27000E0E23F8
:10C13800C90E01010D25D96E080E01010E21DA6E16
:10C14800DF38E832070B120001010F4B102BB1D773
:10C1580000D0000E12001200EACF1FF0E1CF20F04D
:10C16800E2CF21F0D9CF22F0DACF23F0F3CF24F0B9
:10C17800F4CF25F0F6CF26F0F7CF27F0F8CF28F048
:10C18800F5CF29F09EB09DA022D09E90F80E2B6E80
:10C19800000E2A6E2B50CF6ED3B603D0010E496E17
:10C1A80000D04950CBEC5DF0010E0101BA6F0201DD
:10C1B800552B0001D051D8B404D00201224B232BB7
:10C1C80006D0000E0201236F000E226F00D029C096
:10C1D800F5FF28C0F8FF27C0F7FF26C0F6FF25C0E7
:10C1E800F4FF24C0F3FF23C0DAFF22C0D9FF21C027
:10C1F800E2FF20C0E1FF1FC0EAFF1EC0E9FF1DC02B
:10C20800FBFF1CC0FAFF11000101106FFA0E0101BB
:10C2180010613ED010C111F10101126B11C10EF174
:10C2280012C10FF10101D8900E370F370101D890D4
:10C238000E370F370EC111F10FC112F1000E0101B7
:10C24800136F030E0101136502D0120012000101E1
:10C258001351010DF35001010C25D96EF450010161
:10C268000D21DA6E01011351010111250101026F3F
:10C27800000E010112210101036F48EC70F0DF6E1E
:10C288000101132B030E01011365E1D712001200FF
:10C29800E20E0101066F010E0101076F0CC108F1E2
:10C2A8000DC109F1040E01010A6F02EC6BF01200D6
:10C2B80012000101146F030E0101086F01011451EE
:10C2C800060D050EF326000EF422BD0EF324D96EDA
:10C2D8000A0EF420DA6EDF50F6EC42F00101136F1B
:10C2E80001011451060D040EF326000EF422BD0EB2
:10C2F800F324D96E0A0EF420DA6EDF380F0B6BECDC
:10C308006DF00101135DD8B012D001011451060D72
:10C31800040EF326000EF422BD0EF324D96E0A0E85
:10C32800F420DA6EDF380F0B6BEC6DF01200030EA1
:10C338000101086F01011451060D050EF326000EC8
:10C34800F422BD0EF324D96E0A0EF420DA6EDF5003
:10C35800F6EC42F0120012000EC106F10FC107F10F
:10C36800E20E0101086F010E0101096F040E0101BF
:10C378000A6F07EC6AF00009D8A41200000E010148
:10C38800126F3E0E0101126502D012001200010167
:10C398001251060DBD0EF3240101066F0A0EF4209A
:10C3A8000101076F0EC108F10FC109F1040E010167
:10C3B8000A6F07EC6AF00009D8B418D010C111F15F
:10C3C80001011251060D040EF326000EF422BD0ED3
:10C3D800F324D96E0A0EF420DA6E0101113BDF5006
:10C3E800010111190F0B1119DF6E12000101122B37
:10C3F8003E0E01011265CBD7120012001200000E8A
:10C4080001010E6F000E0D6F010120EE03F00651C1
:10C41800D9260751DA22DF500101086F06C1D9FF7A
:10C4280007C1DAFFDF500101096F0A6B010120EE35
:10C4380001F00651D9260751DA22DF5001010B6FAE
:10C4480001010B5101010927000E0A23010120EE09
:10C4580002F00651D9260751DA22DF5001010C6F8C
:10C4680001010C5101010927000E0A23010108519D
:10C47800010109250101006F0101000E01010A21D6
:10C488000101016F000E0101036FC90E026F4BEC31
:10C498005FF000C10DF101C10EF101010D51120053
:10C4A800120001012C6F01012C510CEC46F0000E1A
:10C4B8000101C66F000E0101DF6F010E0101F36F6C
:10C4C8007F0E0201176FF00E166F7F0E0001A46F2A
:10C4D800F00EA36F000E2D6E100E2C6E070E0101CC
:10C4E8000E6F0D69040E01010F6F010E4AEC41F049
:10C4F800010E0001A3250001A36FF80E0001A4217D
:10C508000001A46F2C06D8A02D06070E356E3468DE
:10C51800090E2FEC6FF0000E01010D6F1E0E0C6F4F
:10C52800EDEC5EF05A0E01010C250101266F000E9C
:10C5380001010D210101276F010E0101286F0E0E67
:10C54800E1EC65F01200100E0101466F1AC10BF103
:10C558001BC10CF1420E01010D6F010E01010E6F9E
:10C56800B0EC3CF01D0E01011C6F2E0E01011D6F79
:10C57800460E01011E6F480E01011F6F430E010197
:10C58800206F010E01010C6F000E0D6F020E0E6F71
:10C59800000E0F6F0B0E0101106F000E116F000ED1
:10C5A800126F000E136F210E0101146F010E0101AD
:10C5B800156F98EC63F01AC10EF11BC10FF11C0E38
:10C5C8000101106F010E0101116F46C112F1000E39
:10C5D8000101136F010E0101146F000E0101156FA7
:10C5E80071EC40F012001200100E0101466F1AC1E2
:10C5F8000BF11BC10CF1420E01010D6F010E01017F
:10C608000E6FB0EC3CF01D0E01011C6F2A0E0101EB
:10C618001D6F410E01011E6F530E01011F6F460E63
:10C628000101206F010E01010C6F000E0D6F020E4B
:10C638000E6F000E0F6F0B0E0101106F000E116FC1
:10C64800000E126F000E136F210E0101146F010E00
:10C658000101156F98EC63F01AC10EF11BC10FF1BF
:10C668001C0E0101106F010E0101116F46C112F17C
:10C67800000E0101136F010E0101146F000E01017C
:10C68800156F71EC40F0120012007C0ED36E9B8C7B
:10C69800D2909B8E200E926EBE0E936E130E946EE9
:10C6A800860E806E010E816E040E826E100E0F01D2
:10C6B8005D6F000E0F015C6FF19E0F015B810F0132
:10C6C8005B930F015B950F015B970F015B990F015E
:10C6D8005B9B0F015B9D0F015B9FD180010E0101E8
:10C6E800F26F000E02012F6F000E2E6F000E020176
:10C6F8002D6F000E2C6F000E0201456F000E446F67
:10C70800000E0201476F000E466F000E0101C46F54
:10C7180002019B6902019C6902019D6902019E69EF
:10C72800000E0201516F1200000E0101166F000E7B
:10C73800176F000E186F000E196F899E030EA7EC75
:10C748006EF001010E51A7EC6EF001010D51A7EC3E
:10C758006EF001010C51A7EC6EF0000E0101166F8E
:10C76800000E176F000E186F000E196F17D0010119
:10C77800165101011425D96E010117510101152126
:10C78800DA6E93EC6FF001010051DF6E010E0101CA
:10C798001627000E17231823192300D00101105162
:10C7A8000101165D010111510101175901011251D1
:10C7B800010118590101135101011959D8A0D7D7FE
:10C7C800898E1200000E0101036F070E0101036537
:10C7D80001D019D001010351010DF35001010025C9
:10C7E800D96EF45001010121DA6E01010351010DE6
:10C7F800BF0EF324E16E020EF420E26EDFCFE7FFF6
:10C808000101032BE2D7000E0101036F070E01019E
:10C81800036502D01200120001010351010DF3500B
:10C8280001010025D96EF45001010121DA6EDE28DC
:10C83800D8A409D0070E01010319D8A408D0000E06
:10C848000101C96F04D0010E0101C96F1200010175
:10C85800032B070E01010365DFD712001200000E3B
:10C8680001010D6F3FD0010102510DC107F1010116
:10C87800086B01010727000E082300C109F101C157
:10C888000AF10101075101010927010108510101BC
:10C898000A2309C1F6FF0AC1F7FF000EF86E01016D
:10C8A80005510DC10BF101010C6B01010B27000EA5
:10C8B8000C2301010B5101010325D96E01010C5113
:10C8C80001010421DA6E0E0EF76403D00800F5505A
:10C8D80005D0F6CFE9FFF7CFEAFFEF50DF6E010191
:10C8E8000D2B00D00101065101010D5DD8A0BBD769
:10C8F800120028EC70F0899E020EA7EC6EF0010180
:10C908000751A7EC6EF001010651A7EC6EF001018A
:10C918000551A7EC6EF0000E01010F6F000E106FAD
:10C92800000E116F000E126F15D001010F51010199
:10C938000925D96E0101105101010A21DA6EDF5073
:10C94800A7EC6EF0010E01010F27000E1023112332
:10C95800122300D001010B5101010F5D01010C519F
:10C968000101105901010D510101115901010E5127
:10C9780001011259D8A0D9D7898EFCEC6FF01200AA
:10C988001200040E01010E250101066F000E0101BF
:10C998000F210101076F10C108F111C109F1040E3F
:10C9A80001010A6F02EC6BF038EC70F002C1D9FF9C
:10C9B80003C1DAFF12C1E1FF13C1E2FFDFCFE7FFD6
:10C9C8000EC106F10FC107F1E20E0101086F010E59
:10C9D8000101096F040E01010A6F07EC6AF00009F2
:10C9E800D8A412D00EC106F10FC107F1E60E01015D
:10C9F800086F010E0101096F040E01010A6F07ECAF
:10CA08006AF00009D8B402D0010E1200000E12001C
:10CA18001200000E0001CA6F3E0E010108611200EB
:10CA2800200ED3EC4FF0800ED3EC4FF001010851EB
:10CA3800020FE8EC6FF00001B751E8EC6FF0000E60
:10CA48000101096F21D001010951010DF3500101C4
:10CA58000625D96EF45001010721DA6EDF50000176
:10CA6800CA190001CA6F01010951010DF3500101F2
:10CA78000625D96EF45001010721DA6EDF50E8EC83
:10CA88006FF00101092B00D0010108510101095D76
:10CA9800D8A0D9D70001CA51E8EC6FF012001200F3
:10CAA80001010B6FFA0E01010B6112000BC10CF1B1
:10CAB80001010D6B0CC109F10DC10AF10101D890FA
:10CAC80009370A370101D89009370A3709C10CF12B
:10CAD8000AC10DF1000E01010E6F030E01010E6572
:10CAE80002D01200120001010E5101010C250101B2
:10CAF800046F000E01010D210101056F01010E51A6
:10CB0800010DF35001010725D96EF45001010821E8
:10CB1800DA6EDF500101066F4EEC6FF001010E2B4B
:10CB2800030E01010E65DFD7120012001200DDECC2
:10CB38006FF00101046F0001D351D8A41CD001018A
:10CB48000429D8A403D004C1D4F007D001010429D2
:10CB58000001D46F0001D405466E400E0001D46573
:10CB68000AD0400E0001D46F0001D405466E010EB4
:10CB78000201526F00D00001D4510001D35DD8B03A
:10CB88000ED00001D351010DA70EF324D96E040E67
:10CB9800F420DA6E04C1DFFF0001D32B00D00001BE
:10CBA800D4510001D319D8A412000001D451D8B42B
:10CBB8001200010E376E1200120001012B6F0101E5
:10CBC80026291DE101012729D8A419D001012B51DB
:10CBD800020D000EF324D96E030EF420DA6EFF0E58
:10CBE800DE6EFF0EDD6E01012B51010D320EF324B6
:10CBF800D96E030EF420DA6E28C1DFFF1200010E91
:10CC0800010126250101296F000E010127210101DB
:10CC18002A6F01012B51020D000EF324D96E030E69
:10CC2800F420DA6E29C1DEFF2AC1DDFF01012B5194
:10CC3800010D320EF324D96E030EF420DA6E28C1EA
:10CC4800DFFF12001200000E096E000E0A6E000EC1
:10CC58000B6E000E0C6E0550061007100810D8B4A5
:10CC68002FD0010E0D6E07D0D89005360636073640
:10CC780008360D2A00D008BE02D0F6D700D0D890CA
:10CC880009360A360B360C360550015C0650025838
:10CC98000750035808500458D8A00AD00550015E20
:10CCA8000650025A0750035A0850045A098000D007
:10CCB800D89008320732063205320D2EE0D700D060
:10CCC80009C001F00AC002F00BC003F00CC004F068
:10CCD80012003D0E01015D6F1AC11CF11BC11DF14F
:10CCE8001AC159F11BC15AF101015B6B5C6B59C147
:10CCF80000F15AC101F15BC102F15CC103F1380EC8
:10CD08000101046F000E056F000E066F000E076F1D
:10CD1800ACEC67F000C10CF101C10DF102C10EF1DC
:10CD280003C10FF1380E0101106F000E116F000ED4
:10CD3800126F000E136F1E0E0101146F010E010118
:10CD4800156F98EC63F01C0E0101066F010E0101CE
:10CD5800076F5DC108F10DEC65F01200000E0101CE
:10CD68000C6F000E0B6F0101085101010911D8B4B5
:10CD780031D0010E01010A6F07D00101D8900837A0
:10CD8800093701010A2B00D0010109BF02D0F5D7EC
:10CD980000D00101D8900B370C370101085101016F
:10CDA800065D0101095101010759D8A00BD0010105
:10CDB80008510101065F010109510101075B0101E9
:10CDC8000B8100D00101D8900933083301010A2FE3
:10CDD800E0D700D00BC106F10CC107F11200000E1C
:10CDE80001010D6F31D0010105510DC107F101019C
:10CDF800086B01010727000E0823010107510101F3
:10CE08000325D96E0101085101010421DA6E0101DF
:10CE180002510DC10AF101010B6B01010A27000E35
:10CE28000B2301010A5101010025E16E01010B519B
:10CE380001010121E26EDE50E618D8B402D0000EDE
:10CE4800120001010D2B00D00101065101010D5DF9
:10CE5800D8A0C9D7010E12001200000E0101116FEF
:10CE6800000E106F010111BF0AD00101115130E10C
:10CE78003F0E0101105DD8B02BD001D029D010C1D0
:10CE880000F111C101F1000E0101036F060E026FDE
:10CE9800E6EC6CF0BD0E010100250101066F0A0EDB
:10CEA800010101210101076F0EC108F10FC109F14C
:10CEB800040E01010A6F07EC6AF00009D8B403D028
:10CEC8000101105112000101104B112BCBD700D0DA
:10CED800FF0E12001200120E01010E6F010E010169
:10CEE8000F6FFC0E0101106F010E0101116FEFECC5
:10CEF8005AF0000E0101266FD40E0101006FFE0EDC
:10CF08000101016F000E0101026F120E0101036F92
:10CF1800010E0101046F150E0101056F240E0101B8
:10CF2800066F33EC64F00101C951300F01014B6FFA
:10CF3800120E0101046F010E0101056F3A0E010185
:10CF4800066F000E0101076F020E86EC59F0120001
:10CF5800000E0101086F000E096F000E0A6F000E27
:10CF68000B6F00D0010100A111D001010451010192
:10CF78000827010105510101092301010651010199
:10CF88000A230101075101010B2300D00101D890A8
:10CF980004370537063707370101D89003330233C2
:10CFA8000133003301010051010101110101021196
:10CFB80001010311D8A4D6D708C100F109C101F1B4
:10CFC8000AC102F10BC103F11200000E0001686FE3
:10CFD800000E696F000E6A6F000E6B6F00D00001C3
:10CFE80060A111D00001645100016827000165515A
:10CFF800000169230001665100016A23000167519D
:10D0080000016B2300D00001D8906437653766377C
:10D0180067370001D89063336233613360330001AE
:10D028006051000161110001621100016311D8A46F
:10D03800D6D768C060F069C061F06AC062F06BC0A2
:10D0480063F0120001010251010100250101086F7E
:10D0580001010351010101210101096F08C10AF110
:10D0680009C10BF101010C6B0D6B10D001010451CA
:10D0780001010A5F0101055101010B5B0101065124
:10D0880001010C5B0101075101010D5B0101045114
:10D0980001010A5D0101055101010B590101065108
:10D0A80001010C590101075101010D59D8B0DED712
:10D0B8000AC100F10BC101F11200060E0101446F13
:10D0C80018C10BF119C10CF1400E01010D6F010ED1
:10D0D80001010E6FB0EC3CF01F0E01011A6F2A0E11
:10D0E80001011B6F530E01011C6F460E01011D6FDC
:10D0F800540E01011E6FDBC01FF118C10EF119C1DA
:10D108000FF11A0E0101106F010E0101116F44C1D8
:10D1180012F1000E0101136F010E0101146F000ED0
:10D128000101156F71EC40F012001200000E0101B0
:10D138001B6FD40E0101006FFE0E0101016F000E7E
:10D148000101026F1B0E0101036F010E0101046F43
:10D15800010E0101056F240E0101066F33EC64F026
:10D168000101C951300F0101406F18C10EF119C1F9
:10D178000FF11B0E0101106F010E0101116F260E38
:10D188000101126F000E0101136F1AC114F1000E94
:10D198000101156F71EC40F0120012000101046FDB
:10D1A80001010451020D000EF324D96E030EF42080
:10D1B800DA6EDE50DE10D8B418D001010451020D29
:10D1C800000EF324D96E030EF420DA6EDECF02F1DE
:10D1D800DDCF03F1FF0E010102250101006FFF0EF3
:10D1E800010103210101016F120001010451020D27
:10D1F800000EF324D96E030EF420DA6EDECF00F1B0
:10D20800DDCF01F11200120001010F5101011011CF
:10D21800D8B42BD0010E0101116F07D00101D890AD
:10D228000F3710370101112B00D0010110BF02D0B8
:10D23800F5D700D001010F5101010D5D0101105119
:10D2480001010E59D8A009D001010F5101010D5F4C
:10D258000101105101010E5B00D00101D89010337B
:10D268000F330101112FE6D700D00DC10DF10EC10A
:10D278000EF1120014D0D00E0101026FCA0EE82E72
:10D28800FED7022FFCD7F60E010100250101006F21
:10D29800FF0E010101210101016F040000D001010D
:10D2A8000151E9E10B0E0101005DD8A010D0E3D7D0
:10D2B8000ED0150E0101026FC60EE82EFED7022F02
:10D2C800FCD700D001010007D8A001070400010124
:10D2D800005101010111D8A4ECD712000101026F1D
:10D2E8003F0EC716000EC66E01010251C61201019B
:10D2F8000151C71205D0C78C16D0C78CC68813D069
:10D3080001010051000AD8B4F6D7020AD8B4F5D7FB
:10D31800010AD8B4F3D707D09486928A0DD09486A0
:10D328000BD0949609D001010251040AD8B4F4D75D
:10D33800010AD8B4F4D7F5D79488949AC68A12000B
:10D34800000E01010E6F0101FB5195EC6EF0040E09
:10D3580001010C6F010EF2EC54F00001A351010120
:10D368000C250101236F0001A45101010D210101C8
:10D37800246FB5EC70F00101206F23C122F1010187
:10D3880024510101216F200E0101176F010E0101C7
:10D39800186F030E0101196F010E01011A6F87EC56
:10D3A80044F012002CD04604D8A405D086EC6FF0C7
:10D3B8000201506F00D00001D4510001D35DD8B0F4
:10D3C8000FD00001D351010DA70EF324D96E040E1E
:10D3D800F420DA6EDDEC6FF0DF6E0001D32B00D0A5
:10D3E8000001D4510001D319D8A407D00001D451A9
:10D3F800D8B403D0010E376E00D0460600D0465090
:10D40800D8A4D1D71200000E01010D6F1FD0010161
:10D418000D51010DF35001010825D96EF450010199
:10D428000921DA6E01010D51010DF35001010625A4
:10D43800E16EF45001010721E26EDE50E618D8B41F
:10D4480002D0000E120001010D2B00D001010A517B
:10D4580001010D5DD8A0DBD7010E120012002A8C45
:10D4680002020CC177643277623238F81180E938E9
:10D47800380700000507090CF2004000D880FFFFBC
:10D48800FFFFFFFFFFFFFFFFFFFFFFFFFFFFFFFFA4
:10D49800FFFF010000006D4EC641170001000800A3
:10D4A800FF00010101FFFFFFFFFFFFFFFFFFFFFF7D
:10D4B800FFFFFFFFFF000101BA51D8A412000101CC
:10D4C800BB51D8A412000101BD51D8A4120000011B
:10D4D800D051D8A412000001CB51D8A412000101E8
:10D4E800D551D8A412004C50D8A412000101D15132
:10D4F800D8A412000101B551D8A412000101F051BD
:10D50800D8B4120085EC70F0120012001D0E010153
:10D518001A6F250E01011B6FFCC11CF1FDC11DF125
:10D52800FEC11EF1FFC11FF1060E0101406F18C1B7
:10D538000EF119C10FF11A0E0101106F010E010150
:10D54800116F40C112F1000E0101136F010E0101AC
:10D55800146F000E0101156F71EC40F012001200FB
:10D568002CC121F12DC122F13C0E0101236F010EC6
:10D578000101246F010E0101256FBFEC37F02CC1AA
:10D588000EF12DC10FF131EC67F001012F6F2AC1A7
:10D5980015F12BC116F12FC117F12EC118F1000E8C
:10D5A8000101196F010E01011A6F4CEC1EF01200F7
:10D5B80001012C6F000E0101F26F2CC1CCF0000E9E
:10D5C80001012E6F3E0E2D6F2DC100F12EC101F10C
:10D5D800000E0101036F1E0E026FE6EC6CF000C135
:10D5E8002DF101C12EF12DC126F12EC127F1000E1A
:10D5F8000101286F070EE1EC65F01200000E010131
:10D608000B6F1BD001010B51010DF35001010625D1
:10D61800D96EF45001010721DA6E01010B51010D99
:10D62800F35001010825E16EF45001010921E26E71
:10D63800DFCFE7FF01010B2B00D001010A510101E7
:10D648000B5DD8A0DFD712000101026F00C101F104
:10D658000101013BC15001010119CF0B0119C16E34
:10D66800C196C190C192C19402C101F10101014763
:10D678000147C25001010119830B0119C26EC0860E
:10D68800C088C08AC050F80B0609C06EC08EC28020
:10D698001200000E0101016F3E0E0101016501D06B
:10D6A8001AD001010151060D040EF326000EF422D2
:10D6B800BD0EF324D96E0A0EF420DA6EDF500F0B7C
:10D6C8000101006F020E0101006102D0010E12007B
:10D6D8000101012BE1D7000E12001200000E01011A
:10D6E800036F01010151030B756E00C174FF02C184
:10D6F80073FF7F9E7F9C7F84000EF2BE010E0101A6
:10D70800036FF29E550E7E6EAA0E7E6E7F8200D04B
:10D718007FB2FED7010103B102D0F29E01D0F28E92
:10D728007F941200000E00016B6F000169AF09D0F1
:10D738000001686D691FD8B0692B010E00016B6F7D
:10D7480000D068C060F069C061F00001626B8E0EA5
:10D758000001636F6BC064F0D9EC53F060C068F0EF
:10D7680061C069F062C06AF0120012001A0E01016D
:10D77800006F010E0101016F88EC4CF00101406F50
:10D7880018C10EF119C10FF11A0E0101106F010E27
:10D798000101116F40C112F1000E0101136F010E5A
:10D7A8000101146F000E0101156F71EC40F01200B9
:10D7B800120093968A868986050E0101046F260E4B
:10D7C800E82EFED7042FFCD700D08996680E0101F9
:10D7D800046FE40EE82EFED7042FFCD700D0A5EC8A
:10D7E80070F0030E0101016FFE0E006FFF0E0101C4
:10D7F800026F72EC6BF012001D0E01011C6F1AC152
:10D808001DF11BC11EF1030E0101426F18C10EF17B
:10D8180019C10FF11C0E0101106F010E0101116FEA
:10D8280042C112F1000E0101136F010E0101146FC4
:10D83800010E0101156F71EC40F012000FC106F1E5
:10D8480010C107F1E60E0101086F010E0101096F11
:10D85800040E01010A6F02EC6BF00101E26901019B
:10D86800E3690101E4690101E569E60E0101066F5A
:10D87800010E0101076F03EC62F07BEC70F01200FF
:10D888000101016F010101510101D8B409D0000162
:10D89800D851D8B413D0899C8B94898012000ED0AB
:10D8A800010100510101D8B409D00001D951D8B4FF
:10D8B80005D0898C8B948990120000D0899C8B8428
:10D8C800899012000001616F000161510001D8B414
:10D8D80009D00001D851D8B413D0899C8B94898081
:10D8E80012000ED0000160510001D8B409D0000127
:10D8F800D951D8B405D0898C8B948990120000D066
:10D90800899C8B84899012000101026F01010251E8
:10D91800020D000EF324D96E030EF420DA6EDE0435
:10D92800DE10D8A40FD001010251020D000EF3241D
:10D93800D96E030EF420DA6E000EDE6E000EDD6E78
:10D94800010E1200000E120012000101006F010109
:10D9580000510101D8A409D0D59E000ED76E000E43
:10D96800D66E850ED56ED58E1200030E01010019F4
:10D97800D8A41200000EB36E000EB26E8C0EB16EFB
:10D98800A292A192B180120012000101046F01015C
:10D998000451D8090101056F05C102F13C0E1DECC7
:10D9A8006DF0C80E0101056F05C102F11A0E1DECDC
:10D9B8006DF0000E0101056F05C102F13E0E1DEC70
:10D9C8006DF012000101005101010203F3CF04F1CF
:10D9D800F4CF05F10101005101010303F3500101E6
:10D9E80005270101015101010203F3500101052737
:10D9F80004C100F105C101F11200120001012C6FF0
:10DA080001012C510101D8B404D0010E0101F36FBA
:10DA18001200000E0101F36F010E0101276F680E5D
:10DA2800266F010E0101286F0F0EE1EC65F0120060
:10DA380012000101036F899401010351A7EC6EF0F4
:10DA4800E40E00D000D0E82EFCD700D000D00101B1
:10DA58000251A7EC6EF0E40E00D000D0E82EFCD7FF
:10DA680000D000D089841200F20E02014A17ABAC34
:10DA780007D002014A91ABA003D002014A8100D02D
:10DA8800ABA402D002014A85ABA202D002014A87A8
:10DA9800AECF60F00001605112001200000E0101CB
:10DAA8000C6F010EF2EC54F001010C1F01010D1F67
:10DAB80001010C4B0D2B3E0E01010C250101176FC6
:10DAC800000E01010D210101186F12001200010161
:10DAD800006F060E0101006102D0000E03D00101A3
:10DAE8000051FB0F0101016F070E0101016503D011
:10DAF800070E0101016F0101015112001200000E11
:10DB08000101056F000E0101066F0BD01C0E0AEC17
:10DB18006EF00101066F01010651020B0101056F4C
:10DB280000D0010105510101D8B4F0D7120001015C
:10DB3800026F000E0101016F3A0E0101026108D067
:10DB48002F0E0101026504D0010E0101016F00D002
:10DB580001C100F10101003112001200000E0101A3
:10DB6800276F010E266F010E0101286F020EE1ECEE
:10DB780065F0000E0101276F010E266F010E0101ED
:10DB8800286F030EE1EC65F0120028EC70F0899E16
:10DB9800200EA7EC6EF001010751A7EC6EF0010111
:10DBA8000651A7EC6EF001010551A7EC6EF0898EC5
:10DBB800FCEC6FF0120008C100F109C101F101018C
:10DBC800026B8E0E0101036F000E0101046F49EC18
:10DBD80053F000C108F101C109F102C10AF11200B4
:10DBE80012000101006F080E0001D261120000014D
:10DBF800D251010D000EF324D96E020EF420DA6E14
:10DC080000C1DFFF0001D22B120012000101046FD6
:10DC180089940101045140090101046F0101045173
:10DC2800A7EC6EF093EC6FF000C103F18984010159
:10DC38000351120012000101036F03C100F1010139
:10DC4800016B240E0101026F91EC51F003C100F148
:10DC58000101016B240E0101026F91EC51F01200D9
:10DC68000001646F89940001645140090001646FE8
:10DC780000016451B9EC6EF0A0EC6FF060C063F085
:10DC8800898400016351120012000101026F010131
:10DC98000251020D000EF324D96E030EF420DA6E41
:10DCA800DE50DE10D8A402D0010E1200000E1200C1
:10DCB80012004A2A4A504418D8A41200000E000143
:10DCC800CB6F000E0001606F000E66EC6CF0000E6A
:10DCD8004A6E000E446E12001200020E01010C6F13
:10DCE8000AC10DF10BC10EF10D0E0101066F010EF7
:10DCF8000101076F0CC108F10DEC65F01200000E70
:10DD08000101036F899E050EA7EC6EF093EC6FF08E
:10DD1800010100510101036F898E010103511200B5
:10DD2800120001010F6F01010F514D18D8B41200F4
:10DD380001D012000EC104F101010F51C2EC43F0F1
:10DD48000FC14DF012000101016FC9CF00F19E967D
:10DD5800C69E01C1C9FFC6BE120002D0120000D083
:10DD68009EB61200FDD7120012000001616FC9CFE4
:10DD780060F09E96C69E61C0C9FFC6BE120002D062
:10DD8800120000D09EB61200FDD712001200010149
:10DD9800036F0001BD51D8B41200000E0101016FDC
:10DDA800020E006F03C102F191EC51F01200120053
:10DDB80052C020F1200E0101176F010E0101186FEA
:10DDC800010E0101196F010E01011A6F87EC44F071
:10DDD80012000101066F01010651010B0001D86F05
:10DDE800010106510E0B0101056F010105513FECC0
:10DDF8006FF01200000162510201D7270001635140
:10DE08000201D823000164510201D92300016551A0
:10DE18000201DA2312000101046F4B50D8A405D087
:10DE28000101C1510101D8B4120001010451CBEC28
:10DE38006EF012001200D08EF290F28C0F015A9FF1
:10DE48000F015A9D0F015A9B0F015A99F286F190C2
:10DE5800F28E9F9A12000101006F01010051020D1C
:10DE6800000EF324D96E030EF420DA6E000EDE6E77
:10DE7800000EDD6E12000101046F0201B951F00BB2
:10DE8800010104110201B96FB9C202F1340E1DEC8F
:10DE98006DF01200010E0101E16FA5EC70F004C1F4
:10DEA80000F105C101F106C102F172EC6BF012003C
:10DEB800200ED3EC4FF0400ED3EC4FF017EC70F07F
:10DEC80083EC6DF0600ED3EC4FF012000101006F8F
:10DED80000C1C6F1010100510101D8A41200010ED0
:10DEE8000101F36F1200120001010151030B756E5D
:10DEF80000C174FF7F9C7F9E7F8000F000F073500C
:10DF0800120012003C0E0AEC6EF00101056F0101CF
:10DF180005A102D0010E1200000E12001200C9CF96
:10DF280002F19E96000EC96E00D09EA6FED7C9CFFC
:10DF380000F10101016B1200C9CF62F09E96000E3C
:10DF4800C96E00D09EA6FED7C9CF60F00001616BF4
:10DF580012000101046F04C1B7F004C1BCF2BCC2D5
:10DF680002F13A0E1DEC6DF012000101006F010183
:10DF780000510101D8B402D0939612009386120082
:10DF880012000101006F010100510101D8B402D053
:10DF98008B8E12008B9E12001200000E0101276F5B
:10DFA800050E266F010E0101286F140EE1EC65F0D5
:10DFB80012008984899293EC6FF000C103F1898281
:10DFC80001010351120012000101026F8984899234
:10DFD80001010251A7EC6EF0898212005128D8B4D1
:10DFE80002D0512A02D0000E516E51501200120078
:10DFF80000D083EC6EF00101046F010104B1F9D780
:10E00800120000D083EC6EF00101046F010104A33B
:10E01800F9D712000101496F48C12CF1010149519A
:10E02800F6EC25F01200070E0101046F04C102F19D
:10E038001C0E1DEC6DF012000108010101FF3C01EE
:10E0480001010119FFFFFFFF899E060EA7EC6EF084
:10E05800898E05EC70F0120000C1D3F201C1D4F230
:10E068000201D56BD66B120040EC70F000C102F1D2
:10E0780001C103F112001200DA0E0101006F000E57
:10E088000101016F1200120002C100F103C101F188
:10E0980078EC6FF0120012000101066F01010651C1
:10E0A80057EC70F012000101056F01010551ADEC4C
:10E0B8006FF01200C2A202D0010E1200000E120070
:10E0C8001200070E0101016F006912001200280EEC
:10E0D80034EC6EF08EEC5EF0120003FF01FFFFFFE0
:10E0E80000C201000101006F00C1F1F1120001013D
:10E0F800006F00C1D2F11200B3C100F1B4C101F147
:10E108001200D39ED18E0300040012000201B951FF
:10E118000E0B12001200B3C160F0B4C161F012001E
:10E1280077C0B3F178C0B4F112009DEC70F0120022
:10E1380012000001C351120012000101C651120061
:10E14800120000D07FB2FED712000201DF51120088
:10E1580012000101F151120012000001B751120022
:10E1680012000001C951120012000001C951120029
:10E1780012000001C35112001200FA0E1200120020
:10E18800000E12001200C2821200FF0312001200D9
:02E19800120073
:10FEBE000001000A006400E8031027010010000092
:10FECE00010010000100656D446967696E532C32A4
:10FEDE002E3231342C312E33312C322C312C302C1D
:10FEEE003030303030303030302C003C453E4E6FAC
:10FEFE007420416C6C6F77656420746F2073656E2F
:10FF0E00643C2F453E004D6173743A2030782530A5
:10FF1E00325825303258253032582530325820008C
:10FF2E0049443A2030782530325825303258253021
:10FF3E0032582530325820004669726D77617265ED
:10FF4E003A2076322E32313420003C543E476574CE
:10FF5E00526566726573683C2F543E003031323301
:10FF6E003435363738394142434445460047726F7F
:10FF7E0075703A2030782530325820003C543E526D
:10FF8E006566726573683C2F543E004E6F64653A29
:10FF9E00203078253032582000436F723A202530B9
:10FFAE00325820004261743A2025303458200053D4
:10FFBE00533A202530325820005070723A2025696D
:10FFCE002000547970653A20003C2F44413E003C9D
:10FFDE002F55413E005744525354003C44413E007D
:10FFEE003C55413E0025632000424F5200504F5277
:02FFFE00000001
:020000040020DA
:08000000FFFFFFFFFFFFFFFF00
:020000040030CA
:0E0000001D981B36FF8980FF0FC00FE00F40D8
:00000001FF
