:0408000006EF05F00A
:10080800FACF1CF0FBCF1DF0E9CF1EF0A8EF6DF07A
:10081800D8CF8FF0E8CF90F0E0CF91F0FACF92F0F8
:10082800FBCF93F0E9CF94F0EACF95F0E1CF96F0C3
:10083800E2CF97F0D9CF98F0DACF99F0F3CF9AF0CA
:10084800F4CF9BF0F6CF9CF0F7CF9DF0F8CF9EF059
:10085800F5CF9FF0A2D0000E0001A26FF2A066D0E3
:1008680081CFA0F000F0F2900001A0A95BD0600E4B
:100878000101B919D8A44BD00001CD51D8A43AD060
:100888000001C851D8A436D02AEC7EF00101EE6FE1
:10089800040E00016C6F010EBCEC61F06CC077F0C7
:1008A8006DC078F0FDEC7DF0D3B606D001D004D051
:1008B800010E0101CD6F00D0D9EC7DF0F8EC7DF090
:1008C8000001A351000160270001A4510001612328
:1008D800000160C062F0000161C063F00001646B58
:1008E800656B79EC7CF0010E0101B66F010E000119
:1008F800CD6F18D00001C851D8A414D001D012D09F
:100908002EEC7EF000D0010E0101B76F0BD0800EE7
:100918000101B919D8A406D0010E0101B86FD8ECAD
:100928007BF000D0010E0001A26F00D09EBA9DAAF4
:1009380028D09FEC7AF00001A16F9E9AABA208D054
:100948004F0EAB16AC9ACF0E9D1621EC56F015D073
:10095800ABB413D001D011D0A7B20FD001D00DD0B5
:10096800000E0001616F010E606FA1C062F0A9EC7A
:1009780060F0640E0101CB6F00D0010E0001A26F80
:1009880000D0F0A40ED0F1A602D0010E01D0000EC6
:100998000101C56F00D0F176F094010E0001A26F3D
:1009A80000D00001A2510001D8A455D7A1B2A0A23D
:1009B80006D0B190A192A0926BEC5BF000D09FC0E2
:1009C800F5FF9EC0F8FF9DC0F7FF9CC0F6FF9BC0D7
:1009D800F4FF9AC0F3FF99C0DAFF98C0D9FF97C017
:1009E800E2FF96C0E1FF95C0EAFF94C0E9FF93C01B
:1009F800FBFF92C0FAFF91C0E0FF90C0E8FF8FC0F4
:100A0800D8FF10000EEF5CF0000ED0B6010E010109
:100A1800F16F000ED0B2010E0201FC6F000ED0B0D3
:100A2800010E0201FB6F000E0001CE6F38EC66F07C
:100A3800030E0101016FE80E006FADEC76F0030EB6
:100A48000101016FF00E006FE3EC7CF00101D16F42
:100A58000101D129D8B404D0010E0101C06F00D022
:100A6800C7EC62F005D08A9CEEEC7DF0C7EC62F032
:100A78000DC1ABF00EC1ACF000D00001ACBFF3D794
:100A88003E0E0001AB5D080E0001AC59D8A0EBD7B3
:100A9800B6EC78F0360E0101016FB00E006FADECC8
:100AA80076F00101C0510101D8A40ED00001ACBFFD
:100AB8000BD0870E0001AB5D0B0E0001AC59D8A01E
:100AC80003D0C7EC6AF000D0000E0101006F000EE1
:100AD8000101016F020EE1EC76F004008CEC40F0AD
:100AE8000400F2C200F10101016B92EC7DF0B0EC60
:100AF8007BF0010E0101BC6F0101F1510101D8A485
:100B080013D0E20E0101126FFF0E0101136F13ECF7
:100B180036F0000E0101016F040E006F060E010190
:100B2800026F1CEC60F02CD00201FC510201D8B419
:100B380018D00201FB510201D8A413D0F60E01010E
:100B4800126FFF0E0101136F13EC36F0000E010156
:100B5800016F040E006F070E0101026F1CEC60F0BC
:100B68000FD00201FC510201D8A40AD0FA0E0101EB
:100B7800126FFF0E0101136F13EC36F0D08200D014
:100B8800000E4DEC6FF0CF0E0101126FFF0E010148
:100B9800136F13EC36F0DE0E0101126FFE0E010129
:100BA800136F13EC36F0F20E0101126FFF0E010104
:100BB800136F300E0101C3250101146F0101156B7C
:100BC800000E152313EC36F0A60E0101126FFF0E6E
:100BD8000101136FABC014F1ACC015F113EC36F082
:100BE800380E0101126FFF0E0101136FEFC214F1ED
:100BF8000101156BF0C216F10101176BF1C218F172
:100C08000101196BF2C21AF101011B6B13EC36F0EA
:100C18001E0E0101126FFF0E0101136FF7C114F1CF
:100C28000101156BF8C116F10101176BF9C118F133
:100C38000101196BFAC11AF101011B6B13EC36F0B3
:100C4800820E0101126FFF0E0101136F1EEC7EF080
:100C58000301ED6F0301ED510101146F156B13ECE6
:100C680036F0730E0101126FFF0E0101136FC9C038
:100C780014F10101156B13EC36F0500E0101126FDF
:100C8800FF0E0101136F13EC36F09B0E0101126F7A
:100C9800FF0E0101136FD1C114F10101156B13ECA3
:100CA80036F0C60E0101126FFF0E0101136F81BAF3
:100CB80002D0010E01D0000E0101146F156B13EC68
:100CC80036F0EF0E01010F6F020E0101106F67EC95
:100CD80079F0E8EC41F019EC7BF0000E0101276F88
:100CE8001E0E266F010E0101286F040E43EC72F0F0
:100CF800000E0401E86F000E0101066F000E076F79
:100D0800020E086F000E096F010E01010A6F000E36
:100D18000B6F000E0C6F000E0D6FE80E01010E6FC9
:100D2800040E01010F6F41EC70F00401E805D8A42E
:100D38001ED0000E0401E86F000E0101056F000EC1
:100D4800066F020E076F000E086FE80E0101096FAB
:100D5800040E01010A6F010E01010B6F000E0C6FEA
:100D6800000E0D6F000E0E6F26EC71F000D0EF0E26
:100D78000101066F020E0101076FDB0E0101086F0A
:100D8800010E0101096F040E01010A6FA2EC77F050
:100D98000009D8B403D00400FED700D0ABEC79F03A
:100DA800000E0101BC6F00D00101D451D8A4B1EFED
:100DB8000CF0000E10EC7AF00001D451D8B402D037
:100DC800FF0000D0000E0101DA6F04000101B551E7
:100DD800D8B485D00101B951D8B41CD0B9EC7AF097
:100DE80017C134F218C135F2020135510CE11F0E5A
:100DF8000201345DD8B007D0000E01014A6F010E20
:100E08002DEC1AF007D0000E01014A6F000E2DECF0
:100E18001AF000D00101F2510101D8B426D0F70E22
:100E280001010B6F010E01010C6FD90E01010D6F4D
:100E3800040E01010E6F5BEC45F00301ED6F1F0E10
:100E48000301ED6112D0F70E0101186F010E0101C7
:100E5800196F000E01011A6F68EC75F00009D8B41B
:100E680004D0000E0101F26F00D0000E0101B56F31
:100E78003E0E77EC38F0E30E0101006F010E010120
:100E8800016F93EC52F056EC46F012EC7EF000093C
:100E9800D8B425D00101F0510101D8B420D0010EF9
:100EA8000101BC6FBC0E0101126FFF0E0101136F2F
:100EB8009AEC7DF002C1D9FF03C1DAFFDF500301CC
:100EC800ED6F0301ED510101146F156B13EC36F052
:100ED800000E0101BC6F000E0101F06F00D0B9ECEB
:100EE8007AF017C134F218C135F20201355105E123
:100EF800070E0201345DD8A02AD00201355127E13E
:100F08001F0E0201345DD8B022D00101CF51D8B4F0
:100F18001ED0DF0E01010E6F040E01010F6FA20E2D
:100F28000101106F040E0101116FBAC112F1000E18
:100F38000101136F010E0101146F000E0101156FFD
:100F48002EEC49F000D0000E0101CF6F00D0010156
:100F5800B751D8B409D0000E0101B76F200EABEC21
:100F68005CF0600EABEC5CF00001CD51D8B43AD027
:100F7800E9EC7DF000C117F101C118F1040E01017F
:100F88000C6F010E36EC61F00CC119F10DC11AF1AC
:100F9800C7EC7DF0010100C11BF1010101C11CF189
:100FA80001011D6B1E6B94EC67F017C1DDF418C1CD
:100FB800DEF44B0E0401DD5D010E0401DE59D8A0FC
:100FC80011D00101B651D8B40AD00001C851D8A433
:100FD80006D0FDEC71F0000E0101B66F00D045ECB3
:100FE80077F000D0270E01010E6F040E01010F6F7C
:100FF800E50E0101106F010E0101116F40EC48F080
:101008000009D8B452D0270E01012C6F040E01013B
:101018002D6FE5C12EF1CDC12FF1EEC130F13FECBE
:1010280030F00009D8B43AD02A0E01010E6F040E30
:1010380001010F6F8D0E0101106F020E0101116F7A
:10104800E60E0101126F040E0101136F6EEC71F0D0
:101058000009D8B423D00B0E0401E56F8D0E0101F1
:101068008B6F020E01018C6F0401E551010D270EF3
:10107800F32401018D6F040EF42001018E6F040129
:10108800E55100080101E52501018F6FE6C490F1E3
:10109800000E0101916FBAEC13F000D0000E0001B0
:1010A800CD6F000E0101CD6F00D0030E0101E319D1
:1010B800D8A414D0030E0101E419D8A40FD0000E4F
:1010C8000101E36F000E0101E46F030E0101006FDF
:1010D800010E3DEC7EF00101BF8944D0020E0101F2
:1010E800E419D8A40CD0000E0101E46F020E01012E
:1010F800006F010E3DEC7EF00101BF8733D0010186
:10110800E405D8A40CD0000E0101E46F010E010122
:10111800006F010E3DEC7EF00101BF8523D0020E69
:101128000101E319D8A40ED0000E0101E36F4DECC4
:1011380064F0020E0101006F000E3DEC7EF001012B
:10114800BF8310D00101E305D8A40CD0000E010123
:10115800E36F010E0101006F000E3DEC7EF001010E
:10116800BF8100D00101B851D8B42AD0000E0101C6
:10117800B86F800E0101B919D8A410D00101D3515C
:101188000101D8A404D00101D451D8B407D0000E6D
:10119800ABEC5CF0000E0101D36F10D0800E0101A2
:1011A800B919D8A40BD00001C851D8A407D0200E73
:1011B800ABEC5CF0600EABEC5CF000D0040000D04F
:1011C800ACA21AD0000E0101016F020E006FE70EEB
:1011D8000101026F010E0101036F20EC5AF00009B2
:1011E800D8B406D00101E751F1EC7CF0010E01D032
:1011F800000E0101D96F00D0000E0101016F010E30
:10120800006FE70E0101026F010E0101036F20EC70
:101218005AF00009D8B408D0E7C10DF1010EA8ECC6
:1012280022F00101B46F18D00101CB51D8B403D01A
:101238000101CB0700D00101CB51D8A40DD0050E78
:101248000001D819D8A408D00101EB51D8B404D0B2
:10125800010E0101E86F00D00101B451D8B46BD17F
:1012680003015E51C00B0401E96F0401E945E8463A
:10127800030B0401E96FED0E0101126FFF0E01016E
:10128800136F13EC36F00401E9510401D8A409D115
:10129800000E0101BB6F12EC7EF00009D8B43FD1FB
:1012A8005D0E0101006F030E0101016F020E0101C5
:1012B800026FDB0E0101036F010E0101046F000EC6
:1012C8000101056F040E0101066F10EC73F00009AF
:1012D800D8B4BDD00A0E0101BA6FDFC1A2F4E0C1D3
:1012E800A3F4E1C1A4F4E2C1A5F41D0E0401A66FA4
:1012F8002B0E0401A76F5FC3A8F460C3A9F461C3F0
:10130800AAF462C3ABF4010E0101BC6F0101E551FF
:10131800FA0F0101E56F000E0101016F020E006F67
:10132800240E0101026F1CEC60F0000E0101016F38
:10133800020E006F240E0101026F1CEC60F0000E1B
:101348000101016F020E006F0101E551040F010157
:10135800026F1CEC60F0000E0101016F020E006FBD
:10136800000E0101026F1CEC60F0000E0401E36F37
:10137800000E0401E76F22D0000E0101016F020E7A
:10138800006F0401E751010DA20EF324D96E040E7B
:10139800F420DA6EDF500101026F1CEC60F00401EA
:1013A800E751010DA20EF324D96E040EF420DA6E73
:1013B800DF500401E31B0401E72B00D0FF0E0301FB
:1013C800ED6FFF0E0301EE6F0101BA510301EF6FDC
:1013D800F06B0301ED510301EF270301EE51030107
:1013E800F0230401E7510301F16FF26B0301EF51A0
:1013F8000301F15D0301F251800A0301F36F030158
:10140800F051800A0301F359D8A0B6D7000E0101A4
:10141800016F020E006FE3C402F11CEC60F0000ED5
:101428000101016F020E006F0D0E0101026F1CEC2D
:1014380060F0000E0101016F020E006F0A0E01013B
:10144800026F1CEC60F0000E0101BC6F68D0000157
:10145800D651F80F0101BA6F020E0401A26F5D0E9A
:101468000101006F030E0101016F060E0101026FF9
:10147800A20E0101036F040E0101046F010E0101A8
:10148800056FBAC106F1DCEC70F05FC3DFF460C32E
:10149800E0F461C3E1F462C3E2F4010E0101CF6F2D
:1014A8003ED0020E0401E919D8A439D0020E010178
:1014B800BB6F12EC7EF00009D8B431D05F0E010189
:1014C8000E6F030E01010F6FD50E0101106F040E90
:1014D8000101116FE40E0101126F040E0101136F77
:1014E8006EEC71F00009D8B41AD0630E01018B6F4D
:1014F800030E01018C6F670E01018D6F030E010150
:101508008E6F0001D651F30F01018F6F280E010174
:10151800906F010E0101916FBAEC13F000D0000E2C
:101528000101B46FDC0E0101126FFF0E0101136F90
:1015380013EC36F000D0010EEFEC79F00009D8B4C6
:1015480017D0050E0101276FA00E266F020E0101AC
:10155800286F0C0E43EC72F00D0E9AEC7CF0010132
:10156800D3510101D8B404D0000E0101D36F00D0CB
:101578000A0EEFEC79F00009D8B420D0F70E01017B
:10158800066F010E0101076FDB0E0101086F010EE6
:101598000101096F040E01010A6FA2EC77F000093E
:1015A800D8A40CD0F70E0101186F010E0101196FB4
:1015B800000E01011A6F68EC3AF000D00B0EEFEC48
:1015C80079F00009D8B415D0000E02011B6F000E87
:1015D8001A6F000E02011D6F000E1C6F000E020133
:1015E800376F000E366F000E0201396F000E386F2C
:1015F80000D0000EEFEC79F00009D8B404D0000E4A
:101608000101BF6F00D00B0EC4EC7BF00009D8B409
:101618000BD0050E0101276FA00E266F020E0101E7
:10162800286F0B0E43EC72F00A0EC4EC7BF000D06E
:1016380002010F5105E10B0E02010E5DD8A00CD07E
:10164800070E9DEC4FF0000ED5EC7CF0000E020169
:101658000F6F000E0E6F00D00101BE51D8B40AD032
:10166800000E01010D6F240E0C6FE5EC6BF001010B
:10167800BE0700D0000E0201516F0C0EC4EC7BF0C7
:101688000009D8B40CD0050E0101276FA00E266FF3
:10169800020E0101286F0C0E43EC72F000D001011C
:1016A800CE51D8B41ED0050E0101276FA00E266FAB
:1016B800020E0101286F0C0E43EC72F0000E0101BE
:1016C800CE6F0101B951D8B40CD00101BD5101014F
:1016D800D8A407D0000E0101D36F0D0E9AEC7CF050
:1016E80000D0170EEFEC79F00009D8B40ED0070E31
:1016F8004DEC6FF0000E0101276F0A0E266F020EE7
:101708000101286F170E43EC72F0170EC4EC7BF042
:101718000009D8B40BD0000E0101276F0A0E266FFE
:10172800020E0101286F170E43EC72F00C0EEFEC5D
:1017380079F00009D8B40BD0040E0101276FB00E60
:10174800266F010E0101286F0D0E43EC72F00D0E8D
:10175800EFEC79F00009D8B40BD0020E0101276F25
:10176800580E266F010E0101286F0C0E43EC72F023
:10177800180EEFEC79F00009D8B413D0FA0E000176
:10178800CE6103D00001CE2B00D0000E0101276FDF
:101798000A0E266F020E0101286F180E43EC72F034
:1017A80000D0180EC4EC7BF00009D8B40BD0000EA2
:1017B8000101276F0A0E266F020E0101286F180E0D
:1017C80043EC72F0110EEFEC79F00009D8B406D0B2
:1017D800010E0101D66F39EC33F000D0100EEFEC9A
:1017E80079F00009D8B41DD012EC7EF00009D8A415
:1017F80018D00101F3510101D8B404D08CEC73F076
:10180800000E0CD0F70E0101186F010E0101196FBF
:10181800010E01011A6F68EC3AF0010E0101F36F35
:1018280000D0100EC4EC7BF00009D8B40CD0000E28
:101838000101276F1E0E266F010E0101286F100E81
:1018480043EC72F000D00001ACBF08D03E0E00019E
:10185800AB5D080E0001AC59D8B00BD00101BD51E9
:101868000101D8B452D00101B951D8B455D04DD0E6
:1018780053D00101BD510101D8B410D00101BD51AF
:101888000101D8B439D00001ACBF36D07D0E0001BB
:10189800AB5D080E0001AC59D8A02ED0000E010196
:1018A800BD6F010E0DEC76F001010051010101112F
:1018B800D8B404D00CD030D010D02ED00D0E0DECF2
:1018C80076F00101005101010111D8B40DD00101D8
:1018D800B951D8B421D001D01FD00101D351010191
:1018E800D8A41AD015D018D00101B951D8A414D051
:1018F800000E4DEC6FF010D00101BD510101D8B4BC
:101908000BD00101B951D8B407D0010E0101BD6F48
:10191800010E0101D36F00D0040E01010C6F000EFF
:1019280002EC68F00CC10AF20DC10BF202010A5177
:1019380002011C5D02010B5102011D59D8B009D0EA
:101948000101DA51D8A405D00AC21CF20BC21DF25B
:1019580000D076EC77F0D8EF06F027EC6BF00009B2
:10196800D8B4D8EF06F0EEEC7DF0010E0001D46F8C
:10197800D8EF06F006EF05F02DC121F12EC122F1B6
:1019880034C123F131C106F132C107F133C108F185
:10199800D6EC5DF00101246F000E0101256F2AECE1
:1019A8003FF00101576F2DC106F12EC107F12FC17C
:1019B80008F130C109F1040E01010A6F46EC78F014
:1019C800010135510101D8A410D02DC106F12EC155
:1019D80007F1F70E0101086F020E0101096F040EED
:1019E80001010A6F46EC78F000D0010E0101336561
:1019F800B7EF13F031C1D9FF32C1DAFFDE04D8A442
:101A08001AD0050E0101336516D0F90E01013325F0
:101A18000101006F0101016BFF0E0123000E01019E
:101A2800036F050E026F43EC6CF0010100510101D8
:101A38000111D8B40CD0000E0101276F0A0E266FD1
:101A4800020E0101286F170E43EC72F000D031C16D
:101A5800D9FF32C1DAFFDE04D8A466D1050E010130
:101A6800336562D1F90E010133250101006F0101CF
:101A7800016BFF0E0123000E0101036F050E026FBB
:101A880043EC6CF00101005101010111D8A44CD1C3
:101A9800FF0E0101366FFF0E0101376F010133514F
:101AA8000101386F396B01013651010138270101F5
:101AB8003751010139230101385101013125D96E0E
:101AC8000101395101013221DA6E0001C951DE18D4
:101AD800D8B424D0FF0E0101366FFF0E0101376F15
:101AE800010133510101386F396B01013651010190
:101AF800382701013751010139230101385101010A
:101B08003125D96E0101395101013221DA6EDE2801
:101B1800D8A4B7EF13F002D0B7EF13F0000E01010D
:101B2800596F010E586FE7D0050E010158250101C4
:101B3800366F000E010159210101376F0101335140
:101B48000101386F396B010136510101385D01011E
:101B58003951800A01013A6F01013751800A0101A8
:101B68003A59D8A082D0010159BF7FD001015951FB
:101B780005E1060E0101585DD8A077D031C100F10A
:101B880032C101F158C102F1400E0101036F010E8B
:101B98000101046F000E0101056F040E0101066FBB
:101BA800DCEC70F0040E010158250101366F000EBF
:101BB800010159210101376F010136510101312518
:101BC800D96E0101375101013221DA6EDF5001016E
:101BD800386F050E0101396F0101D89038330101C2
:101BE800392FFAD701013851070B01014C6F040E48
:101BF800010158250101366F000E0101592101012B
:101C0800376F0101365101013125D96E0101375174
:101C180001013221DA6EDF501F0B0101546F1E0ED5
:101C28000101546506D0000E01014F6F1F0E4E6F63
:101C38000AD0010E0101542501014E6F01014F6BBD
:101C4800000E4F2300D0400E0101156F010E010157
:101C5800166F57C117F14EC118F14CC119F1000E9A
:101C680001011A6F93EC1EF03CD0010158050101E7
:101C78005911D8A436D031C100F132C101F1010E99
:101C88000101026FDF0E0101036F010E0101046FF4
:101C9800000E0101056F040E0101066F10EC73F0D0
:101CA8000009D8B41ED02DC10EF12EC10FF1040EBB
:101CB800010158250101366F000E0101592101016A
:101CC800376F0101365101013125D96E01013751B4
:101CD80001013221DA6EDF500101106FA8EC6EF0BD
:101CE80000D0050E010158250101586F000E0101B1
:101CF80059210101596F010133510101366F376BC9
:101D0800010136510101585D01015951800A010153
:101D1800386F01013751800A01013859D8B0B7EF3F
:101D280013F002D7B7EF13F031C1D9FF32C1DAFF90
:101D3800020EDE18D8A423D0010120EE02F03151A2
:101D4800D9263251DA22DE5002016019D8A4B7EF41
:101D580013F0000E0201576F000E02018A6F020E87
:101D680002018B6F000E0101D56F510E0101346124
:101D7800B7EF13F0010E02014B6FB7EF13F031C14B
:101D8800D9FF32C1DAFF020EDF64B7EF13F00B0E92
:101D980001013365B7EF13F0010E0101CE6F000E9C
:101DA80069EC7AF0010120EE02F03151D926325166
:101DB800DA22DE5002016019D8A40AD0000E02010E
:101DC800576F000E02018A6F020E02018B6F00D05E
:101DD800010120EE01F03151D9263251DA22DE50CC
:101DE80002016019D8A498D1580E0101006F020EA3
:101DF8000101016F000E0101026F31C103F132C10F
:101E080004F1030E0101056F040E0101066F10ECC9
:101E180073F00009D8B480D1010120EE01F03151EE
:101E2800D9263251DA22DF500101B26F010E0001CA
:101E3800BB6F2DC106F12EC107F1EB0E0101086F32
:101E4800020E0101096F040E01010A6F46EC78F0D9
:101E5800010120EE07F03151D9263251DA22010171
:101E6800DF51DE18D8A424D0010120EE08F031514A
:101E7800D9263251DA220101E051DE18D8A418D04F
:101E8800010120EE09F03151D9263251DA2201013F
:101E9800E151DE18D8A40CD0010120EE0AF031512E
:101EA800D9263251DA220101E251DE18D8B434D1F0
:101EB80031C1D9FF32C1DAFF040EDE18D8B429D1F6
:101EC80001D027D131C100F132C101F1030E010166
:101ED800026FDF0E0101036F010E0101046F000E96
:101EE8000101056F040E0101066F10EC73F0000983
:101EF800D8A40FD101D00DD1010120EE0BF0315142
:101F0800D9263251DA2202018C51DE5CD8B003D0D6
:101F1800000E1200FED0C9C250F1CAC251F1CBC2A4
:101F280052F1CCC253F131C100F132C101F1070EB7
:101F38000101026F440E0101036F010E0101046FDC
:101F4800000E0101056F040E0101066FDCEC70F054
:101F5800440E01010B6F010E01010C6F500E0101BF
:101F68000D6F010E01010E6F5BEC45F001014D6F25
:101F780001015569500E0101066F010E0101076F3D
:101F8800DB0E0101086F010E0101096F040E01014A
:101F98000A6FA2EC77F00009D8A40AD0500E01010C
:101FA8000E6F010E01010F6F4EEC73F00101556FBA
:101FB800580E0101066F020E0101076FF30E0101B1
:101FC800086F020E0101096F040E01010A6F46EC49
:101FD80078F060C2EAF252EC7DF00201606F040E04
:101FE8000201616F060E0201576F000E02018A6F2F
:101FF800020E02018B6F31C100F132C101F1030EF3
:102008000101026F5C0E0101036F020E0101046FF2
:10201800000E0101056F040E0101066FDCEC70F083
:10202800DF0E0101066F010E0101076F580E010155
:10203800086F020E0101096F040E01010A6F46ECD8
:1020480078F0000E02018C6F1D0E0201626F2B0EDC
:102058000201636F440E0101006F010E0101016F5F
:10206800000E0101026F620E0101036F020E0101F1
:10207800046F020E0101056F040E0101066FDCEC0E
:1020880070F0500E0101006F010E0101016F000E8A
:102098000101026F620E0101036F020E0101046F5C
:1020A800060E0101056F040E0101066FDCEC70F0ED
:1020B8002DC100F12EC101F1000E0101026F620E67
:1020C8000101036F020E0101046F0A0E0101056F81
:1020D800040E0101066FDCEC70F04DC170F255C1C1
:1020E80071F201015551060D040EF326000EF4227B
:1020F800BD0EF324D96E0A0EF420DA6EDF500F0BF2
:102108000201726F110E0201886F000E0101D56F76
:1021180000D0000E120000D002015751D8A408D0F8
:102128000001BB51D8A404D002018951D8B44ED0C3
:102138005C0E0101066F020E0101076F030E01011B
:1021480031250101086F000E010132210101096FDB
:10215800040E01010A6FA2EC77F00009D8B433D05D
:1021680002015751D8B42FD00001BB51D8A42BD0AD
:1021780002018951D8A427D0010120EE01F0315184
:10218800D9263251DA220201EA51DE18D8A41ED02B
:10219800F30E0101006F020E0101016F000E010133
:1021A800026F31C103F132C104F1030E0101056F61
:1021B800040E0101066F10EC73F00009D8B406D0C4
:1021C800000E120003D0000E120000D0010120EE14
:1021D80007F03151D9263251DA220101DF51DE18D8
:1021E800D8A424D0010120EE08F03151D92632516B
:1021F800DA220101E051DE18D8A418D0010120EE3E
:1022080009F03151D9263251DA220101E151DE18A3
:10221800D8A40CD0010120EE0AF03151D926325150
:10222800DA220101E251DE18D8B4D0D0010120EE43
:102238000BF03151D9263251DA221F0EDE18D8A4FC
:1022480002D0000E1200580E0101066F020E0101A5
:10225800076FF30E0101086F020E0101096F040EEA
:1022680001010A6F46EC78F060C2EAF2010120EE43
:1022780001F03151D9263251DA22DF500201606F64
:1022880031C1D9FF32C1DAFFDF500201616F060E9A
:102298000201576F000E02018A6F020E02018B6F56
:1022A80031C100F132C101F1070E0101026F5C0E6C
:1022B8000101036F020E0101046F000E0101056F99
:1022C800040E0101066FDCEC70F031C100F132C17F
:1022D80001F1030E0101026F580E0101036F020E96
:1022E8000101046F000E0101056F040E0101066F64
:1022F800DCEC70F0010120EE0BF03151D92632519F
:10230800DA22DF500101366F0101362902018C6F94
:1023180031C100F132C101F10C0E0101026F620EF0
:102328000101036F020E0101046F000E0101056F28
:1023380001013351F40F0101066FDCEC70F001016B
:102348003351F40F0201886F000E0101D56F0101AE
:1023580020EE01F03151D9263251DA22DF50010145
:10236800B26F010E0001BB6F2DC106F12EC107F13E
:10237800EB0E0101086F020E0101096F040E010145
:102388000A6F46EC78F02DC121F12EC122F134C13B
:1023980023F1010E0101246F010E0101256F2AECC2
:1023A8003FF00101576F580E0101156F020E010130
:1023B800166F57C117F18CC218F1000E0101196F81
:1023C800010E01011A6F93EC1EF0CDD1580E0101D8
:1023D800066F020E0101076FF30E0101086F020E6E
:1023E8000101096F040E01010A6F46EC78F060C222
:1023F800EAF2010120EE01F03151D9263251DA22F8
:10240800DF500201606F31C1D9FF32C1DAFFDF50FE
:102418000201616F000E0201576F000E02018A6F00
:10242800020E02018B6F31C100F132C101F1070EBA
:102438000101026F5C0E0101036F020E0101046FBE
:10244800000E0101056F040E0101066FDCEC70F04F
:1024580031C100F132C101F1030E0101026F580EC2
:102468000101036F020E0101046F000E0101056FE7
:10247800040E0101066FDCEC70F031C100F132C1CD
:1024880001F1030E0101026F2FC103F130C104F104
:10249800000E0101056F040E0101066FDCEC70F0FF
:1024A800010120EE0BF03151D9263251DA22DF50EA
:1024B8000101366F0101362902018C6F31C100F12B
:1024C80032C101F10C0E0101026F620E0101036FAE
:1024D800020E0101046F000E0101056F0101335165
:1024E800F40F0101066FDCEC70F001013351F40FB9
:1024F8000201886F010120EE01F03151D9263251D5
:10250800DA22DF500101B26F010E0001BB6F2DC14D
:1025180006F12EC107F1EB0E0101086F020E010151
:10252800096F040E01010A6F46EC78F0000E0101F4
:10253800D56F2DC121F12EC122F134C123F1010E35
:102548000101246F010E0101256F2AEC3FF0010102
:10255800576F580E0101156F020E0101166F57C112
:1025680017F18CC218F1000E0101196F010E01015B
:102578001A6F93EC1EF0090E02016119D8A405D058
:1025880002016351B2EC7DF0EED002016239E842FB
:10259800070B0101566F010156510101D8B41ED035
:1025A8000101C351D8B41AD00D0E01013125010122
:1025B800006F000E010132210101016FF30E0101CC
:1025C80033250101026F0101036BFF0E032356C17E
:1025D80004F1C0EC65F0010E1200C5D0010156519E
:1025E8000101D8A409D00101C351D8A405D0F3D75B
:1025F80003D0F1D71200B7D0020162511F0B0C0AA9
:10260800D8B4E9D7020162511F0B1E0AD8A407D01B
:1026180002016351D8A403D0DED71200A4D0CDC2E2
:1026280048F1CEC249F1CFC24AF1D0C24BF131C113
:1026380000F132C101F1070E0101026F3B0E0101E9
:10264800036F010E0101046F000E0101056F040EF6
:102658000101066FDCEC70F03B0E01010B6F010EFF
:1026680001010C6F480E01010D6F010E01010E6F83
:102678005BEC45F001013F69480E0101066F010E50
:102688000101076FDB0E0101086F010E0101096FDF
:10269800040E01010A6FA2EC77F00009D8A40AD051
:1026A800480E01010E6F010E01010F6F4EEC73F021
:1026B80001013F6F580E0101066F020E0101076FFD
:1026C800F30E0101086F020E0101096F040E0101EA
:1026D8000A6F46EC78F060C2EAF252EC7DF0020133
:1026E800606F040E0201616F060E0201576F000E43
:1026F80002018A6F020E02018B6F31C100F132C1F3
:1027080001F1030E0101026F5C0E0101036F020E5D
:102718000101046F000E0101056F040E0101066F2F
:10272800DCEC70F0DF0E0101066F010E0101076F8E
:10273800580E0101086F020E0101096F040E010114
:102748000A6F46EC78F0000E02018C6F1D0E020134
:10275800626F2C0E0201636F020E0201886F000E79
:102768000101D56F00D0000E120012008BC12DF1AF
:102778008CC12EF1A30E01012F6F010E0101306FE4
:102788008DC131F18EC132F18FC133F190C134F175
:1027980091C135F1C0EC0CF00009D8B41200000E5C
:1027A8000101A26F010120EE0CF08D51D9268E5146
:1027B800DA22DF501F0B0101A76F0101A9691B0E67
:1027C8000101A7650BD0010120EE0DF08D51D9262E
:1027D8008E51DA22DF500101A96F00D0000E0101ED
:1027E8009B6F0C0E01018D250101006F000E010188
:1027F8008E210101016F020E0101026F0C0E010111
:102808008D250101036F000E01018E210101046F66
:10281800060E0101056F040E0101066F10EC73F03E
:102828000009D8B426D00C0E01018D250101006FD6
:10283800000E01018E210101016F060E0101026FD8
:102848000C0E01018D250101036F000E01018E217F
:102858000101046F0A0E0101056F040E0101066FE4
:1028680010EC73F00009D8B404D0010E01019B6F7D
:1028780000D09BC1AAF1000E01019C6F0C0E010152
:102888008D250101006F000E01018E210101016FEC
:10289800030E0101026F0C0E01018D250101036F6A
:1028A800000E01018E210101046F070E0101056F61
:1028B800040E0101066F10EC73F00009D8B426D09D
:1028C8000C0E01018D250101006F000E01018E2102
:1028D8000101016F070E0101026F0C0E01018D2528
:1028E8000101036F000E01018E210101046F0B0E1F
:1028F8000101056F040E0101066F10EC73F0000969
:10290800D8B404D0010E01019C6F00D09CC19DF188
:10291800ADEF18F0CAEF18F01AD0CAEF18F0190E78
:1029280001018F19D8A4CAEF18F00D0E01018D25E9
:102938000101186F000E01018E210101196F000EAF
:1029480001011A6F68EC75F0CAEF18F046D0010E55
:102958000101A26FCAEF18F0010120EE0EF08D51AF
:10296800D9268E51DA22410EDE18D8A4CAEF18F003
:10297800010120EE0FF08D51D9268E51DA22530E27
:10298800DE18D8A4CAEF18F0010120EE10F08D511E
:10299800D9268E51DA22460EDE18D8A4F7D3DD0EDA
:1029A8000101066F030E0101076F110E01018D254C
:1029B8000101086F000E01018E210101096F0B0E44
:1029C80001010A6FA2EC77F00009D8B4DFD3000E3A
:1029D8000101D66F39EC33F0D9D30101A951030AAB
:1029E800D8B4B5D7290AD8B4B7D7D0D306D10101FE
:1029F800AA510101D8B4CAD30E0E01018D250101D7
:102A0800186F000E01018E210101196F000E0101DE
:102A18001A6F68EC75F0BAD301019D510101D8B461
:102A280017D00F0E01018D250101206F000E010145
:102A38008E210101216F010120EE0EF08D51D92662
:102A48008E51DA22DF500101226F4DEC53F09ED3F4
:102A5800A30E0101186F010E0101196F2D0E01015E
:102A68001A6F010120EE01F08D51D9268E51DA221C
:102A7800DF5001011B6F45EC79F088D301019D51AE
:102A88000101D8B417D00F0E01018D2501010E6F79
:102A9800000E01018E2101010F6F010120EE0EF0E1
:102AA8008D51D9268E51DA22DF500101106FDBECEF
:102AB8004EF06CD3A30E0101186F010E0101196FBE
:102AC8002D0E01011A6F010120EE01F08D51D9265A
:102AD8008E51DA22DF5001011B6F45EC79F056D395
:102AE8000101AA510101D8A451D301D04FD3A30E9B
:102AF8000101186F010E0101196F2D0E01011A6FE6
:102B0800010120EE01F08D51D9268E51DA22DF50D5
:102B180001011B6F45EC79F039D30101AA5101017C
:102B2800D8B434D30E0E01018D250101186F000EA3
:102B380001018E210101196F22EC79F027D30101DF
:102B480020EE0EF08D51D9268E51DA22520EDE1863
:102B5800D8A419D0010120EE0FF08D51D9268E513D
:102B6800DA22530EDE18D8A40ED0010120EE10F0A0
:102B78008D51D9268E51DA22490EDE18D8A403D0F9
:102B8800A2EC7DF003D3A30E0101186F010E010121
:102B9800196F2D0E01011A6F010120EE01F08D5100
:102BA800D9268E51DA22DF5001011B6F45EC79F0EE
:102BB800EDD20101AA510101D8B4E8D20E0E0101EB
:102BC8008D250101186F000E01018E210101196F79
:102BD800CEEC77F0DBD20101AA510101D8B4D6D2EC
:102BE8000E0E01018D250101186F000E01018E21C5
:102BF8000101196F9FEC6FF0C9D20101A951000AB8
:102C0800D8B4F5D6040AD8B4C1D2240AD8B404D7A3
:102C1800010AD8B433D7030AD8B462D7010AD8B4A2
:102C28007CD7070AD8B48BD7010AD8B4C2D70B0A05
:102C3800D8B4D1D7ABD26CD20E0E01018D250101CB
:102C48002F6F000E01018E210101306FC5EC3DF0A0
:102C5800A30E0101186F010E0101196F22EC79F022
:102C680095D28DC100F18EC101F10E0E0101026FE6
:102C7800F70E0101036F010E0101046F000E01013F
:102C8800056F040E0101066FDCEC70F00D0E0101FA
:102C98008D250101186F000E01018E210101196FA8
:102CA800CEEC77F073D28DC100F18EC101F10E0E1A
:102CB8000101026F8DC103F18EC104F1170E0101EC
:102CC800056F040E0101066F10EC73F00009D8B40B
:102CD80099D08DC100F18EC101F1170E0101026F6B
:102CE8008DC103F18EC104F1200E0101056F040EA0
:102CF8000101066F10EC73F00009D8B483D08DC1C0
:102D080000F18EC101F1120E0101026F8DC103F1B4
:102D18008EC104F11B0E0101056F040E0101066F3F
:102D280010EC73F00009D8B46DD08DC100F18EC1DC
:102D380001F11B0E0101026F8DC103F18EC104F177
:102D4800240E0101056F040E0101066F10EC73F0EB
:102D58000009D8B457D0010120EE1FF08D51D926B3
:102D68008E51DA22010110EE16F08D51E1268E51B6
:102D7800E222DE50E618D8A445D0010120EE28F062
:102D88008D51D9268E51DA22010110EE1FF08D5196
:102D9800E1268E51E222DE50E618D8A433D00E0E7A
:102DA80001018D2501012A6F000E01018E2101010B
:102DB8002B6F120E01018D2501012C6F000E0101F0
:102DC8008E2101012D6F010120EE16F08D51D926BB
:102DD8008E51DA22DF5001012E6FF8EC77F0A30E46
:102DE8000101186F010E0101196F0E0E01018D25E9
:102DF80001011A6F000E01018E2101011B6FD9EC30
:102E080051F0C4D1A30E0101186F010E0101196F11
:102E18002D0E01011A6F010120EE01F08D51D92606
:102E28008E51DA22DF5001011B6F45EC79F0AED1EB
:102E38000E0E01018D2501010E6F000E01018E217C
:102E480001010F6FF7EC6CF0A30E0101186F010E72
:102E58000101196F010E01011A6F68EC75F096D126
:102E6800010120EE0EF08D51D9268E51DA22520E34
:102E7800DE18D8A48BD1010120EE0FF08D51D92690
:102E88008E51DA22530EDE18D8A480D1010120EE2B
:102E980010F08D51D9268E51DA22540EDE18D8A49E
:102EA80075D1FF0073D1010120EE0EF08D51D926A6
:102EB8008E51DA22530EDE18D8A468D1010120EE13
:102EC8000FF08D51D9268E51DA22460EDE18D8A47D
:102ED8005DD1010120EE10F08D51D9268E51DA22F4
:102EE800540EDE18D8A452D1A30E0101186F010E9A
:102EF8000101196FF0EC6FF0010120EE11F08D5116
:102F0800D9268E51DA22DF500101ED6F150E01012D
:102F1800276F7C0E266F000E0101286F110E43ECFF
:102F280072F034D1010120EE0EF08D51D9268E5168
:102F3800DA22530EDE18D8A458D0010120EE0FF083
:102F48008D51D9268E51DA22520EDE18D8A44DD0D2
:102F5800010120EE10F08D51D9268E51DA22460E4D
:102F6800DE18D8A442D0010120EE11F08D51D926E7
:102F78008E51DA22040EDF6038D0010120EE11F004
:102F88008D51D9268E51DA22DF5001019A6F010145
:102F980020EE12F08D51D9268E51DA22DF50010130
:102FA800926F0101925101019F6FA06B01019F5126
:102FB8000101A06F9F6B010120EE13F08D51D926FE
:102FC8008E51DA22DF500101926F01019251010105
:102FD8009F27000EA0239FC126F1A0C127F19AC107
:102FE80028F1010E43EC72F0D1D0A30E0101186F45
:102FF800010E0101196F2D0E01011A6F010120EE5A
:1030080001F08D51D9268E51DA22DF5001011B6F54
:1030180045EC79F0BBD0010120EE0EF08D51D92698
:103028008E51DA22DF50D8090101996F99C102F156
:103038003C0E84EC7AF0AAD00101AA510101D8B45F
:10304800A5D0010120EE1BF08D51D9268E51DA2230
:10305800DF500101926F010192510101AD6FAE6B1A
:103068000101AD510101AE6FAD6B010120EE1AF007
:103078008D51D9268E51DA22DF500101926F01015C
:1030880092510101AD27000EAE230101AD05090ED5
:103098000101AE59D8A006D0000E0101AE6F000E96
:1030A800AD6F74D0010120EE1CF08D51D9268E51E0
:1030B800DA22DF500101ED6F0E0E01018D250101AD
:1030C800186F000E01018E210101196FF6EC74F0E2
:1030D800010120EE1DF08D51D9268E51DA22DF50E4
:1030E8000101E66F1E0E01018D250101066F000E1C
:1030F80001018E210101076FDD0E0101086F030E2A
:103108000101096F0B0E01010A6F46EC78F03ED001
:103118000101A951040AD8B48FD7270AD8B48CD58D
:10312800060AD8B49ED5030AD8B4BDD5010AD8B4C6
:103138007FD60F0AD8B494D6010AD8B427D0030A88
:10314800D8B4B1D66A0AD8B4EDD6BE0AD8B463D713
:103158001DD00101A751000AD8B418D0020AD8B46A
:10316800ABEF14F0060AD8B411D0080AD8B493EF1C
:1031780014F0100AD8B40AD0010AD8B42ED4030A1D
:10318800D8B43BD5010AD8B4C3D700D00101A251A5
:103198000101D8A420D00C0E01018D250101826FF8
:1031A800000E01018E210101836F90C184F1A30EED
:1031B8000101856F010E0101866FA7C187F1A9C1C1
:1031C80088F101018F51F40F0101896FB9EC4BF0BF
:1031D8000101A26F00D00101A2510101D8B412006F
:1031E800E80E0101126FFF0E0101136F13EC36F0A8
:1031F8000101BB51D8A423D1010E0101BC6F01010B
:103208008F51FD0F01019E6F000E0101016F020E2B
:10321800006F240E0101026F1CEC60F0000E01012A
:10322800016F020E006F240E0101026F1CEC60F0AA
:10323800000E0101016F020E006F9EC102F11CEC2D
:1032480060F0000E0101016F020E006F000E010117
:10325800026F1CEC60F0000E0101A16F000E01016D
:10326800016F020E006F010120EE03F08D51D92687
:103278008E51DA22DF500101026F1CEC60F001016F
:1032880020EE03F08D51D9268E51DA22DF5001014C
:10329800A11B000E0101016F020E006F010120EE5B
:1032A80004F08D51D9268E51DA22DF500101026FC8
:1032B8001CEC60F0010120EE04F08D51D9268E51EE
:1032C800DA22DF500101A11B000E0101016F020E7D
:1032D800006F010120EE05F08D51D9268E51DA22BA
:1032E800DF500101026F1CEC60F0010120EE05F0D7
:1032F8008D51D9268E51DA22DF500101A11B000E13
:103308000101016F020E006F010120EE06F08D51E0
:10331800D9268E51DA22DF500101026F1CEC60F0D1
:10332800010120EE06F08D51D9268E51DA22DF50A8
:103338000101A11B000E0101A86F38D0000E010188
:10334800016F020E006F0101A8510101926F936B8A
:103358000C0E01019227000E9323010192510101E5
:103368008D25D96E0101935101018E21DA6EDF504E
:103378000101026F1CEC60F00101A8510101926F7C
:10338800936B0C0E01019227000E932301019251B9
:1033980001018D25D96E0101935101018E21DA6E4B
:1033A800DF500101A11B0101A82B00D0F70E01017C
:1033B800926FFF0E0101936F01019E510101946FFD
:1033C800956B01019251010194270101935101016B
:1033D80095230101A8510101966F976B0101945142
:1033E8000101965D01019751800A0101986F010161
:1033F8009551800A01019859D8A0A0D7000E010163
:10340800016F020E006FA1C102F11CEC60F0000E0A
:103418000101016F020E006F0D0E0101026F1CEC1D
:1034280060F0000E0101016F020E006F0A0E01012B
:10343800026F1CEC60F0000E0101BC6F00D0D60ECC
:103448000101126FFF0E0101136F13EC36F0120029
:10345800120001015A6F02015751D8A414D000017B
:10346800BB51D8A410D002018951D8A40CD00101B5
:103478004A05D8A408D0010E0101486F01015A512C
:1034880078EC7DF008D0000E0101486F01015A5117
:1034980078EC7DF000D0700E01015B6F040E010125
:1034A8005C6F22EC7EF00009D8A416D0D9C20CF1CA
:1034B800DAC20DF1E5EC6BF0010E01010C250201F9
:1034C800006F000E01010D210201016F000E0201C3
:1034D800DC6F000EDB6F00D00AEC7EF00009D8B478
:1034E800DED002018951D8B47BD001015A510101C3
:1034F800D8B476D0000E0201896F5BC1D9FF5CC1D8
:10350800DAFF61C2DFFF010120EE01F05B51D9262D
:103518005C51DA2260C2DFFF010120EE02F05B514C
:10352800D9265C51DA22B2C1DFFF580E0101006FC3
:10353800020E0101016F000E0101026F5BC103F170
:103548005CC104F1030E0101056F040E0101066F51
:10355800DCEC70F05C0E0101006F020E0101016FDE
:10356800000E0101026F5BC103F15CC104F1070E9B
:103578000101056F040E0101066FDCEC70F001011A
:1035880020EE0BF05B51D9265C51DA228CC2DFFFAA
:10359800620E0101006F020E0101016F000E0101B0
:1035A800026F5BC103F15CC104F10C0E0101056FF0
:1035B80088C206F1DCEC70F0DB0E0101326F010EFF
:1035C8000101336F650E0101346F040E0101356F7F
:1035D800020188510C0F0101366FAFEC66F05BD029
:1035E800020100510201DB1956E1020101510201F9
:1035F800DC19D8A450D001015A510101D8B442D0E5
:1036080012EC7EF00009D8B43DD00101EA51D8B4DB
:1036180027D042EC2DF00101516FDB0E0101326F12
:10362800010E0101336F650E0101346F040E0101B3
:10363800356F51C136F1AFEC66F00009D8A42BD034
:1036480001D029D00201D9510201005D0201DA51ED
:1036580002010159D8B01FD00201004B012B1BD029
:10366800DB0E0101326F010E0101336F650E01019E
:10367800346F040E0101356F000E0101366FAFEC97
:1036880066F009D0030E0101126FFF0E0101136FDE
:1036980013EC36F000D00201DB4BDC2BDBD2C5C2C9
:1036A80056F1C6C257F1C7C258F1C8C259F1010153
:1036B800D551D8A4C1D00101D52B02018A51D8A473
:1036C800B8D0010E02015765C5D25C0E01010B6F1F
:1036D800020E01010C6F560E01010D6F010E010162
:1036E8000E6F5BEC45F00101526F0001BB51D8B47D
:1036F80016D0560E0101066F010E0101076FEB0E81
:103708000101086F020E0101096F040E01010A6F21
:10371800A2EC77F00009D8A49DD201D09BD28BC22D
:103728000CF101010D6BE5EC6BF001010C5102018C
:103738008A6F01015A510101D8B48CD2020157078E
:1037480002018B2B1F0E0101526184D25BC1D9FF8C
:103758005CC1DAFF61C2DFFF010120EE01F05B51BD
:10376800D9265C51DA2260C2DFFF010120EE02F0A7
:103778005B51D9265C51DA22B2C1DFFF580E010134
:10378800006F020E0101016F000E0101026F5BC1A3
:1037980003F15CC104F1030E0101056F040E010180
:1037A800066FDCEC70F05C0E0101006F020E010187
:1037B800016F000E0101026F5BC103F15CC104F1EE
:1037C800070E0101056F040E0101066FDCEC70F0B5
:1037D800010120EE0BF05B51D9265C51DA228CC234
:1037E800DFFF620E0101006F020E0101016F000E82
:1037F8000101026F5BC103F15CC104F10C0E010110
:10380800056F88C206F1DCEC70F0560E0101326FCC
:10381800010E0101336F650E0101346F040E0101C1
:10382800356F020188510C0F0101366FAFEC66F05D
:1038380011D202018A070ED20101D505D8A4E8D019
:103848000001BB51D8B4E4D00101D52B5C0E0101B5
:103858000B6F020E01010C6F560E01010D6F010E68
:1038680001010E6F5BEC45F00101536F010E02017F
:1038780057659CD0560E0101066F010E0101076FB6
:10388800EB0E0101086F020E0101096F040E010120
:103898000A6FA2EC77F00009D8B488D0000E0201B4
:1038A800576F000E02018A6F020E02018B6F010131
:1038B8005A510101D8B4CED11F0E01015361CAD1AA
:1038C800000E0001BB6F5BC1D9FF5CC1DAFF61C2AA
:1038D800DFFF010120EE01F05B51D9265C51DA22AD
:1038E80060C2DFFF010120EE02F05B51D9265C5176
:1038F800DA22B2C1DFFF580E0101006F020E01018A
:10390800016F000E0101026F5BC103F15CC104F19C
:10391800030E0101056F040E0101066FDCEC70F067
:103928005C0E0101006F020E0101016F000E010122
:10393800026F5BC103F15CC104F1070E0101056F61
:10394800040E0101066FDCEC70F0010120EE0BF0B3
:103958005B51D9265C51DA228CC2DFFF620E01016D
:10396800006F020E0101016F000E0101026F5BC1C1
:1039780003F15CC104F10C0E0101056F88C206F168
:10398800DCEC70F0560E0101326F010E0101336F4D
:10399800650E0101346F040E0101356F0201885173
:1039A8000C0F0101366FAFEC66F054D1000E000128
:1039B800BB6F5BC1D9FF5CC1DAFF020EDF6E01018C
:1039C80020EE01F05B51D9265C51DA22000EDF6E41
:1039D800010120EE02F05B51D9265C51DA22B2C116
:1039E800DFFF01015A510101D8B434D1EB0E0101B6
:1039F800326F020E0101336F650E0101346F040E40
:103A08000101356F030E0101366FAFEC66F022D16C
:103A1800020E0101D5651BD102015705D8A413D1A7
:103A28005C0E01010B6F020E01010C6F560E0101B5
:103A38000D6F010E01010E6F5BEC45F00101546F33
:103A480001015569560E0101066F010E0101076F4C
:103A5800DB0E0101086F010E0101096F040E01015F
:103A68000A6FA2EC77F00009D8A40BD0560E01011A
:103A78000E6F010E01010F6F4EEC73F00101556FCF
:103A880000D0040E02016119D8B414D0580E0101F7
:103A9800066F020E0101076FDF0E0101086F010EAC
:103AA8000101096F040E01010A6FA2EC77F0000909
:103AB800D8B40AD0000E0201576F000E02018A6FB7
:103AC800020E02018B6FBFD0580E0101066F020E65
:103AD8000101076FDF0E0101086F010E0101096F77
:103AE800040E01010A6FA2EC77F00009D8A4ABD04C
:103AF80001D0A9D0580E0101066F020E0101076F0F
:103B0800F30E0101086F020E0101096F040E010195
:103B18000A6F46EC78F060C2EAF252EC7DF00201DE
:103B2800606F040E0201616F060E0201576F000EEE
:103B380002018A6F020E02018B6F5C0E0101066F93
:103B4800020E0101076F4D0E0101086F010E010100
:103B5800096F040E01010A6F46EC78F0580E010156
:103B6800066F020E0101076F5C0E0101086F020E5D
:103B78000101096F040E01010A6F46EC78F0DF0EAF
:103B88000101066F010E0101076F580E0101086F50
:103B9800020E0101096F040E01010A6F46EC78F06C
:103BA800000E02018C6F1D0E0201626F2B0E0201C6
:103BB800636F4D0E0101006F010E0101016F000ED0
:103BC8000101026F620E0101036F020E0101046F11
:103BD800020E0101056F040E0101066FDCEC70F0A6
:103BE800560E0101006F010E0101016F000E010167
:103BF800026F620E0101036F020E0101046F060ECF
:103C08000101056F040E0101066FDCEC70F054C170
:103C18006CF255C16DF201015551060D040EF326E3
:103C2800000EF422BD0EF324D96E0A0EF420DA6ECB
:103C3800DF500F0B02016E6F0D0E0201886F000E30
:103C48000101D56F00D0000E0101D56F03D001012D
:103C5800D52B00D022EC7EF00009D8A40CD00201AC
:103C68003F2B020E02013F6506D05DEC50F0000EBE
:103C780002013F6F00D002013A2B0101E951020114
:103C88003A5DD8A03FD00101B351020DC90EF3240B
:103C9800D96E080EF420DA6EDF38E832E832030B0A
:103CA8000009D8B422D0010E01014B6F0101B351B4
:103CB800020DC90EF324D96E080EF420DA6EDF382F
:103CC80001014C6F4C334C31030B4C6F01014B51CC
:103CD80001014C5F01014C3B4C374C37DF5001016F
:103CE8004C193F0B4C19DF6E00D00101B32BF90EB4
:103CF8000101B36503D0000E0101B36F000E02018C
:103D08003A6F00D0070EEFEC79F00009D8B4120032
:103D1800E8EC41F0010E0101EA6F1200120015C132
:103D280006F116C107F1DF0E0101086F010E01014E
:103D3800096F040E01010A6FA2EC77F00009D8A4FC
:103D4800120001D0120001011729D8B4120001D0C5
:103D58001200030E0101086F01011751060D050E2F
:103D6800F326000EF422BD0EF324D96E0A0EF420B9
:103D7800DA6EDF5087EC4CF00101196151D0030E67
:103D88000101086F01011751060D050EF326000EFB
:103D9800F422BD0EF324D96E0A0EF420DA6EDF5039
:103DA80087EC4CF001011B6F01011751060D040E41
:103DB800F326000EF422BD0EF324D96E0A0EF42069
:103DC800DA6EDF380F0BD2EC7AF001011B5DD8B048
:103DD80012D001011751060D040EF326000EF4222D
:103DE800BD0EF324D96E0A0EF420DA6EDF380F0BFD
:103DF800D2EC7AF03AD0030E0101086F0101175195
:103E0800060D050EF326000EF422BD0EF324D96E1E
:103E18000A0EF420DA6EDF5087EC4CF026D02BD057
:103E280001011751060D040EF326000EF422BD0EF3
:103E3800F324D96E0A0EF420DA6EDF380F0BD2ECB9
:103E48007AF00101196114D001011751060D040E11
:103E5800F326000EF422BD0EF324D96E0A0EF420C8
:103E6800DA6EDF380F0BD2EC7AF001011F6F03D046
:103E780019C11FF100D0000E0101206FF90E0101D8
:103E8800206501D06BD215C104F116C105F10101FD
:103E98002051CCEC63F00009D8B45DD20101205167
:103EA800020DC90EF324D96E080EF420DA6EDF5025
:103EB8003F0B55EC6EF001011C6F01012051020D02
:103EC800010EF326000EF422C90EF324D96E080E53
:103ED800F420DA6EDF38E832070B01011B6F0101AD
:103EE8001C5101011B5DD8B019D01CC11BF1010187
:103EF8002051020D010EF326000EF422C90EF32400
:103F0800D96E080EF420DA6E01011B3B1B47DF5007
:103F180001011B191F0B1B19DF6E00D001011A517B
:103F28000101D8B42DD001012051020D010EF32654
:103F3800000EF422C90EF324D96E080EF420DA6EAE
:103F4800DF5001011819E00B1819DF6E010120512B
:103F5800020DC90EF324D96E080EF420DA6EDF5074
:103F680001011719C00B1719DF6E01012051020D4D
:103F7800C90EF324D96E080EF420DA6EC00EDF12D3
:103F880001012051020DC90EF324D96E080EF42048
:103F9800DA6EDF503F0B01011719D8A444D01FC1B6
:103FA8001BF101012051020D010EF326000EF4222F
:103FB800C90EF324D96E080EF420DA6E01011B3BFA
:103FC8001B47DF5001011B191F0B1B19DF6E010175
:103FD8002051020D010EF326000EF422C90EF3241F
:103FE800D96E080EF420DA6EDF501F0B0101181984
:103FF800D8B405D0010117515CEC7BF000D0010169
:104008002051020D010EF326000EF422C90EF324EE
:10401800D96E080EF420DA6EDF5001011819E00B92
:104028001819DF6E120001012051020DC90EF32488
:10403800D96E080EF420DA6EDF38E832E832030B66
:104048000009D8A4120001012051020D010EF32627
:10405800000EF422C90EF324D96E080EF420DA6E8D
:10406800DF38E832070B070AD8A43BD001012051FA
:10407800020D010EF326000EF422C90EF324D96EA8
:10408800080EF420DA6EDF5001011819E00B181938
:10409800DF6E01012051020DC90EF324D96E080EFE
:1040A800F420DA6EDF5001011719C00B1719DF6E03
:1040B8001FC11BF101012051020D010EF326000E54
:1040C800F422C90EF324D96E080EF420DA6E010129
:1040D8001B3B1B47DF5001011B191F0B1B19DF6E10
:1040E800120001012051020D010EF326000EF422E8
:1040F800C90EF324D96E080EF420DA6EDF501F0BB8
:104108000101186145D001011F510001D75DD8A0F8
:10411800120001012051020D010EF326000EF422B7
:10412800C90EF324D96E080EF420DA6EDF500101AF
:104138001819E00B1819DF6E01012051020DC90E84
:10414800F324D96E080EF420DA6EDF500101171936
:10415800C00B1719DF6E1FC11BF101012051020DA1
:10416800010EF326000EF422C90EF324D96E080EB0
:10417800F420DA6E01011B3B1B47DF5001011B19BC
:104188001F0B1B19DF6E010117515CEC7BF012004D
:1041980001012051020D010EF326000EF422C90E72
:1041A800F324D96E080EF420DA6EDF501F0B0101DC
:1041B8001819D8A461D001012051020D010EF3266F
:1041C800000EF422C90EF324D96E080EF420DA6E1C
:1041D800DF38E832070B01011F611200010120518D
:1041E800020D010EF326000EF422C90EF324D96E37
:1041F800080EF420DA6EDF38E832070B0001D761C9
:10420800120001012051020D010EF326000EF422C6
:10421800C90EF324D96E080EF420DA6EDF500101BE
:104228001819E00B1819DF6E01012051020DC90E93
:10423800F324D96E080EF420DA6EDF500101171945
:10424800C00B1719DF6E1FC11BF101012051020DB0
:10425800010EF326000EF422C90EF324D96E080EBF
:10426800F420DA6E01011B3B1B47DF5001011B19CB
:104278001F0B1B19DF6E120001012051020D010EE8
:10428800F326000EF422C90EF324D96E080EF4208A
:10429800DA6EDF501F0B01011B6F0101185101017C
:1042A8001B5DD8B012000001D75101011F5DD8B0C5
:1042B800120001012051020D010EF326000EF42216
:1042C800C90EF324D96E080EF420DA6EDF38E8320E
:1042D800070B0001D761120001012051020D010EE8
:1042E800F326000EF422C90EF324D96E080EF4202A
:1042F800DA6EDF5001011819E00B1819DF6E0101A1
:104308002051020DC90EF324D96E080EF420DA6E7E
:10431800DF5001011719C00B1719DF6E1FC11BF100
:1043280001012051020D010EF326000EF422C90EE0
:10433800F324D96E080EF420DA6E01011B3B1B47EB
:10434800DF5001011B191F0B1B19DF6E01011751EB
:104358005CEC7BF012000101202B90D51F0E0101AF
:10436800186160D0000E01011E6FF90E01011E6573
:1043780001D058D0DB0E0101046F010E0101056F59
:1043880001011E51CCEC63F00009D8B447D015C127
:1043980007F116C108F101011E51B6EC71F00101D7
:1043A8001E51020D010EF326000EF422C90EF3244D
:1043B800D96E080EF420DA6EDF5001011819E00BEF
:1043C8001819DF6E01011E51020DC90EF324D96EB2
:1043D800080EF420DA6EDF5001011719C00B171907
:1043E800DF6E1FC11BF101011E51020D010EF326E4
:1043F800000EF422C90EF324D96E080EF420DA6EEA
:1044080001011B3B1B47DF5001011B191F0B1B1927
:10441800DF6E010117515CEC7BF0120001011E2BCD
:10442800A4D700D01F0E010118611200B0C01DF101
:10443800F90E01011D6502D01200120001011D5183
:10444800020D010EF326000EF422C90EF324D96ED4
:10445800080EF420DA6EDF501F0B1F0AD8B40ED0F6
:1044680001011D51020DC90EF324D96E080EF42066
:10447800DA6EDF503F0B3F0AD8A454D015C107F1BC
:1044880016C108F10001B051B6EC71F00001B0514D
:10449800020D010EF326000EF422C90EF324D96E84
:1044A800080EF420DA6EDF5001011819E00B181914
:1044B800DF6E0001B051020DC90EF324D96E080E4B
:1044C800F420DA6EDF5001011719C00B1719DF6EDF
:1044D8001FC11BF10001B051020D010EF326000EA1
:1044E800F422C90EF324D96E080EF420DA6E010105
:1044F8001B3B1B47DF5001011B191F0B1B19DF6EEC
:104508000001B051020DC90EF324D96E080EF42033
:10451800DA6E3F0EDF16010117515CEC7BF01DC10E
:10452800B0F01200F90E01011D19D8A404D0000E34
:104538000001B06F00D001011D2BF90E01011D65AE
:104548007DD71200120012005D0E0101006F030EEC
:104558000101016FD60E0101026F000E0101036F08
:1045680001010D5178EC76F00009D8B4E0D3050EBE
:104578000001D861E2D3240E0001D619D8A4D1D302
:10458800000E0101196F000E186FD00E030163258C
:104598000101006F0101016BFF0E0123030E0101F0
:1045A800036FE80E026F4DEC7AF000C116F101C1FD
:1045B80017F1D00E030164250101006F0101016BA1
:1045C800FF0E0123000E0101036F640E026F4DEC14
:1045D8007AF0010100510101162701010151010181
:1045E8001723D00E030165250101006F0101016B3E
:1045F800FF0E0123000E0101036F0A0E026F4DEC3E
:104608007AF0010100510101162701010151010150
:104618001723D00E01010E6FFF0E01010F6F03016A
:1046280066510101106F116B01010E510101102734
:1046380001010F5101011123010110510101162738
:1046480001011151010117230F0E0101161921E172
:10465800270E01011719D8A41CD0800E0101196F6B
:10466800000E186F000E0101046F020E036FB10EE9
:104678000101056FFF0E0101066F000E0101086FB1
:104688000A0E076F2FEC75F0000E02012B6F030E58
:104698003AD30101175109E1030E0101165DD8B0A3
:1046A80004D0000E0001D86F30D3D00E0301672567
:1046B8000101006F0101016BFF0E0123000E0101D2
:1046C800036F640E026F4DEC7AF001010051010195
:1046D80018270101015101011923D00E0301682592
:1046E8000101006F0101016BFF0E0123000E0101A2
:1046F800036F0A0E026F4DEC7AF0010100510101BF
:1047080018270101015101011923D00E01010E6F73
:10471800FF0E01010F6F030169510101106F116B49
:1047280001010E510101102701010F51010111234F
:10473800010110510101182701011151010119232B
:10474800D00E03016A250101006F0101016BFF0E04
:10475800010101230101026BFF0E01010223010186
:10476800036BFF0E01010323100E0101046F270ED6
:10477800056F000E066F000E076FC9EC73F000C1DD
:104788001BF101C11CF102C11DF103C11EF1D00EC4
:1047980003016B250101006F0101016BFF0E01236D
:1047A800030E0101036FE80E026F4DEC7AF0010170
:1047B800005101011B270101015101011C23000EB9
:1047C80001011D23000E01011E23D00E03016C25DB
:1047D8000101006F0101016BFF0E0123000E0101B1
:1047E800036F640E026F4DEC7AF001010051010174
:1047F8001B270101015101011C23000E01011D238A
:10480800000E01011E23D00E03016D250101006F6A
:104818000101016BFF0E0123000E0101036F0A0E57
:10482800026F4DEC7AF00101005101011B270101D3
:10483800015101011C23000E01011D23000E01017D
:104848001E23D00E01010E6FFF0E01010F6F030131
:104858006E510101106F116B01010E5101011027FA
:1048680001010F51010111230101105101011B2701
:104878000101115101011C23000E01011D23000E2D
:1048880001011E2301011E5104E101011D05D8A0EB
:104898000AD0FF0E01011B6FFF0E1C6F000E1D6F6B
:1048A800000E1E6F00D0D00E030172250101006FAB
:1048B8000101016BFF0E010101230101026BFF0ED3
:1048C800010102230101036BFF0E01010323100EF6
:1048D8000101046F270E056F000E066F000E076FAB
:1048E800C9EC73F000C11FF101C120F102C121F12F
:1048F80003C122F1D00E030173250101006F0101EC
:10490800016BFF0E0123030E0101036FE80E026F16
:104918004DEC7AF00101005101011F2701010151FD
:1049280001012023000E01012123000E0101222391
:10493800D00E030174250101006F0101016BFF0E08
:104948000123000E0101036F640E026F4DEC7AF033
:104958000101005101011F2701010151010120231B
:10496800000E01012123000E01012223D00E0301B4
:1049780075250101006F0101016BFF0E0123000E77
:104988000101036F0A0E026F4DEC7AF0010100512C
:1049980001011F270101015101012023000E01011E
:1049A8002123000E01012223D00E01010E6FFF0EFC
:1049B80001010F6F030176510101106F116B0101A5
:1049C8000E510101102701010F51010111230101AD
:1049D800105101011F270101115101012023000E6F
:1049E80001012123000E010122230101225104E1CA
:1049F80001012105D8A00AD0FF0E01011F6FFF0E8B
:104A0800206F000E216F000E226F00D0D00E030120
:104A18007A250101006F0101016BFF0E01010123DD
:104A28000101026BFF0E010102230101036BFF0E5E
:104A380001010323100E0101046F270E056F000EFC
:104A4800066F000E076FC9EC73F000C123F101C1B6
:104A580024F102C125F103C126F1D00E03017B2503
:104A68000101006F0101016BFF0E0123030E01011B
:104A7800036FE80E026F4DEC7AF00101005101015D
:104A880023270101015101012423000E01012523DF
:104A9800000E01012623D00E03017C250101006FC1
:104AA8000101016BFF0E0123000E0101036F640E6B
:104AB800026F4DEC7AF00101005101012327010139
:104AC800015101012423000E01012523000E0101DB
:104AD8002623D00E03017D250101006F0101016B22
:104AE800FF0E0123000E0101036F0A0E026F4DEC49
:104AF8007AF001010051010123270101015101014F
:104B08002423000E01012523000E01012623D00EC7
:104B180001010E6FFF0E01010F6F03017E510101AC
:104B2800106F116B01010E510101102701010F5186
:104B38000101112301011051010123270101115124
:104B480001012423000E01012523000E0101262363
:104B58000101265104E101012505D8A00AD0FF0E64
:104B68000101236FFF0E246F000E256F000E266FC4
:104B780000D001011B5101011F193CE101011C5129
:104B88000101201937E101011D510101211932E10B
:104B980001011E5101012219D8A42CD001011B5179
:104BA8000101231927E101011C510101241922E106
:104BB80001011D51010125191DE101011E510101CC
:104BC8002619D8A417D00101235101011F1912E198
:104BD80001012451010120190DE1010125510101B3
:104BE800211908E10101265101012219D8A402D096
:104BF80086D000D023C10EF124C10FF125C110F1D8
:104C080026C111F101010E1F0F1F101F111F0E2BBE
:104C1800000E0F231023112301011F5101010E253E
:104C28000101126F0101205101010F210101136FD0
:104C380001012151010110210101146F01012251CB
:104C4800010111210101156F010115510101141113
:104C580050E12C0E0101125D010E01011359D8B06B
:104C680048D0050E0001D86F000E01011A6F000E22
:104C780001011A6F040E01011A6501D046D0030E16
:104C880001011A6117D001011A51040D1B0EF324FA
:104C9800D96E010EF420DA6E01011A51020DB10E1F
:104CA800F324E16E020EF420E26EDECFE6FFDDCFE4
:104CB800E5FF0DD001011A51020DB10EF324D96E92
:104CC800020EF420DA6E23C1DEFF24C1DDFF0101EC
:104CD8001A51020DBB0EF324D96E020EF420DA6EBF
:104CE80018C1DEFF19C1DDFF00D001011A2BC2D7A0
:104CF8000CD0000E02012B6F010E05D006D0000E5D
:104D080002012B6F020E2A6F00D00001D851D8A4DF
:104D180014D00001C751D8B410D0000E0001C76FDD
:104D28000CD0000E02012B6F060E05D006D0000E27
:104D380002012B6F070E2A6F00D0000E120012001E
:104D4800000E4E6E000E4F6E000E0001B36F000E87
:104D58000001B96F020EEFEC79F00009D8B435D133
:104D6800010E4E6E0001B42B020E0001B419D8A436
:104D7800FBD0000E0001B46FF7D0000E0001B36F36
:104D8800000E0101276F1E0E266F000E0101286F0D
:104D9800020E43EC72F019D1010E0001B36F000E40
:104DA8000101276F1E0E266F000E0101286F020EEB
:104DB80043EC72F00AD10001B405D8A404D0010E66
:104DC8000001B36F00D0000E0101276F400E266F5F
:104DD800000E0101286F020E43EC72F0F6D00001BC
:104DE800B405D8A404D0010E0001B36F00D0000EA2
:104DF8000101276F7D0E266F000E0101286F020E3C
:104E080043EC72F0E2D000D00001B405D8A404D07D
:104E1800010E0001B36F00D0000E0101276FFA0EDA
:104E2800266F000E0101286F020E43EC72F0CDD000
:104E38000001B405D8A404D0010E0001B36F00D05E
:104E4800010E0101276FF40E266F000E0101286F75
:104E5800020E43EC72F0B9D00001B405D8A404D016
:104E6800010E0001B36F00D0030E0101276FE80E99
:104E7800266F000E0101286F020E43EC72F0A5D0D8
:104E88000001B405D8A404D0010E0001B36F00D00E
:104E9800090E0101276FC40E266F000E0101286F4D
:104EA800020E43EC72F091D00001B405D8A404D0EE
:104EB800010E0001B36F00D0130E0101276F880E99
:104EC800266F000E0101286F020E43EC72F07DD0B0
:104ED8000001B405D8A421D0010E0001B36F3B50E6
:104EE800D8A40DD0000E0101276F500E266F000EBA
:104EF8000101286F020E43EC72F0010E0CD0090E6E
:104F08000101276F740E266F000E0101286F020E33
:104F180043EC72F0000E3B6E58D03B50D8B40CD026
:104F2800000E0101276F500E266F000E0101286F39
:104F3800020E43EC72F049D0090E0101276F740E7E
:104F4800266F000E0101286F020E43EC72F03DD06F
:104F5800000E0101276F1E0E266F000E0101286F3B
:104F6800020E43EC72F031D00001B251000AD8B4FD
:104F780004D7010AD8B410D7030AD8B41CD7010A39
:104F8800D8B42DD7070AD8B43FD7010AD8B450D718
:104F9800030AD8B461D70D0AD8B436D7070AD8B4EB
:104FA80033D7010AD8B430D7030AD8B42DD7010AA9
:104FB800D8B42AD71F0AD8B463D7010AD8B474D78B
:104FC800030AD8B485D7C4D700D0030EEFEC79F024
:104FD8000009D8B435D1010E4F6E0001B52B020E71
:104FE8000001B519D8A4FBD0000E0001B56FF7D0A9
:104FF800000E0001B96F000E0101276F1E0E266F0B
:10500800000E0101286F030E43EC72F019D1010E56
:105018000001B96F000E0101276F1E0E266F000EEA
:105028000101286F030E43EC72F00AD10001B505A7
:10503800D8A404D0010E0001B96F00D0000E010100
:10504800276F400E266F000E0101286F030E43ECF8
:1050580072F0F6D00001B505D8A404D0010E000105
:10506800B96F00D0000E0101276F7D0E266F000E6C
:105078000101286F030E43EC72F0E2D000D000016A
:10508800B505D8A404D0010E0001B96F00D0000EF8
:105098000101276FFA0E266F000E0101286F030E1B
:1050A80043EC72F0CDD00001B505D8A404D0010EB0
:1050B8000001B96F00D0010E0101276FF40E266FB1
:1050C800000E0101286F030E43EC72F0B9D0000105
:1050D800B505D8A404D0010E0001B96F00D0030EA5
:1050E8000101276FE80E266F000E0101286F030EDD
:1050F80043EC72F0A5D00001B505D8A404D0010E88
:105108000001B96F00D0090E0101276FC40E266F88
:10511800000E0101286F030E43EC72F091D00001DC
:10512800B505D8A404D0010E0001B96F00D0130E44
:105138000101276F880E266F000E0101286F030EEC
:1051480043EC72F07DD00001B505D8A421D0010E42
:105158000001B96F3E50D8A40DD0000E0101276F91
:10516800500E266F000E0101286F030E43EC72F0FB
:10517800010E0CD0090E0101276F740E266F000E68
:105188000101286F030E43EC72F0000E3E6E58D0FA
:105198003E50D8B40CD0000E0101276F500E266F78
:1051A800000E0101286F030E43EC72F049D0090E7E
:1051B8000101276F740E266F000E0101286F030E80
:1051C80043EC72F03DD0000E0101276F1E0E266FD2
:1051D800000E0101286F030E43EC72F031D000017C
:1051E800B851000AD8B404D7010AD8B410D7030AB2
:1051F800D8B41CD7010AD8B42DD7070AD8B43FD7DA
:10520800010AD8B450D7030AD8B461D70D0AD8B464
:1052180036D7070AD8B433D7010AD8B430D7030A27
:10522800D8B42DD7010AD8B42AD71F0AD8B463D75F
:10523800010AD8B474D7030AD8B485D7C4D700D024
:10524800090E0001B219D8A40CD04F50D8B409D017
:105258000001B5510001D8A404D0010E0001B36FBC
:1052680000D00A0E0001B819D8A40CD04E50D8B4FA
:1052780009D00001B4510001D8A404D0010E0001E6
:10528800B96F00D0080E0001B219D8A40CD04F5045
:10529800D8B409D00001B9510001D8B404D0010E26
:1052A8000001B36F00D0070E0001B819D8A40CD0C4
:1052B8004E50D8B409D00001B3510001D8B404D07D
:1052C800010E0001B96F00D00001B9510001D8B436
:1052D8000DD03D50D8B402D03D0600D00001B751E2
:1052E8000001D8B403D00001B70700D00001B351C2
:1052F8000001D8B40DD03A50D8B402D03A0600D044
:105308000001B1510001D8B403D00001B10700D0A9
:105318000001B1510001D8B403D0000E0001B36FF1
:105328000001B7510001D8B403D0000E0001B96FD5
:105338003A50D8B424D035D022D00A0E0001B16F2B
:105348000001B151040F13D00A0E0001B16F000122
:10535800B151030F0CD00A0E0001B16F0001B15119
:10536800020F05D00A0E0001B16F0001B1293A6E93
:1053780018D00A0E0001B16FB1C03AF012D0000186
:10538800B2510B0AD8B4D9D7070AD8B4DDD7010A65
:10539800D8B4E1D7030AD8B4E5D7010AD8B4E9D715
:1053A80000D03D50D8B424D035D022D00A0E000108
:1053B800B76F0001B751040F13D00A0E0001B76F81
:1053C8000001B751030F0CD00A0E0001B76F00019E
:1053D800B751020F05D00A0E0001B76F0001B729B7
:1053E8003D6E18D00A0E0001B76FB7C03DF012D05D
:1053F8000001B8510B0AD8B4D9D7070AD8B4DDD7F9
:10540800010AD8B4E1D7030AD8B4E5D7010AD8B459
:10541800E9D700D00001B35131EC7DF00001B9515A
:1054280026EC7EF012000101416F0101C151D8A4A0
:1054380004D00101D851D8B443D2800E0101B91962
:10544800D8B457D02CC00DF12DC00EF1DDC20FF12C
:10545800DEC210F1D7EC75F001010D5101010E11FA
:10546800D8A413D0000E01010E6F0001C551010D23
:10547800000EF324D96E060EF420DA6EDF5010EC1D
:105488007CF0010E0001BE6F26D02CC10EF1C5C004
:1054980000F10101016BCCC102F10101036BC90EDE
:1054A8000101046F000E056F000E066F000E076FF6
:1054B800BBEC74F0000E01010025D96E060E010147
:1054C8000121DA6EDF5010EC7CF0000E0001BE6F97
:1054D800000E436E00D0020E0101D819D8A406D0E0
:1054E800010E0101C16F000E0101D86F000E4D6E53
:1054F80029D0020E0101D819D8A407D0010E010144
:10550800C16F000E0101D86F1DD04D2A010E4D64E8
:1055180019D0F25000D0070E9DEC4FF0000E01019B
:10552800C16F000E0101D86F010E0101EC6F000E72
:105538000101016F040E006F030E0101026F1CECE4
:1055480060F000D02C042D10D8A407D0010E466EB0
:10555800A3C036F0A4C037F000D0080EEFEC79F005
:105568000009D8B407D00101C951D8B403D0010E3D
:105578004C6E00D0080EC4EC7BF00009D8B42ED0D5
:105588000101C951D8A41CD0EFC10CF101010D6B68
:10559800E5EC6BF001010C510101CA6F0101CA5120
:1055A80000080101EF250101C96FCAC126F10101F7
:1055B800276B010E0101286F080E43EC72F00ED024
:1055C800C9C126F10101276B010E0101286F080EE0
:1055D80043EC72F0000E0101C96F00D00101C25105
:1055E8000101D8A406D00201105102011111D8B44A
:1055F80042D10001BE51D8B43ED10101415101014F
:10560800D8B439D112C22DF113C22EF101012D1FC8
:105618002E1F2D4B2E2B040E01010C6F010E36ECA4
:1056280061F001012D5101010C250101466F0101B5
:105638002E5101010D210101476F46C12DF147C1CE
:105648002EF101012D1F2E1F2D4B2E2B2DC144F1A4
:105658002EC145F1080E0101475DD8A00BD0FE0E02
:105668000101465D0F0E01014759D8B003D0010171
:10567800C22B36D0010146290F0E01014759D8A087
:105688000CD0FD0E0101465D170E01014759D8B037
:1056980004D0020E0101C22723D0080E0101455D86
:1056A800D8A00BD0FE0E0101445D0F0E0101455933
:1056B800D8B003D00101C20713D0010144290F0E4D
:1056C80001014559D8A00CD0FD0E0101445D170E0B
:1056D80001014559D8B004D0020E0101C25F00D0C3
:1056E800040E01010C6F010E36EC61F00CC146F19D
:1056F8000DC147F1A3C000F1A4C001F146C102F1F8
:1057080047C103F1000E0101046F000E056F010E81
:10571800066F000E076FBBEC74F000C137F101C1D2
:1057280038F137C117F138C118F110C219F111C297
:105738001AF1000E01011B6F000E1C6F010E1D6F88
:10574800000E1E6F94EC67F017C142F118C143F1C7
:1057580042C10DF143C10EF1070E0101106F0F692F
:10576800D7EC75F00DC13DF10EC13EF13DC10DF113
:105778003EC10EF1040E01010F6F010E07EC4AF055
:1057880001013D510101425F01013E510101435BAD
:1057980042C1A3F043C1A4F042C106F143C107F1DD
:1057A800070E0101096F0869CFEC72F006C12CF0F1
:1057B80007C12DF0C5C017F10101186BC2C119F15D
:1057C80001011A6BC90E01011B6F000E1C6F000E40
:1057D8001D6F000E1E6F94EC67F001011751000158
:1057E800C56FC2C12FF10101306B000E0101C26FFC
:1057F800000E0201116F000E106F000E0201056FFE
:10580800000E046F2C502D10D8A408D0000E2D6E59
:10581800100E2C6E02C2A3F003C2A4F0070E376E5E
:105828003668020E0101D86F040E01010C6F010EDB
:1058380036EC61F00001A35101010C2501013F6F15
:105848000001A45101010D210101406F22EC7EF0FD
:105858000101316F3FC133F1010140510101326F44
:10586800000E0101016F040E006F020E0101026FAC
:105878001CEC60F021D00001C5510101D719D8A452
:105888000BD00101C151D8B407D001014151010128
:10589800D8A412D001D010D04C50D8B40DD00EECF2
:1058A8007EF00009D8B408D0010141510101D8B4F3
:1058B80003D0000E4C6E00D00201204B212B4ED09D
:1058C800060EC4EC7BF00009D8B41CD0000E010110
:1058D8000D6F320E0C6FE5EC6BF0540E01010C25C8
:1058E8000101396F240E01010D2101013A6F39C1FF
:1058F80026F13AC127F1000E0101286F060E43EC8C
:1059080072F000D0060EEFEC79F00009D8B40DD093
:10591800000E01010E6F0101F55110EC7CF0000E34
:105928000201E66F010EE56F00D00201E6510BE1BE
:10593800330E0201E55DD8B006D057EC7CF00201C9
:10594800E54BE62B00D0330E0201E5190201E61102
:10595800D8A404D00201E54BE62B00D00101D751B1
:105968000101D8A404D0C80E0101D76F03D00101EA
:10597800D70700D0050EEFEC79F00009D8A413EC96
:1059880077F0090EC4EC7BF00009D8B44CD016ECC3
:105998007EF001012D6F01012D513E0DF3CF3BF13A
:1059A800F4CF3CF13BC108F13CC109F146EC7BF076
:1059B80008C10BF109C10CF10AC10DF1000E01017A
:1059C8000E6F7A0E01010F6F440E0101106FCEECBD
:1059D80058F00BC134F10CC135F10DC136F1000E90
:1059E80001010B6F280E01010C6F430E01010D6FB1
:1059F80034C108F135C109F136C10AF104EC54F09B
:105A080008C117F109C118F10AC119F125EC58F0BC
:105A180017C126F118C127F1010E0101286F090EDF
:105A280043EC72F000D0090EEFEC79F00009D8B41D
:105A380017D0070E9DEC4FF0000E0101C16F000E4C
:105A48000101D86F010E0101EC6F000E0101016F19
:105A5800040E006F050E0101026F1CEC60F000D00F
:105A68000F0EEFEC79F00009D8B404D0010E010153
:105A7800EC6F00D00E0EEFEC79F01200000E010171
:105A8800176F700E0101256F040E0101266F25C1E5
:105A9800D9FF26C1DAFF010EDF6E000E0101186F73
:105AA800060E0101186F010E0101226F010E01019E
:105AB800226501D096D00001BD51060DBD0EF3241C
:105AC8000101066F0A0EF4200101076FDB0E0101C8
:105AD800086F010E0101096F040E01010A6FA2ECA3
:105AE80077F00009D8A449D00001BD51060D050E74
:105AF800F326000EF422BD0EF324D96E0A0EF4200C
:105B0800DA6EDE28D8B439D00001BD51060DBD0EBD
:105B1800F3240101006F0A0EF4200101016F000E49
:105B28000101026F25C103F126C104F1010E010133
:105B3800056F040E0101066FDCEC70F0010120EE28
:105B480005F02551D9262651DA22040E0101086FE5
:105B58000001BD51060D050EF326000EF422BD0E00
:105B6800F324E16E0A0EF420E26EE75087EC4CF065
:105B7800DF6E010E0101176F03D00101220700D06B
:105B88003E0E0001BD6103D00001BD2B27D0000EE1
:105B98000001BD6F010117510101D8A422D0DB0E0D
:105BA8000101006F010E0101016F000E0101026F7A
:105BB80025C103F126C104F1010E0101056F040E90
:105BC8000101066FDCEC70F0010120EE05F02551B3
:105BD800D9262651DA22FF0EDF6E03D00101222BCF
:105BE80065D7000E01011C6F000E0101246F000E25
:105BF8000101196FBCC016F11AD20001CF51D8B4F7
:105C0800FCD001012451010D4B0EF324D96E030E73
:105C1800F420DA6EDF500101236F1E0E01010C6FB4
:105C2800010E01010D6F0101235100EC6EF0010E10
:105C3800010124250101006F0101016B000E012300
:105C4800000E0101036F050E026F4DEC7AF0010E94
:105C580001010027000E010101230101005101018A
:105C68002525D96E0101015101012621DA6E1EC1D7
:105C7800DFFF010E010124250101006F0101016B05
:105C8800000E0123000E0101036F050E026F4DEC9B
:105C98007AF0020E01010027000E01010123010123
:105CA800005101012525D96E01010151010126216B
:105CB800DA6E1FC1DFFF010E010124250101006F0B
:105CC8000101016B000E0123000E0101036F050E97
:105CD800026F4DEC7AF0030E01010027000E01015E
:105CE80001230101005101012525D96E010101514E
:105CF80001012621DA6E20C1DFFF010E01012425F2
:105D08000101006F0101016B000E0123000E01016A
:105D1800036F050E026F4DEC7AF0040E01010027A7
:105D2800000E010101230101005101012525D96E51
:105D38000101015101012621DA6E21C1DFFF0101B4
:105D48002351020D010EF326000EF422C90EF3248E
:105D5800D96E080EF420DA6EDF38E832070B01013D
:105D6800146F050E0101156F0101D8901437010158
:105D7800152FFAD70101145101011A6F010123519E
:105D8800020D010EF326000EF422C90EF324D96E7B
:105D9800080EF420DA6EDF501F0B01011A27010EDE
:105DA800010124250101006F0101016B000E01238F
:105DB800000E0101036F050E026F4DEC7AF0050E1F
:105DC80001010027000E0101012301010051010119
:105DD8002525D96E0101015101012621DA6E1AC16A
:105DE800DFFF050E01011C270101242B0001CF5103
:105DF800D8B41DD10001CF071AD1DB0E0101046F01
:105E0800010E0101056F0001BC51CCEC63F00009E3
:105E1800D8A4F8D00001BC51020DC90EF324D96EE4
:105E2800080EF420DA6EDF503F0B3F0AD8B4EAD0F0
:105E38001E0E01010C6F010E01010D6F0001BC5116
:105E480000EC6EF0010E010124250101006F010133
:105E5800016B000E0123000E0101036F050E026F96
:105E68004DEC7AF0010E01010027000E010101231B
:105E78000101005101012525D96E010101510101DE
:105E88002621DA6E1EC1DFFF010E01012425010162
:105E9800006F0101016B000E0123000E0101036F69
:105EA800050E026F4DEC7AF0020E01010027000E7C
:105EB800010101230101005101012525D96E0101CC
:105EC800015101012621DA6E1FC1DFFF010E010118
:105ED80024250101006F0101016B000E0123000E52
:105EE8000101036F050E026F4DEC7AF0030E0101FC
:105EF8000027000E010101230101005101012525A0
:105F0800D96E0101015101012621DA6E20C1DFFF9E
:105F1800010E010124250101006F0101016B000E32
:105F28000123000E0101036F050E026F4DEC7AF09C
:105F3800040E01010027000E010101230101005197
:105F480001012525D96E0101015101012621DA6ED1
:105F580021C1DFFF0001BC51020D010EF326000E26
:105F6800F422C90EF324D96E080EF420DA6EDF3855
:105F7800E832070B0101146F050E0101156F0101CD
:105F8800D89014370101152FFAD7010114510101D6
:105F98001B6F0001BC51020D010EF326000EF42206
:105FA800C90EF324D96E080EF420DA6EDF501F0BE9
:105FB80001011B27010E010124250101006F0101C8
:105FC800016B000E0123000E0101036F050E026F25
:105FD8004DEC7AF0050E01010027000E01010123A6
:105FE8000101005101012525D96E0101015101016D
:105FF8002621DA6E1BC1DFFF050E01011C270101F6
:10600800242B00D0F90E0001BC6103D00001BC2B89
:1060180004D0000E0001BC6F00D00001BC5101018A
:106028001619D8A404D0010E0101196F00D0080E6A
:106038000101246107D0010119510101D8A402D03E
:10604800DCD500D00101185101011C2501011D6F8B
:1060580001011D51010DF35001012525D96EF450A0
:1060680001012621DA6EC9C0DFFF01011D2B0101E4
:106078001D511200120001012E510101D8B4F2D2B3
:10608800C90E01013061EED22CC1D9FF2DC1DAFF52
:10609800DE28D8A456D00101D851D8A452D0010185
:1060A800C151D8B422D0050EC4EC7BF00009D8B495
:1060B8008DD2060E01010D6F0E0E0C6FE5EC6BF024
:1060C8001C0E01010C2501013B6F0C0E01010D2175
:1060D80001013C6F3BC126F13CC127F1000E0101D3
:1060E800286F050E43EC72F071D20E0EC4EC7BF0F3
:1060F8000009D8B46BD2050EC4EC7BF00009D8B403
:106108001CD0060E01010D6F0E0E0C6FE5EC6BF046
:106118001C0E01010C2501013D6F0C0E01010D2122
:1061280001013E6F3DC126F13EC127F1000E01017C
:10613800286F050E43EC72F000D0010E0101C16F0B
:1061480045D2020E01012E6541D2010120EE01F077
:106158002C51D9262D51DA22DF500101316F01016E
:1061680031510101506F516B010150510101516FC3
:10617800506B010120EE02F02C51D9262D51DA2264
:10618800DF500101316F0101315101015027000E2B
:10619800512350C133F151C134F1040E01010C6F88
:1061A800010E36EC61F00CC14CF10DC14DF1AFC1DF
:1061B80017F1B0C118F14CC119F14DC11AF1FF0E18
:1061C80001011B6F070E1C6F000E1D6F000E1E6F66
:1061D80094EC67F017C13FF118C140F1A3C000F17A
:1061E800A4C001F14CC102F14DC103F1000E01013F
:1061F800046F000E056F010E066F000E076FBBECF3
:1062080074F000C14EF101C14FF14EC146F14FC1CA
:1062180047F14EC100F14FC101F1000E0101036FBA
:106228003D0E026F000E0101046F000E056F010E96
:10623800066F000E076FBBEC74F000C14CF101C192
:106248004DF101012F510101D8B415D04CC100F115
:106258004DC101F1000E0101036F050E026F000E22
:106268000101046F000E056F010E066F000E076F27
:10627800BBEC74F014D04CC100F14DC101F1000E1B
:106288000101036F000E026F000E0101046F000E82
:10629800056F010E066F000E076FBBEC74F000C1AE
:1062A8004EF101C14FF150C117F151C118F13FC171
:1062B80019F140C11AF1000E01011B6F000E1C6F8D
:1062C800010E1D6F000E1E6F94EC67F017C14CF1A4
:1062D80018C14DF14CC150F14DC151F14EC131F1D0
:1062E8004FC132F10101311F321F314B322B0101F5
:1062F80050510101312501014A6F0101515101013C
:10630800322101014B6F4AC131F14BC132F1010118
:10631800311F321F314B322BFF0E01013125010194
:10632800486FFF0E010132210101496F2CC1D9FFCD
:106338002DC1DAFF01013051DE18D8A414D0080E9F
:1063480001014B5DD8A005D0800E01014B5DD8A09E
:106358000AD0080E0101495DD8A075D0800E010150
:10636800495DD8B070D00101EC51D8A404D0010126
:10637800C151D8A4D4D04EC117F14FC118F150C1A2
:1063880019F151C11AF1000E01011B6F000E1C6FAB
:10639800010E1D6F000E1E6F94EC67F017C110F20E
:1063A80018C111F24EC10DF14FC10EF1070E0101D6
:1063B800106F0F69D7EC75F00DC131F10EC132F1D4
:1063C80050C10DF151C10EF1070E0101106F0F6997
:1063D800D7EC75F001010D1F01010E1F01010D4BD6
:1063E8000E2B01010D51010131250201126F01012E
:1063F8000E51010132210201136F30C117F1010161
:10640800186B2CC1D9FF2DC1DAFFDF500101316FA4
:10641800010131510101196F1A6BC90E01011B6F7E
:10642800000E1C6F000E1D6F000E1E6F94EC67F0BF
:10643800010117510101C26F010E0101D86F000E51
:106448000101C16F6CD00101505101014E5D010184
:10645800515101014F59D8B047D0800E01014B5D11
:10646800D8B042D001014E51000801015025010168
:10647800456F010145510001A327000EA4234EC119
:1064880031F14FC132F10101311F321F314B322B33
:1064980001015051010131250201186F01015151CB
:1064A800010132210201196F0201185102011A5D1E
:1064B8000201195102011B59D8B016D04EC131F151
:1064C8004FC132F10101311F321F314B322B010113
:1064D80050510101312502011A6F01015151010189
:1064E800322102011B6F00D00101C151D8B404D080
:1064F8000101D851D8A404D0010E0101C16F00D008
:10650800010146510201365D010147510201375927
:10651800D8B005D046C136F247C137F200D016ECE4
:106528007EF00101316F010131513E0DF3CF41F190
:10653800F4CF42F141C108F142C109F146EC7BF0C8
:1065480008C10BF109C10CF10AC10DF1000E0101DE
:106558000E6F7A0E01010F6F440E0101106FCEEC21
:1065680058F00BC135F10CC136F10DC137F1000EF1
:1065780001010B6F280E01010C6F430E01010D6F15
:1065880035C108F136C109F137C10AF104EC54F0FC
:1065980008C117F109C118F10AC119F125EC58F021
:1065A80017C126F118C127F1010E0101286F090E44
:1065B80043EC72F0000E0201216F000E206F030EF3
:1065C80001012E6503D0010E120000D016EC7EF0FA
:1065D8000101316F010131513E0DF3CF43F1F4CF89
:1065E80044F143C108F144C109F146EC7BF008C10C
:1065F8000BF109C10CF10AC10DF1000E01010E6F7A
:106608007A0E01010F6F440E0101106FCEEC58F0A5
:106618000BC138F10CC139F10DC13AF1000E01017D
:106628000B6F280E01010C6F430E01010D6F38C16D
:1066380008F139C109F13AC10AF104EC54F008C172
:1066480017F109C118F10AC119F125EC58F017C161
:1066580026F118C127F1010E0101286F090E43EC3C
:1066680072F000D0000E12001200000E01015F6FE0
:10667800000E0001C86F000E0101006F000E89ECCA
:1066880079F0000E516E000E486E200EABEC5CF0F7
:10669800000E0001CD6F000E0101B46F0101ED5134
:1066A80025EC7DF0020E30EC7AF0600EABEC5CF07D
:1066B800000E01010E6F000E10EC7CF0190E0101A6
:1066C800276F640E266F000E0101286F110E43EC30
:1066D80072F0000E0101276F780E266F010E01017E
:1066E800286F120E43EC72F0010E0101BC6F04001A
:1066F8000101B551D8B409D0000E0101B56F3E0EA5
:1067080077EC38F00101C42B00D00101B751D8B49F
:1067180009D0000E0101B76F200EABEC5CF0600EE3
:10672800ABEC5CF00101B851D8B407D0600EABEC0B
:106738005CF0000E0101B86F00D00101B651D8A479
:1067480004D00101B451D8B4ACD1000E0101676F77
:10675800000E01016A6F000E696F000E0101C46F1F
:106768000101B651D8B455D0000E0101B66F3DEC09
:106778007DF00101E56F3DEC7DF0000E0101656FD4
:106788001DD001016551010D270EF324D96E040EA9
:10679800F420DA6E3DEC7DF0DF6E01016551010DEC
:1067A800270EF324D96E040EF420DA6EDF500101AF
:1067B80067190101676F0101652B00D0FF0E010108
:1067C800546FFF0E0101556F0101E5510101566F2C
:1067D800576B01015451010156270101555101011F
:1067E8005723010165510101586F596B0101565139
:1067F8000101585D01015951800A01015A6F0101D7
:106808005751800A01015A59D8A0BBD7000E000180
:10681800CD6F0101B451D8B41DD0000E0101666FCF
:106828003A0E0101666501D011D001016651010DD2
:10683800270EF324D96E040EF420DA6EDF5001011E
:1068480067190101676F0101662BEAD7000E010184
:10685800B46F00D028C469F101016A6B0101695164
:1068680001016A6F696B0401275101016927000E54
:106878006A230101D6510101D8B41CD0D00E010100
:10688800546FCA0EE82EFED7542FFCD7D00E010144
:10689800546FCA0EE82EFED7542FFCD7090E0101FB
:1068A8006A5DD8B0DCD069C114F16AC115F1A0ECF9
:1068B80075F0D5D0010E01015F6F0101675101012B
:1068C800D8A4CDD001D0CBD00101AB5101016919B9
:1068D80005E10101AC5101016A19D8A4C0D0010138
:1068E800AB510101AC11D8A42BD0000E0101616F8E
:1068F800000E626F000E636F000E646F0101645139
:106908001FE1100E0101625D020E01016359D8B04A
:1069180017D001D015D061C105F162C106F163C17C
:1069280007F164C108F130EC7BF0000E010161272A
:10693800100E6223000E6323000E6423DFD700D0FD
:10694800000E0101686F370E0101686501D044D05F
:10695800ABC100F1ACC101F1000E0101036F380EAB
:10696800026F4DEC7AF00101005101016825010127
:106978005B6F0101015101015C6F000E01015C2395
:1069880001015D6B01015D2301015E6B5BC105F1D6
:106998005CC106F15DC107F15EC108F101016851F2
:1069A800010D020EF326000EF422270EF324010136
:1069B800096F040EF42001010A6F040E01010B6F28
:1069C800000E0C6F000E0D6F000E0E6F26EC71F0AE
:1069D800040E01016827B7D70101AB4BAC2B0101AD
:1069E800AD510101AB193BE10101AE510101AC19F7
:1069F800D8A435D0000E0101056F000E066F020EF7
:106A0800076F000E086FE60E0101096F010E010104
:106A18000A6F010E01010B6F000E0C6F000E0D6F57
:106A2800000E0E6F26EC71F0010E0101056F000ECD
:106A3800066F020E076F000E086FDD0E0101096F69
:106A4800030E01010A6F0B0E01010B6F000E0C6F94
:106A5800000E0D6F000E0E6F26EC71F000D0030EC5
:106A68000101276FE80E266F000E0101286F110E35
:106A780043EC72F00101D6510101D8B412D00101E2
:106A8800695101016A11D8A40CD0270E0101276FA2
:106A9800100E266F000E0101286F110E43EC72F0E4
:106AA80000D00101D6510101D8A424D0020E010161
:106AB800C46506D0010E01015F6F000E0101C46FAD
:106AC80001015F510101D8B415D00101AD51010197
:106AD800AB5D0101AE510101AC59D8B007D0ABC1D3
:106AE8000BF1ACC10CF1ECEC7BF000D0000E010115
:106AF8005F6F00D0000E0101016F010E006FE70EFD
:106B08000101026F010E0101036F20EC5AF0000928
:106B1800D8B438D05D0E01010C6F030E01010D6F62
:106B2800D60E01010E6F000E01010F6F0101E75132
:106B38001DEC43F00009D8B425D003015E51C00B09
:106B48000101606F01016045E846030B0101606FB8
:106B5800030E01016019D8A415D05F0E0101066F5C
:106B6800030E0101076F270E0101086F040E0101D2
:106B7800096F3B0E01010A6F46EC78F0010E010126
:106B8800B46F00D0020EEFEC79F000D0110EEFECEC
:106B980079F00009D8A402D017D000D0ACA2FED753
:106BA800720EF1EC7CF000D0ACA2FED7730EF1ECC3
:106BB8007CF000D0ACA2FED7740EF1EC7CF000D0D3
:106BC800ACA2FED7FF0000D0020EC4EC7BF0000997
:106BD800D8B40BD0000E0101276FFA0E266F000EF5
:106BE8000101286F020E43EC72F0110EC4EC7BF029
:106BF8000009D8B40BD0030E0101276FE80E266FE9
:106C0800000E0101286F110E43EC72F0120EEFEC2A
:106C180079F00009D8B46BD5FF0069D51200140EBD
:106C28000101266F010E0101276F4CD2250E0101CB
:106C38002D19D8B405D001012D518AEC7CF042D22F
:106C4800000E01012C6F000E2B6F000E01012A6F40
:106C580007D001012A850101124B132B01D00BD05B
:106C680012C1F6FF13C1F7FF0800F550300AD8B477
:106C7800F0D701D0F5D712C1F6FF13C1F7FF08000E
:106C8800F55002EC7BF0D8A0A5D0000E01012C6FC6
:106C9800000E2B6F00D02BC100F12CC101F1000EAA
:106CA8000101036F0A0E026F4DEC7AF000C12BF15F
:106CB80001C12CF1D00E01011C6FFF0E01011D6FE7
:106CC80012C1F6FF13C1F7FF0800F55001011E6F4E
:106CD8001F6B01011C5101011E2701011D510101FA
:106CE8001F2301011E5101012B2701011F51010121
:106CF8002C230101124B132B12C1F6FF13C1F7FF0E
:106D08000800F55002EC7BF0D8A064D0C4D762D05C
:106D180012007FD000D001012A8F7BD001012B51B6
:106D28000101235D01012C5101012459D8B009D07A
:106D38000101235101012B5F0101245101012C5B49
:106D48000AD0000E01012C6F000E2B6F04D0200E0C
:106D58008AEC7CF000D001012B07D8A02C07010198
:106D68002B29F5E101012C29D8B40DD0F0D70BD08F
:106D780021C1D9FF22C1DAFFDF508AEC7CF0010182
:106D8800214B222B00D001012307D8A024070101A1
:106D98002329EEE101012429D8B494D1E9D792D16D
:106DA80026C1D9FF27C1DAFFDF5001012D6F020E7E
:106DB80001012627000E272300D02D0E0101216F87
:106DC800010E0101226F000E0101246F010E236FD5
:106DD800A5D71FD012C1F6FF13C1F7FF0101124B4F
:106DE800132B0800F5CF2DF101012D51000AD8B45D
:106DF8001200580AD8B48FD73B0AD8B4D1D7070A9B
:106E0800D8B407D00D0AD8B404D0110AD8B483D79F
:106E1800D4D701012ABF19D026C1D9FF27C1DAFF6B
:106E2800DECF28F1DDCF29F1020E01012627000E61
:106E38002723010129AF5DD0030E01012A130101A7
:106E4800286D291FD8B0292B54D026C1D9FF27C1B6
:106E5800DAFFDECF28F1DDCF29F1020E0101262766
:106E6800000E272346D0010E01012D6F050E0101EA
:106E78002D19D8B448D001D046D001012D51020DAA
:106E8800C50EF324F66EFE0EF420F76E0900F550D9
:106E98000101285D0900F55001012959D8A033D016
:106EA80001D031D001012D2BE1D72DD0010E0101E8
:106EB8002D6F040E01012D19D8B425D001D023D08F
:106EC80001012D51020DCF0EF324F66EFE0EF420B3
:106ED800F76E0900F5500101285D0900F550010120
:106EE8002959D8A010D001D00ED001012D2BE1D7FF
:106EF8000AD001012A51800B000AD8B4B4D7800AFD
:106F0800D8B4D4D700D001012B5101012C11D8B429
:106F18000CD02AC11CF1030E01011C17D8B405D0EE
:106F280001012B07D8A02C0700D0800E01012DBF2E
:106F38007F0E01011C6F01012B5101012D5D010123
:106F48002C51800A01011C59D8B00BD001012D51D8
:106F580001012B5F000E01012DBFFF0E01012C5B0B
:106F680006D0000E01012C6F000E2B6F00D001011E
:106F78002AA520D02AC11CF1030E01011C17D8B480
:106F880004D02D0E8AEC7CF000D001012B510101B8
:106F98002C11D8B42FD0300E8AEC7CF001012B07CD
:106FA800D8A02C0701012B5101012C11D8B422D0F3
:106FB800F2D720D001012B5101012C11D8B40FD0E8
:106FC800200E8AEC7CF001012B07D8A02C070101C8
:106FD8002B5101012C11D8B402D0F2D700D02AC10C
:106FE8001CF1030E01011C17D8B404D02D0E8AEC35
:106FF8007CF000D02DC125F15DD04DD00101255187
:10700800020DC50EF324F66EFE0EF420F76E09008D
:10701800F5CF08F10A00F5CF09F128C106F129C119
:1070280007F1CFEC72F006C10DF107C10EF1000EA9
:107038000101106F0A0E0F6FD7EC75F001010D51A9
:10704800300F01012D6F31D028C106F129C107F198
:1070580001012551020DCF0EF324F66EFE0EF42029
:10706800F76E0900F5CF08F10A00F5CF09F1CFEC6A
:1070780072F0010106510F0B0101206F010120512F
:10708800010D620EF324F66EFF0EF420F76E080071
:10709800F5CF2DF10AD001012A51800B000AD8B48E
:1070A800ADD7800AD8B4D0D700D001012D518AECD1
:1070B8007CF000D00101250701012529D8B402D0B0
:1070C800EAD700D012C1F6FF13C1F7FF0101124B36
:1070D800132B0800F5CF2DF101012D51D8B4120062
:1070E800A5D5120012000101046F0101045102012B
:1070F8001E2502011E6F000E02011F2102011F6FD3
:10710800000E0101056F180E0101056501D072D04E
:1071180001010551010D320EF324D96E030EF4203E
:10712800DA6EDF50D8A463D001010551020D000EBC
:10713800F324D96E030EF420DA6E01010451010123
:10714800026F036B010E01010227000E0323DE50BC
:107158000101025DDE5001010359D8B02DD00101B3
:107168000551020D000EF324D96E030EF420DA6ED9
:10717800DECF00F1DDCF01F1010104510101026F01
:10718800036B0101021F031F024B032B0101005176
:1071980001010227010101510101032301010551E8
:1071A800020D000EF324D96E030EF420DA6E02C12C
:1071B800DEFF03C1DDFF1BD001010551020D000EEA
:1071C800F324D96E030EF420DA6EDE50DE10D8B444
:1071D8000ED001010551020D000EF324D96E030EE5
:1071E800F420DA6E010EDE6E000EDD6E00D00101B5
:1071F800052B89D7E80E02011E5D030E02011F59F7
:10720800D8A01200180E02011E2502011E6FFC0EE6
:1072180002011F2102011F6F4B2A000E0101066F98
:10722800180E0101066501D063D001010651010D58
:10723800320EF324D96E030EF420DA6EDE04D8A4DD
:1072480054D001010651020D000EF324D96E030E2D
:10725800F420DA6E010EDB5004E1020EDE5CD8A0E9
:1072680029D0FF0E0101006FFF0E0101016F01011E
:107278000651020D000EF324D96E030EF420DA6EC7
:10728800DECF02F1DDCF03F1010100510101022738
:10729800010101510101032301010651020D000EF4
:1072A800F324D96E030EF420DA6E02C1DEFF03C1A7
:1072B800DDFF1BD001010651020D000EF324D96E2B
:1072C800030EF420DA6EDE50DE10D8B40ED00101C1
:1072D8000651020D000EF324D96E030EF420DA6E67
:1072E800010EDE6E000EDD6E00D00101062B98D770
:1072F8003B0E4B6412004B50C40F4B6E472A000ED6
:107308000101076F180E0101076501D064D0010162
:107318000751010D320EF324D96E030EF420DA6EF4
:10732800020EDE18D8A454D001010751020D000E38
:10733800F324D96E030EF420DA6E010EDB5004E15B
:10734800020EDE5CD8A029D0FF0E0101006FFF0EEF
:107358000101016F01010751020D000EF324D96EDE
:10736800030EF420DA6EDECF02F1DDCF03F1010166
:10737800005101010227010101510101032301010B
:107388000751020D000EF324D96E030EF420DA6EB5
:1073980002C1DEFF03C1DDFF1BD001010751020D51
:1073A800000EF324D96E030EF420DA6EDE50DE10E0
:1073B800D8B40ED001010751020D000EF324D96E86
:1073C800030EF420DA6E010EDE6E000EDD6E00D0C4
:1073D8000101072B97D73B0E476412004750C40F93
:1073E800476E000E0101086F180E0101086502D0F2
:1073F8001200120001010851010D320EF324D96E5A
:10740800030EF420DA6E030EDE18D8A454D001015E
:107418000851020D000EF324D96E030EF420DA6E23
:10742800010EDB5004E1020EDE5CD8A029D0FF0E6D
:107438000101006FFF0E0101016F01010851020DEA
:10744800000EF324D96E030EF420DA6EDECF02F1BB
:10745800DDCF03F1010100510101022701010151B2
:107468000101032301010851020D000EF324D96E16
:10747800030EF420DA6E02C1DEFF03C1DDFF1BD06C
:1074880001010851020D000EF324D96E030EF420F9
:10749800DA6EDE50DE10D8B40ED001010851020DAC
:1074A800000EF324D96E030EF420DA6E010EDE6EA0
:1074B800000EDD6E00D00101082B180E01010865D1
:1074C80099D7120012001200000E01017F6FABC0A5
:1074D80080F1ACC081F1010E0101576F18C10BF1A9
:1074E80019C10CF1590E01010D6F010E01010E6F4A
:1074F8005BEC45F00101586FC9C05DF180C15EF1D8
:1075080081C15FF1590E0101066F010E0101076F7C
:107518007D0E0101086F010E0101096F7E0E010148
:107528000A6F010E01010B6F4EEC47F07DC160F14F
:107538007EC161F118C10BF119C10CF150EC6DF06D
:107548000101626F1EEC7EF00101636F22EC7EF098
:107558000101646FD3C01BF101011B3BF00E1B1727
:10756800F3EC7DF001011B250001D2250101656FB7
:10757800BFC166F11CC267F11DC268F11AC269F188
:107588001BC26AF118C26BF12AC280F12BC281F1C9
:1075980080C16CF181C16DF1ADC080F1AEC081F1E7
:1075A80080C16EF181C16FF1CEC070F181BA02D095
:1075B800010E01D0000E0101716F1B0E01017F6FDA
:1075C800E3C280F1E4C281F1570E01017F25D96E33
:1075D800DA6A010EDA2280C1DFFF01017F51010161
:1075E8001B6F1C6B010E01011B27000E1C23570E7D
:1075F80001011B25D96E010E01011C21DA6E81C122
:10760800DFFF30C280F131C281F101017F510101F8
:107618001B6F1C6B020E01011B27000E1C23570E4B
:1076280001011B25D96E010E01011C21DA6E80C1F2
:10763800DFFF01017F5101011B6F1C6B030E01016C
:107648001B27000E1C23570E01011B25D96E010EA6
:1076580001011C21DA6E81C1DFFFE1C280F1E2C2C3
:1076680081F101017F5101011B6F1C6B040E0101A7
:107678001B27000E1C23570E01011B25D96E010E76
:1076880001011C21DA6E80C1DFFF01017F51010178
:107698001B6F1C6B050E01011B27000E1C23570EC8
:1076A80001011B25D96E010E01011C21DA6E81C171
:1076B800DFFF01017F5101011B6F1C6B060E0101E9
:1076C8001B27000E1C23570E01011B25D96E010E26
:1076D80001011C21DA6EC8C1DFFFDFC280F1E0C200
:1076E80081F101017F5101011B6F1C6B070E010124
:1076F8001B27000E1C23570E01011B25D96E010EF6
:1077080001011C21DA6E80C1DFFF01017F510101F7
:107718001B6F1C6B080E01011B27000E1C23570E44
:1077280001011B25D96E010E01011C21DA6E81C1F0
:10773800DFFF28C280F129C281F101017F510101D7
:107748001B6F1C6B090E01011B27000E1C23570E13
:1077580001011B25D96E010E01011C21DA6E80C1C1
:10776800DFFF01017F5101011B6F1C6B0A0E010134
:107778001B27000E1C23570E01011B25D96E010E75
:1077880001011C21DA6E81C1DFFF0B0E01017F2789
:1077980001011A510101D8B434D0570E0101006F0C
:1077A800010E0101016F000E0101026F1D0E0101A2
:1077B800036F010E0101046F140E0101056F7FC1F3
:1077C80006F1DCEC70F01D0E01010E6F010E0101D7
:1077D8000F6F18C110F119C111F125EC67F01D0EDA
:1077E8000101046F010E0101056F01017F51140FA2
:1077F8000101066F000E0101076F020E45EC65F0EE
:10780800120018C10EF119C10FF1570E0101106FC6
:10781800010E0101116F7FC112F1000E0101136FFA
:10782800010E0101146F000E0101156F2EEC49F0D5
:10783800120012000101436F0101D251D8B404D0E3
:10784800000E0101D26F1200040EEFEC79F000096E
:10785800D8B447D10101B151010DD70EF324F66E0A
:10786800FE0EF420F76E0800F5500009D8A439D1AF
:107878000101F605D8A435D1000E0101F66F010EFD
:107888000101B16F010E02014E6F2BD1C7EC62F0FE
:107898000DC1ABF00EC1ACF00001ACBF08D03E0E7C
:1078A8000001AB5D080E0001AC59D8B004D0000E41
:1078B8000101B16F12000101B12B12003CEC7EF006
:1078C80000C130F201C131F20101B12B1200010EE9
:1078D8000001C76F090E0201156FC40E146F010174
:1078E800B12B050E0001D819D8A40BD00101EB511A
:1078F800D8B407D0000E0001D86F000E0101EB6F5D
:107908001200050E0001D8651200000E0101046F77
:10791800020E036F900E0101056FFF0E0101066F45
:10792800000E0101086F0A0E076F2FEC75F0000EAC
:107938000001D86F1200010143510201145D000ECD
:107948001559D8B003D00101B12B120001014351E0
:107958000201145F000E155B120081B207D08A8203
:10796800070E0201176FD00E166F00D00101B12B60
:107978001200000E0101E86F010143510201165D7A
:10798800000E1759D8B04ED00001D851D8A417D03E
:107998000001C751D8B413D0000E0101046F020EC4
:1079A800036FB10E0101056FFF0E0101066F000E96
:1079B8000101086F0A0E076F2FEC75F000D0020165
:1079C80047510201D8B426D00001D851020DB10E9A
:1079D800F324D96E020EF420DA6E000EDE6E000E6D
:1079E800DD6E050E0001D86F000E0101046F020E56
:1079F800036FB10E0101056FFF0E0101066F000E46
:107A08000101086F0A0E076F2FEC75F0000E0201D6
:107A1800476F00D00101B12B000E0201336F000E39
:107A2800326F1200010143510201165F000E175B0D
:107A38001200040EC4EC7BF00009D8B40DD040C18C
:107A480026F141C127F142C128F1040E43EC72F03E
:107A5800000E02014E6F00D0050E0001D819D8A4FF
:107A680011D00101EB51D8A40DD04DEC44F0010E1A
:107A78000101EB6F8A92010E0101D06F000E020125
:107A8800406F1200050E0001D819D8A406D00101D4
:107A9800EB51D8A4120001D012000201335105E1C4
:107AA800C90E0201325DD8A015D0040E0101B16FD4
:107AB800000E0201336F000E326F0001D851010130
:107AC800F419D8A404D0010E0201476F00D0D8C021
:107AD800F4F100D00201324B332B12000101B12B1B
:107AE80012000101B151010DD70EF324F66EFE0EFE
:107AF800F420F76E0800F550000AD8B49AD7010AA6
:107B0800D8B4C4D6030AD8B4D9D6010AD8B4120056
:107B1800070AD8B41200010AD8B41200030AD8B46C
:107B28001200010AD8B4D3D60F0AD8B404D7010A70
:107B3800D8B413D7030AD8B41CD7010AD8B4120092
:107B4800070AD8B41200010AD8B41200030AD8B43C
:107B58001200010AD8B412001F0AD8B4BFD7010A0C
:107B6800D8B41200030AD8B41200010AD8B412001B
:107B7800070AD8B41200010AD8B41200030A120086
:107B88001200010120EE01F02F51D9263051DA22DE
:107B98002FC1E1FF30C1E2FFDE50E618D8A4120081
:107BA800010120EE02F02F51D9263051DA220101CD
:107BB80010EE01F02F51E1263051E222DE50E61896
:107BC800D8A41200010120EE02F02F51D92630511D
:107BD800DA22DE28D8B412002FC1D9FF30C1DAFF6B
:107BE800DF500101336F010133A14CD0010120EEB8
:107BF80004F02F51D9263051DA22010110EE03F09A
:107C08002F51E1263051E222DE50E618D8A43AD0AE
:107C1800010120EE05F02F51D9263051DA22010159
:107C280010EE04F02F51E1263051E222DE50E61822
:107C3800D8A428D0010120EE05F02F51D9263051C3
:107C4800DA22DE28D8B41ED01AEC7EF0030E010129
:107C5800016FFD0E006F010120EE03F02F51D926B0
:107C68003051DA22DF500101026FDAEC78F00101BD
:107C780020EE03F02F51D9263051DA22DF5068EC7C
:107C88007CF000D0010133A342D0010120EE07F0BF
:107C98002F51D9263051DA22010110EE06F02F516A
:107CA800E1263051E222DE50E618D8A430D0010196
:107CB80020EE08F02F51D9263051DA22010110EEBA
:107CC80007F02F51E1263051E222DE50E618D8A401
:107CD8001ED01AEC7EF0030E0101016FFE0E006F3C
:107CE800010120EE06F02F51D9263051DA22DF505B
:107CF8000101026FDAEC78F0010120EE06F02F5155
:107D0800D9263051DA22DF5020EC78F000D001017A
:107D180033A54CD0010120EE0AF02F51D92630515D
:107D2800DA22010110EE09F02F51E1263051E2224A
:107D3800DE50E618D8A43AD0010120EE0BF02F51FE
:107D4800D9263051DA22010110EE0AF02F51E1262E
:107D58003051E222DE50E618D8A428D0010120EEE6
:107D68000BF02F51D9263051DA22DE28D8B41ED094
:107D78001AEC7EF0030E0101016FFC0E006F010189
:107D880020EE09F02F51D9263051DA22DF500101B7
:107D9800026FDAEC78F0010120EE09F02F51D926B4
:107DA8003051DA22DF5025EC7DF000D0010133A7F5
:107DB8001200010120EE0DF02F51D9263051DA22A0
:107DC800010110EE0CF02F51E1263051E222DE5075
:107DD800E618D8A41200010120EE0EF02F51D92682
:107DE8003051DA22010110EE0DF02F51E126305109
:107DF800E222DE50E618D8A41200010120EE0EF0AF
:107E08002F51D9263051DA22DE28D8B412001AECC4
:107E18007EF0030E0101016FEF0E006F010120EEED
:107E28000CF02F51D9263051DA22DF500101026FB0
:107E3800DAEC78F0010120EE0CF02F51D926305100
:107E4800DA22DF50DFEC7DF012001200400E010153
:107E5800286F000E0101296F3E0E0101296501D02E
:107E6800D7D001012951060DBD0EF3240101066F7B
:107E78000A0EF4200101076F21C108F122C109F19E
:107E8800040E01010A6FA2EC77F00009D8B4A0D063
:107E980001012951060D040EF326000EF422BD0E31
:107EA800F324D96E0A0EF420DA6EDF500F0B0F0A96
:107EB800D8A440D0010124510101D8B43BD0492AAB
:107EC80001012951060D040EF326000EF422BD0E01
:107ED800F324D96E0A0EF420DA6EDF90DF92DF9475
:107EE800DF9623C100F101012951D4EC68F0020E9C
:107EF80001012419D8B41AD0030E0101086F010139
:107F0800235187EC4CF00101266F21C115F122C1E4
:107F180016F129C117F1010E0101186F26C119F1D7
:107F2800000E01011A6F93EC1EF000D001012951D7
:107F380012006BD001012951060D040EF326000E24
:107F4800F422BD0EF324D96E0A0EF420DA6EDF5047
:107F58000F0B0F0AD8B439D001012951060D040EB0
:107F6800F326000EF422BD0EF324D96E0A0EF42077
:107F7800DA6EDF90DF92DF94DF9623C100F1010112
:107F88002951D4EC68F0020E01012419D8B4CED7D7
:107F9800030E0101086F0101235187EC4CF0010128
:107FA800266F21C115F122C116F129C117F1010E61
:107FB8000101186F26C119F1000E01011A6F93EC27
:107FC8001EF0B4D7B3D7120020D0FF0E12001DD078
:107FD80001012951060DBD0EF3240101066F0A0E99
:107FE800F4200101076FDB0E0101086F010E01018A
:107FF800096F040E01010A6FA2EC77F00009D8B4EA
:1080080004D029C128F104D000D00101292B24D79C
:108018003E0E0101286521D0000E0101276F3E0E9A
:108028000101276501D019D001012751060D040E61
:10803800F326000EF422BD0EF324D96E0A0EF420A6
:10804800DA6EDF500F0B0F0AD8A403D027C128F12E
:1080580004D00101272BE3D700D03F0E010128618E
:1080680054D0010124510101D8B44FD021C106F1E7
:1080780022C107F101012851060DBD0EF3240101AB
:10808800086F0A0EF4200101096F040E01010A6F3E
:1080980046EC78F001012851060D040EF326000E77
:1080A800F422BD0EF324D96E0A0EF420DA6EDF90A6
:1080B800DF92DF94DF9623C100F101012851D4EC4F
:1080C80068F0492A020E01012419D8B41AD0030E07
:1080D8000101086F0101235187EC4CF00101266F63
:1080E80021C115F122C116F128C117F1010E0101B4
:1080F800186F26C119F1000E01011A6F93EC1EF0DA
:1081080000D001012851120000D0FF0E1200120009
:10811800030E0101016F0069E3EC7CF00101156FAA
:1081280001011505D8A440D0000E01011A6F000EF8
:10813800196F01011ABF0AD0F00E0101195D030E73
:1081480001011A59D8B011D001D00FD01AEC7EF025
:1081580019C100F11AC101F1FF0E0101026FDAEC39
:1081680078F00101194B1A2BE4D7030E01011A6F9D
:10817800F40E196F01011ABF07D0040E01011A5D30
:10818800D8B012D001D010D01AEC7EF019C100F18D
:108198001AC101F1FF0E0101026FDAEC78F001015A
:1081A800194B1A2BE7D700D0010E0101156504D031
:1081B80001011529D8A40CD01AEC7EF0030E010198
:1081C800016F0069020E0101026FDAEC78F000D04D
:1081D800000E0101166F030E0101166501D018D0BB
:1081E80001011651010DF70EF324D96E010EF4208A
:1081F800DA6EE80E010116250101006F0101016B1D
:10820800030E0123E3EC7CF0DF6E0101162BE3D7AC
:108218000101F729D8A419D00101F829D8A415D04B
:108228000101F929D8A411D00101FA29D8A40DD047
:10823800000E0101F76F000E0101F86F000E010139
:10824800F96F020E0101FA6F00D0030E0101016FF0
:10825800EF0E006FE3EC7CF00101146F01011429AB
:10826800D8A404D0080E0101146F00D001011451E4
:10827800DFEC7DF00201EF29D8A451D00201F029EA
:10828800D8A44DD00201F129D8A449D00201F2297D
:10829800D8A445D0899E4B0E22EC7CF0000E22EC2F
:1082A8007CF0000E22EC7CF0000E22EC7CF0000E3C
:1082B80022EC7CF0000E0101176F2BD02ED00BECB6
:1082C8007DF0010100510101136F030E01011765D3
:1082D8001ED0FC0E0101076FFF0E0101086F01019E
:1082E80017510101096F0A6B0101075101010927A3
:1082F8000101085101010A23EF0E01010925D96E78
:10830800020E01010A21DA6E13C1DFFF00D001015C
:10831800172B070E01011765D2D7898E00D0000EE2
:108328000101186F070E0101186501D018D001016D
:108338001851010D0B0EF324D96E010EF420DA6EDC
:10834800F40E010118250101006F0101016B030EF4
:108358000123E3EC7CF0DF6E0101182BE3D70B0E51
:108368000101006F010E0101016F8FEC70F0030E27
:108378000101016FFD0E006FE3EC7CF0FF0AD8B439
:108388000BD001D009D0030E0101016FFD0E006F63
:10839800E3EC7CF068EC7CF0030E0101016FFE0E4B
:1083A800006FE3EC7CF0FF0AD8A403D00001C96990
:1083B8001200030E0101016FFE0E006FE3EC7CF06A
:1083C8000001C96F12001200000E0101126F000EA9
:1083D800116F010112BF0AD00101125106E13F0ECF
:1083E8000101115DD8B082D001D080D0DB0E01012F
:1083F800066F010E0101076F11C100F112C101F1F1
:10840800000E0101036F060E026F4DEC7AF0BD0EEF
:10841800010100250101086F0A0E01010121010176
:10842800096F040E01010A6F46EC78F011C100F1E2
:1084380012C101F1000E0101036F060E026F4DEC2F
:108448007AF0040E01010027000E01010123BD0E80
:1084580001010025D96E0A0E01010121DA6EDF80C3
:10846800DF82DF84DF8611C100F112C101F1000E45
:108478000101036F060E026F4DEC7AF0040E010144
:108488000027000E01010123BD0E01010025D96E50
:108498000A0E01010121DA6EDF88DF8ADF8CDF8EA8
:1084A80011C100F112C101F1000E0101036F060EA6
:1084B800026F4DEC7AF0050E01010027000E010154
:1084C8000123BD0E01010025D96E0A0E010101210B
:1084D800DA6EFF0EDF6E0101114B122B010112BF84
:1084E80085D70101125102E17AD700D0000E0201AE
:1084F800576F000E0101126F000E116F010112BFBC
:108508000AD00101125166E1FA0E0101115DD8B0DD
:1085180061D001D05FD011C10FF112C110F1D89014
:1085280001010F371037010E01010F27000E10232C
:10853800C90E01010F25D96E080E01011021DA6E4E
:10854800DF80DF82DF84DF86DF88DB0E0101076FD3
:10855800010E0101086F01011151B6EC71F011C152
:108568000FF112C110F1D89001010F371037010E29
:1085780001010F27000E1023C90E01010F25D96E26
:10858800080E01011021DA6EDF8ADF8CDF8ED890A9
:1085980001011135D96E01011235DA6EC90ED926DD
:1085A800080EDA22DF80DF82DF84DF86DF88DF8A59
:1085B800D89001011135D96E01011235DA6EC90E54
:1085C800D926080EDA223F0EDF160101114B122BB5
:1085D80095D700D0DB0E0101066F010E0101076F70
:1085E800F30E0101086F020E0101096F040E01016B
:1085F8000A6F46EC78F00201EA69000E0201606F2A
:10860800030E0201616F000E0201886F000E020165
:108618008A6F020E02018B6F000E02018C6F010E31
:108628000101EA6F000E0101DA6F000E0101CE6F41
:1086380012000101166F0201E9510201D8B42CD0D1
:10864800240E01011619D8A423D00201502B020EC2
:1086580002015019D8A41AD1000E0201E96F010EC7
:108668000201446F000E0201416F000E0201456FC6
:10867800000E0201466F010E0201426F000E00015A
:10868800C06F000E0201506F000E02014F6FFED046
:10869800000E0201506FFAD0020142510201D8B413
:1086A800DFD0020144510201D8B407D016C1CCF082
:1086B800000E0201446F010E06D002014151020171
:1086C800D8B404D0000E0201416F5DD00001C05142
:1086D8000101106F116BFE0E0101126FFF0E0101F7
:1086E800136F0001CC510101146F156B0101125178
:1086F8000101142701011351010115230101105132
:10870800010114190FE10101115101011519D8A432
:1087180009D00D0E01011619D8A435D0010E020199
:10872800456F31D00001C0510101106F116BFF0E70
:108738000101126FFF0E0101136F0001CC510101FD
:10874800146F156B01011251010114270101135116
:108758000101152301011051010114190FE1010153
:10876800115101011519D8A409D00A0E01011619D1
:10877800D8A409D0010E0201466F05D00101165197
:1087880002014F1B00D00001C051010DC00EF3249F
:10879800D96E050EF420DA6E16C1DFFF0001C02B7A
:1087A8000001C0510001CC19D8A43DD0000E02012F
:1087B800426F0EC1D9FF0FC1DAFFC0C0DFFFC00E84
:1087C8000101066F050E0101076F0CC108F10DC10B
:1087D80009F1C0C00AF146EC78F0010E0201E96F18
:1087E800000E0201506F02014F510201D8B405D0AA
:1087F800000E02014F6F000E1200020145510201E6
:10880800D8B40BD0020146510201D8B406D0000EEC
:1088180002014F6F010E120039D0000E02014F6F96
:108828001CD0120033D03E0E0001C0652FD0010EBF
:108838000201E96F000E0201506F000E0001C06FC7
:10884800000E0201446F000E0201416F000E02018A
:10885800456F000E0201466FE0D7000E120016D0D9
:10886800010E0201E96F000E0201506F000E0201B5
:108878004F6F000E0201446F000E0201456F000E9B
:108888000201466F000E0201416F00D0000E120077
:108898001200010E0101326F23EE53F011EE2CF09D
:1088A800040EDBCFE3FFE806FCE2000E0101316FA6
:1088B800000E0101346F000E336F000E0101366F98
:1088C800000E356F000E0101386F000E376F000E75
:1088D8000001AE6F000EAD6F0201E169E2690201AD
:1088E800E369E4690201BB510201BC11D8A453D069
:1088F800010E0101316F000E02012B6F050E2A6F68
:10890800B1C233F1B2C234F1B3C235F1B4C236F1F7
:10891800B5C237F1B6C238F10101345105E1050E8F
:108928000101335DD8A01FD033C13DF134C13EF100
:108938003DC13FF11AEC7EF0030E0101016FF10E0B
:10894800006F3FC102F1DAEC78F03EC13FF11AEC5A
:108958007EF0030E0101016FF20E006F3FC102F1BC
:10896800DAEC78F009D0000E02012B6F040E2A6FA2
:10897800000E0101326F00D033C1ADF034C1AEF04A
:10898800000E0201E26F000EE16F000E0201E46FBB
:10899800000EE36F14D0000E02012B6F000E2A6F39
:1089A800000E0101326FB1C233F1B2C234F1B3C269
:1089B80035F1B4C236F1B5C237F1B6C238F10101AA
:1089C80032510101D8A43CD0020E0201556111D0E8
:1089D800010E0101F66F0201552B000E0101276FF0
:1089E800050E266F010E0101286F040E43EC72F08C
:1089F80004D0000E0201556F00D0BBC2E1F2BCC228
:108A0800E2F2BBC2E3F2BCC2E4F2030E0101016F61
:108A1800F10E006FE3EC7CF001013F6F3FC13DF1C7
:108A2800030E0101016FF20E006FE3EC7CF001010F
:108A38003F6F3FC13EF13DC1ADF03EC1AEF004D045
:108A4800000E0201556F00D035C128F236C129F257
:108A580037C1DFF238C1E0F2000E01013F6F040EAA
:108A680001013F6502D01200120001013F51020DC1
:108A7800BB0EF324D96E020EF420DA6EFF0EDE6E02
:108A8800FF0EDD6E01013F51020DB10EF324D96EC8
:108A9800020EF420DA6E000EDE6E000EDD6E0101AD
:108AA8003F2B040E01013F65E0D712001200000EB3
:108AB8000101126F000E116F010112BF0AD00101EE
:108AC800125106E1FA0E0101115DD8B0E8D001D0CB
:108AD800E6D00BC104F10CC105F101011151CCEC38
:108AE80063F00009D8B4D0D011C10FF112C110F150
:108AF800D89001010F371037010E01010F27000E22
:108B08001023C90E01010F25D96E080E010110218D
:108B1800DA6EDF501F0B1F0AD8B4A6D0D890010117
:108B28001135D96E01011235DA6EC90ED926080E33
:108B3800DA22DF503F0B01010F6F01010F51060DC3
:108B4800BD0EF324D96E0A0EF420DA6E0DC1E1FFD2
:108B58000EC1E2FFDFCFE7FFD89001011135D96ED2
:108B680001011235DA6EC90ED926080EDA22DF5055
:108B78003F0B01010F6F01010F51060D010EF32686
:108B8800000EF422BD0EF324D96E0A0EF420DA6E1C
:108B9800010110EE01F00D51E1260E51E222DFCF66
:108BA800E7FFD89001011135D96E01011235DA6E4F
:108BB800C90ED926080EDA22DF503F0B01010F6FCC
:108BC80001010F51060D020EF326000EF422BD0E10
:108BD800F324D96E0A0EF420DA6E010110EE02F0C9
:108BE8000D51E1260E51E222DFCFE7FFD8900101B7
:108BF8001135D96E01011235DA6EC90ED926080E63
:108C0800DA22DF503F0B01010F6F01010F51060DF2
:108C1800030EF326000EF422BD0EF324D96E0A0EBD
:108C2800F420DA6E010110EE03F00D51E1260E5129
:108C3800E222DFCFE7FF11C10FF112C110F1D89086
:108C480001010F371037010E01010F27000E102305
:108C5800C90E01010F25D96E080E01011021DA6E27
:108C6800DF501F0B120010D0D89001011135D96EBA
:108C780001011235DA6EC90ED926080EDA223F0E26
:108C8800DF161F0E120000D00101114B122B01013B
:108C980012BF1FD70101125102E114D700D01F0ED5
:108CA800120012000E0E0101416F100E406F010EEE
:108CB8000101426F3E0E1EEC3CF0020107BF0CD0D2
:108CC8000201075104E102010605D8A005D00201FE
:108CD8000607D8A0070700D00101B951D8A402D0CF
:108CE800110E18D00201065102010711D8A415D09F
:108CF80091EC78F00009D8B407D0010E0201076F93
:108D08002C0E066F120E06D0000E0201076F1E0E03
:108D1800066F100E0001B26F00D0A4EC26F0050E0D
:108D28000001D819D8A416D00101EB51D8B412D03B
:108D38000101C805D8A415D0150E0DEC76F0010177
:108D480001510FE1020E0101005DD8B00AD0D3EC49
:108D58007DF007D00101C851D8A403D0CDEC7DF037
:108D680000D00101C551D8A481A622D00101C62B8B
:108D78001E0E0101C66524D0000E0101FB6F1AEC1E
:108D88007EF0030E0101016FEC0E006FFBC102F1D2
:108D9800DAEC78F0000E0101C76F010E0101D46F03
:108DA800000E0101C66F00D081A60AD0FDD708D0F9
:108DB8000101C651D8B404D0010E0101C76F00D01B
:108DC8000101C7510101D8B42DD00101FB51D8B41C
:108DD80029D01F0E0101C66125D0010E0101C6650B
:108DE8002AD00101C851D8A40ED0CDEC7DF0020ED6
:108DF8000101276F580E266F010E0101286F150E0D
:108E080043EC72F018D00101C805D8A414D0D3ECF3
:108E18007DF0150E9AEC7CF00ED00DD0000E0101FD
:108E2800C66F0ED00101C7510101D8B409D01F0E79
:108E38000101C66105D0000E0101C76FEFD700D050
:108E4800140EEFEC79F000D0140EC4EC7BF000099E
:108E5800D8B40CD0000E0101276F0A0E266F020E3F
:108E68000101286F140E43EC72F000D00101D051BB
:108E7800D8B41200F70E0101186F010E0101196F25
:108E8800000E01011A6F68EC3AF0000E0101D06F74
:108E980012001200000E01010F6F000E0E6F01018B
:108EA8000FBF0AD001010F5106E13F0E01010E5D0F
:108EB800D8B0D4D001D0D2D006C1D9FF07C1DAFFCB
:108EC8000EC100F10FC101F1000E0101036F060E82
:108ED800026F4DEC7AF0BD0E01010025E16E0A0E1D
:108EE80001010121E26EDE50E618D8A4ACD00101E0
:108EF80020EE01F00651D9260751DA220EC100F101
:108F08000FC101F1000E0101036F060E026F4DEC57
:108F18007AF0010E01010027000E01010123BD0EA8
:108F280001010025E16E0A0E01010121E26EDE5009
:108F3800E618D8A488D0010120EE02F00651D926FF
:108F48000751DA220EC100F10FC101F1000E010133
:108F5800036F060E026F4DEC7AF0020E0101002736
:108F6800000E01010123BD0E01010025E16E0A0E6C
:108F780001010121E26EDE50E618D8A464D0010197
:108F880020EE03F00651D9260751DA220EC100F16E
:108F98000FC101F1000E0101036F060E026F4DECC7
:108FA8007AF0030E01010027000E01010123BD0E16
:108FB80001010025E16E0A0E01010121E26EDE5079
:108FC800E618D8A440D00EC100F10FC101F1000E7F
:108FD8000101036F060E026F4DEC7AF0050E0101D8
:108FE8000027000E01010123BD0E01010025D96EE5
:108FF8000A0E01010121DA6E08C1E1FF09C1E2FF91
:10900800DFCFE7FF0EC100F10FC101F1000E010132
:10901800036F060E026F4DEC7AF0040E0101002773
:10902800000E01010123BD0E01010025D96E0A0EB3
:1090380001010121DA6EDF380F0B0AC1D9FF0BC11C
:10904800DAFFDF6E120001010E4B0F2B01010FBF7B
:1090580033D701010F5102E128D700D008C1D9FF49
:1090680009C1DAFFFF0EDF6E0AC1D9FF0BC1DAFFB3
:109078000F0EDF6E120012003C50D8B4D9D0020196
:109088004C51D8B410D0000E02014C6F000E0001F4
:10909800D06F000E0001D16F000E3C6E000E000173
:1090A800CD6F000E120002014A51D8A40DD0000E57
:1090B8000001D06F000E0001D16F000E3C6E000E53
:1090C8000001CD6F000E12000001D151FD0F10C13B
:1090D800D9FF11C1DAFFDF6E000E0101186F400ED3
:1090E8000001D1650DD0000E0001D06F000E000107
:1090F800D16F000E3C6E000E0001CD6F000E120005
:10910800020E0101196F11D001011951010D800ED4
:10911800F324D96E050EF420DA6EDF500101181918
:109128000101186F0101192B00D00001D151010173
:10913800195DD8A0E9D7010118510101D8B40DD0A3
:10914800000E0001D06F000E0001D16F000E3C6EC2
:10915800000E0001CD6F000E120010C1D9FF11C121
:10916800DAFF3D0EDF640DD0000E0001D06F000E57
:109178000001D16F000E3C6E000E0001CD6F000E95
:10918800120010C1D9FF11C1DAFFDF500101126FBF
:10919800136BFD0E0101146FFF0E0101156F000125
:1091A800D1510101166F176B0101145101011627E6
:1091B800010115510101172301011251010116196D
:1091C80006E10101135101011719D8B40DD0000EA1
:1091D8000001D06F000E0001D16F000E3C6E000E32
:1091E8000001CD6F000E1200800E0101006F050E08
:1091F8000101016F020E0101026F0EC103F10FC1DF
:1092080004F1000E0101056F10C1D9FF11C1DAFF89
:10921800DF500101066FDCEC70F0000E0001D06F2A
:10922800000E0001D16F000E3C6E010E12000FD02F
:109238003C50D8B40CD0000E0001D06F000E0001D5
:10924800D16F000E3C6E000E0001CD6F00D0000EF5
:109258001200120002015751D8A4D2D0020189513C
:10926800D8A4CED0580E0101066F020E0101076F77
:10927800F30E0101086F020E0101096F040E0101CE
:109288000A6F46EC78F060C2EAF2060E0201576FE8
:109298000EC106F10FC107F15C0E0101086F020E45
:1092A8000101096F040E01010A6F46EC78F0DF0E28
:1092B8000101066F010E0101076F580E0101086FC9
:1092C800020E0101096F040E01010A6F46EC78F0E5
:1092D80052EC7DF00201606F000E02018C6F0101FB
:1092E80015510101D8B402D0040E01D0030E0201B9
:1092F800616F00D0270E0101126156D00101C351E0
:10930800D8B431D0010114510101D8B42CD0010EC8
:10931800010110250101006F000E01011121010159
:10932800016FFF0E010112250101026F0101036B9C
:10933800FF0E032342EC62F00101166F050E0101D6
:10934800176F0101D89016370101172FFAD70101BD
:1093580016510201626F10C1D9FF11C1DAFFDF5047
:109368000201622708D010C1D9FF11C1DAFFDF500E
:109378000201626F00D010C100F111C101F1010EAC
:109388000101026F620E0101036F020E0101046FF9
:10939800010E0101056F010112050101066FDCECE8
:1093A80070F012C188F200D013C189F20101135183
:1093B8000101D8B403D0000E0201576F0001BB5160
:1093C800D8A404D0000E0101D56F18D05C0E01019D
:1093D800066F020E0101076FEB0E0101086F020E06
:1093E8000101096F040E01010A6FA2EC77F0000970
:1093F800D8B404D0020E0201576F00D0010E12003B
:10940800000E120012000101146F000E0101166F08
:10941800000E176F000E186F000E196F040E010171
:109428000F19D8A40BD00DC116F10EC117F1010107
:10943800000E17BFFF0E186F196F54D001010F519E
:109448000101D8A42FD00DC110F10EC111F1000EE9
:10945800010111BFFF0E126F136F0F0ED89001019B
:109468001037113712371337E82EF8D710C100F12B
:1094780011C101F112C102F113C103F1E80E01019A
:10948800046F030E056F000E066F000E076F9EEC4B
:1094980069F000C116F101C117F102C118F103C149
:1094A80019F120D001010F05D8A41CD00DC110F16D
:1094B8000EC111F1000E010111BFFF0E126F136FE3
:1094C8000F0ED89001011037113712371337E82ED5
:1094D800F8D710C116F111C117F112C118F113C153
:1094E80019F100D016C110F117C111F118C112F10C
:1094F80019C113F10101101F111F121F131F102B87
:10950800000E112312231323FF0E01011025010160
:10951800166FFF0E010111210101176F000E0101E5
:1095280012210101186F000E010113210101196FA9
:1095380001011405D8A40BD017C1CFFF16C1CEFF67
:109548008C0ECD6E9F809E909D80CD8000D0030EA6
:1095580001011419D8A40AD017C1B3FF16C1B2FF6C
:109568008C0EB16EA292A192A082B1800001BF516F
:10957800D8A41200010E0001BF6F000E0101156F83
:10958800180E0101156502D01200120001011551D3
:10959800020D000EF324D96E030EF420DA6E000ECD
:1095A800DE6E000EDD6E0101152B180E010115652A
:1095B800EDD71200120012000001746F000E0001B6
:1095C800766F000E776F000E786F000E796F040EBD
:1095D80000016F19D8A40BD06DC076F06EC077F07B
:1095E8000001000E77BFFF0E786F796F54D000012D
:1095F8006F510001D8A42FD06DC070F06EC071F00B
:10960800000E000171BFFF0E726F736F0F0ED890BE
:1096180000017037713772377337E82EF8D770C08A
:1096280060F071C061F072C062F073C063F0E80E60
:109638000001646F030E656F000E666F000E676FA2
:1096480001EC6AF060C076F061C077F062C078F033
:1096580063C079F020D000016F05D8A41CD06DC07C
:1096680070F06EC071F0000E000171BFFF0E726FD6
:10967800736F0F0ED89000017037713772377337D8
:10968800E82EF8D770C076F071C077F072C078F025
:1096980073C079F000D076C070F077C071F078C0F0
:1096A80072F079C073F00001701F711F721F731F71
:1096B800702B000E712372237323FF0E0001702597
:1096C8000001766FFF0E000171210001776F000E17
:1096D800000172210001786F000E00017321000162
:1096E800796F00017405D8A40BD077C0CFFF76C07E
:1096F800CEFF8C0ECD6E9F809E909D80CD8000D039
:10970800030E00017419D8A40AD077C0B3FF76C03D
:10971800B2FF8C0EB16EA292A192A082B18000011C
:10972800BF51D8A41200010E0001BF6F000E000146
:10973800756F180E0001756502D012001200000145
:109748007551020D000EF324D96E030EF420DA6E63
:10975800000EDE6E000EDD6E0001752B180E000186
:109768007565EDD71200120012001E0E010187194F
:10977800D8A44FD001018805D8A4C2D0000E010199
:10978800276F0A0E266F020E0101286F140E43EC94
:1097980072F0020E010182250101186F000E01010D
:1097A80083210101196F000E01011A6F68EC3AF06C
:1097B800000EC4EC7BF00009D8B40CD0130E0101E4
:1097C800276F880E266F000E0101286F000E43ECEC
:1097D80072F000D00E0E0101896592D0040EC4EC1F
:1097E8007BF00009D8A48CD0040EEFEC79F00009C6
:1097F800D8A486D0000E0101276F010E266F000E37
:109808000101286F040E43EC72F0010E0101F66F9E
:1098180077D01F0E01018719D8A46BD0410E010122
:109828008819D8A46DD0010120EE02F08251D92602
:109838008351DA22DF50D8A425D0010120EE03F0AD
:109848008251D9268351DA22DF50D8A41BD00101D6
:1098580020EE04F08251D9268351DA22DF50D8A4B1
:1098680011D0D3EC7DF0F70E0101186F010E010144
:10987800196F000E01011A6F68EC3AF0150E9AEC98
:109888007CF03ED0010120EE02F08251D9268351AE
:10989800DA22DE04D8A434D0010120EE03F082518C
:1098A800D9268351DA22DE04D8A42AD0010120EE79
:1098B80004F08251D9268351DA22DE04D8A420D0BC
:1098C800CDEC7DF0F70E0101186F010E0101196F43
:1098D800000E01011A6F68EC3AF0020E0101276FC1
:1098E800580E266F010E0101286F150E43EC72F019
:1098F80007D001018705D8A403D0010E120000D0BB
:10990800000E120012000101116F030E0101081967
:10991800D8A460D03C0E0101116102D0000E12D013
:10992800C30E010111250101006F0101016BFF0E3A
:109938000123000E0101036F050E026F6CEC68F045
:10994800010100510101126F00D001011251010102
:10995800096F0A6BFF0E01010B6FFF0E01010C6FFF
:1099680008C10DF1010E01010E6F000E01010F6F0C
:1099780001010D2B04D0D89001010E370F370101DA
:109988000D2FF9D701010B5101010E2701010C51CF
:1099980001010F230101095101010E5D01010F5160
:1099A800800A0101106F01010A51800A0101105952
:1099B800D8B071D008C109F1010E01010A6F010187
:1099C800092B03D00101D8900A370101092FFAD7D2
:1099D8005DD061D0040E01010819D8A45CD0DC0E5A
:1099E800010111250101006F0101016BFF0E012327
:1099F800000E0101036F050E026F6CEC68F00101A7
:109A080000510101126F010112510101096F0A6B26
:109A1800FF0E01010B6FFF0E01010C6F08C10DF164
:109A2800010E01010E6F000E01010F6F01010D2BD8
:109A380004D0D89001010E370F3701010D2FF9D747
:109A480001010B5101010E2701010C5101010F23E6
:109A58000101095101010E5D01010F51800A010147
:109A6800106F01010A51800A01011059D8B013D0B2
:109A780008C109F1010E01010A6F0101092B03D088
:109A88000101D8900A370101092FFAD701010A0507
:109A98000101126F00D001011251120012000101E0
:109AA800066F010104510101D8B402D0200E01D083
:109AB800600E0101056F9AD00101055102090201EA
:109AC800916F630E0201986F010106511B0F55D06B
:109AD8000101055102090201916F640E0201986F9C
:109AE80001010651040F49D0210E010106610BD076
:109AF800010105510A090201916F650E0201986F73
:109B080006C199F281D0010105510A090201916F3C
:109B1800640E0201986F01010651190F2ED074D0FE
:109B2800010105510A090201916F650E0201986F42
:109B380001010651210F21D00C0E010106610DD043
:109B48000101055102090201916F630E0201986F2C
:109B580001010651040DF350B9D70B0E010106653A
:109B68000FD0190E010106610BD001010551020940
:109B780012D0640E0201986F11D00201996F44D07F
:109B8800180E0101066510D01F0E010106610CD0E8
:109B9800010105510A090201916FEBD70101064540
:109BA800E846FC0BD00FE9D71E0E0101066509D067
:109BB800270E0101066105D00CD0650E0201986FD1
:109BC8000ED0260E010106651FD0320E0101066176
:109BD8001BD0010105510A090201916FEED701015D
:109BE8000645E846FC0B850FC8D70ED05450010A2D
:109BF800D8B462D7030AD8B46BD7010AD8B474D7DB
:109C0800070AD8B48DD798D791C202F1000E84EC18
:109C18007AF098C202F10E0E84EC7AF099C202F141
:109C2800100E84EC7AF0120004004850D8A41200F8
:109C380001D012001AC148F0000E01011B6FB0D00C
:109C4800000E0001C66F0001CD51D8A49DD03E0E74
:109C58000101196199D0010E0001C86F0001CD51B1
:109C6800D8B404D0000E0001C86F95D0200EABEC1C
:109C78005CF002019E5101090101026F1A0E84EC89
:109C88007AF0800EABEC5CF001011951020F48EC40
:109C98007DF00001B65148EC7DF0000E01011F6F08
:109CA80064D001011F51010DF35001011725D96E30
:109CB800F45001011821DA6EDF5001011C6F010117
:109CC8001F05D8B410D0020E01011F19D8B40BD04B
:109CD8000001C65101011C190001C66F01011C5188
:109CE80048EC7DF03FD001011F05D8A42BD0040E0D
:109CF80001010C6F010E36EC61F00001A351010166
:109D08000C2501011D6F0001A45101010D21010164
:109D18001E6F01011E5148EC7DF001011E5100012A
:109D2800C6190001C66F01011D510201385D01010C
:109D38001E5102013959D8B015D01DC138F21EC1C3
:109D480039F210D0020E01011F19D8A40BD001015D
:109D58001D5148EC7DF00001C65101011D1900019B
:109D6800C66F00D001011F2B00D00101195101015C
:109D78001F5DD8A096D70001C65148EC7DF00400BD
:109D8800010E0101D26F09D03D0E0101196501D004
:109D980002D00001CD51480600D001011B2B00D094
:109DA80001011A5101011B5DD8A04AD71200020116
:109DB8005751D8A4BBD002018951D8A4B7D0580EA6
:109DC8000101066F020E0101076FF30E0101086F12
:109DD800020E0101096F040E01010A6F46EC78F0CA
:109DE80060C2EAF2060E0201576F000E02018A6F86
:109DF800020E02018B6F0EC106F10FC107F15C0E56
:109E08000101086F020E0101096F040E01010A6FBA
:109E180046EC78F0DF0E0101066F010E0101076FB5
:109E2800580E0101086F020E0101096F040E0101AD
:109E38000A6F46EC78F052EC7DF00201606F000E7C
:109E48000201896F1D0E0201626F210E0201636F0C
:109E580010C164F23F0E0201656F080E0101116F17
:109E68000101105101011103F3CF12F1000E01019C
:109E7800136F46D03F0E0101126121D0010112512A
:109E8800060DBD0EF3240101006F0A0EF420010136
:109E9800016F000E0101026F620E0101036F020ED5
:109EA8000101046F01011351040DF350060F010164
:109EB800056F040E0101066FDCEC70F01CD0DB0EA0
:109EC8000101006F010E0101016F000E0101026F17
:109ED800620E0101036F020E0101046F01011351AB
:109EE800040DF350060F0101056F040E0101066F02
:109EF800DCEC70F000D00101122B0101132B00D013
:109F0800010111510101135DD8A0B4D7030E02015C
:109F1800616F260E0201886F0001BB51D8A404D0DE
:109F2800000E0101D56F00D0010E1200000E1200C4
:109F3800120001010C6F000E01010E6F0F015A99FA
:109F4800000E0001CD6F000E0001D56F000E00015C
:109F5800D06F000E0001D16F000E4A6E000E3C6EED
:109F6800200E0101B96F000E02014A6F000E0001B8
:109F7800C86F000E0101D26F000E516E000E486EC0
:109F88008986050E0101076F260EE82EFED7072FDA
:109F9800FCD700D08996680E0101076FE40EE82E01
:109FA800FED7072FFCD700D0000E0101046F010176
:109FB8000C5153EC4DF0000E01010E6F1F0E010104
:109FC8000E6501D015D001010E51010D910EF3243B
:109FD800D96E020EF420DA6EDF500101026F010122
:109FE8000E51020DF35084EC7AF001010E2BE6D7E6
:109FF800030E0101016FFC0E006FE3EC7CF0010120
:10A008000D6F01010D29D8A418D01AEC7EF0030EAB
:10A018000101016FFC0E006F000E0101026FDAEC06
:10A0280078F0000E25EC7DF0D80E0101096F09C10A
:10A0380002F13C0E84EC7AF01ED001010D510101B1
:10A04800D8A40CD0000E25EC7DF0D80E01010A6FC3
:10A058000AC102F13C0E84EC7AF00DD001010D51D9
:10A0680025EC7DF0DA0E01010B6F0BC102F13C0EFD
:10A0780084EC7AF000D0F29600F00F015A8900F0D3
:10A0880081CF08F100F0F290F2860CC153F0150E62
:10A098000101076FC60EE82EFED7072FFCD700D0A8
:10A0A800C7EC7CF0010E0001D26F000E0001D36FE7
:10A0B8001200000E01010B6F3E0E01010B6502D06C
:10A0C8001200120001010B51060D040EF326000EBA
:10A0D800F422BD0EF324D96E0A0EF420DA6EDF5096
:10A0E8000F0B0F0AD8B49CD0010E0101086F0101B3
:10A0F8000B51060D040EF326000EF422BD0EF324B8
:10A10800D96E0A0EF420DA6EDF500F0B0101096FC9
:10A118000101085101010927DF5001010919F00B5C
:10A1280001010919DF6E49500F0DF3CF00F1F4CF8B
:10A1380001F1000E0101036F400E026F6CEC68F034
:10A14800040E01010027000E0101012301010B513A
:10A15800060D040EF326000EF422BD0EF324D96E6C
:10A168000A0EF420DA6EDF500F0B0101086F096B3D
:10A17800010100510101085D01010951800A010135
:10A188000A6F01010151800A01010A59D8B012D0A1
:10A1980001010B51060D040EF326000EF422BD0E2C
:10A1A800F324D96E0A0EF420DA6EDF500F0B0F0A73
:10A1B800D8A436D001010B51060D040EF326000E6B
:10A1C800F422BD0EF324D96E0A0EF420DA6EDF8075
:10A1D800DF82DF84DF8601010B51060D050EF326B1
:10A1E800000EF422BD0EF324D96E0A0EF420DA6EA6
:10A1F800FF0EDF6E01010B51060D040EF326000E53
:10A20800F422BD0EF324D96E0A0EF420DA6EDF882C
:10A21800DF8ADF8CDF8E4950D8B402D0490600D0DF
:10A2280001010B2B3E0E01010B654CD712001200E9
:10A23800156E000E176E000E186E000E196E000EC9
:10A248001A6E040E1018D8A40AD00EC017F00FC04A
:10A2580018F0000E18BEFF0E196E1A6E4CD0105072
:10A26800D8A42CD00EC011F00FC012F0000E12BEF0
:10A27800FF0E136E146E0F0ED89011361236133669
:10A288001436E82EF9D711C001F012C002F013C03D
:10A2980003F014C004F0E80E056E030E066E000EFF
:10A2A800076E000E086E89EC72F001C017F002C04C
:10A2B80018F003C019F004C01AF01DD01004D8A477
:10A2C8001AD00EC011F00FC012F0000E12BEFF0E11
:10A2D800136E146E0F0ED8901136123613361436CC
:10A2E800E82EF9D711C017F012C018F013C019F0F2
:10A2F80014C01AF000D017C011F018C012F019C01D
:10A3080013F01AC014F0111E121E131E141E112A67
:10A31800000E122213221422FF0E1124176EFF0EB4
:10A328001220186E000E1320196E000E14201A6EDB
:10A338001504D8A40BD018C0CFFF17C0CEFF8C0EC1
:10A34800CD6E9F809E909D80CD8000D0030E151805
:10A35800D8A40AD018C0B3FF17C0B2FF8C0EB16ED4
:10A36800A292A192A082B1800001BF51D8A412008C
:10A37800010E0001BF6F000E166E180E166402D093
:10A38800120012001650020D000EF324D96E030EAF
:10A39800F420DA6E000EDE6E000EDD6E162A180E40
:10A3A8001664F0D71200120012001D0E0101426F50
:10A3B8001AC10BF11BC10CF1430E01010D6F010E07
:10A3C80001010E6F5BEC45F00101476F1D0E0101A5
:10A3D8001C6F260E01011D6F1AC100F11BC101F18E
:10A3E800000E0101026F1C0E0101036F010E010135
:10A3F800046F020E0101056F040E0101066FDCEC0B
:10A4080070F0430E0101006F010E0101016F000E93
:10A418000101026F1C0E0101036F010E0101046F9F
:10A42800060E0101056F040E0101066FDCEC70F0E9
:10A4380047C126F11AC100F11BC101F1000E01014B
:10A44800026F1C0E0101036F010E0101046F0B0E58
:10A458000101056F040E0101066FDCEC70F0430E7C
:10A468000101006F010E0101016F000E0101026F71
:10A478001C0E0101036F010E0101046F0F0E010193
:10A48800056F040E0101066FDCEC70F047C12FF177
:10A498001AC100F11BC101F1000E0101026F1C0E6F
:10A4A8000101036F010E0101046F140E0101056F14
:10A4B800040E0101066FDCEC70F0430E0101006F21
:10A4C800010E0101016F000E0101026F1C0E010156
:10A4D800036F010E0101046F180E0101056F040ED0
:10A4E8000101066FDCEC70F047C138F118C10EF1BC
:10A4F80019C10FF11C0E0101106F010E0101116F3E
:10A5080042C112F1000E0101136F010E0101146F17
:10A51800000E0101156F2EEC49F01200120000C167
:10A52800D9FF01C1DAFF000EDF6E010120EE01F054
:10A538000051D9260151DA22000EDF6E4450D8A40A
:10A5480004D00001C151D8B439D01E0E0001C26137
:10A5580003D00001C22B00D01E0E0001C219D8A4DE
:10A568001AD00E0E0001C46516D000C1D9FF01C172
:10A57800DAFF030EDF6E2D0E0001C26F010120EE1F
:10A5880001F00051D9260151DA22030EDF6E2D0E9B
:10A598000001C46F0FD01E0E0001C219D8A40AD042
:10A5A80000C1D9FF01C1DAFF020EDF6E2D0E0001D6
:10A5B800C26F00D0000E0001C16F13D0010E000160
:10A5C800C2650BD01F0E0001C26107D000C1D9FFC0
:10A5D80001C1DAFF010EDF6E00D0000E0001C26F6C
:10A5E80000D04550D8A404D00001C351D8B43AD003
:10A5F8001E0E0001C46103D00001C42B00D01E0E42
:10A608000001C419D8A41AD00E0E0001C26516D0D4
:10A6180000C1D9FF01C1DAFF030EDF6E2D0E000164
:10A62800C26F010120EE01F00051D9260151DA2252
:10A63800030E11D02D0E0001C46F10D01E0E0001A4
:10A64800C419D8A40BD0010120EE01F00051D9267D
:10A658000151DA22020EDF6EEDD700D0000E0001A4
:10A66800C36F1200010E0001C4650ED01F0E000159
:10A67800C4610AD0010120EE01F00051D926015130
:10A68800DA22010EDF6E00D0000E0001C46F120046
:10A6980012001D0E0101266F200E0101276F22C135
:10A6A80028F135EC7EF00101296F030E0101556F89
:10A6B8000101225101015503F3CF54F1000E0101AC
:10A6C800586F000E576F6DD04C0E0101146F010EBC
:10A6D8000101156F500E0101166F010E0101176F70
:10A6E800560E0101186F010E0101196F0101545135
:10A6F800CAEC64F04C0E0101006F010E0101016FFC
:10A70800000E0101026F260E0101036F010E010107
:10A71800046F01015751090DF350040F0101056F32
:10A72800040E0101066FDCEC70F0500E0101006FA1
:10A73800010E0101016F000E0101026F260E0101D9
:10A74800036F010E0101046F01015751090DF35008
:10A75800080F0101056F040E0101066FDCEC70F0B3
:10A7680057C100F158C101F1000E0101036F090E34
:10A77800026F4DEC7AF00C0E01010027000E01016A
:10A788000123260E01010025D96E010E01010121C8
:10A79800DA6E56C1DFFF0101542B0101574B582BCC
:10A7A80000D0010155510101236F246B0101235190
:10A7B8000101575D01015851800A0101256F01010E
:10A7C8002451800A01012559D8A07ED720C10EF155
:10A7D80021C10FF1260E0101106F010E0101116F49
:10A7E800260E0101126F000E0101136F010E010107
:10A7F800146F000E0101156F2EEC49F012001200C3
:10A808000AC10EF101010F6B106B0101093501013D
:10A818000E3701E30F8101010E510101116F010192
:10A828001151D8A40AD0000E0101086F000E0101D1
:10A83800096F000E01010A6F12000DC10EF101012E
:10A848000F6B106B01010C3501010E3701E30F810D
:10A8580001010E510101166F01011651D8A40AD049
:10A86800000E0101086F000E0101096F000E0101C1
:10A878000A6F1200010116517B0F010111270AC14D
:10A8880016F101010D510101161B800E0101161769
:10A898000101098F01010C8FFF0E01010B17FF0E3B
:10A8A80001010C17000E01010D17000E0101126FB6
:10A8B800000E0101136F000E0101146F070E010154
:10A8C800156F00D0010108A10DD001010B51010144
:10A8D800122701010C510101132301010D5101013E
:10A8E800142300D00101D8900A3309330833010139
:10A8F800D8900B370C370D370101152FE3D700D04F
:10A90800090E0101156F00D0010108A10DD0010148
:10A918000B510101122701010C51010113230101FF
:10A928000D510101142300D00101D8900A330933D5
:10A9380008330101D8901433133312330101152F52
:10A94800E3D700D012C100F113C101F114C102F123
:10A9580011C103F116C104F1FCEC5EF000C108F16D
:10A9680001C109F102C10AF1120012006EC072F0B1
:10A978000001736B746B00016D350001723701E3E0
:10A988007381000172510001756F00017551D8A4DF
:10A998000AD0000E00016C6F000E00016D6F000EF2
:10A9A80000016E6F120071C072F00001736B746B5E
:10A9B800000170350001723701E3738100017251A3
:10A9C80000017A6F00017A51D8A40AD0000E000164
:10A9D8006C6F000E00016D6F000E00016E6F1200AB
:10A9E80000017A517B0F000175276EC07AF00001D3
:10A9F800715100017A1B800E00017A1700016D8FDA
:10AA08000001708FFF0E00016F17FF0E0001701715
:10AA1800000E00017117000E0001766F000E000194
:10AA2800776F000E0001786F070E0001796F00D074
:10AA380000016CA10DD000016F51000176270001C3
:10AA4800705100017723000171510001782300D073
:10AA58000001D8906E336D336C330001D8906F3796
:10AA6800703771370001792FE3D700D0090E000144
:10AA7800796F00D000016CA10DD000016F51000169
:10AA88007627000170510001772300017151000100
:10AA9800782300D00001D8906E336D336C330001F9
:10AAA800D8907833773376330001792FE3D700D005
:10AAB80076C060F077C061F078C062F075C063F06E
:10AAC8007AC064F08CEC5FF060C06CF061C06DF02F
:10AAD80062C06EF0120012000001DC510001DB11AF
:10AAE80031E1610E0001D95D090E0001DA59D8B0D3
:10AAF80029D0A786000E0101006F900E016FD00EBD
:10AB0800026F030E036FD9C00DF1DAC00EF1DBC07E
:10AB18000FF1DCC010F1040ED89001010D370E378B
:10AB28000F371037E82EF8D70DC104F10EC105F123
:10AB38000FC106F110C107F19EEC69F034D06C0E1C
:10AB4800426E6CD00001DC510001DB1137E1810E4F
:10AB58000001D95D250E0001DA59D8B02FD0000EBA
:10AB68000101006F900E016FD00E026F030E036F8C
:10AB7800D9C00DF1DAC00EF1DBC00FF1DCC010F165
:10AB8800060ED89001010D370E370F371037E82E13
:10AB9800F8D70DC104F10EC105F10FC106F110C1BE
:10ABA80007F19EEC69F0FF0E010100250201086F14
:10ABB800FF0E010101210201096FC1D7000E010139
:10ABC800006F900E016FD00E026F030E036FD9C095
:10ABD80004F1DAC005F1DBC006F1DCC007F19EEC38
:10ABE80069F0050E07D00101D89003330233010143
:10ABF80001330033E82EF7D7FF0E010100250201CB
:10AC0800086FFF0E010101210201096F000E020108
:10AC1800096F220E086F7C0E93D700D008C200F18E
:10AC280009C201F1425043EC74F0010E0001BA6F01
:10AC3800AB98AB88AECF54F212000001DC51000192
:10AC4800DB1131E1610E0001D95D090E0001DA590D
:10AC5800D8B029D0A786000E0001606F900E616FF2
:10AC6800D00E626F030E636FD9C06DF0DAC06EF05C
:10AC7800DBC06FF0DCC070F0040ED89000016D37B7
:10AC88006E376F377037E82EF8D76DC064F06EC036
:10AC980065F06FC066F070C067F001EC6AF034D000
:10ACA8006C0E426E6CD00001DC510001DB1137E103
:10ACB800810E0001D95D250E0001DA59D8B02FD0D8
:10ACC800000E0001606F900E616FD00E626F030E70
:10ACD800636FD9C06DF0DAC06EF0DBC06FF0DCC016
:10ACE80070F0060ED89000016D376E376F377037E9
:10ACF800E82EF8D76DC064F06EC065F06FC066F0DE
:10AD080070C067F001EC6AF0FF0E000160250201D7
:10AD1800086FFF0E000161210201096FC1D7000E03
:10AD28000001606F900E616FD00E626F030E636F4B
:10AD3800D9C064F0DAC065F0DBC066F0DCC067F04B
:10AD480001EC6AF0050E07D00001D8906333623336
:10AD5800000161336033E82EF7D7FF0E000160254C
:10AD68000201086FFF0E000161210201096F000E48
:10AD78000201096F220E086F7C0E93D700D008C21B
:10AD880060F009C261F042507FEC74F0010E0001DE
:10AD9800BA6FAB98AB88AECF54F212000001BE5127
:10ADA800D8B4A3D00001CD51D8A49FD0C5C000F11C
:10ADB8000101016B000E0101036F000E026FC90E45
:10ADC8000101046F000E056F000E066F000E076F7D
:10ADD800BBEC74F00101005101012F6F01012F51EB
:10ADE8000101D8A402D0000E1200000E01010E6F5E
:10ADF80001012F51010D000EF324D96E060EF42027
:10AE0800DA6EDF5010EC7CF0D3A60FD0040E0101EF
:10AE18000C6F010E36EC61F00001A35101010C2505
:10AE28000101306F0001A45114D0040E01010C6F10
:10AE3800010E36EC61F00001A35101010C2700015D
:10AE4800A45101010D23E60E01010C250101306F0B
:10AE5800FF0E01010D210101316F00D022EC7EF0BF
:10AE68002CC1D9FF2DC1DAFFDF6E010120EE02F0FF
:10AE78002C51D9262D51DA2230C1DFFF010120EEF5
:10AE880001F02C51D9262D51DA2201013151DF6E02
:10AE98002CC117F12DC118F101012E51030F010129
:10AEA800196F010E01011A6F18EC4EF00101C9511A
:10AEB800D8A417D0080E0DEC76F00101005101015D
:10AEC800C9250101C96FC9C126F10101276B010E0E
:10AED8000101286F080E43EC72F0000E0101C96FE2
:10AEE80000D0000E4C6E010E1200000E120012006F
:10AEF80000C1D9FF01C1DAFF1D0EDF6E010120EE8E
:10AF080001F00051D9260151DA22230EDF6E01012A
:10AF180020EE02F00051D9260151DA22D3C002F105
:10AF28000101023BF00E0217F3EC7DF0010102254E
:10AF38000001D225DF6E010120EE03F00051D92671
:10AF48000151DA22D3C002F10101023BF00E0217CF
:10AF5800F3EC7DF0010102250001D225DF6E01012D
:10AF680020EE04F00051D9260151DA22D3C002F1B3
:10AF78000101023BF00E0217F3EC7DF001010225FE
:10AF88000001D225DF6E010120EE05F00051D9261F
:10AF98000151DA22C9C0DFFF010120EE06F000519D
:10AFA800D9260151DA22C9C0DFFF010120EE07F0DE
:10AFB8000051D9260151DA22C9C0DFFF010120EE74
:10AFC80008F00051D9260151DA221EEC7EF0DF6E1E
:10AFD800010120EE09F00051D9260151DA221EECB8
:10AFE8007EF0DF6E010120EE0AF00051D9260151F2
:10AFF800DA221EEC7EF0DF6E010120EE0BF000512C
:10B00800D9260151DA2206EC7EF0DF6E010120EE2E
:10B018000CF00051D9260151DA2206EC7EF0DF6EE1
:10B02800010120EE0DF00051D9260151DA2206EC7B
:10B038007EF0DF6E0E0E0101036F01010351120055
:10B04800120019C11BF101011C6B1D6B01011835A0
:10B0580001011B3701E31C8101011B510101256F0F
:10B0680001012551D8A40AD0000E0101176F000E66
:10B07800186F000E196F000E1A6F1200170E0101DB
:10B088001B6F17C11CF118C11DF119C11EF1010177
:10B098001B2901011F6F05D00101D8901E331D33F4
:10B0A8001C3301011F2FF8D701011C510101206F2A
:10B0B8000101188FFF0E01011717FF0E0101181764
:10B0C800000E01011917010117510101216F01013A
:10B0D80018510101226F010119510101236F01016A
:10B0E800246B8E0E0101255F010125AF1BD00101E4
:10B0F8002551800A8F0FD8B00BD0000E0101176FB1
:10B10800000E186F000E196F000E1A6F120000D093
:10B118000101D89024332333223321330101253F01
:10B12800F7D71FD0170E0101256514D0000E0101B5
:10B13800176F000E186F000E196F000E1A6F1200AD
:10B1480009D00101D890213722372337243701014C
:10B15800250700D0010125510101D8B402D0F1D74B
:10B1680000D0010120510101D8B40AD00101241FE7
:10B17800231F221F216D000E22232323242300D006
:10B1880021C117F122C118F123C119F124C11AF103
:10B19800120012000DC111F10101126B136B0101B4
:10B1A8000C350101113701E312810101115101012F
:10B1B800186F01011851D8A40AD0000E01010B6FB5
:10B1C800000E01010C6F000E01010D6F120010C17D
:10B1D80011F10101126B136B01010F3501011137D8
:10B1E80001E31281010111510101196F0101195186
:10B1F800D8A40AD0000E01010B6F000E01010C6FDC
:10B20800000E01010D6F1200000E0101156F000EF6
:10B218000101166F000E0101176F01011951890F05
:10B228000101185F0DC119F1010110510101191B2C
:10B23800800E0101191701010C8FFF0E01010B1778
:10B24800FF0E01010C17000E01010D1701010F8FF0
:10B25800FF0E01010E17FF0E01010F17000E01016D
:10B268001017180E0101146F00D00101D89015377E
:10B278001637173701010E5101010B5D01010F51FE
:10B2880001010C590101105101010D59D8A00ED02E
:10B2980001010E5101010B5F01010F5101010C5B0E
:10B2A8000101105101010D5B010115810101D890C7
:10B2B8000B370C370D370101142FD7D700D015C124
:10B2C80000F116C101F117C102F118C103F119C14A
:10B2D80004F1FCEC5EF000C10BF101C10CF102C1FC
:10B2E8000DF1120012007DC07FF00001806B816BB0
:10B2F80000017C3500017F3701E3808100017F5127
:10B308000001896F00018951D8A40AD0000E0001FC
:10B318007B6F000E7C6F000E7D6F000E7E6F12003B
:10B32800170E00017F6F7BC080F07CC081F07DC06C
:10B3380082F000017F290001836F05D00001D890B9
:10B348008233813380330001832FF8D70001805185
:10B358000001846F00017C8FFF0E00017B17FF0E38
:10B3680000017C17000E00017D1700017B510001D0
:10B37800856F00017C510001866F00017D5100013D
:10B38800876F0001886B8E0E0001895F000189AF0D
:10B398001BD000018951800A8F0FD8B00BD0000E46
:10B3A80000017B6F000E7C6F000E7D6F000E7E6FBC
:10B3B800120000D00001D890883387338633853354
:10B3C8000001893FF7D71FD0170E0001896514D0F7
:10B3D800000E00017B6F000E7C6F000E7D6F000E6B
:10B3E8007E6F120009D00001D890853786378737DD
:10B3F80088370001890700D0000189510001D8B4BD
:10B4080002D0F1D700D0000184510001D8B40AD08D
:10B418000001881F871F861F856D000E86238723DE
:10B42800882300D085C07BF086C07CF087C07DF083
:10B4380088C07EF01200120001010005010101110F
:10B44800D8A42FD00001A751301805E10001A85158
:10B458003118D8B496D03F50D8B402D0000E12009C
:10B46800010E3F6E000E3024D96E050E3120DA6EC3
:10B4780002C1E1FF03C1E2FFDFCFE7FF304A312A13
:10B4880031BE0AD0315004E1800E305CD8A004D01F
:10B49800000E316E000E306E000E3F6E010E12006F
:10B4A80070D0020E0101001901010111D8A433D096
:10B4B8000001A951321805E10001AA513318D8B486
:10B4C80060D002013D510201D8B402D0000E120032
:10B4D800010E02013D6FC90E3224D96E060E3320CB
:10B4E800DA6E02C1E1FF03C1E2FFDFCFE7FF324AB4
:10B4F800332A33BE0AD0800E325C010E3358D8A0EE
:10B5080004D0000E336E000E326E000E02013D6F45
:10B51800C5D7120036D0040E01010019010101112E
:10B52800D8A42FD00001A5512E1805E10001A6517D
:10B538002F18D8B426D03950D8B402D0000E120033
:10B54800010E396E000E2E24D96E040E2F20DA6EED
:10B5580002C1E1FF03C1E2FFDFCFE7FF2E4A2F2A36
:10B568002FBE0AD02F5004E1270E2E5CD8A004D09D
:10B57800000E2F6E000E2E6E000E396E8FD7120041
:10B5880000D0000E120012008CD0030E0101C86F0B
:10B598008A9E8A948A80020E01010E6F8F0E0D6FAB
:10B5A800040E01010F6F030E07EC4AF01200020EA1
:10B5B8000101C86F8A9E8A948A80020E01010E6F6B
:10B5C8008F0E0D6F040E01010F6F030E07EC4AF08A
:10B5D80012008A8E8A84000E01010E6F320E0D6FE2
:10B5E800040E01010F6F030E07EC4AF0344A352AA6
:10B5F800040E0101C86F12008A8E8A94F40E345C1E
:10B60800010E3558D8A00AD08A90000E0101C86FE3
:10B61800000E356E000E346EB1901200020E01015C
:10B62800C86F000E01010E6F320E0D6F040E01017E
:10B638000F6F030E07EC4AF012008A9E8A84000EF0
:10B6480001010E6F320E0D6F040E01010F6F030E14
:10B6580007EC4AF0344A352A050E0101C86F12007A
:10B668008A9E8A94F40E345C010E3558D8A00AD00C
:10B678008A90010E0101C86F000E356E000E346EFF
:10B68800B1901200030E0101C86F000E01010E6F88
:10B69800320E0D6F040E01010F6F030E07EC4AF016
:10B6A80012000101C851000AD8B46FD7010AD8B4F2
:10B6B8007ED7030AD8B48DD7010AD8B4BED7070AF3
:10B6C800D8B49AD7010AD8A41200CAD712008CD0CD
:10B6D800030E0101C86F8A9E8A948A80020E0001B7
:10B6E8006E6F8F0E6D6F040E00016F6F030EE0EC2E
:10B6F8004AF01200020E0101C86F8A9E8A948A805D
:10B70800020E00016E6F8F0E6D6F040E00016F6FD9
:10B71800030EE0EC4AF012008A8E8A84000E0001C3
:10B728006E6F320E6D6F040E00016F6F030EE0EC4A
:10B738004AF0344A352A040E0101C86F12008A8E75
:10B748008A94F40E345C010E3558D8A00AD08A9039
:10B75800000E0101C86F000E356E000E346EB190F8
:10B768001200020E0101C86F000E00016E6F320E4A
:10B778006D6F040E00016F6F030EE0EC4AF01200CB
:10B788008A9E8A84000E00016E6F320E6D6F040E61
:10B7980000016F6F030EE0EC4AF0344A352A050EBB
:10B7A8000101C86F12008A9E8A94F40E345C010E5F
:10B7B8003558D8A00AD08A90010E0101C86F000E32
:10B7C800356E000E346EB1901200030E0101C86F81
:10B7D800000E00016E6F320E6D6F040E00016F6F68
:10B7E800030EE0EC4AF012000101C851000AD8B477
:10B7F8006FD7010AD8B47ED7030AD8B48DD7010A07
:10B80800D8B4BED7070AD8B49AD7010AD8A4120068
:10B81800CAD7120006EEC9F015EE6EF0EE6AE550D2
:10B82800E150FCE1E250FAE105EE00F010EEFFF025
:10B83800EE6AE550E150FCE1E250FAE104EE00F076
:10B84800D50EEE6AE806FDE103EE00F0E80EEE6ABA
:10B85800E806FDE102EE00F0910EEE6AE806FDE171
:10B8680001EEABF03D0EEE6AE806FDE100EEA3F056
:10B87800340EEE6AE806FDE100EE2CF0270EEE6AC3
:10B88800E806FDE1720EF66ED20EF76E000EF86E47
:10B8980006EE00F010EEC9F00900F5CFEEFFE55016
:10B8A800E150FAE1040EF66EFC0EF76E000EF86E2B
:10B8B80003EEF4F010EE08F00900F5CFEEFFE550C6
:10B8C800E150FAE1860EF66EEC0EF76E000EF86E99
:10B8D80002EE91F010EE6AF00900F5CFEEFFE550A8
:10B8E800E150FAE1B80EF66EFA0EF76E000EF86E39
:10B8F80001EEE8F010EE13F00900F5CFEEFFE55089
:10B90800E150FAE1640EF66EFC0EF76E000EF86E6A
:10B9180000EED7F010EE06F00900F5CFEEFFE55087
:10B92800E150FAE1700EF66EFC0EF76E000EF86E3E
:10B9380000EE53F010EE04F00900F5CFEEFFE550ED
:10B94800E150FAE1000EF86E000108EF05F0010180
:10B95800056F80D0000E0101006F010E89EC79F0AF
:10B96800E40E00D000D0E82EFCD700D000D00201B1
:10B9780091511F0B80090201916F91C202F1000ED3
:10B9880084EC7AF0800E0101B96F0B0E0101046F8F
:10B99800620EE82EFED7042FFCD700D01200020159
:10B9A80091511F0B60090201916F91C202F1000EC3
:10B9B80084EC7AF0D3C000F1000E89EC79F0600EC7
:10B9C8000101B96F1200000E0101006F000E89EC31
:10B9D80079F0020191511F0B20090201916F91C268
:10B9E80002F1000E84EC7AF0680E0101046FE40E97
:10B9F800E82EFED7042FFCD700D0200E0101B96F26
:10BA08001200000E0101006F000E89EC79F00201AE
:10BA180091511F0B40090201916F91C202F1000E72
:10BA280084EC7AF0400E0101B96F1200000E01019A
:10BA3800006F000E89EC79F0020191511F0B020191
:10BA4800916F000E0101B96F91C202F1000E84ECF2
:10BA58007AF0120001010551000AD8B4E7D7200A8C
:10BA6800D8B4B1D7600AD8B4CCD7200AD8B497D7FD
:10BA7800E00AD8A412006ED712000001BE51D8A463
:10BA880004D00001CD51D8B403D0000E120087D0E5
:10BA98004350D8A484D0C5C000F10101016B23C173
:10BAA80002F10101036BC90E0101046F000E056F5D
:10BAB800000E066F000E076FBBEC74F00101005119
:10BAC8000101246F010124510101D8A402D0000E04
:10BAD8001200000E01010E6F01012451010D000E2C
:10BAE800F324D96E060EF420DA6EDF5010EC7CF0E9
:10BAF800D3A60FD0040E01010C6F010E36EC61F0D5
:10BB08000001A35101010C250101256F0001A45179
:10BB180014D0040E01010C6F010E36EC61F0000127
:10BB2800A35101010C270001A45101010D23E60EC8
:10BB380001010C250101256FFF0E01010D210101F5
:10BB4800266F00D022EC7EF020C1D9FF21C1DAFF98
:10BB5800DF6E010120EE02F02051D9262151DA22B0
:10BB680025C1DFFF010120EE01F02051D926215126
:10BB7800DA2201012651DF6E20C117F121C118F127
:10BB880001012251030F0101196F010E01011A6F02
:10BB980018EC4EF0010E436E010E120000D0000E9C
:10BBA8001200120006C1D9FF07C1DAFFDE04D8A4CB
:10BBB80089D0050E0101086585D0F90E0101082517
:10BBC8000101006F0101016BFF0E0123000E01014D
:10BBD800036F050E026F43EC6CF001010051010187
:10BBE8000111D8A46FD0FF0E0101096FFF0E0101EA
:10BBF8000A6F0101085101010B6F0C6B010109511A
:10BC080001010B2701010A5101010C2301010B510C
:10BC180001010625D96E01010C5101010721DA6ED7
:10BC28000001C951DE18D8B420D0FF0E0101096FF8
:10BC3800FF0E01010A6F0101085101010B6F0C6B26
:10BC48000101095101010B2701010A5101010C23CE
:10BC580001010B5101010625D96E01010C510101A9
:10BC68000721DA6EDE28D8A403D0010E12002AD0EC
:10BC78000001C929D8A423D0FF0E0101096FFF0EC6
:10BC880001010A6F0101085101010B6F0C6B0101E1
:10BC9800095101010B2701010A5101010C2301017E
:10BCA8000B5101010625D96E01010C510101072133
:10BCB800DA6EDE28D8B403D0020E120003D0000ECC
:10BCC800120000D0000E12001200000E0001C66F14
:10BCD8003E0E010108611200200EABEC5CF0800EF4
:10BCE800ABEC5CF001010851020F48EC7DF000015B
:10BCF800B65148EC7DF0000E01010A6F21D0010118
:10BD08000A51010DF35001010625D96EF4500101C5
:10BD18000721DA6EDF500001C6190001C66F010164
:10BD28000A51010DF35001010625D96EF4500101A5
:10BD38000721DA6EDF5048EC7DF001010A2B00D0B4
:10BD48000101085101010A5DD8A0D9D70001C651E7
:10BD580048EC7DF000D0ACA2FED7240EF1EC7CF0CC
:10BD680000D0ACA2FED7240EF1EC7CF000D0ACA23F
:10BD7800FED701010851050FF1EC7CF000D0ACA210
:10BD8800FED7C00EF1EC7CF0000E0101096F14D053
:10BD980000D0ACA2FED701010951010DF3500101F9
:10BDA8000625D96EF45001010721DA6EDF50F1EC57
:10BDB8007CF00101092B00D0010108510101095D46
:10BDC800D8B002D0E6D700D0ACA2FED70001C65149
:10BDD800F1EC7CF000D0ACA2FED70D0EF1EC7CF0BB
:10BDE80000D0ACA2FED70A0EF1EC7CF012001200D3
:10BDF800010103510101D8B408D00101005101012A
:10BE0800011101010211D8A413D0000E0101006F25
:10BE1800000E0101016F000E0101026F120008D02F
:10BE28000101032B0101D89002330133003300D004
:10BE3800000E010100150101056F000E0101011539
:10BE48000101066FFE0E010102150101076F0101D4
:10BE580005510101061101010711D8B413D0E0D72B
:10BE680011D00101032B010E01010027000E010171
:10BE78000123000E010102230101D890023301338E
:10BE8800003300D0000E010100150101056F000EFE
:10BE9800010101150101066FFF0E010102150101E3
:10BEA800076F010105510101061101010711D8B4FD
:10BEB8000AD0D7D708D0010103070101D89000376D
:10BEC8000137023700D0010101BF05D0020E010180
:10BED8000361F1D700D0010103B103D00101019F33
:10BEE80000D00101D890033301010351010102136D
:10BEF800010104510101D8B403D00101028F00D01F
:10BF080000C100F101C101F102C102F112001200E9
:10BF1800000163510001D8B408D00001605100014C
:10BF2800611100016211D8A413D0000E0001606FE6
:10BF3800000E0001616F000E0001626F120008D050
:10BF48000001632B0001D89062336133603300D065
:10BF5800000E000160150001656F000E00016115FB
:10BF68000001666FFE0E000162150001676F000197
:10BF780065510001661100016711D8B413D0E0D7EC
:10BF880011D00001632B010E00016027000E000193
:10BF98006123000E000162230001D89062336133EF
:10BFA800603300D0000E000160150001656F000EBF
:10BFB800000161150001666FFF0E000162150001A6
:10BFC800676F000165510001661100016711D8B45F
:10BFD8000AD0D7D708D0000163070001D89060378E
:10BFE8006137623700D0000161BF05D0020E000141
:10BFF8006361F1D700D0000163B103D00001619FF4
:10C0080000D00001D890633300016351000162132E
:10C01800000164510001D8B403D00001628F00D040
:10C0280060C060F061C061F062C062F0120012008E
:10C038000101000501010111D8A427D04050D8A45E
:10C04800120001D01200010E406E000E0001A7255B
:10C05800D96E050E0001A821DA6E02C1DFFF0001CA
:10C06800A74BA82B0001A8BF0DD00001A85105E1DE
:10C07800800E0001A75DD8A005D0000E0001A86FB2
:10C08800000EA76F000E406E1200020E010100198B
:10C0980001010111D8A427D04150D8A4120001D021
:10C0A8001200010E416EC90E0001A925D96E060EB7
:10C0B8000001AA21DA6E02C1DFFF0001A94BAA2BF9
:10C0C8000001AABF0DD0800E0001A95D010E00017C
:10C0D800AA59D8A005D0000E0001AA6F000EA96FBA
:10C0E800000E416E1200040E010100190101011138
:10C0F800D8A412000001AF51D8A4120001D0120038
:10C10800010E0001AF6F000E0001A525D96E040EC7
:10C118000001A621DA6E02C1DFFF0001A54BA62BA4
:10C128000001A6BF0DD00001A65105E1270E0001B0
:10C13800A55DD8A005D0000E0001A66F000EA56F62
:10C14800000E0001AF6F120012000001600500012F
:10C158006111D8A427D04050D8A4120001D01200F1
:10C16800010E406E000E0001A725D96E050E0001D4
:10C17800A821DA6E62C0DFFF0001A74BA82B0001DF
:10C18800A8BF0DD00001A85105E1800E0001A75DF0
:10C19800D8A005D0000E0001A86F000EA76F000EF2
:10C1A800406E1200020E0001601900016111D8A44E
:10C1B80027D04150D8A4120001D01200010E416EC0
:10C1C800C90E0001A925D96E060E0001AA21DA6E52
:10C1D80062C0DFFF0001A94BAA2B0001AABF0DD046
:10C1E800800E0001A95D010E0001AA59D8A005D052
:10C1F800000E0001AA6F000EA96F000E416E12001A
:10C20800040E0001601900016111D8A41200000198
:10C21800AF51D8A4120001D01200010E0001AF6F77
:10C22800000E0001A525D96E040E0001A621DA6EC4
:10C2380062C0DFFF0001A54BA62B0001A6BF0DD0F1
:10C248000001A65105E1270E0001A55DD8A005D083
:10C25800000E0001A66F000EA56F000E0001AF6F63
:10C26800120012000101126F01011205D8A416D0A4
:10C27800CECF13F10101146BCFCF15F10101166B6D
:10C28800010115510101166F156B010113510101CF
:10C298001527010114510101162300D0030E0101D5
:10C2A8001219D8A416D0B2CF13F10101146BB3CF71
:10C2B80015F10101166B010115510101166F156B7E
:10C2C8000101135101011527010114510101162320
:10C2D80000D001010C510101D8A435D015C10EF1CF
:10C2E80016C10FF101010E1F0F1F0E4B0F2BFF0E72
:10C2F80001010E250101106FFF0E01010F2101013F
:10C30800116F10C100F111C101F10101026B036B42
:10C31800E80E0101046F030E056F000E066F000E94
:10C32800076FC9EC73F0100E07D00101D8900333E2
:10C338000233010101330033E82EF7D700C10CF1B5
:10C3480001C10DF1120015C10EF116C10FF1010165
:10C358000E1F0F1F0E4B0F2BFF0E01010E250101A3
:10C368000C6FFF0E01010F2101010D6F1200120069
:10C378000001706F00017005D8A416D0CECF73F0FD
:10C388000001746BCFCF75F00001766B0001755119
:10C398000001766F756B000173510001752700016C
:10C3A80074510001762300D0030E00017019D8A43F
:10C3B80016D0B2CF73F00001746BB3CF75F00001E3
:10C3C800766B000175510001766F756B0001735132
:10C3D80000017527000174510001762300D0000187
:10C3E8006C510001D8A435D075C06EF076C06FF0DE
:10C3F80000016E1F6F1F6E4B6F2BFF0E00016E2525
:10C408000001716FFF0E00016F210001726F71C092
:10C4180060F072C061F00001626B636BE80E0001AE
:10C42800646F030E656F000E666F000E676F06EC93
:10C4380074F0100E07D00001D89063336233000106
:10C4480061336033E82EF7D760C06CF061C06DF0DF
:10C45800120075C06EF076C06FF000016E1F6F1F7E
:10C468006E4B6F2BFF0E00016E2500016C6FFF0EE7
:10C4780000016F2100016D6F120012000001CB5105
:10C488000001D8A404D0010E0001CB6F00D0CBC0AE
:10C4980007F1000E01010A6F5DD0000E0101096F5E
:10C4A800000E086F2CD001010A51010DF350010153
:10C4B8000025D96EF45001010121DA6E0001CB513B
:10C4C800010DF40EF324E16E030EF420E26EE75042
:10C4D8000101046F01010A51010DF350010100250A
:10C4E800E16EF45001010121E26EE75001010425DB
:10C4F80001010A25DF6E0101084B092B00D000015C
:10C50800CB51010DF40EF324D96E030EF420DA6E2C
:10C51800DF50070B0101046F056B01010451010194
:10C52800085D01010951800A0101066F01010551E9
:10C53800800A01010659D8A0B6D70001CB2B070EF7
:10C548000001CB6504D0000E0001CB6F00D00101C3
:10C558000A2B00D001010A510101046F056B01018A
:10C5680002510101045D01010551800A0101066FB4
:10C5780001010351800A01010659D8A08ED7010193
:10C58800075112001200000E0101116F000E010187
:10C59800106F000E0F6F000E0101136F000E126F67
:10C5A800000E0101006F040E6CEC78F0000E010122
:10C5B800136F000E126F000E0101116F090E0101B9
:10C5C800116501D023D03AEC7EF000D0C0EC7DF0AC
:10C5D8000009D8A4FBD7C4500101106F0F6BC350DA
:10C5E80001010F13040E0101116509D001010F515A
:10C5F80001011227010110510101132300D00A0E75
:10C60800E82EFED700D00101112BD8D712C106F1B0
:10C6180013C107F1000E0101096F050E086FCFEC79
:10C6280072F006C112F107C113F1020E0101006F89
:10C63800040E6CEC78F0C29012C100F113C101F144
:10C64800000E0101036F070E026F4DEC7AF000C176
:10C6580006F101C107F1000E0101096F060E086F0E
:10C66800CFEC72F006C112F107C113F10101D151EB
:10C678000101125F000E0101D1BFFF0E0101135B22
:10C6880012C10DF113C10EF112001200000E0101CA
:10C69800096F010103AF0DD00101031F021F011F24
:10C6A800006D000E012302230323010E0101096F0F
:10C6B80000D0010107AF0AD00101071F061F051F9F
:10C6C800046D000E05230623072300D00101045141
:10C6D800010105110101061101010711D8B43FD06C
:10C6E800010E0101086F09D00101D8900437053700
:10C6F800063707370101082B00D0010107BF02D018
:10C70800F3D700D0010104510101005D0101055179
:10C7180001010159010106510101025901010751A5
:10C7280001010359D8A011D0010104510101005F92
:10C73800010105510101015B010106510101025B83
:10C74800010107510101035B00D00101D8900733B3
:10C758000633053304330101082FD4D700D0010173
:10C7680009510101D8B40AD00101031F021F011F9A
:10C77800006D000E01230223032300D000C100F145
:10C7880001C101F102C102F103C103F1120012005B
:10C798000101086FFA0E0101086178D008C109F19A
:10C7A80001010A6B09C106F10AC107F10101D8901C
:10C7B800063707370101D8900637073706C109F150
:10C7C80007C10AF104C1D9FF05C1DAFF09C102F1A5
:10C7D8000AC103F1AAEC7DF00101076FDE500101E7
:10C7E8000719D8A451D0010120EE01F00451D9262F
:10C7F8000551DA22010E010109250101026F000E1F
:10C8080001010A210101036FAAEC7DF00101076F04
:10C81800DE5001010719D8A437D0010120EE02F03B
:10C828000451D9260551DA22020E01010925010118
:10C83800026F000E01010A210101036FAAEC7DF0CD
:10C848000101076FDE5001010719D8A41DD00101AD
:10C8580020EE03F00451D9260551DA22030E010116
:10C8680009250101026F000E01010A210101036F70
:10C87800AAEC7DF00101076FDE5001010719D8A469
:10C8880003D0010E120000D0000E1200000E12009C
:10C898001200010E0001D26F000EAAEC7CF0000E0F
:10C8A8000001D36FFF0E20EC78F0000E25EC7DF030
:10C8B800080EDFEC7DF0DBC1F7F1DCC1F8F1DDC17A
:10C8C800F9F1DEC1FAF1D2C02FF11AEC7EF0030EB5
:10C8D8000101016FEF0E006F06EC7EF00101026F9F
:10C8E800DAEC78F01AEC7EF0030E0101016FFC0E11
:10C8F800006F1EEC7EF00101026FDAEC78F01AECA2
:10C908007EF0030E0101016FFD0E006F2FC102F1D1
:10C91800DAEC78F01AEC7EF0030E0101016FFE0EDE
:10C92800006FC9C002F1DAEC78F01AEC7EF0030E61
:10C938000101016FE80E006FFF0E0101026FDAECD2
:10C9480078F01AEC7EF0030E0101016FE90E006F1A
:10C95800FF0E0101026FDAEC78F01AEC7EF0030E9C
:10C968000101016FEA0E006FFF0E0101026FDAECA0
:10C9780078F01AEC7EF0030E0101016FEB0E006FE8
:10C98800FF0E0101026FDAEC78F0120001011F6F4F
:10C99800FA0E01011F614FD01B0E01010C6F010E31
:10C9A80001010D6F01011F5100EC6EF01B0E01011A
:10C9B800066F010E0101076F14C108F115C109F1D5
:10C9C800040E01010A6F46EC78F001011F51020DB7
:10C9D800C90EF324D96E080EF420DA6EDF503F0B2F
:10C9E80001011A6F01011A51060DBD0EF324010150
:10C9F800066F0A0EF4200101076F16C108F117C16E
:10CA080009F1040E01010A6F46EC78F001011F518B
:10CA1800020D010EF326000EF422C90EF324D96E7E
:10CA2800080EF420DA6EDF501F0B18C1D9FF19C1A8
:10CA3800DAFFDF6E1200DB0E0101066F010E010145
:10CA4800076F14C108F115C109F1040E01010A6F3D
:10CA580046EC78F0DB0E0101066F010E0101076F4D
:10CA680016C108F117C109F1040E01010A6F46EC5D
:10CA780078F018C1D9FF19C1DAFFFF0EDF6E120076
:10CA8800120001010D6F01010D5186EC7BF00DC103
:10CA980000F10101016B01010651050F0101026F4F
:10CAA8001CEC60F007C108F1060E01010827020E10
:10CAB8000101096F0101082B03D00101D890093742
:10CAC8000101082FFAD70101095101010A6F0DC1AF
:10CAD80000F10101016B0AC102F11CEC60F0000ECB
:10CAE80001010B6F000E01010C6F25D00DC100F183
:10CAF8000101016B01010C51010DF35001010425E5
:10CB0800D96EF45001010521DA6EDF500101026F80
:10CB18001CEC60F001010C51010DF35001010425DA
:10CB2800D96EF45001010521DA6EDF5001010B1BAB
:10CB380001010C2B00D00101065101010C5DD8A0A8
:10CB4800D5D70DC100F10101016B0BC102F11CEC3D
:10CB580060F00DC100F10101016B0D0E0101026FC2
:10CB68001CEC60F00DC100F10101016B0A0E01011E
:10CB7800026F1CEC60F01200000E01010A6F5ED01B
:10CB8800000E0101096F000E086F2DD001010A5136
:10CB9800010DF35001010025D96EF4500101012166
:10CBA800DA6E01010A51010DF35001010025E16E11
:10CBB800F45001010121E26EE7500101056F010106
:10CBC8000451010DF40EF324E16E030EF420E26E1D
:10CBD800E75001010A25000801010525DF6E010162
:10CBE800084B092B00D001010451010DF40EF32468
:10CBF800D96E030EF420DA6EDF50070B0101056FC2
:10CC0800066B010105510101085D01010951800A06
:10CC18000101076F01010651800A01010759D8A0D7
:10CC2800B5D70101042B070E0101046504D0000EDD
:10CC38000101046F00D001010A2B00D001010A5143
:10CC48000101056F066B010102510101055D01013A
:10CC58000651800A0101076F01010351800A010191
:10CC68000759D8A08DD712007C0ED36E9B8CD2901A
:10CC78009B8E200E926E380E936E930E946E860ED7
:10CC8800806E090E816E040E826E100E0F015D6FAC
:10CC9800000E0F015C6FF19E0F015B810F015B932A
:10CCA8000F015B850F015B970F015B990F015B9B80
:10CCB8000F015B9D0F015B9FD180010E0101EA6F9F
:10CCC800000E02011B6F000E1A6F000E0201196F91
:10CCD800000E186F000E0201376F000E366F000E3F
:10CCE8000201396F000E386F000E0101BF6F02019B
:10CCF8008D6902018E6902018F6902019069000E37
:10CD080002014B6F8A908A94030E0101016FEC0EA9
:10CD1800006FE3EC7CF00101FB6F010E0101FB6584
:10CD28000FD0000E0101FB6F1AEC7EF0030E01011B
:10CD3800016FEC0E006FFBC102F1DAEC78F000D065
:10CD48000101FB51D8A4120001D01200010E01010B
:10CD5800D46F12001200030E010134250101386F4F
:10CD6800000E010135210101396F32C106F133C1CD
:10CD780007F1FBEC6EF00101376F32C106F133C1E8
:10CD880007F138C108F139C109F1040E01010A6F30
:10CD980046EC78F0DF0E0101066F010E0101076F06
:10CDA800040E010138250101086F000E0101392127
:10CDB8000101096F040E01010A6F46EC78F0020EBA
:10CDC8000101BB19D8A410D038C104F139C105F14B
:10CDD80001013651080F0101066F000E0101076FAE
:10CDE800020E45EC65F000D032C106F133C107F1FF
:10CDF800DB0E0101086F010E0101096F040E01012C
:10CE08000A6FA2EC77F00009D8A40ED034C120F143
:10CE180035C121F101013651080F0101226F37C1D7
:10CE280023F141EC5DF0120034C12CF135C12DF134
:10CE380001013651080F01012E6FD2EC56F0120095
:10CE4800120010C106F111C107F10EC108F10FC19E
:10CE580009F1040E01010A6F46EC78F0DF0E0101BA
:10CE6800006F010E0101016F000E0101026F0EC17A
:10CE780003F10FC104F1040E0101056F040E010155
:10CE8800066FDCEC70F0010120EE08F00E51D92697
:10CE98000F51DA22030EDF6E010120EE09F00E5168
:10CEA800D9260F51DA22000EDF6E010120EE0AF0BA
:10CEB8000E51D9260F51DA22000EDF6EDF0E010166
:10CEC800006F010E0101016F000E0101026F0EC11A
:10CED80003F10FC104F10B0E0101056F040E0101EE
:10CEE800066FDCEC70F010C100F111C101F1000E09
:10CEF8000101026F0EC103F10FC104F10F0E010110
:10CF0800056F040E0101066FDCEC70F0010120EEE4
:10CF180013F00E51D9260F51DA22000EDF6E1200DF
:10CF2800010119510101175D01011A510101185937
:10CF3800D8B045D00101195101011F6F01011A51E3
:10CF48000101206F0101216B0101226B01011F1FEB
:10CF5800201F211F221F1F2B000E202321232223E5
:10CF68000101175101011F250101236F010118510A
:10CF7800010120210101246F000E0101212101017D
:10CF8800256F000E010122210101266F01011B51AD
:10CF9800010123250101276F01011C5101012421F1
:10CFA8000101286F01011D51010125210101296F8E
:10CFB80001011E510101262101012A6F19D019C151
:10CFC8001FF11AC120F101011F1F201F1F4B202B29
:10CFD8000101175101011F270101185101012023E7
:10CFE8001FC127F120C128F10101296B2A6B00D04C
:10CFF80027C117F128C118F1120012000101126FA0
:10D00800010112510101D8A40DD0D6CF13F10101AD
:10D01800146BD7CF15F111D0010115510101166F0D
:10D02800156B0ED0030E01011219D8A412D0B2CF7D
:10D0380013F10101146BB3CF15F10101166BECD795
:10D048000101135101011527010114510101162392
:10D0580000D001010C510101D8A435D015C10EF141
:10D0680016C10FF101010E1F0F1F0E4B0F2BFF0EE4
:10D0780001010E250101106FFF0E01010F210101B1
:10D08800116F10C100F111C101F10101026B036BB5
:10D09800E80E0101046F030E056F000E066F000E07
:10D0A800076FC9EC73F0100E07D00101D890033355
:10D0B8000233010101330033E82EF7D700C10CF128
:10D0C80001C10DF1120015C10CF116C10DF11200CC
:10D0D800000E0101056F010103AF09D00101026DC6
:10D0E800031FD8B0032B010E0101056F00D0010109
:10D0F80001AF09D00101006D011FD8B0012B010E4D
:10D108000101051B00D0000E0101076F000E066F1C
:10D118000101025101010311D8B431D0010E0101FE
:10D12800046F07D00101D890023703370101042B9F
:10D1380000D0010103BF02D0F5D700D00101D8907B
:10D1480006370737010102510101005D0101035152
:10D1580001010159D8A00BD0010102510101005F62
:10D16800010103510101015B0101068100D00101A8
:10D17800D890033302330101042FE0D700D0010116
:10D1880005510101D8B406D00101066D071FD8B0BA
:10D19800072B00D006C100F107C101F112001200EF
:10D1A8000101026F01010251060D050EF326000E62
:10D1B800F422BD0EF324D96E0A0EF420DA6EDE28AE
:10D1C800D8A410D001010251060D050EF326000E59
:10D1D800F422BD0EF324D96E0A0EF420DA6E00C1D3
:10D1E800DFFF120001010251060D050EF326000EA5
:10D1F800F422BD0EF324D96E0A0EF420DA6E010172
:10D208000051DE5CD8B00FD001010251060D050EA9
:10D21800F326000EF422BD0EF324D96E0A0EF42074
:10D22800DA6EDF2A120001010251060D050EF326FF
:10D23800000EF422BD0EF324D96E0A0EF420DA6E25
:10D24800DE500101005DD8B0120001010251060D47
:10D25800050EF326000EF422BD0EF324D96E0A0E35
:10D26800F420DA6EDF061200120000010203040A3D
:10D278000B0C0D0E14151617181E1F202122282915
:10D288002A2B2C05060708090F10111213191A1B4F
:10D298001C1D23242526272D2E2F30310031302F19
:10D2A8002E2D27262524231D1C1B1A191312111095
:10D2B8000F09080706052C2B2A29282221201F1EC2
:10D2C80018171615140E0D0C0B0A040302010001A1
:10D2D8000203040A0B0C0D0E14151617181E1F2036
:10D2E800212228292A2B2C05060708090F101112BC
:10D2F80013191A1B1C1D23242526272D2E2F3031E8
:10D308000031302F2E2D27262524231D1C1B1A19EA
:10D31800131211100F09080706052C2B2A29282299
:10D3280021201F1E18171615140E0D0C0B0A0403C6
:10D3380002010000000E0101086F000E096F000EC7
:10D348000A6F000E0B6F0101045101010511010163
:10D35800061101010711D8B447D0010E01010C6F65
:10D3680009D00101D890043705370637073701017E
:10D378000C2B00D0010107BF02D0F3D700D0010168
:10D38800D890083709370A370B37010104510101D2
:10D39800005D010105510101015901010651010119
:10D3A80002590101075101010359D8A013D0010105
:10D3B80004510101005F010105510101015B0101F7
:10D3C80006510101025B010107510101035B0101E3
:10D3D800088100D00101D8900733063305330433A0
:10D3E80001010C2FCCD700D008C100F109C101F10F
:10D3F8000AC102F10BC103F11200000E0001686FAF
:10D40800000E696F000E6A6F000E6B6F00016451A9
:10D41800000165110001661100016711D8B447D0F9
:10D42800010E00016C6F09D00001D8906437653790
:10D438006637673700016C2B00D0000167BF02D048
:10D44800F3D700D00001D890683769376A376B374F
:10D45800000164510001605D0001655100016159DE
:10D4680000016651000162590001675100016359CA
:10D47800D8A013D0000164510001605F000165511C
:10D488000001615B000166510001625B00016751A8
:10D498000001635B0001688100D00001D890673308
:10D4A80066336533643300016C2FCCD700D068C075
:10D4B80060F069C061F06AC062F06BC063F012008E
:10D4C8001B6E4650D8B41FD01B50D8B40CD0FF0EDA
:10D4D80036240E6EFF0E37200F6E040E106E010EEE
:10D4E8001CEC51F00AD036C00EF037C00FF0040E15
:10D4F800106E010E1CEC51F000D0070E376E366826
:10D50800000E466E00D0010E0001A3250001A36F96
:10D51800F80E0001A4210001A46F2C06D8A02D0646
:10D528002C502D10D8A40ED0000E2D6E100E2C6E7F
:10D5380002C2A3F003C2A4F07F0E0201036FF00E33
:10D54800026F0BD02C042D10D8A407D0010E466E04
:10D55800A3C036F0A4C037F000D00001C52BC80E18
:10D568000001C56504D0000E0001C56F00D002019E
:10D57800042904E102010529D8B412000201044B70
:10D58800052B12001200000E0101156F000E146F1A
:10D59800010115BF0AD0010115513CE10A0E010134
:10D5A800145DD8B037D001D035D0C7EC62F00DC1CA
:10D5B800ABF00EC1ACF00001ACBF0ED0230E0001E1
:10D5C800AB5D0C0E0001AC59D8A006D00001AB51E0
:10D5D800DE0F0101D12712D00001ACBF08D01C0E0C
:10D5E8000001AB5D0C0E0001AC59D8B007D00001AA
:10D5F800AB5100081C0F0101D15F00D0020E0101E0
:10D60800016F8A0E006FADEC76F00101144B152BFB
:10D61800BFD700D00101D151800A9F0FD8A01200B6
:10D628000101D151800A600FD8B012001AEC7EF0C7
:10D63800030E0101016FF00E006FD1C102F1DAECA7
:10D6480078F0120012000101C551D8A481A623D098
:10D658000101C62B1E0E0101C66513D0010E010182
:10D66800FB6F1AEC7EF0030E0101016FEC0E006FE8
:10D67800FBC102F1DAEC78F0000E0101C76FFF0080
:10D6880000D0000E0101016F3E0E006FADEC76F088
:10D69800000E120006D0010E0101C76F000E010135
:10D6A800C66F0101C851D8A423D00001D451D8A411
:10D6B8001DD0CD909E909D9A9E9A81CF1AF100F030
:10D6C800F290F2960101B951D8B404D0000EABEC37
:10D6D8005CF000D089848982C69A8B8A9496949843
:10D6E8008B968B98949C948E8A9C00D0010E120085
:10D6F8000101C805D8A403D0D3EC7DF000D0000EFA
:10D708001200120000018E6F8EC0D5F0D5C060F0F7
:10D718000001616B000E0001636F070E626F9DECE4
:10D728006CF0000160510101BE6F880E0001D565E3
:10D7380004D0280E0001D56F1200000E00016F6F93
:10D74800000E0001706F3F0E0001716FDA0E0001CC
:10D758008A6FFF0E00018B6F0001D55100018C6F9D
:10D768008D6B00018A5100018C2700018B5100014B
:10D778008D2300018C1F8D1F8C4B8D2B640E000197
:10D788008C250001686F000E00018D210001696F72
:10D79800FEEC78F068C06CF069C06DF06AC06EF09D
:10D7A800BAEC54F06CC07BF06DC07CF06EC07DF0BC
:10D7B80077EC59F000017B51280F0001D56F12005A
:10D7C8001200D1C200F1D2C201F1D3C202F1D4C217
:10D7D80003F1D5C204F1D6C205F1D7C206F1D8C209
:10D7E80007F1C9EC73F000C1D1F201C1D2F202C154
:10D7F800D3F203C1D4F2390E0201D127300ED2235D
:10D80800000ED323000ED423100E01010E6FD1C2D7
:10D818000FF1D2C210F1D3C211F1D4C212F1010139
:10D828000E6701D009D001011235123311331033BC
:10D838000F3301010E2FF3D7FF0E01010F15010160
:10D84800006F7F0E010110150101016F000E01012B
:10D8580011150101026F000E010112150101036F7C
:10D868000CC104F10DC105F10101066B076B4AEC0F
:10D8780063F000C10CF101C10DF112001200000E9D
:10D888000101056F010101AF09D00101006D011F00
:10D89800D8B0012B010E0101056F00D0010103AFC3
:10D8A80006D00101026D031FD8B0032B00D001017F
:10D8B800025101010311D8B42BD0010E0101046FEC
:10D8C80007D00101D890023703370101042B00D09B
:10D8D800010103BF02D0F5D700D0010102510101B7
:10D8E800005D0101035101010159D8A009D00101CE
:10D8F80002510101005F010103510101015B00D0E8
:10D908000101D890033302330101042FE6D700D078
:10D91800010105510101D8B406D00101006D011FB4
:10D92800D8B0012B00D000C100F101C101F11200F3
:10D938001200000E0001656F000161AF09D00001FF
:10D94800606D611FD8B0612B010E0001656F00D0BA
:10D95800000163AF06D00001626D631FD8B0632B6E
:10D9680000D00001625100016311D8B42BD0010E20
:10D978000001646F07D00001D89062376337000157
:10D98800642B00D0000163BF02D0F5D700D000019E
:10D9980062510001605D0001635100016159D8A026
:10D9A80009D0000162510001605F0001635100016C
:10D9B800615B00D00001D890633362330001642FAB
:10D9C800E6D700D0000165510001D8B406D00001A7
:10D9D800606D611FD8B0612B00D060C060F061C07D
:10D9E80061F0120012000EC100F10FC101F1000E2A
:10D9F8000101026F0EC103F10FC104F1080E01010C
:10DA0800056F080E0101066F10EC73F00009D8B419
:10DA180012000EC100F10FC101F1080E0101026FE1
:10DA28000EC103F10FC104F1100E0101056F080EBC
:10DA38000101066F10EC73F00009D8B41200000E53
:10DA48000101106F070E0101106501D01DD01AECFD
:10DA58007EF0F40E010110250101006F0101016B38
:10DA6800030E01230101105101010E25D96E010198
:10DA7800000E01010F21DA6EDF500101026FDAECAE
:10DA880078F00101102BDED70EC100F10FC101F1B2
:10DA98008FEC70F012001200000E0101106F000EE2
:10DAA8000F6F010110BF0AD0010110514AE1FA0EAF
:10DAB80001010F5DD8B045D001D043D00BC104F1AE
:10DAC8000CC105F101010F51CCEC63F00009D8B489
:10DAD80033D00FC10DF110C10EF1D89001010D37EF
:10DAE8000E37010E01010D27000E0E23C90E01018C
:10DAF8000D25D96E080E01010E21DA6EDF501F0BBD
:10DB08001F0AD8B419D00FC10DF110C10EF1D89069
:10DB180001010D370E37010E01010D27000E0E23EE
:10DB2800C90E01010D25D96E080E01010E21DA6E0C
:10DB3800DF38E832070B120001010F4B102BB1D769
:10DB480000D0000E12001200EACF1FF0E1CF20F043
:10DB5800E2CF21F0D9CF22F0DACF23F0F3CF24F0AF
:10DB6800F4CF25F0F6CF26F0F7CF27F0F8CF28F03E
:10DB7800F5CF29F09EB09DA022D09E90F80E2B6E76
:10DB8800000E2A6E2B50CF6ED3B603D0010E506E06
:10DB980000D0505064EC6AF0010E0101B56F02012B
:10DBA800512B0001CD51D8B404D002010E4B0F2BDC
:10DBB80006D0000E02010F6F000E0E6F00D029C0B4
:10DBC800F5FF28C0F8FF27C0F7FF26C0F6FF25C0DD
:10DBD800F4FF24C0F3FF23C0DAFF22C0D9FF21C01D
:10DBE800E2FF20C0E1FF1FC0EAFF1EC0E9FF1DC021
:10DBF800FBFF1CC0FAFF11000101106FFA0E0101B2
:10DC080010613ED010C111F10101126B11C10EF16A
:10DC180012C10FF10101D8900E370F370101D890CA
:10DC28000E370F370EC111F10FC112F1000E0101AD
:10DC3800136F030E0101136502D0120012000101D7
:10DC48001351010DF35001010C25D96EF450010157
:10DC58000D21DA6E01011351010111250101026F35
:10DC6800000E010112210101036FAAEC7DF0DF6EA5
:10DC78000101132B030E01011365E1D712001200F5
:10DC8800DB0E0101066F010E0101076F0CC108F1DF
:10DC98000DC109F1040E01010A6F46EC78F012007B
:10DCA80012000101146F030E0101086F01011451E4
:10DCB800060D050EF326000EF422BD0EF324D96ED0
:10DCC8000A0EF420DA6EDF5087EC4CF00101136F76
:10DCD80001011451060D040EF326000EF422BD0EA8
:10DCE800F324D96E0A0EF420DA6EDF380F0BD2EC6B
:10DCF8007AF00101135DD8B012D001011451060D5C
:10DD0800040EF326000EF422BD0EF324D96E0A0E7B
:10DD1800F420DA6EDF380F0BD2EC7AF01200030E23
:10DD28000101086F01011451060D050EF326000EBE
:10DD3800F422BD0EF324D96E0A0EF420DA6EDF50F9
:10DD480087EC4CF0120012000EC106F10FC107F16A
:10DD5800DB0E0101086F010E0101096F040E0101BC
:10DD68000A6FA2EC77F00009D8A41200000E010196
:10DD7800126F3E0E0101126502D01200120001015D
:10DD88001251060DBD0EF3240101066F0A0EF42090
:10DD98000101076F0EC108F10FC109F1040E01015D
:10DDA8000A6FA2EC77F00009D8B418D010C111F1AD
:10DDB80001011251060D040EF326000EF422BD0EC9
:10DDC800F324D96E0A0EF420DA6E0101113BDF50FC
:10DDD800010111190F0B1119DF6E12000101122B2D
:10DDE8003E0E01011265CBD7120012001200000E80
:10DDF80001010E6F000E0D6F010120EE03F00651B8
:10DE0800D9260751DA22DF500101086F06C1D9FF70
:10DE180007C1DAFFDF500101096F0A6B010120EE2B
:10DE280001F00651D9260751DA22DF5001010B6FA4
:10DE380001010B5101010927000E0A23010120EEFF
:10DE480002F00651D9260751DA22DF5001010C6F82
:10DE580001010C5101010927000E0A230101085193
:10DE6800010109250101006F0101000E01010A21CC
:10DE78000101016F000E0101036FC90E026F43EC2F
:10DE88006CF000C10DF101C10EF101010D5112003C
:10DE9800120001012C6F01012C519DEC4FF0000E76
:10DEA8000101C16F000E0101D86F010E0101EC6F75
:10DEB8007F0E0201036FF00E026F7F0E0001A46F48
:10DEC800F00EA36F000E2D6E100E2C6E070E0101C2
:10DED8000E6F0D69040E01010F6F010E07EC4AF079
:10DEE800010E0001A3250001A36FF80E0001A42173
:10DEF8000001A46F2C06D8A02D06070E376E3668D1
:10DF0800090E9AEC7CF0000E01010D6F1E0E0C6FCD
:10DF1800E5EC6BF05A0E01010C250101266F000E8D
:10DF280001010D210101276F010E0101286F0E0E5D
:10DF380043EC72F01200100E0101446F18C10BF18E
:10DF480019C10CF1400E01010D6F010E01010E6F98
:10DF58005BEC45F01D0E01011A6F2E0E01011B6FBF
:10DF6800460E01011C6F480E01011D6F430E010191
:10DF78001E6F010E0101066F000E076F020E086F7B
:10DF8800000E096F0B0E01010A6F000E0B6F000ED9
:10DF98000C6F000E0D6F1F0E01010E6F010E0101B7
:10DFA8000F6F41EC70F018C10EF119C10FF11A0E84
:10DFB8000101106F010E0101116F44C112F1000E31
:10DFC8000101136F010E0101146F000E0101156F9D
:10DFD8002EEC49F012001200100E0101446F18C116
:10DFE8000BF119C10CF1400E01010D6F010E010179
:10DFF8000E6F5BEC45F01D0E01011A6F2A0E010130
:10E008001B6F410E01011C6F530E01011D6F460E5F
:10E0180001011E6F010E0101066F000E076F020E4F
:10E02800086F000E096F0B0E01010A6F000E0B6FCF
:10E03800000E0C6F000E0D6F1F0E01010E6F010E0A
:10E0480001010F6F41EC70F018C10EF119C10FF109
:10E058001A0E0101106F010E0101116F44C112F176
:10E06800000E0101136F010E0101146F000E010172
:10E07800156F2EEC49F012001200000E0101106F0E
:10E08800000E116F000E126F000E136F899E030EA3
:10E0980022EC7CF00101085122EC7CF001010751CF
:10E0A80022EC7CF00101065122EC7CF0000E01010B
:10E0B800106F000E116F000E126F000E136F17D045
:10E0C8000101105101010E25D96E01011151010103
:10E0D8000F21DA6E0BEC7DF001010051DF6E010EAD
:10E0E80001011027000E11231223132300D0010170
:10E0F8000A510101105D01010B5101011159010182
:10E108000C510101125901010D5101011359D8A0F7
:10E11800D7D7898E1200000E0101036F070E010187
:10E12800036501D019D001010351010DF35001011C
:10E138000025D96EF45001010121DA6E0101035165
:10E14800010DF40EF324E16E030EF420E26EDFCF2E
:10E15800E7FF0101032BE2D7000E0101036F070E51
:10E168000101036502D01200120001010351010DE3
:10E17800F35001010025D96EF45001010121DA6E36
:10E18800DE28D8A409D0070E01010319D8A408D0A5
:10E19800000E0101C36F04D0010E0101C36F12000C
:10E1A8000101032B070E01010365DFD712001200DE
:10E1B800000E01010D6F3FD0010102510DC107F1A1
:10E1C8000101086B01010727000E082300C109F1AE
:10E1D80001C10AF101010751010109270101085193
:10E1E80001010A2309C1F6FF0AC1F7FF000EF86E04
:10E1F800010105510DC10BF101010C6B01010B2748
:10E20800000E0C2301010B5101010325D96E0101F8
:10E218000C5101010421DA6E0E0EF76403D00800D8
:10E22800F55005D0F6CFE9FFF7CFEAFFEF50DF6EE4
:10E2380001010D2B00D00101065101010D5DD8A08F
:10E24800BBD712008AEC7DF0899E020E22EC7CF08E
:10E258000101075122EC7CF00101065122EC7CF00F
:10E268000101055122EC7CF0000E01010F6F000E38
:10E27800106F000E116F000E126F15D001010F51B3
:10E2880001010925D96E0101105101010A21DA6E37
:10E29800DF5022EC7CF0010E01010F27000E102345
:10E2A8001123122300D001010B5101010F5D01015F
:10E2B8000C510101105901010D51010111590101C0
:10E2C8000E5101011259D8A0D9D7898E66EC7DF07C
:10E2D80012001200040E01010E250101066F000E46
:10E2E80001010F210101076F10C108F111C109F1E6
:10E2F800040E01010A6F46EC78F09AEC7DF002C139
:10E30800D9FF03C1DAFF12C1E1FF13C1E2FFDFCF7A
:10E31800E7FF0EC106F10FC107F1DB0E0101086F1F
:10E32800010E0101096F040E01010A6FA2EC77F0DA
:10E338000009D8A412D00EC106F10FC107F1DF0EF3
:10E348000101086F010E0101096F040E01010A6F36
:10E35800A2EC77F00009D8B402D0010E1200000E2A
:10E368001200120001010B6FFA0E01010B6112007D
:10E378000BC10CF101010D6B0CC109F10DC10AF1C2
:10E388000101D89009370A370101D89009370A37AF
:10E3980009C10CF10AC10DF1000E01010E6F030E47
:10E3A80001010E6502D01200120001010E51010197
:10E3B8000C250101046F000E01010D210101056FFB
:10E3C80001010E51010DF35001010725D96EF450DA
:10E3D80001010821DA6EDF500101066FB9EC7CF00B
:10E3E80001010E2B030E01010E65DFD7120012008A
:10E3F80012003DEC7DF00101046F0001D051D8A45A
:10E408001CD001010429D8A403D004C1D1F007D03D
:10E41800010104290001D16F0001D1054A6E400EA7
:10E428000001D1650AD0400E0001D16F0001D1056D
:10E438004A6E010E02014C6F00D00001D15100015B
:10E44800D05DD8B00ED00001D051010D800EF3245C
:10E45800D96E050EF420DA6E04C1DFFF0001D02B5F
:10E4680000D00001D1510001D019D8A41200000138
:10E47800D151D8B41200010E3C6E120012000101F5
:10E488002B6F010126291DE101012729D8A419D0E4
:10E4980001012B51020D000EF324D96E030EF42056
:10E4A800DA6EFF0EDE6EFF0EDD6E01012B51010DDF
:10E4B800320EF324D96E030EF420DA6E28C1DFFF82
:10E4C8001200010E010126250101296F000E01012C
:10E4D800272101012A6F01012B51020D000EF3249F
:10E4E800D96E030EF420DA6E29C1DEFF2AC1DDFFE2
:10E4F80001012B51010D320EF324D96E030EF420C5
:10E50800DA6E28C1DFFF12001200000E096E000E3D
:10E518000A6E000E0B6E000E0C6E055006100710EA
:10E528000810D8B42FD0010E0D6E07D0D89005363C
:10E538000636073608360D2A00D008BE02D0F6D7B0
:10E5480000D0D89009360A360B360C360550015CD7
:10E55800065002580750035808500458D8A00AD04B
:10E568000550015E0650025A0750035A0850045AD3
:10E57800098000D0D89008320732063205320D2EB5
:10E58800E0D700D009C001F00AC002F00BC003F0C8
:10E598000CC004F01200000E01010C6F000E0B6F8E
:10E5A8000101085101010911D8B431D0010E01014E
:10E5B8000A6F07D00101D8900837093701010A2BE3
:10E5C80000D0010109BF02D0F5D700D00101D890D1
:10E5D8000B370C37010108510101065D0101095192
:10E5E80001010759D8A00BD0010108510101065FAC
:10E5F800010109510101075B01010B8100D00101F3
:10E60800D8900933083301010A2FE0D700D00BC195
:10E6180006F10CC107F11200000E01010D6F31D097
:10E62800010105510DC107F10101086B010107271F
:10E63800000E08230101075101010325D96E0101CC
:10E64800085101010421DA6E010102510DC10AF1DC
:10E6580001010B6B01010A27000E0B2301010A516E
:10E6680001010025E16E01010B5101010121E26E5A
:10E67800DE50E618D8B402D0000E120001010D2BAE
:10E6880000D00101065101010D5DD8A0C9D7010EC6
:10E6980012001200000E0101116F000E106F01012F
:10E6A80011BF0AD00101115130E13F0E0101105D87
:10E6B800D8B02BD001D029D010C100F111C101F17F
:10E6C800000E0101036F060E026F4DEC7AF0BD0ECD
:10E6D800010100250101066F0A0E01010121010156
:10E6E800076F0EC108F10FC109F1040E01010A6F8D
:10E6F800A2EC77F00009D8B403D001011051120040
:10E708000101104B112BCBD700D0FF0E12001200C5
:10E71800120E01010E6F010E01010F6FF70E0101BC
:10E72800106F010E0101116F25EC67F0000E010159
:10E73800266FDE0E0101006FFE0E0101016F000E53
:10E748000101026F120E0101036F010E0101046F36
:10E75800150E0101056F240E0101066FDCEC70F047
:10E768000101C351300F01014B6F120E0101046FFB
:10E77800010E0101056F3A0E0101066F000E01013D
:10E78800076F020E45EC65F01200000E0101086FDC
:10E79800000E096F000E0A6F000E0B6F00D001010A
:10E7A80000A111D0010104510101082701010551FF
:10E7B800010109230101065101010A230101075141
:10E7C80001010B2300D00101D89004370537063723
:10E7D80007370101D89003330233013300330101B5
:10E7E8000051010101110101021101010311D8A415
:10E7F800D6D708C100F109C101F10AC102F10BC164
:10E8080003F11200000E0001686F000E696F000E20
:10E818006A6F000E6B6F00D0000160A111D000017B
:10E828006451000168270001655100016923000156
:10E83800665100016A230001675100016B2300D073
:10E848000001D89064376537663767370001D8907C
:10E858006333623361336033000160510001611139
:10E868000001621100016311D8A4D6D768C060F016
:10E8780069C061F06AC062F06BC063F01200010108
:10E88800026F000EAC6E000EAB6E010102A102D049
:10E89800AC8800D0010102A303D0AC8CAB8C00D0B3
:10E8A800010102A502D0AC8E00D0010102A702D05E
:10E8B800AB8802D0AB8A00D0010102A902D0AC8497
:10E8C80000D0010102AB02D0AB8600D0010102AD3D
:10E8D80002D09D8A02D09D9A00D0010102AF02D0D9
:10E8E8009D8801D09D9800C1AFFF010101517D6E47
:10E8F800AC8AAB8E12000001626F000EAC6E000E87
:10E90800AB6E000162A102D0AC8800D0000162A306
:10E9180003D0AC8CAB8C00D0000162A502D0AC8EC9
:10E9280000D0000162A702D0AB8802D0AB8A00D029
:10E93800000162A902D0AC8400D0000162AB02D011
:10E94800AB8600D0000162AD02D09D8A02D09D9AAC
:10E9580000D0000162AF02D09D8801D09D9860C0B0
:10E96800AFFF000161517D6EAC8AAB8E12000101D0
:10E978000251010100250101086F01010351010144
:10E9880001210101096F08C10AF109C10BF1010157
:10E998000C6B0D6B10D00101045101010A5F0101DC
:10E9A800055101010B5B0101065101010C5B0101DD
:10E9B800075101010D5B0101045101010A5D0101CB
:10E9C800055101010B590101065101010C590101C1
:10E9D800075101010D59D8B0DED70AC100F10BC1AA
:10E9E80001F11200060E0101446F18C10BF119C1A3
:10E9F8000CF1400E01010D6F010E01010E6F5BEC71
:10EA080045F01F0E01011A6F2A0E01011B6F530EEC
:10EA180001011C6F460E01011D6F540E01011E6F8E
:10EA2800EDC11FF118C10EF119C10FF11A0E010144
:10EA3800106F010E0101116F44C112F1000E0101A6
:10EA4800136F010E0101146F000E0101156F2EECFA
:10EA580049F012001200000E01010C6F000E0B6F3E
:10EA6800000E01010C6F000E0B6F1DD003C100F1E9
:10EA780004C101F101010B51010105250101096FD3
:10EA880001010C510101062101010A6F09C1F6FFBC
:10EA98000AC1F7FF0800F5CF02F11CEC60F0010194
:10EAA8000B4B0C2B00D00101075101010B5D01013B
:10EAB8000C51800A0101096F01010851800A010106
:10EAC8000959D8A0D3D71200000E01011B6FDE0E22
:10EAD8000101006FFE0E0101016F000E0101026FBE
:10EAE8001B0E0101036F010E0101046F010E0101EC
:10EAF800056F240E0101066FDCEC70F00101C351B3
:10EB0800300F0101406F18C10EF119C10FF11B0E32
:10EB18000101106F010E0101116F260E0101126F24
:10EB2800000E0101136F1AC114F1000E0101156FD7
:10EB38002EEC49F0120012003D0E0101536F14C172
:10EB480016F115C117F114C100F115C101F1000E3C
:10EB58000101036F380E026F4DEC7AF0010100C11C
:10EB680006F1010101C107F10101086B096B380EBB
:10EB780001010A6F000E0B6F000E0C6F000E0D6F77
:10EB8800180E01010E6F010E01010F6F41EC70F0BC
:10EB9800160E0101066F010E0101076F53C108F13E
:10EBA80069EC5EF0120001010F5101011011D8B497
:10EBB8002BD0010E0101116F07D00101D8900F373A
:10EBC80010370101112B00D0010110BF02D0F5D779
:10EBD80000D001010F5101010D5D0101105101012A
:10EBE8000E59D8A009D001010F5101010D5F010193
:10EBF800105101010E5B00D00101D89010330F3382
:10EC08000101112FE6D700D00DC10DF10EC10EF193
:10EC180012000101046F01010451020D000EF324DA
:10EC2800D96E030EF420DA6EDE50DE10D8B418D098
:10EC380001010451020D000EF324D96E030EF420D5
:10EC4800DA6EDECF02F1DDCF03F1FF0E01010225FE
:10EC58000101006FFF0E010103210101016F120084
:10EC680001010451020D000EF324D96E030EF420A5
:10EC7800DA6EDECF00F1DDCF01F1120012002A8C2E
:10EC880002020CC177643277623238F81180E938B1
:10EC9800380700000507090CF2004000D880FFFF84
:10ECA800FFFFFFFFFFFFFFFFFFFFFFFFFFFFFFFF6C
:10ECB800FFFFFFFFFFFFFFFFFFFFFFFFFFFF010059
:10ECC80000006D4EC641170001000800FFFFFFFF5E
:10ECD800FFFFFF00010101FFFFFFFFFFFFFFFFFF35
:10ECE800FFFFFFFFFFFFFFFF0101046F240E01017B
:10ECF8000419D8A409D0000E0201E86F000E000123
:10ED0800CA6F04C1C6F022D0260E01010419D8A486
:10ED180009D002C1D9FF03C1DAFFCAC0DFFF010E63
:10ED2800120014D00001CA51010DF3500101002551
:10ED3800D96EF45001010121DA6E04C1DFFF7E0EA5
:10ED48000001CA6103D00001CA2B00D0000E1200D6
:10ED5800120014D0D00E0101026FCA0EE82EFED7A1
:10ED6800022FFCD7F60E010100250101006FFF0EEE
:10ED7800010101210101016F040000D001010151CD
:10ED8800E9E10B0E0101005DD8A010D0E3D70ED049
:10ED9800150E0101026FC60EE82EFED7022FFCD712
:10EDA80000D001010007D8A00107040001010051AB
:10EDB80001010111D8A4ECD712000101026F3F0E26
:10EDC800C716000EC66E01010251C612010101519B
:10EDD800C71205D0C78C16D0C78CC68813D00101BE
:10EDE8000051000AD8B4F6D7020AD8B4F5D7010AF8
:10EDF800D8B4F3D707D09486928A0DD094860BD0D6
:10EE0800949609D001010251040AD8B4F4D7010A32
:10EE1800D8B4F4D7F5D79488949AC68A1200000E0D
:10EE280001010E6F0101F55110EC7CF0040E010197
:10EE38000C6F010E36EC61F00001A35101010C25A5
:10EE48000101236F0001A45101010D210101246F6B
:10EE580022EC7EF00101206F23C122F1010124512F
:10EE68000101216F200E0101176F010E0101186FBA
:10EE7800030E0101196F010E01011A6F18EC4EF013
:10EE880012002CD04A04D8A405D0FEEC7CF0020174
:10EE98004A6F00D00001D1510001D05DD8B00FD029
:10EEA8000001D051010D800EF324D96E050EF42017
:10EEB800DA6E3DEC7DF0DF6E0001D02B00D0000152
:10EEC800D1510001D019D8A407D00001D151D8B42C
:10EED80003D0010E3C6E00D04A0600D04A50D8A498
:10EEE800D1D712000101B551D8A412000101B651C1
:10EEF800D8A412000101B851D8A412000001CD51C4
:10EF0800D8A412000001C851D8A412000101CF51A1
:10EF1800D8A412000101D9510101D8A4120001019D
:10EF2800CB51D8A412003850D8A412000101E851DE
:10EF3800D8B41200EEEC7DF012001200000E0101B0
:10EF48000D6F1FD001010D51010DF350010108256E
:10EF5800D96EF45001010921DA6E01010D51010D3C
:10EF6800F35001010625E16EF45001010721E26E1C
:10EF7800DE50E618D8B402D0000E120001010D2BA5
:10EF880000D001010A5101010D5DD8A0DBD7010EA7
:10EF9800120012001D0E01011A6F250E01011B6FD0
:10EFA800F7C11CF1F8C11DF1F9C11EF1FAC11FF139
:10EFB800060E0101406F18C10EF119C10FF11A0EAA
:10EFC8000101106F010E0101116F40C112F1000E15
:10EFD8000101136F010E0101146F000E0101156F7D
:10EFE8002EEC49F0120012002CC121F12DC122F1A2
:10EFF8003C0E0101236F010E0101246F010E010176
:10F00800256F2AEC3FF02CC10EF12DC10FF14EEC0B
:10F0180073F001012F6F2AC115F12BC116F12FC111
:10F0280017F12EC118F1000E0101196F010E01012F
:10F038001A6F93EC1EF0120001012C6F000E0101F3
:10F04800EA6F2CC1C9F0000E01012E6F3E0E2D6F24
:10F058002DC100F12EC101F1000E0101036F1E0E3A
:10F06800026F4DEC7AF000C12DF101C12EF12DC1D6
:10F0780026F12EC127F1000E0101286F070E43EC7F
:10F0880072F01200000E01010B6F1BD001010B5131
:10F09800010DF35001010625D96EF4500101072135
:10F0A800DA6E01010B51010DF35001010825E16EE3
:10F0B800F45001010921E26EDFCFE7FF01010B2BBC
:10F0C80000D001010A5101010B5DD8A0DFD7120061
:10F0D8000101026F00C101F10101013BC1500101B1
:10F0E8000119CF0B0119C16EC196C190C192C1948B
:10F0F80002C101F1010101470147C2500101011993
:10F10800830B0119C26EC086C088C08AC050F80B34
:10F118000609C06EC08EC2801200000E0101016F88
:10F128003E0E0101016501D01AD001010151060D01
:10F13800040EF326000EF422BD0EF324D96E0A0E37
:10F14800F420DA6EDF500F0B0101006F020E01018F
:10F15800006102D0010E12000101012BE1D7000E5F
:10F16800120012008A8C70EC55F08986050E010198
:10F17800116F260EE82EFED7112FFCD700D08996E6
:10F18800680E0101116FE40EE82EFED7112FFCD78F
:10F1980000D01AEC7EF0030E0101016FFE0E006F25
:10F1A800FF0E0101026FDAEC78F01200000E010187
:10F1B800036F01010151030B756E00C174FF02C199
:10F1C80073FF7F9E7F9C7F84000EF2BE010E0101BB
:10F1D800036FF29E550E7E6EAA0E7E6E7F8200D061
:10F1E8007FB2FED7010103B102D0F29E01D0F28EA8
:10F1F8007F941200000E00016B6F000169AF09D007
:10F208000001686D691FD8B0692B010E00016B6F92
:10F2180000D068C060F069C061F00001626B8E0EBA
:10F228000001636F6BC064F08CEC5FF060C068F045
:10F2380061C069F062C06AF0120012001A0E010182
:10F24800006F010E0101016F7CEC57F00101406F66
:10F2580018C10EF119C10FF11A0E0101106F010E3C
:10F268000101116F40C112F1000E0101136F010E6F
:10F278000101146F000E0101156F2EEC49F0120008
:10F2880012001D0E01011C6F1AC11DF11BC11EF1D8
:10F29800030E0101426F18C10EF119C10FF11C0EC6
:10F2A8000101106F010E0101116F42C112F1000E30
:10F2B8000101136F010E0101146F010E0101156F99
:10F2C8002EEC49F012000FC106F110C107F1DF0E54
:10F2D8000101086F010E0101096F040E01010A6F97
:10F2E80046EC78F00101DB690101DC690101DD69A7
:10F2F8000101DE69DF0E0101066F010E0101076FD2
:10F30800FBEC6EF0E4EC7DF012000101016F0101ED
:10F3180001510101D8B409D00001D251D8B413D099
:10F32800899C8B94898012000ED001010051010143
:10F33800D8B409D00001D351D8B405D0898C8B94A6
:10F348008990120000D0899C8B8489901200D3EC9C
:10F358007DF0030E0101016FF10E006FE3EC7CF00C
:10F3680001011A6F1AC11BF1030E0101016FF20EA0
:10F37800006FE3EC7CF001011A6F1AC11CF11BC18C
:10F38800ADF01CC1AEF0000E02012B6F000E2A6F0B
:10F3980012000001616F000161510001D8B409D069
:10F3A8000001D251D8B413D0899C8B948980120063
:10F3B8000ED0000160510001D8B409D00001D3512A
:10F3C800D8B405D0898C8B948990120000D0899C80
:10F3D8008B84899012000101026F01010251020D14
:10F3E800000EF324D96E030EF420DA6EDE04DE106C
:10F3F800D8A40FD001010251020D000EF324D96EDA
:10F40800030EF420DA6E000EDE6E000EDD6E010EC5
:10F418001200000E120012000101006F01010051DC
:10F428000101D8A409D0D59E000ED76E000ED66E65
:10F43800850ED56ED58E1200030E01010019D8A4D1
:10F448001200000EB36E000EB26E8C0EB16EA29258
:10F45800A192B180120012000101046F0101045150
:10F46800D8090101056F05C102F13C0E84EC7AF060
:10F47800C80E0101056F05C102F11A0E84EC7AF07D
:10F48800000E0101056F05C102F13E0E84EC7AF011
:10F4980012000101005101010203F3CF04F1F4CF7E
:10F4A80005F10101005101010303F3500101052792
:10F4B8000101015101010203F3500101052704C1B3
:10F4C80000F105C101F11200120001012C6F0101C8
:10F4D8002C510101D8B404D0010E0101EC6F1200C7
:10F4E800000E0101EC6F010E0101276F680E266FF7
:10F4F800010E0101286F0F0E43EC72F0120012008A
:10F508000101036F89940101035122EC7CF0E40EA0
:10F5180000D000D0E82EFCD700D000D00101025165
:10F5280022EC7CF0E40E00D000D0E82EFCD700D00E
:10F5380000D089841200F20E02013E17ABAC07D04E
:10F5480002013E91ABA003D002013E8100D0ABA4E2
:10F5580002D002013E85ABA202D002013E87AECFA7
:10F5680060F00001605112001200000E01010C6FE2
:10F57800010E36EC61F001010C1F01010D1F0101A4
:10F588000C4B0D2B3E0E01010C250101176F000ECF
:10F5980001010D210101186F120012000101006F15
:10F5A800060E0101006102D0000E03D001010051D6
:10F5B800FB0F0101016F070E0101016503D0070E62
:10F5C8000101016F0101015112001200000E010139
:10F5D800056F000E0101066F0BD01C0E71EC7BF05D
:10F5E8000101066F01010651020B0101056F00D0F0
:10F5F800010105510101D8B4F0D712000101026FD1
:10F60800000E0101016F3A0E0101026108D02F0EB0
:10F618000101026504D0010E0101016F00D001C192
:10F6280000F10101003112001200000E0101276FE4
:10F63800010E266F010E0101286F020E43EC72F0D5
:10F64800000E0101276F010E266F010E0101286FC0
:10F65800030E43EC72F012008AEC7DF0899E200EB6
:10F6680022EC7CF00101075122EC7CF001010651EB
:10F6780022EC7CF00101055122EC7CF0898E66ECCD
:10F688007DF0120008C100F109C101F10101026B0E
:10F698008E0E0101036F000E0101046FFCEC5EF099
:10F6A80000C108F101C109F102C10AF112001200FA
:10F6B8000101006F080E0001CF6112000001CF5157
:10F6C800010D4B0EF324D96E030EF420DA6E00C13F
:10F6D800DFFF0001CF2B120012000101046F899493
:10F6E8000101045140090101046F0101045122EC98
:10F6F8007CF00BEC7DF000C103F18984010103511A
:10F70800120012000101036F03C100F10101016B36
:10F71800240E0101026F1CEC60F003C100F101012D
:10F72800016B240E0101026F1CEC60F01200000155
:10F73800646F89940001645140090001646F0001FD
:10F74800645134EC7CF018EC7DF060C063F089847F
:10F758000001635112001200D08EF290F28CF094E6
:10F76800F08AF186F1920F015A9F0F015A9D0F01FD
:10F778005A9B0F015A99F286F190F28E9F9A1200C5
:10F788000101026F01010251020D000EF324D96E2E
:10F79800030EF420DA6EDE50DE10D8A402D0010E7B
:10F7A8001200000E12001200512A51504818D8A415
:10F7B8001200000E0001C86F000E0001606F000EFD
:10F7C800CDEC79F0000E516E000E486E120012005A
:10F7D800020E01010D6F0BC10EF10CC10FF10E0EDF
:10F7E8000101066F010E0101076F0DC108F169ECF7
:10F7F8005EF01200000E0101036F899E050E22ECD7
:10F808007CF00BEC7DF0010100510101036F898E42
:10F81800010103511200120001010F6F01010F5184
:10F828005318D8B4120001D012000EC104F101011E
:10F838000F5153EC4DF00FC153F012000101016F4D
:10F84800C9CF00F19E96C69E01C1C9FFC6BE12006F
:10F8580002D0120000D09EB61200FDD7120012008E
:10F868000001616FC9CF60F09E96C69E61C0C9FF56
:10F87800C6BE120002D0120000D09EB61200FDD7FC
:10F88800120012000101036F0001BA51D8B412002E
:10F89800000E0101016F020E006F03C102F11CECA2
:10F8A80060F01200120056C020F1200E0101176FFF
:10F8B800010E0101186F010E0101196F010E0101FE
:10F8C8001A6F18EC4EF012000101066F0101065183
:10F8D800010B0001D26F010106510E0B0101056FEA
:10F8E80001010551AAEC7CF01200000162510201ED
:10F8F800D527000163510201D6230001645102019A
:10F90800D723000165510201D82312000101046FB9
:10F918005250D8A405D00101BC510101D8B412003D
:10F928000101045146EC7CF0120012000101006F45
:10F9380001010051020D000EF324D96E030EF420CC
:10F94800DA6E000EDE6E000EDD6E12000101046F2D
:10F958000201AB51F00B010104110201AB6FABC204
:10F9680002F1340E84EC7AF01200010E0101DA6F14
:10F978001AEC7EF004C100F105C101F106C102F1E3
:10F98800DAEC78F01200200EABEC5CF0400EABEC39
:10F998005CF081EC7DF0EAEC7AF0600EABEC5CF0A8
:10F9A80012000101006F00C1C1F101010051010104
:10F9B800D8A41200010E0101EC6F1200120001011F
:10F9C8000151030B756E00C174FF7F9C7F9E7F8081
:10F9D80000F000F07350120012000101006FACAC8F
:10F9E80006D0AC9002013EA302D0AC8000D000C18A
:10F9F800ADFF12003C0E71EC7BF00101056F0101B7
:10FA080005A102D0010E1200000E12001200C9CF8B
:10FA180002F19E96000EC96E00D09EA6FED7C9CFF1
:10FA280000F10101016B1200C9CF62F09E96000E31
:10FA3800C96E00D09EA6FED7C9CF60F00001616BE9
:10FA480012000101046F04C1B6F004C1AEF2AEC2E7
:10FA580002F13A0E84EC7AF012000101006F010104
:10FA680000510101D8B402D08A8C12008A9C12007D
:10FA78001200898489920BEC7DF000C103F1898220
:10FA880001010351120012000101026F8984899259
:10FA98000101025122EC7CF0898212005528D8B469
:10FAA80002D0552A02D0000E556E55501200120091
:10FAB8000108010101FFFF3C01010101051901FFD6
:10FAC800FFFFFF0000D0FEEC7BF00101046F010195
:10FAD80004B1F9D7120000D0FEEC7BF00101046FED
:10FAE800010104A3F9D712000101496F48C12CF1A3
:10FAF8000101495117EC2AF01200070E0101046FA9
:10FB080004C102F11C0E84EC7AF01200899E060EE4
:10FB180022EC7CF0898E6FEC7DF0120000C1D1F2EE
:10FB280001C1D2F20201D36BD46B1200A2EC7DF0BA
:10FB380000C102F101C103F112001200D50E01014A
:10FB4800006F000E0101016F1200120002C100F1E6
:10FB580003C101F1E3EC7CF0120012000101066F11
:10FB680001010651B9EC7DF012000101056F010198
:10FB7800055125EC7DF01200C2A202D0010E120040
:10FB8800000E12001200070E0101016F0069120039
:10FB98001200000E0101C86FC8EC5AF01200010EE5
:10FBA8000101C86FC8EC5AF01200280E9BEC7BF0DC
:10FBB80086EC6BF012000101006F00C1E9F1120040
:10FBC8000101006F00C1CCF11200AFC100F1B0C15A
:10FBD80001F11200D39ED18E03000400120002012D
:10FBE800AB510E0B12001200AFC160F0B0C161F052
:10FBF800120077C0AFF178C0B0F11200FFFFFFFF2D
:10FC0800FFFFFFFF0101E951120012000EEC7EF028
:10FC1800120012000001BE51120012000101C15170
:10FC2800120012000201DD511200120000D07FB252
:10FC3800FED712000001B651120012000001C55192
:10FC4800120012000101006F120012000001C551DC
:10FC5800120012000001BE5112001200030500C27A
:10FC68000100FA0E1200120003FFFFFFC282120009
:04FC78001200120064
:10FEC4000001000A006400E803102701001000008C
:10FED40001001000010708090A005365656C6F777B
:10FEE400584C532C322E3230372C312E33312C32A5
:10FEF4002C302C302C30303030303030302C003C32
:10FF0400453E4E6F7420416C6C6F77656420746F4E
:10FF14002073656E643C2F453E004D6173743A2036
:10FF24003078253032582530325825303258253033
:10FF34003258200049443A20307825303258253050
:10FF44003258253032582530325820004669726DB7
:10FF5400776172653A2076322E32303720003031A4
:10FF64003233343536373839414243444546004705
:10FF7400726F75703A2030782530325820004E6FF9
:10FF840064653A20307825303258200024303030EF
:10FF940032323132332600436F723A2025303258E0
:10FFA40020004261743A2025303458200024303037
:10FFB400303232343236260053533A202530325808
:10FFC40020005070723A2025692000547970653AF7
:10FFD40020003C2F44413E003C2F55413E005744F5
:10FFE400525354003C44413E003C55413E0025637D
:0CFFF4002000424F5200504F520000000D
:020000040020DA
:08000000FFFFFFFFFFFFFFFF00
:020000040030CA
:0E0000001D981B36FF8980FF0FC00FE00F40D8
:00000001FF
