:040000000EEF00F00F
:0400080004EF04F00D
:100018000CEF04F086EF03F0000E276E000E036E5F
:10002800000E046E020E056E000E066E010E076EBF
:10003800000E086E000E096E000E0A6E270E0B6E7B
:10004800000E0C6E19EC02F02704D8A42FD1FF0E75
:100058001F6E000E206E000E216E000E226E000E26
:10006800236E000E246E000E256E000E266E000E06
:10007800036EF80E046E000E056E000E066E040E7A
:10008800076E000E086E000E096E000E0A6E1F0E37
:100098000B6E000E0C6E19EC02F0040E036EF80ED7
:1000A800046E000E056E000E066E040E076E000E3E
:1000B800086E000E096E000E0A6E230E0B6E000EFF
:1000C8000C6E19EC02F0000E306E000E286E080E51
:1000D800296E000E2A6E000E2B6E2B5067E12A0443
:1000E800D8B064D001D062D03050010D1B0EF3247B
:1000F800D96E000EF420DA6E000E2824036EF80E76
:100108002920046EFF0E2A20056EFF0E2B20066E96
:1001180036EC03F0DF6E3050010D1B0EF324D96E60
:10012800000EF420DA6EDF50166E16C017F0186A4B
:10013800196A1A6A1750235E1850245A1950255AFA
:100148001A50265A020E306421D030C016F0FD0E27
:100158001626030E1616D8A419D0FD0E166EFF0E1D
:10016800176E3050010D1650F3261750F4221B0E4F
:10017800F324D96E000EF420DA6EDE501F1ADE501A
:10018800201ADE50211ADD50221A00D0302A040E1F
:100198003018D8A402D0000E306E0400010E2826B4
:1001A800000E29222A222B2298D700D01F50201077
:1001B80021102210D8A47AD02350241025102610FC
:1001C800D8A474D0000E016E080E026E000E036EE5
:1001D800000E046EFF0E056EFF0E066E000E076E13
:1001E800000E086EDEEC01F0000E2C6E080E2D6E6F
:1001F800000E2E6E000E2F6E2F5055E12E04D8B033
:1002080052D001D050D0000E2C24036EF80E2D20B1
:10021800046EFF0E2E20056EFF0E2F20066E040EB4
:10022800076E000E086E000E096E000E0A6E1B0E99
:100238000B6E000E0C6E19EC02F02CC001F02DC0F4
:1002480002F02EC003F02FC004F0000E066E040E5C
:10025800056E1B0E076E000E086E5DEC01F00400C3
:100268002CC001F02DC002F02EC003F02FC004F006
:10027800290E056E000E066E000E076E000E086E43
:1002880053EC02F00150021003100410D8A403D05C
:100298006EEC03F000D0040E2C26000E2D222E2228
:1002A8002F22AAD700D0010E120000D0000E120093
:1002B8001200000E0D6E000E0E6E01C012F002C08C
:1002C80013F003C014F004C015F0060E096ED890A0
:1002D8000432033202320132092EF9D7060ED890C1
:1002E8000136023603360436E82EF9D7400E0126C9
:1002F800000E0222032204221250000801240D6E6F
:1003080054D012C00FF013C010F014C011F01FD059
:1003180007C0D9FF08C0DAFFDF500FC0F6FF10C0D2
:10032800F7FF11C0F8FFF56E0C00074A082A010E06
:100338000F26000E1022000E11220506D8A0060670
:1003480005500610D8B407D002D005D000D00D064D
:100358000D28D8A4DDD70FC00AF010C00BF011C0CB
:100368000CF012C00FF013C010F014C011F07F8E03
:100378007F9C7F84F2AE03D0F29E010E0E6E550E66
:100388007E6EAA0E7E6E7F827F940E50D8B403D004
:10039800F28E000E0E6E400E0D6E0A50126E0B504D
:1003A800136E0C50146E156A00D005500610D8A4B0
:1003B800A8D71200000E096E01C00AF002C00BF0A7
:1003C80003C00CF004C00DF025D00CC0F8FF0BC022
:1003D800F7FF0AC0F6FF7F8E7F9C7F847F88F2AE8E
:1003E80003D0F29E010E096E550E7E6EAA0E7E6E29
:1003F8007F820950D8B402D0F28E00D0400E0A2471
:100408000A6E000E0B200B6E000E0C200C6E000EF8
:100418000D200D6E05500A5C06500B5807500C58FD
:1004280008500D58D8A0D1D71200000E0D6E000E3E
:100438000E6E000E0F6E000E106E899E030E5DECA0
:1004480003F005505DEC03F004505DEC03F003503D
:100458005DEC03F0000E0D6E000E0E6E000E0F6EBA
:10046800000E106E10D00D500B24D96E0E500C20BB
:10047800DA6E7BEC03F0DF6E010E0D26000E0E2205
:100488000F22102200D007500D5C08500E5809505A
:100498000F580A501058D8A0E6D7898E1200055078
:1004A800061007100810D8B429D0010E096E07D01D
:1004B800D8900536063607360836092A00D008BE11
:1004C80002D0F6D700D00550015C065002580750FC
:1004D800035808500458D8A009D00550015E0650AA
:1004E800025A0750035A0850045A00D0D8900832CC
:1004F800073206320532092EE6D700D001C001F0D6
:1005080002C002F003C003F004C004F01200036E3E
:100518003F0EC716000EC66E0350C6120250C71211
:1005280005D0C78C15D0C78CC68812D00150000AD8
:10053800D8B4F7D7020AD8B4F6D7010AD8B4F4D792
:1005480007D09486928A0CD094860AD0949608D0C4
:100558000350040AD8B4F5D7010AD8B4F5D7F6D7AA
:100568009488949AC68A1200E3EC02F0000E016E99
:10057800800E026E020E8BEC02F093968A96010EA4
:10058800346E10EC00F000D04CEC03F00009D8A455
:1005980010D093968A86000E026EC80E016E0DEC7E
:1005A80003F09386000E026EC80E016E0DEC03F088
:1005B800F0D79386938600EF04F00EEF00F07C0EE0
:1005C800D36E9B8CD2909B8E200E926EBD0E936E36
:1005D800930E946E860E806E070E816E040E826EE8
:1005E800100E0F015D6F000E0F015C6FF19E0F0181
:1005F8005B810F015B930F015B950F015B970F0107
:100608005B990F015B9B0F015B9D0F015B9FD18085
:1006180012000FD0D00E036ECA0EE82EFED7032E9E
:10062800FCD7F60E0124016EFF0E0220026E0400B4
:1006380000D00250EFE10B0E015CD8A00ED0EAD733
:100648000CD0150E036EC60EE82EFED7032EFCD76F
:1006580000D00106D8A00206040001500210D8A458
:10066800F0D71200000E076E899E030E5DEC03F0B2
:1006780005505DEC03F004505DEC03F003505DECB5
:1006880003F07BEC03F0076E898E0750120012000E
:10069800000EF86E080EF76E000EF66E0800F5CF25
:1006A80001F00128D8A402D0000E1200010E120099
:1006B8001200026EC9CF01F09E96C69E02C0C9FF05
:1006C800C6BE120002D0120000D09EB61200FDD79E
:1006D800120012003450D8B404D09386000E346E41
:1006E800120093968A86010E346E12001200C9CF4A
:1006F80001F09E96000EC96E00D09EA6FED7C95086
:1007080012001200346A336A326A316A000EF86ED7
:060718000001B8EF02F041
:04080000EBEF04F026
:10080800FACF1CF0FBCF1DF0E9CF1EF0F7EF63F035
:10081800D8CF8FF0E8CF90F0E0CF91F0FACF92F0F8
:10082800FBCF93F0E9CF94F0EACF95F0E1CF96F0C3
:10083800E2CF97F0D9CF98F0DACF99F0F3CF9AF0CA
:10084800F4CF9BF0F6CF9CF0F7CF9DF0F8CF9EF059
:10085800F5CF9FF090D0000E0001A16FF2A08FD0CD
:1008680081CFA0F000F0F2900001A0A984D0600E22
:100878000001B419D8A466D00001CC51D8A43AD04C
:100888000001C851D8A436D0D7EC74F00101F96F33
:10089800040E00016C6F010E68EC58F06CC077F024
:1008A8006DC078F0ADEC74F0D3B606D001D004D0AA
:1008B800010E0101D46F00D089EC74F0A8EC74F03B
:1008C8000001A251000160270001A351000161232A
:1008D800000160C062F0000161C063F00001646B58
:1008E800656B1DEC73F0010E0101BA6F010E00017A
:1008F800CC6F41D00001C851D8B409D00C0E00010A
:100908006C6FFF0E00016D6F9BEC33F034D0DBECA5
:1009180074F00009D8B409D0460E00016C6FFF0EC0
:1009280000016D6F9BEC33F009D0200E00016C6F55
:10093800FF0E00016D6F9BEC33F000D0010E01013A
:10094800BB6F19D0800E0001B419D8A406D0010ECF
:100958000101BC6F5AEC72F00ED0200E0001B419E0
:10096800D8A409D0F60E00016C6FFE0E00016D6F61
:100978009BEC33F000D0010E0001A16F00D0000104
:10098800A1510001D8A467D79FC0F5FF9EC0F8FF0A
:100998009DC0F7FF9CC0F6FF9BC0F4FF9AC0F3FF11
:1009A80099C0DAFF98C0D9FF97C0E2FF96C0E1FF6F
:1009B80095C0EAFF94C0E9FF93C0FBFF92C0FAFF1D
:1009C80091C0E0FF90C0E8FF8FC0D8FF100017EF7C
:1009D80055F0000ED0B6010E0101FC6F000ED0B22A
:1009E800010E0201FE6F000ED0B0010E0301FF6F71
:1009F800D0CFFFF237EC62F0030E0101016FE80E71
:100A0800006FF0EC6CF0030E0101016FF00E006F47
:100A180097EC73F00101D86F0101D829D8B404D03C
:100A2800010E0101C36F00D073EC59F006D08A940F
:100A380093869EEC74F073EC59F00DC1AAF00EC1C8
:100A4800ABF000D00001ABBFF2D73E0E0001AA5DAB
:100A5800080E0001AB59D8A0EAD7C1EC6FF0360EEA
:100A68000101016FB00E006FF0EC6CF00101C35191
:100A78000101D8A40ED00001ABBF0BD0870E000136
:100A8800AA5D0B0E0001AB59D8A003D01AEC61F097
:100A980000D0000E0101006F000E0101016F020E6F
:100AA80058EC6DF00400F0EC37F00400F5C200F1EA
:100AB8000101016B47EC74F0FBEC72F0010E0001D0
:100AC800BD6F0101FC510101D8A413D0E30E01014F
:100AD800126FFF0E0101136F37EC31F0000E0101A8
:100AE800016F040E006F060E0101026FC8EC56F08C
:100AF8002CD00201FE510201D8B418D00301FF51D5
:100B08000301D8A413D0F70E0101126FFF0E0101E3
:100B1800136F37EC31F0000E0101016F040E006F06
:100B2800070E0101026FC8EC56F00FD00201FE510A
:100B38000201D8A40AD0FB0E0101126FFF0E0101B9
:100B4800136F37EC31F0D08200D0000E9CEC65F0CA
:100B5800D00E0101126FFF0E0101136F37EC31F057
:100B6800840E0101126FFE0E0101136F37EC31F094
:100B7800F30E0101126FFF0E0101136F300E010118
:100B8800C6250101146F0101156B000E152337EC02
:100B980031F0B20E0101126FFF0E0101136FAAC0EE
:100BA80014F1ABC015F137EC31F0DE0E0101126F14
:100BB800FE0E0101136FF2C214F10101156BF3C2AD
:100BC80016F10101176BF4C218F10101196BF5C296
:100BD8001AF101011B6B37EC31F0C40E0101126FE1
:100BE800FE0E0101136FD7C014F10101156BD8C0B7
:100BF80016F10101176BD9C018F10101196BDAC0A0
:100C08001AF101011B6B37EC31F0990E0101126FDB
:100C1800FF0E0101136FCFEC74F00501806F050121
:100C280080510101146F156B37EC31F07B0E010117
:100C3800126FFF0E0101136FC9C014F10101156B8A
:100C480037EC31F0340E0101126FFF0E0101136F02
:100C580037EC31F0A70E0101126FFF0E0101136F7F
:100C6800D8C114F10101156B37EC31F0C70E010141
:100C7800126FFF0E0101136F81BA02D0010E01D06D
:100C8800000E0101146F156B37EC31F0F20E010103
:100C98000F6F020E0101106F06EC70F02AEC3CF0A9
:100CA80098EC71F0000E0101276F1E0E266F010EE1
:100CB8000101286F040E2AEC69F0000E05019A6FF5
:100CC800000E0101066F000E076F020E086F000E7E
:100CD800096F010E01010A6F000E0B6F000E0C6FF9
:100CE800000E0D6F9A0E01010E6F050E01010F6FB8
:100CF800E1EC66F005019A05D8A41ED0000E0501A6
:100D08009A6F000E0101056F000E066F020E076F45
:100D1800000E086F9A0E0101096F050E01010A6F96
:100D2800010E01010B6F000E0C6F000E0D6F000E0F
:100D38000E6FC6EC67F000D0F20E0101066F020ECE
:100D48000101076FE40E0101086F010E0101096F2F
:100D5800040E01010A6FEDEC6DF00009D8B403D060
:100D68000400FED700D0F0EC73F0000E0001BD6F58
:100D780000D00101DC510101D8A41DEF0CF0000ED8
:100D88008DEC70F00101E2510101D8B402D0FF00EE
:100D980000D0000E0101E36F04000101B951D8B47D
:100DA80085D00001B451D8B41CD038EC71F017C10B
:100DB8005AF218C15BF202015B510CE11F0E0201ED
:100DC8005A5DD8B007D0000E01014A6F010E55ECEC
:100DD80019F007D0000E01014A6F000E55EC19F00A
:100DE80000D00101FD510101D8B426D0D70E010170
:100DF8000B6F000E01010C6F8B0E01010D6F050EBC
:100E080001010E6F8CEC3FF00501806F1F0E05018C
:100E1800806112D0D70E0101186F000E0101196F01
:100E2800000E01011A6FDFEC6BF00009D8B404D092
:100E3800000E0101FD6F00D0000E0101B96F3E0EDA
:100E4800FFEC35F0EC0E0101006F010E0101016F9E
:100E5800DBEC4BF007EC52F0C3EC74F00009D8B4AB
:100E680025D00101FB510101D8B420D0010E0001A9
:100E7800BD6FBD0E0101126FFF0E0101136F4FEC24
:100E880074F002C1D9FF03C1DAFFDF500501806F9A
:100E9800050180510101146F156B37EC31F0000E1C
:100EA8000001BD6F000E0101FB6F00D038EC71F03E
:100EB80017C15AF218C15BF202015B5105E1070E36
:100EC80002015A5DD8A02AD002015B5127E11F0E0A
:100ED80002015A5DD8B022D00101D651D8B41ED033
:100EE800910E01010E6F050E01010F6FC10E010178
:100EF800106F030E0101116FBDC112F1000E010147
:100F0800136F010E0101146F000E0101156F45ECFE
:100F180043F000D0000E0101D66F00D00101BB5193
:100F2800D8B409D0000E0101BB6F200EEEEC53F0CF
:100F3800600EEEEC53F00001CC51D8B43AD099ECE5
:100F480074F000C117F101C118F1040E01010C6F12
:100F5800010EE2EC57F00CC119F10DC11AF183EC46
:100F680074F0010100C11BF1010101C11CF1010173
:100F78001D6B1E6B4AEC5EF017C18FF518C190F51A
:100F88004B0E05018F5D010E05019059D8A011D0B7
:100F98000101BA51D8B40AD00001C851D8A406D06A
:100FA800E4EC68F0000E0101BA6F00D0BCEC6DF003
:100FB80000D0460E01010E6F030E01010F6FEF0EF8
:100FC8000101106F010E0101116F79EC41F0000968
:100FD800D8B452D0460E01012C6F030E01012D6FBB
:100FE800EFC12EF1D4C12FF1F9C130F172EC2BF021
:100FF8000009D8B43AD0490E01010E6F030E010161
:101008000F6FA40E0101106F020E0101116F980EEF
:101018000101126F050E0101136F0EEC68F0000953
:10102800D8B423D00B0E0501976FA40E01018A6F67
:10103800020E01018B6F05019751010D460EF32435
:1010480001018C6F030EF42001018D6F050197518A
:1010580000080101EF2501018E6F98C58FF1000E80
:101068000101906FF9EC12F000D0000E0001CC6F76
:10107800000E0101D46F00D0030E0101EC19D8A4B1
:1010880014D0030E0101ED19D8A40FD0000E0101F0
:10109800EC6F000E0101ED6F030E0101006F010EF0
:1010A800ECEC74F00101C28944D0020E0101ED1983
:1010B800D8A40CD0000E0101ED6F020E0101006FE3
:1010C800010EECEC74F00101C28733D00101ED058B
:1010D800D8A40CD0000E0101ED6F010E0101006FC4
:1010E800010EECEC74F00101C28523D0020E01015F
:1010F800EC19D8A40ED0000E0101EC6F7AEC5BF06D
:10110800020E0101006F000EECEC74F00101C283C5
:1011180010D00101EC05D8A40CD0000E0101EC6F31
:10112800010E0101006F000EECEC74F00101C281A8
:1011380000D00101BC51D8B42BD0000E0101BC6F06
:10114800800E0001B419D8A411D00101DB510101AE
:10115800D8A405D00101DC510101D8B407D0000E94
:10116800EEEC53F0000E0101DB6F10D0800E000191
:10117800B419D8A40BD00001C851D8A407D0200EA8
:10118800EEEC53F0600EEEEC53F000D0040000D00B
:10119800000E0101016F010E006FF10E0101026FD7
:1011A800010E0101036FAFEC52F00009D8B408D06A
:1011B800F1C100F1010EE5EC74F00101B86F07D040
:1011C8000101D251D8B403D00101D20700D00101E6
:1011D800B851D8B46BD104010151C00B05019B6F04
:1011E80005019B45E846030B05019B6FEE0E0101C7
:1011F800126FFF0E0101136F37EC31F005019B519F
:101208000501D8A409D1000E0101BE6FC3EC74F02A
:101218000009D8B43FD1000E0101006F040E01018E
:10122800016F020E0101026FE40E0101036F010E4E
:101238000101046F000E0101056F040E0101066F24
:1012480038EC6AF00009D8B4BDD00A0E0101BD6FB0
:10125800E8C1C1F3E9C1C2F3EAC1C3F3EBC1C4F306
:101268001D0E0301C56F2B0E0301C66F02C4C7F321
:1012780003C4C8F304C4C9F305C4CAF3010E0001CA
:10128800BD6F0101EF51FA0F0101EF6F000E01016F
:10129800016F020E006F240E0101026FC8EC56F0B8
:1012A800000E0101016F020E006F240E0101026F92
:1012B800C8EC56F0000E0101016F020E006F01012B
:1012C800EF51040F0101026FC8EC56F0000E010146
:1012D800016F020E006F000E0101026FC8EC56F09C
:1012E800000E0501956F000E0501996F22D0000EC2
:1012F8000101016F020E006F05019951010DC10E28
:10130800F324D96E030EF420DA6EDF500101026F68
:10131800C8EC56F005019951010DC10EF324D96EA0
:10132800030EF420DA6EDF500501951B0501992B99
:1013380000D0FF0E0501806FFF0E0501816F0101CE
:10134800BD510501826F836B05018051050182271C
:101358000501815105018323050199510501846F18
:10136800856B050182510501845D05018551800A5F
:101378000501866F05018351800A05018659D8A0A9
:10138800B6D7000E0101016F020E006F95C502F17C
:10139800C8EC56F0000E0101016F020E006F0D0E31
:1013A8000101026FC8EC56F0000E0101016F020E38
:1013B800006F0A0E0101026FC8EC56F0000E000122
:1013C800BD6F68D00101EE51F80F0101BD6F020E2B
:1013D8000301C16F000E0101006F040E0101016FCE
:1013E800060E0101026FC10E0101036F030E010118
:1013F800046F010E0101056FBDC106F17CEC67F0B9
:1014080002C491F503C492F504C493F505C494F598
:10141800010E0101D66F3ED0020E05019B19D8A41A
:1014280039D0020E0101BE6FC3EC74F00009D8B4C4
:1014380031D0020E01010E6F040E01010F6F870EED
:101448000101106F050E0101116F960E0101126F57
:10145800050E0101136F0EEC68F00009D8B41AD01C
:10146800060E01018A6F040E01018B6F0A0E01013D
:101478008C6F040E01018D6F0101EE51F30F010114
:101488008E6F280E01018F6F010E0101906FF9EC2C
:1014980012F000D0000E0101B86FDD0E0101126FCD
:1014A800FF0E0101136F37EC31F000D0010E6CEC28
:1014B80070F00009D8B417D0050E0101276FA00EEF
:1014C800266F020E0101286F0C0E2AEC69F00D0E32
:1014D8003EEC73F00101DB510101D8B404D0000ED9
:1014E8000101DB6F00D00A0E6CEC70F00009D8B473
:1014F80020D0D70E0101066F000E0101076FE40E20
:101508000101086F010E0101096F040E01010A6F44
:10151800EDEC6DF00009D8A40CD0D70E0101186FBE
:10152800000E0101196F000E01011A6FF5EC44F06D
:1015380000D00B0E6CEC70F00009D8B415D0000E7A
:101548000201476F000E466F000E0201496F000E40
:10155800486F000E02015D6F000E5C6F000E020105
:101568005F6F000E5E6F00D0000E6CEC70F000092B
:10157800D8B404D0000E0101C26F00D00B0E46ECA7
:1015880072F00009D8B40BD0050E0101276FA00E28
:10159800266F020E0101286F0B0E2AEC69F00A0E65
:1015A80046EC72F000D002013B5105E10B0E02013E
:1015B8003A5DD8A00CD0070E78EC5AF0000E89ECF2
:1015C80073F0000E02013B6F000E3A6F00D001016C
:1015D800C151D8B40AD0000E01010D6F240E0C6F52
:1015E800D9EC61F00101C10700D0000E02016B6F58
:1015F8000C0E46EC72F00009D8B40CD0050E0101AF
:10160800276FA00E266F020E0101286F0C0E2AEC20
:1016180069F000D00101D551D8B41ED0050E0101E2
:10162800276FA00E266F020E0101286F0C0E2AEC00
:1016380069F0000E0101D56F0001B451D8B40CD087
:101648000101C0510101D8A407D0000E0101DB6FD0
:101658000D0E3EEC73F000D00C0E6CEC70F000092F
:10166800D8B40BD0040E0101276FB00E266F010EFF
:101678000101286F0D0E2AEC69F00D0E6CEC70F06C
:101688000009D8B40BD0020E0101276F580E266F3F
:10169800010E0101286F0C0E2AEC69F0110E6CEC9A
:1016A80070F00009D8B406D0010E0101DE6F6CECB1
:1016B8002EF000D0100E6CEC70F00009D8B41DD0DC
:1016C800C3EC74F00009D8A418D00101FE5101013F
:1016D800D8B404D0B4EC6AF0000E0CD0D70E0101D7
:1016E800186F000E0101196F010E01011A6FF5EC58
:1016F80044F0010E0101FE6F00D0100E46EC72F0AE
:101708000009D8B40CD0000E0101276F1E0E266FF9
:10171800010E0101286F100E2AEC69F000D00001BB
:10172800ABBF08D03E0E0001AA5D080E0001AB5900
:10173800D8B00BD00101C0510101D8B452D000017A
:10174800B451D8B455D04DD053D00101C051010186
:10175800D8B410D00101C0510101D8B439D000016A
:10176800ABBF36D07D0E0001AA5D080E0001AB5953
:10177800D8A02ED0000E0101C06F010E4EEC6CF007
:101788000101005101010111D8B404D00CD030D0AE
:1017980010D02ED00D0E4EEC6CF00101005101015D
:1017A8000111D8B40DD00001B451D8B421D001D062
:1017B8001FD00101DB510101D8A41AD015D018D0CF
:1017C8000001B451D8A414D0000E9CEC65F010D0E0
:1017D8000101C0510101D8B40BD00001B451D8B4F3
:1017E80007D0010E0101C06F010E0101DB6F00D0AF
:1017F800040E01010C6F000EB8EC5EF00CC138F25B
:101808000DC139F2020138510201485D0201395116
:1018180002014959D8B009D00101E351D8A405D033
:1018280038C248F239C249F200D06EEC6EF0BDEF12
:1018380006F0EAEC74F00009D8B4BDEF06F09EECAF
:1018480074F0010E0101E26FBDEF06F0EBEF04F05A
:101858002DC121F12EC122F134C123F131C106F18C
:1018680032C107F133C108F184EC54F00101246F4F
:10187800000E0101256FC8EC3AF00101576F2DC128
:1018880006F12EC107F12FC108F130C109F1040E8C
:1018980001010A6FE6EC6EF0010135510101D8A48F
:1018A80010D02DC106F12EC107F1FA0E0101086F03
:1018B800020E0101096F040E01010A6FE6EC6EF0D9
:1018C80000D0010E01013365F6EF12F031C1D9FFE6
:1018D80032C1DAFFDE04D8A466D1050E01013365F2
:1018E80062D1F90E010133250101006F0101016B7D
:1018F800FF0E0123000E0101036F050E026F92EC2B
:1019080062F00101005101010111D8A44CD1FF0E70
:101918000101366FFF0E0101376F010133510101DB
:10192800386F396B010136510101382701013751F0
:10193800010139230101385101013125D96E010115
:10194800395101013221DA6E0001C951DE18D8B4CB
:1019580024D0FF0E0101366FFF0E0101376F010120
:1019680033510101386F396B0101365101013827B4
:101978000101375101013923010138510101312594
:10198800D96E0101395101013221DA6EDE28D8A45D
:10199800F6EF12F002D0F6EF12F0000E0101596FC7
:1019A800010E586FE7D0050E010158250101366F69
:1019B800000E010159210101376F01013351010165
:1019C800386F396B010136510101385D0101395118
:1019D800800A01013A6F01013751800A01013A5921
:1019E800D8A082D0010159BF7FD00101595105E12A
:1019F800060E0101585DD8A077D031C100F132C17F
:101A080001F158C102F1400E0101036F010E0101FD
:101A1800046F000E0101056F040E0101066F7CECD6
:101A280067F0040E010158250101366F000E01010F
:101A380059210101376F0101365101013125D96E54
:101A48000101375101013221DA6EDF500101386F8F
:101A5800050E0101396F0101D89038330101392F82
:101A6800FAD701013851070B01014C6F040E01012F
:101A780058250101366F000E010159210101376F08
:101A88000101365101013125D96E0101375101019A
:101A98003221DA6EDF501F0B0101546F1E0E010157
:101AA800546506D0000E01014F6F1F0E4E6F0AD00D
:101AB800010E0101542501014E6F01014F6B000E0B
:101AC8004F2300D0400E0101156F010E0101166F62
:101AD80057C117F14EC118F14CC119F1000E01019F
:101AE8001A6FBBEC1DF03CD00101580501015911DA
:101AF800D8A436D031C100F132C101F1010E010183
:101B0800026FE80E0101036F010E0101046F000E60
:101B18000101056F040E0101066F38EC6AF0000937
:101B2800D8B41ED02DC10EF12EC10FF1040E010143
:101B380058250101366F000E010159210101376F47
:101B48000101365101013125D96E010137510101D9
:101B58003221DA6EDF500101106FF7EC64F000D02B
:101B6800050E010158250101586F000E0101592188
:101B78000101596F010133510101366F376B0101C2
:101B880036510101585D01015951800A0101386F30
:101B980001013751800A01013859D8B0F6EF12F027
:101BA80002D7F6EF12F031C1D9FF32C1DAFF020EC7
:101BB800DE18D8A423D0010120EE02F03151D92635
:101BC8003251DA22DE5002017719D8A4F6EF12F06A
:101BD800000E02016E6F000E0201A16F020E0201DB
:101BE800A26F000E0101DD6F510E01013461F6EFA5
:101BF80012F0010E0201676FF6EF12F031C1D9FF42
:101C080032C1DAFF020EDF64F6EF12F00B0E0101AB
:101C18003365F6EF12F0010E0101D56F000E02ECEC
:101C280071F0010120EE02F03151D9263251DA2249
:101C3800DE5002017719D8A40AD0000E02016E6F97
:101C4800000E0201A16F020E0201A26F00D0010175
:101C580020EE01F03151D9263251DA22DE5002014C
:101C68007719D8A498D16F0E0101006F020E0101F7
:101C7800016F000E0101026F31C103F132C104F19D
:101C8800030E0101056F040E0101066F38EC6AF0BE
:101C98000009D8B480D1010120EE01F03151D926D4
:101CA8003251DA22DF500101B56F010E0001BA6F1F
:101CB8002DC106F12EC107F1EE0E0101086F020ECB
:101CC8000101096F040E01010A6FE6EC6EF00101D3
:101CD80020EE07F03151D9263251DA220101E851BC
:101CE800DE18D8A424D0010120EE08F03151D926FD
:101CF8003251DA220101E951DE18D8A418D00101C5
:101D080020EE09F03151D9263251DA220101EA5187
:101D1800DE18D8A40CD0010120EE0AF03151D926E2
:101D28003251DA220101EB51DE18D8B434D131C175
:101D3800D9FF32C1DAFF040EDE18D8B429D101D098
:101D480027D131C100F132C101F1030E0101026F47
:101D5800E80E0101036F010E0101046F000E01017D
:101D6800056F040E0101066F38EC6AF00009D8A46B
:101D78000FD101D00DD1010120EE0BF03151D92640
:101D88003251DA220201A351DE5CD8B003D0000E32
:101D98001200FED0D4C250F1D5C251F1D6C252F1D0
:101DA800D7C253F131C100F132C101F1070E01016F
:101DB800026F440E0101036F010E0101046F000E52
:101DC8000101056F040E0101066F7CEC67F0440EFB
:101DD80001010B6F010E01010C6F500E01010D6F17
:101DE800010E01010E6F8CEC3FF001014D6F0101F6
:101DF8005569500E0101066F010E0101076FE40ECF
:101E08000101086F010E0101096F040E01010A6F3B
:101E1800EDEC6DF00009D8A40AD0500E01010E6F48
:101E2800010E01010F6F76EC6AF00101556F6F0E1C
:101E38000101066F020E0101076FF60E0101086F1E
:101E4800020E0101096F040E01010A6FE6EC6EF043
:101E580077C2F8F111EC74F00201776F040E0201F9
:101E6800786F060E02016E6F000E0201A16F020E5E
:101E78000201A26F31C100F132C101F1030E01016B
:101E8800026F730E0101036F020E0101046F000E51
:101E98000101056F040E0101066F7CEC67F0E80E86
:101EA8000101066F010E0101076F6F0E0101086F36
:101EB800020E0101096F040E01010A6FE6EC6EF0D3
:101EC800000E0201A36F1D0E0201796F2B0E020195
:101ED8007A6F440E0101006F010E0101016F000EBF
:101EE8000101026F790E0101036F020E0101046FF7
:101EF800020E0101056F040E0101066F7CEC67F00C
:101F0800500E0101006F010E0101016F000E010169
:101F1800026F790E0101036F020E0101046F060EB4
:101F28000101056F040E0101066F7CEC67F02DC1FD
:101F380000F12EC101F1000E0101026F790E0101BD
:101F4800036F020E0101046F0A0E0101056F040EF2
:101F58000101066F7CEC67F04DC187F255C188F22C
:101F680001015551060D040EF326000EF422BD0E94
:101F7800F324D96E0A0EF420DA6EDF500F0B02013B
:101F8800896F110E02019F6F000E0101DD6F00D0F5
:101F9800000E120000D002016E51D8A408D0000132
:101FA800BA51D8A404D00201A051D8B44ED0730EAF
:101FB8000101066F020E0101076F030E01013125B1
:101FC8000101086F000E010132210101096F040EA1
:101FD80001010A6FEDEC6DF00009D8B433D00201AD
:101FE8006E51D8B42FD00001BA51D8A42BD0020119
:101FF800A051D8A427D0010120EE01F03151D926F3
:102008003251DA220101F851DE18D8A41ED0F60E9A
:102018000101006F020E0101016F000E0101026F44
:1020280031C103F132C104F1030E0101056F040E41
:102038000101066F38EC6AF00009D8B406D0000E2A
:10204800120003D0000E120000D0010120EE07F0AC
:102058003151D9263251DA220101E851DE18D8A4CB
:1020680024D0010120EE08F03151D9263251DA226C
:102078000101E951DE18D8A418D0010120EE09F0B9
:102088003151D9263251DA220101EA51DE18D8A499
:102098000CD0010120EE0AF03151D9263251DA2252
:1020A8000101EB51DE18D8B4D0D0010120EE0BF0BD
:1020B8003151D9263251DA221F0EDE18D8A402D0A7
:1020C800000E12006F0E0101066F020E0101076F6C
:1020D800F60E0101086F020E0101096F040E0101DD
:1020E8000A6FE6EC6EF077C2F8F1010120EE01F01C
:1020F8003151D9263251DA22DF500201776F31C1CE
:10210800D9FF32C1DAFFDF500201786F060E0201F3
:102118006E6F000E0201A16F020E0201A26F31C1A3
:1021280000F132C101F1070E0101026F730E0101C6
:10213800036F020E0101046F000E0101056F040E0A
:102148000101066F7CEC67F031C100F132C101F189
:10215800030E0101026F6F0E0101036F020E0101F0
:10216800046F000E0101056F040E0101066F7CEC7F
:1021780067F0010120EE0BF03151D9263251DA22F5
:10218800DF500101366F010136290201A36F31C109
:1021980000F132C101F10C0E0101026F790E01014B
:1021A800036F020E0101046F000E0101056F0101AA
:1021B8003351F40F0101066F7CEC67F001013351D4
:1021C800F40F02019F6F000E0101DD6F010120EE87
:1021D80001F03151D9263251DA22DF500101B56FB1
:1021E800010E0001BA6F2DC106F12EC107F1EE0EE6
:1021F8000101086F020E0101096F040E01010A6F47
:10220800E6EC6EF02DC121F12EC122F134C123F18B
:10221800010E0101246F010E0101256FC8EC3AF08F
:102228000101576F6F0E0101156F020E0101166F44
:1022380057C117F1A3C218F1000E0101196F010E61
:1022480001011A6FBBEC1DF0CDD16F0E0101066FB5
:10225800020E0101076FF60E0101086F020E01015F
:10226800096F040E01010A6FE6EC6EF077C2F8F10F
:10227800010120EE01F03151D9263251DA22DF5026
:102288000201776F31C1D9FF32C1DAFFDF50020195
:10229800786F000E02016E6F000E0201A16F020E30
:1022A8000201A26F31C100F132C101F1070E010133
:1022B800026F730E0101036F020E0101046F000E1D
:1022C8000101056F040E0101066F7CEC67F031C156
:1022D80000F132C101F1030E0101026F6F0E01011D
:1022E800036F020E0101046F000E0101056F040E59
:1022F8000101066F7CEC67F031C100F132C101F1D8
:10230800030E0101026F2FC103F130C104F1000E69
:102318000101056F040E0101066F7CEC67F00101F5
:1023280020EE0BF03151D9263251DA22DF5001016B
:10233800366F010136290201A36F31C100F132C1A4
:1023480001F10C0E0101026F790E0101036F020EFB
:102358000101046F000E0101056F01013351F40FF3
:102368000101066F7CEC67F001013351F40F0201A3
:102378009F6F010120EE01F03151D9263251DA2246
:10238800DF500101B56F010E0001BA6F2DC106F1D2
:102398002EC107F1EE0E0101086F020E0101096F4F
:1023A800040E01010A6FE6EC6EF0000E0101DD6F0C
:1023B8002DC121F12EC122F134C123F1010E0101F9
:1023C800246F010E0101256FC8EC3AF00101576F27
:1023D8006F0E0101156F020E0101166F57C117F13B
:1023E800A3C218F1000E0101196F010E01011A6F45
:1023F800BBEC1DF0090E02017819D8A405D0020122
:102408007A516EEC74F0EED002017939E842070B8C
:102418000101566F010156510101D8B41ED00101C6
:10242800C651D8B41AD00D0E010131250101006F33
:10243800000E010132210101016FF30E0101332564
:102448000101026F0101036BFF0E032356C104F162
:10245800EDEC5CF0010E1200C5D0010156510101EE
:10246800D8A409D00101C651D8A405D0F3D703D008
:10247800F1D71200B7D0020179511F0B0C0AD8B45A
:10248800E9D7020179511F0B1E0AD8A407D002010F
:102498007A51D8A403D0DED71200A4D0D8C248F10C
:1024A800D9C249F1DAC24AF1DBC24BF131C100F1BC
:1024B80032C101F1070E0101026F3B0E0101036FEA
:1024C800010E0101046F000E0101056F040E0101E8
:1024D800066F7CEC67F03B0E01010B6F010E0101EA
:1024E8000C6F480E01010D6F010E01010E6F8CEC8F
:1024F8003FF001013F69480E0101066F010E01011D
:10250800076FE40E0101086F010E0101096F040E47
:1025180001010A6FEDEC6DF00009D8A40AD0480E4D
:1025280001010E6F010E01010F6F76EC6AF00101D7
:102538003F6F6F0E0101066F020E0101076FF60E65
:102548000101086F020E0101096F040E01010A6FF3
:10255800E6EC6EF077C2F8F111EC74F00201776FD7
:10256800040E0201786F060E02016E6F000E020162
:10257800A16F020E0201A26F31C100F132C101F157
:10258800030E0101026F730E0101036F020E0101B8
:10259800046F000E0101056F040E0101066F7CEC4B
:1025A80067F0E80E0101066F010E0101076F6F0E5B
:1025B8000101086F020E0101096F040E01010A6F83
:1025C800E6EC6EF0000E0201A36F1D0E0201796F9A
:1025D8002C0E02017A6F020E02019F6F000E01019C
:1025E800DD6F00D0000E120012008AC12DF18BC1E0
:1025F8002EF1A30E01012F6F010E0101306F8CC166
:1026080031F18DC132F18EC133F18FC134F190C1F6
:1026180035F12CEC0CF00009D8B41200000E0101C1
:10262800A06F010120EE0CF08C51D9268D51DA22D1
:10263800DF501F0B0101A16F0101A7691B0E0101EA
:10264800A1650BD0010120EE0DF08C51D9268D51DA
:10265800DA22DF500101A76F00D0000E0101996F47
:102668000C0E01018C250101006F000E01018D2166
:102678000101016F020E0101026F0C0E01018C2590
:102688000101036F000E01018D210101046F060E87
:102698000101056F040E0101066F38EC6AF00009AC
:1026A800D8B426D00C0E01018C250101006F000E54
:1026B80001018D210101016F060E0101026F0C0E4F
:1026C80001018C250101036F000E01018D2101011B
:1026D800046F0A0E0101056F040E0101066F38EC44
:1026E8006AF00009D8B404D0010E0101996F00D036
:1026F80099C1A8F1000E01019A6F0C0E01018C25F9
:102708000101006F000E01018D210101016F030E0F
:102718000101026F0C0E01018C250101036F000EEF
:1027280001018D210101046F070E0101056F040EDF
:102738000101066F38EC6AF00009D8B426D00C0EF7
:1027480001018C250101006F000E01018D2101019D
:10275800016F070E0101026F0C0E01018C250101AA
:10276800036F000E01018D210101046F0B0E0101A1
:10277800056F040E0101066F38EC6AF00009D8B441
:1027880004D0010E01019A6F00D09AC19BF1D6EFD7
:1027980017F0F2EF17F01AD0F2EF17F0190E010147
:1027A8008E19D8A4F2EF17F00D0E01018C25010146
:1027B800186F000E01018D210101196F000E010132
:1027C8001A6FDFEC6BF0F2EF17F044D0010E010145
:1027D800A06FF2EF17F0010120EE0EF08C51D92610
:1027E8008D51DA22410EDE18D8A4F8D3010120EE6B
:1027F8000FF08C51D9268D51DA22530EDE18D8A449
:10280800EDD3010120EE10F08C51D9268D51DA223A
:10281800460EDE18D8A4E2D3F40E0101066F030EAB
:102828000101076F110E01018C250101086F000ECF
:1028380001018D210101096F0B0E01010A6FEDECF9
:102848006DF00009D8B4CAD3000E0101DE6F6CEC3C
:102858002EF0C4D30101A751030AD8B4B7D7290A67
:10286800D8B4B9D7BBD306D10101A8510101D8B456
:10287800B5D30E0E01018C250101186F000E010160
:102888008D210101196F000E01011A6FDFEC6BF049
:10289800A5D301019B510101D8B417D00F0E010136
:1028A8008C250101206F000E01018D210101216F8E
:1028B800010120EE0EF08C51D9268D51DA22DF501D
:1028C8000101226F95EC4CF089D3A30E0101186F1A
:1028D800010E0101196F2D0E01011A6F010120EE81
:1028E80001F08C51D9268D51DA22DF5001011B6F7E
:1028F800E4EC6FF073D301019B510101D8B417D0F8
:102908000F0E01018C2501010E6F000E01018D21B2
:1029180001010F6F010120EE0EF08C51D9268D5167
:10292800DA22DF500101106FE5EC48F057D3A30E0F
:102938000101186F010E0101196F2D0E01011A6FA7
:10294800010120EE01F08C51D9268D51DA22DF5099
:1029580001011B6FE4EC6FF041D30101A8510101A3
:10296800D8A43CD301D03AD3A30E0101186F010EAD
:102978000101196F2D0E01011A6F010120EE01F0FE
:102988008C51D9268D51DA22DF5001011B6FE4ECFE
:102998006FF024D30101A8510101D8B41FD30E0E42
:1029A80001018C250101186F000E01018D21010123
:1029B800196F9EEC6FF012D3010120EE0EF08C51CE
:1029C800D9268D51DA22520EDE18D8A419D0010169
:1029D80020EE0FF08C51D9268D51DA22530EDE18D5
:1029E800D8A40ED0010120EE10F08C51D9268D51BB
:1029F800DA22490EDE18D8A403D057EC74F0EED2D0
:102A0800A30E0101186F010E0101196F2D0E0101AE
:102A18001A6F010120EE01F08C51D9268D51DA226E
:102A2800DF5001011B6FE4EC6FF0D8D20101A8510F
:102A38000101D8B4D3D20E0E01018C250101186F03
:102A4800000E01018D210101196F44EC6EF0C6D210
:102A58000101A8510101D8B4C1D20E0E01018C2583
:102A68000101186F000E01018D210101196FEEECB3
:102A780065F0B4D20101A751000AD8B4F5D6040A0A
:102A8800D8B4ACD2240AD8B404D7010AD8B433D7FE
:102A9800030AD8B462D7010AD8B47CD7070AD8B4D5
:102AA8008BD7010AD8B4C2D70B0AD8B4D1D796D2DB
:102AB8005BD20E0E01018C2501012F6F000E010162
:102AC8008D210101306F63EC39F0A30E0101186FFD
:102AD800010E0101196F9EEC6FF080D28CC100F1DC
:102AE8008DC101F10E0E0101026FD70E0101036FB6
:102AF800000E0101046F000E0101056F040E0101B3
:102B0800066F7CEC67F00D0E01018C250101186F32
:102B1800000E01018D210101196F44EC6EF05ED2A7
:102B28008CC100F18DC101F10E0E0101026F8CC143
:102B380003F18DC104F1170E0101056F040E0101A7
:102B4800066F38EC6AF00009D8B499D08CC100F14E
:102B58008DC101F1170E0101026F8CC103F18DC106
:102B680004F1200E0101056F040E0101066F38EC17
:102B78006AF00009D8B483D08CC100F18DC101F18D
:102B8800120E0101026F8CC103F18DC104F11B0EFD
:102B98000101056F040E0101066F38EC6AF00009A7
:102BA800D8B46DD08CC100F18DC101F11B0E0101AB
:102BB800026F8CC103F18DC104F1240E0101056F70
:102BC800040E0101066F38EC6AF00009D8B457D03A
:102BD800010120EE1FF08C51D9268D51DA22010116
:102BE80010EE16F08C51E1268D51E222DE50E618E7
:102BF800D8A445D0010120EE28F08C51D9268D515A
:102C0800DA22010110EE1FF08C51E1268D51E222EB
:102C1800DE50E618D8A433D00E0E01018C25010130
:102C28002A6F000E01018D2101012B6F120E010187
:102C38008C2501012C6F000E01018D2101012D6FE2
:102C4800010120EE16F08C51D9268D51DA22DF5081
:102C580001012E6F98EC6EF0A30E0101186F010EA2
:102C68000101196F0E0E01018C2501011A6F000E6A
:102C780001018D2101011B6F21EC4BF0AFD1A30E97
:102C88000101186F010E0101196F2D0E01011A6F54
:102C9800010120EE01F08C51D9268D51DA22DF5046
:102CA80001011B6FE4EC6FF099D10E0E01018C2528
:102CB80001010E6F000E01018D2101010F6F46EC1D
:102CC80063F0A30E0101186F010E0101196F010EC7
:102CD80001011A6FDFEC6BF081D1010120EE0EF0DB
:102CE8008C51D9268D51DA22520EDE18D8A476D10D
:102CF800010120EE0FF08C51D9268D51DA22530EA6
:102D0800DE18D8A46BD1010120EE10F08C51D92621
:102D18008D51DA22540EDE18D8A460D1FF005ED19E
:102D2800010120EE0EF08C51D9268D51DA22530E76
:102D3800DE18D8A453D1010120EE0FF08C51D9260A
:102D48008D51DA22460EDE18D8A448D1010120EEB2
:102D580010F08C51D9268D51DA22540EDE18D8A4E1
:102D68003DD1A30E0101186F010E0101196F3FEC4F
:102D780066F0010120EE11F08C51D9268D51DA222E
:102D8800DF500001D56F150E0101276F7C0E266FED
:102D9800000E0101286F110E2AEC69F01FD1010104
:102DA80020EE0EF08C51D9268D51DA22530EDE1802
:102DB800D8A458D0010120EE0FF08C51D9268D519E
:102DC800DA22520EDE18D8A44DD0010120EE10F000
:102DD8008C51D9268D51DA22460EDE18D8A442D05D
:102DE800010120EE11F08C51D9268D51DA22040E02
:102DF800DF6038D0010120EE11F08C51D9268D51B9
:102E0800DA22DF500101986F010120EE12F08C5197
:102E1800D9268D51DA22DF500101916F01019151BC
:102E280001019D6F9E6B01019D5101019E6F9D6B7C
:102E3800010120EE13F08C51D9268D51DA22DF5092
:102E48000101916F0101915101019D27000E9E23FF
:102E58009DC126F19EC127F198C128F1010E2AECE7
:102E680069F0BCD0A30E0101186F010E0101196FA2
:102E78002D0E01011A6F010120EE01F08C51D926A7
:102E88008D51DA22DF5001011B6FE4EC6FF0A6D000
:102E98000101A8510101D8B4A1D0010120EE1BF015
:102EA8008C51D9268D51DA22DF500101916F010131
:102EB80091510101B06FB16B0101B0510101B16FC6
:102EC800B06B010120EE1AF08C51D9268D51DA220F
:102ED800DF500101916F010191510101B027000EEE
:102EE800B1230101B005090E0101B159D8A006D0DE
:102EF800000E0101B16F000EB06F70D0010120EE1D
:102F08001CF08C51D9268D51DA22DF500001D56F83
:102F18000E0E01018C250101186F000E01018D2193
:102F28000101196FA6EC6BF0010120EE1DF08C5128
:102F3800D9268D51DA22DF500101F06F1E0E0101F2
:102F48008C250101066F000E01018D210101076F1B
:102F5800F40E0101086F030E0101096F0B0E010148
:102F68000A6FE6EC6EF03AD00101A751040AD8B412
:102F78008FD7270AD8B49DD5060AD8B4AFD5030A87
:102F8800D8B4CED5010AD8B490D60F0AD8B4A5D6ED
:102F9800010AD8B423D0030AD8B4C2D66A0AD8B46E
:102FA800FED61CD00101A151000AD8B417D0020ADC
:102FB800D8B40CD4060AD8B411D0080AD8B4D2EFC1
:102FC80013F0100AD8B40AD0010AD8B443D4030ABB
:102FD800D8B450D5010AD8B4C7D700D00101A05140
:102FE8000101D8A420D00C0E01018C250101816FAC
:102FF800000E01018D210101826F8FC183F1A30EA3
:103008000101846F010E0101856FA1C186F1A7C17D
:1030180087F101018E51F40F0101886F93EC46F09E
:103028000101A06F00D00101A0510101D8B4120024
:10303800E90E0101126FFF0E0101136F37EC31F039
:103048000101BE51D8A423D1010E0001BD6F0101B9
:103058008E51FD0F01019C6F000E0101016F020EE0
:10306800006F240E0101026FC8EC56F0000E01013A
:10307800016F020E006F240E0101026FC8EC56F0BA
:10308800000E0101016F020E006F9CC102F1C8EC35
:1030980056F0000E0101016F020E006F000E0101D3
:1030A800026FC8EC56F0000E01019F6F000E01017F
:1030B800016F020E006F010120EE03F08C51D9263A
:1030C8008D51DA22DF500101026FC8EC56F0010180
:1030D80020EE03F08C51D9268D51DA22DF50010100
:1030E8009F1B000E0101016F020E006F010120EE0F
:1030F80004F08C51D9268D51DA22DF500101026F7C
:10310800C8EC56F0010120EE04F08C51D9268D51FF
:10311800DA22DF5001019F1B000E0101016F020E30
:10312800006F010120EE05F08C51D9268D51DA226D
:10313800DF500101026FC8EC56F0010120EE05F0E6
:103148008C51D9268D51DA22DF5001019F1B000EC8
:103158000101016F020E006F010120EE06F08C5193
:10316800D9268D51DA22DF500101026FC8EC56F0E2
:10317800010120EE06F08C51D9268D51DA22DF505C
:1031880001019F1B000E0101A26F38D0000E010142
:10319800016F020E006F0101A2510101916F926B44
:1031A8000C0E01019127000E92230101915101019A
:1031B8008C25D96E0101925101018D21DA6EDF5003
:1031C8000101026FC8EC56F00101A2510101916F93
:1031D800926B0C0E01019127000E9223010191516F
:1031E80001018C25D96E0101925101018D21DA6E00
:1031F800DF5001019F1B0101A22B00D0F70E010136
:10320800916FFF0E0101926F01019C510101936FB3
:10321800946B010191510101932701019251010120
:1032280094230101A2510101956F966B01019351FD
:103238000101955D01019651800A0101976F010115
:103248009451800A01019759D8A0A0D7000E010116
:10325800016F020E006F9FC102F1C8EC56F0000E1C
:103268000101016F020E006F0D0E0101026FC8EC23
:1032780056F0000E0101016F020E006F0A0E0101E7
:10328800026FC8EC56F0000E0001BD6F00D0D70EDB
:103298000101126FFF0E0101136F37EC31F01200BC
:1032A800120001015A6F02016E51D8A414D0000116
:1032B800BA51D8A410D00201A051D8A40CD0010151
:1032C8004A05D8A408D0010E0101486F01015A51DE
:1032D8002DEC74F008D0000E0101486F01015A511D
:1032E8002DEC74F000D08F0E01015B6F030E01010D
:1032F8005C6FD3EC74F00009D8A416D0E4C20CF1CA
:10330800E5C20DF1D9EC61F0010E01010C250201B5
:103318002E6F000E01010D2102012F6F000E020118
:10332800E76F000EE66F00D0BBEC74F00009D8B46C
:10333800DED00201A051D8B47BD001015A5101015D
:10334800D8B476D0000E0201A06F5BC1D9FF5CC172
:10335800DAFF78C2DFFF010120EE01F05B51D926C8
:103368005C51DA2277C2DFFF010120EE02F05B51E7
:10337800D9265C51DA22B5C1DFFF6F0E0101006F5B
:10338800020E0101016F000E0101026F5BC103F122
:103398005CC104F1030E0101056F040E0101066F03
:1033A8007CEC67F0730E0101006F020E0101016FE2
:1033B800000E0101026F5BC103F15CC104F1070E4D
:1033C8000101056F040E0101066F7CEC67F0010135
:1033D80020EE0BF05B51D9265C51DA22A3C2DFFF45
:1033E800790E0101006F020E0101016F000E01014B
:1033F800026F5BC103F15CC104F10C0E0101056FA2
:103408009FC206F17CEC67F0E40E0101326F010EF9
:103418000101336F840E0101346F030E0101356F12
:1034280002019F510C0F0101366F65EC5DF05BD016
:1034380002012E510201E61956E102012F51020143
:10344800E719D8A450D001015A510101D8B442D08B
:10345800C3EC74F00009D8B43DD00101F451D8B4DC
:1034680027D075EC28F00101516FE40E0101326F8D
:10347800010E0101336F840E0101346F030E010147
:10348800356F51C136F165EC5DF00009D8A42BD039
:1034980001D029D00201E45102012E5D0201E5515B
:1034A80002012F59D8B01FD002012E4B2F2B1BD051
:1034B800E40E0101326F010E0101336F840E010128
:1034C800346F030E0101356F000E0101366F65EC94
:1034D8005DF009D0A90E0101126FFE0E0101136FF4
:1034E80037EC31F000D00201E64BE72BDBD2D0C23B
:1034F80056F1D1C257F1D2C258F1D3C259F10101E4
:10350800DD51D8A4C1D00101DD2B0201A151D8A4FD
:10351800B8D0010E02016E65C5D2730E01010B6FA2
:10352800020E01010C6F560E01010D6F010E010113
:103538000E6F8CEC3FF00101526F0001BA51D8B404
:1035480016D0560E0101066F010E0101076FEE0E2F
:103558000101086F020E0101096F040E01010A6FD3
:10356800EDEC6DF00009D8A49DD201D09BD2A2C287
:103578000CF101010D6BD9EC61F001010C51020154
:10358800A16F01015A510101D8B48CD202016E0712
:103598000201A22B1F0E0101526184D25BC1D9FF27
:1035A8005CC1DAFF78C2DFFF010120EE01F05B5158
:1035B800D9265C51DA2277C2DFFF010120EE02F042
:1035C8005B51D9265C51DA22B5C1DFFF6F0E0101CC
:1035D800006F020E0101016F000E0101026F5BC155
:1035E80003F15CC104F1030E0101056F040E010132
:1035F800066F7CEC67F0730E0101006F020E01018B
:10360800016F000E0101026F5BC103F15CC104F19F
:10361800070E0101056F040E0101066F7CEC67F0CF
:10362800010120EE0BF05B51D9265C51DA22A3C2CE
:10363800DFFF790E0101006F020E0101016F000E1C
:103648000101026F5BC103F15CC104F10C0E0101C1
:10365800056F9FC206F17CEC67F0560E0101326FD0
:10366800010E0101336F840E0101346F030E010155
:10367800356F02019F510C0F0101366F65EC5DF04B
:1036880011D20201A1070ED20101DD05D8A4E8D0AC
:103698000001BA51D8B4E4D00101DD2B730E010149
:1036A8000B6F020E01010C6F560E01010D6F010E1A
:1036B80001010E6F8CEC3FF00101536F010E020106
:1036C8006E659CD0560E0101066F010E0101076F51
:1036D800EE0E0101086F020E0101096F040E0101CF
:1036E8000A6FEDEC6DF00009D8B488D0000E020125
:1036F8006E6F000E0201A16F020E0201A26F01019E
:103708005A510101D8B4CED11F0E01015361CAD15B
:10371800000E0001BA6F5BC1D9FF5CC1DAFF78C245
:10372800DFFF010120EE01F05B51D9265C51DA225E
:1037380077C2DFFF010120EE02F05B51D9265C5110
:10374800DA22B5C1DFFF6F0E0101006F020E010121
:10375800016F000E0101026F5BC103F15CC104F14E
:10376800030E0101056F040E0101066F7CEC67F082
:10377800730E0101006F020E0101016F000E0101BD
:10378800026F5BC103F15CC104F1070E0101056F13
:10379800040E0101066F7CEC67F0010120EE0BF0CE
:1037A8005B51D9265C51DA22A3C2DFFF790E0101F1
:1037B800006F020E0101016F000E0101026F5BC173
:1037C80003F15CC104F10C0E0101056F9FC206F103
:1037D8007CEC67F0560E0101326F010E0101336F68
:1037E800840E0101346F030E0101356F02019F51F0
:1037F8000C0F0101366F65EC5DF054D1000E00012D
:10380800BA6F5BC1D9FF5CC1DAFF020EDF6E01013E
:1038180020EE01F05B51D9265C51DA22000EDF6EF2
:10382800010120EE02F05B51D9265C51DA22B5C1C4
:10383800DFFF01015A510101D8B434D1EE0E010164
:10384800326F020E0101336F840E0101346F030ED3
:103858000101356F030E0101366F65EC5DF022D171
:10386800020E0101DD651BD102016E05D8A413D13A
:10387800730E01010B6F020E01010C6F560E010150
:103888000D6F010E01010E6F8CEC3FF00101546FBA
:1038980001015569560E0101066F010E0101076FFE
:1038A800E40E0101086F010E0101096F040E010108
:1038B8000A6FEDEC6DF00009D8A40BD0560E01018B
:1038C8000E6F010E01010F6F76EC6AF00101556F62
:1038D80000D0040E02017819D8B414D06F0E01017B
:1038E800066F020E0101076FE80E0101086F010E55
:1038F8000101096F040E01010A6FEDEC6DF000097A
:10390800D8B40AD0000E02016E6F000E0201A16F3A
:10391800020E0201A26FBFD06F0E0101066F020EE8
:103928000101076FE80E0101086F010E0101096F1F
:10393800040E01010A6FEDEC6DF00009D8A4ABD0BC
:1039480001D0A9D06F0E0101066F020E0101076FA9
:10395800F60E0101086F020E0101096F040E010144
:103968000A6FE6EC6EF077C2F8F111EC74F0020120
:10397800776F040E0201786F060E02016E6F000E5B
:103988000201A16F020E0201A26F730E0101066F00
:10399800020E0101076F4D0E0101086F010E0101B2
:1039A800096F040E01010A6FE6EC6EF06F0E01015B
:1039B800066F020E0101076F730E0101086F020EF8
:1039C8000101096F040E01010A6FE6EC6EF0E80EC2
:1039D8000101066F010E0101076F6F0E0101086FEB
:1039E800020E0101096F040E01010A6FE6EC6EF088
:1039F800000E0201A36F1D0E0201796F2B0E02014A
:103A08007A6F4D0E0101006F010E0101016F000E6A
:103A18000101026F790E0101036F020E0101046FAB
:103A2800020E0101056F040E0101066F7CEC67F0C0
:103A3800560E0101006F010E0101016F000E010118
:103A4800026F790E0101036F020E0101046F060E69
:103A58000101056F040E0101066F7CEC67F054C18B
:103A680083F255C184F201015551060D040EF32667
:103A7800000EF422BD0EF324D96E0A0EF420DA6E7D
:103A8800DF500F0B0201856F0D0E02019F6F000EB4
:103A98000101DD6F00D0000E0101DD6F03D00101CF
:103AA800DD2B00D0D3EC74F00009D8A40CD00201AF
:103AB800632B020E0201636506D0A7EC49F0000EE5
:103AC8000201636F00D00101B72B0101F35101011D
:103AD800B75DD8A03FD00101B651020DC90EF3243D
:103AE800D96E080EF420DA6EDF38E832E832030BBC
:103AF8000009D8B422D0010E01014B6F0101B65163
:103B0800020DC90EF324D96E080EF420DA6EDF38E0
:103B180001014C6F4C334C31030B4C6F01014B517D
:103B280001014C5F01014C3B4C374C37DF50010120
:103B38004C193F0B4C19DF6E00D00101B62BF90E62
:103B48000101B66503D0000E0101B66F000E010138
:103B5800B76F00D0070E6CEC70F00009D8B41200F3
:103B68002AEC3CF0010E0101F46F1200120015C19D
:103B780006F116C107F1E80E0101086F010E0101F7
:103B8800096F040E01010A6FEDEC6DF00009D8A46D
:103B9800120001D0120001011729D8B4120001D077
:103BA8001200030E0101086F01011751060D050EE1
:103BB800F326000EF422BD0EF324D96E0A0EF4206B
:103BC800DA6EDF50C7EC45F00101196151D0030EE0
:103BD8000101086F01011751060D050EF326000EAD
:103BE800F422BD0EF324D96E0A0EF420DA6EDF50EB
:103BF800C7EC45F001011B6F01011751060D040EBA
:103C0800F326000EF422BD0EF324D96E0A0EF4201A
:103C1800DA6EDF380F0B51EC71F001011B5DD8B083
:103C280012D001011751060D040EF326000EF422DE
:103C3800BD0EF324D96E0A0EF420DA6EDF380F0BAE
:103C480051EC71F03AD0030E0101086F01011751D0
:103C5800060D050EF326000EF422BD0EF324D96ED0
:103C68000A0EF420DA6EDF50C7EC45F026D02BD0D0
:103C780001011751060D040EF326000EF422BD0EA5
:103C8800F324D96E0A0EF420DA6EDF380F0B51ECEC
:103C980071F00101196114D001011751060D040ECC
:103CA800F326000EF422BD0EF324D96E0A0EF4207A
:103CB800DA6EDF380F0B51EC71F001011F6F03D082
:103CC80019C11FF100D0000E0101206FF90E01018A
:103CD800206501D06BD215C104F116C105F10101AF
:103CE8002051F9EC5AF00009D8B45DD201012051F5
:103CF800020DC90EF324D96E080EF420DA6EDF50D7
:103D08003F0BA4EC64F001011C6F01012051020D6E
:103D1800010EF326000EF422C90EF324D96E080E04
:103D2800F420DA6EDF38E832070B01011B6F01015E
:103D38001C5101011B5DD8B019D01CC11BF1010138
:103D48002051020D010EF326000EF422C90EF324B1
:103D5800D96E080EF420DA6E01011B3B1B47DF50B9
:103D680001011B191F0B1B19DF6E00D001011A512D
:103D78000101D8B42DD001012051020D010EF32606
:103D8800000EF422C90EF324D96E080EF420DA6E60
:103D9800DF5001011819E00B1819DF6E01012051DD
:103DA800020DC90EF324D96E080EF420DA6EDF5026
:103DB80001011719C00B1719DF6E01012051020DFF
:103DC800C90EF324D96E080EF420DA6EC00EDF1285
:103DD80001012051020DC90EF324D96E080EF420FA
:103DE800DA6EDF503F0B01011719D8A444D01FC168
:103DF8001BF101012051020D010EF326000EF422E1
:103E0800C90EF324D96E080EF420DA6E01011B3BAB
:103E18001B47DF5001011B191F0B1B19DF6E010126
:103E28002051020D010EF326000EF422C90EF324D0
:103E3800D96E080EF420DA6EDF501F0B0101181935
:103E4800D8B405D001011751F2EC71F000D001018E
:103E58002051020D010EF326000EF422C90EF324A0
:103E6800D96E080EF420DA6EDF5001011819E00B44
:103E78001819DF6E120001012051020DC90EF3243A
:103E8800D96E080EF420DA6EDF38E832E832030B18
:103E98000009D8A4120001012051020D010EF326D9
:103EA800000EF422C90EF324D96E080EF420DA6E3F
:103EB800DF38E832070B070AD8A43BD001012051AC
:103EC800020D010EF326000EF422C90EF324D96E5A
:103ED800080EF420DA6EDF5001011819E00B1819EA
:103EE800DF6E01012051020DC90EF324D96E080EB0
:103EF800F420DA6EDF5001011719C00B1719DF6EB5
:103F08001FC11BF101012051020D010EF326000E05
:103F1800F422C90EF324D96E080EF420DA6E0101DA
:103F28001B3B1B47DF5001011B191F0B1B19DF6EC1
:103F3800120001012051020D010EF326000EF42299
:103F4800C90EF324D96E080EF420DA6EDF501F0B69
:103F58000101186145D001011F510001D65DD8A0AB
:103F6800120001012051020D010EF326000EF42269
:103F7800C90EF324D96E080EF420DA6EDF50010161
:103F88001819E00B1819DF6E01012051020DC90E36
:103F9800F324D96E080EF420DA6EDF5001011719E8
:103FA800C00B1719DF6E1FC11BF101012051020D53
:103FB800010EF326000EF422C90EF324D96E080E62
:103FC800F420DA6E01011B3B1B47DF5001011B196E
:103FD8001F0B1B19DF6E01011751F2EC71F0120073
:103FE80001012051020D010EF326000EF422C90E24
:103FF800F324D96E080EF420DA6EDF501F0B01018E
:104008001819D8A461D001012051020D010EF32620
:10401800000EF422C90EF324D96E080EF420DA6ECD
:10402800DF38E832070B01011F611200010120513E
:10403800020D010EF326000EF422C90EF324D96EE8
:10404800080EF420DA6EDF38E832070B0001D6617B
:10405800120001012051020D010EF326000EF42278
:10406800C90EF324D96E080EF420DA6EDF50010170
:104078001819E00B1819DF6E01012051020DC90E45
:10408800F324D96E080EF420DA6EDF5001011719F7
:10409800C00B1719DF6E1FC11BF101012051020D62
:1040A800010EF326000EF422C90EF324D96E080E71
:1040B800F420DA6E01011B3B1B47DF5001011B197D
:1040C8001F0B1B19DF6E120001012051020D010E9A
:1040D800F326000EF422C90EF324D96E080EF4203C
:1040E800DA6EDF501F0B01011B6F0101185101012E
:1040F8001B5DD8B012000001D65101011F5DD8B078
:10410800120001012051020D010EF326000EF422C7
:10411800C90EF324D96E080EF420DA6EDF38E832BF
:10412800070B0001D661120001012051020D010E9A
:10413800F326000EF422C90EF324D96E080EF420DB
:10414800DA6EDF5001011819E00B1819DF6E010152
:104158002051020DC90EF324D96E080EF420DA6E30
:10416800DF5001011719C00B1719DF6E1FC11BF1B2
:1041780001012051020D010EF326000EF422C90E92
:10418800F324D96E080EF420DA6E01011B3B1B479D
:10419800DF5001011B191F0B1B19DF6E010117519D
:1041A800F2EC71F012000101202B90D51F0E0101D5
:1041B800186160D0000E01011E6FF90E01011E6525
:1041C80001D058D0E40E0101046F010E0101056F02
:1041D80001011E51F9EC5AF00009D8B447D015C1B5
:1041E80007F116C108F101011E519DEC68F00101AB
:1041F8001E51020D010EF326000EF422C90EF324FF
:10420800D96E080EF420DA6EDF5001011819E00BA0
:104218001819DF6E01011E51020DC90EF324D96E63
:10422800080EF420DA6EDF5001011719C00B1719B8
:10423800DF6E1FC11BF101011E51020D010EF32695
:10424800000EF422C90EF324D96E080EF420DA6E9B
:1042580001011B3B1B47DF5001011B191F0B1B19D9
:10426800DF6E01011751F2EC71F0120001011E2BF3
:10427800A4D700D01F0E010118611200AEC01DF1B5
:10428800F90E01011D6502D01200120001011D5135
:10429800020D010EF326000EF422C90EF324D96E86
:1042A800080EF420DA6EDF501F0B1F0AD8B40ED0A8
:1042B80001011D51020DC90EF324D96E080EF42018
:1042C800DA6EDF503F0B3F0AD8A454D015C107F16E
:1042D80016C108F10001AE519DEC68F00001AE5125
:1042E800020D010EF326000EF422C90EF324D96E36
:1042F800080EF420DA6EDF5001011819E00B1819C6
:10430800DF6E0001AE51020DC90EF324D96E080EFE
:10431800F420DA6EDF5001011719C00B1719DF6E90
:104328001FC11BF10001AE51020D010EF326000E54
:10433800F422C90EF324D96E080EF420DA6E0101B6
:104348001B3B1B47DF5001011B191F0B1B19DF6E9D
:104358000001AE51020DC90EF324D96E080EF420E7
:10436800DA6E3F0EDF1601011751F2EC71F01DC134
:10437800AEF01200F90E01011D19D8A404D0000EE8
:104388000001AE6F00D001011D2BF90E01011D6562
:104398007DD7120012001200000E496E000E4A6E00
:1043A800000E0001B16F000E0001B86F020E6CEC38
:1043B80070F00009D8B435D1010E496E0001B22B56
:1043C800020E0001B219D8A4FBD0000E0001B26F92
:1043D800F7D0000E0001B16F000E0101276F1E0E0D
:1043E800266F000E0101286F020E2AEC69F019D120
:1043F800010E0001B16F000E0101276F1E0E266F1E
:10440800000E0101286F020E2AEC69F00AD10001A2
:10441800B205D8A404D0010E0001B16F00D0000E7F
:104428000101276F400E266F000E0101286F020E52
:104438002AEC69F0F6D00001B205D8A404D0010E28
:104448000001B16F00D0000E0101276F7D0E266FAD
:10445800000E0101286F020E2AEC69F0E2D000D0AC
:104468000001B205D8A404D0010E0001B16F00D03C
:10447800000E0101276FFA0E266F000E0101286F4A
:10448800020E2AEC69F0CDD00001B205D8A404D000
:10449800010E0001B16F00D0010E0101276FF40E6B
:1044A800266F000E0101286F020E2AEC69F0B9D0C0
:1044B8000001B205D8A404D0010E0001B16F00D0EC
:1044C800030E0101276FE80E266F000E0101286F09
:1044D800020E2AEC69F0A5D00001B205D8A404D0D8
:1044E800010E0001B16F00D0090E0101276FC40E43
:1044F800266F000E0101286F020E2AEC69F091D098
:104508000001B205D8A404D0010E0001B16F00D09B
:10451800130E0101276F880E266F000E0101286F08
:10452800020E2AEC69F07DD00001B205D8A421D092
:10453800010E0001B16F3850D8A40DD0000E010152
:10454800276F500E266F000E0101286F020E2AEC0D
:1045580069F0010E0CD0090E0101276F740E266F49
:10456800000E0101286F020E2AEC69F0000E386E69
:1045780058D03850D8B40CD0000E0101276F500E17
:10458800266F000E0101286F020E2AEC69F049D04F
:10459800090E0101276F740E266F000E0101286FA6
:1045A800020E2AEC69F03DD0000E0101276F1E0EA5
:1045B800266F000E0101286F020E2AEC69F031D037
:1045C8000001B051000AD8B404D7010AD8B410D7F2
:1045D800030AD8B41CD7010AD8B42DD7070AD8B40F
:1045E8003FD7010AD8B450D7030AD8B461D70D0A07
:1045F800D8B436D7070AD8B433D7010AD8B430D7D5
:10460800030AD8B42DD7010AD8B42AD71F0AD8B4B8
:1046180063D7010AD8B474D7030AD8B485D7C4D7E6
:1046280000D0030E6CEC70F00009D8B435D1010E3F
:104638004A6E0001B32B020E0001B319D8A4FBD0B7
:10464800000E0001B36FF7D0000E0001B86F000E26
:104658000101276F1E0E266F000E0101286F030E41
:104668002AEC69F019D1010E0001B86F000E0101A2
:10467800276F1E0E266F000E0101286F030E2AEC0D
:1046880069F00AD10001B305D8A404D0010E0001D5
:10469800B86F00D0000E0101276F400E266F000E84
:1046A8000101286F030E2AEC69F0F6D00001B3056A
:1046B800D8A404D0010E0001B86F00D0000E01018B
:1046C800276F7D0E266F000E0101286F030E2AEC5E
:1046D80069F0E2D000D00001B305D8A404D0010EDF
:1046E8000001B86F00D0000E0101276FFA0E266F87
:1046F800000E0101286F030E2AEC69F0CDD00001ED
:10470800B305D8A404D0010E0001B86F00D0010E83
:104718000101276FF40E266F000E0101286F030EAA
:104728002AEC69F0B9D00001B305D8A404D0010E71
:104738000001B86F00D0030E0101276FE80E266F45
:10474800000E0101286F030E2AEC69F0A5D00001C4
:10475800B305D8A404D0010E0001B86F00D0090E2B
:104768000101276FC40E266F000E0101286F030E8A
:104778002AEC69F091D00001B305D8A404D0010E49
:104788000001B86F00D0130E0101276F880E266F45
:10479800000E0101286F030E2AEC69F07DD000019C
:1047A800B305D8A421D0010E0001B86F3B50D8A49E
:1047B8000DD0000E0101276F500E266F000E01016B
:1047C800286F030E2AEC69F0010E0CD0090E0101C6
:1047D800276F740E266F000E0101286F030E2AEC56
:1047E80069F0000E3B6E58D03B50D8B40CD0000E88
:1047F8000101276F500E266F000E0101286F030E6E
:104808002AEC69F049D0090E0101276F740E266F52
:10481800000E0101286F030E2AEC69F03DD0000E4E
:104828000101276F1E0E266F000E0101286F030E6F
:104838002AEC69F031D00001B751000AD8B404D786
:10484800010AD8B410D7030AD8B41CD7010AD8B4BF
:104858002DD7070AD8B43FD7010AD8B450D7030ACE
:10486800D8B461D70D0AD8B436D7070AD8B433D725
:10487800010AD8B430D7030AD8B42DD7010AD8B45E
:104888002AD71F0AD8B463D7010AD8B474D7030A41
:10489800D8B485D7C4D700D0090E0001B019D8A460
:1048A8000CD04A50D8B409D00001B3510001D8A4A3
:1048B80004D0010E0001B16F00D00A0E0001B71933
:1048C800D8A40CD04950D8B409D00001B251000185
:1048D800D8A404D0010E0001B86F00D0080E000162
:1048E800B019D8A40CD04A50D8B409D00001B85196
:1048F8000001D8B404D0010E0001B16F00D0070E3A
:104908000001B719D8A40CD04950D8B409D0000177
:10491800B1510001D8B404D0010E0001B86F00D025
:104928000001B8510001D8B40DD03A50D8B402D023
:104938003A0600D00001B6510001D8B403D00001F6
:10494800B60700D00001B1510001D8B40DD03750DE
:10495800D8B402D0370600D00001AF510001D8B456
:1049680003D00001AF0700D00001AF510001D8B457
:1049780003D0000E0001B16F0001B6510001D8B498
:1049880003D0000E0001B86F3750D8B424D035D00A
:1049980022D00A0E0001AF6F0001AF51040F13D0EF
:1049A8000A0E0001AF6F0001AF51030F0CD00A0EC1
:1049B8000001AF6F0001AF51020F05D00A0E0001D0
:1049C800AF6F0001AF29376E18D00A0E0001AF6F24
:1049D800AFC037F012D00001B0510B0AD8B4D9D704
:1049E800070AD8B4DDD7010AD8B4E1D7030AD8B486
:1049F800E5D7010AD8B4E9D700D03A50D8B424D0C2
:104A080035D022D00A0E0001B66F0001B651040F4E
:104A180013D00A0E0001B66F0001B651030F0CD077
:104A28000A0E0001B66F0001B651020F05D00A0E3A
:104A38000001B66F0001B6293A6E18D00A0E0001BF
:104A4800B66FB6C03AF012D00001B7510B0AD8B40D
:104A5800D9D7070AD8B4DDD7010AD8B4E1D7030AF1
:104A6800D8B4E5D7010AD8B4E9D700D00001B151CC
:104A7800E4EC73F00001B851D8EC73F012000101B6
:104A8800416F0101C451D8A404D00101E151D8B447
:104A98004AD2800E0001B419D8B459D02CC00DF1F7
:104AA8002DC00EF1E8C20FF1E9C210F184EC6CF0F0
:104AB80001010D5101010E11D8A413D0000E0101FE
:104AC8000E6F0001C451010D000EF324D96E060EBD
:104AD800F420DA6EDF5092EC72F0010E0001BE6F26
:104AE80027D02CC10EF1C4C000F10101016BD3C164
:104AF80002F10101036BC90E0101046F000E056F7D
:104B0800000E066F000E076F6BEC6BF0000E0101D4
:104B18000025D96E060E01010121DA6EDF5092ECF4
:104B280072F0000E0001BE6F000E0101BF6F00D0D1
:104B3800020E0101E119D8A406D0010E0101C46FCB
:104B4800000E0101E16F000E0101DF6F2BD0020E94
:104B58000101E119D8A407D0010E0101C46F000EAC
:104B68000101E16F1FD00101DF2B010E0101DF659B
:104B780019D0F25000D0070E78EC5AF0000E01015F
:104B8800C46F000E0101E16F010E0101F56F000E07
:104B98000101016F040E006F030E0101026FC8ECE2
:104BA80056F000D02C042D10D8A407D0010E436E67
:104BB800A2C034F0A3C035F000D0080E6CEC70F041
:104BC8000009D8B408D00101D051D8B404D0010EDE
:104BD8000101D76F00D0080E46EC72F00009D8B476
:104BE8002ED00101D051D8A41CD0FAC10CF101017A
:104BF8000D6BD9EC61F001010C510101D16F01017C
:104C0800D15100080101FA250101D06FD1C126F167
:104C18000101276B010E0101286F080E2AEC69F0CB
:104C28000ED0D0C126F10101276B010E0101286FBA
:104C3800080E2AEC69F0000E0101D06F00D00001C7
:104C4800C6510001D8A406D002013C5102013D1111
:104C5800D8B442D10001BE51D8B43ED1010141516E
:104C68000101D8B439D13EC22DF13FC22EF1010164
:104C78002D1F2E1F2D4B2E2B040E01010C6F010E24
:104C8800E2EC57F001012D5101010C250101466F9D
:104C980001012E5101010D210101476F46C12DF17E
:104CA80047C12EF101012D1F2E1F2D4B2E2B2DC17B
:104CB80044F12EC145F1080E0101475DD8A00BD083
:104CC800FE0E0101465D0F0E01014759D8B003D011
:104CD8000001C62B36D0010146290F0E01014759A4
:104CE800D8A00CD0FD0E0101465D170E01014759F1
:104CF800D8B004D0020E0001C62723D0080E010147
:104D0800455DD8A00BD0FE0E0101445D0F0E0101D8
:104D18004559D8B003D00001C60713D00101442972
:104D28000F0E01014559D8A00CD0FD0E0101445DBC
:104D3800170E01014559D8B004D0020E0001C65F14
:104D480000D0040E01010C6F010EE2EC57F00CC10B
:104D580046F10DC147F1A2C000F1A3C001F146C15F
:104D680002F147C103F1000E0101046F000E056F47
:104D7800010E066F000E076F6BEC6BF000C137F188
:104D880001C138F137C117F138C118F13CC219F126
:104D98003DC21AF1000E01011B6F000E1C6F010EBF
:104DA8001D6F000E1E6F4AEC5EF017C142F118C16C
:104DB80043F142C10DF143C10EF1070E0101106F1D
:104DC8000F6984EC6CF00DC13DF10EC13EF13DC19F
:104DD8000DF13EC10EF1040E01010F6F010E1EEC24
:104DE80044F001013D510101425F01013E510101C1
:104DF800435B42C1A2F043C1A3F042C106F143C1E3
:104E080007F1070E0101096F0869B6EC69F006C1E0
:104E18002CF007C12DF0C4C017F10101186BC6C0F2
:104E280019F101011A6BC90E01011B6F000E1C6FED
:104E3800000E1D6F000E1E6F4AEC5EF00101175147
:104E48000001C46FC6C02FF10101306B000E0001D4
:104E5800C66F000E02013D6F000E3C6F000E02018E
:104E6800336F000E326F2C502D10D8A408D0000ECE
:104E78002D6E100E2C6E30C2A2F031C2A3F0070EB8
:104E8800356E3468020E0101E16F040E01010C6FEA
:104E9800010EE2EC57F00001A25101010C250101BD
:104EA8003F6F0001A35101010D210101406FD3ECB7
:104EB80074F00101316F3FC133F10101405101012B
:104EC800326F000E0101016F040E006F020E010126
:104ED800026FC8EC56F023D00001C4510001D0196C
:104EE800D8A40BD00101C451D8B407D00101415155
:104EF8000101D8A414D001D012D00101D751D8B4DF
:104F08000ED0BFEC74F00009D8B409D001014151AA
:104F18000101D8B404D0000E0101D76F00D00201FE
:104F28004C4B4D2B4ED0060E46EC72F00009D8B40F
:104F38001CD0000E01010D6F320E0C6FD9EC61F020
:104F4800540E01010C250101396F240E01010D21B8
:104F580001013A6F39C126F13AC127F1000E01016A
:104F6800286F060E2AEC69F000D0060E6CEC70F083
:104F78000009D8B40DD0000E01010E6F0101FF51D8
:104F880092EC72F0000E0201EB6F010EEA6F00D096
:104F98000201EB510BE1330E0201EA5DD8B006D0F5
:104FA800D9EC72F00201EA4BEB2B00D0330E020170
:104FB800EA190201EB11D8A404D00201EA4BEB2B49
:104FC80000D00001D0510001D8A404D0C80E0001BF
:104FD800D06F03D00001D00700D0050E6CEC70F044
:104FE8000009D8A48AEC6DF0090E46EC72F00009AD
:104FF800D8B44CD0CBEC74F001012D6F01012D51C8
:105008003E0DF3CF3BF1F4CF3CF13BC108F13CC17D
:1050180009F1DCEC71F008C10BF109C10CF10AC10E
:105028000DF1000E01010E6F7A0E01010F6F440E93
:105038000101106FB5EC50F00BC134F10CC135F122
:105048000DC136F1000E01010B6F280E01010C6F26
:10505800430E01010D6F34C108F135C109F136C1A4
:105068000AF14CEC4DF008C117F109C118F10AC159
:1050780019F10CEC50F017C126F118C127F1010EF7
:105088000101286F090E2AEC69F000D0090E6CECBA
:1050980070F00009D8B417D0070E78EC5AF0000E5B
:1050A8000101C46F000E0101E16F010E0101F56FEE
:1050B800000E0101016F040E006F050E0101026F61
:1050C800C8EC56F000D00F0E6CEC70F00009D8B4A4
:1050D80004D0010E0101F56F00D00E0E6CEC70F0DB
:1050E8001200000E0101176F8F0E0101256F030ECC
:1050F8000101266F25C1D9FF26C1DAFF010EDF6E37
:10510800000E0101186F060E0101186F010E010152
:10511800226F010E0101226501D096D00001BC5119
:10512800060DBD0EF3240101066F0A0EF4200101DD
:10513800076FE40E0101086F010E0101096F040EEB
:1051480001010A6FEDEC6DF00009D8A449D0000107
:10515800BC51060D050EF326000EF422BD0EF324F5
:10516800D96E0A0EF420DA6EDE28D8B439D00001E0
:10517800BC51060DBD0EF3240101006F0A0EF42088
:105188000101016F000E0101026F25C103F126C163
:1051980004F1010E0101056F040E0101066F7CEC9C
:1051A80067F0010120EE05F02551D9262651DA22B3
:1051B800040E0101086F0001BC51060D050EF3260F
:1051C800000EF422BD0EF324E16E0A0EF420E26E06
:1051D800E750C7EC45F0DF6E010E0101176F03D0F1
:1051E8000101220700D03E0E0001BC6103D000017E
:1051F800BC2B27D0000E0001BC6F01011751010123
:10520800D8A422D0E40E0101006F010E0101016F44
:10521800000E0101026F25C103F126C104F1010E40
:105228000101056F040E0101066F7CEC67F00101B6
:1052380020EE05F02551D9262651DA22FF0EDF6E21
:1052480003D00101222B65D7000E01011C6F000E4F
:105258000101246F000E0101196FBBC016F11AD2AB
:105268000001CD51D8B4FCD001012451010D3E0EEE
:10527800F324D96E030EF420DA6EDF500101236F98
:105288001E0E01010C6F010E01010D6F010123516A
:105298004FEC64F0010E010124250101006F0101AA
:1052A800016B000E0123000E0101036F050E026F52
:1052B800CAEC70F0010E01010027000E0101012364
:1052C8000101005101012525D96E0101015101019A
:1052D8002621DA6E1EC1DFFF010E0101242501011E
:1052E800006F0101016B000E0123000E0101036F25
:1052F800050E026FCAEC70F0020E01010027000EC5
:10530800010101230101005101012525D96E010187
:10531800015101012621DA6E1FC1DFFF010E0101D3
:1053280024250101006F0101016B000E0123000E0D
:105338000101036F050E026FCAEC70F0030E010144
:105348000027000E0101012301010051010125255B
:10535800D96E0101015101012621DA6E20C1DFFF5A
:10536800010E010124250101006F0101016B000EEE
:105378000123000E0101036F050E026FCAEC70F0E5
:10538800040E01010027000E010101230101005153
:1053980001012525D96E0101015101012621DA6E8D
:1053A80021C1DFFF01012351020D010EF326000E7A
:1053B800F422C90EF324D96E080EF420DA6EDF3811
:1053C800E832070B0101146F050E0101156F010189
:1053D800D89014370101152FFAD701011451010192
:1053E8001A6F01012351020D010EF326000EF4225B
:1053F800C90EF324D96E080EF420DA6EDF501F0BA5
:1054080001011A27010E010124250101006F010184
:10541800016B000E0123000E0101036F050E026FE0
:10542800CAEC70F0050E01010027000E01010123EE
:105438000101005101012525D96E01010151010128
:105448002621DA6E1AC1DFFF050E01011C270101B2
:10545800242B0001CD51D8B41DD10001CD071AD19C
:10546800E40E0101046F010E0101056F0001BB513B
:10547800F9EC5AF00009D8A4F8D00001BB51020D8C
:10548800C90EF324D96E080EF420DA6EDF503F0BF4
:105498003F0AD8B4EAD01E0E01010C6F010E0101BB
:1054A8000D6F0001BB514FEC64F0010E0101242582
:1054B8000101006F0101016B000E0123000E0101C3
:1054C800036F050E026FCAEC70F0010E0101002790
:1054D800000E010101230101005101012525D96EAA
:1054E8000101015101012621DA6E1EC1DFFF010E03
:1054F800010124250101006F0101016B000E012348
:10550800000E0101036F050E026FCAEC70F0020E67
:1055180001010027000E01010123010100510101D1
:105528002525D96E0101015101012621DA6E1FC11D
:10553800DFFF010E010124250101006F0101016B4C
:10554800000E0123000E0101036F050E026FCAEC65
:1055580070F0030E01010027000E01010123010173
:10556800005101012525D96E0101015101012621B2
:10557800DA6E20C1DFFF010E010124250101006F51
:105588000101016B000E0123000E0101036F050EDE
:10559800026FCAEC70F0040E01010027000E010131
:1055A80001230101005101012525D96E0101015195
:1055B80001012621DA6E21C1DFFF0001BB51020D76
:1055C800010EF326000EF422C90EF324D96E080E3C
:1055D800F420DA6EDF38E832070B0101146F050E8C
:1055E8000101156F0101D89014370101152FFAD761
:1055F8000101145101011B6F0001BB51020D010E85
:10560800F326000EF422C90EF324D96E080EF420F6
:10561800DA6EDF501F0B01011B27010E0101242543
:105628000101006F0101016B000E0123000E010151
:10563800036F050E026FCAEC70F0050E010100271A
:10564800000E010101230101005101012525D96E38
:105658000101015101012621DA6E1BC1DFFF050E90
:1056680001011C270101242B00D0F90E0001BB61A8
:1056780003D00001BB2B04D0000E0001BB6F00D08B
:105688000001BB5101011619D8A404D0010E010173
:10569800196F00D0080E0101246107D001011951CA
:1056A8000101D8A402D0DCD500D0010118510101B4
:1056B8001C2501011D6F01011D51010DF350010150
:1056C8002525D96EF45001012621DA6EC9C0DFFF05
:1056D80001011D2B01011D511200120001012E5163
:1056E8000101D8B4F2D2C90E01013061EED22CC149
:1056F800D9FF2DC1DAFFDE28D8A456D00101E15127
:10570800D8A452D00101C451D8B422D0050E46EC19
:1057180072F00009D8B48DD2060E01010D6F0E0E7D
:105728000C6FD9EC61F01C0E01010C2501013B6FD7
:105738000C0E01010D2101013C6F3BC126F13CC15A
:1057480027F1000E0101286F050E2AEC69F071D2CD
:105758000E0E46EC72F00009D8B46BD2050E46EC7A
:1057680072F00009D8B41CD0060E01010D6F0E0EA0
:105778000C6FD9EC61F01C0E01010C2501013D6F85
:105788000C0E01010D2101013E6F3DC126F13EC104
:1057980027F1000E0101286F050E2AEC69F000D0F0
:1057A800010E0101C46F45D2020E01012E6541D2DE
:1057B800010120EE01F02C51D9262D51DA22DF50BB
:1057C8000101316F010131510101506F516B01012C
:1057D80050510101516F506B010120EE02F02C5124
:1057E800D9262D51DA22DF500101316F01013151E3
:1057F80001015027000E512350C133F151C134F13A
:10580800040E01010C6F010EE2EC57F00CC14CF1D3
:105818000DC14DF1B2C117F1B3C118F14CC119F165
:105828004DC11AF1FF0E01011B6F070E1C6F000E10
:105838001D6F000E1E6F4AEC5EF017C13FF118C1D4
:1058480040F1A2C000F1A3C001F14CC102F14DC169
:1058580003F1000E0101046F000E056F010E066FC3
:10586800000E076F6BEC6BF000C14EF101C14FF1F8
:105878004EC146F14FC147F14EC100F14FC101F190
:10588800000E0101036F3D0E026F000E0101046F4F
:10589800000E056F010E066F000E076F6BEC6BF0C4
:1058A80000C14CF101C14DF101012F510101D8B4E2
:1058B80015D04CC100F14DC101F1000E0101036F7B
:1058C800050E026F000E0101046F000E056F010E38
:1058D800066F000E076F6BEC6BF014D04CC100F133
:1058E8004DC101F1000E0101036F000E026F000EA1
:1058F8000101046F000E056F010E066F000E076FA1
:105908006BEC6BF000C14EF101C14FF150C117F1C2
:1059180051C118F13FC119F140C11AF1000E01013E
:105928001B6F000E1C6F010E1D6F000E1E6F4AECE0
:105938005EF017C14CF118C14DF14CC150F14DC189
:1059480051F14EC131F14FC132F10101311F321F06
:10595800314B322B010150510101312501014A6FB0
:10596800010151510101322101014B6F4AC131F14D
:105978004BC132F10101311F321F314B322BFF0E67
:10598800010131250101486FFF0E0101322101019A
:10599800496F2CC1D9FF2DC1DAFF01013051DE1842
:1059A800D8A414D0080E01014B5DD8A005D0800EF4
:1059B80001014B5DD8A00AD0080E0101495DD8A0AD
:1059C80075D0800E0101495DD8B070D00101F55144
:1059D800D8A404D00101C451D8A4D4D04EC117F121
:1059E8004FC118F150C119F151C11AF1000E01014E
:1059F8001B6F000E1C6F010E1D6F000E1E6F4AEC10
:105A08005EF017C13CF218C13DF24EC10DF14FC115
:105A18000EF1070E0101106F0F6984EC6CF00DC1D7
:105A280031F10EC132F150C10DF151C10EF1070E25
:105A38000101106F0F6984EC6CF001010D1F010169
:105A48000E1F01010D4B0E2B01010D5101013125D6
:105A580002013E6F01010E510101322102013F6F27
:105A680030C117F10101186B2CC1D9FF2DC1DAFF24
:105A7800DF500101316F010131510101196F1A6BBA
:105A8800C90E01011B6F000E1C6F000E1D6F000E6A
:105A98001E6F4AEC5EF0010117510001C66F010E3E
:105AA8000101E16F000E0101C46F6CD0010150517A
:105AB80001014E5D0101515101014F59D8B047D044
:105AC800800E01014B5DD8B042D001014E51000853
:105AD800010150250101456F010145510001A2272F
:105AE800000EA3234EC131F14FC132F10101311F24
:105AF800321F314B322B0101505101013125020176
:105B0800446F01015151010132210201456F020127
:105B180044510201465D0201455102014759D8B07E
:105B280016D04EC131F14FC132F10101311F321F80
:105B3800314B322B01015051010131250201466FD1
:105B480001015151010132210201476F00D00101C9
:105B5800C451D8B404D00101E151D8A404D0010E35
:105B68000101C46F00D00101465102015C5D0101D1
:105B7800475102015D59D8B005D046C15CF247C112
:105B88005DF200D0CBEC74F00101316F01013151AD
:105B98003E0DF3CF41F1F4CF42F141C108F142C1CA
:105BA80009F1DCEC71F008C10BF109C10CF10AC173
:105BB8000DF1000E01010E6F7A0E01010F6F440EF8
:105BC8000101106FB5EC50F00BC135F10CC136F185
:105BD8000DC137F1000E01010B6F280E01010C6F8A
:105BE800430E01010D6F35C108F136C109F137C106
:105BF8000AF14CEC4DF008C117F109C118F10AC1BE
:105C080019F10CEC50F017C126F118C127F1010E5B
:105C18000101286F090E2AEC69F0000E02014D6F90
:105C2800000E4C6F030E01012E6503D0010E120009
:105C380000D0CBEC74F00101316F010131513E0D00
:105C4800F3CF43F1F4CF44F143C108F144C109F162
:105C5800DCEC71F008C10BF109C10CF10AC10DF1BE
:105C6800000E01010E6F7A0E01010F6F440E010143
:105C7800106FB5EC50F00BC138F10CC139F10DC102
:105C88003AF1000E01010B6F280E01010C6F430E53
:105C980001010D6F38C108F139C109F13AC10AF1A2
:105CA8004CEC4DF008C117F109C118F10AC119F1FE
:105CB8000CEC50F017C126F118C127F1010E0101B3
:105CC800286F090E2AEC69F000D0000E12001200AD
:105CD800000E01015F6F000E0001C86F000E010188
:105CE800006F000E28EC70F0000E4C6E000E456E32
:105CF800200EEEEC53F0000E0001CC6F000E0101F7
:105D0800B86F0001D551CCEC73F0020EADEC70F019
:105D1800600EEEEC53F0000E01010E6F000E92ECD7
:105D280072F0190E0101276F640E266F000E010133
:105D3800286F110E2AEC69F0000E0101276F780E0A
:105D4800266F010E0101286F120E2AEC69F0010E70
:105D58000001BD6F04000101B951D8B409D0000E8B
:105D68000101B96F3E0EFFEC35F00101CC2B00D0DC
:105D78000101BB51D8B409D0000E0101BB6F200E40
:105D8800EEEC53F0600EEEEC53F00101BC51D8B4C8
:105D980007D0600EEEEC53F0000E0101BC6F00D08E
:105DA8000101BA51D8A404D00101B851D8B4ACD17A
:105DB800000E0101676F000E01016A6F000E696F26
:105DC800000E0101CC6F0101BA51D8B455D0000EB4
:105DD8000101BA6FFCEC73F00101EF6FFCEC73F09A
:105DE800000E0101656F1DD001016551010D460EC0
:105DF800F324D96E030EF420DA6EFCEC73F0DF6E38
:105E080001016551010D460EF324D96E030EF420ED
:105E1800DA6EDF50010167190101676F0101652B17
:105E280000D0FF0E0101546FFF0E0101556F0101F3
:105E3800EF510101566F576B01015451010156276B
:105E48000101555101015723010165510101586FA5
:105E5800596B010156510101585D01015951800AE0
:105E680001015A6F01015751800A01015A59D8A0FE
:105E7800BBD7000E0001CC6F0101B851D8B41DD0BA
:105E8800000E0101666F3A0E0101666501D011D05E
:105E980001016651010D460EF324D96E030EF4205C
:105EA800DA6EDF50010167190101676F0101662B86
:105EB800EAD7000E0101B86F00D047C369F10101AC
:105EC8006A6B0101695101016A6F696B03014651EF
:105ED80001016927000E6A230101DE510101D8B4CE
:105EE8001CD0D00E0101546FCA0EE82EFED7542FD5
:105EF800FCD7D00E0101546FCA0EE82EFED7542FDE
:105F0800FCD7090E01016A5DD8B0DCD069C114F173
:105F18006AC115F117EC6CF0D5D0010E01015F6F65
:105F2800010167510101D8A4CDD001D0CBD0010126
:105F3800AE510101691905E10101AF5101016A1969
:105F4800D8A4C0D00101AE510101AF11D8A42BD003
:105F5800000E0101616F000E626F000E636F000E8C
:105F6800646F010164511FE1100E0101625D020EB0
:105F780001016359D8B017D001D015D061C105F11E
:105F880062C106F163C107F164C108F1C6EC71F0A2
:105F9800000E01016127100E6223000E6323000E1C
:105FA8006423DFD700D0000E0101686F370E0101AE
:105FB800686501D044D0AEC100F1AFC101F1000E57
:105FC8000101036F380E026FCAEC70F00101005135
:105FD8000101682501015B6F0101015101015C6F3D
:105FE800000E01015C2301015D6B01015D230101CC
:105FF8005E6B5BC105F15CC106F15DC107F15EC175
:1060080008F101016851010D020EF326000EF42279
:10601800460EF3240101096F030EF42001010A6FF3
:10602800040E01010B6F000E0C6F000E0D6F000EB9
:106038000E6FC6EC67F0040E01016827B7D701019F
:10604800AE4BAF2B0101B0510101AE193BE101018B
:10605800B1510101AF19D8A435D0000E0101056F67
:10606800000E066F020E076F000E086FF00E01019A
:10607800096F010E01010A6F010E01010B6F000E7D
:106088000C6F000E0D6F000E0E6FC6EC67F0010E60
:106098000101056F000E066F020E076F000E086FF4
:1060A800F40E0101096F030E01010A6F0B0E0101C5
:1060B8000B6F000E0C6F000E0D6F000E0E6FC6EC0E
:1060C80067F000D0030E0101276FE80E266F000E5F
:1060D8000101286F110E2AEC69F00101DE5101015E
:1060E800D8B412D00101695101016A11D8A40CD0A9
:1060F800270E0101276F100E266F000E0101286F71
:10610800110E2AEC69F000D00101DE510101D8A47A
:1061180024D0020E0101CC6506D0010E01015F6F8B
:10612800000E0101CC6F01015F510101D8B415D0F7
:106138000101B0510101AE5D0101B1510101AF5939
:10614800D8B007D0AEC10AF1AFC10BF16EEC72F056
:1061580000D0000E01015F6F00D0000E0101016F39
:10616800010E006FF10E0101026F010E0101036FB4
:10617800AFEC52F00009D8B438D0000E01010C6F12
:10618800040E01010D6FEE0E01010E6F010E0101EB
:106198000F6F0101F1515FEC3DF00009D8B425D033
:1061A80004010151C00B0101606F01016045E8461F
:1061B800030B0101606F030E01016019D8A415D00B
:1061C800020E0101066F040E0101076F460E010160
:1061D800086F030E0101096F3B0E01010A6FE6EC1F
:1061E8006EF0010E0101B86F00D0020E6CEC70F079
:1061F8000009D8B405D0937693B602D08A9600D019
:10620800110E6CEC70F00009D8B402D0FF0000D079
:10621800020E46EC72F00009D8B40BD0000E010152
:10622800276FFA0E266F000E0101286F020E2AEC66
:1062380069F0110E46EC72F00009D8B40BD0030EC9
:106248000101276FE80E266F000E0101286F110E5D
:106258002AEC69F0120E6CEC70F00009D8B47AD50B
:10626800FF0078D51200140E0101266F010E0101FE
:10627800276F4CD2250E01012D19D8B405D0010184
:106288002D512EEC73F042D2000E01012C6F000E3E
:106298002B6F000E01012A6F07D001012A85010129
:1062A800124B132B01D00BD012C1F6FF13C1F7FF0D
:1062B8000800F550300AD8B4F0D701D0F5D712C18C
:1062C800F6FF13C1F7FF0800F55081EC71F0D8A074
:1062D800A5D0000E01012C6F000E2B6F00D02BC132
:1062E80000F12CC101F1000E0101036F0A0E026FCB
:1062F800CAEC70F000C12BF101C12CF1D00E0101E4
:106308001C6FFF0E01011D6F12C1F6FF13C1F7FFCD
:106318000800F55001011E6F1F6B01011C5101019E
:106328001E2701011D5101011F2301011E510101F9
:106338002B2701011F5101012C230101124B132BA3
:1063480012C1F6FF13C1F7FF0800F55081EC71F098
:10635800D8A064D0C4D762D012007FD000D0010189
:106368002A8F7BD001012B510101235D01012C51A2
:1063780001012459D8B009D00101235101012B5F33
:106388000101245101012C5B0AD0000E01012C6F80
:10639800000E2B6F04D0200E2EEC73F000D00101FC
:1063A8002B07D8A02C0701012B29F5E101012C2985
:1063B800D8B40DD0F0D70BD021C1D9FF22C1DAFF54
:1063C800DF502EEC73F00101214B222B00D001018C
:1063D8002307D8A0240701012329EEE1010124297C
:1063E800D8B494D1E9D792D126C1D9FF27C1DAFF11
:1063F800DF5001012D6F020E01012627000E272311
:1064080000D02D0E0101216F010E0101226F000E37
:106418000101246F010E236FA5D71FD012C1F6FF0B
:1064280013C1F7FF0101124B132B0800F5CF2DF113
:1064380001012D51000AD8B41200580AD8B48FD7D8
:106448003B0AD8B4D1D7070AD8B407D00D0AD8B4B4
:1064580004D0110AD8B483D7D4D701012ABF19D0E0
:1064680026C1D9FF27C1DAFFDECF28F1DDCF29F118
:10647800020E01012627000E2723010129AF5DD056
:10648800030E01012A130101286D291FD8B0292BF9
:1064980054D026C1D9FF27C1DAFFDECF28F1DDCFDE
:1064A80029F1020E01012627000E272346D0010EEE
:1064B80001012D6F050E01012D19D8B448D001D066
:1064C80046D001012D51020D6D0EF324F66EFE0E1D
:1064D800F420F76E0900F5500101285D0900F55018
:1064E80001012959D8A033D001D031D001012D2B79
:1064F800E1D72DD0010E01012D6F040E01012D19D8
:10650800D8B425D001D023D001012D51020D770E2A
:10651800F324F66EFE0EF420F76E0900F550010123
:10652800285D0900F55001012959D8A010D001D0E3
:106538000ED001012D2BE1D70AD001012A51800B81
:10654800000AD8B4B4D7800AD8B4D4D700D001018F
:106558002B5101012C11D8B40CD02AC11CF1030E07
:1065680001011C17D8B405D001012B07D8A02C07AE
:1065780000D0800E01012DBF7F0E01011C6F0101AB
:106588002B5101012D5D01012C51800A01011C597B
:10659800D8B00BD001012D5101012B5F000E010174
:1065A8002DBFFF0E01012C5B06D0000E01012C6FE0
:1065B800000E2B6F00D001012AA520D02AC11CF1A2
:1065C800030E01011C17D8B404D02D0E2EEC73F065
:1065D80000D001012B5101012C11D8B42FD0300E5D
:1065E8002EEC73F001012B07D8A02C0701012B51C9
:1065F80001012C11D8B422D0F2D720D001012B519F
:1066080001012C11D8B40FD0200E2EEC73F001012B
:106618002B07D8A02C0701012B5101012C11D8B44C
:1066280002D0F2D700D02AC11CF1030E01011C17B9
:10663800D8B404D02D0E2EEC73F000D02DC125F166
:106648005DD04DD001012551020D6D0EF324F66E7B
:10665800FE0EF420F76E0900F5CF08F10A00F5CF19
:1066680009F128C106F129C107F1B6EC69F006C1A4
:106678000DF107C10EF1000E0101106F0A0E0F6F28
:1066880084EC6CF001010D51300F01012D6F31D0F8
:1066980028C106F129C107F101012551020D770E24
:1066A800F324F66EFE0EF420F76E0900F5CF08F11C
:1066B8000A00F5CF09F1B6EC69F0010106510F0B9C
:1066C8000101206F01012051010D6A0EF324F66EBD
:1066D800FF0EF420F76E0800F5CF2DF10AD0010166
:1066E8002A51800B000AD8B4ADD7800AD8B4D0D7C5
:1066F80000D001012D512EEC73F000D001012507C7
:1067080001012529D8B402D0EAD700D012C1F6FF7A
:1067180013C1F7FF0101124B132B0800F5CF2DF120
:1067280001012D51D8B41200A5D5120012006E0E29
:106738000001786F000E0001796F4CD2250E000120
:106748007F19D8B405D000017F514EEC73F042D2C6
:10675800000E00017E6F000E7D6F000E00017C6F41
:1067680007D000017C8500016C4B6D2B01D00BD04C
:106778006CC0F6FF6DC0F7FF0800F550300AD8B4BA
:10678800F0D701D0F5D76CC0F6FF6DC0F7FF080051
:10679800F550AFEC71F0D8A0A5D0000E00017E6FC7
:1067A800000E7D6F00D07DC060F07EC061F0000EED
:1067B8000001636F0A0E626FE6EC70F060C07DF056
:1067C80061C07EF0D00E00016E6FFF0E00016F6F8A
:1067D8006CC0F6FF6DC0F7FF0800F5500001706F40
:1067E800716B00016E510001702700016F510001AB
:1067F80071230001705100017D27000171510001D2
:106808007E2300016C4B6D2B6CC0F6FF6DC0F7FF4B
:106818000800F550AFEC71F0D8A064D0C4D762D0AE
:1068280012007FD000D000017C8F7BD000017D5109
:106838000001755D00017E5100017659D8B009D07C
:106848000001755100017D5F0001765100017E5BFA
:106858000AD0000E00017E6F000E7D6F04D0200E5E
:106868004EEC73F000D000017D07D8A07E07000130
:106878007D29F5E100017E29D8B40DD0F0D70BD0E1
:1068880073C0D9FF74C0DAFFDF504EEC73F000011B
:10689800734B742B00D000017507D8A07607000150
:1068A8007529EEE100017629D8B494D1E9D792D1BF
:1068B80078C0D9FF79C0DAFFDF5000017F6F020E80
:1068C80000017827000E792300D07F0E0001736F36
:1068D800000E0001746F000E0001766F010E756FD7
:1068E800A5D71FD06CC0F6FF6DC0F7FF00016C4B39
:1068F8006D2B0800F5CF7FF000017F51000AD8B456
:106908001200580AD8B48FD73B0AD8B4D1D7070A8F
:10691800D8B407D00D0AD8B404D0110AD8B483D794
:10692800D4D700017CBF19D078C0D9FF79C0DAFF6D
:10693800DECF7AF0DDCF7BF0020E00017827000E63
:10694800792300017BAF5DD0030E00017C130001A9
:106958007A6D7B1FD8B07B2B54D078C0D9FF79C013
:10696800DAFFDECF7AF0DDCF7BF0020E0001782768
:10697800000E792346D0010E00017F6F050E00013D
:106988007F19D8B448D001D046D000017F51020DFC
:106998006D0EF324F66EFE0EF420F76E0900F55026
:1069A80000017A5D0900F55000017B59D8A033D069
:1069B80001D031D000017F2BE1D72DD0010E00018D
:1069C8007F6F040E00017F19D8B425D001D023D0E1
:1069D80000017F51020D770EF324F66EFE0EF420AF
:1069E800F76E0900F55000017A5D0900F5500001C5
:1069F8007B59D8A010D001D00ED000017F2BE1D751
:106A08000AD000017C51800B000AD8B4B4D7800AA0
:106A1800D8B4D4D700D000017D5100017E11D8B47C
:106A28000CD07CC06EF0030E00016E17D8B405D0F0
:106A380000017D07D8A07E0700D0800E00017FBF2F
:106A48007F0E00016E6F00017D5100017F5D000126
:106A58007E51800A00016E59D8B00BD000017F51D9
:106A680000017D5F000E00017FBFFF0E00017E5B0D
:106A780006D0000E00017E6F000E7D6F00D0000171
:106A88007CA520D07CC06EF0030E00016E17D8B430
:106A980004D02D0E4EEC73F000D000017D510001A2
:106AA8007E11D8B42FD0300E4EEC73F000017D0764
:106AB800D8A07E0700017D5100017E11D8B422D0F4
:106AC800F2D720D000017D5100017E11D8B40FD03B
:106AD800200E4EEC73F000017D07D8A07E07000160
:106AE8007D5100017E11D8B402D0F2D700D07CC00D
:106AF8006EF0030E00016E17D8B404D02D0E4EECC4
:106B080073F000D07FC077F05DD04DD00001775191
:106B1800020D6D0EF324F66EFE0EF420F76E0900DA
:106B2800F5CF62F00A00F5CF63F07AC060F07BC061
:106B380061F0F7EC69F060C067F061C068F0000EC2
:106B480000016A6F0A0E696FBAEC6CF000016751B8
:106B5800300F00017F6F31D07AC060F07BC061F0E8
:106B680000017751020D770EF324F66EFE0EF42025
:106B7800F76E0900F5CF62F00A00F5CF63F0F7EC85
:106B880069F0000160510F0B0001726F0001725132
:106B9800010D6A0EF324F66EFF0EF420F76E08005E
:106BA800F5CF7FF00AD000017C51800B000AD8B4E1
:106BB800ADD7800AD8B4D0D700D000017F514EECB1
:106BC80073F000D00001770700017729D8B402D00C
:106BD800EAD700D06CC0F6FF6DC0F7FF00016C4B20
:106BE8006D2B0800F5CF7FF000017F51D8B412005B
:106BF800A5D5120012000101046F01010451020120
:106C08004A2502014A6F000E02014B2102014B6F17
:106C1800000E0101056F160E0101056501D072D045
:106C280001010551010D270EF324D96E030EF4203E
:106C3800DA6EDF50D8A463D001010551020D000EB1
:106C4800F324D96E020EF420DA6E01010451010119
:106C5800026F036B010E01010227000E0323DE50B1
:106C68000101025DDE5001010359D8B02DD00101A8
:106C78000551020D000EF324D96E020EF420DA6ECF
:106C8800DECF00F1DDCF01F1010104510101026FF6
:106C9800036B0101021F031F024B032B010100516B
:106CA80001010227010101510101032301010551DD
:106CB800020D000EF324D96E020EF420DA6E02C122
:106CC800DEFF03C1DDFF1BD001010551020D000EDF
:106CD800F324D96E020EF420DA6EDE50DE10D8B43A
:106CE8000ED001010551020D000EF324D96E020EDB
:106CF800F420DA6E010EDE6E000EDD6E00D00101AA
:106D0800052B89D7E80E02014A5D030E02014B5993
:106D1800D8A01200180E02014A2502014A6FFC0E83
:106D280002014B2102014B6F482A000E0101066F38
:106D3800160E0101066501D063D001010651010D4F
:106D4800270EF324D96E030EF420DA6EDE04D8A4DD
:106D580054D001010651020D000EF324D96E020E23
:106D6800F420DA6E010EDB5004E1020EDE5CD8A0DE
:106D780029D0FF0E0101006FFF0E0101016F010113
:106D88000651020D000EF324D96E020EF420DA6EBD
:106D9800DECF02F1DDCF03F101010051010102272D
:106DA800010101510101032301010651020D000EE9
:106DB800F324D96E020EF420DA6E02C1DEFF03C19D
:106DC800DDFF1BD001010651020D000EF324D96E20
:106DD800020EF420DA6EDE50DE10D8B40ED00101B7
:106DE8000651020D000EF324D96E020EF420DA6E5D
:106DF800010EDE6E000EDD6E00D00101062B98D765
:106E08003B0E486412004850C40F486E442A000ED6
:106E18000101076F160E0101076501D064D0010159
:106E28000751010D270EF324D96E030EF420DA6EF4
:106E3800020EDE18D8A454D001010751020D000E2D
:106E4800F324D96E020EF420DA6E010EDB5004E151
:106E5800020EDE5CD8A029D0FF0E0101006FFF0EE4
:106E68000101016F01010751020D000EF324D96ED3
:106E7800020EF420DA6EDECF02F1DDCF03F101015C
:106E88000051010102270101015101010323010100
:106E98000751020D000EF324D96E020EF420DA6EAB
:106EA80002C1DEFF03C1DDFF1BD001010751020D46
:106EB800000EF324D96E020EF420DA6EDE50DE10D6
:106EC800D8B40ED001010751020D000EF324D96E7B
:106ED800020EF420DA6E010EDE6E000EDD6E00D0BA
:106EE8000101072B97D73B0E446412004450C40F8E
:106EF800446E000E0101086F160E0101086502D0EC
:106F08001200120001010851010D270EF324D96E59
:106F1800030EF420DA6E030EDE18D8A454D0010153
:106F28000851020D000EF324D96E020EF420DA6E19
:106F3800010EDB5004E1020EDE5CD8A029D0FF0E62
:106F48000101006FFF0E0101016F01010851020DDF
:106F5800000EF324D96E020EF420DA6EDECF02F1B1
:106F6800DDCF03F1010100510101022701010151A7
:106F78000101032301010851020D000EF324D96E0B
:106F8800020EF420DA6E02C1DEFF03C1DDFF1BD062
:106F980001010851020D000EF324D96E020EF420EF
:106FA800DA6EDE50DE10D8B40ED001010851020DA1
:106FB800000EF324D96E020EF420DA6E010EDE6E96
:106FC800000EDD6E00D00101082B160E01010865C8
:106FD80099D7120012001200030E0101016F006917
:106FE80097EC73F00101156F01011505D8A440D085
:106FF800000E01011A6F000E196F01011ABF0AD0A5
:10700800F00E0101195D030E01011A59D8B011D013
:1070180001D00FD0C7EC74F019C100F11AC101F109
:10702800FF0E0101026F56EC6FF00101194B1A2B8C
:10703800E4D7030E01011A6FF40E196F01011ABF8C
:1070480007D0040E01011A5DD8B012D001D010D0BB
:10705800C7EC74F019C100F11AC101F1FF0E01016A
:10706800026F56EC6FF00101194B1A2BE7D700D0CD
:10707800010E0101156504D001011529D8A40CD011
:10708800C7EC74F0030E0101016F0069020E0101E3
:10709800026F56EC6FF000D0000E0101166F030E60
:1070A8000101166501D018D001011651010DD70E46
:1070B800F324D96E000EF420DA6EE80E01011625CD
:1070C8000101006F0101016B030E012397EC73F0BE
:1070D800DF6E0101162BE3D70001D729D8A419D0F8
:1070E8000001D829D8A415D00001D929D8A411D0D5
:1070F8000001DA29D8A40DD0000E0001D76F000EC8
:107108000001D86F000E0001D96F020E0001DA6F7E
:1071180000D0030E0101016FEF0E006F97EC73F0C2
:107128000101146F01011429D8A404D0080E01012B
:10713800146F00D0010114518FEC74F00201F22990
:10714800D8A451D00201F329D8A44DD00201F429C2
:10715800D8A449D00201F529D8A445D0899E4B0E60
:10716800A4EC72F0000EA4EC72F0000EA4EC72F025
:10717800000EA4EC72F0000EA4EC72F0000E0101F7
:10718800176F2BD02ED0B2EC73F001010051010122
:10719800136F030E010117651ED0FC0E0101076F66
:1071A800FF0E0101086F010117510101096F0A6BF8
:1071B80001010751010109270101085101010A23B1
:1071C800F20E01010925D96E020E01010A21DA6EBB
:1071D80013C1DFFF00D00101172B070E010117654E
:1071E800D2D7898E00D0000E0101186F070E010159
:1071F800186501D018D001011851010D0B0EF324A8
:10720800D96E010EF420DA6EF40E01011825010181
:10721800006F0101016B030E012397EC73F0DF6E21
:107228000101182BE3D70B0E0101006F010E0101BC
:10723800016F2FEC67F0030E0101016FFC0E006F68
:1072480097EC73F0FF0AD8A404D0000ECCEC73F0CE
:1072580009D0030E0101016FFC0E006F97EC73F06B
:10726800CCEC73F0030E0101016FFD0E006F97EC7B
:1072780073F0FF0AD8B40BD001D009D0030E010176
:10728800016FFD0E006F97EC73F0EAEC72F0030EDD
:107298000101016FFE0E006F97EC73F0FF0AD8A48E
:1072A80003D00001C9691200030E0101016FFE0E2F
:1072B800006F97EC73F00001C96F12001200010112
:1072C80020EE01F02F51D9263051DA222FC1E1FFEB
:1072D80030C1E2FFDE50E618D8A41200010120EE0A
:1072E80002F02F51D9263051DA22010110EE01F0B7
:1072F8002F51E1263051E222DE50E618D8A41200C0
:10730800010120EE02F02F51D9263051DA22DE2871
:10731800D8B412002FC1D9FF30C1DAFFDF50010104
:10732800336F010133A14CD0010120EE04F02F513D
:10733800D9263051DA22010110EE03F02F51E1264F
:107348003051E222DE50E618D8A43AD0010120EEEE
:1073580005F02F51D9263051DA22010110EE04F040
:107368002F51E1263051E222DE50E618D8A428D069
:10737800010120EE05F02F51D9263051DA22DE28FE
:10738800D8B41ED0C7EC74F0030E0101016FFD0ED6
:10739800006F010120EE03F02F51D9263051DA2277
:1073A800DF500101026F56EC6FF0010120EE03F08F
:1073B8002F51D9263051DA22DF50EAEC72F000D092
:1073C800010133A342D0010120EE07F02F51D92645
:1073D8003051DA22010110EE06F02F51E12630512A
:1073E800E222DE50E618D8A430D0010120EE08F0E1
:1073F8002F51D9263051DA22010110EE07F02F5112
:10740800E1263051E222DE50E618D8A41ED0C7EC9F
:1074180074F0030E0101016FFE0E006F010120EEF2
:1074280006F02F51D9263051DA22DF500101026FC0
:1074380056EC6FF0010120EE06F02F51D92630519D
:10744800DA22DF50C0EC6EF000D0010133A54CD039
:10745800010120EE0AF02F51D9263051DA2201011C
:1074680010EE09F02F51E1263051E222DE50E618E5
:10747800D8A43AD0010120EE0BF02F51D926305173
:10748800DA22010110EE0AF02F51E1263051E222F2
:10749800DE50E618D8A428D0010120EE0BF02F51B9
:1074A800D9263051DA22DE28D8B41ED0C7EC74F0C1
:1074B800030E0101016FFC0E006F010120EE09F0BF
:1074C8002F51D9263051DA22DF500101026F56ECD4
:1074D8006FF0010120EE09F02F51D9263051DA2240
:1074E800DF50CCEC73F000D0010133A7120001018A
:1074F80020EE0DF02F51D9263051DA22010110EE7D
:107508000CF02F51E1263051E222DE50E618D8A4C3
:107518001200010120EE0EF02F51D9263051DA2247
:10752800010110EE0DF02F51E1263051E222DE501C
:10753800E618D8A41200010120EE0EF02F51D9262A
:107548003051DA22DE28D8B41200C7EC74F0030EEA
:107558000101016FEF0E006F010120EE0CF02F51B9
:10756800D9263051DA22DF500101026F56EC6FF054
:10757800010120EE0CF02F51D9263051DA22DF50CC
:107588008FEC74F012001200400E0101286F000EFB
:107598000101296F3E0E0101296501D0D7D00101F3
:1075A8002951060DBD0EF3240101066F0A0EF420C1
:1075B8000101076F21C108F122C109F1040E01017F
:1075C8000A6FEDEC6DF00009D8B4A0D00101295183
:1075D800060D040EF326000EF422BD0EF324D96E18
:1075E8000A0EF420DA6EDF500F0B0F0AD8A440D031
:1075F800010124510101D8B43BD0462A0101295187
:10760800060D040EF326000EF422BD0EF324D96EE7
:107618000A0EF420DA6EDF90DF92DF94DF9623C142
:1076280000F1010129518AEC5FF0020E01012419D1
:10763800D8B41AD0030E0101086F01012351C7EC19
:1076480045F00101266F21C115F122C116F129C1AA
:1076580017F1010E0101186F26C119F1000E010181
:107668001A6FBBEC1DF000D00101295112006BD03C
:1076780001012951060D040EF326000EF422BD0E59
:10768800F324D96E0A0EF420DA6EDF500F0B0F0ABE
:10769800D8B439D001012951060D040EF326000E85
:1076A800F422BD0EF324D96E0A0EF420DA6EDF90B0
:1076B800DF92DF94DF9623C100F1010129518AECA2
:1076C8005FF0020E01012419D8B4CED7030E0101D0
:1076D800086F01012351C7EC45F00101266F21C154
:1076E80015F122C116F129C117F1010E0101186F18
:1076F80026C119F1000E01011A6FBBEC1DF0B4D7B9
:10770800B3D7120020D0FF0E12001DD0010129515D
:10771800060DBD0EF3240101066F0A0EF4200101C7
:10772800076FE40E0101086F010E0101096F040ED5
:1077380001010A6FEDEC6DF00009D8B404D029C13D
:1077480028F104D000D00101292B24D73E0E0101D5
:10775800286521D0000E0101276F3E0E0101276523
:1077680001D019D001012751060D040EF326000E91
:10777800F422BD0EF324D96E0A0EF420DA6EDF501F
:107788000F0B0F0AD8A403D027C128F104D0010198
:10779800272BE3D700D03F0E0101286154D0010107
:1077A80024510101D8B44FD021C106F122C107F1FB
:1077B80001012851060DBD0EF3240101086F0A0EC0
:1077C800F4200101096F040E01010A6FE6EC6EF066
:1077D80001012851060D040EF326000EF422BD0EF9
:1077E800F324D96E0A0EF420DA6EDF90DF92DF946C
:1077F800DF9623C100F1010128518AEC5FF0462A87
:10780800020E01012419D8B41AD0030E0101086F21
:1078180001012351C7EC45F00101266F21C115F183
:1078280022C116F128C117F1010E0101186F26C1F6
:1078380019F1000E01011A6FBBEC1DF000D0010117
:107848002851120000D0FF0E12001200000E010194
:10785800126F000E116F010112BF0AD001011251FF
:1078680006E13F0E0101115DD8B082D001D080D071
:10787800E40E0101066F010E0101076F11C100F14D
:1078880012C101F1000E0101036F060E026FCAEC6E
:1078980070F0BD0E010100250101086F0A0E0101FB
:1078A80001210101096F040E01010A6FE6EC6EF077
:1078B80011C100F112C101F1000E0101036F060EA2
:1078C800026FCAEC70F0040E01010027000E0101DE
:1078D8000123BD0E01010025D96E0A0E0101012107
:1078E800DA6EDF80DF82DF84DF8611C100F112C12A
:1078F80001F1000E0101036F060E026FCAEC70F071
:10790800040E01010027000E01010123BD0E010133
:107918000025D96E0A0E01010121DA6EDF88DF8A9F
:10792800DF8CDF8E11C100F112C101F1000E0101DF
:10793800036F060E026FCAEC70F0050E01010027F6
:10794800000E01010123BD0E01010025D96E0A0EAA
:1079580001010121DA6EFF0EDF6E0101114B122BBE
:10796800010112BF85D70101125102E17AD700D077
:10797800000E02016E6F000E0101126F000E116FF2
:10798800010112BF0AD00101125166E1FA0E01018C
:10799800115DD8B061D001D05FD011C10FF112C113
:1079A80010F1D89001010F371037010E01010F2790
:1079B800000E1023C90E01010F25D96E080E010112
:1079C8001021DA6EDF80DF82DF84DF86DF88E40E55
:1079D8000101076F010E0101086F010111519DECB2
:1079E80068F011C10FF112C110F1D89001010F37E1
:1079F8001037010E01010F27000E1023C90E0101D7
:107A08000F25D96E080E01011021DA6EDF8ADF8C8E
:107A1800DF8ED89001011135D96E01011235DA6E69
:107A2800C90ED926080EDA22DF80DF82DF84DF86DE
:107A3800DF88DF8AD89001011135D96E010112352E
:107A4800DA6EC90ED926080EDA223F0EDF160101BA
:107A5800114B122B95D700D0E40E0101066F010ED1
:107A68000101076FF60E0101086F020E0101096F8F
:107A7800040E01010A6FE6EC6EF00101F869000ED0
:107A88000201776F030E0201786F000E02019F6FEB
:107A9800000E0201A16F020E0201A26F000E020188
:107AA800A36F010E0101F46F000E0101E36F000ED8
:107AB8000101D56F12000101166F0101F751010193
:107AC800D8B42CD0240E01011619D8A423D0010152
:107AD800E02B020E0101E019D8A41AD1000E010111
:107AE800F76F010E0101C96F000E0101C76F000E8B
:107AF8000101CA6F000E0101CB6F010E0101C86FB1
:107B0800000E0001BF6F000E0101E06F000E0101C1
:107B1800DA6FFED0000E0101E06FFAD00101C85102
:107B28000101D8B4DFD00101C9510101D8B407D08F
:107B380016C1CBF0000E0101C96F010E06D001017C
:107B4800C7510101D8B404D0000E0101C76F5DD040
:107B58000001BF510101106F116BFE0E0101126F80
:107B6800FF0E0101136F0001CB510101146F156B5A
:107B780001011251010114270101135101011523BB
:107B880001011051010114190FE101011151010105
:107B98001519D8A409D00D0E01011619D8A435D08D
:107BA800010E0101CA6F31D00001BF510101106FF0
:107BB800116BFF0E0101126FFF0E0101136F00011F
:107BC800CB510101146F156B0101125101011427EA
:107BD800010113510101152301011051010114196B
:107BE8000FE10101115101011519D8A409D00A0E9C
:107BF80001011619D8A409D0010E0101CB6F05D0D7
:107C0800010116510101DA1B00D00001BF51010D1D
:107C1800C00EF324D96E040EF420DA6E16C1DFFF0D
:107C28000001BF2B0001BF510001CB19D8A43DD0E2
:107C3800000E0101C86F0EC1D9FF0FC1DAFFBFC026
:107C4800DFFFC00E0101066F040E0101076F0CC1B2
:107C580008F10DC109F1BFC00AF1E6EC6EF0010EA2
:107C68000101F76F000E0101E06F0101DA51010116
:107C7800D8B405D0000E0101DA6F000E1200010120
:107C8800CA510101D8B40BD00101CB510101D8B4BC
:107C980006D0000E0101DA6F010E120039D0000E75
:107CA8000101DA6F1CD0120033D03E0E0001BF650F
:107CB8002FD0010E0101F76F000E0101E06F000ED9
:107CC8000001BF6F000E0101C96F000E0101C76FEF
:107CD800000E0101CA6F000E0101CB6FE0D7000E44
:107CE800120016D0010E0101F76F000E0101E06FBE
:107CF800000E0101DA6F000E0101C96F000E0101CB
:107D0800CA6F000E0101CB6F000E0101C76F00D0D2
:107D1800000E120012000101046F8B9C1A0EE82E4F
:107D2800FED700D0000E0101066F2DD030D08B9EFB
:107D380006C101F1400E0101026F000E0101036F3F
:107D48000101012B04D00101033503330233010182
:107D5800012FF9D70101025150140101096F0101E6
:107D680009510101D8B402D08B8C02D08B9C00D071
:107D78001A0EE82EFED700D08B8E1A0EE82EFED7EC
:107D880000D00101062B060E01010665D0D78B9E97
:107D98008B9C1A0EE82EFED700D08B8E1A0EE82E7A
:107DA800FED700D08B9E948C1A0EE82EFED700D0FA
:107DB8008B8E1A0EE82EFED700D0000E82BC010E64
:107DC8000101056F010105510101D8A437D0949C28
:107DD800000E0101076F070E0101076501D02ED0C3
:107DE8008B9E07C101F1800E0101026F000E010197
:107DF800036F0101012B04D0010103350333023362
:107E08000101012FF9D701010251010104150101F6
:107E1800096F010109510101D8B402D08B8C02D03D
:107E28008B9C00D01A0EE82EFED700D08B8E1A0E2F
:107E3800E82EFED700D00101072BCDD78B9E948C5E
:107E48001A0EE82EFED700D08B8E1A0EE82EFED71B
:107E580000D0000E82BC010E0101056F0101055121
:107E68000101D8A437D0949C000E0101086F070EB9
:107E78000101086501D02ED08B9E08C101F1800E4A
:107E88000101026F000E0101036F0101012B04D0F3
:107E980001010335033302330101012FF9D7010131
:107EA8000251010100150101096F01010951010188
:107EB800D8B402D08B8C02D08B9C00D01A0EE82E3E
:107EC800FED700D08B8E1A0EE82EFED700D0010107
:107ED800082BCDD78B9E948C1A0EE82EFED700D097
:107EE8008B8E1A0EE82EFED700D0000E82BC010E33
:107EF8000101056F949C8B9C8B9E1A0EE82EFED771
:107F080000D08B8E1A0EE82EFED700D08B8C120074
:107F1800000E0101126F000E116F010112BF0AD08D
:107F28000101125106E1FA0E0101115DD8B0E8D045
:107F380001D0E6D00BC104F10CC105F101011151CA
:107F4800F9EC5AF00009D8B4D0D011C10FF112C120
:107F580010F1D89001010F371037010E01010F27DA
:107F6800000E1023C90E01010F25D96E080E01015C
:107F78001021DA6EDF501F0B1F0AD8B4A6D0D89094
:107F880001011135D96E01011235DA6EC90ED926F3
:107F9800080EDA22DF503F0B01010F6F01010F516C
:107FA800060DBD0EF324D96E0A0EF420DA6E0DC14B
:107FB800E1FF0EC1E2FFDFCFE7FFD89001011135E5
:107FC800D96E01011235DA6EC90ED926080EDA22E9
:107FD800DF503F0B01010F6F01010F51060D010E1C
:107FE800F326000EF422BD0EF324D96E0A0EF420F7
:107FF800DA6E010110EE01F00D51E1260E51E22278
:10800800DFCFE7FFD89001011135D96E0101123594
:10801800DA6EC90ED926080EDA22DF503F0B0101AD
:108028000F6F01010F51060D020EF326000EF42208
:10803800BD0EF324D96E0A0EF420DA6E010110EE9B
:1080480002F00D51E1260E51E222DFCFE7FFD89072
:1080580001011135D96E01011235DA6EC90ED92622
:10806800080EDA22DF503F0B01010F6F01010F519B
:10807800060D030EF326000EF422BD0EF324D96E6E
:108088000A0EF420DA6E010110EE03F00D51E1261C
:108098000E51E222DFCFE7FF11C10FF112C110F13B
:1080A800D89001010F371037010E01010F27000E7C
:1080B8001023C90E01010F25D96E080E01011021E8
:1080C800DA6EDF501F0B120010D0D8900101113565
:1080D800D96E01011235DA6EC90ED926080EDA22D8
:1080E8003F0EDF161F0E120000D00101114B122B9C
:1080F800010112BF1FD70101125102E114D700D0AC
:108108001F0E12001200000E01010F6F000E0E6FFD
:1081180001010FBF0AD001010F5106E13F0E010115
:108128000E5DD8B0D4D001D0D2D006C1D9FF07C1D6
:10813800DAFF0EC100F10FC101F1000E0101036F5A
:10814800060E026FCAEC70F0BD0E01010025E16E4B
:108158000A0E01010121E26EDE50E618D8A4ACD067
:10816800010120EE01F00651D9260751DA220EC18D
:1081780000F10FC101F1000E0101036F060E026F3D
:10818800CAEC70F0010E01010027000E0101012365
:10819800BD0E01010025E16E0A0E01010121E26E0A
:1081A800DE50E618D8A488D0010120EE02F006516E
:1081B800D9260751DA220EC100F10FC101F1000ED4
:1081C8000101036F060E026FCAEC70F0020E010186
:1081D8000027000E01010123BD0E01010025E16EFB
:1081E8000A0E01010121E26EDE50E618D8A464D01F
:1081F800010120EE03F00651D9260751DA220EC1FB
:1082080000F10FC101F1000E0101036F060E026FAC
:10821800CAEC70F0030E01010027000E01010123D2
:10822800BD0E01010025E16E0A0E01010121E26E79
:10823800DE50E618D8A440D00EC100F10FC101F1FC
:10824800000E0101036F060E026FCAEC70F0050EF6
:1082580001010027000E01010123BD0E01010025C7
:10826800D96E0A0E01010121DA6E08C1E1FF09C1C8
:10827800E2FFDFCFE7FF0EC100F10FC101F1000EF1
:108288000101036F060E026FCAEC70F0040E0101C3
:108298000027000E01010123BD0E01010025D96E42
:1082A8000A0E01010121DA6EDF380F0B0AC1D9FF6E
:1082B8000BC1DAFFDF6E120001010E4B0F2B01011B
:1082C8000FBF33D701010F5102E128D700D008C1F1
:1082D800D9FF09C1DAFFFF0EDF6E0AC1D9FF0BC152
:1082E800DAFF0F0EDF6E120012003950D8B4D9D061
:1082F80002016851D8B410D0000E0201686F000E58
:108308000001CE6F000E0001CF6F000E396E000E17
:108318000001CC6F000E120002016651D8A40DD0E6
:10832800000E0001CE6F000E0001CF6F000E396EF7
:10833800000E0001CC6F000E12000001CF51FD0F9E
:1083480010C1D9FF11C1DAFFDF6E000E0101186FED
:10835800400E0001CF650DD0000E0001CE6F000E5B
:108368000001CF6F000E396E000E0001CC6F000EB9
:108378001200020E0101196F11D001011951010DEE
:10838800800EF324D96E040EF420DA6EDF5001015A
:1083980018190101186F0101192B00D00001CF51E4
:1083A8000101195DD8A0E9D7010118510101D8B41C
:1083B8000DD0000E0001CE6F000E0001CF6F000E31
:1083C800396E000E0001CC6F000E120010C1D9FFEB
:1083D80011C1DAFF3D0EDF640DD0000E0001CE6F33
:1083E800000E0001CF6F000E396E000E0001CC6F39
:1083F800000E120010C1D9FF11C1DAFFDF500101D0
:10840800126F136BFD0E0101146FFF0E0101156F42
:108418000001CF510101166F176B010114510101C1
:1084280016270101155101011723010112510101FC
:10843800161906E10101135101011719D8B40DD01D
:10844800000E0001CE6F000E0001CF6F000E396ED6
:10845800000E0001CC6F000E1200800E0101006FAB
:10846800040E0101016F020E0101026F0EC103F13A
:108478000FC104F1000E0101056F10C1D9FF11C130
:10848800DAFFDF500101066F7CEC67F0000E000197
:10849800CE6F000E0001CF6F000E396E010E120074
:1084A8000FD03950D8B40CD0000E0001CE6F000E9A
:1084B8000001CF6F000E396E000E0001CC6F00D0A6
:1084C800000E1200120001012F6F0101D951D8B41A
:1084D80004D0000E0101D96F1200040E6CEC70F08C
:1084E8000009D8B481D00101B451010D7F0EF324E5
:1084F800F66EFE0EF420F76E0800F5500009D8A4B9
:1085080073D0010E0101B46F010E0201696F6CD0C6
:1085180073EC59F00DC1AAF00EC1ABF00001ABBF6E
:1085280008D03E0E0001AA5D080E0001AB59D8B074
:1085380004D0000E0101B46F12000101B42B120027
:10854800EBEC74F000C158F201C159F20101B42BEF
:10855800120001012F510201405D000E4159D8B0AF
:1085680003D00101B42B120001012F510201405F19
:10857800000E415B1200000E0101F26F01012F5144
:108588000201425D000E4359D8A0120001D012002A
:1085980001012F510201425F000E435B1200040EDD
:1085A80046EC72F00009D8B412002CC126F12DC196
:1085B80027F12EC128F1040E2AEC69F0000E020101
:1085C800696F1200000E0101006F080E0CEC6FF0CD
:1085D8000101B42B120090EC66F00DC150F20EC1EF
:1085E80051F20101B42B12000101B451010D7F0EAB
:1085F800F324F66EFE0EF420F76E0800F550000A1C
:10860800D8B4CDD7010AD8B483D7030AD8B498D739
:10861800010AD8B41200070AD8B41200010AD8B463
:108628001200030AD8B41200010AD8B412000F0AC3
:10863800D8B48FD7010AD8B41200030AD8B49BD78C
:10864800010AD8B41200070AD8B41200010AD8B433
:108658001200030AD8B41200010AD8B412001F0A83
:10866800D8B4B9D7010AD8B4ADD7030AD8B4120020
:10867800010AD8B41200070AD8B41200010A12007D
:10868800120002016E51D8A4D2D00201A051D8A480
:10869800CED06F0E0101066F020E0101076FF60EB4
:1086A8000101086F020E0101096F040E01010A6F32
:1086B800E6EC6EF077C2F8F1060E02016E6F0EC19D
:1086C80006F10FC107F1730E0101086F020E0101D7
:1086D800096F040E01010A6FE6EC6EF0E80E010165
:1086E800066F010E0101076F6F0E0101086F020E80
:1086F8000101096F040E01010A6FE6EC6EF011EC3E
:1087080074F00201776F000E0201A36F0101155189
:108718000101D8B402D0040E01D0030E0201786F13
:1087280000D0270E0101126156D00101C651D8B4FC
:1087380031D0010114510101D8B42CD0010E01012E
:1087480010250101006F000E010111210101016FC7
:10875800FF0E010112250101026F0101036BFF0EDB
:108768000323EEEC58F00101166F050E0101176F97
:108778000101D89016370101172FFAD701011651B8
:108788000201796F10C1D9FF11C1DAFFDF50020170
:10879800792708D010C1D9FF11C1DAFFDF500201D3
:1087A800796F00D010C100F111C101F1010E010172
:1087B800026F790E0101036F020E0101046F010EB1
:1087C8000101056F010112050101066F7CEC67F0DC
:1087D80012C19FF200D013C1A0F20101135101018F
:1087E800D8B403D0000E02016E6F0001BA51D8A4AC
:1087F80004D0000E0101DD6F18D0730E0101066F61
:10880800020E0101076FEE0E0101086F020E010151
:10881800096F040E01010A6FEDEC6DF00009D8B480
:1088280004D0020E02016E6F00D0010E1200000E7D
:10883800120012000101146F000E0101166F000EE4
:10884800176F000E186F000E196F040E01010F1933
:10885800D8A40BD00DC116F10EC117F10101000EFD
:1088680017BFFF0E186F196F54D001010F51010186
:10887800D8A42FD00DC110F10EC111F1000E0101C5
:1088880011BFFF0E126F136F0F0ED8900101103732
:10889800113712371337E82EF8D710C100F111C17C
:1088A80001F112C102F113C103F1E80E0101046FD5
:1088B800030E056F000E066F000E076F54EC60F094
:1088C80000C116F101C117F102C118F103C119F174
:1088D80020D001010F05D8A41CD00DC110F10EC184
:1088E80011F1000E010111BFFF0E126F136F0F0E71
:1088F800D89001011037113712371337E82EF8D7FF
:1089080010C116F111C117F112C118F113C119F1F3
:1089180000D016C110F117C111F118C112F119C117
:1089280013F10101101F111F121F131F102B000E2E
:10893800112312231323FF0E010110250101166FC5
:10894800FF0E010111210101176F000E0101122113
:108958000101186F000E010113210101196F0101B6
:108968001405D8A40BD017C1CFFF16C1CEFF8C0EAB
:10897800CD6E9F809E909D80CD8000D0030E01011A
:108988001419D8A40AD017C1B3FF16C1B2FF8C0EB0
:10899800B16EA292A192A082B1804050D8A41200D8
:1089A800010E406E000E0101156F160E01011565CE
:1089B80002D01200120001011551020D000EF3241D
:1089C800D96E020EF420DA6E000EDE6E000EDD6E39
:1089D8000101152B160E01011565EDD712001200C5
:1089E8001200000E0101806FAAC07CF1ABC07DF1BE
:1089F800010E0101566F18C10BF119C10CF1580E87
:108A080001010D6F010E01010E6F8CEC3FF00101A9
:108A1800576FC9C05CF17CC15DF17DC15EF1580E34
:108A28000101066F010E0101076F7E0E0101086F3B
:108A3800010E0101096F7F0E01010A6F010E01018C
:108A48000B6F87EC40F07EC15FF17FC160F118C108
:108A58000BF119C10CF19FEC63F00101616FCFECD0
:108A680074F00101626FD3EC74F00101636FD3C03D
:108A78001BF101011B3BF00E1B17A3EC74F0010165
:108A88001B250001D1250101646FC2C165F148C2EF
:108A980066F149C267F146C268F147C269F144C24A
:108AA8006AF145C26BF15EC26CF15FC26DF15CC2E6
:108AB8006EF15DC26FF181BA02D0010E01D0000ED5
:108AC8000101706FC7C071F1F6C172F150C273F144
:108AD80051C274F1FFC275F1200E0101806F0201CD
:108AE800FF6901011A510101D8B434D0560E0101B1
:108AF800006F010E0101016F000E0101026F1C0ED3
:108B08000101036F010E0101046F140E0101056FCD
:108B180080C106F17CEC67F01C0E01010E6F010E9E
:108B280001010F6F18C110F119C111F1DBEC5DF0F3
:108B38001C0E0101046F010E0101056F0101805136
:108B4800140F0101066F000E0101076F020E72EC8F
:108B58005CF0120018C10EF119C10FF1560E010197
:108B6800106F010E0101116F80C112F1000E010199
:108B7800136F010E0101146F000E0101156F45EC12
:108B880043F0120012000101116F030E01010819D0
:108B9800D8A460D03C0E0101116102D0000E12D0A1
:108BA800C30E010111250101006F0101016BFF0EC8
:108BB8000123000E0101036F050E026F22EC5FF026
:108BC800010100510101126F00D001011251010190
:108BD800096F0A6BFF0E01010B6FFF0E01010C6F8D
:108BE80008C10DF1010E01010E6F000E01010F6F9A
:108BF80001010D2B04D0D89001010E370F37010168
:108C08000D2FF9D701010B5101010E2701010C515C
:108C180001010F230101095101010E5D01010F51ED
:108C2800800A0101106F01010A51800A01011059DF
:108C3800D8B071D008C109F1010E01010A6F010114
:108C4800092B03D00101D8900A370101092FFAD75F
:108C58005DD061D0040E01010819D8A45CD0DC0EE7
:108C6800010111250101006F0101016BFF0E0123B4
:108C7800000E0101036F050E026F22EC5FF0010187
:108C880000510101126F010112510101096F0A6BB4
:108C9800FF0E01010B6FFF0E01010C6F08C10DF1F2
:108CA800010E01010E6F000E01010F6F01010D2B66
:108CB80004D0D89001010E370F3701010D2FF9D7D5
:108CC80001010B5101010E2701010C5101010F2374
:108CD8000101095101010E5D01010F51800A0101D5
:108CE800106F01010A51800A01011059D8B013D040
:108CF80008C109F1010E01010A6F0101092B03D016
:108D08000101D8900A370101092FFAD701010A0594
:108D18000101126F00D0010112511200120089D016
:108D280001018705D8A491D0580E0101126FFF0EDA
:108D38000101136F37EC31F0020E010181250101A9
:108D4800186F000E010182210101196F000E010147
:108D58001A6FF5EC44F0040E46EC72F00009D8A442
:108D680011D0040E6CEC70F00009D8A40BD0000EE2
:108D78000101276F010E266F000E0101286F040EF6
:108D88002AEC69F0000E46EC72F00009D8B40CD059
:108D9800130E0101276F880E266F000E0101286F40
:108DA800000E2AEC69F000D0010E0001B06F4DD022
:108DB800410E01018719D8A448D0010120EE02F024
:108DC8008151D9268251DA220101F651DE18D8B430
:108DD8001BD0010120EE02F08151D9268251DA22FE
:108DE800DF500101F66F24EC6DF0000E0101276FD2
:108DF8003C0E266F010E0101286F150E2AEC69F052
:108E0800000E0101C56F00D084C118F185C119F1A8
:108E1800000E01011A6FF5EC44F017D08A0E01011B
:108E2800126FFF0E0101136F37EC31F0010E1200C3
:108E38000CD001018651010AD8B4F0D71F0AD8B462
:108E48006FD7010AD8B4B4D700D084C1D9FF85C17F
:108E5800DAFFDF50D8A42AD0010120EE01F08451B6
:108E6800D9268551DA22DF50D8A420D0010120EE7E
:108E780002F08451D9268551DA22DF50D8A416D0C1
:108E8800010120EE03F08451D9268551DA22100E13
:108E9800DF600CD0010E0101276F2C0E266F010E2A
:108EA8000101286F140E2AEC69F000D0000E1200A0
:108EB80012000101066F010104510101D8B402D06A
:108EC800200E01D0600E0101056F9AD001010551F5
:108ED80002090201A86F630E0201AF6F010106517A
:108EE8001B0F55D00101055102090201A86F640E3C
:108EF8000201AF6F01010651040F49D0210E010193
:108F080006610BD0010105510A090201A86F650E1F
:108F18000201AF6F06C1B0F281D0010105510A0903
:108F28000201A86F640E0201AF6F01010651190F0B
:108F38002ED074D0010105510A090201A86F650EEF
:108F48000201AF6F01010651210F21D00C0E010162
:108F580006610DD00101055102090201A86F630ED7
:108F68000201AF6F01010651040DF350B9D70B0E82
:108F7800010106650FD0190E010106610BD0010130
:108F88000551020912D0640E0201AF6F11D002011F
:108F9800B06F44D0180E0101066510D01F0E0101F4
:108FA80006610CD0010105510A090201A86FEBD72F
:108FB80001010645E846FC0BD00FE9D71E0E01015A
:108FC800066509D0270E0101066105D00CD0650E93
:108FD8000201AF6F0ED0260E010106651FD0320EBA
:108FE800010106611BD0010105510A090201A86FA0
:108FF800EED701010645E846FC0B850FC8D70ED011
:109008004F50010AD8B462D7030AD8B46BD7010A03
:10901800D8B474D7070AD8B48DD798D7A8C202F1A4
:10902800000E1DEC71F0AFC202F10E0E1DEC71F0D6
:10903800B0C202F1100E1DEC71F012000400455090
:10904800D8A4120001D012001AC145F0000E010187
:109058001B6FB0D0000E0001C56F0001CC51D8A421
:109068009DD03E0E0101196199D0010E0001C86F13
:109078000001CC51D8B404D0000E0001C86F95D0BF
:10908800200EEEEC53F00201B55101090101026F07
:109098001A0E1DEC71F0800EEEEC53F0010119511F
:1090A800020F07EC74F00001B55107EC74F0000EE4
:1090B80001011F6F64D001011F51010DF35001011F
:1090C8001725D96EF45001011821DA6EDF5001011D
:1090D8001C6F01011F05D8B410D0020E01011F1921
:1090E800D8B40BD00001C55101011C190001C56F8E
:1090F80001011C5107EC74F03FD001011F05D8A4F1
:109108002BD0040E01010C6F010EE2EC57F00001A8
:10911800A25101010C2501011D6F0001A35101019C
:109128000D2101011E6F01011E5107EC74F00101B0
:109138001E510001C5190001C56F01011D51020131
:109148005E5D01011E5102015F59D8B015D01DC1E5
:109158005EF21EC15FF210D0020E01011F19D8A4E1
:109168000BD001011D5107EC74F00001C55101013C
:109178001D190001C56F00D001011F2B00D001018E
:10918800195101011F5DD8A096D70001C55107EC00
:1091980074F00400010E0101D96F09D03D0E0101E0
:1091A800196501D002D00001CC51450600D001015B
:1091B8001B2B00D001011A5101011B5DD8A04AD711
:1091C800120002016E51D8A4BBD00201A051D8A44C
:1091D800B7D06F0E0101066F020E0101076FF60E80
:1091E8000101086F020E0101096F040E01010A6FE7
:1091F800E6EC6EF077C2F8F1060E02016E6F000E13
:109208000201A16F020E0201A26F0EC106F10FC189
:1092180007F1730E0101086F020E0101096F040EB8
:1092280001010A6FE6EC6EF0E80E0101066F010E0F
:109238000101076F6F0E0101086F020E0101096F2E
:10924800040E01010A6FE6EC6EF011EC74F00201F5
:10925800776F000E0201A06F1D0E0201796F210EBB
:1092680002017A6F10C17BF23F0E02017C6F080E7B
:109278000101116F0101105101011103F3CF12F126
:10928800000E0101136F46D03F0E0101126121D07B
:1092980001011251060DBD0EF3240101006F0A0EE3
:1092A800F4200101016F000E0101026F790E010126
:1092B800036F020E0101046F01011351040DF350F5
:1092C800060F0101056F040E0101066F7CEC67F0C3
:1092D8001CD0E40E0101006F010E0101016F000EA8
:1092E8000101026F790E0101036F020E0101046F83
:1092F80001011351040DF350060F0101056F040E0F
:109308000101066F7CEC67F000D00101122B01010E
:10931800132B00D0010111510101135DD8A0B4D75E
:10932800030E0201786F260E02019F6F0001BA51E9
:10933800D8A404D0000E0101DD6F00D0010E120088
:10934800000E12001200000E01010B6F3E0E01010B
:109358000B6502D01200120001010B51060D040E1C
:10936800F326000EF422BD0EF324D96E0A0EF42063
:10937800DA6EDF500F0B0F0AD8B49CD0010E010132
:10938800086F01010B51060D040EF326000EF4229E
:10939800BD0EF324D96E0A0EF420DA6EDF500F0BDF
:1093A8000101096F0101085101010927DF5001017D
:1093B8000919F00B01010919DF6E46500F0DF3CFA3
:1093C80000F1F4CF01F1000E0101036F400E026FAE
:1093D80022EC5FF0040E01010027000E01010123B9
:1093E80001010B51060D040EF326000EF422BD0EEA
:1093F800F324D96E0A0EF420DA6EDF500F0B010148
:10940800086F096B010100510101085D0101095153
:10941800800A01010A6F01010151800A01010A59FC
:10942800D8B012D001010B51060D040EF326000E20
:10943800F422BD0EF324D96E0A0EF420DA6EDF5042
:109448000F0B0F0AD8A436D001010B51060D040EDC
:10945800F326000EF422BD0EF324D96E0A0EF42072
:10946800DA6EDF80DF82DF84DF8601010B51060DB3
:10947800050EF326000EF422BD0EF324D96E0A0E53
:10948800F420DA6EFF0EDF6E01010B51060D040E9B
:10949800F326000EF422BD0EF324D96E0A0EF42032
:1094A800DA6EDF88DF8ADF8CDF8E4650D8B402D0D0
:1094B800460600D001010B2B3E0E01010B654CD76F
:1094C80012001200156E000E176E000E186E000EB8
:1094D800196E000E1A6E040E1018D8A40AD00EC009
:1094E80017F00FC018F0000E18BEFF0E196E1A6E96
:1094F8004CD01050D8A42CD00EC011F00FC012F0D0
:10950800000E12BEFF0E136E146E0F0ED890113699
:10951800123613361436E82EF9D711C001F012C0EE
:1095280002F013C003F014C004F0E80E056E030E39
:10953800066E000E076E000E086E70EC69F001C032
:1095480017F002C018F003C019F004C01AF01DD0BB
:109558001004D8A41AD00EC011F00FC012F0000EDB
:1095680012BEFF0E136E146E0F0ED89011361236FF
:1095780013361436E82EF9D711C017F012C018F0B8
:1095880013C019F014C01AF000D017C011F018C099
:1095980012F019C013F01AC014F0111E121E131E77
:1095A800141E112A000E122213221422FF0E112457
:1095B800176EFF0E1220186E000E1320196E000E83
:1095C80014201A6E1504D8A40BD018C0CFFF17C0EA
:1095D800CEFF8C0ECD6E9F809E909D80CD8000D05A
:1095E800030E1518D8A40AD018C0B3FF17C0B2FFCD
:1095F8008C0EB16EA292A192A082B1804050D8A4E4
:109608001200010E406E000E166E160E166402D081
:10961800120012001650020D000EF324D96E020E2D
:10962800F420DA6E000EDE6E000EDD6E162A160EBF
:109638001664F0D71200120012001D0E0101426FCD
:109648001AC10BF11BC10CF1430E01010D6F010E84
:1096580001010E6F8CEC3FF00101476F1D0E0101F7
:109668001C6F260E01011D6F1AC100F11BC101F10B
:10967800000E0101026F1C0E0101036F010E0101B2
:10968800046F020E0101056F040E0101066F7CECE8
:1096980067F0430E0101006F010E0101016F000E1A
:1096A8000101026F1C0E0101036F010E0101046F1D
:1096B800060E0101056F040E0101066F7CEC67F0D0
:1096C80047C126F11AC100F11BC101F1000E0101C9
:1096D800026F1C0E0101036F010E0101046F0B0ED6
:1096E8000101056F040E0101066F7CEC67F0430E63
:1096F8000101006F010E0101016F000E0101026FEF
:109708001C0E0101036F010E0101046F0F0E010110
:10971800056F040E0101066F7CEC67F047C12FF15D
:109728001AC100F11BC101F1000E0101026F1C0EEC
:109738000101036F010E0101046F140E0101056F91
:10974800040E0101066F7CEC67F0430E0101006F07
:10975800010E0101016F000E0101026F1C0E0101D3
:10976800036F010E0101046F180E0101056F040E4D
:109778000101066F7CEC67F047C138F118C10EF1A2
:1097880019C10FF11C0E0101106F010E0101116FBB
:1097980042C112F1000E0101136F010E0101146F95
:1097A800000E0101156F45EC43F01200120000C1D4
:1097B800D9FF01C1DAFF000EDF6E010120EE01F0D2
:1097C8000051D9260151DA22000EDF6E4150D8A48B
:1097D80004D00001C051D8B439D01E0E0001C161B7
:1097E80003D00001C12B00D01E0E0001C119D8A45E
:1097F8001AD00E0E0001C36516D000C1D9FF01C1F1
:10980800DAFF030EDF6E2D0E0001C16F010120EE9D
:1098180001F00051D9260151DA22030EDF6E2D0E18
:109828000001C36F0FD01E0E0001C119D8A40AD0C1
:1098380000C1D9FF01C1DAFF020EDF6E2D0E000153
:10984800C16F00D0000E0001C06F13D0010E0001DF
:10985800C1650BD01F0E0001C16107D000C1D9FF3F
:1098680001C1DAFF010EDF6E00D0000E0001C16FEA
:1098780000D04250D8A404D00001C251D8B43AD084
:109888001E0E0001C36103D00001C32B00D01E0EC1
:109898000001C319D8A41AD00E0E0001C16516D054
:1098A80000C1D9FF01C1DAFF030EDF6E2D0E0001E2
:1098B800C16F010120EE01F00051D9260151DA22D1
:1098C800030E11D02D0E0001C36F10D01E0E000123
:1098D800C319D8A40BD0010120EE01F00051D926FC
:1098E8000151DA22020EDF6EEDD700D0000E000122
:1098F800C26F1200010E0001C3650ED01F0E0001D9
:10990800C3610AD0010120EE01F00051D9260151AE
:10991800DA22010EDF6E00D0000E0001C36F1200C4
:1099280012001D0E0101266F200E0101276F22C1B2
:1099380028F1E2EC74F00101296F030E0101556F63
:109948000101225101015503F3CF54F1000E010129
:10995800586F000E576F6DD04C0E0101146F010E39
:109968000101156F500E0101166F010E0101176FED
:10997800560E0101186F010E0101196F01015451B2
:10998800F7EC5BF04C0E0101006F010E0101016F55
:10999800000E0101026F260E0101036F010E010185
:1099A800046F01015751090DF350040F0101056FB0
:1099B800040E0101066F7CEC67F0500E0101006F88
:1099C800010E0101016F000E0101026F260E010157
:1099D800036F010E0101046F01015751090DF35086
:1099E800080F0101056F040E0101066F7CEC67F09A
:1099F80057C100F158C101F1000E0101036F090EB2
:109A0800026FCAEC70F00C0E01010027000E010174
:109A18000123260E01010025D96E010E0101012145
:109A2800DA6E56C1DFFF0101542B0101574B582B49
:109A380000D0010155510101236F246B010123510D
:109A48000101575D01015851800A0101256F01018B
:109A58002451800A01012559D8A07ED720C10EF1D2
:109A680021C10FF1260E0101106F010E0101116FC6
:109A7800260E0101126F000E0101136F010E010184
:109A8800146F000E0101156F45EC43F0120012002F
:109A98000AC10EF101010F6B106B010109350101BB
:109AA8000E3701E30F8101010E510101116F010110
:109AB8001151D8A40AD0000E0101086F000E01014F
:109AC800096F000E01010A6F12000DC10EF10101AC
:109AD8000F6B106B01010C3501010E3701E30F818B
:109AE80001010E510101166F01011651D8A40AD0C7
:109AF800000E0101086F000E0101096F000E01013F
:109B08000A6F1200010116517B0F010111270AC1CA
:109B180016F101010D510101161B800E01011617E6
:109B28000101098F01010C8FFF0E01010B17FF0EB8
:109B380001010C17000E01010D17000E0101126F33
:109B4800000E0101136F000E0101146F070E0101D1
:109B5800156F00D0010108A10DD001010B510101C1
:109B6800122701010C510101132301010D510101BB
:109B7800142300D00101D8900A33093308330101B6
:109B8800D8900B370C370D370101152FE3D700D0CC
:109B9800090E0101156F00D0010108A10DD00101C6
:109BA8000B510101122701010C510101132301017D
:109BB8000D510101142300D00101D8900A33093353
:109BC80008330101D8901433133312330101152FD0
:109BD800E3D700D012C100F113C101F114C102F1A1
:109BE80011C103F116C104F1A8EC55F000C108F148
:109BF80001C109F102C10AF1120012006EC072F02F
:109C08000001736B746B00016D350001723701E35D
:109C18007381000172510001756F00017551D8A45C
:109C28000AD0000E00016C6F000E00016D6F000E6F
:109C380000016E6F120071C072F00001736B746BDB
:109C4800000170350001723701E373810001725120
:109C580000017A6F00017A51D8A40AD0000E0001E1
:109C68006C6F000E00016D6F000E00016E6F120028
:109C780000017A517B0F000175276EC07AF0000150
:109C8800715100017A1B800E00017A1700016D8F57
:109C98000001708FFF0E00016F17FF0E0001701793
:109CA800000E00017117000E0001766F000E000112
:109CB800776F000E0001786F070E0001796F00D0F2
:109CC80000016CA10DD000016F5100017627000141
:109CD800705100017723000171510001782300D0F1
:109CE8000001D8906E336D336C330001D8906F3714
:109CF800703771370001792FE3D700D0090E0001C2
:109D0800796F00D000016CA10DD000016F510001E6
:109D1800762700017051000177230001715100017D
:109D2800782300D00001D8906E336D336C33000176
:109D3800D8907833773376330001792FE3D700D082
:109D480076C060F077C061F078C062F075C063F0EB
:109D58007AC064F038EC56F060C06CF061C06DF009
:109D680062C06EF0120012000001BE51D8B4A4D037
:109D78000001CC51D8A4A0D0C4C000F10101016BEE
:109D8800000E0101036F000E026FC90E0101046F7E
:109D9800000E056F000E066F000E076F6BEC6BF080
:109DA8000101005101012F6F01012F510101D8A4B8
:109DB80002D0000E1200000E01010E6F01012F519A
:109DC800010D000EF324D96E060EF420DA6EDF5072
:109DD80092EC72F0D3A60FD0040E01010C6F010EA5
:109DE800E2EC57F00001A25101010C250101306F8E
:109DF8000001A35114D0040E01010C6F010EE2EC16
:109E080057F00001A25101010C270001A3510101E3
:109E18000D23E60E01010C250101306FFF0E010133
:109E28000D210101316F00D0D3EC74F02CC1D9FFA2
:109E38002DC1DAFFDF6E010120EE02F02C51D92688
:109E48002D51DA2230C1DFFF010120EE01F02C5143
:109E5800D9262D51DA2201013151DF6E2CC117F1BB
:109E68002DC118F101012E51030F0101196F010EC7
:109E780001011A6F22EC48F00101D051D8A417D083
:109E8800080E4EEC6CF0010100510101D0250101D2
:109E9800D06FD0C126F10101276B010E0101286F97
:109EA800080E2AEC69F0000E0101D06F00D0000EF8
:109EB8000101D76F010E1200000E1200120000C13E
:109EC800D9FF01C1DAFF1D0EDF6E010120EE01F09E
:109ED8000051D9260151DA22230EDF6E010120EE4E
:109EE80002F00051D9260151DA22D3C002F1010152
:109EF800023BF00E0217A3EC74F0010102250001E9
:109F0800D125DF6E010120EE03F00051D926015161
:109F1800DA22D3C002F10101023BF00E0217A3ECD2
:109F280074F0010102250001D125DF6E010120EE48
:109F380004F00051D9260151DA22D3C002F10101FF
:109F4800023BF00E0217A3EC74F001010225000198
:109F5800D125DF6E010120EE05F00051D92601510F
:109F6800DA22C9C0DFFF010120EE06F00051D92630
:109F78000151DA22C9C0DFFF010120EE07F00051CC
:109F8800D9260151DA22C9C0DFFF010120EE08F00D
:109F98000051D9260151DA22CFEC74F0DF6E0101AD
:109FA80020EE09F00051D9260151DA22CFEC74F0E5
:109FB800DF6E010120EE0AF00051D9260151DA22A4
:109FC800CFEC74F0DF6E010120EE0BF00051D926C2
:109FD8000151DA22B7EC74F0DF6E010120EE0CF0CB
:109FE8000051D9260151DA22B7EC74F0DF6E010175
:109FF80020EE0DF00051D9260151DA22B7EC74F0A9
:10A00800DF6E0E0E0101036F0101035112001200F1
:10A0180019C11BF101011C6B1D6B010118350101F0
:10A028001B3701E31C8101011B510101256F01014F
:10A038002551D8A40AD0000E0101176F000E186F21
:10A04800000E196F000E1A6F1200170E01011B6F18
:10A0580017C11CF118C11DF119C11EF101011B29FD
:10A0680001011F6F05D00101D8901E331D331C3329
:10A0780001011F2FF8D701011C510101206F0101B7
:10A08800188FFF0E01011717FF0E01011817000E98
:10A0980001011917010117510101216F010118511F
:10A0A8000101226F010119510101236F0101246B84
:10A0B8008E0E0101255F010125AF1BD0010125513D
:10A0C800800A8F0FD8B00BD0000E0101176F000E59
:10A0D800186F000E196F000E1A6F120000D00101E0
:10A0E800D89024332333223321330101253FF7D776
:10A0F8001FD0170E0101256514D0000E0101176F3E
:10A10800000E186F000E196F000E1A6F120009D09A
:10A118000101D89021372237233724370101250739
:10A1280000D0010125510101D8B402D0F1D700D0E7
:10A13800010120510101D8B40AD00101241F231FB5
:10A14800221F216D000E22232323242300D021C1A6
:10A1580017F122C118F123C119F124C11AF1120013
:10A1680012000DC111F10101126B136B01010C35C5
:10A178000101113701E31281010111510101186F29
:10A1880001011851D8A40AD0000E01010B6F000E6E
:10A1980001010C6F000E01010D6F120010C111F1C9
:10A1A8000101126B136B01010F350101113701E336
:10A1B8001281010111510101196F01011951D8A42E
:10A1C8000AD0000E01010B6F000E01010C6F000E8A
:10A1D80001010D6F1200000E0101156F000E010143
:10A1E800166F000E0101176F01011951890F010146
:10A1F800185F0DC119F1010110510101191B800EE1
:10A208000101191701010C8FFF0E01010B17FF0E39
:10A2180001010C17000E01010D1701010F8FFF0E30
:10A2280001010E17FF0E01010F17000E0101101793
:10A23800180E0101146F00D00101D8901537163798
:10A24800173701010E5101010B5D01010F51010189
:10A258000C590101105101010D59D8A00ED001016E
:10A268000E5101010B5F01010F5101010C5B01014E
:10A27800105101010D5B010115810101D8900B37C7
:10A288000C370D370101142FD7D700D015C100F1B5
:10A2980016C101F117C102F118C103F119C104F186
:10A2A800A8EC55F000C10BF101C10CF102C10DF190
:10A2B800120012007DC07FF00001806B816B0001ED
:10A2C8007C3500017F3701E3808100017F51000167
:10A2D800896F00018951D8A40AD0000E00017B6F54
:10A2E800000E7C6F000E7D6F000E7E6F1200170E41
:10A2F80000017F6F7BC080F07CC081F07DC082F060
:10A3080000017F290001836F05D00001D8908233B6
:10A31800813380330001832FF8D700018051000179
:10A32800846F00017C8FFF0E00017B17FF0E000178
:10A338007C17000E00017D1700017B510001856F1D
:10A3480000017C510001866F00017D510001876F7B
:10A358000001886B8E0E0001895F000189AF1BD058
:10A3680000018951800A8F0FD8B00BD0000E000170
:10A378007B6F000E7C6F000E7D6F000E7E6F1200EB
:10A3880000D00001D89088338733863385330001A5
:10A39800893FF7D71FD0170E0001896514D0000E2A
:10A3A80000017B6F000E7C6F000E7D6F000E7E6FCC
:10A3B800120009D00001D89085378637873788374B
:10A3C8000001890700D0000189510001D8B402D0EA
:10A3D800F1D700D0000184510001D8B40AD000019F
:10A3E800881F871F861F856D000E86238723882375
:10A3F80000D085C07BF086C07CF087C07DF088C027
:10A408007EF012001200000E01012D6F0A0E2C6F53
:10A41800010E01012E6F3E0E67EC42F0000E81B076
:10A42800010E0001C76F0101F6510001C719D8A438
:10A4380007D0020E0101F66F150E3EEC73F000D046
:10A448000101CD510001C719D8B40ED0C7C0CDF154
:10A45800D70E0101186F000E0101196F000E0101DE
:10A468001A6FF5EC44F000D0020135BF0CD00201A0
:10A47800355104E102013405D8A005D002013407A2
:10A48800D8A0350700D00001B451D8A402D0110ECD
:10A4980018D00201345102013511D8A418D031EC7A
:10A4A8006FF00009D8B407D0010E0201356F2C0EE9
:10A4B800346F120E06D0000E0201356F1E0E346F77
:10A4C800100E0001B76F010E0101CE6F00D001011F
:10A4D800CF510101D8A40DD0D0EC21F093B609D00A
:10A4E8000101CE510101D8B402D08A8602D08A96E1
:10A4F80000D0130E6CEC70F00009D8B407D0000E31
:10A508000101006F010E8FEC3EF000D0140E6CECD0
:10A5180070F00009D8B404D0000E0001B06F00D06C
:10A52800150E6CEC70F00009D8B4120024EC6DF034
:10A538000101C52B0B0E0101C5611200000E0101BE
:10A54800276F3C0E266F010E0101286F150E2AECAD
:10A5580069F0120012000101000501010111D8A4DF
:10A568002FD00001A651301805E10001A75131187C
:10A57800D8B495D03C50D8B402D0000E1200010EC9
:10A588003C6E000E3024D96E050E3120DA6E02C101
:10A59800E1FF03C1E2FFDFCFE7FF304A312A31BED6
:10A5A8000AD0315004E1800E305CD8A004D0000EEF
:10A5B800316E000E306E000E3C6E010E12006FD030
:10A5C800020E0101001901010111D8A42FD00001C8
:10A5D800A851321805E10001A9513318D8B45FD049
:10A5E8003E50D8B402D0000E1200010E3E6EC90EC5
:10A5F8003224D96E060E3320DA6E02C1E1FF03C1A0
:10A60800E2FFDFCFE7FF324A332A33BE0AD0800E9B
:10A61800325C010E3358D8A004D0000E336E000E01
:10A62800326E000E3E6EC9D7120039D0040E0101F9
:10A63800001901010111D8A432D00001A4512E182B
:10A6480005E10001A5512F18D8B429D00001AC515B
:10A65800D8B402D0000E1200010E0001AC6F000E3B
:10A668002E24D96E030E2F20DA6E02C1E1FF03C13A
:10A67800E2FFDFCFE7FF2E4A2F2A2FBE0AD02F5046
:10A6880004E1270E2E5CD8A004D0000E2F6E000E19
:10A698002E6E000E0001AC6F90D7120000D0000E95
:10A6A800120012000001BE51D8A404D00001CC5100
:10A6B800D8B403D0000E12008AD00101BF510101A5
:10A6C800D8A485D0C4C000F10101016B23C102F1F7
:10A6D8000101036BC90E0101046F000E056F000E26
:10A6E800066F000E076F6BEC6BF001010051010162
:10A6F800246F010124510101D8A402D0000E1200D8
:10A70800000E01010E6F01012451010D000EF3240A
:10A71800D96E060EF420DA6EDF5092EC72F0D3A6F2
:10A728000FD0040E01010C6F010EE2EC57F000018E
:10A73800A25101010C250101256F0001A35114D07C
:10A74800040E01010C6F010EE2EC57F00001A2515A
:10A7580001010C270001A35101010D23E60E01019F
:10A768000C250101256FFF0E01010D210101266F46
:10A7780000D0D3EC74F020C1D9FF21C1DAFFDF6E1D
:10A78800010120EE02F02051D9262151DA2225C1FB
:10A79800DFFF010120EE01F02051D9262151DA22F4
:10A7A80001012651DF6E20C117F121C118F1010105
:10A7B8002251030F0101196F010E01011A6F22ECDA
:10A7C80048F0010E0101BF6F010E120000D0000E0B
:10A7D800120012000101056F80D0000E0101006F08
:10A7E800010E28EC70F0E40E00D000D0E82EFCD763
:10A7F80000D000D00201A8511F0B80090201A86FE8
:10A80800A8C202F1000E1DEC71F0800E0001B46FB9
:10A818000B0E0101046F620EE82EFED7042FFCD741
:10A8280000D012000201A8511F0B60090201A86F95
:10A83800A8C202F1000E1DEC71F0D3C000F1000EA9
:10A8480028EC70F0600E0001B46F1200000E0101D8
:10A85800006F000E28EC70F00201A8511F0B2009B0
:10A868000201A86FA8C202F1000E1DEC71F0680E7B
:10A878000101046FE40EE82EFED7042FFCD700D0A8
:10A88800200E0001B46F1200000E0101006F000ECF
:10A8980028EC70F00201A8511F0B40090201A86FB3
:10A8A800A8C202F1000E1DEC71F0400E0001B46F59
:10A8B8001200000E0101006F000E28EC70F002017A
:10A8C800A8511F0B0201A86F000E0001B46FA8C2A7
:10A8D80002F1000E1DEC71F0120001010551000A91
:10A8E800D8B4E7D7200AD8B4B1D7600AD8B4CCD73F
:10A8F800200AD8B497D7E00AD8A412006ED712005D
:10A9080006C1D9FF07C1DAFFDE04D8A489D0050E35
:10A918000101086585D0F90E010108250101006FC4
:10A928000101016BFF0E0123000E0101036F050EEB
:10A93800026F92EC62F00101005101010111D8A4EB
:10A948006FD0FF0E0101096FFF0E01010A6F0101AF
:10A95800085101010B6F0C6B0101095101010B2713
:10A9680001010A5101010C2301010B5101010625C6
:10A97800D96E01010C5101010721DA6E0001C9519C
:10A98800DE18D8B420D0FF0E0101096FFF0E0101B7
:10A998000A6F0101085101010B6F0C6B010109518C
:10A9A80001010B2701010A5101010C2301010B517F
:10A9B80001010625D96E01010C5101010721DA6E4A
:10A9C800DE28D8A403D0010E12002AD00001C9291C
:10A9D800D8A423D0FF0E0101096FFF0E01010A6FF1
:10A9E8000101085101010B6F0C6B010109510101B3
:10A9F8000B2701010A5101010C2301010B5101012F
:10AA08000625D96E01010C5101010721DA6EDE28F5
:10AA1800D8B403D0020E120003D0000E120000D0EA
:10AA2800000E1200120006EEC9F015EE6EF0EE6A86
:10AA3800E550E150FCE1E250FAE105EE00F0800E4D
:10AA4800EE6AE806FDE104EE00F010EEFFF0EE6AB3
:10AA5800E550E150FCE1E250FAE103EE00F010EEBF
:10AA6800FFF0EE6AE550E150FCE1E250FAE102EE57
:10AA780000F0A80EEE6AE806FDE101EEAEF0440E25
:10AA8800EE6AE806FDE100EEA2F0330EEE6AE80693
:10AA9800FDE100EE2CF0220EEE6AE806FDE1DE0E86
:10AAA800F66EBF0EF76E000EF86E06EE00F010EEB2
:10AAB800C9F00900F5CFEEFFE550E150FAE1320E9A
:10AAC800F66EDC0EF76E000EF86E02EEA8F010EED1
:10AAD80056F00900F5CFEEFFE550E150FAE1CE0E51
:10AAE800F66EE80EF76E000EF86E01EEF2F010EE5C
:10AAF8000EF00900F5CFEEFFE550E150FAE1BE0E89
:10AB0800F66EE90EF76E000EF86E00EED5F010EE58
:10AB180006F00900F5CFEEFFE550E150FAE1640ECA
:10AB2800F66EE90EF76E000EF86E00EE4EF010EEBF
:10AB380009F00900F5CFEEFFE550E150FAE1000E0B
:10AB4800F86E0001EDEF04F0010103510101D8B4E2
:10AB580008D0010100510101011101010211D8A41D
:10AB680013D0000E0101006F000E0101016F000EED
:10AB78000101026F120008D00101032B0101D890D6
:10AB880002330133003300D0000E0101001501012A
:10AB9800056F000E010101150101066FFE0E01018E
:10ABA80002150101076F010105510101061101019B
:10ABB8000711D8B413D0E0D711D00101032B010E2F
:10ABC80001010027000E01010123000E01010223EB
:10ABD8000101D89002330133003300D0000E010187
:10ABE80000150101056F000E010101150101066F35
:10ABF800FF0E010102150101076F01010551010155
:10AC0800061101010711D8B40AD0D7D708D001011D
:10AC180003070101D89000370137023700D001013E
:10AC280001BF05D0020E01010361F1D700D0010177
:10AC380003B103D00101019F00D00101D890033373
:10AC48000101035101010213010104510101D8B4AA
:10AC580003D00101028F00D000C100F101C101F150
:10AC680002C102F112001200000163510001D8B4C0
:10AC780008D0000160510001611100016211D8A4DF
:10AC880013D0000E0001606F000E0001616F000E0E
:10AC98000001626F120008D00001632B0001D890F8
:10ACA80062336133603300D0000E0001601500018B
:10ACB800656F000E000161150001666FFE0E000150
:10ACC80062150001676F00016551000166110001FE
:10ACD8006711D8B413D0E0D711D00001632B010E4F
:10ACE80000016027000E00016123000E00016223AD
:10ACF8000001D89062336133603300D0000E000148
:10AD080060150001656F000E000161150001666F96
:10AD1800FF0E000162150001676F00016551000117
:10AD2800661100016711D8B40AD0D7D708D000013E
:10AD380063070001D89060376137623700D000019F
:10AD480061BF05D0020E00016361F1D700D0000198
:10AD580063B103D00001619F00D00001D890633334
:10AD68000001635100016213000164510001D8B46D
:10AD780003D00001628F00D060C060F061C061F054
:10AD880062C062F012001200010100050101011108
:10AD9800D8A427D03D50D8A4120001D01200010E2B
:10ADA8003D6E000E0001A625D96E050E0001A721F3
:10ADB800DA6E02C1DFFF0001A64BA72B0001A7BF77
:10ADC8000DD00001A75105E1800E0001A65DD8A0B5
:10ADD80005D0000E0001A76F000EA66F000E3D6E95
:10ADE8001200020E0101001901010111D8A427D097
:10ADF8003F50D8A4120001D01200010E3F6EC90EB8
:10AE08000001A825D96E060E0001A921DA6E02C13B
:10AE1800DFFF0001A84BA92B0001A9BF0DD0800EB0
:10AE28000001A85D010E0001A959D8A005D0000EA7
:10AE38000001A96F000EA86F000E3F6E1200040EED
:10AE48000101001901010111D8A412000001AD513E
:10AE5800D8A4120001D01200010E0001AD6F000E3F
:10AE68000001A425D96E030E0001A521DA6E02C1E6
:10AE7800DFFF0001A44BA52B0001A5BF0DD00001E9
:10AE8800A55105E1270E0001A45DD8A005D0000E4C
:10AE98000001A56F000EA46F000E0001AD6F120037
:10AEA80012000001600500016111D8A427D03D50AF
:10AEB800D8A4120001D01200010E3D6E000E000150
:10AEC800A625D96E050E0001A721DA6E62C0DFFF44
:10AED8000001A64BA72B0001A7BF0DD00001A75169
:10AEE80005E1800E0001A65DD8A005D0000E000186
:10AEF800A76F000EA66F000E3D6E1200020E000135
:10AF0800601900016111D8A427D03F50D8A41200BD
:10AF180001D01200010E3F6EC90E0001A825D96E9E
:10AF2800060E0001A921DA6E62C0DFFF0001A84BFE
:10AF3800A92B0001A9BF0DD0800E0001A85D010E4C
:10AF48000001A959D8A005D0000E0001A96F000E74
:10AF5800A86F000E3F6E1200040E00016019000178
:10AF68006111D8A412000001AD51D8A4120001D07B
:10AF78001200010E0001AD6F000E0001A425D96E6C
:10AF8800030E0001A521DA6E62C0DFFF0001A44BA9
:10AF9800A52B0001A5BF0DD00001A55105E1270E85
:10AFA8000001A45DD8A005D0000E0001A56F000E19
:10AFB800A46F000E0001AD6F120012000101126FA4
:10AFC80001011205D8A416D0CECF13F10101146BDC
:10AFD800CFCF15F10101166B010115510101166F53
:10AFE800156B0101135101011527010114510101CC
:10AFF800162300D0030E01011219D8A416D0B2CF1F
:10B0080013F10101146BB3CF15F10101166B0101A6
:10B0180015510101166F156B010113510101152717
:10B02800010114510101162300D001010C51010145
:10B03800D8A435D015C10EF116C10FF101010E1FAC
:10B048000F1F0E4B0F2BFF0E01010E250101106F74
:10B05800FF0E01010F210101116F10C100F111C193
:10B0680001F10101026B036BE80E0101046F030E8D
:10B07800056F000E066F000E076FF1EC6AF0100EF8
:10B0880007D00101D89003330233010101330033A3
:10B09800E82EF7D700C10CF101C10DF1120015C15E
:10B0A8000EF116C10FF101010E1F0F1F0E4B0F2BD2
:10B0B800FF0E01010E2501010C6FFF0E01010F218A
:10B0C80001010D6F120012000001706F0001700580
:10B0D800D8A416D0CECF73F00001746BCFCF75F023
:10B0E8000001766B000175510001766F756B0001E8
:10B0F800735100017527000174510001762300D0B7
:10B10800030E00017019D8A416D0B2CF73F0000155
:10B11800746BB3CF75F00001766B000175510001B7
:10B12800766F756B0001735100017527000174512A
:10B138000001762300D000016C510001D8A435D05D
:10B1480075C06EF076C06FF000016E1F6F1F6E4BFA
:10B158006F2BFF0E00016E250001716FFF0E0001BD
:10B168006F210001726F71C060F072C061F0000160
:10B17800626B636BE80E0001646F030E656F000E6F
:10B18800666F000E676F2EEC6BF0100E07D0000193
:10B19800D89063336233000161336033E82EF7D708
:10B1A80060C06CF061C06DF0120075C06EF076C0C2
:10B1B8006FF000016E1F6F1F6E4B6F2BFF0E0001AB
:10B1C8006E2500016C6FFF0E00016F2100016D6F8D
:10B1D800120012000001CA510001D8A404D0010EC7
:10B1E8000001CA6F00D0CAC007F1000E01010A6F42
:10B1F8005DD0000E0101096F000E086F2CD001010F
:10B208000A51010DF35001010025D96EF4500101D6
:10B218000121DA6E0001CA51010DC80EF324E16E56
:10B22800020EF420E26EE7500101046F01010A5199
:10B23800010DF35001010025E16EF45001010121D7
:10B24800E26EE7500101042501010A25DF6E0101C4
:10B25800084B092B00D00001CA51010DC80EF32478
:10B26800D96E020EF420DA6EDF50070B0101046F6D
:10B27800056B010104510101085D01010951800AB2
:10B288000101066F01010551800A01010659D8A084
:10B29800B6D70001CA2B070E0001CA6504D0000EFC
:10B2A8000001CA6F00D001010A2B00D001010A5128
:10B2B8000101046F056B010102510101045D0101E7
:10B2C8000551800A0101066F01010351800A01013D
:10B2D8000659D8A08ED70101075112001200000E9E
:10B2E8000101116F000E0101106F000E0F6F000EAB
:10B2F8000101136F000E126F000E0101006F040EA2
:10B308000CEC6FF0000E0101136F000E126F000EAF
:10B318000101116F090E0101116501D023D0E8EC7C
:10B3280074F000D07CEC74F00009D8A4FBD7C450AA
:10B338000101106F0F6BC35001010F13040E0101BF
:10B34800116509D001010F510101122701011051A6
:10B358000101132300D00A0EE82EFED700D0010108
:10B36800112BD8D712C106F113C107F1000E010144
:10B37800096F050E086FB6EC69F006C112F107C136
:10B3880013F1020E0101006F040E0CEC6FF0C29075
:10B3980012C100F113C101F1000E0101036F070E84
:10B3A800026FCAEC70F000C106F101C107F1000E8E
:10B3B8000101096F060E086FB6EC69F006C112F1BB
:10B3C80007C113F10101D8510101125F000E0101FB
:10B3D800D8BFFF0E0101135B12C10DF113C10EF1AD
:10B3E80012001200000E0101096F010103AF0DD018
:10B3F8000101031F021F011F006D000E012302231C
:10B408000323010E0101096F00D0010107AF0AD023
:10B418000101071F061F051F046D000E05230623E3
:10B42800072300D001010451010105110101061192
:10B4380001010711D8B43FD0010E0101086F09D0EE
:10B448000101D89004370537063707370101082B63
:10B4580000D0010107BF02D0F3D700D00101045189
:10B468000101005D01010551010101590101065168
:10B47800010102590101075101010359D8A011D056
:10B48800010104510101005F010105510101015B46
:10B49800010106510101025B010107510101035B32
:10B4A80000D00101D8900733063305330433010176
:10B4B800082FD4D700D0010109510101D8B40AD00E
:10B4C8000101031F021F011F006D000E012302234B
:10B4D800032300D000C100F101C101F102C102F152
:10B4E80003C103F1120012000101096F000E0101EE
:10B4F8000A6F0F015A99000E0001CC6F000E00016F
:10B50800D46F000E0001CE6F000E0001CF6F000E49
:10B51800476E000E396E200E0001B46F000E020156
:10B52800666F000E0001C86F000E0101D96F000E92
:10B538004C6E000E456E8986050E0101076F260EBA
:10B54800E82EFED7072FFCD700D08996680E010198
:10B55800076FE40EE82EFED7072FFCD700D0000EA9
:10B568000101046F010109515DEC47F0000E010172
:10B578000A6F1F0E01010A6501D015D001010A5199
:10B58800010DA80EF324D96E020EF420DA6EDF50F6
:10B598000101026F01010A51020DF3501DEC71F017
:10B5A80001010A2BE6D70001B551CCEC73F0F296F5
:10B5B80000F00F015A8900F081CF08F100F0F290F5
:10B5C800F28609C14EF0150E0101076FC60EE82E6E
:10B5D800FED7072FFCD700D07BEC73F0010E0001DB
:10B5E800D16F000E0001D36F12000101086FFA0E2F
:10B5F8000101086178D008C109F101010A6B09C18C
:10B6080006F10AC107F10101D89006370737010191
:10B61800D8900637073706C109F107C10AF104C1F6
:10B62800D9FF05C1DAFF09C102F10AC103F15FECD4
:10B6380074F00101076FDE5001010719D8A451D039
:10B64800010120EE01F00451D9260551DA22010E3C
:10B65800010109250101026F000E01010A21010102
:10B66800036F5FEC74F00101076FDE5001010719E9
:10B67800D8A437D0010120EE02F00451D926055193
:10B68800DA22020E010109250101026F000E0101F3
:10B698000A210101036F5FEC74F00101076FDE50AE
:10B6A80001010719D8A41DD0010120EE03F00451AF
:10B6B800D9260551DA22030E010109250101026F7D
:10B6C800000E01010A210101036F5FEC74F0010112
:10B6D800076FDE5001010719D8A403D0010E12002C
:10B6E80000D0000E1200000E12001200010E000120
:10B6F800D16F000E5EEC73F0000E0001D36FFF0EE9
:10B70800C0EC6EF0000ECCEC73F0080E8FEC74F009
:10B71800E4C1D7F0E5C1D8F0E6C1D9F0E7C1DAF065
:10B72800D1C02FF1C7EC74F0030E0101016FEF0EC9
:10B73800006FB7EC74F00101026F56EC6FF0C7ECC4
:10B7480074F0030E0101016FFC0E006FCFEC74F072
:10B758000101026F56EC6FF0C7EC74F0030E0101A3
:10B76800016FFD0E006F2FC102F156EC6FF0C7ECB0
:10B7780074F0030E0101016FFE0E006FC9C002F1E3
:10B7880056EC6FF0C7EC74F0030E0101016FE80E80
:10B79800006FFF0E0101026F56EC6FF0C7EC74F0FA
:10B7A800030E0101016FE90E006FFF0E0101026F28
:10B7B80056EC6FF0C7EC74F0030E0101016FEA0E4E
:10B7C800006FFF0E0101026F56EC6FF0C7EC74F0CA
:10B7D800030E0101016FEB0E006FFF0E0101026FF6
:10B7E80056EC6FF0120001011F6FFA0E01011F6184
:10B7F8004FD01B0E01010C6F010E01010D6F0101ED
:10B808001F514FEC64F01B0E0101066F010E010180
:10B81800076F14C108F115C109F1040E01010A6F7F
:10B82800E6EC6EF001011F51020DC90EF324D96E2A
:10B83800080EF420DA6EDF503F0B01011A6F010188
:10B848001A51060DBD0EF3240101066F0A0EF420ED
:10B858000101076F16C108F117C109F1040E0101B2
:10B868000A6FE6EC6EF001011F51020D010EF3267E
:10B87800000EF422C90EF324D96E080EF420DA6EF5
:10B88800DF501F0B18C1D9FF19C1DAFFDF6E120094
:10B89800E40E0101066F010E0101076F14C108F1E2
:10B8A80015C109F1040E01010A6FE6EC6EF0E40E11
:10B8B8000101066F010E0101076F16C108F117C1DA
:10B8C80009F1040E01010A6FE6EC6EF018C1D9FF08
:10B8D80019C1DAFFFF0EDF6E1200120001010D6FB1
:10B8E80001010D511CEC72F00DC100F10101016B59
:10B8F80001010651050F0101026FC8EC56F007C19E
:10B9080008F1060E01010827020E0101096F010165
:10B91800082B03D00101D89009370101082FFAD765
:10B928000101095101010A6F0DC100F10101016B0B
:10B938000AC102F1C8EC56F0000E01010B6F000EAF
:10B9480001010C6F25D00DC100F10101016B01014E
:10B958000C51010DF35001010425D96EF450010179
:10B968000521DA6EDF500101026FC8EC56F00101C3
:10B978000C51010DF35001010425D96EF450010159
:10B988000521DA6EDF5001010B1B01010C2B00D0E1
:10B998000101065101010C5DD8A0D5D70DC100F1F8
:10B9A8000101016B0BC102F1C8EC56F00DC100F1A9
:10B9B8000101016B0D0E0101026FC8EC56F00DC1BB
:10B9C80000F10101016B0A0E0101026FC8EC56F08B
:10B9D8001200000E01010A6F5ED0000E0101096F0E
:10B9E800000E086F2DD001010A51010DF35001011D
:10B9F8000025D96EF45001010121DA6E01010A51C6
:10BA0800010DF35001010025E16EF45001010121FF
:10BA1800E26EE7500101056F01010451010DC80EE6
:10BA2800F324E16E020EF420E26EE75001010A25CC
:10BA3800000801010525DF6E0101084B092B00D024
:10BA480001010451010DC80EF324D96E020EF42031
:10BA5800DA6EDF50070B0101056F066B0101055116
:10BA68000101085D01010951800A0101076F010107
:10BA78000651800A01010759D8A0B5D70101042B46
:10BA8800070E0101046504D0000E0101046F00D007
:10BA980001010A2B00D001010A510101056F066B53
:10BAA800010102510101055D01010651800A0101F0
:10BAB800076F01010351800A01010759D8A08DD7EA
:10BAC8001200030E010134250101386F000E010137
:10BAD80035210101396F32C106F133C107F14AEC52
:10BAE80065F00101376F32C106F133C107F138C182
:10BAF80008F139C109F1040E01010A6FE6EC6EF094
:10BB0800E80E0101066F010E0101076F040E010125
:10BB180038250101086F000E010139210101096F63
:10BB2800040E01010A6FE6EC6EF0020E0101BE1967
:10BB3800D8A410D038C104F139C105F1010136513A
:10BB4800080F0101066F000E0101076F020E72EC6B
:10BB58005CF000D032C106F133C107F1E40E0101F7
:10BB6800086F010E0101096F040E01010A6FEDEC67
:10BB78006DF00009D8A40ED034C120F135C121F1EF
:10BB880001013651080F0101226F37C123F156EC2C
:10BB980053F0120034C12CF135C12DF10101365199
:10BBA800080F01012E6FB8EC4EF01200120010C100
:10BBB80006F111C107F10EC108F10FC109F1040E18
:10BBC80001010A6FE6EC6EF0E80E0101006F010E4C
:10BBD8000101016F000E0101026F0EC103F10FC1D7
:10BBE80004F1040E0101056F040E0101066F7CECDF
:10BBF80067F0010120EE08F00E51D9260F51DA2224
:10BC0800030EDF6E010120EE09F00E51D9260F5107
:10BC1800DA22000EDF6E010120EE0AF00E51D9265D
:10BC28000F51DA22000EDF6EE80E0101006F010EDF
:10BC38000101016F000E0101026F0EC103F10FC176
:10BC480004F10B0E0101056F040E0101066F7CEC77
:10BC580067F010C100F111C101F1000E0101026F7E
:10BC68000EC103F10FC104F10F0E0101056F040E9F
:10BC78000101066F7CEC67F0010120EE13F00E5114
:10BC8800D9260F51DA22000EDF6E12000101195178
:10BC98000101175D01011A5101011859D8B045D0A9
:10BCA8000101195101011F6F01011A510101206F92
:10BCB8000101216B0101226B01011F1F201F211FA0
:10BCC800221F1F2B000E202321232223010117519D
:10BCD80001011F250101236F0101185101012021D4
:10BCE8000101246F000E010121210101256F000EC1
:10BCF800010122210101266F01011B5101012325A8
:10BD08000101276F01011C51010124210101286F44
:10BD180001011D51010125210101296F01011E5158
:10BD28000101262101012A6F19D019C11FF11AC179
:10BD380020F101011F1F201F1F4B202B010117514C
:10BD480001011F2701011851010120231FC127F1FB
:10BD580020C128F10101296B2A6B00D027C117F1F6
:10BD680028C118F1120012000101126F01011251CD
:10BD78000101D8A40DD0D6CF13F10101146BD7CF90
:10BD880015F111D0010115510101166F156B0ED077
:10BD9800030E01011219D8A412D0B2CF13F1010178
:10BDA800146BB3CF15F10101166BECD701011351D8
:10BDB80001011527010114510101162300D00101C9
:10BDC8000C510101D8A435D015C10EF116C10FF1DF
:10BDD80001010E1F0F1F0E4B0F2BFF0E01010E2529
:10BDE8000101106FFF0E01010F210101116F10C138
:10BDF80000F111C101F10101026B036BE80E0101B1
:10BE0800046F030E056F000E066F000E076FF1EC4E
:10BE18006AF0100E07D00101D890033302330101F4
:10BE280001330033E82EF7D700C10CF101C10DF141
:10BE3800120015C10CF116C10DF11200000E01011E
:10BE4800056F010103AF09D00101026D031FD8B0CE
:10BE5800032B010E0101056F00D0010101AF09D0CC
:10BE68000101006D011FD8B0012B010E0101051B56
:10BE780000D0000E0101076F000E066F010102518C
:10BE880001010311D8B431D0010E0101046F07D0AC
:10BE98000101D890023703370101042B00D00101BA
:10BEA80003BF02D0F5D700D00101D8900637073775
:10BEB800010102510101005D010103510101015914
:10BEC800D8A00BD0010102510101005F010103510B
:10BED8000101015B0101068100D00101D890033303
:10BEE80002330101042FE0D700D0010105510101FF
:10BEF800D8B406D00101066D071FD8B0072B00D0B3
:10BF080006C100F107C101F1120012000101026F20
:10BF180001010251060D050EF326000EF422BD0E96
:10BF2800F324D96E0A0EF420DA6EDE28D8A410D0D5
:10BF380001010251060D050EF326000EF422BD0E76
:10BF4800F324D96E0A0EF420DA6E00C1DFFF120066
:10BF580001010251060D050EF326000EF422BD0E56
:10BF6800F324D96E0A0EF420DA6E01010051DE5C6A
:10BF7800D8B00FD001010251060D050EF326000EB0
:10BF8800F422BD0EF324D96E0A0EF420DA6EDF2AED
:10BF9800120001010251060D050EF326000EF422CF
:10BFA800BD0EF324D96E0A0EF420DA6EDE500101BC
:10BFB800005DD8B0120001010251060D050EF326EE
:10BFC800000EF422BD0EF324D96E0A0EF420DA6EA8
:10BFD800DF061200120000010203040A0B0C0D0E0A
:10BFE80014151617181E1F20212228292A2B2C0564
:10BFF800060708090F10111213191A1B1C1D2324F8
:10C008002526272D2E2F30310031302F2E2D272693
:10C018002524231D1C1B1A19131211100F090807B8
:10C0280006052C2B2A29282221201F1E1817161531
:10C03800140E0D0C0B0A0403020100010203040A8A
:10C048000B0C0D0E14151617181E1F202122282957
:10C058002A2B2C05060708090F10111213191A1B91
:10C068001C1D23242526272D2E2F30310031302F5B
:10C078002E2D27262524231D1C1B1A1913121110D7
:10C088000F09080706052C2B2A29282221201F1E04
:10C0980018171615140E0D0C0B0A040302010000E4
:10C0A800000E0101086F000E096F000E0A6F000EE6
:10C0B8000B6F010104510101051101010611010174
:10C0C8000711D8B447D0010E01010C6F09D0010146
:10C0D800D890043705370637073701010C2B00D0F5
:10C0E800010107BF02D0F3D700D00101D89008376B
:10C0F80009370A370B37010104510101005D0101BD
:10C1080005510101015901010651010102590101BD
:10C11800075101010359D8A013D0010104510101AD
:10C12800005F010105510101015B01010651010197
:10C13800025B010107510101035B0101088100D085
:10C148000101D890073306330533043301010C2F5E
:10C15800CCD700D008C100F109C101F10AC102F130
:10C168000BC103F112001B6E4350D8B41FD01B50F3
:10C17800D8B40CD0FF0E34240E6EFF0E35200F6E8F
:10C18800040E106E010E66EC4AF00AD034C00EF0B0
:10C1980035C00FF0040E106E010E66EC4AF000D0A8
:10C1A800070E356E3468000E436E00D0010E000194
:10C1B800A2250001A26FF80E0001A3210001A36FC0
:10C1C8002C06D8A02D062C502D10D8A40ED0000E69
:10C1D8002D6E100E2C6E30C2A2F031C2A3F07F0E6D
:10C1E8000201316FF00E306F0BD02C042D10D8A443
:10C1F80007D0010E436EA2C034F0A3C035F000D0C2
:10C208000001C42BC80E0001C46504D0000E000153
:10C21800C46F00D00201322904E102013329D8B4E5
:10C2280012000201324B332B12001200000E0101E2
:10C23800156F000E146F010115BF0AD001011551C9
:10C248003CE10A0E0101145DD8B037D001D035D0D9
:10C2580073EC59F00DC1AAF00EC1ABF00001ABBFF1
:10C268000ED0230E0001AA5D0C0E0001AB59D8A018
:10C2780006D00001AA51DE0F0101D82712D0000113
:10C28800ABBF08D01C0E0001AA5D0C0E0001AB5913
:10C29800D8B007D00001AA5100081C0F0101D85FCF
:10C2A80000D0020E0101016F8A0E006FF0EC6CF0F5
:10C2B8000101144B152BBFD700D00101D851800ABA
:10C2C8009F0FD8A012000101D851800A600FD8B082
:10C2D8001200C7EC74F0030E0101016FF00E006F3D
:10C2E800D8C102F156EC6FF01200120000018E6FF7
:10C2F8008EC0D4F0D4C060F00001616B000E000164
:10C30800636F070E626FECEC62F00001605101018F
:10C31800C16F880E0001D46504D0280E0001D46FC7
:10C328001200000E00016F6F000E0001706F3F0ECB
:10C338000001716FDA0E00018A6FFF0E00018B6F2A
:10C348000001D45100018C6F8D6B00018A510001EE
:10C358008C2700018B5100018D2300018C1F8D1F3C
:10C368008C4B8D2B640E00018C250001686F000E2C
:10C3780000018D210001696F7AEC6FF068C06CF0E4
:10C3880069C06DF06AC06EF002EC4EF06CC07BF0D4
:10C398006DC07CF06EC07DF05EEC51F000017B5109
:10C3A800280F0001D46F12001200DCC200F1DDC2B8
:10C3B80001F1DEC202F1DFC203F1E0C204F1E1C221
:10C3C80005F1E2C206F1E3C207F1F1EC6AF000C13F
:10C3D800DCF201C1DDF202C1DEF203C1DFF2390E87
:10C3E8000201DC27300EDD23000EDE23000EDF23E2
:10C3F800100E01010E6FDCC20FF1DDC210F1DEC2BA
:10C4080011F1DFC212F101010E6701D009D001015B
:10C4180012351233113310330F3301010E2FF3D7B6
:10C42800FF0E01010F150101006F7F0E01011015AC
:10C438000101016F000E010111150101026F000ECB
:10C44800010112150101036F0CC104F10DC105F1C1
:10C458000101066B076BF6EC59F000C10CF101C144
:10C468000DF1120012007C0ED36E9B8CD2909B8E25
:10C47800200E926EBB0E936E130E946E860E806E17
:10C48800000E816EC40E826E100E0F015D6F010EDC
:10C498000F015C6FF19E0F015B810F015B930F0130
:10C4A8005B850F015B970F015B990F015B9B0F0188
:10C4B8005B9D0F015B9FD180000E0101006F030E91
:10C4C8008FEC3EF0000E0101006F010E8FEC3EF084
:10C4D800010E0101F46F000E0201476F000E466F56
:10C4E800000E0201456F000E446F000E02015D6FE1
:10C4F800000E5C6F000E02015F6F000E5E6F000E93
:10C508000101C26F0201A4690201A5690201A669BD
:10C518000201A769000E0201676F1200000E0101F7
:10C52800056F010101AF09D00101006D011FD8B0ED
:10C53800012B010E0101056F00D0010103AF06D0E8
:10C548000101026D031FD8B0032B00D00101025175
:10C5580001010311D8B42BD0010E0101046F07D0DB
:10C568000101D890023703370101042B00D00101E3
:10C5780003BF02D0F5D700D0010102510101005DCF
:10C588000101035101010159D8A009D0010102514B
:10C598000101005F010103510101015B00D00101AC
:10C5A800D890033302330101042FE6D700D00101EC
:10C5B80005510101D8B406D00101006D011FD8B0A2
:10C5C800012B00D000C100F101C101F112001200DD
:10C5D800000E0001656F000161AF09D00001606DB8
:10C5E800611FD8B0612B010E0001656F00D00001FA
:10C5F80063AF06D00001626D631FD8B0632B00D013
:10C608000001625100016311D8B42BD0010E000162
:10C61800646F07D00001D890623763370001642B3C
:10C6280000D0000163BF02D0F5D700D000016251ED
:10C638000001605D0001635100016159D8A009D073
:10C64800000162510001605F000163510001615BFC
:10C6580000D00001D890633362330001642FE6D71D
:10C6680000D0000165510001D8B406D00001606D0A
:10C67800611FD8B0612B00D060C060F061C061F06C
:10C68800120012000EC100F10FC101F1000E0101EC
:10C69800026F0EC103F10FC104F1080E0101056F0D
:10C6A800080E0101066F38EC6AF00009D8B41200D0
:10C6B8000EC100F10FC101F1080E0101026F0EC198
:10C6C80003F10FC104F1100E0101056F080E0101FD
:10C6D800066F38EC6AF00009D8B41200000E0101A8
:10C6E800106F070E0101106501D01DD0C7EC74F062
:10C6F800F40E010110250101006F0101016B030E09
:10C7080001230101105101010E25D96E0101000E0E
:10C7180001010F21DA6EDF500101026F56EC6FF054
:10C728000101102BDED70EC100F10FC101F12FEC72
:10C7380067F012001200000E0101106F000E0F6F5B
:10C74800010110BF0AD0010110514AE1FA0E01019E
:10C758000F5DD8B045D001D043D00BC104F10CC156
:10C7680005F101010F51F9EC5AF00009D8B433D0A2
:10C778000FC10DF110C10EF1D89001010D370E3720
:10C78800010E01010D27000E0E23C90E01010D2512
:10C79800D96E080E01010E21DA6EDF501F0B1F0A39
:10C7A800D8B419D00FC10DF110C10EF1D890010104
:10C7B8000D370E37010E01010D27000E0E23C90E8D
:10C7C80001010D25D96E080E01010E21DA6EDF3840
:10C7D800E832070B120001010F4B102BB1D700D024
:10C7E800000E12001200EACF1FF0E1CF20F0E2CFD6
:10C7F80021F0D9CF22F0DACF23F0F3CF24F0F4CF11
:10C8080025F0F6CF26F0F7CF27F0F8CF28F0F5CFB0
:10C8180029F09EB09DA022D09E90F80E2B6E000E9F
:10C828002A6E2B50CF6ED3B603D0010E4B6E00D0BC
:10C838004B50B7EC60F0010E0101B96F02016B2B90
:10C848000001CC51D8B404D002013A4B3B2B06D09E
:10C85800000E02013B6F000E3A6F00D029C0F5FFB1
:10C8680028C0F8FF27C0F7FF26C0F6FF25C0F4FF51
:10C8780024C0F3FF23C0DAFF22C0D9FF21C0E2FFA2
:10C8880020C0E1FF1FC0EAFF1EC0E9FF1DC0FBFF7B
:10C898001CC0FAFF11000101106FFA0E01011061AE
:10C8A8003ED010C111F10101126B11C10EF112C17C
:10C8B8000FF10101D8900E370F370101D8900E37CC
:10C8C8000F370EC111F10FC112F1000E0101136FE4
:10C8D800030E0101136502D0120012000101135169
:10C8E800010DF35001010C25D96EF45001010D2101
:10C8F800DA6E01011351010111250101026F000EC9
:10C90800010112210101036F5FEC74F0DF6E010178
:10C91800132B030E01011365E1D712001200E40E78
:10C928000101066F010E0101076F0CC108F10DC16D
:10C9380009F1040E01010A6FE6EC6EF01200120014
:10C948000101146F030E0101086F01011451060D56
:10C95800050EF326000EF422BD0EF324D96E0A0E3E
:10C96800F420DA6EDF50C7EC45F00101136F0101C6
:10C978001451060D040EF326000EF422BD0EF32406
:10C98800D96E0A0EF420DA6EDF380F0B51EC71F015
:10C998000101135DD8B012D001011451060D040E27
:10C9A800F326000EF422BD0EF324D96E0A0EF420ED
:10C9B800DA6EDF380F0B51EC71F01200030E010133
:10C9C800086F01011451060D050EF326000EF4221E
:10C9D800BD0EF324D96E0A0EF420DA6EDF50C7ECD0
:10C9E80045F0120012000EC106F10FC107F1E40E66
:10C9F8000101086F010E0101096F040E01010A6FA0
:10CA0800EDEC6DF00009D8A41200000E0101126FC0
:10CA18003E0E0101126502D01200120001011251EE
:10CA2800060DBD0EF3240101066F0A0EF420010164
:10CA3800076F0EC108F10FC109F1040E01010A6F59
:10CA4800EDEC6DF00009D8B418D010C111F1010156
:10CA58001251060D040EF326000EF422BD0EF32427
:10CA6800D96E0A0EF420DA6E0101113BDF50010184
:10CA780011190F0B1119DF6E12000101122B3E0E56
:10CA880001011265CBD7120012001200000E01013D
:10CA98000E6F000E0D6F010120EE03F00651D9262E
:10CAA8000751DA22DF500101086F06C1D9FF07C11B
:10CAB800DAFFDF500101096F0A6B010120EE01F076
:10CAC8000651D9260751DA22DF5001010B6F010107
:10CAD8000B5101010927000E0A23010120EE02F083
:10CAE8000651D9260751DA22DF5001010C6F0101E6
:10CAF8000C5101010927000E0A2301010851010107
:10CB080009250101006F0101000E01010A2101013F
:10CB1800016F000E0101036FC90E026F92EC62F003
:10CB280000C10DF101C10EF101010D5112001200F9
:10CB380001012C6F01012C5178EC5AF0000E010113
:10CB4800C46F000E0101E16F010E0101F56F7F0E48
:10CB58000201316FF00E306F7F0E0001A36FF00EEF
:10CB6800A26F000E2D6E100E2C6E070E01010E6FB7
:10CB78000D69040E01010F6F010E1EEC44F0010E49
:10CB88000001A2250001A26FF80E0001A3210001F7
:10CB9800A36F2C06D8A02D06070E356E3468090E33
:10CBA8003EEC73F0000E01010D6F1E0E0C6FD9ECF8
:10CBB80061F05A0E01010C250101266F000E0101DA
:10CBC8000D210101276F010E0101286F0E0E2AECBD
:10CBD80069F01200100E0101446F18C10BF119C160
:10CBE8000CF1400E01010D6F010E01010E6F8CEC6E
:10CBF8003FF01D0E01011A6F2E0E01011B6F460E2C
:10CC080001011C6F480E01011D6F430E01011E6FCB
:10CC1800010E0101066F000E076F020E086F000E6D
:10CC2800096F0B0E01010A6F000E0B6F000E0C6FDF
:10CC3800000E0D6F1F0E01010E6F010E01010F6F27
:10CC4800E1EC66F018C10EF119C10FF11A0E0101DD
:10CC5800106F010E0101116F44C112F1000E0101A4
:10CC6800136F010E0101146F000E0101156F45ECE1
:10CC780043F012001200100E0101446F18C10BF1AD
:10CC880019C10CF1400E01010D6F010E01010E6F6B
:10CC98008CEC3FF01D0E01011A6F2A0E01011B6F6B
:10CCA800410E01011C6F530E01011D6F460E01015B
:10CCB8001E6F010E0101066F000E076F020E086F4E
:10CCC800000E096F0B0E01010A6F000E0B6F000EAC
:10CCD8000C6F000E0D6F1F0E01010E6F010E01018A
:10CCE8000F6FE1EC66F018C10EF119C10FF11A0EC1
:10CCF8000101106F010E0101116F44C112F1000E04
:10CD08000101136F010E0101146F000E0101156F6F
:10CD180045EC43F012001200000E0101126F000EE4
:10CD2800116F000E0101106F000E0F6F000E010150
:10CD3800136F090E0101136501D02AD0E8EC74F0D5
:10CD480000D07CEC74F00009D8A4FBD7C4500101D2
:10CD5800126F116BC35001011113040E0101136509
:10CD680014D0100E0101125DD8A006D0000E0101EA
:10CD7800126F000E116F00D00101115101010F2730
:10CD8800010112510101102300D00101132BD1D749
:10CD98000FC106F110C107F1000E0101096F050E60
:10CDA800086FB6EC69F006C10FF107C110F10FC1A9
:10CDB8000DF110C10EF112001200000E0101106FEA
:10CDC800000E116F000E126F000E136F899E030E76
:10CDD800A4EC72F001010851A4EC72F001010751B2
:10CDE800A4EC72F001010651A4EC72F0000E0101EE
:10CDF800106F000E116F000E126F000E136F17D018
:10CE08000101105101010E25D96E010111510101D5
:10CE18000F21DA6EB2EC73F001010051DF6E010EE2
:10CE280001011027000E11231223132300D0010142
:10CE38000A510101105D01010B5101011159010154
:10CE48000C510101125901010D5101011359D8A0CA
:10CE5800D7D7898E1200000E0101036F070E01015A
:10CE6800036501D019D001010351010DF3500101EF
:10CE78000025D96EF45001010121DA6E0101035138
:10CE8800010DC80EF324E16E020EF420E26EDFCF2E
:10CE9800E7FF0101032BE2D7000E0101036F070E24
:10CEA8000101036502D01200120001010351010DB6
:10CEB800F35001010025D96EF45001010121DA6E09
:10CEC800DE28D8A409D0070E01010319D8A408D078
:10CED800000E0101C66F04D0010E0101C66F1200D9
:10CEE8000101032B070E01010365DFD712001200B1
:10CEF800000E01010D6F3FD0010102510DC107F174
:10CF08000101086B01010727000E082300C109F180
:10CF180001C10AF101010751010109270101085165
:10CF280001010A2309C1F6FF0AC1F7FF000EF86ED6
:10CF3800010105510DC10BF101010C6B01010B271A
:10CF4800000E0C2301010B5101010325D96E0101CB
:10CF58000C5101010421DA6E0E0EF76403D00800AB
:10CF6800F55005D0F6CFE9FFF7CFEAFFEF50DF6EB7
:10CF780001010D2B00D00101065101010D5DD8A062
:10CF8800BBD712003FEC74F0899E020EA4EC72F03D
:10CF980001010751A4EC72F001010651A4EC72F0F2
:10CFA80001010551A4EC72F0000E01010F6F000E93
:10CFB800106F000E116F000E126F15D001010F5186
:10CFC80001010925D96E0101105101010A21DA6E0A
:10CFD800DF50A4EC72F0010E01010F27000E1023A0
:10CFE8001123122300D001010B5101010F5D010132
:10CFF8000C510101105901010D5101011159010193
:10D008000E5101011259D8A0D9D7898E1BEC74F0A2
:10D0180012001200040E01010E250101066F000E18
:10D0280001010F210101076F10C108F111C109F1B8
:10D03800040E01010A6FE6EC6EF04FEC74F002C1C9
:10D04800D9FF03C1DAFF12C1E1FF13C1E2FFDFCF4D
:10D05800E7FF0EC106F10FC107F1E40E0101086FE9
:10D06800010E0101096F040E01010A6FEDEC6DF06C
:10D078000009D8A412D00EC106F10FC107F1E80EBD
:10D088000101086F010E0101096F040E01010A6F09
:10D09800EDEC6DF00009D8B402D0010E1200000EBC
:10D0A80012001200000E0001C56F3E0E010108615A
:10D0B8001200200EEEEC53F0800EEEEC53F001015E
:10D0C8000851020F07EC74F00001B55107EC74F039
:10D0D800000E0101096F21D001010951010DF35022
:10D0E80001010625D96EF45001010721DA6EDF50DF
:10D0F8000001C5190001C56F01010951010DF35067
:10D1080001010625D96EF45001010721DA6EDF50BE
:10D1180007EC74F00101092B00D00101085101014D
:10D12800095DD8A0D9D70001C55107EC74F01200E9
:10D13800120001010B6FFA0E01010B6112000BC105
:10D148000CF101010D6B0CC109F10DC10AF10101CE
:10D15800D89009370A370101D89009370A3709C129
:10D168000CF10AC10DF1000E01010E6F030E010151
:10D178000E6502D01200120001010E5101010C25AA
:10D188000101046F000E01010D210101056F01016C
:10D198000E51010DF35001010725D96EF45001011C
:10D1A8000821DA6EDF500101066F6DEC73F00101A2
:10D1B8000E2B030E01010E65DFD7120012001200BC
:10D1C800FCEC73F00101046F0001CE51D8A41CD00F
:10D1D80001010429D8A403D004C1CFF007D001016C
:10D1E80004290001CF6F0001CF05476E400E0001F2
:10D1F800CF650AD0400E0001CF6F0001CF05476E02
:10D20800010E0201686F00D00001CF510001CE5D10
:10D21800D8B00ED00001CE51010D800EF324D96E86
:10D22800040EF420DA6E04C1DFFF0001CE2B00D01B
:10D238000001CF510001CE19D8A412000001CF512E
:10D24800D8B41200010E396E1200120001012B6FC2
:10D25800010126291DE101012729D8A419D00101BE
:10D268002B51020D000EF324D96E020EF420DA6E53
:10D27800FF0EDE6EFF0EDD6E01012B51010D270E34
:10D28800F324D96E030EF420DA6E28C1DFFF1200F2
:10D29800010E010126250101296F000E0101272138
:10D2A80001012A6F01012B51020D000EF324D96EE2
:10D2B800020EF420DA6E29C1DEFF2AC1DDFF01016A
:10D2C8002B51010D270EF324D96E030EF420DA6ECC
:10D2D80028C1DFFF12001200000E096E000E0A6E50
:10D2E800000E0B6E000E0C6E05500610071008108D
:10D2F800D8B42FD0010E0D6E07D0D890053606365B
:10D30800073608360D2A00D008BE02D0F6D700D05E
:10D31800D89009360A360B360C360550015C065093
:10D3280002580750035808500458D8A00AD005508E
:10D33800015E0650025A0750035A0850045A0980E1
:10D3480000D0D89008320732063205320D2EE0D7C9
:10D3580000D009C001F00AC002F00BC003F00CC0F5
:10D3680004F01200000E01010C6F000E0B6F01019A
:10D37800085101010911D8B431D0010E01010A6F19
:10D3880007D00101D8900837093701010A2B00D0CE
:10D39800010109BF02D0F5D700D00101D8900B37A1
:10D3A8000C37010108510101065D01010951010114
:10D3B8000759D8A00BD0010108510101065F0101EE
:10D3C80009510101075B01010B8100D00101D890CF
:10D3D8000933083301010A2FE0D700D00BC106F149
:10D3E8000CC107F11200000E0001666F000E656F98
:10D3F8000001625100016311D8B431D0010E00015F
:10D40800646F07D00001D890623763370001642B3E
:10D4180000D0000163BF02D0F5D700D00001D8903A
:10D4280065376637000162510001605D0001635194
:10D4380000016159D8A00BD0000162510001605F62
:10D44800000163510001615B0001658100D00001AA
:10D45800D890633362330001642FE0D700D065C0F1
:10D4680060F066C061F01200000E01010D6F31D04E
:10D47800010105510DC107F10101086B01010727E1
:10D48800000E08230101075101010325D96E01018E
:10D49800085101010421DA6E010102510DC10AF19E
:10D4A80001010B6B01010A27000E0B2301010A5130
:10D4B80001010025E16E01010B5101010121E26E1C
:10D4C800DE50E618D8B402D0000E120001010D2B70
:10D4D80000D00101065101010D5DD8A0C9D7010E88
:10D4E80012001200000E0101116F000E106F0101F1
:10D4F80011BF0AD00101115130E13F0E0101105D49
:10D50800D8B02BD001D029D010C100F111C101F140
:10D51800000E0101036F060E026FCAEC70F0BD0E1B
:10D52800010100250101066F0A0E01010121010117
:10D53800076F0EC108F10FC109F1040E01010A6F4E
:10D54800EDEC6DF00009D8B403D0010110511200C0
:10D558000101104B112BCBD700D0FF0E1200120087
:10D56800120E01010E6F010E01010F6FD70E01019E
:10D57800106F000E0101116FDBEC5DF0000E010170
:10D58800266F840E0101006FFE0E0101016F000E6F
:10D598000101026F120E0101036F010E0101046FF8
:10D5A800150E0101056F240E0101066F7CEC67F072
:10D5B8000101C651300F01014B6F120E0101046FBA
:10D5C800010E0101056F3A0E0101066F000E0101FF
:10D5D800076F020E72EC5CF01200000E0101086F7A
:10D5E800000E096F000E0A6F000E0B6F00D00101CC
:10D5F80000A111D0010104510101082701010551C1
:10D60800010109230101065101010A230101075102
:10D6180001010B2300D00101D890043705370637E4
:10D6280007370101D8900333023301330033010176
:10D638000051010101110101021101010311D8A4D6
:10D64800D6D708C100F109C101F10AC102F10BC125
:10D6580003F11200000E0001686F000E696F000EE2
:10D668006A6F000E6B6F00D0000160A111D000013D
:10D678006451000168270001655100016923000118
:10D68800665100016A230001675100016B2300D035
:10D698000001D89064376537663767370001D8903E
:10D6A80063336233613360330001605100016111FB
:10D6B8000001621100016311D8A4D6D768C060F0D8
:10D6C80069C061F06AC062F06BC063F012000101CA
:10D6D8000251010100250101086F010103510101F7
:10D6E80001210101096F08C10AF109C10BF101010A
:10D6F8000C6B0D6B10D00101045101010A5F01018F
:10D70800055101010B5B0101065101010C5B01018F
:10D71800075101010D5B0101045101010A5D01017D
:10D72800055101010B590101065101010C59010173
:10D73800075101010D59D8B0DED70AC100F10BC15C
:10D7480001F11200060E0101446F18C10BF119C155
:10D758000CF1400E01010D6F010E01010E6F8CECF2
:10D768003FF01F0E01011A6F2A0E01011B6F530EA5
:10D7780001011C6F460E01011D6F540E01011E6F41
:10D78800D5C01FF118C10EF119C10FF11A0E010110
:10D79800106F010E0101116F44C112F1000E010159
:10D7A800136F010E0101146F000E0101156F45EC96
:10D7B80043F012001200000E01011B6F840E0101DC
:10D7C800006FFE0E0101016F000E0101026F1B0EBA
:10D7D8000101036F010E0101046F010E0101056FC4
:10D7E800240E0101066F7CEC67F00101C651300F71
:10D7F8000101406F18C10EF119C10FF11B0E010193
:10D80800106F010E0101116F260E0101126F000E3B
:10D818000101136F1AC114F1000E0101156F45ECD7
:10D8280043F0120012003D0E0101536F14C116F1AE
:10D8380015C117F114C100F115C101F1000E010164
:10D84800036F380E026FCAEC70F0010100C106F1D7
:10D85800010101C107F10101086B096B380E0101D3
:10D868000A6F000E0B6F000E0C6F000E0D6F180E76
:10D8780001010E6F010E01010F6FE1EC66F0160E4B
:10D888000101066F010E0101076F53C108F156EC43
:10D8980068F012000101046F01010451020D000E2D
:10D8A800F324D96E020EF420DA6EDE50DE10D8B4FE
:10D8B80018D001010451020D000EF324D96E020E96
:10D8C800F420DA6EDECF02F1DDCF03F1FF0E0101A5
:10D8D80002250101006FFF0E010103210101016F03
:10D8E800120001010451020D000EF324D96E020E3C
:10D8F800F420DA6EDECF00F1DDCF01F11200120064
:10D9080001010F5101011011D8B42BD0010E0101F2
:10D91800116F07D00101D8900F3710370101112B73
:10D9280000D0010110BF02D0F5D700D001010F517E
:10D9380001010D5D0101105101010E59D8A009D056
:10D9480001010F5101010D5F0101105101010E5B31
:10D9580000D00101D89010330F330101112FE6D701
:10D9680000D00DC10DF10EC10EF112000001695178
:10D9780000016A11D8B42BD0010E00016B6F07D0DB
:10D988000001D89069376A3700016B2B00D000017D
:10D998006ABF02D0F5D700D0000169510001675D68
:10D9A80000016A5100016859D8A009D000016951E5
:10D9B8000001675F00016A510001685B00D0000147
:10D9C800D8906A33693300016B2FE6D700D067C05F
:10D9D80067F068C068F0120014D0D00E0101026F21
:10D9E800CA0EE82EFED7022FFCD7F60E010100253D
:10D9F8000101006FFF0E010101210101016F040007
:10DA080000D001010151E9E10B0E0101005DD8A030
:10DA180010D0E3D70ED0150E0101026FC60EE82E06
:10DA2800FED7022FFCD700D001010007D8A00107BC
:10DA380004000101005101010111D8A4ECD7120022
:10DA48000101F6510001C719D8B41200020E0101F4
:10DA5800F619D8B412000001C751D8B412D0010E7B
:10DA68000101006F010E8FEC3EF0030E0101276FDC
:10DA7800E80E266F000E0101286F130E2AEC69F0DC
:10DA88001200010E0101006F010E8FEC3EF0030E33
:10DA98000101276FE80E266F000E0101286F130E93
:10DAA8002AEC69F0120012000101026F3F0EC7163E
:10DAB800000EC66E01010251C61201010151C712C2
:10DAC80005D0C78C16D0C78CC68813D00101005169
:10DAD800000AD8B4F6D7020AD8B4F5D7010AD8B4E0
:10DAE800F3D707D09486928A0DD094860BD094965B
:10DAF80009D001010251040AD8B4F4D7010AD8B4F4
:10DB0800F4D7F5D79488949AC68A1200000E0101BA
:10DB18000E6F0101FF5192EC72F0040E01010C6FBF
:10DB2800010EE2EC57F00001A25101010C250101A0
:10DB3800236F0001A35101010D210101246FD3ECD2
:10DB480074F00101206F23C122F101012451010168
:10DB5800216F200E0101176F010E0101186F030ECE
:10DB68000101196F010E01011A6F22EC48F0120031
:10DB78002CD04704D8A405D0A5EC73F00201666F39
:10DB880000D00001CF510001CE5DD8B00FD0000108
:10DB9800CE51010D800EF324D96E040EF420DA6EF6
:10DBA800FCEC73F0DF6E0001CE2B00D00001CF51EA
:10DBB8000001CE19D8A407D00001CF51D8B403D0A2
:10DBC800010E396E00D0470600D04750D8A4D1D7EF
:10DBD8001200000E01010D6F1FD001010D51010D42
:10DBE800F35001010825D96EF45001010921DA6EBC
:10DBF80001010D51010DF35001010625E16EF450AC
:10DC080001010721E26EDE50E618D8B402D0000EFA
:10DC1800120001010D2B00D001010A5101010D5D17
:10DC2800D8A0DBD7010E120012002A8C02020CC108
:10DC380077643277623238F81180E93838070000A3
:10DC48000507090CF2004010DC80FFFFFFFFFFFF13
:10DC5800FFFFFFFFFFFFFFFFFFFFFFFFFFFF0100C9
:10DC680000006D4EC641170001000800FF000101C9
:10DC7800FFFFFFFFFFFFFFFFFFFFFFFFFFFFFFFFAC
:10DC88001D0E01011A6F250E01011B6FD7C01CF173
:10DC9800D8C01DF1D9C01EF1DAC01FF1060E01016E
:10DCA800406F18C10EF119C10FF11A0E0101106F62
:10DCB800010E0101116F40C112F1000E0101136F35
:10DCC800010E0101146F000E0101156F45EC43F0C0
:10DCD800120012000101B951D8A412000101BA5171
:10DCE800D8A412000101BC51D8A412000001CC51E3
:10DCF800D8A412000001C851D8A412000101D651BD
:10DD0800D8A412004D50D8A412000101D251D8A4B1
:10DD180012003650D8A412000101F251D8B41200F2
:10DD28009EEC74F0120012002CC121F12DC122F1D9
:10DD38003C0E0101236F010E0101246F010E010148
:10DD4800256FC8EC3AF02CC10EF12DC10FF176EC1D
:10DD58006AF001012F6F2AC115F12BC116F12FC1ED
:10DD680017F12EC118F1000E0101196F010E010102
:10DD78001A6FBBEC1DF0120001012C6F000E01019F
:10DD8800F46F2CC1C9F0000E01012E6F3E0E2D6FED
:10DD98002DC100F12EC101F1000E0101036F1E0E0D
:10DDA800026FCAEC70F000C12DF101C12EF12DC136
:10DDB80026F12EC127F1000E0101286F070E2AEC6B
:10DDC80069F01200000E01010B6F1BD001010B510D
:10DDD800010DF35001010625D96EF4500101072108
:10DDE800DA6E01010B51010DF35001010825E16EB6
:10DDF800F45001010921E26EDFCFE7FF01010B2B8F
:10DE080000D001010A5101010B5DD8A0DFD7120033
:10DE18000101026F00C101F10101013BC150010183
:10DE28000119CF0B0119C16EC196C190C192C1945D
:10DE380002C101F1010101470147C2500101011965
:10DE4800830B0119C26EC086C088C08AC050F80B07
:10DE58000609C06EC08EC2801200000E0101016F5B
:10DE68003E0E0101016501D01AD001010151060DD4
:10DE7800040EF326000EF422BD0EF324D96E0A0E0A
:10DE8800F420DA6EDF500F0B0101006F020E010162
:10DE9800006102D0010E12000101012BE1D7000E32
:10DEA80012001200000E0101036F01010151030B62
:10DEB800756E00C174FF02C173FF7F9E7F9C7F84D3
:10DEC800000EF2BE010E0101036FF29E550E7E6E2A
:10DED800AA0E7E6E7F8200D07FB2FED7010103B109
:10DEE80002D0F29E01D0F28E7F941200000E000143
:10DEF8006B6F000169AF09D00001686D691FD8B068
:10DF0800692B010E00016B6F00D068C060F069C01A
:10DF180061F00001626B8E0E0001636F6BC064F0EC
:10DF280038EC56F060C068F061C069F062C06AF011
:10DF3800120012001A0E0101006F010E0101016F9B
:10DF480063EC4FF00101406F18C10EF119C10FF1D8
:10DF58001A0E0101106F010E0101116F40C112F17B
:10DF6800000E0101136F010E0101146F000E010173
:10DF7800156F45EC43F01200120093968A86898645
:10DF8800050E0101046F260EE82EFED7042FFCD7DC
:10DF980000D08996680E0101046FE40EE82EFED7C2
:10DFA800042FFCD700D0C7EC74F0030E0101016FF9
:10DFB800FE0E006FFF0E0101026F56EC6FF01200AB
:10DFC8001D0E01011C6F1AC11DF11BC11EF1030EAC
:10DFD8000101426F18C10EF119C10FF11C0E0101A8
:10DFE800106F010E0101116F42C112F1000E010103
:10DFF800136F010E0101146F010E0101156F45EC3D
:10E0080043F012000FC106F110C107F1E80E01013B
:10E01800086F010E0101096F040E01010A6FE6EC99
:10E028006EF00101E4690101E5690101E669010198
:10E03800E769E80E0101066F010E0101076F4AEC5E
:10E0480065F094EC74F012000101016F01010151B7
:10E058000101D8B409D00001D151D8B413D0899C9A
:10E068008B94898012000ED0010100510101D8B4AF
:10E0780009D00001D351D8B405D0898C8B948990EC
:10E08800120000D0899C8B84899012000001616F76
:10E09800000161510001D8B409D00001D151D8B4B0
:10E0A80013D0899C8B94898012000ED00001605196
:10E0B8000001D8B409D00001D351D8B405D0898C57
:10E0C8008B948990120000D0899C8B8489901200CF
:10E0D8000101026F01010251020D000EF324D96EF5
:10E0E800020EF420DA6EDE04DE10D8A40FD001018F
:10E0F8000251020D000EF324D96E020EF420DA6EDE
:10E10800000EDE6E000EDD6E010E1200000E120013
:10E1180012000101006F010100510101D8A409D0CA
:10E12800D59E000ED76E000ED66E850ED56ED58E96
:10E138001200030E01010019D8A41200000EB36EDC
:10E14800000EB26E8C0EB16EA292A192B180120036
:10E1580012000101046F01010451D8090101056F82
:10E1680005C102F13C0E1DEC71F0C80E0101056FEE
:10E1780005C102F11A0E1DEC71F0000E0101056FC8
:10E1880005C102F13E0E1DEC71F0120001010051B3
:10E1980001010203F3CF04F1F4CF05F101010051AD
:10E1A80001010303F3500101052701010151010198
:10E1B8000203F3500101052704C100F105C101F173
:10E1C800120012000001605100016203F3CF64F0F5
:10E1D800F4CF65F00001605100016303F3500001C2
:10E1E80065270001615100016203F35000016527B2
:10E1F80064C060F065C061F01200120001012C6F6C
:10E2080001012C510101D8B404D0010E0101F56FB0
:10E218001200000E0101F56F010E0101276F680E53
:10E22800266F010E0101286F0F0E2AEC69F012000B
:10E2380012000101036F899401010351A4EC72F0EB
:10E24800E40E00D000D0E82EFCD700D000D00101A9
:10E258000251A4EC72F0E40E00D000D0E82EFCD7F6
:10E2680000D000D089841200000E01010C6F010E4D
:10E27800E2EC57F001010C1F01010D1F01010C4BCD
:10E288000D2B3E0E01010C250101176F000E010137
:10E298000D210101186F120012000101006F060E16
:10E2A8000101006102D0000E03D001010051FB0FF3
:10E2B8000101016F070E0101016503D0070E01017D
:10E2C800016F0101015112001200000E0101056FDA
:10E2D800000E0101066F0BD01C0E07EC72F0010155
:10E2E800066F01010651020B0101056F00D0010103
:10E2F80005510101D8B4F0D712000101026F000ED8
:10E308000101016F3A0E0101026108D02F0E0101CF
:10E31800026504D0010E0101016F00D001C100F1B6
:10E328000101003112001200000E0101276F010ED9
:10E33800266F010E0101286F020E2AEC69F0000E0B
:10E348000101276F010E266F010E0101286F030ED0
:10E358002AEC69F012000001626F000E0001616F83
:10E368003A0E0001626108D02F0E0001626504D0E8
:10E37800010E0001616F00D061C060F000016031E2
:10E38800120012003FEC74F0899E200EA4EC72F08B
:10E3980001010751A4EC72F001010651A4EC72F0DE
:10E3A80001010551A4EC72F0898E1BEC74F0120087
:10E3B80008C100F109C101F10101026B8E0E0101D2
:10E3C800036F000E0101046FA8EC55F000C108F1BD
:10E3D80001C109F102C10AF1120012000101006F26
:10E3E800080E0001CD6112000001CD51010D3E0E55
:10E3F800F324D96E030EF420DA6E00C1DFFF0001AA
:10E40800CD2B120012000101046F899401010451FF
:10E4180040090101046F01010451A4EC72F0B2EC4F
:10E4280073F000C103F18984010103511200120045
:10E438000101036F03C100F10101016B240E010109
:10E44800026FC8EC56F003C100F10101016B240E04
:10E458000101026FC8EC56F012000001646F899444
:10E468000001645140090001646F00016451B6EC79
:10E4780072F0BFEC73F060C063F0898400016351EF
:10E48800120012000101026F01010251020D000E7B
:10E49800F324D96E020EF420DA6EDE50DE10D8A412
:10E4A80002D0010E1200000E120012004C2A4C502D
:10E4B8004518D8A41200000E0001C86F000E000114
:10E4C800606F000E4AEC70F0000E4C6E000E456E48
:10E4D80012001200020E01010C6F0AC10DF10BC1EE
:10E4E8000EF10D0E0101066F010E0101076F0CC13F
:10E4F80008F156EC68F01200000E0101036F899EC6
:10E50800050EA4EC72F0B2EC73F0010100510101A8
:10E51800036F898E010103511200120001010F6F70
:10E5280001010F514E18D8B4120001D012000EC1CB
:10E5380004F101010F515DEC47F00FC14EF01200DC
:10E548000101016FC9CF00F19E96C69E01C1C9FFA6
:10E55800C6BE120002D0120000D09EB61200FDD72F
:10E56800120012000001616FC9CF60F09E96C69E2E
:10E5780061C0C9FFC6BE120002D0120000D09EB60C
:10E588001200FDD7120012000101036F0001B951FA
:10E59800D8B41200000E0101016F020E006F03C112
:10E5A80002F1C8EC56F01200120052C020F1200E01
:10E5B8000101176F010E0101186F010E0101196F9A
:10E5C800010E01011A6F22EC48F012000101066FDA
:10E5D80001010651010B0001D16F010106510E0B1B
:10E5E8000101056F010105515EEC73F01200D08E38
:10E5F800F290F28CF196F1920F015A9F0F015A9DF9
:10E608000F015A9B0F015A99F286F190F28E12006F
:10E618000001636F0001B951D8B41200000E000167
:10E62800616F020E606F63C062F055EC57F0120024
:10E638001200000162510201E0270001635102014A
:10E64800E123000164510201E22300016551020146
:10E65800E32312000101046F0001D251D8A404D0B1
:10E668000001BD51D8B4120001010451C8EC72F088
:10E67800120012000101006F01010051020D000E8D
:10E68800F324D96E020EF420DA6E000EDE6E000E50
:10E69800DD6E12000001646F0001D251D8A404D0CD
:10E6A8000001BD51D8B41200000164510CEC73F0A4
:10E6B800120012000101046F0201C251F00B0101A6
:10E6C80004110201C26FC2C202F1340E1DEC71F0D6
:10E6D8001200010E0101E36FC7EC74F004C100F1F0
:10E6E80005C101F106C102F156EC6FF01200200ECF
:10E6F800EEEC53F0400EEEEC53F036EC74F069ECAF
:10E7080071F0600EEEEC53F012000101006F00C1D1
:10E71800C4F1010100510101D8A41200010E010148
:10E72800F56F1200120001010151030B756E00C153
:10E7380074FF7F9C7F9E7F8000F000F07350120072
:10E7480012003C0E07EC72F00101056F010105A1F2
:10E7580002D0010E1200000E12001200C9CF02F101
:10E768009E96000EC96E00D09EA6FED7C9CF00F1B6
:10E778000101016B1200C9CF62F09E96000EC96EAE
:10E7880000D09EA6FED7C9CF60F00001616B1200D1
:10E798000101046F04C1B5F004C1C5F2C5C202F19C
:10E7A8003A0E1DEC71F012000101006F01010051D9
:10E7B8000101D8B402D09396120093861200120079
:10E7C8000101006F010100510101D8B402D08A840F
:10E7D80012008A9412001200010E0101276F2C0EFC
:10E7E800266F010E0101286F140E2AEC69F0120041
:10E7F80089848992B2EC73F000C103F18982010126
:10E808000351120012000101026F898489920101EB
:10E818000251A4EC72F0898212005128D8B402D0B7
:10E82800512A02D0000E516E51501200120000D031
:10E8380080EC72F00101046F010104B1F9D71200F4
:10E8480000D080EC72F00101046F010104A3F9D734
:10E8580012000101496F48C12CF10101495143ECF3
:10E8680025F01200070E0101046F04C102F11C0E0D
:10E878001DEC71F01200899E060EA4EC72F0898ED0
:10E8880024EC74F0120000C1DCF201C1DDF20201D7
:10E89800DE6BDF6B120057EC74F000C102F101C1AE
:10E8A80003F112001200D40E0101006F000E0101E5
:10E8B800016F1200120002C100F103C101F197ECCF
:10E8C80073F012001200010801010201FFFF3C0170
:10E8D800010101190101066F0101065175EC74F07F
:10E8E80012000101056F01010551CCEC73F0120013
:10E8F800C2A202D0010E1200000E12001200070E72
:10E908000101016F006912001200280E31EC72F04B
:10E918007AEC61F012000101006F00C1F3F11200FE
:10E928000101006F00C1D3F11200B2C100F1B3C1FF
:10E9380001F11200D39ED18E0300040012000201DF
:10E94800C2510E0B12001200B2C160F0B3C161F0E7
:10E95800120077C0B2F178C0B3F1120003FF41FF93
:10E96800FF00C20100000101F35112001200BFECC8
:10E9780074F0120012000001BE51120012000101D1
:10E98800C4511200120000D07FB2FED7120002015B
:10E99800E851120012000001B551120012000001E6
:10E9A800C451120012000001C451120012000001EB
:10E9B800BE5112001200FF03FFFFFFFFFA0E120004
:10E9C8001200000E12001200C28212001200120081
:02E9D80012002B
:10FE6C000001000A006400E80310270100100000E4
:10FE7C000100100001111000656D446F6F722C327F
:10FE8C002E3139322C312E33312C322C302C302C6B
:10FE9C0030303030303030303030302C003C453E5B
:10FEAC004E6F7420416C6C6F77656420746F207397
:10FEBC00656E643C2F453E004D6173743A2030787A
:10FECC0025303258253032582530325825303258AA
:10FEDC00200049443A2030782530325825303258A9
:10FEEC00253032582530325820003C453E73746220
:10FEFC0079207768696C6520696E743C2F453E00EB
:10FF0C003C453E476F696E6720746F205458313CF6
:10FF1C002F453E003C453E526563762058322044C6
:10FF2C004154413C2F453E004669726D77617265C4
:10FF3C003A2076322E31393220003C453E526563F0
:10FF4C00762058322042433C2F453E003C543E47DD
:10FF5C006574526566726573683C2F543E0030318F
:10FF6C0032333435363738394142434445460047FD
:10FF7C00726F75703A2030782530325820003C541E
:10FF8C003E526566726573683C2F543E004E6F643A
:10FF9C00653A203078253032582000436F723A2071
:10FFAC002530325820004261743A202530345820D4
:10FFBC000053533A202530325820005070723A20AA
:10FFCC0025692000547970653A20003C2F44413E4D
:10FFDC00003C2F55413E005744525354003C444181
:10FFEC003E003C55413E0025632000424F520050DC
:04FFFC004F52000060
:020000040020DA
:08000000FFFFFFFFFFFFFFFF00
:020000040030CA
:0E0000001D981B36FF8980FF0FC00FE00F40D8
:00000001FF
