:04080000EBEF04F026
:10080800FACF1CF0FBCF1DF0E9CF1EF016EF68F011
:10081800D8CF8FF0E8CF90F0E0CF91F0FACF92F0F8
:10082800FBCF93F0E9CF94F0EACF95F0E1CF96F0C3
:10083800E2CF97F0D9CF98F0DACF99F0F3CF9AF0CA
:10084800F4CF9BF0F6CF9CF0F7CF9DF0F8CF9EF059
:10085800F5CF9FF090D0000E0001A16FF2A08FD0CD
:1008680081CFA0F000F0F2900001A0A984D0600E22
:100878000101BF19D8A466D00001CA51D8A43AD042
:100888000001C651D8A436D0C4EC78F00101F26F4B
:10089800040E00016C6F010E86EC5CF06CC077F002
:1008A8006DC078F09AEC78F0D3B606D001D004D0B9
:1008B800010E0101D26F00D076EC78F095EC78F05B
:1008C8000001A251000160270001A351000161232A
:1008D800000160C062F0000161C063F00001646B58
:1008E800656BF9EC76F0010E0101BC6F010E000199
:1008F800CA6F41D00001C651D8B409D00B0E00010F
:100908006C6FFF0E00016D6F28EC36F034D0C8EC28
:1009180078F00009D8B409D0450E00016C6FFF0EBD
:1009280000016D6F28EC36F009D01F0E00016C6FC6
:10093800FF0E00016D6F28EC36F000D0010E0101AA
:10094800BD6F19D0800E0101BF19D8A406D0010EC1
:100958000101BE6F36EC76F00ED0200E0101BF19F2
:10096800D8A409D0F50E00016C6FFE0E00016D6F62
:1009780028EC36F000D0010E0001A16F00D0000174
:10098800A1510001D8A467D79FC0F5FF9EC0F8FF0A
:100998009DC0F7FF9CC0F6FF9BC0F4FF9AC0F3FF11
:1009A80099C0DAFF98C0D9FF97C0E2FF96C0E1FF6F
:1009B80095C0EAFF94C0E9FF93C0FBFF92C0FAFF1D
:1009C80091C0E0FF90C0E8FF8FC0D8FF100009EF8A
:1009D80058F0000ED0B6010E0101F56F000ED0B22E
:1009E800010E0201FC6F000ED0B0010E0201FB6F78
:1009F800D0CFFDF2D5EC56F0030E0101016FE80EE1
:100A0800006F0FEC71F0030E0101016FF00E006F23
:100A180075EC77F00101D66F0101D629D8B404D05E
:100A2800010E0101C56F00D091EC5DF006D08A94EB
:100A3800938690EC78F091EC5DF00DC1AAF00EC1B0
:100A4800ABF000D00001ABBFF2D73E0E0001AA5DAB
:100A5800080E0001AB59D8A0EAD781EC73F0360E26
:100A68000101016FB00E006F0FEC71F00101C5516B
:100A78000101D8A40ED00001ABBF0BD0870E000136
:100A8800AA5D0B0E0001AB59D8A003D038EC65F075
:100A980000D0000E0101006F000E0101016F020E6F
:100AA80043EC71F004007DEC3AF00400EDC200F173
:100AB8000101016B33EC78F0D7EC76F0010E000100
:100AC800BC6F0101F5510101D8A413D0E20E010158
:100AD800126FFF0E0101136FC4EC33F0000E010119
:100AE800016F040E006F060E0101026FE6EC5AF06A
:100AF8002CD00201FC510201D8B418D00201FB51DC
:100B08000201D8A413D0F60E0101126FFF0E0101E5
:100B1800136FC4EC33F0000E0101016F040E006F77
:100B2800070E0101026FE6EC5AF00FD00201FC51EA
:100B38000201D8A40AD0FA0E0101126FFF0E0101BA
:100B4800136FC4EC33F0D08200D0000EBBEC69F018
:100B5800CF0E0101126FFF0E0101136FC4EC33F0C9
:100B6800830E0101126FFE0E0101136FC4EC33F006
:100B7800F20E0101126FFF0E0101136F300E010119
:100B8800C7250101146F0101156B000E1523C4EC74
:100B980033F0B10E0101126FFF0E0101136FAAC0ED
:100BA80014F1ABC015F1C4EC33F0DD0E0101126F86
:100BB800FE0E0101136FEAC214F10101156BEBC2BD
:100BC80016F10101176BECC218F10101196BEDC2A6
:100BD8001AF101011B6BC4EC33F0C30E0101126F53
:100BE800FE0E0101136FF9C114F10101156BFAC171
:100BF80016F10101176BFBC118F10101196BFCC15A
:100C08001AF101011B6BC4EC33F0980E0101126F4D
:100C1800FF0E0101136FA8EC78F00301F06F0301D8
:100C2800F0510101146F156BC4EC33F07A0E010119
:100C3800126FFF0E0101136FC7C014F10101156B8C
:100C4800C4EC33F0330E0101126FFF0E0101136F74
:100C5800C4EC33F0A60E0101126FFF0E0101136FF1
:100C6800D6C114F10101156BC4EC33F0C60E0101B5
:100C7800126FFF0E0101136F81BA02D0010E01D06D
:100C8800000E0101146F156BC4EC33F0EA0E01017C
:100C98000F6F020E0101106FC6EC73F0E9EC41F022
:100CA80074EC75F0000E0101276F1E0E266F010E01
:100CB8000101286F040E49EC6DF0000E0401FA6F73
:100CC800000E0101066F000E076F020E086F000E7E
:100CD800096F010E01010A6F000E0B6F000E0C6FF9
:100CE800000E0D6FFA0E01010E6F040E01010F6F59
:100CF80000EC6BF00401FA05D8A41ED0000E040124
:100D0800FA6F000E0101056F000E066F020E076FE5
:100D1800000E086FFA0E0101096F040E01010A6F37
:100D2800010E01010B6F000E0C6F000E0D6F000E0F
:100D38000E6FE5EC6BF000D0EA0E0101066F020EB3
:100D48000101076FE00E0101086F010E0101096F33
:100D5800040E01010A6FD8EC71F00009D8B403D071
:100D68000400FED700D0DCEC77F0000E0001BC6F69
:100D780000D00101D9510101D8A41DEF0CF0000EDB
:100D88004DEC74F00101DE510101D8B402D0FF002E
:100D980000D0000E0101DF6F04000101BB51D8B47F
:100DA80085D00101BF51D8B41CD014EC75F017C11F
:100DB80068F218C169F2020169510CE11F0E0201C3
:100DC800685DD8B007D0000E01014A6F010E55ECDE
:100DD80019F007D0000E01014A6F000E55EC19F00A
:100DE80000D00101F6510101D8B426D0F90E010155
:100DF8000B6F010E01010C6FEB0E01010D6F040E5C
:100E080001010E6F4BEC45F00301F06F1F0E03015B
:100E1800F06112D0F90E0101186F010E0101196F6E
:100E2800000E01011A6FFEEC6FF00009D8B404D06F
:100E3800000E0101F66F00D0000E0101BB6F3E0EDF
:100E48008CEC38F0E80E0101006F010E0101016F12
:100E5800FEEC4FF01CEC3CF0B8EC78F00009D8B48C
:100E680025D00101F4510101D8B420D0010E0001B0
:100E7800BC6FBC0E0101126FFF0E0101136F3BEC3A
:100E880078F002C1D9FF03C1DAFFDF500301F06F28
:100E98000301F0510101146F156BC4EC33F0000E1F
:100EA8000001BC6F000E0101F46F00D014EC75F066
:100EB80017C168F218C169F20201695105E1070E0C
:100EC8000201685DD8A02AD00201695127E11F0EEE
:100ED8000201685DD8B022D00101D451D8B41ED027
:100EE800F10E01010E6F040E01010F6F920E010148
:100EF800106F030E0101116FC0C112F1000E010144
:100F0800136F010E0101146F000E0101156F04EC3F
:100F180049F000D0000E0101D46F00D00101BD518D
:100F2800D8B409D0000E0101BD6F200E73EC57F044
:100F3800600E73EC57F00001CA51D8B43AD08BEC6C
:100F480078F000C117F101C118F1040E01010C6F0E
:100F5800010E00EC5CF00CC119F10DC11AF170EC36
:100F680078F0010100C11BF1010101C11CF101016F
:100F78001D6B1E6B68EC62F017C1EFF418C1F0F43A
:100F88004B0E0401EF5D010E0401F059D8A011D0F9
:100F98000101BC51D8B40AD00001C651D8A406D06A
:100FA80003EC6DF0000E0101BC6F00D0A7EC71F0EE
:100FB80000D0170E01010E6F030E01010F6FEB0E2B
:100FC8000101106F010E0101116F38EC47F00009A3
:100FD800D8B452D0170E01012C6F030E01012D6FEA
:100FE800EBC12EF1D2C12FF1F2C130F171EC2BF02F
:100FF8000009D8B43AD01A0E01010E6F030E010190
:101008000F6FBA0E0101106F020E0101116FF80E79
:101018000101126F040E0101136F2DEC6CF0000931
:10102800D8B423D00B0E0401F76FBA0E0101906FEC
:10103800020E0101916F0401F751010D170EF324FF
:101048000101926F030EF4200101936F0401F7511F
:1010580000080101EB250101946FF8C495F1000E19
:101068000101966FF9EC12F000D0000E0001CA6F72
:10107800000E0101D26F00D0030E0101E819D8A4B7
:1010880014D0030E0101E919D8A40FD0000E0101F4
:10109800E86F000E0101E96F030E0101006F010EF8
:1010A800D6EC78F00101C48944D0020E0101E91997
:1010B800D8A40CD0000E0101E96F020E0101006FE7
:1010C800010ED6EC78F00101C48733D00101E9059F
:1010D800D8A40CD0000E0101E96F010E0101006FC8
:1010E800010ED6EC78F00101C48523D0020E01016F
:1010F800E819D8A40ED0000E0101E86F98EC5FF053
:10110800020E0101006F000ED6EC78F00101C483D5
:1011180010D00101E805D8A40CD0000E0101E86F39
:10112800010E0101006F000ED6EC78F00101C481B8
:1011380000D00101BE51D8B42BD0000E0101BE6F02
:10114800800E0101BF19D8A411D00101D8510101A5
:10115800D8A405D00101D9510101D8B407D0000E97
:1011680073EC57F0000E0101D86F10D0800E01010A
:10117800BF19D8A40BD00001C651D8A407D0200E9F
:1011880073EC57F0600E73EC57F000D0040000D0F9
:10119800000E0101016F010E006FED0E0101026FDB
:1011A800010E0101036FDBEC52F00009D8B408D03E
:1011B800EDC100F1010ECFEC78F00101BA6F07D054
:1011C8000101CD51D8B403D00101CD0700D00101F0
:1011D800BA51D8B46BD104012851C00B0401FB6F7C
:1011E8000401FB45E846030B0401FB6FED0E01010A
:1011F800126FFF0E0101136FC4EC33F00401FB51B1
:101208000401D8A409D1000E0101C16FB8EC78F02F
:101218000009D8B43FD1270E0101006F040E010167
:10122800016F020E0101026FE00E0101036F010E52
:101238000101046F000E0101056F040E0101066F24
:1012480057EC6EF00009D8B4BDD00A0E0101C06F8A
:10125800E4C192F3E5C193F3E6C194F3E7C195F3D2
:101268001D0E0301966F2B0E0301976F29C498F387
:101278002AC499F32BC49AF32CC49BF3010E0001E2
:10128800BC6F0101EB51FA0F0101EB6F000E010178
:10129800016F020E006F240E0101026FE6EC5AF096
:1012A800000E0101016F020E006F240E0101026F92
:1012B800E6EC5AF0000E0101016F020E006F010109
:1012C800EB51040F0101026FE6EC5AF0000E010128
:1012D800016F020E006F000E0101026FE6EC5AF07A
:1012E800000E0401F56F000E0401F96F22D0000E04
:1012F8000101016F020E006F0401F951010D920EF8
:10130800F324D96E030EF420DA6EDF500101026F68
:10131800E6EC5AF00401F951010D920EF324D96E4E
:10132800030EF420DA6EDF500401F51B0401F92BDB
:1013380000D0FF0E0301F06FFF0E0301F16F0101F2
:10134800C0510301F26FF36B0301F0510301F2275F
:101358000301F1510301F3230401F9510301F46F6F
:10136800F56B0301F2510301F45D0301F551800AA5
:101378000301F66F0301F351800A0301F659D8A05F
:10138800B6D7000E0101016F020E006FF5C402F11D
:10139800E6EC5AF0000E0101016F020E006F0D0E0F
:1013A8000101026FE6EC5AF0000E0101016F020E16
:1013B800006F0A0E0101026FE6EC5AF0000E000100
:1013C800BC6F68D00101EA51F80F0101C06F020E2D
:1013D8000301926F270E0101006F040E0101016FD6
:1013E800060E0101026F920E0101036F030E010147
:1013F800046F010E0101056FC0C106F19BEC6BF093
:1014080029C4F1F42AC4F2F42BC4F3F42CC4F4F480
:10141800010E0101D46F3ED0020E0401FB19D8A4BD
:1014280039D0020E0101C16FB8EC78F00009D8B4C8
:1014380031D0290E01010E6F040E01010F6FE70E66
:101448000101106F040E0101116FF60E0101126FF8
:10145800040E0101136F2DEC6CF00009D8B41AD0FA
:101468002D0E0101906F040E0101916F310E0101E3
:10147800926F040E0101936F0101EA51F30F01010C
:10148800946F280E0101956F010E0101966FF9EC1A
:1014980012F000D0000E0101BA6FDC0E0101126FCC
:1014A800FF0E0101136FC4EC33F000D0010E2CECD9
:1014B80074F00009D8B417D0050E0101276FA00EEB
:1014C800266F020E0101286F0C0E49EC6DF00D0E0F
:1014D8002AEC77F00101D8510101D8B404D0000EEC
:1014E8000101D86F00D00A0E2CEC74F00009D8B4B2
:1014F80020D0F90E0101066F010E0101076FE00E01
:101508000101086F010E0101096F040E01010A6F44
:10151800D8EC71F00009D8A40CD0F90E0101186FAD
:10152800010E0101196F000E01011A6FAFEC3DF0B9
:1015380000D00B0E2CEC74F00009D8B415D0000EB6
:1015480002014F6F000E4E6F000E0201516F000E28
:10155800506F000E02016B6F000E6A6F000E0201E1
:101568006D6F000E6C6F00D0000E2CEC74F000094B
:10157800D8B404D0000E0101C46F00D00B0E22ECC9
:1015880076F00009D8B40BD0050E0101276FA00E24
:10159800266F020E0101286F0B0E49EC6DF00A0E42
:1015A80022EC76F000D00201435105E10B0E020156
:1015B800425DD8A00CD0070E17EC5FF0000E83EC4C
:1015C80077F0000E0201436F000E426F00D0010158
:1015D800C351D8B40AD0000E01010D6F240E0C6F50
:1015E800F7EC65F00101C30700D0000E0201816F1E
:1015F8000C0E22EC76F00009D8B40CD0050E0101CF
:10160800276FA00E266F020E0101286F0C0E49EC01
:101618006DF000D00101D351D8B41ED0050E0101E0
:10162800276FA00E266F020E0101286F0C0E49ECE1
:101638006DF0000E0101D36F0101BF51D8B40CD079
:101648000101C2510101D8A407D0000E0101D86FD1
:101658000D0E2AEC77F000D00C0E2CEC74F000097B
:10166800D8B40BD0040E0101276FB00E266F010EFF
:101678000101286F0D0E49EC6DF00D0E2CEC74F085
:101688000009D8B40BD0020E0101276F580E266F3F
:10169800010E0101286F0C0E49EC6DF0110E2CECB7
:1016A80074F00009D8B406D0010E0101DB6F6BECB1
:1016B8002EF000D0100E2CEC74F00009D8B41DD018
:1016C800B8EC78F00009D8A418D00101F75101014D
:1016D800D8B404D0D3EC6EF0000E0CD0F90E010192
:1016E800186F010E0101196F010E01011A6FAFEC9D
:1016F8003DF0010E0101F76F00D0100E22EC76F0DC
:101708000009D8B40CD0000E0101276F1E0E266FF9
:10171800010E0101286F100E49EC6DF000D0000198
:10172800ABBF08D03E0E0001AA5D080E0001AB5900
:10173800D8B00BD00101C2510101D8B452D0010177
:10174800BF51D8B455D04DD053D00101C251010179
:10175800D8B410D00101C2510101D8B439D0000168
:10176800ABBF36D07D0E0001AA5D080E0001AB5953
:10177800D8A02ED0000E0101C26F010E6DEC70F0E2
:101788000101005101010111D8B404D00CD030D0AE
:1017980010D02ED00D0E6DEC70F00101005101013A
:1017A8000111D8B40DD00101BF51D8B421D001D056
:1017B8001FD00101D8510101D8A41AD015D018D0D2
:1017C8000101BF51D8A414D0000EBBEC69F010D0B1
:1017D8000101C2510101D8B40BD00101BF51D8B4E5
:1017E80007D0010E0101C26F010E0101D86F00D0B0
:1017F800040E01010C6F000ED6EC62F00CC140F231
:101808000DC141F2020140510201505D02014151F6
:1018180002015159D8B009D00101DF51D8A405D02F
:1018280040C250F241C251F200D02EEC72F0BDEF2E
:1018380006F0D5EC78F00009D8B4BDEF06F090ECCE
:1018480078F0010E0101DE6FBDEF06F0EBEF04F05A
:101858002DC121F12EC122F134C123F131C106F18C
:1018680032C107F133C108F133EC59F00101246F9B
:10187800000E0101256F87EC40F00101576F2DC163
:1018880006F12EC107F12FC108F130C109F1040E8C
:1018980001010A6FA6EC72F0010135510101D8A4CB
:1018A80010D02DC106F12EC107F1F20E0101086F0B
:1018B800020E0101096F040E01010A6FA6EC72F015
:1018C80000D0010E01013365F6EF12F031C1D9FFE6
:1018D80032C1DAFFDE04D8A466D1050E01013365F2
:1018E80062D1F90E010133250101006F0101016B7D
:1018F800FF0E0123000E0101036F050E026FB1EC0C
:1019080066F00101005101010111D8A44CD1FF0E6C
:101918000101366FFF0E0101376F010133510101DB
:10192800386F396B010136510101382701013751F0
:10193800010139230101385101013125D96E010115
:10194800395101013221DA6E0001C751DE18D8B4CD
:1019580024D0FF0E0101366FFF0E0101376F010120
:1019680033510101386F396B0101365101013827B4
:101978000101375101013923010138510101312594
:10198800D96E0101395101013221DA6EDE28D8A45D
:10199800F6EF12F002D0F6EF12F0000E0101596FC7
:1019A800010E586FE7D0050E010158250101366F69
:1019B800000E010159210101376F01013351010165
:1019C800386F396B010136510101385D0101395118
:1019D800800A01013A6F01013751800A01013A5921
:1019E800D8A082D0010159BF7FD00101595105E12A
:1019F800060E0101585DD8A077D031C100F132C17F
:101A080001F158C102F1400E0101036F010E0101FD
:101A1800046F000E0101056F040E0101066F9BECB7
:101A28006BF0040E010158250101366F000E01010B
:101A380059210101376F0101365101013125D96E54
:101A48000101375101013221DA6EDF500101386F8F
:101A5800050E0101396F0101D89038330101392F82
:101A6800FAD701013851070B01014C6F040E01012F
:101A780058250101366F000E010159210101376F08
:101A88000101365101013125D96E0101375101019A
:101A98003221DA6EDF501F0B0101546F1E0E010157
:101AA800546506D0000E01014F6F1F0E4E6F0AD00D
:101AB800010E0101542501014E6F01014F6B000E0B
:101AC8004F2300D0400E0101156F010E0101166F62
:101AD80057C117F14EC118F14CC119F1000E01019F
:101AE8001A6FBBEC1DF03CD00101580501015911DA
:101AF800D8A436D031C100F132C101F1010E010183
:101B0800026FE40E0101036F010E0101046F000E64
:101B18000101056F040E0101066F57EC6EF0000914
:101B2800D8B41ED02DC10EF12EC10FF1040E010143
:101B380058250101366F000E010159210101376F47
:101B48000101365101013125D96E010137510101D9
:101B58003221DA6EDF500101106F16EC69F000D007
:101B6800050E010158250101586F000E0101592188
:101B78000101596F010133510101366F376B0101C2
:101B880036510101585D01015951800A0101386F30
:101B980001013751800A01013859D8B0F6EF12F027
:101BA80002D7F6EF12F031C1D9FF32C1DAFF020EC7
:101BB800DE18D8A423D0010120EE02F03151D92635
:101BC8003251DA22DE5002018D19D8A4F6EF12F054
:101BD800000E0201846F000E0201B76F020E0201AF
:101BE800B86F000E0101DA6F510E01013461F6EF92
:101BF80012F0010E02017C6FF6EF12F031C1D9FF2D
:101C080032C1DAFF020EDF64F6EF12F00B0E0101AB
:101C18003365F6EF12F0010E0101D36F000EDEEC12
:101C280074F0010120EE02F03151D9263251DA2246
:101C3800DE5002018D19D8A40AD0000E0201846F6B
:101C4800000E0201B76F020E0201B86F00D0010149
:101C580020EE01F03151D9263251DA22DE5002014C
:101C68008D19D8A498D1850E0101006F020E0101CB
:101C7800016F000E0101026F31C103F132C104F19D
:101C8800030E0101056F040E0101066F57EC6EF09B
:101C98000009D8B480D1010120EE01F03151D926D4
:101CA8003251DA22DF500101B86F010E0001B96F1D
:101CB8002DC106F12EC107F1E60E0101086F020ED3
:101CC8000101096F040E01010A6FA6EC72F001010F
:101CD80020EE07F03151D9263251DA220101E451C0
:101CE800DE18D8A424D0010120EE08F03151D926FD
:101CF8003251DA220101E551DE18D8A418D00101C9
:101D080020EE09F03151D9263251DA220101E6518B
:101D1800DE18D8A40CD0010120EE0AF03151D926E2
:101D28003251DA220101E751DE18D8B434D131C179
:101D3800D9FF32C1DAFF040EDE18D8B429D101D098
:101D480027D131C100F132C101F1030E0101026F47
:101D5800E40E0101036F010E0101046F000E010181
:101D6800056F040E0101066F57EC6EF00009D8A448
:101D78000FD101D00DD1010120EE0BF03151D92640
:101D88003251DA220201B951DE5CD8B003D0000E1C
:101D98001200FED0CAC250F1CBC251F1CCC252F1EE
:101DA800CDC253F131C100F132C101F1070E010179
:101DB800026F440E0101036F010E0101046F000E52
:101DC8000101056F040E0101066F9BEC6BF0440ED8
:101DD80001010B6F010E01010C6F500E01010D6F17
:101DE800010E01010E6F4BEC45F001014D6F010131
:101DF8005569500E0101066F010E0101076FE00ED3
:101E08000101086F010E0101096F040E01010A6F3B
:101E1800D8EC71F00009D8A40AD0500E01010E6F59
:101E2800010E01010F6F95EC6EF00101556F850EE3
:101E38000101066F020E0101076FEE0E0101086F26
:101E4800020E0101096F040E01010A6FA6EC72F07F
:101E58008DC2E5F2FDEC77F002018D6F040E0201F0
:101E68008E6F060E0201846F000E0201B76F020E1C
:101E78000201B86F31C100F132C101F1030E010155
:101E8800026F890E0101036F020E0101046F000E3B
:101E98000101056F040E0101066F9BEC6BF0E40E67
:101EA8000101066F010E0101076F850E0101086F20
:101EB800020E0101096F040E01010A6FA6EC72F00F
:101EC800000E0201B96F1D0E02018F6F2B0E020169
:101ED800906F440E0101006F010E0101016F000EA9
:101EE8000101026F8F0E0101036F020E0101046FE1
:101EF800020E0101056F040E0101066F9BEC6BF0E9
:101F0800500E0101006F010E0101016F000E010169
:101F1800026F8F0E0101036F020E0101046F060E9E
:101F28000101056F040E0101066F9BEC6BF02DC1DA
:101F380000F12EC101F1000E0101026F8F0E0101A7
:101F4800036F020E0101046F0A0E0101056F040EF2
:101F58000101066F9BEC6BF04DC19DF255C19EF2DD
:101F680001015551060D040EF326000EF422BD0E94
:101F7800F324D96E0A0EF420DA6EDF500F0B02013B
:101F88009F6F110E0201B56F000E0101DA6F00D0CC
:101F9800000E120000D002018451D8A408D000011C
:101FA800B951D8A404D00201B651D8B44ED0890E84
:101FB8000101066F020E0101076F030E01013125B1
:101FC8000101086F000E010132210101096F040EA1
:101FD80001010A6FD8EC71F00009D8B433D00201BE
:101FE8008451D8B42FD00001B951D8A42BD0020104
:101FF800B651D8A427D0010120EE01F03151D926DD
:102008003251DA220201E551DE18D8A41ED0EE0EB4
:102018000101006F020E0101016F000E0101026F44
:1020280031C103F132C104F1030E0101056F040E41
:102038000101066F57EC6EF00009D8B406D0000E07
:10204800120003D0000E120000D0010120EE07F0AC
:102058003151D9263251DA220101E451DE18D8A4CF
:1020680024D0010120EE08F03151D9263251DA226C
:102078000101E551DE18D8A418D0010120EE09F0BD
:102088003151D9263251DA220101E651DE18D8A49D
:102098000CD0010120EE0AF03151D9263251DA2252
:1020A8000101E751DE18D8B4D0D0010120EE0BF0C1
:1020B8003151D9263251DA221F0EDE18D8A402D0A7
:1020C800000E1200850E0101066F020E0101076F56
:1020D800EE0E0101086F020E0101096F040E0101E5
:1020E8000A6FA6EC72F08DC2E5F2010120EE01F054
:1020F8003151D9263251DA22DF5002018D6F31C1B8
:10210800D9FF32C1DAFFDF5002018E6F060E0201DD
:10211800846F000E0201B76F020E0201B86F31C161
:1021280000F132C101F1070E0101026F890E0101B0
:10213800036F020E0101046F000E0101056F040E0A
:102148000101066F9BEC6BF031C100F132C101F166
:10215800030E0101026F850E0101036F020E0101DA
:10216800046F000E0101056F040E0101066F9BEC60
:102178006BF0010120EE0BF03151D9263251DA22F1
:10218800DF500101366F010136290201B96F31C1F3
:1021980000F132C101F10C0E0101026F8F0E010135
:1021A800036F020E0101046F000E0101056F0101AA
:1021B8003351F40F0101066F9BEC6BF001013351B1
:1021C800F40F0201B56F000E0101DA6F010120EE74
:1021D80001F03151D9263251DA22DF500101B86FAE
:1021E800010E0001B96F2DC106F12EC107F1E60EEF
:1021F8000101086F020E0101096F040E01010A6F47
:10220800A6EC72F02DC121F12EC122F134C123F1C7
:10221800010E0101246F010E0101256F87EC40F0CA
:102228000101576F850E0101156F020E0101166F2E
:1022380057C117F1B9C218F1000E0101196F010E4B
:1022480001011A6FBBEC1DF0CDD1850E0101066F9F
:10225800020E0101076FEE0E0101086F020E010167
:10226800096F040E01010A6FA6EC72F08DC2E5F247
:10227800010120EE01F03151D9263251DA22DF5026
:1022880002018D6F31C1D9FF32C1DAFFDF5002017F
:102298008E6F000E0201846F000E0201B76F020EEE
:1022A8000201B86F31C100F132C101F1070E01011D
:1022B800026F890E0101036F020E0101046F000E07
:1022C8000101056F040E0101066F9BEC6BF031C133
:1022D80000F132C101F1030E0101026F850E010107
:1022E800036F020E0101046F000E0101056F040E59
:1022F8000101066F9BEC6BF031C100F132C101F1B5
:10230800030E0101026F2FC103F130C104F1000E69
:102318000101056F040E0101066F9BEC6BF00101D2
:1023280020EE0BF03151D9263251DA22DF5001016B
:10233800366F010136290201B96F31C100F132C18E
:1023480001F10C0E0101026F8F0E0101036F020EE5
:102358000101046F000E0101056F01013351F40FF3
:102368000101066F9BEC6BF001013351F40F020180
:10237800B56F010120EE01F03151D9263251DA2230
:10238800DF500101B86F010E0001B96F2DC106F1D0
:102398002EC107F1E60E0101086F020E0101096F57
:1023A800040E01010A6FA6EC72F0000E0101DA6F4B
:1023B8002DC121F12EC122F134C123F1010E0101F9
:1023C800246F010E0101256F87EC40F00101576F62
:1023D800850E0101156F020E0101166F57C117F125
:1023E800B9C218F1000E0101196F010E01011A6F2F
:1023F800BBEC1DF0090E02018E19D8A405D002010C
:1024080090515BEC78F0EED002018F39E842070B6F
:102418000101566F010156510101D8B41ED00101C6
:10242800C751D8B41AD00D0E010131250101006F32
:10243800000E010132210101016FF30E0101332564
:102448000101026F0101036BFF0E032356C104F162
:102458000BEC61F0010E1200C5D0010156510101CB
:10246800D8A409D00101C751D8A405D0F3D703D007
:10247800F1D71200B7D002018F511F0B0C0AD8B444
:10248800E9D702018F511F0B1E0AD8A407D00201F9
:102498009051D8A403D0DED71200A4D0CEC248F100
:1024A800CFC249F1D0C24AF1D1C24BF131C100F1DA
:1024B80032C101F1070E0101026F3B0E0101036FEA
:1024C800010E0101046F000E0101056F040E0101E8
:1024D800066F9BEC6BF03B0E01010B6F010E0101C7
:1024E8000C6F480E01010D6F010E01010E6F4BECD0
:1024F80045F001013F69480E0101066F010E010117
:10250800076FE00E0101086F010E0101096F040E4B
:1025180001010A6FD8EC71F00009D8A40AD0480E5E
:1025280001010E6F010E01010F6F95EC6EF00101B4
:102538003F6F850E0101066F020E0101076FEE0E57
:102548000101086F020E0101096F040E01010A6FF3
:10255800A6EC72F08DC2E5F2FDEC77F002018D6F0A
:10256800040E02018E6F060E0201846F000E020136
:10257800B76F020E0201B86F31C100F132C101F12B
:10258800030E0101026F890E0101036F020E0101A2
:10259800046F000E0101056F040E0101066F9BEC2C
:1025A8006BF0E40E0101066F010E0101076F850E45
:1025B8000101086F020E0101096F040E01010A6F83
:1025C800A6EC72F0000E0201B96F1D0E02018F6FAA
:1025D8002C0E0201906F020E0201B56F000E010170
:1025E800DA6F00D0000E1200120090C12DF191C1D7
:1025F8002EF1A90E01012F6F010E0101306F92C15A
:1026080031F193C132F194C133F195C134F196C1DE
:1026180035F12CEC0CF00009D8B41200000E0101C1
:10262800A66F010120EE0CF09251D9269351DA22BF
:10263800DF501F0B0101A76F0101AD691B0E0101DE
:10264800A7650BD0010120EE0DF09251D9269351C8
:10265800DA22DF500101AD6F00D0000E01019F6F3B
:102668000C0E010192250101006F000E010193215A
:102678000101016F020E0101026F0C0E010192258A
:102688000101036F000E010193210101046F060E81
:102698000101056F040E0101066F57EC6EF0000989
:1026A800D8B426D00C0E010192250101006F000E4E
:1026B800010193210101016F060E0101026F0C0E49
:1026C800010192250101036F000E0101932101010F
:1026D800046F0A0E0101056F040E0101066F57EC25
:1026E8006EF00009D8B404D0010E01019F6F00D02C
:1026F8009FC1AEF1000E0101A06F0C0E01019225E1
:102708000101006F000E010193210101016F030E09
:102718000101026F0C0E010192250101036F000EE9
:10272800010193210101046F070E0101056F040ED9
:102738000101066F57EC6EF00009D8B426D00C0ED4
:10274800010192250101006F000E01019321010191
:10275800016F070E0101026F0C0E010192250101A4
:10276800036F000E010193210101046F0B0E01019B
:10277800056F040E0101066F57EC6EF00009D8B41E
:1027880004D0010E0101A06F00D0A0C1A1F1D6EFC5
:1027980017F0F2EF17F01AD0F2EF17F0190E010147
:1027A8009419D8A4F2EF17F00D0E0101922501013A
:1027B800186F000E010193210101196F000E01012C
:1027C8001A6FFEEC6FF0F2EF17F044D0010E010122
:1027D800A66FF2EF17F0010120EE0EF09251D92604
:1027E8009351DA22410EDE18D8A4F8D3010120EE65
:1027F8000FF09251D9269351DA22530EDE18D8A43D
:10280800EDD3010120EE10F09251D9269351DA222E
:10281800460EDE18D8A4E2D3C50E0101066F030EDA
:102828000101076F110E010192250101086F000EC9
:10283800010193210101096F0B0E01010A6FD8EC08
:1028480071F00009D8B4CAD3000E0101DB6F6BEC3C
:102858002EF0C4D30101AD51030AD8B4B7D7290A61
:10286800D8B4B9D7BBD306D10101AE510101D8B450
:10287800B5D30E0E010192250101186F000E01015A
:1028880093210101196F000E01011A6FFEEC6FF020
:10289800A5D30101A1510101D8B417D00F0E010130
:1028A80092250101206F000E010193210101216F82
:1028B800010120EE0EF09251D9269351DA22DF5011
:1028C8000101226FB8EC50F089D3A90E0101186FED
:1028D800010E0101196F2D0E01011A6F010120EE81
:1028E80001F09251D9269351DA22DF5001011B6F72
:1028F800A4EC73F073D30101A1510101D8B417D02E
:102908000F0E0101922501010E6F000E01019321A6
:1029180001010F6F010120EE0EF09251D92693515B
:10292800DA22DF500101106F08EC4DF057D3A90EE1
:102938000101186F010E0101196F2D0E01011A6FA7
:10294800010120EE01F09251D9269351DA22DF508D
:1029580001011B6FA4EC73F041D30101AE510101D9
:10296800D8A43CD301D03AD3A90E0101186F010EA7
:102978000101196F2D0E01011A6F010120EE01F0FE
:102988009251D9269351DA22DF5001011B6FA4EC32
:1029980073F024D30101AE510101D8B41FD30E0E38
:1029A800010192250101186F000E01019321010117
:1029B800196F5EEC73F012D3010120EE0EF0925104
:1029C800D9269351DA22520EDE18D8A419D0010163
:1029D80020EE0FF09251D9269351DA22530EDE18C9
:1029E800D8A40ED0010120EE10F09251D9269351AF
:1029F800DA22490EDE18D8A403D043EC78F0EED2E0
:102A0800A90E0101186F010E0101196F2D0E0101A8
:102A18001A6F010120EE01F09251D9269351DA2262
:102A2800DF5001011B6FA4EC73F0D8D20101AE5145
:102A38000101D8B4D3D20E0E010192250101186FFD
:102A4800000E010193210101196F04EC72F0C6D246
:102A58000101AE510101D8B4C1D20E0E0101922577
:102A68000101186F000E010193210101196F0DEC8E
:102A78006AF0B4D20101AD51000AD8B4F5D6040AFF
:102A8800D8B4ACD2240AD8B404D7010AD8B433D7FE
:102A9800030AD8B462D7010AD8B47CD7070AD8B4D5
:102AA8008BD7010AD8B4C2D70B0AD8B4D1D796D2DB
:102AB8005BD20E0E0101922501012F6F000E01015C
:102AC80093210101306F22EC3FF0A90E0101186F2C
:102AD800010E0101196F5EEC73F080D292C100F112
:102AE80093C101F10E0E0101026FF90E0101036F8E
:102AF800010E0101046F000E0101056F040E0101B2
:102B0800066F9BEC6BF00D0E010192250101186F09
:102B1800000E010193210101196F04EC72F05ED2DD
:102B280092C100F193C101F10E0E0101026F92C131
:102B380003F193C104F1170E0101056F040E0101A1
:102B4800066F57EC6EF00009D8B499D092C100F125
:102B580093C101F1170E0101026F92C103F193C1F4
:102B680004F1200E0101056F040E0101066F57ECF8
:102B78006EF00009D8B483D092C100F193C101F17D
:102B8800120E0101026F92C103F193C104F11B0EF1
:102B98000101056F040E0101066F57EC6EF0000984
:102BA800D8B46DD092C100F193C101F11B0E01019F
:102BB800026F92C103F193C104F1240E0101056F64
:102BC800040E0101066F57EC6EF00009D8B457D017
:102BD800010120EE1FF09251D9269351DA2201010A
:102BE80010EE16F09251E1269351E222DE50E618DB
:102BF800D8A445D0010120EE28F09251D92693514E
:102C0800DA22010110EE1FF09251E1269351E222DF
:102C1800DE50E618D8A433D00E0E0101922501012A
:102C28002A6F000E0101932101012B6F120E010181
:102C3800922501012C6F000E0101932101012D6FD6
:102C4800010120EE16F09251D9269351DA22DF5075
:102C580001012E6F58EC72F0A90E0101186F010ED8
:102C68000101196F0E0E0101922501011A6F000E64
:102C78000101932101011B6F44EC4FF0AFD1A90E64
:102C88000101186F010E0101196F2D0E01011A6F54
:102C9800010120EE01F09251D9269351DA22DF503A
:102CA80001011B6FA4EC73F099D10E0E010192255E
:102CB80001010E6F000E0101932101010F6F65ECF8
:102CC80067F0A90E0101186F010E0101196F010EBD
:102CD80001011A6FFEEC6FF081D1010120EE0EF0B8
:102CE8009251D9269351DA22520EDE18D8A476D101
:102CF800010120EE0FF09251D9269351DA22530E9A
:102D0800DE18D8A46BD1010120EE10F09251D9261B
:102D18009351DA22540EDE18D8A460D1FF005ED198
:102D2800010120EE0EF09251D9269351DA22530E6A
:102D3800DE18D8A453D1010120EE0FF09251D92604
:102D48009351DA22460EDE18D8A448D1010120EEAC
:102D580010F09251D9269351DA22540EDE18D8A4D5
:102D68003DD1A90E0101186F010E0101196F5EEC2A
:102D78006AF0010120EE11F09251D9269351DA221E
:102D8800DF500001D96F150E0101276F7C0E266FE9
:102D9800000E0101286F110E49EC6DF01FD10101E1
:102DA80020EE0EF09251D9269351DA22530EDE18F6
:102DB800D8A458D0010120EE0FF09251D926935192
:102DC800DA22520EDE18D8A44DD0010120EE10F000
:102DD8009251D9269351DA22460EDE18D8A442D051
:102DE800010120EE11F09251D9269351DA22040EF6
:102DF800DF6038D0010120EE11F09251D9269351AD
:102E0800DA22DF5001019E6F010120EE12F092518B
:102E1800D9269351DA22DF500101976F01019751AA
:102E28000101A36FA46B0101A3510101A46FA36B5E
:102E3800010120EE13F09251D9269351DA22DF5086
:102E48000101976F010197510101A327000EA423E7
:102E5800A3C126F1A4C127F19EC128F1010E49ECB6
:102E68006DF0BCD0A90E0101186F010E0101196F98
:102E78002D0E01011A6F010120EE01F09251D926A1
:102E88009351DA22DF5001011B6FA4EC73F0A6D036
:102E98000101AE510101D8B4A1D0010120EE1BF00F
:102EA8009251D9269351DA22DF500101976F01011F
:102EB80097510101B16FB26B0101B1510101B26FBC
:102EC800B16B010120EE1AF09251D9269351DA2202
:102ED800DF500101976F010197510101B127000EE1
:102EE800B2230101B105090E0101B259D8A006D0DB
:102EF800000E0101B26F000EB16F70D0010120EE1B
:102F08001CF09251D9269351DA22DF500001D96F73
:102F18000E0E010192250101186F000E0101932187
:102F28000101196FC5EC6FF0010120EE1DF09251FF
:102F3800D9269351DA22DF500101EC6F1E0E0101F0
:102F480092250101066F000E010193210101076F0F
:102F5800C50E0101086F030E0101096F0B0E010177
:102F68000A6FA6EC72F03AD00101AD51040AD8B448
:102F78008FD7270AD8B49DD5060AD8B4AFD5030A87
:102F8800D8B4CED5010AD8B490D60F0AD8B4A5D6ED
:102F9800010AD8B423D0030AD8B4C2D66A0AD8B46E
:102FA800FED61CD00101A751000AD8B417D0020AD6
:102FB800D8B40CD4060AD8B411D0080AD8B4D2EFC1
:102FC80013F0100AD8B40AD0010AD8B443D4030ABB
:102FD800D8B450D5010AD8B4C7D700D00101A6513A
:102FE8000101D8A420D00C0E010192250101836FA4
:102FF800000E010193210101846F95C185F1A90E8D
:103008000101866F010E0101876FA7C188F1ADC16B
:1030180089F101019451F40F01018A6F36EC31F006
:103028000101A66F00D00101A6510101D8B4120018
:10303800E80E0101126FFF0E0101136FC4EC33F0AB
:103048000101C151D8A423D1010E0001BC6F0101B7
:103058009451FD0F0101A26F000E0101016F020ED4
:10306800006F240E0101026FE6EC5AF0000E010118
:10307800016F020E006F240E0101026FE6EC5AF098
:10308800000E0101016F020E006FA2C102F1E6EC11
:103098005AF0000E0101016F020E006F000E0101CF
:1030A800026FE6EC5AF0000E0101A56F000E010157
:1030B800016F020E006F010120EE03F09251D92634
:1030C8009351DA22DF500101026FE6EC5AF0010158
:1030D80020EE03F09251D9269351DA22DF500101F4
:1030E800A51B000E0101016F020E006F010120EE09
:1030F80004F09251D9269351DA22DF500101026F70
:10310800E6EC5AF0010120EE04F09251D9269351D1
:10311800DA22DF500101A51B000E0101016F020E2A
:10312800006F010120EE05F09251D9269351DA2261
:10313800DF500101026FE6EC5AF0010120EE05F0C4
:103148009251D9269351DA22DF500101A51B000EB6
:103158000101016F020E006F010120EE06F092518D
:10316800D9269351DA22DF500101026FE6EC5AF0BA
:10317800010120EE06F09251D9269351DA22DF5050
:103188000101A51B000E0101A86F38D0000E010136
:10319800016F020E006F0101A8510101976F986B32
:1031A8000C0E01019727000E982301019751010188
:1031B8009225D96E0101985101019321DA6EDF50F1
:1031C8000101026FE6EC5AF00101A8510101976F65
:1031D800986B0C0E01019727000E98230101975157
:1031E80001019225D96E0101985101019321DA6EEE
:1031F800DF500101A51B0101A82B00D0F70E01012A
:10320800976FFF0E0101986F0101A2510101996F9B
:103218009A6B010197510101992701019851010108
:103228009A230101A85101019B6F9C6B01019951DF
:1032380001019B5D01019C51800A01019D6F010103
:103248009A51800A01019D59D8A0A0D7000E01010A
:10325800016F020E006FA5C102F1E6EC5AF0000EF4
:103268000101016F020E006F0D0E0101026FE6EC05
:103278005AF0000E0101016F020E006F0A0E0101E3
:10328800026FE6EC5AF0000E0001BC6F00D0D60EBB
:103298000101126FFF0E0101136FC4EC33F012002D
:1032A800120001015A6F02018451D8A414D0000100
:1032B800B951D8A410D00201B651D8A40CD001013C
:1032C8004A05D8A408D0010E0101486F01015A51DE
:1032D80019EC78F008D0000E0101486F01015A512D
:1032E80019EC78F000D0600E01015B6F030E01014C
:1032F8005C6FB0EC78F00009D8A416D0DAC20CF1F3
:10330800DBC20DF1F7EC65F0010E01010C2502019D
:10331800366F000E01010D210201376F000E020108
:10332800DD6F000EDC6F00D0ACEC78F00009D8B48B
:10333800DED00201B651D8B47BD001015A51010147
:10334800D8B476D0000E0201B66F5BC1D9FF5CC15C
:10335800DAFF8EC2DFFF010120EE01F05B51D926B2
:103368005C51DA228DC2DFFF010120EE02F05B51D1
:10337800D9265C51DA22B8C1DFFF850E0101006F42
:10338800020E0101016F000E0101026F5BC103F122
:103398005CC104F1030E0101056F040E0101066F03
:1033A8009BEC6BF0890E0101006F020E0101016FA9
:1033B800000E0101026F5BC103F15CC104F1070E4D
:1033C8000101056F040E0101066F9BEC6BF0010112
:1033D80020EE0BF05B51D9265C51DA22B9C2DFFF2F
:1033E8008F0E0101006F020E0101016F000E010135
:1033F800026F5BC103F15CC104F10C0E0101056FA2
:10340800B5C206F19BEC6BF0E00E0101326F010EC4
:103418000101336F550E0101346F030E0101356F41
:103428000201B5510C0F0101366F83EC61F05BD0DE
:10343800020136510201DC1956E10201375102013D
:10344800DD19D8A450D001015A510101D8B442D095
:10345800B8EC78F00009D8B43DD00101F051D8B4E7
:1034680027D074EC28F00101516FE00E0101326F92
:10347800010E0101336F550E0101346F030E010176
:10348800356F51C136F183EC61F00009D8A42BD017
:1034980001D029D00201DA510201365D0201DB5167
:1034A80002013759D8B01FD00201364B372B1BD039
:1034B800E00E0101326F010E0101336F550E01015B
:1034C800346F030E0101356F000E0101366F83EC76
:1034D80061F009D0A80E0101126FFE0E0101136FF1
:1034E800C4EC33F000D00201DC4BDD2BDBD2C6C2CA
:1034F80056F1C7C257F1C8C258F1C9C259F1010102
:10350800DA51D8A4C1D00101DA2B0201B751D8A4ED
:10351800B8D0010E02018465C5D2890E01010B6F76
:10352800020E01010C6F560E01010D6F010E010113
:103538000E6F4BEC45F00101526F0001B951D8B440
:1035480016D0560E0101066F010E0101076FE60E37
:103558000101086F020E0101096F040E01010A6FD3
:10356800D8EC71F00009D8A49DD201D09BD2B8C282
:103578000CF101010D6BF7EC65F001010C51020132
:10358800B76F01015A510101D8B48CD202018407E6
:103598000201B82B1F0E0101526184D25BC1D9FF11
:1035A8005CC1DAFF8EC2DFFF010120EE01F05B5142
:1035B800D9265C51DA228DC2DFFF010120EE02F02C
:1035C8005B51D9265C51DA22B8C1DFFF850E0101B3
:1035D800006F020E0101016F000E0101026F5BC155
:1035E80003F15CC104F1030E0101056F040E010132
:1035F800066F9BEC6BF0890E0101006F020E010152
:10360800016F000E0101026F5BC103F15CC104F19F
:10361800070E0101056F040E0101066F9BEC6BF0AC
:10362800010120EE0BF05B51D9265C51DA22B9C2B8
:10363800DFFF8F0E0101006F020E0101016F000E06
:103648000101026F5BC103F15CC104F10C0E0101C1
:10365800056FB5C206F19BEC6BF0560E0101326F97
:10366800010E0101336F550E0101346F030E010184
:10367800356F0201B5510C0F0101366F83EC61F013
:1036880011D20201B7070ED20101DA05D8A4E8D099
:103698000001B951D8B4E4D00101DA2B890E010137
:1036A8000B6F020E01010C6F560E01010D6F010E1A
:1036B80001010E6F4BEC45F00101536F010E020141
:1036C80084659CD0560E0101066F010E0101076F3B
:1036D800E60E0101086F020E0101096F040E0101D7
:1036E8000A6FD8EC71F00009D8B488D0000E020136
:1036F800846F000E0201B76F020E0201B86F01015C
:103708005A510101D8B4CED11F0E01015361CAD15B
:10371800000E0001B96F5BC1D9FF5CC1DAFF8EC230
:10372800DFFF010120EE01F05B51D9265C51DA225E
:103738008DC2DFFF010120EE02F05B51D9265C51FA
:10374800DA22B8C1DFFF850E0101006F020E010108
:10375800016F000E0101026F5BC103F15CC104F14E
:10376800030E0101056F040E0101066F9BEC6BF05F
:10377800890E0101006F020E0101016F000E0101A7
:10378800026F5BC103F15CC104F1070E0101056F13
:10379800040E0101066F9BEC6BF0010120EE0BF0AB
:1037A8005B51D9265C51DA22B9C2DFFF8F0E0101C5
:1037B800006F020E0101016F000E0101026F5BC173
:1037C80003F15CC104F10C0E0101056FB5C206F1ED
:1037D8009BEC6BF0560E0101326F010E0101336F45
:1037E800550E0101346F030E0101356F0201B55109
:1037F8000C0F0101366F83EC61F054D1000E00010B
:10380800B96F5BC1D9FF5CC1DAFF020EDF6E01013F
:1038180020EE01F05B51D9265C51DA22000EDF6EF2
:10382800010120EE02F05B51D9265C51DA22B8C1C1
:10383800DFFF01015A510101D8B434D1E60E01016C
:10384800326F020E0101336F550E0101346F030E02
:103858000101356F030E0101366F83EC61F022D14F
:10386800020E0101DA651BD102018405D8A413D127
:10387800890E01010B6F020E01010C6F560E01013A
:103888000D6F010E01010E6F4BEC45F00101546FF5
:1038980001015569560E0101066F010E0101076FFE
:1038A800E00E0101086F010E0101096F040E01010C
:1038B8000A6FD8EC71F00009D8A40BD0560E01019C
:1038C8000E6F010E01010F6F95EC6EF00101556F3F
:1038D80000D0040E02018E19D8B414D0850E01014F
:1038E800066F020E0101076FE40E0101086F010E59
:1038F8000101096F040E01010A6FD8EC71F000098B
:10390800D8B40AD0000E0201846F000E0201B76F0E
:10391800020E0201B86FBFD0850E0101066F020EBC
:103928000101076FE40E0101086F010E0101096F23
:10393800040E01010A6FD8EC71F00009D8A4ABD0CD
:1039480001D0A9D0850E0101066F020E0101076F93
:10395800EE0E0101086F020E0101096F040E01014C
:103968000A6FA6EC72F08DC2E5F2FDEC77F0020169
:103978008D6F040E02018E6F060E0201846F000E19
:103988000201B76F020E0201B86F890E0101066FBE
:10399800020E0101076F4D0E0101086F010E0101B2
:1039A800096F040E01010A6FA6EC72F0850E010181
:1039B800066F020E0101076F890E0101086F020EE2
:1039C8000101096F040E01010A6FA6EC72F0E40E02
:1039D8000101066F010E0101076F850E0101086FD5
:1039E800020E0101096F040E01010A6FA6EC72F0C4
:1039F800000E0201B96F1D0E02018F6F2B0E02011E
:103A0800906F4D0E0101006F010E0101016F000E54
:103A18000101026F8F0E0101036F020E0101046F95
:103A2800020E0101056F040E0101066F9BEC6BF09D
:103A3800560E0101006F010E0101016F000E010118
:103A4800026F8F0E0101036F020E0101046F060E53
:103A58000101056F040E0101066F9BEC6BF054C168
:103A680099F255C19AF201015551060D040EF3263B
:103A7800000EF422BD0EF324D96E0A0EF420DA6E7D
:103A8800DF500F0B02019B6F0D0E0201B56F000E88
:103A98000101DA6F00D0000E0101DA6F03D00101D5
:103AA800DA2B00D0B0EC78F00009D8A40CD00201D1
:103AB800732B020E0201736506D0CAEC4DF0000E9E
:103AC8000201736F00D002016E2B0101EF51020158
:103AD8006E5DD8A03FD00101B951020DC90EF32483
:103AE800D96E080EF420DA6EDF38E832E832030BBC
:103AF8000009D8B422D0010E01014B6F0101B95160
:103B0800020DC90EF324D96E080EF420DA6EDF38E0
:103B180001014C6F4C334C31030B4C6F01014B517D
:103B280001014C5F01014C3B4C374C37DF50010120
:103B38004C193F0B4C19DF6E00D00101B92BF90E5F
:103B48000101B96503D0000E0101B96F000E020131
:103B58006E6F00D0070E2CEC74F00009D8B4120078
:103B6800E9EC41F0010E0101F06F1200120015C1DD
:103B780006F116C107F1E40E0101086F010E0101FB
:103B8800096F040E01010A6FD8EC71F00009D8A47E
:103B9800120001D0120001011729D8B4120001D077
:103BA8001200030E0101086F01011751060D050EE1
:103BB800F326000EF422BD0EF324D96E0A0EF4206B
:103BC800DA6EDF50B4EC4AF00101196151D0030EEE
:103BD8000101086F01011751060D050EF326000EAD
:103BE800F422BD0EF324D96E0A0EF420DA6EDF50EB
:103BF800B4EC4AF001011B6F01011751060D040EC8
:103C0800F326000EF422BD0EF324D96E0A0EF4201A
:103C1800DA6EDF380F0B2DEC75F001011B5DD8B0A3
:103C280012D001011751060D040EF326000EF422DE
:103C3800BD0EF324D96E0A0EF420DA6EDF380F0BAE
:103C48002DEC75F03AD0030E0101086F01011751F0
:103C5800060D050EF326000EF422BD0EF324D96ED0
:103C68000A0EF420DA6EDF50B4EC4AF026D02BD0DE
:103C780001011751060D040EF326000EF422BD0EA5
:103C8800F324D96E0A0EF420DA6EDF380F0B2DEC10
:103C980075F00101196114D001011751060D040EC8
:103CA800F326000EF422BD0EF324D96E0A0EF4207A
:103CB800DA6EDF380F0B2DEC75F001011F6F03D0A2
:103CC80019C11FF100D0000E0101206FF90E01018A
:103CD800206501D06BD215C104F116C105F10101AF
:103CE800205196EC5EF00009D8B45DD20101205154
:103CF800020DC90EF324D96E080EF420DA6EDF50D7
:103D08003F0BC3EC68F001011C6F01012051020D4B
:103D1800010EF326000EF422C90EF324D96E080E04
:103D2800F420DA6EDF38E832070B01011B6F01015E
:103D38001C5101011B5DD8B019D01CC11BF1010138
:103D48002051020D010EF326000EF422C90EF324B1
:103D5800D96E080EF420DA6E01011B3B1B47DF50B9
:103D680001011B191F0B1B19DF6E00D001011A512D
:103D78000101D8B42DD001012051020D010EF32606
:103D8800000EF422C90EF324D96E080EF420DA6E60
:103D9800DF5001011819E00B1819DF6E01012051DD
:103DA800020DC90EF324D96E080EF420DA6EDF5026
:103DB80001011719C00B1719DF6E01012051020DFF
:103DC800C90EF324D96E080EF420DA6EC00EDF1285
:103DD80001012051020DC90EF324D96E080EF420FA
:103DE800DA6EDF503F0B01011719D8A444D01FC168
:103DF8001BF101012051020D010EF326000EF422E1
:103E0800C90EF324D96E080EF420DA6E01011B3BAB
:103E18001B47DF5001011B191F0B1B19DF6E010126
:103E28002051020D010EF326000EF422C90EF324D0
:103E3800D96E080EF420DA6EDF501F0B0101181935
:103E4800D8B405D001011751CEEC75F000D00101AE
:103E58002051020D010EF326000EF422C90EF324A0
:103E6800D96E080EF420DA6EDF5001011819E00B44
:103E78001819DF6E120001012051020DC90EF3243A
:103E8800D96E080EF420DA6EDF38E832E832030B18
:103E98000009D8A4120001012051020D010EF326D9
:103EA800000EF422C90EF324D96E080EF420DA6E3F
:103EB800DF38E832070B070AD8A43BD001012051AC
:103EC800020D010EF326000EF422C90EF324D96E5A
:103ED800080EF420DA6EDF5001011819E00B1819EA
:103EE800DF6E01012051020DC90EF324D96E080EB0
:103EF800F420DA6EDF5001011719C00B1719DF6EB5
:103F08001FC11BF101012051020D010EF326000E05
:103F1800F422C90EF324D96E080EF420DA6E0101DA
:103F28001B3B1B47DF5001011B191F0B1B19DF6EC1
:103F3800120001012051020D010EF326000EF42299
:103F4800C90EF324D96E080EF420DA6EDF501F0B69
:103F58000101186145D001011F510001DA5DD8A0A7
:103F6800120001012051020D010EF326000EF42269
:103F7800C90EF324D96E080EF420DA6EDF50010161
:103F88001819E00B1819DF6E01012051020DC90E36
:103F9800F324D96E080EF420DA6EDF5001011719E8
:103FA800C00B1719DF6E1FC11BF101012051020D53
:103FB800010EF326000EF422C90EF324D96E080E62
:103FC800F420DA6E01011B3B1B47DF5001011B196E
:103FD8001F0B1B19DF6E01011751CEEC75F0120093
:103FE80001012051020D010EF326000EF422C90E24
:103FF800F324D96E080EF420DA6EDF501F0B01018E
:104008001819D8A461D001012051020D010EF32620
:10401800000EF422C90EF324D96E080EF420DA6ECD
:10402800DF38E832070B01011F611200010120513E
:10403800020D010EF326000EF422C90EF324D96EE8
:10404800080EF420DA6EDF38E832070B0001DA6177
:10405800120001012051020D010EF326000EF42278
:10406800C90EF324D96E080EF420DA6EDF50010170
:104078001819E00B1819DF6E01012051020DC90E45
:10408800F324D96E080EF420DA6EDF5001011719F7
:10409800C00B1719DF6E1FC11BF101012051020D62
:1040A800010EF326000EF422C90EF324D96E080E71
:1040B800F420DA6E01011B3B1B47DF5001011B197D
:1040C8001F0B1B19DF6E120001012051020D010E9A
:1040D800F326000EF422C90EF324D96E080EF4203C
:1040E800DA6EDF501F0B01011B6F0101185101012E
:1040F8001B5DD8B012000001DA5101011F5DD8B074
:10410800120001012051020D010EF326000EF422C7
:10411800C90EF324D96E080EF420DA6EDF38E832BF
:10412800070B0001DA61120001012051020D010E96
:10413800F326000EF422C90EF324D96E080EF420DB
:10414800DA6EDF5001011819E00B1819DF6E010152
:104158002051020DC90EF324D96E080EF420DA6E30
:10416800DF5001011719C00B1719DF6E1FC11BF1B2
:1041780001012051020D010EF326000EF422C90E92
:10418800F324D96E080EF420DA6E01011B3B1B479D
:10419800DF5001011B191F0B1B19DF6E010117519D
:1041A800CEEC75F012000101202B90D51F0E0101F5
:1041B800186160D0000E01011E6FF90E01011E6525
:1041C80001D058D0E00E0101046F010E0101056F06
:1041D80001011E5196EC5EF00009D8B447D015C114
:1041E80007F116C108F101011E51BCEC6CF0010188
:1041F8001E51020D010EF326000EF422C90EF324FF
:10420800D96E080EF420DA6EDF5001011819E00BA0
:104218001819DF6E01011E51020DC90EF324D96E63
:10422800080EF420DA6EDF5001011719C00B1719B8
:10423800DF6E1FC11BF101011E51020D010EF32695
:10424800000EF422C90EF324D96E080EF420DA6E9B
:1042580001011B3B1B47DF5001011B191F0B1B19D9
:10426800DF6E01011751CEEC75F0120001011E2B13
:10427800A4D700D01F0E010118611200AEC01DF1B5
:10428800F90E01011D6502D01200120001011D5135
:10429800020D010EF326000EF422C90EF324D96E86
:1042A800080EF420DA6EDF501F0B1F0AD8B40ED0A8
:1042B80001011D51020DC90EF324D96E080EF42018
:1042C800DA6EDF503F0B3F0AD8A454D015C107F16E
:1042D80016C108F10001AE51BCEC6CF00001AE5102
:1042E800020D010EF326000EF422C90EF324D96E36
:1042F800080EF420DA6EDF5001011819E00B1819C6
:10430800DF6E0001AE51020DC90EF324D96E080EFE
:10431800F420DA6EDF5001011719C00B1719DF6E90
:104328001FC11BF10001AE51020D010EF326000E54
:10433800F422C90EF324D96E080EF420DA6E0101B6
:104348001B3B1B47DF5001011B191F0B1B19DF6E9D
:104358000001AE51020DC90EF324D96E080EF420E7
:10436800DA6E3F0EDF1601011751CEEC75F01DC154
:10437800AEF01200F90E01011D19D8A404D0000EE8
:104388000001AE6F00D001011D2BF90E01011D6562
:104398007DD7120012001200000E496E000E4A6E00
:1043A800000E0001B16F000E0001B76F020E2CEC79
:1043B80074F00009D8B435D1010E496E0001B22B52
:1043C800020E0001B219D8A4FBD0000E0001B26F92
:1043D800F7D0000E0001B16F000E0101276F1E0E0D
:1043E800266F000E0101286F020E49EC6DF019D1FD
:1043F800010E0001B16F000E0101276F1E0E266F1E
:10440800000E0101286F020E49EC6DF00AD100017F
:10441800B205D8A404D0010E0001B16F00D0000E7F
:104428000101276F400E266F000E0101286F020E52
:1044380049EC6DF0F6D00001B205D8A404D0010E05
:104448000001B16F00D0000E0101276F7D0E266FAD
:10445800000E0101286F020E49EC6DF0E2D000D089
:104468000001B205D8A404D0010E0001B16F00D03C
:10447800000E0101276FFA0E266F000E0101286F4A
:10448800020E49EC6DF0CDD00001B205D8A404D0DD
:10449800010E0001B16F00D0010E0101276FF40E6B
:1044A800266F000E0101286F020E49EC6DF0B9D09D
:1044B8000001B205D8A404D0010E0001B16F00D0EC
:1044C800030E0101276FE80E266F000E0101286F09
:1044D800020E49EC6DF0A5D00001B205D8A404D0B5
:1044E800010E0001B16F00D0090E0101276FC40E43
:1044F800266F000E0101286F020E49EC6DF091D075
:104508000001B205D8A404D0010E0001B16F00D09B
:10451800130E0101276F880E266F000E0101286F08
:10452800020E49EC6DF07DD00001B205D8A421D06F
:10453800010E0001B16F3850D8A40DD0000E010152
:10454800276F500E266F000E0101286F020E49ECEE
:104558006DF0010E0CD0090E0101276F740E266F45
:10456800000E0101286F020E49EC6DF0000E386E46
:1045780058D03850D8B40CD0000E0101276F500E17
:10458800266F000E0101286F020E49EC6DF049D02C
:10459800090E0101276F740E266F000E0101286FA6
:1045A800020E49EC6DF03DD0000E0101276F1E0E82
:1045B800266F000E0101286F020E49EC6DF031D014
:1045C8000001B051000AD8B404D7010AD8B410D7F2
:1045D800030AD8B41CD7010AD8B42DD7070AD8B40F
:1045E8003FD7010AD8B450D7030AD8B461D70D0A07
:1045F800D8B436D7070AD8B433D7010AD8B430D7D5
:10460800030AD8B42DD7010AD8B42AD71F0AD8B4B8
:1046180063D7010AD8B474D7030AD8B485D7C4D7E6
:1046280000D0030E2CEC74F00009D8B435D1010E7B
:104638004A6E0001B32B020E0001B319D8A4FBD0B7
:10464800000E0001B36FF7D0000E0001B76F000E27
:104658000101276F1E0E266F000E0101286F030E41
:1046680049EC6DF019D1010E0001B76F000E010180
:10467800276F1E0E266F000E0101286F030E49ECEE
:104688006DF00AD10001B305D8A404D0010E0001D1
:10469800B76F00D0000E0101276F400E266F000E85
:1046A8000101286F030E49EC6DF0F6D00001B30547
:1046B800D8A404D0010E0001B76F00D0000E01018C
:1046C800276F7D0E266F000E0101286F030E49EC3F
:1046D8006DF0E2D000D00001B305D8A404D0010EDB
:1046E8000001B76F00D0000E0101276FFA0E266F88
:1046F800000E0101286F030E49EC6DF0CDD00001CA
:10470800B305D8A404D0010E0001B76F00D0010E84
:104718000101276FF40E266F000E0101286F030EAA
:1047280049EC6DF0B9D00001B305D8A404D0010E4E
:104738000001B76F00D0030E0101276FE80E266F46
:10474800000E0101286F030E49EC6DF0A5D00001A1
:10475800B305D8A404D0010E0001B76F00D0090E2C
:104768000101276FC40E266F000E0101286F030E8A
:1047780049EC6DF091D00001B305D8A404D0010E26
:104788000001B76F00D0130E0101276F880E266F46
:10479800000E0101286F030E49EC6DF07DD0000179
:1047A800B305D8A421D0010E0001B76F3B50D8A49F
:1047B8000DD0000E0101276F500E266F000E01016B
:1047C800286F030E49EC6DF0010E0CD0090E0101A3
:1047D800276F740E266F000E0101286F030E49EC37
:1047E8006DF0000E3B6E58D03B50D8B40CD0000E84
:1047F8000101276F500E266F000E0101286F030E6E
:1048080049EC6DF049D0090E0101276F740E266F2F
:10481800000E0101286F030E49EC6DF03DD0000E2B
:104828000101276F1E0E266F000E0101286F030E6F
:1048380049EC6DF031D00001B651000AD8B404D764
:10484800010AD8B410D7030AD8B41CD7010AD8B4BF
:104858002DD7070AD8B43FD7010AD8B450D7030ACE
:10486800D8B461D70D0AD8B436D7070AD8B433D725
:10487800010AD8B430D7030AD8B42DD7010AD8B45E
:104888002AD71F0AD8B463D7010AD8B474D7030A41
:10489800D8B485D7C4D700D0090E0001B019D8A460
:1048A8000CD04A50D8B409D00001B3510001D8A4A3
:1048B80004D0010E0001B16F00D00A0E0001B61934
:1048C800D8A40CD04950D8B409D00001B251000185
:1048D800D8A404D0010E0001B76F00D0080E000163
:1048E800B019D8A40CD04A50D8B409D00001B75197
:1048F8000001D8B404D0010E0001B16F00D0070E3A
:104908000001B619D8A40CD04950D8B409D0000178
:10491800B1510001D8B404D0010E0001B76F00D026
:104928000001B7510001D8B40DD03A50D8B402D024
:104938003A0600D00001B5510001D8B403D00001F7
:10494800B50700D00001B1510001D8B40DD03750DF
:10495800D8B402D0370600D00001AF510001D8B456
:1049680003D00001AF0700D00001AF510001D8B457
:1049780003D0000E0001B16F0001B5510001D8B499
:1049880003D0000E0001B76F3750D8B424D035D00B
:1049980022D00A0E0001AF6F0001AF51040F13D0EF
:1049A8000A0E0001AF6F0001AF51030F0CD00A0EC1
:1049B8000001AF6F0001AF51020F05D00A0E0001D0
:1049C800AF6F0001AF29376E18D00A0E0001AF6F24
:1049D800AFC037F012D00001B0510B0AD8B4D9D704
:1049E800070AD8B4DDD7010AD8B4E1D7030AD8B486
:1049F800E5D7010AD8B4E9D700D03A50D8B424D0C2
:104A080035D022D00A0E0001B56F0001B551040F50
:104A180013D00A0E0001B56F0001B551030F0CD079
:104A28000A0E0001B56F0001B551020F05D00A0E3C
:104A38000001B56F0001B5293A6E18D00A0E0001C1
:104A4800B56FB5C03AF012D00001B6510B0AD8B410
:104A5800D9D7070AD8B4DDD7010AD8B4E1D7030AF1
:104A6800D8B4E5D7010AD8B4E9D700D00001B151CC
:104A7800D0EC77F00001B751C4EC77F012000101D7
:104A8800416F0101C651D8A404D00101DD51D8B449
:104A980049D2800E0101BF19D8B458D02CC00DF1ED
:104AA8002DC00EF1DEC20FF1DFC210F1A3EC70F0E1
:104AB80001010D5101010E11D8A413D0000E0101FE
:104AC8000E6F0001C351010D000EF324D96E060EBE
:104AD800F420DA6EDF506EEC76F0010E0001BD6F47
:104AE80026D02CC10EF1C3C000F10101016BD1C168
:104AF80002F10101036BC90E0101046F000E056F7D
:104B0800000E066F000E076F8AEC6FF0000E0101B1
:104B18000025D96E060E01010121DA6EDF506EEC18
:104B280076F0000E0001BD6F000E3F6E00D0020E41
:104B38000101DD19D8A406D0010E0101C66F000ECF
:104B48000101DD6F000E0101DC6F2BD0020E0101A7
:104B5800DD19D8A407D0010E0101C66F000E0101AE
:104B6800DD6F1FD00101DC2B010E0101DC6519D0BE
:104B7800F25000D0070E17EC5FF0000E0101C66F6F
:104B8800000E0101DD6F010E0101F16F000E010140
:104B9800016F040E006F030E0101026FE6EC5AF07C
:104BA80000D02C042D10D8A407D0010E436EA2C04B
:104BB80034F0A3C035F000D0080E2CEC74F00009D6
:104BC800D8B408D00101CB51D8B404D0010E0101EA
:104BD800D56F00D0080E22EC76F00009D8B42ED09C
:104BE8000101CB51D8A41CD0F3C10CF101010D6B0C
:104BF800F7EC65F001010C510101CC6F0101CC51BA
:104C080000080101F3250101CB6FCCC126F1010198
:104C1800276B010E0101286F080E49EC6DF00ED0CC
:104C2800CBC126F10101276B010E0101286F080E87
:104C380049EC6DF0000E0101CB6F00D00001C551A9
:104C48000001D8A406D00201445102014511D8B48C
:104C580042D10001BD51D8B43ED1010141510101F9
:104C6800D8B439D146C22DF147C22EF101012D1F0A
:104C78002E1F2D4B2E2B040E01010C6F010E00EC84
:104C88005CF001012D5101010C250101466F010164
:104C98002E5101010D210101476F46C12DF147C178
:104CA8002EF101012D1F2E1F2D4B2E2B2DC144F14E
:104CB8002EC145F1080E0101475DD8A00BD0FE0EAC
:104CC8000101465D0F0E01014759D8B003D000011C
:104CD800C52B36D0010146290F0E01014759D8A02E
:104CE8000CD0FD0E0101465D170E01014759D8B0E1
:104CF80004D0020E0001C52723D0080E0101455D2E
:104D0800D8A00BD0FE0E0101445D0F0E01014559DC
:104D1800D8B003D00001C50713D0010144290F0EF4
:104D280001014559D8A00CD0FD0E0101445D170EB4
:104D380001014559D8B004D0020E0001C55F00D06A
:104D4800040E01010C6F010E00EC5CF00CC146F181
:104D58000DC147F1A2C000F1A3C001F146C102F1A3
:104D680047C103F1000E0101046F000E056F010E2B
:104D7800066F000E076F8AEC6FF000C137F101C1B2
:104D880038F137C117F138C118F144C219F145C2D9
:104D98001AF1000E01011B6F000E1C6F010E1D6F32
:104DA800000E1E6F68EC62F017C142F118C143F1A2
:104DB80042C10DF143C10EF1070E0101106F0F69D9
:104DC800A3EC70F00DC13DF10EC13EF13DC10DF1F6
:104DD8003EC10EF1040E01010F6F010EDDEC49F02A
:104DE80001013D510101425F01013E510101435B57
:104DF80042C1A2F043C1A3F042C106F143C107F189
:104E0800070E0101096F0869D5EC6DF006C12CF099
:104E180007C12DF0C3C017F10101186BC5C019F106
:104E280001011A6BC90E01011B6F000E1C6F000EE9
:104E38001D6F000E1E6F68EC62F001011751000132
:104E4800C36FC5C02FF10101306B000E0001C56FA3
:104E5800000E0201456F000E446F000E02013B6F09
:104E6800000E3A6F2C502D10D8A408D0000E2D6ECD
:104E7800100E2C6E38C2A2F039C2A3F0070E356EA0
:104E88003468020E0101DD6F040E01010C6F010E82
:104E980000EC5CF00001A25101010C2501013F6FFB
:104EA8000001A35101010D210101406FB0EC78F020
:104EB8000101316F3FC133F1010140510101326FEE
:104EC800000E0101016F040E006F020E0101026F56
:104ED800E6EC5AF023D00001C3510001CE19D8A442
:104EE8000BD00101C651D8B407D0010141510101CD
:104EF800D8A414D001D012D00101D551D8B40ED005
:104F0800B4EC78F00009D8B409D00101415101018D
:104F1800D8B404D0000E0101D56F00D00201544B63
:104F2800552B4ED0060E22EC76F00009D8B41CD0D2
:104F3800000E01010D6F320E0C6FF7EC65F0540E88
:104F480001010C250101396F240E01010D21010118
:104F58003A6F39C126F13AC127F1000E0101286FD5
:104F6800060E49EC6DF000D0060E2CEC74F000092A
:104F7800D8B40DD0000E01010E6F0101F8516EEC8E
:104F880076F0000E0201E16F010EE06F00D0020121
:104F9800E1510BE1330E0201E05DD8B006D0B5EC6B
:104FA80076F00201E04BE12B00D0330E0201E0194C
:104FB8000201E111D8A404D00201E04BE12B00D09A
:104FC8000001CE510001D8A404D0C80E0001CE6F54
:104FD80003D00001CE0700D0050E2CEC74F00009B8
:104FE800D8A475EC71F0090E22EC76F00009D8B45B
:104FF8004CD0BCEC78F001012D6F01012D513E0D14
:10500800F3CF3BF1F4CF3CF13BC108F13CC109F1CE
:10501800B8EC75F008C10BF109C10CF10AC10DF12A
:10502800000E01010E6F7A0E01010F6F440E01018F
:10503800106F83EC55F00BC134F10CC135F10DC183
:1050480036F1000E01010B6F280E01010C6F430EA3
:1050580001010D6F34C108F135C109F136C10AF1FA
:105068006FEC51F008C117F109C118F10AC119F123
:10507800DAEC54F017C126F118C127F1010E01012D
:10508800286F090E49EC6DF000D0090E2CEC74F075
:105098000009D8B417D0070E17EC5FF0000E010115
:1050A800C66F000E0101DD6F010E0101F16F000EE8
:1050B8000101016F040E006F050E0101026FE6EC9D
:1050C8005AF000D00F0E2CEC74F00009D8B404D0BC
:1050D800010E0101F16F00D00E0E2CEC74F01200DD
:1050E800000E0101176F600E0101256F030E01010B
:1050F800266F25C1D9FF26C1DAFF010EDF6E000E2B
:105108000101186F060E0101186F010E0101226FCF
:10511800010E0101226501D096D00001BB51060D98
:10512800BD0EF3240101066F0A0EF4200101076F7A
:10513800E00E0101086F010E0101096F040E010163
:105148000A6FD8EC71F00009D8A449D00001BB510E
:10515800060D050EF326000EF422BD0EF324D96EBB
:105168000A0EF420DA6EDE28D8B439D00001BB511B
:10517800060DBD0EF3240101006F0A0EF420010193
:10518800016F000E0101026F25C103F126C104F170
:10519800010E0101056F040E0101066F9BEC6BF017
:1051A800010120EE05F02551D9262651DA22040EF8
:1051B8000101086F0001BB51060D050EF326000E14
:1051C800F422BD0EF324E16E0A0EF420E26EE750DD
:1051D800B4EC4AF0DF6E010E0101176F03D0010134
:1051E800220700D03E0E0001BB6103D00001BB2B9B
:1051F80027D0000E0001BB6F010117510101D8A48F
:1052080022D0E00E0101006F010E0101016F000EB6
:105218000101026F25C103F126C104F1010E01014C
:10522800056F040E0101066F9BEC6BF0010120EE87
:1052380005F02551D9262651DA22FF0EDF6E03D05C
:105248000101222B65D7000E01011C6F000E010120
:10525800246F000E0101196FBAC016F11AD20001AD
:10526800CB51D8B4FCD001012451010D2E0EF324EA
:10527800D96E020EF420DA6EDF500101236F1E0E84
:1052880001010C6F010E01010D6F010123516EEC3C
:1052980068F0010E010124250101006F0101016B75
:1052A800000E0123000E0101036F050E026FA6EC2C
:1052B80074F0010E01010027000E01010123010114
:1052C800005101012525D96E010101510101262155
:1052D800DA6E1EC1DFFF010E010124250101006FF6
:1052E8000101016B000E0123000E0101036F050E81
:1052F800026FA6EC74F0020E01010027000E0101F6
:1053080001230101005101012525D96E0101015137
:1053180001012621DA6E1FC1DFFF010E01012425DC
:105328000101006F0101016B000E0123000E010154
:10533800036F050E026FA6EC74F0030E010100273F
:10534800000E010101230101005101012525D96E3B
:105358000101015101012621DA6E20C1DFFF010E92
:10536800010124250101006F0101016B000E0123D9
:10537800000E0101036F050E026FA6EC74F0040E17
:1053880001010027000E0101012301010051010163
:105398002525D96E0101015101012621DA6E21C1AD
:1053A800DFFF01012351020D010EF326000EF42246
:1053B800C90EF324D96E080EF420DA6EDF38E8320D
:1053C800070B0101146F050E0101156F0101D8903B
:1053D80014370101152FFAD70101145101011A6F71
:1053E80001012351020D010EF326000EF422C90E0D
:1053F800F324D96E080EF420DA6EDF501F0B01017A
:105408001A27010E010124250101006F0101016B1A
:10541800000E0123000E0101036F050E026FA6ECBA
:1054280074F0050E01010027000E0101012301019E
:10543800005101012525D96E0101015101012621E3
:10544800DA6E1AC1DFFF050E01011C270101242BAA
:105458000001CB51D8B41DD10001CB071AD1E00E01
:105468000101046F010E0101056F0001BA5196ECAC
:105478005EF00009D8A4F8D00001BA51020DC90E97
:10548800F324D96E080EF420DA6EDF503F0B3F0A82
:10549800D8B4EAD01E0E01010C6F010E01010D6F88
:1054A8000001BA516EEC68F0010E010124250101DA
:1054B800006F0101016B000E0123000E0101036F53
:1054C800050E026FA6EC74F0010E01010027000E14
:1054D800010101230101005101012525D96E0101B6
:1054E800015101012621DA6E1EC1DFFF010E010103
:1054F80024250101006F0101016B000E0123000E3C
:105508000101036F050E026FA6EC74F0020E010193
:105518000027000E01010123010100510101252589
:10552800D96E0101015101012621DA6E1FC1DFFF89
:10553800010E010124250101006F0101016B000E1C
:105548000123000E0101036F050E026FA6EC74F033
:10555800030E01010027000E010101230101005182
:1055680001012525D96E0101015101012621DA6EBB
:1055780020C1DFFF010E010124250101006F010197
:10558800016B000E0123000E0101036F050E026F6F
:10559800A6EC74F0040E01010027000E010101239E
:1055A8000101005101012525D96E010101510101B7
:1055B8002621DA6E21C1DFFF0001BA51020D010E6A
:1055C800F326000EF422C90EF324D96E080EF42037
:1055D800DA6EDF38E832070B0101146F050E01019E
:1055E800156F0101D89014370101152FFAD7010161
:1055F800145101011B6F0001BA51020D010EF3266F
:10560800000EF422C90EF324D96E080EF420DA6EC7
:10561800DF501F0B01011B27010E01012425010189
:10562800006F0101016B000E0123000E0101036FE1
:10563800050E026FA6EC74F0050E01010027000E9E
:10564800010101230101005101012525D96E010144
:10565800015101012621DA6E1BC1DFFF050E010190
:105668001C270101242B00D0F90E0001BA6103D0D8
:105678000001BA2B04D0000E0001BA6F00D000015F
:10568800BA5101011619D8A404D0010E0101196FED
:1056980000D0080E0101246107D001011951010150
:1056A800D8A402D0DCD500D00101185101011C2575
:1056B80001011D6F01011D51010DF3500101252547
:1056C800D96EF45001012621DA6EC7C0DFFF01014F
:1056D8001D2B01011D511200120001012E51010163
:1056E800D8B4F2D2C90E01013061EED22CC1D9FF73
:1056F8002DC1DAFFDE28D8A456D00101DD51D8A487
:1057080052D00101C651D8B422D0050E22EC76F051
:105718000009D8B48DD2060E01010D6F0E0E0C6F64
:10572800F7EC65F01C0E01010C2501013B6F0C0E16
:1057380001010D2101013C6F3BC126F13CC127F15C
:10574800000E0101286F050E49EC6DF071D20E0EA6
:1057580022EC76F00009D8B46BD2050E22EC76F074
:105768000009D8B41CD0060E01010D6F0E0E0C6F87
:10577800F7EC65F01C0E01010C2501013D6F0C0EC4
:1057880001010D2101013E6F3DC126F13EC127F106
:10579800000E0101286F050E49EC6DF000D0010ED6
:1057A8000101C66F45D2020E01012E6541D20101E9
:1057B80020EE01F02C51D9262D51DA22DF500101BB
:1057C800316F010131510101506F516B010150518D
:1057D8000101516F506B010120EE02F02C51D926C6
:1057E8002D51DA22DF500101316F010131510101E0
:1057F8005027000E512350C133F151C134F1040E2A
:1058080001010C6F010E00EC5CF00CC14CF10DC1F4
:105818004DF1B5C117F1B6C118F14CC119F14DC11F
:105828001AF1FF0E01011B6F070E1C6F000E1D6F92
:10583800000E1E6F68EC62F017C13FF118C140F10D
:10584800A2C000F1A3C001F14CC102F14DC103F1A6
:10585800000E0101046F000E056F010E066F000EA9
:10586800076F8AEC6FF000C14EF101C14FF14EC1D4
:1058780046F14FC147F14EC100F14FC101F1000E91
:105888000101036F3D0E026F000E0101046F000E4F
:10589800056F010E066F000E076F8AEC6FF000C1EE
:1058A8004CF101C14DF101012F510101D8B415D0BE
:1058B8004CC100F14DC101F1000E0101036F050E4D
:1058C800026F000E0101046F000E056F010E066FD6
:1058D800000E076F8AEC6FF014D04CC100F14DC177
:1058E80001F1000E0101036F000E026F000E0101AD
:1058F800046F000E056F010E066F000E076F8AEC2D
:105908006FF000C14EF101C14FF150C117F151C103
:1059180018F13FC119F140C11AF1000E01011B6FC6
:10592800000E1C6F010E1D6F000E1E6F68EC62F0FA
:1059380017C14CF118C14DF14CC150F14DC151F195
:105948004EC131F14FC132F10101311F321F314BCC
:10595800322B010150510101312501014A6F01012A
:1059680051510101322101014B6F4AC131F14BC143
:1059780032F10101311F321F314B322BFF0E010171
:1059880031250101486FFF0E010132210101496FE4
:105998002CC1D9FF2DC1DAFF01013051DE18D8A47E
:1059A80014D0080E01014B5DD8A005D0800E01016E
:1059B8004B5DD8A00AD0080E0101495DD8A075D06A
:1059C800800E0101495DD8B070D00101F151D8A411
:1059D80004D00101C651D8A4D4D04EC117F14FC18B
:1059E80018F150C119F151C11AF1000E01011B6FD4
:1059F800000E1C6F010E1D6F000E1E6F68EC62F02A
:105A080017C144F218C145F24EC10DF14FC10EF154
:105A1800070E0101106F0F69A3EC70F00DC131F191
:105A28000EC132F150C10DF151C10EF1070E010145
:105A3800106F0F69A3EC70F001010D1F01010E1F1B
:105A480001010D4B0E2B01010D5101013125020100
:105A5800466F01010E51010132210201476F30C129
:105A680017F10101186B2CC1D9FF2DC1DAFFDF50E6
:105A78000101316F010131510101196F1A6BC90E12
:105A880001011B6F000E1C6F000E1D6F000E1E6FB4
:105A980068EC62F0010117510001C56F010E0101A8
:105AA800DD6F000E0101C66F6CD00101505101017C
:105AB8004E5D0101515101014F59D8B047D0800EB8
:105AC80001014B5DD8B042D001014E5100080101DF
:105AD80050250101456F010145510001A227000E23
:105AE800A3234EC131F14FC132F10101311F321FE1
:105AF800314B322B010150510101312502014C6F0C
:105B0800010151510101322102014D6F02014C5135
:105B180002014E5D02014D5102014F59D8B016D015
:105B28004EC131F14FC132F10101311F321F314BEA
:105B3800322B010150510101312502014E6F010143
:105B480051510101322102014F6F00D00101C651AC
:105B5800D8B404D00101DD51D8A404D0010E01014C
:105B6800C66F00D00101465102016A5D010147512B
:105B780002016B59D8B005D046C16AF247C16BF231
:105B880000D0BCEC78F00101316F010131513E0DBC
:105B9800F3CF41F1F4CF42F141C108F142C109F11B
:105BA800B8EC75F008C10BF109C10CF10AC10DF18F
:105BB800000E01010E6F7A0E01010F6F440E0101F4
:105BC800106F83EC55F00BC135F10CC136F10DC1E6
:105BD80037F1000E01010B6F280E01010C6F430E07
:105BE80001010D6F35C108F136C109F137C10AF15C
:105BF8006FEC51F008C117F109C118F10AC119F188
:105C0800DAEC54F017C126F118C127F1010E010191
:105C1800286F090E49EC6DF0000E0201556F000E59
:105C2800546F030E01012E6503D0010E120000D03F
:105C3800BCEC78F00101316F010131513E0DF3CF19
:105C480043F1F4CF44F143C108F144C109F1B8EC80
:105C580075F008C10BF109C10CF10AC10DF1000E74
:105C680001010E6F7A0E01010F6F440E0101106FD2
:105C780083EC55F00BC138F10CC139F10DC13AF183
:105C8800000E01010B6F280E01010C6F430E01017C
:105C98000D6F38C108F139C109F13AC10AF16FEC49
:105CA80051F008C117F109C118F10AC119F1DAEC6C
:105CB80054F017C126F118C127F1010E0101286F10
:105CC800090E49EC6DF000D0000E12001200000E13
:105CD80001015F6F000E0001C66F000E0101006F29
:105CE800000EE8EC73F0000E4C6E000E456E200EB0
:105CF80073EC57F0000E0001CA6F000E0101BA6F75
:105D08000001D951B8EC77F0020E6DEC74F0600E1A
:105D180073EC57F0000E01010E6F000E6EEC76F07A
:105D2800190E0101276F640E266F000E0101286FFE
:105D3800110E49EC6DF0000E0101276F780E266FE9
:105D4800010E0101286F120E49EC6DF0010E0001E1
:105D5800BC6F04000101BB51D8B409D0000E010189
:105D6800BB6F3E0E8CEC38F00101C82B00D001014E
:105D7800BD51D8B409D0000E0101BD6F200E73ECDF
:105D880057F0600E73EC57F00101BE51D8B407D03C
:105D9800600E73EC57F0000E0101BE6F00D00101D8
:105DA800BC51D8A404D00101BA51D8B4ACD1000E6A
:105DB8000101676F000E01016A6F000E696F000E26
:105DC8000101C86F0101BC51D8B455D0000E0101C2
:105DD800BC6FE8EC77F00101EB6FE8EC77F0000EB0
:105DE8000101656F1DD001016551010D170EF324E6
:105DF800D96E030EF420DA6EE8EC77F0DF6E01015D
:105E08006551010D170EF324D96E030EF420DA6ED6
:105E1800DF50010167190101676F0101652B00D08F
:105E2800FF0E0101546FFF0E0101556F0101EB5187
:105E38000101566F576B01015451010156270101A9
:105E4800555101015723010165510101586F596BE3
:105E5800010156510101585D01015951800A0101A2
:105E68005A6F01015751800A01015A59D8A0BBD76E
:105E7800000E0001CA6F0101BA51D8B41DD0000E3E
:105E88000101666F3A0E0101666501D011D001016A
:105E98006651010D170EF324D96E030EF420DA6E45
:105EA800DF50010167190101676F0101662BEAD70D
:105EB800000E0101BA6F00D018C369F101016A6BC5
:105EC8000101695101016A6F696B030117510101F1
:105ED8006927000E6A230101DB510101D8B41CD0E7
:105EE800D00E0101546FCA0EE82EFED7542FFCD7EE
:105EF800D00E0101546FCA0EE82EFED7542FFCD7DE
:105F0800090E01016A5DD8B0DCD069C114F16AC11B
:105F180015F136EC70F0D5D0010E01015F6F01016B
:105F280067510101D8A4CDD001D0CBD00101AF5128
:105F38000101691905E10101B05101016A19D8A4EB
:105F4800C0D00101AF510101B011D8A42BD0000E6F
:105F58000101616F000E626F000E636F000E646FC7
:105F6800010164511FE1100E0101625D020E010181
:105F78006359D8B017D001D015D061C105F162C1FD
:105F880006F163C107F164C108F1A2EC75F0000ED7
:105F980001016127100E6223000E6323000E6423A3
:105FA800DFD700D0000E0101686F370E0101686568
:105FB80001D044D0AFC100F1B0C101F1000E010120
:105FC800036F380E026FA6EC74F001010051010155
:105FD800682501015B6F0101015101015C6F000E31
:105FE80001015C2301015D6B01015D2301015E6B11
:105FF8005BC105F15CC106F15DC107F15EC108F145
:1060080001016851010D020EF326000EF422170E4D
:10601800F3240101096F030EF42001010A6F040E35
:1060280001010B6F000E0C6F000E0D6F000E0E6F4E
:10603800E5EC6BF0040E01016827B7D70101AF4BFF
:10604800B02B0101B1510101AF193BE10101B2517E
:106058000101B019D8A435D0000E0101056F000E5A
:10606800066F020E076F000E086FEC0E0101096F34
:10607800010E01010A6F010E01010B6F000E0C6F7A
:10608800000E0D6F000E0E6FE5EC6BF0010E0101B6
:10609800056F000E066F020E076F000E086FC50E23
:1060A8000101096F030E01010A6F0B0E01010B6F4D
:1060B800000E0C6F000E0D6F000E0E6FE5EC6BF00E
:1060C80000D0030E0101276FE80E266F000E0101B4
:1060D800286F110E49EC6DF00101DB510101D8B4B4
:1060E80012D00101695101016A11D8A40CD0270E00
:1060F8000101276F100E266F000E0101286F110E87
:1061080049EC6DF000D00101DB510101D8A424D085
:10611800020E0101C86506D0010E01015F6F000E75
:106128000101C86F01015F510101D8B415D0010107
:10613800B1510101AF5D0101B2510101B059D8B0AF
:1061480007D0AFC10AF1B0C10BF14AEC76F000D02C
:10615800000E01015F6F00D0000E0101016F010EFA
:10616800006FED0E0101026F010E0101036FDBEC00
:1061780052F00009D8B438D0270E01010C6F040E74
:1061880001010D6FEA0E01010E6F010E01010F6F83
:106198000101ED511EEC43F00009D8B425D00401EB
:1061A8002851C00B0101606F01016045E846030BEF
:1061B8000101606F030E01016019D8A415D0290EE2
:1061C8000101066F040E0101076F170E0101086F28
:1061D800030E0101096F3B0E01010A6FA6EC72F074
:1061E800010E0101BA6F00D0020E2CEC74F0000908
:1061F800D8B405D0937693B602D08A9600D0110E03
:106208002CEC74F00009D8B402D0FF0000D0020EC4
:1062180022EC76F00009D8B40BD0000E0101276FEC
:10622800FA0E266F000E0101286F020E49EC6DF080
:10623800110E22EC76F00009D8B40BD0030E010140
:10624800276FE80E266F000E0101286F110E49EC2A
:106258006DF0120E2CEC74F00009D8B47AD5FF005A
:1062680078D512004DD201018905D8A455D2570E10
:106278000101126FFF0E0101136FC4EC33F0020E1F
:10628800010183250101186F000E0101842101011C
:10629800196F000E01011A6FAFEC3DF0040E22ECED
:1062A80076F00009D8A411D0040E2CEC74F0000983
:1062B800D8A40BD0000E0101276F010E266F000E27
:1062C8000101286F040E49EC6DF0000E22EC76F007
:1062D8000009D8B40CD0130E0101276F880E266F61
:1062E800000E0101286F000E49EC6DF000D0010E80
:1062F8000001B06F11D2420E01018919D8A4A3D0B0
:10630800020E01018F6F040E01018F6501D07CD050
:1063180001018A5101018F5DD8B073D001018F51FD
:10632800010DF35001018325D96EF4500101842138
:10633800DA6EDF50D8A42DD08FC18BF1FE0E01018B
:106348008B27010E01018C6F01018B2B03D00101FA
:10635800D8908C3701018B2FFAD701018C51FF0A95
:1063680001018D6F0001D73101018E6F8E338E319F
:10637800070B8E6F01018D5101018E1701018E37B8
:106388008E378E370001D75101018E19C70B8E1930
:1063980035D001018F51010DF35001018325D96ECC
:1063A800F45001018421DA6EDE04D8A42AD08FC10A
:1063B8008BF1FE0E01018B27010E01018C6F01018B
:1063C8008B2B03D00101D8908C3701018B2FFAD782
:1063D8000001D73101018D6F8D338D31070B8D6F22
:1063E80001018C5101018D1301018D378D378D37D6
:1063F8000001D75101018D19C70B8D190001D76F05
:1064080000D001018F2B7FD7C0EC78F0030E01017B
:10641800016FF30E006FD7C002F116EC73F00001A4
:10642800D731E832E832070B0101006F010E4EEC5C
:1064380044F086C118F187C119F1000E01011A6FE5
:10644800AFEC3DF000D0430E01018919D8A464D106
:10645800010120EE02F08351D9268451DA22DF505F
:1064680001018B6F0001D35101018B19F00B8B19BE
:106478000001D36F010120EE03F08351D926845126
:10648800DA22DF500001D26F010120EE08F08351BB
:10649800D9268451DA22DF5001018B6F050E0101E4
:1064A8008C6F0101D8908B3301018C2FFAD7010E24
:1064B80001018B1701018B3B0001D65101018B199A
:1064C800EF0B8B190001D66F010120EE08F0835104
:1064D800D9268451DA22DF5001018B6F01018B3BF1
:1064E8000F0E8B17010E01018B1701018B3B8B4798
:1064F8000001D65101018B19DF0B8B190001D66FF2
:10650800010120EE04F08351D9268451DA22DF50AC
:1065180001018B6F01018B3B0001D35101018B19E4
:106528000F0B8B190001D36F010120EE05F0835189
:10653800D9268451DA22DF500001D46F010120EE00
:1065480008F08351D9268451DA22DF5001018B6F7C
:106558000101D8908B330101D8908B330101D89079
:106568008B33010E01018B1701018B3B8B478B4746
:106578000001D65101018B19BF0B8B190001D66F91
:10658800010120EE08F08351D9268451DA22DF5028
:1065980001018B6F0101D8908B330101D8908B33A7
:1065A800010E01018B1701018B338B330001D6518A
:1065B80001018B197F0B8B190001D66F010120EEA9
:1065C80006F08351D9268451DA22DF5001018B6FFE
:1065D8000001D65101018B19F00B8B190001D66F00
:1065E800010120EE07F08351D9268451DA22DF50C9
:1065F8000001D56F010120EE08F08351D92684519E
:10660800DA22DF5001018B6F0101D8908B33010E24
:1066180001018B170001D75101018B19FE0B8B1952
:106628000001D76F010120EE08F08351D92684516B
:10663800DA22DF5001018B6F010E01018B17010176
:106648008B470001D75101018B19FD0B8B190001F4
:10665800D76FC0EC78F0030E0101016FEC0E006FEC
:10666800D2C002F116EC73F0C0EC78F0030E010111
:10667800016FED0E006FD3C002F116EC73F0C0ECA1
:1066880078F0030E0101016FEE0E006FD4C002F125
:1066980016EC73F0C0EC78F0030E0101016FF10EF7
:1066A800006FD5C002F116EC73F0C0EC78F0030E61
:1066B8000101016FF20E006FD6C002F116EC73F003
:1066C800C0EC78F0030E0101016FF30E006FD7C024
:1066D80002F116EC73F086C118F187C119F1000EAA
:1066E80001011A6FAFEC3DF017D0890E0101126F4E
:1066F800FF0E0101136FC4EC33F0010E12000CD031
:1067080001018851010AD8B4F0D71F0AD8B4ABD513
:10671800010AD8B4F0D500D086C1D9FF87C1DAFF05
:10672800DF50D8A42AD0010120EE01F08651D926E5
:106738008751DA22DF50D8A420D0010120EE02F0E0
:106748008651D9268751DA22DF50D8A416D0010104
:1067580020EE03F08651D9268751DA22100EDF6029
:106768000CD0010E0101276F2C0E266F010E0101BE
:10677800286F130E49EC6DF000D0000E12001200C5
:10678800140E0101266F010E0101276F4CD2250E50
:1067980001012D19D8B405D001012D511AEC77F05B
:1067A80042D2000E01012C6F000E2B6F000E01016A
:1067B8002A6F07D001012A850101124B132B01D042
:1067C8000BD012C1F6FF13C1F7FF0800F550300ACD
:1067D800D8B4F0D701D0F5D712C1F6FF13C1F7FF2F
:1067E8000800F5505DEC75F0D8A0A5D0000E0101A9
:1067F8002C6F000E2B6F00D02BC100F12CC101F1C2
:10680800000E0101036F0A0E026FA6EC74F000C1BE
:106818002BF101C12CF1D00E01011C6FFF0E0101FB
:106828001D6F12C1F6FF13C1F7FF0800F5500101F3
:106838001E6F1F6B01011C5101011E2701011D5113
:1068480001011F2301011E5101012B2701011F51C5
:1068580001012C230101124B132B12C1F6FF13C1A6
:10686800F7FF0800F5505DEC75F0D8A064D0C4D7E8
:1068780062D012007FD000D001012A8F7BD00101A5
:106888002B510101235D01012C5101012459D8B07C
:1068980009D00101235101012B5F0101245101019C
:1068A8002C5B0AD0000E01012C6F000E2B6F04D058
:1068B800200E1AEC77F000D001012B07D8A02C0786
:1068C80001012B29F5E101012C29D8B40DD0F0D70D
:1068D8000BD021C1D9FF22C1DAFFDF501AEC77F0C3
:1068E8000101214B222B00D001012307D8A0240746
:1068F80001012329EEE101012429D8B494D1E9D773
:1069080092D126C1D9FF27C1DAFFDF5001012D6FCF
:10691800020E01012627000E272300D02D0E0101AB
:10692800216F010E0101226F000E0101246F010E7B
:10693800236FA5D71FD012C1F6FF13C1F7FF0101BE
:10694800124B132B0800F5CF2DF101012D51000A30
:10695800D8B41200580AD8B48FD73B0AD8B4D1D7C4
:10696800070AD8B407D00D0AD8B404D0110AD8B48D
:1069780083D7D4D701012ABF19D026C1D9FF27C18F
:10698800DAFFDECF28F1DDCF29F1020E010126273B
:10699800000E2723010129AF5DD0030E01012A1340
:1069A8000101286D291FD8B0292B54D026C1D9FF41
:1069B80027C1DAFFDECF28F1DDCF29F1020E010170
:1069C8002627000E272346D0010E01012D6F050E44
:1069D80001012D19D8B448D001D046D001012D515C
:1069E800020D6B0EF324F66EFE0EF420F76E09000E
:1069F800F5500101285D0900F55001012959D8A079
:106A080033D001D031D001012D2BE1D72DD0010E8B
:106A180001012D6F040E01012D19D8B425D001D024
:106A280023D001012D51020D750EF324F66EFE0ED2
:106A3800F420F76E0900F5500101285D0900F550B2
:106A480001012959D8A010D001D00ED001012D2B59
:106A5800E1D70AD001012A51800B000AD8B4B4D773
:106A6800800AD8B4D4D700D001012B5101012C11D0
:106A7800D8B40CD02AC11CF1030E01011C17D8B4DC
:106A880005D001012B07D8A02C0700D0800E0101EA
:106A98002DBF7F0E01011C6F01012B5101012D5DDE
:106AA80001012C51800A01011C59D8B00BD00101F9
:106AB8002D5101012B5F000E01012DBFFF0E0101B9
:106AC8002C5B06D0000E01012C6F000E2B6F00D03E
:106AD80001012AA520D02AC11CF1030E01011C17AF
:106AE800D8B404D02D0E1AEC77F000D001012B5148
:106AF80001012C11D8B42FD0300E1AEC77F0010117
:106B08002B07D8A02C0701012B5101012C11D8B457
:106B180022D0F2D720D001012B5101012C11D8B479
:106B28000FD0200E1AEC77F001012B07D8A02C0704
:106B380001012B5101012C11D8B402D0F2D700D099
:106B48002AC11CF1030E01011C17D8B404D02D0E64
:106B58001AEC77F000D02DC125F15DD04DD00101A0
:106B68002551020D6B0EF324F66EFE0EF420F76E1F
:106B78000900F5CF08F10A00F5CF09F128C106F19F
:106B880029C107F1D5EC6DF006C10DF107C10EF171
:106B9800000E0101106F0A0E0F6FA3EC70F00101D7
:106BA8000D51300F01012D6F31D028C106F129C1D7
:106BB80007F101012551020D750EF324F66EFE0E44
:106BC800F420F76E0900F5CF08F10A00F5CF09F1B6
:106BD800D5EC6DF0010106510F0B0101206F010189
:106BE8002051010D690EF324F66EFF0EF420F76EA6
:106BF8000800F5CF2DF10AD001012A51800B000AB7
:106C0800D8B4ADD7800AD8B4D0D700D001012D515F
:106C18001AEC77F000D00101250701012529D8B425
:106C280002D0EAD700D012C1F6FF13C1F7FF010165
:106C3800124B132B0800F5CF2DF101012D51D8B4BB
:106C48001200A5D5120012006E0E0001786F000E1A
:106C58000001796F4CD2250E00017F19D8B405D0F8
:106C680000017F513AEC77F042D2000E00017E6FAE
:106C7800000E7D6F000E00017C6F07D000017C853F
:106C880000016C4B6D2B01D00BD06CC0F6FF6DC0B2
:106C9800F7FF0800F550300AD8B4F0D701D0F5D77F
:106CA8006CC0F6FF6DC0F7FF0800F5508BEC75F06F
:106CB800D8A0A5D0000E00017E6F000E7D6F00D019
:106CC8007DC060F07EC061F0000E0001636F0A0EA7
:106CD800626FC2EC74F060C07DF061C07EF0D00ECF
:106CE80000016E6FFF0E00016F6F6CC0F6FF6DC084
:106CF800F7FF0800F5500001706F716B00016E51CD
:106D08000001702700016F510001712300017051CB
:106D180000017D270001715100017E2300016C4BA9
:106D28006D2B6CC0F6FF6DC0F7FF0800F5508BECBB
:106D380075F0D8A064D0C4D762D012007FD000D03C
:106D480000017C8F7BD000017D510001755D000141
:106D58007E5100017659D8B009D000017551000163
:106D68007D5F0001765100017E5B0AD0000E0001B4
:106D78007E6F000E7D6F04D0200E3AEC77F000D0C5
:106D880000017D07D8A07E0700017D29F5E10001FB
:106D98007E29D8B40DD0F0D70BD073C0D9FF74C0FA
:106DA800DAFFDF503AEC77F00001734B742B00D018
:106DB80000017507D8A0760700017529EEE10001EA
:106DC8007629D8B494D1E9D792D178C0D9FF79C0BF
:106DD800DAFFDF5000017F6F020E00017827000EF6
:106DE800792300D07F0E0001736F000E0001746FCD
:106DF800000E0001766F010E756FA5D71FD06CC00D
:106E0800F6FF6DC0F7FF00016C4B6D2B0800F5CF46
:106E18007FF000017F51000AD8B41200580AD8B494
:106E28008FD73B0AD8B4D1D7070AD8B407D00D0AF0
:106E3800D8B404D0110AD8B483D7D4D700017CBF02
:106E480019D078C0D9FF79C0DAFFDECF7AF0DDCF6C
:106E58007BF0020E00017827000E792300017BAF3A
:106E68005DD0030E00017C1300017A6D7B1FD8B042
:106E78007B2B54D078C0D9FF79C0DAFFDECF7AF007
:106E8800DDCF7BF0020E00017827000E792346D073
:106E9800010E00017F6F050E00017F19D8B448D09C
:106EA80001D046D000017F51020D6B0EF324F66E1F
:106EB800FE0EF420F76E0900F55000017A5D090016
:106EC800F55000017B59D8A033D001D031D0000152
:106ED8007F2BE1D72DD0010E00017F6F040E00013A
:106EE8007F19D8B425D001D023D000017F51020DDD
:106EF800750EF324F66EFE0EF420F76E0900F550B9
:106F080000017A5D0900F55000017B59D8A010D026
:106F180001D00ED000017F2BE1D70AD000017C51AF
:106F2800800B000AD8B4B4D7800AD8B4D4D700D01C
:106F380000017D5100017E11D8B40CD07CC06EF0E8
:106F4800030E00016E17D8B405D000017D07D8A044
:106F58007E0700D0800E00017FBF7F0E00016E6F9C
:106F680000017D5100017F5D00017E51800A000112
:106F78006E59D8B00BD000017F5100017D5F000E23
:106F880000017FBFFF0E00017E5B06D0000E0001EE
:106F98007E6F000E7D6F00D000017CA520D07CC0E4
:106FA8006EF0030E00016E17D8B404D02D0E3AEC23
:106FB80077F000D000017D5100017E11D8B42FD0A8
:106FC800300E3AEC77F000017D07D8A07E0700016B
:106FD8007D5100017E11D8B422D0F2D720D0000113
:106FE8007D5100017E11D8B40FD0200E3AEC77F015
:106FF80000017D07D8A07E0700017D5100017E11A8
:10700800D8B402D0F2D700D07CC06EF0030E0001D5
:107018006E17D8B404D02D0E3AEC77F000D07FC0AC
:1070280077F05DD04DD000017751020D6B0EF3243F
:10703800F66EFE0EF420F76E0900F5CF62F00A0036
:10704800F5CF63F07AC060F07BC061F016EC6EF0AB
:1070580060C067F061C068F0000E00016A6F0A0E38
:10706800696FD9EC70F000016751300F00017F6F34
:1070780031D07AC060F07BC061F000017751020D19
:10708800750EF324F66EFE0EF420F76E0900F5CFA8
:1070980062F00A00F5CF63F016EC6EF00001605163
:1070A8000F0B0001726F00017251010D690EF3247C
:1070B800F66EFF0EF420F76E0800F5CF7FF00AD0C9
:1070C80000017C51800B000AD8B4ADD7800AD8B42F
:1070D800D0D700D000017F513AEC77F000D0000102
:1070E800770700017729D8B402D0EAD700D06CC05E
:1070F800F6FF6DC0F7FF00016C4B6D2B0800F5CF54
:107108007FF000017F51D8B41200A5D512001200FB
:107118000101046F01010451020152250201526F5D
:10712800000E020153210201536F000E0101056F89
:10713800160E0101056501D072D001010551010D3E
:10714800000EF324D96E030EF420DA6EDF50D8A4B3
:1071580063D001010551020D000EF324D96E020E11
:10716800F420DA6E010104510101026F036B010E74
:1071780001010227000E0323DE500101025DDE50EB
:1071880001010359D8B02DD001010551020D000E9F
:10719800F324D96E020EF420DA6EDECF00F1DDCFD3
:1071A80001F1010104510101026F036B0101021F8A
:1071B800031F024B032B01010051010102270101AA
:1071C80001510101032301010551020D000EF324B1
:1071D800D96E020EF420DA6E02C1DEFF03C1DDFFB4
:1071E8001BD001010551020D000EF324D96E020EC9
:1071F800F420DA6EDE50DE10D8B40ED0010105514D
:10720800020D000EF324D96E020EF420DA6E010E80
:10721800DE6E000EDD6E00D00101052B89D7E80E69
:107228000201525D030E02015359D8A01200180E34
:10723800020152250201526FFC0E02015321020184
:10724800536F482A000E0101066F160E01010665EC
:1072580001D063D001010651010D000EF324D96E4F
:10726800030EF420DA6EDE04D8A454D001010651CE
:10727800020D000EF324D96E020EF420DA6E010E10
:10728800DB5004E1020EDE5CD8A029D0FF0E01011C
:10729800006FFF0E0101016F01010651020D000E82
:1072A800F324D96E020EF420DA6EDECF02F1DDCFC0
:1072B80003F10101005101010227010101510101FE
:1072C800032301010651020D000EF324D96E020EAC
:1072D800F420DA6E02C1DEFF03C1DDFF1BD001011D
:1072E8000651020D000EF324D96E020EF420DA6E58
:1072F800DE50DE10D8B40ED001010651020D000E8A
:10730800F324D96E020EF420DA6E010EDE6E000E42
:10731800DD6E00D00101062B98D73B0E48641200A1
:107328004850C40F486E442A000E0101076F160E1C
:107338000101076501D064D001010751010D000E5C
:10734800F324D96E030EF420DA6E020EDE18D8A4E8
:1073580054D001010751020D000EF324D96E020E1C
:10736800F420DA6E010EDB5004E1020EDE5CD8A0D8
:1073780029D0FF0E0101006FFF0E0101016F01010D
:107388000751020D000EF324D96E020EF420DA6EB6
:10739800DECF02F1DDCF03F1010100510101022727
:1073A800010101510101032301010751020D000EE2
:1073B800F324D96E020EF420DA6E02C1DEFF03C197
:1073C800DDFF1BD001010751020D000EF324D96E19
:1073D800020EF420DA6EDE50DE10D8B40ED00101B1
:1073E8000751020D000EF324D96E020EF420DA6E56
:1073F800010EDE6E000EDD6E00D00101072B97D75F
:107408003B0E446412004450C40F446E000E010148
:10741800086F160E0101086502D012001200010162
:107428000851010D000EF324D96E030EF420DA6E14
:10743800030EDE18D8A454D001010851020D000E25
:10744800F324D96E020EF420DA6E010EDB5004E14B
:10745800020EDE5CD8A029D0FF0E0101006FFF0EDE
:107468000101016F01010851020D000EF324D96ECC
:10747800020EF420DA6EDECF02F1DDCF03F1010156
:1074880000510101022701010151010103230101FA
:107498000851020D000EF324D96E020EF420DA6EA4
:1074A80002C1DEFF03C1DDFF1BD001010851020D3F
:1074B800000EF324D96E020EF420DA6EDE50DE10D0
:1074C800D8B40ED001010851020D000EF324D96E74
:1074D800020EF420DA6E010EDE6E000EDD6E00D0B4
:1074E8000101082B160E0101086599D71200120038
:1074F8001200030E0101016F006975EC77F00101BC
:10750800186F01011805D8A440D0000E01011E6FA4
:10751800000E1D6F01011EBF0AD0F00E01011D5D96
:10752800030E01011E59D8B011D001D00FD0C0EC04
:1075380078F01DC100F11EC101F1FF0E0101026FBB
:1075480016EC73F001011D4B1E2BE4D7030E01014D
:107558001E6FF40E1D6F01011EBF07D0040E01013E
:107568001E5DD8B012D001D010D0C0EC78F01DC18B
:1075780000F11EC101F1FF0E0101026F16EC73F05C
:1075880001011D4B1E2BE7D700D0010E0101186524
:1075980004D001011829D8A40CD0C0EC78F0030E4F
:1075A8000101016F0069020E0101026F16EC73F010
:1075B80000D0000E01011A6F030E01011A6501D0F7
:1075C80018D001011A51010DF90EF324D96E010EDC
:1075D800F420DA6EE80E01011A250101006F01019D
:1075E800016B030E012375EC77F0DF6E01011A2B96
:1075F800E3D70101F929D8A419D00101FA29D8A49F
:1076080015D00101FB29D8A411D00101FC29D8A467
:107618000DD0000E0101F96F000E0101FA6F000E86
:107628000101FB6F020E0101FC6F00D0030E010186
:10763800016FEF0E006F75EC77F00101176F010114
:107648001729D8A404D0080E0101176F00D0010132
:10765800175181EC78F00201EA29D8A451D002012F
:10766800EB29D8A44DD00201EC29D8A449D00201B5
:10767800ED29D8A445D0899E4B0E80EC76F0000EFB
:1076880080EC76F0000E80EC76F0000E80EC76F060
:10769800000E80EC76F0000E01011B6F2BD02ED06F
:1076A8009EEC77F0010100510101136F030E0101F7
:1076B8001B651ED0FC0E0101076FFF0E0101086F4C
:1076C80001011B510101096F0A6B010107510101F9
:1076D80009270101085101010A23EA0E01010925C0
:1076E800D96E020E01010A21DA6E13C1DFFF00D044
:1076F80001011B2B070E01011B65D2D7898E00D013
:10770800000E01011C6F070E01011C6501D018D085
:1077180001011C51010D0B0EF324D96E010EF4204A
:10772800DA6EF40E01011C250101006F0101016BE5
:10773800030E012375EC77F0DF6E01011C2BE3D7F4
:107748000B0E0101006F010E0101016F4EEC6BF091
:10775800030E0101016FFC0E006F75EC77F001015B
:10776800196F01011929D8A418D0C0EC78F0030EBC
:107778000101016FFC0E006F000E0101026F16EC93
:1077880073F0000EB8EC77F0D80E0101146F14C135
:1077980002F13C0EF9EC74F01ED0010119510101FF
:1077A800D8A40CD0000EB8EC77F0D80E0101156FF4
:1077B80015C102F13C0EF9EC74F00DD0010119511C
:1077C800B8EC77F0DC0E0101166F16C102F13C0E21
:1077D800F9EC74F000D0030E0101016FFD0E006F8B
:1077E80075EC77F0FF0AD8B40BD001D009D0030E9E
:1077F8000101016FFD0E006F75EC77F0C6EC76F0B5
:10780800030E0101016FFE0E006F75EC77F0FF0AA1
:10781800D8A403D00001C7691200030E0101016F4B
:10782800FE0E006F75EC77F00001C76F12001200B2
:10783800000E01012D6F0A0E2C6F010E01012E6F33
:107848003E0E26EC48F002013DBF0CD002013D512E
:1078580004E102013C05D8A005D002013C07D8A0EC
:107868003D0700D00101BF51D8A402D0110E18D095
:1078780002013C5102013D11D8A418D0F1EC72F07C
:107888000009D8B407D0010E02013D6F2C0E3C6FE1
:10789800120E06D0000E02013D6F1E0E3C6F100E38
:1078A8000001B66F010E0101C96F00D00101CA5174
:1078B8000101D8A40DD0D0EC21F093B609D0010174
:1078C800C9510101D8B402D08A8602D08A9600D064
:1078D800130E2CEC74F00009D8B4BED00001D351BB
:1078E8000F0B0101306F010130510101316F326B13
:1078F80001013151326F316B0001D2510101312741
:10790800000E32230101312905E10F0E0101321960
:10791800D8B41BD0010131510101B35D01013251CD
:107928000101B459D8B006D00001D6A90AD005D0B3
:1079380008D00BD00001D6AB04D0D787D799D79BF6
:1079480004D0F70E0001D71700D00001D3390F0B70
:107958000101306F010130510101316F326B0101BA
:107968003151326F316B0001D45101013127000EC2
:1079780032230101312905E10F0E01013219D8B472
:107988001BD0010131510101B35D010132510101E7
:10799800B459D8B006D00001D6AD0AD005D008D069
:1079A8000BD00001D6AF04D0100E0001D71304D0BD
:1079B800EF0E0001D71700D00001D6510F0B0101BF
:1079C800306F010130510101316F326B01013151CA
:1079D800326F316B0001D55101013127000E32237E
:1079E8000101312905E10F0E01013219D8B41BD06C
:1079F800010131510101B35D010132510101B45955
:107A0800D8B006D00001D7A10AD005D008D00BD035
:107A18000001D7A304D0200E0001D71304D0DF0E35
:107A28000001D71700D0C0EC78F0030E0101016FF8
:107A3800F30E006FD7C002F116EC73F00001D731D6
:107A4800E832E832070B0101006F010E4EEC44F0FA
:107A5800000E0001B06F00D0130E22EC76F0000982
:107A6800D8B40CD0000E0101276F3C0E266F010E12
:107A78000101286F130E49EC6DF000D00001D731D9
:107A8800E832E832070B0101306F010130A11AD04A
:107A98000101CE2B9F0E0101CE6514D0000E01010D
:107AA800CE6F020158290AE102015929D8A406D04B
:107AB800000E0201596F000E586F04D00201584B96
:107AC800592B00D00001D731E832E832070B010109
:107AD800306F010130A31AD00101CF2B9F0E010195
:107AE800CF6514D0000E0101CF6F02015A290AE1B7
:107AF80002015B29D8A406D0000E02015B6F000EBC
:107B08005A6F04D002015A4B5B2B00D00001D731C9
:107B1800E832E832070B0101306F010130A512008D
:107B28000101D02B9F0E0101D0651200000E01014A
:107B3800D06F02015C290AE102015D29D8A406D0B0
:107B4800000E02015D6F000E5C6F120002015C4BBB
:107B58005D2B12001200000E0101806FAAC081F196
:107B6800ABC082F1010E0101586F18C10BF119C1A8
:107B78000CF15A0E01010D6F010E01010E6F4BEC55
:107B880045F00101596FC7C05EF181C15FF182C143
:107B980060F15A0E0101066F010E0101076F7E0E9A
:107BA8000101086F010E0101096F7F0E01010A6FC3
:107BB800010E01010B6F46EC46F07EC161F17FC1F9
:107BC80062F118C10BF119C10CF1BEEC67F00101AB
:107BD800636FA8EC78F00101646FB0EC78F00101F4
:107BE800656FD1C01BF101011B3BF00E1B177CEC2C
:107BF80078F001011B250001CF250101666FC4C182
:107C080067F150C268F151C269F14EC26AF14FC2C0
:107C18006BF158C26CF159C26DF15AC26EF15BC278
:107C28006FF15CC270F15DC271F181BA02D0010ED0
:107C380001D0000E0101726F5EC273F15FC274F170
:107C4800B3C175F1B4C176F1D2C077F10001D35157
:107C58000F0B01011B6F01011B510101816F826B29
:107C68000101813B823BF00E821781510F0B821379
:107C7800F00E81170001D3390F0B01018125010195
:107C8800786FD4C079F1D5C07AF10001D6510F0BC5
:107C980001011B6F01011B510101816F826B010101
:107CA800813B823BF00E821781510F0B8213F00E3D
:107CB80081170001D6AF04D001011B6B1B2B02D02A
:107CC80001011B6B0001D6AD02D0010E01D0000EE0
:107CD800020DF3CF1CF10001D6AB02D0010E01D08A
:107CE800000E040DF3CF1DF10001D6A902D0010E3C
:107CF80001D0000E080DF35001011D2501011C25BE
:107D080001011B250101812501017B6F0001D7318C
:107D1800E832E832070B01011B6F01011B51010119
:107D2800816F826B0101D890813782370101D89029
:107D3800813782370001D739E832E832030B010175
:107D48001B6F0001D7A502D0010E01D0000E200D37
:107D5800F3CF1CF10001D7A302D0010E01D0000E11
:107D6800400DF3CF1DF10001D7A102D0010E01D0C3
:107D7800000E800DF35001011D2501011C25010194
:107D88001B250101812501017C6FFDC27DF1260EB5
:107D98000101806F0201FD6901011A510101D8B486
:107DA80034D0580E0101006F010E0101016F000E61
:107DB8000101026F1E0E0101036F010E0101046F24
:107DC800140E0101056F80C106F19BEC6BF01E0ECD
:107DD80001010E6F010E01010F6F18C110F119C1D9
:107DE80011F1F9EC61F01E0E0101046F010E0101A1
:107DF800056F01018051140F0101066F000E01018A
:107E0800076F020E90EC60F0120018C10EF119C154
:107E18000FF1580E0101106F010E0101116F80C1A1
:107E280012F1000E0101136F010E0101146F000E13
:107E38000101156F04EC49F012001200010120EE57
:107E480001F02F51D9263051DA222FC1E1FF30C17C
:107E5800E2FFDE50E618D8A41200010120EE02F07D
:107E68002F51D9263051DA22010110EE01F02F519D
:107E7800E1263051E222DE50E618D8A412000101B2
:107E880020EE02F02F51D9263051DA22DE28D8B45C
:107E980012002FC1D9FF30C1DAFFDF500101336F63
:107EA800010133A14CD0010120EE04F02F51D92655
:107EB8003051DA22010110EE03F02F51E126305142
:107EC800E222DE50E618D8A43AD0010120EE05F0EF
:107ED8002F51D9263051DA22010110EE04F02F512A
:107EE800E1263051E222DE50E618D8A428D001015C
:107EF80020EE05F02F51D9263051DA22DE28D8B4E9
:107F08001ED0C0EC78F0030E0101016FFD0E006F6A
:107F1800010120EE03F02F51D9263051DA22DF502B
:107F28000101026F16EC73F0010120EE03F02F51EE
:107F3800D9263051DA22DF50C6EC76F000D00101A4
:107F480033A342D0010120EE07F02F51D92630513A
:107F5800DA22010110EE06F02F51E1263051E2221B
:107F6800DE50E618D8A430D0010120EE08F02F51D9
:107F7800D9263051DA22010110EE07F02F51E126FF
:107F88003051E222DE50E618D8A41ED0C0EC78F0BA
:107F9800030E0101016FFE0E006F010120EE06F0D5
:107FA8002F51D9263051DA22DF500101026F16EC29
:107FB80073F0010120EE06F02F51D9263051DA2254
:107FC800DF5080EC72F000D0010133A54CD00101E4
:107FD80020EE0AF02F51D9263051DA22010110EE95
:107FE80009F02F51E1263051E222DE50E618D8A4DC
:107FF8003AD0010120EE0BF02F51D9263051DA2268
:10800800010110EE0AF02F51E1263051E222DE5034
:10801800E618D8A428D0010120EE0BF02F51D9265C
:108028003051DA22DE28D8B41ED0C0EC78F0030E26
:108038000101016FFC0E006F010120EE09F02F51C4
:10804800D9263051DA22DF500101026F16EC73F0A5
:10805800010120EE09F02F51D9263051DA22DF50E4
:10806800B8EC77F000D0010133A71200010120EE2F
:108078000DF02F51D9263051DA22010110EE0CF003
:108088002F51E1263051E222DE50E618D8A4120022
:10809800010120EE0EF02F51D9263051DA220101CC
:1080A80010EE0DF02F51E1263051E222DE50E61895
:1080B800D8A41200010120EE0EF02F51D92630511C
:1080C800DA22DE28D8B41200C0EC78F0030E0101E1
:1080D800016FEF0E006F010120EE0CF02F51D92631
:1080E8003051DA22DF500101026F16EC73F0010102
:1080F80020EE0CF02F51D9263051DA22DF5081ECD6
:1081080078F012001200400E0101286F000E0101E4
:10811800296F3E0E0101296501D0D7D001012951EF
:10812800060DBD0EF3240101066F0A0EF4200101AD
:10813800076F21C108F122C109F1040E01010A6F7C
:10814800D8EC71F00009D8B4A0D001012951060D6E
:10815800040EF326000EF422BD0EF324D96E0A0E87
:10816800F420DA6EDF500F0B0F0AD8A440D00101BB
:1081780024510101D8B43BD0462A01012951060DEA
:10818800040EF326000EF422BD0EF324D96E0A0E57
:10819800F420DA6EDF90DF92DF94DF9623C100F1DE
:1081A80001012951A8EC63F0020E01012419D8B489
:1081B8001AD0030E0101086F01012351B4EC4AF0F3
:1081C8000101266F21C115F122C116F129C117F14C
:1081D800010E0101186F26C119F1000E01011A6F75
:1081E800BBEC1DF000D00101295112006BD0010138
:1081F8002951060D040EF326000EF422BD0EF324B9
:10820800D96E0A0EF420DA6EDF500F0B0F0AD8B4BD
:1082180039D001012951060D040EF326000EF4226F
:10822800BD0EF324D96E0A0EF420DA6EDF90DF92C9
:10823800DF94DF9623C100F101012951A8EC63F016
:10824800020E01012419D8B4CED7030E0101086F1C
:1082580001012351B4EC4AF00101266F21C115F147
:1082680022C116F129C117F1010E0101186F26C1AB
:1082780019F1000E01011A6FBBEC1DF0B4D7B3D78A
:10828800120020D0FF0E12001DD001012951060D49
:10829800BD0EF3240101066F0A0EF4200101076FD9
:1082A800E00E0101086F010E0101096F040E0101C2
:1082B8000A6FD8EC71F00009D8B404D029C128F1AC
:1082C80004D000D00101292B24D73E0E01012865D6
:1082D80021D0000E0101276F3E0E0101276501D054
:1082E80019D001012751060D040EF326000EF422C1
:1082F800BD0EF324D96E0A0EF420DA6EDF500F0B90
:108308000F0AD8A403D027C128F104D00101272BD4
:10831800E3D700D03F0E0101286154D00101245158
:108328000101D8B44FD021C106F122C107F10101E2
:108338002851060DBD0EF3240101086F0A0EF42022
:108348000101096F040E01010A6FA6EC72F0010128
:108358002851060D040EF326000EF422BD0EF32458
:10836800D96E0A0EF420DA6EDF90DF92DF94DF9682
:1083780023C100F101012851A8EC63F0462A020E3E
:1083880001012419D8B41AD0030E0101086F0101A4
:108398002351B4EC4AF00101266F21C115F122C125
:1083A80016F128C117F1010E0101186F26C119F144
:1083B800000E01011A6FBBEC1DF000D0010128511D
:1083C800120000D0FF0E12001200000E0101126F01
:1083D800000E116F010112BF0AD00101125106E10E
:1083E8003F0E0101115DD8B082D001D080D0E00EDF
:1083F8000101066F010E0101076F11C100F112C1E1
:1084080001F1000E0101036F060E026FA6EC74F075
:10841800BD0E010100250101086F0A0E01010121AD
:108428000101096F040E01010A6FA6EC72F011C177
:1084380000F112C101F1000E0101036F060E026F77
:10844800A6EC74F0040E01010027000E01010123BF
:10845800BD0E01010025D96E0A0E01010121DA6E57
:10846800DF80DF82DF84DF8611C100F112C101F1F4
:10847800000E0101036F060E026FA6EC74F0040EE5
:1084880001010027000E01010123BD0E0101002595
:10849800D96E0A0E01010121DA6EDF88DF8ADF8CCE
:1084A800DF8E11C100F112C101F1000E0101036F4D
:1084B800060E026FA6EC74F0050E01010027000EEF
:1084C80001010123BD0E01010025D96E0A0E01012B
:1084D8000121DA6EFF0EDF6E0101114B122B010133
:1084E80012BF85D70101125102E17AD700D0000EE0
:1084F8000201846F000E0101126F000E116F01015D
:1085080012BF0AD00101125166E1FA0E0101115D94
:10851800D8B061D001D05FD011C10FF112C110F1F4
:10852800D89001010F371037010E01010F27000EF7
:108538001023C90E01010F25D96E080E0101102163
:10854800DA6EDF80DF82DF84DF86DF88E00E0101FC
:10855800076F010E0101086F01011151BCEC6CF0AD
:1085680011C10FF112C110F1D89001010F37103766
:10857800010E01010F27000E1023C90E01010F255E
:10858800D96E080E01011021DA6EDF8ADF8CDF8ECA
:10859800D89001011135D96E01011235DA6EC90E74
:1085A800D926080EDA22DF80DF82DF84DF86DF88C3
:1085B800DF8AD89001011135D96E01011235DA6EC2
:1085C800C90ED926080EDA223F0EDF160101114B1B
:1085D800122B95D700D0E00E0101066F010E0101A4
:1085E800076FEE0E0101086F020E0101096F040EFC
:1085F80001010A6FA6EC72F00201E569000E0201A2
:108608008D6F030E02018E6F000E0201B56F000E12
:108618000201B76F020E0201B86F000E0201B96FB6
:10862800010E0101F06F000E0101DF6F000E010164
:10863800D36F12000101166F0201E4510201D8B490
:108648002CD0240E01011619D8A423D00201802BA6
:10865800020E02018019D8A41AD1000E0201E46F9B
:10866800010E0201766F000E0201746F000E020106
:10867800776F000E0201786F010E0201756F000E10
:108688000001BE6F000E0201806F000E02017F6FB5
:10869800FED0000E0201806FFAD00201755102016E
:1086A800D8B4DFD0020176510201D8B407D016C180
:1086B800C9F0000E0201766F010E06D00201745156
:1086C8000201D8B404D0000E0201746F5DD000011D
:1086D800BE510101106F116BFE0E0101126FFF0EEA
:1086E8000101136F0001C9510101146F156B0101DC
:1086F8001251010114270101135101011523010130
:108708001051010114190FE101011151010115194D
:10871800D8A409D00D0E01011619D8A435D0010E20
:108728000201776F31D00001BE510101106F116B4A
:10873800FF0E0101126FFF0E0101136F0001C951F5
:108748000101146F156B0101125101011427010178
:1087580013510101152301011051010114190FE1F1
:108768000101115101011519D8A409D00A0E0101FE
:108778001619D8A409D0010E0201786F05D001019D
:10878800165102017F1B00D00001BE51010D800E61
:10879800F324D96E050EF420DA6E16C1DFFF00014E
:1087A800BE2B0001BE510001C919D8A43DD0000E4E
:1087B8000201756F0EC1D9FF0FC1DAFFBEC0DFFF1E
:1087C800800E0101066F050E0101076F0CC108F14B
:1087D8000DC109F1BEC00AF1A6EC72F0010E02014A
:1087E800E46F000E0201806F02017F510201D8B4CC
:1087F80005D0000E02017F6F000E120002017751B2
:108808000201D8B40BD0020178510201D8B406D0C5
:10881800000E02017F6F010E120039D0000E020116
:108828007F6F1CD0120033D03E0E0001BE652FD0E2
:10883800010E0201E46F000E0201806F000E0001BC
:10884800BE6F000E0201766F000E0201746F000EFB
:108858000201776F000E0201786FE0D7000E120058
:1088680016D0010E0201E46F000E0201806F000EA7
:1088780002017F6F000E0201766F000E0201776F12
:10888800000E0201786F000E0201746F00D0000E16
:10889800120012000101046F8B9C1A0EE82EFED7FD
:1088A80000D0000E0101066F2DD030D08B9E06C17E
:1088B80001F1400E0101026F000E0101036F010179
:1088C800012B04D001010335033302330101012FC9
:1088D800F9D70101025150140101096F0101095131
:1088E8000101D8B402D08B8C02D08B9C00D01A0E18
:1088F800E82EFED700D08B8E1A0EE82EFED700D0B9
:108908000101062B060E01010665D0D78B9E8B9CB4
:108918001A0EE82EFED700D08B8E1A0EE82EFED740
:1089280000D08B9E948C1A0EE82EFED700D08B8E2A
:108938001A0EE82EFED700D0000E82BC010E0101EF
:10894800056F010105510101D8A437D0949C000E90
:108958000101076F070E0101076501D02ED08B9E1C
:1089680007C101F1800E0101026F000E0101036FC2
:108978000101012B04D00101033503330233010146
:10898800012FF9D701010251010104150101096FF5
:10899800010109510101D8B402D08B8C02D08B9C03
:1089A80000D01A0EE82EFED700D08B8E1A0EE82EB5
:1089B800FED700D00101072BCDD78B9E948C1A0EC1
:1089C800E82EFED700D08B8E1A0EE82EFED700D0E8
:1089D800000E82BC010E0101056F01010551010164
:1089E800D8A437D0949C000E0101086F070E01012E
:1089F800086501D02ED08B9E08C101F1800E0101BF
:108A0800026F000E0101036F0101012B04D0010167
:108A18000335033302330101012FF9D70101025154
:108A2800010100150101096F010109510101D8B4C3
:108A380002D08B8C02D08B9C00D01A0EE82EFED769
:108A480000D08B8E1A0EE82EFED700D00101082B1D
:108A5800CDD78B9E948C1A0EE82EFED700D08B8E25
:108A68001A0EE82EFED700D0000E82BC010E0101BE
:108A7800056F949C8B9C8B9E1A0EE82EFED700D017
:108A88008B8E1A0EE82EFED700D08B8C1200000EAB
:108A98000101126F000E116F010112BF0AD001010E
:108AA800125106E1FA0E0101115DD8B0E8D001D0EB
:108AB800E6D00BC104F10CC105F10101115196EC8E
:108AC8005EF00009D8B4D0D011C10FF112C110F175
:108AD800D89001010F371037010E01010F27000E42
:108AE8001023C90E01010F25D96E080E01011021AE
:108AF800DA6EDF501F0B1F0AD8B4A6D0D890010138
:108B08001135D96E01011235DA6EC90ED926080E53
:108B1800DA22DF503F0B01010F6F01010F51060DE3
:108B2800BD0EF324D96E0A0EF420DA6E0DC1E1FFF2
:108B38000EC1E2FFDFCFE7FFD89001011135D96EF2
:108B480001011235DA6EC90ED926080EDA22DF5075
:108B58003F0B01010F6F01010F51060D010EF326A6
:108B6800000EF422BD0EF324D96E0A0EF420DA6E3C
:108B7800010110EE01F00D51E1260E51E222DFCF86
:108B8800E7FFD89001011135D96E01011235DA6E6F
:108B9800C90ED926080EDA22DF503F0B01010F6FEC
:108BA80001010F51060D020EF326000EF422BD0E30
:108BB800F324D96E0A0EF420DA6E010110EE02F0E9
:108BC8000D51E1260E51E222DFCFE7FFD8900101D7
:108BD8001135D96E01011235DA6EC90ED926080E83
:108BE800DA22DF503F0B01010F6F01010F51060D13
:108BF800030EF326000EF422BD0EF324D96E0A0EDE
:108C0800F420DA6E010110EE03F00D51E1260E5149
:108C1800E222DFCFE7FF11C10FF112C110F1D890A6
:108C280001010F371037010E01010F27000E102325
:108C3800C90E01010F25D96E080E01011021DA6E47
:108C4800DF501F0B120010D0D89001011135D96EDA
:108C580001011235DA6EC90ED926080EDA223F0E46
:108C6800DF161F0E120000D00101114B122B01015B
:108C780012BF1FD70101125102E114D700D01F0EF5
:108C880012001200000E01010F6F000E0E6F01019D
:108C98000FBF0AD001010F5106E13F0E01010E5D21
:108CA800D8B0D4D001D0D2D006C1D9FF07C1DAFFDD
:108CB8000EC100F10FC101F1000E0101036F060E94
:108CC800026FA6EC74F0BD0E01010025E16E0A0EDC
:108CD80001010121E26EDE50E618D8A4ACD00101F2
:108CE80020EE01F00651D9260751DA220EC100F113
:108CF8000FC101F1000E0101036F060E026FA6EC11
:108D080074F0010E01010027000E01010123BD0EC0
:108D180001010025E16E0A0E01010121E26EDE501B
:108D2800E618D8A488D0010120EE02F00651D92611
:108D38000751DA220EC100F10FC101F1000E010145
:108D4800036F060E026FA6EC74F0020E01010027F5
:108D5800000E01010123BD0E01010025E16E0A0E7E
:108D680001010121E26EDE50E618D8A464D00101A9
:108D780020EE03F00651D9260751DA220EC100F180
:108D88000FC101F1000E0101036F060E026FA6EC80
:108D980074F0030E01010027000E01010123BD0E2E
:108DA80001010025E16E0A0E01010121E26EDE508B
:108DB800E618D8A440D00EC100F10FC101F1000E91
:108DC8000101036F060E026FA6EC74F0050E010197
:108DD8000027000E01010123BD0E01010025D96EF7
:108DE8000A0E01010121DA6E08C1E1FF09C1E2FFA3
:108DF800DFCFE7FF0EC100F10FC101F1000E010145
:108E0800036F060E026FA6EC74F0040E0101002732
:108E1800000E01010123BD0E01010025D96E0A0EC5
:108E280001010121DA6EDF380F0B0AC1D9FF0BC12E
:108E3800DAFFDF6E120001010E4B0F2B01010FBF8D
:108E480033D701010F5102E128D700D008C1D9FF5B
:108E580009C1DAFFFF0EDF6E0AC1D9FF0BC1DAFFC5
:108E68000F0EDF6E120012003950D8B4D9D00201AB
:108E78007D51D8B410D0000E02017D6F000E0001A4
:108E8800CC6F000E0001CD6F000E396E000E000190
:108E9800CA6F000E120002017B51D8A40DD0000E3B
:108EA8000001CC6F000E0001CD6F000E396E000E70
:108EB8000001CA6F000E12000001CD51FD0F10C154
:108EC800D9FF11C1DAFFDF6E000E0101186F400EE5
:108ED8000001CD650DD0000E0001CC6F000E000121
:108EE800CD6F000E396E000E0001CA6F000E120021
:108EF800020E0101196F11D001011951010DA70EC0
:108F0800F324D96E040EF420DA6EDF50010118192B
:108F18000101186F0101192B00D00001CD51010189
:108F2800195DD8A0E9D7010118510101D8B40DD0B5
:108F3800000E0001CC6F000E0001CD6F000E396EDF
:108F4800000E0001CA6F000E120010C1D9FF11C136
:108F5800DAFF3D0EDF640DD0000E0001CC6F000E6D
:108F68000001CD6F000E396E000E0001CA6F000EB1
:108F7800120010C1D9FF11C1DAFFDF500101126FD1
:108F8800136BFD0E0101146FFF0E0101156F000137
:108F9800CD510101166F176B0101145101011627FC
:108FA800010115510101172301011251010116197F
:108FB80006E10101135101011719D8B40DD0000EB3
:108FC8000001CC6F000E0001CD6F000E396E000E4F
:108FD8000001CA6F000E1200A70E0101006F040EF7
:108FE8000101016F020E0101026F0EC103F10FC1F1
:108FF80004F1000E0101056F10C1D9FF11C1DAFF9C
:10900800DF500101066F9BEC6BF0000E0001CC6F86
:10901800000E0001CD6F000E396E010E12000FD048
:109028003950D8B40CD0000E0001CC6F000E0001EE
:10903800CD6F000E396E000E0001CA6F00D0000E11
:109048001200120001012F6F0101D751D8B404D0CA
:10905800000E0101D76F1200040E2CEC74F0000909
:10906800D8B481D00101B751010D7D0EF324F66EFD
:10907800FE0EF420F76E0800F5500009D8A473D04E
:10908800010E0101B76F010E02017E6F6CD091ECE9
:109098005DF00DC1AAF00EC1ABF00001ABBF08D066
:1090A8003E0E0001AA5D080E0001AB59D8B004D0ED
:1090B800000E0101B76F12000101B72B120055EC29
:1090C80066F00DC1B3F10EC1B4F10101B72B120066
:1090D80001012F510201485D000E4959D8B003D053
:1090E8000101B72B120001012F510201485F000E48
:1090F800495B1200000E0101EE6F01012F510201C0
:109108004A5D000E4B59D8A0120001D0120001018F
:109118002F5102014A5F000E4B5B1200040E22EC35
:1091280076F00009D8B412002CC126F12DC127F120
:109138002EC128F1040E49EC6DF0000E02017E6F7D
:109148001200000E0101006F080ECCEC72F0010154
:10915800B72B1200AFEC6AF00DC15EF20EC15FF2E0
:109168000101B72B12000101B751010D7D0EF32447
:10917800F66EFE0EF420F76E0800F550000AD8B41B
:10918800CDD7010AD8B483D7030AD8B498D7010A2F
:10919800D8B41200070AD8B41200010AD8B41200D1
:1091A800030AD8B41200010AD8B412000F0AD8B4BE
:1091B8008FD7010AD8B41200030AD8B49BD7010A82
:1091C800D8B41200070AD8B41200010AD8B41200A1
:1091D800030AD8B41200010AD8B412001F0AD8B47E
:1091E800B9D7010AD8B4ADD7030AD8B41200010A16
:1091F800D8B41200070AD8B41200010A12001200EB
:1092080002018451D8A4D2D00201B651D8A4CED03C
:10921800850E0101066F020E0101076FEE0E0101B6
:10922800086F020E0101096F040E01010A6FA6EC16
:1092380072F08DC2E5F2060E0201846F0EC106F1CE
:109248000FC107F1890E0101086F020E0101096FB4
:10925800040E01010A6FA6EC72F0E40E0101066F1C
:10926800010E0101076F850E0101086F020E010151
:10927800096F040E01010A6FA6EC72F0FDEC77F09D
:1092880002018D6F000E0201B96F01011551010134
:10929800D8B402D0040E01D0030E02018E6F00D0A4
:1092A800270E0101126156D00101C751D8B431D03F
:1092B800010114510101D8B42CD0010E010110256F
:1092C8000101006F000E010111210101016FFF0E64
:1092D800010112250101026F0101036BFF0E032337
:1092E8000CEC5DF00101166F050E0101176F01010D
:1092F800D89016370101172FFAD70101165102012C
:109308008F6F10C1D9FF11C1DAFFDF5002018F271B
:1093180008D010C1D9FF11C1DAFFDF5002018F6FE9
:1093280000D010C100F111C101F1010E0101026F5D
:109338008F0E0101036F020E0101046F010E01017E
:10934800056F010112050101066F9BEC6BF012C15C
:10935800B5F200D013C1B6F2010113510101D8B41E
:1093680003D0000E0201846F0001B951D8A404D0C3
:10937800000E0101DA6F18D0890E0101066F020E86
:109388000101076FE60E0101086F020E0101096F66
:10939800040E01010A6FD8EC71F00009D8B404D0AA
:1093A800020E0201846F00D0010E1200000E12009E
:1093B80012000101146F000E0101166F000E176FE5
:1093C800000E186F000E196F040E01010F19D8A4B2
:1093D8000BD00DC116F10EC117F10101000E17BF18
:1093E800FF0E186F196F54D001010F510101D8A455
:1093F8002FD00DC110F10EC111F1000E010111BFE6
:10940800FF0E126F136F0F0ED8900101103711372E
:1094180012371337E82EF8D710C100F111C101F146
:1094280012C102F113C103F1E80E0101046F030E2A
:10943800056F000E066F000E076F72EC64F000C136
:1094480016F101C117F102C118F103C119F120D0B9
:1094580001010F05D8A41CD00DC110F10EC111F1E6
:10946800000E010111BFFF0E126F136F0F0ED8907F
:1094780001011037113712371337E82EF8D710C10A
:1094880016F111C117F112C118F113C119F100D069
:1094980016C110F117C111F118C112F119C113F158
:1094A8000101101F111F121F131F102B000E112373
:1094B80012231323FF0E010110250101166FFF0E61
:1094C800010111210101176F000E01011221010193
:1094D800186F000E010113210101196F0101140514
:1094E800D8A40BD017C1CFFF16C1CEFF8C0ECD6EFE
:1094F8009F809E909D80CD8000D0030E010114199D
:10950800D8A40AD017C1B3FF16C1B2FF8C0EB16E32
:10951800A292A192A082B1804050D8A41200010E5C
:10952800406E000E0101156F160E0101156502D07F
:109538001200120001011551020D000EF324D96E1C
:10954800020EF420DA6E000EDE6E000EDD6E0101F2
:10955800152B160E01011565EDD712001200120029
:109568000101116F030E01010819D8A460D03C0E47
:109578000101116102D0000E12D0C30E01011125A4
:109588000101006F0101016BFF0E0123000E0101B3
:10959800036F050E026F40EC63F0010100510101F9
:1095A800126F00D0010112510101096F0A6BFF0E01
:1095B80001010B6FFF0E01010C6F08C10DF1010EC7
:1095C80001010E6F000E01010F6F01010D2B04D078
:1095D800D89001010E370F3701010D2FF9D701017E
:1095E8000B5101010E2701010C5101010F2301014B
:1095F800095101010E5D01010F51800A0101106F2F
:1096080001010A51800A01011059D8B071D008C16E
:1096180009F1010E01010A6F0101092B03D00101B3
:10962800D8900A370101092FFAD75DD061D0040E0E
:1096380001010819D8A45CD0DC0E01011125010133
:10964800006F0101016BFF0E0123000E0101036F82
:10965800050E026F40EC63F0010100510101126F29
:10966800010112510101096F0A6BFF0E01010B6F15
:10967800FF0E01010C6F08C10DF1010E01010E6F03
:10968800000E01010F6F01010D2B04D0D8900101CC
:109698000E370F3701010D2FF9D701010B510101C9
:1096A8000E2701010C5101010F230101095101018C
:1096B8000E5D01010F51800A0101106F01010A516D
:1096C800800A01011059D8B013D008C109F1010E60
:1096D80001010A6F0101092B03D00101D8900A3753
:1096E8000101092FFAD701010A050101126F00D003
:1096F80001011251120012000101066F010104510B
:109708000101D8B402D0200E01D0600E0101056F0E
:109718009AD00101055102090301D06F630E0301BC
:10972800D76F010106511B0F55D0010105510209E0
:109738000301D06F640E0301D76F01010651040FB6
:1097480049D0210E010106610BD0010105510A091A
:109758000301D06F650E0301D76F06C1D8F381D01E
:10976800010105510A090301D06F640E0301D76F87
:1097780001010651190F2ED074D0010105510A09B3
:109788000301D06F650E0301D76F01010651210F48
:1097980021D00C0E010106610DD00101055102090D
:1097A8000301D06F630E0301D76F01010651040D49
:1097B800F350B9D70B0E010106650FD0190E010140
:1097C80006610BD001010551020912D0640E030194
:1097D800D76F11D00301D86F44D0180E0101066568
:1097E80010D01F0E010106610CD0010105510A09B4
:1097F8000301D06FEBD701010645E846FC0BD00FFB
:10980800E9D71E0E0101066509D0270E0101066180
:1098180005D00CD0650E0301D76F0ED0260E0101BE
:1098280006651FD0320E010106611BD001010551EA
:109838000A090301D06FEED701010645E846FC0B83
:10984800850FC8D70ED04F50010AD8B462D7030A83
:10985800D8B46BD7010AD8B474D7070AD8B48DD74F
:1098680098D7D0C302F1000EF9EC74F0D7C302F117
:109878000E0EF9EC74F0D8C302F1100EF9EC74F086
:10988800120004004550D8A4120001D012001AC1D9
:1098980045F0000E01011B6FB0D0000E0001C46F2F
:1098A8000001CA51D8A49DD03E0E0101196199D07A
:1098B800010E0001C66F0001CA51D8B404D0000ED1
:1098C8000001C66F95D0200E73EC57F00301DD51EF
:1098D80001090101026F1A0EF9EC74F0800E73ECA5
:1098E80057F001011951020FF3EC77F00001B45160
:1098F800F3EC77F0000E01011F6F64D001011F51D6
:10990800010DF35001011725D96EF45001011821FA
:10991800DA6EDF5001011C6F01011F05D8B410D0A9
:10992800020E01011F19D8B40BD00001C451010166
:109938001C190001C46F01011C51F3EC77F03FD0F2
:1099480001011F05D8A42BD0040E01010C6F010ED4
:1099580000EC5CF00001A25101010C2501011D6F12
:109968000001A35101010D2101011E6F01011E51CA
:10997800F3EC77F001011E510001C4190001C46F16
:1099880001011D5102016C5D01011E5102016D5959
:10999800D8B015D01DC16CF21EC16DF210D0020EE8
:1099A80001011F19D8A40BD001011D51F3EC77F068
:1099B8000001C45101011D190001C46F00D001014B
:1099C8001F2B00D00101195101011F5DD8A096D7A6
:1099D8000001C451F3EC77F00400010E0101D76FC8
:1099E80009D03D0E0101196501D002D00001CA510C
:1099F800450600D001011B2B00D001011A510101BD
:109A08001B5DD8A04AD7120002018451D8A4BBD04C
:109A18000201B651D8A4B7D0850E0101066F020E17
:109A28000101076FEE0E0101086F020E0101096FB7
:109A3800040E01010A6FA6EC72F08DC2E5F2060E63
:109A48000201846F000E0201B76F020E0201B86FA7
:109A58000EC106F10FC107F1890E0101086F020E50
:109A68000101096F040E01010A6FA6EC72F0E40E01
:109A78000101066F010E0101076F850E0101086FD4
:109A8800020E0101096F040E01010A6FA6EC72F0C3
:109A9800FDEC77F002018D6F000E0201B66F1D0E0E
:109AA80002018F6F210E0201906F10C191F23F0EDB
:109AB8000201926F080E0101116F0101105101019D
:109AC8001103F3CF12F1000E0101136F46D03F0EC0
:109AD8000101126121D001011251060DBD0EF324BE
:109AE8000101006F0A0EF4200101016F000E01014F
:109AF800026F8F0E0101036F020E0101046F010155
:109B08001351040DF350060F0101056F040E0101F6
:109B1800066F9BEC6BF01CD0E00E0101006F010E8C
:109B28000101016F000E0101026F8F0E0101036F29
:109B3800020E0101046F01011351040DF350060FC9
:109B48000101056F040E0101066F9BEC6BF000D05C
:109B58000101122B0101132B00D001011151010148
:109B6800135DD8A0B4D7030E02018E6F260E020132
:109B7800B56F0001B951D8A404D0000E0101DA6F05
:109B880000D0010E1200000E12001200000E01019A
:109B98000B6F3E0E01010B6502D01200120001018D
:109BA8000B51060D040EF326000EF422BD0EF3240D
:109BB800D96E0A0EF420DA6EDF500F0B0F0AD8B4F4
:109BC8009CD0010E0101086F01010B51060D040E16
:109BD800F326000EF422BD0EF324D96E0A0EF420EB
:109BE800DA6EDF500F0B0101096F01010851010105
:109BF8000927DF5001010919F00B01010919DF6E6E
:109C080046500F0DF3CF00F1F4CF01F1000E010122
:109C1800036F400E026F40EC63F0040E0101002751
:109C2800000E0101012301010B51060D040EF3265C
:109C3800000EF422BD0EF324D96E0A0EF420DA6E5B
:109C4800DF500F0B0101086F096B01010051010181
:109C5800085D01010951800A01010A6F01010151E2
:109C6800800A01010A59D8B012D001010B51060D22
:109C7800040EF326000EF422BD0EF324D96E0A0E4C
:109C8800F420DA6EDF500F0B0F0AD8A436D001018A
:109C98000B51060D040EF326000EF422BD0EF3241C
:109CA800D96E0A0EF420DA6EDF80DF82DF84DF8669
:109CB80001010B51060D050EF326000EF422BD0E10
:109CC800F324D96E0A0EF420DA6EFF0EDF6E01015E
:109CD8000B51060D040EF326000EF422BD0EF324DC
:109CE800D96E0A0EF420DA6EDF88DF8ADF8CDF8E09
:109CF8004650D8B402D0460600D001010B2B3E0EC8
:109D080001010B654CD712001200156E000E176E7C
:109D1800000E186E000E196E000E1A6E040E101842
:109D2800D8A40AD00EC017F00FC018F0000E18BE45
:109D3800FF0E196E1A6E4CD01050D8A42CD00EC03D
:109D480011F00FC012F0000E12BEFF0E136E146E4B
:109D58000F0ED8901136123613361436E82EF9D76E
:109D680011C001F012C002F013C003F014C004F0D7
:109D7800E80E056E030E066E000E076E000E086EE6
:109D88008FEC6DF001C017F002C018F003C019F095
:109D980004C01AF01DD01004D8A41AD00EC011F0B7
:109DA8000FC012F0000E12BEFF0E136E146E0F0ECF
:109DB800D8901136123613361436E82EF9D711C05A
:109DC80017F012C018F013C019F014C01AF000D020
:109DD80017C011F018C012F019C013F01AC014F00F
:109DE800111E121E131E141E112A000E12221322F7
:109DF8001422FF0E1124176EFF0E1220186E000E8B
:109E08001320196E000E14201A6E1504D8A40BD056
:109E180018C0CFFF17C0CEFF8C0ECD6E9F809E90CE
:109E28009D80CD8000D0030E1518D8A40AD018C084
:109E3800B3FF17C0B2FF8C0EB16EA292A192A0829E
:109E4800B1804050D8A41200010E406E000E166E6C
:109E5800160E166402D0120012001650020D000EE3
:109E6800F324D96E020EF420DA6E000EDE6E000EB8
:109E7800DD6E162A160E1664F0D7120012001200B4
:109E88001D0E0101426F1AC10BF11BC10CF1430EEB
:109E980001010D6F010E01010E6F4BEC45F0010140
:109EA800476F1D0E01011C6F260E01011D6F1AC19F
:109EB80000F11BC101F1000E0101026F1C0E01012E
:109EC800036F010E0101046F020E0101056F040EFC
:109ED8000101066F9BEC6BF0430E0101006F010E50
:109EE8000101016F000E0101026F1C0E0101036FD9
:109EF800010E0101046F060E0101056F040E010138
:109F0800066F9BEC6BF047C126F11AC100F11BC12B
:109F180001F1000E0101026F1C0E0101036F010E19
:109F28000101046F0B0E0101056F040E0101066F9C
:109F38009BEC6BF0430E0101006F010E0101016FF4
:109F4800000E0101026F1C0E0101036F010E0101D9
:109F5800046F0F0E0101056F040E0101066F9BECE3
:109F68006BF047C12FF11AC100F11BC101F1000EBE
:109F78000101026F1C0E0101036F010E0101046F44
:109F8800140E0101056F040E0101066F9BEC6BF0C6
:109F9800430E0101006F010E0101016F000E010166
:109FA800026F1C0E0101036F010E0101046F180EF0
:109FB8000101056F040E0101066F9BEC6BF047C1B0
:109FC80038F118C10EF119C10FF11C0E0101106F03
:109FD800010E0101116F42C112F1000E0101136F50
:109FE800010E0101146F000E0101156F04EC49F018
:109FF8001200120000C1D9FF01C1DAFF000EDF6EA6
:10A00800010120EE01F00051D9260151DA22000E9B
:10A01800DF6E4150D8A404D00001BF51D8B439D064
:10A028001E0E0001C06103D00001C02B00D01E0E1F
:10A038000001C019D8A41AD00E0E0001C26516D0AE
:10A0480000C1D9FF01C1DAFF030EDF6E2D0E00013A
:10A05800C06F010120EE01F00051D9260151DA222A
:10A06800030EDF6E2D0E0001C26F0FD01E0E000111
:10A07800C019D8A40AD000C1D9FF01C1DAFF020E65
:10A08800DF6E2D0E0001C06F00D0000E0001BF6F03
:10A0980013D0010E0001C0650BD01F0E0001C06176
:10A0A80007D000C1D9FF01C1DAFF010EDF6E00D071
:10A0B800000E0001C06F00D04250D8A404D00001A7
:10A0C800C151D8B43AD01E0E0001C26103D00001BC
:10A0D800C22B00D01E0E0001C219D8A41AD00E0E31
:10A0E8000001C06516D000C1D9FF01C1DAFF030E17
:10A0F800DF6E2D0E0001C06F010120EE01F000514E
:10A10800D9260151DA22030E11D02D0E0001C26F9B
:10A1180010D01E0E0001C219D8A40BD0010120EEE8
:10A1280001F00051D9260151DA22020EDF6EEDD777
:10A1380000D0000E0001C16F1200010E0001C265BF
:10A148000ED01F0E0001C2610AD0010120EE01F0FD
:10A158000051D9260151DA22010EDF6E00D0000E1F
:10A168000001C26F120012001D0E0101266F200EA1
:10A178000101276F22C128F1CCEC78F00101296F89
:10A18800030E0101556F0101225101015503F3CF5F
:10A1980054F1000E0101586F000E576F6DD04C0E30
:10A1A8000101146F010E0101156F500E0101166FA8
:10A1B800010E0101176F560E0101186F010E010102
:10A1C800196F0101545115EC60F04C0E0101006F3C
:10A1D800010E0101016F000E0101026F260E01013F
:10A1E800036F010E0101046F01015751090DF3506E
:10A1F800040F0101056F040E0101066F9BEC6BF063
:10A20800500E0101006F010E0101016F000E0101E6
:10A21800026F260E0101036F010E0101046F010197
:10A228005751090DF350080F0101056F040E010184
:10A23800066F9BEC6BF057C100F158C101F1000E9D
:10A248000101036F090E026FA6EC74F00C0E0101F8
:10A258000027000E01010123260E01010025D96EF9
:10A26800010E01010121DA6E56C1DFFF0101542BF5
:10A278000101574B582B00D0010155510101236FA3
:10A28800246B010123510101575D01015851800AD6
:10A298000101256F01012451800A01012559D8A027
:10A2A8007ED720C10EF121C10FF1260E0101106FDA
:10A2B800010E0101116F260E0101126F000E01013E
:10A2C800136F010E0101146F000E0101156F04ECEC
:10A2D80049F0120012000AC10EF101010F6B106B58
:10A2E8000101093501010E3701E30F8101010E510A
:10A2F8000101116F01011151D8A40AD0000E01010A
:10A30800086F000E0101096F000E01010A6F1200AB
:10A318000DC10EF101010F6B106B01010C3501012C
:10A328000E3701E30F8101010E510101166F010182
:10A338001651D8A40AD0000E0101086F000E0101C1
:10A34800096F000E01010A6F1200010116517B0FFF
:10A35800010111270AC116F101010D510101161B56
:10A36800800E010116170101098F01010C8FFF0EE4
:10A3780001010B17FF0E01010C17000E01010D174B
:10A38800000E0101126F000E0101136F000E010192
:10A39800146F070E0101156F00D0010108A10DD03F
:10A3A80001010B510101122701010C510101132375
:10A3B80001010D510101142300D00101D8900A3385
:10A3C800093308330101D8900B370C370D370101D9
:10A3D800152FE3D700D0090E0101156F00D0010138
:10A3E80008A10DD001010B510101122701010C51E7
:10A3F8000101132301010D510101142300D00101B2
:10A40800D8900A33093308330101D8901433133331
:10A4180012330101152FE3D700D012C100F113C187
:10A4280001F114C102F111C103F116C104F1C6EC26
:10A4380059F000C108F101C109F102C10AF1120085
:10A4480012006EC072F00001736B746B00016D3501
:10A458000001723701E37381000172510001756FC9
:10A4680000017551D8A40AD0000E00016C6F000ECF
:10A4780000016D6F000E00016E6F120071C072F066
:10A488000001736B746B000170350001723701E3D2
:10A4980073810001725100017A6F00017A51D8A4CA
:10A4A8000AD0000E00016C6F000E00016D6F000EE7
:10A4B80000016E6F120000017A517B0F00017527B1
:10A4C8006EC07AF00001715100017A1B800E000104
:10A4D8007A1700016D8F0001708FFF0E00016F1752
:10A4E800FF0E00017017000E00017117000E000129
:10A4F800766F000E0001776F000E0001786F070E6F
:10A508000001796F00D000016CA10DD000016F51DE
:10A518000001762700017051000177230001715175
:10A528000001782300D00001D8906E336D336C336E
:10A538000001D8906F37703771370001792FE3D752
:10A5480000D0090E0001796F00D000016CA10DD078
:10A5580000016F5100017627000170510001772337
:10A56800000171510001782300D00001D8906E33AA
:10A578006D336C330001D89078337733763300012C
:10A58800792FE3D700D076C060F077C061F078C04B
:10A5980062F075C063F07AC064F056EC5AF060C09F
:10A5A8006CF061C06DF062C06EF012001200010123
:10A5B800000501010111D8A42FD00001A6513018BF
:10A5C80005E10001A7513118D8B499D03C50D8B44E
:10A5D80002D0000E1200010E3C6E000E3024D96E1F
:10A5E800050E3120DA6E02C1E1FF03C1E2FFDFCFC1
:10A5F800E7FF304A312A31BE0AD0315004E1800EDB
:10A60800305CD8A004D0000E316E000E306E000E03
:10A618003C6E010E120073D0020E010100190101F7
:10A628000111D8A433D00001A851321805E1000166
:10A63800A9513318D8B463D0020171510201D8B4BA
:10A6480002D0000E1200010E0201716FC90E3224F1
:10A65800D96E060E3320DA6E02C1E1FF03C1E2FFB4
:10A66800DFCFE7FF324A332A33BE0AD0800E325C8E
:10A67800010E3358D8A004D0000E336E000E326E8F
:10A68800000E0201716FC5D7120039D0040E010106
:10A69800001901010111D8A432D00001A4512E18CB
:10A6A80005E10001A5512F18D8B429D00001AC51FB
:10A6B800D8B402D0000E1200010E0001AC6F000EDB
:10A6C8002E24D96E040E2F20DA6E02C1E1FF03C1D9
:10A6D800E2FFDFCFE7FF2E4A2F2A2FBE0AD02F50E6
:10A6E80004E1270E2E5CD8A004D0000E2F6E000EB9
:10A6F8002E6E000E0001AC6F8CD7120000D0000E39
:10A70800120012000001BD51D8B4A4D00001CA51F2
:10A71800D8A4A0D0C3C000F10101016B000E010153
:10A72800036F000E026FC90E0101046F000E056F62
:10A73800000E066F000E076F8AEC6FF001010051E2
:10A7480001012F6F01012F510101D8A402D0000E81
:10A758001200000E01010E6F01012F51010D000EB4
:10A76800F324D96E060EF420DA6EDF506EEC76F024
:10A77800D3A60FD0040E01010C6F010E00EC5CF0A3
:10A788000001A25101010C250101306F0001A35104
:10A7980014D0040E01010C6F010E00EC5CF00001F6
:10A7A800A25101010C270001A35101010D23E60E5E
:10A7B80001010C250101306FFF0E01010D2101017E
:10A7C800316F00D0B0EC78F02CC1D9FF2DC1DAFF81
:10A7D800DF6E010120EE02F02C51D9262D51DA222C
:10A7E80030C1DFFF010120EE01F02C51D9262D5197
:10A7F800DA2201013151DF6E2CC117F12DC118F198
:10A8080001012E51030F0101196F010E01011A6F89
:10A8180045EC4CF00101CB51D8A417D0080E6DECD3
:10A8280070F0010100510101CB250101CB6FCBC1B3
:10A8380026F10101276B010E0101286F080E49EC72
:10A848006DF0000E0101CB6F00D0000E0101D56F35
:10A85800010E1200000E1200120000C1D9FF01C142
:10A86800DAFF1D0EDF6E010120EE01F00051D9263E
:10A878000151DA22230EDF6E010120EE02F00051B1
:10A88800D9260151DA22D1C002F10101023BF00EB2
:10A8980002177CEC78F0010102250001CF25DF6E5C
:10A8A800010120EE03F00051D9260151DA22D1C06E
:10A8B80002F10101023BF00E02177CEC78F0010175
:10A8C80002250001CF25DF6E010120EE04F00051C2
:10A8D800D9260151DA22D1C002F10101023BF00E62
:10A8E80002177CEC78F0010102250001CF25DF6E0C
:10A8F800010120EE05F00051D9260151DA22C7C026
:10A90800DFFF010120EE06F00051D9260151DA22BD
:10A91800C7C0DFFF010120EE07F00051D926015121
:10A92800DA22C7C0DFFF010120EE08F00051D92666
:10A938000151DA22A8EC78F0DF6E010120EE09F06F
:10A948000051D9260151DA22A8EC78F0DF6E010116
:10A9580020EE0AF00051D9260151DA22A8EC78F04D
:10A96800DF6E010120EE0BF00051D9260151DA22E9
:10A97800A4EC78F0DF6E010120EE0CF00051D9262E
:10A988000151DA22A4EC78F0DF6E010120EE0DF01F
:10A998000051D9260151DA22A4EC78F0DF6E0E0EB0
:10A9A8000101036F010103511200120019C11BF1CB
:10A9B80001011C6B1D6B0101183501011B3701E3F7
:10A9C8001C8101011B510101256F01012551D8A4EA
:10A9D8000AD0000E0101176F000E186F000E196FD4
:10A9E800000E1A6F1200170E01011B6F17C11CF120
:10A9F80018C11DF119C11EF101011B2901011F6FA9
:10AA080005D00101D8901E331D331C3301011F2FBF
:10AA1800F8D701011C510101206F0101188FFF0EA9
:10AA280001011717FF0E01011817000E0101191770
:10AA3800010117510101216F010118510101226F14
:10AA4800010119510101236F0101246B8E0E0101CF
:10AA5800255F010125AF1BD001012551800A8F0F09
:10AA6800D8B00BD0000E0101176F000E186F000E42
:10AA7800196F000E1A6F120000D00101D89024330C
:10AA88002333223321330101253FF7D71FD0170E77
:10AA98000101256514D0000E0101176F000E186F13
:10AAA800000E196F000E1A6F120009D00101D8901C
:10AAB80021372237233724370101250700D0010128
:10AAC80025510101D8B402D0F1D700D0010120519D
:10AAD8000101D8B40AD00101241F231F221F216DB0
:10AAE800000E22232323242300D021C117F122C1E1
:10AAF80018F123C119F124C11AF1120012000DC175
:10AB080011F10101126B136B01010C3501011137B1
:10AB180001E31281010111510101186F010118515E
:10AB2800D8A40AD0000E01010B6F000E01010C6FB2
:10AB3800000E01010D6F120010C111F10101126B1D
:10AB4800136B01010F350101113701E31281010176
:10AB580011510101196F01011951D8A40AD0000E31
:10AB680001010B6F000E01010C6F000E01010D6F4A
:10AB78001200000E0101156F000E0101166F000E84
:10AB88000101176F01011951890F0101185F0DC1EA
:10AB980019F1010110510101191B800E010119174A
:10ABA80001010C8FFF0E01010B17FF0E01010C179D
:10ABB800000E01010D1701010F8FFF0E01010E1785
:10ABC800FF0E01010F17000E01011017180E0101E9
:10ABD800146F00D00101D8901537163717370101C7
:10ABE8000E5101010B5D01010F5101010C590101C9
:10ABF800105101010D59D8A00ED001010E510101CB
:10AC08000B5F01010F5101010C5B010110510101A2
:10AC18000D5B010115810101D8900B370C370D37F9
:10AC28000101142FD7D700D015C100F116C101F1C9
:10AC380017C102F118C103F119C104F1C6EC59F0AA
:10AC480000C10BF101C10CF102C10DF1120012009B
:10AC58007DC07FF00001806B816B00017C350001B5
:10AC68007F3701E3808100017F510001896F000176
:10AC78008951D8A40AD0000E00017B6F000E7C6FAA
:10AC8800000E7D6F000E7E6F1200170E00017F6FA1
:10AC98007BC080F07CC081F07DC082F000017F29FC
:10ACA8000001836F05D00001D8908233813380334F
:10ACB8000001832FF8D7000180510001846F000143
:10ACC8007C8FFF0E00017B17FF0E00017C17000E22
:10ACD80000017D1700017B510001856F00017C5147
:10ACE8000001866F00017D510001876F0001886BAC
:10ACF8008E0E0001895F000189AF1BD000018951C8
:10AD0800800A8F0FD8B00BD0000E00017B6F000EA9
:10AD18007C6F000E7D6F000E7E6F120000D0000168
:10AD2800D89088338733863385330001893FF7D736
:10AD38001FD0170E0001896514D0000E00017B6F2B
:10AD4800000E7C6F000E7D6F000E7E6F120009D022
:10AD58000001D890853786378737883700018907FB
:10AD680000D0000189510001D8B402D0F1D700D039
:10AD7800000184510001D8B40AD00001881F871F40
:10AD8800861F856D000E86238723882300D085C003
:10AD98007BF086C07CF087C07DF088C07EF0120012
:10ADA80012007C0ED36E9B8CD2909B8E200E926EDE
:10ADB800BB0E936E130E946E860E806E010E816E1E
:10ADC800C40E826E100E0F015D6F050E0F015C6FD1
:10ADD800F19E0F015B810F015B930F015B850F01F2
:10ADE8005B970F015B990F015B9B0F015B9D0F0147
:10ADF8005B9FD180030E0101016FEC0E006F75ECB3
:10AE080077F00001D26F030E0101016FED0E006FA4
:10AE180075EC77F00001D36F030E0101016FEE0EA0
:10AE2800006F75EC77F00001D46F030E0101016F1C
:10AE3800F10E006F75EC77F00001D56F030E01017C
:10AE4800016FF20E006F75EC77F00001D66F030EFC
:10AE58000101016FF30E006F75EC77F00001D76FF9
:10AE68000001D7A506D00001D795D797D799D79BCA
:10AE780000D0000E0101006F030E4EEC44F00001FB
:10AE8800D731E832E832070B0101006F010E4EECB2
:10AE980044F0010E0101F06F000E02014F6F000E29
:10AEA8004E6F000E02014D6F000E4C6F000E020136
:10AEB8006B6F000E6A6F000E02016D6F000E6C6FF3
:10AEC800000E0101C46F0201BA690201BB690201E7
:10AED800BC690201BD69000E02017C6F120001010C
:10AEE800056F80D0000E0101006F010EE8EC73F0D1
:10AEF800E40E00D000D0E82EFCD700D000D003012B
:10AF0800D0511F0B80090301D06FD0C302F1000E8E
:10AF1800F9EC74F0800E0101BF6F0B0E0101046F94
:10AF2800620EE82EFED7042FFCD700D012000301D2
:10AF3800D0511F0B60090301D06FD0C302F1000E7E
:10AF4800F9EC74F0D1C000F1000EE8EC73F0600E7B
:10AF58000101BF6F1200000E0101006F000EE8EC46
:10AF680073F00301D0511F0B20090301D06FD0C328
:10AF780002F1000EF9EC74F0680E0101046FE40EA2
:10AF8800E82EFED7042FFCD700D0200E0101BF6F9A
:10AF98001200000E0101006F000EE8EC73F00301CF
:10AFA800D0511F0B40090301D06FD0C302F1000E2E
:10AFB800F9EC74F0400E0101BF6F1200000E0101A0
:10AFC800006F000EE8EC73F00301D0511F0B030172
:10AFD800D06F000E0101BF6FD0C302F1000EF9EC73
:10AFE80074F0120001010551000AD8B4E7D7200A0D
:10AFF800D8B4B1D7600AD8B4CCD7200AD8B497D778
:10B00800E00AD8A412006ED7120006EEC9F015EEB9
:10B018006EF0EE6AE550E150FCE1E250FAE105EE2F
:10B0280000F0BF0EEE6AE806FDE104EE00F0E70E60
:10B03800EE6AE806FDE103EE00F0D00EEE6AE806DF
:10B04800FDE102EE00F0BE0EEE6AE806FDE101EE5B
:10B05800AFF03F0EEE6AE806FDE100EEA2F0370E13
:10B06800EE6AE806FDE100EE2CF0220EEE6AE80634
:10B07800FDE11A0EF66EC80EF76E000EF86E06EEBB
:10B0880000F010EEC9F00900F5CFEEFFE550E150F1
:10B09800FAE1140EF66EEE0EF76E000EF86E03EE81
:10B0A800D0F010EE20F00900F5CFEEFFE550E150AA
:10B0B800FAE1140EF66EE90EF76E000EF86E02EE67
:10B0C800BEF010EE38F00900F5CFEEFFE550E15084
:10B0D800FAE1A60EF66EF00EF76E000EF86E01EEAF
:10B0E800EEF010EE0FF00900F5CFEEFFE550E1505D
:10B0F800FAE1A80EF66EF10EF76E000EF86E090072
:10B10800F5CFD9F00900F5CFDAF03E0EF66EF10E64
:10B11800F76E000EF86E00EE4EF010EE09F0090022
:10B12800F5CFEEFFE550E150FAE1000EF86E0001B0
:10B13800EDEF04F00001BD51D8A404D00001CA51BC
:10B14800D8B403D0000E120087D03F50D8A484D0C2
:10B15800C3C000F10101016B23C102F10101036BBE
:10B16800C90E0101046F000E056F000E066F000E78
:10B17800076F8AEC6FF0010100510101246F010192
:10B1880024510101D8A402D0000E1200000E0101C2
:10B198000E6F01012451010D000EF324D96E060E25
:10B1A800F420DA6EDF506EEC76F0D3A60FD0040EE2
:10B1B80001010C6F010E00EC5CF00001A2510101CD
:10B1C8000C250101256F0001A35114D0040E0101C3
:10B1D8000C6F010E00EC5CF00001A25101010C277C
:10B1E8000001A35101010D23E60E01010C25010107
:10B1F800256FFF0E01010D210101266F00D0B0EC73
:10B2080078F020C1D9FF21C1DAFFDF6E010120EEFD
:10B2180002F02051D9262151DA2225C1DFFF010190
:10B2280020EE01F02051D9262151DA2201012651C0
:10B23800DF6E20C117F121C118F101012251030F5E
:10B248000101196F010E01011A6F45EC4CF0010E56
:10B258003F6E010E120000D0000E1200120006C14F
:10B26800D9FF07C1DAFFDE04D8A489D0050E010191
:10B27800086585D0F90E010108250101006F01015B
:10B28800016BFF0E0123000E0101036F050E026F13
:10B29800B1EC66F00101005101010111D8A46FD091
:10B2A800FF0E0101096FFF0E01010A6F010108512C
:10B2B80001010B6F0C6B0101095101010B27010101
:10B2C8000A5101010C2301010B5101010625D96E18
:10B2D80001010C5101010721DA6E0001C751DE1886
:10B2E800D8B420D0FF0E0101096FFF0E01010A6FCB
:10B2F8000101085101010B6F0C6B0101095101019A
:10B308000B2701010A5101010C2301010B51010115
:10B318000625D96E01010C5101010721DA6EDE28DC
:10B32800D8A403D0010E12002AD00001C729D8A43E
:10B3380023D0FF0E0101096FFF0E01010A6F010101
:10B34800085101010B6F0C6B0101095101010B2719
:10B3580001010A5101010C2301010B5101010625CC
:10B36800D96E01010C5101010721DA6EDE28D8B42B
:10B3780003D0020E120003D0000E120000D0000EFF
:10B3880012001200010103510101D8B408D00101D3
:10B3980000510101011101010211D8A413D0000EBE
:10B3A8000101006F000E0101016F000E0101026F23
:10B3B800120008D00101032B0101D8900233013398
:10B3C800003300D0000E010100150101056F000EC9
:10B3D800010101150101066FFE0E010102150101AF
:10B3E800076F010105510101061101010711D8B4C8
:10B3F80013D0E0D711D00101032B010E0101002762
:10B40800000E01010123000E010102230101D89061
:10B4180002330133003300D0000E01010015010191
:10B42800056F000E010101150101066FFF0E0101F4
:10B4380002150101076F0101055101010611010102
:10B448000711D8B40AD0D7D708D0010103070101E2
:10B45800D89000370137023700D0010101BF05D06D
:10B46800020E01010361F1D700D0010103B103D03D
:10B478000101019F00D00101D8900333010103515C
:10B4880001010213010104510101D8B403D00101E3
:10B49800028F00D000C100F101C101F102C102F127
:10B4A80012001200000163510001D8B408D0000155
:10B4B80060510001611100016211D8A413D0000E7F
:10B4C8000001606F000E0001616F000E0001626FE5
:10B4D800120008D00001632B0001D8906233613359
:10B4E800603300D0000E000160150001656F000E8A
:10B4F800000161150001666FFE0E00016215000172
:10B50800676F000165510001661100016711D8B429
:10B5180013D0E0D711D00001632B010E0001602782
:10B52800000E00016123000E000162230001D89083
:10B5380062336133603300D0000E000160150001F2
:10B54800656F000E000161150001666FFF0E0001B6
:10B5580062150001676F0001655100016611000165
:10B568006711D8B40AD0D7D708D000016307000103
:10B57800D89060376137623700D0000161BF05D0CD
:10B58800020E00016361F1D700D0000163B103D05E
:10B598000001619F00D00001D8906333000163511E
:10B5A80000016213000164510001D8B403D0000106
:10B5B800628F00D060C060F061C061F062C062F06C
:10B5C800120012000101000501010111D8A427D0C1
:10B5D8003D50D8A4120001D01200010E3D6E000E9D
:10B5E8000001A625D96E050E0001A721DA6E02C159
:10B5F800DFFF0001A64BA72B0001A7BF0DD000015C
:10B60800A75105E1800E0001A65DD8A005D0000E67
:10B618000001A76F000EA66F000E3D6E1200020E0D
:10B628000101001901010111D8A427D03E50D8A466
:10B63800120001D01200010E3E6EC90E0001A825AD
:10B64800D96E060E0001A921DA6E02C1DFFF0001E2
:10B65800A84BA92B0001A9BF0DD0800E0001A85D41
:10B66800010E0001A959D8A005D0000E0001A96F4C
:10B67800000EA86F000E3E6E1200040E01010019A4
:10B6880001010111D8A412000001AD51D8A4120083
:10B6980001D01200010E0001AD6F000E0001A425BB
:10B6A800D96E040E0001A521DA6E02C1DFFF000188
:10B6B800A44BA52B0001A5BF0DD00001A55105E1A4
:10B6C800270E0001A45DD8A005D0000E0001A56FCB
:10B6D800000EA46F000E0001AD6F120012000001F1
:10B6E800600500016111D8A427D03D50D8A41200EC
:10B6F80001D01200010E3D6E000E0001A625D96E84
:10B70800050E0001A721DA6E62C0DFFF0001A64B1B
:10B71800A72B0001A7BF0DD00001A75105E1800E9E
:10B728000001A65DD8A005D0000E0001A76F000E8D
:10B73800A66F000E3D6E1200020E00016019000196
:10B748006111D8A427D03E50D8A4120001D012000D
:10B75800010E3E6EC90E0001A825D96E060E000125
:10B76800A921DA6E62C0DFFF0001A84BA92B0001F6
:10B77800A9BF0DD0800E0001A85D010E0001A959D6
:10B78800D8A005D0000E0001A96F000EA86F000E0A
:10B798003E6E1200040E0001601900016111D8A468
:10B7A80012000001AD51D8A4120001D01200010E00
:10B7B8000001AD6F000E0001A425D96E040E000132
:10B7C800A521DA6E62C0DFFF0001A44BA52B0001A2
:10B7D800A5BF0DD00001A55105E1270E0001A45D0C
:10B7E800D8A005D0000E0001A56F000EA46F000EB2
:10B7F8000001AD6F120012000101126F0101120564
:10B80800D8A416D0CECF13F10101146BCFCF15F108
:10B818000101166B010115510101166F156B01012C
:10B82800135101011527010114510101162300D0FC
:10B83800030E01011219D8A416D0B2CF13F10101D9
:10B84800146BB3CF15F10101166B010115510101FC
:10B85800166F156B010113510101152701011451D0
:10B868000101162300D001010C510101D8A435D0E3
:10B8780015C10EF116C10FF101010E1F0F1F0E4B5E
:10B888000F2BFF0E01010E250101106FFF0E0101A4
:10B898000F210101116F10C100F111C101F1010166
:10B8A800026B036BE80E0101046F030E056F000EB7
:10B8B800066F000E076F10EC6FF0100E07D0010135
:10B8C800D89003330233010101330033E82EF7D750
:10B8D80000C10CF101C10DF1120015C10EF116C124
:10B8E8000FF101010E1F0F1F0E4B0F2BFF0E010151
:10B8F8000E2501010C6FFF0E01010F2101010D6FD3
:10B90800120012000001706F00017005D8A416D053
:10B91800CECF73F00001746BCFCF75F00001766B5A
:10B92800000175510001766F756B000173510001BC
:10B938007527000174510001762300D0030E000121
:10B948007019D8A416D0B2CF73F00001746BB3CFBE
:10B9580075F00001766B000175510001766F756B0B
:10B96800000173510001752700017451000176230D
:10B9780000D000016C510001D8A435D075C06EF01C
:10B9880076C06FF000016E1F6F1F6E4B6F2BFF0E9E
:10B9980000016E250001716FFF0E00016F2100018B
:10B9A800726F71C060F072C061F00001626B636B0E
:10B9B800E80E0001646F030E656F000E666F000EDF
:10B9C800676F4DEC6FF0100E07D00001D89063330D
:10B9D8006233000161336033E82EF7D760C06CF042
:10B9E80061C06DF0120075C06EF076C06FF0000196
:10B9F8006E1F6F1F6E4B6F2BFF0E00016E2500012F
:10BA08006C6FFF0E00016F2100016D6F12001200B4
:10BA18000001C8510001D8A404D0010E0001C86F6C
:10BA280000D0C8C007F1000E01010A6F5DD0000EFA
:10BA38000101096F000E086F2CD001010A51010D98
:10BA4800F35001010025D96EF45001010121DA6E8D
:10BA58000001C851010DBE0EF324E16E020EF42060
:10BA6800E26EE7500101046F01010A51010DF35024
:10BA780001010025E16EF45001010121E26EE75059
:10BA88000101042501010A25DF6E0101084B092B7C
:10BA980000D00001C851010DBE0EF324D96E020E6C
:10BAA800F420DA6EDF50070B0101046F056B01010A
:10BAB80004510101085D01010951800A0101066F65
:10BAC80001010551800A01010659D8A0B6D7000125
:10BAD800C82B070E0001C86504D0000E0001C86F0E
:10BAE80000D001010A2B00D001010A510101046FA5
:10BAF800056B010102510101045D01010551800A34
:10BB08000101066F01010351800A01010659D8A0FD
:10BB18008ED70101075112001200000E0101116FAA
:10BB2800000E0101106F000E0F6F000E0101136F60
:10BB3800000E126F000E0101006F040ECCEC72F0C3
:10BB4800000E0101136F000E126F000E0101116F3C
:10BB5800090E0101116501D023D0D2EC78F000D094
:10BB680069EC78F00009D8A4FBD7C4500101106F24
:10BB78000F6BC35001010F13040E0101116509D0A9
:10BB880001010F5101011227010110510101132375
:10BB980000D00A0EE82EFED700D00101112BD8D70D
:10BBA80012C106F113C107F1000E0101096F050E5C
:10BBB800086FD5EC6DF006C112F107C113F1020E42
:10BBC8000101006F040ECCEC72F0C29012C100F1BA
:10BBD80013C101F1000E0101036F070E026FA6ECFD
:10BBE80074F000C106F101C107F1000E0101096FEF
:10BBF800060E086FD5EC6DF006C112F107C113F1FE
:10BC08000101D6510101125F000E0101D6BFFF0EDE
:10BC18000101135B12C10DF113C10EF112001200E4
:10BC2800000E0101096F010103AF0DD00101031FCF
:10BC3800021F011F006D000E012302230323010EC2
:10BC48000101096F00D0010107AF0AD00101071FE8
:10BC5800061F051F046D000E05230623072300D0C9
:10BC6800010104510101051101010611010107112A
:10BC7800D8B43FD0010E0101086F09D00101D89056
:10BC880004370537063707370101082B00D00101B3
:10BC980007BF02D0F3D700D0010104510101005DB4
:10BCA8000101055101010159010106510101025922
:10BCB8000101075101010359D8A011D00101045114
:10BCC8000101005F010105510101015B01010651FC
:10BCD8000101025B010107510101035B00D0010171
:10BCE800D89007330633053304330101082FD4D71E
:10BCF80000D0010109510101D8B40AD00101031F84
:10BD0800021F011F006D000E01230223032300D030
:10BD180000C100F101C101F102C102F103C103F147
:10BD2800120012000101086FFA0E0101086178D0B3
:10BD380008C109F101010A6B09C106F10AC107F13D
:10BD48000101D890063707370101D8900637073721
:10BD580006C109F107C10AF104C1D9FF05C1DAFF1B
:10BD680009C102F10AC103F14BEC78F00101076F38
:10BD7800DE5001010719D8A451D0010120EE01F0CD
:10BD88000451D9260551DA22010E010109250101C4
:10BD9800026F000E01010A210101036F4BEC78F0DC
:10BDA8000101076FDE5001010719D8A437D001013E
:10BDB80020EE02F00451D9260551DA22020E0101C3
:10BDC80009250101026F000E01010A210101036F1B
:10BDD8004BEC78F00101076FDE5001010719D8A478
:10BDE8001DD0010120EE03F00451D9260551DA22B5
:10BDF800030E010109250101026F000E01010A214C
:10BE08000101036F4BEC78F00101076FDE5001016F
:10BE18000719D8A403D0010E120000D0000E12009A
:10BE2800000E120012000101096F000E01010A6FD5
:10BE38000F015A99000E0001CA6F000E0001D86F59
:10BE4800000E0001CC6F000E0001CD6F000E476E92
:10BE5800000E396E200E0101BF6F000E02017B6FCC
:10BE6800000E0001C66F000E0101D76F000E4C6E68
:10BE7800000E456E8986050E0101076F260EE82E15
:10BE8800FED7072FFCD700D08996680E0101076FEF
:10BE9800E40EE82EFED7072FFCD700D0000E0101D4
:10BEA800046F0101095180EC4BF0000E01010A6F8B
:10BEB8001F0E01010A6501D015D001010A51010DBB
:10BEC800D00EF324D96E030EF420DA6EDF50010190
:10BED800026F01010A51020DF350F9EC74F00101EF
:10BEE8000A2BE6D70001B451B8EC77F0F29600F0CF
:10BEF8000F015A8900F081CF08F100F0F290F28624
:10BF080009C14EF0150E0101076FC60EE82EFED7C7
:10BF1800072FFCD700D067EC77F0010E0001CF6F38
:10BF2800000E0001D16F1200010E0001CF6F000E4C
:10BF38004AEC77F0000E0001D16FFF0E80EC72F032
:10BF4800000EB8EC77F0080E81EC78F0E0C1F9F15A
:10BF5800E1C1FAF1E2C1FBF1E3C1FCF1CFC02FF17D
:10BF6800C0EC78F0030E0101016FEF0E006FA4EC36
:10BF780078F00101026F16EC73F0C0EC78F0030E54
:10BF88000101016FFC0E006FA8EC78F00101026F4F
:10BF980016EC73F0C0EC78F0030E0101016FFD0E92
:10BFA800006F2FC102F116EC73F0C0EC78F0030EAD
:10BFB8000101016FFE0E006FC7C002F116EC73F0AD
:10BFC800C0EC78F0030E0101016FE80E006FFF0E60
:10BFD8000101026F16EC73F0C0EC78F0030E01015A
:10BFE800016FE90E006FFF0E0101026F16EC73F08E
:10BFF800C0EC78F0030E0101016FEA0E006FFF0E2E
:10C008000101026F16EC73F0C0EC78F0030E010129
:10C01800016FEB0E006FFF0E0101026F16EC73F05B
:10C02800120001011F6FFA0E01011F614FD01B0E94
:10C0380001010C6F010E01010D6F01011F516EEC22
:10C0480068F01B0E0101066F010E0101076F14C194
:10C0580008F115C109F1040E01010A6FA6EC72F08E
:10C0680001011F51020DC90EF324D96E080EF420E8
:10C07800DA6EDF503F0B01011A6F01011A51060DEC
:10C08800BD0EF3240101066F0A0EF4200101076FAB
:10C0980016C108F117C109F1040E01010A6FA6ECD7
:10C0A80072F001011F51020D010EF326000EF42259
:10C0B800C90EF324D96E080EF420DA6EDF501F0B78
:10C0C80018C1D9FF19C1DAFFDF6E1200E00E0101B5
:10C0D800066F010E0101076F14C108F115C109F1BE
:10C0E800040E01010A6FA6EC72F0E00E0101066F62
:10C0F800010E0101076F16C108F117C109F1040EFD
:10C1080001010A6FA6EC72F018C1D9FF19C1DAFF54
:10C11800FF0EDF6E1200120001010D6F01010D51BB
:10C12800E3EC75F00DC100F10101016B010106514D
:10C13800050F0101026FE6EC5AF007C108F1060E7F
:10C1480001010827020E0101096F0101082B03D024
:10C158000101D89009370101082FFAD701010951C7
:10C1680001010A6F0DC100F10101016B0AC102F161
:10C17800E6EC5AF0000E01010B6F000E01010C6F86
:10C1880025D00DC100F10101016B01010C51010D18
:10C19800F35001010425D96EF45001010521DA6E2E
:10C1A800DF500101026FE6EC5AF001010C51010D5C
:10C1B800F35001010425D96EF45001010521DA6E0E
:10C1C800DF5001010B1B01010C2B00D001010651AE
:10C1D80001010C5DD8A0D5D70DC100F10101016B9B
:10C1E8000BC102F1E6EC5AF00DC100F10101016B3F
:10C1F8000D0E0101026FE6EC5AF00DC100F10101CC
:10C20800016B0A0E0101026FE6EC5AF01200000EF3
:10C2180001010A6F5ED0000E0101096F000E086F60
:10C228002DD001010A51010DF35001010025D96EED
:10C23800F45001010121DA6E01010A51010DF35098
:10C2480001010025E16EF45001010121E26EE75081
:10C258000101056F01010451010DBE0EF324E16EC9
:10C26800020EF420E26EE75001010A2500080101E0
:10C278000525DF6E0101084B092B00D0010104518F
:10C28800010DBE0EF324D96E020EF420DA6EDF50D3
:10C29800070B0101056F066B010105510101085DDE
:10C2A80001010951800A0101076F01010651800A45
:10C2B80001010759D8A0B5D70101042B070E0101C8
:10C2C800046504D0000E0101046F00D001010A2B9F
:10C2D80000D001010A510101056F066B01010251ED
:10C2E8000101055D01010651800A0101076F010185
:10C2F8000351800A01010759D8A08DD71200030EF7
:10C30800010134250101386F000E010135210101B9
:10C31800396F32C106F133C107F169EC69F00101E7
:10C32800376F32C106F133C107F138C108F139C19D
:10C3380009F1040E01010A6FA6EC72F0E40E010186
:10C34800066F010E0101076F040E01013825010176
:10C35800086F000E010139210101096F040E010166
:10C368000A6FA6EC72F0020E0101C119D8A410D010
:10C3780038C104F139C105F101013651080F010135
:10C38800066F000E0101076F020E90EC60F000D0FE
:10C3980032C106F133C107F1E00E0101086F010E49
:10C3A8000101096F040E01010A6FD8EC71F0000950
:10C3B800D8A40ED034C120F135C121F10101365184
:10C3C800080F0101226F37C123F19EEC58F01200CB
:10C3D80034C12CF135C12DF101013651080F01018D
:10C3E8002E6F86EC53F01200120010C106F111C135
:10C3F80007F10EC108F10FC109F1040E01010A6F1E
:10C40800A6EC72F0E40E0101006F010E0101016F4C
:10C41800000E0101026F0EC103F10FC104F1040EF9
:10C428000101056F040E0101066F9BEC6BF0010121
:10C4380020EE08F00E51D9260F51DA22030EDF6ED6
:10C44800010120EE09F00E51D9260F51DA22000E13
:10C45800DF6E010120EE0AF00E51D9260F51DA22C3
:10C46800000EDF6EE40E0101006F010E0101016F85
:10C47800000E0101026F0EC103F10FC104F10B0E92
:10C488000101056F040E0101066F9BEC6BF010C1F2
:10C4980000F111C101F1000E0101026F0EC103F19B
:10C4A8000FC104F10F0E0101056F040E0101066FA3
:10C4B8009BEC6BF0010120EE13F00E51D9260F51C1
:10C4C800DA22000EDF6E1200010119510101175D19
:10C4D80001011A5101011859D8B045D0010119516B
:10C4E80001011F6F01011A510101206F0101216B28
:10C4F8000101226B01011F1F201F211F221F1F2B5B
:10C50800000E2023212322230101175101011F2599
:10C518000101236F01011851010120210101246F3C
:10C52800000E010121210101256F000E01012221C8
:10C538000101266F01011B51010123250101276F0C
:10C5480001011C51010124210101286F01011D5124
:10C55800010125210101296F01011E510101262137
:10C5680001012A6F19D019C11FF11AC120F1010167
:10C578001F1F201F1F4B202B0101175101011F27CF
:10C5880001011851010120231FC127F120C128F101
:10C598000101296B2A6B00D027C117F128C118F1B6
:10C5A800120012000101126F010112510101D8A4F9
:10C5B8000DD0D6CF13F10101146BD7CF15F111D0DF
:10C5C800010115510101166F156B0ED0030E010103
:10C5D8001219D8A412D0B2CF13F10101146BB3CF42
:10C5E80015F10101166BECD7010113510101152753
:10C5F800010114510101162300D001010C51010160
:10C60800D8A435D015C10EF116C10FF101010E1FC6
:10C618000F1F0E4B0F2BFF0E01010E250101106F8E
:10C62800FF0E01010F210101116F10C100F111C1AD
:10C6380001F10101026B036BE80E0101046F030EA7
:10C64800056F000E066F000E076F10EC6FF0100EEE
:10C6580007D00101D89003330233010101330033BD
:10C66800E82EF7D700C10CF101C10DF1120015C178
:10C678000CF116C10DF11200000E0101056F010148
:10C6880003AF09D00101026D031FD8B0032B010EBF
:10C698000101056F00D0010101AF09D00101006D52
:10C6A800011FD8B0012B010E0101051B00D0000E9F
:10C6B8000101076F000E066F01010251010103110C
:10C6C800D8B431D0010E0101046F07D00101D89010
:10C6D800023703370101042B00D0010103BF02D048
:10C6E800F5D700D00101D89006370737010102516C
:10C6F8000101005D0101035101010159D8A00BD0CE
:10C70800010102510101005F010103510101015BB7
:10C718000101068100D00101D890033302330101E1
:10C72800042FE0D700D0010105510101D8B406D08B
:10C738000101066D071FD8B0072B00D006C100F114
:10C7480007C101F1120012000101026F010102513B
:10C75800060D050EF326000EF422BD0EF324D96E45
:10C768000A0EF420DA6EDE28D8A410D00101025196
:10C77800060D050EF326000EF422BD0EF324D96E25
:10C788000A0EF420DA6E00C1DFFF12000101025127
:10C79800060D050EF326000EF422BD0EF324D96E05
:10C7A8000A0EF420DA6E01010051DE5CD8B00FD019
:10C7B80001010251060D050EF326000EF422BD0EEE
:10C7C800F324D96E0A0EF420DA6EDF2A1200010172
:10C7D8000251060D050EF326000EF422BD0EF324B9
:10C7E800D96E0A0EF420DA6EDE500101005DD8B071
:10C7F800120001010251060D050EF326000EF42267
:10C80800BD0EF324D96E0A0EF420DA6EDF0612008C
:10C81800120000010203040A0B0C0D0E1415161762
:10C82800181E1F20212228292A2B2C050607080953
:10C838000F10111213191A1B1C1D23242526272D2E
:10C848002E2F30310031302F2E2D27262524231D61
:10C858001C1B1A19131211100F09080706052C2B97
:10C868002A29282221201F1E18171615140E0D0C10
:10C878000B0A0403020100010203040A0B0C0D0E4B
:10C8880014151617181E1F20212228292A2B2C05BB
:10C89800060708090F10111213191A1B1C1D23244F
:10C8A8002526272D2E2F30310031302F2E2D2726EB
:10C8B8002524231D1C1B1A19131211100F09080710
:10C8C80006052C2B2A29282221201F1E1817161589
:10C8D800140E0D0C0B0A040302010000000E0101E6
:10C8E800086F000E096F000E0A6F000E0B6F010132
:10C8F8000451010105110101061101010711D8B404
:10C9080047D0010E01010C6F09D00101D8900437FE
:10C9180005370637073701010C2B00D0010107BF87
:10C9280002D0F3D700D00101D890083709370A3769
:10C938000B37010104510101005D0101055101019D
:10C948000159010106510101025901010751010173
:10C958000359D8A013D0010104510101005F01015E
:10C9680005510101015B010106510101025B010151
:10C9780007510101035B0101088100D00101D89032
:10C98800073306330533043301010C2FCCD700D00D
:10C9980008C100F109C101F10AC102F10BC103F19B
:10C9A80012001B6E4350D8B41FD01B50D8B40CD003
:10C9B800FF0E34240E6EFF0E35200F6E040E106E1F
:10C9C800010E89EC4EF00AD034C00EF035C00FF0DD
:10C9D800040E106E010E89EC4EF000D0070E356E75
:10C9E8003468000E436E00D0010E0001A22500013C
:10C9F800A26FF80E0001A3210001A36F2C06D8A096
:10CA08002D062C502D10D8A40ED0000E2D6E100E11
:10CA18002C6E38C2A2F039C2A3F07F0E0201396F22
:10CA2800F00E386F0BD02C042D10D8A407D0010EAF
:10CA3800436EA2C034F0A3C035F000D00001C32B70
:10CA4800C80E0001C36504D0000E0001C36F00D0FA
:10CA580002013A2904E102013B29D8B4120002017B
:10CA68003A4B3B2B12001200000E0101156F000E0D
:10CA7800146F010115BF0AD0010115513CE10A0EDE
:10CA88000101145DD8B037D001D035D091EC5DF0FC
:10CA98000DC1AAF00EC1ABF00001ABBF0ED0230E42
:10CAA8000001AA5D0C0E0001AB59D8A006D0000108
:10CAB800AA51DE0F0101D62712D00001ABBF08D062
:10CAC8001C0E0001AA5D0C0E0001AB59D8B007D0AE
:10CAD8000001AA5100081C0F0101D65F00D0020E08
:10CAE8000101016F8A0E006F0FEC71F00101144B08
:10CAF800152BBFD700D00101D651800A9F0FD8A0AF
:10CB080012000101D651800A600FD8B01200C0ECA3
:10CB180078F0030E0101016FF00E006FD6C102F12B
:10CB280016EC73F01200120000018E6F8EC0D8F060
:10CB3800D8C060F00001616B000E0001636F070E42
:10CB4800626F0BEC67F0000160510101C36F880E42
:10CB58000001D86504D0280E0001D86F1200000E1D
:10CB680000016F6F000E0001706F3F0E0001716FC2
:10CB7800DA0E00018A6FFF0E00018B6F0001D85199
:10CB880000018C6F8D6B00018A5100018C27000118
:10CB98008B5100018D2300018C1F8D1F8C4B8D2B19
:10CBA800640E00018C250001686F000E00018D21C4
:10CBB8000001696F3AEC73F068C06CF069C06DF001
:10CBC8006AC06EF025EC52F06CC07BF06DC07CF052
:10CBD8006EC07DF02CEC56F000017B51280F00014F
:10CBE800D86F12001200D2C200F1D3C201F1D4C230
:10CBF80002F1D5C203F1D6C204F1D7C205F1D8C2F9
:10CC080006F1D9C207F110EC6FF000C1D2F201C1F0
:10CC1800D3F202C1D4F203C1D5F2390E0201D227F0
:10CC2800300ED323000ED423000ED523100E01019D
:10CC38000E6FD2C20FF1D3C210F1D4C211F1D5C216
:10CC480012F101010E6701D009D00101123512332A
:10CC5800113310330F3301010E2FF3D7FF0E0101EB
:10CC68000F150101006F7F0E010110150101016F01
:10CC7800000E010111150101026F000E01011215CC
:10CC88000101036F0CC104F10DC105F10101066B2F
:10CC9800076B14EC5EF000C10CF101C10DF112003C
:10CCA8001200000E0101106F000E0F6F000E01013F
:10CCB800126F000E116F000E0101006F0A0ECCEC0E
:10CCC80072F0000E0101126F000E116F000E0101CB
:10CCD800136F090E0101136501D02AD0D2EC78F048
:10CCE80000D069EC78F00009D8A4FBD7C450010142
:10CCF800106F0F6BC35001010F13040E0101136570
:10CD080014D0100E0101105DD8A006D0000E01014C
:10CD1800106F000E0F6F00D001010F510101112794
:10CD2800010110510101122300D00101132BD1D7A9
:10CD380011C106F112C107F1000E0101096F050EBC
:10CD4800086FD5EC6DF006C111F107C112F111C1E0
:10CD58000DF112C10EF112001200000E0101056F53
:10CD6800010101AF09D00101006D011FD8B0012BED
:10CD7800010E0101056F00D0010103AF06D00101CA
:10CD8800026D031FD8B0032B00D00101025101012D
:10CD98000311D8B42BD0010E0101046F07D0010193
:10CDA800D890023703370101042B00D0010103BFDB
:10CDB80002D0F5D700D0010102510101005D010147
:10CDC800035101010159D8A009D001010251010103
:10CDD800005F010103510101015B00D00101D890FE
:10CDE800033302330101042FE6D700D001010551B6
:10CDF8000101D8B406D00101006D011FD8B0012B84
:10CE080000D000C100F101C101F112001200000EB2
:10CE18000001656F000161AF09D00001606D611FFD
:10CE2800D8B0612B010E0001656F00D0000163AF1F
:10CE380006D00001626D631FD8B0632B00D00001DB
:10CE4800625100016311D8B42BD0010E0001646F48
:10CE580007D00001D890623763370001642B00D0F7
:10CE6800000163BF02D0F5D700D000016251000174
:10CE7800605D0001635100016159D8A009D000012B
:10CE880062510001605F000163510001615B00D0E5
:10CE98000001D890633362330001642FE6D700D0D5
:10CEA800000165510001D8B406D00001606D611F12
:10CEB800D8B0612B00D060C060F061C061F0120092
:10CEC80012000EC100F10FC101F1000E0101026F45
:10CED8000EC103F10FC104F1080E0101056F080E20
:10CEE8000101066F57EC6EF00009D8B412000EC1AC
:10CEF80000F10FC101F1080E0101026F0EC103F12B
:10CF08000FC104F1100E0101056F080E0101066F33
:10CF180057EC6EF00009D8B41200000E0101106F32
:10CF2800070E0101106501D01DD0C0EC78F0F40E99
:10CF3800010110250101006F0101016B030E01239E
:10CF48000101105101010E25D96E0101000E0101E8
:10CF58000F21DA6EDF500101026F16EC73F0010148
:10CF6800102BDED70EC100F10FC101F14EEC6BF0B2
:10CF780012001200000E0101106F000E0F6F010168
:10CF880010BF0AD0010110514AE1FA0E01010F5DEC
:10CF9800D8B045D001D043D00BC104F10CC105F184
:10CFA80001010F5196EC5EF00009D8B433D00FC1DF
:10CFB8000DF110C10EF1D89001010D370E37010E99
:10CFC80001010D27000E0E23C90E01010D25D96E92
:10CFD800080E01010E21DA6EDF501F0B1F0AD8B4AC
:10CFE80019D00FC10DF110C10EF1D89001010D3704
:10CFF8000E37010E01010D27000E0E23C90E010187
:10D008000D25D96E080E01010E21DA6EDF38E832DF
:10D01800070B120001010F4B102BB1D700D0000EE7
:10D0280012001200EACF1FF0E1CF20F0E2CF21F08A
:10D03800D9CF22F0DACF23F0F3CF24F0F4CF25F0C4
:10D04800F6CF26F0F7CF27F0F8CF28F0F5CF29F064
:10D058009EB09DA022D09E90F80E2B6E000E2A6ED8
:10D068002B50CF6ED3B603D0010E4B6E00D04B5071
:10D07800D5EC64F0010E0101BB6F0201812B0001A8
:10D08800CA51D8B404D00201424B432B06D0000E3B
:10D098000201436F000E426F00D029C0F5FF28C07F
:10D0A800F8FF27C0F7FF26C0F6FF25C0F4FF24C00D
:10D0B800F3FF23C0DAFF22C0D9FF21C0E2FF20C05E
:10D0C800E1FF1FC0EAFF1EC0E9FF1DC0FBFF1CC037
:10D0D800FAFF11000101106FFA0E010110613ED034
:10D0E80010C111F10101126B11C10EF112C10FF142
:10D0F8000101D8900E370F370101D8900E370F373E
:10D108000EC111F10FC112F1000E0101136F030ED0
:10D118000101136502D01200120001011351010D23
:10D12800F35001010C25D96EF45001010D21DA6E7E
:10D1380001011351010111250101026F000E0101C6
:10D1480012210101036F4BEC78F0DF6E0101132B04
:10D15800030E01011365E1D712001200E00E010170
:10D16800066F010E0101076F0CC108F10DC109F12D
:10D17800040E01010A6FA6EC72F012001200010100
:10D18800146F030E0101086F01011451060D050EFD
:10D19800F326000EF422BD0EF324D96E0A0EF420F5
:10D1A800DA6EDF50B4EC4AF00101136F010114513B
:10D1B800060D040EF326000EF422BD0EF324D96EDC
:10D1C8000A0EF420DA6EDF380F0B2DEC75F0010132
:10D1D800135DD8B012D001011451060D040EF326C8
:10D1E800000EF422BD0EF324D96E0A0EF420DA6E76
:10D1F800DF380F0B2DEC75F01200030E0101086FDC
:10D2080001011451060D050EF326000EF422BD0E81
:10D21800F324D96E0A0EF420DA6EDF50B4EC4AF02B
:10D22800120012000EC106F10FC107F1E00E010154
:10D23800086F010E0101096F040E01010A6FD8EC95
:10D2480071F00009D8A41200000E0101126F3E0E01
:10D258000101126502D01200120001011251060DDF
:10D26800BD0EF3240101066F0A0EF4200101076FB9
:10D278000EC108F10FC109F1040E01010A6FD8ECC3
:10D2880071F00009D8B418D010C111F10101125180
:10D29800060D040EF326000EF422BD0EF324D96EFB
:10D2A8000A0EF420DA6E0101113BDF500101111959
:10D2B8000F0B1119DF6E12000101122B3E0E010136
:10D2C8001265CBD7120012001200000E01010E6F7A
:10D2D800000E0D6F010120EE03F00651D92607510B
:10D2E800DA22DF500101086F06C1D9FF07C1DAFF52
:10D2F800DF500101096F0A6B010120EE01F00651B0
:10D30800D9260751DA22DF5001010B6F01010B51B9
:10D3180001010927000E0A23010120EE02F006513F
:10D32800D9260751DA22DF5001010C6F01010C5197
:10D3380001010927000E0A230101085101010925ED
:10D348000101006F0101000E01010A210101016FB5
:10D35800000E0101036FC90E026FB1EC66F000C147
:10D368000DF101C10EF101010D5112001200010170
:10D378002C6F01012C5117EC5FF0000E0101C66FF4
:10D38800000E0101DD6F010E0101F16F7F0E020138
:10D39800396FF00E386F7F0E0001A36FF00EA26F89
:10D3A800000E2D6E100E2C6E070E01010E6F0D690A
:10D3B800040E01010F6F010EDDEC49F0010E0001B2
:10D3C800A2250001A26FF80E0001A3210001A36F9E
:10D3D8002C06D8A02D06070E356E3468090E2AECE7
:10D3E80077F0000E01010D6F1E0E0C6FF7EC65F063
:10D3F8005A0E01010C250101266F000E01010D21B5
:10D408000101276F010E0101286F0E0E49EC6DF026
:10D418001200100E0101446F18C10BF119C10CF173
:10D42800400E01010D6F010E01010E6F4BEC45F02E
:10D438001D0E01011A6F2E0E01011B6F460E010110
:10D448001C6F480E01011D6F430E01011E6F010E76
:10D458000101066F000E076F020E086F000E096FBC
:10D468000B0E01010A6F000E0B6F000E0C6F000E01
:10D478000D6F1F0E01010E6F010E01010F6F00EC01
:10D488006BF018C10EF119C10FF11A0E0101106FDE
:10D49800010E0101116F44C112F1000E0101136F59
:10D4A800010E0101146F000E0101156F04EC49F023
:10D4B80012001200100E0101446F18C10BF119C1BE
:10D4C8000CF1400E01010D6F010E01010E6F4BECC6
:10D4D80045F01D0E01011A6F2A0E01011B6F410E46
:10D4E80001011C6F530E01011D6F460E01011E6FD5
:10D4F800010E0101066F000E076F020E086F000E85
:10D50800096F0B0E01010A6F000E0B6F000E0C6FF6
:10D51800000E0D6F1F0E01010E6F010E01010F6F3E
:10D5280000EC6BF018C10EF119C10FF11A0E0101D0
:10D53800106F010E0101116F44C112F1000E0101BB
:10D54800136F010E0101146F000E0101156F04EC39
:10D5580049F012001200000E0101126F000E116F47
:10D56800000E0101106F000E0F6F000E0101136F06
:10D57800090E0101136501D02AD0D2EC78F000D051
:10D5880069EC78F00009D8A4FBD7C4500101126FE8
:10D59800116BC35001011113040E0101136514D05E
:10D5A800100E0101125DD8A006D0000E0101126F05
:10D5B800000E116F00D00101115101010F27010167
:10D5C80012510101102300D00101132BD1D70FC133
:10D5D80006F110C107F1000E0101096F050E086F71
:10D5E800D5EC6DF006C10FF107C110F10FC10DF1B7
:10D5F80010C10EF112001200000E0101106F000E92
:10D60800116F000E126F000E136F899E030E80ECCF
:10D6180076F00101085180EC76F00101075180ECA9
:10D6280076F00101065180EC76F0000E0101106FD2
:10D63800000E116F000E126F000E136F17D001014C
:10D64800105101010E25D96E0101115101010F215F
:10D65800DA6E9EEC77F001010051DF6E010E0101D8
:10D668001027000E11231223132300D001010A51A1
:10D678000101105D01010B510101115901010C510A
:10D688000101125901010D5101011359D8A0D7D731
:10D69800898E1200000E0101036F070E0101036558
:10D6A80001D019D001010351010DF35001010025EA
:10D6B800D96EF45001010121DA6E01010351010D07
:10D6C800BE0EF324E16E020EF420E26EDFCFE7FF18
:10D6D8000101032BE2D7000E0101036F070E0101C0
:10D6E800036502D01200120001010351010DF3502D
:10D6F80001010025D96EF45001010121DA6EDE28FE
:10D70800D8A409D0070E01010319D8A408D0000E27
:10D718000101C76F04D0010E0101C76F120001019A
:10D72800032B070E01010365DFD712001200000E5C
:10D7380001010D6F3FD0010102510DC107F1010137
:10D74800086B01010727000E082300C109F101C178
:10D758000AF10101075101010927010108510101DD
:10D768000A2309C1F6FF0AC1F7FF000EF86E01018E
:10D7780005510DC10BF101010C6B01010B27000EC6
:10D788000C2301010B5101010325D96E01010C5134
:10D7980001010421DA6E0E0EF76403D00800F5507B
:10D7A80005D0F6CFE9FFF7CFEAFFEF50DF6E0101B2
:10D7B8000D2B00D00101065101010D5DD8A0BBD78A
:10D7C80012002BEC78F0899E020E80EC76F00101B5
:10D7D800075180EC76F00101065180EC76F00101EA
:10D7E800055180EC76F0000E01010F6F000E106FEE
:10D7F800000E116F000E126F15D001010F510101BB
:10D808000925D96E0101105101010A21DA6EDF5094
:10D8180080EC76F0010E01010F27000E1023112372
:10D82800122300D001010B5101010F5D01010C51C0
:10D838000101105901010D510101115901010E5148
:10D8480001011259D8A0D9D7898E07EC78F01200B7
:10D858001200040E01010E250101066F000E0101E0
:10D868000F210101076F10C108F111C109F1040E60
:10D8780001010A6FA6EC72F03BEC78F002C1D9FF07
:10D8880003C1DAFF12C1E1FF13C1E2FFDFCFE7FFF7
:10D898000EC106F10FC107F1E00E0101086F010E7C
:10D8A8000101096F040E01010A6FD8EC71F000093B
:10D8B800D8A412D00EC106F10FC107F1E40E010180
:10D8C800086F010E0101096F040E01010A6FD8ECFF
:10D8D80071F00009D8B402D0010E1200000E120037
:10D8E8001200000E0001C46F3E0E01010861120013
:10D8F800200E73EC57F0800E73EC57F001010851BD
:10D90800020FF3EC77F00001B451F3EC77F0000E5E
:10D918000101096F21D001010951010DF3500101E5
:10D928000625D96EF45001010721DA6EDF50000197
:10D93800C4190001C46F01010951010DF35001011F
:10D948000625D96EF45001010721DA6EDF50F3EC99
:10D9580077F00101092B00D0010108510101095D8F
:10D96800D8A0D9D70001C451F3EC77F01200120007
:10D9780001010B6FFA0E01010B6112000BC10CF1D2
:10D9880001010D6B0CC109F10DC10AF10101D8901B
:10D9980009370A370101D89009370A3709C10CF14C
:10D9A8000AC10DF1000E01010E6F030E01010E6593
:10D9B80002D01200120001010E5101010C250101D3
:10D9C800046F000E01010D210101056F01010E51C7
:10D9D800010DF35001010725D96EF450010108210A
:10D9E800DA6EDF500101066F59EC77F001010E2B5A
:10D9F800030E01010E65DFD7120012001200E8ECD9
:10DA080077F00101046F0001CC51D8A41CD00101AA
:10DA18000429D8A403D004C1CDF007D001010429FA
:10DA28000001CD6F0001CD05476E400E0001CD65A8
:10DA38000AD0400E0001CD6F0001CD05476E010EE2
:10DA480002017D6F00D00001CD510001CC5DD8B03E
:10DA58000ED00001CC51010DA70EF324D96E040E8F
:10DA6800F420DA6E04C1DFFF0001CC2B00D00001E6
:10DA7800CD510001CC19D8A412000001CD51D8B461
:10DA88001200010E396E1200120001012B6F010104
:10DA980026291DE101012729D8A419D001012B51FC
:10DAA800020D000EF324D96E020EF420DA6EFF0E7A
:10DAB800DE6EFF0EDD6E01012B51010D000EF32409
:10DAC800D96E030EF420DA6E28C1DFFF1200010EB2
:10DAD800010126250101296F000E010127210101FD
:10DAE8002A6F01012B51020D000EF324D96E020E8C
:10DAF800F420DA6E29C1DEFF2AC1DDFF01012B51B6
:10DB0800010D000EF324D96E030EF420DA6E28C13D
:10DB1800DFFF12001200000E096E000E0A6E000EE2
:10DB28000B6E000E0C6E0550061007100810D8B4C6
:10DB38002FD0010E0D6E07D0D89005360636073661
:10DB480008360D2A00D008BE02D0F6D700D0D890EB
:10DB580009360A360B360C360550015C0650025859
:10DB68000750035808500458D8A00AD00550015E41
:10DB78000650025A0750035A0850045A098000D028
:10DB8800D89008320732063205320D2EE0D700D081
:10DB980009C001F00AC002F00BC003F00CC004F089
:10DBA8001200000E01010C6F000E0B6F01010851ED
:10DBB80001010911D8B431D0010E01010A6F07D053
:10DBC8000101D8900837093701010A2B00D001015B
:10DBD80009BF02D0F5D700D00101D8900B370C3718
:10DBE800010108510101065D0101095101010759AF
:10DBF800D8A00BD0010108510101065F01010951AC
:10DC08000101075B01010B8100D00101D8900933A4
:10DC1800083301010A2FE0D700D00BC106F10CC16F
:10DC280007F11200000E0001666F000E656F00011B
:10DC3800625100016311D8B431D0010E0001646F44
:10DC480007D00001D890623763370001642B00D0F9
:10DC5800000163BF02D0F5D700D00001D890653726
:10DC68006637000162510001605D000163510001E7
:10DC78006159D8A00BD0000162510001605F00011A
:10DC880063510001615B0001658100D00001D890FB
:10DC9800633362330001642FE0D700D065C060F0C1
:10DCA80066C061F01200000E01010D6F31D0010154
:10DCB80005510DC107F10101086B01010727000E8D
:10DCC80008230101075101010325D96E01010851FB
:10DCD80001010421DA6E010102510DC10AF10101AD
:10DCE8000B6B01010A27000E0B2301010A510101E8
:10DCF8000025E16E01010B5101010121E26EDE50A8
:10DD0800E618D8B402D0000E120001010D2B00D085
:10DD18000101065101010D5DD8A0C9D7010E1200FD
:10DD28001200000E0101116F000E106F010111BFEA
:10DD38000AD00101115130E13F0E0101105DD8B048
:10DD48002BD001D029D010C100F111C101F1000E72
:10DD58000101036F060E026FA6EC74F0BD0E0101FF
:10DD680000250101066F0A0E010101210101076F5B
:10DD78000EC108F10FC109F1040E01010A6FD8ECB8
:10DD880071F00009D8B403D001011051120001014B
:10DD9800104B112BCBD700D0FF0E12001200120E21
:10DDA80001010E6F010E01010F6FF90E0101106FD5
:10DDB800010E0101116FF9EC61F0000E0101266FEF
:10DDC800830E0101006FFE0E0101016F000E0101BB
:10DDD800026F120E0101036F010E0101046F150E8F
:10DDE8000101056F240E0101066F9BEC6BF0010128
:10DDF800C751300F01014B6F120E0101046F010E64
:10DE08000101056F3A0E0101066F000E0101076F4F
:10DE1800020E90EC60F01200000E0101086F000E77
:10DE2800096F000E0A6F000E0B6F00D0010100A1F0
:10DE380011D0010104510101082701010551010117
:10DE480009230101065101010A23010107510101BA
:10DE58000B2300D00101D890043705370637073760
:10DE68000101D8900333023301330033010100511B
:10DE7800010101110101021101010311D8A4D6D732
:10DE880008C100F109C101F10AC102F10BC103F196
:10DE98001200000E0001686F000E696F000E6A6FB5
:10DEA800000E6B6F00D0000160A111D00001645119
:10DEB80000016827000165510001692300016651CE
:10DEC80000016A230001675100016B2300D00001A3
:10DED800D89064376537663767370001D890633361
:10DEE8006233613360330001605100016111000148
:10DEF800621100016311D8A4D6D768C060F069C068
:10DF080061F06AC062F06BC063F012000101025157
:10DF1800010100250101086F0101035101010121DF
:10DF28000101096F08C10AF109C10BF101010C6B6C
:10DF38000D6B10D00101045101010A5F0101055167
:10DF480001010B5B0101065101010C5B0101075145
:10DF580001010D5B0101045101010A5D0101055137
:10DF680001010B590101065101010C590101075129
:10DF780001010D59D8B0DED70AC100F10BC101F17A
:10DF88001200060E0101446F18C10BF119C10CF102
:10DF9800400E01010D6F010E01010E6F4BEC45F0B3
:10DFA8001F0E01011A6F2A0E01011B6F530E01018A
:10DFB8001C6F460E01011D6F540E01011E6FD9C062
:10DFC8001FF118C10EF119C10FF11A0E0101106FDE
:10DFD800010E0101116F44C112F1000E0101136F0E
:10DFE800010E0101146F000E0101156F04EC49F0D8
:10DFF80012001200000E01011B6F830E0101006F59
:10E00800FE0E0101016F000E0101026F1B0E0101DE
:10E01800036F010E0101046F010E0101056F240E4B
:10E028000101066F9BEC6BF00101C751300F010134
:10E03800406F18C10EF119C10FF11B0E0101106FCD
:10E04800010E0101116F260E0101126F000E010170
:10E05800136F1AC114F1000E0101156F04EC49F099
:10E06800120012003D0E0101536F14C116F115C1C3
:10E0780017F114C100F115C101F1000E0101036F80
:10E08800380E026FA6EC74F0010100C106F101011F
:10E0980001C107F10101086B096B380E01010A6F14
:10E0A800000E0B6F000E0C6F000E0D6F180E0101A5
:10E0B8000E6F010E01010F6F00EC6BF0160E0101DF
:10E0C800066F010E0101076F53C108F175EC6CF082
:10E0D80012000101046F01010451020D000EF32426
:10E0E800D96E020EF420DA6EDE50DE10D8B418D0E5
:10E0F80001010451020D000EF324D96E020EF42022
:10E10800DA6EDECF02F1DDCF03F1FF0E0101022549
:10E118000101006FFF0E010103210101016F1200CF
:10E1280001010451020D000EF324D96E020EF420F1
:10E13800DA6EDECF00F1DDCF01F11200120001012D
:10E148000F5101011011D8B42BD0010E0101116F2C
:10E1580007D00101D8900F3710370101112B00D0DB
:10E16800010110BF02D0F5D700D001010F51010104
:10E178000D5D0101105101010E59D8A009D001010E
:10E188000F5101010D5F0101105101010E5B00D01B
:10E198000101D89010330F330101112FE6D700D0B9
:10E1A8000DC10DF10EC10EF11200000169510001FF
:10E1B8006A11D8B42BD0010E00016B6F07D0000193
:10E1C800D89069376A3700016B2B00D000016ABF0D
:10E1D80002D0F5D700D0000169510001675D000148
:10E1E8006A5100016859D8A009D00001695100019D
:10E1F800675F00016A510001685B00D00001D89098
:10E208006A33693300016B2FE6D700D067C067F027
:10E2180068C068F0120014D0D00E0101026FCA0E57
:10E22800E82EFED7022FFCD7F60E010100250101CA
:10E23800006FFF0E010101210101016F040000D0F0
:10E2480001010151E9E10B0E0101005DD8A010D0D8
:10E25800E3D70ED0150E0101026FC60EE82EFED7C9
:10E26800022FFCD700D001010007D8A00107040045
:10E278000101005101010111D8A4ECD712000101DC
:10E28800026F3F0EC716000EC66E01010251C6127C
:10E2980001010151C71205D0C78C16D0C78CC6889A
:10E2A80013D001010051000AD8B4F6D7020AD8B435
:10E2B800F5D7010AD8B4F3D707D09486928A0DD03F
:10E2C80094860BD0949609D001010251040AD8B45F
:10E2D800F4D7010AD8B4F4D7F5D79488949AC68AA3
:10E2E8001200000E01010E6F0101F8516EEC76F07C
:10E2F800040E01010C6F010E00EC5CF00001A2514C
:10E3080001010C250101236F0001A35101010D2119
:10E318000101246FB0EC78F00101206F23C122F1D4
:10E32800010124510101216F200E0101176F010E17
:10E338000101186F030E0101196F010E01011A6F17
:10E3480045EC4CF012002CD04704D8A405D091EC31
:10E3580077F002017B6F00D00001CD510001CC5D48
:10E36800D8B00FD00001CC51010DA70EF324D96EFF
:10E37800040EF420DA6EE8EC77F0DF6E0001CC2BA7
:10E3880000D00001CD510001CC19D8A407D000015C
:10E39800CD51D8B403D0010E396E00D0470600D055
:10E3A8004750D8A4D1D71200000E01010D6F1FD01D
:10E3B80001010D51010DF35001010825D96EF450EA
:10E3C80001010921DA6E01010D51010DF35001011E
:10E3D8000625E16EF45001010721E26EDE50E618D1
:10E3E800D8B402D0000E120001010D2B00D001019B
:10E3F8000A5101010D5DD8A0DBD7010E12001200F1
:10E408001D0E01011A6F250E01011B6FF9C11CF1C8
:10E41800FAC11DF1FBC11EF1FCC11FF1060E01017D
:10E42800406F18C10EF119C10FF11A0E0101106FDA
:10E43800010E0101116F40C112F1000E0101136FAD
:10E44800010E0101146F000E0101156F04EC49F073
:10E45800120012000101BB51D8A412000101BC51E5
:10E46800D8A412000101BE51D8A412000001CA515B
:10E47800D8A412000001C651D8A412000101D45139
:10E48800D8A412004D50D8A412000101CD51D8A42F
:10E4980012003650D8A412000101EE51D8B412006F
:10E4A80090EC78F0120012002CC121F12DC122F15C
:10E4B8003C0E0101236F010E0101246F010E0101C1
:10E4C800256F87EC40F02CC10EF12DC10FF195ECB2
:10E4D8006EF001012F6F2AC115F12BC116F12FC162
:10E4E80017F12EC118F1000E0101196F010E01017B
:10E4F8001A6FBBEC1DF0120001012C6F000E010118
:10E50800F06F2CC1C7F0000E01012E6F3E0E2D6F6B
:10E518002DC100F12EC101F1000E0101036F1E0E85
:10E52800026FA6EC74F000C12DF101C12EF12DC1CE
:10E5380026F12EC127F1000E0101286F070E49ECC4
:10E548006DF01200000E01010B6F1BD001010B5181
:10E55800010DF35001010625D96EF4500101072180
:10E56800DA6E01010B51010DF35001010825E16E2E
:10E57800F45001010921E26EDFCFE7FF01010B2B07
:10E5880000D001010A5101010B5DD8A0DFD71200AC
:10E598000101026F00C101F10101013BC1500101FC
:10E5A8000119CF0B0119C16EC196C190C192C194D6
:10E5B80002C101F1010101470147C25001010119DE
:10E5C800830B0119C26EC086C088C08AC050F80B80
:10E5D8000609C06EC08EC2801200000E0101016FD4
:10E5E8003E0E0101016501D01AD001010151060D4D
:10E5F800040EF326000EF422BD0EF324D96E0A0E83
:10E60800F420DA6EDF500F0B0101006F020E0101DA
:10E61800006102D0010E12000101012BE1D7000EAA
:10E6280012001200000E0101036F01010151030BDA
:10E63800756E00C174FF02C173FF7F9E7F9C7F844B
:10E64800000EF2BE010E0101036FF29E550E7E6EA2
:10E65800AA0E7E6E7F8200D07FB2FED7010103B181
:10E6680002D0F29E01D0F28E7F941200000E0001BB
:10E678006B6F000169AF09D00001686D691FD8B0E0
:10E68800692B010E00016B6F00D068C060F069C093
:10E6980061F00001626B8E0E0001636F6BC064F065
:10E6A80056EC5AF060C068F061C069F062C06AF068
:10E6B800120012001A0E0101006F010E0101016F14
:10E6C80031EC54F00101406F18C10EF119C10FF17E
:10E6D8001A0E0101106F010E0101116F40C112F1F4
:10E6E800000E0101136F010E0101146F000E0101EC
:10E6F800156F04EC49F01200120093968A868986F9
:10E70800050E0101046F260EE82EFED7042FFCD754
:10E7180000D08996680E0101046FE40EE82EFED73A
:10E72800042FFCD700D0C0EC78F0030E0101016F74
:10E73800FE0E006FFF0E0101026F16EC73F012005F
:10E748001D0E01011C6F1AC11DF11BC11EF1030E24
:10E758000101426F18C10EF119C10FF11C0E010120
:10E76800106F010E0101116F42C112F1000E01017B
:10E77800136F010E0101146F010E0101156F04ECF6
:10E7880049F012000FC106F110C107F1E40E0101B2
:10E79800086F010E0101096F040E01010A6FA6EC52
:10E7A80072F00101E0690101E1690101E269010119
:10E7B800E369E40E0101066F010E0101076F69ECC0
:10E7C80069F086EC78F012000101016F0101015136
:10E7D8000101D8B409D00001CF51D8B413D0899C15
:10E7E8008B94898012000ED0010100510101D8B428
:10E7F80009D00001D151D8B405D0898C8B94899067
:10E80800120000D0899C8B84899012000001616FEE
:10E81800000161510001D8B409D00001CF51D8B42A
:10E8280013D0899C8B94898012000ED0000160510E
:10E838000001D8B409D00001D151D8B405D0898CD1
:10E848008B948990120000D0899C8B848990120047
:10E858000101026F01010251020D000EF324D96E6D
:10E86800020EF420DA6EDE04DE10D8A40FD0010107
:10E878000251020D000EF324D96E020EF420DA6E56
:10E88800000EDE6E000EDD6E010E1200000E12008C
:10E8980012000101006F010100510101D8A409D043
:10E8A800D59E000ED76E000ED66E850ED56ED58E0F
:10E8B8001200030E01010019D8A41200000EB36E55
:10E8C800000EB26E8C0EB16EA292A192B1801200AF
:10E8D80012000101046F01010451D8090101056FFB
:10E8E80005C102F13C0EF9EC74F0C80E0101056F88
:10E8F80005C102F11A0EF9EC74F0000E0101056F62
:10E9080005C102F13E0EF9EC74F01200FFFFFFFFA3
:10E91800FFFFFFFFFFFFFFFFFFFFFFFFFFFFFFFFFF
:10E92800010000006D4EC641170001000800FF00FD
:10E93800010101FFFFFFFFFFFFFFFFFFFFFFFFFFD9
:10E94800FFFFFFFF0101005101010203F3CF04F1B2
:10E95800F4CF05F10101005101010303F350010156
:10E9680005270101015101010203F35001010527A7
:10E9780004C100F105C101F112001200000160514B
:10E9880000016203F3CF64F0F4CF65F00001605139
:10E9980000016303F3500001652700016151000184
:10E9A8006203F3500001652764C060F065C061F040
:10E9B8001200120001012C6F01012C510101D8B481
:10E9C80004D0010E0101F16F1200000E0101F16F78
:10E9D800010E0101276F680E266F010E0101286FD5
:10E9E8000F0E49EC6DF0120012000101036F8994BB
:10E9F8000101035180EC76F0E40E00D000D0E82E3F
:10EA0800FCD700D000D00101025180EC76F0E40E72
:10EA180000D000D0E82EFCD700D000D089841200A6
:10EA2800000E01010C6F010E00EC5CF001010C1FDF
:10EA380001010D1F01010C4B0D2B3E0E01010C2590
:10EA48000101176F000E01010D210101186F12005D
:10EA580012000101006F060E0101006102D0000ED4
:10EA680003D001010051FB0F0101016F070E0101E5
:10EA7800016503D0070E0101016F01010151120068
:10EA88001200000E0101056F000E0101066F0BD088
:10EA98001C0EF8EC75F00101066F01010651020B1E
:10EAA8000101056F00D0010105510101D8B4F0D76B
:10EAB80012000101026F000E0101016F3A0E0101FF
:10EAC800026108D02F0E0101026504D0010E010178
:10EAD800016F00D001C100F10101003112001200E4
:10EAE800000E0101276F010E266F010E0101286F2C
:10EAF800020E49EC6DF0000E0101276F010E266F22
:10EB0800010E0101286F030E49EC6DF0120000019F
:10EB1800626F000E0001616F3A0E0001626108D059
:10EB28002F0E0001626504D0010E0001616F00D054
:10EB380061C060F000016031120012002BEC78F027
:10EB4800899E200E80EC76F00101075180EC76F06A
:10EB58000101065180EC76F00101055180EC76F058
:10EB6800898E07EC78F0120008C100F109C101F1A3
:10EB78000101026B8E0E0101036F000E0101046F8B
:10EB8800C6EC59F000C108F101C109F102C10AF14E
:10EB9800120012000101006F080E0001CB61120083
:10EBA8000001CB51010D2E0EF324D96E020EF42074
:10EBB800DA6E00C1DFFF0001CB2B12001200010149
:10EBC800036F03C100F10101016B240E0101026F03
:10EBD800E6EC5AF003C100F10101016B240E0101BA
:10EBE800026FE6EC5AF012000101046F89940101EA
:10EBF800045140090101046F0101045180EC76F0D1
:10EC08009EEC77F000C103F18984010103511200E1
:10EC180012000001646F89940001645140090001E9
:10EC2800646F0001645192EC76F0ABEC77F060C051
:10EC380063F0898400016351120012000101026F20
:10EC480001010251020D000EF324D96E020EF420C8
:10EC5800DA6EDE50DE10D8A402D0010E1200000ECB
:10EC6800120012004C2A4C504518D8A41200000E6D
:10EC78000001C66F000E0001606F000E0AEC74F010
:10EC8800000E4C6E000E456E12001200020E0101BD
:10EC98000C6F0AC10DF10BC10EF10D0E0101066FCB
:10ECA800010E0101076F0CC108F175EC6CF0120040
:10ECB800000E0101036F899E050E80EC76F09EEC34
:10ECC80077F0010100510101036F898E01010351A1
:10ECD8001200120001010F6F01010F514E18D8B434
:10ECE800120001D012000EC104F101010F5180EC95
:10ECF8004BF00FC14EF012000101016FC9CF00F1B6
:10ED08009E96C69E01C1C9FFC6BE120002D012005F
:10ED180000D09EB61200FDD7120012000001616FEC
:10ED2800C9CF60F09E96C69E61C0C9FFC6BE1200DC
:10ED380002D0120000D09EB61200FDD712001200B9
:10ED48000101036F0001B851D8B41200000E01018F
:10ED5800016F020E006F03C102F1E6EC5AF01200D7
:10ED6800120052C020F1200E0101176F010E01019F
:10ED7800186F010E0101196F010E01011A6F45ECA0
:10ED88004CF012000101066F01010651010B000150
:10ED9800CF6F010106510E0B0101056F01010551ED
:10EDA8004AEC77F01200D08EF290F28CF196F19244
:10EDB8000F015A9F0F015A9D0F015A9B0F015A9933
:10EDC800F286F190F28E12000001636F0001B851D3
:10EDD800D8B41200000E0001616F020E606F63C0AC
:10EDE80062F073EC5BF01200120000016251020144
:10EDF800D627000163510201D723000164510201A3
:10EE0800D823000165510201D92312002A8C02027D
:10EE18000CC177643277623238F81180E9383807E4
:10EE280000000507090CF2004000D8800101046FBA
:10EE38000001D051D8A404D00001BC51D8B41200AC
:10EE480001010451A4EC76F0120012000101006FD8
:10EE580001010051020D000EF324D96E020EF420B8
:10EE6800DA6E000EDE6E000EDD6E12000001646FB9
:10EE78000001D051D8A404D00001BC51D8B412006C
:10EE880000016451E8EC76F0120012000101046FF1
:10EE98000301EA51F00B010104110301EA6FEAC30F
:10EEA80002F1340EF9EC74F01200010E0101DF6F6B
:10EEB800C0EC78F004C100F105C101F106C102F10E
:10EEC80016EC73F01200200E73EC57F0400E73EC42
:10EED80057F022EC78F045EC75F0600E73EC57F0C3
:10EEE800120001010151030B756E00C174FF7F9C74
:10EEF8007F9E7F8000F000F0735012001200010125
:10EF0800006F00C1C6F1010100510101D8A412002F
:10EF1800010E0101F16F120012003C0EF8EC75F0C1
:10EF28000101056F010105A102D0010E1200000EBA
:10EF380012001200C9CF02F19E96000EC96E00D0D1
:10EF48009EA6FED7C9CF00F10101016B1200C9CFFF
:10EF580062F09E96000EC96E00D09EA6FED7C9CF5D
:10EF680060F00001616B12000101046F04C1B4F08C
:10EF780004C1EDF3EDC302F13A0EF9EC74F012009E
:10EF88000101006F010100510101D8B402D093962C
:10EF980012009386120012000101006F0101005156
:10EFA8000101D8B402D08A8412008A941200120097
:10EFB800010E0101276F2C0E266F010E0101286F2B
:10EFC800130E49EC6DF01200898489929EEC77F05B
:10EFD80000C103F1898201010351120012000101ED
:10EFE800026F898489920101025180EC76F089824E
:10EFF80012005128D8B402D0512A02D0000E516E06
:10F0080051501200120000D05CEC76F00101046F40
:10F01800010104B1F9D7120000D05CEC76F00101CF
:10F02800046F010104A3F9D712000101496F48C117
:10F038002CF10101495143EC25F01200070E0101A2
:10F04800046F04C102F11C0EF9EC74F01200899EE1
:10F05800060E80EC76F0898E10EC78F0120000C174
:10F06800D2F201C1D3F20201D46BD56B120043EC8A
:10F0780078F000C102F101C103F112001200D80EAC
:10F088000101006F000E0101016F1200120002C1A0
:10F0980000F103C101F175EC77F0120012000108CC
:10F0A8000101FF3C0101010119FFFFFFFF00010100
:10F0B800066F0101065162EC78F012000101056F3C
:10F0C80001010551B8EC77F01200C2A202D0010E7E
:10F0D8001200000E12001200070E0101016F0069F4
:10F0E80012001200280E0DEC76F098EC65F0120074
:10F0F8000301EA510E0B120012000101006F00C15A
:10F10800EFF112000101006F00C1D1F11200B5C189
:10F1180000F1B6C101F11200D39ED18E03000400A4
:10F128001200B5C160F0B6C161F0120077C0B5F148
:10F1380078C0B6F1120003FF41FFFF00C2010000D2
:10F148000101EF51120012000001B4511200120027
:10F15800B4EC78F0120012000001C3511200120042
:10F168000001BD51120012000101C6511200120027
:10F178000201DE511200120000D07FB2FED7120049
:10F188000001C351120012000001BD51120012000B
:10F19800FA0E12001200000E12001200C2821200B3
:06F1A800FF03120012003B
:10FE6A000001000A006400E80310270100100000E6
:10FE7A00010010000111100200656D447269766577
:10FE8A00522C322E3139372C312E33312C322C313F
:10FE9A002C302C3030303030303030302C003C4573
:10FEAA003E4E6F7420416C6C6F77656420746F20CE
:10FEBA0073656E643C2F453E004D6173743A203081
:10FECA00782530325825303258253032582530328C
:10FEDA0058200049443A20307825303258253032AB
:10FEEA0058253032582530325820003C453E73742C
:10FEFA006279207768696C6520696E743C2F453E8B
:10FF0A00003C453E476F696E6720746F2054583134
:10FF1A003C2F453E003C453E5265637620583220D0
:10FF2A00444154413C2F453E004669726D776172E7
:10FF3A00653A2076322E31393720003C453E5265EB
:10FF4A0063762058322042433C2F453E003C543EC3
:10FF5A00476574526566726573683C2F543E00307B
:10FF6A003132333435363738394142434445460015
:10FF7A0047726F75703A2030782530325820003C2D
:10FF8A00543E526566726573683C2F543E004E6F4C
:10FF9A0064653A203078253032582000436F723A2F
:10FFAA00202530325820004261743A2025303458D6
:10FFBA00200053533A202530325820005070723AAC
:10FFCA002025692000547970653A20003C2F44416D
:10FFDA003E003C2F55413E005744525354003C4486
:10FFEA00413E003C55413E0025632000424F5200ED
:06FFFA00504F5200000010
:020000040020DA
:08000000FFFFFFFFFFFFFFFF00
:020000040030CA
:0E0000001D981B36FF8980FF0FC00FE00F40D8
:00000001FF
