:04080000EBEF04F026
:10080800FACF1CF0FBCF1DF0E9CF1EF07EEF68F0A9
:10081800D8CF8FF0E8CF90F0E0CF91F0FACF92F0F8
:10082800FBCF93F0E9CF94F0EACF95F0E1CF96F0C3
:10083800E2CF97F0D9CF98F0DACF99F0F3CF9AF0CA
:10084800F4CF9BF0F6CF9CF0F7CF9DF0F8CF9EF059
:10085800F5CF9FF090D0000E0001A16FF2A08FD0CD
:1008680081CFA0F000F0F2900001A0A984D0600E22
:100878000101C019D8A466D00001CA51D8A43AD041
:100888000001C651D8A436D02DEC79F00101F26FE1
:10089800040E00016C6F010E6FEC5DF06CC077F018
:1008A8006DC078F003EC79F0D3B606D001D004D04F
:1008B800010E0101D36F00D0DFEC78F0FEEC78F088
:1008C8000001A251000160270001A351000161232A
:1008D800000160C062F0000161C063F00001646B58
:1008E800656B62EC77F0010E0101BD6F010E00012E
:1008F800CA6F41D00001C651D8B409D00B0E00010F
:100908006C6FFF0E00016D6F8EEC36F034D031EC59
:1009180079F00009D8B409D0450E00016C6FFF0EBC
:1009280000016D6F8EEC36F009D01F0E00016C6F60
:10093800FF0E00016D6F8EEC36F000D0010E010144
:10094800BE6F19D0800E0101C019D8A406D0010EBF
:100958000101BF6F9FEC76F00ED0200E0101C01987
:10096800D8A409D0F50E00016C6FFE0E00016D6F62
:100978008EEC36F000D0010E0001A16F00D000010E
:10098800A1510001D8A467D79FC0F5FF9EC0F8FF0A
:100998009DC0F7FF9CC0F6FF9BC0F4FF9AC0F3FF11
:1009A80099C0DAFF98C0D9FF97C0E2FF96C0E1FF6F
:1009B80095C0EAFF94C0E9FF93C0FBFF92C0FAFF1D
:1009C80091C0E0FF90C0E8FF8FC0D8FF1000F2EFA1
:1009D80058F0000ED0B6010E0101F56F000ED0B22E
:1009E800010E0201FB6F000ED0B0010E0201FA6F7A
:1009F800D0CFFCF2BEEC57F0030E0101016FE80EF8
:100A0800006F77EC71F0030E0101016FF00E006FBB
:100A1800DEEC77F00101D66F0101D629D8B404D0F5
:100A2800010E0101C66F00D07AEC5EF006D08A9400
:100A38009386F9EC78F07AEC5EF00DC1AAF00EC15D
:100A4800ABF000D00001ABBFF2D73E0E0001AA5DAB
:100A5800080E0001AB59D8A0EAD7E9EC73F0360EBE
:100A68000101016FB00E006F77EC71F00101C65102
:100A78000101D8A40ED00001ABBF0BD0870E000136
:100A8800AA5D0B0E0001AB59D8A003D0A0EC65F00D
:100A980000D0000E0101006F000E0101016F020E6F
:100AA800ABEC71F00400B0EC40F00400F1C200F1CE
:100AB8000101016B9CEC78F040EC77F0010E00012D
:100AC800BC6F0101F5510101D8A413D0E20E010158
:100AD800126FFF0E0101136F2AEC34F0000E0101B2
:100AE800016F040E006F060E0101026FCFEC5BF080
:100AF8002CD00201FB510201D8B418D00201FA51DE
:100B08000201D8A413D0F60E0101126FFF0E0101E5
:100B1800136F2AEC34F0000E0101016F040E006F10
:100B2800070E0101026FCFEC5BF00FD00201FB5101
:100B38000201D8A40AD0FA0E0101126FFF0E0101BA
:100B4800136F2AEC34F0D08200D0000E23EC6AF048
:100B5800CF0E0101126FFF0E0101136F2AEC34F062
:100B6800830E0101126FFE0E0101136F2AEC34F09F
:100B7800F20E0101126FFF0E0101136F300E010119
:100B8800C8250101146F0101156B000E15232AEC0D
:100B980034F0B10E0101126FFF0E0101136FAAC0EC
:100BA80014F1ABC015F12AEC34F0DD0E0101126F1F
:100BB800FE0E0101136FEEC214F10101156BEFC2B5
:100BC80016F10101176BF0C218F10101196BF1C29E
:100BD8001AF101011B6B2AEC34F0C30E0101126FEC
:100BE800FE0E0101136FF9C114F10101156BFAC171
:100BF80016F10101176BFBC118F10101196BFCC15A
:100C08001AF101011B6B2AEC34F0980E0101126FE6
:100C1800FF0E0101136F11EC79F00401E76F040175
:100C2800E7510101146F156B2AEC34F07A0E0101BB
:100C3800126FFF0E0101136FC7C014F10101156B8C
:100C48002AEC34F0330E0101126FFF0E0101136F0D
:100C58002AEC34F0A60E0101126FFF0E0101136F8A
:100C6800D6C114F10101156B2AEC34F0C60E01014E
:100C7800126FFF0E0101136F81BA02D0010E01D06D
:100C8800000E0101146F156B2AEC34F0EE0E010111
:100C98000F6F020E0101106F2EEC74F00CEC42F095
:100CA800DDEC75F0000E0101276F1E0E266F010E98
:100CB8000101286F040EB1EC6DF0000E0501D26F32
:100CC800000E0101066F000E076F020E086F000E7E
:100CD800096F010E01010A6F000E0B6F000E0C6FF9
:100CE800000E0D6FD20E01010E6F050E01010F6F80
:100CF80068EC6BF00501D205D8A41ED0000E0501E2
:100D0800D26F000E0101056F000E066F020E076F0D
:100D1800000E086FD20E0101096F050E01010A6F5E
:100D2800010E01010B6F000E0C6F000E0D6F000E0F
:100D38000E6F4DEC6CF000D0EE0E0101066F020E46
:100D48000101076FE00E0101086F010E0101096F33
:100D5800040E01010A6F40EC72F00009D8B403D008
:100D68000400FED700D045EC78F0000E0001BC6FFF
:100D780000D00101D9510101D8A442EF0CF0000EB6
:100D8800B5EC74F00101DE510101D8B402D0FF00C6
:100D980000D0000E0101DF6F04000101BC51D8B47E
:100DA80085D00101C051D8B41CD07DEC75F017C1B5
:100DB80068F218C169F2020169510CE11F0E0201C3
:100DC800685DD8B007D0000E01014A6F010EBEEC75
:100DD80019F007D0000E01014A6F000EBEEC19F0A1
:100DE80000D00101F6510101D8B426D0F90E010155
:100DF8000B6F010E01010C6FC30E01010D6F050E83
:100E080001010E6F6EEC45F00401E76F1F0E04013F
:100E1800E76112D0F90E0101186F010E0101196F77
:100E2800000E01011A6F66EC70F00009D8B404D006
:100E3800000E0101F66F00D0000E0101BC6F3E0EDE
:100E4800F2EC38F0E80E0101006F010E0101016FAC
:100E5800E4EC50F0E3EC3AF021EC79F00009D8B476
:100E680025D00101F4510101D8B420D0010E0001B0
:100E7800BC6FBC0E0101126FFF0E0101136FA4ECD1
:100E880078F002C1D9FF03C1DAFFDF500401E76F30
:100E98000401E7510101146F156B2AEC34F0000EC0
:100EA8000001BC6F000E0101F46F00D07DEC75F0FD
:100EB80017C168F218C169F20201695105E1070E0C
:100EC8000201685DD8A02AD00201695127E11F0EEE
:100ED8000201685DD8B022D00101D551D8B41ED026
:100EE800C90E01010E6F050E01010F6F9B0E010166
:100EF800106F030E0101116FC1C112F1000E010143
:100F0800136F010E0101146F000E0101156F2AEC19
:100F180049F000D0000E0101D56F00D00101BE518B
:100F2800D8B409D0000E0101BE6F200E5CEC58F059
:100F3800600E5CEC58F00001CA51D8B43AD0F4EC19
:100F480078F000C117F101C118F1040E01010C6F0E
:100F5800010EE9EC5CF00CC119F10DC11AF1D9ECE4
:100F680078F0010100C11BF1010101C11CF101016F
:100F78001D6B1E6BD0EC62F017C1C7F518C1C8F520
:100F88004B0E0501C75D010E0501C859D8A011D047
:100F98000101BD51D8B40AD00001C651D8A406D069
:100FA8006BEC6DF0000E0101BD6F00D00FEC72F01C
:100FB80000D0200E01010E6F030E01010F6FEB0E22
:100FC8000101106F010E0101116F5BEC47F0000980
:100FD800D8B452D0200E01012C6F030E01012D6FE1
:100FE800EBC12EF1D3C12FF1F2C130F1D7EC2BF0C8
:100FF8000009D8B43AD0230E01010E6F030E010187
:101008000F6FBC0E0101106F020E0101116FD00E9F
:101018000101126F050E0101136F95EC6CF00009C8
:10102800D8B423D00B0E0501CF6FBC0E0101906F11
:10103800020E0101916F0501CF51010D200EF3241D
:101048000101926F030EF4200101936F0501CF5146
:1010580000080101EB250101946FD0C595F1000E40
:101068000101966F4BEC13F000D0000E0001CA6F1F
:10107800000E0101D36F00D0030E0101E819D8A4B6
:1010880014D0030E0101E919D8A40FD0000E0101F4
:10109800E86F000E0101E96F030E0101006F010EF8
:1010A8003FEC79F00101C58944D0020E0101E9192C
:1010B800D8A40CD0000E0101E96F020E0101006FE7
:1010C800010E3FEC79F00101C58733D00101E90534
:1010D800D8A40CD0000E0101E96F010E0101006FC8
:1010E800010E3FEC79F00101C58523D0020E010104
:1010F800E819D8A40ED0000E0101E86F00EC60F0EA
:10110800020E0101006F000E3FEC79F00101C5836A
:1011180010D00101E805D8A40CD0000E0101E86F39
:10112800010E0101006F000E3FEC79F00101C5814D
:1011380000D00101BF51D8B42BD0000E0101BF6F00
:10114800800E0101C019D8A411D00101D8510101A4
:10115800D8A405D00101D9510101D8B407D0000E97
:101168005CEC58F0000E0101D86F10D0800E010120
:10117800C019D8A40BD00001C651D8A407D0200E9E
:101188005CEC58F0600E5CEC58F000D0040000D025
:10119800000E0101016F010E006FED0E0101026FDB
:1011A800010E0101036FC1EC53F00009D8B408D057
:1011B800EDC100F1010E38EC79F00101BB6F07D0E9
:1011C8000101CE51D8B403D00101CE0700D00101EE
:1011D800BB51D8B46BD104012851C00B0501D36FA2
:1011E8000501D345E846030B0501D36FED0E010158
:1011F800126FFF0E0101136F2AEC34F00501D35171
:101208000501D8A409D1000E0101C26F21EC79F0C3
:101218000009D8B43FD1270E0101006F040E010167
:10122800016F020E0101026FE00E0101036F010E52
:101238000101046F000E0101056F040E0101066F24
:10124800BFEC6EF00009D8B4BDD00A0E0101C16F21
:10125800E4C19BF3E5C19CF3E6C19DF3E7C19EF3AE
:101268001D0E03019F6F2B0E0301A06F29C4A1F36C
:101278002AC4A2F32BC4A3F32CC4A4F3010E0001C7
:10128800BC6F0101EB51FA0F0101EB6F000E010178
:10129800016F020E006F240E0101026FCFEC5BF0AC
:1012A800000E0101016F020E006F240E0101026F92
:1012B800CFEC5BF0000E0101016F020E006F01011F
:1012C800EB51040F0101026FCFEC5BF0000E01013E
:1012D800016F020E006F000E0101026FCFEC5BF090
:1012E800000E0501CD6F000E0501D16F22D0000E52
:1012F8000101016F020E006F0501D151010D9B0E16
:10130800F324D96E030EF420DA6EDF500101026F68
:10131800CFEC5BF00501D151010D9B0EF324D96E82
:10132800030EF420DA6EDF500501CD1B0501D12B29
:1013380000D0FF0E0401E76FFF0E0401E86F010102
:10134800C1510401E96FEA6B0401E7510401E9277F
:101358000401E8510401EA230501D1510401EB6FAE
:10136800EC6B0401E9510401EB5D0401EC51800AC6
:101378000401ED6F0401EA51800A0401ED59D8A077
:10138800B6D7000E0101016F020E006FCDC502F144
:10139800CFEC5BF0000E0101016F020E006F0D0E25
:1013A8000101026FCFEC5BF0000E0101016F020E2C
:1013B800006F0A0E0101026FCFEC5BF0000E000116
:1013C800BC6F68D00101EA51F80F0101C16F020E2C
:1013D80003019B6F270E0101006F040E0101016FCD
:1013E800060E0101026F9B0E0101036F030E01013E
:1013F800046F010E0101056FC1C106F103EC6CF029
:1014080029C4C9F52AC4CAF52BC4CBF52CC4CCF51C
:10141800010E0101D56F3ED0020E0501D319D8A4E3
:1014280039D0020E0101C26F21EC79F00009D8B45D
:1014380031D0290E01010E6F040E01010F6FBF0E8E
:101448000101106F050E0101116FCE0E0101126F1F
:10145800050E0101136F95EC6CF00009D8B41AD091
:101468002D0E0101906F040E0101916F310E0101E3
:10147800926F040E0101936F0101EA51F30F01010C
:10148800946F280E0101956F010E0101966F4BECC8
:1014980013F000D0000E0101BB6FDC0E0101126FCA
:1014A800FF0E0101136F2AEC34F000D0010E94EC0A
:1014B80074F00009D8B417D0050E0101276FA00EEB
:1014C800266F020E0101286F0C0EB1EC6DF00D0EA7
:1014D80093EC77F00101D8510101D8B404D0000E83
:1014E8000101D86F00D00A0E94EC74F00009D8B44A
:1014F80020D0F90E0101066F010E0101076FE00E01
:101508000101086F010E0101096F040E01010A6F44
:1015180040EC72F00009D8A40CD0F90E0101186F44
:10152800010E0101196F000E01011A6F76EC3CF0F3
:1015380000D00B0E94EC74F00009D8B415D0000E4E
:1015480002014B6F000E4A6F000E02014D6F000E34
:101558004C6F000E02016B6F000E6A6F000E0201E5
:101568006D6F000E6C6F00D0000E94EC74F00009E3
:10157800D8B404D0000E0101C56F00D00B0E8BEC5F
:1015880076F00009D8B40BD0050E0101276FA00E24
:10159800266F020E0101286F0B0EB1EC6DF00A0EDA
:1015A8008BEC76F000D002013F5105E10B0E0201F1
:1015B8003E5DD8A00CD0070EF0EC4DF0000EECEC20
:1015C80077F0000E02013F6F000E3E6F00D0010160
:1015D800C451D8B40AD0000E01010D6F240E0C6F4F
:1015E8005FEC66F00101C40700D0000E0201826FB3
:1015F8000C0E8BEC76F00009D8B40CD0050E010166
:10160800276FA00E266F020E0101286F0C0EB1EC99
:101618006DF000D00101D451D8B41ED0050E0101DF
:10162800276FA00E266F020E0101286F0C0EB1EC79
:101638006DF0000E0101D46F0101C051D8B40CD077
:101648000101C3510101D8A407D0000E0101D86FD0
:101658000D0E93EC77F000D0170E94EC74F000099F
:10166800D8B40ED0070E23EC6AF0000E0101276FE4
:101678000A0E266F020E0101286F170EB1EC6DF0ED
:10168800170E8BEC76F00009D8B40BD0000E0101D0
:10169800276F0A0E266F020E0101286F170EB1EC94
:1016A8006DF00C0E94EC74F00009D8B40BD0040E55
:1016B8000101276FB00E266F010E0101286F0D0E74
:1016C800B1EC6DF00D0E94EC74F00009D8B40BD0A9
:1016D800020E0101276F580E266F010E0101286FB7
:1016E8000C0EB1EC6DF0110E94EC74F00009D8B446
:1016F80006D0010E0101DB6FD1EC2EF000D0100EE8
:1017080094EC74F00009D8B41DD021EC79F00009EC
:10171800D8A418D00101F7510101D8B404D03BEC8A
:101728006FF0000E0CD0F90E0101186F010E0101C7
:10173800196F010E01011A6F76EC3CF0010E0101E0
:10174800F76F00D0100E8BEC76F00009D8B40CD0EF
:10175800000E0101276F1E0E266F010E0101286F72
:10176800100EB1EC6DF000D00001ABBF08D03E0EFA
:101778000001AA5D080E0001AB59D8B00BD00101D9
:10178800C3510101D8B452D00101C051D8B455D0C9
:101798004DD053D00101C3510101D8B410D001017B
:1017A800C3510101D8B439D00001ABBF36D07D0E8A
:1017B8000001AA5D080E0001AB59D8A02ED0000E7A
:1017C8000101C36F010ED5EC70F001010051010158
:1017D8000111D8B404D00CD030D010D02ED00D0EBA
:1017E800D5EC70F00101005101010111D8B40DD000
:1017F8000101C051D8B421D001D01FD00101D85166
:101808000101D8A41AD015D018D00101C051D8A40C
:1018180014D0000E23EC6AF010D00101C35101016D
:10182800D8B40BD00101C051D8B407D0010E0101C2
:10183800C36F010E0101D86F00D0040E01010C6FB7
:10184800000E3EEC63F00CC13AF20DC13BF202010E
:101858003A5102014C5D02013B5102014D59D8B089
:1018680009D00101DF51D8A405D03AC24CF23BC2DD
:101878004DF200D096EC72F0BDEF06F03EEC79F038
:101888000009D8B4BDEF06F0F9EC78F0010E0101BB
:10189800DE6FBDEF06F0EBEF04F02DC121F12EC194
:1018A80022F134C123F131C106F132C107F133C14C
:1018B80008F11CEC5AF00101246F000E0101256F9C
:1018C8004EEC3FF00101576F2DC106F12EC107F113
:1018D8002FC108F130C109F1040E01010A6F0EECA5
:1018E80073F0010135510101D8A410D02DC106F1C2
:1018F8002EC107F1F60E0101086F020E0101096FF2
:10190800040E01010A6F0EEC73F000D0010E010104
:10191800336548EF13F031C1D9FF32C1DAFFDE0475
:10192800D8A41AD0050E0101336516D0F90E0101AD
:1019380033250101006F0101016BFF0E0123000E29
:101948000101036F050E026F19EC67F001010051E8
:1019580001010111D8B40CD0000E0101276F0A0E45
:10196800266F020E0101286F170EB1EC6DF000D042
:1019780031C1D9FF32C1DAFFDE04D8A466D1050E21
:101988000101336562D1F90E010133250101006FB0
:101998000101016BFF0E0123000E0101036F050E0B
:1019A800026F19EC67F00101005101010111D8A47F
:1019B8004CD1FF0E0101366FFF0E0101376F010197
:1019C80033510101386F396B010136510101382754
:1019D8000101375101013923010138510101312534
:1019E800D96E0101395101013221DA6E0001C75166
:1019F800DE18D8B424D0FF0E0101366FFF0E0101A6
:101A0800376F010133510101386F396B01013651CC
:101A180001013827010137510101392301013851EA
:101A280001013125D96E0101395101013221DA6EE6
:101A3800DE28D8A448EF13F002D048EF13F0000EC8
:101A48000101596F010E586FE7D0050E01015825A5
:101A58000101366F000E010159210101376F0101A3
:101A680033510101386F396B010136510101385D7D
:101A780001013951800A01013A6F01013751800A89
:101A880001013A59D8A082D0010159BF7FD0010184
:101A9800595105E1060E0101585DD8A077D031C132
:101AA80000F132C101F158C102F1400E0101036F8A
:101AB800010E0101046F000E0101056F040E010102
:101AC800066F03EC6CF0040E010158250101366F16
:101AD800000E010159210101376F01013651010141
:101AE8003125D96E0101375101013221DA6EDF50FB
:101AF8000101386F050E0101396F0101D8903833A3
:101B08000101392FFAD701013851070B01014C6F38
:101B1800040E010158250101366F000E01015921FB
:101B28000101376F0101365101013125D96E0101DB
:101B3800375101013221DA6EDF501F0B0101546F5A
:101B48001E0E0101546506D0000E01014F6F1F0ED5
:101B58004E6F0AD0010E0101542501014E6F01019B
:101B68004F6B000E4F2300D0400E0101156F010E80
:101B78000101166F57C117F14EC118F14CC119F187
:101B8800000E01011A6F24EC1EF03CD0010158052B
:101B980001015911D8A436D031C100F132C101F187
:101BA800010E0101026FE40E0101036F010E010134
:101BB800046F000E0101056F040E0101066FBFECF2
:101BC8006EF00009D8B41ED02DC10EF12EC10FF150
:101BD800040E010158250101366F000E010159213B
:101BE8000101376F0101365101013125D96E01011B
:101BF800375101013221DA6EDF500101106F7EEC9E
:101C080069F000D0050E010158250101586F000E3A
:101C1800010159210101596F010133510101366F49
:101C2800376B010136510101585D01015951800A94
:101C38000101386F01013751800A01013859D8B0C4
:101C480048EF13F002D748EF13F031C1D9FF32C182
:101C5800DAFF020EDE18D8A423D0010120EE02F02C
:101C68003151D9263251DA22DE5002018F19D8A417
:101C780048EF13F0000E0201866F000E0201B96FE3
:101C8800020E0201BA6F000E0101DA6F510E010156
:101C9800346148EF13F0010E02017D6F48EF13F035
:101CA80031C1D9FF32C1DAFF020EDF6448EF13F009
:101CB8000B0E0101336548EF13F0010E0101D46FDB
:101CC800000E47EC75F0010120EE02F03151D926E3
:101CD8003251DA22DE5002018F19D8A40AD0000E40
:101CE8000201866F000E0201B96F020E0201BA6F7F
:101CF80000D0010120EE01F03151D9263251DA220B
:101D0800DE5002018F19D8A498D1870E0101006F07
:101D1800020E0101016F000E0101026F31C103F1D2
:101D280032C104F1030E0101056F040E0101066FB3
:101D3800BFEC6EF00009D8B480D1010120EE01F0AB
:101D48003151D9263251DA22DF500101B96F010E23
:101D58000001B96F2DC106F12EC107F1EA0E01018C
:101D6800086F020E0101096F040E01010A6F0EECE3
:101D780073F0010120EE07F03151D9263251DA22F1
:101D88000101E451DE18D8A424D0010120EE08F0A6
:101D98003151D9263251DA220101E551DE18D8A491
:101DA80018D0010120EE09F03151D9263251DA223A
:101DB8000101E651DE18D8A40CD0010120EE0AF08A
:101DC8003151D9263251DA220101E751DE18D8B44F
:101DD80034D131C1D9FF32C1DAFF040EDE18D8B4CC
:101DE80029D101D027D131C100F132C101F1030E4F
:101DF8000101026FE40E0101036F010E0101046F7E
:101E0800000E0101056F040E0101066FBFEC6EF0B4
:101E18000009D8A40FD101D00DD1010120EE0BF09B
:101E28003151D9263251DA220201BB51DE5CD8B0D9
:101E380003D0000E1200FED0CCC250F1CDC251F139
:101E4800CEC252F1CFC253F131C100F132C101F11A
:101E5800070E0101026F440E0101036F010E01011B
:101E6800046F000E0101056F040E0101066F03ECFB
:101E78006CF0440E01010B6F010E01010C6F500E46
:101E880001010D6F010E01010E6F6EEC45F00101AD
:101E98004D6F01015569500E0101066F010E0101D8
:101EA800076FE00E0101086F010E0101096F040EB2
:101EB80001010A6F40EC72F00009D8A40AD0500E54
:101EC80001010E6F010E01010F6FFDEC6EF00101B3
:101ED800556F870E0101066F020E0101076FF20EA2
:101EE8000101086F020E0101096F040E01010A6F5A
:101EF8000EEC73F08FC2E9F266EC78F002018F6F96
:101F0800040E0201906F060E0201866F000E020198
:101F1800B96F020E0201BA6F31C100F132C101F18D
:101F2800030E0101026F8B0E0101036F020E010106
:101F3800046F000E0101056F040E0101066F03EC2A
:101F48006CF0E40E0101066F010E0101076F870EA8
:101F58000101086F020E0101096F040E01010A6FE9
:101F68000EEC73F0000E0201BB6F1D0E0201916FA3
:101F78002B0E0201926F440E0101006F010E010148
:101F8800016F000E0101026F910E0101036F020E35
:101F98000101046F020E0101056F040E0101066FB5
:101FA80003EC6CF0500E0101006F010E0101016F8E
:101FB800000E0101026F910E0101036F020E010173
:101FC800046F060E0101056F040E0101066F03EC94
:101FD8006CF02DC100F12EC101F1000E0101026F5C
:101FE800910E0101036F020E0101046F0A0E010137
:101FF800056F040E0101066F03EC6CF04DC19FF2F2
:1020080055C1A0F201015551060D040EF326000E2C
:10201800F422BD0EF324D96E0A0EF420DA6EDF50D6
:102028000F0B0201A16F110E0201B76F000E010123
:10203800DA6F00D0000E120000D002018651D8A439
:1020480008D00001B951D8A404D00201B851D8B4BD
:102058004ED08B0E0101066F020E0101076F030EB1
:10206800010131250101086F000E01013221010132
:10207800096F040E01010A6F40EC72F00009D8B430
:1020880033D002018651D8B42FD00001B951D8A459
:102098002BD00201B851D8A427D0010120EE01F0BD
:1020A8003151D9263251DA220201E951DE18D8A479
:1020B8001ED0F20E0101006F020E0101016F000E29
:1020C8000101026F31C103F132C104F1030E0101B4
:1020D800056F040E0101066FBFEC6EF00009D8B45D
:1020E80006D0000E120003D0000E120000D001012D
:1020F80020EE07F03151D9263251DA220101E4519C
:10210800DE18D8A424D0010120EE08F03151D926D8
:102118003251DA220101E551DE18D8A418D00101A4
:1021280020EE09F03151D9263251DA220101E65167
:10213800DE18D8A40CD0010120EE0AF03151D926BE
:102148003251DA220101E751DE18D8B4D0D00101AA
:1021580020EE0BF03151D9263251DA221F0EDE184B
:10216800D8A402D0000E1200870E0101066F020EDD
:102178000101076FF20E0101086F020E0101096FDC
:10218800040E01010A6F0EEC73F08FC2E9F201012F
:1021980020EE01F03151D9263251DA22DF50020106
:1021A8008F6F31C1D9FF32C1DAFFDF500201906F62
:1021B800060E0201866F000E0201B96F020E0201BF
:1021C800BA6F31C100F132C101F1070E0101026F8E
:1021D8008B0E0101036F020E0101046F000E010155
:1021E800056F040E0101066F03EC6CF031C100F1BC
:1021F80032C101F1030E0101026F870E0101036F65
:10220800020E0101046F000E0101056F040E0101A9
:10221800066F03EC6CF0010120EE0BF03151D9266A
:102228003251DA22DF500101366F010136290201ED
:10223800BB6F31C100F132C101F10C0E0101026F17
:10224800910E0101036F020E0101046F000E0101DE
:10225800056F01013351F40F0101066F03EC6CF0B7
:1022680001013351F40F0201B76F000E0101DA6F5B
:10227800010120EE01F03151D9263251DA22DF5026
:102288000101B96F010E0001B96F2DC106F12EC110
:1022980007F1EA0E0101086F020E0101096F040E31
:1022A80001010A6F0EEC73F02DC121F12EC122F14C
:1022B80034C123F1010E0101246F010E0101256FC4
:1022C8004EEC3FF00101576F870E0101156F020EAA
:1022D8000101166F57C117F1BBC218F1000E0101B9
:1022E800196F010E01011A6F24EC1EF0CDD1870E73
:1022F8000101066F020E0101076FF20E0101086F5E
:10230800020E0101096F040E01010A6F0EEC73F051
:102318008FC2E9F2010120EE01F03151D926325184
:10232800DA22DF5002018F6F31C1D9FF32C1DAFFE3
:10233800DF500201906F000E0201866F000E02014D
:10234800B96F020E0201BA6F31C100F132C101F159
:10235800070E0101026F8B0E0101036F020E0101CE
:10236800046F000E0101056F040E0101066F03ECF6
:102378006CF031C100F132C101F1030E0101026FAD
:10238800870E0101036F020E0101046F000E0101A7
:10239800056F040E0101066F03EC6CF031C100F10A
:1023A80032C101F1030E0101026F2FC103F130C1E7
:1023B80004F1000E0101056F040E0101066F03EC24
:1023C8006CF0010120EE0BF03151D9263251DA229E
:1023D800DF500101366F010136290201BB6F31C19F
:1023E80000F132C101F10C0E0101026F910E0101E1
:1023F800036F020E0101046F000E0101056F010158
:102408003351F40F0101066F03EC6CF001013351F5
:10241800F40F0201B76F010120EE01F03151D92606
:102428003251DA22DF500101B96F010E0001B96F94
:102438002DC106F12EC107F1EA0E0101086F020E47
:102448000101096F040E01010A6F0EEC73F0000E12
:102458000101DA6F2DC121F12EC122F134C123F11E
:10246800010E0101246F010E0101256F4EEC3FF0B2
:102478000101576F870E0101156F020E0101166FDA
:1024880057C117F1BBC218F1000E0101196F010EF7
:1024980001011A6F24EC1EF0090E02019019D8A44C
:1024A80005D002019251C4EC78F0EED002019139C6
:1024B800E842070B0101566F010156510101D8B4DA
:1024C8001ED00101C851D8B41AD00D0E0101312512
:1024D8000101006F000E010132210101016FF30EAD
:1024E800010133250101026F0101036BFF0E032374
:1024F80056C104F173EC61F0010E1200C5D0010160
:1025080056510101D8A409D00101C851D8A405D059
:10251800F3D703D0F1D71200B7D0020191511F0BA6
:102528000C0AD8B4E9D7020191511F0B1E0AD8A48E
:1025380007D002019251D8A403D0DED71200A4D04C
:10254800D0C248F1D1C249F1D2C24AF1D3C24BF14B
:1025580031C100F132C101F1070E0101026F3B0EDA
:102568000101036F010E0101046F000E0101056FE7
:10257800040E0101066F03EC6CF03B0E01010B6FBA
:10258800010E01010C6F480E01010D6F010E0101D2
:102598000E6F6EEC45F001013F69480E0101066FB0
:1025A800010E0101076FE00E0101086F010E010124
:1025B800096F040E01010A6F40EC72F00009D8A4FB
:1025C8000AD0480E01010E6F010E01010F6FFDECDC
:1025D8006EF001013F6F870E0101066F020E0101C7
:1025E800076FF20E0101086F020E0101096F040E58
:1025F80001010A6F0EEC73F08FC2E9F266EC78F015
:1026080002018F6F040E0201906F060E0201866FA1
:10261800000E0201B96F020E0201BA6F31C100F15A
:1026280032C101F1030E0101026F8B0E0101036F2C
:10263800020E0101046F000E0101056F040E010175
:10264800066F03EC6CF0E40E0101066F010E010148
:10265800076F870E0101086F020E0101096F040E52
:1026680001010A6F0EEC73F0000E0201BB6F1D0E24
:102678000201916F2C0E0201926F020E0201B76FD8
:10268800000E0101DA6F00D0000E1200120090C196
:102698002DF191C12EF1AA0E01012F6F010E01013A
:1026A800306F92C131F193C132F194C133F195C1C8
:1026B80034F196C135F151EC0CF00009D8B4120090
:1026C800000E0101A76F010120EE0CF09251D926EE
:1026D8009351DA22DF501F0B0101A86F0101AE6987
:1026E8001B0E0101A8650BD0010120EE0DF09251DF
:1026F800D9269351DA22DF500101AE6F00D0000EC7
:102708000101A06F0C0E010192250101006F000E5E
:10271800010193210101016F020E0101026F0C0EEC
:10272800010192250101036F000E010193210101AE
:10273800046F060E0101056F040E0101066FBFEC60
:102748006EF00009D8B426D00C0E010192250101C3
:10275800006F000E010193210101016F060E0101B6
:10276800026F0C0E010192250101036F000E010199
:1027780093210101046F0A0E0101056F040E010186
:10278800066FBFEC6EF00009D8B404D0010E010149
:10279800A06F00D0A0C1AFF1000E0101A16F0C0E17
:1027A800010192250101006F000E01019321010131
:1027B800016F030E0101026F0C0E01019225010148
:1027C800036F000E010193210101046F070E01013F
:1027D800056F040E0101066FBFEC6EF00009D8B456
:1027E80026D00C0E010192250101006F000E010197
:1027F80093210101016F070E0101026F0C0E010107
:1028080092250101036F000E010193210101046F5C
:102818000B0E0101056F040E0101066FBFEC6EF08F
:102828000009D8B404D0010E0101A16F00D0A1C1E4
:10283800A2F13EEF18F05BEF18F01AD05BEF18F03A
:10284800190E01019419D8A45BEF18F00D0E0101BF
:1028580092250101186F000E010193210101196FE2
:10286800000E01011A6F66EC70F05BEF18F046D0AD
:10287800010E0101A76F5BEF18F0010120EE0EF0C9
:102888009251D9269351DA22410EDE18D8A45BEF73
:1028980018F0010120EE0FF09251D9269351DA2257
:1028A800530EDE18D8A45BEF18F0010120EE10F0EB
:1028B8009251D9269351DA22460EDE18D8A4F7D3BE
:1028C800CE0E0101066F030E0101076F110E010103
:1028D80092250101086F000E010193210101096F82
:1028E8000B0E01010A6F40EC72F00009D8B4DFD377
:1028F800000E0101DB6FD1EC2EF0D9D30101AE51EE
:10290800030AD8B4B5D7290AD8B4B7D7D0D306D1D3
:102918000101AF510101D8B4CAD30E0E01019225AD
:102928000101186F000E010193210101196F000EBA
:1029380001011A6F66EC70F0BAD30101A2510101CE
:10294800D8B417D00F0E010192250101206F000E97
:10295800010193210101216F010120EE0EF0925136
:10296800D9269351DA22DF500101226F9EEC51F0F3
:102978009ED3AA0E0101186F010E0101196F2D0EC9
:1029880001011A6F010120EE01F09251D9269351ED
:10299800DA22DF5001011B6F0CEC74F088D30101BF
:1029A800A2510101D8B417D00F0E010192250101DF
:1029B8000E6F000E0101932101010F6F010120EE3E
:1029C8000EF09251D9269351DA22DF500101106F8F
:1029D8002EEC4DF06CD3AA0E0101186F010E010107
:1029E800196F2D0E01011A6F010120EE01F09251AD
:1029F800D9269351DA22DF5001011B6F0CEC74F0D9
:102A080056D30101AF510101D8A451D301D04FD3FE
:102A1800AA0E0101186F010E0101196F2D0E010197
:102A28001A6F010120EE01F09251D9269351DA2252
:102A3800DF5001011B6F0CEC74F039D30101AF5169
:102A48000101D8B434D30E0E010192250101186F8B
:102A5800000E010193210101196FC6EC73F027D311
:102A6800010120EE0EF09251D9269351DA22520E2E
:102A7800DE18D8A419D0010120EE0FF09251D92602
:102A88009351DA22530EDE18D8A40ED0010120EE9D
:102A980010F09251D9269351DA22490EDE18D8A4A3
:102AA80003D0ACEC78F003D3AA0E0101186F010E25
:102AB8000101196F2D0E01011A6F010120EE01F0BD
:102AC8009251D9269351DA22DF5001011B6F0CEC89
:102AD80074F0EDD20101AF510101D8B4E8D20E0E65
:102AE800010192250101186F000E010193210101D6
:102AF800196F6CEC72F0DBD20101AF510101D8B44F
:102B0800D6D20E0E010192250101186F000E0101A7
:102B180093210101196F75EC6AF0C9D20101AE5118
:102B2800000AD8B4F5D6040AD8B4C1D2240AD8B455
:102B380004D7010AD8B433D7030AD8B462D7010A34
:102B4800D8B47CD7070AD8B48BD7010AD8B4C2D76F
:102B58000B0AD8B4D1D7ABD26CD20E0E0101922594
:102B680001012F6F000E010193210101306FE9EC83
:102B78003DF0AA0E0101186F010E0101196FC6EC94
:102B880073F095D292C100F193C101F10E0E0101CB
:102B9800026FF90E0101036F010E0101046F000EAF
:102BA8000101056F040E0101066F03EC6CF00D0EB8
:102BB800010192250101186F000E01019321010105
:102BC800196F6CEC72F073D292C100F193C101F1EC
:102BD8000E0E0101026F92C103F193C104F1170EA9
:102BE8000101056F040E0101066FBFEC6EF00009CC
:102BF800D8B499D092C100F193C101F1170E010127
:102C0800026F92C103F193C104F1200E0101056F17
:102C1800040E0101066FBFEC6EF00009D8B483D032
:102C280092C100F193C101F1120E0101026F92C12C
:102C380003F193C104F11B0E0101056F040E01019C
:102C4800066FBFEC6EF00009D8B46DD092C100F1E8
:102C580093C101F11B0E0101026F92C103F193C1EF
:102C680004F1240E0101056F040E0101066FBFEC8B
:102C78006EF00009D8B457D0010120EE1FF0925130
:102C8800D9269351DA22010110EE16F09251E1266D
:102C98009351E222DE50E618D8A445D0010120EE77
:102CA80028F09251D9269351DA22010110EE1FF033
:102CB8009251E1269351E222DE50E618D8A433D08F
:102CC8000E0E0101922501012A6F000E01019321C8
:102CD80001012B6F120E0101922501012C6F000ECC
:102CE8000101932101012D6F010120EE16F092518F
:102CF800D9269351DA22DF5001012E6FC0EC72F011
:102D0800AA0E0101186F010E0101196F0E0E0101C3
:102D1800922501011A6F000E0101932101011B6F19
:102D28002AEC50F0C4D1AA0E0101186F010E01015E
:102D3800196F2D0E01011A6F010120EE01F0925159
:102D4800D9269351DA22DF5001011B6F0CEC74F085
:102D5800AED10E0E0101922501010E6F000E010188
:102D6800932101010F6FCDEC67F0AA0E0101186FD6
:102D7800010E0101196F010E01011A6F66EC70F066
:102D880096D1010120EE0EF09251D9269351DA2204
:102D9800520EDE18D8A48BD1010120EE0FF092510B
:102DA800D9269351DA22530EDE18D8A480D1010116
:102DB80020EE10F09251D9269351DA22540EDE18E3
:102DC800D8A475D1FF0073D1010120EE0EF0925105
:102DD800D9269351DA22530EDE18D8A468D10101FE
:102DE80020EE0FF09251D9269351DA22460EDE18C2
:102DF800D8A45DD1010120EE10F09251D92693514B
:102E0800DA22540EDE18D8A452D1AA0E0101186F86
:102E1800010E0101196FC6EC6AF0010120EE11F0F4
:102E28009251D9269351DA22DF500001D96F150E3D
:102E38000101276F7C0E266F000E0101286F110E0D
:102E4800B1EC6DF034D1010120EE0EF09251D9268B
:102E58009351DA22530EDE18D8A458D0010120EE7F
:102E68000FF09251D9269351DA22520EDE18D8A4C7
:102E78004DD0010120EE10F09251D9269351DA225B
:102E8800460EDE18D8A442D0010120EE11F092516E
:102E9800D9269351DA22040EDF6038D0010120EEE2
:102EA80011F09251D9269351DA22DF5001019F6F18
:102EB800010120EE12F09251D9269351DA22DF5007
:102EC8000101976F010197510101A46FA56B0101E1
:102ED800A4510101A56FA46B010120EE13F09251DA
:102EE800D9269351DA22DF500101976F01019751DA
:102EF8000101A427000EA523A4C126F1A5C127F12D
:102F08009FC128F1010EB1EC6DF0D1D0AA0E0101DC
:102F1800186F010E0101196F2D0E01011A6F0101C1
:102F280020EE01F09251D9269351DA22DF500101A7
:102F38001B6F0CEC74F0BBD0010120EE0EF0925127
:102F4800D9269351DA22DF50D80901019E6F9EC11C
:102F580002F13C0E62EC75F0AAD00101AF510101FB
:102F6800D8B4A5D0010120EE1BF09251D926935177
:102F7800DA22DF500101976F010197510101B26F09
:102F8800B36B0101B2510101B36FB26B010120EEC5
:102F98001AF09251D9269351DA22DF500101976F26
:102FA800010197510101B227000EB3230101B205B7
:102FB800090E0101B359D8A006D0000E0101B36F64
:102FC800000EB26F74D0010120EE1CF09251D92688
:102FD8009351DA22DF500001D96F0E0E01019225BC
:102FE8000101186F000E010193210101196F2DECE9
:102FF80070F0010120EE1DF09251D9269351DA228A
:10300800DF500101EC6F1E0E010192250101066FD0
:10301800000E010193210101076FCE0E0101086F17
:10302800030E0101096F0B0E01010A6F0EEC73F01C
:103038003ED00101AE51040AD8B48FD7270AD8B4BC
:103048008CD5060AD8B49ED5030AD8B4BDD5010AD2
:10305800D8B47FD60F0AD8B494D6010AD8B427D0EA
:10306800030AD8B4B1D66A0AD8B4EDD6BE0AD8B421
:1030780063D71DD00101A851000AD8B418D0020A9C
:10308800D8B43CEF14F0060AD8B411D0080AD8B462
:1030980024EF14F0100AD8B40AD0010AD8B42ED4F8
:1030A800030AD8B43BD5010AD8B4C3D700D001016C
:1030B800A7510101D8A420D00C0E010192250101CD
:1030C800836F000E010193210101846F95C185F181
:1030D800AA0E0101866F010E0101876FA8C188F150
:1030E800AEC189F101019451F40F01018A6F9CEC82
:1030F80031F00101A76F00D00101A7510101D8B437
:103108001200E80E0101126FFF0E0101136F2AEC85
:1031180034F00101C251D8A423D1010E0001BC6FC3
:1031280001019451FD0F0101A36F000E0101016F10
:10313800020E006F240E0101026FCFEC5BF0000E4F
:103148000101016F020E006F240E0101026FCFEC26
:103158005BF0000E0101016F020E006FA3C102F1C6
:10316800CFEC5BF0000E0101016F020E006F000E44
:103178000101026FCFEC5BF0000E0101A66F000E9B
:103188000101016F020E006F010120EE03F0925160
:10319800D9269351DA22DF500101026FCFEC5BF0A0
:1031A800010120EE03F09251D9269351DA22DF5023
:1031B8000101A61B000E0101016F020E006F010143
:1031C80020EE04F09251D9269351DA22DF50010102
:1031D800026FCFEC5BF0010120EE04F09251D9268A
:1031E8009351DA22DF500101A61B000E0101016F85
:1031F800020E006F010120EE05F09251D92693517D
:10320800DA22DF500101026FCFEC5BF0010120EE02
:1032180005F09251D9269351DA22DF500101A61BFD
:10322800000E0101016F020E006F010120EE06F091
:103238009251D9269351DA22DF500101026FCFEC67
:103248005BF0010120EE06F09251D9269351DA2263
:10325800DF500101A61B000E0101A96F38D0000E36
:103268000101016F020E006F0101A9510101976F61
:10327800986B0C0E01019727000E982301019751B6
:1032880001019225D96E0101985101019321DA6E4D
:10329800DF500101026FCFEC5BF00101A951010180
:1032A800976F986B0C0E01019727000E9823010168
:1032B800975101019225D96E01019851010193217D
:1032C800DA6EDF500101A61B0101A92B00D0F70E11
:1032D8000101976FFF0E0101986F0101A3510101D0
:1032E800996F9A6B01019751010199270101985132
:1032F80001019A230101A95101019B6F9C6B0101F6
:10330800995101019B5D01019C51800A01019D6F4A
:1033180001019A51800A01019D59D8A0A0D7000E39
:103328000101016F020E006FA6C102F1CFEC5BF044
:10333800000E0101016F020E006F0D0E0101026FF8
:10334800CFEC5BF0000E0101016F020E006F0A0E58
:103358000101026FCFEC5BF0000E0001BC6F00D0E2
:10336800D60E0101126FFF0E0101136F2AEC34F023
:103378001200120001015A6F02018651D8A414D01C
:103388000001B951D8A410D00201B851D8A40CD06A
:1033980001014A05D8A408D0010E0101486F0101B6
:1033A8005A5182EC78F008D0000E0101486F0101F3
:1033B8005A5182EC78F000D0690E01015B6F030E60
:1033C80001015C6F19EC79F00009D8A416D0DCC2B1
:1033D8000CF1DDC20DF15FEC66F0010E01010C2568
:1033E8000201306F000E01010D210201316F000E44
:1033F8000201DF6F000EDE6F00D015EC79F00009D6
:10340800D8B4DED00201B851D8B47BD001015A51EA
:103418000101D8B476D0000E0201B86F5BC1D9FFA4
:103428005CC1DAFF90C2DFFF010120EE01F05B51C1
:10343800D9265C51DA228FC2DFFF010120EE02F0AB
:103448005B51D9265C51DA22B9C1DFFF870E010131
:10345800006F020E0101016F000E0101026F5BC1D6
:1034680003F15CC104F1030E0101056F040E0101B3
:10347800066F03EC6CF08B0E0101006F020E010168
:10348800016F000E0101026F5BC103F15CC104F121
:10349800070E0101056F040E0101066F03EC6CF0C5
:1034A800010120EE0BF05B51D9265C51DA22BBC238
:1034B800DFFF910E0101006F020E0101016F000E86
:1034C8000101026F5BC103F15CC104F10C0E010143
:1034D800056FB7C206F103EC6CF0E00E0101326F24
:1034E800010E0101336F5E0E0101346F030E0101FD
:1034F800356F0201B7510C0F0101366FEBEC61F02B
:103508005BD0020130510201DE1956E1020131514E
:103518000201DF19D8A450D001015A510101D8B4D1
:1035280042D021EC79F00009D8B43DD00101F05126
:10353800D8B427D0DAEC28F00101516FE00E010170
:10354800326F010E0101336F5E0E0101346F030EFD
:103558000101356F51C136F1EBEC61F00009D8A4D7
:103568002BD001D029D00201DC510201305D0201CB
:10357800DD5102013159D8B01FD00201304B312B37
:103588001BD0E00E0101326F010E0101336F5E0E98
:103598000101346F030E0101356F000E0101366F12
:1035A800EBEC61F009D0A80E0101126FFE0E0101CB
:1035B800136F2AEC34F000D00201DE4BDF2BDBD294
:1035C800C8C256F1C9C257F1CAC258F1CBC259F1A3
:1035D8000101DA51D8A4C1D00101DA2B0201B95195
:1035E800D8A4B8D0010E02018665C5D28B0E0101A0
:1035F8000B6F020E01010C6F560E01010D6F010ECB
:1036080001010E6F6EEC45F00101526F0001B951D6
:10361800D8B416D0560E0101066F010E0101076FCE
:10362800EA0E0101086F020E0101096F040E010183
:103638000A6F40EC72F00009D8A49DD201D09BD249
:10364800BAC20CF101010D6B5FEC66F001010C517F
:103658000201B96F01015A510101D8B48CD202019B
:1036680086070201BA2B1F0E0101526184D25BC189
:10367800D9FF5CC1DAFF90C2DFFF010120EE01F043
:103688005B51D9265C51DA228FC2DFFF010120EE9F
:1036980002F05B51D9265C51DA22B9C1DFFF870EEF
:1036A8000101006F020E0101016F000E0101026F9E
:1036B8005BC103F15CC104F1030E0101056F040E47
:1036C8000101066F03EC6CF08B0E0101006F020E16
:1036D8000101016F000E0101026F5BC103F15CC1C2
:1036E80004F1070E0101056F040E0101066F03ECDA
:1036F8006CF0010120EE0BF05B51D9265C51DA2207
:10370800BBC2DFFF910E0101006F020E0101016FC4
:10371800000E0101026F5BC103F15CC104F10C0EE4
:103728000101056FB7C206F103EC6CF0560E0101FA
:10373800326F010E0101336F5E0E0101346F030E0B
:103748000101356F0201B7510C0F0101366FEBEC27
:1037580061F011D20201B9070ED20101DA05D8A42D
:10376800E8D00001B951D8B4E4D00101DA2B8B0EAE
:1037780001010B6F020E01010C6F560E01010D6F56
:10378800010E01010E6F6EEC45F00101536F010E41
:10379800020186659CD0560E0101066F010E0101DB
:1037A800076FEA0E0101086F020E0101096F040E8E
:1037B80001010A6F40EC72F00009D8B488D0000EFD
:1037C8000201866F000E0201B96F020E0201BA6F84
:1037D80001015A510101D8B4CED11F0E0101536124
:1037E800CAD1000E0001B96F5BC1D9FF5CC1DAFF15
:1037F80090C2DFFF010120EE01F05B51D9265C5138
:10380800DA228FC2DFFF010120EE02F05B51D926D8
:103818005C51DA22B9C1DFFF870E0101006F020E89
:103828000101016F000E0101026F5BC103F15CC170
:1038380004F1030E0101056F040E0101066F03EC8C
:103848006CF08B0E0101006F020E0101016F000E7A
:103858000101026F5BC103F15CC104F1070E0101B4
:10386800056F040E0101066F03EC6CF0010120EEF8
:103878000BF05B51D9265C51DA22BBC2DFFF910EF7
:103888000101006F020E0101016F000E0101026FBC
:103898005BC103F15CC104F10C0E0101056FB7C2F5
:1038A80006F103EC6CF0560E0101326F010E0101B6
:1038B800336F5E0E0101346F030E0101356F020193
:1038C800B7510C0F0101366FEBEC61F054D1000ECB
:1038D8000001B96F5BC1D9FF5CC1DAFF020EDF6E70
:1038E800010120EE01F05B51D9265C51DA22000E6D
:1038F800DF6E010120EE02F05B51D9265C51DA221D
:10390800B9C1DFFF01015A510101D8B434D1EA0E1F
:103918000101326F020E0101336F5E0E0101346F37
:10392800030E0101356F030E0101366FEBEC61F0F8
:1039380022D1020E0101DA651BD102018605D8A445
:1039480013D18B0E01010B6F020E01010C6F560E85
:1039580001010D6F010E01010E6F6EEC45F00101C2
:10396800546F01015569560E0101066F010E0101E0
:10397800076FE00E0101086F010E0101096F040EC7
:1039880001010A6F40EC72F00009D8A40BD0560E62
:1039980001010E6F010E01010F6FFDEC6EF00101C8
:1039A800556F00D0040E02019019D8B414D0870EB8
:1039B8000101066F020E0101076FE40E0101086F95
:1039C800010E0101096F040E01010A6F40EC72F04B
:1039D8000009D8B40AD0000E0201866F000E020159
:1039E800B96F020E0201BA6FBFD0870E0101066FD0
:1039F800020E0101076FE40E0101086F010E0101BB
:103A0800096F040E01010A6F40EC72F00009D8A496
:103A1800ABD001D0A9D0870E0101066F020E0101BB
:103A2800076FF20E0101086F020E0101096F040E03
:103A380001010A6F0EEC73F08FC2E9F266EC78F0C0
:103A480002018F6F040E0201906F060E0201866F4D
:103A5800000E0201B96F020E0201BA6F8B0E01014E
:103A6800066F020E0101076F4D0E0101086F010E6E
:103A78000101096F040E01010A6F0EEC73F0870E45
:103A88000101066F020E0101076F8B0E0101086F1D
:103A9800020E0101096F040E01010A6F0EEC73F0AA
:103AA800E40E0101066F010E0101076F870E010187
:103AB800086F020E0101096F040E01010A6F0EEC76
:103AC80073F0000E0201BB6F1D0E0201916F2B0EE9
:103AD8000201926F4D0E0101006F010E0101016F8D
:103AE800000E0101026F910E0101036F020E010128
:103AF800046F020E0101056F040E0101066F03EC4D
:103B08006CF0560E0101006F010E0101016F000EED
:103B18000101026F910E0101036F020E0101046F92
:103B2800060E0101056F040E0101066F03EC6CF02F
:103B380054C19BF255C19CF201015551060D040E6A
:103B4800F326000EF422BD0EF324D96E0A0EF420DB
:103B5800DA6EDF500F0B02019D6F0D0E0201B76F79
:103B6800000E0101DA6F00D0000E0101DA6F03D0F8
:103B78000101DA2B00D019EC79F00009D8A40CD097
:103B88000201742B020E0201746506D0B0EC4EF0EF
:103B9800000E0201746F00D002016E2B0101EF517B
:103BA80002016E5DD8A03FD00101BA51020DC90EC5
:103BB800F324D96E080EF420DA6EDF38E832E832E2
:103BC800030B0009D8B422D0010E01014B6F01018B
:103BD800BA51020DC90EF324D96E080EF420DA6E1C
:103BE800DF3801014C6F4C334C31030B4C6F010132
:103BF8004B5101014C5F01014C3B4C374C37DF50B6
:103C080001014C193F0B4C19DF6E00D00101BA2B92
:103C1800F90E0101BA6503D0000E0101BA6F000E5A
:103C280002016E6F00D0070E94EC74F00009D8B44E
:103C380012000CEC42F0010E0101F06F12001200AC
:103C480015C106F116C107F1E40E0101086F010E56
:103C58000101096F040E01010A6F40EC72F00009BE
:103C6800D8A4120001D0120001011729D8B41200FB
:103C780001D01200030E0101086F01011751060D52
:103C8800050EF326000EF422BD0EF324D96E0A0E9B
:103C9800F420DA6EDF50DAEC4AF00101196151D0F4
:103CA800030E0101086F01011751060D050EF326D9
:103CB800000EF422BD0EF324D96E0A0EF420DA6E3B
:103CC800DF50DAEC4AF001011B6F01011751060DB4
:103CD800040EF326000EF422BD0EF324D96E0A0E4C
:103CE800F420DA6EDF380F0B96EC75F001011B5DDE
:103CF800D8B012D001011751060D040EF326000E9C
:103D0800F422BD0EF324D96E0A0EF420DA6EDF38E1
:103D18000F0B96EC75F03AD0030E0101086F010104
:103D28001751060D050EF326000EF422BD0EF324DE
:103D3800D96E0A0EF420DA6EDF50DAEC4AF026D09B
:103D48002BD001011751060D040EF326000EF422A4
:103D5800BD0EF324D96E0A0EF420DA6EDF380F0B8D
:103D680096EC75F00101196114D001011751060D87
:103D7800040EF326000EF422BD0EF324D96E0A0EAB
:103D8800F420DA6EDF380F0B96EC75F001011F6F27
:103D980003D019C11FF100D0000E0101206FF90EE8
:103DA8000101206501D06BD215C104F116C105F1DE
:103DB800010120517FEC5FF00009D8B45DD2010108
:103DC8002051020DC90EF324D96E080EF420DA6EC4
:103DD800DF503F0B2BEC69F001011C6F01012051F2
:103DE800020D010EF326000EF422C90EF324D96E3B
:103DF800080EF420DA6EDF38E832070B01011B6F7A
:103E080001011C5101011B5DD8B019D01CC11BF167
:103E180001012051020D010EF326000EF422C90EF5
:103E2800F324D96E080EF420DA6E01011B3B1B4700
:103E3800DF5001011B191F0B1B19DF6E00D0010198
:103E48001A510101D8B42DD001012051020D010EE3
:103E5800F326000EF422C90EF324D96E080EF420BE
:103E6800DA6EDF5001011819E00B1819DF6E010135
:103E78002051020DC90EF324D96E080EF420DA6E13
:103E8800DF5001011719C00B1719DF6E010120510E
:103E9800020DC90EF324D96E080EF420DA6EC00E96
:103EA800DF1201012051020DC90EF324D96E080E4C
:103EB800F420DA6EDF503F0B01011719D8A444D063
:103EC8001FC11BF101012051020D010EF326000E46
:103ED800F422C90EF324D96E080EF420DA6E01011B
:103EE8001B3B1B47DF5001011B191F0B1B19DF6E02
:103EF80001012051020D010EF326000EF422C90E15
:103F0800F324D96E080EF420DA6EDF501F0B01017E
:103F18001819D8B405D00101175137EC76F000D044
:103F280001012051020D010EF326000EF422C90EE4
:103F3800F324D96E080EF420DA6EDF500101181947
:103F4800E00B1819DF6E120001012051020DC90E95
:103F5800F324D96E080EF420DA6EDF38E832E8323E
:103F6800030B0009D8A4120001012051020D010E13
:103F7800F326000EF422C90EF324D96E080EF4209D
:103F8800DA6EDF38E832070B070AD8A43BD0010104
:103F98002051020D010EF326000EF422C90EF3245F
:103FA800D96E080EF420DA6EDF5001011819E00B03
:103FB8001819DF6E01012051020DC90EF324D96EC4
:103FC800080EF420DA6EDF5001011719C00B17191B
:103FD800DF6E1FC11BF101012051020D010EF326F6
:103FE800000EF422C90EF324D96E080EF420DA6EFE
:103FF80001011B3B1B47DF5001011B191F0B1B193C
:10400800DF6E120001012051020D010EF326000E91
:10401800F422C90EF324D96E080EF420DA6EDF50AC
:104028001F0B0101186145D001011F510001DA5D24
:10403800D8A0120001012051020D010EF326000E36
:10404800F422C90EF324D96E080EF420DA6EDF507C
:1040580001011819E00B1819DF6E01012051020D3A
:10406800C90EF324D96E080EF420DA6EDF50010170
:104078001719C00B1719DF6E1FC11BF10101205161
:10408800020D010EF326000EF422C90EF324D96E98
:10409800080EF420DA6E01011B3B1B47DF500101BB
:1040A8001B191F0B1B19DF6E0101175137EC76F036
:1040B800120001012051020D010EF326000EF42218
:1040C800C90EF324D96E080EF420DA6EDF501F0BE8
:1040D80001011819D8A461D001012051020D010E67
:1040E800F326000EF422C90EF324D96E080EF4202C
:1040F800DA6EDF38E832070B01011F611200010197
:104108002051020D010EF326000EF422C90EF324ED
:10411800D96E080EF420DA6EDF38E832070B00019A
:10412800DA61120001012051020D010EF326000E82
:10413800F422C90EF324D96E080EF420DA6EDF508B
:1041480001011819E00B1819DF6E01012051020D49
:10415800C90EF324D96E080EF420DA6EDF5001017F
:104168001719C00B1719DF6E1FC11BF10101205170
:10417800020D010EF326000EF422C90EF324D96EA7
:10418800080EF420DA6E01011B3B1B47DF500101CA
:104198001B191F0B1B19DF6E120001012051020DA4
:1041A800010EF326000EF422C90EF324D96E080E70
:1041B800F420DA6EDF501F0B01011B6F010118514B
:1041C80001011B5DD8B012000001DA5101011F5D29
:1041D800D8B0120001012051020D010EF326000E85
:1041E800F422C90EF324D96E080EF420DA6EDF38F3
:1041F800E832070B0001DA61120001012051020DBB
:10420800010EF326000EF422C90EF324D96E080E0F
:10421800F420DA6EDF5001011819E00B1819DF6E6F
:1042280001012051020DC90EF324D96E080EF420A5
:10423800DA6EDF5001011719C00B1719DF6E1FC1A5
:104248001BF101012051020D010EF326000EF4228C
:10425800C90EF324D96E080EF420DA6E01011B3B57
:104268001B47DF5001011B191F0B1B19DF6E0101D2
:10427800175137EC76F012000101202B90D51F0E54
:104288000101186160D0000E01011E6FF90E0101D5
:104298001E6501D058D0E00E0101046F010E010126
:1042A800056F01011E517FEC5FF00009D8B447D0BB
:1042B80015C107F116C108F101011E5124EC6DF07A
:1042C80001011E51020D010EF326000EF422C90E43
:1042D800F324D96E080EF420DA6EDF5001011819A4
:1042E800E00B1819DF6E01011E51020DC90EF324EF
:1042F800D96E080EF420DA6EDF5001011719C00BD1
:104308001719DF6E1FC11BF101011E51020D010EAD
:10431800F326000EF422C90EF324D96E080EF420F9
:10432800DA6E01011B3B1B47DF5001011B191F0BF4
:104338001B19DF6E0101175137EC76F012000101ED
:104348001E2BA4D700D01F0E010118611200AEC0A9
:104358001DF1F90E01011D6502D0120012000101C4
:104368001D51020D010EF326000EF422C90EF3248E
:10437800D96E080EF420DA6EDF501F0B1F0AD8B46E
:104388000ED001011D51020DC90EF324D96E080E7D
:10439800F420DA6EDF503F0B3F0AD8A454D015C181
:1043A80007F116C108F10001AE5124EC6DF00001CF
:1043B800AE51020D010EF326000EF422C90EF324AD
:1043C800D96E080EF420DA6EDF5001011819E00BDF
:1043D8001819DF6E0001AE51020DC90EF324D96E13
:1043E800080EF420DA6EDF5001011719C00B1719F7
:1043F800DF6E1FC11BF10001AE51020D010EF32645
:10440800000EF422C90EF324D96E080EF420DA6ED9
:1044180001011B3B1B47DF5001011B191F0B1B1917
:10442800DF6E0001AE51020DC90EF324D96E080EDD
:10443800F420DA6E3F0EDF160101175137EC76F0E3
:104448001DC1AEF01200F90E01011D19D8A404D047
:10445800000E0001AE6F00D001011D2BF90E010105
:104468001D657DD7120012001200000E496E000E65
:104478004A6E000E0001B16F000E0001B76F020E08
:1044880094EC74F00009D8B435D1010E496E0001DE
:10449800B22B020E0001B219D8A4FBD0000E000105
:1044A800B26FF7D0000E0001B16F000E0101276F47
:1044B8001E0E266F000E0101286F020EB1EC6DF082
:1044C80019D1010E0001B16F000E0101276F1E0EF8
:1044D800266F000E0101286F020EB1EC6DF00AD1B3
:1044E8000001B205D8A404D0010E0001B16F00D0BC
:1044F800000E0101276F400E266F000E0101286F84
:10450800020EB1EC6DF0F6D00001B205D8A404D0CB
:10451800010E0001B16F00D0000E0101276F7D0E62
:10452800266F000E0101286F020EB1EC6DF0E2D08B
:1045380000D00001B205D8A404D0010E0001B16F6B
:1045480000D0000E0101276FFA0E266F000E010140
:10455800286F020EB1EC6DF0CDD00001B205D8A4E1
:1045680004D0010E0001B16F00D0010E0101276FC8
:10457800F40E266F000E0101286F020EB1EC6DF0EB
:10458800B9D00001B205D8A404D0010E0001B16F62
:1045980000D0030E0101276FE80E266F000E0101FF
:1045A800286F020EB1EC6DF0A5D00001B205D8A4B9
:1045B80004D0010E0001B16F00D0090E0101276F70
:1045C800C40E266F000E0101286F020EB1EC6DF0CB
:1045D80091D00001B205D8A404D0010E0001B16F3A
:1045E80000D0130E0101276F880E266F000E0101FF
:1045F800286F020EB1EC6DF07DD00001B205D8A491
:1046080021D0010E0001B16F3850D8A40DD0000E92
:104618000101276F500E266F000E0101286F020E50
:10462800B1EC6DF0010E0CD0090E0101276F740E6C
:10463800266F000E0101286F020EB1EC6DF0000E1E
:10464800386E58D03850D8B40CD0000E0101276FFE
:10465800500E266F000E0101286F020EB1EC6DF0AE
:1046680049D0090E0101276F740E266F000E010153
:10467800286F020EB1EC6DF03DD0000E0101276FDE
:104688001E0E266F000E0101286F020EB1EC6DF0B0
:1046980031D00001B051000AD8B404D7010AD8B407
:1046A80010D7030AD8B41CD7010AD8B42DD7070AE3
:1046B800D8B43FD7010AD8B450D7030AD8B461D7C1
:1046C8000D0AD8B436D7070AD8B433D7010AD8B4F4
:1046D80030D7030AD8B42DD7010AD8B42AD71F0A6D
:1046E800D8B463D7010AD8B474D7030AD8B485D725
:1046F800C4D700D0030E94EC74F00009D8B435D1B7
:10470800010E4A6E0001B32B020E0001B319D8A4A2
:10471800FBD0000E0001B36FF7D0000E0001B76F99
:10472800000E0101276F1E0E266F000E0101286F73
:10473800030EB1EC6DF019D1010E0001B76F000E38
:104748000101276F1E0E266F000E0101286F030E50
:10475800B1EC6DF00AD10001B305D8A404D0010E64
:104768000001B76F00D0000E0101276F400E266FC1
:10477800000E0101286F030EB1EC6DF0F6D00001B8
:10478800B305D8A404D0010E0001B76F00D0000E05
:104798000101276F7D0E266F000E0101286F030EA1
:1047A800B1EC6DF0E2D000D00001B305D8A404D07C
:1047B800010E0001B76F00D0000E0101276FFA0E3D
:1047C800266F000E0101286F030EB1EC6DF0CDD0FD
:1047D8000001B305D8A404D0010E0001B76F00D0C2
:1047E800010E0101276FF40E266F000E0101286FDC
:1047F800030EB1EC6DF0B9D00001B305D8A404D014
:10480800010E0001B76F00D0030E0101276FE80EFB
:10481800266F000E0101286F030EB1EC6DF0A5D0D4
:104828000001B305D8A404D0010E0001B76F00D071
:10483800090E0101276FC40E266F000E0101286FB3
:10484800030EB1EC6DF091D00001B305D8A404D0EB
:10485800010E0001B76F00D0130E0101276F880EFB
:10486800266F000E0101286F030EB1EC6DF07DD0AC
:104878000001B305D8A421D0010E0001B76F3B5049
:10488800D8A40DD0000E0101276F500E266F000E20
:104898000101286F030EB1EC6DF0010E0CD0090E6A
:1048A8000101276F740E266F000E0101286F030E99
:1048B800B1EC6DF0000E3B6E58D03B50D8B40CD024
:1048C800000E0101276F500E266F000E0101286FA0
:1048D800030EB1EC6DF049D0090E0101276F740E7B
:1048E800266F000E0101286F030EB1EC6DF03DD06C
:1048F800000E0101276F1E0E266F000E0101286FA2
:10490800030EB1EC6DF031D00001B651000AD8B4F5
:1049180004D7010AD8B410D7030AD8B41CD7010A9F
:10492800D8B42DD7070AD8B43FD7010AD8B450D77E
:10493800030AD8B461D70D0AD8B436D7070AD8B451
:1049480033D7010AD8B430D7030AD8B42DD7010A0F
:10495800D8B42AD71F0AD8B463D7010AD8B474D7F1
:10496800030AD8B485D7C4D700D0090E0001B019FE
:10497800D8A40CD04A50D8B409D00001B3510001D2
:10498800D8A404D0010E0001B16F00D00A0E0001B6
:10499800B619D8A40CD04950D8B409D00001B251E6
:1049A8000001D8A404D0010E0001B76F00D0080E92
:1049B8000001B019D8A40CD04A50D8B409D00001CD
:1049C800B7510001D8B404D0010E0001B16F00D076
:1049D800070E0001B619D8A40CD04950D8B409D094
:1049E8000001B1510001D8B404D0010E0001B76F25
:1049F80000D00001B7510001D8B40DD03A50D8B456
:104A080002D03A0600D00001B5510001D8B403D055
:104A18000001B50700D00001B1510001D8B40DD094
:104A28003750D8B402D0370600D00001AF5100018A
:104A3800D8B403D00001AF0700D00001AF51000186
:104A4800D8B403D0000E0001B16F0001B5510001C8
:104A5800D8B403D0000E0001B76F3750D8B424D0B3
:104A680035D022D00A0E0001AF6F0001AF51040FFC
:104A780013D00A0E0001AF6F0001AF51030F0CD025
:104A88000A0E0001AF6F0001AF51020F05D00A0EE8
:104A98000001AF6F0001AF29376E18D00A0E000170
:104AA800AF6FAFC037F012D00001B0510B0AD8B4C5
:104AB800D9D7070AD8B4DDD7010AD8B4E1D7030A91
:104AC800D8B4E5D7010AD8B4E9D700D03A50D8B459
:104AD80024D035D022D00A0E0001B56F0001B5519F
:104AE800040F13D00A0E0001B56F0001B551030F72
:104AF8000CD00A0E0001B56F0001B551020F05D0A8
:104B08000A0E0001B56F0001B5293A6E18D00A0ED9
:104B18000001B56FB5C03AF012D00001B6510B0ACA
:104B2800D8B4D9D7070AD8B4DDD7010AD8B4E1D7A1
:104B3800030AD8B4E5D7010AD8B4E9D700D00001F0
:104B4800B15139EC78F00001B7512DEC78F0120032
:104B58000101416F0101C751D8A404D00101DD5101
:104B6800D8B446D2800E0101C019D8B458D02CC090
:104B78000DF12DC00EF1E0C20FF1E1C210F10BEC06
:104B880071F001010D5101010E11D8A413D0000ECE
:104B980001010E6F0001C351010D000EF324D96EFF
:104BA800060EF420DA6EDF50D7EC76F0010E000125
:104BB800BD6F26D02CC10EF1C3C000F10101016BFD
:104BC800D2C102F10101036BC90E0101046F000E8D
:104BD800056F000E066F000E076FF2EC6FF0000E07
:104BE80001010025D96E060E01010121DA6EDF50A0
:104BF800D7EC76F0000E0001BD6F000E3E6E00D0BF
:104C0800020E0101DD19D8A406D0010E0101C76FFB
:104C1800000E0101DD6F000E0101DC6F2BD0020ECA
:104C28000101DD19D8A407D0010E0101C76F000EDC
:104C38000101DD6F1FD00101DC2B010E0101DC65D4
:104C480019D0F25000D0070EF0EC4DF0000E010123
:104C5800C76F000E0101DD6F010E0101F16F000E3B
:104C68000101016F040E006F030E0101026FCFEC0A
:104C78005BF000D02C042D10D8A407D0010E426E92
:104C8800A2C034F0A3C035F000D0080E94EC74F044
:104C98000009D8B407D00101CC51D8B403D0010E13
:104CA800486E00D0080E8BEC76F00009D8B42ED0F0
:104CB8000101CC51D8A41CD0F3C10CF101010D6B3A
:104CC8005FEC66F001010C510101CD6F0101CD517E
:104CD80000080101F3250101CC6FCDC126F10101C6
:104CE800276B010E0101286F080EB1EC6DF00ED094
:104CF800CCC126F10101276B010E0101286F080EB6
:104D0800B1EC6DF0000E0101CC6F00D00001C5516F
:104D18000001D8A406D00201405102014111D8B4C3
:104D280042D10001BD51D8B43ED101014151010128
:104D3800D8B439D142C22DF143C22EF101012D1F41
:104D48002E1F2D4B2E2B040E01010C6F010EE9ECCA
:104D58005CF001012D5101010C250101466F010193
:104D68002E5101010D210101476F46C12DF147C1A7
:104D78002EF101012D1F2E1F2D4B2E2B2DC144F17D
:104D88002EC145F1080E0101475DD8A00BD0FE0EDB
:104D98000101465D0F0E01014759D8B003D000014B
:104DA800C52B36D0010146290F0E01014759D8A05D
:104DB8000CD0FD0E0101465D170E01014759D8B010
:104DC80004D0020E0001C52723D0080E0101455D5D
:104DD800D8A00BD0FE0E0101445D0F0E010145590C
:104DE800D8B003D00001C50713D0010144290F0E24
:104DF80001014559D8A00CD0FD0E0101445D170EE4
:104E080001014559D8B004D0020E0001C55F00D099
:104E1800040E01010C6F010EE9EC5CF00CC146F1C7
:104E28000DC147F1A2C000F1A3C001F146C102F1D2
:104E380047C103F1000E0101046F000E056F010E5A
:104E4800066F000E076FF2EC6FF000C137F101C179
:104E580038F137C117F138C118F140C219F141C210
:104E68001AF1000E01011B6F000E1C6F010E1D6F61
:104E7800000E1E6FD0EC62F017C142F118C143F169
:104E880042C10DF143C10EF1070E0101106F0F6908
:104E98000BEC71F00DC13DF10EC13EF13DC10DF1BC
:104EA8003EC10EF1040E01010F6F010E03EC4AF032
:104EB80001013D510101425F01013E510101435B86
:104EC80042C1A2F043C1A3F042C106F143C107F1B8
:104ED800070E0101096F08693DEC6EF006C12CF060
:104EE80007C12DF0C3C017F10101186BC5C019F136
:104EF80001011A6BC90E01011B6F000E1C6F000E19
:104F08001D6F000E1E6FD0EC62F0010117510001F9
:104F1800C36FC5C02FF10101306B000E0001C56FD2
:104F2800000E0201416F000E406F000E0201356F46
:104F3800000E346F2C502D10D8A408D0000E2D6E02
:104F4800100E2C6E32C2A2F033C2A3F0070E356EDB
:104F58003468020E0101DD6F040E01010C6F010EB1
:104F6800E9EC5CF00001A25101010C2501013F6F41
:104F78000001A35101010D210101406F19EC79F0E5
:104F88000101316F3FC133F1010140510101326F1D
:104F9800000E0101016F040E006F020E0101026F85
:104FA800CFEC5BF021D00001C3510001CE19D8A489
:104FB8000BD00101C751D8B407D0010141510101FB
:104FC800D8A412D001D010D04850D8B40DD01DECC0
:104FD80079F00009D8B408D0010141510101D8B4D1
:104FE80003D0000E486E00D00201504B512B4ED01A
:104FF800060E8BEC76F00009D8B41CD0000E010127
:105008000D6F320E0C6F5FEC66F0540E01010C252B
:105018000101396F240E01010D2101013A6F39C1D7
:1050280026F13AC127F1000E0101286F060EB1ECF6
:105038006DF000D0060E94EC74F00009D8B40DD0D1
:10504800000E01010E6F0101F851D7EC76F0000E49
:105058000201E56F010EE46F00D00201E5510BE19A
:10506800330E0201E45DD8B006D01EEC77F00201E1
:10507800E44BE52B00D0330E0201E4190201E511DF
:10508800D8A404D00201E44BE52B00D00001CE5196
:105098000001D8A404D0C80E0001CE6F03D00001CF
:1050A800CE0700D0050E94EC74F00009D8A4DDEC0E
:1050B80071F0090E8BEC76F00009D8B44CD025ECD1
:1050C80079F001012D6F01012D513E0DF3CF3BF118
:1050D800F4CF3CF13BC108F13CC109F121EC76F079
:1050E80008C10BF109C10CF10AC10DF1000E010153
:1050F8000E6F7A0E01010F6F440E0101106F6CECF8
:1051080056F00BC134F10CC135F10DC136F1000E6A
:1051180001010B6F280E01010C6F430E01010D6F89
:1051280034C108F135C109F136C10AF155EC52F024
:1051380008C117F109C118F10AC119F1C3EC55F0FA
:1051480017C126F118C127F1010E0101286F090EB8
:10515800B1EC6DF000D0090E94EC74F00009D8B4ED
:1051680017D0070EF0EC4DF0000E0101C76F000ECE
:105178000101DD6F010E0101F16F000E0101016FE8
:10518800040E006F050E0101026FCFEC5BF000D03A
:105198000F0E94EC74F00009D8B404D0010E01018C
:1051A800F16F00D00E0E94EC74F01200000E0101A5
:1051B800176F690E0101256F030E0101266F25C1C6
:1051C800D9FF26C1DAFF010EDF6E000E0101186F4C
:1051D800060E0101186F010E0101226F010E010177
:1051E800226501D096D00001BB51060DBD0EF324F7
:1051F8000101066F0A0EF4200101076FE00E01019C
:10520800086F010E0101096F040E01010A6F40ECDD
:1052180072F00009D8A449D00001BB51060D050E53
:10522800F326000EF422BD0EF324D96E0A0EF420E4
:10523800DA6EDE28D8B439D00001BB51060DBD0E98
:10524800F3240101006F0A0EF4200101016F000E22
:105258000101026F25C103F126C104F1010E01010C
:10526800056F040E0101066F03EC6CF0010120EEDE
:1052780005F02551D9262651DA22040E0101086FBE
:105288000001BB51060D050EF326000EF422BD0EDB
:10529800F324E16E0A0EF420E26EE750DAEC4AF0ED
:1052A800DF6E010E0101176F03D00101220700D044
:1052B8003E0E0001BB6103D00001BB2B27D0000EBE
:1052C8000001BB6F010117510101D8A422D0E00EE3
:1052D8000101006F010E0101016F000E0101026F53
:1052E80025C103F126C104F1010E0101056F040E69
:1052F8000101066F03EC6CF0010120EE05F0255169
:10530800D9262651DA22FF0EDF6E03D00101222BA7
:1053180065D7000E01011C6F000E0101246F000EFD
:105328000101196FBAC016F11AD20001CB51D8B4D5
:10533800FCD001012451010D180EF324D96E030E7F
:10534800F420DA6EDF500101236F1E0E01010C6F8D
:10535800010E01010D6F01012351D6EC68F0010E19
:10536800010124250101006F0101016B000E0123D9
:10537800000E0101036F050E026F0FEC75F0010EB0
:1053880001010027000E0101012301010051010163
:105398002525D96E0101015101012621DA6E1EC1B0
:1053A800DFFF010E010124250101006F0101016BDE
:1053B800000E0123000E0101036F050E026F0FECB2
:1053C80075F0020E01010027000E01010123010101
:1053D800005101012525D96E010101510101262144
:1053E800DA6E1FC1DFFF010E010124250101006FE4
:1053F8000101016B000E0123000E0101036F050E70
:10540800026F0FEC75F0030E01010027000E010179
:1054180001230101005101012525D96E0101015126
:1054280001012621DA6E20C1DFFF010E01012425CA
:105438000101006F0101016B000E0123000E010143
:10544800036F050E026F0FEC75F0040E01010027C3
:10545800000E010101230101005101012525D96E2A
:105468000101015101012621DA6E21C1DFFF01018D
:105478002351020D010EF326000EF422C90EF32467
:10548800D96E080EF420DA6EDF38E832070B010116
:10549800146F050E0101156F0101D8901437010131
:1054A800152FFAD70101145101011A6F0101235177
:1054B800020D010EF326000EF422C90EF324D96E54
:1054C800080EF420DA6EDF501F0B01011A27010EB7
:1054D800010124250101006F0101016B000E012368
:1054E800000E0101036F050E026F0FEC75F0050E3B
:1054F80001010027000E01010123010100510101F2
:105508002525D96E0101015101012621DA6E1AC142
:10551800DFFF050E01011C270101242B0001CB51DF
:10552800D8B41DD10001CB071AD1E00E0101046FD8
:10553800010E0101056F0001BA517FEC5FF000090F
:10554800D8A4F8D00001BA51020DC90EF324D96EBF
:10555800080EF420DA6EDF503F0B3F0AD8B4EAD0C9
:105568001E0E01010C6F010E01010D6F0001BA51F1
:10557800D6EC68F0010E010124250101006F01013C
:10558800016B000E0123000E0101036F050E026F6F
:105598000FEC75F0010E01010027000E0101012337
:1055A8000101005101012525D96E010101510101B7
:1055B8002621DA6E1EC1DFFF010E0101242501013B
:1055C800006F0101016B000E0123000E0101036F42
:1055D800050E026F0FEC75F0020E01010027000E98
:1055E800010101230101005101012525D96E0101A5
:1055F800015101012621DA6E1FC1DFFF010E0101F1
:1056080024250101006F0101016B000E0123000E2A
:105618000101036F050E026F0FEC75F0030E010117
:105628000027000E01010123010100510101252578
:10563800D96E0101015101012621DA6E20C1DFFF77
:10564800010E010124250101006F0101016B000E0B
:105658000123000E0101036F050E026F0FEC75F0B8
:10566800040E01010027000E010101230101005170
:1056780001012525D96E0101015101012621DA6EAA
:1056880021C1DFFF0001BA51020D010EF326000E01
:10569800F422C90EF324D96E080EF420DA6EDF382E
:1056A800E832070B0101146F050E0101156F0101A6
:1056B800D89014370101152FFAD7010114510101AF
:1056C8001B6F0001BA51020D010EF326000EF422E1
:1056D800C90EF324D96E080EF420DA6EDF501F0BC2
:1056E80001011B27010E010124250101006F0101A1
:1056F800016B000E0123000E0101036F050E026FFE
:105708000FEC75F0050E01010027000E01010123C1
:105718000101005101012525D96E01010151010145
:105728002621DA6E1BC1DFFF050E01011C270101CE
:10573800242B00D0F90E0001BA6103D00001BA2B66
:1057480004D0000E0001BA6F00D00001BA51010167
:105758001619D8A404D0010E0101196F00D0080E43
:105768000101246107D0010119510101D8A402D017
:10577800DCD500D00101185101011C2501011D6F64
:1057880001011D51010DF35001012525D96EF45079
:1057980001012621DA6EC7C0DFFF01011D2B0101BF
:1057A8001D511200120001012E510101D8B4F2D28C
:1057B800C90E01013061EED22CC1D9FF2DC1DAFF2B
:1057C800DE28D8A456D00101DD51D8A452D0010159
:1057D800C751D8B422D0050E8BEC76F00009D8B4A6
:1057E8008DD2060E01010D6F0E0E0C6F5FEC66F088
:1057F8001C0E01010C2501013B6F0C0E01010D214E
:1058080001013C6F3BC126F13CC127F1000E0101AB
:10581800286F050EB1EC6DF071D20E0E8BEC76F0A0
:105828000009D8B46BD2050E8BEC76F00009D8B419
:105838001CD0060E01010D6F0E0E0C6F5FEC66F0AA
:105848001C0E01010C2501013D6F0C0E01010D21FB
:1058580001013E6F3DC126F13EC127F1000E010155
:10586800286F050EB1EC6DF000D0010E0101C76F75
:1058780045D2020E01012E6541D2010120EE01F050
:105888002C51D9262D51DA22DF500101316F010147
:1058980031510101506F516B010150510101516F9C
:1058A800506B010120EE02F02C51D9262D51DA223D
:1058B800DF500101316F0101315101015027000E04
:1058C800512350C133F151C134F1040E01010C6F61
:1058D800010EE9EC5CF00CC14CF10DC14DF1B6C103
:1058E80017F1B7C118F14CC119F14DC11AF1FF0EEA
:1058F80001011B6F070E1C6F000E1D6F000E1E6F3F
:10590800D0EC62F017C13FF118C140F1A2C000F11C
:10591800A3C001F14CC102F14DC103F1000E010118
:10592800046F000E056F010E066F000E076FF2EC94
:105938006FF000C14EF101C14FF14EC146F14FC1A8
:1059480047F14EC100F14FC101F1000E0101036F93
:105958003D0E026F000E0101046F000E056F010E6F
:10596800066F000E076FF2EC6FF000C14CF101C139
:105978004DF101012F510101D8B415D04CC100F1EE
:105988004DC101F1000E0101036F050E026F000EFB
:105998000101046F000E056F010E066F000E076F00
:1059A800F2EC6FF014D04CC100F14DC101F1000EC2
:1059B8000101036F000E026F000E0101046F000E5B
:1059C800056F010E066F000E076FF2EC6FF000C155
:1059D8004EF101C14FF150C117F151C118F13FC14A
:1059E80019F140C11AF1000E01011B6F000E1C6F66
:1059F800010E1D6F000E1E6FD0EC62F017C14CF146
:105A080018C14DF14CC150F14DC151F14EC131F1A8
:105A18004FC132F10101311F321F314B322B0101CD
:105A280050510101312501014A6F01015151010114
:105A3800322101014B6F4AC131F14BC132F10101F1
:105A4800311F321F314B322BFF0E0101312501016D
:105A5800486FFF0E010132210101496F2CC1D9FFA6
:105A68002DC1DAFF01013051DE18D8A414D0080E78
:105A780001014B5DD8A005D0800E01014B5DD8A077
:105A88000AD0080E0101495DD8A075D0800E010129
:105A9800495DD8B070D00101F151D8A404D00101FA
:105AA800C751D8A4D4D04EC117F14FC118F150C175
:105AB80019F151C11AF1000E01011B6F000E1C6F84
:105AC800010E1D6F000E1E6FD0EC62F017C140F280
:105AD80018C141F24EC10DF14FC10EF1070E01017F
:105AE800106F0F690BEC71F00DC131F10EC132F17D
:105AF80050C10DF151C10EF1070E0101106F0F6970
:105B08000BEC71F001010D1F01010E1F01010D4B7E
:105B18000E2B01010D51010131250201426F0101D6
:105B28000E51010132210201436F30C117F1010109
:105B3800186B2CC1D9FF2DC1DAFFDF500101316F7D
:105B4800010131510101196F1A6BC90E01011B6F57
:105B5800000E1C6F000E1D6F000E1E6FD0EC62F061
:105B6800010117510001C56F010E0101DD6F000E23
:105B78000101C76F6CD00101505101014E5D010157
:105B8800515101014F59D8B047D0800E01014B5DEA
:105B9800D8B042D001014E51000801015025010141
:105BA800456F010145510001A227000EA3234EC1F4
:105BB80031F14FC132F10101311F321F314B322B0C
:105BC80001015051010131250201486F0101515174
:105BD800010132210201496F0201485102014A5D67
:105BE8000201495102014B59D8B016D04EC131F1CA
:105BF8004FC132F10101311F321F314B322B0101EC
:105C080050510101312502014A6F01015151010131
:105C1800322102014B6F00D00101C751D8B404D022
:105C28000101DD51D8A404D0010E0101C76F00D0D5
:105C38000101465102016A5D0101475102016B5998
:105C4800D8B005D046C16AF247C16BF200D025EC46
:105C580079F00101316F010131513E0DF3CF41F16E
:105C6800F4CF42F141C108F142C109F121EC76F0CB
:105C780008C10BF109C10CF10AC10DF1000E0101B7
:105C88000E6F7A0E01010F6F440E0101106F6CEC5C
:105C980056F00BC135F10CC136F10DC137F1000ECC
:105CA80001010B6F280E01010C6F430E01010D6FEE
:105CB80035C108F136C109F137C10AF155EC52F086
:105CC80008C117F109C118F10AC119F1C3EC55F05F
:105CD80017C126F118C127F1010E0101286F090E1D
:105CE800B1EC6DF0000E0201516F000E506F030E03
:105CF80001012E6503D0010E120000D025EC79F0C9
:105D08000101316F010131513E0DF3CF43F1F4CF61
:105D180044F143C108F144C109F121EC76F008C10E
:105D28000BF109C10CF10AC10DF1000E01010E6F52
:105D38007A0E01010F6F440E0101106F6CEC56F0E2
:105D48000BC138F10CC139F10DC13AF1000E010156
:105D58000B6F280E01010C6F430E01010D6F38C146
:105D680008F139C109F13AC10AF155EC52F008C1FC
:105D780017F109C118F10AC119F1C3EC55F017C19F
:105D880026F118C127F1010E0101286F090EB1ECA7
:105D98006DF000D0000E12001200000E01015F6FBE
:105DA800000E0001C66F000E0101006F000E50ECDE
:105DB80074F0000E4C6E000E446E200E5CEC58F031
:105DC800000E0001CA6F000E0101BB6F0001D9511E
:105DD80021EC78F0020EF2EC74F0600E5CEC58F0F6
:105DE800000E01010E6F000ED7EC76F0190E0101BE
:105DF800276F640E266F000E0101286F110EB1EC9B
:105E08006DF0000E0101276F780E266F010E01015B
:105E1800286F120EB1EC6DF0010E0001BC6F04008A
:105E28000101BC51D8B409D0000E0101BC6F3E0E6F
:105E3800F2EC38F00101C92B00D00101BE51D8B4F1
:105E480009D0000E0101BE6F200E5CEC58F0600E08
:105E58005CEC58F00101BF51D8B407D0600E5CEC7F
:105E680058F0000E0101BF6F00D00101BD51D8A448
:105E780004D00101BB51D8B4ACD1000E0101676F49
:105E8800000E01016A6F000E696F000E0101C96FF3
:105E98000101BD51D8B455D0000E0101BD6F51ECC0
:105EA80078F00101EB6F51EC78F0000E0101656F9D
:105EB8001DD001016551010D200EF324D96E030E8A
:105EC800F420DA6E51EC78F0DF6E01016551010DB6
:105ED800200EF324D96E030EF420DA6EDF50010190
:105EE80067190101676F0101652B00D0FF0E0101E1
:105EF800546FFF0E0101556F0101EB510101566FFF
:105F0800576B0101545101015627010155510101F7
:105F18005723010165510101586F596B0101565111
:105F28000101585D01015951800A01015A6F0101AF
:105F38005751800A01015A59D8A0BBD7000E000159
:105F4800CA6F0101BB51D8B41DD0000E0101666FA4
:105F58003A0E0101666501D011D001016651010DAB
:105F6800200EF324D96E030EF420DA6EDF500101FF
:105F780067190101676F0101662BEAD7000E01015D
:105F8800BB6F00D021C369F101016A6B010169513E
:105F980001016A6F696B0301205101016927000E35
:105FA8006A230101DB510101D8B41CD0D00E0101D4
:105FB800546FCA0EE82EFED7542FFCD7D00E01011D
:105FC800546FCA0EE82EFED7542FFCD7090E0101D4
:105FD8006A5DD8B0DCD069C114F16AC115F19EECD4
:105FE80070F0D5D0010E01015F6F01016751010109
:105FF800D8A4CDD001D0CBD00101B051010169198D
:1060080005E10101B15101016A19D8A4C0D001010B
:10601800B0510101B111D8A42BD0000E0101616F5C
:10602800000E626F000E636F000E646F0101645111
:106038001FE1100E0101625D020E01016359D8B023
:1060480017D001D015D061C105F162C106F163C155
:1060580007F164C108F10BEC76F0000E010161272D
:10606800100E6223000E6323000E6423DFD700D0D6
:10607800000E0101686F370E0101686501D044D038
:10608800B0C100F1B1C101F1000E0101036F380E7A
:10609800026F0FEC75F00101005101016825010143
:1060A8005B6F0101015101015C6F000E01015C236E
:1060B80001015D6B01015D2301015E6B5BC105F1AF
:1060C8005CC106F15DC107F15EC108F101016851CB
:1060D800010D020EF326000EF422200EF324010116
:1060E800096F030EF42001010A6F040E01010B6F02
:1060F800000E0C6F000E0D6F000E0E6F4DEC6CF065
:10610800040E01016827B7D70101B04BB12B01017B
:10611800B2510101B0193BE10101B3510101B119BB
:10612800D8A435D0000E0101056F000E066F020ECF
:10613800076F000E086FEC0E0101096F010E0101D7
:106148000A6F010E01010B6F000E0C6F000E0D6F30
:10615800000E0E6F4DEC6CF0010E0101056F000E84
:10616800066F020E076F000E086FCE0E0101096F51
:10617800030E01010A6F0B0E01010B6F000E0C6F6D
:10618800000E0D6F000E0E6F4DEC6CF000D0030E7C
:106198000101276FE80E266F000E0101286F110E0E
:1061A800B1EC6DF00101DB510101D8B412D001014D
:1061B800695101016A11D8A40CD0270E0101276F7B
:1061C800100E266F000E0101286F110EB1EC6DF054
:1061D80000D00101DB510101D8A424D0020E010135
:1061E800C96506D0010E01015F6F000E0101C96F7C
:1061F80001015F510101D8B415D00101B25101016B
:10620800B05D0101B3510101B159D8B007D0B0C197
:106218000AF1B1C10BF1B3EC76F000D0000E010128
:106228005F6F00D0000E0101016F010E006FED0ECF
:106238000101026F010E0101036FC1EC53F0000967
:10624800D8B438D0270E01010C6F040E01010D6F70
:10625800EA0E01010E6F010E01010F6F0101ED51F0
:1062680041EC43F00009D8B425D004012851C00BF3
:106278000101606F01016045E846030B0101606F91
:10628800030E01016019D8A415D0290E0101066F6B
:10629800040E0101076F200E0101086F030E0101B2
:1062A800096F3B0E01010A6F0EEC73F0010E01013C
:1062B800BB6F00D0020E94EC74F00009D8B405D07E
:1062C800937693B602D08A9600D0110E94EC74F0AF
:1062D8000009D8B402D0FF0000D0020E8BEC76F093
:1062E8000009D8B40BD0000E0101276FFA0E266FF3
:1062F800000E0101286F020EB1EC6DF0110E8BEC4F
:1063080076F00009D8B40BD0030E0101276FE80E10
:10631800266F000E0101286F110EB1EC6DF0120E00
:1063280094EC74F00009D8B47AD5FF0078D512003F
:106338004DD201018905D8A455D2570E0101126F1B
:10634800FF0E0101136F2AEC34F0020E01018325C0
:106358000101186F000E010184210101196F000E5F
:1063680001011A6F76EC3CF0040E8BEC76F0000914
:10637800D8A411D0040E94EC74F00009D8A40BD062
:10638800000E0101276F010E266F000E0101286F14
:10639800040EB1EC6DF0000E8BEC76F00009D8B469
:1063A8000CD0130E0101276F880E266F000E010115
:1063B800286F000EB1EC6DF000D0010E0001B06F37
:1063C80011D2420E01018919D8A4A3D0020E0101ED
:1063D8008F6F040E01018F6501D07CD001018A51B5
:1063E80001018F5DD8B073D001018F51010DF350B9
:1063F80001018325D96EF45001018421DA6EDF5042
:10640800D8A42DD08FC18BF1FE0E01018B27010E70
:1064180001018C6F01018B2B03D00101D8908C37BF
:1064280001018B2FFAD701018C51FF0A01018D6FF1
:106438000001D73101018E6F8E338E31070B8E6FBD
:1064480001018D5101018E1701018E378E378E376C
:106458000001D75101018E19C70B8E1935D00101E2
:106468008F51010DF35001018325D96EF4500101BC
:106478008421DA6EDE04D8A42AD08FC18BF1FE0EF7
:1064880001018B27010E01018C6F01018B2B03D0B9
:106498000101D8908C3701018B2FFAD70001D73131
:1064A80001018D6F8D338D31070B8D6F01018C517B
:1064B80001018D1301018D378D378D370001D751BB
:1064C80001018D19C70B8D190001D76F00D001018B
:1064D8008F2B7FD729EC79F0030E0101016FF30EA2
:1064E800006FD7C002F17EEC73F00001D731E832BB
:1064F800E832070B0101006F010E71EC44F086C110
:1065080018F187C119F1000E01011A6F76EC3CF001
:1065180000D0430E01018919D8A464D1010120EEED
:1065280002F08351D9268451DA22DF5001018B6FA2
:106538000001D35101018B19F00B8B190001D36FA6
:10654800010120EE03F08351D9268451DA22DF506D
:106558000001D26F010120EE08F08351D926845141
:10656800DA22DF5001018B6F050E01018C6F0101EA
:10657800D8908B3301018C2FFAD7010E01018B17AC
:1065880001018B3B0001D65101018B19EF0B8B19CF
:106598000001D66F010120EE08F08351D9268451FD
:1065A800DA22DF5001018B6F01018B3B0F0E8B1735
:1065B800010E01018B1701018B3B8B470001D6515E
:1065C80001018B19DF0B8B190001D66F010120EE39
:1065D80004F08351D9268451DA22DF5001018B6FF0
:1065E80001018B3B0001D35101018B190F0B8B1952
:1065F8000001D36F010120EE05F08351D9268451A3
:10660800DA22DF500001D46F010120EE08F0835137
:10661800D9268451DA22DF5001018B6F0101D8900D
:106628008B330101D8908B330101D8908B33010E45
:1066380001018B1701018B3B8B478B470001D6511A
:1066480001018B19BF0B8B190001D66F010120EED8
:1066580008F08351D9268451DA22DF5001018B6F6B
:106668000101D8908B330101D8908B33010E0101C1
:106678008B1701018B338B330001D65101018B1924
:106688007F0B8B190001D66F010120EE06F08351B4
:10669800D9268451DA22DF5001018B6F0001D651CF
:1066A80001018B19F00B8B190001D66F010120EE47
:1066B80007F08351D9268451DA22DF500001D56FC3
:1066C800010120EE08F08351D9268451DA22DF50E7
:1066D80001018B6F0101D8908B33010E01018B17DB
:1066E8000001D75101018B19FE0B8B190001D76FDF
:1066F800010120EE08F08351D9268451DA22DF50B7
:1067080001018B6F010E01018B1701018B470001FD
:10671800D75101018B19FD0B8B190001D76F29EC9B
:1067280079F0030E0101016FEC0E006FD2C002F187
:106738007EEC73F029EC79F0030E0101016FED0E88
:10674800006FD3C002F17EEC73F029EC79F0030EF0
:106758000101016FEE0E006FD4C002F17EEC73F000
:1067680029EC79F0030E0101016FF10E006FD5C01D
:1067780002F17EEC73F029EC79F0030E0101016F50
:10678800F20E006FD6C002F17EEC73F029EC79F0BE
:10679800030E0101016FF30E006FD7C002F17EEC0A
:1067A80073F086C118F187C119F1000E01011A6F43
:1067B80076EC3CF017D0890E0101126FFF0E010133
:1067C800136F2AEC34F0010E12000CD0010188512D
:1067D800010AD8B4F0D71F0AD8B4ABD5010AD8B487
:1067E800F0D500D086C1D9FF87C1DAFFDF50D8A421
:1067F8002AD0010120EE01F08651D9268751DA22EC
:10680800DF50D8A420D0010120EE02F08651D9260D
:106818008751DA22DF50D8A416D0010120EE03F008
:106828008651D9268751DA22100EDF600CD0010E6E
:106838000101276F2C0E266F010E0101286F130E20
:10684800B1EC6DF000D0000E12001200140E010120
:10685800266F010E0101276F4CD2250E01012D195B
:10686800D8B405D001012D5183EC77F042D2000E47
:1068780001012C6F000E2B6F000E01012A6F07D04B
:1068880001012A850101124B132B01D00BD012C133
:10689800F6FF13C1F7FF0800F550300AD8B4F0D757
:1068A80001D0F5D712C1F6FF13C1F7FF0800F55064
:1068B800C6EC75F0D8A0A5D0000E01012C6F000E13
:1068C8002B6F00D02BC100F12CC101F1000E01018A
:1068D800036F0A0E026F0FEC75F000C12BF101C1B6
:1068E8002CF1D00E01011C6FFF0E01011D6F12C1AA
:1068F800F6FF13C1F7FF0800F55001011E6F1F6B6B
:1069080001011C5101011E2701011D5101011F2315
:1069180001011E5101012B2701011F5101012C23E7
:106928000101124B132B12C1F6FF13C1F7FF080028
:10693800F550C6EC75F0D8A064D0C4D762D0120068
:106948007FD000D001012A8F7BD001012B5101019A
:10695800235D01012C5101012459D8B009D001014E
:10696800235101012B5F0101245101012C5B0AD045
:10697800000E01012C6F000E2B6F04D0200E83EC4B
:1069880077F000D001012B07D8A02C0701012B2993
:10699800F5E101012C29D8B40DD0F0D70BD021C1D5
:1069A800D9FF22C1DAFFDF5083EC77F00101214BD8
:1069B800222B00D001012307D8A024070101232995
:1069C800EEE101012429D8B494D1E9D792D126C1A6
:1069D800D9FF27C1DAFFDF5001012D6F020E010137
:1069E8002627000E272300D02D0E0101216F010E4E
:1069F8000101226F000E0101246F010E236FA5D73C
:106A08001FD012C1F6FF13C1F7FF0101124B132B60
:106A18000800F5CF2DF101012D51000AD8B412005C
:106A2800580AD8B48FD73B0AD8B4D1D7070AD8B4F4
:106A380007D00D0AD8B404D0110AD8B483D7D4D754
:106A480001012ABF19D026C1D9FF27C1DAFFDECF3D
:106A580028F1DDCF29F1020E01012627000E272398
:106A6800010129AF5DD0030E01012A130101286D30
:106A7800291FD8B0292B54D026C1D9FF27C1DAFF46
:106A8800DECF28F1DDCF29F1020E01012627000E05
:106A9800272346D0010E01012D6F050E01012D1986
:106AA800D8B448D001D046D001012D51020D6B0E4B
:106AB800F324F66EFE0EF420F76E0900F55001017E
:106AC800285D0900F55001012959D8A033D001D01B
:106AD80031D001012D2BE1D72DD0010E01012D6FF1
:106AE800040E01012D19D8B425D001D023D00101FD
:106AF8002D51020D750EF324F66EFE0EF420F76E7E
:106B08000900F5500101285D0900F55001012959D6
:106B1800D8A010D001D00ED001012D2BE1D70AD07A
:106B280001012A51800B000AD8B4B4D7800AD8B41E
:106B3800D4D700D001012B5101012C11D8B40CD0AD
:106B48002AC11CF1030E01011C17D8B405D001019C
:106B58002B07D8A02C0700D0800E01012DBF7F0E77
:106B680001011C6F01012B5101012D5D01012C5107
:106B7800800A01011C59D8B00BD001012D51010127
:106B88002B5F000E01012DBFFF0E01012C5B06D00B
:106B9800000E01012C6F000E2B6F00D001012AA5F9
:106BA80020D02AC11CF1030E01011C17D8B404D04F
:106BB8002D0E83EC77F000D001012B5101012C112F
:106BC800D8B42FD0300E83EC77F001012B07D8A072
:106BD8002C0701012B5101012C11D8B422D0F2D776
:106BE80020D001012B5101012C11D8B40FD0200E57
:106BF80083EC77F001012B07D8A02C0701012B515A
:106C080001012C11D8B402D0F2D700D02AC11CF14E
:106C1800030E01011C17D8B404D02D0E83EC77F0B5
:106C280000D02DC125F15DD04DD001012551020DB7
:106C38006B0EF324F66EFE0EF420F76E0900F5CF06
:106C480008F10A00F5CF09F128C106F129C107F1B9
:106C58003DEC6EF006C10DF107C10EF1000E010109
:106C6800106F0A0E0F6F0BEC71F001010D51300F10
:106C780001012D6F31D028C106F129C107F10101A9
:106C88002551020D750EF324F66EFE0EF420F76EF4
:106C98000900F5CF08F10A00F5CF09F13DEC6EF0D7
:106CA800010106510F0B0101206F01012051010D57
:106CB800690EF324F66EFF0EF420F76E0800F5CF88
:106CC8002DF10AD001012A51800B000AD8B4ADD7A2
:106CD800800AD8B4D0D700D001012D5183EC77F0C9
:106CE80000D00101250701012529D8B402D0EAD72F
:106CF80000D012C1F6FF13C1F7FF0101124B132B8D
:106D08000800F5CF2DF101012D51D8B41200A5D5F9
:106D1800120012006E0E0001786F000E0001796FEC
:106D28004CD2250E00017F19D8B405D000017F513F
:106D3800A3EC77F042D2000E00017E6F000E7D6F4B
:106D4800000E00017C6F07D000017C8500016C4BB0
:106D58006D2B01D00BD06CC0F6FF6DC0F7FF08009B
:106D6800F550300AD8B4F0D701D0F5D76CC0F6FF8B
:106D78006DC0F7FF0800F550F4EC75F0D8A0A5D069
:106D8800000E00017E6F000E7D6F00D07DC060F0A8
:106D98007EC061F0000E0001636F0A0E626F2BEC7B
:106DA80075F060C07DF061C07EF0D00E00016E6F9E
:106DB800FF0E00016F6F6CC0F6FF6DC0F7FF080093
:106DC800F5500001706F716B00016E510001702762
:106DD80000016F51000171230001705100017D27EE
:106DE8000001715100017E2300016C4B6D2B6CC0BA
:106DF800F6FF6DC0F7FF0800F550F4EC75F0D8A069
:106E080064D0C4D762D012007FD000D000017C8F3C
:106E18007BD000017D510001755D00017E510001AC
:106E28007659D8B009D00001755100017D5F000185
:106E3800765100017E5B0AD0000E00017E6F000EC5
:106E48007D6F04D0200EA3EC77F000D000017D0701
:106E5800D8A07E0700017D29F5E100017E29D8B47C
:106E68000DD0F0D70BD073C0D9FF74C0DAFFDF5054
:106E7800A3EC77F00001734B742B00D00001750769
:106E8800D8A0760700017529EEE100017629D8B46B
:106E980094D1E9D792D178C0D9FF79C0DAFFDF5011
:106EA80000017F6F020E00017827000E792300D0C1
:106EB8007F0E0001736F000E0001746F000E000159
:106EC800766F010E756FA5D71FD06CC0F6FF6DC029
:106ED800F7FF00016C4B6D2B0800F5CF7FF0000128
:106EE8007F51000AD8B41200580AD8B48FD73B0A89
:106EF800D8B4D1D7070AD8B407D00D0AD8B404D06B
:106F0800110AD8B483D7D4D700017CBF19D078C070
:106F1800D9FF79C0DAFFDECF7AF0DDCF7BF0020E41
:106F280000017827000E792300017BAF5DD0030EA6
:106F380000017C1300017A6D7B1FD8B07B2B54D0E5
:106F480078C0D9FF79C0DAFFDECF7AF0DDCF7BF0E9
:106F5800020E00017827000E792346D0010E0001A9
:106F68007F6F050E00017F19D8B448D001D046D0F4
:106F780000017F51020D6B0EF324F66EFE0EF42015
:106F8800F76E0900F55000017A5D0900F55000011F
:106F98007B59D8A033D001D031D000017F2BE1D765
:106FA8002DD0010E00017F6F040E00017F19D8B4A7
:106FB80025D001D023D000017F51020D750EF32496
:106FC800F66EFE0EF420F76E0900F55000017A5DAA
:106FD8000900F55000017B59D8A010D001D00ED07F
:106FE80000017F2BE1D70AD000017C51800B000AF9
:106FF800D8B4B4D7800AD8B4D4D700D000017D5112
:1070080000017E11D8B40CD07CC06EF0030E0001D4
:107018006E17D8B405D000017D07D8A07E0700D030
:10702800800E00017FBF7F0E00016E6F00017D5151
:1070380000017F5D00017E51800A00016E59D8B0C1
:107048000BD000017F5100017D5F000E00017FBF62
:10705800FF0E00017E5B06D0000E00017E6F000E61
:107068007D6F00D000017CA520D07CC06EF0030E9F
:1070780000016E17D8B404D02D0EA3EC77F000D021
:1070880000017D5100017E11D8B42FD0300EA3EC41
:1070980077F000017D07D8A07E0700017D5100012F
:1070A8007E11D8B422D0F2D720D000017D51000142
:1070B8007E11D8B40FD0200EA3EC77F000017D0725
:1070C800D8A07E0700017D5100017E11D8B402D0FE
:1070D800F2D700D07CC06EF0030E00016E17D8B452
:1070E80004D02D0EA3EC77F000D07FC077F05DD0F0
:1070F8004DD000017751020D6B0EF324F66EFE0E93
:10710800F420F76E0900F5CF62F00A00F5CF63F0BE
:107118007AC060F07BC061F07EEC6EF060C067F012
:1071280061C068F0000E00016A6F0A0E696F41ECD9
:1071380071F000016751300F00017F6F31D07AC0C4
:1071480060F07BC061F000017751020D750EF324E9
:10715800F66EFE0EF420F76E0900F5CF62F00A0015
:10716800F5CF63F07EEC6EF0000160510F0B00016B
:10717800726F00017251010D690EF324F66EFF0E55
:10718800F420F76E0800F5CF7FF00AD000017C519B
:10719800800B000AD8B4ADD7800AD8B4D0D700D0B5
:1071A80000017F51A3EC77F000D0000177070001C0
:1071B8007729D8B402D0EAD700D06CC0F6FF6DC0EA
:1071C800F7FF00016C4B6D2B0800F5CF7FF0000135
:1071D8007F51D8B41200A5D5120012000101046F26
:1071E8000101045102014E2502014E6F000E0201F9
:1071F8004F2102014F6F000E0101056F170E0101AB
:10720800056501D072D001010551010D000EF3246E
:10721800D96E030EF420DA6EDF50D8A463D00101D2
:107228000551020D000EF324D96E020EF420DA6E19
:10723800010104510101026F036B010E01010227D4
:10724800000E0323DE500101025DDE5001010359E7
:10725800D8B02DD001010551020D000EF324D96ECE
:10726800020EF420DA6EDECF00F1DDCF01F101016C
:1072780004510101026F036B0101021F031F024B3E
:10728800032B0101005101010227010101510101F4
:10729800032301010551020D000EF324D96E020EDD
:1072A800F420DA6E02C1DEFF03C1DDFF1BD001014D
:1072B8000551020D000EF324D96E020EF420DA6E89
:1072C800DE50DE10D8B40ED001010551020D000EBB
:1072D800F324D96E020EF420DA6E010EDE6E000E73
:1072E800DD6E00D00101052B89D7E80E02014E5D45
:1072F800030E02014F59D8A01200180E02014E25A4
:1073080002014E6FFC0E02014F2102014F6F472A06
:10731800000E0101066F170E0101066501D063D04A
:1073280001010651010D000EF324D96E030EF4205D
:10733800DA6EDE04D8A454D001010651020D000E05
:10734800F324D96E020EF420DA6E010EDB5004E14C
:10735800020EDE5CD8A029D0FF0E0101006FFF0EDF
:107368000101016F01010651020D000EF324D96ECF
:10737800020EF420DA6EDECF02F1DDCF03F1010157
:1073880000510101022701010151010103230101FB
:107398000651020D000EF324D96E020EF420DA6EA7
:1073A80002C1DEFF03C1DDFF1BD001010651020D42
:1073B800000EF324D96E020EF420DA6EDE50DE10D1
:1073C800D8B40ED001010651020D000EF324D96E77
:1073D800020EF420DA6E010EDE6E000EDD6E00D0B5
:1073E8000101062B98D73B0E476412004750C40F83
:1073F800476E432A000E0101076F170E010107654A
:1074080001D064D001010751010D000EF324D96E9B
:10741800030EF420DA6E020EDE18D8A454D001014F
:107428000751020D000EF324D96E020EF420DA6E15
:10743800010EDB5004E1020EDE5CD8A029D0FF0E5D
:107448000101006FFF0E0101016F01010751020DDB
:10745800000EF324D96E020EF420DA6EDECF02F1AC
:10746800DDCF03F1010100510101022701010151A2
:107478000101032301010751020D000EF324D96E07
:10748800020EF420DA6E02C1DEFF03C1DDFF1BD05D
:1074980001010751020D000EF324D96E020EF420EB
:1074A800DA6EDE50DE10D8B40ED001010751020D9D
:1074B800000EF324D96E020EF420DA6E010EDE6E91
:1074C800000EDD6E00D00101072B97D73B0E4364F9
:1074D80012004350C40F436E000E0101086F170ECF
:1074E8000101086502D01200120001010851010DC6
:1074F800000EF324D96E030EF420DA6E030EDE18A4
:10750800D8A454D001010851020D000EF324D96EFD
:10751800020EF420DA6E010EDB5004E1020EDE5C8E
:10752800D8A029D0FF0E0101006FFF0E0101016FE5
:1075380001010851020D000EF324D96E020EF42049
:10754800DA6EDECF02F1DDCF03F101010051010156
:107558000227010101510101032301010851020D14
:10756800000EF324D96E020EF420DA6E02C1DEFF9B
:1075780003C1DDFF1BD001010851020D000EF324E9
:10758800D96E020EF420DA6EDE50DE10D8B40ED0BA
:1075980001010851020D000EF324D96E020EF420E9
:1075A800DA6E010EDE6E000EDD6E00D00101082BD2
:1075B800170E0101086599D7120012001200000E7B
:1075C80001012D6F0A0E2C6F010E01012E6F3E0E68
:1075D80049EC48F0020137BF0CD00201375104E1F1
:1075E80002013605D8A005D002013607D8A0370712
:1075F80000D00101C051D8A402D0110E18D0020148
:10760800365102013711D8A418D059EC73F000098B
:10761800D8B407D0010E0201376F2C0E366F120E48
:1076280006D0000E0201376F1E0E366F100E0001D5
:10763800B66F010E0101CA6F00D00101CB510101E3
:10764800D8A40DD039EC22F093B609D00101CA5163
:107658000101D8B402D08A8602D08A9600D0130ECF
:1076680094EC74F00009D8B4BED00001D3510F0BCC
:107678000101306F010130510101316F326B01019D
:107688003151326F316B0001D25101013127000EA7
:1076980032230101312905E10F0E01013219D8B455
:1076A8001BD0010131510101B45D010132510101C9
:1076B800B559D8B006D00001D6A90AD005D008D04F
:1076C8000BD00001D6AB04D0D787D799D79B04D06D
:1076D800F70E0001D71700D00001D3390F0B0101B5
:1076E800306F010130510101316F326B01013151AD
:1076F800326F316B0001D45101013127000E322362
:107708000101312905E10F0E01013219D8B41BD04E
:10771800010131510101B45D010132510101B55935
:10772800D8B006D00001D6AD0AD005D008D00BD00D
:107738000001D6AF04D0100E0001D71304D0EF0E0D
:107748000001D71700D00001D6510F0B0101306F8F
:10775800010130510101316F326B01013151326F3A
:10776800316B0001D55101013127000E322301018F
:10777800312905E10F0E01013219D8B41BD00101DE
:1077880031510101B45D010132510101B559D8B03F
:1077980006D00001D7A10AD005D008D00BD000012F
:1077A800D7A304D0200E0001D71304D0DF0E0001A8
:1077B800D71700D029EC79F0030E0101016FF30E01
:1077C800006FD7C002F17EEC73F00001D731E832C8
:1077D800E832070B0101006F010E71EC44F0000E56
:1077E8000001B06F00D0130E8BEC76F00009D8B40E
:1077F8000CD0000E0101276F3C0E266F010E01010F
:10780800286F130EB1EC6DF000D00001D731E832CB
:10781800E832070B0101306F010130A11AD00101D4
:10782800CF2B9F0E0101CF6514D0000E0101CF6F41
:10783800020154290AE102015529D8A406D0000EF4
:107848000201556F000E546F04D00201544B552BA2
:1078580000D00001D731E832E832070B0101306F60
:10786800010130A31AD00101D02B9F0E0101D06570
:1078780014D0000E0101D06F020156290AE102015D
:107888005729D8A406D0000E0201576F000E566F74
:1078980004D00201564B572B00D00001D731E832F3
:1078A800E832070B0101306F010130A51200010118
:1078B800D12B9F0E0101D1651200000E0101D16F7D
:1078C800020158290AE102015929D8A406D0000E5C
:1078D8000201596F000E586F12000201584B592BC4
:1078E80012001200000E0101806FAAC081F1ABC026
:1078F80082F1010E0101586F18C10BF119C10CF189
:107908005A0E01010D6F010E01010E6F6EEC45F06C
:107918000101596FC7C05EF181C15FF182C160F199
:107928005A0E0101066F010E0101076F7E0E01015B
:10793800086F010E0101096F7F0E01010A6F010E28
:1079480001010B6F69EC46F07EC161F17FC162F104
:1079580018C10BF119C10CF126EC68F00101636F35
:1079680011EC79F00101646F19EC79F00101656F90
:10797800D1C01BF101011B3BF00E1B17E5EC78F0A1
:1079880001011B250001CF250101666FC5C167F103
:107998004CC268F14DC269F14AC26AF14BC26BF13F
:1079A80054C26CF155C26DF156C26EF157C26FF1F7
:1079B80058C270F159C271F181BA02D0010E01D0DA
:1079C800000E0101726F5AC273F15BC274F1B4C147
:1079D80075F1B5C176F1D2C077F10001D3510F0B23
:1079E80001011B6F01011B510101816F826B0101B4
:1079F800813B823BF00E821781510F0B8213F00EF0
:107A080081170001D3390F0B010181250101786F1E
:107A1800D4C079F1D5C07AF10001D6510F0B01011C
:107A28001B6F01011B510101816F826B0101813BB9
:107A3800823BF00E821781510F0B8213F00E8117D3
:107A48000001D6AF04D001011B6B1B2B02D0010132
:107A58001B6B0001D6AD02D0010E01D0000E020D45
:107A6800F3CF1CF10001D6AB02D0010E01D0000EFD
:107A7800040DF3CF1DF10001D6A902D0010E01D0EB
:107A8800000E080DF35001011D2501011C250101FF
:107A98001B250101812501017B6F0001D731E832E7
:107AA800E832070B01011B6F01011B510101816FB6
:107AB800826B0101D890813782370101D8908137D4
:107AC80082370001D739E832E832030B01011B6F16
:107AD8000001D7A502D0010E01D0000E200DF3CF72
:107AE8001CF10001D7A302D0010E01D0000E400DF9
:107AF800F3CF1DF10001D7A102D0010E01D0000E75
:107B0800800DF35001011D2501011C2501011B25D4
:107B18000101812501017C6FFCC27DF1260E010166
:107B2800806F0201FC6901011A510101D8B434D0F7
:107B3800580E0101006F010E0101016F000E0101D5
:107B4800026F1E0E0101036F010E0101046F140E76
:107B58000101056F80C106F103EC6CF01E0E0101F6
:107B68000E6F010E01010F6F18C110F119C111F14B
:107B780061EC62F01E0E0101046F010E0101056F38
:107B880001018051140F0101066F000E0101076FFA
:107B9800020EF8EC60F0120018C10EF119C10FF1D5
:107BA800580E0101106F010E0101116F80C112F111
:107BB800000E0101136F010E0101146F000E010187
:107BC800156F2AEC49F012001200010120EE01F0B5
:107BD8002F51D9263051DA222FC1E1FF30C1E2FFFF
:107BE800DE50E618D8A41200010120EE02F02F5151
:107BF800D9263051DA22010110EE01F02F51E12689
:107C08003051E222DE50E618D8A41200010120EE1D
:107C180002F02F51D9263051DA22DE28D8B41200CA
:107C28002FC1D9FF30C1DAFFDF500101336F0101E5
:107C380033A14CD0010120EE04F02F51D926305148
:107C4800DA22010110EE03F02F51E1263051E22231
:107C5800DE50E618D8A43AD0010120EE05F02F51E5
:107C6800D9263051DA22010110EE04F02F51E12615
:107C78003051E222DE50E618D8A428D0010120EEC7
:107C880005F02F51D9263051DA22DE28D8B41ED07B
:107C980029EC79F0030E0101016FFD0E006F01015F
:107CA80020EE03F02F51D9263051DA22DF5001019E
:107CB800026F7EEC73F0010120EE03F02F51D926FC
:107CC8003051DA22DF502FEC77F000D0010133A3D6
:107CD80042D0010120EE07F02F51D9263051DA2287
:107CE800010110EE06F02F51E1263051E222DE505C
:107CF800E618D8A430D0010120EE08F02F51D9267B
:107D08003051DA22010110EE07F02F51E1263051EF
:107D1800E222DE50E618D8A41ED029EC79F0030E32
:107D28000101016FFE0E006F010120EE06F02F51D8
:107D3800D9263051DA22DF500101026F7EEC73F050
:107D4800010120EE06F02F51D9263051DA22DF50FA
:107D5800E8EC72F000D0010133A54CD0010120EE0F
:107D68000AF02F51D9263051DA22010110EE09F01C
:107D78002F51E1263051E222DE50E618D8A43AD03D
:107D8800010120EE0BF02F51D9263051DA220101E2
:107D980010EE0AF02F51E1263051E222DE50E618AB
:107DA800D8A428D0010120EE0BF02F51D92630514C
:107DB800DA22DE28D8B41ED029EC79F0030E0101AE
:107DC800016FFC0E006F010120EE09F02F51D9263A
:107DD8003051DA22DF500101026F7EEC73F00101AD
:107DE80020EE09F02F51D9263051DA22DF5021EC4C
:107DF80078F000D0010133A71200010120EE0DF048
:107E08002F51D9263051DA22010110EE0CF02F51F2
:107E1800E1263051E222DE50E618D8A41200010112
:107E280020EE0EF02F51D9263051DA22010110EE42
:107E38000DF02F51E1263051E222DE50E618D8A489
:107E48001200010120EE0EF02F51D9263051DA220E
:107E5800DE28D8B4120029EC79F0030E0101016F75
:107E6800EF0E006F010120EE0CF02F51D926305192
:107E7800DA22DF500101026F7EEC73F0010120EE7F
:107E88000CF02F51D9263051DA22DF50EAEC78F085
:107E980012001200400E0101286F000E0101296F27
:107EA8003E0E0101296501D0D7D001012951060DE7
:107EB800BD0EF3240101066F0A0EF4200101076FBD
:107EC80021C108F122C109F1040E01010A6F40EC39
:107ED80072F00009D8B4A0D001012951060D040E92
:107EE800F326000EF422BD0EF324D96E0A0EF420F8
:107EF800DA6EDF500F0B0F0AD8A440D001012451CD
:107F08000101D8B43BD0452A01012951060D040EC0
:107F1800F326000EF422BD0EF324D96E0A0EF420C7
:107F2800DA6EDF90DF92DF94DF9623C100F1010162
:107F3800295110EC64F0020E01012419D8B41AD0AA
:107F4800030E0101086F01012351DAEC4AF0010127
:107F5800266F21C115F122C116F129C117F1010EB1
:107F68000101186F26C119F1000E01011A6F24ECE6
:107F78001EF000D00101295112006BD001012951D6
:107F8800060D040EF326000EF422BD0EF324D96E5E
:107F98000A0EF420DA6EDF500F0B0F0AD8B439D06E
:107FA80001012951060D040EF326000EF422BD0E20
:107FB800F324D96E0A0EF420DA6EDF90DF92DF9494
:107FC800DF9623C100F10101295110EC64F0020E83
:107FD80001012419D8B4CED7030E0101086F01019D
:107FE8002351DAEC4AF00101266F21C115F122C1B3
:107FF80016F129C117F1010E0101186F26C119F1F7
:10800800000E01011A6F24EC1EF0B4D7B3D712008A
:1080180020D0FF0E12001DD001012951060DBD0E02
:10802800F3240101066F0A0EF4200101076FE00E28
:108038000101086F010E0101096F040E01010A6FA9
:1080480040EC72F00009D8B404D029C128F104D05A
:1080580000D00101292B24D73E0E0101286521D02B
:10806800000E0101276F3E0E0101276501D019D0CE
:1080780001012751060D040EF326000EF422BD0E51
:10808800F324D96E0A0EF420DA6EDF500F0B0F0AB4
:10809800D8A403D027C128F104D00101272BE3D7A6
:1080A80000D03F0E0101286154D001012451010183
:1080B800D8B44FD021C106F122C107F101012851DE
:1080C800060DBD0EF3240101086F0A0EF42001010C
:1080D800096F040E01010A6F0EEC73F001012851BB
:1080E800060D040EF326000EF422BD0EF324D96EFD
:1080F8000A0EF420DA6EDF90DF92DF94DF9623C158
:1081080000F10101285110EC64F0452A020E01012A
:108118002419D8B41AD0030E0101086F01012351A4
:10812800DAEC4AF00101266F21C115F122C116F1DE
:1081380028C117F1010E0101186F26C119F1000EAF
:1081480001011A6F24EC1EF000D001012851120021
:1081580000D0FF0E12001200030E0101016F00692A
:10816800DEEC77F00101156F01011505D8A440D0A8
:10817800000E01011A6F000E196F01011ABF0AD013
:10818800F00E0101195D030E01011A59D8B011D082
:1081980001D00FD029EC79F019C100F11AC101F111
:1081A800FF0E0101026F7EEC73F00101194B1A2BCF
:1081B800E4D7030E01011A6FF40E196F01011ABFFB
:1081C80007D0040E01011A5DD8B012D001D010D02A
:1081D80029EC79F019C100F11AC101F1FF0E010172
:1081E800026F7EEC73F00101194B1A2BE7D700D010
:1081F800010E0101156504D001011529D8A40CD080
:1082080029EC79F0030E0101016F0069020E0101EA
:10821800026F7EEC73F000D0000E0101166F030EA2
:108228000101166501D018D001011651010DF90E92
:10823800F324D96E010EF420DA6EE80E010116253A
:108248000101006F0101016B030E0123DEEC77F0E1
:10825800DF6E0101162BE3D70101F929D8A419D043
:108268000101FA29D8A415D00101FB29D8A411D0FD
:108278000101FC29D8A40DD0000E0101F96F000EF0
:108288000101FA6F000E0101FB6F020E0101FC6F84
:1082980000D0030E0101016FEF0E006FDEEC77F0E6
:1082A8000101146F01011429D8A404D0080E01019A
:1082B800146F00D001011451EAEC78F00201EE29A4
:1082C800D8A451D00201EF29D8A44DD00201F02939
:1082D800D8A449D00201F129D8A445D0899E4B0ED3
:1082E800E9EC76F0000EE9EC76F0000EE9EC76F0B9
:1082F800000EE9EC76F0000EE9EC76F0000E0101D4
:10830800176F2BD02ED007EC78F001010051010136
:10831800136F030E010117651ED0FC0E0101076FD4
:10832800FF0E0101086F010117510101096F0A6B66
:1083380001010751010109270101085101010A231F
:10834800EE0E01010925D96E020E01010A21DA6E2D
:1083580013C1DFFF00D00101172B070E01011765BC
:10836800D2D7898E00D0000E0101186F070E0101C7
:10837800186501D018D001011851010D0B0EF32416
:10838800D96E010EF420DA6EF40E010118250101F0
:10839800006F0101016B030E0123DEEC77F0DF6E45
:1083A8000101182BE3D70B0E0101006F010E01012B
:1083B800016FB6EC6BF0030E0101016FFD0E006F4B
:1083C800DEEC77F0FF0AD8B40BD001D009D0030E49
:1083D8000101016FFD0E006FDEEC77F02FEC77F0F6
:1083E800030E0101016FFE0E006FDEEC77F0FF0A4D
:1083F800D8A403D00001C7691200030E0101016F60
:10840800FE0E006FDEEC77F00001C76F120012005D
:10841800000E0101126F000E116F010112BF0AD088
:108428000101125106E13F0E0101115DD8B082D061
:1084380001D080D0E00E0101066F010E0101076F27
:1084480011C100F112C101F1000E0101036F060E06
:10845800026F0FEC75F0BD0E010100250101086FD8
:108468000A0E010101210101096F040E01010A6FC1
:108478000EEC73F011C100F112C101F1000E0101FF
:10848800036F060E026F0FEC75F0040E0101002752
:10849800000E01010123BD0E01010025D96E0A0E4F
:1084A80001010121DA6EDF80DF82DF84DF8611C1FE
:1084B80000F112C101F1000E0101036F060E026FF7
:1084C8000FEC75F0040E01010027000E01010123D5
:1084D800BD0E01010025D96E0A0E01010121DA6ED7
:1084E800DF88DF8ADF8CDF8E11C100F112C101F154
:1084F800000E0101036F060E026F0FEC75F0050EFA
:1085080001010027000E01010123BD0E0101002514
:10851800D96E0A0E01010121DA6EFF0EDF6E01012C
:10852800114B122B010112BF85D70101125102E133
:108538007AD700D0000E0201866F000E0101126F7B
:10854800000E116F010112BF0AD00101125166E13C
:10855800FA0E0101115DD8B061D001D05FD011C110
:108568000FF112C110F1D89001010F371037010E29
:1085780001010F27000E1023C90E01010F25D96E26
:10858800080E01011021DA6EDF80DF82DF84DF86CA
:10859800DF88E00E0101076F010E0101086F01017C
:1085A800115124EC6DF011C10FF112C110F1D890E6
:1085B80001010F371037010E01010F27000E10239C
:1085C800C90E01010F25D96E080E01011021DA6EBE
:1085D800DF8ADF8CDF8ED89001011135D96E010159
:1085E8001235DA6EC90ED926080EDA22DF80DF824C
:1085F800DF84DF86DF88DF8AD89001011135D96EE4
:1086080001011235DA6EC90ED926080EDA223F0E9C
:10861800DF160101114B122B95D700D0E00E010196
:10862800066F010E0101076FF20E0101086F020EBD
:108638000101096F040E01010A6F0EEC73F00201CB
:10864800E969000E02018F6F030E0201906F000EA0
:108658000201B76F000E0201B96F020E0201BA6F74
:10866800000E0201BB6F010E0101F06F000E010147
:10867800DF6F000E0101D46F12000101166F0201B5
:10868800E8510201D8B42CD0240E01011619D8A43F
:1086980023D00201812B020E02018119D8A41AD11C
:1086A800000E0201E86F010E0201776F000E020151
:1086B800756F000E0201786F000E0201796F010ECE
:1086C8000201766F000E0001BE6F000E0201816F7D
:1086D800000E0201806FFED0000E0201816FFAD0F9
:1086E800020176510201D8B4DFD0020177510201AC
:1086F800D8B407D016C1C9F0000E0201776F010E79
:1087080006D0020175510201D8B404D0000E02014E
:10871800756F5DD00001BE510101106F116BFE0E27
:108728000101126FFF0E0101136F0001C951010110
:10873800146F156B01011251010114270101135126
:108748000101152301011051010114190FE1010163
:10875800115101011519D8A409D00D0E01011619DE
:10876800D8A435D0010E0201786F31D00001BE5176
:108778000101106F116BFF0E0101126FFF0E010155
:10878800136F0001C9510101146F156B01011251DA
:108798000101142701011351010115230101105191
:1087A800010114190FE10101115101011519D8A492
:1087B80009D00A0E01011619D8A409D0010E020128
:1087C800796F05D0010116510201801B00D000010C
:1087D800BE51010D800EF324D96E050EF420DA6E19
:1087E80016C1DFFF0001BE2B0001BE510001C919EF
:1087F800D8A43DD0000E0201766F0EC1D9FF0FC17B
:10880800DAFFBEC0DFFF800E0101066F050E010111
:10881800076F0CC108F10DC109F1BEC00AF10EECD9
:1088280073F0010E0201E86F000E0201816F020170
:1088380080510201D8B405D0000E0201806F000EED
:108848001200020178510201D8B40BD0020179510B
:108858000201D8B406D0000E0201806F010E12008A
:1088680039D0000E0201806F1CD0120033D03E0EAA
:108878000001BE652FD0010E0201E86F000E020153
:10888800816F000E0001BE6F000E0201776F000EAF
:108898000201756F000E0201786F000E0201796FF8
:1088A800E0D7000E120016D0010E0201E86F000E8C
:1088B8000201816F000E0201806F000E0201776FC6
:1088C800000E0201786F000E0201796F000E02019E
:1088D800756F00D0000E120012000101046F8B9C0E
:1088E8001A0EE82EFED700D0000E0101066F2DD01B
:1088F80030D08B9E06C101F1400E0101026F000EBF
:108908000101036F0101012B04D001010335033379
:1089180002330101012FF9D701010251501401015D
:10892800096F010109510101D8B402D08B8C02D022
:108938008B9C00D01A0EE82EFED700D08B8E1A0E14
:10894800E82EFED700D00101062B060E01010665B0
:10895800D0D78B9E8B9C1A0EE82EFED700D08B8E1C
:108968001A0EE82EFED700D08B9E948C1A0EE82E95
:10897800FED700D08B8E1A0EE82EFED700D0000E40
:1089880082BC010E0101056F010105510101D8A446
:1089980037D0949C000E0101076F070E010107658F
:1089A80001D02ED08B9E07C101F1800E0101026F0C
:1089B800000E0101036F0101012B04D001010335F1
:1089C800033302330101012FF9D7010102510101DB
:1089D80004150101096F010109510101D8B402D040
:1089E8008B8C02D08B9C00D01A0EE82EFED700D0BC
:1089F8008B8E1A0EE82EFED700D00101072BCDD79B
:108A08008B9E948C1A0EE82EFED700D08B8E1A0EF1
:108A1800E82EFED700D0000E82BC010E0101056FC2
:108A2800010105510101D8A437D0949C000E010121
:108A3800086F070E0101086501D02ED08B9E08C172
:108A480001F1800E0101026F000E0101036F0101A7
:108A5800012B04D001010335033302330101012F37
:108A6800F9D701010251010100150101096F010146
:108A780009510101D8B402D08B8C02D08B9C00D054
:108A88001A0EE82EFED700D08B8E1A0EE82EFED7CF
:108A980000D00101082BCDD78B9E948C1A0EE82E9E
:108AA800FED700D08B8E1A0EE82EFED700D0000E0F
:108AB80082BC010E0101056F949C8B9C8B9E1A0E43
:108AC800E82EFED700D08B8E1A0EE82EFED700D0E7
:108AD8008B8C1200000E0101126F000E116F010144
:108AE80012BF0AD00101125106E1FA0E0101115D0F
:108AF800D8B0E8D001D0E6D00BC104F10CC105F123
:108B0800010111517FEC5FF00009D8B4D0D011C138
:108B18000FF112C110F1D89001010F371037010E73
:108B280001010F27000E1023C90E01010F25D96E70
:108B3800080E01011021DA6EDF501F0B1F0AD8B48E
:108B4800A6D0D89001011135D96E01011235DA6E1F
:108B5800C90ED926080EDA22DF503F0B01010F6F2C
:108B680001010F51060DBD0EF324D96E0A0EF42033
:108B7800DA6E0DC1E1FF0EC1E2FFDFCFE7FFD8904B
:108B880001011135D96E01011235DA6EC90ED926E7
:108B9800080EDA22DF503F0B01010F6F01010F5160
:108BA800060D010EF326000EF422BD0EF324D96E35
:108BB8000A0EF420DA6E010110EE01F00D51E126E3
:108BC8000E51E222DFCFE7FFD89001011135D96EAF
:108BD80001011235DA6EC90ED926080EDA22DF50E5
:108BE8003F0B01010F6F01010F51060D020EF32615
:108BF800000EF422BD0EF324D96E0A0EF420DA6EAC
:108C0800010110EE02F00D51E1260E51E222DFCFF4
:108C1800E7FFD89001011135D96E01011235DA6EDE
:108C2800C90ED926080EDA22DF503F0B01010F6F5B
:108C380001010F51060D030EF326000EF422BD0E9E
:108C4800F324D96E0A0EF420DA6E010110EE03F057
:108C58000D51E1260E51E222DFCFE7FF11C10FF1DE
:108C680012C110F1D89001010F371037010E010120
:108C78000F27000E1023C90E01010F25D96E080E0B
:108C880001011021DA6EDF501F0B120010D0D890AE
:108C980001011135D96E01011235DA6EC90ED926D6
:108CA800080EDA223F0EDF161F0E120000D0010157
:108CB800114B122B010112BF1FD70101125102E102
:108CC80014D700D01F0E12001200000E01010F6F02
:108CD800000E0E6F01010FBF0AD001010F5106E10E
:108CE8003F0E01010E5DD8B0D4D001D0D2D006C15C
:108CF800D9FF07C1DAFF0EC100F10FC101F1000E63
:108D08000101036F060E026F0FEC75F0BD0E010135
:108D18000025E16E0A0E01010121E26EDE50E6181F
:108D2800D8A4ACD0010120EE01F00651D926075194
:108D3800DA220EC100F10FC101F1000E0101036F2B
:108D4800060E026F0FEC75F0010E01010027000EF0
:108D580001010123BD0E01010025E16E0A0E01018A
:108D68000121E26EDE50E618D8A488D0010120EE79
:108D780002F00651D9260751DA220EC100F10FC1BF
:108D880001F1000E0101036F060E026F0FEC75F082
:108D9800020E01010027000E01010123BD0E010191
:108DA8000025E16E0A0E01010121E26EDE50E6188F
:108DB800D8A464D0010120EE03F00651D92607514A
:108DC800DA220EC100F10FC101F1000E0101036F9B
:108DD800060E026F0FEC75F0030E01010027000E5E
:108DE80001010123BD0E01010025E16E0A0E0101FA
:108DF8000121E26EDE50E618D8A440D00EC100F181
:108E08000FC101F1000E0101036F060E026F0FEC96
:108E180075F0050E01010027000E01010123BD0EAA
:108E280001010025D96E0A0E01010121DA6E08C17F
:108E3800E1FF09C1E2FFDFCFE7FF0EC100F10FC17B
:108E480001F1000E0101036F060E026F0FEC75F0C1
:108E5800040E01010027000E01010123BD0E0101CE
:108E68000025D96E0A0E01010121DA6EDF380F0BD9
:108E78000AC1D9FF0BC1DAFFDF6E120001010E4BE8
:108E88000F2B01010FBF33D701010F5102E128D782
:108E980000D008C1D9FF09C1DAFFFF0EDF6E0AC191
:108EA800D9FF0BC1DAFF0F0EDF6E12001200395026
:108EB800D8B4D9D002017E51D8B410D0000E020126
:108EC8007E6F000E0001CC6F000E0001CD6F000E0A
:108ED800396E000E0001CA6F000E120002017C51AB
:108EE800D8A40DD0000E0001CC6F000E0001CD6F8C
:108EF800000E396E000E0001CA6F000E120000014C
:108F0800CD51FD0F10C1D9FF11C1DAFFDF6E000E80
:108F18000101186F400E0001CD650DD0000E000153
:108F2800CC6F000E0001CD6F000E396E000E0001EF
:108F3800CA6F000E1200020E0101196F11D0010153
:108F48001951010DA70EF324D96E040EF420DA6E20
:108F5800DF50010118190101186F0101192B00D008
:108F68000001CD510101195DD8A0E9D701011851BF
:108F78000101D8B40DD0000E0001CC6F000E000125
:108F8800CD6F000E396E000E0001CA6F000E120080
:108F980010C1D9FF11C1DAFF3D0EDF640DD0000EFC
:108FA8000001CC6F000E0001CD6F000E396E000E6F
:108FB8000001CA6F000E120010C1D9FF11C1DAFFFB
:108FC800DF500101126F136BFD0E0101146FFF0ECC
:108FD8000101156F0001CD510101166F176B0101D9
:108FE800145101011627010115510101172301012F
:108FF80012510101161906E1010113510101171956
:10900800D8B40DD0000E0001CC6F000E0001CD6F5A
:10901800000E396E000E0001CA6F000E1200A70E76
:109028000101006F040E0101016F020E0101026FC0
:109038000EC103F10FC104F1000E0101056F10C14B
:10904800D9FF11C1DAFFDF500101066F03EC6CF0A4
:10905800000E0001CC6F000E0001CD6F000E396EBE
:10906800010E12000FD03950D8B40CD0000E0001F8
:10907800CC6F000E0001CD6F000E396E000E00019E
:10908800CA6F00D0000E1200120001012F6F0101FB
:10909800D751D8B404D0000E0101D76F1200040EC6
:1090A80094EC74F00009D8B481D00101B851010DD5
:1090B8007D0EF324F66EFE0EF420F76E0800F550D0
:1090C8000009D8A473D0010E0101B86F010E020186
:1090D8007F6F6CD07AEC5EF00DC1AAF00EC1ABF0D8
:1090E8000001ABBF08D03E0E0001AA5D080E0001CA
:1090F800AB59D8B004D0000E0101B86F12000101BD
:10910800B82B1200BDEC66F00DC1B4F10EC1B5F17B
:109118000101B82B120001012F510201445D000E1C
:109128004559D8B003D00101B82B120001012F51C5
:109138000201445F000E455B1200000E0101EE6F54
:1091480001012F510201465D000E4759D8A01200B7
:1091580001D0120001012F510201465F000E475B4A
:109168001200040E8BEC76F00009D8B412002CC162
:1091780026F12DC127F12EC128F1040EB1EC6DF0B6
:10918800000E02017F6F1200000E0101006F080E31
:1091980034EC73F00101B82B120017EC6BF00DC121
:1091A8005AF20EC15BF20101B82B12000101B8514D
:1091B800010D7D0EF324F66EFE0EF420F76E080006
:1091C800F550000AD8B4CDD7010AD8B483D7030A1A
:1091D800D8B498D7010AD8B41200070AD8B4120034
:1091E800010AD8B41200030AD8B41200010AD8B48C
:1091F80012000F0AD8B48FD7010AD8B41200030A94
:10920800D8B49BD7010AD8B41200070AD8B4120000
:10921800010AD8B41200030AD8B41200010AD8B45B
:1092280012001F0AD8B4B9D7010AD8B4ADD7030AB7
:10923800D8B41200010AD8B41200070AD8B4120030
:10924800010AD8B41200030A120012000201865162
:10925800D8A4D2D00201B851D8A4CED0870E01012B
:10926800066F020E0101076FF20E0101086F020E70
:109278000101096F040E01010A6F0EEC73F08FC231
:10928800E9F2060E0201866F0EC106F10FC107F161
:109298008B0E0101086F020E0101096F040E010116
:1092A8000A6F0EEC73F0E40E0101066F010E010166
:1092B800076F870E0101086F020E0101096F040E86
:1092C80001010A6F0EEC73F066EC78F002018F6F03
:1092D800000E0201BB6F010115510101D8B402D083
:1092E800040E01D0030E0201906F00D0270E010179
:1092F800126156D00101C851D8B431D001011451BE
:109308000101D8B42CD0010E010110250101006F14
:10931800000E010111210101016FFF0E010112254B
:109328000101026F0101036BFF0E0323F5EC5DF0F1
:109338000101166F050E0101176F0101D89016374C
:109348000101172FFAD7010116510201916F10C1BF
:10935800D9FF11C1DAFFDF500201912708D010C1EF
:10936800D9FF11C1DAFFDF500201916F00D010C19F
:1093780000F111C101F1010E0101026F910E01010D
:10938800036F020E0101046F010E0101056F010157
:1093980012050101066F03EC6CF012C1B7F200D0A0
:1093A80013C1B8F2010113510101D8B403D0000E62
:1093B8000201866F0001B951D8A404D0000E010142
:1093C800DA6F18D08B0E0101066F020E0101076FCC
:1093D800EA0E0101086F020E0101096F040E010176
:1093E8000A6F40EC72F00009D8B404D0020E0201F2
:1093F800866F00D0010E1200000E1200120001014B
:10940800146F000E0101166F000E176F000E186F13
:10941800000E196F040E01010F19D8A40BD00DC14D
:1094280016F10EC117F10101000E17BFFF0E186FDC
:10943800196F54D001010F510101D8A42FD00DC1CB
:1094480010F10EC111F1000E010111BFFF0E126FD4
:10945800136F0F0ED89001011037113712371337D9
:10946800E82EF8D710C100F111C101F112C102F1C3
:1094780013C103F1E80E0101046F030E056F000E1E
:10948800066F000E076FDAEC64F000C116F101C137
:1094980017F102C118F103C119F120D001010F051C
:1094A800D8A41CD00DC110F10EC111F1000E01019C
:1094B80011BFFF0E126F136F0F0ED89001011037F6
:1094C800113712371337E82EF8D710C116F111C12A
:1094D80017F112C118F113C119F100D016C110F11A
:1094E80017C111F118C112F119C113F10101101FAF
:1094F800111F121F131F102B000E112312231323E9
:10950800FF0E010110250101166FFF0E0101112147
:109518000101176F000E010112210101186F000EE1
:10952800010113210101196F01011405D8A40BD001
:1095380017C1CFFF16C1CEFF8C0ECD6E9F809E90B7
:109548009D80CD8000D0030E01011419D8A40AD043
:1095580017C1B3FF16C1B2FF8C0EB16EA292A192D1
:10956800A082B1803F50D8A41200010E3F6E000EB9
:109578000101156F170E0101156502D012001200C6
:1095880001011551020D000EF324D96E020EF420CC
:10959800DA6E000EDE6E000EDD6E0101152B170E61
:1095A80001011565EDD71200120012000101116FBB
:1095B800030E01010819D8A460D03C0E0101116105
:1095C80002D0000E12D0C30E010111250101006F57
:1095D8000101016BFF0E0123000E0101036F050E4F
:1095E800026FA8EC63F0010100510101126F00D075
:1095F800010112510101096F0A6BFF0E01010B6F86
:10960800FF0E01010C6F08C10DF1010E01010E6F73
:10961800000E01010F6F01010D2B04D0D89001013C
:109628000E370F3701010D2FF9D701010B51010139
:109638000E2701010C5101010F23010109510101FC
:109648000E5D01010F51800A0101106F01010A51DD
:10965800800A01011059D8B071D008C109F1010E72
:1096680001010A6F0101092B03D00101D8900A37C3
:109678000101092FFAD75DD061D0040E0101081944
:10968800D8A45CD0DC0E010111250101006F010195
:10969800016BFF0E0123000E0101036F050E026F1F
:1096A800A8EC63F0010100510101126F0101125190
:1096B8000101096F0A6BFF0E01010B6FFF0E01011B
:1096C8000C6F08C10DF1010E01010E6F000E0101B2
:1096D8000F6F01010D2B04D0D89001010E370F3701
:1096E80001010D2FF9D701010B5101010E270101CD
:1096F8000C5101010F230101095101010E5D010106
:109708000F51800A0101106F01010A51800A0101FD
:109718001059D8B013D008C109F1010E01010A6F20
:109728000101092B03D00101D8900A370101092F43
:10973800FAD701010A050101126F00D00101125187
:10974800120012000101066F010104510101D8B491
:1097580002D0200E01D0600E0101056F9AD00101E0
:10976800055102090301D96F630E0301E06F01017E
:1097780006511B0F55D00101055102090301D96F8C
:10978800640E0301E06F01010651040F49D0210E58
:10979800010106610BD0010105510A090301D96FC6
:1097A800650E0301E06F06C1E1F381D001010551A7
:1097B8000A090301D96F640E0301E06F0101065124
:1097C800190F2ED074D0010105510A090301D96F70
:1097D800650E0301E06F01010651210F21D00C0E27
:1097E800010106610DD00101055102090301D96F7C
:1097F800630E0301E06F01010651040DF350B9D760
:109808000B0E010106650FD0190E010106610BD080
:1098180001010551020912D0640E0301E06F11D055
:109828000301E16F44D0180E0101066510D01F0E28
:10983800010106610CD0010105510A090301D96F24
:10984800EBD701010645E846FC0BD00FE9D71E0E01
:109858000101066509D0270E0101066105D00CD06B
:10986800650E0301E06F0ED0260E010106651FD0BC
:10987800320E010106611BD0010105510A090301DD
:10988800D96FEED701010645E846FC0B850FC8D70E
:109898000ED04F50010AD8B462D7030AD8B46BD798
:1098A800010AD8B474D7070AD8B48DD798D7D9C3C2
:1098B80002F1000E62EC75F0E0C302F10E0E62ECEC
:1098C80075F0E1C302F1100E62EC75F012000400AD
:1098D8004450D8A4120001D012001AC144F0000E5E
:1098E80001011B6FB0D0000E0001C46F0001CA5106
:1098F800D8A49DD03E0E0101196199D0010E000136
:10990800C66F0001CA51D8B404D0000E0001C66F5A
:1099180095D0200E5CEC58F00301E65101090101D5
:10992800026F1A0E62EC75F0800E5CEC58F00101C3
:109938001951020F5CEC78F00001B4515CEC78F03E
:10994800000E01011F6F64D001011F51010DF3507A
:1099580001011725D96EF45001011821DA6EDF5084
:1099680001011C6F01011F05D8B410D0020E0101BE
:109978001F19D8B40BD00001C45101011C190001F2
:10998800C46F01011C515CEC78F03FD001011F0548
:10999800D8A42BD0040E01010C6F010EE9EC5CF089
:1099A8000001A25101010C2501011D6F0001A35105
:1099B80001010D2101011E6F01011E515CEC78F0BF
:1099C80001011E510001C4190001C46F01011D519C
:1099D80002016C5D01011E5102016D59D8B015D00C
:1099E8001DC16CF21EC16DF210D0020E01011F19CB
:1099F800D8A40BD001011D515CEC78F00001C451D2
:109A080001011D190001C46F00D001011F2B00D0F6
:109A18000101195101011F5DD8A096D70001C45159
:109A28005CEC78F00400010E0101D76F09D03D0EFF
:109A38000101196501D002D00001CA51440600D0C5
:109A480001011B2B00D001011A5101011B5DD8A097
:109A58004AD7120002018651D8A4BBD00201B851DE
:109A6800D8A4B7D0870E0101066F020E0101076F57
:109A7800F20E0101086F020E0101096F040E0101C7
:109A88000A6F0EEC73F08FC2E9F2060E0201866FC0
:109A9800000E0201B96F020E0201BA6F0EC106F183
:109AA8000FC107F18B0E0101086F020E0101096F4A
:109AB800040E01010A6F0EEC73F0E40E0101066F4B
:109AC800010E0101076F870E0101086F020E0101E7
:109AD800096F040E01010A6F0EEC73F066EC78F062
:109AE80002018F6F000E0201B86F1D0E0201916F07
:109AF800210E0201926F10C193F23F0E0201946F82
:109B0800080E0101116F0101105101011103F3CF7A
:109B180012F1000E0101136F46D03F0E01011261D0
:109B280021D001011251060DBD0EF3240101006F71
:109B38000A0EF4200101016F000E0101026F910E5F
:109B48000101036F020E0101046F01011351040D9D
:109B5800F350060F0101056F040E0101066F03ECB7
:109B68006CF01CD0E00E0101006F010E0101016FC5
:109B7800000E0101026F910E0101036F020E010137
:109B8800046F01011351040DF350060F0101056F15
:109B9800040E0101066F03EC6CF000D00101122BDA
:109BA8000101132B00D0010111510101135DD8A04F
:109BB800B4D7030E0201906F260E0201B76F0001A1
:109BC800B951D8A404D0000E0101DA6F00D0010EFB
:109BD8001200000E1200120001010C6F000E0101AC
:109BE8000E6F0F015A99000E0001CA6F000E000196
:109BF800D86F000E0001CC6F000E0001CD6F000E73
:109C0800466E000E396E200E0101C06F000E020173
:109C18007C6F000E0001C66F000E0101D76F000EA9
:109C28004C6E000E446E8986050E0101076F260EE4
:109C3800E82EFED7072FFCD700D08996680E0101C1
:109C4800076FE40EE82EFED7072FFCD700D0000ED2
:109C58000101046F01010C51A6EC4BF0000E01014B
:109C68000E6F1F0E01010E6501D015D001010E51B6
:109C7800010DD90EF324D96E030EF420DA6EDF50ED
:109C88000101026F01010E51020DF35062EC75F0F3
:109C980001010E2BE6D7030E0101016FFC0E006FC8
:109CA800DEEC77F001010D6F01010D29D8A418D061
:109CB80029EC79F0030E0101016FFC0E006F000E14
:109CC8000101026F7EEC73F0000E21EC78F0D80EE3
:109CD8000101096F09C102F13C0E62EC75F01ED05A
:109CE80001010D510101D8A40CD0000E21EC78F02F
:109CF800D80E01010A6F0AC102F13C0E62EC75F040
:109D08000DD001010D5121EC78F0DA0E01010B6F35
:109D18000BC102F13C0E62EC75F000D0F29600F037
:109D28000F015A8900F081CF08F100F0F290F28615
:109D38000CC14EF0150E0101076FC60EE82EFED7B6
:109D4800072FFCD700D0D0EC77F0010E0001CF6FC1
:109D5800000E0001D16F1200000E01010B6F3E0EC4
:109D680001010B6502D01200120001010B51060D12
:109D7800040EF326000EF422BD0EF324D96E0A0E4B
:109D8800F420DA6EDF500F0B0F0AD8B49CD0010E06
:109D98000101086F01010B51060D040EF326000E98
:109DA800F422BD0EF324D96E0A0EF420DA6EDF50C9
:109DB8000F0B0101096F0101085101010927DF504B
:109DC80001010919F00B01010919DF6E45500F0D4A
:109DD800F3CF00F1F4CF01F1000E0101036F400E43
:109DE800026FA8EC63F0040E01010027000E0101C8
:109DF800012301010B51060D040EF326000EF42277
:109E0800BD0EF324D96E0A0EF420DA6EDF500F0B64
:109E18000101086F096B010100510101085D010191
:109E28000951800A01010A6F01010151800A0101EB
:109E38000A59D8B012D001010B51060D040EF326B1
:109E4800000EF422BD0EF324D96E0A0EF420DA6E49
:109E5800DF500F0B0F0AD8A436D001010B51060DA5
:109E6800040EF326000EF422BD0EF324D96E0A0E5A
:109E7800F420DA6EDF80DF82DF84DF8601010B5198
:109E8800060D050EF326000EF422BD0EF324D96E3E
:109E98000A0EF420DA6EFF0EDF6E01010B51060D7B
:109EA800040EF326000EF422BD0EF324D96E0A0E1A
:109EB800F420DA6EDF88DF8ADF8CDF8E4550D8B475
:109EC80002D0450600D001010B2B3E0E01010B65A7
:109ED8004CD712001200156E000E176E000E186E89
:109EE800000E196E000E1A6E040E1018D8A40AD0AF
:109EF8000EC017F00FC018F0000E18BEFF0E196E36
:109F08001A6E4CD01050D8A42CD00EC011F00FC02F
:109F180012F0000E12BEFF0E136E146E0F0ED890C4
:109F28001136123613361436E82EF9D711C001F05F
:109F380012C002F013C003F014C004F0E80E056E5E
:109F4800030E066E000E076E000E086EF7EC6DF03D
:109F580001C017F002C018F003C019F004C01AF0CD
:109F68001DD01004D8A41AD00EC011F00FC012F0E2
:109F7800000E12BEFF0E136E146E0F0ED89011361F
:109F8800123613361436E82EF9D711C017F012C05E
:109F980018F013C019F014C01AF000D017C011F04F
:109FA80018C012F019C013F01AC014F0111E121EB6
:109FB800131E141E112A000E122213221422FF0E41
:109FC8001124176EFF0E1220186E000E1320196E42
:109FD800000E14201A6E1504D8A40BD018C0CFFF99
:109FE80017C0CEFF8C0ECD6E9F809E909D80CD8039
:109FF80000D0030E1518D8A40AD018C0B3FF17C094
:10A00800B2FF8C0EB16EA292A192A082B1803F5095
:10A01800D8A41200010E3F6E000E166E170E1664BD
:10A0280002D0120012001650020D000EF324D96E51
:10A03800020EF420DA6E000EDE6E000EDD6E162AB9
:10A04800170E1664F0D71200120012001D0E01013F
:10A05800426F1AC10BF11BC10CF1430E01010D6FC8
:10A06800010E01010E6F6EEC45F00101476F1D0EE8
:10A0780001011C6F260E01011D6F1AC100F11BC1E1
:10A0880001F1000E0101026F1C0E0101036F010EA8
:10A098000101046F020E0101056F040E0101066F34
:10A0A80003EC6CF0430E0101006F010E0101016F1A
:10A0B800000E0101026F1C0E0101036F010E010168
:10A0C800046F060E0101056F040E0101066F03EC13
:10A0D8006CF047C126F11AC100F11BC101F1000E55
:10A0E8000101026F1C0E0101036F010E0101046FD3
:10A0F8000B0E0101056F040E0101066F03EC6CF0F5
:10A10800430E0101006F010E0101016F000E0101F4
:10A11800026F1C0E0101036F010E0101046F0F0E87
:10A128000101056F040E0101066F03EC6CF047C1D5
:10A138002FF11AC100F11BC101F1000E0101026FDC
:10A148001C0E0101036F010E0101046F140E0101C1
:10A15800056F040E0101066F03EC6CF0430E01015C
:10A16800006F010E0101016F000E0101026F1C0E4C
:10A178000101036F010E0101046F180E0101056F43
:10A18800040E0101066F03EC6CF047C138F118C1E9
:10A198000EF119C10FF11C0E0101106F010E010122
:10A1A800116F42C112F1000E0101136F010E01017E
:10A1B800146F000E0101156F2AEC49F0120012000D
:10A1C80000C1D9FF01C1DAFF000EDF6E010120EEE8
:10A1D80001F00051D9260151DA22000EDF6E4050FD
:10A1E800D8A404D00001BF51D8B439D01E0E000144
:10A1F800C06103D00001C02B00D01E0E0001C019A1
:10A20800D8A41AD00E0E0001C26516D000C1D9FF1D
:10A2180001C1DAFF030EDF6E2D0E0001C06F0101D0
:10A2280020EE01F00051D9260151DA22030EDF6E2B
:10A238002D0E0001C26F0FD01E0E0001C019D8A448
:10A248000AD000C1D9FF01C1DAFF020EDF6E2D0E60
:10A258000001C06F00D0000E0001BF6F13D0010EC7
:10A268000001C0650BD01F0E0001C06107D000C1FE
:10A27800D9FF01C1DAFF010EDF6E00D0000E000128
:10A28800C06F00D04150D8A404D00001C151D8B447
:10A298003AD01E0E0001C26103D00001C22B00D0CB
:10A2A8001E0E0001C219D8A41AD00E0E0001C065F6
:10A2B80016D000C1D9FF01C1DAFF030EDF6E2D0EE3
:10A2C8000001C06F010120EE01F00051D9260151B3
:10A2D800DA22030E11D02D0E0001C26F10D01E0E0F
:10A2E8000001C219D8A40BD0010120EE01F00051E1
:10A2F800D9260151DA22020EDF6EEDD700D0000E0A
:10A308000001C16F1200010E0001C2650ED01F0EC0
:10A318000001C2610AD0010120EE01F00051D926E6
:10A328000151DA22010EDF6E00D0000E0001C26F6B
:10A33800120012001D0E0101266F200E0101276F69
:10A3480022C128F135EC79F00101296F030E0101D2
:10A35800556F0101225101015503F3CF54F1000E4D
:10A368000101586F000E576F6DD04C0E0101146F2C
:10A37800010E0101156F500E0101166F010E01014A
:10A38800176F560E0101186F010E0101196F0101B7
:10A3980054517DEC60F04C0E0101006F010E01017B
:10A3A800016F000E0101026F260E0101036F010EFD
:10A3B8000101046F01015751090DF350040F010108
:10A3C800056F040E0101066F03EC6CF0500E0101DD
:10A3D800006F010E0101016F000E0101026F260ED0
:10A3E8000101036F010E0101046F01015751090DAD
:10A3F800F350080F0101056F040E0101066F03EC0D
:10A408006CF057C100F158C101F1000E0101036F52
:10A41800090E026F0FEC75F00C0E01010027000EFB
:10A4280001010123260E01010025D96E010E01014B
:10A438000121DA6E56C1DFFF0101542B0101574B90
:10A44800582B00D0010155510101236F246B0101E4
:10A4580023510101575D01015851800A0101256FFF
:10A4680001012451800A01012559D8A07ED720C1B5
:10A478000EF121C10FF1260E0101106F010E01012D
:10A48800116F260E0101126F000E0101136F010EEC
:10A498000101146F000E0101156F2AEC49F012003A
:10A4A80012000AC10EF101010F6B106B0101093591
:10A4B80001010E3701E30F8101010E510101116FF6
:10A4C80001011151D8A40AD0000E0101086F000E35
:10A4D8000101096F000E01010A6F12000DC10EF192
:10A4E80001010F6B106B01010C3501010E3701E3FF
:10A4F8000F8101010E510101166F01011651D8A4F7
:10A508000AD0000E0101086F000E0101096F000E4C
:10A5180001010A6F1200010116517B0F0101112779
:10A528000AC116F101010D510101161B800E01012E
:10A5380016170101098F01010C8FFF0E01010B177E
:10A54800FF0E01010C17000E01010D17000E01018D
:10A55800126F000E0101136F000E0101146F070E38
:10A568000101156F00D0010108A10DD001010B51A7
:10A578000101122701010C510101132301010D51A1
:10A588000101142300D00101D8900A33093308339C
:10A598000101D8900B370C370D370101152FE3D780
:10A5A80000D0090E0101156F00D0010108A10DD0DE
:10A5B80001010B510101122701010C510101132363
:10A5C80001010D510101142300D00101D8900A3373
:10A5D800093308330101D8901433133312330101BE
:10A5E800152FE3D700D012C100F113C101F114C136
:10A5F80002F111C103F116C104F1AFEC5AF000C128
:10A6080008F101C109F102C10AF1120012006EC07D
:10A6180072F00001736B746B00016D3500017237C5
:10A6280001E37381000172510001756F00017551DA
:10A63800D8A40AD0000E00016C6F000E00016D6FE7
:10A64800000E00016E6F120071C072F00001736B92
:10A65800746B000170350001723701E373810001EA
:10A66800725100017A6F00017A51D8A40AD0000E05
:10A6780000016C6F000E00016D6F000E00016E6F1F
:10A68800120000017A517B0F000175276EC07AF025
:10A698000001715100017A1B800E00017A17000138
:10A6A8006D8F0001708FFF0E00016F17FF0E000104
:10A6B8007017000E00017117000E0001766F000E72
:10A6C8000001776F000E0001786F070E0001796FA7
:10A6D80000D000016CA10DD000016F510001762758
:10A6E80000017051000177230001715100017823A6
:10A6F80000D00001D8906E336D336C330001D890D0
:10A708006F37703771370001792FE3D700D0090E02
:10A718000001796F00D000016CA10DD000016F51CC
:10A728000001762700017051000177230001715163
:10A738000001782300D00001D8906E336D336C335C
:10A748000001D8907833773376330001792FE3D737
:10A7580000D076C060F077C061F078C062F075C054
:10A7680063F07AC064F03FEC5BF060C06CF061C0ED
:10A778006DF062C06EF012001200010100050101C7
:10A788000111D8A433D00001A651301805E1000109
:10A79800A7513118D8B49DD0020171510201D8B423
:10A7A80002D0000E1200010E0201716F000E30245B
:10A7B800D96E050E3120DA6E02C1E1FF03C1E2FF56
:10A7C800DFCFE7FF304A312A31BE0AD0315004E1E9
:10A7D800800E305CD8A004D0000E316E000E306EB2
:10A7E800000E0201716F010E120073D0020E0101FA
:10A7F800001901010111D8A433D00001A851321861
:10A8080005E10001A9513318D8B463D0020172518F
:10A818000201D8B402D0000E1200010E0201726FBC
:10A82800C90E3224D96E060E3320DA6E02C1E1FF5A
:10A8380003C1E2FFDFCFE7FF324A332A33BE0AD033
:10A84800800E325C010E3358D8A004D0000E336E4F
:10A85800000E326E000E0201726FC5D7120039D099
:10A86800040E0101001901010111D8A432D0000120
:10A87800A4512E1805E10001A5512F18D8B429D0EC
:10A888000001AC51D8B402D0000E1200010E000134
:10A89800AC6F000E2E24D96E040E2F20DA6E02C182
:10A8A800E1FF03C1E2FFDFCFE7FF2E4A2F2A2FBEC9
:10A8B8000AD02F5004E1270E2E5CD8A004D0000E39
:10A8C8002F6E000E2E6E000E0001AC6F8CD712009A
:10A8D80000D0000E120012000001BD51D8B4A3D060
:10A8E8000001CA51D8A49FD0C3C000F10101016B77
:10A8F800000E0101036F000E026FC90E0101046F03
:10A90800000E056F000E066F000E076FF2EC6FF079
:10A918000101005101012F6F01012F510101D8A43C
:10A9280002D0000E1200000E01010E6F01012F511E
:10A93800010D000EF324D96E060EF420DA6EDF50F6
:10A94800D7EC76F0D3A60FD0040E01010C6F010EE0
:10A95800E9EC5CF00001A25101010C250101306F06
:10A968000001A35114D0040E01010C6F010EE9EC93
:10A978005CF00001A25101010C270001A351010163
:10A988000D23E60E01010C250101306FFF0E0101B8
:10A998000D210101316F00D019EC79F02CC1D9FFDC
:10A9A8002DC1DAFFDF6E010120EE02F02C51D9260D
:10A9B8002D51DA2230C1DFFF010120EE01F02C51C8
:10A9C800D9262D51DA2201013151DF6E2CC117F140
:10A9D8002DC118F101012E51030F0101196F010E4C
:10A9E80001011A6F6BEC4CF00101CC51D8A417D0BF
:10A9F800080ED5EC70F0010100510101CC250101D0
:10AA0800CC6FCCC126F10101276B010E0101286F23
:10AA1800080EB1EC6DF0000E0101CC6F00D0000EF5
:10AA2800486E010E1200000E1200120000C1D9FF7C
:10AA380001C1DAFF1D0EDF6E010120EE01F00051A9
:10AA4800D9260151DA22230EDF6E010120EE02F031
:10AA58000051D9260151DA22D1C002F10101023B8D
:10AA6800F00E0217E5EC78F0010102250001CF2570
:10AA7800DF6E010120EE03F00051D9260151DA22E0
:10AA8800D1C002F10101023BF00E0217E5EC78F0AB
:10AA9800010102250001CF25DF6E010120EE04F03F
:10AAA8000051D9260151DA22D1C002F10101023B3D
:10AAB800F00E0217E5EC78F0010102250001CF2520
:10AAC800DF6E010120EE05F00051D9260151DA228E
:10AAD800C7C0DFFF010120EE06F00051D926015161
:10AAE800DA22C7C0DFFF010120EE07F00051D926A6
:10AAF8000151DA22C7C0DFFF010120EE08F0005142
:10AB0800D9260151DA2211EC79F0DF6E010120EE2D
:10AB180009F00051D9260151DA2211EC79F0DF6EE3
:10AB2800010120EE0AF00051D9260151DA2211EC78
:10AB380079F0DF6E010120EE0BF00051D9260151AA
:10AB4800DA220DEC79F0DF6E010120EE0CF00051F5
:10AB5800D9260151DA220DEC79F0DF6E010120EEE1
:10AB68000DF00051D9260151DA220DEC79F0DF6E93
:10AB78000E0E0101036F010103511200120019C1E9
:10AB88001BF101011C6B1D6B0101183501011B37FD
:10AB980001E31C8101011B510101256F01012551B0
:10ABA800D8A40AD0000E0101176F000E186F000E0E
:10ABB800196F000E1A6F1200170E01011B6F17C1D3
:10ABC8001CF118C11DF119C11EF101011B29010158
:10ABD8001F6F05D00101D8901E331D331C330101AE
:10ABE8001F2FF8D701011C510101206F0101188F97
:10ABF800FF0E01011717FF0E01011817000E0101C2
:10AC08001917010117510101216F010118510101A3
:10AC1800226F010119510101236F0101246B8E0E6E
:10AC28000101255F010125AF1BD001012551800AD3
:10AC38008F0FD8B00BD0000E0101176F000E186FE0
:10AC4800000E196F000E1A6F120000D00101D89083
:10AC580024332333223321330101253FF7D71FD073
:10AC6800170E0101256514D0000E0101176F000EA3
:10AC7800186F000E196F000E1A6F120009D001012B
:10AC8800D89021372237233724370101250700D0F0
:10AC9800010125510101D8B402D0F1D700D001013A
:10ACA80020510101D8B40AD00101241F231F221FFB
:10ACB800216D000E22232323242300D021C117F164
:10ACC80022C118F123C119F124C11AF1120012008E
:10ACD8000DC111F10101126B136B01010C3501015A
:10ACE800113701E31281010111510101186F0101AE
:10ACF8001851D8A40AD0000E01010B6F000E0101F3
:10AD08000C6F000E01010D6F120010C111F101014D
:10AD1800126B136B01010F350101113701E3128129
:10AD2800010111510101196F01011951D8A40AD06B
:10AD3800000E01010B6F000E01010C6F000E0101E6
:10AD48000D6F1200000E0101156F000E0101166F44
:10AD5800000E0101176F01011951890F0101185FD8
:10AD68000DC119F1010110510101191B800E0101DA
:10AD7800191701010C8FFF0E01010B17FF0E0101BE
:10AD88000C17000E01010D1701010F8FFF0E0101B5
:10AD98000E17FF0E01010F17000E01011017180EF4
:10ADA8000101146F00D00101D890153716371737F5
:10ADB80001010E5101010B5D01010F5101010C59F7
:10ADC8000101105101010D59D8A00ED001010E51F9
:10ADD80001010B5F01010F5101010C5B01011051D1
:10ADE80001010D5B010115810101D8900B370C376A
:10ADF8000D370101142FD7D700D015C100F116C1A6
:10AE080001F117C102F118C103F119C104F1AFEC46
:10AE18005AF000C10BF101C10CF102C10DF1120091
:10AE280012007DC07FF00001806B816B00017C35D2
:10AE380000017F3701E3808100017F510001896FA4
:10AE480000018951D8A40AD0000E00017B6F000EC2
:10AE58007C6F000E7D6F000E7E6F1200170E0001D2
:10AE68007F6F7BC080F07CC081F07DC082F00001E4
:10AE78007F290001836F05D00001D8908233813388
:10AE880080330001832FF8D7000180510001846FBF
:10AE980000017C8FFF0E00017B17FF0E00017C175D
:10AEA800000E00017D1700017B510001856F000134
:10AEB8007C510001866F00017D510001876F000100
:10AEC800886B8E0E0001895F000189AF1BD00001DD
:10AED8008951800A8F0FD8B00BD0000E00017B6F0C
:10AEE800000E7C6F000E7D6F000E7E6F120000D08A
:10AEF8000001D89088338733863385330001893F32
:10AF0800F7D71FD0170E0001896514D0000E000175
:10AF18007B6F000E7C6F000E7D6F000E7E6F12003F
:10AF280009D00001D89085378637873788370001E0
:10AF3800890700D0000189510001D8B402D0F1D7A7
:10AF480000D0000184510001D8B40AD00001881F44
:10AF5800871F861F856D000E86238723882300D0D0
:10AF680085C07BF086C07CF087C07DF088C07EF00D
:10AF7800120012007C0ED36E9B8CD2909B8E200EFA
:10AF8800926EBB0E936E130E946E860E806E010E3B
:10AF9800816EC40E826E100E0F015D6F050E0F01DB
:10AFA8005C6FF19E0F015B810F015B930F015B8565
:10AFB8000F015B970F015B990F015B9B0F015B9D75
:10AFC8000F015B9FD180030E0101016FEC0E006F32
:10AFD800DEEC77F00001D26F030E0101016FED0E78
:10AFE800006FDEEC77F00001D36F030E0101016FF3
:10AFF800EE0E006FDEEC77F00001D46F030E010156
:10B00800016FF10E006FDEEC77F00001D56F030ED3
:10B018000101016FF20E006FDEEC77F00001D66FD0
:10B02800030E0101016FF30E006FDEEC77F00001F3
:10B03800D76F0001D7A506D00001D795D797D79924
:10B04800D79B00D0000E0101006F030E71EC44F095
:10B058000001D731E832E832070B0101006F010E19
:10B0680071EC44F0010E0101F06F000E02014B6F0C
:10B07800000E4A6F000E0201496F000E486F000E65
:10B0880002016B6F000E6A6F000E02016D6F000EF9
:10B098006C6F000E0101C56F0201BC690201BD6938
:10B0A8000201BE690201BF69000E02017D6F120034
:10B0B8000101056F80D0000E0101006F010E50ECF8
:10B0C80074F0E40E00D000D0E82EFCD700D000D0F9
:10B0D8000301D9511F0B80090301D96FD9C302F1AC
:10B0E800000E62EC75F0800E0101C06F0B0E0101BD
:10B0F800046F620EE82EFED7042FFCD700D0120092
:10B108000301D9511F0B60090301D96FD9C302F19B
:10B11800000E62EC75F0D1C000F1000E50EC74F036
:10B12800600E0101C06F1200000E0101006F000ED9
:10B1380050EC74F00301D9511F0B20090301D96F9A
:10B14800D9C302F1000E62EC75F0680E0101046FBC
:10B15800E40EE82EFED7042FFCD700D0200E010104
:10B16800C06F1200000E0101006F000E50EC74F069
:10B178000301D9511F0B40090301D96FD9C302F14B
:10B18800000E62EC75F0400E0101C06F1200000E57
:10B198000101006F000E50EC74F00301D9511F0B30
:10B1A8000301D96F000E0101C06FD9C302F1000E6F
:10B1B80062EC75F0120001010551000AD8B4E7D716
:10B1C800200AD8B4B1D7600AD8B4CCD7200AD8B4EA
:10B1D80097D7E00AD8A412006ED7120006EEC9F07D
:10B1E80015EE6EF0EE6AE550E150FCE1E250FAE14E
:10B1F80005EE00F0BF0EEE6AE806FDE104EE00F091
:10B20800E70EEE6AE806FDE103EE00F0D90EEE6AFD
:10B21800E806FDE102EE00F0C00EEE6AE806FDE188
:10B2280001EEB0F03E0EEE6AE806FDE100EEA2F097
:10B23800370EEE6AE806FDE100EE2CF0220EEE6A0B
:10B24800E806FDE1EA0EF66EC80EF76E000EF86E1F
:10B2580006EE00F010EEC9F00900F5CFEEFFE5505C
:10B26800E150FAE1E60EF66EEE0EF76E000EF86E9D
:10B2780003EED9F010EE20F00900F5CFEEFFE5500F
:10B28800E150FAE1AA0EF66EE90EF76E000EF86EBE
:10B2980002EEC0F010EE3AF00900F5CFEEFFE550EF
:10B2A800E150FAE1780EF66EF10EF76E000EF86EC8
:10B2B80001EEEEF010EE0FF00900F5CFEEFFE550CD
:10B2C800E150FAE17A0EF66EF20EF76E000EF86EA5
:10B2D8000900F5CFD9F00900F5CFDAF0100EF66EB7
:10B2E800F20EF76E000EF86E00EE4EF010EE09F05A
:10B2F8000900F5CFEEFFE550E150FAE1000EF86ED7
:10B308000001EDEF04F00001BD51D8A404D0000104
:10B31800CA51D8B403D0000E120087D03E50D8A42A
:10B3280084D0C3C000F10101016B23C102F1010106
:10B33800036BC90E0101046F000E056F000E066F46
:10B34800000E076FF2EC6FF0010100510101246F4C
:10B35800010124510101D8A402D0000E1200000EF0
:10B3680001010E6F01012451010D000EF324D96E65
:10B37800060EF420DA6EDF50D7EC76F0D3A60FD0A5
:10B38800040E01010C6F010EE9EC5CF00001A25102
:10B3980001010C250101256F0001A35114D0040EF1
:10B3A80001010C6F010EE9EC5CF00001A2510101F2
:10B3B8000C270001A35101010D23E60E01010C2504
:10B3C8000101256FFF0E01010D210101266F00D03B
:10B3D80019EC79F020C1D9FF21C1DAFFDF6E010134
:10B3E80020EE02F02051D9262151DA2225C1DFFFB3
:10B3F800010120EE01F02051D9262151DA22010164
:10B408002651DF6E20C117F121C118F10101225127
:10B41800030F0101196F010E01011A6F6BEC4CF05B
:10B42800010E3E6E010E120000D0000E1200120036
:10B4380006C1D9FF07C1DAFFDE04D8A489D0050EFA
:10B448000101086585D0F90E010108250101006F89
:10B458000101016BFF0E0123000E0101036F050EB0
:10B46800026F19EC67F00101005101010111D8A424
:10B478006FD0FF0E0101096FFF0E01010A6F010174
:10B48800085101010B6F0C6B0101095101010B27D8
:10B4980001010A5101010C2301010B51010106258B
:10B4A800D96E01010C5101010721DA6E0001C75163
:10B4B800DE18D8B420D0FF0E0101096FFF0E01017C
:10B4C8000A6F0101085101010B6F0C6B0101095151
:10B4D80001010B2701010A5101010C2301010B5144
:10B4E80001010625D96E01010C5101010721DA6E0F
:10B4F800DE28D8A403D0010E12002AD00001C729E3
:10B50800D8A423D0FF0E0101096FFF0E01010A6FB5
:10B518000101085101010B6F0C6B01010951010177
:10B528000B2701010A5101010C2301010B510101F3
:10B538000625D96E01010C5101010721DA6EDE28BA
:10B54800D8B403D0020E120003D0000E120000D0AF
:10B55800000E12001200010103510101D8B408D0F5
:10B56800010100510101011101010211D8A413D0F8
:10B57800000E0101006F000E0101016F000E0101B4
:10B58800026F120008D00101032B0101D890023389
:10B598000133003300D0000E010100150101056FD1
:10B5A800000E010101150101066FFE0E01010215D1
:10B5B8000101076F01010551010106110101071180
:10B5C800D8B413D0E0D711D00101032B010E01012B
:10B5D8000027000E01010123000E010102230101D1
:10B5E800D89002330133003300D0000E010100155A
:10B5F8000101056F000E010101150101066FFF0E23
:10B60800010102150101076F010105510101061130
:10B6180001010711D8B40AD0D7D708D00101030710
:10B628000101D89000370137023700D0010101BF6E
:10B6380005D0020E01010361F1D700D0010103B169
:10B6480003D00101019F00D00101D890033301010B
:10B65800035101010213010104510101D8B403D0BF
:10B668000101028F00D000C100F101C101F102C146
:10B6780002F112001200000163510001D8B408D091
:10B68800000160510001611100016211D8A413D0BA
:10B69800000E0001606F000E0001616F000E0001D6
:10B6A800626F120008D00001632B0001D89062334A
:10B6B8006133603300D0000E000160150001656F32
:10B6C800000E000161150001666FFE0E0001621593
:10B6D8000001676F000165510001661100016711E3
:10B6E800D8B413D0E0D711D00001632B010E0001AC
:10B6F8006027000E00016123000E00016223000193
:10B70800D89062336133603300D0000E00016015B9
:10B718000001656F000E000161150001666FFF0EE4
:10B72800000162150001676F000165510001661193
:10B7380000016711D8B40AD0D7D708D00001630731
:10B748000001D89060376137623700D0000161BFCF
:10B7580005D0020E00016361F1D700D0000163B18A
:10B7680003D00001619F00D00001D890633300012D
:10B77800635100016213000164510001D8B403D081
:10B788000001628F00D060C060F061C061F062C0EB
:10B7980062F0120012000101000501010111D8A494
:10B7A80027D03C50D8A4120001D01200010E3C6EE4
:10B7B800000E0001A625D96E050E0001A721DA6E3C
:10B7C80002C1DFFF0001A64BA72B0001A7BF0DD0C8
:10B7D8000001A75105E1800E0001A65DD8A005D0A3
:10B7E800000E0001A76F000EA66F000E3C6E12003F
:10B7F800020E0101001901010111D8A427D03D5002
:10B80800D8A4120001D01200010E3D6EC90E00012D
:10B81800A825D96E060E0001A921DA6E02C1DFFF44
:10B828000001A84BA92B0001A9BF0DD0800E000173
:10B83800A85D010E0001A959D8A005D0000E00018D
:10B84800A96F000EA86F000E3D6E1200040E0101D4
:10B85800001901010111D8A412000001AD51D8A4AA
:10B86800120001D01200010E0001AD6F000E0001A0
:10B87800A425D96E040E0001A521DA6E02C1DFFFEE
:10B888000001A44BA52B0001A5BF0DD00001A551B7
:10B8980005E1270E0001A45DD8A005D0000E000127
:10B8A800A56F000EA46F000E0001AD6F120012000C
:10B8B8000001600500016111D8A427D03C50D8A42C
:10B8C800120001D01200010E3C6E000E0001A625E8
:10B8D800D96E050E0001A721DA6E62C0DFFF0001F4
:10B8E800A64BA72B0001A7BF0DD00001A75105E16A
:10B8F800800E0001A65DD8A005D0000E0001A76F3C
:10B90800000EA66F000E3C6E1200020E00016019B8
:10B9180000016111D8A427D03D50D8A4120001D04D
:10B928001200010E3D6EC90E0001A825D96E060E43
:10B938000001A921DA6E62C0DFFF0001A84BA92B24
:10B948000001A9BF0DD0800E0001A85D010E000105
:10B95800A959D8A005D0000E0001A96F000EA86F44
:10B96800000E3D6E1200040E000160190001611105
:10B97800D8A412000001AD51D8A4120001D01200C1
:10B98800010E0001AD6F000E0001A425D96E040E52
:10B998000001A521DA6E62C0DFFF0001A44BA52BD0
:10B9A8000001A5BF0DD00001A55105E1270E00013A
:10B9B800A45DD8A005D0000E0001A56F000EA46FED
:10B9C800000E0001AD6F120012000101126F01019B
:10B9D8001205D8A416D0CECF13F10101146BCFCF26
:10B9E80015F10101166B010115510101166F156B57
:10B9F80001011351010115270101145101011623F9
:10BA080000D0030E01011219D8A416D0B2CF13F139
:10BA18000101146BB3CF15F10101166B010115512A
:10BA28000101166F156B0101135101011527010161
:10BA380014510101162300D001010C510101D8A4B1
:10BA480035D015C10EF116C10FF101010E1F0F1FE0
:10BA58000E4B0F2BFF0E01010E250101106FFF0E7B
:10BA680001010F210101116F10C100F111C101F194
:10BA78000101026B036BE80E0101046F030E056FF1
:10BA8800000E066F000E076F78EC6FF0100E07D0EF
:10BA98000101D89003330233010101330033E82E4A
:10BAA800F7D700C10CF101C10DF1120015C10EF15B
:10BAB80016C10FF101010E1F0F1F0E4B0F2BFF0EAA
:10BAC80001010E2501010C6FFF0E01010F2101017B
:10BAD8000D6F120012000001706F00017005D8A4EC
:10BAE80016D0CECF73F00001746BCFCF75F0000184
:10BAF800766B000175510001766F756B000173510B
:10BB080000017527000174510001762300D0030E4F
:10BB180000017019D8A416D0B2CF73F00001746B6D
:10BB2800B3CF75F00001766B000175510001766F97
:10BB3800756B0001735100017527000174510001F4
:10BB4800762300D000016C510001D8A435D075C00F
:10BB58006EF076C06FF000016E1F6F1F6E4B6F2B7B
:10BB6800FF0E00016E250001716FFF0E00016F21AD
:10BB78000001726F71C060F072C061F00001626B09
:10BB8800636BE80E0001646F030E656F000E666F4D
:10BB9800000E676FB5EC6FF0100E07D00001D8905B
:10BBA80063336233000161336033E82EF7D760C036
:10BBB8006CF061C06DF0120075C06EF076C06FF069
:10BBC80000016E1F6F1F6E4B6F2BFF0E00016E255D
:10BBD80000016C6FFF0E00016F2100016D6F1200F4
:10BBE80012000001C8510001D8A404D0010E0001C0
:10BBF800C86F00D0C8C007F1000E01010A6F5DD000
:10BC0800000E0101096F000E086F2CD001010A51C6
:10BC1800010DF35001010025D96EF45001010121F5
:10BC2800DA6E0001C851010DC00EF324E16E020E58
:10BC3800F420E26EE7500101046F01010A51010D81
:10BC4800F35001010025E16EF45001010121E26E7B
:10BC5800E7500101042501010A25DF6E0101084BA7
:10BC6800092B00D00001C851010DC00EF324D96E74
:10BC7800020EF420DA6EDF50070B0101046F056B2A
:10BC8800010104510101085D01010951800A010106
:10BC9800066F01010551800A01010659D8A0B6D7DF
:10BCA8000001C82B070E0001C86504D0000E000172
:10BCB800C86F00D001010A2B00D001010A5101010F
:10BCC800046F056B010102510101045D0101055179
:10BCD800800A0101066F01010351800A010106591A
:10BCE800D8A08ED70101075112001200000E0101E1
:10BCF800116F000E0101106F000E0F6F000E010191
:10BD0800136F000E126F000E0101006F040E34EC69
:10BD180073F0000E0101136F000E126F000E010187
:10BD2800116F090E0101116501D023D03BEC79F0A8
:10BD380000D0D2EC78F00009D8A4FBD7C450010198
:10BD4800106F0F6BC35001010F13040E0101116531
:10BD580009D001010F510101122701011051010100
:10BD6800132300D00A0EE82EFED700D00101112BB4
:10BD7800D8D712C106F113C107F1000E0101096FEE
:10BD8800050E086F3DEC6EF006C112F107C113F104
:10BD9800020E0101006F040E34EC73F0C29012C160
:10BDA80000F113C101F1000E0101036F070E026FCC
:10BDB8000FEC75F000C106F101C107F1000E010199
:10BDC800096F060E086F3DEC6EF006C112F107C14F
:10BDD80013F10101D6510101125F000E0101D6BF16
:10BDE800FF0E0101135B12C10DF113C10EF1120018
:10BDF8001200000E0101096F010103AF0DD001010E
:10BE0800031F021F011F006D000E012302230323DD
:10BE1800010E0101096F00D0010107AF0AD001012D
:10BE2800071F061F051F046D000E052306230723A1
:10BE380000D00101045101010511010106110101A0
:10BE48000711D8B43FD0010E0101086F09D00101D4
:10BE5800D89004370537063707370101082B00D07B
:10BE6800010107BF02D0F3D700D00101045101013D
:10BE7800005D01010551010101590101065101014E
:10BE880002590101075101010359D8A011D001013C
:10BE980004510101005F010105510101015B01012C
:10BEA80006510101025B010107510101035B00D04A
:10BEB8000101D89007330633053304330101082FF5
:10BEC800D4D700D0010109510101D8B40AD0010129
:10BED800031F021F011F006D000E0123022303230D
:10BEE80000D000C100F101C101F102C102F103C19A
:10BEF80003F1120012000101086FFA0E0101086136
:10BF080078D008C109F101010A6B09C106F10AC11B
:10BF180007F10101D890063707370101D890063795
:10BF2800073706C109F107C10AF104C1D9FF05C1E4
:10BF3800DAFF09C102F10AC103F1B4EC78F001019A
:10BF4800076FDE5001010719D8A451D0010120EE76
:10BF580001F00451D9260551DA22010E0101092503
:10BF68000101026F000E01010A210101036FB4EC07
:10BF780078F00101076FDE5001010719D8A437D006
:10BF8800010120EE02F00451D9260551DA22020EF1
:10BF9800010109250101026F000E01010A210101B9
:10BFA800036FB4EC78F00101076FDE500101071947
:10BFB800D8A41DD0010120EE03F00451D926055163
:10BFC800DA22030E010109250101026F000E0101A9
:10BFD8000A210101036FB4EC78F00101076FDE500C
:10BFE80001010719D8A403D0010E120000D0000ED9
:10BFF8001200000E12001200010E0001CF6F000E99
:10C00800B3EC77F0000E0001D16FFF0EE8EC72F090
:10C01800000E21EC78F0080EEAEC78F0E0C1F9F1B6
:10C02800E1C1FAF1E2C1FBF1E3C1FCF1CFC02FF1AC
:10C0380029EC79F0030E0101016FEF0E006F0DEC92
:10C0480079F00101026F7EEC73F029EC79F0030EB0
:10C058000101016FFC0E006F11EC79F00101026F14
:10C068007EEC73F029EC79F0030E0101016FFD0EEF
:10C07800006F2FC102F17EEC73F029EC79F0030E0A
:10C088000101016FFE0E006FC7C002F17EEC73F074
:10C0980029EC79F0030E0101016FE80E006FFF0E25
:10C0A8000101026F7EEC73F029EC79F0030E0101B7
:10C0B800016FE90E006FFF0E0101026F7EEC73F055
:10C0C80029EC79F0030E0101016FEA0E006FFF0EF3
:10C0D8000101026F7EEC73F029EC79F0030E010187
:10C0E800016FEB0E006FFF0E0101026F7EEC73F023
:10C0F800120001011F6FFA0E01011F614FD01B0EC4
:10C1080001010C6F010E01010D6F01011F51D6ECE9
:10C1180068F01B0E0101066F010E0101076F14C1C3
:10C1280008F115C109F1040E01010A6F0EEC73F054
:10C1380001011F51020DC90EF324D96E080EF42017
:10C14800DA6EDF503F0B01011A6F01011A51060D1B
:10C15800BD0EF3240101066F0A0EF4200101076FDA
:10C1680016C108F117C109F1040E01010A6F0EEC9E
:10C1780073F001011F51020D010EF326000EF42287
:10C18800C90EF324D96E080EF420DA6EDF501F0BA7
:10C1980018C1D9FF19C1DAFFDF6E1200E00E0101E4
:10C1A800066F010E0101076F14C108F115C109F1ED
:10C1B800040E01010A6F0EEC73F0E00E0101066F28
:10C1C800010E0101076F16C108F117C109F1040E2C
:10C1D80001010A6F0EEC73F018C1D9FF19C1DAFF1B
:10C1E800FF0EDF6E1200120001010D6F01010D51EB
:10C1F8004CEC76F00DC100F10101016B0101065113
:10C20800050F0101026FCFEC5BF007C108F1060EC4
:10C2180001010827020E0101096F0101082B03D053
:10C228000101D89009370101082FFAD701010951F6
:10C2380001010A6F0DC100F10101016B0AC102F190
:10C24800CFEC5BF0000E01010B6F000E01010C6FCB
:10C2580025D00DC100F10101016B01010C51010D47
:10C26800F35001010425D96EF45001010521DA6E5D
:10C27800DF500101026FCFEC5BF001010C51010DA1
:10C28800F35001010425D96EF45001010521DA6E3D
:10C29800DF5001010B1B01010C2B00D001010651DD
:10C2A80001010C5DD8A0D5D70DC100F10101016BCA
:10C2B8000BC102F1CFEC5BF00DC100F10101016B84
:10C2C8000D0E0101026FCFEC5BF00DC100F1010111
:10C2D800016B0A0E0101026FCFEC5BF01200000E39
:10C2E80001010A6F5ED0000E0101096F000E086F90
:10C2F8002DD001010A51010DF35001010025D96E1D
:10C30800F45001010121DA6E01010A51010DF350C7
:10C3180001010025E16EF45001010121E26EE750B0
:10C328000101056F01010451010DC00EF324E16EF6
:10C33800020EF420E26EE75001010A25000801010F
:10C348000525DF6E0101084B092B00D001010451BE
:10C35800010DC00EF324D96E020EF420DA6EDF5000
:10C36800070B0101056F066B010105510101085D0D
:10C3780001010951800A0101076F01010651800A74
:10C3880001010759D8A0B5D70101042B070E0101F7
:10C39800046504D0000E0101046F00D001010A2BCE
:10C3A80000D001010A510101056F066B010102511C
:10C3B8000101055D01010651800A0101076F0101B4
:10C3C8000351800A01010759D8A08DD71200030E26
:10C3D800010134250101386F000E010135210101E9
:10C3E800396F32C106F133C107F1D1EC69F00101AF
:10C3F800376F32C106F133C107F138C108F139C1CD
:10C4080009F1040E01010A6F0EEC73F0E40E01014C
:10C41800066F010E0101076F040E010138250101A5
:10C42800086F000E010139210101096F040E010195
:10C438000A6F0EEC73F0020E0101C219D8A410D0D5
:10C4480038C104F139C105F101013651080F010164
:10C45800066F000E0101076F020EF8EC60F000D0C5
:10C4680032C106F133C107F1E00E0101086F010E78
:10C478000101096F040E01010A6F40EC72F0000916
:10C48800D8A40ED034C120F135C121F101013651B3
:10C49800080F0101226F37C123F187EC59F0120010
:10C4A80034C12CF135C12DF101013651080F0101BC
:10C4B8002E6F70EC54F01200120010C106F111C179
:10C4C80007F10EC108F10FC109F1040E01010A6F4D
:10C4D8000EEC73F0E40E0101006F010E0101016F13
:10C4E800000E0101026F0EC103F10FC104F1040E29
:10C4F8000101056F040E0101066F03EC6CF00101E8
:10C5080020EE08F00E51D9260F51DA22030EDF6E05
:10C51800010120EE09F00E51D9260F51DA22000E42
:10C52800DF6E010120EE0AF00E51D9260F51DA22F2
:10C53800000EDF6EE40E0101006F010E0101016FB4
:10C54800000E0101026F0EC103F10FC104F10B0EC1
:10C558000101056F040E0101066F03EC6CF010C1B8
:10C5680000F111C101F1000E0101026F0EC103F1CA
:10C578000FC104F10F0E0101056F040E0101066FD2
:10C5880003EC6CF0010120EE13F00E51D9260F5187
:10C59800DA22000EDF6E1200010119510101175D48
:10C5A80001011A5101011859D8B045D0010119519A
:10C5B80001011F6F01011A510101206F0101216B57
:10C5C8000101226B01011F1F201F211F221F1F2B8A
:10C5D800000E2023212322230101175101011F25C9
:10C5E8000101236F01011851010120210101246F6C
:10C5F800000E010121210101256F000E01012221F8
:10C608000101266F01011B51010123250101276F3B
:10C6180001011C51010124210101286F01011D5153
:10C62800010125210101296F01011E510101262166
:10C6380001012A6F19D019C11FF11AC120F1010196
:10C648001F1F201F1F4B202B0101175101011F27FE
:10C6580001011851010120231FC127F120C128F130
:10C668000101296B2A6B00D027C117F128C118F1E5
:10C67800120012000101126F010112510101D8A428
:10C688000DD0D6CF13F10101146BD7CF15F111D00E
:10C69800010115510101166F156B0ED0030E010132
:10C6A8001219D8A412D0B2CF13F10101146BB3CF71
:10C6B80015F10101166BECD7010113510101152782
:10C6C800010114510101162300D001010C5101018F
:10C6D800D8A435D015C10EF116C10FF101010E1FF6
:10C6E8000F1F0E4B0F2BFF0E01010E250101106FBE
:10C6F800FF0E01010F210101116F10C100F111C1DD
:10C7080001F10101026B036BE80E0101046F030ED6
:10C71800056F000E066F000E076F78EC6FF0100EB5
:10C7280007D00101D89003330233010101330033EC
:10C73800E82EF7D700C10CF101C10DF1120015C1A7
:10C748000CF116C10DF11200000E0101056F010177
:10C7580003AF09D00101026D031FD8B0032B010EEE
:10C768000101056F00D0010101AF09D00101006D81
:10C77800011FD8B0012B010E0101051B00D0000ECE
:10C788000101076F000E066F01010251010103113B
:10C79800D8B431D0010E0101046F07D00101D8903F
:10C7A800023703370101042B00D0010103BF02D077
:10C7B800F5D700D00101D89006370737010102519B
:10C7C8000101005D0101035101010159D8A00BD0FD
:10C7D800010102510101005F010103510101015BE7
:10C7E8000101068100D00101D89003330233010111
:10C7F800042FE0D700D0010105510101D8B406D0BB
:10C808000101066D071FD8B0072B00D006C100F143
:10C8180007C101F1120012000101026F010102516A
:10C82800060D050EF326000EF422BD0EF324D96E74
:10C838000A0EF420DA6EDE28D8A410D001010251C5
:10C84800060D050EF326000EF422BD0EF324D96E54
:10C858000A0EF420DA6E00C1DFFF12000101025156
:10C86800060D050EF326000EF422BD0EF324D96E34
:10C878000A0EF420DA6E01010051DE5CD8B00FD048
:10C8880001010251060D050EF326000EF422BD0E1D
:10C89800F324D96E0A0EF420DA6EDF2A12000101A1
:10C8A8000251060D050EF326000EF422BD0EF324E8
:10C8B800D96E0A0EF420DA6EDE500101005DD8B0A0
:10C8C800120001010251060D050EF326000EF42296
:10C8D800BD0EF324D96E0A0EF420DA6EDF061200BC
:10C8E800120000010203040A0B0C0D0E1415161792
:10C8F800181E1F20212228292A2B2C050607080983
:10C908000F10111213191A1B1C1D23242526272D5D
:10C918002E2F30310031302F2E2D27262524231D90
:10C928001C1B1A19131211100F09080706052C2BC6
:10C938002A29282221201F1E18171615140E0D0C3F
:10C948000B0A0403020100010203040A0B0C0D0E7A
:10C9580014151617181E1F20212228292A2B2C05EA
:10C96800060708090F10111213191A1B1C1D23247E
:10C978002526272D2E2F30310031302F2E2D27261A
:10C988002524231D1C1B1A19131211100F0908073F
:10C9980006052C2B2A29282221201F1E18171615B8
:10C9A800140E0D0C0B0A040302010000000E010115
:10C9B800086F000E096F000E0A6F000E0B6F010161
:10C9C8000451010105110101061101010711D8B433
:10C9D80047D0010E01010C6F09D00101D89004372E
:10C9E80005370637073701010C2B00D0010107BFB7
:10C9F80002D0F3D700D00101D890083709370A3799
:10CA08000B37010104510101005D010105510101CC
:10CA180001590101065101010259010107510101A2
:10CA28000359D8A013D0010104510101005F01018D
:10CA380005510101015B010106510101025B010180
:10CA480007510101035B0101088100D00101D89061
:10CA5800073306330533043301010C2FCCD700D03C
:10CA680008C100F109C101F10AC102F10BC103F1CA
:10CA780012001B6E4250D8B41FD01B50D8B40CD033
:10CA8800FF0E34240E6EFF0E35200F6E040E106E4E
:10CA9800010E6FEC4FF00AD034C00EF035C00FF025
:10CAA800040E106E010E6FEC4FF000D0070E356EBD
:10CAB8003468000E426E00D0010E0001A22500016C
:10CAC800A26FF80E0001A3210001A36F2C06D8A0C5
:10CAD8002D062C502D10D8A40ED0000E2D6E100E41
:10CAE8002C6E32C2A2F033C2A3F07F0E0201336F64
:10CAF800F00E326F0BD02C042D10D8A407D0010EE5
:10CB0800426EA2C034F0A3C035F000D00001C32BA0
:10CB1800C80E0001C36504D0000E0001C36F00D029
:10CB28000201342904E102013529D8B412000201B6
:10CB3800344B352B12001200000E0101156F000E48
:10CB4800146F010115BF0AD0010115513CE10A0E0D
:10CB58000101145DD8B037D001D035D07AEC5EF041
:10CB68000DC1AAF00EC1ABF00001ABBF0ED0230E71
:10CB78000001AA5D0C0E0001AB59D8A006D0000137
:10CB8800AA51DE0F0101D62712D00001ABBF08D091
:10CB98001C0E0001AA5D0C0E0001AB59D8B007D0DD
:10CBA8000001AA5100081C0F0101D65F00D0020E37
:10CBB8000101016F8A0E006F77EC71F00101144BCF
:10CBC800152BBFD700D00101D651800A9F0FD8A0DE
:10CBD80012000101D651800A600FD8B0120029EC6A
:10CBE80079F0030E0101016FF00E006FD6C102F15A
:10CBF8007EEC73F01200120000018E6F8EC0D8F028
:10CC0800D8C060F00001616B000E0001636F070E71
:10CC1800626F73EC67F0000160510101C46F880E08
:10CC28000001D86504D0280E0001D86F1200000E4C
:10CC380000016F6F000E0001706F3F0E0001716FF1
:10CC4800DA0E00018A6FFF0E00018B6F0001D851C8
:10CC580000018C6F8D6B00018A5100018C27000147
:10CC68008B5100018D2300018C1F8D1F8C4B8D2B48
:10CC7800640E00018C250001686F000E00018D21F3
:10CC88000001696FA2EC73F068C06CF069C06DF0C8
:10CC98006AC06EF00BEC53F06CC07BF06DC07CF09A
:10CCA8006EC07DF015EC57F000017B51280F000194
:10CCB800D86F12001200D4C200F1D5C201F1D6C259
:10CCC80002F1D7C203F1D8C204F1D9C205F1DAC220
:10CCD80006F1DBC207F178EC6FF000C1D4F201C1B4
:10CCE800D5F202C1D6F203C1D7F2390E0201D42718
:10CCF800300ED523000ED623000ED723100E0101C7
:10CD08000E6FD4C20FF1D5C210F1D6C211F1D7C23D
:10CD180012F101010E6701D009D001011235123359
:10CD2800113310330F3301010E2FF3D7FF0E01011A
:10CD38000F150101006F7F0E010110150101016F30
:10CD4800000E010111150101026F000E01011215FB
:10CD58000101036F0CC104F10DC105F10101066B5E
:10CD6800076BFDEC5EF000C10CF101C10DF1120082
:10CD78001200000E0101106F000E0F6F000E01016E
:10CD8800126F000E116F000E0101006F0A0E34ECD5
:10CD980073F0000E0101126F000E116F000E0101F9
:10CDA800136F090E0101136501D02AD03BEC79F00D
:10CDB80000D0D2EC78F00009D8A4FBD7C450010108
:10CDC800106F0F6BC35001010F13040E010113659F
:10CDD80014D0100E0101105DD8A006D0000E01017C
:10CDE800106F000E0F6F00D001010F5101011127C4
:10CDF800010110510101122300D00101132BD1D7D9
:10CE080011C106F112C107F1000E0101096F050EEB
:10CE1800086F3DEC6EF006C111F107C112F111C1A6
:10CE28000DF112C10EF112001200000E0101056F82
:10CE3800010101AF09D00101006D011FD8B0012B1C
:10CE4800010E0101056F00D0010103AF06D00101F9
:10CE5800026D031FD8B0032B00D00101025101015C
:10CE68000311D8B42BD0010E0101046F07D00101C2
:10CE7800D890023703370101042B00D0010103BF0A
:10CE880002D0F5D700D0010102510101005D010176
:10CE9800035101010159D8A009D001010251010132
:10CEA800005F010103510101015B00D00101D8902D
:10CEB800033302330101042FE6D700D001010551E5
:10CEC8000101D8B406D00101006D011FD8B0012BB3
:10CED80000D000C100F101C101F112001200000EE2
:10CEE8000001656F000161AF09D00001606D611F2D
:10CEF800D8B0612B010E0001656F00D0000163AF4F
:10CF080006D00001626D631FD8B0632B00D000010A
:10CF1800625100016311D8B42BD0010E0001646F77
:10CF280007D00001D890623763370001642B00D026
:10CF3800000163BF02D0F5D700D0000162510001A3
:10CF4800605D0001635100016159D8A009D000015A
:10CF580062510001605F000163510001615B00D014
:10CF68000001D890633362330001642FE6D700D004
:10CF7800000165510001D8B406D00001606D611F41
:10CF8800D8B0612B00D060C060F061C061F01200C1
:10CF980012000EC100F10FC101F1000E0101026F74
:10CFA8000EC103F10FC104F1080E0101056F080E4F
:10CFB8000101066FBFEC6EF00009D8B412000EC173
:10CFC80000F10FC101F1080E0101026F0EC103F15A
:10CFD8000FC104F1100E0101056F080E0101066F63
:10CFE800BFEC6EF00009D8B41200000E0101106FFA
:10CFF800070E0101106501D01DD029EC79F0F40E5F
:10D00800010110250101006F0101016B030E0123CD
:10D018000101105101010E25D96E0101000E010117
:10D028000F21DA6EDF500101026F7EEC73F001010F
:10D03800102BDED70EC100F10FC101F1B6EC6BF079
:10D0480012001200000E0101106F000E0F6F010197
:10D0580010BF0AD0010110514AE1FA0E01010F5D1B
:10D06800D8B045D001D043D00BC104F10CC105F1B3
:10D0780001010F517FEC5FF00009D8B433D00FC124
:10D088000DF110C10EF1D89001010D370E37010EC8
:10D0980001010D27000E0E23C90E01010D25D96EC1
:10D0A800080E01010E21DA6EDF501F0B1F0AD8B4DB
:10D0B80019D00FC10DF110C10EF1D89001010D3733
:10D0C8000E37010E01010D27000E0E23C90E0101B6
:10D0D8000D25D96E080E01010E21DA6EDF38E8320F
:10D0E800070B120001010F4B102BB1D700D0000E17
:10D0F80012001200EACF1FF0E1CF20F0E2CF21F0BA
:10D10800D9CF22F0DACF23F0F3CF24F0F4CF25F0F3
:10D11800F6CF26F0F7CF27F0F8CF28F0F5CF29F093
:10D128009EB09DA022D09E90F80E2B6E000E2A6E07
:10D138002B50CF6ED3B603D0010E4B6E00D04B50A0
:10D148003DEC65F0010E0101BC6F0201822B00016C
:10D15800CA51D8B404D002013E4B3F2B06D0000E72
:10D1680002013F6F000E3E6F00D029C0F5FF28C0B6
:10D17800F8FF27C0F7FF26C0F6FF25C0F4FF24C03C
:10D18800F3FF23C0DAFF22C0D9FF21C0E2FF20C08D
:10D19800E1FF1FC0EAFF1EC0E9FF1DC0FBFF1CC066
:10D1A800FAFF11000101106FFA0E010110613ED063
:10D1B80010C111F10101126B11C10EF112C10FF171
:10D1C8000101D8900E370F370101D8900E370F376D
:10D1D8000EC111F10FC112F1000E0101136F030E00
:10D1E8000101136502D01200120001011351010D53
:10D1F800F35001010C25D96EF45001010D21DA6EAE
:10D2080001011351010111250101026F000E0101F5
:10D2180012210101036FB4EC78F0DF6E0101132BCA
:10D22800030E01011365E1D712001200E00E01019F
:10D23800066F010E0101076F0CC108F10DC109F15C
:10D24800040E01010A6F0EEC73F0120012000101C6
:10D25800146F030E0101086F01011451060D050E2C
:10D26800F326000EF422BD0EF324D96E0A0EF42024
:10D27800DA6EDF50DAEC4AF00101136F0101145144
:10D28800060D040EF326000EF422BD0EF324D96E0B
:10D298000A0EF420DA6EDF380F0B96EC75F00101F8
:10D2A800135DD8B012D001011451060D040EF326F7
:10D2B800000EF422BD0EF324D96E0A0EF420DA6EA5
:10D2C800DF380F0B96EC75F01200030E0101086FA2
:10D2D80001011451060D050EF326000EF422BD0EB1
:10D2E800F324D96E0A0EF420DA6EDF50DAEC4AF035
:10D2F800120012000EC106F10FC107F1E00E010184
:10D30800086F010E0101096F040E01010A6F40EC5C
:10D3180072F00009D8A41200000E0101126F3E0E2F
:10D328000101126502D01200120001011251060D0E
:10D33800BD0EF3240101066F0A0EF4200101076FE8
:10D348000EC108F10FC109F1040E01010A6F40EC8A
:10D3580072F00009D8B418D010C111F101011251AE
:10D36800060D040EF326000EF422BD0EF324D96E2A
:10D378000A0EF420DA6E0101113BDF500101111988
:10D388000F0B1119DF6E12000101122B3E0E010165
:10D398001265CBD7120012001200000E01010E6FA9
:10D3A800000E0D6F010120EE03F00651D92607513A
:10D3B800DA22DF500101086F06C1D9FF07C1DAFF81
:10D3C800DF500101096F0A6B010120EE01F00651DF
:10D3D800D9260751DA22DF5001010B6F01010B51E9
:10D3E80001010927000E0A23010120EE02F006516F
:10D3F800D9260751DA22DF5001010C6F01010C51C7
:10D4080001010927000E0A2301010851010109251C
:10D418000101006F0101000E01010A210101016FE4
:10D42800000E0101036FC90E026F19EC67F000C10D
:10D438000DF101C10EF101010D511200120001019F
:10D448002C6F01012C51F0EC4DF0000E0101C76F5B
:10D45800000E0101DD6F010E0101F16F7F0E020167
:10D46800336FF00E326F7F0E0001A36FF00EA26FC4
:10D47800000E2D6E100E2C6E070E01010E6F0D6939
:10D48800040E01010F6F010E03EC4AF0010E0001BA
:10D49800A2250001A26FF80E0001A3210001A36FCD
:10D4A8002C06D8A02D06070E356E3468090E93ECAD
:10D4B80077F0000E01010D6F1E0E0C6F5FEC66F029
:10D4C8005A0E01010C250101266F000E01010D21E4
:10D4D8000101276F010E0101286F0E0EB1EC6DF0EE
:10D4E8001200100E0101446F18C10BF119C10CF1A3
:10D4F800400E01010D6F010E01010E6F6EEC45F03B
:10D508001D0E01011A6F2E0E01011B6F460E01013F
:10D518001C6F480E01011D6F430E01011E6F010EA5
:10D528000101066F000E076F020E086F000E096FEB
:10D538000B0E01010A6F000E0B6F000E0C6F000E30
:10D548000D6F1F0E01010E6F010E01010F6F68ECC8
:10D558006BF018C10EF119C10FF11A0E0101106F0D
:10D56800010E0101116F44C112F1000E0101136F88
:10D57800010E0101146F000E0101156F2AEC49F02C
:10D5880012001200100E0101446F18C10BF119C1ED
:10D598000CF1400E01010D6F010E01010E6F6EECD2
:10D5A80045F01D0E01011A6F2A0E01011B6F410E75
:10D5B80001011C6F530E01011D6F460E01011E6F04
:10D5C800010E0101066F000E076F020E086F000EB4
:10D5D800096F0B0E01010A6F000E0B6F000E0C6F26
:10D5E800000E0D6F1F0E01010E6F010E01010F6F6E
:10D5F80068EC6BF018C10EF119C10FF11A0E010198
:10D60800106F010E0101116F44C112F1000E0101EA
:10D61800136F010E0101146F000E0101156F2AEC42
:10D6280049F012001200000E0101126F000E116F76
:10D63800000E0101106F000E0F6F000E0101136F35
:10D64800090E0101136501D02AD03BEC79F000D016
:10D65800D2EC78F00009D8A4FBD7C4500101126FAE
:10D66800116BC35001011113040E0101136514D08D
:10D67800100E0101125DD8A006D0000E0101126F34
:10D68800000E116F00D00101115101010F27010196
:10D6980012510101102300D00101132BD1D70FC162
:10D6A80006F110C107F1000E0101096F050E086FA0
:10D6B8003DEC6EF006C10FF107C110F10FC10DF17D
:10D6C80010C10EF112001200000E0101106F000EC1
:10D6D800116F000E126F000E136F899E030EE9EC96
:10D6E80076F001010851E9EC76F001010751E9EC07
:10D6F80076F001010651E9EC76F0000E0101106F99
:10D70800000E116F000E126F000E136F17D001017B
:10D71800105101010E25D96E0101115101010F218E
:10D72800DA6E07EC78F001010051DF6E010E01019D
:10D738001027000E11231223132300D001010A51D0
:10D748000101105D01010B510101115901010C5139
:10D758000101125901010D5101011359D8A0D7D760
:10D76800898E1200000E0101036F070E0101036587
:10D7780001D019D001010351010DF3500101002519
:10D78800D96EF45001010121DA6E01010351010D36
:10D79800C00EF324E16E020EF420E26EDFCFE7FF45
:10D7A8000101032BE2D7000E0101036F070E0101EF
:10D7B800036502D01200120001010351010DF3505C
:10D7C80001010025D96EF45001010121DA6EDE282D
:10D7D800D8A409D0070E01010319D8A408D0000E57
:10D7E8000101C86F04D0010E0101C86F12000101C8
:10D7F800032B070E01010365DFD712001200000E8C
:10D8080001010D6F3FD0010102510DC107F1010166
:10D81800086B01010727000E082300C109F101C1A7
:10D828000AF101010751010109270101085101010C
:10D838000A2309C1F6FF0AC1F7FF000EF86E0101BD
:10D8480005510DC10BF101010C6B01010B27000EF5
:10D858000C2301010B5101010325D96E01010C5163
:10D8680001010421DA6E0E0EF76403D00800F550AA
:10D8780005D0F6CFE9FFF7CFEAFFEF50DF6E0101E1
:10D888000D2B00D00101065101010D5DD8A0BBD7B9
:10D89800120094EC78F0899E020EE9EC76F0010112
:10D8A8000751E9EC76F001010651E9EC76F0010147
:10D8B8000551E9EC76F0000E01010F6F000E106FB4
:10D8C800000E116F000E126F15D001010F510101EA
:10D8D8000925D96E0101105101010A21DA6EDF50C4
:10D8E800E9EC76F0010E01010F27000E1023112339
:10D8F800122300D001010B5101010F5D01010C51F0
:10D908000101105901010D510101115901010E5177
:10D9180001011259D8A0D9D7898E70EC78F012007D
:10D928001200040E01010E250101066F000E01010F
:10D938000F210101076F10C108F111C109F1040E8F
:10D9480001010A6F0EEC73F0A4EC78F002C1D9FF64
:10D9580003C1DAFF12C1E1FF13C1E2FFDFCFE7FF26
:10D968000EC106F10FC107F1E00E0101086F010EAB
:10D978000101096F040E01010A6F40EC72F0000901
:10D98800D8A412D00EC106F10FC107F1E40E0101AF
:10D99800086F010E0101096F040E01010A6F40ECC6
:10D9A80072F00009D8B402D0010E1200000E120065
:10D9B8001200000E0001C46F3E0E01010861120042
:10D9C800200E5CEC58F0800E5CEC58F00101085118
:10D9D800020F5CEC78F00001B4515CEC78F0000EBA
:10D9E8000101096F21D001010951010DF350010115
:10D9F8000625D96EF45001010721DA6EDF500001C7
:10DA0800C4190001C46F01010951010DF35001014E
:10DA18000625D96EF45001010721DA6EDF505CEC5F
:10DA280078F00101092B00D0010108510101095DBD
:10DA3800D8A0D9D70001C4515CEC78F012001200CC
:10DA480001010B6FFA0E01010B6112000BC10CF101
:10DA580001010D6B0CC109F10DC10AF10101D8904A
:10DA680009370A370101D89009370A3709C10CF17B
:10DA78000AC10DF1000E01010E6F030E01010E65C2
:10DA880002D01200120001010E5101010C25010102
:10DA9800046F000E01010D210101056F01010E51F6
:10DAA800010DF35001010725D96EF4500101082139
:10DAB800DA6EDF500101066FC2EC77F001010E2B20
:10DAC800030E01010E65DFD712001200120051EC9F
:10DAD80078F00101046F0001CC51D8A41CD00101D9
:10DAE8000429D8A403D004C1CDF007D0010104292A
:10DAF8000001CD6F0001CD05466E400E0001CD65D9
:10DB08000AD0400E0001CD6F0001CD05466E010E12
:10DB180002017E6F00D00001CD510001CC5DD8B06C
:10DB28000ED00001CC51010DA70EF324D96E040EBE
:10DB3800F420DA6E04C1DFFF0001CC2B00D0000115
:10DB4800CD510001CC19D8A412000001CD51D8B490
:10DB58001200010E396E1200120001012B6F010133
:10DB680026291DE101012729D8A419D001012B512B
:10DB7800020D000EF324D96E020EF420DA6EFF0EA9
:10DB8800DE6EFF0EDD6E01012B51010D000EF32438
:10DB9800D96E030EF420DA6E28C1DFFF1200010EE1
:10DBA800010126250101296F000E0101272101012C
:10DBB8002A6F01012B51020D000EF324D96E020EBB
:10DBC800F420DA6E29C1DEFF2AC1DDFF01012B51E5
:10DBD800010D000EF324D96E030EF420DA6E28C16D
:10DBE800DFFF12001200000E096E000E0A6E000E12
:10DBF8000B6E000E0C6E0550061007100810D8B4F6
:10DC08002FD0010E0D6E07D0D89005360636073690
:10DC180008360D2A00D008BE02D0F6D700D0D8901A
:10DC280009360A360B360C360550015C0650025888
:10DC38000750035808500458D8A00AD00550015E70
:10DC48000650025A0750035A0850045A098000D057
:10DC5800D89008320732063205320D2EE0D700D0B0
:10DC680009C001F00AC002F00BC003F00CC004F0B8
:10DC78001200000E01010C6F000E0B6F010108511C
:10DC880001010911D8B431D0010E01010A6F07D082
:10DC98000101D8900837093701010A2B00D001018A
:10DCA80009BF02D0F5D700D00101D8900B370C3747
:10DCB800010108510101065D0101095101010759DE
:10DCC800D8A00BD0010108510101065F01010951DB
:10DCD8000101075B01010B8100D00101D8900933D4
:10DCE800083301010A2FE0D700D00BC106F10CC19F
:10DCF80007F11200000E0001666F000E656F00014B
:10DD0800625100016311D8B431D0010E0001646F73
:10DD180007D00001D890623763370001642B00D028
:10DD2800000163BF02D0F5D700D00001D890653755
:10DD38006637000162510001605D00016351000116
:10DD48006159D8A00BD0000162510001605F000149
:10DD580063510001615B0001658100D00001D8902A
:10DD6800633362330001642FE0D700D065C060F0F0
:10DD780066C061F01200000E01010D6F31D0010183
:10DD880005510DC107F10101086B01010727000EBC
:10DD980008230101075101010325D96E010108512A
:10DDA80001010421DA6E010102510DC10AF10101DC
:10DDB8000B6B01010A27000E0B2301010A51010117
:10DDC8000025E16E01010B5101010121E26EDE50D7
:10DDD800E618D8B402D0000E120001010D2B00D0B5
:10DDE8000101065101010D5DD8A0C9D7010E12002D
:10DDF8001200000E0101116F000E106F010111BF1A
:10DE08000AD00101115130E13F0E0101105DD8B077
:10DE18002BD001D029D010C100F111C101F1000EA1
:10DE28000101036F060E026F0FEC75F0BD0E0101C4
:10DE380000250101066F0A0E010101210101076F8A
:10DE48000EC108F10FC109F1040E01010A6F40EC7F
:10DE580072F00009D8B403D0010110511200010179
:10DE6800104B112BCBD700D0FF0E12001200120E50
:10DE780001010E6F010E01010F6FF90E0101106F04
:10DE8800010E0101116F61EC62F0000E0101266FB5
:10DE9800830E0101006FFE0E0101016F000E0101EA
:10DEA800026F120E0101036F010E0101046F150EBE
:10DEB8000101056F240E0101066F03EC6CF00101EE
:10DEC800C851300F01014B6F120E0101046F010E92
:10DED8000101056F3A0E0101066F000E0101076F7F
:10DEE800020EF8EC60F01200000E0101086F000E3F
:10DEF800096F000E0A6F000E0B6F00D0010100A120
:10DF080011D0010104510101082701010551010146
:10DF180009230101065101010A23010107510101E9
:10DF28000B2300D00101D89004370537063707378F
:10DF38000101D8900333023301330033010100514A
:10DF4800010101110101021101010311D8A4D6D761
:10DF580008C100F109C101F10AC102F10BC103F1C5
:10DF68001200000E0001686F000E696F000E6A6FE4
:10DF7800000E6B6F00D0000160A111D00001645148
:10DF880000016827000165510001692300016651FD
:10DF980000016A230001675100016B2300D00001D2
:10DFA800D89064376537663767370001D890633390
:10DFB8006233613360330001605100016111000177
:10DFC800621100016311D8A4D6D768C060F069C097
:10DFD80061F06AC062F06BC063F012000101025187
:10DFE800010100250101086F01010351010101210F
:10DFF8000101096F08C10AF109C10BF101010C6B9C
:10E008000D6B10D00101045101010A5F0101055196
:10E0180001010B5B0101065101010C5B0101075174
:10E0280001010D5B0101045101010A5D0101055166
:10E0380001010B590101065101010C590101075158
:10E0480001010D59D8B0DED70AC100F10BC101F1A9
:10E058001200060E0101446F18C10BF119C10CF131
:10E06800400E01010D6F010E01010E6F6EEC45F0BF
:10E078001F0E01011A6F2A0E01011B6F530E0101B9
:10E088001C6F460E01011D6F540E01011E6FD9C091
:10E098001FF118C10EF119C10FF11A0E0101106F0D
:10E0A800010E0101116F44C112F1000E0101136F3D
:10E0B800010E0101146F000E0101156F2AEC49F0E1
:10E0C80012001200000E01011B6F830E0101006F88
:10E0D800FE0E0101016F000E0101026F1B0E01010E
:10E0E800036F010E0101046F010E0101056F240E7B
:10E0F8000101066F03EC6CF00101C851300F0101FA
:10E10800406F18C10EF119C10FF11B0E0101106FFC
:10E11800010E0101116F260E0101126F000E01019F
:10E12800136F1AC114F1000E0101156F2AEC49F0A2
:10E13800120012003D0E0101536F14C116F115C1F2
:10E1480017F114C100F115C101F1000E0101036FAF
:10E15800380E026F0FEC75F0010100C106F10101E4
:10E1680001C107F10101086B096B380E01010A6F43
:10E17800000E0B6F000E0C6F000E0D6F180E0101D4
:10E188000E6F010E01010F6F68EC6BF0160E0101A6
:10E19800066F010E0101076F53C108F1DDEC6CF049
:10E1A80012000101046F01010451020D000EF32455
:10E1B800D96E020EF420DA6EDE50DE10D8B418D014
:10E1C80001010451020D000EF324D96E020EF42051
:10E1D800DA6EDECF02F1DDCF03F1FF0E0101022579
:10E1E8000101006FFF0E010103210101016F1200FF
:10E1F80001010451020D000EF324D96E020EF42021
:10E20800DA6EDECF00F1DDCF01F11200120001015C
:10E218000F5101011011D8B42BD0010E0101116F5B
:10E2280007D00101D8900F3710370101112B00D00A
:10E23800010110BF02D0F5D700D001010F51010133
:10E248000D5D0101105101010E59D8A009D001013D
:10E258000F5101010D5F0101105101010E5B00D04A
:10E268000101D89010330F330101112FE6D700D0E8
:10E278000DC10DF10EC10EF112000001695100012E
:10E288006A11D8B42BD0010E00016B6F07D00001C2
:10E29800D89069376A3700016B2B00D000016ABF3C
:10E2A80002D0F5D700D0000169510001675D000177
:10E2B8006A5100016859D8A009D0000169510001CC
:10E2C800675F00016A510001685B00D00001D890C7
:10E2D8006A33693300016B2FE6D700D067C067F057
:10E2E80068C068F0120014D0D00E0101026FCA0E87
:10E2F800E82EFED7022FFCD7F60E010100250101FA
:10E30800006FFF0E010101210101016F040000D01F
:10E3180001010151E9E10B0E0101005DD8A010D007
:10E32800E3D70ED0150E0101026FC60EE82EFED7F8
:10E33800022FFCD700D001010007D8A00107040074
:10E348000101005101010111D8A4ECD7120001010B
:10E35800026F3F0EC716000EC66E01010251C612AB
:10E3680001010151C71205D0C78C16D0C78CC688C9
:10E3780013D001010051000AD8B4F6D7020AD8B464
:10E38800F5D7010AD8B4F3D707D09486928A0DD06E
:10E3980094860BD0949609D001010251040AD8B48E
:10E3A800F4D7010AD8B4F4D7F5D79488949AC68AD2
:10E3B8001200000E01010E6F0101F851D7EC76F042
:10E3C800040E01010C6F010EE9EC5CF00001A25192
:10E3D80001010C250101236F0001A35101010D2149
:10E3E8000101246F19EC79F00101206F23C122F19A
:10E3F800010124510101216F200E0101176F010E47
:10E408000101186F030E0101196F010E01011A6F46
:10E418006BEC4CF012002CD04604D8A405D0FAECD2
:10E4280077F002017C6F00D00001CD510001CC5D76
:10E43800D8B00FD00001CC51010DA70EF324D96E2E
:10E44800040EF420DA6E51EC78F0DF6E0001CC2B6C
:10E4580000D00001CD510001CC19D8A407D000018B
:10E46800CD51D8B403D0010E396E00D0460600D085
:10E478004650D8A4D1D71200000E01010D6F1FD04D
:10E4880001010D51010DF35001010825D96EF45019
:10E4980001010921DA6E01010D51010DF35001014D
:10E4A8000625E16EF45001010721E26EDE50E61800
:10E4B800D8B402D0000E120001010D2B00D00101CA
:10E4C8000A5101010D5DD8A0DBD7010E1200120020
:10E4D8001D0E01011A6F250E01011B6FF9C11CF1F8
:10E4E800FAC11DF1FBC11EF1FCC11FF1060E0101AD
:10E4F800406F18C10EF119C10FF11A0E0101106F0A
:10E50800010E0101116F40C112F1000E0101136FDC
:10E51800010E0101146F000E0101156F2AEC49F07C
:10E52800120012000101BC51D8A412000101BD5112
:10E53800D8A412000101BF51D8A412000001CA5189
:10E54800D8A412000001C651D8A412000101D55167
:10E55800D8A412004D50D8A412000101CE51D8A45D
:10E5680012003650D8A412000101EE51D8B412009E
:10E57800F9EC78F0120012002CC121F12DC122F122
:10E588003C0E0101236F010E0101246F010E0101F0
:10E59800256F4EEC3FF02CC10EF12DC10FF1FDECB3
:10E5A8006EF001012F6F2AC115F12BC116F12FC191
:10E5B80017F12EC118F1000E0101196F010E0101AA
:10E5C8001A6F24EC1EF0120001012C6F000E0101DD
:10E5D800F06F2CC1C7F0000E01012E6F3E0E2D6F9B
:10E5E8002DC100F12EC101F1000E0101036F1E0EB5
:10E5F800026F0FEC75F000C12DF101C12EF12DC194
:10E6080026F12EC127F1000E0101286F070EB1EC8B
:10E618006DF01200000E01010B6F1BD001010B51B0
:10E62800010DF35001010625D96EF45001010721AF
:10E63800DA6E01010B51010DF35001010825E16E5D
:10E64800F45001010921E26EDFCFE7FF01010B2B36
:10E6580000D001010A5101010B5DD8A0DFD71200DB
:10E668000101026F00C101F10101013BC15001012B
:10E678000119CF0B0119C16EC196C190C192C19405
:10E6880002C101F1010101470147C250010101190D
:10E69800830B0119C26EC086C088C08AC050F80BAF
:10E6A8000609C06EC08EC2801200000E0101016F03
:10E6B8003E0E0101016501D01AD001010151060D7C
:10E6C800040EF326000EF422BD0EF324D96E0A0EB2
:10E6D800F420DA6EDF500F0B0101006F020E01010A
:10E6E800006102D0010E12000101012BE1D7000EDA
:10E6F80012001200000E0101036F01010151030B0A
:10E70800756E00C174FF02C173FF7F9E7F9C7F847A
:10E71800000EF2BE010E0101036FF29E550E7E6ED1
:10E72800AA0E7E6E7F8200D07FB2FED7010103B1B0
:10E7380002D0F29E01D0F28E7F941200000E0001EA
:10E748006B6F000169AF09D00001686D691FD8B00F
:10E75800692B010E00016B6F00D068C060F069C0C2
:10E7680061F00001626B8E0E0001636F6BC064F094
:10E778003FEC5BF060C068F061C069F062C06AF0AD
:10E78800120012001A0E0101006F010E0101016F43
:10E798001AEC55F00101406F18C10EF119C10FF1C3
:10E7A8001A0E0101106F010E0101116F40C112F123
:10E7B800000E0101136F010E0101146F000E01011B
:10E7C800156F2AEC49F01200120093968A86898602
:10E7D800050E0101046F260EE82EFED7042FFCD784
:10E7E80000D08996680E0101046FE40EE82EFED76A
:10E7F800042FFCD700D029EC79F0030E0101016F3A
:10E80800FE0E006FFF0E0101026F7EEC73F0120026
:10E818001D0E01011C6F1AC11DF11BC11EF1030E53
:10E828000101426F18C10EF119C10FF11C0E01014F
:10E83800106F010E0101116F42C112F1000E0101AA
:10E84800136F010E0101146F010E0101156F2AECFF
:10E8580049F012000FC106F110C107F1E40E0101E1
:10E86800086F010E0101096F040E01010A6F0EEC19
:10E8780073F00101E0690101E1690101E269010147
:10E88800E369E40E0101066F010E0101076FD1EC87
:10E8980069F0EFEC78F012000101016F01010151FC
:10E8A8000101D8B409D00001CF51D8B413D0899C44
:10E8B8008B94898012000ED0010100510101D8B457
:10E8C80009D00001D151D8B405D0898C8B94899096
:10E8D800120000D0899C8B84899012000001616F1E
:10E8E800000161510001D8B409D00001CF51D8B45A
:10E8F80013D0899C8B94898012000ED0000160513E
:10E908000001D8B409D00001D151D8B405D0898C00
:10E918008B948990120000D0899C8B848990120076
:10E928000101026F01010251020D000EF324D96E9C
:10E93800020EF420DA6EDE04DE10D8A40FD0010136
:10E948000251020D000EF324D96E020EF420DA6E85
:10E95800000EDE6E000EDD6E010E1200000E1200BB
:10E9680012000101006F010100510101D8A409D072
:10E97800D59E000ED76E000ED66E850ED56ED58E3E
:10E988001200030E01010019D8A41200000EB36E84
:10E99800000EB26E8C0EB16EA292A192B1801200DE
:10E9A8001200FFFFFFFFFFFFFFFFFFFFFFFFFFFF5B
:10E9B800FFFFFFFFFFFF010000006D4EC64117007B
:10E9C80001000800FF0FFF00010101FFFFFFFFFF2B
:10E9D800FFFFFFFFFFFFFFFFFFFFFFFF0101046FC6
:10E9E80001010451D8090101056F05C102F13C0E6E
:10E9F80062EC75F0C80E0101056F05C102F11A0E2F
:10EA080062EC75F0000E0101056F05C102F13E0EC2
:10EA180062EC75F012000101005101010203F3CF0D
:10EA280004F1F4CF05F10101005101010303F35092
:10EA3800010105270101015101010203F350010100
:10EA4800052704C100F105C101F1120012000001FF
:10EA5800605100016203F3CF64F0F4CF65F0000168
:10EA6800605100016303F350000165270001615103
:10EA780000016203F3500001652764C060F065C0BF
:10EA880061F01200120001012C6F01012C510101EB
:10EA9800D8B404D0010E0101F16F1200000E01017B
:10EAA800F16F010E0101276F680E266F010E01013B
:10EAB800286F0F0EB1EC6DF0120012000101036F08
:10EAC800899401010351E9EC76F0E40E00D000D0FE
:10EAD800E82EFCD700D000D001010251E9EC76F015
:10EAE800E40E00D000D0E82EFCD700D000D08984F6
:10EAF8001200000E01010C6F010EE9EC5CF001013F
:10EB08000C1F01010D1F01010C4B0D2B3E0E0101C5
:10EB18000C250101176F000E01010D210101186F6D
:10EB2800120012000101006F060E0101006102D0FF
:10EB3800000E03D001010051FB0F0101016F070E08
:10EB48000101016503D0070E0101016F01010151A7
:10EB580012001200000E0101056F000E0101066F80
:10EB68000BD01C0E61EC76F00101066F0101065115
:10EB7800020B0101056F00D0010105510101D8B454
:10EB8800F0D712000101026F000E0101016F3A0E69
:10EB98000101026108D02F0E0101026504D0010EA7
:10EBA8000101016F00D001C100F101010031120023
:10EBB8001200000E0101276F010E266F010E0101E0
:10EBC800286F020EB1EC6DF0000E0101276F010EE7
:10EBD800266F010E0101286F030EB1EC6DF01200D3
:10EBE8000001626F000E0001616F3A0E0001626160
:10EBF80008D02F0E0001626504D0010E0001616F7C
:10EC080000D061C060F0000160311200120094EC85
:10EC180078F0899E200EE9EC76F001010751E9ECC5
:10EC280076F001010651E9EC76F001010551E9ECB5
:10EC380076F0898E70EC78F0120008C100F109C1F5
:10EC480001F10101026B8E0E0101036F000E01013B
:10EC5800046FAFEC5AF000C108F101C109F102C11B
:10EC68000AF1120012000101006F080E0001CB61C9
:10EC780012000001CB51010D180EF324D96E030EBA
:10EC8800F420DA6E00C1DFFF0001CB2B1200120066
:10EC98000101036F03C100F10101016B240E0101A1
:10ECA800026FCFEC5BF003C100F10101016B240E90
:10ECB8000101026FCFEC5BF012000101046F89942F
:10ECC8000101045140090101046F01010451E9ECFB
:10ECD80076F007EC78F000C103F189840101035153
:10ECE800120012000001646F899400016451400908
:10ECF8000001646F00016451FBEC76F014EC78F0CD
:10ED080060C063F0898400016351120012000101A0
:10ED1800026F01010251020D000EF324D96E020E9A
:10ED2800F420DA6EDE50DE10D8A402D0010E1200F4
:10ED3800000E120012004C2A4C504418D8A412009D
:10ED4800000E0001C66F000E0001606F000E72EC2D
:10ED580074F0000E4C6E000E446E12001200020E8B
:10ED680001010C6F0AC10DF10BC10EF10D0E01016D
:10ED7800066F010E0101076F0CC108F1DDEC6CF0A4
:10ED88001200000E0101036F899E050EE9EC76F072
:10ED980007EC78F0010100510101036F898E010130
:10EDA80003511200120001010F6F01010F514E189B
:10EDB800D8B4120001D012000EC104F101010F51A4
:10EDC800A6EC4BF00FC14EF012000101016FC9CF44
:10EDD80000F19E96C69E01C1C9FFC6BE120002D0B0
:10EDE800120000D09EB61200FDD7120012000001DA
:10EDF800616FC9CF60F09E96C69E61C0C9FFC6BE4E
:10EE0800120002D0120000D09EB61200FDD71200E8
:10EE180012000101036F0001B851D8B41200000EAE
:10EE28000101016F020E006F03C102F1CFEC5BF02C
:10EE38001200120052C020F1200E0101176F010EBE
:10EE48000101186F010E0101196F010E01011A6FFE
:10EE58006BEC4CF012000101066F01010651010B29
:10EE68000001CF6F010106510E0B0101056F010171
:10EE78000551B3EC77F01200D08EF290F28CF19637
:10EE8800F1920F015A9F0F015A9D0F015A9B0F01D2
:10EE98005A99F286F190F28E12000001636F000118
:10EEA800B851D8B41200000E0001616F020E606FF5
:10EEB80063C062F05CEC5CF0120012000001625169
:10EEC8000201D827000163510201D92300016451CE
:10EED8000201DA23000165510201DB2312002A8CAA
:10EEE80002020CC177643277623238F81180E9384F
:10EEF800380700000507090CF2004000D88001011E
:10EF0800046F0001D051D8A404D00001BC51D8B47A
:10EF18001200010104510DEC77F0120012000101FA
:10EF2800006F01010051020D000EF324D96E020E8C
:10EF3800F420DA6E000EDE6E000EDD6E12000001A7
:10EF4800646F0001D051D8A404D00001BC51D8B4DA
:10EF580012000001645151EC77F012001200010117
:10EF6800046F0301F351F00B010104110301F36F66
:10EF7800F3C302F1340E62EC75F01200010E0101C8
:10EF8800DF6F29EC79F004C100F105C101F106C178
:10EF980002F17EEC73F01200200E5CEC58F0400E8B
:10EFA8005CEC58F08BEC78F0AEEC75F0600E5CEC35
:10EFB80058F0120001010151030B756E00C174FF76
:10EFC8007F9C7F9E7F8000F000F07350120012003B
:10EFD8000101006F00C1C7F1010100510101D8A46E
:10EFE8001200010E0101F16F120012003C0E61ECDB
:10EFF80076F00101056F010105A102D0010E120092
:10F00800000E12001200C9CF02F19E96000EC96EC2
:10F0180000D09EA6FED7C9CF00F10101016B1200F6
:10F02800C9CF62F09E96000EC96E00D09EA6FED78C
:10F03800C9CF60F00001616B12000101046F04C1C7
:10F04800B4F004C1F6F3F6C302F13A0E62EC75F0BF
:10F0580012000101006F010100510101D8B402D072
:10F06800939612009386120012000101006F0101AD
:10F0780000510101D8B402D08A8412008A94120087
:10F088001200010E0101276F2C0E266F010E0101DF
:10F09800286F130EB1EC6DF012008984899207EC89
:10F0A80078F000C103F189820101035112001200B6
:10F0B8000101026F8984899201010251E9EC76F01D
:10F0C800898212005128D8B402D0512A02D0000EE9
:10F0D800516E51501200120000D0C5EC76F00101BB
:10F0E800046F010104B1F9D7120000D0C5EC76F025
:10F0F8000101046F010104A3F9D712000101496F4E
:10F1080048C12CF101014951ACEC25F01200070E61
:10F118000101046F04C102F11C0E62EC75F01200CB
:10F12800899E060EE9EC76F0898E79EC78F012006B
:10F1380000C1D4F201C1D5F20201D66BD76B12001F
:10F14800ACEC78F000C102F101C103F11200120029
:10F15800D80E0101006F000E0101016F12001200AC
:10F1680002C100F103C101F1DEEC77F012001200D8
:10F1780001080101FF3C0101010119FFFFFFFF0028
:10F188000101066F01010651CBEC78F01200010174
:10F19800056F0101055121EC78F01200C2A202D0DE
:10F1A800010E1200000E12001200070E0101016F7D
:10F1B800006912001200280E76EC76F000EC66F07A
:10F1C80012000301F3510E0B120012000101006F2F
:10F1D80000C1EFF112000101006F00C1D2F112006D
:10F1E800B6C100F1B7C101F11200D39ED18E030060
:10F1F80004001200B6C160F0B7C161F0120077C018
:10F20800B6F178C0B7F1120003FF41FFFF00C20159
:10F2180000000101EF51120012000001B451120068
:10F2280012001DEC79F0120012000001C351120007
:10F2380012000001BD51120012000101C751120055
:10F2480012000201E0511200120000D07FB2FED776
:10F2580012000001C351120012000001BD5112003A
:10F268001200FA0E12001200000E12001200C282E2
:08F278001200FF031200120056
:10FE6A000001000A006400E80310270100100000E6
:10FE7A00010010000111100200656D447269766577
:10FE8A00522C322E3230312C312E33312C322C314D
:10FE9A002C302C3030303030303030302C003C4573
:10FEAA003E4E6F7420416C6C6F77656420746F20CE
:10FEBA0073656E643C2F453E004D6173743A203081
:10FECA00782530325825303258253032582530328C
:10FEDA0058200049443A20307825303258253032AB
:10FEEA0058253032582530325820003C453E73742C
:10FEFA006279207768696C6520696E743C2F453E8B
:10FF0A00003C453E476F696E6720746F2054583134
:10FF1A003C2F453E003C453E5265637620583220D0
:10FF2A00444154413C2F453E004669726D776172E7
:10FF3A00653A2076322E32303120003C453E5265F9
:10FF4A0063762058322042433C2F453E003C543EC3
:10FF5A00476574526566726573683C2F543E00307B
:10FF6A003132333435363738394142434445460015
:10FF7A0047726F75703A2030782530325820003C2D
:10FF8A00543E526566726573683C2F543E004E6F4C
:10FF9A0064653A203078253032582000436F723A2F
:10FFAA00202530325820004261743A2025303458D6
:10FFBA00200053533A202530325820005070723AAC
:10FFCA002025692000547970653A20003C2F44416D
:10FFDA003E003C2F55413E005744525354003C4486
:10FFEA00413E003C55413E0025632000424F5200ED
:06FFFA00504F5200000010
:020000040020DA
:08000000FFFFFFFFFFFFFFFF00
:020000040030CA
:0E0000001D981B36FF8980FF0FC00FE00F40D8
:00000001FF
