:04080000EBEF04F026
:10080800FACF1CF0FBCF1DF0E9CF1EF051EF67F0D7
:10081800D8CF8FF0E8CF90F0E0CF91F0FACF92F0F8
:10082800FBCF93F0E9CF94F0EACF95F0E1CF96F0C3
:10083800E2CF97F0D9CF98F0DACF99F0F3CF9AF0CA
:10084800F4CF9BF0F6CF9CF0F7CF9DF0F8CF9EF059
:10085800F5CF9FF090D0000E0001A16FF2A08FD0CD
:1008680081CFA0F000F0F2900001A0A984D0600E22
:100878000001B719D8A466D00001CC51D8A43AD049
:100888000001C851D8A436D090EC79F00101F96F75
:10089800040E00016C6F010ED4EC5BF06CC077F0B5
:1008A8006DC078F06BEC79F0D3B606D001D004D0E7
:1008B800010E0101CE6F00D047EC79F066EC79F0BB
:1008C8000001A251000160270001A351000161232A
:1008D800000160C062F0000161C063F00001646B58
:1008E800656BD1EC77F0010E0101BA6F010E0001C2
:1008F800CC6F41D00001C851D8B409D00B0E00010B
:100908006C6FFF0E00016D6F27EC34F034D094EC5F
:1009180079F00009D8B409D0450E00016C6FFF0EBC
:1009280000016D6F27EC34F009D01F0E00016C6FC9
:10093800FF0E00016D6F27EC34F000D0010E0101AD
:10094800BB6F19D0800E0001B719D8A406D0010ECC
:100958000101BC6F63EC76F00ED0200E0001B719D0
:10096800D8A409D0F50E00016C6FFE0E00016D6F62
:1009780027EC34F000D0010E0001A16F00D0000177
:10098800A1510001D8A467D79FC0F5FF9EC0F8FF0A
:100998009DC0F7FF9CC0F6FF9BC0F4FF9AC0F3FF11
:1009A80099C0DAFF98C0D9FF97C0E2FF96C0E1FF6F
:1009B80095C0EAFF94C0E9FF93C0FBFF92C0FAFF1D
:1009C80091C0E0FF90C0E8FF8FC0D8FF1000C5EFCE
:1009D8005AF0000ED0B6010E0101FC6F000ED0B225
:1009E800010E0201FF6F000ED0B0010E0201FE6F72
:1009F800000E0101CC6F18EC45F0030E0101016FE8
:100A0800E80E006F12EC71F0030E0101016FF00E99
:100A1800006F39EC78F00101D26F0101D229D8B406
:100A280004D0010E0101C16F00D0DFEC5CF006D0EC
:100A38008A94938661EC79F0DFEC5CF00DC1AAF042
:100A48000EC1ABF000D00001ABBFF2D73E0E0001E3
:100A5800AA5D080E0001AB59D8A0EAD75EEC74F085
:100A6800360E0101016FB00E006F12EC71F001013A
:100A7800C1510101D8A40ED00001ABBF0BD0870E25
:100A88000001AA5D0B0E0001AB59D8A003D073EC8E
:100A980064F000D0000E0101006F000E0101016F2B
:100AA800020E46EC71F0040043EC3BF00400E8C28F
:100AB80000F10101016B05EC79F0AFEC77F0010E64
:100AC8003F6E0101FC510101D8A413D0E20E0101CF
:100AD800126FFF0E0101136FC3EC31F0000E01011C
:100AE800016F040E006F060E0101026FABEC59F0A6
:100AF8002CD00201FF510201D8B418D00201FE51D6
:100B08000201D8A413D0F60E0101126FFF0E0101E5
:100B1800136FC3EC31F0000E0101016F040E006F7A
:100B2800070E0101026FABEC59F00FD00201FF5123
:100B38000201D8A40AD0FA0E0101126FFF0E0101BA
:100B4800136FC3EC31F0D08200D0000EF6EC68F0E1
:100B5800CF0E0101126FFF0E0101136FC3EC31F0CC
:100B6800830E0101126FFE0E0101136FC3EC31F009
:100B7800F20E0101126FFF0E0101136F300E010119
:100B8800C4250101146F0101156B000E1523C3EC78
:100B980031F0B10E0101126FFF0E0101136FAAC0EF
:100BA80014F1ABC015F1C3EC31F0DD0E0101126F89
:100BB800FE0E0101136FE5C214F10101156BE6C2C7
:100BC80016F10101176BE7C218F10101196BE8C2B0
:100BD8001AF101011B6BC3EC31F0C30E0101126F56
:100BE800FE0E0101136FD7C014F10101156BD8C0B7
:100BF80016F10101176BD9C018F10101196BDAC0A0
:100C08001AF101011B6BC3EC31F0980E0101126F50
:100C1800FF0E0101136F84EC79F00201F76F0201F6
:100C2800F7510101146F156BC3EC31F07A0E010115
:100C3800126FFF0E0101136FC9C014F10101156B8A
:100C4800C3EC31F0330E0101126FFF0E0101136F77
:100C5800C3EC31F0A60E0101126FFF0E0101136FF4
:100C6800D2C114F10101156BC3EC31F0C60E0101BC
:100C7800126FFF0E0101136F81BA02D0010E01D06D
:100C8800000E0101146F156BC3EC31F0E50E010184
:100C98000F6F020E0101106FA3EC74F0E0EC3DF051
:100CA80035EC76F0000E0101276F1E0E266F010E3F
:100CB8000101286F040E84EC6CF0000E0401FA6F39
:100CC800000E0101066F000E076F020E086F000E7E
:100CD800096F010E01010A6F000E0B6F000E0C6FF9
:100CE800000E0D6FFA0E01010E6F040E01010F6F59
:100CF8003BEC6AF00401FA05D8A41ED0000E0401EA
:100D0800FA6F000E0101056F000E066F020E076FE5
:100D1800000E086FFA0E0101096F040E01010A6F37
:100D2800010E01010B6F000E0C6F000E0D6F000E0F
:100D38000E6F20EC6BF000D0E50E0101066F020E7D
:100D48000101076FE50E0101086F010E0101096F2E
:100D5800040E01010A6F6BEC72F00009D8B403D0DD
:100D68000400FED700D0AEEC78F0000E3F6E00D045
:100D78000101D5510101D8A467EF0CF0000E2AEC4F
:100D880075F00101DE510101D8B402D0FF0000D096
:100D9800000E0101DF6F04000101B951D8B483D0FE
:100DA8000001B751D8B41CD0D5EC75F017C130F29A
:100DB80018C131F2020131510CE11F0E0201305D00
:100DC800D8B007D0000E01014A6F010EE1EC19F00E
:100DD80007D0000E01014A6F000EE1EC19F000D0B7
:100DE8000101FD510101D8B426D0D70E01010B6FC6
:100DF800000E01010C6FEB0E01010D6F040E0101D5
:100E08000E6F49EC41F00201F76F1F0E0201F76106
:100E180012D0D70E0101186F000E0101196F000ED4
:100E280001011A6F01EC70F00009D8B404D0000E6B
:100E38000101FD6F00D0000E0101B96F3E0E8BEC71
:100E480036F0ED0E0101006F010E0101016FAEECED
:100E580050F088EC4EF078EC79F00009D8B423D043
:100E68000101FB510101D8B41ED0010E3F6EBC0E2A
:100E78000101126FFF0E0101136F0DEC79F002C131
:100E8800D9FF03C1DAFFDF500201F76F0201F75102
:100E98000101146F156BC3EC31F0000E3F6E000EAC
:100EA8000101FB6F00D0D5EC75F017C130F218C105
:100EB80031F20201315105E1070E0201305DD8A07F
:100EC8002AD00201315127E11F0E0201305DD8B04E
:100ED80022D00101D051D8B41ED0F10E01010E6FFD
:100EE800040E01010F6FC60E0101106F030E010100
:100EF800116FBDC112F1000E0101136F010E010146
:100F0800146F000E0101156FF9EC45F000D0000ECA
:100F18000101D06F00D00101BB51D8B409D0000E37
:100F28000101BB6F200E62EC57F0600E62EC57F0C7
:100F38000001CC51D8B43AD05CEC79F000C117F17B
:100F480001C118F1040E01010C6F010E4EEC5BF0AB
:100F58000CC119F10DC11AF141EC79F0010100C180
:100F68001BF1010101C11CF101011D6B1E6B35EC68
:100F780061F017C1EFF418C1F0F44B0E0401EF5DF6
:100F8800010E0401F059D8A011D00101BA51D8B40A
:100F98000AD00001C851D8A406D03EEC6CF0000E6F
:100FA8000101BA6F00D0DCEC71F000D04B0E0101EA
:100FB8000E6F030E01010F6FF00E0101106F010E8D
:100FC8000101116F2AEC44F00009D8B452D04B0E3D
:100FD80001012C6F030E01012D6FF0C12EF1CEC15E
:100FE8002FF1F9C130F1FEEC2BF00009D8B43AD05A
:100FF8004E0E01010E6F030E01010F6F940E0101D9
:10100800106F020E0101116FF80E0101126F040E2C
:101018000101136F68EC6BF00009D8B423D00B0EF4
:101028000401F76F940E01018A6F020E01018B6FA4
:101038000401F751010D4B0EF32401018C6F030ECF
:10104800F42001018D6F0401F75100080101F0251A
:1010580001018E6FF8C48FF1000E0101906F70ECE2
:1010680013F000D0000E0001CC6F000E0101CE6F0E
:1010780000D0030E0101ED19D8A414D0030E01010C
:10108800EE19D8A40FD0000E0101ED6F000E01017A
:10109800EE6F030E0101006F010EA7EC79F002015B
:1010A800438944D0020E0101EE19D8A40CD0000ED9
:1010B8000101EE6F020E0101006F010EA7EC79F03D
:1010C8000201438733D00101EE05D8A40CD0000EED
:1010D8000101EE6F010E0101006F010EA7EC79F01E
:1010E8000201438523D0020E0101ED19D8A40ED0C8
:1010F800000E0101ED6F65EC5EF0020E0101006F5C
:10110800000EA7EC79F00201438310D00101ED0530
:10111800D8A40CD0000E0101ED6F010E0101006F83
:10112800000EA7EC79F00201438100D00101BC5107
:10113800D8B42BD0000E0101BC6F800E0001B71986
:10114800D8A411D00101D4510101D8A405D00101BE
:10115800D5510101D8B407D0000E62EC57F0000E4B
:101168000101D46F10D0800E0001B719D8A40BD09C
:101178000001C851D8A407D0200E62EC57F0600EC9
:1011880062EC57F000D0040000D0000E0101016F9E
:10119800010E006FF20E0101026F010E0101036FD3
:1011A800CFEC52F00009D8B408D0F2C100F1010E1A
:1011B800A1EC79F00101B86F07D00101CB51D8B487
:1011C80003D00101CB0700D00101B851D8B469D1CF
:1011D80004012851C00B0401FB6F0401FB45E846DC
:1011E800030B0401FB6FED0E0101126FFF0E0101ED
:1011F800136FC3EC31F00401FB510401D8A407D1EB
:10120800000E0101BE6F78EC79F00009D8B43DD129
:10121800270E0101006F040E0101016F020E01018A
:10122800026FE50E0101036F010E0101046F000E4C
:101238000101056F040E0101066F5AEC6EF00009FA
:10124800D8B4BBD00A0E0101BD6FE9C1C6F3EAC12B
:10125800C7F3EBC1C8F3ECC1C9F31D0E0301CA6F94
:101268002B0E0301CB6F29C4CCF32AC4CDF32BC4B6
:10127800CEF32CC4CFF3010E3F6E0101F051FA0FEB
:101288000101F06F000E0101016F020E006F240EC4
:101298000101026FABEC59F0000E0101016F020E63
:1012A800006F240E0101026FABEC59F0000E010132
:1012B800016F020E006F0101F051040F0101026F6E
:1012C800ABEC59F0000E0101016F020E006F000E29
:1012D8000101026FABEC59F0000E0401F56F000E2E
:1012E8000401F96F22D0000E0101016F020E006F98
:1012F8000401F951010DC60EF324D96E030EF42032
:10130800DA6EDF500101026FABEC59F00401F951BC
:10131800010DC60EF324D96E030EF420DA6EDF50E9
:101328000401F51B0401F92B00D0FF0E0201F76F31
:10133800FF0E0201F86F0101BD510201F96FFA6B4E
:101348000201F7510201F9270201F8510201FA23BB
:101358000401F9510201FB6FFC6B0201F951020112
:10136800FB5D0201FC51800A0201FD6F0201FA5186
:10137800800A0201FD59D8A0B6D7000E0101016FFD
:10138800020E006FF5C402F1ABEC59F0000E01013A
:10139800016F020E006F0D0E0101026FABEC59F0E8
:1013A800000E0101016F020E006F0A0E0101026FAB
:1013B800ABEC59F0000E3F6E68D00101EF51F80F09
:1013C8000101BD6F020E0301C66F270E0101006FF8
:1013D800040E0101016F060E0101026FC60E010124
:1013E800036F030E0101046F010E0101056FBDC1FA
:1013F80006F1D6EC6AF029C4F1F42AC4F2F42BC43D
:10140800F3F42CC4F4F4010E0101D06F3ED0020EA7
:101418000401FB19D8A439D0020E0101BE6F78EC83
:1014280079F00009D8B431D0290E01010E6F040EED
:1014380001010F6FE70E0101106F040E0101116F1A
:10144800F60E0101126F040E0101136F68EC6BF0C8
:101458000009D8B41AD02D0E01018A6F040E0101BB
:101468008B6F310E01018C6F040E01018D6F01012C
:10147800EF51F30F01018E6F280E01018F6F010EDE
:101488000101906F70EC13F000D0000E0101B86FED
:10149800DC0E0101126FFF0E0101136FC3EC31F076
:1014A80000D0010E09EC75F00009D8B417D0050E6C
:1014B8000101276FA00E266F020E0101286F0C0E86
:1014C80084EC6CF00D0EE2EC77F00101D4510101CF
:1014D800D8B404D0000E0101D46F00D00A0E09EC74
:1014E80075F00009D8B420D0D70E0101066F000EA0
:1014F8000101076FE50E0101086F010E0101096F77
:10150800040E01010A6F6BEC72F00009D8A40CD02C
:10151800D70E0101186F000E0101196F000E0101AD
:101528001A6F44EC42F000D00B0E09EC75F000097C
:10153800D8B415D0000E0201216F000E206F000EE6
:101548000201236F000E226F000E0201396F000E98
:10155800386F000E02013B6F000E3A6F00D0000E8C
:1015680009EC75F00009D8B404D0000E0201436FED
:1015780000D00B0EFAEC76F00009D8B40BD0050EAB
:101588000101276FA00E266F020E0101286F0B0EB6
:1015980084EC6CF00A0EFAEC76F000D002011951D6
:1015A80005E10B0E0201185DD8A00CD0070E93ECD4
:1015B8004BF0000E2BEC78F0000E0201196F000EB4
:1015C800186F00D00101C051D8B40AD0000E010133
:1015D8000D6F240E0C6F32EC65F00101C00700D0CE
:1015E800000E0201506F0C0EFAEC76F00009D8B428
:1015F8000CD0050E0101276FA00E266F020E010107
:10160800286F0C0E84EC6CF000D00101CF51D8B4D7
:101618001ED0050E0101276FA00E266F020E0101D4
:10162800286F0C0E84EC6CF0000E0101CF6F0001E6
:10163800B751D8B40CD00101BF510101D8A407D0CB
:10164800000E0101D46F0D0EE2EC77F000D0170EFA
:1016580009EC75F00009D8B40ED0070EF6EC68F066
:10166800000E0101276F0A0E266F020E0101286F76
:10167800170E84EC6CF0170EFAEC76F00009D8B46B
:101688000BD0000E0101276F0A0E266F020E010112
:10169800286F170E84EC6CF00C0E09EC75F000093D
:1016A800D8B40BD0040E0101276FB00E266F010EBF
:1016B8000101286F0D0E84EC6CF00D0E09EC75F02D
:1016C8000009D8B40BD0020E0101276F580E266FFF
:1016D800010E0101286F0C0E84EC6CF0180E09EC59
:1016E80075F00009D8B413D0FA0E0101CC6103D00B
:1016F8000101CC2B00D0000E0101276F0A0E266FC6
:10170800020E0101286F180E84EC6CF000D0180E40
:10171800FAEC76F00009D8B40BD0000E0101276F5F
:101728000A0E266F020E0101286F180E84EC6CF069
:10173800110E09EC75F00009D8B406D0010E0101AC
:10174800D76FF8EC2EF000D0100E09EC75F00009F8
:10175800D8B41DD078EC79F00009D8A418D00101CC
:10176800FE510101D8B404D0D6EC6EF0000E0CD0B6
:10177800D70E0101186F000E0101196F010E01014A
:101788001A6F44EC42F0010E0101FE6F00D0100EFA
:10179800FAEC76F00009D8B40CD0000E0101276FDE
:1017A8001E0E266F010E0101286F100E84EC6CF0DE
:1017B80000D00001ABBF08D03E0E0001AA5D080EA4
:1017C8000001AB59D8B00BD00101BF510101D8B409
:1017D80052D00001B751D8B455D04DD053D00101E3
:1017E800BF510101D8B410D00101BF510101D8B4D3
:1017F80039D00001ABBF36D07D0E0001AA5D080EBE
:101808000001AB59D8A02ED0000E0101BF6F010E08
:1018180070EC70F00101005101010111D8B404D03D
:101828000CD030D010D02ED00D0E70EC70F001011D
:10183800005101010111D8B40DD00001B751D8B43D
:1018480021D001D01FD00101D4510101D8A41AD050
:1018580015D018D00001B751D8A414D0000EF6EC5A
:1018680068F010D00101BF510101D8B40BD00001BC
:10187800B751D8B407D0010E0101BF6F010E0101A5
:10188800D46F00D0040E01010C6F000E11EC62F051
:101898000CC116F20DC117F2020116510201225DA8
:1018A8000201175102012359D8B009D00101DF51B3
:1018B800D8A405D016C222F217C223F200D0C1EC78
:1018C80072F0BCEF06F0A6EC79F00009D8B4BCEFD2
:1018D80006F061EC79F0010E0101DE6FBCEF06F055
:1018E800EBEF04F02DC121F12EC122F134C123F117
:1018F80031C106F132C107F133C108F1F8EC57F0F4
:101908000101246F000E0101256FE1EC39F001019E
:10191800576F2DC106F12EC107F12FC108F130C153
:1019280009F1040E01010A6F38EC73F00101355119
:101938000101D8A410D02DC106F12EC107F1ED0E7A
:101948000101086F020E0101096F040E01010A6FFF
:1019580038EC73F000D0010E010133656DEF13F020
:1019680031C1D9FF32C1DAFFDE04D8A41AD0050E7E
:101978000101336516D0F90E010133250101006F0D
:101988000101016BFF0E0123000E0101036F050E1B
:10199800026FECEC65F00101005101010111D8B4AE
:1019A8000CD0000E0101276F0A0E266F020E0101EE
:1019B800286F170E84EC6CF000D031C1D9FF32C10A
:1019C800DAFFDE04D8A466D1050E0101336562D1C1
:1019D800F90E010133250101006F0101016BFF0EB2
:1019E8000123000E0101036F050E026FECEC65F098
:1019F8000101005101010111D8A44CD1FF0E0101D0
:101A0800366FFF0E0101376F010133510101386F45
:101A1800396B0101365101013827010137510101A4
:101A280039230101385101013125D96E010139519C
:101A380001013221DA6E0001C951DE18D8B424D070
:101A4800FF0E0101366FFF0E0101376F010133519F
:101A58000101386F396B0101365101013827010145
:101A68003751010139230101385101013125D96E5E
:101A78000101395101013221DA6EDE28D8A46DEF57
:101A880013F002D06DEF13F0000E0101596F010E33
:101A9800586FE7D0050E010158250101366F000E79
:101AA800010159210101376F010133510101386FDB
:101AB800396B010136510101385D01013951800A44
:101AC80001013A6F01013751800A01013A59D8A042
:101AD80082D0010159BF7FD00101595105E1060E9D
:101AE8000101585DD8A077D031C100F132C101F1B0
:101AF80058C102F1400E0101036F010E0101046F8C
:101B0800000E0101056F040E0101066FD6EC6AF0A4
:101B1800040E010158250101366F000E01015921FB
:101B28000101376F0101365101013125D96E0101DB
:101B3800375101013221DA6EDF500101386F050E8D
:101B48000101396F0101D89038330101392FFAD7D3
:101B580001013851070B01014C6F040E0101582592
:101B68000101366F000E010159210101376F010192
:101B7800365101013125D96E010137510101322158
:101B8800DA6EDF501F0B0101546F1E0E0101546500
:101B980006D0000E01014F6F1F0E4E6F0AD0010EC6
:101BA8000101542501014E6F01014F6B000E4F23B7
:101BB80000D0400E0101156F010E0101166F57C1CB
:101BC80017F14EC118F14CC119F1000E01011A6F3D
:101BD80047EC1EF03CD00101580501015911D8A469
:101BE80036D031C100F132C101F1010E0101026F9D
:101BF800E90E0101036F010E0101046F000E0101DE
:101C0800056F040E0101066F5AEC6EF00009D8B496
:101C18001ED02DC10EF12EC10FF1040E0101582561
:101C28000101366F000E010159210101376F0101D1
:101C3800365101013125D96E010137510101322197
:101C4800DA6EDF500101106F51EC68F000D0050E1C
:101C5800010158250101586F000E010159210101A8
:101C6800596F010133510101366F376B010136514C
:101C78000101585D01015951800A0101386F0101C4
:101C88003751800A01013859D8B06DEF13F002D7E7
:101C98006DEF13F031C1D9FF32C1DAFF020EDE1841
:101CA800D8A423D0010120EE02F03151D9263251B7
:101CB800DA22DE5002015C19D8A46DEF13F0000E91
:101CC8000201536F000E0201866F020E0201876F38
:101CD800000E0101D66F510E010134616DEF13F052
:101CE800010E02014B6F6DEF13F031C1D9FF32C104
:101CF800DAFF020EDF646DEF13F00B0E010133659E
:101D08006DEF13F0010E0101CF6F000E9FEC75F01F
:101D1800010120EE02F03151D9263251DA22DE508B
:101D280002015C19D8A40AD0000E0201536F000EFC
:101D38000201866F020E0201876F00D0010120EEBA
:101D480001F03151D9263251DA22DE5002015C19F4
:101D5800D8A498D1540E0101006F020E0101016F41
:101D6800000E0101026F31C103F132C104F1030E0B
:101D78000101056F040E0101066F5AEC6EF00009AF
:101D8800D8B480D1010120EE01F03151D926325169
:101D9800DA22DF500101B66F010E0001BD6F2DC1BF
:101DA80006F12EC107F1E10E0101086F020E0101D3
:101DB800096F040E01010A6F38EC73F0010120EE7F
:101DC80007F03151D9263251DA220101E951DE18E2
:101DD800D8A424D0010120EE08F03151D92632517F
:101DE800DA220101EA51DE18D8A418D0010120EE48
:101DF80009F03151D9263251DA220101EB51DE18AE
:101E0800D8A40CD0010120EE0AF03151D926325164
:101E1800DA220101EC51DE18D8B434D131C1D9FF2E
:101E280032C1DAFF040EDE18D8B429D101D027D187
:101E380031C100F132C101F1030E0101026FE90E57
:101E48000101036F010E0101046F000E0101056F0E
:101E5800040E0101066F5AEC6EF00009D8A40FD1E8
:101E680001D00DD1010120EE0BF03151D9263251AC
:101E7800DA2202018851DE5CD8B003D0000E1200CD
:101E8800FED0C4C250F1C5C251F1C6C252F1C7C298
:101E980053F131C100F132C101F1070E0101026FA6
:101EA800440E0101036F010E0101046F000E0101D0
:101EB800056F040E0101066FD6EC6AF0440E0101AD
:101EC8000B6F010E01010C6F500E01010D6F010E19
:101ED80001010E6F49EC41F001014D6F0101556997
:101EE800500E0101066F010E0101076FE50E010199
:101EF800086F010E0101096F040E01010A6F6BECF6
:101F080072F00009D8A40AD0500E01010E6F010E1C
:101F180001010F6F98EC6EF00101556F540E01012D
:101F2800066F020E0101076FE90E0101086F020E2C
:101F38000101096F040E01010A6F38EC73F05CC2ED
:101F4800DFF2CFEC78F002015C6F040E02015D6FE6
:101F5800060E0201536F000E0201866F020E020187
:101F6800876F31C100F132C101F1030E0101026F27
:101F7800580E0101036F020E0101046F000E0101EA
:101F8800056F040E0101066FD6EC6AF0E90E010137
:101F9800066F010E0101076F540E0101086F020E52
:101FA8000101096F040E01010A6F38EC73F0000E8D
:101FB8000201886F1D0E02015E6F2B0E02015F6F1A
:101FC800440E0101006F010E0101016F000E0101B5
:101FD800026F5E0E0101036F020E0101046F020E13
:101FE8000101056F040E0101066FD6EC6AF0500E70
:101FF8000101006F010E0101016F000E0101026F66
:102008005E0E0101036F020E0101046F060E01014D
:10201800056F040E0101066FD6EC6AF02DC100F1C0
:102028002EC101F1000E0101026F5E0E0101036F66
:10203800020E0101046F0A0E0101056F040E010171
:10204800066FD6EC6AF04DC16CF255C16DF2010114
:102058005551060D040EF326000EF422BD0EF3248E
:10206800D96E0A0EF420DA6EDF500F0B02016E6F84
:10207800110E0201846F000E0101D66F00D0000E10
:10208800120000D002015351D8A408D00001BD515C
:10209800D8A404D002018551D8B44ED0580E0101FD
:1020A800066F020E0101076F030E010131250101C0
:1020B800086F000E010132210101096F040E0101B0
:1020C8000A6F6BEC72F00009D8B433D00201535197
:1020D800D8B42FD00001BD51D8A42BD0020185510E
:1020E800D8A427D0010120EE01F03151D926325170
:1020F800DA220201DF51DE18D8A41ED0E90E010150
:10210800006F020E0101016F000E0101026F31C163
:1021180003F132C104F1030E0101056F040E010140
:10212800066F5AEC6EF00009D8B406D0000E120003
:1021380003D0000E120000D0010120EE07F031514B
:10214800D9263251DA220101E951DE18D8A424D067
:10215800010120EE08F03151D9263251DA2201016D
:10216800EA51DE18D8A418D0010120EE09F0315147
:10217800D9263251DA220101EB51DE18D8A40CD04D
:10218800010120EE0AF03151D9263251DA2201013B
:10219800EC51DE18D8B4D0D0010120EE0BF031514B
:1021A800D9263251DA221F0EDE18D8A402D0000E2A
:1021B8001200540E0101066F020E0101076FE90EAD
:1021C8000101086F020E0101096F040E01010A6F77
:1021D80038EC73F05CC2DFF2010120EE01F03151FE
:1021E800D9263251DA22DF5002015C6F31C1D9FFA2
:1021F80032C1DAFFDF5002015D6F060E0201536F34
:10220800000E0201866F020E0201876F31C100F1D4
:1022180032C101F1070E0101026F580E0101036F6F
:10222800020E0101046F000E0101056F040E010189
:10223800066FD6EC6AF031C100F132C101F1030E2C
:102248000101026F540E0101036F020E0101046FB8
:10225800000E0101056F040E0101066FD6EC6AF04D
:10226800010120EE0BF03151D9263251DA22DF502C
:102278000101366F010136290201886F31C100F171
:1022880032C101F10C0E0101026F5E0E0101036FF4
:10229800020E0101046F000E0101056F01013351A7
:1022A800F40F0101066FD6EC6AF001013351F40F07
:1022B8000201846F000E0101D66F010120EE01F0CA
:1022C8003151D9263251DA22DF500101B66F010EA1
:1022D8000001BD6F2DC106F12EC107F1E10E01010C
:1022E800086F020E0101096F040E01010A6F38EC34
:1022F80073F02DC121F12EC122F134C123F1010E59
:102308000101246F010E0101256FE1EC39F0010193
:10231800576F540E0101156F020E0101166F57C158
:1023280017F188C218F1000E0101196F010E0101A1
:102338001A6F47EC1EF0CDD1540E0101066F020E44
:102348000101076FE90E0101086F020E0101096F13
:10235800040E01010A6F38EC73F05CC2DFF2010170
:1023680020EE01F03151D9263251DA22DF50020134
:102378005C6F31C1D9FF32C1DAFFDF5002015D6FF6
:10238800000E0201536F000E0201866F020E020159
:10239800876F31C100F132C101F1070E0101026FEF
:1023A800580E0101036F020E0101046F000E0101B6
:1023B800056F040E0101066FD6EC6AF031C100F119
:1023C80032C101F1030E0101026F540E0101036FC6
:1023D800020E0101046F000E0101056F040E0101D8
:1023E800066FD6EC6AF031C100F132C101F1030E7B
:1023F8000101026F2FC103F130C104F1000E010188
:10240800056F040E0101066FD6EC6AF0010120EE9B
:102418000BF03151D9263251DA22DF500101366FE3
:10242800010136290201886F31C100F132C101F181
:102438000C0E0101026F5E0E0101036F020E010115
:10244800046F000E0101056F01013351F40F010102
:10245800066FD6EC6AF001013351F40F0201846F64
:10246800010120EE01F03151D9263251DA22DF5034
:102478000101B66F010E0001BD6F2DC106F12EC11D
:1024880007F1E10E0101086F020E0101096F040E48
:1024980001010A6F38EC73F0000E0101D66F2DC1EF
:1024A80021F12EC122F134C123F1010E0101246F63
:1024B800010E0101256FE1EC39F00101576F540E4F
:1024C8000101156F020E0101166F57C117F188C27D
:1024D80018F1000E0101196F010E01011A6F47EC86
:1024E8001EF0090E02015D19D8A405D002015F5142
:1024F80025EC79F0EED002015E39E842070B0101C4
:10250800566F010156510101D8B41ED00101C451C2
:10251800D8B41AD00D0E010131250101006F000E4B
:10252800010132210101016FF30E0101332501017F
:10253800026F0101036BFF0E032356C104F1D8ECAF
:102548005FF0010E1200C5D0010156510101D8A457
:1025580009D00101C451D8A405D0F3D703D0F1D7CD
:102568001200B7D002015E511F0B0C0AD8B4E9D78C
:1025780002015E511F0B1E0AD8A407D002015F5149
:10258800D8A403D0DED71200A4D0C8C248F1C9C26B
:1025980049F1CAC24AF1CBC24BF131C100F132C193
:1025A80001F1070E0101026F3B0E0101036F010EDD
:1025B8000101046F000E0101056F040E0101066F91
:1025C800D6EC6AF03B0E01010B6F010E01010C6F96
:1025D800480E01010D6F010E01010E6F49EC41F02B
:1025E80001013F69480E0101066F010E0101076FE5
:1025F800E50E0101086F010E0101096F040E0101CA
:102608000A6F6BEC72F00009D8A40AD0480E0101D9
:102618000E6F010E01010F6F98EC6EF001013F6F14
:10262800540E0101066F020E0101076FE90E010148
:10263800086F020E0101096F040E01010A6F38ECE0
:1026480073F05CC2DFF2CFEC78F002015C6F040E2D
:1026580002015D6F060E0201536F000E0201866FC4
:10266800020E0201876F31C100F132C101F1030E80
:102678000101026F580E0101036F020E0101046F80
:10268800000E0101056F040E0101066FD6EC6AF019
:10269800E90E0101066F010E0101076F540E0101D9
:1026A800086F020E0101096F040E01010A6F38EC70
:1026B80073F0000E0201886F1D0E02015E6F2C0E72
:1026C80002015F6F020E0201846F000E0101D66FD6
:1026D80000D0000E120012008AC12DF18BC12EF11C
:1026E800A40E01012F6F010E0101306F8CC131F171
:1026F8008DC132F18EC133F18FC134F190C135F102
:1027080076EC0CF00009D8B41200000E0101A16F9C
:10271800010120EE0CF08C51D9268D51DA22DF50C0
:102728001F0B0101A26F0101A8691B0E0101A2651F
:102738000BD0010120EE0DF08C51D9268D51DA22F3
:10274800DF500101A86F00D0000E01019A6F0C0E36
:1027580001018C250101006F000E01018D2101018D
:10276800016F020E0101026F0C0E01018C2501019F
:10277800036F000E01018D210101046F060E010196
:10278800056F040E0101066F5AEC6EF00009D8B40B
:1027980026D00C0E01018C250101006F000E0101ED
:1027A8008D210101016F060E0101026F0C0E01015E
:1027B8008C250101036F000E01018D210101046FB9
:1027C8000A0E0101056F040E0101066F5AEC6EF046
:1027D8000009D8B404D0010E01019A6F00D09AC143
:1027E800A9F1000E01019B6F0C0E01018C2501015E
:1027F800006F000E01018D210101016F030E01011F
:10280800026F0C0E01018C250101036F000E0101FE
:102818008D210101046F070E0101056F040E0101EE
:10282800066F5AEC6EF00009D8B426D00C0E0101E0
:102838008C250101006F000E01018D210101016F3E
:10284800070E0101026F0C0E01018C250101036FB7
:10285800000E01018D210101046F0B0E0101056FAE
:10286800040E0101066F5AEC6EF00009D8B404D0CA
:10287800010E01019B6F00D09BC19CF163EF18F022
:1028880080EF18F01AD080EF18F0190E01018E1998
:10289800D8A480EF18F00D0E01018C250101186FE6
:1028A800000E01018D210101196F000E01011A6F3F
:1028B80001EC70F080EF18F046D0010E0101A16F15
:1028C80080EF18F0010120EE0EF08C51D9268D51C1
:1028D800DA22410EDE18D8A480EF18F0010120EEAC
:1028E8000FF08C51D9268D51DA22530EDE18D8A458
:1028F80080EF18F0010120EE10F08C51D9268D518F
:10290800DA22460EDE18D8A4F7D3890E0101066F25
:10291800020E0101076F110E01018C250101086FDC
:10292800000E01018D210101096F0B0E01010A6FD3
:102938006BEC72F00009D8B4DFD3000E0101D76F39
:10294800F8EC2EF0D9D30101A851030AD8B4B5D7B1
:10295800290AD8B4B7D7D0D306D10101A9510101AA
:10296800D8B4CAD30E0E01018C250101186F000ED0
:1029780001018D210101196F000E01011A6F01EC8F
:1029880070F0BAD301019C510101D8B417D00F0ED1
:1029980001018C250101206F000E01018D2101012B
:1029A800216F010120EE0EF08C51D9268D51DA22CB
:1029B800DF500101226F41EC4FF09ED3A40E0101BC
:1029C800186F010E0101196F2D0E01011A6F010117
:1029D80020EE01F08C51D9268D51DA22DF50010109
:1029E8001B6F81EC74F088D301019C510101D8B4AC
:1029F80017D00F0E01018C2501010E6F000E010189
:102A08008D2101010F6F010120EE0EF08C51D926A6
:102A18008D51DA22DF500101106FD1EC4AF06CD3EE
:102A2800A40E0101186F010E0101196F2D0E01018D
:102A38001A6F010120EE01F08C51D9268D51DA224E
:102A4800DF5001011B6F81EC74F056D30101A951CD
:102A58000101D8A451D301D04FD3A40E0101186F9E
:102A6800010E0101196F2D0E01011A6F010120EEEF
:102A780001F08C51D9268D51DA22DF5001011B6FEC
:102A880081EC74F039D30101A9510101D8B434D3D0
:102A98000E0E01018C250101186F000E01018D2118
:102AA8000101196F3BEC74F027D3010120EE0EF001
:102AB8008C51D9268D51DA22520EDE18D8A419D09D
:102AC800010120EE0FF08C51D9268D51DA22530ED8
:102AD800DE18D8A40ED0010120EE10F08C51D926B2
:102AE8008D51DA22490EDE18D8A403D015EC79F0FE
:102AF80003D3A40E0101186F010E0101196F2D0EE9
:102B080001011A6F010120EE01F08C51D9268D5177
:102B1800DA22DF5001011B6F81EC74F0EDD2010164
:102B2800A9510101D8B4E8D20E0E01018C2501018A
:102B3800186F000E01018D210101196F97EC72F0D9
:102B4800DBD20101A9510101D8B4D6D20E0E010180
:102B58008C250101186F000E01018D210101196FEB
:102B680048EC69F0C9D20101A851000AD8B4F5D6D9
:102B7800040AD8B4C1D2240AD8B404D7010AD8B4F4
:102B880033D7030AD8B462D7010AD8B47CD7070A66
:102B9800D8B48BD7010AD8B4C2D70B0AD8B4D1D7C6
:102BA800ABD26CD20E0E01018C2501012F6F000EE5
:102BB80001018D210101306F7CEC38F0A40E010178
:102BC800186F010E0101196F3BEC74F095D28CC19E
:102BD80000F18DC101F10E0E0101026FD70E010146
:102BE800036F000E0101046F000E0101056F040E52
:102BF8000101066FD6EC6AF00D0E01018C2501016A
:102C0800186F000E01018D210101196F97EC72F008
:102C180073D28CC100F18DC101F10E0E0101026F5A
:102C28008CC103F18DC104F1170E0101056F040E6B
:102C38000101066F5AEC6EF00009D8B499D08CC126
:102C480000F18DC101F1170E0101026F8CC103F172
:102C58008DC104F1200E0101056F040E0101066FFC
:102C68005AEC6EF00009D8B483D08CC100F18DC144
:102C780001F1120E0101026F8CC103F18DC104F143
:102C88001B0E0101056F040E0101066F5AEC6EF070
:102C98000009D8B46DD08CC100F18DC101F11B0EB3
:102CA8000101026F8CC103F18DC104F1240E0101F1
:102CB800056F040E0101066F5AEC6EF00009D8B4D6
:102CC80057D0010120EE1FF08C51D9268D51DA2200
:102CD800010110EE16F08C51E1268D51E222DE50F2
:102CE800E618D8A445D0010120EE28F08C51D92649
:102CF8008D51DA22010110EE1FF08C51E1268D5121
:102D0800E222DE50E618D8A433D00E0E01018C253D
:102D180001012A6F000E01018D2101012B6F120E96
:102D280001018C2501012C6F000E01018D2101018B
:102D38002D6F010120EE16F08C51D9268D51DA2223
:102D4800DF5001012E6FEAEC72F0A40E0101186F3A
:102D5800010E0101196F0E0E01018C2501011A6F78
:102D6800000E01018D2101011B6FCEEC4DF0C4D185
:102D7800A40E0101186F010E0101196F2D0E01013A
:102D88001A6F010120EE01F08C51D9268D51DA22FB
:102D9800DF5001011B6F81EC74F0AED10E0E010102
:102DA8008C2501010E6F000E01018D2101010F6FAD
:102DB800A0EC66F0A40E0101186F010E0101196F55
:102DC800010E01011A6F01EC70F096D1010120EE9D
:102DD8000EF08C51D9268D51DA22520EDE18D8A465
:102DE8008BD1010120EE0FF08C51D9268D51DA22BA
:102DF800530EDE18D8A480D1010120EE10F08C51BA
:102E0800D9268D51DA22540EDE18D8A475D1FF00C8
:102E180073D1010120EE0EF08C51D9268D51DA22A2
:102E2800530EDE18D8A468D1010120EE0FF08C51A2
:102E3800D9268D51DA22460EDE18D8A45DD10101BB
:102E480020EE10F08C51D9268D51DA22540EDE185E
:102E5800D8A452D1A40E0101186F010E0101196FF7
:102E680099EC69F0010120EE11F08C51D9268D51B1
:102E7800DA22DF500101F86F150E0101276F7C0E71
:102E8800266F000E0101286F110E84EC6CF034D10E
:102E9800010120EE0EF08C51D9268D51DA22530E05
:102EA800DE18D8A458D0010120EE0FF08C51D92695
:102EB8008D51DA22520EDE18D8A44DD0010120EE31
:102EC80010F08C51D9268D51DA22460EDE18D8A47E
:102ED80042D0010120EE11F08C51D9268D51DA2211
:102EE800040EDF6038D0010120EE11F08C51D92694
:102EF8008D51DA22DF500101996F010120EE12F0A5
:102F08008C51D9268D51DA22DF500101916F0101D0
:102F1800915101019E6F9F6B01019E5101019F6FAD
:102F28009E6B010120EE13F08C51D9268D51DA22C7
:102F3800DF500101916F0101915101019E27000E9F
:102F48009F239EC126F19FC127F199C128F1010E47
:102F580084EC6CF0D1D0A40E0101186F010E0101B0
:102F6800196F2D0E01011A6F010120EE01F08C512D
:102F7800D9268D51DA22DF5001011B6F81EC74F0E4
:102F8800BBD0010120EE0EF08C51D9268D51DA22EA
:102F9800DF50D8090101986F98C102F13C0EBAECD4
:102FA80075F0AAD00101A9510101D8B4A5D0010139
:102FB80020EE1BF08C51D9268D51DA22DF50010109
:102FC800916F010191510101B16FB26B0101B151D2
:102FD8000101B26FB16B010120EE1AF08C51D926B4
:102FE8008D51DA22DF500101916F010191510101E8
:102FF800B127000EB2230101B105090E0101B25932
:10300800D8A006D0000E0101B26F000EB16F74D0C7
:10301800010120EE1CF08C51D9268D51DA22DF50A7
:103028000101F86F0E0E01018C250101186F000EC9
:1030380001018D210101196FC8EC6FF0010120EE2B
:103048001DF08C51D9268D51DA22DF500101F16F24
:103058001E0E01018C250101066F000E01018D2154
:103068000101076F890E0101086F020E0101096F46
:103078000B0E01010A6F38EC73F03ED00101A85124
:10308800040AD8B48FD7270AD8B48CD5060AD8B47E
:103098009ED5030AD8B4BDD5010AD8B47FD60F0A85
:1030A800D8B494D6010AD8B427D0030AD8B4B1D674
:1030B8006A0AD8B4EDD6BE0AD8B463D71DD00101C8
:1030C800A251000AD8B418D0020AD8B461EF14F09B
:1030D800060AD8B411D0080AD8B449EF14F0100A77
:1030E800D8B40AD0010AD8B42ED4030AD8B43BD530
:1030F800010AD8B4C3D700D00101A1510101D8A455
:1031080020D00C0E01018C250101816F000E0101F8
:103118008D210101826F8FC183F1A40E0101846F9B
:10312800010E0101856FA2C186F1A8C187F10101D5
:103138008E51F40F0101886F9FEC3CF00101A16FE3
:1031480000D00101A1510101D8B41200E80E01011B
:10315800126FFF0E0101136FC3EC31F00101BE5174
:10316800D8A421D1010E3F6E01018E51FD0F01013E
:103178009D6F000E0101016F020E006F240E010108
:10318800026FABEC59F0000E0101016F020E006FE7
:10319800240E0101026FABEC59F0000E0101016F22
:1031A800020E006F9DC102F1ABEC59F0000E010157
:1031B800016F020E006F000E0101026FABEC59F0B7
:1031C800000E0101A06F000E0101016F020E006FD9
:1031D800010120EE03F08C51D9268D51DA22DF50FF
:1031E8000101026FABEC59F0010120EE03F08C51A4
:1031F800D9268D51DA22DF500101A01B000E0101F2
:10320800016F020E006F010120EE04F08C51D926E7
:103218008D51DA22DF500101026FABEC59F0010148
:1032280020EE04F08C51D9268D51DA22DF500101AD
:10323800A01B000E0101016F020E006F010120EEBC
:1032480005F08C51D9268D51DA22DF500101026F29
:10325800ABEC59F0010120EE05F08C51D9268D51C7
:10326800DA22DF500101A01B000E0101016F020EDE
:10327800006F010120EE06F08C51D9268D51DA221B
:10328800DF500101026FABEC59F0010120EE06F0AE
:103298008C51D9268D51DA22DF500101A01B000E76
:1032A8000101A36F38D0000E0101016F020E006FFB
:1032B8000101A3510101916F926B0C0E010191273D
:1032C800000E92230101915101018C25D96E010153
:1032D800925101018D21DA6EDF500101026FABECD2
:1032E80059F00101A3510101916F926B0C0E01017C
:1032F8009127000E92230101915101018C25D96E6D
:103308000101925101018D21DA6EDF500101A01BEC
:103318000101A32B00D0F70E0101916FFF0E0101EF
:10332800926F01019D510101936F946B01019151BD
:103338000101932701019251010194230101A35135
:103348000101956F966B010193510101955D010192
:103358009651800A0101976F01019451800A010179
:103368009759D8A0A0D7000E0101016F020E006F77
:10337800A0C102F1ABEC59F0000E0101016F020E81
:10338800006F0D0E0101026FABEC59F0000E010148
:10339800016F020E006F0A0E0101026FABEC59F0CB
:1033A800000E3F6E00D0D60E0101126FFF0E010114
:1033B800136FC3EC31F01200120001015A6F0201C1
:1033C8005351D8A414D00001BD51D8A410D0020183
:1033D8008551D8A40CD001014A05D8A408D0010E03
:1033E8000101486F01015A51EBEC78F008D0000E4A
:1033F8000101486F01015A51EBEC78F000D0940EAE
:1034080001015B6F030E01015C6F88EC79F0000924
:10341800D8A416D0D4C20CF1D5C20DF132EC65F0A7
:10342800010E01010C2502010C6F000E01010D2196
:1034380002010D6F000E0201D76F000ED66F00D08B
:1034480070EC79F00009D8B4DED002018551D8B407
:103458007BD001015A510101D8B476D0000E020187
:10346800856F5BC1D9FF5CC1DAFF5DC2DFFF010177
:1034780020EE01F05B51D9265C51DA225CC2DFFFF5
:10348800010120EE02F05B51D9265C51DA22B6C167
:10349800DFFF540E0101006F020E0101016F000EE3
:1034A8000101026F5BC103F15CC104F1030E01016C
:1034B800056F040E0101066FD6EC6AF0580E010183
:1034C800006F020E0101016F000E0101026F5BC166
:1034D80003F15CC104F1070E0101056F040E01013F
:1034E800066FD6EC6AF0010120EE0BF05B51D9268D
:1034F8005C51DA2288C2DFFF5E0E0101006F020E06
:103508000101016F000E0101026F5BC103F15CC193
:1035180004F10C0E0101056F84C206F1D6EC6AF0C5
:10352800E50E0101326F010E0101336F890E0101B1
:10353800346F030E0101356F020184510C0F010134
:10354800366F50EC60F05BD002010C510201D619C5
:1035580056E102010D510201D719D8A450D001013A
:103568005A510101D8B442D078EC79F00009D8B4A6
:103578003DD00101F651D8B427D001EC29F0010162
:10358800516FE50E0101326F010E0101336F890E93
:103598000101346F030E0101356F51C136F150EC52
:1035A80060F00009D8A42BD001D029D00201D45151
:1035B80002010C5D0201D55102010D59D8B01FD08E
:1035C80002010C4B0D2B1BD0E50E0101326F010ED1
:1035D8000101336F890E0101346F030E0101356F4C
:1035E800000E0101366F50EC60F009D0A80E010101
:1035F800126FFE0E0101136FC3EC31F000D002010F
:10360800D64BD72BDBD2C0C256F1C1C257F1C2C2CA
:1036180058F1C3C259F10101D651D8A4C1D0010152
:10362800D62B02018651D8A4B8D0010E02015365E9
:10363800C5D2580E01010B6F020E01010C6F560E18
:1036480001010D6F010E01010E6F49EC41F00101FE
:10365800526F0001BD51D8B416D0560E0101066F45
:10366800010E0101076FE10E0101086F020E010151
:10367800096F040E01010A6F6BEC72F00009D8A4FF
:103688009DD201D09BD287C20CF101010D6B32ECA7
:1036980065F001010C510201866F01015A510101C7
:1036A800D8B48CD2020153070201872B1F0E0101E7
:1036B800526184D25BC1D9FF5CC1DAFF5DC2DFFF12
:1036C800010120EE01F05B51D9265C51DA225CC27F
:1036D800DFFF010120EE02F05B51D9265C51DA22AE
:1036E800B6C1DFFF540E0101006F020E0101016F28
:1036F800000E0101026F5BC103F15CC104F1030E0E
:103708000101056F040E0101066FD6EC6AF0580E30
:103718000101006F020E0101016F000E0101026F2D
:103728005BC103F15CC104F1070E0101056F040ED2
:103738000101066FD6EC6AF0010120EE0BF05B5137
:10374800D9265C51DA2288C2DFFF5E0E0101006FC4
:10375800020E0101016F000E0101026F5BC103F14E
:103768005CC104F10C0E0101056F84C206F1D6ECB0
:103778006AF0560E0101326F010E0101336F890E96
:103788000101346F030E0101356F020184510C0FE2
:103798000101366F50EC60F011D2020186070ED29B
:1037A8000101D605D8A4E8D00001BD51D8B4E4D0B1
:1037B8000101D62B580E01010B6F020E01010C6F8F
:1037C800560E01010D6F010E01010E6F49EC41F01B
:1037D8000101536F010E020153659CD0560E010181
:1037E800066F010E0101076FE10E0101086F020E5D
:1037F8000101096F040E01010A6F6BEC72F00009F8
:10380800D8B488D0000E0201536F000E0201866FF3
:10381800020E0201876F01015A510101D8B4CED1BD
:103828001F0E01015361CAD1000E0001BD6F5BC1BB
:10383800D9FF5CC1DAFF5DC2DFFF010120EE01F0B4
:103848005B51D9265C51DA225CC2DFFF010120EE10
:1038580002F05B51D9265C51DA22B6C1DFFF540E63
:103868000101006F020E0101016F000E0101026FDC
:103878005BC103F15CC104F1030E0101056F040E85
:103888000101066FD6EC6AF0580E0101006F020EB6
:103898000101016F000E0101026F5BC103F15CC100
:1038A80004F1070E0101056F040E0101066FD6EC45
:1038B8006AF0010120EE0BF05B51D9265C51DA2247
:1038C80088C2DFFF5E0E0101006F020E0101016F69
:1038D800000E0101026F5BC103F15CC104F10C0E23
:1038E8000101056F84C206F1D6EC6AF0560E01019B
:1038F800326F010E0101336F890E0101346F030E1F
:103908000101356F020184510C0F0101366F50EC33
:1039180060F054D1000E0001BD6F5BC1D9FF5CC1DE
:10392800DAFF020EDF6E010120EE01F05B51D926AD
:103938005C51DA22000EDF6E010120EE02F05B51CD
:10394800D9265C51DA22B6C1DFFF01015A510101C3
:10395800D8B434D1E10E0101326F020E0101336F88
:10396800890E0101346F030E0101356F030E010149
:10397800366F50EC60F022D1020E0101D6651BD1E2
:1039880002015305D8A413D1580E01010B6F020E82
:1039980001010C6F560E01010D6F010E01010E6F32
:1039A80049EC41F00101546F01015569560E0101BE
:1039B800066F010E0101076FE50E0101086F010E88
:1039C8000101096F040E01010A6F6BEC72F0000926
:1039D800D8A40BD0560E01010E6F010E01010F6F16
:1039E80098EC6EF00101556F00D0040E02015D19CC
:1039F800D8B414D0540E0101066F020E0101076FEE
:103A0800E90E0101086F010E0101096F040E0101A1
:103A18000A6F6BEC72F00009D8B40AD0000E0201EC
:103A2800536F000E0201866F020E0201876FBFD02E
:103A3800540E0101066F020E0101076FE90E010124
:103A4800086F010E0101096F040E01010A6F6BEC8A
:103A580072F00009D8A4ABD001D0A9D0540E01014E
:103A6800066F020E0101076FE90E0101086F020ED1
:103A78000101096F040E01010A6F38EC73F05CC292
:103A8800DFF2CFEC78F002015C6F040E02015D6F8B
:103A9800060E0201536F000E0201866F020E02012C
:103AA800876F580E0101066F020E0101076F4D0E58
:103AB8000101086F010E0101096F040E01010A6F6F
:103AC80038EC73F0540E0101066F020E0101076F06
:103AD800580E0101086F020E0101096F040E010161
:103AE8000A6F38EC73F0E90E0101066F010E01014F
:103AF800076F540E0101086F020E0101096F040ED1
:103B080001010A6F38EC73F0000E0201886F1D0E78
:103B180002015E6F2B0E02015F6F4D0E0101006FF7
:103B2800010E0101016F000E0101026F5E0E01011D
:103B3800036F020E0101046F020E0101056F040EEE
:103B48000101066FD6EC6AF0560E0101006F010EF6
:103B58000101016F000E0101026F5E0E0101036F8A
:103B6800020E0101046F060E0101056F040E01012A
:103B7800066FD6EC6AF054C168F255C169F20101CA
:103B88005551060D040EF326000EF422BD0EF32443
:103B9800D96E0A0EF420DA6EDF500F0B02016A6F3D
:103BA8000D0E0201846F000E0101D66F00D0000EC9
:103BB8000101D66F03D00101D62B00D088EC79F033
:103BC8000009D8A40CD00201442B020E020144655E
:103BD80006D054EC4CF0000E0201446F00D00201F4
:103BE8003C2B0101F45102013C5DD8A03FD00101FA
:103BF800B751020DC90EF324D96E080EF420DA6EFF
:103C0800DF38E832E832030B0009D8B422D0010EBD
:103C180001014B6F0101B751020DC90EF324D96E92
:103C2800080EF420DA6EDF3801014C6F4C334C314A
:103C3800030B4C6F01014B5101014C5F01014C3BDF
:103C48004C374C37DF5001014C193F0B4C19DF6ED4
:103C580000D00101B72BF90E0101B76503D0000EA2
:103C68000101B76F000E02013C6F00D0070E09EC8E
:103C780075F00009D8B41200E0EC3DF0010E010126
:103C8800F66F1200120015C106F116C107F1E90E10
:103C98000101086F010E0101096F040E01010A6F8D
:103CA8006BEC72F00009D8A4120001D012000101D7
:103CB8001729D8B4120001D01200030E0101086FB1
:103CC80001011751060D050EF326000EF422BD0E54
:103CD800F324D96E0A0EF420DA6EDF507CEC48F03B
:103CE8000101196151D0030E0101086F010117513B
:103CF800060D050EF326000EF422BD0EF324D96E30
:103D08000A0EF420DA6EDF507CEC48F001011B6FDC
:103D180001011751060D040EF326000EF422BD0E04
:103D2800F324D96E0A0EF420DA6EDF380F0BEEECAE
:103D380075F001011B5DD8B012D001011751060DB5
:103D4800040EF326000EF422BD0EF324D96E0A0EDB
:103D5800F420DA6EDF380F0BEEEC75F03AD0030E74
:103D68000101086F01011751060D050EF326000E1B
:103D7800F422BD0EF324D96E0A0EF420DA6EDF5059
:103D88007CEC48F026D02BD001011751060D040E0B
:103D9800F326000EF422BD0EF324D96E0A0EF42089
:103DA800DA6EDF380F0BEEEC75F00101196114D0F3
:103DB80001011751060D040EF326000EF422BD0E64
:103DC800F324D96E0A0EF420DA6EDF380F0BEEEC0E
:103DD80075F001011F6F03D019C11FF100D0000E4B
:103DE8000101206FF90E0101206501D06BD215C1C8
:103DF80004F116C105F101012051E4EC5DF0000960
:103E0800D8B45DD201012051020DC90EF324D96E38
:103E1800080EF420DA6EDF503F0BFEEC67F001016C
:103E28001C6F01012051020D010EF326000EF42231
:103E3800C90EF324D96E080EF420DA6EDF38E832A2
:103E4800070B01011B6F01011C5101011B5DD8B05B
:103E580019D01CC11BF101012051020D010EF326DE
:103E6800000EF422C90EF324D96E080EF420DA6E7F
:103E780001011B3B1B47DF5001011B191F0B1B19BD
:103E8800DF6E00D001011A510101D8B42DD0010113
:103E98002051020D010EF326000EF422C90EF32460
:103EA800D96E080EF420DA6EDF5001011819E00B04
:103EB8001819DF6E01012051020DC90EF324D96EC5
:103EC800080EF420DA6EDF5001011719C00B17191C
:103ED800DF6E01012051020DC90EF324D96E080EC0
:103EE800F420DA6EC00EDF1201012051020DC90E56
:103EF800F324D96E080EF420DA6EDF503F0B01016F
:103F08001719D8A444D01FC11BF101012051020D7B
:103F1800010EF326000EF422C90EF324D96E080E02
:103F2800F420DA6E01011B3B1B47DF5001011B190E
:103F38001F0B1B19DF6E01012051020D010EF32624
:103F4800000EF422C90EF324D96E080EF420DA6E9E
:103F5800DF501F0B01011819D8B405D00101175102
:103F6800A6EC76F000D001012051020D010EF326D7
:103F7800000EF422C90EF324D96E080EF420DA6E6E
:103F8800DF5001011819E00B1819DF6E120001014A
:103F98002051020DC90EF324D96E080EF420DA6EF2
:103FA800DF38E832E832030B0009D8A41200010117
:103FB8002051020D010EF326000EF422C90EF3243F
:103FC800D96E080EF420DA6EDF38E832070B070ADC
:103FD800D8A43BD001012051020D010EF326000E9A
:103FE800F422C90EF324D96E080EF420DA6EDF50DD
:103FF80001011819E00B1819DF6E01012051020D9B
:10400800C90EF324D96E080EF420DA6EDF500101D0
:104018001719C00B1719DF6E1FC11BF101012051C1
:10402800020D010EF326000EF422C90EF324D96EF8
:10403800080EF420DA6E01011B3B1B47DF5001011B
:104048001B191F0B1B19DF6E120001012051020DF5
:10405800010EF326000EF422C90EF324D96E080EC1
:10406800F420DA6EDF501F0B0101186145D0010101
:104078001F510001D65DD8A0120001012051020D88
:10408800010EF326000EF422C90EF324D96E080E91
:10409800F420DA6EDF5001011819E00B1819DF6EF1
:1040A80001012051020DC90EF324D96E080EF42027
:1040B800DA6EDF5001011719C00B1719DF6E1FC127
:1040C8001BF101012051020D010EF326000EF4220E
:1040D800C90EF324D96E080EF420DA6E01011B3BD9
:1040E8001B47DF5001011B191F0B1B19DF6E010154
:1040F8001751A6EC76F0120001012051020D010EB5
:10410800F326000EF422C90EF324D96E080EF4200B
:10411800DA6EDF501F0B01011819D8A461D0010114
:104128002051020D010EF326000EF422C90EF324CD
:10413800D96E080EF420DA6EDF38E832070B010179
:104148001F61120001012051020D010EF326000E1D
:10415800F422C90EF324D96E080EF420DA6EDF3883
:10416800E832070B0001D661120001012051020D4F
:10417800010EF326000EF422C90EF324D96E080EA0
:10418800F420DA6EDF5001011819E00B1819DF6E00
:1041980001012051020DC90EF324D96E080EF42036
:1041A800DA6EDF5001011719C00B1719DF6E1FC136
:1041B8001BF101012051020D010EF326000EF4221D
:1041C800C90EF324D96E080EF420DA6E01011B3BE8
:1041D8001B47DF5001011B191F0B1B19DF6E120053
:1041E80001012051020D010EF326000EF422C90E22
:1041F800F324D96E080EF420DA6EDF501F0B01018C
:104208001B6F0101185101011B5DD8B0120000019C
:10421800D65101011F5DD8B0120001012051020DD5
:10422800010EF326000EF422C90EF324D96E080EEF
:10423800F420DA6EDF38E832070B0001D66112008D
:1042480001012051020D010EF326000EF422C90EC1
:10425800F324D96E080EF420DA6EDF500101181924
:10426800E00B1819DF6E01012051020DC90EF3246D
:10427800D96E080EF420DA6EDF5001011719C00B51
:104288001719DF6E1FC11BF101012051020D010E2C
:10429800F326000EF422C90EF324D96E080EF4207A
:1042A800DA6E01011B3B1B47DF5001011B191F0B75
:1042B8001B19DF6E01011751A6EC76F012000101FF
:1042C800202B90D51F0E0101186160D0000E01014E
:1042D8001E6FF90E01011E6501D058D0E50E0101CF
:1042E800046F010E0101056F01011E51E4EC5DF040
:1042F8000009D8B447D015C107F116C108F101016A
:104308001E51F7EC6BF001011E51020D010EF32650
:10431800000EF422C90EF324D96E080EF420DA6ECA
:10432800DF5001011819E00B1819DF6E01011E5149
:10433800020DC90EF324D96E080EF420DA6EDF5090
:1043480001011719C00B1719DF6E1FC11BF10101FD
:104358001E51020D010EF326000EF422C90EF3249D
:10436800D96E080EF420DA6E01011B3B1B47DF50A3
:1043780001011B191F0B1B19DF6E01011751A6EC58
:1043880076F0120001011E2BA4D700D01F0E0101E8
:1043980018611200B1C01DF1F90E01011D6502D0AE
:1043A8001200120001011D51020D010EF326000E2C
:1043B800F422C90EF324D96E080EF420DA6EDF5009
:1043C8001F0B1F0AD8B40ED001011D51020DC90ED2
:1043D800F324D96E080EF420DA6EDF503F0B3F0A43
:1043E800D8A454D015C107F116C108F10001B15184
:1043F800F7EC6BF00001B151020D010EF326000E2F
:10440800F422C90EF324D96E080EF420DA6EDF50B8
:1044180001011819E00B1819DF6E0001B151020DE6
:10442800C90EF324D96E080EF420DA6EDF500101AC
:104438001719C00B1719DF6E1FC11BF10001B1510D
:10444800020D010EF326000EF422C90EF324D96ED4
:10445800080EF420DA6E01011B3B1B47DF500101F7
:104468001B191F0B1B19DF6E0001B151020DC90E7C
:10447800F324D96E080EF420DA6E3F0EDF16010120
:104488001751A6EC76F01DC1B1F01200F90E01012A
:104498001D19D8A404D0000E0001B16F00D001018D
:1044A8001D2BF90E01011D657DD7120012001200A7
:1044B800000E4C6E000E4D6E000E0001B46F000E23
:1044C8000001BB6F020E09EC75F00009D8B435D1B4
:1044D800010E4C6E0001B52B020E0001B519D8A4CF
:1044E800FBD0000E0001B56FF7D0000E0001B46FCD
:1044F800000E0101276F1E0E266F000E0101286FA6
:10450800020E84EC6CF019D1010E0001B46F000E9C
:104518000101276F1E0E266F000E0101286F020E83
:1045280084EC6CF00AD10001B505D8A404D0010EC2
:104538000001B46F00D0000E0101276F400E266FF6
:10454800000E0101286F020E84EC6CF0F6D0000119
:10455800B505D8A404D0010E0001B46F00D0000E38
:104568000101276F7D0E266F000E0101286F020ED4
:1045780084EC6CF0E2D000D00001B505D8A404D0DA
:10458800010E0001B46F00D0000E0101276FFA0E72
:10459800266F000E0101286F020E84EC6CF0CDD05E
:1045A8000001B505D8A404D0010E0001B46F00D0F5
:1045B800010E0101276FF40E266F000E0101286F0E
:1045C800020E84EC6CF0B9D00001B505D8A404D073
:1045D800010E0001B46F00D0030E0101276FE80E31
:1045E800266F000E0101286F020E84EC6CF0A5D036
:1045F8000001B505D8A404D0010E0001B46F00D0A5
:10460800090E0101276FC40E266F000E0101286FE5
:10461800020E84EC6CF091D00001B505D8A404D04A
:10462800010E0001B46F00D0130E0101276F880E30
:10463800266F000E0101286F020E84EC6CF07DD00D
:104648000001B505D8A421D0010E0001B46F39507E
:10465800D8A40DD0000E0101276F500E266F000E52
:104668000101286F020E84EC6CF0010E0CD0090ECB
:104678000101276F740E266F000E0101286F020ECC
:1046880084EC6CF0000E396E58D03950D8B40CD088
:10469800000E0101276F500E266F000E0101286FD2
:1046A800020E84EC6CF049D0090E0101276F740EDC
:1046B800266F000E0101286F020E84EC6CF03DD0CD
:1046C800000E0101276F1E0E266F000E0101286FD4
:1046D800020E84EC6CF031D00001B351000AD8B45A
:1046E80004D7010AD8B410D7030AD8B41CD7010AD2
:1046F800D8B42DD7070AD8B43FD7010AD8B450D7B1
:10470800030AD8B461D70D0AD8B436D7070AD8B483
:1047180033D7010AD8B430D7030AD8B42DD7010A41
:10472800D8B42AD71F0AD8B463D7010AD8B474D723
:10473800030AD8B485D7C4D700D0030E09EC75F0A6
:104748000009D8B435D1010E4D6E0001B62B020E0A
:104758000001B619D8A4FBD0000E0001B66FF7D03F
:10476800000E0001BB6F000E0101276F1E0E266FA1
:10477800000E0101286F030E84EC6CF019D1010EB4
:104788000001BB6F000E0101276F1E0E266F000E81
:104798000101286F030E84EC6CF00AD10001B60504
:1047A800D8A404D0010E0001BB6F00D0000E010197
:1047B800276F400E266F000E0101286F030E84EC50
:1047C8006CF0F6D00001B605D8A404D0010E0001A3
:1047D800BB6F00D0000E0101276F7D0E266F000E03
:1047E8000101286F030E84EC6CF0E2D000D00001C8
:1047F800B605D8A404D0010E0001BB6F00D0000E8E
:104808000101276FFA0E266F000E0101286F030EB3
:1048180084EC6CF0CDD00001B605D8A404D0010E0C
:104828000001BB6F00D0010E0101276FF40E266F47
:10483800000E0101286F030E84EC6CF0B9D0000162
:10484800B605D8A404D0010E0001BB6F00D0030E3A
:104858000101276FE80E266F000E0101286F030E75
:1048680084EC6CF0A5D00001B605D8A404D0010EE4
:104878000001BB6F00D0090E0101276FC40E266F1F
:10488800000E0101286F030E84EC6CF091D000013A
:10489800B605D8A404D0010E0001BB6F00D0130EDA
:1048A8000101276F880E266F000E0101286F030E85
:1048B80084EC6CF07DD00001B605D8A421D0010E9F
:1048C8000001BB6F3C50D8A40DD0000E0101276F2A
:1048D800500E266F000E0101286F030E84EC6CF059
:1048E800010E0CD0090E0101276F740E266F000E01
:1048F8000101286F030E84EC6CF0000E3C6E58D05A
:104908003C50D8B40CD0000E0101276F500E266F12
:10491800000E0101286F030E84EC6CF049D0090EDB
:104928000101276F740E266F000E0101286F030E18
:1049380084EC6CF03DD0000E0101276F1E0E266F2F
:10494800000E0101286F030E84EC6CF031D00001D9
:10495800BA51000AD8B404D7010AD8B410D7030A48
:10496800D8B41CD7010AD8B42DD7070AD8B43FD772
:10497800010AD8B450D7030AD8B461D70D0AD8B4FD
:1049880036D7070AD8B433D7010AD8B430D7030AC0
:10499800D8B42DD7010AD8B42AD71F0AD8B463D7F8
:1049A800010AD8B474D7030AD8B485D7C4D700D0BD
:1049B800090E0001B319D8A40CD04D50D8B409D0B1
:1049C8000001B6510001D8A404D0010E0001B46F53
:1049D80000D00A0E0001BA19D8A40CD04C50D8B493
:1049E80009D00001B5510001D8A404D0010E00017E
:1049F800BB6F00D0080E0001B319D8A40CD04D50DD
:104A0800D8B409D00001BB510001D8B404D0010EBC
:104A18000001B46F00D0070E0001BA19D8A40CD059
:104A28004C50D8B409D00001B4510001D8B404D016
:104A3800010E0001BB6F00D00001BB510001D8B4CA
:104A48000DD03B50D8B402D03B0600D00001B9517C
:104A58000001D8B403D00001B90700D00001B45157
:104A68000001D8B40DD03850D8B402D0380600D0E0
:104A78000001B2510001D8B403D00001B20700D040
:104A88000001B2510001D8B403D0000E0001B46F88
:104A98000001B9510001D8B403D0000E0001BB6F6A
:104AA8003850D8B424D035D022D00A0E0001B26FC5
:104AB8000001B251040F13D00A0E0001B26F0001B9
:104AC800B251030F0CD00A0E0001B26F0001B251AF
:104AD800020F05D00A0E0001B26F0001B229386E2C
:104AE80018D00A0E0001B26FB2C038F012D000011F
:104AF800B3510B0AD8B4D9D7070AD8B4DDD7010AFD
:104B0800D8B4E1D7030AD8B4E5D7010AD8B4E9D7AD
:104B180000D03B50D8B424D035D022D00A0E0001A2
:104B2800B96F0001B951040F13D00A0E0001B96F13
:104B38000001B951030F0CD00A0E0001B96F000132
:104B4800B951020F05D00A0E0001B96F0001B92949
:104B58003B6E18D00A0E0001B96FB9C03BF012D0F5
:104B68000001BA510B0AD8B4D9D7070AD8B4DDD78F
:104B7800010AD8B4E1D7030AD8B4E5D7010AD8B4F2
:104B8800E9D700D00001B451A2EC78F00001BB5184
:104B980096EC78F012000101416F0101C251D8A4CE
:104BA80004D00101DA51D8B44AD2800E0001B719F5
:104BB800D8B459D02CC00DF12DC00EF1D8C20FF1C8
:104BC800D9C210F1A6EC70F001010D5101010E11CE
:104BD800D8A413D0000E01010E6F0001C451010DBD
:104BE800000EF324D96E060EF420DA6EDF500EECB8
:104BF80077F0010E0001C06F27D02CC10EF1C4C0A0
:104C080000F10101016BCDC102F10101036BC90E75
:104C18000101046F000E056F000E066F000E076F8E
:104C28008DEC6FF0000E01010025D96E060E010112
:104C38000121DA6EDF500EEC77F0000E0001C06F34
:104C4800000E0201426F00D0020E0101DA19D8A449
:104C580006D0010E0101C26F000E0101DA6F000ECD
:104C68000101D86F2BD0020E0101DA19D8A407D0A0
:104C7800010E0101C26F000E0101DA6F1FD00101A0
:104C8800D82B010E0101D86519D0F25000D0070EBB
:104C980093EC4BF0000E0101C26F000E0101DA6FB8
:104CA800010E0101F76F000E0101016F040E006F84
:104CB800030E0101026FABEC59F000D02C042D104B
:104CC800D8A407D0010E456EA2C034F0A3C035F0B9
:104CD80000D0080E09EC75F00009D8B408D001011D
:104CE800C951D8B404D0010E0101D16F00D0080E0B
:104CF800FAEC76F00009D8B42ED00101C951D8A435
:104D08001CD0FAC10CF101010D6B32EC65F0010108
:104D18000C510101CA6F0101CA5100080101FA25AD
:104D28000101C96FCAC126F10101276B010E0101FA
:104D3800286F080E84EC6CF00ED0C9C126F1010171
:104D4800276B010E0101286F080E84EC6CF0000E31
:104D58000101C96F00D00001C7510001D8A406D0D5
:104D680002011A5102011B11D8B442D10001C051ED
:104D7800D8B43ED1010141510101D8B439D11CC286
:104D88002DF11DC22EF101012D1F2E1F2D4B2E2B93
:104D9800040E01010C6F010E4EEC5BF001012D5168
:104DA80001010C250101466F01012E5101010D2160
:104DB8000101476F46C12DF147C12EF101012D1F99
:104DC8002E1F2D4B2E2B2DC144F12EC145F1080E5F
:104DD8000101475DD8A00BD0FE0E0101465D0F0E04
:104DE80001014759D8B003D00001C72B36D00101C3
:104DF80046290F0E01014759D8A00CD0FD0E01011C
:104E0800465D170E01014759D8B004D0020E0001C3
:104E1800C72723D0080E0101455DD8A00BD0FE0E90
:104E28000101445D0F0E01014559D8B003D00001BE
:104E3800C70713D0010144290F0E01014559D8A015
:104E48000CD0FD0E0101445D170E01014559D8B083
:104E580004D0020E0001C75F00D0040E01010C6FE0
:104E6800010E4EEC5BF00CC146F10DC147F1A2C03A
:104E780000F1A3C001F146C102F147C103F1000EE0
:104E88000101046F000E056F010E066F000E076F1B
:104E98008DEC6FF000C137F101C138F137C117F15E
:104EA80038C118F11AC219F11BC21AF1000E01011A
:104EB8001B6F000E1C6F010E1D6F000E1E6F35EC70
:104EC80061F017C142F118C143F142C10DF143C16C
:104ED8000EF1070E0101106F0F69A6EC70F00DC1FD
:104EE8003DF10EC13EF13DC10DF13EC10EF1040E82
:104EF80001010F6F010ED2EC46F001013D51010195
:104F0800425F01013E510101435B42C1A2F043C12E
:104F1800A3F042C106F143C107F1070E0101096F71
:104F2800086997EC6DF006C12CF007C12DF0C4C0DC
:104F380017F10101186BC7C019F101011A6BC90EED
:104F480001011B6F000E1C6F000E1D6F000E1E6FFF
:104F580035EC61F0010117510001C46FC7C02FF192
:104F68000101306B000E0001C76F000E02011B6FBC
:104F7800000E1A6F000E0201116F000E106F2C50F8
:104F88002D10D8A408D0000E2D6E100E2C6E0EC257
:104F9800A2F00FC2A3F0070E356E3468020E0101AD
:104FA800DA6F040E01010C6F010E4EEC5BF000018C
:104FB800A25101010C2501013F6F0001A35101011C
:104FC8000D210101406F88EC79F00101316F3FC17B
:104FD80033F1010140510101326F000E0101016FEF
:104FE800040E006F020E0101026FABEC59F023D0E2
:104FF8000001C4510101D919D8A40BD00101C25133
:10500800D8B407D0010141510101D8A414D001D06E
:1050180012D00101D151D8B40ED074EC79F0000946
:10502800D8B409D0010141510101D8B404D0000E0F
:105038000101D16F00D00201264B272B4ED0060E5E
:10504800FAEC76F00009D8B41CD0000E01010D6FFF
:10505800320E0C6F32EC65F0540E01010C25010183
:10506800396F240E01010D2101013A6F39C126F172
:105078003AC127F1000E0101286F060E84EC6CF08E
:1050880000D0060E09EC75F00009D8B40DD0000E5A
:1050980001010E6F0101FF510EEC77F0000E0201C5
:1050A800DB6F010EDA6F00D00201DB510BE1330E2A
:1050B8000201DA5DD8B006D08DEC77F00201DA4B48
:1050C800DB2B00D0330E0201DA190201DB11D8A460
:1050D80004D00201DA4BDB2B00D00101D9510101C8
:1050E800D8A404D0C80E0101D96F03D00101D90793
:1050F80000D0050E09EC75F00009D8A478EC71F021
:10510800090EFAEC76F00009D8B44CD07CEC79F0B2
:1051180001012D6F01012D513E0DF3CF3BF1F4CF6D
:105128003CF13BC108F13CC109F190EC76F008C1B3
:105138000BF109C10CF10AC10DF1000E01010E6F4E
:105148007A0E01010F6F440E0101106F78EC55F0D3
:105158000BC134F10CC135F10DC136F1000E01015E
:105168000B6F280E01010C6F430E01010D6F34C146
:1051780008F135C109F136C10AF1F8EC4FF008C160
:1051880017F109C118F10AC119F1CFEC54F017C190
:1051980026F118C127F1010E0101286F090E84ECD0
:1051A8006CF000D0090E09EC75F00009D8B417D0DE
:1051B800070E93EC4BF0000E0101C26F000E0101C7
:1051C800DA6F010E0101F76F000E0101016F040E85
:1051D800006F050E0101026FABEC59F000D00F0E05
:1051E80009EC75F00009D8B404D0010E0101F76F7D
:1051F80000D00E0E09EC75F01200000E0101176FB9
:10520800940E0101256F030E0101266F25C1D9FFF8
:1052180026C1DAFF010EDF6E000E0101186F060EBF
:105228000101186F010E0101226F010E01012265B3
:1052380001D096D00001BF51060DBD0EF324010127
:10524800066F0A0EF4200101076FE50E0101086FD1
:10525800010E0101096F040E01010A6F6BEC72F077
:105268000009D8A449D00001BF51060D050EF32648
:10527800000EF422BD0EF324D96E0A0EF420DA6E65
:10528800DE28D8B439D00001BF51060DBD0EF32475
:105298000101006F0A0EF4200101016F000E0101E7
:1052A800026F25C103F126C104F1010E0101056F4A
:1052B800040E0101066FD6EC6AF0010120EE05F03C
:1052C8002551D9262651DA22040E0101086F000162
:1052D800BF51060D050EF326000EF422BD0EF32471
:1052E800E16E0A0EF420E26EE7507CEC48F0DF6EC7
:1052F800010E0101176F03D00101220700D03E0EF5
:105308000001BF6103D00001BF2B27D0000E0001B0
:10531800BF6F010117510101D8A422D0E50E010188
:10532800006F010E0101016F000E0101026F25C11E
:1053380003F126C104F1010E0101056F040E0101FC
:10534800066FD6EC6AF0010120EE05F02551D9264A
:105358002651DA22FF0EDF6E03D00101222B65D71A
:10536800000E01011C6F000E0101246F000E0101E7
:10537800196FBEC016F11AD20001CE51D8B4FCD0B4
:1053880001012451010D000EF324D96E020EF42000
:10539800DA6EDF500101236F1E0E01010C6F010E42
:1053A80001010D6F01012351A9EC67F0010E010104
:1053B80024250101006F0101016B000E0123000E7D
:1053C8000101036F050E026F67EC75F0010E010114
:1053D8000027000E010101230101005101012525CB
:1053E800D96E0101015101012621DA6E1EC1DFFFCC
:1053F800010E010124250101006F0101016B000E5E
:105408000123000E0101036F050E026F67EC75F0B2
:10541800020E01010027000E0101012301010051C4
:1054280001012525D96E0101015101012621DA6EFC
:105438001FC1DFFF010E010124250101006F0101D9
:10544800016B000E0123000E0101036F050E026FB0
:1054580067EC75F0030E01010027000E010101231E
:105468000101005101012525D96E010101510101F8
:105478002621DA6E20C1DFFF010E0101242501017A
:10548800006F0101016B000E0123000E0101036F83
:10549800050E026F67EC75F0040E01010027000E7F
:1054A800010101230101005101012525D96E0101E6
:1054B800015101012621DA6E21C1DFFF01012351CB
:1054C800020D010EF326000EF422C90EF324D96E44
:1054D800080EF420DA6EDF38E832070B0101146F8A
:1054E800050E0101156F0101D89014370101152F20
:1054F800FAD70101145101011A6F01012351020D5C
:10550800010EF326000EF422C90EF324D96E080EFC
:10551800F420DA6EDF501F0B01011A27010E01017A
:1055280024250101006F0101016B000E0123000E0B
:105538000101036F050E026F67EC75F0050E01019E
:105548000027000E01010123010100510101252559
:10555800D96E0101015101012621DA6E1AC1DFFF5E
:10556800050E01011C270101242B0001CE51D8B4DE
:105578001DD10001CE071AD1E50E0101046F010EFD
:105588000101056F0001BE51E4EC5DF00009D8A4EB
:10559800F8D00001BE51020DC90EF324D96E080ED1
:1055A800F420DA6EDF503F0B3F0AD8B4EAD01E0E63
:1055B80001010C6F010E01010D6F0001BE51A9EC34
:1055C80067F0010E010124250101006F0101016B43
:1055D800000E0123000E0101036F050E026F67EC38
:1055E80075F0010E01010027000E010101230101E0
:1055F800005101012525D96E010101510101262122
:10560800DA6E1EC1DFFF010E010124250101006FC2
:105618000101016B000E0123000E0101036F050E4D
:10562800026F67EC75F0020E01010027000E010100
:1056380001230101005101012525D96E0101015104
:1056480001012621DA6E1FC1DFFF010E01012425A9
:105658000101006F0101016B000E0123000E010121
:10566800036F050E026F67EC75F0030E010100274A
:10567800000E010101230101005101012525D96E08
:105688000101015101012621DA6E20C1DFFF010E5F
:10569800010124250101006F0101016B000E0123A6
:1056A800000E0101036F050E026F67EC75F0040E22
:1056B80001010027000E0101012301010051010130
:1056C8002525D96E0101015101012621DA6E21C17A
:1056D800DFFF0001BE51020D010EF326000EF42279
:1056E800C90EF324D96E080EF420DA6EDF38E832DA
:1056F800070B0101146F050E0101156F0101D89008
:1057080014370101152FFAD70101145101011B6F3C
:105718000001BE51020D010EF326000EF422C90E3F
:10572800F324D96E080EF420DA6EDF501F0B010146
:105738001B27010E010124250101006F0101016BE6
:10574800000E0123000E0101036F050E026F67ECC6
:1057580075F0050E01010027000E0101012301016A
:10576800005101012525D96E0101015101012621B0
:10577800DA6E1BC1DFFF050E01011C270101242B76
:1057880000D0F90E0001BE6103D00001BE2B04D089
:10579800000E0001BE6F00D00001BE5101011619B4
:1057A800D8A404D0010E0101196F00D0080E010120
:1057B800246107D0010119510101D8A402D0DCD518
:1057C80000D00101185101011C2501011D6F0101C3
:1057D8001D51010DF35001012525D96EF450010129
:1057E8002621DA6EC9C0DFFF01011D2B01011D5101
:1057F8001200120001012E510101D8B4F2D2C90ED3
:1058080001013061EED22CC1D9FF2DC1DAFFDE28AB
:10581800D8A456D00101DA51D8A452D00101C251FE
:10582800D8B422D0050EFAEC76F00009D8B48DD29F
:10583800060E01010D6F0E0E0C6F32EC65F01C0E9A
:1058480001010C2501013B6F0C0E01010D21010125
:105858003C6F3BC126F13CC127F1000E0101286FC6
:10586800050E84EC6CF071D20E0EFAEC76F000099D
:10587800D8B46BD2050EFAEC76F00009D8B41CD077
:10588800060E01010D6F0E0E0C6F32EC65F01C0E4A
:1058980001010C2501013D6F0C0E01010D210101D3
:1058A8003E6F3DC126F13EC127F1000E0101286F70
:1058B800050E84EC6CF000D0010E0101C26F45D2D8
:1058C800020E01012E6541D2010120EE01F02C519A
:1058D800D9262D51DA22DF500101316F01013151F2
:1058E8000101506F516B010150510101516F506B13
:1058F800010120EE02F02C51D9262D51DA22DF5079
:105908000101316F0101315101015027000E51236E
:1059180050C133F151C134F1040E01010C6F010E75
:105928004EEC5BF00CC14CF10DC14DF1B3C117F158
:10593800B4C118F14CC119F14DC11AF1FF0E0101A2
:105948001B6F070E1C6F000E1D6F000E1E6F35ECCF
:1059580061F017C13FF118C140F1A2C000F1A3C026
:1059680001F14CC102F14DC103F1000E0101046FB8
:10597800000E056F010E066F000E076F8DEC6FF0BD
:1059880000C14EF101C14FF14EC146F14FC147F17F
:105998004EC100F14FC101F1000E0101036F3D0E30
:1059A800026F000E0101046F000E056F010E066FF5
:1059B800000E076F8DEC6FF000C14CF101C14DF185
:1059C80001012F510101D8B415D04CC100F14DC1CE
:1059D80001F1000E0101036F050E026F000E0101B7
:1059E800046F000E056F010E066F000E076F8DEC39
:1059F8006FF014D04CC100F14DC101F1000E01014E
:105A0800036F000E026F000E0101046F000E056F98
:105A1800010E066F000E076F8DEC6FF000C14EF19E
:105A280001C14FF150C117F151C118F13FC119F12E
:105A380040C11AF1000E01011B6F000E1C6F010E10
:105A48001D6F000E1E6F35EC61F017C14CF118C1C7
:105A58004DF14CC150F14DC151F14EC131F14FC121
:105A680032F10101311F321F314B322B01015051EC
:105A78000101312501014A6F010151510101322112
:105A880001014B6F4AC131F14BC132F10101311FA4
:105A9800321F314B322BFF0E010131250101486FB6
:105AA800FF0E010132210101496F2CC1D9FF2DC11F
:105AB800DAFF01013051DE18D8A414D0080E010114
:105AC8004B5DD8A005D0800E01014B5DD8A00AD04F
:105AD800080E0101495DD8A075D0800E0101495D0D
:105AE800D8B070D00101F751D8A404D00101C25137
:105AF800D8A4D4D04EC117F14FC118F150C119F133
:105B080051C11AF1000E01011B6F000E1C6F010E2E
:105B18001D6F000E1E6F35EC61F017C11AF218C127
:105B28001BF24EC10DF14FC10EF1070E0101106FAE
:105B38000F69A6EC70F00DC131F10EC132F150C100
:105B48000DF151C10EF1070E0101106F0F69A6EC9E
:105B580070F001010D1F01010E1F01010D4B0E2BED
:105B680001010D510101312502011C6F01010E5186
:105B78000101322102011D6F30C117F10101186BBB
:105B88002CC1D9FF2DC1DAFFDF500101316F0101AE
:105B980031510101196F1A6BC90E01011B6F000EFB
:105BA8001C6F000E1D6F000E1E6F35EC61F00101B9
:105BB80017510001C76F010E0101DA6F000E0101D4
:105BC800C26F6CD00101505101014E5D010151516C
:105BD80001014F59D8B047D0800E01014B5DD8B0B4
:105BE80042D001014E510008010150250101456FC5
:105BF800010145510001A227000EA3234EC131F136
:105C08004FC132F10101311F321F314B322B0101DB
:105C180050510101312502011E6F0101515101014D
:105C2800322102011F6F02011E510201205D020193
:105C38001F5102012159D8B016D04EC131F14FC1C0
:105C480032F10101311F321F314B322B010150510A
:105C5800010131250201206F010151510101322159
:105C68000201216F00D00101C251D8B404D0010152
:105C7800DA51D8A404D0010E0101C26F00D001018D
:105C880046510201385D0101475102013959D8B026
:105C980005D046C138F247C139F200D07CEC79F022
:105CA8000101316F010131513E0DF3CF41F1F4CFC4
:105CB80042F141C108F142C109F190EC76F008C106
:105CC8000BF109C10CF10AC10DF1000E01010E6FB3
:105CD8007A0E01010F6F440E0101106F78EC55F038
:105CE8000BC135F10CC136F10DC137F1000E0101C0
:105CF8000B6F280E01010C6F430E01010D6F35C1AA
:105D080008F136C109F137C10AF1F8EC4FF008C1C2
:105D180017F109C118F10AC119F1CFEC54F017C1F4
:105D280026F118C127F1010E0101286F090E84EC34
:105D38006CF0000E0201276F000E266F030E0101A2
:105D48002E6503D0010E120000D07CEC79F0010121
:105D5800316F010131513E0DF3CF43F1F4CF44F1DE
:105D680043C108F144C109F190EC76F008C10BF188
:105D780009C10CF10AC10DF1000E01010E6F7A0E76
:105D880001010F6F440E0101106F78EC55F00BC143
:105D980038F10CC139F10DC13AF1000E01010B6F58
:105DA800280E01010C6F430E01010D6F38C108F177
:105DB80039C109F13AC10AF1F8EC4FF008C117F1FD
:105DC80009C118F10AC119F1CFEC54F017C126F135
:105DD80018C127F1010E0101286F090E84EC6CF03F
:105DE80000D0000E12001200000E01015F6F000EBD
:105DF8000001C86F000E0101006F000EC5EC74F0C1
:105E0800000E0101DB6F000E486E200E62EC57F0A9
:105E1800000E0001CC6F000E0101B86F0101F851AE
:105E28008AEC78F0020E4AEC75F0600E62EC57F0DE
:105E3800000E01010E6F000E0EEC77F0190E010135
:105E4800276F640E266F000E0101286F110E84EC77
:105E58006CF0000E0101276F780E266F010E01010C
:105E6800286F120E84EC6CF0010E3F6E04000101E5
:105E7800B951D8B409D0000E0101B96F3E0E8BECB0
:105E880036F00101C62B00D00101BB51D8B409D0AE
:105E9800000E0101BB6F200E62EC57F0600E62EC41
:105EA80057F00101BC51D8B407D0600E62EC57F02E
:105EB800000E0101BC6F00D00101BA51D8A404D072
:105EC8000101B851D8B4ACD1000E0101676F000EC2
:105ED80001016A6F000E696F000E0101C66F0101B2
:105EE800BA51D8B455D0000E0101BA6FBAEC78F0A7
:105EF8000101F06FBAEC78F0000E0101656F1DD05A
:105F080001016551010D4B0EF324D96E030EF420E7
:105F1800DA6EBAEC78F0DF6E01016551010D4B0EB7
:105F2800F324D96E030EF420DA6EDF5001016719ED
:105F38000101676F0101652B00D0FF0E0101546F4D
:105F4800FF0E0101556F0101F0510101566F576BAA
:105F580001015451010156270101555101015723EF
:105F6800010165510101586F596B01015651010139
:105F7800585D01015951800A01015A6F01015751B9
:105F8800800A01015A59D8A0BBD7000E0001CC6F76
:105F98000101B851D8B41DD0000E0101666F3A0E48
:105FA8000101666501D011D001016651010D4B0E4A
:105FB800F324D96E030EF420DA6EDF50010167195D
:105FC8000101676F0101662BEAD7000E0101B86F66
:105FD80000D04CC369F101016A6B010169510101EB
:105FE8006A6F696B03014B5101016927000E6A232F
:105FF8000101D7510101D8B41CD0D00E0101546F52
:10600800CA0EE82EFED7542FFCD7D00E0101546FCC
:10601800CA0EE82EFED7542FFCD7090E01016A5D7F
:10602800D8B0DCD069C114F16AC115F139EC70F04F
:10603800D5D0010E01015F6F010167510101D8A49C
:10604800CDD001D0CBD00101AF510101691905E1D3
:106058000101B05101016A19D8A4C0D00101AF51A2
:106068000101B011D8A42BD0000E0101616F000E00
:10607800626F000E636F000E646F010164511FE1CF
:10608800100E0101625D020E01016359D8B017D0EC
:1060980001D015D061C105F162C106F163C107F1F4
:1060A80064C108F17AEC76F0000E01016127100E48
:1060B8006223000E6323000E6423DFD700D0000E96
:1060C8000101686F370E0101686501D044D0AFC186
:1060D80000F1B0C101F1000E0101036F380E026F2B
:1060E80067EC75F0010100510101682501015B6F42
:1060F8000101015101015C6F000E01015C230101E6
:106108005D6B01015D2301015E6B5BC105F15CC143
:1061180006F15DC107F15EC108F101016851010D89
:10612800020EF326000EF4224B0EF3240101096F30
:10613800030EF42001010A6F040E01010B6F000E1B
:106148000C6F000E0D6F000E0E6F20EC6BF0040E3E
:1061580001016827B7D70101AF4BB02B0101B1513D
:106168000101AF193BE10101B2510101B019D8A4F5
:1061780035D0000E0101056F000E066F020E076F85
:10618800000E086FF10E0101096F010E01010A6F7F
:10619800010E01010B6F000E0C6F000E0D6F000E4B
:1061A8000E6F20EC6BF0010E0101056F000E066FFB
:1061B800020E076F000E086F890E0101096F020EAB
:1061C80001010A6F0B0E01010B6F000E0C6F000E20
:1061D8000D6F000E0E6F20EC6BF000D0030E010166
:1061E800276FE80E266F000E0101286F110E84EC50
:1061F8006CF00101D7510101D8B412D001016951E5
:1062080001016A11D8A40CD0270E0101276F100EC6
:10621800266F000E0101286F110E84EC6CF000D07F
:106228000101D7510101D8A424D0020E0101C6658D
:1062380006D0010E01015F6F000E0101C66F01015A
:106248005F510101D8B415D00101B1510101AF5D11
:106258000101B2510101B059D8B007D0AFC10AF15C
:10626800B0C10BF134EC77F000D0000E01015F6F84
:1062780000D0000E0101016F010E006FF20E010146
:10628800026F010E0101036FCFEC52F00009D8B480
:1062980038D0270E01010C6F040E01010D6FEF0EAF
:1062A80001010E6F010E01010F6F0101F25115EC92
:1062B8003FF00009D8B425D004012851C00B0101D2
:1062C800606F01016045E846030B0101606F030E32
:1062D80001016019D8A415D0290E0101066F040E1A
:1062E8000101076F4B0E0101086F030E0101096FD1
:1062F8003B0E01010A6F38EC73F0010E0101B86F13
:1063080000D0020E09EC75F00009D8B405D09376D8
:1063180093B602D08A9600D0110E09EC75F00009E8
:10632800D8B402D0FF0000D0020EFAEC76F00009D3
:10633800D8B40BD0000E0101276FFA0E266F000E9D
:106348000101286F020E84EC6CF0110EFAEC76F065
:106358000009D8B40BD0030E0101276FE80E266F91
:10636800000E0101286F110E84EC6CF0120E09EC7E
:1063780075F00009D8B47AD5FF0078D51200140E4C
:106388000101266F010E0101276F4CD2250E010174
:106398002D19D8B405D001012D5101EC78F042D265
:1063A800000E01012C6F000E2B6F000E01012A6FE9
:1063B80007D001012A850101124B132B01D00BD004
:1063C80012C1F6FF13C1F7FF0800F550300AD8B420
:1063D800F0D701D0F5D712C1F6FF13C1F7FF0800B7
:1063E800F5501EEC76F0D8A0A5D0000E01012C6F58
:1063F800000E2B6F00D02BC100F12CC101F1000E53
:106408000101036F0A0E026F67EC75F000C12BF1F2
:1064180001C12CF1D00E01011C6FFF0E01011D6F8F
:1064280012C1F6FF13C1F7FF0800F55001011E6FF6
:106438001F6B01011C5101011E2701011D510101A2
:106448001F2301011E5101012B2701011F510101C9
:106458002C230101124B132B12C1F6FF13C1F7FFB6
:106468000800F5501EEC76F0D8A064D0C4D762D0EE
:1064780012007FD000D001012A8F7BD001012B515F
:106488000101235D01012C5101012459D8B009D023
:106498000101235101012B5F0101245101012C5BF2
:1064A8000AD0000E01012C6F000E2B6F04D0200EB5
:1064B80001EC78F000D001012B07D8A02C070101CE
:1064C8002B29F5E101012C29D8B40DD0F0D70BD038
:1064D80021C1D9FF22C1DAFFDF5001EC78F00101B8
:1064E800214B222B00D001012307D8A0240701014A
:1064F8002329EEE101012429D8B494D1E9D792D116
:1065080026C1D9FF27C1DAFFDF5001012D6F020E26
:1065180001012627000E272300D02D0E0101216F2F
:10652800010E0101226F000E0101246F010E236F7D
:10653800A5D71FD012C1F6FF13C1F7FF0101124BF7
:10654800132B0800F5CF2DF101012D51000AD8B405
:106558001200580AD8B48FD73B0AD8B4D1D7070A43
:10656800D8B407D00D0AD8B404D0110AD8B483D748
:10657800D4D701012ABF19D026C1D9FF27C1DAFF14
:10658800DECF28F1DDCF29F1020E01012627000E0A
:106598002723010129AF5DD0030E01012A13010150
:1065A800286D291FD8B0292B54D026C1D9FF27C15F
:1065B800DAFFDECF28F1DDCF29F1020E010126270F
:1065C800000E272346D0010E01012D6F050E010193
:1065D8002D19D8B448D001D046D001012D51020D53
:1065E800690EF324F66EFE0EF420F76E0900F550DE
:1065F8000101285D0900F55001012959D8A033D0BF
:1066080001D031D001012D2BE1D72DD0010E010190
:106618002D6F040E01012D19D8B425D001D023D037
:1066280001012D51020D7B0EF324F66EFE0EF420AF
:10663800F76E0900F5500101285D0900F5500101C8
:106648002959D8A010D001D00ED001012D2BE1D7A7
:106658000AD001012A51800B000AD8B4B4D7800AA5
:10666800D8B4D4D700D001012B5101012C11D8B4D2
:106678000CD02AC11CF1030E01011C17D8B405D097
:1066880001012B07D8A02C0700D0800E01012DBFD7
:106698007F0E01011C6F01012B5101012D5D0101CC
:1066A8002C51800A01011C59D8B00BD001012D5181
:1066B80001012B5F000E01012DBFFF0E01012C5BB4
:1066C80006D0000E01012C6F000E2B6F00D00101C7
:1066D8002AA520D02AC11CF1030E01011C17D8B429
:1066E80004D02D0E01EC78F000D001012B510101EE
:1066F8002C11D8B42FD0300E01EC78F001012B0703
:10670800D8A02C0701012B5101012C11D8B422D09B
:10671800F2D720D001012B5101012C11D8B40FD090
:10672800200E01EC78F001012B07D8A02C070101FD
:106738002B5101012C11D8B402D0F2D700D02AC1B4
:106748001CF1030E01011C17D8B404D02D0E01EC66
:1067580078F000D02DC125F15DD04DD00101255133
:10676800020D690EF324F66EFE0EF420F76E090092
:10677800F5CF08F10A00F5CF09F128C106F129C1C2
:1067880007F197EC6DF006C10DF107C10EF1000E8F
:106798000101106F0A0E0F6FA6EC70F001010D5188
:1067A800300F01012D6F31D028C106F129C107F141
:1067B80001012551020D7B0EF324F66EFE0EF42026
:1067C800F76E0900F5CF08F10A00F5CF09F197EC4B
:1067D8006DF0010106510F0B0101206F01012051DD
:1067E800010D690EF324F66EFF0EF420F76E080013
:1067F800F5CF2DF10AD001012A51800B000AD8B437
:10680800ADD7800AD8B4D0D700D001012D5101EC02
:1068180078F000D00101250701012529D8B402D05C
:10682800EAD700D012C1F6FF13C1F7FF0101124BDE
:10683800132B0800F5CF2DF101012D51D8B412000A
:10684800A5D5120012006E0E0001786F000E00012F
:10685800796F4CD2250E00017F19D8B405D00001FC
:106868007F5155EC78F042D2000E00017E6F000E89
:106878007D6F000E00017C6F07D000017C85000150
:106888006C4B6D2B01D00BD06CC0F6FF6DC0F7FFC1
:106898000800F550300AD8B4F0D701D0F5D76CC04D
:1068A800F6FF6DC0F7FF0800F5504CEC76F0D8A065
:1068B800A5D0000E00017E6F000E7D6F00D07DC058
:1068C80060F07EC061F0000E0001636F0A0E626F17
:1068D80083EC75F060C07DF061C07EF0D00E0001E1
:1068E8006E6FFF0E00016F6F6CC0F6FF6DC0F7FF93
:1068F8000800F5500001706F716B00016E510001C6
:10690800702700016F5100017123000170510001CF
:106918007D270001715100017E2300016C4B6D2B16
:106928006CC0F6FF6DC0F7FF0800F5504CEC76F030
:10693800D8A064D0C4D762D012007FD000D00001A4
:106948007C8F7BD000017D510001755D00017E5177
:1069580000017659D8B009D00001755100017D5F5A
:106968000001765100017E5B0AD0000E00017E6FA7
:10697800000E7D6F04D0200E55EC78F000D0000199
:106988007D07D8A07E0700017D29F5E100017E2959
:10699800D8B40DD0F0D70BD073C0D9FF74C0DAFFCC
:1069A800DF5055EC78F00001734B742B00D00001D8
:1069B8007507D8A0760700017529EEE10001762950
:1069C800D8B494D1E9D792D178C0D9FF79C0DAFF89
:1069D800DF5000017F6F020E00017827000E792337
:1069E80000D07F0E0001736F000E0001746F000E5F
:1069F8000001766F010E756FA5D71FD06CC0F6FF2A
:106A08006DC0F7FF00016C4B6D2B0800F5CF7FF0D0
:106A180000017F51000AD8B41200580AD8B48FD7A1
:106A28003B0AD8B4D1D7070AD8B407D00D0AD8B4CE
:106A380004D0110AD8B483D7D4D700017CBF19D0A9
:106A480078C0D9FF79C0DAFFDECF7AF0DDCF7BF0EE
:106A5800020E00017827000E792300017BAF5DD07C
:106A6800030E00017C1300017A6D7B1FD8B07B2BCD
:106A780054D078C0D9FF79C0DAFFDECF7AF0DDCF05
:106A88007BF0020E00017827000E792346D0010E14
:106A980000017F6F050E00017F19D8B448D001D0DE
:106AA80046D000017F51020D690EF324F66EFE0EEA
:106AB800F420F76E0900F55000017A5D0900F550E1
:106AC80000017B59D8A033D001D031D000017F2BF1
:106AD800E1D72DD0010E00017F6F040E00017F1950
:106AE800D8B425D001D023D000017F51020D7B0EF0
:106AF800F324F66EFE0EF420F76E0900F55000013F
:106B08007A5D0900F55000017B59D8A010D001D05A
:106B18000ED000017F2BE1D70AD000017C51800BF9
:106B2800000AD8B4B4D7800AD8B4D4D700D00001AA
:106B38007D5100017E11D8B40CD07CC06EF0030EDC
:106B480000016E17D8B405D000017D07D8A07E07D4
:106B580000D0800E00017FBF7F0E00016E6F000124
:106B68007D5100017F5D00017E51800A00016E5950
:106B7800D8B00BD000017F5100017D5F000E0001ED
:106B88007FBFFF0E00017E5B06D0000E00017E6F06
:106B9800000E7D6F00D000017CA520D07CC06EF077
:106BA800030E00016E17D8B404D02D0E55EC78F002
:106BB80000D000017D5100017E11D8B42FD0300ED5
:106BC80055EC78F000017D07D8A07E0700017D51C3
:106BD80000017E11D8B422D0F2D720D000017D5117
:106BE80000017E11D8B40FD0200E55EC78F00001CA
:106BF8007D07D8A07E0700017D5100017E11D8B421
:106C080002D0F2D700D07CC06EF0030E00016E17E0
:106C1800D8B404D02D0E55EC78F000D07FC077F0B2
:106C28005DD04DD000017751020D690EF324F66E48
:106C3800FE0EF420F76E0900F5CF62F00A00F5CFDA
:106C480063F07AC060F07BC061F019EC6EF060C050
:106C580067F061C068F0000E00016A6F0A0E696F84
:106C6800DCEC70F000016751300F00017F6F31D00C
:106C78007AC060F07BC061F000017751020D7B0E95
:106C8800F324F66EFE0EF420F76E0900F5CF62F0DD
:106C98000A00F5CF63F019EC6EF0000160510F0B9C
:106CA8000001726F00017251010D690EF324F66E36
:106CB800FF0EF420F76E0800F5CF7FF00AD0000130
:106CC8007C51800B000AD8B4ADD7800AD8B4D0D78D
:106CD80000D000017F5155EC78F000D00001770713
:106CE80000017729D8B402D0EAD700D06CC0F6FFEB
:106CF8006DC0F7FF00016C4B6D2B0800F5CF7FF0DE
:106D080000017F51D8B41200A5D51200120001016C
:106D1800046F01010451020124250201246F000EB1
:106D2800020125210201256F000E0101056F180ED1
:106D38000101056501D072D001010551010D320E26
:106D4800F324D96E030EF420DA6EDF50D8A463D092
:106D580001010551020D000EF324D96E030EF42033
:106D6800DA6E010104510101026F036B010E01018A
:106D78000227000E0323DE500101025DDE500101EF
:106D88000359D8B02DD001010551020D000EF3248E
:106D9800D96E030EF420DA6EDECF00F1DDCF01F1FB
:106DA800010104510101026F036B0101021F031F5E
:106DB800024B032B0101005101010227010101517E
:106DC8000101032301010551020D000EF324D96EC0
:106DD800030EF420DA6E02C1DEFF03C1DDFF1BD013
:106DE80001010551020D000EF324D96E030EF420A3
:106DF800DA6EDE50DE10D8B40ED001010551020D56
:106E0800000EF324D96E030EF420DA6E010EDE6E46
:106E1800000EDD6E00D00101052B89D7E80E0201B6
:106E2800245D030E02012559D8A01200180E020194
:106E380024250201246FFC0E020125210201256F81
:106E48004B2A000E0101066F180E0101066501D0DC
:106E580063D001010651010D320EF324D96E030EE1
:106E6800F420DA6EDE04D8A454D001010651020DD4
:106E7800000EF324D96E030EF420DA6E010EDB50F7
:106E880004E1020EDE5CD8A029D0FF0E0101006FDC
:106E9800FF0E0101016F01010651020D000EF324DE
:106EA800D96E030EF420DA6EDECF02F1DDCF03F1E6
:106EB80001010051010102270101015101010323D0
:106EC80001010651020D000EF324D96E030EF420C1
:106ED800DA6E02C1DEFF03C1DDFF1BD001010651DE
:106EE800020D000EF324D96E030EF420DA6EDE5084
:106EF800DE10D8B40ED001010651020D000EF324A5
:106F0800D96E030EF420DA6E010EDE6E000EDD6E11
:106F180000D00101062B98D73B0E4B6412004B5052
:106F2800C40F4B6E472A000E0101076F180E0101AE
:106F3800076501D064D001010751010D320EF32419
:106F4800D96E030EF420DA6E020EDE18D8A454D0DF
:106F580001010751020D000EF324D96E030EF4202F
:106F6800DA6E010EDB5004E1020EDE5CD8A029D0F7
:106F7800FF0E0101006FFF0E0101016F01010751B2
:106F8800020D000EF324D96E030EF420DA6EDECF64
:106F980002F1DDCF03F101010051010102270101D6
:106FA80001510101032301010751020D000EF324D1
:106FB800D96E030EF420DA6E02C1DEFF03C1DDFFD5
:106FC8001BD001010751020D000EF324D96E030EE8
:106FD800F420DA6EDE50DE10D8B40ED0010107516D
:106FE800020D000EF324D96E030EF420DA6E010EA2
:106FF800DE6E000EDD6E00D00101072B97D73B0E29
:10700800476412004750C40F476E000E0101086F15
:10701800180E0101086502D0120012000101085182
:10702800010D320EF324D96E030EF420DA6E030E2E
:10703800DE18D8A454D001010851020D000EF32423
:10704800D96E030EF420DA6E010EDB5004E1020E55
:10705800DE5CD8A029D0FF0E0101006FFF0E0101F0
:10706800016F01010851020D000EF324D96E030EC1
:10707800F420DA6EDECF02F1DDCF03F10101005119
:1070880001010227010101510101032301010851F6
:10709800020D000EF324D96E030EF420DA6E02C13D
:1070A800DEFF03C1DDFF1BD001010851020D000EF8
:1070B800F324D96E030EF420DA6EDE50DE10D8B455
:1070C8000ED001010851020D000EF324D96E030EF3
:1070D800F420DA6E010EDE6E000EDD6E00D00101C6
:1070E800082B180E0101086599D71200120012002A
:1070F800010120EE01F02F51D9263051DA222FC19B
:10710800E1FF30C1E2FFDE50E618D8A41200010109
:1071180020EE02F02F51D9263051DA22010110EE6B
:1071280001F02F51E1263051E222DE50E618D8A4B2
:107138001200010120EE02F02F51D9263051DA2237
:10714800DE28D8B412002FC1D9FF30C1DAFFDF50D2
:107158000101336F010133A14CD0010120EE04F08D
:107168002F51D9263051DA22010110EE03F02F51A8
:10717800E1263051E222DE50E618D8A43AD00101C7
:1071880020EE05F02F51D9263051DA22010110EEF8
:1071980004F02F51E1263051E222DE50E618D8A43F
:1071A80028D0010120EE05F02F51D9263051DA22DE
:1071B800DE28D8B41ED08CEC79F0030E0101016FE3
:1071C800FD0E006F010120EE03F02F51D92630513A
:1071D800DA22DF500101026FF3EC73F0010120EEB7
:1071E80003F02F51D9263051DA22DF509EEC77F088
:1071F80000D0010133A342D0010120EE07F02F5146
:10720800D9263051DA22010110EE06F02F51E1267D
:107218003051E222DE50E618D8A430D0010120EE29
:1072280008F02F51D9263051DA22010110EE07F06B
:107238002F51E1263051E222DE50E618D8A41ED0A4
:107248008CEC79F0030E0101016FFE0E006F010155
:1072580020EE06F02F51D9263051DA22DF500101F5
:10726800026FF3EC73F0010120EE06F02F51D926DE
:107278003051DA22DF5012EC73F000D0010133A54F
:107288004CD0010120EE0AF02F51D9263051DA22D4
:10729800010110EE09F02F51E1263051E222DE50B3
:1072A800E618D8A43AD0010120EE0BF02F51D926C8
:1072B8003051DA22010110EE0AF02F51E126305147
:1072C800E222DE50E618D8A428D0010120EE0BF007
:1072D8002F51D9263051DA22DE28D8B41ED08CECB2
:1072E80079F0030E0101016FFC0E006F010120EE21
:1072F80009F02F51D9263051DA22DF500101026FEF
:10730800F3EC73F0010120EE09F02F51D92630512A
:10731800DA22DF508AEC78F000D0010133A712009E
:10732800010120EE0DF02F51D9263051DA2201014A
:1073380010EE0CF02F51E1263051E222DE50E61813
:10734800D8A41200010120EE0EF02F51D926305199
:10735800DA22010110EE0DF02F51E1263051E22220
:10736800DE50E618D8A41200010120EE0EF02F51CD
:10737800D9263051DA22DE28D8B412008CEC79F004
:10738800030E0101016FEF0E006F010120EE0CF0FA
:107398002F51D9263051DA22DF500101026FF3EC68
:1073A80073F0010120EE0CF02F51D9263051DA226A
:1073B800DF5052EC79F012001200400E0101286FE4
:1073C800000E0101296F3E0E0101296501D0D7D0B9
:1073D80001012951060DBD0EF3240101066F0A0EA5
:1073E800F4200101076F21C108F122C109F1040E3F
:1073F80001010A6F6BEC72F00009D8B4A0D001014A
:107408002951060D040EF326000EF422BD0EF324B6
:10741800D96E0A0EF420DA6EDF500F0B0F0AD8A4CB
:1074280040D0010124510101D8B43BD0492A0101BF
:107438002951060D040EF326000EF422BD0EF32486
:10744800D96E0A0EF420DA6EDF90DF92DF94DF96B1
:1074580023C100F101012951E3EC62F0020E0101A0
:107468002419D8B41AD0030E0101086F0101235161
:107478007CEC48F00101266F21C115F122C116F1FB
:1074880029C117F1010E0101186F26C119F1000E6B
:1074980001011A6F47EC1EF000D0010129511200BA
:1074A8006BD001012951060D040EF326000EF422BB
:1074B800BD0EF324D96E0A0EF420DA6EDF500F0BDE
:1074C8000F0AD8B439D001012951060D040EF3264C
:1074D800000EF422BD0EF324D96E0A0EF420DA6EE3
:1074E800DF90DF92DF94DF9623C100F1010129517B
:1074F800E3EC62F0020E01012419D8B4CED7030ED2
:107508000101086F010123517CEC48F00101266F4D
:1075180021C115F122C116F129C117F1010E01018E
:10752800186F26C119F1000E01011A6F47EC1EF001
:10753800B4D7B3D7120020D0FF0E12001DD001011E
:107548002951060DBD0EF3240101066F0A0EF42021
:107558000101076FE50E0101086F010E0101096FB6
:10756800040E01010A6F6BEC72F00009D8B404D064
:1075780029C128F104D000D00101292B24D73E0EBF
:107588000101286521D0000E0101276F3E0E01017F
:10759800276501D019D001012751060D040EF326E5
:1075A800000EF422BD0EF324D96E0A0EF420DA6E12
:1075B800DF500F0B0F0AD8A403D027C128F104D03D
:1075C8000101272BE3D700D03F0E0101286154D0D9
:1075D800010124510101D8B44FD021C106F122C1C3
:1075E80007F101012851060DBD0EF3240101086FB2
:1075F8000A0EF4200101096F040E01010A6F38EC2C
:1076080073F001012851060D040EF326000EF42232
:10761800BD0EF324D96E0A0EF420DA6EDF90DF92E5
:10762800DF94DF9623C100F101012851E3EC62F0F9
:10763800492A020E01012419D8B41AD0030E0101F7
:10764800086F010123517CEC48F00101266F21C12C
:1076580015F122C116F128C117F1010E0101186FA9
:1076680026C119F1000E01011A6F47EC1EF000D077
:1076780001012851120000D0FF0E12001200030E63
:107688000101016F006939EC78F00101156F010102
:107698001505D8A440D0000E01011A6F000E196F0D
:1076A80001011ABF0AD0F00E0101195D030E010194
:1076B8001A59D8B011D001D00FD08CEC79F019C17B
:1076C80000F11AC101F1FF0E0101026FF3EC73F032
:1076D8000101194B1A2BE4D7030E01011A6FF40E9E
:1076E800196F01011ABF07D0040E01011A5DD8B045
:1076F80012D001D010D08CEC79F019C100F11AC168
:1077080001F1FF0E0101026FF3EC73F00101194B57
:107718001A2BE7D700D0010E0101156504D001012D
:107728001529D8A40CD08CEC79F0030E0101016F57
:107738000069020E0101026FF3EC73F000D0000E35
:107748000101166F030E0101166501D018D0010161
:107758001651010DD70EF324D96E000EF420DA6EFF
:10776800E80E010116250101006F0101016B030EEE
:10777800012339EC78F0DF6E0101162BE3D7000105
:10778800D729D8A419D00001D829D8A415D0000128
:10779800D929D8A411D00001DA29D8A40DD0000E17
:1077A8000001D76F000E0001D86F000E0001D96FDD
:1077B800020E0001DA6F00D0030E0101016FEF0E17
:1077C800006F39EC78F00101146F01011429D8A475
:1077D80004D0080E0101146F00D00101145152ECBD
:1077E80079F00201E529D8A451D00201E629D8A4EC
:1077F8004DD00201E729D8A449D00201E829D8A42C
:1078080045D0899E4B0E58EC77F0000E58EC77F077
:10781800000E58EC77F0000E58EC77F0000E58EC9C
:1078280077F0000E0101176F2BD02ED070EC78F096
:10783800010100510101136F030E010117651ED0EC
:10784800FC0E0101076FFF0E0101086F01011751BE
:107858000101096F0A6B01010751010109270101A3
:10786800085101010A23E50E01010925D96E020E0E
:1078780001010A21DA6E13C1DFFF00D00101172BC5
:10788800070E01011765D2D7898E00D0000E0101BD
:10789800186F070E0101186501D018D001011851A1
:1078A800010D0B0EF324D96E010EF420DA6EF40EDE
:1078B800010118250101006F0101016B030E01236D
:1078C80039EC78F0DF6E0101182BE3D70B0E0101BC
:1078D800006F010E0101016F89EC6AF0030E0101CE
:1078E800016FFD0E006F39EC78F0FF0AD8B40BD0A9
:1078F80001D009D0030E0101016FFD0E006F39ECB4
:1079080078F09EEC77F0030E0101016FFE0E006F18
:1079180039EC78F0FF0AD8A403D00001C969120035
:10792800030E0101016FFE0E006F39EC78F00001C3
:10793800C96F1200120000D101018705D8A408D12F
:10794800570E0101126FFF0E0101136FC3EC31F0E6
:10795800020E010181250101186F000E010182212B
:107968000101196F000E01011A6F44EC42F0040E78
:10797800FAEC76F00009D8A411D0040E09EC75F0E1
:107988000009D8A40BD0000E0101276F010E266F45
:10799800000E0101286F040E84EC6CF0000EFAEC66
:1079A80076F00009D8B40CD0130E0101276F880EA9
:1079B800266F000E0101286F000E84EC6CF000D0D9
:1079C800010E0001B36FC4D0420E01018719D8A47B
:1079D80014D0010120EE02F08151D9268251DA2219
:1079E800DF5010EC6DF084C118F185C119F1000E5B
:1079F80001011A6F44EC42F000D0430E01018719CF
:107A0800D8A4A6D0010120EE02F08151D9268251D6
:107A1800DA22DF500101E16F010120EE03F081510C
:107A2800D9268251DA22DF500101E06F010120EEF0
:107A380004F08151D9268251DA22DF500101896F81
:107A48000101E25101018919F00B89190101E26F65
:107A5800010120EE05F08151D9268251DA22DF504A
:107A68000101896F0101893B0101E2510101891975
:107A78000F0B89190101E26F010120EE06F0815117
:107A8800D9268251DA22DF500101E36F010120EE8D
:107A980007F08151D9268251DA22DF500101E46FC3
:107AA8008CEC79F0030E0101016FEE0E006FE0C15E
:107AB80002F1F3EC73F08CEC79F0030E0101016F25
:107AC800F10E006FE1C102F1F3EC73F08CEC79F088
:107AD800030E0101016FF20E006FE2C102F1F3EC37
:107AE80073F08CEC79F0030E0101016FED0E006F5D
:107AF800E3C102F1F3EC73F08CEC79F0030E0101B1
:107B0800016FF30E006FE4C102F1F3EC73F084C16E
:107B180018F185C119F1000E01011A6F44EC42F009
:107B280017D0890E0101126FFF0E0101136FC3EC0C
:107B380031F0010E12000CD001018651010AD8B4AF
:107B4800F0D71F0AD8B4F8D6010AD8B43DD700D068
:107B580084C1D9FF85C1DAFFDF50D8A42AD001013A
:107B680020EE01F08451D9268551DA22DF50D8A4BD
:107B780020D0010120EE02F08451D9268551DA2265
:107B8800DF50D8A416D0010120EE03F08451D92685
:107B98008551DA22100EDF600CD0010E0101276F2B
:107BA8002C0E266F010E0101286F130E84EC6CF069
:107BB80000D0000E12001200000E0101126F000E1C
:107BC800116F010112BF0AD00101125106E13F0EE7
:107BD8000101115DD8B082D001D080D0E50E01013D
:107BE800066F010E0101076F11C100F112C101F109
:107BF800000E0101036F060E026F67EC75F0BD0EF3
:107C0800010100250101086F0A0E0101012101018E
:107C1800096F040E01010A6F38EC73F011C100F10D
:107C280012C101F1000E0101036F060E026F67EC2D
:107C380075F0040E01010027000E01010123BD0E9D
:107C480001010025D96E0A0E01010121DA6EDF80DB
:107C5800DF82DF84DF8611C100F112C101F1000E5D
:107C68000101036F060E026F67EC75F0040E010147
:107C78000027000E01010123BD0E01010025D96E68
:107C88000A0E01010121DA6EDF88DF8ADF8CDF8EC0
:107C980011C100F112C101F1000E0101036F060EBE
:107CA800026F67EC75F0050E01010027000E010157
:107CB8000123BD0E01010025D96E0A0E0101012123
:107CC800DA6EFF0EDF6E0101114B122B010112BF9C
:107CD80085D70101125102E17AD700D0000E0201C6
:107CE800536F000E0101126F000E116F010112BFD8
:107CF8000AD00101125166E1FA0E0101115DD8B0F6
:107D080061D001D05FD011C10FF112C110F1D8902C
:107D180001010F371037010E01010F27000E102344
:107D2800C90E01010F25D96E080E01011021DA6E66
:107D3800DF80DF82DF84DF86DF88E50E0101076FE1
:107D4800010E0101086F01011151F7EC6BF011C12F
:107D58000FF112C110F1D89001010F371037010E41
:107D680001010F27000E1023C90E01010F25D96E3E
:107D7800080E01011021DA6EDF8ADF8CDF8ED890C1
:107D880001011135D96E01011235DA6EC90ED926F5
:107D9800080EDA22DF80DF82DF84DF86DF88DF8A71
:107DA800D89001011135D96E01011235DA6EC90E6C
:107DB800D926080EDA223F0EDF160101114B122BCD
:107DC80095D700D0E50E0101066F010E0101076F7E
:107DD800E90E0101086F020E0101096F040E01018D
:107DE8000A6F38EC73F00201DF69000E02015C6F64
:107DF800030E02015D6F000E0201846F000E020186
:107E0800866F020E0201876F000E0201886F010E55
:107E18000101F66F000E0101DF6F000E0101CF6F47
:107E280012000101166F0201DD510201D8B42CD0F5
:107E3800240E01011619D8A423D002014F2B020EDB
:107E480002014F19D8A41AD1000E0201DD6F010EEC
:107E58000201476F000E0201456F000E0201486FD4
:107E6800000E0201496F010E0201466F000E00016B
:107E7800C16F000E02014F6F000E02014E6FFED05F
:107E8800000E02014F6FFAD0020146510201D8B428
:107E9800DFD0020147510201D8B407D016C1CBF098
:107EA800000E0201476F010E06D002014551020182
:107EB800D8B404D0000E0201456F5DD00001C15155
:107EC8000101106F116BFE0E0101126FFF0E01010F
:107ED800136F0001CB510101146F156B0101125191
:107EE800010114270101135101011523010110514A
:107EF800010114190FE10101115101011519D8A44B
:107F080009D00D0E01011619D8A435D0010E0201B1
:107F1800486F31D00001C1510101106F116BFF0E84
:107F28000101126FFF0E0101136F0001CB51010116
:107F3800146F156B0101125101011427010113512E
:107F48000101152301011051010114190FE101016B
:107F5800115101011519D8A409D00A0E01011619E9
:107F6800D8A409D0010E0201496F05D001011651AC
:107F780002014E1B00D00001C151010D800EF324F7
:107F8800D96E050EF420DA6E16C1DFFF0001C12B91
:107F98000001C1510001CB19D8A43DD0000E020147
:107FA800466F0EC1D9FF0FC1DAFFC1C0DFFF800ED7
:107FB8000101066F050E0101076F0CC108F10DC123
:107FC80009F1C1C00AF138EC73F0010E0201DD6F4E
:107FD800000E02014F6F02014E510201D8B405D0C4
:107FE800000E02014E6F000E1200020148510201FC
:107FF800D8B40BD0020149510201D8B406D0000E02
:1080080002014E6F010E120039D0000E02014E6FB0
:108018001CD0120033D03E0E0001C1652FD0010ED6
:108028000201DD6F000E02014F6F000E0001C16FEB
:10803800000E0201476F000E0201456F000E02019B
:10804800486F000E0201496FE0D7000E120016D0EB
:10805800010E0201DD6F000E02014F6F000E0201DA
:108068004E6F000E0201476F000E0201486F000EAE
:108078000201496F000E0201456F00D0000E120088
:1080880012000001D3510001D519D8B4D8D000018D
:10809800AE510001AF11D8A4D2D00001D5510001D2
:1080A800D35DD8B064D0040E0001D56160D0000162
:1080B800D351D8A418D0010E0001CD6FC6C0AEF0C0
:1080C8000001AF6BAEC000F1AFC001F1000E0101BD
:1080D800036F1E0E026F67EC75F000C1AEF001C1B0
:1080E800AFF0010E38D00001D305D8A418D0050E82
:1080F8000001CD6FC6C0AEF00001AF6BAEC000F19D
:10810800AFC001F1000E0101036F1E0E026F67EC94
:1081180075F000C1AEF001C1AFF0020E1CD0020E26
:108128000001D319D8A41AD0070E0001CD6FC6C01C
:10813800AEF00001AF6BAEC000F1AFC001F1000EB0
:108148000101036F1E0E026F67EC75F000C1AEF0FF
:1081580001C1AFF0030E0001D36F00D0CDC007F10D
:10816800010E5EEC73F0010EAAEC71F065D000010F
:10817800D3510001D55DD8B062D0020E0001D3659D
:1081880018D0050E0001CD6FC6C0AEF00001AF6B70
:10819800AEC000F1AFC001F1000E0101036F1E0E69
:1081A800026F67EC75F000C1AEF001C1AFF0020ECE
:1081B80038D0020E0001D319D8A418D0010E00013E
:1081C800CD6FC6C0AEF00001AF6BAEC000F1AFC05E
:1081D80001F1000E0101036F1E0E026F67EC75F0CE
:1081E80000C1AEF001C1AFF0010E1BD00001D305F4
:1081F800D8A41AD0000E0001CD6FC6C0AEF00001A1
:10820800AF6BAEC000F1AFC001F1000E0101036F0A
:108218001E0E026F67EC75F000C1AEF001C1AFF041
:10822800000E0001D36F00D0CDC007F1010E5EEC47
:1082380073F0010EAAEC71F00001CD6F00D00001BF
:10824800AE510001AF11D8B412000101C32B0F0EBB
:108258000101C36512000001AE07D8A0AF07000EE8
:108268000101C36F0001AE510001AF11D8A4120083
:10827800D70E0101186F000E0101196F000E0101E0
:108288001A6F44EC42F012001200000E0101126F46
:10829800000E116F010112BF0AD00101125106E14F
:1082A800FA0E0101115DD8B0E8D001D0E6D00BC1BB
:1082B80004F10CC105F101011151E4EC5DF0000974
:1082C800D8B4D0D011C10FF112C110F1D89001016A
:1082D8000F371037010E01010F27000E1023C90EAA
:1082E80001010F25D96E080E01011021DA6EDF5049
:1082F8001F0B1F0AD8B4A6D0D89001011135D96E2A
:1083080001011235DA6EC90ED926080EDA22DF50BD
:108318003F0B01010F6F01010F51060DBD0EF32434
:10832800D96E0A0EF420DA6E0DC1E1FF0EC1E2FF2C
:10833800DFCFE7FFD89001011135D96E0101123561
:10834800DA6EC90ED926080EDA22DF503F0B01017A
:108358000F6F01010F51060D010EF326000EF422D6
:10836800BD0EF324D96E0A0EF420DA6E010110EE68
:1083780001F00D51E1260E51E222DFCFE7FFD89040
:1083880001011135D96E01011235DA6EC90ED926EF
:10839800080EDA22DF503F0B01010F6F01010F5168
:1083A800060D020EF326000EF422BD0EF324D96E3C
:1083B8000A0EF420DA6E010110EE02F00D51E126EA
:1083C8000E51E222DFCFE7FFD89001011135D96EB7
:1083D80001011235DA6EC90ED926080EDA22DF50ED
:1083E8003F0B01010F6F01010F51060D030EF3261C
:1083F800000EF422BD0EF324D96E0A0EF420DA6EB4
:10840800010110EE03F00D51E1260E51E222DFCFFB
:10841800E7FF11C10FF112C110F1D89001010F3718
:108428001037010E01010F27000E1023C90E01019C
:108438000F25D96E080E01011021DA6EDF501F0BCF
:10844800120010D0D89001011135D96E01011235F2
:10845800DA6EC90ED926080EDA223F0EDF161F0E75
:10846800120000D00101114B122B010112BF1FD7BE
:108478000101125102E114D700D01F0E12001200A0
:10848800000E0101806FAAC07CF1ABC07DF1010E26
:108498000101566F18C10BF119C10CF1580E0101F9
:1084A8000D6F010E01010E6F49EC41F00101576F8C
:1084B800C9C05CF136C25DF137C25EF1580E0101E8
:1084C800066F010E0101076F7E0E0101086F010E94
:1084D8000101096F7F0E01010A6F010E01010B6F87
:1084E80038EC43F07EC15FF17FC160F118C10BF138
:1084F80019C10CF1F9EC66F00101616F84EC79F0B7
:108508000101626F88EC79F00101636F32C264F196
:1085180033C265F1ACC066F1ADC067F134C268F131
:1085280035C269F1010E0101C56F80EC79F00101D6
:108538006A6FE4C16BF13AC26CF13BC26DF138C2AB
:108548006EF1CCC16FF181BA02D0010E01D0000EDC
:108558000101706FCDC071F1ACC072F1ADC073F1A3
:10856800D3C074F1D5C075F1E3C176F12CC277F1AF
:108578002DC278F1E0C179F1E1C17AF10101E2514E
:108588000F0B01011B6F01011B5101017C6F7D6BFA
:1085980001017C3B7D3BF00E7D177C510F0B7D1359
:1085A800F00E7C170101E2390F0B01011B6F01016D
:1085B8001B5101017C27000E7D237CC17BF1260E17
:1085C8000101806F01011A510101D8B434D0560E4F
:1085D8000101006F010E0101016F000E0101026F20
:1085E8001C0E0101036F010E0101046F140E01013D
:1085F800056F80C106F1D6EC6AF01C0E01010E6F02
:10860800010E01010F6F18C110F119C111F1C6EC6B
:1086180060F01C0E0101046F010E0101056F0101DC
:108628008051140F0101066F000E0101076F020E41
:108638005DEC5FF0120018C10EF119C10FF1560E72
:108648000101106F010E0101116F80C112F1000EBE
:108658000101136F010E0101146F000E0101156F66
:10866800F9EC45F012001200000E01010F6F000E28
:108678000E6F01010FBF0AD001010F5106E13F0E35
:1086880001010E5DD8B0D4D001D0D2D006C1D9FF37
:1086980007C1DAFF0EC100F10FC101F1000E01019F
:1086A800036F060E026F67EC75F0BD0E0101002521
:1086B800E16E0A0E01010121E26EDE50E618D8A42F
:1086C800ACD0010120EE01F00651D9260751DA227B
:1086D8000EC100F10FC101F1000E0101036F060E7A
:1086E800026F67EC75F0010E01010027000E010111
:1086F8000123BD0E01010025E16E0A0E01010121D1
:10870800E26EDE50E618D8A488D0010120EE02F00F
:108718000651D9260751DA220EC100F10FC101F125
:10872800000E0101036F060E026F67EC75F0020E72
:1087380001010027000E01010123BD0E01010025E2
:10874800E16E0A0E01010121E26EDE50E618D8A49E
:1087580064D0010120EE03F00651D9260751DA2230
:108768000EC100F10FC101F1000E0101036F060EE9
:10877800026F67EC75F0030E01010027000E01017E
:108788000123BD0E01010025E16E0A0E0101012140
:10879800E26EDE50E618D8A440D00EC100F10FC139
:1087A80001F1000E0101036F060E026F67EC75F010
:1087B800050E01010027000E01010123BD0E010174
:1087C8000025D96E0A0E01010121DA6E08C1E1FF08
:1087D80009C1E2FFDFCFE7FF0EC100F10FC101F1D0
:1087E800000E0101036F060E026F67EC75F0040EB0
:1087F80001010027000E01010123BD0E0101002522
:10880800D96E0A0E01010121DA6EDF380F0B0AC199
:10881800D9FF0BC1DAFFDF6E120001010E4B0F2BDF
:1088280001010FBF33D701010F5102E128D700D052
:1088380008C1D9FF09C1DAFFFF0EDF6E0AC1D9FFEF
:108848000BC1DAFF0F0EDF6E120012003A50D8B4D7
:10885800D9D002014C51D8B410D0000E02014C6F8F
:10886800000E0001CF6F000E0001D06F000E3A6EAF
:10887800000E0001CC6F000E120002014A51D8A46C
:108888000DD0000E0001CF6F000E0001D06F000E5A
:108898003A6E000E0001CC6F000E12000001D0519C
:1088A800FD0F10C1D9FF11C1DAFFDF6E000E010103
:1088B800186F400E0001D0650DD0000E0001CF6F7B
:1088C800000E0001D06F000E3A6E000E0001CC6F52
:1088D800000E1200020E0101196F11D00101195189
:1088E800010DA70EF324D96E040EF420DA6EDF50C2
:1088F800010118190101186F0101192B00D000019D
:10890800D0510101195DD8A0E9D701011851010121
:10891800D8B40DD0000E0001CF6F000E0001D06F4B
:10892800000E3A6E000E0001CC6F000E120010C14E
:10893800D9FF11C1DAFF3D0EDF640DD0000E000132
:10894800CF6F000E0001D06F000E3A6E000E0001CE
:10895800CC6F000E120010C1D9FF11C1DAFFDF5031
:108968000101126F136BFD0E0101146FFF0E01015F
:10897800156F0001D0510101166F176B01011451D9
:108988000101162701011551010117230101125197
:108998000101161906E10101135101011719D8B493
:1089A8000DD0000E0001CF6F000E0001D06F000E39
:1089B8003A6E000E0001CC6F000E1200A70E0101E6
:1089C800006F040E0101016F020E0101026F0EC15A
:1089D80003F10FC104F1000E0101056F10C1D9FFA9
:1089E80011C1DAFFDF500101066FD6EC6AF0000E04
:1089F8000001CF6F000E0001D06F000E3A6E010E1D
:108A080012000FD03A50D8B40CD0000E0001CF6F2E
:108A1800000E0001D06F000E3A6E000E0001CC6F00
:108A280000D0000E120012007C0ED36E9B8CD290E8
:108A38009B8E200E926EBB0E936E130E946E860E56
:108A4800806E010E816EC40E826E100E0F015D6F76
:108A5800050E0F015C6FF19E0F015B810F015B93A7
:108A68000F015B850F015B970F015B990F015B9B02
:108A78000F015B9D0F015B9FD180030E0101016F08
:108A8800EC0E006F39EC78F00001D56F030E010190
:108A9800016FEE0E006F39EC78F00101E06F030E04
:108AA8000101016FF10E006F39EC78F00101E16FFF
:108AB800030E0101016FF20E006F39EC78F001012D
:108AC800E26F030E0101016FED0E006F39EC78F0D3
:108AD8003F0B0101E36F030E0101016FF30E006FFD
:108AE80039EC78F03F0B0101E46F3F0E0101E31907
:108AF800D8A404D0060E0101E36F00D03F0E010197
:108B0800E419D8A404D0060E0101E46F00D0E3C133
:108B1800C6F00001C651D8A404D0060E0001C66FE5
:108B280000D00001D529D8B424D00001D505D8A497
:108B380004D014D00001CD6F22D0020E0001D51947
:108B4800D8B40CD0030E0001D519D8B407D0050E3F
:108B58000001D519D8A404D0020E08D0010EEAD716
:108B6800070E0001D519D8A404D0030E0001D56F53
:108B7800F5D7000E0001D56F000EDCD700D0000E2F
:108B88000101076F030E5EEC73F0CDC007F1010E13
:108B98005EEC73F0010EAAEC71F00001CD6F010ECE
:108BA8000101F66F000E0201216F000E206F000E0A
:108BB80002011F6F000E1E6F000E0201396F000EBA
:108BC800386F000E02013B6F000E3A6F000E020173
:108BD800436F0201946902019569020196690201D5
:108BE8009769000E02014B6F120002015351D8A47D
:108BF800D2D002018551D8A4CED0540E0101066FFF
:108C0800020E0101076FE90E0101086F020E010152
:108C1800096F040E01010A6F38EC73F05CC2DFF2D1
:108C2800060E0201536F0EC106F10FC107F1580E6F
:108C38000101086F020E0101096F040E01010A6F9C
:108C480038EC73F0E90E0101066F010E0101076FA0
:108C5800540E0101086F020E0101096F040E010193
:108C68000A6F38EC73F0CFEC78F002015C6F000EFD
:108C78000201886F010115510101D8B402D0040E18
:108C880001D0030E02015D6F00D0270E01011261B1
:108C980056D00101C451D8B431D001011451010199
:108CA800D8B42CD0010E010110250101006F000E6F
:108CB800010111210101016FFF0E010112250101BE
:108CC800026F0101036BFF0E03235AEC5CF00101F4
:108CD800166F050E0101176F0101D89016370101B3
:108CE800172FFAD70101165102015E6F10C1D9FF83
:108CF80011C1DAFFDF5002015E2708D010C1D9FF89
:108D080011C1DAFFDF5002015E6F00D010C100F11F
:108D180011C101F1010E0101026F5E0E0101036F25
:108D2800020E0101046F010E0101056F0101120518
:108D38000101066FD6EC6AF012C184F200D013C1AB
:108D480085F2010113510101D8B403D0000E0201CC
:108D5800536F0001BD51D8A404D0000E0101D66F95
:108D680018D0580E0101066F020E0101076FE10EBF
:108D78000101086F020E0101096F040E01010A6F5B
:108D88006BEC72F00009D8B404D0020E0201536FE4
:108D980000D0010E1200000E120012000101146F23
:108DA800000E0101166F000E176F000E186F000EEF
:108DB800196F040E01010F19D8A40BD00DC116F1BB
:108DC8000EC117F10101000E17BFFF0E186F196FC2
:108DD80054D001010F510101D8A42FD00DC110F1B9
:108DE8000EC111F1000E010111BFFF0E126F136FBA
:108DF8000F0ED89001011037113712371337E82EAC
:108E0800F8D710C100F111C101F112C102F113C16B
:108E180003F1E80E0101046F030E056F000E066FE3
:108E2800000E076FADEC63F000C116F101C117F138
:108E380002C118F103C119F120D001010F05D8A40E
:108E48001CD00DC110F10EC111F1000E010111BFAE
:108E5800FF0E126F136F0F0ED890010110371137E4
:108E680012371337E82EF8D710C116F111C117F1D0
:108E780012C118F113C119F100D016C110F117C1B0
:108E880011F118C112F119C113F10101101F111FBD
:108E9800121F131F102B000E112312231323FF0E72
:108EA800010110250101166FFF0E010111210101B9
:108EB800176F000E010112210101186F000E010148
:108EC80013210101196F01011405D8A40BD017C192
:108ED800CFFF16C1CEFF8C0ECD6E9F809E909D80D9
:108EE800CD8000D0030E01011419D8A40AD017C1EF
:108EF800B3FF16C1B2FF8C0EB16EA292A192A082EE
:108F0800B1804050D8A41200010E406E000E01013D
:108F1800156F180E0101156502D01200120001012B
:108F28001551020D000EF324D96E030EF420DA6EEB
:108F3800000EDE6E000EDD6E0101152B180E01010C
:108F48001565EDD71200120012000101D351D8B4F3
:108F580004D0000E0101D36F1200040E09EC75F065
:108F68000009D8B4A3D00101B551010D730EF32443
:108F7800F66EFE0EF420F76E0800F5500009D8A42E
:108F880095D0010E0101B56F010E02014D6F8ED013
:108F9800DFEC5CF00DC1AAF00EC1ABF00001ABBF75
:108FA80008D03E0E0001AA5D080E0001AB59D8B0EA
:108FB80004D0000E0101B56F12000101B52B12009B
:108FC800A9EC73F00009D8B404D0010E0101DD6FDB
:108FD80000D090EC65F00DC12CF20EC12DF201010C
:108FE800B52B12000101C551D8B413D0000E0101F0
:108FF800C56F000E0201336F000E326F000E0001C4
:10900800AD6F000EAC6F000E0201356F000E346FAD
:1090180000D0010EA3EC61F00101B52B0101DC05C4
:10902800D8A41200020E0101DC6F1200020EA3EC9C
:1090380061F00101B52B1200030EA3EC61F00101F0
:10904800B52B1200EAEC69F00DC136F20EC137F209
:109058000101B52B1200040EFAEC76F00009D8B421
:1090680012002CC126F12DC127F12EC128F1040EC2
:1090780084EC6CF0000E02014D6F020E0101DC1948
:10908800D8A404D0030E0101DC6F12000101DC0535
:10909800D8A41200000E0101276F010E266F000EE2
:1090A8000101286F040E84EC6CF012000101B55127
:1090B800010D730EF324F66EFE0EF420F76E080011
:1090C800F550000AD8B4C7D7010AD8B461D7030A43
:1090D800D8B476D7010AD8B485D7070AD8B4A6D7A2
:1090E800010AD8B4A9D7030AD8A41200ABD7120032
:1090F8000101116F030E01010819D8A460D03C0EBC
:109108000101116102D0000E12D0C30E0101112518
:109118000101006F0101016BFF0E0123000E010127
:10912800036F050E026F7BEC62F001010051010133
:10913800126F00D0010112510101096F0A6BFF0E75
:1091480001010B6FFF0E01010C6F08C10DF1010E3B
:1091580001010E6F000E01010F6F01010D2B04D0EC
:10916800D89001010E370F3701010D2FF9D70101F2
:109178000B5101010E2701010C5101010F230101BF
:10918800095101010E5D01010F51800A0101106FA3
:1091980001010A51800A01011059D8B071D008C1E3
:1091A80009F1010E01010A6F0101092B03D0010128
:1091B800D8900A370101092FFAD75DD061D0040E83
:1091C80001010819D8A45CD0DC0E010111250101A8
:1091D800006F0101016BFF0E0123000E0101036FF7
:1091E800050E026F7BEC62F0010100510101126F64
:1091F800010112510101096F0A6BFF0E01010B6F8A
:10920800FF0E01010C6F08C10DF1010E01010E6F77
:10921800000E01010F6F01010D2B04D0D890010140
:109228000E370F3701010D2FF9D701010B5101013D
:109238000E2701010C5101010F2301010951010100
:109248000E5D01010F51800A0101106F01010A51E1
:10925800800A01011059D8B013D008C109F1010ED4
:1092680001010A6F0101092B03D00101D8900A37C7
:109278000101092FFAD701010A050101126F00D077
:1092880001011251120012000101066F010104517F
:109298000101D8B402D0200E01D0600E0101056F83
:1092A8009AD00101055102090201986F630E02016B
:1092B8009F6F010106511B0F55D00101055102098D
:1092C8000201986F640E02019F6F01010651040F9D
:1092D80049D0210E010106610BD0010105510A098F
:1092E8000201986F650E02019F6F06C1A0F282D03D
:1092F800010105510A090201986F640E02019F6F6E
:1093080001010651190F2ED075D0010105510A0926
:109318000201986F650E02019F6F01010651210F2E
:1093280021D00C0E010106610DD001010551020981
:109338000201986F630E02019F6F01010651040D2F
:10934800F350B9D70B0E010106650FD0190E0101B4
:1093580006610BD001010551020912D0640E020109
:109368009F6F11D00201A06F45D0180E010106654C
:1093780010D01F0E010106610CD0010105510A0928
:109388000201986FEBD701010645E846FC0BD00FA8
:10939800E9D71E0E0101066509D0270E01010661F5
:1093A80005D00CD0650E02019F6F0ED0260E01016C
:1093B800066520D0320E010106611CD0010105515D
:1093C8000A090201986FEED701010645E846FC0B31
:1093D800850FC8D70FD00101F551010AD8B461D75C
:1093E800030AD8B46AD7010AD8B473D7070AD8B41D
:1093F8008CD797D798C202F1000EBAEC75F09FC2CD
:1094080002F10E0EBAEC75F0A0C202F1100EBAEC21
:1094180075F0120004004850D8A4120001D01200C0
:109428001AC148F0000E01011B6FB0D0000E0001F8
:10943800C56F0001CC51D8A49DD03E0E0101196121
:1094480099D0010E0001C86F0001CC51D8B404D0E6
:10945800000E0001C86F95D0200E62EC57F0020193
:10946800A55101090101026F1A0EBAEC75F0800EC0
:1094780062EC57F001011951020FC5EC78F00001B8
:10948800B851C5EC78F0000E01011F6F64D00101DE
:109498001F51010DF35001011725D96EF450010138
:1094A8001821DA6EDF5001011C6F01011F05D8B4C5
:1094B80010D0020E01011F19D8B40BD00001C551FC
:1094C80001011C190001C56F01011C51C5EC78F0A0
:1094D8003FD001011F05D8A42BD0040E01010C6F49
:1094E800010E4EEC5BF00001A25101010C250101B7
:1094F8001D6F0001A35101010D2101011E6F010122
:109508001E51C5EC78F001011E510001C51900017A
:10951800C56F01011D5102013A5D01011E51020191
:109528003B59D8B015D01DC13AF21EC13BF210D03C
:10953800020E01011F19D8A40BD001011D51C5EC61
:1095480078F00001C55101011D190001C56F00D057
:1095580001011F2B00D00101195101011F5DD8A085
:1095680096D70001C551C5EC78F00400010E010141
:10957800D36F09D03D0E0101196501D002D0000159
:10958800CC51480600D001011B2B00D001011A5113
:1095980001011B5DD8A04AD7120002015351D8A47B
:1095A800BBD002018551D8A4B7D0540E0101066F73
:1095B800020E0101076FE90E0101086F020E010199
:1095C800096F040E01010A6F38EC73F05CC2DFF218
:1095D800060E0201536F000E0201866F020E020191
:1095E800876F0EC106F10FC107F1580E0101086F10
:1095F800020E0101096F040E01010A6F38EC73F0C5
:10960800E90E0101066F010E0101076F540E0101F9
:10961800086F020E0101096F040E01010A6F38EC90
:1096280073F0CFEC78F002015C6F000E0201856FD9
:109638001D0E02015E6F210E02015F6F10C160F204
:109648003F0E0201616F080E0101116F01011051F7
:1096580001011103F3CF12F1000E0101136F46D07F
:109668003F0E0101126121D001011251060DBD0EFC
:10967800F3240101006F0A0EF4200101016F000EAE
:109688000101026F5E0E0101036F020E0101046FFA
:1096980001011351040DF350060F0101056F040E6B
:1096A8000101066FD6EC6AF01CD0E50E0101006FCF
:1096B800010E0101016F000E0101026F5E0E010132
:1096C800036F020E0101046F01011351040DF350E1
:1096D800060F0101056F040E0101066FD6EC6AF052
:1096E80000D00101122B0101132B00D001011151EF
:1096F8000101135DD8A0B4D7030E02015D6F260ED9
:109708000201846F0001BD51D8A404D0000E0101EC
:10971800D66F00D0010E1200000E120012000101D7
:109728000C6F000E01010E6F0F015A99000E000117
:10973800CC6F000E0001D46F000E0001CF6F000E39
:109748000001D06F000E4A6E000E3A6E200E000126
:10975800B76F000E02014A6F000E0001C86F000EBD
:109768000101D36F000E0101DB6F000E486E898680
:10977800050E0101076F260EE82EFED7072FFCD72E
:1097880000D08996680E0101076FE40EE82EFED717
:10979800072FFCD700D0000E0101046F01010C5106
:1097A80048EC49F0000E01010E6F1F0E01010E6515
:1097B80001D015D001010E51010D980EF324D96E78
:1097C800020EF420DA6EDF500101026F01010E5122
:1097D800020DF350BAEC75F001010E2BE6D7030E1B
:1097E8000101016FFC0E006F39EC78F001010D6F7B
:1097F80001010D29D8A418D08CEC79F0030E0101D1
:10980800016FFC0E006F000E0101026FF3EC73F0A4
:10981800000E8AEC78F0D80E0101096F09C102F137
:109828003C0EBAEC75F01ED001010D510101D8A40F
:109838000CD0000E8AEC78F0D80E01010A6F0AC12C
:1098480002F13C0EBAEC75F00DD001010D518AEC15
:1098580078F0DA0E01010B6F0BC102F13C0EBAEC85
:1098680075F000D0F29600F00F015A8900F081CF10
:1098780008F100F0F290F2860CC1F3F1150E010127
:10988800076FC60EE82EFED7072FFCD700D01DECB9
:1098980078F0010E0001D16F000E0001D26F1200A6
:1098A800000E01010B6F3E0E01010B6502D0120084
:1098B800120001010B51060D040EF326000EF422CE
:1098C800BD0EF324D96E0A0EF420DA6EDF500F0BAA
:1098D8000F0AD8B49CD0010E0101086F01010B5189
:1098E800060D040EF326000EF422BD0EF324D96EE5
:1098F8000A0EF420DA6EDF500F0B0101096F010127
:10990800085101010927DF5001010919F00B010174
:109918000919DF6E49500F0DF3CF00F1F4CF01F1B3
:10992800000E0101036F400E026F7BEC62F0040E23
:1099380001010027000E0101012301010B51060D51
:10994800040EF326000EF422BD0EF324D96E0A0E7F
:10995800F420DA6EDF500F0B0101086F096B01016B
:1099680000510101085D01010951800A01010A6FD6
:1099780001010151800A01010A59D8B012D0010130
:109988000B51060D040EF326000EF422BD0EF3242F
:10999800D96E0A0EF420DA6EDF500F0B0F0AD8A426
:1099A80036D001010B51060D040EF326000EF422E9
:1099B800BD0EF324D96E0A0EF420DA6EDF80DF8242
:1099C800DF84DF8601010B51060D050EF326000E1C
:1099D800F422BD0EF324D96E0A0EF420DA6EFF0EBF
:1099E800DF6E01010B51060D040EF326000EF42262
:1099F800BD0EF324D96E0A0EF420DA6EDF88DF8AF2
:109A0800DF8CDF8E4950D8B402D0490600D001015E
:109A18000B2B3E0E01010B654CD712001200156E80
:109A2800000E176E000E186E000E196E000E1A6EDC
:109A3800040E1018D8A40AD00EC017F00FC018F0E2
:109A4800000E18BEFF0E196E1A6E4CD01050D8A416
:109A58002CD00EC011F00FC012F0000E12BEFF0E77
:109A6800136E146E0F0ED890113612361336143644
:109A7800E82EF9D711C001F012C002F013C003F0AC
:109A880014C004F0E80E056E030E066E000E076E95
:109A9800000E086ECAEC6CF001C017F002C018F096
:109AA80003C019F004C01AF01DD01004D8A41AD0AD
:109AB8000EC011F00FC012F0000E12BEFF0E136E92
:109AC800146E0F0ED8901136123613361436E82E4F
:109AD800F9D711C017F012C018F013C019F014C04C
:109AE8001AF000D017C011F018C012F019C013F006
:109AF8001AC014F0111E121E131E141E112A000E75
:109B0800122213221422FF0E1124176EFF0E1220A8
:109B1800186E000E1320196E000E14201A6E15040C
:109B2800D8A40BD018C0CFFF17C0CEFF8C0ECD6EB7
:109B38009F809E909D80CD8000D0030E1518D8A4DC
:109B48000AD018C0B3FF17C0B2FF8C0EB16EA29234
:109B5800A192A082B1804050D8A41200010E406E9C
:109B6800000E166E180E166402D01200120016505F
:109B7800020D000EF324D96E030EF420DA6E000EE7
:109B8800DE6E000EDD6E162A180E1664F0D712006F
:109B9800120012001D0E0101426F1AC10BF11BC108
:109BA8000CF1430E01010D6F010E01010E6F49EC1E
:109BB80041F00101476F1D0E01011C6F260E0101C6
:109BC8001D6F1AC100F11BC101F1000E0101026FE6
:109BD8001C0E0101036F010E0101046F020E010149
:109BE800056F040E0101066FD6EC6AF0430E010101
:109BF800006F010E0101016F000E0101026F1C0EC2
:109C08000101036F010E0101046F060E0101056FCA
:109C1800040E0101066FD6EC6AF047C126F11AC19D
:109C280000F11BC101F1000E0101026F1C0E0101C0
:109C3800036F010E0101046F0B0E0101056F040E85
:109C48000101066FD6EC6AF0430E0101006F010EA8
:109C58000101016F000E0101026F1C0E0101036F6B
:109C6800010E0101046F0F0E0101056F040E0101C1
:109C7800066FD6EC6AF047C12FF11AC100F11BC17B
:109C880001F1000E0101026F1C0E0101036F010EAC
:109C98000101046F140E0101056F040E0101066F26
:109CA800D6EC6AF0430E0101006F010E0101016F4D
:109CB800000E0101026F1C0E0101036F010E01016C
:109CC800046F180E0101056F040E0101066FD6EC32
:109CD8006AF047C138F118C10EF119C10FF11C0E15
:109CE8000101106F010E0101116F42C112F1000E46
:109CF8000101136F010E0101146F000E0101156FB0
:109D0800F9EC45F012001200000E01012D6F0A0E49
:109D18002C6F010E01012E6F3E0EA9EC47F00201D7
:109D280013BF0CD00201135104E102011205D8A09F
:109D380005D002011207D8A0130700D00001B751BF
:109D4800D8A402D0110E18D0020112510201131129
:109D5800D8A418D0CEEC73F00009D8B407D0010EFF
:109D68000201136F2C0E126F120E06D0000E0201A4
:109D7800136F1E0E126F100E0001BA6F010E010153
:109D8800C76F00D00101C8510101D8A40DD05CEC07
:109D980022F093B609D00101C7510101D8B402D00D
:109DA8008A8602D08A9600D0130E09EC75F0000955
:109DB800D8B43BD0E1C181F10101826B010181512D
:109DC800826F816B0101E05101018127000E82231E
:109DD800010181290F0E01018259D8B022D0010159
:109DE800815102012C5D0101825102012D59D8B027
:109DF8000CD00101E2510F0B040AD8B412D00101B2
:109E0800E2510F0B10EC6DF00CD00101E2390F0B91
:109E1800040AD8B406D00101E2390F0B10EC6DF03A
:109E280000D0000E0001B36F00D0130EFAEC76F0EC
:109E38000009D8B40CD0000E0101276F3C0E266F24
:109E4800010E0101286F130E84EC6CF000D00101A3
:109E5800DD51D8B40ED0000E0101DD6FCDC007F181
:109E6800010E5EEC73F0010EAAEC71F00001CD6FEB
:109E780000D045EC40F0120012001D0E0101266FC3
:109E8800200E0101276F22C128F19EEC79F0010113
:109E9800296F030E0101556F01012251010155037C
:109EA800F3CF54F1000E0101586F000E576F6DD0BB
:109EB8004C0E0101146F010E0101156F500E0101C6
:109EC800166F010E0101176F560E0101186F010E72
:109ED8000101196F01015451E2EC5EF04C0E0101D1
:109EE800006F010E0101016F000E0101026F260EC5
:109EF8000101036F010E0101046F01015751090DA2
:109F0800F350040F0101056F040E0101066FD6EC32
:109F18006AF0500E0101006F010E0101016F000E81
:109F28000101026F260E0101036F010E0101046F8A
:109F380001015751090DF350080F0101056F040E77
:109F48000101066FD6EC6AF057C100F158C101F162
:109F5800000E0101036F090E026F67EC75F00C0E1D
:109F680001010027000E01010123260E0101002531
:109F7800D96E010E01010121DA6E56C1DFFF010120
:109F8800542B0101574B582B00D0010155510101A9
:109F9800236F246B010123510101575D01015851C1
:109FA800800A0101256F01012451800A0101255908
:109FB800D8A07ED720C10EF121C10FF1260E0101D4
:109FC800106F010E0101116F260E0101126F000EB4
:109FD8000101136F010E0101146F000E0101156FCD
:109FE800F9EC45F0120012000AC10EF101010F6BE5
:109FF800106B0101093501010E3701E30F810101E1
:10A008000E510101116F01011151D8A40AD0000E9F
:10A018000101086F000E0101096F000E01010A6FAE
:10A0280012000DC10EF101010F6B106B01010C350F
:10A0380001010E3701E30F8101010E510101166F75
:10A0480001011651D8A40AD0000E0101086F000EB4
:10A058000101096F000E01010A6F1200010116517A
:10A068007B0F010111270AC116F101010D510101F0
:10A07800161B800E010116170101098F01010C8FB3
:10A08800FF0E01010B17FF0E01010C17000E010155
:10A098000D17000E0101126F000E0101136F000E63
:10A0A8000101146F070E0101156F00D0010108A10D
:10A0B8000DD001010B510101122701010C510101C1
:10A0C800132301010D510101142300D00101D8907F
:10A0D8000A33093308330101D8900B370C370D3791
:10A0E8000101152FE3D700D0090E0101156F00D02B
:10A0F800010108A10DD001010B5101011227010135
:10A108000C510101132301010D510101142300D049
:10A118000101D8900A33093308330101D890143368
:10A12800133312330101152FE3D700D012C100F108
:10A1380013C101F114C102F111C103F116C104F1F7
:10A148008BEC58F000C108F101C109F102C10AF114
:10A158001200120000C1D9FF01C1DAFF000EDF6E44
:10A16800010120EE01F00051D9260151DA22000E3A
:10A17800DF6E4150D8A403D04250D8B438D01E0E58
:10A188000001C26103D00001C22B00D01E0E0001E5
:10A19800C219D8A41AD00E0E0001C36516D000C18A
:10A1A800D9FF01C1DAFF030EDF6E2D0E0001C26F69
:10A1B800010120EE01F00051D9260151DA22030EE7
:10A1C800DF6E2D0E0001C36F0FD01E0E0001C219E5
:10A1D800D8A40AD000C1D9FF01C1DAFF020EDF6E90
:10A1E8002D0E0001C26F00D0000E426E13D0010E7A
:10A1F8000001C2650BD01F0E0001C26107D000C16B
:10A20800D9FF01C1DAFF010EDF6E00D0000E000198
:10A21800C26F00D04350D8A403D04450D8B439D02A
:10A228001E0E0001C36103D00001C32B00D01E0E17
:10A238000001C319D8A41AD00E0E0001C26516D0A9
:10A2480000C1D9FF01C1DAFF030EDF6E2D0E000138
:10A25800C26F010120EE01F00051D9260151DA2226
:10A26800030E11D02D0E0001C36F10D01E0E000179
:10A27800C319D8A40BD0010120EE01F00051D92652
:10A288000151DA22020EDF6EEDD700D0000E446EC7
:10A298001200010E0001C3650ED01F0E0001C3613C
:10A2A8000AD0010120EE01F00051D9260151DA222D
:10A2B800010EDF6E00D0000E0001C36F1200120005
:10A2C8006EC072F00001736B746B00016D35000194
:10A2D800723701E37381000172510001756F00014B
:10A2E8007551D8A40AD0000E00016C6F000E000151
:10A2F8006D6F000E00016E6F120071C072F00001E8
:10A30800736B746B000170350001723701E3738160
:10A318000001725100017A6F00017A51D8A40AD065
:10A32800000E00016C6F000E00016D6F000E000141
:10A338006E6F120000017A517B0F000175276EC005
:10A348007AF00001715100017A1B800E00017A1722
:10A3580000016D8F0001708FFF0E00016F17FF0E57
:10A3680000017017000E00017117000E0001766FD2
:10A37800000E0001776F000E0001786F070E0001D4
:10A38800796F00D000016CA10DD000016F51000160
:10A3980076270001705100017723000171510001F7
:10A3A800782300D00001D8906E336D336C330001F0
:10A3B800D8906F37703771370001792FE3D700D005
:10A3C800090E0001796F00D000016CA10DD00001C9
:10A3D8006F510001762700017051000177230001B9
:10A3E80071510001782300D00001D8906E336D338D
:10A3F8006C330001D8907833773376330001792FA6
:10A40800E3D700D076C060F077C061F078C062F022
:10A4180075C063F07AC064F01BEC59F060C06CF052
:10A4280061C06DF062C06EF01200120001010C6F85
:10A43800070E0101106F0F69000E01010D6F000E6C
:10A4480001010E6F000E0101156F000E146F000E52
:10A458000101176F000E166F01010C510C25010147
:10A46800126F4B0E0101116F01011251910F010181
:10A47800126F000E0101156F000E146F3DEC72F0A3
:10A4880021EC77F001011251D8EC6DF00009D8A445
:10A4980061D0000E0101136F55D0000E0101156F38
:10A4A800000E146F000E54EC6DF001010D6F0101E8
:10A4B80013510101066F076BFF0E0101086FFF0EB4
:10A4C8000101096F0101115101010A6F0B6B0101B3
:10A4D800085101010A270101095101010B2301015A
:10A4E800065101010A190AE10101075101010B197D
:10A4F800D8A404D0010E54EC6DF003D0000E54EC37
:10A508006DF001010E6F00D001010D51010114130E
:10A5180001011451156F146B01010E51010114133F
:10A52800010114510101165D01011551010117596D
:10A53800D8B005D014C116F115C117F100D001012A
:10A54800132B00D0010111510101135DD8B002D0C5
:10A55800A4D700D047EC78F001010F510101165D36
:10A568000101105101011759D8B006D0000E0101A0
:10A57800176F000E166F09D001010F510101165F08
:10A58800010110510101175B00D016C103F117C179
:10A5980004F1120012000101000501010111D8A403
:10A5A80033D00001A651301805E10001A751311838
:10A5B800D8B49AD002013F510201D8B402D0000E9B
:10A5C8001200010E02013F6F000E3024D96E050EF5
:10A5D8003120DA6E02C1E1FF03C1E2FFDFCFE7FFFE
:10A5E800304A312A31BE0AD0315004E1800E305C45
:10A5F800D8A004D0000E316E000E306E000E02019D
:10A608003F6F010E120070D0020E01010019010106
:10A618000111D8A433D00001A851321805E1000176
:10A62800A9513318D8B460D0020140510201D8B4FE
:10A6380002D0000E1200010E0201406FC90E322432
:10A64800D96E060E3320DA6E02C1E1FF03C1E2FFC4
:10A65800DFCFE7FF324A332A33BE0AD0800E325C9E
:10A66800010E3358D8A004D0000E336E000E326E9F
:10A67800000E0201406FC5D7120036D0040E01014A
:10A68800001901010111D8A42FD00001A4512E18DE
:10A6980005E10001A5512F18D8B426D03750D8B4F9
:10A6A80002D0000E1200010E376E000E2E24D96E55
:10A6B800040E2F20DA6E02C1E1FF03C1E2FFDFCFF3
:10A6C800E7FF2E4A2F2A2FBE0AD02F5004E1270E6B
:10A6D8002E5CD8A004D0000E2F6E000E2E6E000E39
:10A6E800376E8FD7120000D0000E12001200000142
:10A6F800C051D8B4A4D00001CC51D8A4A0D0C4C0B3
:10A7080000F10101016B000E0101036F000E026FE1
:10A71800C90E0101046F000E056F000E066F000ED2
:10A72800076F8DEC6FF00101005101012F6F0101DE
:10A738002F510101D8A402D0000E1200000E010111
:10A748000E6F01012F51010D000EF324D96E060E74
:10A75800F420DA6EDF500EEC77F0D3A60FD0040E9B
:10A7680001010C6F010E4EEC5BF00001A2510101DA
:10A778000C250101306F0001A35114D0040E010112
:10A788000C6F010E4EEC5BF00001A25101010C2789
:10A798000001A35101010D23E60E01010C25010161
:10A7A800306FFF0E01010D210101316F00D088ECDF
:10A7B80079F02CC1D9FF2DC1DAFFDF6E010120EE3F
:10A7C80002F02C51D9262D51DA2230C1DFFF0101C8
:10A7D80020EE01F02C51D9262D51DA2201013151F8
:10A7E800DF6E2CC117F12DC118F101012E51030F95
:10A7F8000101196F010E01011A6F0EEC4AF00101F7
:10A80800C951D8A417D0080E70EC70F0010100519E
:10A818000101C9250101C96FC9C126F10101276BD1
:10A82800010E0101286F080E84EC6CF0000E010186
:10A83800C96F00D0000E0101D16F010E1200000E89
:10A848001200120000C1D9FF01C1DAFF1D0EDF6E30
:10A85800010120EE01F00051D9260151DA22230E20
:10A86800DF6E010120EE02F00051D9260151DA22F3
:10A87800D2C002F10101023BF00E02174DEC79F053
:10A88800010102250001D125DF6E010120EE03F050
:10A898000051D9260151DA22D2C002F10101023B4E
:10A8A800F00E02174DEC79F0010102250001D125C7
:10A8B800DF6E010120EE04F00051D9260151DA22A1
:10A8C800D2C002F10101023BF00E02174DEC79F003
:10A8D800010102250001D125DF6E010120EE05F0FE
:10A8E8000051D9260151DA22C9C0DFFF010120EE4B
:10A8F80006F00051D9260151DA22C9C0DFFF010153
:10A9080020EE07F00051D9260151DA22C9C0DFFF35
:10A91800010120EE08F00051D9260151DA2284EC19
:10A9280079F0DF6E010120EE09F00051D9260151BE
:10A93800DA2284EC79F0DF6E010120EE0AF0005192
:10A94800D9260151DA2284EC79F0DF6E010120EE7C
:10A958000BF00051D9260151DA2280EC79F0DF6E34
:10A96800010120EE0CF00051D9260151DA2280ECC9
:10A9780079F0DF6E010120EE0DF00051D92601516A
:10A98800DA2280EC79F0DF6E0E0E0101036F01010F
:10A9980003511200120019C11BF101011C6B1D6B40
:10A9A8000101183501011B3701E31C8101011B510D
:10A9B8000101256F01012551D8A40AD0000E01011B
:10A9C800176F000E186F000E196F000E1A6F120025
:10A9D800170E01011B6F17C11CF118C11DF119C118
:10A9E8001EF101011B2901011F6F05D00101D8903B
:10A9F8001E331D331C3301011F2FF8D701011C51D1
:10AA08000101206F0101188FFF0E01011717FF0EBA
:10AA180001011817000E0101191701011751010151
:10AA2800216F010118510101226F01011951010122
:10AA3800236F0101246B8E0E0101255F010125AFF3
:10AA48001BD001012551800A8F0FD8B00BD0000E02
:10AA58000101176F000E186F000E196F000E1A6FA4
:10AA6800120000D00101D89024332333223321333C
:10AA78000101253FF7D71FD0170E0101256514D016
:10AA8800000E0101176F000E186F000E196F000EEF
:10AA98001A6F120009D00101D890213722372337C5
:10AAA80024370101250700D0010125510101D8B43F
:10AAB80002D0F1D700D0010120510101D8B40AD049
:10AAC8000101241F231F221F216D000E222323238F
:10AAD800242300D021C117F122C118F123C119F193
:10AAE80024C11AF1120012000DC111F10101126BFB
:10AAF800136B01010C350101113701E312810101CA
:10AB080011510101186F01011851D8A40AD0000E83
:10AB180001010B6F000E01010C6F000E01010D6F9A
:10AB2800120010C111F10101126B136B01010F35F5
:10AB38000101113701E31281010111510101196F5E
:10AB480001011951D8A40AD0000E01010B6F000EA3
:10AB580001010C6F000E01010D6F1200000E0101C2
:10AB6800156F000E0101166F000E0101176F01012C
:10AB78001951890F0101185F0DC119F10101105117
:10AB88000101191B800E0101191701010C8FFF0E1D
:10AB980001010B17FF0E01010C17000E01010D1723
:10ABA80001010F8FFF0E01010E17FF0E01010F1794
:10ABB800000E01011017180E0101146F00D00101D9
:10ABC800D89015371637173701010E5101010B5D63
:10ABD80001010F5101010C590101105101010D59D9
:10ABE800D8A00ED001010E5101010B5F01010F51D8
:10ABF80001010C5B0101105101010D5B010115817F
:10AC08000101D8900B370C370D370101142FD7D716
:10AC180000D015C100F116C101F117C102F118C128
:10AC280003F119C104F18BEC58F000C10BF101C11B
:10AC38000CF102C10DF1120012007DC07FF000017D
:10AC4800806B816B00017C3500017F3701E38081D7
:10AC580000017F510001896F00018951D8A40AD0F1
:10AC6800000E00017B6F000E7C6F000E7D6F000EE2
:10AC78007E6F1200170E00017F6F7BC080F07CC0D2
:10AC880081F07DC082F000017F290001836F05D02B
:10AC98000001D8908233813380330001832FF8D7A5
:10ACA800000180510001846F00017C8FFF0E0001BC
:10ACB8007B17FF0E00017C17000E00017D170001B5
:10ACC8007B510001856F00017C510001866F0001F6
:10ACD8007D510001876F0001886B8E0E0001895F2E
:10ACE800000189AF1BD000018951800A8F0FD8B0AD
:10ACF8000BD0000E00017B6F000E7C6F000E7D6F85
:10AD0800000E7E6F120000D00001D8908833873380
:10AD1800863385330001893FF7D71FD0170E00010E
:10AD2800896514D0000E00017B6F000E7C6F000E49
:10AD38007D6F000E7E6F120009D00001D890853714
:10AD48008637873788370001890700D00001895185
:10AD58000001D8B402D0F1D700D00001845100011D
:10AD6800D8B40AD00001881F871F861F856D000E82
:10AD780086238723882300D085C07BF086C07CF09B
:10AD880087C07DF088C07EF0120012000001C0511B
:10AD9800D8A404D00001CC51D8B403D0000E1200BE
:10ADA8008AD0020142510201D8A485D0C4C000F162
:10ADB8000101016B23C102F10101036BC90E0101FD
:10ADC800046F000E056F000E066F000E076F8DEC06
:10ADD8006FF0010100510101246F010124510101AB
:10ADE800D8A402D0000E1200000E01010E6F01015E
:10ADF8002451010D000EF324D96E060EF420DA6EEC
:10AE0800DF500EEC77F0D3A60FD0040E01010C6FC3
:10AE1800010E4EEC5BF00001A25101010C2501016D
:10AE2800256F0001A35114D0040E01010C6F010E0F
:10AE38004EEC5BF00001A25101010C270001A35167
:10AE480001010D23E60E01010C250101256FFF0EFE
:10AE580001010D210101266F00D088EC79F020C195
:10AE6800D9FF21C1DAFFDF6E010120EE02F0205187
:10AE7800D9262151DA2225C1DFFF010120EE01F098
:10AE88002051D9262151DA2201012651DF6E20C135
:10AE980017F121C118F101012251030F0101196FA6
:10AEA800010E01011A6F0EEC4AF0010E0201426F09
:10AEB800010E120000D0000E120012000101056FF1
:10AEC80080D0000E0101006F010EC5EC74F0E40E95
:10AED80000D000D0E82EFCD700D000D00201985155
:10AEE8001F0B80090201986F98C202F1000EBAEC9C
:10AEF80075F0800E0001B76F0B0E0101046F620E32
:10AF0800E82EFED7042FFCD700D01200020198517A
:10AF18001F0B60090201986F98C202F1000EBAEC8B
:10AF280075F0D2C000F1000EC5EC74F0600E00019F
:10AF3800B76F1200000E0101006F000EC5EC74F02F
:10AF4800020198511F0B20090201986F98C202F163
:10AF5800000EBAEC75F0680E0101046FE40EE82EDD
:10AF6800FED7042FFCD700D0200E0001B76F1200C7
:10AF7800000E0101006F000EC5EC74F0020198513B
:10AF88001F0B40090201986F98C202F1000EBAEC3B
:10AF980075F0400E0001B76F1200000E0101006F3E
:10AFA800000EC5EC74F0020198511F0B0201986F56
:10AFB800000E0001B76F98C202F1000EBAEC75F0EE
:10AFC800120001010551000AD8B4E7D7200AD8B405
:10AFD800B1D7600AD8B4CCD7200AD8B497D7E00A3A
:10AFE800D8A412006ED7120006C1D9FF07C1DAFF34
:10AFF800DE04D8A489D0050E0101086585D0F90EB4
:10B00800010108250101006F0101016BFF0E0123F9
:10B01800000E0101036F050E026FECEC65F00101F3
:10B02800005101010111D8A46FD0FF0E0101096F71
:10B03800FF0E01010A6F0101085101010B6F0C6B32
:10B048000101095101010B2701010A5101010C23DA
:10B0580001010B5101010625D96E01010C510101B5
:10B068000721DA6E0001C951DE18D8B420D0FF0ECE
:10B078000101096FFF0E01010A6F01010851010169
:10B088000B6F0C6B0101095101010B2701010A51DA
:10B0980001010C2301010B5101010625D96E0101A3
:10B0A8000C5101010721DA6EDE28D8A403D0010E65
:10B0B80012002AD00001C929D8A423D0FF0E01010B
:10B0C800096FFF0E01010A6F0101085101010B6FA1
:10B0D8000C6B0101095101010B2701010A51010102
:10B0E8000C2301010B5101010625D96E01010C51F8
:10B0F80001010721DA6EDE28D8B403D0020E12004F
:10B1080003D0000E120000D0000E12001200010140
:10B1180003510101D8B408D0010100510101011106
:10B1280001010211D8A413D0000E0101006F000E16
:10B138000101016F000E0101026F120008D0010128
:10B14800032B0101D89002330133003300D0000EE5
:10B15800010100150101056F000E01010115010132
:10B16800066FFE0E010102150101076F010105516D
:10B178000101061101010711D8B413D0E0D711D08D
:10B188000101032B010E01010027000E010101231B
:10B19800000E010102230101D8900233013300336C
:10B1A80000D0000E010100150101056F000E01011C
:10B1B80001150101066FFF0E010102150101076F5C
:10B1C800010105510101061101010711D8B40AD086
:10B1D800D7D708D0010103070101D89000370137FC
:10B1E800023700D0010101BF05D0020E0101036141
:10B1F800F1D700D0010103B103D00101019F00D0B4
:10B208000101D89003330101035101010213010127
:10B2180004510101D8B403D00101028F00D000C14C
:10B2280000F101C101F102C102F112001200000196
:10B2380063510001D8B408D00001605100016111C8
:10B2480000016211D8A413D0000E0001606F000E37
:10B258000001616F000E0001626F120008D000014A
:10B26800632B0001D89062336133603300D0000E45
:10B27800000160150001656F000E000161150001F5
:10B28800666FFE0E000162150001676F00016551CF
:10B298000001661100016711D8B413D0E0D711D0AE
:10B2A8000001632B010E00016027000E00016123DD
:10B2B800000E000162230001D890623361336033CD
:10B2C80000D0000E000160150001656F000E00013E
:10B2D80061150001666FFF0E000162150001676FBE
:10B2E800000165510001661100016711D8B40AD048
:10B2F800D7D708D0000163070001D89060376137BD
:10B30800623700D0000161BF05D0020E0001636101
:10B31800F1D700D0000163B103D00001619F00D0D4
:10B328000001D890633300016351000162130001EA
:10B3380064510001D8B403D00001628F00D060C00E
:10B3480060F061C061F062C062F012001200010199
:10B35800000501010111D8A427D03D50D8A412003E
:10B3680001D01200010E3D6E000E0001A625D96E17
:10B37800050E0001A721DA6E02C1DFFF0001A64B0E
:10B38800A72B0001A7BF0DD00001A75105E1800E32
:10B398000001A65DD8A005D0000E0001A76F000E21
:10B3A800A66F000E3D6E1200020E01010019010188
:10B3B8000111D8A427D03E50D8A4120001D0120001
:10B3C800010E3E6EC90E0001A825D96E060E0001B9
:10B3D800A921DA6E02C1DFFF0001A84BA92B0001E9
:10B3E800A9BF0DD0800E0001A85D010E0001A9596A
:10B3F800D8A005D0000E0001A96F000EA86F000E9E
:10B408003E6E1200040E0101001901010111D8A4B9
:10B4180012000001B051D8A4120001D01200010E90
:10B428000001B06F000E0001A425D96E040E0001C2
:10B43800A521DA6E02C1DFFF0001A44BA52B000194
:10B44800A5BF0DD00001A55105E1270E0001A45D9F
:10B45800D8A005D0000E0001A56F000EA46F000E45
:10B468000001B06F120012000001600500016111B7
:10B47800D8A427D03D50D8A4120001D01200010E44
:10B488003D6E000E0001A625D96E050E0001A7210C
:10B49800DA6E62C0DFFF0001A64BA72B0001A7BF31
:10B4A8000DD00001A75105E1800E0001A65DD8A0CE
:10B4B80005D0000E0001A76F000EA66F000E3D6EAE
:10B4C8001200020E0001601900016111D8A427D0F2
:10B4D8003E50D8A4120001D01200010E3E6EC90ED3
:10B4E8000001A825D96E060E0001A921DA6E62C0F6
:10B4F800DFFF0001A84BA92B0001A9BF0DD0800ECA
:10B508000001A85D010E0001A959D8A005D0000EC0
:10B518000001A96F000EA86F000E3E6E1200040E07
:10B528000001601900016111D8A412000001B05196
:10B53800D8A4120001D01200010E0001B06F000E55
:10B548000001A425D96E040E0001A521DA6E62C09F
:10B55800DFFF0001A44BA52B0001A5BF0DD0000102
:10B56800A55105E1270E0001A45DD8A005D0000E65
:10B578000001A56F000EA46F000E0001B06F12004D
:10B58800120006EEC9F015EE6EF0EE6AE550E150D5
:10B59800FCE1E250FAE105EE00F0BF0EEE6AE806C3
:10B5A800FDE104EE00F0E70EEE6AE806FDE103EEC9
:10B5B80000F0F90EEE6AE806FDE102EE00F0980EE2
:10B5C800EE6AE806FDE101EEAFF0440EEE6AE80629
:10B5D800FDE100EEA2F0330EEE6AE806FDE100EEB2
:10B5E8002CF0250EEE6AE806FDE1900EF66EC60E0A
:10B5F800F76E000EF86E06EE00F010EEC9F00900C6
:10B60800F5CFEEFFE550E150FAE11A0EF66EE40EC2
:10B61800F76E000EF86E02EE98F010EE5FF009007B
:10B62800F5CFEEFFE550E150FAE1740EF66EF20E3A
:10B63800F76E000EF86E01EEF3F010EE0DF0090053
:10B64800F5CFEEFFE550E150FAE1360EF66EF30E57
:10B65800F76E000EF86E00EED5F010EE06F0090059
:10B66800F5CFEEFFE550E150FAE1300EF66EF30E3D
:10B67800F76E000EF86E00EE51F010EE06F00900BD
:10B68800F5CFEEFFE550E150FAE1000EF86E00014B
:10B69800EDEF04F00101126F01011205D8A416D0D4
:10B6A800CECF13F10101146BCFCF15F10101166B49
:10B6B800010115510101166F156B010113510101AB
:10B6C8001527010114510101162300D0030E0101B1
:10B6D8001219D8A416D0B2CF13F10101146BB3CF4D
:10B6E80015F10101166B010115510101166F156B5A
:10B6F80001011351010115270101145101011623FC
:10B7080000D001010C510101D8A435D015C10EF1AA
:10B7180016C10FF101010E1F0F1F0E4B0F2BFF0E4D
:10B7280001010E250101106FFF0E01010F2101011A
:10B73800116F10C100F111C101F10101026B036B1E
:10B74800E80E0101046F030E056F000E066F000E70
:10B75800076F13EC6FF0100E07D00101D890033378
:10B768000233010101330033E82EF7D700C10CF191
:10B7780001C10DF1120015C10EF116C10FF1010141
:10B788000E1F0F1F0E4B0F2BFF0E01010E2501017F
:10B798000C6FFF0E01010F2101010D6F1200120045
:10B7A8000001706F00017005D8A416D0CECF73F0D9
:10B7B8000001746BCFCF75F00001766B00017551F5
:10B7C8000001766F756B0001735100017527000148
:10B7D80074510001762300D0030E00017019D8A41B
:10B7E80016D0B2CF73F00001746BB3CF75F00001BF
:10B7F800766B000175510001766F756B000173510E
:10B8080000017527000174510001762300D0000162
:10B818006C510001D8A435D075C06EF076C06FF0B9
:10B8280000016E1F6F1F6E4B6F2BFF0E00016E2500
:10B838000001716FFF0E00016F210001726F71C06E
:10B8480060F072C061F00001626B636BE80E00018A
:10B85800646F030E656F000E666F000E676F50EC25
:10B868006FF0100E07D00001D890633362330001E7
:10B8780061336033E82EF7D760C06CF061C06DF0BB
:10B88800120075C06EF076C06FF000016E1F6F1F5A
:10B898006E4B6F2BFF0E00016E2500016C6FFF0EC3
:10B8A80000016F2100016D6F120012000001CA51E2
:10B8B8000001D8A404D0010E0001CA6F00D0CAC08C
:10B8C80007F1000E01010A6F5DD0000E0101096F3A
:10B8D800000E086F2CD001010A51010DF35001012F
:10B8E8000025D96EF45001010121DA6E0001CA5118
:10B8F800010DB80EF324E16E020EF420E26EE7505B
:10B908000101046F01010A51010DF35001010025E5
:10B91800E16EF45001010121E26EE75001010425B6
:10B9280001010A25DF6E0101084B092B00D0000137
:10B93800CA51010DB80EF324D96E020EF420DA6E46
:10B94800DF50070B0101046F056B01010451010170
:10B95800085D01010951800A0101066F01010551C5
:10B96800800A01010659D8A0B6D70001CA2B070ED4
:10B978000001CA6504D0000E0001CA6F00D00101A1
:10B988000A2B00D001010A510101046F056B010166
:10B9980002510101045D01010551800A0101066F90
:10B9A80001010351800A01010659D8A08ED701016F
:10B9B800075112001200000E0101116F000E010163
:10B9C800106F000E0F6F000E0101136F000E126F43
:10B9D800000E0101006F040E84EC73F0000E0101EB
:10B9E800136F000E126F000E0101116F090E010195
:10B9F800116501D023D0A4EC79F000D033EC79F0B4
:10BA08000009D8A4FBD7C4500101106F0F6BC350B5
:10BA180001010F13040E0101116509D001010F5135
:10BA280001011227010110510101132300D00A0E50
:10BA3800E82EFED700D00101112BD8D712C106F18C
:10BA480013C107F1000E0101096F050E086F97EC8D
:10BA58006DF006C112F107C113F1020E0101006F6A
:10BA6800040E84EC73F0C29012C100F113C101F10D
:10BA7800000E0101036F070E026F67EC75F000C13D
:10BA880006F101C107F1000E0101096F060E086FEA
:10BA980097EC6DF006C112F107C113F10101D25103
:10BAA8000101125F000E0101D2BFFF0E0101135BFD
:10BAB80012C10DF113C10EF112001200000E0101A6
:10BAC800096F010103AF0DD00101031F021F011F00
:10BAD800006D000E012302230323010E0101096FEB
:10BAE80000D0010107AF0AD00101071F061F051F7B
:10BAF800046D000E05230623072300D0010104511D
:10BB0800010105110101061101010711D8B43FD047
:10BB1800010E0101086F09D00101D89004370537DB
:10BB2800063707370101082B00D0010107BF02D0F3
:10BB3800F3D700D0010104510101005D0101055155
:10BB48000101015901010651010102590101075181
:10BB580001010359D8A011D0010104510101005F6E
:10BB6800010105510101015B010106510101025B5F
:10BB7800010107510101035B00D00101D89007338F
:10BB88000633053304330101082FD4D700D001014F
:10BB980009510101D8B40AD00101031F021F011F76
:10BBA800006D000E01230223032300D000C100F121
:10BBB80001C101F102C102F103C103F11200120037
:10BBC8000101086FFA0E0101086178D008C109F176
:10BBD80001010A6B09C106F10AC107F10101D890F8
:10BBE800063707370101D8900637073706C109F12C
:10BBF80007C10AF104C1D9FF05C1DAFF09C102F181
:10BC08000AC103F11DEC79F00101076FDE50010153
:10BC18000719D8A451D0010120EE01F00451D9260A
:10BC28000551DA22010E010109250101026F000EFA
:10BC380001010A210101036F1DEC79F00101076F71
:10BC4800DE5001010719D8A437D0010120EE02F017
:10BC58000451D9260551DA22020E010109250101F4
:10BC6800026F000E01010A210101036F1DEC79F03A
:10BC78000101076FDE5001010719D8A41DD0010189
:10BC880020EE03F00451D9260551DA22030E0101F2
:10BC980009250101026F000E01010A210101036F4C
:10BCA8001DEC79F00101076FDE5001010719D8A4D6
:10BCB80003D0010E120000D0000E1200000E120078
:10BCC8001200010E0001D16F000EF2EC77F0000EA9
:10BCD8000001D26FFF0E12EC73F0000E8AEC78F0C0
:10BCE800080E52EC79F0E5C1D7F0E6C1D8F0E7C10B
:10BCF800D9F0E8C1DAF0D1C02FF18CEC79F0030E5D
:10BD08000101016FEF0E006F80EC79F00101026F05
:10BD1800F3EC73F08CEC79F0030E0101016FFC0E6B
:10BD2800006F84EC79F00101026FF3EC73F08CEC96
:10BD380079F0030E0101016FFD0E006F2FC102F1B2
:10BD4800F3EC73F08CEC79F0030E0101016FFE0E39
:10BD5800006FC9C002F1F3EC73F08CEC79F0030EBC
:10BD68000101016FE80E006FFF0E0101026FF3EC95
:10BD780073F08CEC79F0030E0101016FE90E006F8E
:10BD8800FF0E0101026FF3EC73F08CEC79F0030EF7
:10BD98000101016FEA0E006FFF0E0101026FF3EC63
:10BDA80073F08CEC79F0030E0101016FEB0E006F5C
:10BDB800FF0E0101026FF3EC73F0120001011F6F17
:10BDC800FA0E01011F614FD01B0E01010C6F010E0D
:10BDD80001010D6F01011F51A9EC67F01B0E010154
:10BDE800066F010E0101076F14C108F115C109F1B1
:10BDF800040E01010A6F38EC73F001011F51020DA6
:10BE0800C90EF324D96E080EF420DA6EDF503F0B0A
:10BE180001011A6F01011A51060DBD0EF32401012B
:10BE2800066F0A0EF4200101076F16C108F117C149
:10BE380009F1040E01010A6F38EC73F001011F517A
:10BE4800020D010EF326000EF422C90EF324D96E5A
:10BE5800080EF420DA6EDF501F0B18C1D9FF19C184
:10BE6800DAFFDF6E1200E50E0101066F010E010117
:10BE7800076F14C108F115C109F1040E01010A6F19
:10BE880038EC73F0E50E0101066F010E0101076F32
:10BE980016C108F117C109F1040E01010A6F38EC47
:10BEA80073F018C1D9FF19C1DAFFFF0EDF6E120057
:10BEB800120001010D6F01010D51D0EC76F00DC19A
:10BEC80000F10101016B01010651050F0101026F2B
:10BED800ABEC59F007C108F1060E01010827020E64
:10BEE8000101096F0101082B03D00101D89009371E
:10BEF8000101082FFAD70101095101010A6F0DC18B
:10BF080000F10101016B0AC102F1ABEC59F0000E1E
:10BF180001010B6F000E01010C6F25D00DC100F15E
:10BF28000101016B01010C51010DF35001010425C0
:10BF3800D96EF45001010521DA6EDF500101026F5C
:10BF4800ABEC59F001010C51010DF350010104252E
:10BF5800D96EF45001010521DA6EDF5001010B1B87
:10BF680001010C2B00D00101065101010C5DD8A084
:10BF7800D5D70DC100F10101016B0BC102F1ABEC8A
:10BF880059F00DC100F10101016B0D0E0101026FA5
:10BF9800ABEC59F00DC100F10101016B0A0E010172
:10BFA800026FABEC59F01200000E01010A6F5ED06F
:10BFB800000E0101096F000E086F2DD001010A5112
:10BFC800010DF35001010025D96EF4500101012142
:10BFD800DA6E01010A51010DF35001010025E16EED
:10BFE800F45001010121E26EE7500101056F0101E2
:10BFF8000451010DB80EF324E16E020EF420E26E36
:10C00800E75001010A25000801010525DF6E01013D
:10C01800084B092B00D001010451010DB80EF3247F
:10C02800D96E020EF420DA6EDF50070B0101056F9E
:10C03800066B010105510101085D01010951800AE2
:10C048000101076F01010651800A01010759D8A0B3
:10C05800B5D70101042B070E0101046504D0000EB9
:10C068000101046F00D001010A2B00D001010A511F
:10C078000101056F066B010102510101055D010116
:10C088000651800A0101076F01010351800A01016D
:10C098000759D8A08DD71200030E010134250101DC
:10C0A800386F000E010135210101396F32C106F1E7
:10C0B80033C107F1A4EC68F00101376F32C106F112
:10C0C80033C107F138C108F139C109F1040E010182
:10C0D8000A6F38EC73F0E90E0101066F010E0101D9
:10C0E800076F040E010138250101086F000E0101D8
:10C0F80039210101096F040E01010A6F38EC73F050
:10C10800020E0101BE19D8A410D038C104F139C1FA
:10C1180005F101013651080F0101066F000E0101FA
:10C12800076F020E5DEC5FF000D032C106F133C13B
:10C1380007F1E50E0101086F010E0101096F040EF8
:10C1480001010A6F6BEC72F00009D8A40ED034C15B
:10C1580020F135C121F101013651080F0101226F8B
:10C1680037C123F1CAEC56F0120034C12CF135C1A5
:10C178002DF101013651080F01012E6F7BEC53F0B0
:10C188001200120010C106F111C107F10EC108F129
:10C198000FC109F1040E01010A6F38EC73F0E90EC2
:10C1A8000101006F010E0101016F000E0101026F14
:10C1B8000EC103F10FC104F1040E0101056F040E55
:10C1C8000101066FD6EC6AF0010120EE08F00E516D
:10C1D800D9260F51DA22030EDF6E010120EE09F095
:10C1E8000E51D9260F51DA22000EDF6E010120EE22
:10C1F8000AF00E51D9260F51DA22000EDF6EE90E31
:10C208000101006F010E0101016F000E0101026FB3
:10C218000EC103F10FC104F10B0E0101056F040EED
:10C228000101066FD6EC6AF010C100F111C101F1ED
:10C23800000E0101026F0EC103F10FC104F10F0ED0
:10C248000101056F040E0101066FD6EC6AF00101C9
:10C2580020EE13F00E51D9260F51DA22000EDF6EB0
:10C268001200010119510101175D01011A51010163
:10C278001859D8B045D00101195101011F6F0101AA
:10C288001A510101206F0101216B0101226B01018B
:10C298001F1F201F211F221F1F2B000E20232123B9
:10C2A80022230101175101011F250101236F0101FB
:10C2B8001851010120210101246F000E01012121E3
:10C2C8000101256F000E010122210101266F0101E4
:10C2D8001B51010123250101276F01011C51010197
:10C2E80024210101286F01011D51010125210101AE
:10C2F800296F01011E510101262101012A6F19D060
:10C3080019C11FF11AC120F101011F1F201F1F4B66
:10C31800202B0101175101011F27010118510101AB
:10C3280020231FC127F120C128F10101296B2A6BA5
:10C3380000D027C117F128C118F11200120001011D
:10C348001E6F01011E05D8A41FD0F10E0101036F55
:10C35800020E0101046F000E0101056F000E1AECB8
:10C3680052F003C118F104C119F101011851020179
:10C37800325D0101195102013359D8B0120018C1B8
:10C3880032F219C133F21200020E01011E19D8A4AB
:10C398001FD0F30E0101036F020E0101046F000E9E
:10C3A8000101056F050E1AEC52F003C11AF104C120
:10C3B8001BF101011A510001AC5D01011B51000183
:10C3C800AD59D8B012001AC1ACF01BC1ADF01200C3
:10C3D800030E01011E19D8A41200F50E0101036F06
:10C3E800020E0101046F000E0101056F070E1AEC21
:10C3F80052F003C11CF104C11DF101011C510201DD
:10C40800345D01011D5102013559D8B012001CC11B
:10C4180034F21DC135F2120012000101126F010140
:10C4280012510101D8A40DD0D6CF13F10101146B1C
:10C43800D7CF15F111D0010115510101166F156BF8
:10C448000ED0030E01011219D8A412D0B2CF13F1E5
:10C458000101146BB3CF15F10101166BECD7010183
:10C46800135101011527010114510101162300D0B0
:10C4780001010C510101D8A435D015C10EF116C126
:10C488000FF101010E1F0F1F0E4B0F2BFF0E0101A5
:10C498000E250101106FFF0E01010F210101116F1F
:10C4A80010C100F111C101F10101026B036BE80E2B
:10C4B8000101046F030E056F000E066F000E076F73
:10C4C80013EC6FF0100E07D00101D890033302333C
:10C4D800010101330033E82EF7D700C10CF101C187
:10C4E8000DF1120015C10CF116C10DF11200000E6C
:10C4F8000101056F010103AF09D00101026D031F9E
:10C50800D8B0032B010E0101056F00D0010101AF66
:10C5180009D00101006D011FD8B0012B010E0101E6
:10C52800051B00D0000E0101076F000E066F010108
:10C53800025101010311D8B431D0010E0101046F79
:10C5480007D00101D890023703370101042B00D02E
:10C55800010103BF02D0F5D700D00101D8900637FA
:10C568000737010102510101005D01010351010179
:10C578000159D8A00BD0010102510101005F01014E
:10C5880003510101015B0101068100D00101D8902E
:10C59800033302330101042FE0D700D00101055114
:10C5A8000101D8B406D00101066D071FD8B0072BCA
:10C5B80000D006C100F107C101F11200120001010B
:10C5C800026F01010251060D050EF326000EF4223A
:10C5D800BD0EF324D96E0A0EF420DA6EDE28D8A434
:10C5E80010D001010251060D050EF326000EF422AB
:10C5F800BD0EF324D96E0A0EF420DA6E00C1DFFFF7
:10C60800120001010251060D050EF326000EF42258
:10C61800BD0EF324D96E0A0EF420DA6E0101005122
:10C62800DE5CD8B00FD001010251060D050EF326CD
:10C63800000EF422BD0EF324D96E0A0EF420DA6E31
:10C64800DF2A120001010251060D050EF326000E25
:10C65800F422BD0EF324D96E0A0EF420DA6EDE50F1
:10C668000101005DD8B0120001010251060D050E4E
:10C67800F326000EF422BD0EF324D96E0A0EF42020
:10C68800DA6EDF061200120000010203040A0B0C26
:10C698000D0E14151617181E1F20212228292A2BC3
:10C6A8002C05060708090F10111213191A1B1C1D57
:10C6B80023242526272D2E2F30310031302F2E2DE3
:10C6C80027262524231D1C1B1A19131211100F09C4
:10C6D800080706052C2B2A29282221201F1E181797
:10C6E8001615140E0D0C0B0A0403020100010203B7
:10C6F800040A0B0C0D0E14151617181E1F202122E4
:10C7080028292A2B2C05060708090F1011121319BE
:10C718001A1B1C1D23242526272D2E2F30310031CE
:10C72800302F2E2D27262524231D1C1B1A191312E2
:10C7380011100F09080706052C2B2A292822212069
:10C748001F1E18171615140E0D0C0B0A04030201F0
:10C758000000000E0101086F000E096F000E0A6F3D
:10C76800000E0B6F010104510101051101010611B1
:10C7780001010711D8B447D0010E01010C6F09D08F
:10C788000101D890043705370637073701010C2B0C
:10C7980000D0010107BF02D0F3D700D00101D89023
:10C7A800083709370A370B37010104510101005DC9
:10C7B8000101055101010159010106510101025907
:10C7C8000101075101010359D8A013D001010451F7
:10C7D8000101005F010105510101015B01010651E1
:10C7E8000101025B010107510101035B010108819D
:10C7F80000D00101D8900733063305330433010113
:10C808000C2FCCD700D008C100F109C101F10AC131
:10C8180002F10BC103F112001B6E4550D8B41FD0B2
:10C828001B50D8B40CD0FF0E34240E6EFF0E3520EA
:10C838000F6E040E106E010E13EC4DF00AD034C0CA
:10C848000EF035C00FF0040E106E010E13EC4DF013
:10C8580000D0070E356E3468000E456E00D0010E0C
:10C868000001A2250001A26FF80E0001A32100011A
:10C87800A36F2C06D8A02D062C502D10D8A40ED0AE
:10C88800000E2D6E100E2C6E0EC2A2F00FC2A3F079
:10C898007F0E02010F6FF00E0E6F0BD02C042D10BF
:10C8A800D8A407D0010E456EA2C034F0A3C035F05D
:10C8B80000D00001C42BC80E0001C46504D0000ECE
:10C8C8000001C46F00D00201102904E102011129FE
:10C8D800D8B412000201104B112B12001200000EE6
:10C8E8000101156F000E146F010115BF0AD0010177
:10C8F80015513CE10A0E0101145DD8B037D001D0C2
:10C9080035D0DFEC5CF00DC1AAF00EC1ABF0000130
:10C91800ABBF0ED0230E0001AA5D0C0E0001AB596F
:10C92800D8A006D00001AA51DE0F0101D22712D0EB
:10C938000001ABBF08D01C0E0001AA5D0C0E00015F
:10C94800AB59D8B007D00001AA5100081C0F01014B
:10C95800D25F00D0020E0101016F8A0E006F12EC47
:10C9680071F00101144B152BBFD700D00101D25132
:10C97800800A9F0FD8A012000101D251800A600FCF
:10C98800D8B012008CEC79F0030E0101016FF00EA3
:10C99800006FD2C102F1F3EC73F012001200000133
:10C9A8008E6F8EC0D4F0D4C060F00001616B000EB1
:10C9B8000001636F070E626F46EC66F0000160517C
:10C9C8000101C06F880E0001D46504D0280E000153
:10C9D800D46F1200000E00016F6F000E0001706F1F
:10C9E8003F0E0001716FDA0E00018A6FFF0E000121
:10C9F8008B6F0001D45100018C6F8D6B00018A513F
:10CA080000018C2700018B5100018D2300018C1F30
:10CA18008D1F8C4B8D2B640E00018C250001686FD7
:10CA2800000E00018D210001696F17EC74F068C0D9
:10CA38006CF069C06DF06AC06EF064EC51F06CC0C7
:10CA48007BF06DC07CF06EC07DF021EC56F00001EB
:10CA58007B51280F0001D46F12001200CCC200F1E4
:10CA6800CDC201F1CEC202F1CFC203F1D0C204F1AE
:10CA7800D1C205F1D2C206F1D3C207F113EC6FF0AF
:10CA880000C1CCF201C1CDF202C1CEF203C1CFF296
:10CA9800390E0201CC27300ECD23000ECE23000E16
:10CAA800CF23100E01010E6FCCC20FF1CDC210F1D1
:10CAB800CEC211F1CFC212F101010E6701D009D027
:10CAC800010112351233113310330F3301010E2FC8
:10CAD800F3D7FF0E01010F150101006F7F0E010151
:10CAE80010150101016F000E010111150101026FFE
:10CAF800000E010112150101036F0CC104F10DC1F3
:10CB080005F10101066B076B62EC5DF000C10CF1E9
:10CB180001C10DF112001200000E0101106F000E8C
:10CB28000F6F000E0101126F000E116F000E010150
:10CB3800006F0A0E84EC73F0000E0101126F000EF4
:10CB4800116F000E0101136F090E0101136501D069
:10CB58002AD0A4EC79F000D033EC79F00009D8A4FD
:10CB6800FBD7C4500101106F0F6BC35001010F13A5
:10CB7800040E0101136514D0100E0101105DD8A038
:10CB880006D0000E0101106F000E0F6F00D00101DA
:10CB98000F5101011127010110510101122300D089
:10CBA8000101132BD1D711C106F112C107F1000EF3
:10CBB8000101096F050E086F97EC6DF006C111F1C0
:10CBC80007C112F111C10DF112C10EF112001200CC
:10CBD800000E0101056F010101AF09D00101006DCF
:10CBE800011FD8B0012B010E0101056F00D0010112
:10CBF80003AF06D00101026D031FD8B0032B00D08C
:10CC08000101025101010311D8B42BD0010E010119
:10CC1800046F07D00101D890023703370101042BB4
:10CC280000D0010103BF02D0F5D700D001010251A5
:10CC38000101005D0101035101010159D8A009D08A
:10CC4800010102510101005F010103510101015B72
:10CC580000D00101D890033302330101042FE6D735
:10CC680000D0010105510101D8B406D00101006DC1
:10CC7800011FD8B0012B00D000C100F101C101F1A2
:10CC880012001200000E0001656F000161AF09D0AB
:10CC98000001606D611FD8B0612B010E0001656F46
:10CCA80000D0000163AF06D00001626D631FD8B0E9
:10CCB800632B00D00001625100016311D8B42BD05E
:10CCC800010E0001646F07D00001D8906237633706
:10CCD8000001642B00D0000163BF02D0F5D700D05B
:10CCE800000162510001605D00016351000161595A
:10CCF800D8A009D0000162510001605F00016351B2
:10CD08000001615B00D00001D890633362330001F9
:10CD1800642FE6D700D0000165510001D8B406D0D1
:10CD28000001606D611FD8B0612B00D060C060F059
:10CD380061C061F0120012000EC100F10FC101F1D3
:10CD4800000E0101026F0EC103F10FC104F1080EBC
:10CD58000101056F080E0101066F5AEC6EF000091B
:10CD6800D8B412000EC100F10FC101F1080E010183
:10CD7800026F0EC103F10FC104F1100E0101056F1E
:10CD8800080E0101066F5AEC6EF00009D8B41200C3
:10CD9800000E0101106F070E0101106501D01DD0B2
:10CDA8008CEC79F0F40E010110250101006F0101EE
:10CDB800016B030E01230101105101010E25D96EEB
:10CDC8000101000E01010F21DA6EDF500101026F2F
:10CDD800F3EC73F00101102BDED70EC100F10FC187
:10CDE80001F189EC6AF012001200000E0101106FC7
:10CDF800000E0F6F010110BF0AD0010110514AE166
:10CE0800FA0E01010F5DD8B045D001D043D00BC157
:10CE180004F10CC105F101010F51E4EC5DF00009CA
:10CE2800D8B433D00FC10DF110C10EF1D890010163
:10CE38000D370E37010E01010D27000E0E23C90E06
:10CE480001010D25D96E080E01010E21DA6EDF50A1
:10CE58001F0B1F0AD8B419D00FC10DF110C10EF164
:10CE6800D89001010D370E37010E01010D27000E74
:10CE78000E23C90E01010D25D96E080E01010E21E0
:10CE8800DA6EDF38E832070B120001010F4B102B66
:10CE9800B1D700D0000E12001200EACF1FF0E1CF88
:10CEA80020F0E2CF21F0D9CF22F0DACF23F0F3CF70
:10CEB80024F0F4CF25F0F6CF26F0F7CF27F0F8CFFF
:10CEC80028F0F5CF29F09EB09DA022D09E90F80EB4
:10CED8002B6E000E2A6E2B50CF6ED3B603D0010EE8
:10CEE8004E6E00D04E5010EC64F0010E0101B96F87
:10CEF8000201502B0001CC51D8B404D00201184BC8
:10CF0800192B06D0000E0201196F000E186F00D001
:10CF180029C0F5FF28C0F8FF27C0F7FF26C0F6FF95
:10CF280025C0F4FF24C0F3FF23C0DAFF22C0D9FFD5
:10CF380021C0E2FF20C0E1FF1FC0EAFF1EC0E9FFD9
:10CF48001DC0FBFF1CC0FAFF11000101106FFA0E93
:10CF5800010110613ED010C111F10101126B11C124
:10CF68000EF112C10FF10101D8900E370F370101F0
:10CF7800D8900E370F370EC111F10FC112F1000E04
:10CF88000101136F030E0101136502D01200120094
:10CF980001011351010DF35001010C25D96EF45014
:10CFA80001010D21DA6E0101135101011125010161
:10CFB800026F000E010112210101036F1DEC79F0CF
:10CFC800DF6E0101132B030E01011365E1D7120077
:10CFD8001200E50E0101066F010E0101076F0CC179
:10CFE80008F10DC109F1040E01010A6F38EC73F064
:10CFF800120012000101146F030E0101086F0101F4
:10D008001451060D050EF326000EF422BD0EF3246E
:10D01800D96E0A0EF420DA6EDF507CEC48F001017C
:10D02800136F01011451060D040EF326000EF422AD
:10D03800BD0EF324D96E0A0EF420DA6EDF380F0B1A
:10D04800EEEC75F00101135DD8B012D00101145156
:10D05800060D040EF326000EF422BD0EF324D96E3D
:10D068000A0EF420DA6EDF380F0BEEEC75F01200C2
:10D07800030E0101086F01011451060D050EF32678
:10D08800000EF422BD0EF324D96E0A0EF420DA6ED7
:10D09800DF507CEC48F0120012000EC106F10FC1FF
:10D0A80007F1E50E0101086F010E0101096F040E79
:10D0B80001010A6F6BEC72F00009D8A41200000E8F
:10D0C8000101126F3E0E0101126502D0120012001A
:10D0D80001011251060DBD0EF3240101066F0A0E5F
:10D0E800F4200101076F0EC108F10FC109F1040E08
:10D0F80001010A6F6BEC72F00009D8B418D010C1A6
:10D1080011F101011251060D040EF326000EF4224E
:10D11800BD0EF324D96E0A0EF420DA6E0101113B1C
:10D12800DF50010111190F0B1119DF6E12000101F7
:10D13800122B3E0E01011265CBD71200120012000D
:10D14800000E01010E6F000E0D6F010120EE03F0BD
:10D158000651D9260751DA22DF500101086F06C1AE
:10D16800D9FF07C1DAFFDF500101096F0A6B01011E
:10D1780020EE01F00651D9260751DA22DF500101CD
:10D188000B6F01010B5101010927000E0A23010150
:10D1980020EE02F00651D9260751DA22DF500101AC
:10D1A8000C6F01010C5101010927000E0A2301012E
:10D1B8000851010109250101006F0101000E01015B
:10D1C8000A210101016F000E0101036FC90E026FF0
:10D1D800ECEC65F000C10DF101C10EF101010D513A
:10D1E8001200120001012C6F01012C5193EC4BF03D
:10D1F800000E0101C26F000E0101DA6F010E01017C
:10D20800F76F7F0E02010F6FF00E0E6F7F0E000199
:10D21800A36FF00EA26F000E2D6E100E2C6E070E6F
:10D2280001010E6F0D69040E01010F6F010ED2ECA2
:10D2380046F0010E0001A2250001A26FF80E0001C0
:10D24800A3210001A36F2C06D8A02D06070E356E6A
:10D258003468090EE2EC77F0000E01010D6F1E0E26
:10D268000C6F32EC65F05A0E01010C250101266F96
:10D27800000E01010D210101276F010E0101286F28
:10D288000E0E84EC6CF01200100E0101446F18C1F0
:10D298000BF119C10CF1400E01010D6F010E0101D6
:10D2A8000E6F49EC41F01D0E01011A6F2E0E01019F
:10D2B8001B6F460E01011C6F480E01011D6F430EC6
:10D2C80001011E6F010E0101066F000E076F020EAD
:10D2D800086F000E096F0B0E01010A6F000E0B6F2D
:10D2E800000E0C6F000E0D6F1F0E01010E6F010E68
:10D2F80001010F6F3BEC6AF018C10EF119C10FF173
:10D308001A0E0101106F010E0101116F44C112F1D3
:10D31800000E0101136F010E0101146F000E0101CF
:10D32800156FF9EC45F012001200100E0101446F60
:10D3380018C10BF119C10CF1400E01010D6F010E5E
:10D3480001010E6F49EC41F01D0E01011A6F2A0E02
:10D3580001011B6F410E01011C6F530E01011D6F6E
:10D36800460E01011E6F010E0101066F000E076FC8
:10D37800020E086F000E096F0B0E01010A6F000EF6
:10D388000B6F000E0C6F000E0D6F1F0E01010E6F5C
:10D39800010E01010F6F3BEC6AF018C10EF119C1C3
:10D3A8000FF11A0E0101106F010E0101116F44C136
:10D3B80012F1000E0101136F010E0101146F000E2E
:10D3C8000101156FF9EC45F012001200000E010181
:10D3D800106F000E0F6F000E0101126F000E116F1B
:10D3E800000E0101006F080E84EC73F0000E0101BD
:10D3F800126F000E116F000E0101136F090E01016B
:10D40800136501D01FD0A4EC79F000D033EC79F08B
:10D418000009D8A4FBD7C4500101106F0F6BC3508B
:10D4280001010F13040E0101136509D001010F5109
:10D4380001011127010110510101122300D001013E
:10D44800132BDCD711C106F112C107F1000E01013F
:10D45800096F050E086F97EC6DF006C111F107C151
:10D4680012F111C10DF112C10EF112001200000EDD
:10D478000101106F000E116F000E126F000E136F76
:10D48800899E030E58EC77F00101085158EC77F0AB
:10D498000101075158EC77F00101065158EC77F07B
:10D4A800000E0101106F000E116F000E126F000EBA
:10D4B800136F17D00101105101010E25D96E01011A
:10D4C800115101010F21DA6E70EC78F00101005161
:10D4D800DF6E010E01011027000E11231223132302
:10D4E80000D001010A510101105D01010B51010138
:10D4F800115901010C510101125901010D5101018C
:10D508001359D8A0D7D7898E1200000E0101036FD6
:10D51800070E0101036501D019D001010351010D66
:10D52800F35001010025D96EF45001010121DA6E92
:10D5380001010351010DB80EF324E16E020EF4202F
:10D54800E26EDFCFE7FF0101032BE2D7000E0101F6
:10D55800036F070E0101036502D0120012000101DA
:10D568000351010DF35001010025D96EF45001015A
:10D578000121DA6EDE28D8A409D0070E01010319AB
:10D58800D8A408D0000E0101C46F04D0010E010117
:10D59800C46F12000101032B070E01010365DFD7D9
:10D5A80012001200000E01010D6F3FD0010102515F
:10D5B8000DC107F10101086B01010727000E0823BF
:10D5C80000C109F101C10AF101010751010109274F
:10D5D8000101085101010A2309C1F6FF0AC1F7FF39
:10D5E800000EF86E010105510DC10BF101010C6B24
:10D5F80001010B27000E0C2301010B51010103252A
:10D60800D96E01010C5101010421DA6E0E0EF76486
:10D6180003D00800F55005D0F6CFE9FFF7CFEAFFB1
:10D62800EF50DF6E01010D2B00D001010651010101
:10D638000D5DD8A0BBD71200FDEC78F0899E020ED4
:10D6480058EC77F00101075158EC77F001010651C9
:10D6580058EC77F00101055158EC77F0000E010104
:10D668000F6F000E106F000E116F000E126F15D0A5
:10D6780001010F5101010925D96E01011051010164
:10D688000A21DA6EDF5058EC77F0010E01010F27FE
:10D69800000E10231123122300D001010B510101A8
:10D6A8000F5D01010C510101105901010D510101DA
:10D6B800115901010E5101011259D8A0D9D7898EEB
:10D6C800D9EC78F012001200040E01010E250101B8
:10D6D800066F000E01010F210101076F10C108F14B
:10D6E80011C109F1040E01010A6F38EC73F00DEC59
:10D6F80079F002C1D9FF03C1DAFF12C1E1FF13C1FA
:10D70800E2FFDFCFE7FF0EC106F10FC107F1E50E1B
:10D718000101086F010E0101096F040E01010A6F72
:10D728006BEC72F00009D8A412D00EC106F10FC13B
:10D7380007F1E90E0101086F010E0101096F040EDE
:10D7480001010A6F6BEC72F00009D8B402D0010E27
:10D758001200000E12001200000E0001C56F3E0EEE
:10D76800010108611200200E62EC57F0800E62EC95
:10D7780057F001010851020FC5EC78F00001B851CB
:10D78800C5EC78F0000E0101096F21D001010951A3
:10D79800010DF35001010625D96EF450010107214E
:10D7A800DA6EDF500001C5190001C56F010109518A
:10D7B800010DF35001010625D96EF450010107212E
:10D7C800DA6EDF50C5EC78F00101092B00D00101B9
:10D7D80008510101095DD8A0D9D70001C551C5EC90
:10D7E80078F01200120001010B6FFA0E01010B61B3
:10D7F80012000BC10CF101010D6B0CC109F10DC137
:10D808000AF10101D89009370A370101D890093780
:10D818000A3709C10CF10AC10DF1000E01010E6FA2
:10D82800030E01010E6502D01200120001010E5113
:10D8380001010C250101046F000E01010D210101F8
:10D84800056F01010E51010DF35001010725D96E35
:10D85800F45001010821DA6EDF500101066F0FEC68
:10D8680078F001010E2B030E01010E65DFD71200BF
:10D8780012001200BAEC78F00101046F0001CF51D8
:10D88800D8A41CD001010429D8A403D004C1D0F025
:10D8980007D0010104290001D06F0001D0054A6EAC
:10D8A800400E0001D0650AD0400E0001D06F000183
:10D8B800D0054A6E010E02014C6F00D00001D05114
:10D8C8000001CF5DD8B00ED00001CF51010DA70ED9
:10D8D800F324D96E040EF420DA6E04C1DFFF0001D0
:10D8E800CF2B00D00001D0510001CF19D8A41200CD
:10D8F8000001D051D8B41200010E3A6E1200120085
:10D9080001012B6F010126291DE101012729D8A456
:10D9180019D001012B51020D000EF324D96E030E0C
:10D92800F420DA6EFF0EDE6EFF0EDD6E01012B5164
:10D93800010D320EF324D96E030EF420DA6E28C1DD
:10D94800DFFF1200010E010126250101296F000EDB
:10D958000101272101012A6F01012B51020D000E3F
:10D96800F324D96E030EF420DA6E29C1DEFF2AC132
:10D97800DDFF01012B51010D320EF324D96E030E88
:10D98800F420DA6E28C1DFFF12001200000E096EC3
:10D99800000E0A6E000E0B6E000E0C6E055006107F
:10D9A80007100810D8B42FD0010E0D6E07D0D890EC
:10D9B80005360636073608360D2A00D008BE02D0CE
:10D9C800F6D700D0D89009360A360B360C360550F3
:10D9D800015C065002580750035808500458D8A054
:10D9E8000AD00550015E0650025A0750035A0850E3
:10D9F800045A098000D0D89008320732063205321E
:10DA08000D2EE0D700D009C001F00AC002F00BC00B
:10DA180003F00CC004F012000101046F04C1D5F03A
:10DA28008CEC79F0030E0101016FEC0E006FD5C08C
:10DA380002F1F3EC73F00001D5510001D35DD8B0C9
:10DA480014D04650D8A405D0000E0001AF6F000EC8
:10DA5800AE6F010E466EE3C1C6F00001C651D8A4F0
:10DA68001200060E0001C66F12000001D35100011A
:10DA7800D55DD8B012004650D8B405D0000E0001CC
:10DA8800AF6F000EAE6F000E466EE4C1C6F0000127
:10DA9800C651D8A41200060E0001C66F120012006B
:10DAA8000101006F000E0101016F949E8B9E948C02
:10DAB8001A0EE82EFED700D0000E0101026F070EE5
:10DAC8000101026501D015D00101D89001378B8E74
:10DAD8001A0EE82EFED700D082AC03D001010181D6
:10DAE80000D08B9E1A0EE82EFED700D00101022B23
:10DAF800E6D7010100510101D8A403D08B9C949C66
:10DB080000D01A0EE82EFED700D08B8E1A0EE82E03
:10DB1800FED700D08B9E1A0EE82EFED700D001014A
:10DB2800015112001200000E01010C6F000E0B6F64
:10DB38000101085101010911D8B431D0010E0101C8
:10DB48000A6F07D00101D8900837093701010A2B5D
:10DB580000D0010109BF02D0F5D700D00101D8904B
:10DB68000B370C37010108510101065D010109510C
:10DB780001010759D8A00BD0010108510101065F26
:10DB8800010109510101075B01010B8100D001016D
:10DB9800D8900933083301010A2FE0D700D00BC110
:10DBA80006F10CC107F112000101006F00C101F17B
:10DBB800949C949E000E0101026F1BD01ED001019F
:10DBC80001AF02D08B8C02D08B9C00D00101D89081
:10DBD80001371A0EE82EFED700D08B8E1A0EE82ECB
:10DBE800FED700D08B9E1A0EE82EFED700D001017A
:10DBF800022B070E01010265E2D7948C1A0EE82E5B
:10DC0800FED700D08B8E1A0EE82EFED700D0000E5D
:10DC180082BC010E0101026F8B9E1A0EE82EFED700
:10DC280000D00101025112001200000E0001666FBF
:10DC3800000E656F0001625100016311D8B431D044
:10DC4800010E0001646F07D00001D8906237633776
:10DC58000001642B00D0000163BF02D0F5D700D0CB
:10DC68000001D89065376637000162510001605D98
:10DC78000001635100016159D8A00BD00001625125
:10DC88000001605F000163510001615B0001658173
:10DC980000D00001D890633362330001642FE0D7CD
:10DCA80000D065C060F066C061F01200000E01018E
:10DCB8000D6F31D0010105510DC107F10101086B4C
:10DCC80001010727000E082301010751010103255F
:10DCD800D96E0101085101010421DA6E01010251D6
:10DCE8000DC10AF101010B6B01010A27000E0B237C
:10DCF80001010A5101010025E16E01010B510101E9
:10DD08000121E26EDE50E618D8B402D0000E1200EF
:10DD180001010D2B00D00101065101010D5DD8A0B4
:10DD2800C9D7010E12001200000E0101116F000E7A
:10DD3800106F010111BF0AD00101115130E13F0EEE
:10DD48000101105DD8B02BD001D029D010C100F14D
:10DD580011C101F1000E0101036F060E026F67EC9D
:10DD680075F0BD0E010100250101066F0A0E0101C3
:10DD780001210101076F0EC108F10FC109F1040E5D
:10DD880001010A6F6BEC72F00009D8B403D00101ED
:10DD9800105112000101104B112BCBD700D0FF0EF0
:10DDA80012001200120E01010E6F010E01010F6F19
:10DDB800D70E0101106F000E0101116FC6EC60F063
:10DDC800000E0101266F830E0101006FFE0E010196
:10DDD800016F000E0101026F120E0101036F010EA7
:10DDE8000101046F150E0101056F240E0101066F74
:10DDF800D6EC6AF00101C451300F01014B6F120ECD
:10DE08000101046F010E0101056F3A0E0101066F51
:10DE1800000E0101076F020E5DEC5FF01200000EAC
:10DE28000101086F000E096F000E0A6F000E0B6FDC
:10DE380000D0010100A111D00101045101010827FE
:10DE480001010551010109230101065101010A23BC
:10DE58000101075101010B2300D00101D8900437BB
:10DE68000537063707370101D890033302330133EA
:10DE780000330101005101010111010102110101E9
:10DE88000311D8A4D6D708C100F109C101F10AC10C
:10DE980002F10BC103F11200000E0001686F000EC1
:10DEA800696F000E6A6F000E6B6F00D0000160A1F1
:10DEB80011D000016451000168270001655100017B
:10DEC80069230001665100016A23000167510001BE
:10DED8006B2300D00001D890643765376637673701
:10DEE8000001D890633362336133603300016051BD
:10DEF800000161110001621100016311D8A4D6D795
:10DF080068C060F069C061F06AC062F06BC063F01D
:10DF1800120001010251010100250101086F0101F0
:10DF28000351010101210101096F08C10AF109C169
:10DF38000BF101010C6B0D6B10D0010104510101B3
:10DF48000A5F0101055101010B5B01010651010145
:10DF58000C5B0101075101010D5B01010451010135
:10DF68000A5D0101055101010B5901010651010129
:10DF78000C590101075101010D59D8B0DED70AC16A
:10DF880000F10BC101F11200060E0101446F18C126
:10DF98000BF119C10CF1400E01010D6F010E0101C9
:10DFA8000E6F49EC41F01F0E01011A6F2A0E010194
:10DFB8001B6F530E01011C6F460E01011D6F540E9D
:10DFC80001011E6FF8C11FF118C10EF119C10FF13F
:10DFD8001A0E0101106F010E0101116F44C112F1F7
:10DFE800000E0101136F010E0101146F000E0101F3
:10DFF800156FF9EC45F012001200000E01011B6FBD
:10E00800830E0101006FFE0E0101016F000E010178
:10E01800026F1B0E0101036F010E0101046F010E57
:10E028000101056F240E0101066FD6EC6AF00101AB
:10E03800C451300F0101406F18C10EF119C10FF121
:10E048001B0E0101106F010E0101116F260E010157
:10E05800126F000E0101136F1AC114F1000E0101B5
:10E06800156FF9EC45F0120012003D0E0101536FD7
:10E0780014C116F115C117F114C100F115C101F150
:10E08800000E0101036F380E026F67EC75F0010195
:10E0980000C106F1010101C107F10101086B096B1B
:10E0A800380E01010A6F000E0B6F000E0C6F000E88
:10E0B8000D6F180E01010E6F010E01010F6F3BEC81
:10E0C8006AF0160E0101066F010E0101076F53C1B8
:10E0D80008F1B0EC6BF012000101046F010104516A
:10E0E800020D000EF324D96E030EF420DA6EDE5012
:10E0F800DE10D8B418D001010451020D000EF3242B
:10E10800D96E030EF420DA6EDECF02F1DDCF03F113
:10E11800FF0E010102250101006FFF0E010103211D
:10E128000101016F120001010451020D000EF324D8
:10E13800D96E030EF420DA6EDECF00F1DDCF01F1E7
:10E148001200120001010F5101011011D8B42BD097
:10E15800010E0101116F07D00101D8900F37103758
:10E168000101112B00D0010110BF02D0F5D700D05A
:10E1780001010F5101010D5D0101105101010E59FD
:10E18800D8A009D001010F5101010D5F0101105103
:10E1980001010E5B00D00101D89010330F3301014B
:10E1A800112FE6D700D00DC10DF10EC10EF11200EE
:10E1B8000001695100016A11D8B42BD0010E000189
:10E1C8006B6F07D00001D89069376A3700016B2B55
:10E1D80000D000016ABF02D0F5D700D00001695114
:10E1E8000001675D00016A5100016859D8A009D093
:10E1F800000169510001675F00016A510001685B15
:10E2080000D00001D8906A33693300016B2FE6D73C
:10E2180000D067C067F068C068F0120014D0D00E54
:10E228000101026FCA0EE82EFED7022FFCD7F60EA8
:10E23800010100250101006FFF0E0101012101010B
:10E24800016F040000D001010151E9E10B0E010149
:10E25800005DD8A010D0E3D70ED0150E0101026FD3
:10E26800C60EE82EFED7022FFCD700D0010100070A
:10E27800D8A0010704000101005101010111D8A42F
:10E28800ECD712000101026F3F0EC716000EC66ED2
:10E2980001010251C61201010151C71205D0C78CF4
:10E2A80016D0C78CC68813D001010051000AD8B413
:10E2B800F6D7020AD8B4F5D7010AD8B4F3D707D0ED
:10E2C8009486928A0DD094860BD0949609D0010139
:10E2D8000251040AD8B4F4D7010AD8B4F4D7F5D750
:10E2E8009488949AC68A1200000E01010E6F0101EB
:10E2F800FF510EEC77F0040E01010C6F010E4EEC8D
:10E308005BF00001A25101010C250101236F0001FE
:10E31800A35101010D210101246F88EC79F001015D
:10E32800206F23C122F1010124510101216F200E28
:10E338000101176F010E0101186F030E0101196F1A
:10E34800010E01011A6F0EEC4AF012000101036F71
:10E35800410E0101056F010104693DEC72F00101F4
:10E36800D890053721EC77F001010551D8EC6DF014
:10E378000009D8A417D001010351D8EC6DF00009A9
:10E38800D8A410D021EC77F001010529D8EC6DF064
:10E398000009D8A407D0010E54EC6DF00F0B010151
:10E3A800046F00D047EC78F001010451120012000C
:10E3B8002CD04A04D8A405D063EC78F002014A6F47
:10E3C80000D00001D0510001CF5DD8B00FD00001BE
:10E3D800CF51010DA70EF324D96E040EF420DA6E86
:10E3E800BAEC78F0DF6E0001CF2B00D00001D051DD
:10E3F8000001CF19D8A407D00001D051D8B403D058
:10E40800010E3A6E00D04A0600D04A50D8A4D1D79F
:10E4180012002A8C02020CC177643277623238F813
:10E428001180E938380700000507090CF2004000A0
:10E43800D880FFFFFFFFFFFFFFFFFFFFFFFFFFFF8A
:10E44800FFFFFFFFFFFF010000006D4EC6411700F0
:10E4580001000800FF00010141FFFFFFFFFFFFFF70
:10E46800FFFFFFFFFFFFFFFFFFFFFFEA06EA06EAE5
:10E478000600000E0101006F948C1A0EE82EFED7DC
:10E4880000D0000E82BC010E0101006F0101005195
:10E498000101D8A4120001D01200949E000E0101BF
:10E4A800006F080E0101006501D00DD08B8E1A0E89
:10E4B800E82EFED700D08B9E1A0EE82EFED700D08D
:10E4C8000101002BEED747EC78F012001200000E85
:10E4D80001010D6F1FD001010D51010DF350010114
:10E4E8000825D96EF45001010921DA6E01010D5198
:10E4F800010DF35001010625E16EF45001010721D9
:10E50800E26EDE50E618D8B402D0000E1200010107
:10E518000D2B00D001010A5101010D5DD8A0DBD7F8
:10E52800010E120012001D0E01011A6F250E0101C5
:10E538001B6FD7C01CF1D8C01DF1D9C01EF1DAC0BD
:10E548001FF1060E0101406F18C10EF119C10FF13C
:10E558001A0E0101106F010E0101116F40C112F175
:10E56800000E0101136F010E0101146F000E01016D
:10E57800156FF9EC45F0120012000101B951D8A449
:10E5880012000101BA51D8A412000101BC51D8A44B
:10E5980012000001CC51D8A412000001C851D8A41F
:10E5A80012000101D051D8A412005050D8A4120072
:10E5B8000101CB51D8A412003650D8A412005150F2
:10E5C800D8B4120061EC79F0120012002CC121F1CC
:10E5D8002DC122F13C0E0101236F010E0101246FB0
:10E5E800010E0101256FE1EC39F02CC10EF12DC1AE
:10E5F8000FF198EC6EF001012F6F2AC115F12BC1B4
:10E6080016F12FC117F12EC118F1000E0101196F73
:10E61800010E01011A6F47EC1EF0120001012C6F68
:10E62800000E0101F66F2CC1C9F0000E01012E6F1A
:10E638003E0E2D6F2DC100F12EC101F1000E01011A
:10E64800036F1E0E026F67EC75F000C12DF101C15A
:10E658002EF12DC126F12EC127F1000E0101286FE0
:10E66800070E84EC6CF01200000E01010B6F1BD03A
:10E6780001010B51010DF35001010625D96EF4502B
:10E6880001010721DA6E01010B51010DF35001015F
:10E698000825E16EF45001010921E26EDFCFE7FFA2
:10E6A80001010B2B00D001010A5101010B5DD8A01B
:10E6B800DFD712000101096F410E0101086F3DEC1F
:10E6C80072F001010905D8A403D0A9EC73F000D0B9
:10E6D8000101D890083721EC77F001010851D8ECF6
:10E6E8006DF00009D8A409D001010951D8EC6DF0EA
:10E6F80001010751D8EC6DF000D047EC78F012001A
:10E708000101026F00C101F10101013BC15001018A
:10E718000119CF0B0119C16EC196C190C192C19464
:10E7280002C101F1010101470147C250010101196C
:10E73800830B0119C26EC086C088C08AC050F80B0E
:10E748000609C06EC08EC2801200410E0101066F1C
:10E758003DEC72F0030EAAEC71F00009D8B417D0A2
:10E768000101D890063721EC77F001010651D8EC69
:10E778006DF00009D8A407D0030ED8EC6DF0000E98
:10E78800D8EC6DF000D047EC78F0010E1200000EC6
:10E7980012001200000E0101016F3E0E0101016519
:10E7A80001D01AD001010151060D040EF326000E06
:10E7B800F422BD0EF324D96E0A0EF420DA6EDF506F
:10E7C8000F0B0101006F020E0101006102D0010E62
:10E7D80012000101012BE1D7000E12001200000EF9
:10E7E8000101036F01010151030B756E00C174FF34
:10E7F80002C173FF7F9E7F9C7F84000EF2BE010ED4
:10E808000101036FF29E550E7E6EAA0E7E6E7F8208
:10E8180000D07FB2FED7010103B102D0F29E01D031
:10E82800F28E7F941200000E00016B6F000169AF39
:10E8380009D00001686D691FD8B0692B010E00016D
:10E848006B6F00D068C060F069C061F00001626B56
:10E858008E0E0001636F6BC064F01BEC59F060C052
:10E8680068F061C069F062C06AF0120012001A0E06
:10E878000101006F010E0101016F26EC54F0010146
:10E88800406F18C10EF119C10FF11A0E0101106F76
:10E89800010E0101116F40C112F1000E0101136F49
:10E8A800010E0101146F000E0101156FF9EC45F01E
:10E8B8001200120093968A868986050E0101046F5C
:10E8C800260EE82EFED7042FFCD700D08996680EB6
:10E8D8000101046FE40EE82EFED7042FFCD700D008
:10E8E8008CEC79F0030E0101016FFE0E006FFF0E34
:10E8F8000101026FF3EC73F012001D0E01011C6F91
:10E908001AC11DF11BC11EF1030E0101426F18C18E
:10E918000EF119C10FF11C0E0101106F010E01015A
:10E92800116F42C112F1000E0101136F010E0101B6
:10E93800146F010E0101156FF9EC45F012000FC1BB
:10E9480006F110C107F1E90E0101086F010E01017E
:10E95800096F040E01010A6F38EC73F00101E569D3
:10E968000101E6690101E7690101E869E90E0101B0
:10E97800066F010E0101076FA4EC68F057EC79F0FF
:10E9880012000101016F010101510101D8B409D040
:10E998000001D151D8B413D0899C8B94898012007E
:10E9A8000ED0010100510101D8B409D00001D251A3
:10E9B800D8B405D0898C8B948990120000D0899C9A
:10E9C8008B84899012000001616F00016151000180
:10E9D800D8B409D00001D151D8B413D0899C8B94F4
:10E9E800898012000ED0000160510001D8B409D00E
:10E9F8000001D251D8B405D0898C8B94899012002B
:10EA080000D0899C8B84899012000101026F01015A
:10EA18000251020D000EF324D96E030EF420DA6EB3
:10EA2800DE04DE10D8A40FD001010251020D000E41
:10EA3800F324D96E030EF420DA6E000EDE6E000E9B
:10EA4800DD6E010E1200000E120012000101006FAF
:10EA5800010100510101D8A409D0D59E000ED76E3E
:10EA6800000ED66E850ED56ED58E1200030E0101EE
:10EA78000019D8A41200000EB36E000EB26E8C0EF0
:10EA8800B16EA292A192B180120012000101046F2E
:10EA980001010451D8090101056F05C102F13C0EBD
:10EAA800BAEC75F0C80E0101056F05C102F11A0E26
:10EAB800BAEC75F0000E0101056F05C102F13E0EBA
:10EAC800BAEC75F012000101005101010203F3CF05
:10EAD80004F1F4CF05F10101005101010303F350E2
:10EAE800010105270101015101010203F350010150
:10EAF800052704C100F105C101F11200120000014F
:10EB0800605100016203F3CF64F0F4CF65F00001B7
:10EB1800605100016303F350000165270001615152
:10EB280000016203F3500001652764C060F065C00E
:10EB380061F01200120001012C6F01012C5101013A
:10EB4800D8B404D0010E0101F76F1200000E0101C4
:10EB5800F76F010E0101276F680E266F010E010184
:10EB6800286F0F0E84EC6CF0120012000101036F85
:10EB780089940101035158EC77F0E40E00D000D0DD
:10EB8800E82EFCD700D000D00101025158EC77F0F4
:10EB9800E40E00D000D0E82EFCD700D000D0898445
:10EBA8001200000E01010C6F010E4EEC5BF001012A
:10EBB8000C1F01010D1F01010C4B0D2B3E0E010115
:10EBC8000C250101176F000E01010D210101186FBD
:10EBD800120012000101006F060E0101006102D04F
:10EBE800000E03D001010051FB0F0101016F070E58
:10EBF8000101016503D0070E0101016F01010151F7
:10EC080012001200000E0101056F000E0101066FCF
:10EC18000BD01C0EBBEC76F00101066F010106510A
:10EC2800020B0101056F00D0010105510101D8B4A3
:10EC3800F0D712000101026F000E0101016F3A0EB8
:10EC48000101026108D02F0E0101026504D0010EF6
:10EC58000101016F00D001C100F101010031120072
:10EC68001200000E0101276F010E266F010E01012F
:10EC7800286F020E84EC6CF0000E0101276F010E64
:10EC8800266F010E0101286F030E84EC6CF0120050
:10EC98000001626F000E0001616F3A0E00016261AF
:10ECA80008D02F0E0001626504D0010E0001616FCB
:10ECB80000D061C060F00001603112001200010153
:10ECC800DB2B0101DB514818D8A41200000E00010B
:10ECD800C86F000E0001606F000EE7EC74F0000EC4
:10ECE8000101DB6F000E486E12001200FDEC78F097
:10ECF800899E200E58EC77F00101075158EC77F007
:10ED08000101065158EC77F00101055158EC77F0F4
:10ED1800898ED9EC78F0120008C100F109C101F11F
:10ED28000101026B8E0E0101036F000E0101046FD9
:10ED38008BEC58F000C108F101C109F102C10AF1D8
:10ED4800120012000101006F080E0001CE611200CE
:10ED58000001CE51010D000EF324D96E020EF420ED
:10ED6800DA6E00C1DFFF0001CE2B12001200010194
:10ED7800046F89940101045140090101046F0101E4
:10ED8800045158EC77F070EC78F000C103F18984F5
:10ED980001010351120012000101036F03C100F1C8
:10EDA8000101016B240E0101026FABEC59F003C1A4
:10EDB80000F10101016B240E0101026FABEC59F067
:10EDC80012000001646F8994000164514009000138
:10EDD800646F000164516AEC77F07DEC78F060C0F4
:10EDE80063F0898400016351120012000101026F6F
:10EDF80001010251020D000EF324D96E030EF42016
:10EE0800DA6EDE50DE10D8A402D0010E1200000E19
:10EE18001200120001010F6F01010F510101F319D6
:10EE2800D8B4120001D012000EC104F101010F5133
:10EE380048EC49F00FC1F3F11200948C1A0EE82E39
:10EE4800FED700D08B8E949E8B9C949C1A0EE82E35
:10EE5800FED700D08B9E1A0EE82EFED700D01200E7
:10EE6800020E01010C6F0AC10DF10BC10EF10D0E5E
:10EE78000101066F010E0101076F0CC108F1B0EC2A
:10EE88006BF01200000E0101036F899E050E58EC0D
:10EE980077F070EC78F0010100510101036F898E61
:10EEA80001010351120012000101016FC9CF00F1E5
:10EEB8009E96C69E01C1C9FFC6BE120002D01200AE
:10EEC80000D09EB61200FDD7120012000001616F3B
:10EED800C9CF60F09E96C69E61C0C9FFC6BE12002B
:10EEE80002D0120000D09EB61200FDD71200120008
:10EEF8000101036F0001BC51D8B41200000E0101DA
:10EF0800016F020E006F03C102F1ABEC59F0120061
:10EF18001200E0C220F1200E0101176F010E01015D
:10EF2800186F010E0101196F010E01011A6F0EEC25
:10EF38004AF012000101066F01010651010B0001A0
:10EF4800D16F010106510E0B0101056F0101055139
:10EF5800F2EC77F01200D08EF290F28CF196F192EA
:10EF68000F015A9F0F015A9D0F015A9B0F015A9981
:10EF7800F286F190F28E12000001636F0001BC511D
:10EF8800D8B41200000E0001616F020E606F63C0FA
:10EF980062F038EC5AF012001200000162510201CE
:10EFA800D027000163510201D123000164510201FD
:10EFB800D223000165510201D32312000101006F21
:10EFC80001010051020D000EF324D96E030EF42046
:10EFD800DA6E000EDE6E000EDD6E12000101046FA7
:10EFE8000201B251F00B010104110201B26FB2C269
:10EFF80002F1340EBAEC75F012000101046F4F50A3
:10F00800D8A403D03F50D8B41200010104517CECBD
:10F0180077F012001200010E0101DF6F8CEC79F01D
:10F0280004C100F105C101F106C102F1F3EC73F06E
:10F038001200200E62EC57F0400E62EC57F0F4EC30
:10F0480078F006EC76F0600E62EC57F012000101E1
:10F05800006F00C1C2F1010100510101D8A41200E2
:10F06800010E0101F76F1200120001010151030B9B
:10F07800756E00C174FF7F9C7F9E7F8000F000F05A
:10F088007350120012008B9C949C1A0EE82EFED727
:10F0980000D0949E8B8E1A0EE82EFED700D0948C4A
:10F0A80012000001646F4F50D8A403D03F50D8B469
:10F0B800120000016451C0EC77F0120012003C0EFF
:10F0C800BBEC76F00101056F010105A102D0010E2C
:10F0D8001200000E12001200C9CF02F19E96000E17
:10F0E800C96E00D09EA6FED7C9CF00F10101016B01
:10F0F8001200C9CF62F09E96000EC96E00D09EA67F
:10F10800FED7C9CF60F00001616B12000101046FE6
:10F1180004C1B8F004C1B5F2B5C202F13A0EBAECB6
:10F1280075F012000101006F010100510101D8B40E
:10F1380002D0939612009386120012000101006F0C
:10F14800010100510101D8B402D08A8412008A94C6
:10F1580012001200010E0101276F2C0E266F010EFE
:10F168000101286F130E84EC6CF0120089848992D7
:10F1780070EC78F000C103F189820101035112009B
:10F1880012000101026F898489920101025158EC31
:10F1980077F0898212005228D8B402D0522A02D0BD
:10F1A800000E526E52501200120000D046EC77F05A
:10F1B8000101046F010104B1F9D7120000D046EC37
:10F1C80077F00101046F010104A3F9D712000101CE
:10F1D800496F48C12CF101014951CFEC25F01200CB
:10F1E800070E0101046F04C102F11C0EBAEC75F0A0
:10F1F8001200899E060E58EC77F0898EE2EC78F0C2
:10F20800120000C1CCF201C1CDF20201CE6BCF6B6E
:10F21800120015EC79F000C102F101C103F11200EE
:10F228001200D40E0101006F000E0101016F1200DF
:10F23800120002C100F103C101F139EC78F01200AB
:10F2480012000101066F010106512CEC79F0120041
:10F258000101056F010105518AEC78F01200C2A284
:10F2680002D0010E1200000E120012000308FF0166
:10F2780001FFFF3C010101011900070E0101016FA7
:10F28800006912001200280EE5EC76F0D3EC64F069
:10F2980012000201B2510E0B120012000101006FA0
:10F2A80000C1F4F112000101006F00C1CDF112009C
:10F2B800B3C100F1B4C101F11200D39ED18E030095
:10F2C80004001200B3C160F0B4C161F0120077C04D
:10F2D800B3F178C0B4F1120074EC79F012001200A6
:10F2E8000001C051120012000101C25112001200A7
:10F2F8000201D851120012000101F451120012004B
:10F308000001B851120012000001C451120012008D
:10F3180000D07FB2FED712000001C45112001200C3
:10F328000001C0511200120001FF00C201000403D5
:10F33800FFFFFFFFFA0E12001200000E120012006B
:08F34800C28212001200120043
:10FE68000001000A006400E80310270001020304EF
:10FE78000506000100100000010010656D57616C57
:10FE88006C5A2C322E3230342C312E33312C322C09
:10FE9800312C302C303030303030303030302C0095
:10FEA8003C453E4E6F7420416C6C6F7765642074DE
:10FEB8006F2073656E643C2F453E004D6173743A44
:10FEC80020307825303258253032582530325825A0
:10FED800303258200049443A2030782530325825AD
:10FEE800303258253032582530325820003C453EB3
:10FEF80073746279207768696C6520696E743C2F29
:10FF0800453E003C453E476F696E6720746F20543C
:10FF180058313C2F453E003C453E5265637620589B
:10FF28003220444154413C2F453E004669726D776A
:10FF38006172653A2076322E32303420003C453EDC
:10FF4800526563762058322042433C2F453E003CA0
:10FF5800543E476574526566726573683C2F543E1B
:10FF6800003031323334353637383941424344452D
:10FF7800460047726F75703A203078253032582025
:10FF8800003C543E526566726573683C2F543E00CF
:10FF98004E6F64653A203078253032582000436F20
:10FFA800723A202530325820004261743A202530B8
:10FFB8003458200053533A202530325820005070CE
:10FFC800723A2025692000547970653A20003C2F48
:10FFD80044413E003C2F55413E0057445253540083
:10FFE8003C44413E003C55413E0025632000424FC1
:08FFF8005200504F52000000BE
:020000040020DA
:08000000FFFFFFFFFFFFFFFF00
:020000040030CA
:0E0000001D981B36FF8980FF0FC00FE00F40D8
:00000001FF
