:040000000EEF00F00F
:0400080004EF04F00D
:100018000CEF04F086EF03F0000E276E000E036E5F
:10002800000E046E020E056E000E066E010E076EBF
:10003800000E086E000E096E000E0A6E270E0B6E7B
:10004800000E0C6E19EC02F02704D8A42FD1FF0E75
:100058001F6E000E206E000E216E000E226E000E26
:10006800236E000E246E000E256E000E266E000E06
:10007800036EF80E046E000E056E000E066E040E7A
:10008800076E000E086E000E096E000E0A6E1F0E37
:100098000B6E000E0C6E19EC02F0040E036EF80ED7
:1000A800046E000E056E000E066E040E076E000E3E
:1000B800086E000E096E000E0A6E230E0B6E000EFF
:1000C8000C6E19EC02F0000E306E000E286E080E51
:1000D800296E000E2A6E000E2B6E2B5067E12A0443
:1000E800D8B064D001D062D03050010D1B0EF3247B
:1000F800D96E000EF420DA6E000E2824036EF80E76
:100108002920046EFF0E2A20056EFF0E2B20066E96
:1001180036EC03F0DF6E3050010D1B0EF324D96E60
:10012800000EF420DA6EDF50166E16C017F0186A4B
:10013800196A1A6A1750235E1850245A1950255AFA
:100148001A50265A020E306421D030C016F0FD0E27
:100158001626030E1616D8A419D0FD0E166EFF0E1D
:10016800176E3050010D1650F3261750F4221B0E4F
:10017800F324D96E000EF420DA6EDE501F1ADE501A
:10018800201ADE50211ADD50221A00D0302A040E1F
:100198003018D8A402D0000E306E0400010E2826B4
:1001A800000E29222A222B2298D700D01F50201077
:1001B80021102210D8A47AD02350241025102610FC
:1001C800D8A474D0000E016E080E026E000E036EE5
:1001D800000E046EFF0E056EFF0E066E000E076E13
:1001E800000E086EDEEC01F0000E2C6E080E2D6E6F
:1001F800000E2E6E000E2F6E2F5055E12E04D8B033
:1002080052D001D050D0000E2C24036EF80E2D20B1
:10021800046EFF0E2E20056EFF0E2F20066E040EB4
:10022800076E000E086E000E096E000E0A6E1B0E99
:100238000B6E000E0C6E19EC02F02CC001F02DC0F4
:1002480002F02EC003F02FC004F0000E066E040E5C
:10025800056E1B0E076E000E086E5DEC01F00400C3
:100268002CC001F02DC002F02EC003F02FC004F006
:10027800290E056E000E066E000E076E000E086E43
:1002880053EC02F00150021003100410D8A403D05C
:100298006EEC03F000D0040E2C26000E2D222E2228
:1002A8002F22AAD700D0010E120000D0000E120093
:1002B8001200000E0D6E000E0E6E01C012F002C08C
:1002C80013F003C014F004C015F0060E096ED890A0
:1002D8000432033202320132092EF9D7060ED890C1
:1002E8000136023603360436E82EF9D7400E0126C9
:1002F800000E0222032204221250000801240D6E6F
:1003080054D012C00FF013C010F014C011F01FD059
:1003180007C0D9FF08C0DAFFDF500FC0F6FF10C0D2
:10032800F7FF11C0F8FFF56E0C00074A082A010E06
:100338000F26000E1022000E11220506D8A0060670
:1003480005500610D8B407D002D005D000D00D064D
:100358000D28D8A4DDD70FC00AF010C00BF011C0CB
:100368000CF012C00FF013C010F014C011F07F8E03
:100378007F9C7F84F2AE03D0F29E010E0E6E550E66
:100388007E6EAA0E7E6E7F827F940E50D8B403D004
:10039800F28E000E0E6E400E0D6E0A50126E0B504D
:1003A800136E0C50146E156A00D005500610D8A4B0
:1003B800A8D71200000E096E01C00AF002C00BF0A7
:1003C80003C00CF004C00DF025D00CC0F8FF0BC022
:1003D800F7FF0AC0F6FF7F8E7F9C7F847F88F2AE8E
:1003E80003D0F29E010E096E550E7E6EAA0E7E6E29
:1003F8007F820950D8B402D0F28E00D0400E0A2471
:100408000A6E000E0B200B6E000E0C200C6E000EF8
:100418000D200D6E05500A5C06500B5807500C58FD
:1004280008500D58D8A0D1D71200000E0D6E000E3E
:100438000E6E000E0F6E000E106E899E030E5DECA0
:1004480003F005505DEC03F004505DEC03F003503D
:100458005DEC03F0000E0D6E000E0E6E000E0F6EBA
:10046800000E106E10D00D500B24D96E0E500C20BB
:10047800DA6E7BEC03F0DF6E010E0D26000E0E2205
:100488000F22102200D007500D5C08500E5809505A
:100498000F580A501058D8A0E6D7898E1200055078
:1004A800061007100810D8B429D0010E096E07D01D
:1004B800D8900536063607360836092A00D008BE11
:1004C80002D0F6D700D00550015C065002580750FC
:1004D800035808500458D8A009D00550015E0650AA
:1004E800025A0750035A0850045A00D0D8900832CC
:1004F800073206320532092EE6D700D001C001F0D6
:1005080002C002F003C003F004C004F01200036E3E
:100518003F0EC716000EC66E0350C6120250C71211
:1005280005D0C78C15D0C78CC68812D00150000AD8
:10053800D8B4F7D7020AD8B4F6D7010AD8B4F4D792
:1005480007D09486928A0CD094860AD0949608D0C4
:100558000350040AD8B4F5D7010AD8B4F5D7F6D7AA
:100568009488949AC68A1200E3EC02F0000E016E99
:10057800800E026E020E8BEC02F093968A96010EA4
:10058800346E10EC00F000D04CEC03F00009D8A455
:1005980010D093968A86000E026EC80E016E0DEC7E
:1005A80003F09386000E026EC80E016E0DEC03F088
:1005B800F0D79386938600EF04F00EEF00F07C0EE0
:1005C800D36E9B8CD2909B8E200E926EBD0E936E36
:1005D800930E946E860E806E070E816E040E826EE8
:1005E800100E0F015D6F000E0F015C6FF19E0F0181
:1005F8005B810F015B930F015B950F015B970F0107
:100608005B990F015B9B0F015B9D0F015B9FD18085
:1006180012000FD0D00E036ECA0EE82EFED7032E9E
:10062800FCD7F60E0124016EFF0E0220026E0400B4
:1006380000D00250EFE10B0E015CD8A00ED0EAD733
:100648000CD0150E036EC60EE82EFED7032EFCD76F
:1006580000D00106D8A00206040001500210D8A458
:10066800F0D71200000E076E899E030E5DEC03F0B2
:1006780005505DEC03F004505DEC03F003505DECB5
:1006880003F07BEC03F0076E898E0750120012000E
:10069800000EF86E080EF76E000EF66E0800F5CF25
:1006A80001F00128D8A402D0000E1200010E120099
:1006B8001200026EC9CF01F09E96C69E02C0C9FF05
:1006C800C6BE120002D0120000D09EB61200FDD79E
:1006D800120012003450D8B404D09386000E346E41
:1006E800120093968A86010E346E12001200C9CF4A
:1006F80001F09E96000EC96E00D09EA6FED7C95086
:1007080012001200346A336A326A316A000EF86ED7
:060718000001B8EF02F041
:04080000F7EF04F01A
:10080800FACF80F0FBCF81F0E9CF82F0B3EF69F047
:10081800D8CF30F0E8CF31F0E0CF32F0FACF33F074
:10082800FBCF34F0E9CF35F0EACF36F0E1CF37F03F
:10083800E2CF38F0D9CF39F0DACF3AF0F3CF3BF046
:10084800F4CF3CF0F6CF3DF0F7CF3EF0F8CF3FF0D5
:10085800F5CF40F096D0000E436EF2A05ED081CF67
:1008680041F000F0F29041A855D0600E0101BE1988
:10087800D8A445D00101CE51D8A434D00101C85123
:10088800D8A430D0D8EC7CF00101F16F040E0D6EC5
:10089800010E8AEC68F00DC018F00EC019F0AFEC2C
:1008A8007CF0D3B606D001D004D0010E0101CF6F81
:1008B80000D08BEC7CF0AAEC7CF000019C51012666
:1008C80000019D51022201C003F002C004F0056A34
:1008D800066ABEEC7BF0010E0101BB6F010E01013F
:1008E800CE6F18D00101C851D8A414D001D012D0AD
:1008F800DCEC7CF000D0010E0101BC6F0BD0800E47
:100908000101BE19D8A406D0010E0101BD6FE7ECA4
:1009180079F000D0010E436E00D09EBA9DAA25D072
:1009280015EC79F0426E9E9AABA208D04F0EAB162A
:10093800AC9ACF0E9D16DEEC64F014D0ABB412D096
:1009480001D010D0A7B20ED001D00CD0000E026E8C
:10095800010E016E42C003F06AEC5BF0640E010107
:10096800CD6F00D0010E436E00D0F0A40DD0F1A6DB
:1009780002D0010E01D0000E0101CA6F00D0F1763D
:10098800F094010E436E00D04350D8A464D7A1B2AE
:10099800A0A206D0B190A192A09283EC5CF000D006
:1009A80040C0F5FF3FC0F8FF3EC0F7FF3DC0F6FF6F
:1009B8003CC0F4FF3BC0F3FF3AC0DAFF39C0D9FFAF
:1009C80038C0E2FF37C0E1FF36C0EAFF35C0E9FFB3
:1009D80034C0FBFF33C0FAFF32C0E0FF31C0E8FF8C
:1009E80030C0D8FF1000CDEF56F0000ED0B6010E83
:1009F8000201EC6F000ED0B2010E0201FF6F000E73
:100A0800D0B0010E0301EA6FBBEC65F0030E0001E4
:100A1800916FE80E906F91EC74F0030E0001916FE6
:100A2800F00E906F89EC7BF00101D26F0101D229A1
:100A3800D8B404D0010E02016D6F00D017EC5EF03F
:100A480004D0A0EC7CF017EC5EF09AC0B3F19BC028
:100A5800B4F100D00101B4BFF4D7080E0101B45DB0
:100A6800D8A0EFD746EC79F0360E0001916FB00EA2
:100A7800906F91EC74F000D0000E0001906F000EA2
:100A88000001916F020EC5EC74F00400C7EC3BF056
:100A98000400F5C290F00001916B44EC7CF03CEC52
:100AA8007AF0010E0101C16F0201EC510201D8A4D4
:100AB80013D0D90E0101076FFF0E0101086F3CEC3E
:100AC80033F0000E0001916F040E906F060E0001C6
:100AD800926FB4EC59F02CD00201FF510201D8B446
:100AE80018D00301EA510301D8A413D0F60E01016E
:100AF800076FFF0E0101086F3CEC33F0000E000198
:100B0800916F040E906F070E0001926FB4EC59F0CC
:100B18000FD00201FF510201D8A40AD0FA0E010138
:100B2800076FFF0E0101086F3CEC33F0D08200D054
:100B3800000EDFEC71F0C60E0101076FFF0E010118
:100B4800086F3CEC33F04C0E0101076FFE0E0101FB
:100B5800086F3CEC33F0F20E0101076FFF0E010144
:100B6800086F300E0101C6250101096F01010A6BEA
:100B7800000E0A233CEC33F07D0E0101076FFF0ED7
:100B88000101086FB3C109F1B4C10AF13CEC33F0BB
:100B9800A60E0101076FFE0E0101086FF2C209F1EE
:100BA80001010A6BF3C20BF101010C6BF4C20DF1E8
:100BB80001010E6BF5C20FF10101106B3CEC33F033
:100BC8008C0E0101076FFE0E0101086FF8C109F1D3
:100BD80001010A6BF9C10BF101010C6BFAC10DF1AE
:100BE80001010E6BFBC10FF10101106B3CEC33F0FE
:100BF800350E0101076FFF0E0101086FC8EC7CF08C
:100C08000301E36F0301E3510101096F0A6B3CEC37
:100C180033F0260E0101076FFF0E0101086FC9C1ED
:100C280009F101010A6B3CEC33F0D10E0101076FA9
:100C3800FE0E0101086F3CEC33F0720E0101076FE4
:100C4800FF0E0101086FD2C109F101010A6B3CECEA
:100C580033F0BD0E0101076FFF0E0101086F81BA65
:100C680002D0010E01D0000E0101096F0A6B3CECA5
:100C780033F0F20E0101056F020E0101066F92ECCE
:100C880077F056EC41F08DEC79F0000E01011C6F05
:100C98001E0E1B6F010E01011D6F040E14EC70F087
:100CA800000E0401FD6F000E0101006F000E016FC0
:100CB800020E026F000E036F010E0101046F000E99
:100CC800056F000E066F000E076FFD0E0101086F1D
:100CD800040E0101096FCBEC6DF00401FD05D8A4E9
:100CE8001ED0000E0401FD6F000E0101006F000E02
:100CF800016F020E026F000E036FFD0E0101046FFB
:100D0800040E0101056F010E0101066F000E076F49
:100D1800000E086F000E096FB0EC6EF000D0F20EF6
:100D28000001966F020E0001976FDC0E0001986FAC
:100D3800010E0001996F040E00019A6F15EC76F010
:100D48000009D8B403D00400FED700D0E6EC7CF04C
:100D5800000E0101C16F00D00101D551D8A432EFB6
:100D68000EF0000EF7EC77F00101DA51D8B402D09A
:100D7800FF0000D0000E0201846F04000101BA5187
:100D8800D8B485D00101BE51D8B41CD0FCEC78F0A1
:100D98000BC15EF20CC15FF202015F510CE11F0E44
:100DA80002015E5DD8B007D0000E01013E6F010E52
:100DB8006AEC1BF007D0000E01013E6F000E6AECD2
:100DC8001BF000D00101F3510101D8B426D0F80E70
:100DD8000101006F010E0101016FE80E0101026FB0
:100DE800040E0101036FD1EC45F00301E36F1F0E00
:100DF8000301E36112D0F80E0101106F010E010129
:100E0800116F000E0101126F80EC73F00009D8B465
:100E180004D0000E0101F36F00D0000E0101BA6F7B
:100E28003E0E28EC38F0E40E0001906F010E000130
:100E3800916F0EEC52F0BBEC43F0C0EC7CF0000973
:100E4800D8B425D00201EB510201D8B420D0010E4C
:100E58000101C16FA90E0101076FFF0E0101086FA3
:100E68004CEC7CF092C0D9FF93C0DAFFDF5003014D
:100E7800E36F0301E3510101096F0A6B3CEC33F0A6
:100E8800000E0101C16F000E0201EB6F00D0FCECF7
:100E980078F00BC15EF20CC15FF202015F5105E10F
:100EA800070E02015E5DD8A02AD002015F5127E13A
:100EB8001F0E02015E5DD8B022D00101D051D8B416
:100EC8001ED0EE0E0101066F040E0101076F850E9C
:100ED8000101086F030E0101096FBFC10AF1000E7D
:100EE80001010B6F010E01010C6F000E01010D6F66
:100EF800ACEC48F000D0000E0101D06F00D0010129
:100F0800BC51D8B409D0000E0101BC6F200E63ECAF
:100F180057F0600E63EC57F00101CE51D8B43AD0C7
:100F28009BEC7CF090C00BF191C00CF1040E010118
:100F3800006F010E0CEC5DF000C10DF101C10EF166
:100F480079EC7CF0000190C00FF1000191C010F124
:100F58000101116B126B4DEC65F00BC1ECF40CC187
:100F6800EDF44B0E0401EC5D010E0401ED59D8A01F
:100F780011D00101BB51D8B40AD00101C851D8A47D
:100F880006D0CEEC6FF0000E0101BB6F00D05BEC19
:100F980075F000D0470E0001986F030E0001996F9D
:100FA800E70E00019A6F010E00019B6FBEEC47F03F
:100FB8000009D8B452D0470E0101206F030E010179
:100FC800216FE7C122F1CFC123F1F1C124F16EEC09
:100FD80030F00009D8B43AD04A0E0101026F030E6E
:100FE8000101036FBC0E0101046F020E0101056FC0
:100FF800F70E0101066F040E0101076FF8EC6EF0A1
:101008000009D8B423D00B0E0401F66FBC0E010101
:10101800836F020E0101846F0401F651010D470E22
:10102800F3240101856F030EF4200101866F04018A
:10103800F65100080101E7250101876FF7C488F11F
:10104800000E0101896F0EEC15F000D0000E0101B1
:10105800CE6F000E0101CF6F00D0030E0101E4191D
:10106800D8A414D0030E0101E519D8A40FD0000E9E
:101078000101E46F000E0101E56F030E0001906F9E
:10108800010EEFEC7CF002016C8944D0020E0101E4
:10109800E519D8A40CD0000E0101E56F020E00017D
:1010A800906F010EEFEC7CF002016C8733D00101E8
:1010B800E505D8A40CD0000E0101E56F010E000172
:1010C800906F010EEFEC7CF002016C8523D0020ECC
:1010D8000101E419D8A40ED0000E0101E46F20EC40
:1010E80061F0020E0001906F000EEFEC7CF002013F
:1010F8006C8310D00101E405D8A40CD0000E0101C6
:10110800E46F010E0001906F000EEFEC7CF002011D
:101118006C8100D00101BD51D8B432D0000E01015C
:10112800BD6F800E0101BE19D8A418D00101D45199
:101138000101D8A404D00101D551D8B40FD0000EB4
:1011480063EC57F0000E0101D46FB30E0101076F75
:10115800FF0E0101086F3CEC33F010D0800E010146
:10116800BE19D8A40BD00101C851D8A407D0200EAD
:1011780063EC57F0600E63EC57F000D0040000D029
:10118800ACA21AD0000E0001916F020E906FE80E0B
:101198000001926F010E0001936FD9EC4FF0000926
:1011A800D8B406D00101E85197EC7BF0010E01D0CC
:1011B800000E0101DB6F00D0000E0001916F010EDF
:1011C800906FE80E0001926F010E0001936FD9EC49
:1011D8004FF00009D8B49AD1E8C190F0010EE3ECC1
:1011E8007CF00009D8A4AAD1270E0001906F040E44
:1011F8000001916FE60E0001926F010E0001936FDE
:101208000101E8518CEC75F00009D8B497D1140E9F
:101218000101F56193D1240E0101E619D8A48ED1FC
:10122800D00E04012D250001906F0001916BFF0E77
:101238009123030E0001936FE80E926F8EEC78F005
:1012480090C0F4F491C0F5F4D00E04012E250001ED
:10125800906F0001916BFF0E9123000E0001936FB8
:10126800640E926F8EEC78F0000190510401F4271F
:10127800000191510401F523D00E04012F2500012E
:10128800906F0001916BFF0E9123000E0001936F88
:101298000A0E926F8EEC78F0000190510401F42749
:1012A800000191510401F523D00E0301E36FFF0EF5
:1012B8000301E46F040130510301E56FE66B03019C
:1012C800E3510301E5270301E4510301E623030188
:1012D800E5510401F4270301E6510401F523010156
:1012E800C751D8A404D101D002D10F0E0401F419BA
:1012F80025E1270E0401F519D8A420D00101F551E4
:10130800020D000EF324D96E030EF420DA6E000EDF
:10131800DE6E000EDD6E000E0001946F020E936FFC
:10132800880E0001956FFF0E0001966F000E0001F8
:10133800986F0A0E976F47EC73F0D9D0000E04012E
:10134800F96F000EFA6F000EFB6F000EFC6F300E87
:1013580004013119D8A4CBD0300E04013219D8A415
:10136800C6D0300E04013319D8A4C1D0D00E040160
:1013780034250001906F0001916BFF0E000191234D
:101388000001926BFF0E000192230001936BFF0E88
:1013980000019323100E0001946F270E956F000E25
:1013A800966F000E976F5AEC72F090C0F9F491C0E6
:1013B800FAF492C0FBF493C0FCF4D00E0401352576
:1013C8000001906F0001916BFF0E9123030E000145
:1013D800936FE80E926F8EEC78F000019051040143
:1013E800F927000191510401FA23000E0401FB239F
:1013F800000E0401FC23D00E040136250001906F75
:101408000001916BFF0E9123000E0001936F640E93
:10141800926F8EEC78F0000190510401F9270001D9
:1014280091510401FA23000E0401FB23000E04016C
:10143800FC23D00E040137250001906F0001916B49
:10144800FF0E9123000E0001936F0A0E926F8EEC2F
:1014580078F0000190510401F9270001915104012D
:10146800FA23000E0401FB23000E0401FC23D00E16
:101478000301E36FFF0E0301E46F04013851030118
:10148800E56FE66B0301E3510301E5270301E4512E
:101498000301E6230301E5510401F9270301E6519D
:1014A8000401FA23000E0401FB23000E0401FC23AF
:1014B8000401FC5104E10401FB05D8A00AD0FF0E89
:1014C8000401F96FFF0EFA6F000EFB6F000EFC6F40
:1014D80000D00101F551020D000EF324D96E030E60
:1014E800F420DA6EF9C4DEFFFAC4DDFF00D0010192
:1014F800F551D8A408D00101C751D8B404D0000EC2
:101508000101C76F1BD00101F52B18D00101CD5186
:10151800D8B403D00101CD0700D00101CD51D8A422
:101528000DD0140E0101F519D8A408D00101EF510E
:10153800D8B404D0010E0101EB6F00D00101B951FC
:10154800D8B46BD104012851C00B0401FE6F04010B
:10155800FE45E846030B0401FE6FE90E0101076F23
:10156800FF0E0101086F3CEC33F00401FE51040149
:10157800D8A409D1000E0101C06FC0EC7CF00009AD
:10158800D8B43FD1270E0001906F040E0001916F6F
:10159800020E0001926FDC0E0001936F010E000134
:1015A800946F000E0001956F040E0001966F63ECB6
:1015B80071F00009D8B4BDD00A0E0101BF6FE0C1B7
:1015C80085F3E1C186F3E2C187F3E3C188F31D0E19
:1015D8000301896F2B0E03018A6F29C48BF32AC478
:1015E8008CF32BC48DF32CC48EF3010E0101C16F53
:1015F8000101E751FA0F0101E76F000E0001916F39
:10160800020E906F240E0001926FB4EC59F0000E98
:101618000001916F020E906F240E0001926FB4ECDE
:1016280059F0000E0001916F020E906F0101E75111
:10163800040F0001926FB4EC59F0000E0001916F95
:10164800020E906F000E0001926FB4EC59F0000E7C
:101658000401F26F000E0401F86F22D0000E0001A1
:10166800916F020E906F0401F851010D850EF3245D
:10167800D96E030EF420DA6EDF500001926FB4ECDD
:1016880059F00401F851010D850EF324D96E030EAB
:10169800F420DA6EDF500401F21B0401F82B00D0AD
:1016A800FF0E0301E36FFF0E0301E46F0101BF5159
:1016B8000301E56FE66B0301E3510301E52703012D
:1016C800E4510301E6230401F8510301E76FE86BD5
:1016D8000301E5510301E75D0301E851800A0301B5
:1016E800E96F0301E651800A0301E959D8A0B6D78A
:1016F800000E0001916F020E906FF2C492F0B4ECEC
:1017080059F0000E0001916F020E906F0D0E00014E
:10171800926FB4EC59F0000E0001916F020E906FB9
:101728000A0E0001926FB4EC59F0000E0101C16F6E
:1017380068D00101E651F80F0101BF6F020E0301E5
:10174800856F270E0001906F040E0001916F060E41
:101758000001926F850E0001936F030E0001946FD4
:10176800010E0001956FBFC196F066EC6EF029C4BA
:10177800EEF42AC4EFF42BC4F0F42CC4F1F4010EF7
:101788000101D06F3ED0020E0401FE19D8A439D051
:10179800020E0101C06FC0EC7CF00009D8B431D052
:1017A800290E0101026F040E0101036FE40E01010D
:1017B800046F040E0101056FF30E0101066F040E9C
:1017C8000101076FF8EC6EF00009D8B41AD02D0E9D
:1017D8000101836F040E0101846F310E0101856FD1
:1017E800040E0101866F0101E651F30F0101876FB5
:1017F800280E0101886F010E0101896F0EEC15F0AA
:1018080000D0000E0101B96FD30E0101076FFF0E62
:101818000101086F3CEC33F000D0010ED6EC77F0F4
:101828000009D8B41FD05B0E0101076FFF0E01013C
:10183800086F3CEC33F0050E01011C6FA00E1B6F06
:10184800020E01011D6F0C0E14EC70F00D0E12EC5F
:101858007BF00101D4510101D8B404D0000E01017C
:10186800D46F00D00A0ED6EC77F00009D8B420D097
:10187800F80E0001966F010E0001976FDC0E000153
:10188800986F010E0001996F040E00019A6F15EC14
:1018980076F00009D8A40CD0F80E0101106F010EE3
:1018A8000101116F000E0101126F19EC3AF000D01E
:1018B8000B0ED6EC77F00009D8B415D0000E020153
:1018C800476F000E466F000E0201496F000E486F09
:1018D800000E0201616F000E606F000E0201636F5F
:1018E800000E626F00D0000ED6EC77F00009D8B475
:1018F80004D0000E02016C6F00D00B0E50EC7AF091
:101908000009D8B40BD0050E01011C6FA00E1B6F87
:10191800020E01011D6F0B0E14EC70F00A0E50EC54
:101928007AF000D002013B5105E10B0E02013A5D4D
:10193800D8A014D04F0E0101076FFF0E0101086FE8
:101948003CEC33F0070E1CEC5FF0000E7BEC7BF0F8
:10195800000E02013B6F000E3A6F00D00101C35127
:10196800D8B40AD0000E0101016F240E006F15ECE7
:101978006AF00101C30700D0010E0101D8650DD03E
:10198800160E0101076FFF0E0101086FD8C109F19A
:1019980001010A6B3CEC33F000D0000E0101D86F56
:1019A8000C0E50EC7AF00009D8B40CD0050E0101E9
:1019B8001C6FA00E1B6F020E01011D6F0C0E14ECA4
:1019C80070F000D002017D51D8B41ED0050E01017F
:1019D8001C6FA00E1B6F020E01011D6F0C0E14EC84
:1019E80070F0000E02017D6F0101BE51D8B40CD019
:1019F8000101C2510101D8A407D0000E0101D46F22
:101A08000D0E12EC7BF000D00C0ED6EC77F000092E
:101A1800D8B414D0F40E0101076FFE0E0101086F4F
:101A28003CEC33F0040E01011C6FB00E1B6F010E6D
:101A380001011D6F0D0E14EC70F000D00D0ED6ECE8
:101A480077F00009D8B414D0050E0101076FFF0E16
:101A58000101086F3CEC33F0020E01011C6F580EB7
:101A68001B6F010E01011D6F0C0E14EC70F000D0FD
:101A7800110ED6EC77F00009D8B406D0010E01019A
:101A8800D66F93EC2DF000D0100ED6EC77F000094D
:101A9800D8B41DD0C0EC7CF00009D8A418D001013E
:101AA800F4510101D8B404D01DEC72F0000E0CD032
:101AB800F80E0101106F010E0101116F010E0101F5
:101AC800126F19EC3AF0010E0101F46F00D0100EFC
:101AD80050EC7AF00009D8B40CD0000E01011C6F4C
:101AE8001E0E1B6F010E01011D6F100E14EC70F01D
:101AF80000D00101B4BF05D0080E0101B45DD8B013
:101B080016D00101C2510101D8B404D00101BE515F
:101B1800D8B483D09E0E0101076FFF0E0101086F34
:101B28003CEC33F075D0010E0101D46F76D0010181
:101B3800C2510101D8B410D00101C2510101D8B479
:101B48005ED00101B4BF5BD07D0E0101B35D080E0C
:101B58000101B459D8A053D0000E0101C26F010E83
:101B680025EC74F00001905100019111D8B417D000
:101B78000101BE51D8B451D001D04FD00101D45188
:101B88000101D8A44AD0010E0101D46FDF0E010172
:101B9800076FFF0E0101086F3CEC33F03ED00D0ECD
:101BA80025EC74F00001905100019111D8B417D0C0
:101BB8000101BE51D8B431D001D02FD00101D45188
:101BC8000101D8A42AD0010E0101D46FFB0E010136
:101BD800076FFE0E0101086F3CEC33F01ED00101C7
:101BE800BE51D8A41AD05F0E0101076FFF0E010184
:101BF800086F3CEC33F0000EDFEC71F00ED0010101
:101C0800C2510101D8B409D00101BE51D8B405D0E0
:101C1800010E0101C26F87D700D0040E0101006FC9
:101C2800000E26EC66F000C138F201C139F202015B
:101C380038510201485D0201395102014959D8B0B1
:101C480009D002018451D8A405D038C248F239C25B
:101C580049F200D0BAEC75F0B0EF06F073EC6AF018
:101C68000009D8B4B0EF06F0A0EC7CF0010E010139
:101C7800DA6FB0EF06F0F7EF04F021C115F122C1D9
:101C880016F128C117F125C196F026C197F027C192
:101C980098F08EEC58F00101186F000E0101196FD1
:101CA8009FEC3EF001014B6F21C196F022C197F0E5
:101CB80023C198F024C199F0040E00019A6FB9EC81
:101CC80076F0010129510101D8A410D021C196F064
:101CD80022C197F0FA0E0001986F020E0001996F69
:101CE800040E00019A6FB9EC76F000D0010E0101E4
:101CF80027650BEF15F025C1D9FF26C1DAFFDE04F1
:101D0800D8A466D1050E0101276562D1F90E01013B
:101D180027250001906F0001916BFF0E9123000EA3
:101D28000001936F050E926FD1EC6AF0000190519B
:101D380000019111D8A44CD1FF0E01012A6FFF0EAA
:101D480001012B6F0101275101012C6F2D6B01013E
:101D58002A5101012C2701012B5101012D230101D9
:101D68002C5101012525D96E01012D510101262192
:101D7800DA6E0101C951DE18D8B424D0FF0E010172
:101D88002A6FFF0E01012B6F0101275101012C6FF2
:101D98002D6B01012A5101012C2701012B51010151
:101DA8002D2301012C5101012525D96E01012D5149
:101DB80001012621DA6EDE28D8A40BEF15F002D037
:101DC8000BEF15F0000E01014D6F010E4C6FE7D0BF
:101DD800050E01014C2501012A6F000E01014D215C
:101DE80001012B6F0101275101012C6F2D6B01019E
:101DF8002A5101012C5D01012D51800A01012E6F2C
:101E080001012B51800A01012E59D8A082D001016D
:101E18004DBF7FD001014D5105E1060E01014C5D1A
:101E2800D8A077D025C190F026C191F04CC192F08E
:101E3800340E0001936F010E0001946F000E000133
:101E4800956F040E0001966F66EC6EF0040E0101AA
:101E58004C2501012A6F000E01014D2101012B6F54
:101E680001012A5101012525D96E01012B510101DA
:101E78002621DA6EDF5001012C6F050E01012D6F4E
:101E88000101D8902C3301012D2FFAD701012C51D3
:101E9800070B0101406F040E01014C2501012A6F57
:101EA800000E01014D2101012B6F01012A51010191
:101EB8002525D96E01012B5101012621DA6EDF504B
:101EC8001F0B0101486F1E0E0101486506D0000E68
:101ED8000101436F1F0E426F0AD0010E0101482510
:101EE8000101426F0101436B000E432300D0340E01
:101EF8000101096F010E01010A6F4BC10BF142C1CB
:101F08000CF140C10DF1000E01010E6FD8EC1FF06D
:101F18003CD001014C0501014D11D8A436D025C192
:101F280090F026C191F0010E0001926FE00E0001C1
:101F3800936F010E0001946F000E0001956F040E5F
:101F48000001966F63EC71F00009D8B41ED021C16E
:101F580002F122C103F1040E01014C2501012A6F8F
:101F6800000E01014D2101012B6F01012A510101D0
:101F78002525D96E01012B5101012621DA6EDF508A
:101F88000101046F84EC6CF000D0050E01014C25B2
:101F980001014C6F000E01014D2101014D6F01013E
:101FA800275101012A6F2B6B01012A5101014C5D58
:101FB80001014D51800A01012C6F01012B51800A4A
:101FC80001012C59D8B00BEF15F002D70BEF15F023
:101FD80025C1D9FF26C1DAFF020EDE18D8A423D006
:101FE800010120EE02F02551D9262651DA22DE50D1
:101FF80002018F19D8A40BEF15F0000E0201866FAD
:10200800000E0201B96F020E0201BA6F000E000144
:10201800CB6F510E010128610BEF15F0010E020183
:102028007A6F0BEF15F025C1D9FF26C1DAFF020E32
:10203800DF640BEF15F00B0E010127650BEF15F0B0
:10204800010E02017D6F000EC6EC78F0010120EE52
:1020580002F02551D9262651DA22DE5002018F19C5
:10206800D8A40AD0000E0201866F000E0201B96FD3
:10207800020E0201BA6F00D0010120EE01F02551D5
:10208800D9262651DA22DE5002018F19D8A498D118
:10209800870E0001906F020E0001916F000E000183
:1020A800926F25C193F026C194F0030E0001956F3D
:1020B800040E0001966F63EC71F00009D8B480D16A
:1020C800010120EE01F02551D9262651DA22DF50F0
:1020D8000001A66F010E0001B36F21C196F022C165
:1020E80097F0EE0E0001986F020E0001996F040E32
:1020F80000019A6FB9EC76F0010120EE07F0255146
:10210800D9262651DA220101E051DE18D8A424D0BC
:10211800010120EE08F02551D9262651DA220101C5
:10212800E151DE18D8A418D0010120EE09F025519C
:10213800D9262651DA220101E251DE18D8A40CD0A2
:10214800010120EE0AF02551D9262651DA22010193
:10215800E351DE18D8B434D125C1D9FF26C1DAFF3E
:10216800040EDE18D8B429D101D027D125C190F0AA
:1021780026C191F0030E0001926FE00E0001936FEB
:10218800010E0001946F000E0001956F040E00010E
:10219800966F63EC71F00009D8A40FD101D00DD16E
:1021A800010120EE0BF02551D9262651DA22020131
:1021B800BB51DE5CD8B003D0000E1200FED0CDC2F9
:1021C80044F1CEC245F1CFC246F1D0C247F125C194
:1021D80090F026C191F0070E0001926F380E0001B1
:1021E800936F010E0001946F000E0001956F040EAD
:1021F8000001966F66EC6EF0380E0101006F010E5B
:102208000101016F440E0101026F010E0101036F0C
:10221800D1EC45F00101416F01014969440E00010B
:10222800966F010E0001976FDC0E0001986F010E8A
:102238000001996F040E00019A6F15EC76F0000901
:10224800D8A40AD0440E0101026F010E0101036FE8
:10225800A1EC71F00101496F870E0001966F020E23
:102268000001976FF60E0001986F020E0001996F3A
:10227800040E00019A6FB9EC76F08FC2EAF204EC12
:102288007CF002018F6F040E0201906F060E0201AE
:10229800866F000E0201B96F020E0201BA6F25C1E6
:1022A80090F026C191F0030E0001926F8B0E000191
:1022B800936F020E0001946F000E0001956F040EDB
:1022C8000001966F66EC6EF0E00E0001966F010E4D
:1022D8000001976F870E0001986F020E0001996F39
:1022E800040E00019A6FB9EC76F0000E0201BB6F84
:1022F8001D0E0201916F2B0E0201926F380E000124
:10230800906F010E0001916F000E0001926F910E07
:102318000001936F020E0001946F020E0001956F89
:10232800040E0001966F66EC6EF0440E0001906F8B
:10233800010E0001916F000E0001926F910E0001D5
:10234800936F020E0001946F060E0001956F040E44
:102358000001966F66EC6EF021C190F022C191F0F9
:10236800000E0001926F910E0001936F020E0001A2
:10237800946F0A0E0001956F040E0001966F66ECCB
:102388006EF041C19FF249C1A0F201014951060D09
:10239800040EF326000EF422BD0EF324D96E0A0EA5
:1023A800F420DA6EDF500F0B0201A16F110E02014B
:1023B800B76F000E0001CB6F00D0000E120000D0E6
:1023C80002018651D8A408D00001B351D8A404D082
:1023D8000201B851D8B44ED08B0E0001966F020E90
:1023E8000001976F030E010125250001986F000E6B
:1023F800010126210001996F040E00019A6F15EC66
:1024080076F00009D8B433D002018651D8B42FD061
:102418000001B351D8A42BD00201B851D8A427D0B9
:10242800010120EE01F02551D9262651DA220201B8
:10243800EA51DE18D8A41ED0F60E0001906F020EE5
:102448000001916F000E0001926F25C193F026C123
:1024580094F0030E0001956F040E0001966F63EC73
:1024680071F00009D8B406D0000E120003D0000E97
:10247800120000D0010120EE07F02551D92626517F
:10248800DA220101E051DE18D8A424D0010120EE9F
:1024980008F02551D9262651DA220101E151DE182A
:1024A800D8A418D0010120EE09F02551D9262651CB
:1024B800DA220101E251DE18D8A40CD0010120EE85
:1024C8000AF02551D9262651DA220101E351DE18F6
:1024D800D8B4D0D0010120EE0BF02551D9262651D1
:1024E800DA221F0EDE18D8A402D0000E1200870EC2
:1024F8000001966F020E0001976FF60E0001986FAB
:10250800020E0001996F040E00019A6FB9EC76F083
:102518008FC2EAF2010120EE01F02551D926265199
:10252800DA22DF5002018F6F25C1D9FF26C1DAFFF9
:10253800DF500201906F060E0201866F000E020145
:10254800B96F020E0201BA6F25C190F026C191F051
:10255800070E0001926F8B0E0001936F020E0001AF
:10256800946F000E0001956F040E0001966F66ECE3
:102578006EF025C190F026C191F0030E0001926F14
:10258800870E0001936F020E0001946F000E000188
:10259800956F040E0001966F66EC6EF0010120EE57
:1025A8000BF02551D9262651DA22DF5001012A6F76
:1025B80001012A290201BB6F25C190F026C191F0C3
:1025C8000C0E0001926F910E0001936F020E000134
:1025D800946F000E0001956F01012751F40F00015F
:1025E800966F66EC6EF001012751F40F0201B76F88
:1025F800000E0001CB6F010120EE01F02551D92614
:102608002651DA22DF500001A66F010E0001B36FD8
:1026180021C196F022C197F0EE0E0001986F020ECC
:102628000001996F040E00019A6FB9EC76F021C190
:1026380015F122C116F128C117F1010E0101186F19
:10264800010E0101196F9FEC3EF001014B6F870EDF
:102658000101096F020E01010A6F4BC10BF1BBC2E8
:102668000CF1000E01010D6F010E01010E6FD8EC87
:102678001FF0CDD1870E0001966F020E0001976FF3
:10268800F60E0001986F020E0001996F040E00010A
:102698009A6FB9EC76F08FC2EAF2010120EE01F0F0
:1026A8002551D9262651DA22DF5002018F6F25C124
:1026B800D9FF26C1DAFFDF500201906F000E020138
:1026C800866F000E0201B96F020E0201BA6F25C1B2
:1026D80090F026C191F0070E0001926F8B0E000159
:1026E800936F020E0001946F000E0001956F040EA7
:1026F8000001966F66EC6EF025C190F026C191F04E
:10270800030E0001926F870E0001936F020E000105
:10271800946F000E0001956F040E0001966F66EC31
:102728006EF025C190F026C191F0030E0001926F62
:1027380023C193F024C194F0000E0001956F040E9C
:102748000001966F66EC6EF0010120EE0BF025514A
:10275800D9262651DA22DF5001012A6F01012A29E0
:102768000201BB6F25C190F026C191F00C0E00014B
:10277800926F910E0001936F020E0001946F000E8C
:102788000001956F01012751F40F0001966F66EC67
:102798006EF001012751F40F0201B76F010120EE1D
:1027A80001F02551D9262651DA22DF500001A66F03
:1027B800010E0001B36F21C196F022C197F0EE0E11
:1027C8000001986F020E0001996F040E00019A6FC4
:1027D800B9EC76F0000E0001CB6F21C115F122C1D2
:1027E80016F128C117F1010E0101186F010E010140
:1027F800196F9FEC3EF001014B6F870E0101096FC5
:10280800020E01010A6F4BC10BF1BBC20CF1000EA5
:1028180001010D6F010E01010E6FD8EC1FF0090EBA
:1028280002019019D8A405D00201925164EC7CF001
:10283800EED002019139E842070B01014A6F01010C
:102848004A510101D8B41ED00101C651D8B41AD0DA
:102858000D0E010125250001906F000E01012621B2
:102868000001916FF30E010127250001926F00010D
:10287800936BFF0E93234AC194F093EC62F0010E20
:102888001200C5D001014A510101D8A409D00101A3
:10289800C651D8A405D0F3D703D0F1D71200B7D0CA
:1028A800020191511F0B0C0AD8B4E9D702019151CA
:1028B8001F0B1E0AD8A407D002019251D8A403D036
:1028C800DED71200A4D0D1C23CF1D2C23DF1D3C2AE
:1028D8003EF1D4C23FF125C190F026C191F0070E18
:1028E8000001926F2F0E0001936F010E0001946F8B
:1028F800000E0001956F040E0001966F66EC6EF0F5
:102908002F0E0101006F010E0101016F3C0E010144
:10291800026F010E0101036FD1EC45F0010133692B
:102928003C0E0001966F010E0001976FDC0E00014E
:10293800986F010E0001996F040E00019A6F15EC53
:1029480076F00009D8A40AD03C0E0101026F010EEE
:102958000101036FA1EC71F00101336F870E0001D3
:10296800966F020E0001976FF60E0001986F020E27
:102978000001996F040E00019A6FB9EC76F08FC2CE
:10298800EAF204EC7CF002018F6F040E0201906FF2
:10299800060E0201866F000E0201B96F020E0201D7
:1029A800BA6F25C190F026C191F0030E0001926F15
:1029B8008B0E0001936F020E0001946F000E000150
:1029C800956F040E0001966F66EC6EF0E00E000144
:1029D800966F010E0001976F870E0001986F020E27
:1029E8000001996F040E00019A6FB9EC76F0000EA1
:1029F8000201BB6F1D0E0201916F2C0E0201926F36
:102A0800020E0201B76F000E0001CB6F00D0000E5E
:102A18001200120083C121F184C122F19A0E010132
:102A2800236F010E0101246F85C125F186C126F1AE
:102A380087C127F188C128F189C129F141EC0EF03D
:102A48000009D8B41200000E0101996F010120EEAF
:102A58000CF08551D9268651DA22DF501F0B01016F
:102A68009E6F0101A0691B0E01019E650BD001013B
:102A780020EE0DF08551D9268651DA22DF5001016A
:102A8800A06F00D0000E0101926F0C0E0101852588
:102A98000001906F000E010186210001916F020E66
:102AA8000001926F0C0E010185250001936F000E45
:102AB800010186210001946F060E0001956F040E36
:102AC8000001966F63EC71F00009D8B426D00C0EA3
:102AD800010185250001906F000E0101862100018A
:102AE800916F060E0001926F0C0E01018525000101
:102AF800936F000E010186210001946F0A0E0001F8
:102B0800956F040E0001966F63EC71F00009D8B45C
:102B180004D0010E0101926F00D092C1A1F1000E04
:102B28000101936F0C0E010185250001906F000EC5
:102B3800010186210001916F030E0001926F0C0EB6
:102B4800010185250001936F000E01018621000116
:102B5800946F070E0001956F040E0001966F63ECE9
:102B680071F00009D8B426D00C0E010185250001AA
:102B7800906F000E010186210001916F070E000180
:102B8800926F0C0E010185250001936F000E010163
:102B980086210001946F0B0E0001956F040E000151
:102BA800966F63EC71F00009D8B404D0010E0101EE
:102BB800936F00D093C194F1EBEF19F007EF1AF07F
:102BC8001AD007EF1AF0190E01018719D8A407EFD8
:102BD8001AF00D0E010185250101106F000E01018B
:102BE80086210101116F000E0101126F80EC73F054
:102BF80007EF1AF044D0010E0101996F07EF1AF0A0
:102C0800010120EE0EF08551D9268651DA22410EB7
:102C1800DE18D8A4F8D3010120EE0FF08551D9268B
:102C28008651DA22530EDE18D8A4EDD3010120EE26
:102C380010F08551D9268651DA22460EDE18D8A41E
:102C4800E2D3B80E0001966F030E0001976F110EC4
:102C5800010185250001986F000E01018621000100
:102C6800996F0B0E00019A6F15EC76F00009D8B435
:102C7800CAD3000E0101D66F93EC2DF0C4D3010125
:102C8800A051030AD8B4B7D7290AD8B4B9D7BBD347
:102C980006D10101A1510101D8B4B5D30E0E01012D
:102CA80085250101106F000E010186210101116FB8
:102CB800000E0101126F80EC73F0A5D3010194514D
:102CC8000101D8B417D00F0E010185250101146F39
:102CD800000E010186210101156F010120EE0EF0A1
:102CE8008551D9268651DA22DF500101166FC6ECCC
:102CF80052F089D39A0E0101106F010E0101116F74
:102D08002D0E0101126F010120EE01F08551D92627
:102D18008651DA22DF500101136F70EC77F073D31C
:102D2800010194510101D8B417D00F0E0101852576
:102D38000101066F000E010186210101076F0101E3
:102D480020EE0EF08551D9268651DA22DF50010196
:102D5800086F58EC4EF057D39A0E0101106F010E10
:102D68000101116F2D0E0101126F010120EE01F01A
:102D78008551D9268651DA22DF500101136F70EC94
:102D880077F041D30101A1510101D8A43CD301D06E
:102D98003AD39A0E0101106F010E0101116F2D0E29
:102DA8000101126F010120EE01F08551D9268651EB
:102DB800DA22DF500101136F70EC77F024D30101A0
:102DC800A1510101D8B41FD30E0E010185250101BF
:102DD800106F000E010186210101116F4DEC77F093
:102DE80012D3010120EE0EF08551D9268651DA2240
:102DF800520EDE18D8A419D0010120EE0FF085512B
:102E0800D9268651DA22530EDE18D8A40ED0010135
:102E180020EE10F08551D9268651DA22490EDE18A7
:102E2800D8A403D054EC7CF0EED29A0E0101106FB6
:102E3800010E0101116F2D0E0101126F010120EE2B
:102E480001F08551D9268651DA22DF500101136F2E
:102E580070EC77F0D8D20101A1510101D8B4D3D2D6
:102E68000E0E010185250101106F000E010186215A
:102E78000101116F41EC76F0C6D20101A1510101A7
:102E8800D8B4C1D20E0E010185250101106F000EC4
:102E9800010186210101116F29EC6DF0B4D2010105
:102EA800A051000AD8B4F5D6040AD8B4ACD2240A82
:102EB800D8B404D7010AD8B433D7030AD8B462D730
:102EC800010AD8B47CD7070AD8B48BD7010AD8B47A
:102ED800C2D70B0AD8B4D1D796D25BD20E0E010155
:102EE80085250101236F000E010186210101246F50
:102EF8003AEC3DF09A0E0101106F010E0101116FBD
:102F08004DEC77F080D285C190F086C191F00E0E1D
:102F18000001926FF80E0001936F010E0001946F8B
:102F2800000E0001956F040E0001966F66EC6EF0BE
:102F38000D0E010185250101106F000E010186218A
:102F48000101116F41EC76F05ED285C190F086C127
:102F580091F00E0E0001926F85C193F086C194F036
:102F6800170E0001956F040E0001966F63EC71F067
:102F78000009D8B499D085C190F086C191F0170E98
:102F88000001926F85C193F086C194F0200E000174
:102F9800956F040E0001966F63EC71F00009D8B4C8
:102FA80083D085C190F086C191F0120E0001926F16
:102FB80085C193F086C194F01B0E0001956F040E35
:102FC8000001966F63EC71F00009D8B46DD085C12B
:102FD80090F086C191F01B0E0001926F85C193F0AD
:102FE80086C194F0240E0001956F040E0001966FBF
:102FF80063EC71F00009D8B457D0010120EE1FF03E
:103008008551D9268651DA22010110EE16F0855134
:10301800E1268651E222DE50E618D8A445D0010107
:1030280020EE28F08551D9268651DA22010110EECA
:103038001FF08551E1268651E222DE50E618D8A419
:1030480033D00E0E0101852501011E6F000E01010E
:10305800862101011F6F120E010185250101206FD4
:10306800000E010186210101216F010120EE16F0F9
:103078008551D9268651DA22DF500101226F6BEC87
:1030880076F09A0E0101106F010E0101116F0E0EFC
:10309800010185250101126F000E01018621010140
:1030A800136F54EC51F0AFD19A0E0101106F010E5D
:1030B8000101116F2D0E0101126F010120EE01F0C7
:1030C8008551D9268651DA22DF500101136F70EC41
:1030D80077F099D10E0E010185250001986F000E39
:1030E800010186210001996F2BEC6BF09A0E01010A
:1030F800106F010E0101116F010E0101126F80ECBA
:1031080073F081D1010120EE0EF08551D926865148
:10311800DA22520EDE18D8A476D1010120EE0FF083
:103128008551D9268651DA22530EDE18D8A46BD1E0
:10313800010120EE10F08551D9268651DA22540E6D
:10314800DE18D8A460D1FF005ED1010120EE0EF098
:103158008551D9268651DA22530EDE18D8A453D1C8
:10316800010120EE0FF08551D9268651DA22460E4C
:10317800DE18D8A448D1010120EE10F08551D926D7
:103188008651DA22540EDE18D8A43DD19A0E0101D8
:10319800106F010E0101116F7AEC6DF0010120EE44
:1031A80011F08551D9268651DA22DF500101F06FDE
:1031B800150E01011C6F7C0E1B6F000E01011D6FA7
:1031C800110E14EC70F01FD1010120EE0EF08551A4
:1031D800D9268651DA22530EDE18D8A458D0010118
:1031E80020EE0FF08551D9268651DA22520EDE18CC
:1031F800D8A44DD0010120EE10F08551D926865172
:10320800DA22460EDE18D8A442D0010120EE11F0D1
:103218008551D9268651DA22040EDF6038D00101A3
:1032280020EE11F08551D9268651DA22DF500101AE
:10323800916F010120EE12F08551D9268651DA22CC
:10324800DF5001018A6F01018A510101966F976B66
:10325800010196510101976F966B010120EE13F061
:103268008551D9268651DA22DF5001018A6F010182
:103278008A5101019627000E972396C11BF197C129
:103288001CF191C11DF1010E14EC70F0BCD09A0E26
:103298000101106F010E0101116F2D0E0101126F56
:1032A800010120EE01F08551D9268651DA22DF503E
:1032B8000101136F70EC77F0A6D00101A151010153
:1032C800D8B4A1D0010120EE1BF08551D926865132
:1032D800DA22DF5001018A6F01018A510101AF6FC3
:1032E800B06B0101AF510101B06FAF6B010120EE6E
:1032F8001AF08551D9268651DA22DF5001018A6FEA
:1033080001018A510101AF27000EB0230101AF0569
:10331800090E0101B059D8A006D0000E0101B06F06
:10332800000EAF6F70D0010120EE1CF08551D92638
:103338008651DA22DF500101F06F0E0E010185255A
:103348000101106F000E010186210101116F0EECC1
:1033580073F0010120EE1DF08551D9268651DA223D
:10336800DF500201C06F1E0E010185250001966F16
:10337800000E010186210001976FB80E0001986FB9
:10338800030E0001996F0B0E00019A6FB9EC76F0ED
:103398003AD00101A051040AD8B48FD7270AD8B46B
:1033A8009DD5060AD8B4AFD5030AD8B4CED5010A3C
:1033B800D8B490D60F0AD8B4A5D6010AD8B423D069
:1033C800030AD8B4C2D66A0AD8B4FED61CD0010102
:1033D8009E51000AD8B417D0020AD8B40CD4060AF1
:1033E800D8B411D0080AD8B4E7EF15F0100AD8B449
:1033F8000AD0010AD8B443D4030AD8B450D5010A74
:10340800D8B4C7D700D0010199510101D8A420D060
:103418000C0E0101852501017A6F000E010186213C
:1034280001017B6F88C17CF19A0E01017D6F010E4D
:1034380001017E6F9EC17FF1A0C180F1010187511A
:10344800F40F0101816F37EC4BF00101996F00D047
:10345800010199510101D8B41200E40E0101076F6E
:10346800FF0E0101086F3CEC33F00101C051D8A4F4
:1034780023D1010E0101C16F01018751FD0F010127
:10348800956F000E0001916F020E906F240E0001DF
:10349800926FB4EC59F0000E0001916F020E906F1C
:1034A800240E0001926FB4EC59F0000E0001916FE8
:1034B800020E906F95C192F0B4EC59F0000E000125
:1034C800916F020E906F000E0001926FB4EC59F0EC
:1034D800000E0101986F000E0001916F020E906FAF
:1034E800010120EE03F08551D9268651DA22DF50FA
:1034F8000001926FB4EC59F0010120EE03F0855100
:10350800D9268651DA22DF500101981B000E0001EE
:10351800916F020E906F010120EE04F08551D926BB
:103528008651DA22DF500001926FB4EC59F00101A4
:1035380020EE04F08551D9268651DA22DF500101A8
:10354800981B000E0001916F020E906F010120EE92
:1035580005F08551D9268651DA22DF500001926F95
:10356800B4EC59F0010120EE05F08551D9268651B9
:10357800DA22DF500101981B000E0001916F020E44
:10358800906F010120EE06F08551D9268651DA2286
:10359800DF500001926FB4EC59F0010120EE06F003
:1035A8008551D9268651DA22DF500101981B000E79
:1035B80001019F6F38D0000E0001916F020E906FCD
:1035C80001019F5101018A6F8B6B0C0E01018A2743
:1035D800000E8B2301018A5101018525D96E010155
:1035E8008B5101018621DA6EDF500001926FB4EC35
:1035F80059F001019F5101018A6F8B6B0C0E01017B
:103608008A27000E8B2301018A5101018525D96E75
:1036180001018B5101018621DA6EDF500101981BEF
:1036280001019F2B00D0F70E01018A6FFF0E0101E7
:103638008B6F0101955101018C6F8D6B01018A51CE
:1036480001018C2701018B5101018D2301019F513B
:1036580001018E6F8F6B01018C5101018E5D01019B
:103668008F51800A0101906F01018D51800A01017B
:103678009059D8A0A0D7000E0001916F020E906F4C
:1036880098C192F0B4EC59F0000E0001916F020E4F
:10369800906F0D0E0001926FB4EC59F0000E00010E
:1036A800916F020E906F0A0E0001926FB4EC59F000
:1036B800000E0101C16F00D0CD0E0101076FFF0E92
:1036C8000101086F3CEC33F01200120001014E6F4B
:1036D80002018651D8A414D00001B351D8A410D047
:1036E8000201B851D8A40CD001013E05D8A408D0D5
:1036F800010E01013C6F01014E512AEC7CF008D00B
:10370800000E01013C6F01014E512AEC7CF000D003
:10371800B20E01014F6F040E0101506FCCEC7CF02A
:103728000009D8A416D0DDC200F1DEC201F115EC03
:103738006AF0010E0101002502012E6F000E010141
:10374800012102012F6F000E0201E06F000EDF6FF2
:1037580000D0B8EC7CF00009D8B4DED00201B85132
:10376800D8B47BD001014E510101D8B476D0000EF7
:103778000201B86F4FC1D9FF50C1DAFF90C2DFFF15
:10378800010120EE01F04F51D9265051DA228FC2A3
:10379800DFFF010120EE02F04F51D9265051DA2205
:1037A800A6C0DFFF870E0001906F020E0001916F27
:1037B800000E0001926F4FC193F050C194F0030EB8
:1037C8000001956F040E0001966F66EC6EF08B0E8B
:1037D8000001906F020E0001916F000E0001926FC0
:1037E8004FC193F050C194F0070E0001956F040E7D
:1037F8000001966F66EC6EF0010120EE0BF04F5160
:10380800D9265051DA22BBC2DFFF910E0001906F1A
:10381800020E0001916F000E0001926F4FC193F0EC
:1038280050C194F00C0E0001956FB7C296F066EC8B
:103838006EF0DC0E0101256F010E0101266FA70E47
:103848000101276F040E0101286F0201B7510C0F07
:103858000101296F83EC63F05BD002012E51020154
:10386800DF1956E102012F510201E019D8A450D006
:1038780001014E510101D8B442D0C0EC7CF00009DE
:10388800D8B43DD00201E551D8B427D096EC2AF03F
:103898000101456FDC0E0101256F010E0101266F44
:1038A800A70E0101276F040E0101286F45C129F1F8
:1038B80083EC63F00009D8A42BD001D029D00201F1
:1038C800DD5102012E5D0201DE5102012F59D8B0EF
:1038D8001FD002012E4B2F2B1BD0DC0E0101256FB0
:1038E800010E0101266FA70E0101276F040E0101C9
:1038F800286F000E0101296F83EC63F009D0710E67
:103908000101076FFE0E0101086F3CEC33F000D097
:103918000201DF4BE02BE3D2C9C24AF1CAC24BF124
:10392800CBC24CF1CCC24DF10001CB51D8A4C1D0CF
:103938000001CB2B0201B951D8A4B8D0010E020165
:103948008665CDD28B0E0101006F020E0101016F59
:103958004A0E0101026F010E0101036FD1EC45F01F
:103968000101466F0001B351D8B416D04A0E0001C8
:10397800966F010E0001976FEE0E0001986F020E10
:103988000001996F040E00019A6F15EC76F000099A
:10399800D8A4A5D201D0A3D2BAC200F10101016B0B
:1039A80015EC6AF0010100510201B96F01014E5195
:1039B8000101D8B494D2020186070201BA2B1F0E66
:1039C800010146618CD24FC1D9FF50C1DAFF90C2C4
:1039D800DFFF010120EE01F04F51D9265051DA22C4
:1039E8008FC2DFFF010120EE02F04F51D92650515E
:1039F800DA22A6C0DFFF870E0001906F020E0001D9
:103A0800916F000E0001926F4FC193F050C194F076
:103A1800030E0001956F040E0001966F66EC6EF0C0
:103A28008B0E0001906F020E0001916F000E0001D5
:103A3800926F4FC193F050C194F0070E0001956F3B
:103A4800040E0001966F66EC6EF0010120EE0BF09B
:103A58004F51D9265051DA22BBC2DFFF910E000127
:103A6800906F020E0001916F000E0001926F4FC11E
:103A780093F050C194F00C0E0001956FB7C296F008
:103A880066EC6EF04A0E0101256F010E0101266FEA
:103A9800A70E0101276F040E0101286F0201B7511B
:103AA8000C0F0101296F83EC63F019D20201B907E9
:103AB80016D20001CB05D8A4E8D00001B351D8B480
:103AC800E4D00001CB2B8B0E0101006F020E010127
:103AD800016F4A0E0101026F010E0101036FD1EC63
:103AE80045F00101476F010E020186659CD04A0E20
:103AF8000001966F010E0001976FEE0E0001986F9E
:103B0800020E0001996F040E00019A6F15EC76F011
:103B18000009D8B488D0000E0201866F000E020199
:103B2800B96F020E0201BA6F01014E510101D8B4FA
:103B3800D6D11F0E01014761D2D1000E0001B36F2B
:103B48004FC1D9FF50C1DAFF90C2DFFF010120EE5B
:103B580001F04F51D9265051DA228FC2DFFF0101FF
:103B680020EE02F04F51D9265051DA22A6C0DFFFCD
:103B7800870E0001906F020E0001916F000E000188
:103B8800926F4FC193F050C194F0030E0001956FEE
:103B9800040E0001966F66EC6EF08B0E0001906FBC
:103BA800020E0001916F000E0001926F4FC193F059
:103BB80050C194F0070E0001956F040E0001966F36
:103BC80066EC6EF0010120EE0BF04F51D9265051F2
:103BD800DA22BBC2DFFF910E0001906F020E0001D6
:103BE800916F000E0001926F4FC193F050C194F095
:103BF8000C0E0001956FB7C296F066EC6EF04A0E97
:103C08000101256F010E0101266FA70E0101276F23
:103C1800040E0101286F0201B7510C0F0101296F31
:103C280083EC63F05CD1000E0001B36F4FC1D9FF84
:103C380050C1DAFF020EDF6E010120EE01F04F5194
:103C4800D9265051DA22000EDF6E010120EE02F073
:103C58004F51D9265051DA22A6C0DFFF01014E513B
:103C68000101D8B43CD1EE0E0101256F020E01010D
:103C7800266FA70E0101276F040E0101286F030E9E
:103C88000101296F83EC63F02AD1020E0001CB6594
:103C980023D102018605D8A41BD1BE0E0101076FEE
:103CA800FE0E0101086F3CEC33F08B0E0101006F32
:103CB800020E0101016F4A0E0101026F010E01019E
:103CC800036FD1EC45F00101486F010149694A0EC3
:103CD8000001966F010E0001976FDC0E0001986FCE
:103CE800010E0001996F040E00019A6F15EC76F031
:103CF8000009D8A40BD04A0E0101026F010E010180
:103D0800036FA1EC71F00101496F00D0040E0201AC
:103D18009019D8B414D0870E0001966F020E0001D6
:103D2800976FE00E0001986F010E0001996F040E65
:103D380000019A6F15EC76F00009D8B40AD0000E8D
:103D48000201866F000E0201B96F020E0201BA6FFE
:103D5800BFD0870E0001966F020E0001976FE00E2C
:103D68000001986F010E0001996F040E00019A6F0F
:103D780015EC76F00009D8A4ABD001D0A9D0870EF5
:103D88000001966F020E0001976FF60E0001986F02
:103D9800020E0001996F040E00019A6FB9EC76F0DB
:103DA8008FC2EAF204EC7CF002018F6F040E02016C
:103DB800906F060E0201866F000E0201B96F020EA7
:103DC8000201BA6F8B0E0001966F020E0001976F09
:103DD800410E0001986F010E0001996F040E000159
:103DE8009A6FB9EC76F0870E0001966F020E00010B
:103DF800976F8B0E0001986F020E0001996F040EE9
:103E080000019A6FB9EC76F0E00E0001966F010E92
:103E18000001976F870E0001986F020E0001996FDD
:103E2800040E00019A6FB9EC76F0000E0201BB6F28
:103E38001D0E0201916F2B0E0201926F410E0001BF
:103E4800906F010E0001916F000E0001926F910EAC
:103E58000001936F020E0001946F020E0001956F2E
:103E6800040E0001966F66EC6EF04A0E0001906F2A
:103E7800010E0001916F000E0001926F910E00017A
:103E8800936F020E0001946F060E0001956F040EE9
:103E98000001966F66EC6EF048C19BF249C19CF236
:103EA80001014951060D040EF326000EF422BD0E41
:103EB800F324D96E0A0EF420DA6EDF500F0B0201DC
:103EC8009D6F0D0E0201B76F000E0001CB6F00D081
:103ED800000E0001CB6F03D00001CB2B00D0CCEC3F
:103EE8007CF00009D8A40CD002016E2B020E02014E
:103EF8006E6506D01AEC4FF0000E02016E6F00D00E
:103F08000201652B0101ED510201655DD8A03FD08A
:103F18000101B851020DC90EF324D96E080EF42020
:103F2800DA6EDF38E832E832030B0009D8B422D061
:103F3800010E01013F6F0101B851020DC90EF324B2
:103F4800D96E080EF420DA6EDF380101406F403375
:103F58004031030B406F01013F510101405F0101F6
:103F6800403B40374037DF50010140193F0B4019B3
:103F7800DF6E00D00101B82BF90E0101B86503D03E
:103F8800000E0101B86F000E0201656F00D0070E28
:103F9800D6EC77F00009D8B4120056EC41F0010EC7
:103FA8000201E56F1200120009C196F00AC197F0EC
:103FB800E00E0001986F010E0001996F040E0001D8
:103FC8009A6F15EC76F00009D8A4120001D01200FF
:103FD80001010B29D8B4120001D01200030E000110
:103FE800986F01010B51060D050EF326000EF42201
:103FF800BD0EF324D96E0A0EF420DA6EDF5003ECFE
:104008004CF001010D6151D0030E0001986F0101C0
:104018000B51060D050EF326000EF422BD0EF324F7
:10402800D96E0A0EF420DA6EDF5003EC4CF0010171
:104038000F6F01010B51060D040EF326000EF4223A
:10404800BD0EF324D96E0A0EF420DA6EDF380F0B9A
:104058002EEC79F001010F5DD8B012D001010B519F
:10406800060D040EF326000EF422BD0EF324D96EBD
:104078000A0EF420DA6EDF380F0B2EEC79F03AD006
:10408800030E0001986F01010B51060D050EF32672
:10409800000EF422BD0EF324D96E0A0EF420DA6E57
:1040A800DF5003EC4CF026D02BD001010B51060D4C
:1040B800040EF326000EF422BD0EF324D96E0A0E68
:1040C800F420DA6EDF380F0B2EEC79F001010D6168
:1040D80014D001010B51060D040EF326000EF42234
:1040E800BD0EF324D96E0A0EF420DA6EDF380F0BFA
:1040F8002EEC79F00101136F03D00DC113F100D03C
:10410800000E0101146FF90E0101146501D06BD284
:1041180009C194F00AC195F0010114519DEC5FF0BA
:104128000009D8B45DD201011451020DC90EF3245F
:10413800D96E080EF420DA6EDF503F0B31EC6CF0CC
:104148000101106F01011451020D010EF326000E3A
:10415800F422C90EF324D96E080EF420DA6EDF3883
:10416800E832070B01010F6F0101105101010F5DCA
:10417800D8B019D010C10FF101011451020D010E70
:10418800F326000EF422C90EF324D96E080EF4208B
:10419800DA6E01010F3B0F47DF5001010F191F0BAA
:1041A8000F19DF6E00D001010E510101D8B42DD0D6
:1041B80001011451020D010EF326000EF422C90E5E
:1041C800F324D96E080EF420DA6EDF5001010C19C1
:1041D800E00B0C19DF6E01011451020DC90EF32416
:1041E800D96E080EF420DA6EDF5001010B19C00BEE
:1041F8000B19DF6E01011451020DC90EF324D96E9B
:10420800080EF420DA6EC00EDF1201011451020DFF
:10421800C90EF324D96E080EF420DA6EDF503F0B76
:1042280001010B19D8A444D013C10FF10101145195
:10423800020D010EF326000EF422C90EF324D96EE6
:10424800080EF420DA6E01010F3B0F47DF50010121
:104258000F191F0B0F19DF6E01011451020D010E0A
:10426800F326000EF422C90EF324D96E080EF420AA
:10427800DA6EDF501F0B01010C19D8B405D001010B
:104288000B51FDEC79F000D001011451020D010E23
:10429800F326000EF422C90EF324D96E080EF4207A
:1042A800DA6EDF5001010C19E00B0C19DF6E1200F9
:1042B80001011451020DC90EF324D96E080EF42021
:1042C800DA6EDF38E832E832030B0009D8A41200AE
:1042D80001011451020D010EF326000EF422C90E3D
:1042E800F324D96E080EF420DA6EDF38E832070BB3
:1042F800070AD8A43BD001011451020D010EF32680
:10430800000EF422C90EF324D96E080EF420DA6EDA
:10431800DF5001010C19E00B0C19DF6E010114517B
:10432800020DC90EF324D96E080EF420DA6EDF50A0
:1043380001010B19C00B0B19DF6E13C10FF101013D
:104348001451020D010EF326000EF422C90EF324B7
:10435800D96E080EF420DA6E01010F3B0F47DF50CB
:1043680001010F191F0B0F19DF6E12000101145103
:10437800020D010EF326000EF422C90EF324D96EA5
:10438800080EF420DA6EDF501F0B01010C6145D0D6
:10439800010113510001CF5DD8A012000101145191
:1043A800020D010EF326000EF422C90EF324D96E75
:1043B800080EF420DA6EDF5001010C19E00B0C191D
:1043C800DF6E01011451020DC90EF324D96E080ED7
:1043D800F420DA6EDF5001010B19C00B0B19DF6EE8
:1043E80013C10FF101011451020D010EF326000E45
:1043F800F422C90EF324D96E080EF420DA6E0101F6
:104408000F3B0F47DF5001010F191F0B0F19DF6E0C
:1044180001010B51FDEC79F0120001011451020D5C
:10442800010EF326000EF422C90EF324D96E080EED
:10443800F420DA6EDF501F0B01010C19D8A461D0EB
:1044480001011451020D010EF326000EF422C90ECB
:10445800F324D96E080EF420DA6EDF38E832070B41
:1044680001011361120001011451020D010EF3261E
:10447800000EF422C90EF324D96E080EF420DA6E69
:10448800DF38E832070B0001CF6112000101145137
:10449800020D010EF326000EF422C90EF324D96E84
:1044A800080EF420DA6EDF5001010C19E00B0C192C
:1044B800DF6E01011451020DC90EF324D96E080EE6
:1044C800F420DA6EDF5001010B19C00B0B19DF6EF7
:1044D80013C10FF101011451020D010EF326000E54
:1044E800F422C90EF324D96E080EF420DA6E010105
:1044F8000F3B0F47DF5001010F191F0B0F19DF6E1C
:10450800120001011451020D010EF326000EF422CF
:10451800C90EF324D96E080EF420DA6EDF501F0B93
:1045280001010F6F01010C5101010F5DD8B012009C
:104538000001CF510101135DD8B0120001011451DF
:10454800020D010EF326000EF422C90EF324D96ED3
:10455800080EF420DA6EDF38E832070B0001CF616D
:10456800120001011451020D010EF326000EF4226F
:10457800C90EF324D96E080EF420DA6EDF5001015B
:104588000C19E00B0C19DF6E01011451020DC90E54
:10459800F324D96E080EF420DA6EDF5001010B19EE
:1045A800C00B0B19DF6E13C10FF101011451020D7D
:1045B800010EF326000EF422C90EF324D96E080E5C
:1045C800F420DA6E01010F3B0F47DF5001010F198C
:1045D8001F0B0F19DF6E01010B51FDEC79F0120072
:1045E8000101142B90D51F0E01010C6160D0000E43
:1045F8000101126FF90E0101126501D058D0DC0ECD
:104608000001946F010E0001956F010112519DEC9C
:104618005FF00009D8B447D009C197F00AC198F0F3
:104628000101125140EC6FF001011251020D010E0F
:10463800F326000EF422C90EF324D96E080EF420D6
:10464800DA6EDF5001010C19E00B0C19DF6E010165
:104658001251020DC90EF324D96E080EF420DA6E39
:10466800DF5001010B19C00B0B19DF6E13C10FF1DD
:1046780001011251020D010EF326000EF422C90E9B
:10468800F324D96E080EF420DA6E01010F3B0F47B0
:10469800DF5001010F191F0B0F19DF6E01010B51BC
:1046A800FDEC79F012000101122BA4D700D01F0EE7
:1046B80001010C611200A8C011F1F90E0101116588
:1046C80002D01200120001011151020D010EF32651
:1046D800000EF422C90EF324D96E080EF420DA6E07
:1046E800DF501F0B1F0AD8B40ED001011151020D63
:1046F800C90EF324D96E080EF420DA6EDF503F0B92
:104708003F0AD8A454D009C197F00AC198F0000113
:10471800A85140EC6FF00001A851020D010EF326DC
:10472800000EF422C90EF324D96E080EF420DA6EB6
:10473800DF5001010C19E00B0C19DF6E0001A851C4
:10474800020DC90EF324D96E080EF420DA6EDF507C
:1047580001010B19C00B0B19DF6E13C10FF100011A
:10476800A851020D010EF326000EF422C90EF324FF
:10477800D96E080EF420DA6E01010F3B0F47DF50A7
:1047880001010F191F0B0F19DF6E0001A851020D4F
:10479800C90EF324D96E080EF420DA6E3F0EDF1628
:1047A80001010B51FDEC79F011C1A8F01200F90ECE
:1047B80001011119D8A404D0000E0001A86F00D07F
:1047C8000101112BF90E010111657DD712001200AC
:1047D8001200000E566E000E576E000E0001AB6FF1
:1047E800000E0001B16F020ED6EC77F00009D8B4C4
:1047F80035D1010E566E0001AC2B020E0001AC192A
:10480800D8A4FBD0000E0001AC6FF7D0000E000159
:10481800AB6F000E01011C6F1E0E1B6F000E010115
:104828001D6F020E14EC70F019D1010E0001AB6F70
:10483800000E01011C6F1E0E1B6F000E01011D6F83
:10484800020E14EC70F00AD10001AC05D8A404D013
:10485800010E0001AB6F00D0000E01011C6F400E6D
:104868001B6F000E01011D6F020E14EC70F0F6D0E4
:104878000001AC05D8A404D0010E0001AB6F00D034
:10488800000E01011C6F7D0E1B6F000E01011D6FD4
:10489800020E14EC70F0E2D000D00001AC05D8A4F0
:1048A80004D0010E0001AB6F00D0000E01011C6F97
:1048B800FA0E1B6F000E01011D6F020E14EC70F052
:1048C800CDD00001AC05D8A404D0010E0001AB6F17
:1048D80000D0010E01011C6FF40E1B6F000E0101C8
:1048E8001D6F020E14EC70F0B9D00001AC05D8A40D
:1048F80004D0010E0001AB6F00D0030E01011C6F44
:10490800E80E1B6F000E01011D6F020E14EC70F013
:10491800A5D00001AC05D8A404D0010E0001AB6FEE
:1049280000D0090E01011C6FC40E1B6F000E01019F
:104938001D6F020E14EC70F091D00001AC05D8A4E4
:1049480004D0010E0001AB6F00D0130E01011C6FE3
:10495800880E1B6F000E01011D6F020E14EC70F023
:104968007DD00001AC05D8A421D0010E0001AB6FA9
:104978004850D8A40DD0000E01011C6F500E1B6FBB
:10498800000E01011D6F020E14EC70F0010E0CD028
:10499800090E01011C6F740E1B6F000E01011D6FC3
:1049A800020E14EC70F0000E486E58D04850D8B47F
:1049B8000CD0000E01011C6F500E1B6F000E010180
:1049C8001D6F020E14EC70F049D0090E01011C6F26
:1049D800740E1B6F000E01011D6F020E14EC70F0B7
:1049E8003DD0000E01011C6F1E0E1B6F000E010151
:1049F8001D6F020E14EC70F031D00001AA51000AAC
:104A0800D8B404D7010AD8B410D7030AD8B41CD72D
:104A1800010AD8B42DD7070AD8B43FD7010AD8B4A9
:104A280050D7030AD8B461D70D0AD8B436D7070AC5
:104A3800D8B433D7010AD8B430D7030AD8B42DD79D
:104A4800010AD8B42AD71F0AD8B463D7010AD8B440
:104A580074D7030AD8B485D7C4D700D0030ED6ECD0
:104A680077F00009D8B435D1010E576E0001AD2B8F
:104A7800020E0001AD19D8A4FBD0000E0001AD6FE5
:104A8800F7D0000E0001B16F000E01011C6F1E0E61
:104A98001B6F000E01011D6F030E14EC70F019D18D
:104AA800010E0001B16F000E01011C6F1E0E1B6F7D
:104AB800000E01011D6F030E14EC70F00AD1000105
:104AC800AD05D8A404D0010E0001B16F00D0000ECE
:104AD80001011C6F400E1B6F000E01011D6F030EBC
:104AE80014EC70F0F6D00001AD05D8A404D0010E86
:104AF8000001B16F00D0000E01011C6F7D0E1B6F0D
:104B0800000E01011D6F030E14EC70F0E2D000D00E
:104B18000001AD05D8A404D0010E0001B16F00D08A
:104B2800000E01011C6FFA0E1B6F000E01011D6FB4
:104B3800030E14EC70F0CDD00001AD05D8A404D05C
:104B4800010E0001B16F00D0010E01011C6FF40EBF
:104B58001B6F000E01011D6F030E14EC70F0B9D02D
:104B68000001AD05D8A404D0010E0001B16F00D03A
:104B7800030E01011C6FE80E1B6F000E01011D6F73
:104B8800030E14EC70F0A5D00001AD05D8A404D034
:104B9800010E0001B16F00D0090E01011C6FC40E97
:104BA8001B6F000E01011D6F030E14EC70F091D005
:104BB8000001AD05D8A404D0010E0001B16F00D0EA
:104BC800130E01011C6F880E1B6F000E01011D6F73
:104BD800030E14EC70F07DD00001AD05D8A421D0EF
:104BE800010E0001B16F4B50D8A40DD0000E010189
:104BF8001C6F500E1B6F000E01011D6F030E14EC8D
:104C080070F0010E0CD0090E01011C6F740E1B6FA1
:104C1800000E01011D6F030E14EC70F0000E4B6EB8
:104C280058D04B50D8B40CD0000E01011C6F500E58
:104C38001B6F000E01011D6F030E14EC70F049D0BC
:104C4800090E01011C6F740E1B6F000E01011D6F10
:104C5800030E14EC70F03DD0000E01011C6F1E0E07
:104C68001B6F000E01011D6F030E14EC70F031D0A4
:104C78000001B051000AD8B404D7010AD8B410D73B
:104C8800030AD8B41CD7010AD8B42DD7070AD8B458
:104C98003FD7010AD8B450D7030AD8B461D70D0A50
:104CA800D8B436D7070AD8B433D7010AD8B430D71E
:104CB800030AD8B42DD7010AD8B42AD71F0AD8B402
:104CC80063D7010AD8B474D7030AD8B485D7C4D730
:104CD80000D0090E0001AA19D8A40CD05750D8B496
:104CE80009D00001AD510001D8A404D0010E000183
:104CF800AB6F00D00A0E0001B019D8A40CD05650E2
:104D0800D8B409D00001AC510001D8A404D0010ED8
:104D18000001B16F00D0080E0001AA19D8A40CD068
:104D28005750D8B409D00001B1510001D8B404D00B
:104D3800010E0001AB6F00D0070E0001B019D8A416
:104D48000CD05650D8B409D00001AB510001D8B4EA
:104D580004D0010E0001B16F00D00001B151000173
:104D6800D8B40DD04A50D8B402D04A0600D00001B9
:104D7800AF510001D8B403D00001AF0700D0000143
:104D8800AB510001D8B40DD04750D8B402D0470673
:104D980000D00001A9510001D8B403D00001A9072F
:104DA80000D00001A9510001D8B403D0000E0001C1
:104DB800AB6F0001AF510001D8B403D0000E000161
:104DC800B16F4750D8B424D035D022D00A0E000194
:104DD800A96F0001A951040F13D00A0E0001A96F91
:104DE8000001A951030F0CD00A0E0001A96F0001A0
:104DF800A951020F05D00A0E0001A96F0001A929C7
:104E0800476E18D00A0E0001A96FA9C047F012D04A
:104E18000001AA510B0AD8B4D9D7070AD8B4DDD7EC
:104E2800010AD8B4E1D7030AD8B4E5D7010AD8B43F
:104E3800E9D700D04A50D8B424D035D022D00A0EB1
:104E48000001AF6F0001AF51040F13D00A0E00012B
:104E5800AF6F0001AF51030F0CD00A0E0001AF6F06
:104E68000001AF51020F05D00A0E0001AF6F00011B
:104E7800AF294A6E18D00A0E0001AF6FAFC04AF0D2
:104E880012D00001B0510B0AD8B4D9D7070AD8B448
:104E9800DDD7010AD8B4E1D7030AD8B4E5D7010AA7
:104EA800D8B4E9D700D00001AB51D7EC7BF00001B2
:104EB800B151D0EC7CF012000101356F0001BD51F9
:104EC800D8A404D00001CC51D8B451D2800E01012D
:104ED800BE19D8B459D0A7C103F1A8C104F1E1C2E1
:104EE80005F1E2C206F1EFEC73F001010351010193
:104EF8000411D8A413D0000E00019A6F0001BE510E
:104F0800010D000EF324D96E060EF420DA6EDF5080
:104F180064EC7AF0010E0001B86F27D020C19AF036
:104F2800BEC090F00001916B7CC292F00001936BBF
:104F3800C90E0001946F000E956F000E966F000E5B
:104F4800976FD3EC72F0000E00019025D96E060E13
:104F580000019121DA6EDF5064EC7AF0000E000156
:104F6800B86F000E02016B6F00D0020E0001CC1961
:104F7800D8A406D0010E0001BD6F000E0001CC6F51
:104F8800000E0201816F2BD0020E0001CC19D8A4AB
:104F980007D0010E0001BD6F000E0001CC6F1FD0BD
:104FA8000201812B010E0201816519D0F25000D057
:104FB800070E1CEC5FF0000E0001BD6F000E000133
:104FC800CC6F010E0201E76F000E0001916F040E15
:104FD800906F030E0001926FB4EC59F000D00101FC
:104FE800A7050101A811D8A408D0010E0101C56FB9
:104FF8009CC0B1F19DC0B2F100D0080ED6EC77F09C
:105008000009D8B408D00001C751D8B404D0010EA3
:1050180002017E6F00D0080E50EC7AF00009D8B477
:105028002ED00001C751D8A41CD0F2C100F1010153
:10503800016B15EC6AF0010100510101CC6F01010F
:10504800CC5100080101F2250001C76FCCC11BF14A
:1050580001011C6B010E01011D6F080E14EC70F0AC
:105068000ED0C7C01BF101011C6B010E01011D6FA1
:10507800080E14EC70F0000E0001C76F00D000019C
:10508800C1510001D8A406D002013C5102013D11D2
:10509800D8B446D10001B851D8B442D10101355134
:1050A8000101D8B43DD13EC221F13FC222F1010134
:1050B800211F221F214B222B040E0101006F010E1C
:1050C8000CEC5DF0010121510101002501013A6F4D
:1050D800010122510101012101013B6F3AC121F176
:1050E8003BC122F10101211F221F214B222B21C18B
:1050F80038F122C139F1080E01013B5DD8A00BD06F
:10510800FE0E01013A5D0F0E01013B59D8B003D0E4
:105118000001C12B36D001013A290F0E01013B597C
:10512800D8A00CD0FD0E01013A5D170E01013B59C4
:10513800D8B004D0020E0001C12723D0080E010107
:10514800395DD8A00BD0FE0E0101385D0F0E0101AC
:105158003959D8B003D00001C10713D0010138294B
:105168000F0E01013959D8A00CD0FD0E0101385D90
:10517800170E01013959D8B004D0020E0001C15FE1
:1051880000D0040E0101006F010E0CEC5DF000C1AF
:105198003AF101C13BF19CC090F09DC091F03AC139
:1051A80092F03BC193F0000E0001946F000E956FD2
:1051B800010E966F000E976FD3EC72F090C02BF132
:1051C80091C02CF12BC10BF12CC10CF13CC20DF19B
:1051D8003DC20EF1000E01010F6F000E106F010E9F
:1051E800116F000E126F4DEC65F00BC136F10CC15A
:1051F80037F136C103F137C104F1070E0101066F1B
:105208000569EFEC73F003C131F104C132F131C12A
:1052180098F032C199F0040E00019A6F010E85ECE6
:1052280049F0010131510101365F0101325101019B
:10523800375B36C19CF037C19DF036C196F037C157
:1052480097F0070E0001996F9869A0EC70F096C06E
:10525800A7F197C0A8F1BEC00BF101010C6BC1C04A
:105268000DF101010E6BC90E01010F6F000E106FD9
:10527800000E116F000E126F4DEC65F001010B511D
:105288000001BE6FC1C023F10101246B000E0001B3
:10529800C16F000E02013D6F000E3C6F000E02014F
:1052A800336F000E326F0101A7510101A811D8A474
:1052B80009D0000E0101A86F100EA76F30C29CF034
:1052C80031C29DF0070E0101B26FB169020E0001F3
:1052D800CC6F040E0101006F010E0CEC5DF00001B3
:1052E8009C51010100250101336F00019D5101010D
:1052F80001210101346FCCEC7CF00101256F33C131
:1053080027F1010134510101266F000E0001916F50
:10531800040E906F020E0001926FB4EC59F023D086
:105328000001BE510101D719D8A40BD00001BD510D
:10533800D8B407D0010135510101D8A414D001D047
:1053480012D002017E51D8B40ED0BCEC7CF000091A
:10535800D8B409D0010135510101D8B404D0000EE8
:1053680002017E6F00D002014C4B4D2B4ED0060E31
:1053780050EC7AF00009D8B41CD0000E0101016F7E
:10538800320E006F15EC6AF0540E01010025010180
:105398002D6F240E0101012101012E6F2DC11BF17A
:1053A8002EC11CF1000E01011D6F060E14EC70F0E9
:1053B80000D0060ED6EC77F00009D8B40DD0000E58
:1053C80000019A6F0101F75164EC7AF0000E0201B6
:1053D800E46F010EE36F00D00201E4510BE1330EDC
:1053E8000201E35DD8B006D0ADEC7AF00201E34BE0
:1053F800E42B00D0330E0201E3190201E411D8A412
:1054080004D00201E34BE42B00D00101D751010184
:10541800D8A404D0C80E0101D76F03D00101D70763
:1054280000D0050ED6EC77F00009D8A4F7EC74F09C
:10543800090E50EC7AF00009D8B44CD0C4EC7CF0DA
:105448000101216F010121513E0DF3CF2FF1F4CF5E
:1054580030F12FC198F030C199F0D1EC79F098C0B3
:1054680000F199C001F19AC002F1000E0101036F29
:105478007A0E0101046F440E0101056F85EC55F0A9
:1054880000C128F101C129F102C12AF1000E010170
:10549800036F280E0101046F430E0101056F28C137
:1054A80000F129C101F12AC102F17DEC53F000C1DC
:1054B8000CF101C10DF102C10EF1DCEC54F00CC18C
:1054C8001BF10DC11CF1010E01011D6F090E14EC39
:1054D80070F000D0090ED6EC77F00009D8B417D0D8
:1054E800070E1CEC5FF0000E0001BD6F000E0001FE
:1054F800CC6F010E0201E76F000E0001916F040EE0
:10550800906F050E0001926FB4EC59F000D00F0EA9
:10551800D6EC77F00009D8B41200010E0201E76F4B
:1055280012001200000E01010B6FB20E0101196F7B
:10553800040E01011A6F19C1D9FF1AC1DAFF010E51
:10554800DF6E000E01010C6F060E01010C6F010EDB
:105558000101166F010E0101166501D096D00001F8
:10556800B551060DBD0EF3240001966F0A0EF42006
:105578000001976FDC0E0001986F010E0001996F12
:10558800040E00019A6F15EC76F00009D8A449D0F2
:105598000001B551060D050EF326000EF422BD0ECE
:1055A800F324D96E0A0EF420DA6EDE28D8B439D086
:1055B8000001B551060DBD0EF3240001906F0A0ECF
:1055C800F4200001916F000E0001926F19C193F051
:1055D8001AC194F0010E0001956F040E0001966F38
:1055E80066EC6EF0010120EE05F01951D9261A512A
:1055F800DA22040E0001986F0001B551060D050E60
:10560800F326000EF422BD0EF324E16E0A0EF420F8
:10561800E26EE75003EC4CF0DF6E010E01010B6FF8
:1056280003D00101160700D03E0E0001B56103D07A
:105638000001B52B27D0000E0001B56F01010B51F9
:105648000101D8A422D0DC0E0001906F010E0001E8
:10565800916F000E0001926F19C193F01AC194F076
:10566800010E0001956F040E0001966F66EC6EF056
:10567800010120EE05F01951D9261A51DA22FF0E40
:10568800DF6E03D00101162B65D7000E0101106FE4
:10569800000E0101186F000E01010D6FB4C00AF170
:1056A8001AD20001C851D8B4FCD001011851010D1B
:1056B8003F0EF324D96E030EF420DA6EDF50010199
:1056C800176F120E0101006F010E0101016F010138
:1056D8001751DCEC6BF0010E010118250001906FE9
:1056E8000001916B000E9123000E0001936F050ECF
:1056F800926F8EEC78F0010E00019027000E0001E9
:1057080091230001905101011925D96E0001915191
:1057180001011A21DA6E12C1DFFF010E01011825FD
:105728000001906F0001916B000E9123000E0001A3
:10573800936F050E926F8EEC78F0020E00019027A1
:10574800000E000191230001905101011925D96E25
:105758000001915101011A21DA6E13C1DFFF010E18
:10576800010118250001906F0001916B000E912333
:10577800000E0001936F050E926F8EEC78F0030E09
:1057880000019027000E00019123000190510101B2
:105798001925D96E0001915101011A21DA6E14C13F
:1057A800DFFF010E010118250001906F0001916BC8
:1057B800000E9123000E0001936F050E926F8EEC80
:1057C80078F0040E00019027000E000191230001DB
:1057D800905101011925D96E0001915101011A2139
:1057E800DA6E15C1DFFF01011751020D010EF32614
:1057F800000EF422C90EF324D96E080EF420DA6ED6
:10580800DF38E832070B0101086F050E0101096F47
:105818000101D89008370101092FFAD70101085171
:1058280001010E6F01011751020D010EF326000E42
:10583800F422C90EF324D96E080EF420DA6EDF5074
:105848001F0B01010E27010E010118250001906FA1
:105858000001916B000E9123000E0001936F050E5D
:10586800926F8EEC78F0050E00019027000E000173
:1058780091230001905101011925D96E0001915120
:1058880001011A21DA6E0EC1DFFF050E0101102792
:105898000101182B0001C851D8B41DD10001C80757
:1058A8001AD1DC0E0001946F010E0001956F000102
:1058B800B4519DEC5FF00009D8A4F8D00001B451B0
:1058C800020DC90EF324D96E080EF420DA6EDF50EB
:1058D8003F0B3F0AD8B4EAD0120E0101006F010E47
:1058E8000101016F0001B451DCEC6BF0010E010104
:1058F80018250001906F0001916B000E9123000E96
:105908000001936F050E926F8EEC78F0010E000186
:105918009027000E000191230001905101011925E3
:10592800D96E0001915101011A21DA6E12C1DFFF0F
:10593800010E010118250001906F0001916B000E06
:105948009123000E0001936F050E926F8EEC78F094
:10595800020E00019027000E0001912300019051D2
:1059680001011925D96E0001915101011A21DA6E40
:1059780013C1DFFF010E010118250001906F00011E
:10598800916B000E9123000E0001936F050E926F2C
:105998008EEC78F0030E00019027000E0001912391
:1059A8000001905101011925D96E000191510101A1
:1059B8001A21DA6E14C1DFFF010E0101182500015A
:1059C800906F0001916B000E9123000E0001936F00
:1059D800050E926F8EEC78F0040E00019027000EF1
:1059E800000191230001905101011925D96E000190
:1059F800915101011A21DA6E15C1DFFF0001B4517E
:105A0800020D010EF326000EF422C90EF324D96EFE
:105A1800080EF420DA6EDF38E832070B0101086F50
:105A2800050E0101096F0101D89008370101092FFE
:105A3800FAD70101085101010F6F0001B451020D9D
:105A4800010EF326000EF422C90EF324D96E080EB7
:105A5800F420DA6EDF501F0B01010F27010E010140
:105A680018250001906F0001916B000E9123000E24
:105A78000001936F050E926F8EEC78F0050E000111
:105A88009027000E00019123000190510101192572
:105A9800D96E0001915101011A21DA6E0FC1DFFFA1
:105AA800050E010110270101182B00D0F90E000185
:105AB800B46103D00001B42B04D0000E0001B46F10
:105AC80000D00001B45101010A19D8A404D0010E74
:105AD80001010D6F00D0080E0101186107D0010106
:105AE8000D510101D8A402D0DCD500D001010C5120
:105AF800010110250101116F01011151010DF35030
:105B080001011925D96EF45001011A21DA6EC9C1B3
:105B1800DFFF0101112B0101115112001200000ECB
:105B28000101556F000E0101C86F000E0001906F52
:105B3800000EB4EC77F0000E0101D96F000E526E22
:105B4800200E63EC57F0000E0101CE6F000E01012C
:105B5800B96F0101F051CBEC7BF0020E54EC78F0F8
:105B6800600E63EC57F0000E00019A6F000E64ECB3
:105B78007AF0190E01011C6F640E1B6F000E0101F3
:105B88001D6F110E14EC70F0000E01011C6F780EE1
:105B98001B6F010E01011D6F120E14EC70F0010E47
:105BA8000101C16F04000101BA51D8B409D0000E37
:105BB8000101BA6F3E0E28EC38F00201752B00D0B7
:105BC8000101BC51D8B409D0000E0101BC6F200EF0
:105BD80063EC57F0600E63EC57F00101BD51D8B487
:105BE80007D0600E63EC57F0000E0101BD6F00D0C6
:105BF8000101BB51D8A404D00101B951D8B4ACD12A
:105C0800000E01015D6F000E0101606F000E5F6FF5
:105C1800000E0201756F0101BB51D8B455D0000EBA
:105C28000101BB6FEFEC7BF00101E76FEFEC7BF05C
:105C3800000E01015B6F1DD001015B51010D470E84
:105C4800F324D96E030EF420DA6EEFEC7BF0DF6EEE
:105C580001015B51010D470EF324D96E030EF420A8
:105C6800DA6EDF5001015D1901015D6F01015B2BE7
:105C780000D0FF0E01014A6FFF0E01014B6F0101B9
:105C8800E75101014C6F4D6B01014A5101014C274D
:105C980001014B5101014D2301015B5101014E6F7F
:105CA8004F6B01014C5101014E5D01014F51800ABA
:105CB8000101506F01014D51800A01015059D8A0CE
:105CC800BBD7000E0101CE6F0101B951D8B41DD068
:105CD800000E01015C6F3A0E01015C6501D011D024
:105CE80001015C51010D470EF324D96E030EF42017
:105CF800DA6EDF5001015D1901015D6F01015C2B56
:105D0800EAD7000E0101B96F00D048C35FF1010165
:105D1800606B01015F510101606F5F6B03014751C7
:105D280001015F27000E60230101D6510101D8B49B
:105D38001CD0D00E01014A6FCA0EE82EFED74A2F9A
:105D4800FCD7D00E01014A6FCA0EE82EFED74A2FA3
:105D5800FCD7090E0101605DD8B0DCD05FC10AF143
:105D680060C10BF1B8EC73F0D5D0010E0101556F8D
:105D780001015D510101D8A4CDD001D0CBD00101E2
:105D8800AD5101015F1905E10101AE510101601931
:105D9800D8A4C0D00101AD510101AE11D8A42BD0B7
:105DA800000E0101576F000E586F000E596F000E5C
:105DB8005A6F01015A511FE1100E0101585D020E80
:105DC80001015959D8B017D001D015D057C195F055
:105DD80058C196F059C197F05AC198F0BBEC79F0C8
:105DE800000E01015727100E5823000E5923000EEC
:105DF8005A23DFD700D0000E01015E6F370E010174
:105E08005E6501D044D0ADC190F0AEC191F0000EF6
:105E18000001936F380E926F8EEC78F0000190516C
:105E280001015E250101516F000191510101526F7D
:105E3800000E010152230101536B0101532301019B
:105E4800546B51C100F152C101F153C102F154C167
:105E580003F101015E51010D020EF326000EF4223A
:105E6800470EF3240101046F030EF4200101056FAE
:105E7800040E0101066F000E076F000E086F000E7A
:105E8800096FB0EC6EF0040E01015E27B7D701016F
:105E9800AD4BAE2B0101AF510101AD193BE1010141
:105EA800B0510101AE19D8A435D0000E0101006F20
:105EB800000E016F020E026F000E036FC00E01018B
:105EC800046F020E0101056F010E0101066F000E3D
:105ED800076F000E086F000E096FB0EC6EF0010E30
:105EE8000101006F000E016F020E026F000E036FBA
:105EF800B80E0101046F030E0101056F0B0E0101BD
:105F0800066F000E076F000E086F000E096FB0ECE9
:105F18006EF000D0030E01011C6FE80E1B6F000E1F
:105F280001011D6F110E14EC70F00101D651010131
:105F3800D8B412D001015F5101016011D8A40CD06E
:105F4800270E01011C6F100E1B6F000E01011D6F43
:105F5800110E14EC70F000D00101D6510101D8A443
:105F680024D0020E0201756506D0010E0101556F9D
:105F7800000E0201756F010155510101D8B415D009
:105F88000101AF510101AD5D0101B0510101AE59EF
:105F9800D8B007D0ADC100F1AEC101F177EC7AF00D
:105FA80000D0000E0101556F00D0000E0001916F66
:105FB800010E906FE80E0001926F010E0001936FC1
:105FC800D9EC4FF00009D8B438D0270E0101006F82
:105FD800040E0101016FE60E0101026F010E0101BD
:105FE800036F0101E8518BEC42F00009D8B425D0C9
:105FF80004012851C00B0101566F01015645E846BE
:10600800030B0101566F030E01015619D8A415D0D0
:10601800290E0001966F040E0001976F470E0001CC
:10602800986F030E0001996F3B0E00019A6FB9EC4F
:1060380076F0010E0101B96F00D0020ED6EC77F0B0
:1060480000D0110ED6EC77F00009D8A402D017D0F2
:1060580000D0ACA2FED7720E97EC7BF000D0ACA2B9
:10606800FED7730E97EC7BF000D0ACA2FED7740E6F
:1060780097EC7BF000D0ACA2FED7FF0000D0020E58
:1060880050EC7AF00009D8B40BD0000E01011C6F57
:10609800FA0E1B6F000E01011D6F020E14EC70F05A
:1060A800110E50EC7AF00009D8B40BD0030E0101A0
:1060B8001C6FE80E1B6F000E01011D6F110E14EC12
:1060C80070F0120ED6EC77F00009D8B46BD5FF004B
:1060D80069D51200010122510101D8B4C6D2C90EF6
:1060E80001012461C2D220C1D9FF21C1DAFFDE2813
:1060F800D8A42AD00001CC51D8A426D0050E50EC43
:106108007AF00009D8B41CD0060E0101016F0E0EFA
:10611800006F15EC6AF01C0E0101002501012F6FBC
:106128000C0E010101210101306F2FC11BF130C19B
:106138001CF1000E01011D6F050E14EC70F000D06B
:10614800010E0001BD6F45D2020E0101226541D248
:10615800010120EE01F02051D9262151DA22DF5029
:106168000101256F010125510101426F436B0101B6
:1061780042510101436F426B010120EE02F02051B0
:10618800D9262151DA22DF500101256F010125515D
:1061980001014227000E432342C127F143C128F1E0
:1061A800040E0101006F010E0CEC5DF000C13EF120
:1061B80001C13FF1A4C00BF1A5C00CF13EC10DF126
:1061C8003FC10EF1FF0E01010F6F070E106F000E99
:1061D800116F000E126F4DEC65F00BC131F10CC15F
:1061E80032F19CC090F09DC091F03EC192F03FC149
:1061F80093F0000E0001946F000E956F010E966FDC
:10620800000E976FD3EC72F090C040F191C041F14D
:1062180040C138F141C139F140C190F041C191F01C
:10622800000E0001936F3D0E926F000E0001946FF7
:10623800000E956F010E966F000E976FD3EC72F0FB
:1062480090C03EF191C03FF1010123510101D8B442
:1062580015D03EC190F03FC191F0000E0001936F40
:10626800050E926F000E0001946F000E956F010EDF
:10627800966F000E976FD3EC72F014D03EC190F079
:106288003FC191F0000E0001936F000E926F000E57
:106298000001946F000E956F010E966F000E976FB8
:1062A800D3EC72F090C040F191C041F142C10BF1C2
:1062B80043C10CF131C10DF132C10EF1000E0101E3
:1062C8000F6F000E106F010E116F000E126F4DEC64
:1062D80065F00BC13EF10CC13FF13EC142F13FC137
:1062E80043F140C125F141C126F10101251F261FB7
:1062F800254B262B010142510101252501013C6F47
:10630800010143510101262101013D6F3CC125F1E5
:106318003DC126F10101251F261F254B262BFF0E07
:106328000101252501013A6FFF0E01012621010116
:106338003B6F20C1D9FF21C1DAFF01012451DE18CA
:10634800D8A414D0080E01013D5DD8A005D0800E58
:1063580001013D5DD8A00AD0080E01013B5DD8A01F
:1063680075D0800E01013B5DD8B070D00201E751B5
:10637800D8A404D00001BD51D8A4D4D040C10BF199
:1063880041C10CF142C10DF143C10EF1000E0101F2
:106398000F6F000E106F010E116F000E126F4DEC93
:1063A80065F00BC13CF20CC13DF240C103F141C1A3
:1063B80004F1070E0101066F0569EFEC73F003C1E4
:1063C80025F104C126F142C103F143C104F1070ECE
:1063D8000101066F0569EFEC73F00101031F01016C
:1063E800041F0101034B042B010103510101252561
:1063F80002013E6F010104510101262102013F6F94
:1064080024C10BF101010C6B20C1D9FF21C1DAFFB6
:10641800DF500101256F0101255101010D6F0E6B40
:10642800C90E01010F6F000E106F000E116F000EE4
:10643800126F4DEC65F001010B510001C16F010EA7
:106448000001CC6F000E0001BD6F6CD001014251FC
:106458000101405D0101435101014159D8B047D0C4
:10646800800E01013D5DD8B042D0010140510008C5
:10647800010142250101376F0101375100019C27B5
:10648800000E9D2340C125F141C126F10101251FC0
:10649800261F254B262B010142510101252502010A
:1064A800446F01014351010126210201456F020198
:1064B80044510201465D0201455102014759D8B0D5
:1064C80016D040C125F141C126F10101251F261F23
:1064D800254B262B01014251010125250201466F5A
:1064E80001014351010126210201476F00D000013B
:1064F800BD51D8B404D00001CC51D8A404D0010EA9
:106508000001BD6F00D0010138510201605D010139
:10651800395102016159D8B005D038C160F239C18A
:1065280061F200D0C4EC7CF00101256F0101255116
:106538003E0DF3CF33F1F4CF34F133C198F034C1C9
:1065480099F0D1EC79F098C000F199C001F19AC0A6
:1065580002F1000E0101036F7A0E0101046F440E6F
:106568000101056F85EC55F000C129F101C12AF13F
:1065780002C12BF1000E0101036F280E0101046F07
:10658800430E0101056F29C100F12AC101F12BC198
:1065980002F17DEC53F000C10CF101C10DF102C113
:1065A8000EF1DCEC54F00CC11BF10DC11CF1010E15
:1065B80001011D6F090E14EC70F0000E02014D6F01
:1065C800000E4C6F030E0101226503D0010E12006C
:1065D80000D0C4EC7CF00101256F010125513E0D6E
:1065E800F3CF35F1F4CF36F135C198F036C199F0D3
:1065F800D1EC79F098C000F199C001F19AC002F18C
:10660800000E0101036F7A0E0101046F440E0101AF
:10661800056F85EC55F000C12CF101C12DF102C1C7
:106628002EF1000E0101036F280E0101046F430EC5
:106638000101056F2CC100F12DC101F12EC102F13C
:106648007DEC53F000C10CF101C10DF102C10EF156
:10665800DCEC54F00CC11BF10DC11CF1010E010161
:106668001D6F090E14EC70F000D0000E120012001D
:10667800090E01011B6F010E01011C6F5ED2250E70
:1066880001012219D8B405D00101225132EC7BF066
:1066980054D2000E0101216F000E206F000E01017F
:1066A8001F6F07D001011F850101074B082B01D07F
:1066B8000BD007C1F6FF08C1F7FF0800F550300AF4
:1066C800D8B4F0D701D0F5D707C1F6FF08C1F7FF56
:1066D8000800F55076EC79F0D8A0A8D0000E01019A
:1066E800216F000E206F00D020C190F021C191F0E1
:1066F800000E0001936F0A0E926F8EEC78F090C036
:1067080020F191C021F1D00E0101116FFF0E01019E
:10671800126F07C1F6FF08C1F7FF0800F550010125
:10672800136F146B0101115101011327010112515B
:106738000101142301011351010120270101145102
:10674800010121230101074B082B07C1F6FF08C1EE
:10675800F7FF0800F55076EC79F0D8A067D0C4D7D9
:1067680065D0120085D000D001011F8F81D00101B2
:1067780020510101185D0101215101011959D8B0B9
:1067880009D0010118510101205F010119510101CE
:10679800215B0AD0000E0101216F000E206F04D08A
:1067A800200E32EC7BF000D001012007D8A0210791
:1067B80001012029F5E101012129D8B40DD0F0D734
:1067C8000BD016C1D9FF17C1DAFFDF5032EC7BF0CE
:1067D8000101164B172B00D001011807D8A0190783
:1067E80001011829EEE101011929D8B4A6D1E9D788
:1067F800A4D11BC1D9FF1CC1DAFFDF500101226FF0
:10680800020E01011B27000E1C2300D0220E0101DD
:10681800166F010E0101176F000E0101196F010EAD
:10682800186FA5D7C00E01011F1322D007C1F6FFAC
:1068380008C1F7FF0101074B082B0800F5CF22F12B
:1068480001012251000AD8B41200580AD8B48CD7D2
:106858003B0AD8B4CED7070AD8B40AD00D0AD8B4A0
:1068680007D01C0AD8B4DED70D0AD8B47DD7CED746
:106878001FC111F1C00E01011117D8A419D01BC1F5
:10688800D9FF1CC1DAFFDECF1DF1DDCF1EF1020EEC
:1068980001011B27000E1C2301011EAF5ED0030E51
:1068A80001011F1301011D6D1E1FD8B01E2B55D0ED
:1068B8001BC1D9FF1CC1DAFFDECF1DF1DDCF1EF1F0
:1068C800020E01011B27000E1C2347D000D0010E29
:1068D8000101226F050E01012219D8B44BD001D055
:1068E80049D001012251020D330EF324F66EFE0E3B
:1068F800F420F76E0900F55001011D5D0900F550FF
:1069080001011E59D8A036D001D034D00101222B64
:10691800E1D730D0010E0101226F040E01012219C6
:10692800D8B428D001D026D001012251020D3D0E45
:10693800F324F66EFE0EF420F76E0900F5500101FF
:106948001D5D0900F55001011E59D8A013D001D0D2
:1069580011D00101222BE1D70DD001011F51C00B2D
:10696800000AD8B4B4D7800AD8B4D4D7400AD8B467
:10697800AED700D00101205101012111D8B40CD0AB
:106988001FC111F1030E01011117D8B405D001017F
:106998002007D8A0210700D0800E010122BF7F0E5A
:1069A8000101116F010120510101225D01012151F5
:1069B800800A01011159D8B00BD0010122510101FF
:1069C800205F000E010122BFFF0E0101215B06D0EE
:1069D800000E0101216F000E206F00D001011FA5DC
:1069E80020D01FC111F1030E01011117D8B404D032
:1069F8002D0E32EC7BF000D0010120510101211154
:106A0800D8B42FD0300E32EC7BF001012007D8A08B
:106A180021070101205101012111D8B422D0F2D758
:106A280020D00101205101012111D8B40FD0200E2E
:106A380032EC7BF001012007D8A021070101205189
:106A480001012111D8B402D0F2D700D01FC111F131
:106A5800030E01011117D8B404D02D0E32EC7BF0CF
:106A680000D022C11AF161D04ED000D001011A51D4
:106A7800020D330EF324F66EFE0EF420F76E0900B5
:106A8800F5CF98F00A00F5CF99F01DC196F01EC118
:106A980097F0A0EC70F096C003F197C004F1000ED7
:106AA8000101066F0A0E056FEFEC73F00101035147
:106AB800300F0101226F34D01DC196F01EC197F02E
:106AC80001011A51020D3D0EF324F66EFE0EF4205C
:106AD800F76E0900F5CF98F00A00F5CF99F0A0EC11
:106AE80070F0000196510F0B0101156F010115514E
:106AF800010DE30EF324F66EFE0EF420F76E080087
:106B0800F5CF22F10DD001011F51C00B000AD8B4F6
:106B1800ADD7800AD8B4D0D7400AD8B4A7D700D008
:106B28000101225132EC7BF000D001011A0701016A
:106B38001A29D8B402D0E7D700D007C1F6FF08C198
:106B4800F7FF0101074B082B0800F5CF22F10101DF
:106B58002251D8B4120093D5120012006E0E000113
:106B6800786F000E0001796F5ED2250E00017F1943
:106B7800D8B405D000017F5150EC7BF054D2000E00
:106B880000017E6F000E7D6F000E00017C6F07D044
:106B980000017C8500016C4B6D2B01D00BD06CC0C3
:106BA800F6FF6DC0F7FF0800F550300AD8B4F0D7EB
:106BB80001D0F5D76CC0F6FF6DC0F7FF0800F5509F
:106BC800A4EC79F0D8A0A8D0000E00017E6F000ECA
:106BD8007D6F00D07DC060F07EC061F0000E0001C6
:106BE800636F0A0E626FAAEC78F060C07DF061C036
:106BF8007EF0D00E00016E6FFF0E00016F6F6CC04B
:106C0800F6FF6DC0F7FF0800F5500001706F716B5B
:106C180000016E510001702700016F5100017123BE
:106C28000001705100017D270001715100017E2390
:106C380000016C4B6D2B6CC0F6FF6DC0F7FF0800B0
:106C4800F550A4EC79F0D8A067D0C4D765D012006D
:106C580085D000D000017C8F81D000017D510001DA
:106C6800755D00017E5100017659D8B009D0000148
:106C7800755100017D5F0001765100017E5B0AD0ED
:106C8800000E00017E6F000E7D6F04D0200E50ECC8
:106C98007BF000D000017D07D8A07E0700017D2988
:106CA800F5E100017E29D8B40DD0F0D70BD073C020
:106CB800D9FF74C0DAFFDF5050EC7BF00001734B52
:106CC800742B00D000017507D8A07607000175293C
:106CD800EEE100017629D8B4A6D1E9D7A4D178C0CD
:106CE800D9FF79C0DAFFDF5000017F6F020E000183
:106CF8007827000E792300D07F0E0001736F000EF5
:106D08000001746F000E0001766F010E756FA5D734
:106D1800C00E00017C1322D06CC0F6FF6DC0F7FFD7
:106D280000016C4B6D2B0800F5CF7FF000017F51FF
:106D3800000AD8B41200580AD8B48CD73B0AD8B481
:106D4800CED7070AD8B40AD00D0AD8B407D01C0A7F
:106D5800D8B4DED70D0AD8B47DD7CED77CC06EF0B4
:106D6800C00E00016E17D8A419D078C0D9FF79C019
:106D7800DAFFDECF7AF0DDCF7BF0020E0001782754
:106D8800000E792300017BAF5ED0030E00017C1357
:106D980000017A6D7B1FD8B07B2B55D078C0D9FF06
:106DA80079C0DAFFDECF7AF0DDCF7BF0020E00018A
:106DB8007827000E792347D000D0010E00017F6F9D
:106DC800050E00017F19D8B44BD001D049D000017D
:106DD8007F51020D330EF324F66EFE0EF420F76E8B
:106DE8000900F55000017A5D0900F55000017B5952
:106DF800D8A036D001D034D000017F2BE1D730D0D5
:106E0800010E00017F6F040E00017F19D8B428D04D
:106E180001D026D000017F51020D3D0EF324F66EFD
:106E2800FE0EF420F76E0900F55000017A5D0900A6
:106E3800F55000017B59D8A013D001D011D0000122
:106E48007F2BE1D70DD000017C51C00B000AD8B4CC
:106E5800B4D7800AD8B4D4D7400AD8B4AED700D0B3
:106E680000017D5100017E11D8B40CD07CC06EF0B9
:106E7800030E00016E17D8B405D000017D07D8A015
:106E88007E0700D0800E00017FBF7F0E00016E6F6D
:106E980000017D5100017F5D00017E51800A0001E3
:106EA8006E59D8B00BD000017F5100017D5F000EF4
:106EB80000017FBFFF0E00017E5B06D0000E0001BF
:106EC8007E6F000E7D6F00D000017CA520D07CC0B5
:106ED8006EF0030E00016E17D8B404D02D0E50ECDE
:106EE8007BF000D000017D5100017E11D8B42FD075
:106EF800300E50EC7BF000017D07D8A07E07000122
:106F08007D5100017E11D8B422D0F2D720D00001E3
:106F18007D5100017E11D8B40FD0200E50EC7BF0CB
:106F280000017D07D8A07E0700017D5100017E1178
:106F3800D8B402D0F2D700D07CC06EF0030E0001A6
:106F48006E17D8B404D02D0E50EC7BF000D07FC063
:106F580077F061D04ED000D000017751020D330E8A
:106F6800F324F66EFE0EF420F76E0900F5CF62F0FA
:106F78000A00F5CF63F07AC060F07BC061F022ECC4
:106F880071F060C067F061C068F0000E00016A6FC0
:106F98000A0E696F5BEC74F000016751300F000155
:106FA8007F6F34D07AC060F07BC061F00001775108
:106FB800020D3D0EF324F66EFE0EF420F76E090066
:106FC800F5CF62F00A00F5CF63F022EC71F0000112
:106FD80060510F0B0001726F00017251010DE30E39
:106FE800F324F66EFE0EF420F76E0800F5CF7FF05E
:106FF8000DD000017C51C00B000AD8B4ADD7800A6F
:10700800D8B4D0D7400AD8B4A7D700D000017F5150
:1070180050EC7BF000D00001770700017729D8B445
:1070280002D0E7D700D06CC0F6FF6DC0F7FF0001B3
:107038006C4B6D2B0800F5CF7FF000017F51D8B461
:10704800120093D5120012000001946F00019451B0
:1070580002014A2502014A6F000E02014B2102017A
:107068004B6F000E0001956F160E0001956501D05B
:1070780072D000019551010D280EF324D96E030E2C
:10708800F420DA6EDF50D8A463D000019551020DC8
:10709800000EF324D96E020EF420DA6E000194512A
:1070A8000001926F936B010E00019227000E93234B
:1070B800DE500001925DDE5000019359D8B02DD00A
:1070C80000019551020D000EF324D96E020EF42032
:1070D800DA6EDECF90F0DDCF91F00001945100011F
:1070E800926F936B0001921F931F924B932B000199
:1070F8009051000192270001915100019323000152
:107108009551020D000EF324D96E020EF420DA6EAA
:1071180092C0DEFF93C0DDFF1BD000019551020D28
:10712800000EF324D96E020EF420DA6EDE50DE1063
:10713800D8B40ED000019551020D000EF324D96E7B
:10714800020EF420DA6E010EDE6E000EDD6E00D047
:107158000001952B89D7E80E02014A5D030E020152
:107168004B59D8A01200180E02014A2502014A6F95
:10717800FC0E02014B2102014B6F552A000E000143
:10718800966F160E0001966501D063D000019651E6
:10719800010D280EF324D96E030EF420DA6EDE04F6
:1071A800D8A454D000019651020D000EF324D96ED4
:1071B800020EF420DA6E010EDB5004E1020EDE5CF2
:1071C800D8A029D0FF0E0001906FFF0E0001916F2B
:1071D80000019651020D000EF324D96E020EF42020
:1071E800DA6EDECF92F0DDCF93F00001905100010E
:1071F8009227000191510001932300019651020D3D
:10720800000EF324D96E020EF420DA6E92C0DEFF6F
:1072180093C0DDFF1BD000019651020D000EF32430
:10722800D96E020EF420DA6EDE50DE10D8B40ED01D
:1072380000019651020D000EF324D96E020EF420BF
:10724800DA6E010EDE6E000EDD6E00D00001962BA8
:1072580098D73B0E556412005550C40F556E512AED
:10726800000E0001976F160E0001976501D064D0DB
:1072780000019751010D280EF324D96E030EF42056
:10728800DA6E020EDE18D8A454D000019751020D10
:10729800000EF324D96E020EF420DA6E010EDB50D4
:1072A80004E1020EDE5CD8A029D0FF0E0001906F29
:1072B800FF0E0001916F00019751020D000EF3249B
:1072C800D96E020EF420DA6EDECF92F0DDCF93F0A5
:1072D8000001905100019227000191510001932370
:1072E80000019751020D000EF324D96E020EF4200E
:1072F800DA6E92C0DEFF93C0DDFF1BD0000197510C
:10730800020D000EF324D96E020EF420DA6EDE5060
:10731800DE10D8B40ED000019751020D000EF324F0
:10732800D96E020EF420DA6E010EDE6E000EDD6EEE
:1073380000D00001972B97D73B0E51641200515093
:10734800C40F516E000E0001986F160E000198656B
:1073580002D01200120000019851010D280EF324EA
:10736800D96E030EF420DA6E030EDE18D8A454D0BA
:1073780000019851020D000EF324D96E020EF4207C
:10738800DA6E010EDB5004E1020EDE5CD8A029D0D3
:10739800FF0E0001906FFF0E0001916F00019851E0
:1073A800020D000EF324D96E020EF420DA6EDECF41
:1073B80092F0DDCF93F00001905100019227000177
:1073C80091510001932300019851020D000EF324FE
:1073D800D96E020EF420DA6E92C0DEFF93C0DDFF94
:1073E8001BD000019851020D000EF324D96E020E35
:1073F800F420DA6EDE50DE10D8B40ED000019851B9
:10740800020D000EF324D96E020EF420DA6E010E7E
:10741800DE6E000EDD6E00D00001982B160E000106
:10742800986599D7120012001200000E0101776FBB
:10743800B3C178F1B4C179F1010E01014F6F10C1E8
:1074480000F111C101F1510E0101026F010E01019C
:10745800036FD1EC45F00101506FC9C155F178C1F6
:1074680056F179C157F1510E0001966F010E0001D6
:10747800976F750E0001986F010E0001996F760ED7
:1074880000019A6F010E00019B6FCCEC46F075C1AC
:1074980058F176C159F110C100F111C101F184EC24
:1074A8006BF001015A6FC8EC7CF001015B6FCCEC0A
:1074B8007CF001015C6FCEC013F10101133BF00EAB
:1074C8001317A5EC7CF0010113250001CD2501015E
:1074D8005D6F6CC25EF148C25FF149C260F146C29D
:1074E80061F147C262F144C263F145C264F162C20C
:1074F80065F163C266F160C267F161C268F181BA81
:1075080002D0010E01D0000E0101696F1B0E0101AE
:10751800776FE9C178F1EAC179F14F0E010177255A
:10752800D96EDA6A010EDA2278C1DFFF01017751DC
:107538000101136F146B010E01011327000E1423B0
:107548004F0E01011325D96E010E01011421DA6EC7
:1075580079C1DFFF58C278F159C279F10101775139
:107568000101136F146B020E01011327000E14237F
:107578004F0E01011325D96E010E01011421DA6E97
:1075880078C1DFFF010177510101136F146B030EFE
:1075980001011327000E14234F0E01011325D96E84
:1075A800010E01011421DA6E79C1DFFFB5C178F14E
:1075B800B6C179F1010177510101136F146B040E03
:1075C80001011327000E14234F0E01011325D96E54
:1075D800010E01011421DA6E78C1DFFF0101775134
:1075E8000101136F146B050E01011327000E1423FC
:1075F8004F0E01011325D96E010E01011421DA6E17
:1076080079C1DFFF010177510101136F146B060E79
:1076180001011327000E14234F0E01011325D96E03
:10762800010E01011421DA6EC5C0DFFFE9C178F14E
:10763800EAC179F1010177510101136F146B070E4B
:1076480001011327000E14234F0E01011325D96ED3
:10765800010E01011421DA6E78C1DFFF01017751B3
:107668000101136F146B080E01011327000E142378
:107678004F0E01011325D96E010E01011421DA6E96
:1076880079C1DFFFB5C178F1B6C179F10101775150
:107698000101136F146B090E01011327000E142347
:1076A8004F0E01011325D96E010E01011421DA6E66
:1076B80078C1DFFF010177510101136F146B0A0EC6
:1076C80001011327000E14234F0E01011325D96E53
:1076D800010E01011421DA6E79C1DFFF0B0E0101E1
:1076E8007727010112510101D8B434D04F0E00019F
:1076F800906F010E0001916F000E0001926F150E40
:107708000001936F010E0001946F140E0001956F34
:1077180077C196F066EC6EF0150E0101066F010E4A
:107728000101076F10C108F111C109F16FEC64F094
:10773800150E0001946F010E0001956F010177513C
:10774800140F0001966F000E0001976F020E18ECDF
:1077580062F0120010C106F111C107F14F0E0101CC
:10776800086F010E0101096F77C10AF1000E0101CE
:107778000B6F010E01010C6F000E01010D6FACECD7
:1077880048F012001200030E0001916F906989EC15
:107798007BF00101316F01013105D8A448D0930E67
:1077A8000101076FFF0E0101086F3CEC33F0000E7A
:1077B8000101366F000E356F010136BF0AD0F00E99
:1077C8000101355D030E01013659D8B011D001D041
:1077D8000FD0D4EC7CF035C190F036C191F0FF0E9B
:1077E8000001926F29EC77F00101354B362BE4D775
:1077F800030E0101366FF40E356F010136BF07D055
:10780800040E0101365DD8B012D001D010D0D4ECEE
:107818007CF035C190F036C191F0FF0E0001926FF7
:1078280029EC77F00101354B362BE7D700D0010E54
:107838000101316504D001013129D8A40CD0D4EC60
:107848007CF0030E0001916F9069020E0001926FA7
:1078580029EC77F000D0000E0101326F030E010110
:10786800326501D018D001013251010DF80EF32410
:10787800D96E010EF420DA6EE80E010132250001FE
:10788800906F0001916B030E912389EC7BF0DF6E02
:107898000101322BE3D70101F829D8A419D001013D
:1078A800F929D8A415D00101FA29D8A411D00101C9
:1078B800FB29D8A40DD0000E0101F86F000E0101BC
:1078C800F96F000E0101FA6F020E0101FB6F00D083
:1078D800030E0001916FEF0E906F89EC7BF00101B0
:1078E8002F6F01012F5191EC7CF00201F229D8A4ED
:1078F80051D00201F329D8A44DD00201F429D8A40B
:1079080049D00201F529D8A445D0899E4B0E9BEC9D
:107918007AF0000E9BEC7AF0000E9BEC7AF0000EE9
:107928009BEC7AF0000E9BEC7AF0000E0101336FAD
:107938002BD02ED0B1EC7BF0000190510101306FBB
:10794800030E010133651ED0FC0E0101236FFF0EEB
:107958000101246F010133510101256F266B0101DB
:107968002351010125270101245101012623F20E8B
:1079780001012525D96E020E01012621DA6E30C1DA
:10798800DFFF00D00101332B070E01013365D2D789
:10799800898E00D0000E0101346F070E0101346595
:1079A80001D018D001013451010D270EF324D96EEE
:1079B800010EF420DA6EF40E010134250001906FF7
:1079C8000001916B030E912389EC7BF0DF6E0101BE
:1079D800342BE3D7270E0001906F010E0001916F41
:1079E80019EC6EF0030E0001916FFC0E906F89EC9C
:1079F8007BF0FF0AD8A404D0000ECBEC7BF009D0B2
:107A0800030E0001916FFC0E906F89EC7BF0CBECBC
:107A18007BF0030E0001916FFD0E906F89EC7BF0F7
:107A2800FF0AD8B40BD001D009D0030E0001916F22
:107A3800FD0E906F89EC7BF0CFEC7AF0030E00011D
:107A4800916FFE0E906F89EC7BF0FF0AD8A403D0EB
:107A58000101C9691200030E0001916FFE0E906FBB
:107A680089EC7BF00101C96F12001200010120EEC0
:107A780001F02351D9262451DA2223C1E1FF24C180
:107A8800E2FFDE50E618D8A41200010120EE02F051
:107A98002351D9262451DA22010110EE01F0235195
:107AA800E1262451E222DE50E618D8A41200010192
:107AB80020EE02F02351D9262451DA22DE28D8B448
:107AC800120023C1D9FF24C1DAFFDF500101276F5B
:107AD800010127A14CD0010120EE04F02351D92641
:107AE8002451DA22010110EE03F02351E12624513A
:107AF800E222DE50E618D8A43AD0010120EE05F0C3
:107B08002351D9262451DA22010110EE04F0235121
:107B1800E1262451E222DE50E618D8A428D001013B
:107B280020EE05F02351D9262451DA22DE28D8B4D4
:107B38001ED0D4EC7CF0030E0001916FFD0E906F07
:107B4800010120EE03F02351D9262451DA22DF5017
:107B58000001926F29EC77F0010120EE03F0235128
:107B6800D9262451DA22DF50CFEC7AF000D0010177
:107B780027A342D0010120EE07F02351D926245132
:107B8800DA22010110EE06F02351E1262451E22207
:107B9800DE50E618D8A430D0010120EE08F02351B9
:107BA800D9262451DA22010110EE07F02351E126EB
:107BB8002451E222DE50E618D8A41ED0D4EC7CF082
:107BC800030E0001916FFE0E906F010120EE06F08A
:107BD8002351D9262451DA22DF500001926F29EC73
:107BE80077F0010120EE06F02351D9262451DA223C
:107BF800DF5093EC76F000D0010127A54CD00101AD
:107C080020EE0AF02351D9262451DA22010110EE80
:107C180009F02351E1262451E222DE50E618D8A4C7
:107C28003AD0010120EE0BF02351D9262451DA2253
:107C3800010110EE0AF02351E1262451E222DE5020
:107C4800E618D8A428D0010120EE0BF02351D9263C
:107C58002451DA22DE28D8B41ED0D4EC7CF0030EEE
:107C68000001916FFC0E906F010120EE09F0235185
:107C7800D9262451DA22DF500001926F29EC77F0DF
:107C8800010120EE09F02351D9262451DA22DF50D0
:107C9800CBEC7BF000D0010127A71200010120EEF8
:107CA8000DF02351D9262451DA22010110EE0CF0EF
:107CB8002351E1262451E222DE50E618D8A412000E
:107CC800010120EE0EF02351D9262451DA220101B8
:107CD80010EE0DF02351E1262451E222DE50E61881
:107CE800D8A41200010120EE0EF02351D926245108
:107CF800DA22DE28D8B41200D4EC7CF0030E00019E
:107D0800916FEF0E906F010120EE0CF02351D926F0
:107D18002451DA22DF500001926F29EC77F001013B
:107D280020EE0CF02351D9262451DA22DF5091ECB1
:107D38007CF012001200400E01011C6F000E0101C0
:107D48001D6F3E0E01011D6501D0D7D001011D51E7
:107D5800060DBD0EF3240001966F0A0EF4200001F3
:107D6800976F15C198F016C199F0040E00019A6F2B
:107D780015EC76F00009D8B4A0D001011D51060D0C
:107D8800040EF326000EF422BD0EF324D96E0A0E5B
:107D9800F420DA6EDF500F0B0F0AD8A440D001018F
:107DA80018510101D8B43BD0532A01011D51060DC9
:107DB800040EF326000EF422BD0EF324D96E0A0E2B
:107DC800F420DA6EDF90DF92DF94DF9617C190F02F
:107DD80001011D51F8EC66F0020E01011819D8B422
:107DE8001AD0030E0001986F0101175103EC4CF0F3
:107DF80001011A6F15C109F116C10AF11DC10BF174
:107E0800010E01010C6F1AC10DF1000E01010E6F78
:107E1800D8EC1FF000D001011D5112006BD00101F8
:107E28001D51060D040EF326000EF422BD0EF32498
:107E3800D96E0A0EF420DA6EDF500F0B0F0AD8B491
:107E480039D001011D51060D040EF326000EF4224F
:107E5800BD0EF324D96E0A0EF420DA6EDF90DF929D
:107E6800DF94DF9617C190F001011D51F8EC66F020
:107E7800020E01011819D8B4CED7030E0001986F6D
:107E88000101175103EC4CF001011A6F15C109F1FA
:107E980016C10AF11DC10BF1010E01010C6F1AC1C7
:107EA8000DF1000E01010E6FD8EC1FF0B4D7B3D757
:107EB800120020D0FF0E12001DD001011D51060D29
:107EC800BD0EF3240001966F0A0EF4200001976F8F
:107ED800DC0E0001986F010E0001996F040E00017D
:107EE8009A6F15EC76F00009D8B404D01DC11CF1C6
:107EF80004D000D001011D2B24D73E0E01011C65C2
:107F080021D0000E01011B6F3E0E01011B6501D03F
:107F180019D001011B51060D040EF326000EF422A0
:107F2800BD0EF324D96E0A0EF420DA6EDF500F0B63
:107F38000F0AD8A403D01BC11CF104D001011B2BCC
:107F4800E3D700D03F0E01011C6154D00101185144
:107F58000101D8B44FD015C196F016C197F00101B0
:107F68001C51060DBD0EF3240001986F0A0EF42073
:107F78000001996F040E00019A6FB9EC76F00101C7
:107F88001C51060D040EF326000EF422BD0EF32438
:107F9800D96E0A0EF420DA6EDF90DF92DF94DF9656
:107FA80017C190F001011C51F8EC66F0532A020E3B
:107FB80001011819D8B41AD0030E0001986F0101F5
:107FC800175103EC4CF001011A6F15C109F116C1E4
:107FD8000AF11CC10BF1010E01010C6F1AC10DF160
:107FE800000E01010E6FD8EC1FF000D001011C51EA
:107FF800120000D0FF0E120012000101236F0101D0
:10800800D351D8B404D0000E0101D36F1200040E6E
:10801800D6EC77F00009D8B40DD1010E0201646FD7
:1080280009D117EC5EF09AC0B3F19BC0B4F102011C
:10803800642B1200EEEC7CF090C058F291C059F21B
:108048000201642B1200010E0101C76F090E020123
:10805800416FC40E406F0201642B140E0101F51923
:10806800D8A40BD00101EF51D8B407D0000E0101FC
:10807800F56F000E0101EF6F1200140E0101F56596
:108088001200000E0001946F020E936F670E00013C
:10809800956FFF0E0001966F000E0001986F0A0E93
:1080A800976F47EC73F0000E0101F56F12000101A4
:1080B80023510201405D000E4159D8B003D002019E
:1080C800642B1200010123510201405F000E415B45
:1080D800120081B207D08A82070E0201436FD00EC8
:1080E800426F00D00201642B1200000E0101EB6FF9
:1080F800010123510201425D000E4359D8B048D016
:108108000101F551D8A417D00101C751D8B413D033
:10811800000E0001946F020E936F880E0001956F98
:10812800FF0E0001966F000E0001986F0A0E976F00
:1081380047EC73F000D0020176510201D8B425D083
:108148000101F551020D000EF324D96E030EF4203F
:10815800DA6E000EDE6E000EDD6E0101F52B000EEC
:108168000001946F020E936F880E0001956FFF0E49
:108178000001966F000E0001986F0A0E976F47EC8A
:1081880073F0000E0201766F00D00201642B12001A
:10819800010123510201425F000E435B1200040EED
:1081A80050EC7AF00009D8B40AD020C11BF121C1E3
:1081B8001CF122C11DF1040E14EC70F000D0140E55
:1081C8000101F519D8A411D00101EF51D8A40DD09F
:1081D8005DEC67F0010E0101EF6F8A92010E01015B
:1081E800D16F000E0001C06F1200140E0101F519C5
:1081F800D8A406D00101EF51D8A4120001D0120072
:10820800210E0201806513D0040E0201646F000E76
:108218000201806F0101F5510101F619D8A404D0BB
:10822800010E0201766F00D0F5C1F6F100D002010F
:10823800802B120002016451010D450EF324F66EE5
:10824800FE0EF420F76E0800F550000AD8B4A7D740
:10825800010AD8B4E6D6030AD8B4ECD6010AD8B4D1
:108268001200070AD8B41200010AD8B41200030A8F
:10827800D8B41200010AD8B4E6D60F0AD8B417D772
:10828800010AD8B426D7030AD8B42FD7010AD8B41C
:108298001200070AD8B41200010AD8B41200030A5F
:1082A80012001200000E0101076F000E066F010197
:1082B80007BF0AD00101075106E13F0E0101065D23
:1082C800D8B082D001D080D0DC0E0001966F010EAC
:1082D8000001976F06C190F007C191F0000E0001F0
:1082E800936F060E926F8EEC78F0BD0E000190250C
:1082F8000001986F0A0E000191210001996F040E88
:1083080000019A6FB9EC76F006C190F007C191F0C0
:10831800000E0001936F060E926F8EEC78F0040E3B
:1083280000019027000E00019123BD0E0001902549
:10833800D96E0A0E00019121DA6EDF80DF82DF84B8
:10834800DF8606C190F007C191F0000E0001936F1F
:10835800060E926F8EEC78F0040E00019027000E46
:1083680000019123BD0E00019025D96E0A0E00016F
:108378009121DA6EDF88DF8ADF8CDF8E06C190F00C
:1083880007C191F0000E0001936F060E926F8EECFC
:1083980078F0050E00019027000E00019123BD0E14
:1083A80000019025D96E0A0E00019121DA6EFF0EA8
:1083B800DF6E0101064B072B010107BF85D70101BD
:1083C800075102E17AD700D0000E0201866F000E35
:1083D8000101076F000E066F010107BF0AD00101F6
:1083E800075166E1FA0E0101065DD8B061D001D0EF
:1083F8005FD006C104F107C105F1D8900101043727
:108408000537010E01010427000E0523C90E0101DD
:108418000425D96E080E01010521DA6EDF80DF829E
:10842800DF84DF86DF88DC0E0001976F010E000114
:10843800986F0101065140EC6FF006C104F107C1C5
:1084480005F1D890010104370537010E0101042711
:10845800000E0523C90E01010425D96E080E01017D
:108468000521DA6EDF8ADF8CDF8ED89001010635B0
:10847800D96E01010735DA6EC90ED926080EDA223F
:10848800DF80DF82DF84DF86DF88DF8AD890010122
:108498000635D96E01010735DA6EC90ED926080EE0
:1084A800DA223F0EDF160101064B072B95D700D0C5
:1084B800DC0E0001966F010E0001976FF60E0001A9
:1084C800986F020E0001996F040E00019A6FB9ECC3
:1084D80076F00201EA69000E02018F6F030E0201B5
:1084E800906F000E0201B76F000E0201B96F020E05
:1084F8000201BA6F000E0201BB6F010E0201E56FA7
:10850800000E0201846F000E02017D6F120001014E
:108518000A6F0201E9510201D8B42CD0240E0101DE
:108528000A19D8A423D00201822B020E0201821953
:10853800D8A41AD1000E0201E96F010E0201726F70
:10854800000E0201706F000E0201736F000E02012F
:10855800746F010E0201716F000E0001BA6F000EF8
:108568000201826F000E02017F6FFED0000E020131
:10857800826FFAD0020171510201D8B4DFD0020132
:1085880072510201D8B407D00AC1C3F0000E02012B
:10859800726F010E06D0020170510201D8B404D0E6
:1085A800000E0201706F5DD00001BA510101046F25
:1085B800056BFE0E0101066FFF0E0101076F00013A
:1085C800C3510101086F096B010106510101082718
:1085D8000101075101010923010104510101081991
:1085E8000FE10101055101010919D8A409D00D0EA7
:1085F80001010A19D8A435D0010E0201736F31D0D8
:108608000001BA510101046F056BFF0E0101066FED
:10861800FF0E0101076F0001C3510101086F096BCB
:108628000101065101010827010107510101092330
:1086380001010451010108190FE10101055101016E
:108648000919D8A409D00A0E01010A19D8A409D019
:10865800010E0201746F05D001010A5102017F1B4E
:1086680000D00001BA51010DC00EF324D96E050ED9
:10867800F420DA6E0AC1DFFF0001BA2B0001BA51FB
:108688000001C319D8A43DD0000E0201716F02C1C8
:10869800D9FF03C1DAFFBAC0DFFFC00E0001966F31
:1086A800050E0001976F00C198F001C199F0BAC09A
:1086B8009AF0B9EC76F0010E0201E96F000E0201A2
:1086C800826F02017F510201D8B405D0000E020169
:1086D8007F6F000E1200020173510201D8B40BD053
:1086E800020174510201D8B406D0000E02017F6F56
:1086F800010E120039D0000E02017F6F1CD012004B
:1087080033D03E0E0001BA652FD0010E0201E96F89
:10871800000E0201826F000E0001BA6F000E020106
:10872800726F000E0201706F000E0201736F000E6F
:108738000201746FE0D7000E120016D0010E02017C
:10874800E96F000E0201826F000E02017F6F000EBA
:108758000201726F000E0201736F000E0201746F46
:10876800000E0201706F00D0000E120012000E0EF3
:108778000101216F100E206F010E0101226F3E0EC4
:1087880001EC40F0020135BF0CD00201355104E183
:1087980002013405D8A005D002013407D8A0350756
:1087A80000D00101BE51D8A402D0110E18D0020188
:1087B800345102013511D8A415D004EC77F0000922
:1087C800D8B407D0010E0201356F2C0E346F120E8B
:1087D80006D0000E0201356F1E0E346F100E000118
:1087E800AA6F00D0EDEC23F0140E0101F519D8A4FE
:1087F80016D00101EF51D8B412D00001C505D8A494
:1088080015D0150E25EC74F0000191510FE1020E00
:108818000001905DD8B00AD085EC7CF007D000014B
:10882800C551D8A403D07FEC7CF000D00101CA5117
:10883800D8B424D00001C42B1E0E0001C46526D074
:10884800000E0201FE6FD4EC7CF0030E0001916F64
:10885800EC0E906FFEC292F029EC77F0000E010149
:10886800CB6F010E0101D56F000E0001C46F00D05F
:108878000101CA51D8B40AD0FBD708D00001C451AD
:10888800D8B404D0010E0101CB6F00D00101CB5147
:108898000101D8B42DD00201FE51D8B429D01F0E41
:1088A8000001C46125D0010E0001C4652AD0000171
:1088B800C551D8A40ED07FEC7CF0020E01011C6FCC
:1088C800580E1B6F010E01011D6F150E14EC70F090
:1088D80018D00001C505D8A414D085EC7CF0150E7D
:1088E80012EC7BF00ED00DD0000E0001C46F0ED03C
:1088F8000101CB510101D8B409D01F0E0001C46198
:1089080005D0000E0101CB6FEFD700D0140ED6ECC6
:1089180077F00009D8B40BD00201522904E1020112
:108928005329D8B404D00201524B532B00D0140E53
:1089380050EC7AF00009D8B40BD01B0E01011C6F63
:10894800580E1B6F000E01011D6F140E14EC70F011
:10895800160ED6EC77F00009D8B40CD0F80E010149
:10896800106F010E0101116F000E0101126FD2ECA0
:1089780044F000D00101D151D8B41200F80E010121
:10898800106F010E0101116F000E0101126F19EC39
:108998003AF0000E0101D16F12001200260E0101FB
:1089A8003D6F020E0101176F400E0101186F400E56
:1089B8000101196F000E01013E6FB7D0BAD0000156
:1089C800C0510F0D01013E510101136F146BF3509B
:1089D80001011327F45001011423010114BF08D029
:1089E800010114516FE1140E0101135DD8B06AD072
:1089F8000001C0510F0D01013E510101136F146BAD
:108A0800F35001011327F45001011423D8900101F8
:108A180013371437000E01011325D96E030E010117
:108A28001421DA6E01013E510101156F166BD890C1
:108A3800010115371637030E01011527000E1623FD
:108A4800170E01011525E16E010E01011621E26ED6
:108A5800DFCFE7FF0001C0510F0D01013E510101B9
:108A6800136F146BF35001011327F4500101142301
:108A7800D890010113371437010E01011327000E96
:108A88001423000E01011325D96E030E01011421D0
:108A9800DA6E01013E510101156F166BD890010184
:108AA80015371637040E01011527000E1623170E69
:108AB80001011525E16E010E01011621E26EDFCFDD
:108AC800E7FF31D001013E510101136F146BD890BB
:108AD800010113371437030E01011327000E142365
:108AE800170E01011325D96E010E01011421DA6E4A
:108AF800000EDF6E01013E510101136F146BD89017
:108B0800010113371437040E01011327000E142333
:108B1800170E01011325D96E010E01011421DA6E19
:108B2800000EDF6E00D001013E2B0E0E01013E65E6
:108B380046D7E9C138F1EAC139F1B5C13AF1B6C150
:108B48003BF1C0C03CF10001C02B0001C0510F0D2A
:108B5800F4BE0AD0F45004E1140EF35CD8A004D09B
:108B6800000E0001C06F00D010C106F111C107F15D
:108B7800170E0101086F010E0101096F3DC10AF1CD
:108B8800000E01010B6F010E01010C6F000E0101B7
:108B98000D6FACEC48F012001200000E0101076FD7
:108BA800000E066F010107BF0AD00101075106E157
:108BB800FA0E0101065DD8B0E8D001D0E6D000C1B8
:108BC80094F001C195F0010106519DEC5FF0000998
:108BD800D8B4D0D006C104F107C105F1D89001017D
:108BE80004370537010E01010427000E0523C90EBD
:108BF80001010425D96E080E01010521DA6EDF5046
:108C08001F0B1F0AD8B4A6D0D89001010635D96E1B
:108C180001010735DA6EC90ED926080EDA22DF50AF
:108C28003F0B0101046F01010451060DBD0EF32431
:108C3800D96E0A0EF420DA6E02C1E1FF03C1E2FF29
:108C4800DFCFE7FFD89001010635D96E010107355E
:108C5800DA6EC90ED926080EDA22DF503F0B010161
:108C6800046F01010451060D010EF326000EF422D3
:108C7800BD0EF324D96E0A0EF420DA6E010110EE4F
:108C880001F00251E1260351E222DFCFE7FFD8903D
:108C980001010635D96E01010735DA6EC90ED926EC
:108CA800080EDA22DF503F0B0101046F0101045165
:108CB800060D020EF326000EF422BD0EF324D96E23
:108CC8000A0EF420DA6E010110EE02F00251E126DC
:108CD8000351E222DFCFE7FFD89001010635D96EB4
:108CE80001010735DA6EC90ED926080EDA22DF50DF
:108CF8003F0B0101046F01010451060D030EF32619
:108D0800000EF422BD0EF324D96E0A0EF420DA6E9A
:108D1800010110EE03F00251E1260351E222DFCFF8
:108D2800E7FF06C104F107C105F1D8900101043736
:108D38000537010E01010427000E0523C90E0101A4
:108D48000425D96E080E01010521DA6EDF501F0BCC
:108D5800120010D0D89001010635D96E01010735EF
:108D6800DA6EC90ED926080EDA223F0EDF161F0E5C
:108D7800120000D00101064B072B010107BF1FD7C6
:108D88000101075102E114D700D01F0E1200120092
:108D9800000E0101036F000E026F010103BF0AD02C
:108DA8000101035106E13F0E0101025DD8B0D4D0A4
:108DB80001D0D2D096C0D9FF97C0DAFF02C190F097
:108DC80003C191F0000E0001936F060E926F8EECB6
:108DD80078F0BD0E00019025E16E0A0E0001912188
:108DE800E26EDE50E618D8A4ACD0000120EE01F007
:108DF8009651D9269751DA2202C190F003C191F019
:108E0800000E0001936F060E926F8EEC78F0010E43
:108E180000019027000E00019123BD0E000190254E
:108E2800E16E0A0E00019121E26EDE50E618D8A428
:108E380088D0000120EE02F09651D9269751DA2207
:108E480002C190F003C191F0000E0001936F060E6D
:108E5800926F8EEC78F0020E00019027000E000150
:108E68009123BD0E00019025E16E0A0E00019121AB
:108E7800E26EDE50E618D8A464D0000120EE03F0BC
:108E88009651D9269751DA2202C190F003C191F088
:108E9800000E0001936F060E926F8EEC78F0030EB1
:108EA80000019027000E00019123BD0E00019025BE
:108EB800E16E0A0E00019121E26EDE50E618D8A498
:108EC80040D002C190F003C191F0000E0001936FF1
:108ED800060E926F8EEC78F0050E00019027000EBA
:108EE80000019123BD0E00019025D96E0A0E0001E4
:108EF8009121DA6E98C0E1FF99C0E2FFDFCFE7FF6A
:108F080002C190F003C191F0000E0001936F060EAC
:108F1800926F8EEC78F0040E00019027000E00018D
:108F28009123BD0E00019025D96E0A0E00019121F2
:108F3800DA6EDF380F0B9AC0D9FF9BC0DAFFDF6EFD
:108F480012000101024B032B010103BF33D70101BA
:108F5800035102E128D700D098C0D9FF99C0DAFFA1
:108F6800FF0EDF6E9AC0D9FF9BC0DAFF0F0EDF6ECF
:108F7800120012004950D8B4D9D002017B51D8B49C
:108F880010D0000E02017B6F000E0001C96F000EA9
:108F98000001CA6F000E496E000E0101CE6F000E6F
:108FA800120002017951D8A40DD0000E0001C96F3A
:108FB800000E0001CA6F000E496E000E0101CE6F4F
:108FC800000E12000001CA51FD0F9AC0D9FF9BC0C4
:108FD800DAFFDF6E000E01010C6F400E0001CA655A
:108FE8000DD0000E0001C96F000E0001CA6F000EFF
:108FF800496E000E0101CE6F000E1200020E010133
:109008000D6F11D001010D51010D800EF324D96EA1
:10901800050EF420DA6EDF5001010C1901010C6F06
:1090280001010D2B00D00001CA5101010D5DD8A02E
:10903800E9D701010C510101D8B40DD0000E00018F
:10904800C96F000E0001CA6F000E496E000E0101C3
:10905800CE6F000E12009AC0D9FF9BC0DAFF3D0EFA
:10906800DF640DD0000E0001C96F000E0001CA6F49
:10907800000E496E000E0101CE6F000E12009AC05C
:10908800D9FF9BC0DAFFDF500101066F076BFD0EA9
:109098000101086FFF0E0101096F0001CA510101AA
:1090A8000A6F0B6B0101085101010A2701010951DF
:1090B80001010B230101065101010A1906E1010111
:1090C800075101010B19D8B40DD0000E0001C96F6A
:1090D800000E0001CA6F000E496E000E0101CE6F2E
:1090E800000E1200800E0001906F050E0001916FB6
:1090F800020E0001926F98C093F099C094F0000E90
:109108000001956F9AC0D9FF9BC0DAFFDF500001BC
:10911800966F66EC6EF0000E0001C96F000E00013C
:10912800CA6F000E496E010E12000FD04950D8B414
:109138000CD0000E0001C96F000E0001CA6F000EAE
:10914800496E000E0101CE6F00D0000E1200120011
:1091580002018651D8A4D2D00201B851D8A4CED0E9
:10916800870E0001966F020E0001976FF60E000140
:10917800986F020E0001996F040E00019A6FB9EC06
:1091880076F08FC2EAF2060E0201866F06C196F0EB
:1091980007C197F08B0E0001986F020E0001996FBE
:1091A800040E00019A6FB9EC76F0E00E0001966F9C
:1091B800010E0001976F870E0001986F020E0001E3
:1091C800996F040E00019A6FB9EC76F004EC7CF00C
:1091D80002018F6F000E0201BB6F01010D510101E9
:1091E800D8B402D0040E01D0030E0201906F00D053
:1091F800270E01010A6156D00101C651D8B431D0F9
:1092080001010C510101D8B42CD0010E010108252F
:109218000001906F000E010109210001916FFF0EFE
:1092280001010A250001926F0001936BFF0E932341
:1092380092EC5DF001010E6F050E01010F6F010147
:10924800D8900E3701010F2FFAD701010E510201F4
:10925800916F08C1D9FF09C1DAFFDF5002019127D8
:1092680008D008C1D9FF09C1DAFFDF500201916FA8
:1092780000D008C190F009C191F0010E0001926F71
:10928800910E0001936F020E0001946F010E000110
:10929800956F01010A050001966F66EC6EF00AC130
:1092A800B7F200D00BC1B8F201010B510101D8B4DB
:1092B80003D0000E0201866F0001B351D8A404D078
:1092C800000E0001CB6F18D08B0E0001966F020EB6
:1092D8000001976FEE0E0001986F020E0001996F62
:1092E800040E00019A6F15EC76F00009D8B404D08A
:1092F800020E0201866F00D0010E1200000E12004D
:1093080012000101096F000E01010B6F000E0C6FB6
:10931800000E0D6F000E0E6F040E00019A19D8A4EE
:109328000BD098C00BF199C00CF10101000E0CBFD5
:10933800FF0E0D6F0E6F54D000019A510001D8A492
:109348002FD098C005F199C006F1000E010106BFA3
:10935800FF0E076F086F0F0ED8900101053706370B
:1093680007370837E82EF8D705C190F006C191F005
:1093780007C192F008C193F0E80E0001946F030E44
:10938800956F000E966F000E976F27EC68F090C0EF
:109398000BF191C00CF192C00DF193C00EF120D0E9
:1093A80000019A05D8A41CD098C005F199C006F10F
:1093B800000E010106BFFF0E076F086F0F0ED89051
:1093C80001010537063707370837E82EF8D705C1F2
:1093D8000BF106C10CF107C10DF108C10EF100D067
:1093E8000BC105F10CC106F10DC107F10EC108F161
:1093F8000101051F061F071F081F052B000E062366
:1094080007230823FF0E0101052501010B6FFF0E3D
:109418000101062101010C6F000E01010721010164
:109428000D6F000E0101082101010E6F01010905F0
:10943800D8A40BD00CC1CFFF0BC1CEFF8C0ECD6EC4
:109448009F809E909D80CD8000D0030E0101091958
:10945800D8A40AD00CC1B3FF0BC1B2FF8C0EB16EF9
:10946800A292A192A082B1800001B951D8A41200A1
:10947800010E0001B96F000E01010A6F160E0101FD
:109488000A6502D01200120001010A51020D000EF5
:10949800F324D96E020EF420DA6E000EDE6E000E92
:1094A800DD6E01010A2B160E01010A65EDD71200C7
:1094B800120012000001746F000E0001766F000E9A
:1094C800776F000E786F000E796F040E00016F1928
:1094D800D8A40BD06DC076F06EC077F00001000EF6
:1094E80077BFFF0E786F796F54D000016F5100017C
:1094F800D8A42FD06DC070F06EC071F0000E0001BE
:1095080071BFFF0E726F736F0F0ED8900001703726
:10951800713772377337E82EF8D770C060F071C0B2
:1095280061F072C062F073C063F0E80E0001646F0E
:10953800030E656F000E666F000E676F50EC69F0E2
:1095480060C076F061C077F062C078F063C079F0EF
:1095580020D000016F05D8A41CD06DC070F06EC07B
:1095680071F0000E000171BFFF0E726F736F0F0E66
:10957800D89000017037713772377337E82EF8D7F3
:1095880070C076F071C077F072C078F073C079F06F
:1095980000D076C070F077C071F078C072F079C0F2
:1095A80073F00001701F711F721F731F702B000E64
:1095B800712372237323FF0E000170250001766F5B
:1095C800FF0E000171210001776F000E000172216A
:1095D8000001786F000E000173210001796F00010E
:1095E8007405D8A40BD077C0CFFF76C0CEFF8C0E01
:1095F800CD6E9F809E909D80CD8000D0030E00018F
:109608007419D8A40AD077C0B3FF76C0B2FF8C0E05
:10961800B16EA292A192A082B1800001B951D8A4E2
:109628001200010E0001B96F000E0001756F160ED1
:109638000001756502D01200120000017551020D7B
:10964800000EF324D96E020EF420DA6E000EDE6EE0
:10965800000EDD6E0001752B160E00017565EDD745
:109668001200120012001E0E01017F19D8A44DD05D
:1096780001018005D8A4C0D0020E01017A2501019C
:10968800106F000E01017B210101116F000E010115
:10969800126F19EC3AF0000E50EC7AF00009D8B4C9
:1096A8000CD0130E01011C6F880E1B6F000E0101F8
:1096B8001D6F000E14EC70F000D00E0E01018165D4
:1096C80018D0040E50EC7AF00009D8A412D0040E79
:1096D800D6EC77F00009D8A40CD0000E01011C6F5D
:1096E800010E1B6F000E01011D6F040E14EC70F0CB
:1096F80000D0150E01011C6F7C0E1B6F000E0101BE
:109708001D6F160E14EC70F077D01F0E01017F1933
:10971800D8A46BD0410E01018019D8A46DD00101E5
:1097280020EE02F07A51D9267B51DA22DF50D8A4F4
:1097380025D0010120EE03F07A51D9267B51DA2297
:10974800DF50D8A41BD0010120EE04F07A51D926AD
:109758007B51DA22DF50D8A411D085EC7CF0F80ECA
:109768000101106F010E0101116F000E0101126F4E
:1097780019EC3AF0150E12EC7BF03ED0010120EE08
:1097880002F07A51D9267B51DA22DE04D8A434D0EB
:10979800010120EE03F07A51D9267B51DA22DE044A
:1097A800D8A42AD0010120EE04F07A51D9267B51A1
:1097B800DA22DE04D8A420D07FEC7CF0F80E010178
:1097C800106F010E0101116F000E0101126F19ECEB
:1097D8003AF0020E01011C6F580E1B6F010E0101B9
:1097E8001D6F150E14EC70F007D001017F05D8A489
:1097F80003D0010E120000D0000E1200120000016A
:10980800996F030E00019819D8A460D03C0E00018E
:10981800996102D0000E12D0C30E000199250001F3
:10982800906F0001916BFF0E9123000E0001936F62
:10983800050E926F90EC66F00001905100019A6F4E
:1098480000D000019A510101006F016BFF0E010168
:10985800026FFF0E0101036F98C004F1010E0101B0
:10986800056F000E0101066F0101042B04D0D8908A
:109878000101053706370101042FF9D7010102510B
:1098880001010527010103510101062301010051CE
:109898000101055D01010651800A0101076F0101FF
:1098A8000151800A01010759D8B071D098C000F160
:1098B800010E0101016F0101002B03D00101D890B5
:1098C80001370101002FFAD75DD061D0040E0001E5
:1098D8009819D8A45CD0DC0E000199250001906F7E
:1098E8000001916BFF0E9123000E0001936F050E8E
:1098F800926F90EC66F00001905100019A6F0001A0
:109908009A510101006F016BFF0E0101026FFF0EFA
:109918000101036F98C004F1010E0101056F000EEB
:109928000101066F0101042B04D0D890010105370D
:1099380006370101042FF9D701010251010105275A
:109948000101035101010623010100510101055DD7
:1099580001010651800A0101076F01010151800AC6
:1099680001010759D8B013D098C000F1010E0101C8
:10997800016F0101002B03D00101D89001370101CB
:10998800002FFAD70101010500019A6F00D00001EC
:109998009A51120012000001966F000194510001C3
:1099A800D8B402D0200E01D0600E0001956F9AD075
:1099B8000001955102090301C36F630E0301CA6FC9
:1099C800000196511B0F55D0000195510209030162
:1099D800C36F640E0301CA6F00019651040F49D08A
:1099E800210E000196610BD0000195510A0903016F
:1099F800C36F650E0301CA6F96C0CBF382D0000116
:109A080095510A090301C36F640E0301CA6F00016F
:109A18009651190F2ED075D0000195510A090301EE
:109A2800C36F650E0301CA6F00019651210F21D043
:109A38000C0E000196610DD0000195510209030139
:109A4800C36F630E0301CA6F00019651040DF350F2
:109A5800B9D70B0E000196650FD0190E000196615B
:109A68000BD000019551020912D0640E0301CA6F90
:109A780011D00301CB6F45D0180E0001966510D0A8
:109A88001F0E000196610CD0000195510A090301CF
:109A9800C36FEBD700019645E846FC0BD00FE9D71A
:109AA8001E0E0001966509D0270E0001966105D0AB
:109AB8000CD0650E0301CA6F0ED0260E0001966504
:109AC80020D0320E000196611CD0000195510A0980
:109AD8000301C36FEED700019645E846FC0B850FDE
:109AE800C8D70FD00101EE51010AD8B461D7030AD3
:109AF800D8B46AD7010AD8B473D7070AD8B48CD7B0
:109B080097D7C3C392F0000EE1EC78F0CAC392F085
:109B18000E0EE1EC78F0CBC392F0100EE1EC78F089
:109B2800120004005250D8A4120001D012000EC135
:109B380052F0000E01010F6FB0D0000E0001BF6F90
:109B48000101CE51D8A49DD03E0E01010D6199D0DE
:109B5800010E0101C86F0101CE51D8B404D0000E26
:109B68000101C86F95D0200E63EC57F00301D05166
:109B780001090001926F1A0EE1EC78F0800E63EC97
:109B880057F001010D51020FFAEC7BF00001AE51C4
:109B9800FAEC7BF0000E0101136F64D00101135140
:109BA800010DF35001010B25D96EF45001010C2170
:109BB800DA6EDF500101106F01011305D8B410D01F
:109BC800020E01011319D8B40BD00001BF510101D5
:109BD80010190001BF6F01011051FAEC7BF03FD062
:109BE80001011305D8A42BD0040E0101006F010E4A
:109BF8000CEC5DF000019C51010100250101116F81
:109C080000019D51010101210101126F0101125151
:109C1800FAEC7BF0010112510001BF190001BF6F7E
:109C2800010111510201625D0101125102016359E2
:109C3800D8B015D011C162F212C163F210D0020E71
:109C480001011319D8A40BD001011151FAEC7BF0D2
:109C58000001BF51010111190001BF6F00D00101BE
:109C6800132B00D001010D510101135DD8A096D727
:109C78000001BF51FAEC7BF00400010E0101D36F23
:109C880009D03D0E01010D6501D002D00101CE5170
:109C9800520600D001010F2B00D001010E51010125
:109CA8000F5DD8A04AD7120002018651D8A4BBD0B4
:109CB8000201B851D8A4B7D0870E0001966F020EE2
:109CC8000001976FF60E0001986F020E0001996F60
:109CD800040E00019A6FB9EC76F08FC2EAF2060E14
:109CE8000201866F000E0201B96F020E0201BA6FFF
:109CF80006C196F007C197F08B0E0001986F020E0F
:109D08000001996F040E00019A6FB9EC76F0E00E2D
:109D18000001966F010E0001976F870E0001986F82
:109D2800020E0001996F040E00019A6FB9EC76F0EB
:109D380004EC7CF002018F6F000E0201B86F1D0E5B
:109D48000201916F210E0201926F08C193F23F0E3A
:109D58000201946F080E0101096F01010851010108
:109D68000903F3CF0AF1000E01010B6F46D03F0E35
:109D780001010A6121D001010A51060DBD0EF3242B
:109D88000001906F0A0EF4200001916F000E00018F
:109D9800926F910E0001936F020E0001946F010102
:109DA8000B51040DF350060F0001956F040E0001CE
:109DB800966F66EC6EF01CD0DC0E0001906F010E01
:109DC8000001916F000E0001926F910E0001936FD8
:109DD800020E0001946F01010B51040DF350060FA0
:109DE8000001956F040E0001966F66EC6EF000D0CE
:109DF80001010A2B01010B2B00D0010109510101BE
:109E08000B5DD8A0B4D7030E0201906F260E020195
:109E1800B76F0001B351D8A404D0000E0001CB6F76
:109E280000D0010E1200000E12001200000E0001F8
:109E38009B6F3E0E00019B6502D0120012000001CC
:109E48009B51060D040EF326000EF422BD0EF324DA
:109E5800D96E0A0EF420DA6EDF500F0B0F0AD8B451
:109E68009CD0010E0001986F00019B51060D040E55
:109E7800F326000EF422BD0EF324D96E0A0EF42048
:109E8800DA6EDF500F0B0001996F00019851000145
:109E98009927DF5000019919F00B00019919DF6E1D
:109EA80053500F0DF3CF90F0F4CF91F0000E000156
:109EB800936F400E926F90EC66F0040E00019027AD
:109EC800000E0001912300019B51060D040EF3269C
:109ED800000EF422BD0EF324D96E0A0EF420DA6EB9
:109EE800DF500F0B0001986F996B00019051000132
:109EF800985D00019951800A00019A6F0001915103
:109F0800800A00019A59D8B012D000019B51060D61
:109F1800040EF326000EF422BD0EF324D96E0A0EA9
:109F2800F420DA6EDF500F0B0F0AD8A436D00001E8
:109F38009B51060D040EF326000EF422BD0EF324E9
:109F4800D96E0A0EF420DA6EDF80DF82DF84DF86C6
:109F580000019B51060D050EF326000EF422BD0EDE
:109F6800F324D96E0A0EF420DA6EFF0EDF6E0001BC
:109F78009B51060D040EF326000EF422BD0EF324A9
:109F8800D96E0A0EF420DA6EDF88DF8ADF8CDF8E66
:109F98005350D8B402D0530600D000019B2B3E0E7C
:109FA80000019B654CD712001200000190050001CA
:109FB8009111D8A43CD00001A0510101A91906E1D2
:109FC8000001A1510101AA19D8B4AAD0020168510F
:109FD8000201D8B402D0000E1200010E0201686F0F
:109FE800000E0101A925D96E050E0101AA21DA6E1C
:109FF80092C0E1FF93C0E2FFDFCFE7FF0101A94B69
:10A00800AA2B0101AABF0DD00101AA5105E1800EBA
:10A018000101A95DD8A005D0000E0101AA6F000EAC
:10A02800A96F000E0201686F010E120079D0020EAE
:10A038000001901900019111D8A43CD00001A2514F
:10A048000101AB1906E10001A3510101AC19D8B413
:10A0580067D0020169510201D8B402D0000E120083
:10A06800010E0201696FC90E0101AB25D96E060EFA
:10A078000101AC21DA6E92C0E1FF93C0E2FFDFCFAD
:10A08800E7FF0101AB4BAC2B0101ACBF0DD0800E3B
:10A098000101AB5D010E0101AC59D8A005D0000E3D
:10A0A8000101AC6F000EAB6F000E0201696FBCD7E7
:10A0B800120036D0040E0001901900019111D8A4A5
:10A0C8002FD000019E51441805E100019F51451809
:10A0D800D8B426D04650D8B402D0000E1200010ED3
:10A0E800466E000E4424D96E040E4520DA6E92C0E6
:10A0F800E1FF93C0E2FFDFCFE7FF444A452A45BEB0
:10A108000AD0455004E1270E445CD8A004D0000EC4
:10A11800456E000E446E000E466E86D7120000D0C3
:10A12800000E12001200156E000E176E000E186E4B
:10A13800000E196E000E1A6E040E1018D8A40AD05C
:10A148000EC017F00FC018F0000E18BEFF0E196EE3
:10A158001A6E4CD01050D8A42CD00EC011F00FC0DD
:10A1680012F0000E12BEFF0E136E146E0F0ED89072
:10A178001136123613361436E82EF9D711C001F00D
:10A1880012C002F013C003F014C004F0E80E056E0C
:10A19800030E066E000E076E000E086E5AEC70F085
:10A1A80001C017F002C018F003C019F004C01AF07B
:10A1B8001DD01004D8A41AD00EC011F00FC012F090
:10A1C800000E12BEFF0E136E146E0F0ED8901136CD
:10A1D800123613361436E82EF9D711C017F012C00C
:10A1E80018F013C019F014C01AF000D017C011F0FD
:10A1F80018C012F019C013F01AC014F0111E121E64
:10A20800131E141E112A000E122213221422FF0EEE
:10A218001124176EFF0E1220186E000E1320196EEF
:10A22800000E14201A6E1504D8A40BD018C0CFFF46
:10A2380017C0CEFF8C0ECD6E9F809E909D80CD80E6
:10A2480000D0030E1518D8A40AD018C0B3FF17C041
:10A25800B2FF8C0EB16EA292A192A082B1800001D1
:10A26800B951D8A41200010E0001B96F000E166E84
:10A27800160E166402D0120012001650020D000EBF
:10A28800F324D96E020EF420DA6E000EDE6E000E94
:10A29800DD6E162A160E1664F0D712001200120090
:10A2A8001D0E01013A6F12C100F113C101F13B0EFD
:10A2B8000101026F010E0101036FD1EC45F00101AC
:10A2C8003F6F1D0E0101146F260E0101156F12C19B
:10A2D80090F013C191F0000E0001926F140E00016E
:10A2E800936F010E0001946F020E0001956F040E2A
:10A2F8000001966F66EC6EF03B0E0001906F010E48
:10A308000001916F000E0001926F140E0001936F0F
:10A31800010E0001946F060E0001956F040E0001F6
:10A32800966F66EC6EF03FC11EF112C190F013C13A
:10A3380091F0000E0001926F140E0001936F010E50
:10A348000001946F0B0E0001956F040E0001966FCB
:10A3580066EC6EF03B0E0001906F010E0001916FEC
:10A36800000E0001926F140E0001936F010E0001A0
:10A37800946F0F0E0001956F040E0001966F66EC46
:10A388006EF03FC127F112C190F013C191F0000E99
:10A398000001926F140E0001936F010E0001946F7B
:10A3A800140E0001956F040E0001966F66EC6EF0B6
:10A3B8003B0E0001906F010E0001916F000E00012D
:10A3C800926F140E0001936F010E0001946F180E26
:10A3D8000001956F040E0001966F66EC6EF03FC1A8
:10A3E80030F110C106F111C107F1140E0101086F17
:10A3F800010E0101096F3AC10AF1000E01010B6F4C
:10A40800010E01010C6F000E01010D6FACEC48F05C
:10A418001200120090C0D9FF91C0DAFF000EDF6E63
:10A42800000120EE01F09051D9269151DA22000E58
:10A43800DF6E4D50D8A403D04E50D8B438D01E0E7D
:10A448000001BB6103D00001BB2B00D01E0E000130
:10A45800BB19D8A41AD00E0E0001BC6516D090C046
:10A46800D9FF91C0DAFF030EDF6E2D0E0001BB6F1E
:10A47800000120EE01F09051D9269151DA22030E05
:10A48800DF6E2D0E0001BC6F0FD01E0E0001BB1930
:10A49800D8A40AD090C0D9FF91C0DAFF020EDF6EAF
:10A4A8002D0E0001BB6F00D0000E4E6E13D0010EB2
:10A4B8000001BB650BD01F0E0001BB6107D090C027
:10A4C800D9FF91C0DAFF010EDF6E00D0000E000147
:10A4D800BB6F00D00101C4510101D8A403D04F5073
:10A4E800D8B439D01E0E0001BC6103D00001BC2BCA
:10A4F80000D01E0E0001BC19D8A41AD00E0E0001FF
:10A50800BB6516D090C0D9FF91C0DAFF030EDF6E8D
:10A518002D0E0001BB6F000120EE01F09051D926ED
:10A528009151DA22030E11D02D0E0001BC6F10D00C
:10A538001E0E0001BC19D8A40BD0000120EE01F0BA
:10A548009051D9269151DA22020EDF6EEDD700D054
:10A55800000E4F6E1200010E0001BC650ED01F0EDA
:10A568000001BC610AD0000120EE01F09051D9260B
:10A578009151DA22010EDF6E00D0000E0001BC6F8F
:10A58800120012001D0E01011A6F200E01011B6F2F
:10A5980016C11CF1E0EC7CF001011D6F030E0101F6
:10A5A800496F0101165101014903F3CF48F1000E2B
:10A5B80001014C6F000E4B6F6DD0400E0101086F0A
:10A5C800010E0101096F440E01010A6F010E01011C
:10A5D8000B6F4A0E01010C6F010E01010D6F010195
:10A5E80048519DEC61F0400E0001906F010E000192
:10A5F800916F000E0001926F1A0E0001936F010E09
:10A608000001946F01014B51090DF350040F000133
:10A61800956F040E0001966F66EC6EF0440E000113
:10A62800906F010E0001916F000E0001926F1A0EDB
:10A638000001936F010E0001946F01014B51090D48
:10A64800F350080F0001956F040E0001966F66EC39
:10A658006EF04BC190F04CC191F0000E0001936F69
:10A66800090E926F8EEC78F00C0E00019027000E08
:10A67800000191231A0E00019025D96E010E0001E8
:10A688009121DA6E4AC1DFFF0101482B01014B4BD2
:10A698004C2B00D0010149510101176F186B0101C2
:10A6A800175101014B5D01014C51800A0101196FDD
:10A6B80001011851800A01011959D8A07ED714C187
:10A6C80006F115C107F11A0E0101086F010E01010B
:10A6D800096F260E01010A6F000E01010B6F010EB2
:10A6E80001010C6F000E01010D6FACEC48F0120077
:10A6F800120002C198F00001996B9A6B01010135B3
:10A708000001983701E39981000198510101066F12
:10A7180001010651D8A40AD0000E0101006F000EF5
:10A728000101016F000E0101026F120005C198F0CE
:10A738000001996B9A6B010104350001983701E318
:10A7480099810001985101010B6F01010B51D8A4A7
:10A758000AD0000E0101006F000E0101016F000E0A
:10A768000101026F120001010B517B0F0101062745
:10A7780002C10BF10101055101010B1B800E010102
:10A788000B170101018F0101048FFF0E010103174F
:10A79800FF0E01010417000E01010517000E01014B
:10A7A800076F000E0101086F000E0101096F070E07
:10A7B80001010A6F00D0010100A10DD00101035170
:10A7C8000101072701010451010108230101055175
:10A7D8000101092300D00101D8900233013300336D
:10A7E8000101D89003370437053701010A2FE3D751
:10A7F80000D0090E01010A6F00D0010100A10DD09F
:10A808000101035101010727010104510101082336
:10A81800010105510101092300D00101D89002333B
:10A82800013300330101D89009330833073301019C
:10A838000A2FE3D700D007C190F008C191F009C1F1
:10A8480092F006C193F00BC194F0DAEC5AF090C084
:10A8580000F191C001F192C002F11200120090C003
:10A86800D9FF91C0DAFF1D0EDF6E000120EE01F066
:10A878009051D9269151DA22230EDF6E000120EE85
:10A8880002F09051D9269151DA22CEC092F00001FF
:10A89800923BF00E9217A5EC7CF000019225000186
:10A8A800CD25DF6E000120EE03F09051D92691519D
:10A8B800DA22CEC092F00001923BF00E9217A5EC7E
:10A8C8007CF0000192250001CD25DF6E000120EE0D
:10A8D80004F09051D9269151DA22CEC092F00001AD
:10A8E800923BF00E9217A5EC7CF000019225000136
:10A8F800CD25DF6E000120EE05F09051D92691514B
:10A90800DA22C9C1DFFF000120EE06F09051D926F6
:10A918009151DA22C9C1DFFF000120EE07F0905102
:10A92800D9269151DA22C9C1DFFF000120EE08F0D3
:10A938009051D9269151DA22C8EC7CF0DF6E0001E3
:10A9480020EE09F09051D9269151DA22C8EC7CF01A
:10A95800DF6E000120EE0AF09051D9269151DA22DB
:10A96800C8EC7CF0DF6E000120EE0BF09051D92688
:10A978009151DA22B4EC7CF0DF6E000120EE0CF08D
:10A988009051D9269151DA22B4EC7CF0DF6E0001A7
:10A9980020EE0DF09051D9269151DA22B4EC7CF0DA
:10A9A800DF6E0E0E0001936F00019351120012002A
:10A9B8000EC110F10101116B126B01010D3501017E
:10A9C800103701E311810101105101011A6F0101D2
:10A9D8001A51D8A40AD0000E01010C6F000E0D6F99
:10A9E800000E0E6F000E0F6F1200170E0101106F90
:10A9F8000CC111F10DC112F10EC113F101011029A1
:10AA08000101146F05D00101D890133312331133AB
:10AA18000101142FF8D7010111510101156F01012E
:10AA28000D8FFF0E01010C17FF0E01010D17000E0F
:10AA380001010E1701010C510101166F01010D51A1
:10AA48000101176F01010E510101186F0101196B06
:10AA58008E0E01011A5F01011AAF1BD001011A51B4
:10AA6800800A8F0FD8B00BD0000E01010C6F000EBA
:10AA78000D6F000E0E6F000E0F6F120000D0010157
:10AA8800D890193318331733163301011A3FF7D703
:10AA98001FD0170E01011A6514D0000E01010C6FAA
:10AAA800000E0D6F000E0E6F000E0F6F120009D012
:10AAB8000101D890163717371837193701011A07C7
:10AAC80000D001011A510101D8B402D0F1D700D049
:10AAD800010115510101D8B40AD00101191F181F2D
:10AAE800171F166D000E17231823192300D016C13F
:10AAF8000CF117C10DF118C10EF119C10FF11200B7
:10AB0800120002C106F10101076B086B0101013552
:10AB18000101063701E307810101065101010D6FAB
:10AB280001010D51D8A40AD0000E0101006F000EDA
:10AB38000101016F000E0101026F120005C106F14B
:10AB48000101076B086B010104350101063701E3B8
:10AB580007810101065101010E6F01010E51D8A4B0
:10AB68000AD0000E0101006F000E0101016F000EF6
:10AB78000101026F1200000E01010A6F000E0101AF
:10AB88000B6F000E01010C6F01010E51890F0101BD
:10AB98000D5F02C10EF10101055101010E1B800E6E
:10ABA80001010E170101018FFF0E01010017FF0EB1
:10ABB80001010117000E010102170101048FFF0EA8
:10ABC80001010317FF0E01010417000E010105170B
:10ABD800180E0101096F00D00101D8900A370B3710
:10ABE8000C37010103510101005D0101045101010C
:10ABF80001590101055101010259D8A00ED00101E6
:10AC080003510101005F010104510101015B0101D0
:10AC180005510101025B01010A810101D890003749
:10AC2800013702370101092FD7D700D00AC190F0A8
:10AC38000BC191F00CC192F00DC193F00EC194F0CC
:10AC4800DAEC5AF090C000F191C001F192C002F123
:10AC5800120012000001B851D8B498D00101CE51A9
:10AC6800D8A494D0000E00019A6FBEC090F00001E5
:10AC7800916B000E0001936F000E926FC90E0001D8
:10AC8800946F000E956F000E966F000E976FD3ECC1
:10AC980072F0000E00019025D96E060E0001912178
:10ACA800DA6EDF5064EC7AF0D3A60FD0040E0101FF
:10ACB800006F010E0CEC5DF000019C5101010025B4
:10ACC8000101236F00019D5114D0040E0101006F92
:10ACD800010E0CEC5DF000019C5101010027000100
:10ACE8009D5101010123E60E010100250101236F99
:10ACF800FF0E010101210101246F00D0CCEC7CF092
:10AD080020C1D9FF21C1DAFFDF6E010120EE02F078
:10AD18002051D9262151DA2223C1DFFF010120EE7B
:10AD280001F02051D9262151DA2201012451DF6E88
:10AD380020C10BF121C10CF101012251030F0101C6
:10AD48000D6F010E01010E6F95EC4DF00001C7511A
:10AD5800D8A417D0080E25EC74F00001905100011A
:10AD6800C7250001C76FC7C01BF101011C6B010E8D
:10AD780001011D6F080E14EC70F0000E0001C76F82
:10AD880000D0000E02017E6F010E1200000E1200AC
:10AD9800120006EEC9F015EE6EF0EE6AE550E150CD
:10ADA800FCE1E250FAE105EE00F010EEFFF0EE6A89
:10ADB800E550E150FCE1E250FAE104EE00F0E40E67
:10ADC800EE6AE806FDE103EE00F0C30EEE6AE8065F
:10ADD800FDE102EE00F0C10EEE6AE806FDE101EECB
:10ADE800A7F0420EEE6AE806FDE100EE9CF0330E95
:10ADF800EE6AE806FDE100EE44F0170EEE6AE8069A
:10AE0800FDE1840EF66ECF0EF76E000EF86E06EEBC
:10AE180000F010EEC9F00900F5CFEEFFE550E15063
:10AE2800FAE1040EF66EF60EF76E000EF86E03EEFB
:10AE3800C3F010EE20F00900F5CFEEFFE550E15029
:10AE4800FAE12E0EF66EF00EF76E000EF86E02EEB8
:10AE5800C1F010EE3DF00900F5CFEEFFE550E150EE
:10AE6800FAE11C0EF66EF80EF76E000EF86E01EEA3
:10AE7800E9F010EE13F00900F5CFEEFFE550E150D0
:10AE8800FAE1E00EF66EF90EF76E000EF86E0900A4
:10AE9800F5CFCFF0D20EF66EF90EF76E000EF86E03
:10AEA80000EE5BF010EE05F00900F5CFEEFFE5507F
:10AEB800E150FAE1000EF86E0001F9EF04F000012C
:10AEC800956F80D0000E0001906F010EB4EC77F002
:10AED800E40E00D000D0E82EFCD700D000D003014B
:10AEE800C3511F0B80090301C36FC3C392F0000E47
:10AEF800E1EC78F0800E0101BE6F0B0E0001946F3B
:10AF0800620EE82EFED7942FFCD700D01200030162
:10AF1800C3511F0B60090301C36FC3C392F0000E36
:10AF2800E1EC78F0CEC090F0000EB4EC77F0600E53
:10AF38000101BE6F1200000E0001906F000EB4EC0C
:10AF480077F00301C3511F0B20090301C36FC3C36B
:10AF580092F0000EE1EC78F0680E0001946FE40EB8
:10AF6800E82EFED7942FFCD700D0200E0101BE6F2B
:10AF78001200000E0001906F000EB4EC77F0030190
:10AF8800C3511F0B40090301C36FC3C392F0000EE6
:10AF9800E1EC78F0400E0101BE6F1200000E0001D6
:10AFA800906F000EB4EC77F00301C3511F0B03013F
:10AFB800C36F000E0101BE6FC3C392F0000EE1EC37
:10AFC80078F0120000019551000AD8B4E7D7200A9A
:10AFD800D8B4B1D7600AD8B4CCD7200AD8B497D798
:10AFE800E00AD8A412006ED712007ED0030E00012A
:10AFF800C56F8A80020E0001996F8F0E986F040E3C
:10B0080000019A6F030E85EC49F01200020E000150
:10B01800C56F8A80020E0001996F8F0E986F040E1B
:10B0280000019A6F030E85EC49F012008A84000E25
:10B038000001996F1A0E986F040E00019A6F030EA3
:10B0480085EC49F00001C62B040E0001C56F120003
:10B058008A94630E0001C66509D08A90000E00012B
:10B06800C56F000E0001C66FB1901200020E0001FC
:10B07800C56F020E0001996F750E986F040E0001DE
:10B088009A6F030E85EC49F012008A84000E0001C5
:10B09800996F410E986F040E00019A6F030E85ECAC
:10B0A80049F00001C62B050E0001C56F12008A94F5
:10B0B800630E0001C66509D08A90010E0001C56FB4
:10B0C800000E0001C66FB1901200030E0001C56F9B
:10B0D800020E0001996F4E0E986F040E00019A6FD0
:10B0E800030E85EC49F012000001C551000AD8B4DE
:10B0F8007DD7010AD8B48AD7030AD8B497D7010AEA
:10B10800D8B4C3D7070AD8B4A3D7010AD8A4120061
:10B11800CED7120096C0D9FF97C0DAFFDE04D8A4B4
:10B1280089D0050E0001986585D0F90E0001982593
:10B138000001906F0001916BFF0E9123000E00013A
:10B14800936F050E926FD1EC6AF0000190510001E7
:10B158009111D8A46FD0FF0E0101006FFF0E0101FD
:10B16800016F000198510101026F036B0101005149
:10B1780001010227010101510101032301010251CB
:10B1880000019625D96E0101035100019721DA6E5D
:10B198000101C951DE18D8B420D0FF0E0101006F9B
:10B1A800FF0E0101016F000198510101026F036B4D
:10B1B800010100510101022701010151010103238D
:10B1C8000101025100019625D96E010103510001C8
:10B1D8009721DA6EDE28D8A403D0010E12002AD0F7
:10B1E8000101C929D8A423D0FF0E0101006FFF0E69
:10B1F8000101016F000198510101026F036B010108
:10B20800005101010227010101510101032301013C
:10B21800025100019625D96E0101035100019721C1
:10B22800DA6EDE28D8B403D0020E120003D0000E66
:10B23800120000D0000E12001200000E0001BF6FB5
:10B248003E0E000198611200200E63EC57F0800E4C
:10B2580063EC57F000019851020FFAEC7BF0000103
:10B26800AE51FAEC7BF0000E00019A6F21D000017C
:10B278009A51010DF35000019625D96EF450000142
:10B288009721DA6EDF500001BF190001BF6F00017E
:10B298009A51010DF35000019625D96EF450000122
:10B2A8009721DA6EDF50FAEC7BF000019A2B00D080
:10B2B8000001985100019A5DD8A0D9D70001BF516B
:10B2C800FAEC7BF000D0ACA2FED7240E97EC7BF012
:10B2D80000D0ACA2FED7240E97EC7BF000D0ACA235
:10B2E800FED700019851050F97EC7BF000D0ACA277
:10B2F800FED7C00E97EC7BF0000E0001996F14D0BA
:10B3080000D0ACA2FED700019951010DF350000105
:10B318009625D96EF45000019721DA6EDF5097EC2C
:10B328007BF00001992B00D0000198510001995D34
:10B33800D8B002D0E6D700D0ACA2FED70001BF51EA
:10B3480097EC7BF000D0ACA2FED70D0E97EC7BF00B
:10B3580000D0ACA2FED70A0E97EC7BF012001200C8
:10B368000001900500019111D8A42AD00001B6511E
:10B37800D8A4120001D01200010E0001B66F000E11
:10B388000001A025D96E050E0001A121DA6E92C038
:10B39800DFFF0001A04BA12B0001A1BF0DD00001D0
:10B3A800A15105E1800E0001A05DD8A005D0000ED6
:10B3B8000001A16F000EA06F000E0001B66F120011
:10B3C800020E0001901900019111D8A42AD00001A1
:10B3D800B751D8A4120001D01200010E0001B76FB6
:10B3E800C90E0001A225D96E060E0001A321DA6E4E
:10B3F80092C0DFFF0001A24BA32B0001A3BF0DD019
:10B40800800E0001A25D010E0001A359D8A005D04D
:10B41800000E0001A36F000EA26F000E0001B76FAF
:10B428001200040E0001901900019111D8A4120015
:10B438000001A751D8A4120001D01200010E00018A
:10B44800A76F000E00019E25D96E040E00019F21F2
:10B45800DA6E92C0DFFF00019E4B9F2B00019FBF59
:10B468000DD000019F5105E1270E00019E5DD8A077
:10B4780005D0000E00019F6F000E9E6F000E0001A8
:10B48800A76F120012000001600500016111D8A425
:10B498002AD00001B651D8A4120001D01200010E22
:10B4A8000001B66F000E0001A025D96E050E00013F
:10B4B800A121DA6E62C0DFFF0001A04BA12B0001C1
:10B4C800A1BF0DD00001A15105E1800E0001A05DD2
:10B4D800D8A005D0000E0001A16F000EA06F000ECD
:10B4E8000001B66F1200020E00016019000161111F
:10B4F800D8A42AD00001B751D8A4120001D0120054
:10B50800010E0001B76FC90E0001A225D96E060E03
:10B518000001A321DA6E62C0DFFF0001A24BA32B5A
:10B528000001A3BF0DD0800E0001A25D010E000135
:10B53800A359D8A005D0000E0001A36F000EA26F7A
:10B54800000E0001B76F1200040E0001601900011F
:10B558006111D8A412000001A751D8A4120001D08B
:10B568001200010E0001A76F000E00019E25D96E82
:10B57800040E00019F21DA6E62C0DFFF00019E4BBE
:10B588009F2B00019FBF0DD000019F5105E1270EA1
:10B5980000019E5DD8A005D0000E00019F6F000E2F
:10B5A8009E6F000E0001A76F120012000001935158
:10B5B8000001D8B408D00001905100019111000198
:10B5C8009211D8A413D0000E0001906F000E000154
:10B5D800916F000E0001926F120008D00001932BAA
:10B5E8000001D89092339133903300D0000E0001BF
:10B5F80090150001956F000E000191150001966FDE
:10B60800FE0E000192150001976F0001955100018F
:10B61800961100019711D8B413D0E0D711D00001CA
:10B62800932B010E00019027000E00019123000EBC
:10B63800000192230001D89092339133903300D0C7
:10B64800000E000190150001956F000E0001911584
:10B658000001966FFF0E000192150001976F00011F
:10B6680095510001961100019711D8B40AD0D7D787
:10B6780008D0000193070001D8909037913792378E
:10B6880000D0000191BF05D0020E00019361F1D7EF
:10B6980000D0000193B103D00001919F00D00001B8
:10B6A800D8909333000193510001921300019451F3
:10B6B8000001D8B403D00001928F00D090C090F060
:10B6C80091C091F092C092F0120012000104021091
:10B6D800D8A42AD00001B651D8A4120001D0120073
:10B6E800010E0001B66F000E0001A025D96E050EEF
:10B6F8000001A121DA6E03C0DFFF0001A04BA12BDE
:10B708000001A1BF0DD00001A15105E1800E00018B
:10B71800A05DD8A005D0000E0001A16F000EA06F9B
:10B72800000E0001B66F1200020E01180210D8A414
:10B738002AD00001B751D8A4120001D01200010E7E
:10B748000001B76FC90E0001A225D96E060E0001CF
:10B75800A321DA6E03C0DFFF0001A24BA32B000177
:10B76800A3BF0DD0800E0001A25D010E0001A359F8
:10B77800D8A005D0000E0001A36F000EA26F000E26
:10B788000001B76F1200040E01180210D8A41200AD
:10B798000001A751D8A4120001D01200010E000127
:10B7A800A76F000E00019E25D96E040E00019F218F
:10B7B800DA6E03C0DFFF00019E4B9F2B00019FBF85
:10B7C8000DD000019F5105E1270E00019E5DD8A014
:10B7D80005D0000E00019F6F000E9E6F000E000145
:10B7E800A76F120012000001B851D8A404D00101BB
:10B7F800CE51D8B403D0000E12007ED002016B5196
:10B808000201D8A479D0000E00019A6FBEC090F052
:10B818000001916B17C192F00001936BC90E0001F2
:10B82800946F000E956F000E966F000E976FD3EC15
:10B8380072F0000E00019025D96E060E00019121CC
:10B84800DA6EDF5064EC7AF0D3A60FD0040E010153
:10B85800006F010E0CEC5DF000019C510101002508
:10B868000101186F00019D5114D0040E0101006FF1
:10B87800010E0CEC5DF000019C5101010027000154
:10B888009D5101010123E60E010100250101186FF8
:10B89800FF0E010101210101196F00D0CCEC7CF0F1
:10B8A80014C1D9FF15C1DAFFDF6E010120EE02F0E5
:10B8B8001451D9261551DA2218C1DFFF010120EEF3
:10B8C80001F01451D9261551DA2201011951DF6E00
:10B8D80014C10BF115C10CF101011651030F01013F
:10B8E8000D6F010E01010E6F95EC4DF0010E020176
:10B8F8006B6F010E120000D0000E1200120072D001
:10B90800030E0001C56F8A80020E0F6E8F0E0E6E39
:10B91800040E106E030E97EC50F01200020E000198
:10B92800C56F8A80020E0F6E8F0E0E6E040E106E9B
:10B93800030E97EC50F012008A84000E0F6E1A0E58
:10B948000E6E040E106E030E97EC50F00001C62B1D
:10B95800040E0001C56F12008A94630E0001C665CB
:10B9680009D08A90000E0001C56F000E0001C66F55
:10B97800B1901200020E0001C56F020E0F6E750E17
:10B988000E6E040E106E030E97EC50F012008A84AF
:10B99800000E0F6E410E0E6E040E106E030E97EC25
:10B9A80050F00001C62B050E0001C56F12008A94E5
:10B9B800630E0001C66509D08A90010E0001C56FAB
:10B9C800000E0001C66FB1901200030E0001C56F92
:10B9D800020E0F6E4E0E0E6E040E106E030E97ECD6
:10B9E80050F012000001C551000AD8B489D7010AE5
:10B9F800D8B494D7030AD8B49FD7010AD8B4C7D704
:10BA0800070AD8B4A9D7010AD8A41200D0D71200BF
:10BA18000101066F01010605D8A416D0CECF07F1A3
:10BA28000101086BCFCF09F101010A6B010109512E
:10BA380001010A6F096B0101075101010927010181
:10BA4800085101010A2300D0030E01010619D8A4E8
:10BA580016D0B2CF07F10101086BB3CF09F101018C
:10BA68000A6B0101095101010A6F096B01010751B4
:10BA7800010109270101085101010A2300D0010130
:10BA880000510101D8A435D009C102F10AC103F15E
:10BA98000101021F031F024B032BFF0E01010225A8
:10BAA8000101046FFF0E010103210101056F04C1AB
:10BAB80090F005C191F00001926B936BE80E0001C4
:10BAC800946F030E956F000E966F000E976F5AECE9
:10BAD80072F0100E07D00001D89093339233000112
:10BAE80091339033E82EF7D790C000F191C001F15F
:10BAF800120009C102F10AC103F10101021F031F6B
:10BB0800024B032BFF0E010102250101006FFF0EFE
:10BB1800010103210101016F120012000001C2514D
:10BB28000001D8A404D0010E0001C26F00D0C2C029
:10BB380097F0000E00019A6F5DD0000E0001996F1A
:10BB4800000E986F2CD000019A51010DF35000019E
:10BB58009025D96EF45000019121DA6E0001C2518E
:10BB6800010DC10EF324E16E020EF420E26EE750DF
:10BB78000001946F00019A51010DF35000019025C6
:10BB8800E16EF45000019121E26EE7500001942526
:10BB980000019A25DF6E0001984B992B00D0000117
:10BBA800C251010DC10EF324D96E020EF420DA6ED3
:10BBB800DF50070B0001946F956B00019451000151
:10BBC800985D00019951800A0001966F0001955116
:10BBD800800A00019659D8A0B6D70001C22B070EDB
:10BBE8000001C26504D0000E0001C26F00D0000140
:10BBF8009A2B00D000019A510001946F956B0001B7
:10BC080092510001945D00019551800A0001966FE0
:10BC180000019351800A00019659D8A08ED70001DF
:10BC2800975112001200000E0101056F000E01016C
:10BC3800046F000E036F000E0101076F000E066F00
:10BC4800000E0001906F040EDFEC76F0000E01018B
:10BC5800076F000E066F000E0101056F090E010146
:10BC6800056501D023D0ECEC7CF000D072EC7CF0C0
:10BC78000009D8A4FBD7C4500101046F036BC3505B
:10BC880001010313040E0101056509D001010351E7
:10BC980001010627010104510101072300D00A0E02
:10BCA800E82EFED700D00101052BD8D706C196F0A3
:10BCB80007C197F0000E0001996F050E986FA0EC70
:10BCC80070F096C006F197C007F1020E0001906F60
:10BCD800040EDFEC76F0C29006C190F007C191F037
:10BCE800000E0001936F070E926F8EEC78F090C0F3
:10BCF80096F091C097F0000E0001996F060E986FAC
:10BD0800A0EC70F096C006F197C007F10101D2517E
:10BD18000101065F000E0101D2BFFF0E0101075BA2
:10BD280006C19AF007C19BF012001200000E000134
:10BD3800996F000193AF0DD00001931F921F911FBF
:10BD4800906D000E912392239323010E0001996FA9
:10BD580000D0000197AF0AD00001971F961F951FCA
:10BD6800946D000E95239623972300D000019451DB
:10BD7800000195110001961100019711D8B43FD028
:10BD8800010E0001986F09D00001D89094379537BB
:10BD9800963797370001982B00D0000197BF02D043
:10BDA800F3D700D0000194510001905D0001955136
:10BDB80000019159000196510001925900019751D3
:10BDC80000019359D8A011D0000194510001905F4F
:10BDD800000195510001915B000196510001925BB1
:10BDE800000197510001935B00D00001D890973370
:10BDF8009633953394330001982FD4D700D000019F
:10BE080099510001D8B40AD00001931F921F911FC5
:10BE1800906D000E91239223932300D090C090F050
:10BE280091C091F092C092F093C093F0120012006A
:10BE38000001996F000E00019A6F0F015A99000EC8
:10BE48000101CE6F000E5A6E000E0001C96F000E80
:10BE58000001CA6F000E546E000E496E200E0101DB
:10BE6800BE6F000E0201796F000E0101C86F000E4F
:10BE78000101D36F000E0101D96F000E526E898641
:10BE8800050E0001976F260EE82EFED7972FFCD7D8
:10BE980000D08996680E0001976FE40EE82EFED751
:10BEA800972FFCD700D0000E0001946F0001995124
:10BEB800CFEC4CF0000E00019A6F1F0E00019A653E
:10BEC80001D015D000019A51010DC30EF324D96E8B
:10BED800030EF420DA6EDF500001926F00019A51D0
:10BEE800020DF350E1EC78F000019A2BE6D700013F
:10BEF800AE51CBEC7BF0F29600F00F015A8900F0BE
:10BF080081CF98F000F0F290F28699C0ECF1150E0E
:10BF18000001976FC60EE82EFED7972FFCD700D0EA
:10BF28006DEC7BF0010E0001CD6F000E0001CE6FAD
:10BF380012000001986FFA0E0001986178D098C03D
:10BF480099F000019A6B99C096F09AC097F0000199
:10BF5800D890963797370001D8909637973796C07C
:10BF680099F097C09AF094C0D9FF95C0DAFF99C0AC
:10BF780092F09AC093F05CEC7CF00001976FDE5071
:10BF880000019719D8A451D0000120EE01F0945176
:10BF9800D9269551DA22010E000199250001926FE8
:10BFA800000E00019A210001936F5CEC7CF0000107
:10BFB800976FDE5000019719D8A437D0000120EE02
:10BFC80002F09451D9269551DA22020E00019925E2
:10BFD8000001926F000E00019A210001936F5CEC42
:10BFE8007CF00001976FDE5000019719D8A41DD08E
:10BFF800000120EE03F09451D9269551DA22030E60
:10C00800000199250001926F000E00019A2100019C
:10C01800936F5CEC7CF00001976FDE50000197197C
:10C02800D8A403D0010E120000D0000E1200000E9A
:10C03800120012001EC020F0216A226A1D34203628
:10C0480001E3218020502A6E2A50D8A409D0000E7E
:10C058001C6E000E1D6E000E1E6E000E1F6E12006E
:10C06800170E206E1CC021F01DC022F01EC023F048
:10C078002028246E04D0D890233222322132242E54
:10C08800FAD72150256E1D8EFF0E1C16FF0E1D16A9
:10C09800000E1E161C50266E1D50276E1E50286E50
:10C0A800296A8E0E2A5E2AAE17D02A50800A8F0F70
:10C0B800D8B00AD0000E1C6E000E1D6E000E1E6E4B
:10C0C800000E1F6E120000D0D89029322832273275
:10C0D80026322A3EF9D719D0170E2A6411D0000E3D
:10C0E8001C6E000E1D6E000E1E6E000E1F6E1200DE
:10C0F80007D0D89026362736283629362A0600D083
:10C108002A50D8B402D0F5D700D02550D8B409D0D9
:10C11800291E281E271E266C000E272228222922C7
:10C1280000D026C01CF027C01DF028C01EF029C072
:10C138001FF0120012000FC013F0146A156A0E34B3
:10C14800133601E314801350166E1650D8A407D086
:10C15800000E0D6E000E0E6E000E0F6E120012C055
:10C1680013F0146A156A1134133601E3148013505E
:10C178001B6E1B50D8A407D0000E0D6E000E0E6E5D
:10C18800000E0F6E12001B507B0F16260FC01BF0FF
:10C1980012501B1A800E1B160E8E118EFF0E1016D3
:10C1A800FF0E1116000E1216000E176E000E186EF6
:10C1B800000E196E070E1A6E00D00DA007D0105091
:10C1C8001726115018221250192200D0D8900F3279
:10C1D8000E320D32D8901036113612361A2EEDD78F
:10C1E80000D0090E1A6E00D00DA007D010501726E7
:10C1F800115018221250192200D0D8900F320E3246
:10C208000D32D8901932183217321A2EEDD700D0C5
:10C2180017C001F018C002F019C003F016C004F0EE
:10C228001BC005F0EDEC68F001C00DF002C00EF087
:10C2380003C00FF012001200010E0001CD6F000EB6
:10C2480041EC7BF0000E0001CE6FFF0E93EC76F010
:10C25800000ECBEC7BF0080E91EC7CF0DCC1F8F121
:10C26800DDC1F9F1DEC1FAF1DFC1FBF1CDC023F187
:10C27800D4EC7CF0030E0001916FEF0E906FB4ECDC
:10C288007CF00001926F29EC77F0D4EC7CF0030E7F
:10C298000001916FFC0E906FC8EC7CF00001926F6A
:10C2A80029EC77F0D4EC7CF0030E0001916FFD0EC1
:10C2B800906F23C192F029EC77F0D4EC7CF0030E58
:10C2C8000001916FFE0E906FC9C192F029EC77F0D2
:10C2D800D4EC7CF0030E0001916FE80E906FFF0E16
:10C2E8000001926F29EC77F0D4EC7CF0030E00018A
:10C2F800916FE90E906FFF0E0001926F29EC77F0B5
:10C30800D4EC7CF0030E0001916FEA0E906FFF0EE3
:10C318000001926F29EC77F0D4EC7CF0030E000159
:10C32800916FEB0E906FFF0E0001926F29EC77F082
:10C3380012000101136FFA0E010113614FD00F0EA5
:10C348000101006F010E0101016F01011351DCECC5
:10C358006BF00F0E0001966F010E0001976F08C178
:10C3680098F009C199F0040E00019A6FB9EC76F0C3
:10C3780001011351020DC90EF324D96E080EF420E1
:10C38800DA6EDF503F0B01010E6F01010E51060DF1
:10C39800BD0EF3240001966F0A0EF4200001976F7A
:10C3A8000AC198F00BC199F0040E00019A6FB9EC1C
:10C3B80076F001011351020D010EF326000EF4224E
:10C3C800C90EF324D96E080EF420DA6EDF501F0B65
:10C3D8000CC1D9FF0DC1DAFFDF6E1200DC0E0001BF
:10C3E800966F010E0001976F08C198F009C199F086
:10C3F800040E00019A6FB9EC76F0DC0E0001966F1E
:10C40800010E0001976F0AC198F00BC199F0040E54
:10C4180000019A6FB9EC76F00CC1D9FF0DC1DAFFB3
:10C42800FF0EDF6E120012000101036F01010351BC
:10C4380027EC7AF003C190F00001916B000196514E
:10C44800050F0001926FB4EC59F097C098F0060EF2
:10C4580000019827020E0001996F0001982B03D064
:10C468000001D89099370001982FFAD70001995107
:10C478000101006F03C190F00001916B00C192F0BF
:10C48800B4EC59F0000E0101016F000E0101026FBA
:10C4980025D003C190F00001916B01010251010DFB
:10C4A800F35000019425D96EF45000019521DA6EFD
:10C4B800DF500001926FB4EC59F001010251010DF7
:10C4C800F35000019425D96EF45000019521DA6EDD
:10C4D800DF500101011B0101022B00D00001965120
:10C4E8000101025DD8A0D5D703C190F00001916B7E
:10C4F80001C192F0B4EC59F003C190F00001916BC6
:10C508000D0E0001926FB4EC59F003C190F00001D8
:10C51800916B0A0E0001926FB4EC59F01200000EF4
:10C5280000019A6F5ED0000E0001996F000E986F9F
:10C538002DD000019A51010DF35000019025D96EBC
:10C54800F45000019121DA6E00019A51010DF35067
:10C5580000019025E16EF45000019121E26EE75050
:10C568000001956F00019451010DC10EF324E16E95
:10C57800020EF420E26EE75000019A25000800013F
:10C588009525DF6E0001984B992B00D0000194513E
:10C59800010DC10EF324D96E020EF420DA6EDF50BD
:10C5A800070B0001956F966B000195510001985D8E
:10C5B80000019951800A0001976F00019651800A85
:10C5C80000019759D8A0B5D70001942B070E000198
:10C5D800946504D0000E0001946F00D000019A2BDE
:10C5E80000D000019A510001956F966B000192519D
:10C5F8000001955D00019651800A0001976F0001C6
:10C608009351800A00019759D8A08DD712005F5026
:10C618005E1036E1810E5C5C250E5D58D8B030D0D6
:10C62800000E0001906F900E916FD00E926F030E66
:10C63800936F5CC098F05DC099F05EC09AF05FC0DF
:10C648009BF0060ED8900001983799379A379B3798
:10C65800E82EF8D798C094F099C095F09AC096F053
:10C668009BC097F027EC68F0FF0E000190250201AF
:10C67800366FFF0E000191210201376F6C0E2ED02C
:10C68800000E0001906F900E916FD00E926F030E06
:10C69800936F5CC094F05DC095F05EC096F05FC08B
:10C6A80097F027EC68F0050E07D00001D890933377
:10C6B8009233000191339033E82EF7D7FF0E000133
:10C6C80090250201366FFF0E000191210201376F9C
:10C6D800000E0201376F220E366F7C0E4C6E00D0B2
:10C6E80036C290F037C291F04C5097EC72F0010EC0
:10C6F8000001B26FAB98AB88AECF85F21200030E83
:10C708000101272501012B6F000E010128210101DC
:10C718002C6F25C196F026C197F0D7EC6CF001017B
:10C728002A6F25C196F026C197F02BC198F02CC12D
:10C7380099F0040E00019A6FB9EC76F0E00E000152
:10C74800966F010E0001976F040E01012B25000161
:10C75800986F000E01012C210001996F040E000151
:10C768009A6FB9EC76F0020E0101C019D8A410D066
:10C778002BC194F02CC195F001012951080F00013B
:10C78800966F000E0001976F020E18EC62F000D051
:10C7980025C196F026C197F0DC0E0001986F010EB6
:10C7A8000001996F040E00019A6F15EC76F00009EC
:10C7B800D8A40ED027C114F128C115F101012951BF
:10C7C800080F0101166F2AC117F1F7EC5BF0120090
:10C7D80027C120F128C121F101012951080F0101C8
:10C7E800226F2EEC56F01200120000017A6F010140
:10C7F800C551D8B429D000017A510001D8B411D05C
:10C80800FF0E0101B12500016D6FFF0E0101B2217C
:10C8180000016E6F040E00016F6F010E5EEC4AF0AE
:10C828000BD0B1C16DF0B2C16EF0040E00016F6F94
:10C83800010E5EEC4AF000D0070E0101B26FB1693B
:10C84800000E0101C56F00D0010E00019C250001FA
:10C858009C6FF80E00019D2100019D6F0101A70743
:10C86800D8A0A8070101A7510101A811D8A40FD089
:10C87800000E0101A86F100EA76F30C29CF031C2E4
:10C888009DF07F0E0201316FF00E306F0ED0010166
:10C89800A7050101A811D8A408D0010E0101C56F90
:10C8A8009CC0B1F19DC0B2F100D00001BE2BC80EF2
:10C8B8000001BE6504D0000E0001BE6F00D0020169
:10C8C800322904E102013329D8B412000201324BA3
:10C8D800332B1200120008C196F009C197F006C167
:10C8E80098F007C199F0040E00019A6FB9EC76F040
:10C8F800E00E0001906F010E0001916F000E000123
:10C90800926F06C193F007C194F0040E0001956F71
:10C91800040E0001966F66EC6EF0010120EE08F03F
:10C928000651D9260751DA22030EDF6E010120EEE7
:10C9380009F00651D9260751DA22000EDF6E0101EF
:10C9480020EE0AF00651D9260751DA22000EDF6ED2
:10C95800E00E0001906F010E0001916F000E0001C2
:10C96800926F06C193F007C194F00B0E0001956F0A
:10C97800040E0001966F66EC6EF008C190F009C1D4
:10C9880091F0000E0001926F06C193F007C194F078
:10C998000F0E0001956F040E0001966F66EC6EF0A5
:10C9A800010120EE13F00651D9260751DA22000EB4
:10C9B800DF6E12005F505E1032E1810E5C5C250E66
:10C9C8005D58D8B02CD0000E016E900E026ED00EBD
:10C9D800036E030E046E5CC00EF05DC00FF05EC007
:10C9E80010F05FC011F0060ED8900E360F361036D4
:10C9F8001136E82EF9D70EC005F00FC006F010C0AA
:10CA080007F011C008F05AEC70F0FF0E0124020183
:10CA1800366FFF0E02200201376F6C0E29D0000E10
:10CA2800016E900E026ED00E036E030E046E5CC093
:10CA380005F05DC006F05EC007F05FC008F05AEC74
:10CA480070F0050E05D0D89004320332023201325C
:10CA5800E82EF9D7FF0E01240201366FFF0E0220DF
:10CA68000201376F000E0201376F220E366F7C0EFF
:10CA78004C6E00D036C201F037C202F04C5029EC9F
:10CA880075F0010E0001B26FAB98AB88AECF85F29E
:10CA9800120001010D5101010B5D01010E5101014F
:10CAA8000C59D8B045D001010D510101136F010196
:10CAB8000E510101146F0101156B0101166B010183
:10CAC800131F141F151F161F132B000E14231523D5
:10CAD800162301010B51010113250101176F0101F3
:10CAE8000C51010114210101186F000E01011521DB
:10CAF8000101196F000E0101162101011A6F0101D0
:10CB08000F510101172501011B6F0101105101018E
:10CB1800182101011C6F01011151010119210101A5
:10CB28001D6F0101125101011A2101011E6F19D057
:10CB38000DC113F10EC114F10101131F141F134B82
:10CB4800142B01010B510101132701010C510101A3
:10CB5800142313C11BF114C11CF101011D6B1E6BC1
:10CB680000D01BC10BF11CC10CF1120012007C0E8D
:10CB7800D36E9B8CD2909B8E200E926E380E936E45
:10CB8800930E946E860E806E090E816E040E826E70
:10CB9800100E0F015D6F000E0F015C6FF19E0F010B
:10CBA8005B810F015B930F015B850F015B970F01A1
:10CBB8005B990F015B9B0F015B9D0F015B9FD18010
:10CBC800010E0201E56F000E0201476F000E466F6D
:10CBD800000E0201456F000E446F000E0201616FE6
:10CBE800000E606F000E0201636F000E626F000E90
:10CBF80002016C6F0201BC690201BD690201BE69D4
:10CC08000201BF69000E02017A6F8A908A94030EAE
:10CC18000001916FEC0E906F89EC7BF00201FE6FC2
:10CC28000201FE29D8A403D0000E0201FE6F020102
:10CC3800FE51D8A4120001D01200010E0101D56FD7
:10CC4800120012000101066F010106510101D8A46A
:10CC58000DD0D6CF07F10101086BD7CF09F111D05C
:10CC68000101095101010A6F096B0ED0030E010180
:10CC78000619D8A412D0B2CF07F10101086BB3CFBF
:10CC880009F101010A6BECD70101075101010927DC
:10CC98000101085101010A2300D0010100510101DD
:10CCA800D8A435D009C102F10AC103F10101021F5C
:10CCB800031F024B032BFF0E010102250101046F24
:10CCC800FF0E010103210101056F04C190F005C1A8
:10CCD80091F00001926B936BE80E0001946F030EC4
:10CCE800956F000E966F000E976F5AEC72F0100E4B
:10CCF80007D00001D89093339233000191339033D9
:10CD0800E82EF7D790C000F191C001F1120009C1D7
:10CD180000F10AC101F11200000E0001956F000137
:10CD280093AF09D00001926D931FD8B0932B010ED9
:10CD38000001956F00D0000191AF09D00001906DFE
:10CD4800911FD8B0912B010E0001951B00D0000E49
:10CD58000001976F000E966F000192510001931128
:10CD6800D8B431D0010E0001946F07D00001D890DB
:10CD7800923793370001942B00D0000193BF02D063
:10CD8800F5D700D00001D890963797370001925117
:10CD98000001905D0001935100019159D8A00BD07A
:10CDA800000192510001905F000193510001915BD5
:10CDB8000001968100D00001D8909333923300018E
:10CDC800942FE0D700D0000195510001D8B406D0C7
:10CDD8000001966D971FD8B0972B00D096C090F0A1
:10CDE80097C091F0120012000001926F0001925159
:10CDF800060D050EF326000EF422BD0EF324D96E9F
:10CE08000A0EF420DA6EDE28D8A410D00001925160
:10CE1800060D050EF326000EF422BD0EF324D96E7E
:10CE28000A0EF420DA6E90C0DFFF12000001925162
:10CE3800060D050EF326000EF422BD0EF324D96E5E
:10CE48000A0EF420DA6E00019051DE5CD8B00FD0E3
:10CE580000019251060D050EF326000EF422BD0EB8
:10CE6800F324D96E0A0EF420DA6EDF2A12000001CC
:10CE78009251060D050EF326000EF422BD0EF32482
:10CE8800D96E0A0EF420DA6EDE500001905DD8B03B
:10CE9800120000019251060D050EF326000EF42231
:10CEA800BD0EF324D96E0A0EF420DA6EDF061200E6
:10CEB8001200000E0101B66F000EB56F0101E9699D
:10CEC800EA69000E0001926F130E0001926502D00C
:10CED8001200120000019251020D000EF324D96EC7
:10CEE800030EF420DA6EDE500101B55DDE5001015B
:10CEF800B659D8B00DD000019251020D000EF3249E
:10CF0800D96E030EF420DA6EDECFB5F1DDCFB6F1BF
:10CF180000019251020D000EF324D96E030EF42085
:10CF2800DA6EDE50DE10D8B421D001D01FD0000157
:10CF38009251020D000EF324D96E030EF420DA6E1E
:10CF48000101E951DE5C0101EA51DE58D8B00ED08A
:10CF580000019251020D000EF324D96E030EF42045
:10CF6800DA6EDECFE9F1DDCFEAF100D00001922BD5
:10CF7800130E00019265AED71200120000010203E1
:10CF8800040A0B0C0D0E14151617181E1F2021224B
:10CF980028292A2B2C05060708090F101112131926
:10CFA8001A1B1C1D23242526272D2E2F3031323104
:10CFB800302F2E2D27262524231D1C1B1A1913124A
:10CFC80011100F09080706052C2B2A2928222120D1
:10CFD8001F1E18171615140E0D0C0B0A0403020158
:10CFE80000010203040A0B0C0D0E14151617181E67
:10CFF8001F20212228292A2B2C05060708090F1093
:10D00800111213191A1B1C1D23242526272D2E2F18
:10D0180030313231302F2E2D27262524231D1C1B7D
:10D028001A19131211100F09080706052C2B2A29A3
:10D03800282221201F1E18171615140E0D0C0B0A76
:10D04800040302010000000E0101006F000E016FD1
:10D05800000E026F000E036F00019451000195113C
:10D068000001961100019711D8B447D0010E0101B3
:10D07800046F09D00001D8909437953796379737C1
:10D088000101042B00D0000197BF02D0F3D700D0D4
:10D098000101D89000370137023703370001945156
:10D0A8000001905D000195510001915900019651D0
:10D0B800000192590001975100019359D8A013D04B
:10D0C800000194510001905F000195510001915BAE
:10D0D800000196510001925B000197510001935B9A
:10D0E8000101008100D00001D89097339633953321
:10D0F80094330101042FCCD700D000C190F001C1B6
:10D1080091F002C192F003C193F01200116E110464
:10D11800D8A40ED0CECF14F0156ACFCF16F0176A68
:10D128001650176E166A145016261550172200D07E
:10D13800030E1118D8A40ED0B2CF14F0156AB3CFCD
:10D1480016F0176A1650176E166A145016261550E0
:10D15800172200D00D50D8A42CD016C00FF017C03D
:10D1680010F00F1E101E0F4A102AFF0E0F24126E09
:10D17800FF0E1020136E12C001F013C002F0036AF4
:10D18800046AE80E056E030E066E000E076E000EAA
:10D19800086EE8EC75F0100E05D0D8900432033212
:10D1A80002320132E82EF9D701C00DF002C00EF0AC
:10D1B800120016C00FF017C010F00F1E101E0F4AF5
:10D1C800102AFF0E0F240D6EFF0E10200E6E120097
:10D1D80012000450D8B405D0015002100310D8A48E
:10D1E8000ED0000E016E000E026E000E036E1200CD
:10D1F80006D0042AD89003320232013200D0000E41
:10D208000114066E000E0214076EFE0E0314086E5B
:10D21800065007100810D8B40ED0EBD70CD0042A4B
:10D22800010E0126000E0222000E0322D8900332BE
:10D238000232013200D0000E0114066E000E0214F4
:10D24800076EFF0E0314086E065007100810D8B4B6
:10D2580008D0E5D706D00406D89001360236033642
:10D2680000D002BE04D0020E0460F5D700D004B08E
:10D2780002D0029E00D0D890043204500312055008
:10D28800D8B402D0038E00D001C001F002C002F071
:10D2980003C003F012001200000E0001686F000EB8
:10D2A800696F000E6A6F000E6B6F00016451000118
:10D2B80065110001661100016711D8B447D0010E4D
:10D2C80000016C6F09D00001D89064376537663764
:10D2D800673700016C2B00D0000167BF02D0F3D77D
:10D2E80000D00001D890683769376A376B3700017A
:10D2F80064510001605D0001655100016159000140
:10D308006651000162590001675100016359D8A0B4
:10D3180013D0000164510001605F000165510001F4
:10D32800615B000166510001625B00016751000109
:10D33800635B0001688100D00001D89067336633D1
:10D348006533643300016C2FCCD700D068C060F01F
:10D3580069C061F06AC062F06BC063F01200EACF86
:10D3680083F0E1CF84F0E2CF85F0D9CF86F0DACF31
:10D3780087F0F3CF88F0F4CF89F0F6CF8AF0F7CFB3
:10D388008BF0F8CF8CF0F5CF8DF09EB09DA02CD00F
:10D398009E90F80E00018F6F000E8E6F00018F5166
:10D3A800CF6ED3B603D0010E586E00D05850F9ECAA
:10D3B80063F0010E0101BA6F0101D82B0101CE51B2
:10D3C800D8B40CD0EE0E00016C6FFF0E00016D6F2B
:10D3D800B2EC35F002013A4B3B2B06D0000E0201AD
:10D3E8003B6F000E3A6F00D08DC0F5FF8CC0F8FF80
:10D3F8008BC0F7FF8AC0F6FF89C0F4FF88C0F3FF2F
:10D4080087C0DAFF86C0D9FF85C0E2FF84C0E1FF8C
:10D4180083C0EAFF82C0E9FF81C0FBFF80C0FAFF3A
:10D428001100D5C290F0D6C291F0D7C292F0D8C2FE
:10D4380093F0D9C294F0DAC295F0DBC296F0DCC260
:10D4480097F05AEC72F090C0D5F291C0D6F292C023
:10D45800D7F293C0D8F2390E0201D527300ED62361
:10D46800000ED723000ED823100E0101026FD5C27B
:10D4780003F1D6C204F1D7C205F1D8C206F1010101
:10D48800026701D009D0010106350633053304339C
:10D4980003330101022FF3D7FF0E01010315000129
:10D4A800906F7F0E010104150001916F000E0101BC
:10D4B80005150001926F000E010106150001936F1A
:10D4C80000C194F001C195F00001966B976B9AEC3E
:10D4D8005EF090C000F191C001F11200120001014C
:10D4E800CA51D8B423D00001C42B1E0E0001C46554
:10D4F80013D0010E0201FE6FD4EC7CF0030E000184
:10D50800916FEC0E906FFEC292F029EC77F0000E4E
:10D518000101CB6FFF0000D0000E0001916F3E0E9D
:10D52800906F91EC74F0000E120006D0010E01010C
:10D53800CB6F000E0001C46F0001C551D8A423D0E1
:10D548000101DA51D8A41DD0CD909E909D9A9E9A43
:10D5580081CF9BF000F0F290F2960101BE51D8B451
:10D5680004D0000E63EC57F000D089848982C69AF3
:10D578008B8A949694988B968B98949C948E8A9C7C
:10D5880000D0010E12000001C505D8A403D085EC17
:10D598007CF000D0000E12001200000E0001956F02
:10D5A800000191AF09D00001906D911FD8B0912B67
:10D5B800010E0001956F00D0000193AF06D0000165
:10D5C800926D931FD8B0932B00D0000192510001A7
:10D5D8009311D8B42BD0010E0001946F07D000012D
:10D5E800D890923793370001942B00D0000193BF55
:10D5F80002D0F5D700D0000192510001905D0001E2
:10D60800935100019159D8A009D00001925100010D
:10D61800905F000193510001915B00D00001D89008
:10D62800933392330001942FE6D700D0000195512F
:10D638000001D8B406D00001906D911FD8B0912B8D
:10D6480000D090C090F091C091F01200120098C0E4
:10D6580090F099C091F0000E0001926F98C093F07D
:10D6680099C094F0080E0001956F080E0001966F9E
:10D6780063EC71F00009D8B4120098C090F099C01A
:10D6880091F0080E0001926F98C093F099C094F041
:10D69800100E0001956F080E0001966F63EC71F093
:10D6A8000009D8B41200000E00019A6F070E00019D
:10D6B8009A6501D01DD0D4EC7CF0F40E00019A25B7
:10D6C8000001906F0001916B030E912300019A51A4
:10D6D80000019825D96E0001000E00019921DA6E2B
:10D6E800DF500001926F29EC77F000019A2BDED70A
:10D6F80098C090F099C091F019EC6EF012001200E9
:10D70800000E0101056F000E046F010105BF0AD06C
:10D71800010105514AE1FA0E0101045DD8B045D076
:10D7280001D043D000C194F001C195F0010104512A
:10D738009DEC5FF00009D8B433D004C102F105C1F3
:10D7480003F1D890010102370337010E01010227C6
:10D75800000E0323C90E01010225D96E080E01012E
:10D768000321DA6EDF501F0B1F0AD8B419D004C189
:10D7780002F105C103F1D890010102370337010E08
:10D7880001010227000E0323C90E01010225D96EEB
:10D79800080E01010321DA6EDF38E832070B1200A8
:10D7A8000101044B052BB1D700D0000E1200120066
:10D7B8000101046FFA0E010104613ED004C105F1B4
:10D7C8000101066B05C102F106C103F10101D89000
:10D7D800023703370101D8900237033702C105F138
:10D7E80003C106F1000E0101076F030E0101076571
:10D7F80002D01200120001010751010DF35001017E
:10D808000025D96EF45001010121DA6E010107519A
:10D81800010105250001926F000E0101062100019A
:10D82800936F5CEC7CF0DF6E0101072B030E0101A6
:10D838000765E1D712001200DC0E0001966F010E99
:10D848000001976F00C198F001C199F0040E000122
:10D858009A6FB9EC76F0120012000101086F030EFE
:10D868000001986F01010851060D050EF326000E00
:10D87800F422BD0EF324D96E0A0EF420DA6EDF50BE
:10D8880003EC4CF000019B6F01010851060D040EDA
:10D89800F326000EF422BD0EF324D96E0A0EF420EE
:10D8A800DA6EDF380F0B2EEC79F000019B5DD8B0F3
:10D8B80012D001010851060D040EF326000EF422C1
:10D8C800BD0EF324D96E0A0EF420DA6EDF380F0B82
:10D8D8002EEC79F01200030E0001986F0101085137
:10D8E800060D050EF326000EF422BD0EF324D96EA4
:10D8F8000A0EF420DA6EDF5003EC4CF0120012002E
:10D9080002C196F003C197F0DC0E0001986F010E7A
:10D918000001996F040E00019A6F15EC76F000096A
:10D92800D8A41200000E0101066F3E0E0101066523
:10D9380002D01200120001010651060DBD0EF3249B
:10D948000001966F0A0EF4200001976F02C198F04B
:10D9580003C199F0040E00019A6F15EC76F00009E6
:10D96800D8B418D004C105F101010651060D040E02
:10D97800F326000EF422BD0EF324D96E0A0EF4200D
:10D98800DA6E0101053BDF50010105190F0B05197E
:10D99800DF6E12000101062B3E0E01010665CBD792
:10D9A800120012001200000E0001996F000E986F0D
:10D9B800000120EE03F09651D9269751DA22DF5064
:10D9C8000101006F96C0D9FF97C0DAFFDF5001014F
:10D9D800016F026B000120EE01F09651D926975194
:10D9E800DA22DF500101036F010103510101012710
:10D9F800000E0223000120EE02F09651D92697511D
:10DA0800DA22DF500101046F0101045101010127ED
:10DA1800000E022301010051010101250001906F50
:10DA28000101000E010102210001916F000E0001A9
:10DA3800936FC90E926FD1EC6AF090C098F091C0C4
:10DA480099F00001985112001200100E01013C6F6C
:10DA580010C100F111C101F1380E0101026F010E70
:10DA68000101036FD1EC45F01D0E0101126F2E0E5E
:10DA78000101136F460E0101146F480E0101156F65
:10DA8800430E0101166F010E0101006F000E016FB8
:10DA9800020E026F000E036F0B0E0101046F000EE1
:10DAA800056F000E066F000E076F170E0101086F55
:10DAB800010E0101096FCBEC6DF010C106F111C127
:10DAC80007F1120E0101086F010E0101096F3CC137
:10DAD8000AF1000E01010B6F010E01010C6F000E1F
:10DAE80001010D6FACEC48F012001200100E01019C
:10DAF8003C6F10C100F111C101F1380E0101026F34
:10DB0800010E0101036FD1EC45F01D0E0101126FEA
:10DB18002A0E0101136F410E0101146F530E01010A
:10DB2800156F460E0101166F010E0101006F000E00
:10DB3800016F020E026F000E036F0B0E0101046FDE
:10DB4800000E056F000E066F000E076F170E01011D
:10DB5800086F010E0101096FCBEC6DF010C106F1E1
:10DB680011C107F1120E0101086F010E0101096FC1
:10DB78003CC10AF1000E01010B6F010E01010C6F8F
:10DB8800000E01010D6FACEC48F012001200000EFF
:10DB98000001966F000E976F000E986F000E996F38
:10DBA800899E030E9BEC7AF0010102519BEC7AF0FE
:10DBB800010101519BEC7AF0010100519BEC7AF0D4
:10DBC800000E0001966F000E976F000E986F000E02
:10DBD800996F17D00001965101010825D96E0001EF
:10DBE800975101010921DA6EB1EC7BF000019051E7
:10DBF800DF6E010E00019627000E972398239923C4
:10DC080000D0010104510001965D01010551000198
:10DC18009759010106510001985901010751000166
:10DC28009959D8A0D7D7898E1200000E0001936F9A
:10DC3800070E0001936501D019D000019351010D21
:10DC4800F35000019025D96EF45000019121DA6E4D
:10DC580000019351010DC10EF324E16E020EF42070
:10DC6800E26EDFCFE7FF0001932BE2D7000E000141
:10DC7800936F070E0001936502D012001200000195
:10DC88009351010DF35000019025D96EF450000115
:10DC98009121DA6EDE28D8A409D0070E0001931965
:10DCA800D8A408D0000E0101C66F04D0010E0101EE
:10DCB800C66F12000001932B070E00019365DFD792
:10DCC80012001200000E0001976F3FD00001925120
:10DCD80097C000F10101016B01010027000E01232B
:10DCE80090C002F191C003F1010100510101022726
:10DCF800010101510101032302C1F6FF03C1F7FF2E
:10DD0800000EF86E0001955197C004F10101056BF2
:10DD180001010427000E0523010104510001932588
:10DD2800D96E0101055100019421DA6E0E0EF764D7
:10DD380003D00800F55005D0F6CFE1FFF7CFE2FF9A
:10DD4800E750DF6E0001972B00D0000196510001CB
:10DD5800975DD8A0BBD712003CEC7CF0899E020EE0
:10DD68009BEC7AF0010102519BEC7AF00101015120
:10DD78009BEC7AF0010100519BEC7AF0000E000157
:10DD8800956F000E966F000E976F000E986F15D066
:10DD98000001955101010425D96E00019651010138
:10DDA8000521DA6EDF509BEC7AF0010E0001952711
:10DDB800000E96239723982300D0010106510001F5
:10DDC800955D0101075100019659010108510001B3
:10DDD80097590101095100019859D8A0D9D7898EBE
:10DDE80018EC7CF012001200040E0101022500015B
:10DDF800966F000E010103210001976F04C198F08E
:10DE080005C199F0040E00019A6FB9EC76F04CEC5C
:10DE18007CF092C0D9FF93C0DAFF06C1E1FF07C1C9
:10DE2800E2FFDFCFE7FF02C196F003C197F0DC0EF7
:10DE38000001986F010E0001996F040E00019A6F9E
:10DE480015EC76F00009D8A412D002C196F003C1EF
:10DE580097F0E00E0001986F010E0001996F040E13
:10DE680000019A6F15EC76F00009D8B402D0010EC3
:10DE78001200000E120012000101006FFA0E0101DB
:10DE88000061120000C101F10101026B01C199F0AA
:10DE980002C19AF00001D89099379A370001D890BA
:10DEA80099379A3799C001F19AC002F1000E010121
:10DEB800036F030E0101036502D012001200010175
:10DEC8000351010101250001946F000E0101022197
:10DED8000001956F01010351010DF35000019725D1
:10DEE800D96EF45000019821DA6EDF500001966F68
:10DEF8005FEC7BF00101032B030E01010365DFD703
:10DF08001200120012002F6E2FC05AF05AC001F0F2
:10DF1800026A000E046E070E036EE1EC70F0015009
:10DF28000101C36F880E5A6403D0280E5A6E12007E
:10DF3800000E106E000E116E3F0E126EDA0E2B6E72
:10DF4800FF0E2C6E5A502D6E2E6A2B502D262C50FB
:10DF58002E222D1E2E1E2D4A2E2A640E2D24096EC9
:10DF6800000E2E200A6E36EC78F009C00DF00AC0BB
:10DF78000EF00BC00FF09FEC60F00DC01CF00EC04F
:10DF88001DF00FC01EF01EEC60F01C50280F5A6EDA
:10DF980012001200EFEC7BF00001946F0001C951F0
:10DFA800D8A41CD000019429D8A403D094C0CAF0E6
:10DFB80007D0000194290001CA6F0001CA05546EF8
:10DFC800400E0001CA650AD0400E0001CA6F000168
:10DFD800CA05546E010E02017B6F00D00001CA51C0
:10DFE8000001C95DD8B00ED00001C951010D800EE5
:10DFF800F324D96E050EF420DA6E94C0DFFF000119
:10E00800C92B00D00001CA510001C919D8A41200B7
:10E018000001CA51D8B41200010E496E1200120054
:10E0280000019B6F01011B291DE101011C29D8A4D6
:10E0380019D000019B51020D000EF324D96E020E77
:10E04800F420DA6EFF0EDE6EFF0EDD6E00019B51CE
:10E05800010D280EF324D96E030EF420DA6E1DC1CB
:10E06800DFFF1200010E01011B2501011E6F000ECA
:10E0780001011C2101011F6F00019B51020D000EBF
:10E08800F324D96E020EF420DA6E1EC1DEFF1FC122
:10E09800DDFF00019B51010D280EF324D96E030EFC
:10E0A800F420DA6E1DC1DFFF12001200000E096EA7
:10E0B800000E0A6E000E0B6E000E0C6E0550061058
:10E0C80007100810D8B42FD0010E0D6E07D0D890C5
:10E0D80005360636073608360D2A00D008BE02D0A7
:10E0E800F6D700D0D89009360A360B360C360550CC
:10E0F800015C065002580750035808500458D8A02D
:10E108000AD00550015E0650025A0750035A0850BB
:10E11800045A098000D0D8900832073206320532F6
:10E128000D2EE0D700D009C001F00AC002F00BC0E4
:10E1380003F00CC004F01200000E0101026F000E83
:10E14800016F0001985100019911D8B431D0010E26
:10E158000101006F07D00001D89098379937010165
:10E16800002B00D0000199BF02D0F5D700D00101E3
:10E17800D89001370237000198510001965D0001DF
:10E18800995100019759D8A00BD00001985100016E
:10E19800965F000199510001975B0101018100D050
:10E1A8000001D890993398330101002FE0D700D0AF
:10E1B80001C196F002C197F01200000E066E02AE81
:10E1C80007D0016C021ED8B0022A010E066E00D0DC
:10E1D80004AE05D0036C041ED8B0042A00D0035046
:10E1E8000410D8B41DD0010E056E05D0D8900336A2
:10E1F8000436052A00D004BE02D0F8D700D0035058
:10E20800015C04500258D8A005D00350015E0450A8
:10E21800025A00D0D89004320332052EF0D700D02D
:10E228000650D8B405D0016C021ED8B0022A00D01E
:10E2380001C001F002C002F012001200000E00013D
:10E24800666F000E656F0001625100016311D8B45A
:10E2580031D0010E0001646F07D00001D8906237F9
:10E2680063370001642B00D0000163BF02D0F5D7EB
:10E2780000D00001D890653766370001625100016F
:10E28800605D0001635100016159D8A00BD0000105
:10E2980062510001605F000163510001615B000190
:10E2A800658100D00001D890633362330001642F88
:10E2B800E0D700D065C060F066C061F01200000EC3
:10E2C8000001976F31D00001955197C000F101010D
:10E2D800016B01010027000E01230101005100011B
:10E2E8009325D96E0101015100019421DA6E0001D4
:10E2F800925197C003F10101046B01010327000E3D
:10E3080004230101035100019025E16E010104512C
:10E3180000019121E26EDE50E618D8B402D0000E5A
:10E3280012000001972B00D0000196510001975D63
:10E33800D8A0C9D7010E12001200000E0101056F06
:10E34800000E046F010105BF0AD00101055130E13B
:10E358003F0E0101045DD8B02BD001D029D004C1F3
:10E3680090F005C191F0000E0001936F060E926FB8
:10E378008EEC78F0BD0E000190250001966F0A0E14
:10E38800000191210001976F02C198F003C199F033
:10E39800040E00019A6F15EC76F00009D8B403D08A
:10E3A8000101045112000101044B052BCBD700D009
:10E3B800FF0E1200120000019B6F00019B511CEC24
:10E3C8005FF0000E0001BD6F000E0001CC6F010E62
:10E3D8000201E76F7F0E0201316FF00E306F7F0E82
:10E3E80000019D6FF00E9C6F000E0101A86F100ECA
:10E3F800A76F070E0001996F9869040E00019A6FC4
:10E40800010E85EC49F0010E00019C2500019C6F6E
:10E41800F80E00019D2100019D6F0101A707D8A0FA
:10E42800A807070E0101B26FB169090E12EC7BF063
:10E4380012000A0E0101066F010E0101076FF80EA6
:10E448000101086F010E0101096F6FEC64F0000E05
:10E4580001011E6F4C0E0001906FFE0E0001916FBE
:10E46800000E0001926F0A0E0001936F010E000169
:10E47800946F150E0001956F240E0001966F66ECDF
:10E488006EF00101C651300F0101436F0A0E000101
:10E49800946F010E0001956F3A0E0001966F000E01
:10E4A8000001976F020E18EC62F01200000E0001D6
:10E4B800986F000E996F000E9A6F000E9B6F00D038
:10E4C800000190A111D0000194510001982700018A
:10E4D8009551000199230001965100019A230001EA
:10E4E800975100019B2300D00001D89094379537AD
:10E4F800963797370001D8909333923391339033FE
:10E508000001905100019111000192110001931135
:10E51800D8A4D6D798C090F099C091F09AC092F03C
:10E528009BC093F012000001926F000EAC6E000EBB
:10E53800AB6E000192A102D0AC8800D0000192A37A
:10E5480003D0AC8CAB8C00D0000192A502D0AC8E6D
:10E5580000D0000192A702D0AB8802D0AB8A00D0CD
:10E56800000192A902D0AC8400D0000192AB02D085
:10E57800AB8600D0000192AD02D09D8A02D09D9A50
:10E5880000D0000192AF02D09D8801D09D9890C024
:10E59800AFFF000191517D6EAC8AAB8E1200000175
:10E5A8009251000190250001986F000193510001DC
:10E5B80091210001996F98C000F199C001F1010102
:10E5C800026B036B10D0000194510101005F000140
:10E5D80095510101015B000196510101025B0001A7
:10E5E80097510101035B000194510101005D000195
:10E5F800955101010159000196510101025900018B
:10E60800975101010359D8B0DED700C190F001C17C
:10E6180091F01200060E01013C6F10C100F111C10A
:10E6280001F1380E0101026F010E0101036FD1ECF7
:10E6380045F01F0E0101126F2A0E0101136F530ED0
:10E648000101146F460E0101156F540E0101166F7A
:10E65800F0C117F110C106F111C107F1120E010145
:10E66800086F010E0101096F3CC10AF1000E01019A
:10E678000B6F010E01010C6F000E01010D6FACEC68
:10E6880048F012001200000E0101016F000E006F29
:10E69800000E0101016F000E006F1DD093C090F0B5
:10E6A80094C091F001010051000195250001996F76
:10E6B800010101510001962100019A6F99C0F6FFEE
:10E6C8009AC0F7FF0800F5CF92F0B4EC59F00101B9
:10E6D800004B012B00D0000197510101005D0101A1
:10E6E8000151800A0001996F00019851800A0001C8
:10E6F8009959D8A0D3D71200000E0101136F4C0E00
:10E708000001906FFE0E0001916F000E0001926FE4
:10E71800130E0001936F010E0001946F010E0001AA
:10E72800956F240E0001966F66EC6EF00101C651DC
:10E73800300F0101386F10C106F111C107F1130E36
:10E748000101086F010E0101096F260E01010A6F10
:10E75800000E01010B6F12C10CF1000E01010D6FCB
:10E76800ACEC48F0120012003D0E0101496F0AC1DD
:10E778000CF10BC10DF10AC190F00BC191F0000E24
:10E788000001936F380E926F8EEC78F0000190C004
:10E7980000F1000191C001F10101026B036B380E19
:10E7A8000101046F000E056F000E066F000E076F63
:10E7B8000E0E0101086F010E0101096FCBEC6DF01F
:10E7C8000C0E0001966F010E0001976F49C198F079
:10E7D80021EC59F012000101055101010611D8B4CC
:10E7E8002BD0010E00019A6F07D00101D890053790
:10E7F800063700019A2B00D0010106BF02D0F5D7D9
:10E8080000D0010105510101035D0101065101011B
:10E818000459D8A009D0010105510101035F010184
:10E8280006510101045B00D00101D890063305337D
:10E8380000019A2FE6D700D003C103F104C104F107
:10E8480012000001946F00019451020D000EF32490
:10E85800D96E020EF420DA6EDE50DE10D8B418D06D
:10E8680000019451020D000EF324D96E020EF4201B
:10E87800DA6EDECF92F0DDCF93F0FF0E0001922525
:10E888000001906FFF0E000193210001916F1200AB
:10E8980000019451020D000EF324D96E020EF420EB
:10E8A800DA6EDECF90F0DDCF91F012001200000199
:10E8B800695100016A11D8B42BD0010E00016B6FA9
:10E8C80007D00001D89069376A3700016B2B00D058
:10E8D80000016ABF02D0F5D700D0000169510001DC
:10E8E800675D00016A5100016859D8A009D000018C
:10E8F80069510001675F00016A510001685B00D03F
:10E908000001D8906A33693300016B2FE6D700D035
:10E9180067C067F068C068F0120014D0D00E00011C
:10E92800926FCA0EE82EFED7922FFCD7F60E000182
:10E9380090250001906FFF0E000191210001916F59
:10E94800040000D000019151E9E10B0E0001905D37
:10E95800D8A010D0E3D70ED0150E0001926FC60EC6
:10E96800E82EFED7922FFCD700D000019007D8A040
:10E97800910704000001905100019111D8A4ECD72F
:10E9880012000001926F3F0EC716000EC66E0001FE
:10E998009251C61200019151C71205D0C78C16D0EA
:10E9A800C78CC68813D000019051000AD8B4F6D796
:10E9B800020AD8B4F5D7010AD8B4F3D707D0948699
:10E9C800928A0DD094860BD0949609D0000192516A
:10E9D800040AD8B4F4D7010AD8B4F4D7F5D7948880
:10E9E800949AC68A1200000E00019A6F0101F7512D
:10E9F80064EC7AF0040E0101006F010E0CEC5DF07E
:10EA080000019C51010100250101176F00019D5172
:10EA1800010101210101186FCCEC7CF00101146F98
:10EA280017C116F1010118510101156F140E0101EA
:10EA38000B6F010E01010C6F030E01010D6F010E2A
:10EA480001010E6F95EC4DF01200036E000EAC6ED6
:10EA5800000EAB6E03A002D0AC8800D003A203D096
:10EA6800AC8CAB8C00D003A402D0AC8E00D003A633
:10EA780002D0AB8802D0AB8A00D003A802D0AC8405
:10EA880000D003AA02D0AB8600D003AC02D09D8A86
:10EA980002D09D9A00D003AE02D09D8801D09D98E7
:10EAA80001C0AFFF02507D6EAC8AAB8E12002CD035
:10EAB8005404D8A405D0A4EC7BF00201796F00D0EF
:10EAC8000001CA510001C95DD8B00FD00001C95179
:10EAD800010D800EF324D96E050EF420DA6EEFECEA
:10EAE8007BF0DF6E0001C92B00D00001CA51000184
:10EAF800C919D8A407D00001CA51D8B403D0010E4F
:10EB0800496E00D0540600D05450D8A4D1D7120072
:10EB18000001946F240E00019419D8A408D0000EA7
:10EB28000201E86F000E506E94C0BFF01CD0260E94
:10EB380000019419D8A409D092C0D9FF93C0DAFF74
:10EB480050C0DFFF010E12000ED05050010DF350DF
:10EB580000019025D96EF45000019121DA6E94C01D
:10EB6800DFFF502A00D0000E120012000101BA5136
:10EB7800D8A412000101BB51D8A412000101BD5153
:10EB8800D8A412000101CE51D8A412000101C85125
:10EB9800D8A412000101D051D8A412000101DB5100
:10EBA8000101D8A412000101CD51D8A4120001011D
:10EBB800B7510101D8A412000101EB51D8B41200D9
:10EBC800A0EC7CF012001200000E096E000E0A6E16
:10EBD800000E0B6E000E0C6E00D001A009D005507F
:10EBE800092606500A2207500B2208500C2200D092
:10EBF800D8900536063607360836D89004320332E0
:10EC0800023201320150021003100410D8A4E5D7D3
:10EC180009C001F00AC002F00BC003F00CC004F0F8
:10EC28001200000E00019B6F1FD000019B51010DC7
:10EC3800F35000019825D96EF45000019921DA6E3D
:10EC480000019B51010DF35000019625E16EF4502F
:10EC580000019721E26EDE50E618D8B402D0000E0B
:10EC6800120000019B2B00D000019A5100019B5D0E
:10EC7800D8A0DBD7010E120012001D0E0101126F81
:10EC8800250E0101136FF8C114F1F9C115F1FAC18C
:10EC980016F1FBC117F1060E0101386F10C106F11C
:10ECA80011C107F1120E0101086F010E0101096F70
:10ECB80038C10AF1000E01010B6F010E01010C6F42
:10ECC800000E01010D6FACEC48F01200120020C1DB
:10ECD80015F121C116F13C0E0101176F010E01015A
:10ECE800186F010E0101196F9FEC3EF020C102F16F
:10ECF80021C103F1A1EC71F00101236F1EC109F1DB
:10ED08001FC10AF123C10BF122C10CF1000E010150
:10ED18000D6F010E01010E6FD8EC1FF012000101FA
:10ED2800206F000E0201E56F20C1C9F1000E01013C
:10ED3800226F3E0E216F21C190F022C191F0000E8A
:10ED48000001936F1E0E926F8EEC78F090C021F147
:10ED580091C022F121C11BF122C11CF1000E010159
:10ED68001D6F070E14EC70F01200000E00019B6F6F
:10ED78001BD000019B51010DF35000019625D96E5F
:10ED8800F45000019721DA6E00019B51010DF350F8
:10ED980000019825E16EF45000019921E26EDFCF61
:10EDA800E7FF00019B2B00D000019A5100019B5DF9
:10EDB800D8A0DFD712000001926F90C091F0000137
:10EDC800913BC15000019119CF0B9119C16EC196A9
:10EDD800C190C192C19492C091F0000191479147AE
:10EDE800C25000019119830B9119C26EC086C08868
:10EDF800C08AC050F80B0609C06EC08EC2801200CF
:10EE0800000E0001916F3E0E0001916501D01AD0ED
:10EE180000019151060D040EF326000EF422BD0EDA
:10EE2800F324D96E0A0EF420DA6EDF500F0B0001BE
:10EE3800906F020E0001906102D0010E12000001D5
:10EE4800912BE1D7000E12001200000E0001936F03
:10EE580000019151030B756E90C074FF92C073FF4F
:10EE68007F9E7F9C7F84000EF2BE010E0001936F8F
:10EE7800F29E550E7E6EAA0E7E6E7F8200D07FB205
:10EE8800FED7000193B102D0F29E01D0F28E7F949A
:10EE98001200120E0001906F010E0001916F33EC09
:10EEA80054F00101386F10C106F111C107F1120EBB
:10EEB8000101086F010E0101096F38C10AF1000E46
:10EEC80001010B6F010E01010C6F000E01010D6FA6
:10EED800ACEC48F0120012001D0E0101146F12C1B3
:10EEE80015F113C116F1030E01013A6F10C106F1B5
:10EEF80011C107F1140E0101086F010E0101096F1C
:10EF08003AC10AF1000E01010B6F010E01010C6FED
:10EF1800010E01010D6FACEC48F0120005C196F02E
:10EF280006C197F0E00E0001986F010E0001996F7D
:10EF3800040E00019A6FB9EC76F00101DC69010159
:10EF4800DD690101DE690101DF69E00E0001966FEC
:10EF5800010E0001976FD7EC6CF096EC7CF0120074
:10EF68000001916F000191510001D8B409D000014E
:10EF7800CD51D8B413D0899C8B94898012000ED0BF
:10EF8800000190510001D8B409D00001CE51D8B485
:10EF980005D0898C8B948990120000D0899C8B8431
:10EFA800899012000001926F00019251020D000E2B
:10EFB800F324D96E020EF420DA6EDE04DE10D8A433
:10EFC8000FD000019251020D000EF324D96E020EEB
:10EFD800F420DA6E000EDE6E000EDD6E010E1200F9
:10EFE800000E120012000001906F00019051000104
:10EFF800D8A409D0D59E000ED76E000ED66E850E09
:10F00800D56ED58E1200030E00019019D8A41200F7
:10F01800000EB36E000EB26E8C0EB16EA292A1926B
:10F02800B18012001200FFFFFFFFFFFFFFFFFFFF8D
:10F03800FFFFFFFFFFFFFFFFFFFF010000006D4E16
:10F04800C641170001000800FF000101010101FF8E
:10F058000101FFFFFFFFFFFFFFFFFFFFFFFFFFFFB4
:10F06800FFFFFF00000E0C6E0AAE07D0096C0A1EE7
:10F07800D8B00A2A010E0C6E00D009C001F00AC0EF
:10F0880002F0036A8E0E046E0CC005F0EDEC68F019
:10F0980001C009F002C00AF003C00BF01200120010
:10F0A8000001946F00019451D8090001956F95C033
:10F0B80092F03C0EE1EC78F0C80E0001956F95C017
:10F0C80092F01A0EE1EC78F0000E0001956F95C0F1
:10F0D80092F03E0EE1EC78F01200026E0250D8B4C5
:10F0E80009D00001CD51D8B411D0899C8B94898066
:10F0F80012000CD00150D8B409D00001CE51D8B4B8
:10F1080005D0898C8B948990120000D0899C8B84BF
:10F11800899012000001905100019203F3CF94F0FE
:10F12800F4CF95F00001905100019303F3500001D2
:10F1380095270001915100019203F3500001952792
:10F1480094C090F095C091F0120012000001605137
:10F1580000016203F3CF64F0F4CF65F00001605161
:10F1680000016303F35000016527000161510001AC
:10F178006203F3500001652764C060F065C061F068
:10F18800120012000101206F010120510101D8B4C1
:10F1980004D0010E0201E76F1200000E0201E76FB2
:10F1A800010E01011C6F680E1B6F010E01011D6F1E
:10F1B8000F0E14EC70F0120012000001936F899486
:10F1C800000193519BEC7AF0E40E00D000D0E82EB9
:10F1D800FCD700D000D0000192519BEC7AF0E40EED
:10F1E80000D000D0E82EFCD700D000D089841200CF
:10F1F800000E0101006F010E0CEC5DF00101001F13
:10F208000101011F0101004B012B3E0E01010025E8
:10F2180001010B6F000E0101012101010C6F1200A9
:10F228001200F20E02016A17ABAC07D002016A9114
:10F23800ABA003D002016A8100D0ABA402D00201C6
:10F248006A85ABA202D002016A87AECF01F00150F5
:10F25800120012000001906F060E0001906102D0AA
:10F26800000E03D000019051FB0F0001916F070EB3
:10F278000001916503D0070E0001916F00019151C3
:10F28800120012008A8C0BEC63F08986050E0101CE
:10F29800056F260EE82EFED7052FFCD700D08996DD
:10F2A800680E0101056FE40EE82EFED7052FFCD786
:10F2B80000D01200000E0001956F000E0001966F3D
:10F2C8000BD01C0E12EC7AF00001966F00019651DB
:10F2D800020B0001956F00D0000195510001D8B4D0
:10F2E800F0D712000001926F000E0001916F3A0EE4
:10F2F8000001926108D02F0E0001926504D0010E22
:10F308000001916F00D091C090F00001903112007F
:10F318001200000E01011C6F010E1B6F010E01018E
:10F328001D6F020E14EC70F0000E01011C6F010E2F
:10F338001B6F010E01011D6F030E14EC70F012001B
:10F348000001626F000E0001616F3A0E00016261F8
:10F3580008D02F0E0001626504D0010E0001616F14
:10F3680000D061C060F000016031120012003CEC76
:10F378007CF0899E200E9BEC7AF0000197519BEC63
:10F388007AF0000196519BEC7AF0000195519BECC4
:10F398007AF0898E18EC7CF0120098C090F099C031
:10F3A80091F00001926B8E0E0001936F000E000128
:10F3B800946FDAEC5AF090C098F091C099F092C02E
:10F3C8009AF0120012000101D92B0101D9515218EB
:10F3D800D8A41200000E0101C86F000E016E000EC5
:10F3E80071EC78F0000E0101D96F000E526E120018
:10F3F80012000001906F080E0001C86112000001A0
:10F40800C851010D3F0EF324D96E030EF420DA6EB5
:10F4180090C0DFFF0001C82B120012000001946F9A
:10F4280089940001945140090001946F000194519E
:10F438009BEC7AF0B1EC7BF090C093F089840001EA
:10F448009351120012000001936F93C090F00001D5
:10F45800916B240E0001926FB4EC59F093C090F0B8
:10F468000001916B240E0001926FB4EC59F0120068
:10F47800D08EF290F28CF094F08AF186F1920F011E
:10F488005A9F0F015A9D0F015A9B0F015A99F286F4
:10F49800F190F28E9F9A12000001926F0001925132
:10F4A800020D000EF324D96E020EF420DA6EDE503F
:10F4B800DE10D8A402D0010E1200000E12001200B5
:10F4C80000019B6F00019B510101EC19D8B4120097
:10F4D80001D012009AC094F000019B51CFEC4CF07F
:10F4E8009BC0ECF11200020E0101026F00C103F192
:10F4F80001C104F1030E0001966F010E0001976F20
:10F5080002C198F021EC59F01200000E0001936F2F
:10F51800899E050E9BEC7AF0B1EC7BF000019051CE
:10F528000001936F898E00019351120012000001AF
:10F53800916FC9CF90F09E96C69E91C0C9FFC6BE76
:10F54800120002D0120000D09EB61200FDD71200A1
:10F558001200EDC214F1140E01010B6F010E01012E
:10F568000C6F010E01010D6F010E01010E6F95EC7C
:10F578004DF012000001936F0001B251D8B412008F
:10F58800000E0001916F020E906F93C092F0B4ECE0
:10F5980059F0120012000001966F00019651010BFC
:10F5A8000001CD6F000196510E0B0001956F00010F
:10F5B800955141EC7BF01200026EC9CF01F09E9686
:10F5C800C69E02C0C9FFC6BE120002D0120000D0FB
:10F5D8009EB61200FDD7120012000001636F0001F1
:10F5E800B251D8B41200000E0001616F020E606FB4
:10F5F80063C062F047EC5AF0120012002A8C020233
:10F608000CC177643277623238F81180E9383807EC
:10F6180000000507090CF0004010DC800001906F25
:10F6280000019051020D000EF324D96E020EF42051
:10F63800DA6E000EDE6E000EDD6E1200056E899425
:10F6480005504009056E0550E0EC7AF0E3EC7BF0DC
:10F6580001C004F089840450120012000001946F64
:10F668005950D8A404D00101C151D8B412000001E6
:10F678009451BEEC7AF0120012000001946F03015D
:10F68800DD51F00B000194110301DD6FDDC392F031
:10F69800340EE1EC78F012000001646F5950D8A4E0
:10F6A80004D00101C151D8B4120000016451F1EC39
:10F6B8007AF012001200010E0201846FD4EC7CF083
:10F6C80094C090F095C091F096C092F029EC77F034
:10F6D8001200200E63EC57F0400E63EC57F033EC49
:10F6E8007CF05EEC79F0600E63EC57F012000001DC
:10F6F800906F90C0BDF0000190510001D8A4120095
:10F70800010E0201E76F1200120000019151030B74
:10F71800756E90C074FF7F9C7F9E7F8000F000F024
:10F728007350120012000001906FACAC06D0AC9080
:10F7380002016AA302D0AC8000D090C0ADFF1200D5
:10F748003C0E12EC7AF00001956F000195A102D0F1
:10F75800010E1200000E12001200C9CF92F09E9600
:10F76800000EC96E00D09EA6FED7C9CF90F000014A
:10F77800916B120003500201D92704500201DA23C9
:10F7880005500201DB2306500201DC2312000001B0
:10F79800946F94C0AEF094C0E0F3E0C392F03A0ED8
:10F7A800E1EC78F012000001906F00019051000127
:10F7B800D8B402D08A8C12008A9C12001200C9CFD9
:10F7C80003F09E96000EC96E00D09EA6FED7C9CF44
:10F7D80001F0026A120089848992B1EC7BF090C032
:10F7E80093F0898200019351120012000001926F78
:10F7F80089848992000192519BEC7AF089821200E7
:10F808005B28D8B402D05B2A02D0000E5B6E5B5036
:10F8180012001200FFFF010308FF01FFFF3C010176
:10F82800141419FFFFFFFF0000D089EC7AF00001E3
:10F83800946F000194B1F9D7120000D089EC7AF0E6
:10F848000001946F000194A3F9D7120001013D6FE4
:10F858003CC120F101013D5160EC27F01200070E78
:10F868000001946F94C092F01C0EE1EC78F0120045
:10F87800899E060E9BEC7AF0898E21EC7CF01200B2
:10F8880090C0D5F291C0D6F20201D76BD86B1200A6
:10F8980054EC7CF090C092F091C093F012001200EA
:10F8A8005A0E0001906F000E0001916F12001200B5
:10F8B80092C090F093C091F089EC7BF01200120096
:10F8C8000001966F000196516BEC7CF0120000016C
:10F8D800956F00019551CBEC7BF01200C2A202D0CB
:10F8E800010E1200000E12001200070E0001916FA7
:10F8F800906912001200000E0001C56FF9EC57F074
:10F908001200010E0001C56FF9EC57F01200280E25
:10F9180022EC7BF087EC6FF012000001906F90C032
:10F92800EDF112000001906F90C07CF21200A4C0AB
:10F9380090F0A5C091F01200D39ED18E0300040070
:10F9480012000301DD510E0B12001200A4C001F0D9
:10F95800A5C002F0120018C0A4F019C0A5F012004A
:10F968000101ED5112001200BCEC7CF012001200F3
:10F978000001B851120012000001BD51120012001E
:10F988000201E151120012000001AE5112001200F2
:10F998000001BE51120012000001906F1200120007
:10F9A80000D07FB2FED712000001BE511200120033
:10F9B8000001B85112001200FA0E12001200000ED7
:10F9C8001200120085EC7CF01200FF00C20100005A
:0AF9D800C2821200120012000300A8
:10FE32000001000A006400E803102701001000001E
:10FE420001001000010708090A005365656C6F770D
:10FE52004C2C322E3135302C312E33312C322C3089
:10FE62002C302C303030303030303030302C003CC0
:10FE7200453E4E6F7420416C6C6F77656420746FE1
:10FE82002073656E643C2F453E004D6173743A20C9
:10FE920030782530325825303258253032582530C6
:10FEA2003258200049443A203078253032582530E3
:10FEB2003258253032582530325820003C453E4DCC
:10FEC200617820726574726965733C2F453E004605
:10FED20069726D776172653A2076322E3135302043
:10FEE20000303132333435363738394142434445B4
:10FEF200460073686F756C64204175746F536C654E
:10FF02006570004D7266204175746F2077616B6574
:10FF1200207570003C453E2575207420696E743C46
:10FF22002F453E0047726F75703A20307825303287
:10FF32005820004E6F64653A2030782530325820C0
:10FF4200000D0A433A25692025750D0A003C453EFD
:10FF5200527831303C2F453E004D72662077616BFE
:10FF62006520757000243030303232313233260051
:10FF7200436F723A202530325820004261743A2091
:10FF82002530345820002430303032323432362694
:10FF92000057697065456570726F6D00626174200B
:10FFA2007361666574790053533A202530325820C4
:10FFB2000020534C454550494E47005070723A203C
:10FFC20025692000547970653A20003C2F44413E57
:10FFD200003C2F55413E00574452535400204643A3
:10FFE20020003C44413E003C55413E004532200049
:0EFFF20025632000424F5200504F5200000085
:020000040020DA
:08000000FFFFFFFFFFFFFFFF00
:020000040030CA
:0E0000001D981B36FF8980FF0FC00FE00F40D8
:00000001FF
