:04080000F4EF04F01D
:10080800FACF1CF0FBCF1DF0E9CF1EF048EF6BF0DC
:10081800D8CF8FF0E8CF90F0E0CF91F0FACF92F0F8
:10082800FBCF93F0E9CF94F0EACF95F0E1CF96F0C3
:10083800E2CF97F0D9CF98F0DACF99F0F3CF9AF0CA
:10084800F4CF9BF0F6CF9CF0F7CF9DF0F8CF9EF059
:10085800F5CF9FF099D0000E0001A26FF2A066D0EC
:1008680081CFA0F000F0F2900001A0A95BD0600E4B
:100878000101C319D8A44BD00001CD51D8A43AD056
:100888000001C951D8A436D0CCEC7CF00101F16F3D
:10089800040E00016C6F010ED1EC5FF06CC077F0B4
:1008A8006DC078F09FEC7CF0D3B606D001D004D0B0
:1008B800010E0101CE6F00D07BEC7CF09AEC7CF04D
:1008C8000001A351000160270001A4510001612328
:1008D800000160C062F0000161C063F00001646B58
:1008E800656B18EC7BF0010E0101C06F010E000171
:1008F800CD6F18D00001C951D8A414D001D012D09E
:10090800D0EC7CF000D0010E0101C16F0BD0800E3D
:100918000101C319D8A406D0010E0101C26FBCECB5
:1009280079F000D0010E0001A26F00D09EBA9DAAF6
:100938002FD014EC79F00001A16F9E9AABA208D0D9
:100948004F0EAB16AC9ACF0E9D1661EC55F01CD02D
:10095800ABB41AD001D018D0A7A209D0190E000143
:100968006C6FFF0E00016D6FAEEC37F00DD0000E0E
:100978000001616F010E606FA1C062F098EC5DF03C
:10098800640E0101CD6F00D0010E0001A26F00D0EE
:100998000001A2510001D8A45ED79FC0F5FF9EC0F8
:1009A800F8FF9DC0F7FF9CC0F6FF9BC0F4FF9AC0FC
:1009B800F3FF99C0DAFF98C0D9FF97C0E2FF96C04D
:1009C800E1FF95C0EAFF94C0E9FF93C0FBFF92C026
:1009D800FAFF91C0E0FF90C0E8FF8FC0D8FF100079
:1009E80012EF5AF0000ED0B6010E0201EC6F000EA5
:1009F800D0B2010E0201FF6F000ED0B0010E03014C
:100A0800FA6F000E476E32EC44F0030E0101016FDD
:100A1800E80E006FFFEC74F0030E0101016FF00E99
:100A2800006F84EC7BF00101D16F0101D129D8B4AA
:100A380004D0010E02014D6F00D0DCEC60F005D04F
:100A4800938695EC7CF0DCEC60F00DC1ABF00EC148
:100A5800ACF000D00001ACBFF3D73E0E0001AB5D97
:100A6800080E0001AC59D8A0EBD79DEC77F0360EF4
:100A78000101016FB00E006FFFEC74F002014D51DF
:100A88000201D8A40ED00001ACBF0BD0870E000124
:100A9800AB5D0B0E0001AC59D8A003D0C6EC68F0D2
:100AA80000D0000E0101006F000E0101016F020E5F
:100AB80033EC75F0040073EC40F00400F6C200F16A
:100AC8000101016B40EC7CF09EEC7AF0010E000114
:100AD800C06F0201EC510201D8A413D0E20E01014B
:100AE800126FFF0E0101136F4AEC35F0000E010181
:100AF800016F040E006F060E0101026F05EC5DF038
:100B08002CD00201FF510201D8B418D00301FA51C8
:100B18000301D8A413D0F60E0101126FFF0E0101D4
:100B2800136F4AEC35F0000E0101016F040E006FDF
:100B3800070E0101026F05EC5DF00FD00201FF51B5
:100B48000201D8A40AD0FA0E0101126FFF0E0101AA
:100B5800136F4AEC35F0D08200D0000EEDEC6CF04B
:100B6800CF0E0101126FFF0E0101136F4AEC35F031
:100B7800D90E0101126FFE0E0101136F4AEC35F018
:100B8800F20E0101126FFF0E0101136F300E010109
:100B9800C9250101146F0101156B000E15234AECDC
:100BA80035F0B10E0101126FFF0E0101136FABC0DA
:100BB80014F1ACC015F14AEC35F04E0E0101126F7C
:100BC800FF0E0101136FF3C214F10101156BF4C29A
:100BD80016F10101176BF5C218F10101196BF6C284
:100BE8001AF101011B6B4AEC35F0340E0101126F4A
:100BF800FF0E0101136FF4C114F10101156BF5C16A
:100C080016F10101176BF6C118F10101196BF7C153
:100C18001AF101011B6B4AEC35F0980E0101126FB5
:100C2800FF0E0101136FACEC7CF00301D66F0301DA
:100C3800D6510101146F156B4AEC35F0890E01018C
:100C4800126FFF0E0101136FCAC014F10101156B79
:100C58004AEC35F0660E0101126FFF0E0101136FA9
:100C68004AEC35F0A60E0101126FFF0E0101136F59
:100C7800D1C114F10101156B4AEC35F0C60E010122
:100C8800126FFF0E0101136F81BA02D0010E01D05D
:100C9800000E0101146F156B4AEC35F0F30E0101DB
:100CA8000F6F020E0101106FE2EC77F0CFEC41F00C
:100CB8008EEC79F0000E0101306F1E0E2F6F010EC1
:100CC8000101316F040E81EC70F0000E0301F06F2A
:100CD800000E0101066F000E076F020E086F000E6E
:100CE800096F010E01010A6F000E0B6F000E0C6FE9
:100CF800000E0D6FF00E01010E6F030E01010F6F54
:100D08007FEC6EF00301F005D8A41ED0000E03019D
:100D1800F06F000E0101056F000E066F020E076FDF
:100D2800000E086FF00E0101096F030E01010A6F32
:100D3800010E01010B6F000E0C6F000E0D6F000EFF
:100D48000E6F64EC6FF000D0F30E0101066F020E17
:100D58000101076FD90E0101086F010E0101096F2A
:100D6800040E01010A6FF6EC75F00009D8B403D03F
:100D78000400FED700D0E5EC7CF0000E0001C06F47
:100D880000D00101D3510101D8A483EF0CF0000E6B
:100D980069EC78F04E50D8B402D0FF0000D0000EB5
:100DA8000201676F04000101BF51D8B482D001016C
:100DB800C351D8B41CD02EEC79F017C13EF218C13B
:100DC8003FF202013F510CE11F0E02013E5DD8B017
:100DD80007D0000E0101536F010EF5EC19F007D092
:100DE800000E0101536F000EF5EC19F000D05550BC
:100DF800D8B425D0F40E01010B6F010E01010C6F60
:100E0800E10E01010D6F030E01010E6F58EC45F064
:100E18000301D66F1F0E0301D66111D0F40E010134
:100E2800186F010E0101196F000E01011A6FEEEC27
:100E380073F00009D8B403D0000E556E00D0000E30
:100E48000101BF6F3E0E12EC3AF0E10E0101006F96
:100E5800010E0101016FD1EC51F030EC6EF0BCECE9
:100E68007CF00009D8B425D00201EB510201D8B4B6
:100E780020D0010E0001C06FBC0E0101126FFF0EE1
:100E88000101136F48EC7CF002C1D9FF03C1DAFFFE
:100E9800DF500301D66F0301D6510101146F156BA2
:100EA8004AEC35F0000E0001C06F000E0201EB6F36
:100EB80000D02EEC79F017C13EF218C13FF20201C2
:100EC8003F5105E1070E02013E5DD8A02AD002017C
:100ED8003F5127E11F0E02013E5DD8B022D001012B
:100EE800D051D8B41ED0E70E01010E6F030E0101D8
:100EF8000F6F930E0101106F030E0101116FC4C132
:100F080012F1000E0101136F010E0101146F000EA2
:100F18000101156F17EC4AF000D0000E0101D06FE7
:100F280000D00101C151D8B409D0000E0101C16F30
:100F3800200E49EC5BF0600E49EC5BF00001CD51EE
:100F4800D8B43AD090EC7CF000C117F101C118F187
:100F5800040E01010C6F010E4BEC5FF00CC119F18E
:100F68000DC11AF175EC7CF0010100C11BF1010102
:100F780001C11CF101011D6B1E6B32EC65F017C13C
:100F8800E5F318C1E6F34B0E0301E55D010E03011D
:100F9800E659D8A011D00101C051D8B40AD0000137
:100FA800C951D8A406D03BEC70F0000E0101C06F07
:100FB80000D097EC75F000D0670E01010E6F040E9B
:100FC80001010F6FE40E0101106F010E0101116F95
:100FD8003FEC48F00009D8B452D0670E0101356FD4
:100FE800040E0101366FE4C137F1CEC138F1F1C109
:100FF80039F172EC2FF00009D8B43AD06A0E010129
:101008000E6F040E01010F6F9F0E0101106F020E8B
:101018000101116FEE0E0101126F030E0101136F32
:10102800ACEC6FF00009D8B423D00B0E0301ED6FC0
:101038009F0E0101936F020E0101946F0301ED51A0
:10104800010D670EF3240101956F040EF4200101D0
:10105800966F0301ED5100080101E4250101976F26
:10106800EEC398F1000E0101996F8AEC13F000D0DD
:10107800000E0001CD6F000E0101CE6F00D0030EEF
:101088000101E119D8A414D0030E0101E219D8A472
:101098000FD0000E0101E16F000E0101E26F030E97
:1010A8000101006F010EE6EC7CF002014C8944D08E
:1010B800020E0101E219D8A40CD0000E0101E26F62
:1010C800020E0101006F010EE6EC7CF002014C8774
:1010D80033D00101E205D8A40CD0000E0101E26F63
:1010E800010E0101006F010EE6EC7CF002014C8557
:1010F80023D0020E0101E119D8A40ED0000E01017F
:10110800E16F62EC62F0020E0101006F000EE6EC86
:101118007CF002014C8310D00101E105D8A40CD069
:10112800000E0101E16F010E0101006F000EE6ECF7
:101138007CF002014C8100D00101C251D8B42BD0FF
:10114800000E0101C26F800E0101C319D8A411D08D
:101158000101D2510101D8A405D00101D3510101E7
:10116800D8B407D0000E49EC5BF0000E0101D26F35
:1011780010D0800E0101C319D8A40BD00001C951A9
:10118800D8A407D0200E49EC5BF0600E49EC5BF068
:1011980000D0040000D0ACA219D0000E0101016FEC
:1011A800020E006FE50E0101026F010E0101036FCF
:1011B80014EC56F00009D8B406D00101E551A0ECB2
:1011C8007BF0010E01D0000E4F6E00D0000E010121
:1011D800016F010E006FE50E0101026F010E0101A2
:1011E800036F14EC56F00009D8B408D0E5C100F13B
:1011F800010EDEEC7CF00101BE6F07D00101CD517C
:10120800D8B403D00101CD0700D00101BE51D8B434
:101218006BD105010151C00B0301F16F0301F145C9
:10122800E846030B0301F16FED0E0101126FFF0E8B
:101238000101136F4AEC35F00301F1510301D8A401
:1012480009D1000E0101C56FBCEC7CF00009D8B4CF
:101258003FD1000E0101006F050E0101016F020E62
:101268000101026FD90E0101036F010E0101046F24
:10127800000E0101056F040E0101066FCFEC71F03D
:101288000009D8B4BDD00A0E0101C46FDDC193F3C3
:10129800DEC194F3DFC195F3E0C196F31D0E03019F
:1012A800976F2B0E0301986F02C599F303C59AF344
:1012B80004C59BF305C59CF3010E0001C06F010135
:1012C800E451FA0F0101E46F000E0101016F020EF3
:1012D800006F240E0101026F05EC5DF0000E0101A4
:1012E800016F020E006F240E0101026F05EC5DF024
:1012F800000E0101016F020E006F0101E451040F9D
:101308000101026F05EC5DF0000E0101016F020E94
:10131800006F000E0101026F05EC5DF0000E030185
:10132800EB6F000E0301EF6F22D0000E0101016F79
:10133800020E006F0301EF51010D930EF324D96ED5
:10134800030EF420DA6EDF500101026F05EC5DF048
:101358000301EF51010D930EF324D96E030EF4200F
:10136800DA6EDF500301EB1B0301EF2B00D0FF0EF9
:101378000301D66FFF0E0301D76F0101C4510301AA
:10138800D86FD96B0301D6510301D8270301D75170
:101398000301D9230301EF510301DA6FDB6B03016A
:1013A800D8510301DA5D0301DB51800A0301DC6FC8
:1013B8000301D951800A0301DC59D8A0B6D7000E21
:1013C8000101016F020E006FEBC302F105EC5DF045
:1013D800000E0101016F020E006F0D0E0101026F78
:1013E80005EC5DF0000E0101016F020E006F0A0EA0
:1013F8000101026F05EC5DF0000E0001C06F68D0BE
:101408000101E351F80F0101C46F020E0301936F4C
:10141800000E0101006F050E0101016F060E0101AA
:10142800026F930E0101036F030E0101046F010E99
:101438000101056FC4C106F11AEC6FF002C5E7F3AC
:1014480003C5E8F304C5E9F305C5EAF3010E010194
:10145800D06F3ED0020E0301F119D8A439D0020E84
:101468000101C56FBCEC7CF00009D8B431D0020E84
:1014780001010E6F050E01010F6FDD0E0101106FE6
:10148800030E0101116FEC0E0101126F030E010131
:10149800136FACEC6FF00009D8B41AD0060E010136
:1014A800936F050E0101946F0A0E0101956F050EE9
:1014B8000101966F0101E351F30F0101976F280EA7
:1014C8000101986F010E0101996F8AEC13F000D0A9
:1014D800000E0101BE6FDC0E0101126FFF0E01014B
:1014E800136F4AEC35F000D0010E48EC78F0000993
:1014F800D8B417D0050E0101306FA00E2F6F020E61
:101508000101316F0C0E81EC70F00D0E39EC7BF09F
:101518000101D2510101D8B404D0000E0101D26FEB
:1015280000D00A0E48EC78F00009D8B420D0F40EA8
:101538000101066F010E0101076FD90E0101086F45
:10154800010E0101096F040E01010A6FF6EC75F036
:101558000009D8A40CD0F40E0101186F010E010186
:10156800196F000E01011A6F53EC46F000D00B0EF4
:1015780048EC78F00009D8B415D0000E02012B6FA2
:10158800000E2A6F000E02012D6F000E2C6F000E48
:101598000201416F000E406F000E0201436F000E02
:1015A800426F00D0000E48EC78F00009D8B404D09F
:1015B800000E02014C6F00D00B0E53EC7AF00009BC
:1015C800D8B40BD0050E0101306FA00E2F6F020E9C
:1015D8000101316F0B0E81EC70F00A0E53EC7AF0BA
:1015E80000D002011F5105E10B0E02011E5DD8A0BB
:1015F8000CD0070EDDEC4EF0000E92EC7BF0000EE6
:1016080002011F6F000E1E6F00D002014B51D8B4AB
:101618000AD0000E01010D6F240E0C6F85EC69F0E5
:1016280002014B0700D0000E0201636F0C0E53EC51
:101638007AF00009D8B40CD0050E0101306FA00E65
:101648002F6F020E0101316F0C0E81EC70F000D08B
:101658004950D8B41DD0050E0101306FA00E2F6F70
:10166800020E0101316F0C0E81EC70F0000E496E14
:101678000101C351D8B40CD00101C6510101D8A44D
:1016880007D0000E0101D26F0D0E39EC7BF000D0AF
:10169800170E48EC78F00009D8B40ED0070EEDEC20
:1016A8006CF0000E0101306F0A0E2F6F020E01015F
:1016B800316F170E81EC70F0170E53EC7AF00009B9
:1016C800D8B40BD0000E0101306F0A0E2F6F020E36
:1016D8000101316F170E81EC70F00C0E48EC78F0B8
:1016E8000009D8B40BD0040E0101306FB00E2F6F73
:1016F800010E0101316F0D0E81EC70F00D0E48ECFA
:1017080078F00009D8B40BD0020E0101306F580EE2
:101718002F6F010E0101316F0C0E81EC70F0180E65
:1017280048EC78F00009D8B411D0FA0E476002D01E
:10173800472A00D0000E0101306F0A0E2F6F020EEB
:101748000101316F180E81EC70F000D0180E53ECC7
:101758007AF00009D8B40BD0000E0101306F0A0EE0
:101768002F6F020E0101316F180E81EC70F0110E0F
:1017780048EC78F00009D8B406D0010E0101D56F05
:101788006CEC32F000D0100E48EC78F00009D8B4B8
:101798001AD0BCEC7CF00009D8A415D05650D8B4A7
:1017A80004D04BEC72F0000E0CD0F40E0101186F4F
:1017B800010E0101196F010E01011A6F53EC46F079
:1017C800010E566E00D0100E53EC7AF00009D8B412
:1017D8000CD0000E0101306F1E0E2F6F010E01019B
:1017E800316F100E81EC70F000D00001ACBF08D052
:1017F8003E0E0001AB5D080E0001AC59D8B00BD00D
:101808000101C6510101D8B452D00101C351D8B465
:1018180055D04DD053D00101C6510101D8B410D0D4
:101828000101C6510101D8B439D00001ACBF36D08E
:101838007D0E0001AB5D080E0001AC59D8A02ED07A
:10184800000E0101C66F010E5DEC74F0010100513C
:1018580001010111D8B404D00CD030D010D02ED052
:101868000D0E5DEC74F00101005101010111D8B4B5
:101878000DD00101C351D8B421D001D01FD001012E
:10188800D2510101D8A41AD015D018D00101C351E2
:10189800D8A414D0000EEDEC6CF010D00101C651A4
:1018A8000101D8B40BD00101C351D8B407D0010E3F
:1018B8000101C66F010E0101D26F00D0040E0101B3
:1018C8000C6F000EA0EC65F00CC11AF20DC11BF2F2
:1018D80002011A5102012C5D02011B5102012D590E
:1018E800D8B009D002016751D8A405D01AC22CF289
:1018F8001BC22DF200D04CEC76F0C5EF06F0E3ECFD
:101908007CF00009D8B4C5EF06F095EC7CF0010E28
:101918004E6EC5EF06F0F4EF04F036C121F137C181
:1019280022F13DC123F13AC106F13BC107F13CC1A7
:1019380008F1DFEC5BF00101246F000E0101256F57
:1019480011EC3FF00101606F36C106F137C107F1B4
:1019580038C108F139C109F1040E01010A6F9DEC83
:1019680076F001013E510101D8A410D036C106F12C
:1019780037C107F1FB0E0101086F020E0101096F63
:10198800040E01010A6F9DEC76F000D0010E0101F2
:101998003C6587EF13F03AC1D9FF3BC1DAFFDE049B
:1019A800D8A41AD0050E01013C6516D0F90E010124
:1019B8003C250101006F0101016BFF0E0123000EA0
:1019C8000101036F050E026FE3EC69F0010100519C
:1019D80001010111D8B40CD0000E0101306F0A0EBC
:1019E8002F6F020E0101316F170E81EC70F000D0DD
:1019F8003AC1D9FF3BC1DAFFDE04D8A466D1050E8F
:101A080001013C6562D1F90E01013C250101006F1D
:101A18000101016BFF0E0123000E0101036F050E8A
:101A2800026FE3EC69F00101005101010111D8A432
:101A38004CD1FF0E01013F6FFF0E0101406F010104
:101A48003C510101416F426B01013F5101014127A6
:101A580001014051010142230101415101013A258F
:101A6800D96E0101425101013B21DA6E0001CA51D0
:101A7800DE18D8B424D0FF0E01013F6FFF0E01011C
:101A8800406F01013C510101416F426B01013F511F
:101A98000101412701014051010142230101415146
:101AA80001013A25D96E0101425101013B21DA6E4B
:101AB800DE28D8A487EF13F002D087EF13F0000ECA
:101AC8000101626F010E616FE7D0050E010161250A
:101AD80001013F6F000E010162210101406F010108
:101AE8003C510101416F426B01013F510101415DD0
:101AF80001014251800A0101436F01014051800AEE
:101B080001014359D8A082D0010162BF7FD00101F1
:101B1800625105E1060E0101615DD8A077D03AC196
:101B280000F13BC101F161C102F1490E0101036FEE
:101B3800010E0101046F000E0101056F040E010181
:101B4800066F1AEC6FF0040E0101612501013F6F69
:101B5800000E010162210101406F01013F510101A5
:101B68003A25D96E0101405101013B21DA6EDF505F
:101B78000101416F050E0101426F0101D890413307
:101B88000101422FFAD701014151070B0101556F9D
:101B9800040E0101612501013F6F000E0101622160
:101BA8000101406F01013F5101013A25D96E010140
:101BB800405101013B21DA6EDF501F0B01015D6FBF
:101BC8001E0E01015D6506D0000E0101586F1F0E43
:101BD800576F0AD0010E01015D250101576F010100
:101BE800586B000E582300D0490E0101156F010EE5
:101BF8000101166F60C117F157C118F155C119F1EC
:101C0800000E01011A6F59EC1EF03CD0010161056C
:101C180001016211D8A436D03AC100F13BC101F1EB
:101C2800010E0101026FDD0E0101036F010E0101BA
:101C3800046F000E0101056F040E0101066FCFEC61
:101C480071F00009D8B41ED036C10EF137C10FF1BA
:101C5800040E0101612501013F6F000E010162219F
:101C68000101406F01013F5101013A25D96E01017F
:101C7800405101013B21DA6EDF500101106F48EC41
:101C88006CF000D0050E010161250101616F000EA5
:101C9800010162210101626F01013C5101013F6FA5
:101CA800406B01013F510101615D01016251800AF0
:101CB8000101416F01014051800A01014159D8B029
:101CC80087EF13F002D787EF13F03AC1D9FF3BC172
:101CD800DAFF020EDE18D8A423D0010120EE02F0AC
:101CE8003A51D9263B51DA22DE5002017219D8A4A2
:101CF80087EF13F0000E0201696F000E02019C6F5E
:101D0800020E02019D6F000E0101D46F510E0101F8
:101D18003D6187EF13F0010E02015A6F87EF13F050
:101D28003AC1D9FF3BC1DAFF020EDF6487EF13F037
:101D38000B0E01013C6587EF13F0010E496E000E92
:101D4800DEEC78F0010120EE02F03A51D9263B5141
:101D5800DA22DE5002017219D8A40AD0000E02015C
:101D6800696F000E02019C6F020E02019D6F00D088
:101D7800010120EE01F03A51D9263B51DA22DE501A
:101D880002017219D8A498D16A0E0101006F020EDF
:101D98000101016F000E0101026F3AC103F13BC15D
:101DA80004F1030E0101056F040E0101066FCFEC6B
:101DB80071F00009D8B480D1010120EE01F03A5148
:101DC800D9263B51DA22DF500101BC6F010E000118
:101DD800BA6F36C106F137C107F1EF0E0101086F7E
:101DE800020E0101096F040E01010A6F9DEC76F0E5
:101DF800010120EE07F03A51D9263B51DA220101C0
:101E0800DD51DE18D8A424D0010120EE08F03A51A3
:101E1800D9263B51DA220101DE51DE18D8A418D0A8
:101E2800010120EE09F03A51D9263B51DA2201018D
:101E3800DF51DE18D8A40CD0010120EE0AF03A5187
:101E4800D9263B51DA220101E051DE18D8B434D149
:101E58003AC1D9FF3BC1DAFF040EDE18D8B429D144
:101E680001D027D13AC100F13BC101F1030E0101B4
:101E7800026FDD0E0101036F010E0101046F000EF8
:101E88000101056F040E0101066FCFEC71F0000926
:101E9800D8A40FD101D00DD1010120EE0BF03A5199
:101EA800D9263B51DA2202019E51DE5CD8B003D01C
:101EB800000E1200FED0C8C259F1C9C25AF1CAC2F6
:101EC8005BF1CBC25CF13AC100F13BC101F1070EF5
:101ED8000101026F4D0E0101036F010E0101046F34
:101EE800000E0101056F040E0101066F1AEC6FF078
:101EF8004D0E01010B6F010E01010C6F590E01010E
:101F08000D6F010E01010E6F58EC45F00101566F7F
:101F180001015E69590E0101066F010E0101076F8B
:101F2800D90E0101086F010E0101096F040E0101AC
:101F38000A6FF6EC75F00009D8A40AD0590E010111
:101F48000E6F010E01010F6F0DEC72F001015E6F53
:101F58006A0E0101066F020E0101076FF70E0101FB
:101F6800086F020E0101096F040E01010A6F9DEC52
:101F780076F072C2EAF201EC7CF00201726F040E94
:101F88000201736F060E0201696F000E02019C6F59
:101F9800020E02019D6F3AC100F13BC101F1030E2F
:101FA8000101026F6E0E0101036F020E0101046F41
:101FB800000E0101056F040E0101066F1AEC6FF0A7
:101FC800DD0E0101066F010E0101076F6A0E0101A6
:101FD800086F020E0101096F040E01010A6F9DECE2
:101FE80076F0000E02019E6F1D0E0201746F2B0E1B
:101FF8000201756F4D0E0101006F010E0101016FA5
:10200800000E0101026F740E0101036F020E01013F
:10201800046F020E0101056F040E0101066F1AEC30
:102028006FF0590E0101006F010E0101016F000EE2
:102038000101026F740E0101036F020E0101046FAA
:10204800060E0101056F040E0101066F1AEC6FF010
:1020580036C100F137C101F1000E0101026F740EA3
:102068000101036F020E0101046F0A0E0101056FE1
:10207800040E0101066F1AEC6FF056C182F25EC1C0
:1020880083F201015E51060D040EF326000EF422C0
:10209800BD0EF324D96E0B0EF420DA6EDF500F0B51
:1020A8000201846F110E02019A6F000E0101D46FB4
:1020B80000D0000E120000D002016951D8A408D047
:1020C8000001BA51D8A404D002019B51D8B44ED013
:1020D8006E0E0101066F020E0101076F030E01016A
:1020E8003A250101086F000E01013B210101096F2A
:1020F800040E01010A6FF6EC75F00009D8B433D06C
:1021080002016951D8B42FD00001BA51D8A42BD0FC
:1021180002019B51D8A427D0010120EE01F03A51C9
:10212800D9263B51DA220201EA51DE18D8A41ED082
:10213800F70E0101006F020E0101016F000E01018F
:10214800026F3AC103F13BC104F1030E0101056FAF
:10215800040E0101066FCFEC71F00009D8B406D067
:10216800000E120003D0000E120000D0010120EE74
:1021780007F03A51D9263B51DA220101DD51DE1828
:10218800D8A424D0010120EE08F03A51D9263B51B9
:10219800DA220101DE51DE18D8A418D0010120EEA0
:1021A80009F03A51D9263B51DA220101DF51DE18F4
:1021B800D8A40CD0010120EE0AF03A51D9263B519F
:1021C800DA220101E051DE18D8B4D0D0010120EEA6
:1021D8000BF03A51D9263B51DA221F0EDE18D8A44B
:1021E80002D0000E12006A0E0101066F020E0101F4
:1021F800076FF70E0101086F020E0101096F040E47
:1022080001010A6F9DEC76F072C2EAF2010120EE3C
:1022180001F03A51D9263B51DA22DF500201726FA0
:102228003AC1D9FF3BC1DAFFDF500201736F060ED6
:102238000201696F000E02019C6F020E02019D6F80
:102248003AC100F13BC101F1070E0101026F6E0EA8
:102258000101036F020E0101046F000E0101056FF9
:10226800040E0101066F1AEC6FF03AC100F13BC190
:1022780001F1030E0101026F6A0E0101036F020EE4
:102288000101046F000E0101056F040E0101066FC4
:102298001AEC6FF0010120EE0BF03A51D9263B51B0
:1022A800DA22DF5001013F6F01013F2902019E6FD1
:1022B8003AC100F13BC101F10C0E0101026F740E2D
:1022C8000101036F020E0101046F000E0101056F89
:1022D80001013C51F40F0101066F1AEC6FF0010186
:1022E8003C51F40F02019A6F000E0101D46F0101F5
:1022F80020EE01F03A51D9263B51DA22DF50010194
:10230800BC6F010E0001BA6F36C106F137C107F183
:10231800EF0E0101086F020E0101096F040E0101A1
:102328000A6F9DEC76F036C121F137C122F13DC12B
:1023380023F1010E0101246F010E0101256F11EC3B
:102348003FF00101606F6A0E0101156F020E010175
:10235800166F60C117F19EC218F1000E0101196FC6
:10236800010E01011A6F59EC1EF0CDD16A0E010160
:10237800066F020E0101076FF70E0101086F020ECA
:102388000101096F040E01010A6F9DEC76F072C21B
:10239800EAF2010120EE01F03A51D9263B51DA2246
:1023A800DF500201726F3AC1D9FF3BC1DAFFDF503B
:1023B8000201736F000E0201696F000E02019C6F2B
:1023C800020E02019D6F3AC100F13BC101F1070EF7
:1023D8000101026F6E0E0101036F020E0101046F0D
:1023E800000E0101056F040E0101066F1AEC6FF073
:1023F8003AC100F13BC101F1030E0101026F6A0EFF
:102408000101036F020E0101046F000E0101056F47
:10241800040E0101066F1AEC6FF03AC100F13BC1DE
:1024280001F1030E0101026F38C103F139C104F152
:10243800000E0101056F040E0101066F1AEC6FF022
:10244800010120EE0BF03A51D9263B51DA22DF5038
:1024580001013F6F01013F2902019E6F3AC100F15E
:102468003BC101F10C0E0101026F740E0101036FF3
:10247800020E0101046F000E0101056F01013C51BC
:10248800F40F0101066F1AEC6FF001013C51F40FD3
:1024980002019A6F010120EE01F03A51D9263B5111
:1024A800DA22DF500101BC6F010E0001BA6F36C19C
:1024B80006F137C107F1EF0E0101086F020E0101A5
:1024C800096F040E01010A6F9DEC76F0000E010100
:1024D800D46F36C121F137C122F13DC123F1010E7C
:1024E8000101246F010E0101256F11EC3FF001017C
:1024F800606F6A0E0101156F020E0101166F60C14F
:1025080017F19EC218F1000E0101196F010E0101A9
:102518001A6F59EC1EF0090E02017319D8A405D0E0
:102528000201755160EC7CF0EED002017439E8428A
:10253800070B01015F6F01015F510101D8B41ED083
:102548000101C951D8B41AD00D0E01013A25010173
:10255800006F000E01013B210101016FF30E010123
:102568003C250101026F0101036BFF0E03235FC1CC
:1025780004F1D5EC63F0010E1200C5D001015F51E2
:102588000101D8A409D00101C951D8A405D0F3D7B5
:1025980003D0F1D71200B7D0020174511F0B0C0AF7
:1025A800D8B4E9D7020174511F0B1E0AD8A407D06A
:1025B80002017551D8A403D0DED71200A4D0CCC232
:1025C80051F1CDC252F1CEC253F1CFC254F13AC14A
:1025D80000F13BC101F1070E0101026F440E010138
:1025E800036F010E0101046F000E0101056F040E57
:1025F8000101066F1AEC6FF0440E01010B6F010E1A
:1026080001010C6F510E01010D6F010E01010E6FDA
:1026180058EC45F001014869510E0101066F010EA1
:102628000101076FD90E0101086F010E0101096F41
:10263800040E01010A6FF6EC75F00009D8A40AD05F
:10264800510E01010E6F010E01010F6F0DEC72F0BA
:102658000101486F6A0E0101066F020E0101076F42
:10266800F70E0101086F020E0101096F040E010146
:102678000A6F9DEC76F072C2EAF201EC7CF002017E
:10268800726F040E0201736F060E0201696F000E6D
:1026980002019C6F020E02019D6F3AC100F13BC11D
:1026A80001F1030E0101026F6E0E0101036F020EAC
:1026B8000101046F000E0101056F040E0101066F90
:1026C8001AEC6FF0DD0E0101066F010E0101076FB4
:1026D8006A0E0101086F020E0101096F040E010163
:1026E8000A6F9DEC76F0000E02019E6F1D0E02012E
:1026F800746F2C0E0201756F020E02019A6F000EA4
:102708000101D46F00D0000E1200120093C136F1FF
:1027180094C137F1AB0E0101386F010E0101396F19
:1027280095C13AF196C13BF197C13CF198C13DF191
:1027380099C13EF191EC0CF00009D8B41200000EDA
:102748000101AA6F010120EE0CF09551D92696518E
:10275800DA22DF501F0B0101AF6F0101B1691B0EB7
:102768000101AF650BD0010120EE0DF09551D9267E
:102778009651DA22DF500101B16F00D0000E01013D
:10278800A36F0C0E010195250101006F000E0101D8
:1027980096210101016F020E0101026F0C0E010169
:1027A80095250101036F000E010196210101046FB7
:1027B800060E0101056F040E0101066FCFEC71F0E2
:1027C8000009D8B426D00C0E010195250101006F2F
:1027D800000E010196210101016F060E0101026F31
:1027E8000C0E010195250101036F000E01019621D0
:1027F8000101046F0A0E0101056F040E0101066F45
:10280800CFEC71F00009D8B404D0010E0101A36F18
:1028180000D0A3C1B2F1000E0101A46F0C0E01019A
:1028280095250101006F000E010196210101016F3C
:10283800030E0101026F0C0E010195250101036FC2
:10284800000E010196210101046F070E0101056FB9
:10285800040E0101066FCFEC71F00009D8B426D040
:102868000C0E010195250101006F000E0101962152
:102878000101016F070E0101026F0C0E0101952580
:102888000101036F000E010196210101046F0B0E77
:102898000101056F040E0101066FCFEC71F000090C
:1028A800D8B404D0010E0101A46F00D0A4C1A5F1D1
:1028B80075EF18F092EF18F01AD092EF18F0190E81
:1028C80001019719D8A492EF18F00D0E0101952572
:1028D8000101186F000E010196210101196F000E08
:1028E80001011A6FEEEC73F092EF18F045D0010E6B
:1028F8000101AA6F92EF18F0010120EE0EF0955138
:10290800D9269651DA22410EDE18D8A492EF18F093
:10291800010120EE0FF09551D9269651DA22530E77
:10292800DE18D8A4FBD3010120EE10F09551D9266A
:102938009651DA22460EDE18D8A4F0D3C60E01014D
:10294800066F030E0101076F110E010195250101A4
:10295800086F000E010196210101096F0B0E01019C
:102968000A6FF6EC75F00009D8B4D8D3000E01014F
:10297800D56F6CEC32F0D2D30101B151030AD8B44F
:10298800B6D7290AD8B4B8D7C9D306D10101B251EC
:102998000101D8B4C3D30E0E010195250101186FAA
:1029A800000E010196210101196F000E01011A6F35
:1029B800EEEC73F0B3D30101A5510101D8B417D0DF
:1029C8000F0E010195250101206F000E01019621CE
:1029D8000101216F010120EE0EF09551D926965183
:1029E800DA22DF500101226F8BEC52F097D3AB0E45
:1029F8000101186F010E0101196F2D0E01011A6FE7
:102A0800010120EE01F09551D9269651DA22DF50C6
:102A180001011B6FC0EC77F081D30101A5510101C1
:102A2800D8B417D00F0E0101952501010E6F000EC5
:102A38000101962101010F6F010120EE0EF0955161
:102A4800D9269651DA22DF500101106F59EC4DF06A
:102A580065D3AB0E0101186F010E0101196F2D0E20
:102A680001011A6F010120EE01F09551D926965106
:102A7800DA22DF5001011B6FC0EC77F04FD3010160
:102A8800B2510101D8A44AD301D048D3AB0E0101F9
:102A9800186F010E0101196F2D0E01011A6F010146
:102AA80020EE01F09551D9269651DA22DF50010126
:102AB8001B6FC0EC77F032D30101B2510101D8B4D9
:102AC8002DD30E0E010195250101186F000E01018D
:102AD80096210101196F7AEC77F020D3010120EEDD
:102AE8000EF09551D9269651DA22520EDE18D8A446
:102AF80019D0010120EE0FF09551D9269651DA220E
:102B0800530EDE18D8A40ED0010120EE10F0955116
:102B1800D9269651DA22490EDE18D8A403D050ECF3
:102B28007CF0FCD2AB0E0101186F010E0101196F88
:102B38002D0E01011A6F010120EE01F09551D926E1
:102B48009651DA22DF5001011B6FC0EC77F0E6D214
:102B58000101B2510101D8B4E1D20E0E010195254F
:102B68000101186F000E010196210101196F22EC75
:102B780076F0D4D20101B2510101D8B4CFD20E0EF1
:102B8800010195250101186F000E0101962101012F
:102B9800196F3FEC6DF0C2D20101B151000AD8B4EF
:102BA800F5D6040AD8B4BAD2240AD8B404D7010A8C
:102BB800D8B433D7030AD8B462D7010AD8B47CD7BB
:102BC800070AD8B48BD7010AD8B4C2D70B0AD8B42D
:102BD800D1D7A4D265D20E0E010195250101386F17
:102BE800000E010196210101396FACEC3DF0AB0EEE
:102BF8000101186F010E0101196F7AEC77F08ED27E
:102C080095C100F196C101F10E0E0101026FF40E9B
:102C18000101036F010E0101046F000E0101056F30
:102C2800040E0101066F1AEC6FF00D0E01019525D7
:102C38000101186F000E010196210101196F22ECA4
:102C480076F06CD295C100F196C101F10E0E01012A
:102C5800026F95C103F196C104F1170E0101056FCA
:102C6800040E0101066FCFEC71F00009D8B499D0B9
:102C780095C100F196C101F1170E0101026F95C1CE
:102C880003F196C104F1200E0101056F040E010144
:102C9800066FCFEC71F00009D8B483D095C100F16C
:102CA80096C101F1120E0101026F95C103F196C19F
:102CB80004F11B0E0101056F040E0101066FCFEC34
:102CC80071F00009D8B46DD095C100F196C101F139
:102CD8001B0E0101026F95C103F196C104F1240E88
:102CE8000101056F040E0101066FCFEC71F00009B8
:102CF800D8B457D0010120EE1FF09551D92696512E
:102D0800DA22010110EE16F09551E1269651E222E1
:102D1800DE50E618D8A445D0010120EE28F09551E0
:102D2800D9269651DA22010110EE1FF09551E126BD
:102D38009651E222DE50E618D8A433D00E0E0101D7
:102D4800952501012A6F000E0101962101012B6FC3
:102D5800120E0101952501012C6F000E010196212B
:102D680001012D6F010120EE16F09551D9269651DB
:102D7800DA22DF5001012E6F75EC76F0AB0E0101FF
:102D8800186F010E0101196F0E0E01019525010141
:102D98001A6F000E0101962101011B6F17EC51F00B
:102DA800BDD1AB0E0101186F010E0101196F2D0E77
:102DB80001011A6F010120EE01F09551D9269651B3
:102DC800DA22DF5001011B6FC0EC77F0A7D10E0E9D
:102DD8000101952501010E6F000E010196210101E7
:102DE8000F6F97EC6AF0AB0E0101186F010E01012D
:102DF800196F010E01011A6FEEEC73F08FD101010A
:102E080020EE0EF09551D9269651DA22520EDE1890
:102E1800D8A484D1010120EE0FF09551D9269651FE
:102E2800DA22530EDE18D8A479D1010120EE10F071
:102E38009551D9269651DA22540EDE18D8A46ED1AF
:102E4800FF006CD1010120EE0EF09551D926965164
:102E5800DA22530EDE18D8A461D1010120EE0FF05A
:102E68009551D9269651DA22460EDE18D8A456D1A5
:102E7800010120EE10F09551D9269651DA22540E10
:102E8800DE18D8A44BD1AB0E0101186F010E010159
:102E9800196F90EC6DF0010120EE11F09551D926D3
:102EA8009651DA22DF500001D76F150E0101306FFD
:102EB8007C0E2F6F000E0101316F110E81EC70F046
:102EC8002DD1010120EE0EF09551D9269651DA2226
:102ED800530EDE18D8A458D0010120EE0FF09551FA
:102EE800D9269651DA22520EDE18D8A44DD0010107
:102EF80020EE10F09551D9269651DA22460EDE18AA
:102F0800D8A442D0010120EE11F09551D92696514E
:102F1800DA22040EDF6038D0010120EE11F095515D
:102F2800D9269651DA22DF500101A26F010120EE65
:102F380012F09551D9269651DA22DF5001019A6F85
:102F480001019A510101A76FA86B0101A751010165
:102F5800A86FA76B010120EE13F09551D926965161
:102F6800DA22DF5001019A6F01019A510101A72766
:102F7800000EA823A7C12FF1A8C130F1A2C131F1D9
:102F8800010E81EC70F0CAD0AB0E0101186F010E72
:102F98000101196F2D0E01011A6F010120EE01F0D8
:102FA8009551D9269651DA22DF5001011B6FC0ECEA
:102FB80077F0B4D0010120EE0EF09551D926965144
:102FC800DA22DF50D8090101A16FA1C102F13C0E3C
:102FD800F9EC78F0A3D00101B2510101D8B49ED028
:102FE800010120EE1BF09551D9269651DA22DF50C7
:102FF80001019A6F01019A51346E356A3450356E69
:10300800346A010120EE1AF09551D9269651DA2238
:10301800DF5001019A6F01019A513426000E3522C2
:103028003404090E3558D8A005D0000E356E000EB0
:10303800346E74D0010120EE1CF09551D9269651BA
:10304800DA22DF500001D76F0E0E0101952501012C
:10305800186F000E010196210101196FB5EC73F08C
:10306800010120EE1DF09551D9269651DA22DF5044
:103078000201A36F1E0E010195250101066F000EC6
:10308800010196210101076FC60E0101086F030EA9
:103098000101096F0B0E01010A6F9DEC76F03ED01D
:1030A8000101B151040AD8B496D7270AD8B493D5E8
:1030B800060AD8B4A5D5030AD8B4C4D5010AD8B429
:1030C80086D60F0AD8B49BD6010AD8B427D0030AEB
:1030D800D8B4B8D66A0AD8B4F4D6BE0AD8B46AD76F
:1030E8001DD00101AF51000AD8B418D0020AD8B4D3
:1030F8007BEF14F0060AD8B411D0080AD8B463EFED
:1031080014F0100AD8B40AD0010AD8B435D4030A86
:10311800D8B442D5010AD8B4C3D700D00101AA5106
:103128000101D8A420D00C0E010195250101836F5F
:10313800000E010196210101846F98C185F1AB0E43
:103148000101866F010E0101876FAFC188F1B1C11E
:1031580089F101019751F40F01018A6F03EC3CF0EA
:103168000101AA6F00D00101AA510101D8B41200CF
:10317800E80E0101126FFF0E0101136F4AEC35F0E2
:103188000101C551D8A423D1010E0001C06F01016E
:103198009751FD0F0101A66F000E0101016F020E8C
:1031A800006F240E0101026F05EC5DF0000E0101B5
:1031B800016F020E006F240E0101026F05EC5DF035
:1031C800000E0101016F020E006FA6C102F105ECAD
:1031D8005DF0000E0101016F020E006F000E01018B
:1031E800026F05EC5DF0000E0101A96F000E0101F0
:1031F800016F020E006F010120EE03F09551D926F0
:103208009651DA22DF500101026F05EC5DF00101F1
:1032180020EE03F09551D9269651DA22DF500101AC
:10322800A91B000E0101016F020E006F010120EEC3
:1032380004F09551D9269651DA22DF500101026F28
:1032480005EC5DF0010120EE04F09551D926965168
:10325800DA22DF500101A91B000E0101016F020EE5
:10326800006F010120EE05F09551D9269651DA221A
:10327800DF500101026F05EC5DF0010120EE05F061
:103288009551D9269651DA22DF500101A91B000E6B
:103298000101016F020E006F010120EE06F0955149
:1032A800D9269651DA22DF500101026F05EC5DF054
:1032B800010120EE06F09551D9269651DA22DF5009
:1032C8000101A91B000E0101B06F38D0000E0101E9
:1032D800016F020E006F0101B05101019A6F9B6BE3
:1032E8000C0E01019A27000E9B2301019A5101013E
:1032F8009525D96E01019B5101019621DA6EDF50A7
:103308000101026F05EC5DF00101B05101019A6FF6
:103318009B6B0C0E01019A27000E9B2301019A5109
:1033280001019525D96E01019B5101019621DA6EA3
:10333800DF500101A91B0101B02B00D0F70E0101DC
:103348009A6FFF0E01019B6F0101A65101019C6F4D
:103358009D6B01019A5101019C2701019B510101BB
:103368009D230101B05101019E6F9F6B01019C518A
:1033780001019E5D01019F51800A0101A06F0101B9
:103388009D51800A0101A059D8A0A0D7000E0101C3
:10339800016F020E006FA9C102F105EC5DF0000E8D
:1033A8000101016F020E006F0D0E0101026F05ECA5
:1033B8005DF0000E0101016F020E006F0A0E01019F
:1033C800026F05EC5DF0000E0001C06F00D0D60E54
:1033D8000101126FFF0E0101136F4AEC35F0120064
:1033E80012000101636F02016951D8A414D00001D1
:1033F800BA51D8A410D002019B51D8A40CD0010115
:103408005305D8A408D0010E0101516F0101635181
:1034180026EC7CF008D0000E0101516F01016351C8
:1034280026EC7CF000D0B00E0101646F040E01019F
:10343800656FB4EC7CF00009D8A416D0DCC20CF19E
:10344800DDC20DF185EC69F0010E01010C250201C8
:10345800106F000E01010D210201116F000E020113
:10346800DF6F000EDE6F00D0B0EC7CF00009D8B43E
:10347800DDD002019B51D8B47BD001016351010119
:10348800D8B476D0000E02019B6F64C1D9FF65C124
:10349800DAFF73C2DFFF010120EE01F06451D92683
:1034A8006551DA2272C2DFFF010120EE02F0645199
:1034B800D9266551DA22BCC1DFFF6A0E0101006F0F
:1034C800020E0101016F000E0101026F64C103F1D8
:1034D80065C104F1030E0101056F040E0101066FB9
:1034E8001AEC6FF06E0E0101006F020E0101016F00
:1034F800000E0101026F64C103F165C104F1070EFA
:103508000101056F040E0101066F1AEC6FF001014D
:1035180020EE0BF06451D9266551DA229EC2DFFFF6
:10352800740E0101006F020E0101016F000E01010E
:10353800026F64C103F165C104F10C0E0101056F4E
:103548009AC206F11AEC6FF0D90E01013B6F010E19
:1035580001013C6FA50E01013D6F040E01013E6F94
:1035680002019A510C0F01013F6F4DEC64F05AD0E3
:10357800020110510201DE1955E102011151020147
:10358800DF19D8A44FD0010163510101D8B441D04B
:10359800BCEC7CF00009D8B43CD05350D8B427D048
:1035A80075EC2CF001015A6FD90E01013B6F010E29
:1035B80001013C6FA50E01013D6F040E01013E6F34
:1035C8005AC13FF14DEC64F00009D8A42BD001D0CA
:1035D80029D00201DC510201105D0201DD51020116
:1035E8001159D8B01FD00201104B112B1BD0D90E86
:1035F80001013B6F010E01013C6FA50E01013D6FFA
:10360800040E01013E6F000E01013F6F4DEC64F0A6
:1036180009D0FE0E0101126FFE0E0101136F4AEC74
:1036280035F000D00201DE4BDF2BDBD2C4C25FF1E4
:10363800C5C260F1C6C261F1C7C262F10101D451CD
:10364800D8A4C1D00101D42B02019C51D8A4B8D070
:10365800010E02016965C5D26E0E01010B6F020EE3
:1036680001010C6F5F0E01010D6F010E01010E6F5C
:1036780058EC45F001015B6F0001BA51D8B416D07F
:103688005F0E0101066F010E0101076FEF0E0101C8
:10369800086F020E0101096F040E01010A6FF6ECB2
:1036A80075F00009D8A49DD201D09BD29DC20CF11F
:1036B80001010D6B85EC69F001010C5102019C6F51
:1036C800010163510101D8B48CD2020169070201DA
:1036D8009D2B1F0E01015B6184D264C1D9FF65C1B6
:1036E800DAFF73C2DFFF010120EE01F06451D92631
:1036F8006551DA2272C2DFFF010120EE02F0645147
:10370800D9266551DA22BCC1DFFF6A0E0101006FBC
:10371800020E0101016F000E0101026F64C103F185
:1037280065C104F1030E0101056F040E0101066F66
:103738001AEC6FF06E0E0101006F020E0101016FAD
:10374800000E0101026F64C103F165C104F1070EA7
:103758000101056F040E0101066F1AEC6FF00101FB
:1037680020EE0BF06451D9266551DA229EC2DFFFA4
:10377800740E0101006F020E0101016F000E0101BC
:10378800026F64C103F165C104F10C0E0101056FFC
:103798009AC206F11AEC6FF05F0E01013B6F010E41
:1037A80001013C6FA50E01013D6F040E01013E6F42
:1037B80002019A510C0F01013F6F4DEC64F011D2D8
:1037C80002019C070ED20101D405D8A4E8D000015B
:1037D800BA51D8B4E4D00101D42B6E0E01010B6F9D
:1037E800020E01010C6F5F0E01010D6F010E010148
:1037F8000E6F58EC45F001015C6F010E020169651E
:103808009CD05F0E0101066F010E0101076FEF0EDC
:103818000101086F020E0101096F040E01010A6F10
:10382800F6EC75F00009D8B488D0000E0201696F73
:10383800000E02019C6F020E02019D6F010163518F
:103848000101D8B4CED11F0E01015C61CAD1000EAE
:103858000001BA6F64C1D9FF65C1DAFF73C2DFFF27
:10386800010120EE01F06451D9266551DA2272C2B5
:10387800DFFF010120EE02F06451D9266551DA22FA
:10388800BCC1DFFF6A0E0101006F020E0101016F6A
:10389800000E0101026F64C103F165C104F1030E5A
:1038A8000101056F040E0101066F1AEC6FF06E0E30
:1038B8000101006F020E0101016F000E0101026F8C
:1038C80064C103F165C104F1070E0101056F040E1F
:1038D8000101066F1AEC6FF0010120EE0BF0645144
:1038E800D9266551DA229EC2DFFF740E0101006FEE
:1038F800020E0101016F000E0101026F64C103F1A4
:1039080065C104F10C0E0101056F9AC206F11AECAB
:103918006FF05F0E01013B6F010E01013C6FA50EB8
:1039280001013D6F040E01013E6F02019A510C0F17
:1039380001013F6F4DEC64F054D1000E0001BA6FE5
:1039480064C1D9FF65C1DAFF020EDF6E010120EE06
:1039580001F06451D9266551DA22000EDF6E0101AB
:1039680020EE02F06451D9266551DA22BCC1DFFF8E
:10397800010163510101D8B434D1EF0E01013B6F4D
:10398800020E01013C6FA50E01013D6F040E0101FD
:103998003E6F030E01013F6F4DEC64F022D1020E21
:1039A8000101D4651BD102016905D8A413D16E0E9B
:1039B80001010B6F020E01010C6F5F0E01010D6F0B
:1039C800010E01010E6F58EC45F001015D6F010118
:1039D8005E695F0E0101066F010E0101076FD90EC6
:1039E8000101086F010E0101096F040E01010A6F40
:1039F800F6EC75F00009D8A40BD05F0E01010E6F2C
:103A0800010E01010F6F0DEC72F001015E6F00D025
:103A1800040E02017319D8B414D06A0E0101066F9E
:103A2800020E0101076FDD0E0101086F010E010191
:103A3800096F040E01010A6FF6EC75F00009D8B49D
:103A48000AD0000E0201696F000E02019C6F020E7F
:103A580002019D6FBFD06A0E0101066F020E0101BF
:103A6800076FDD0E0101086F010E0101096F040ED9
:103A780001010A6FF6EC75F00009D8A4ABD001D0AB
:103A8800A9D06A0E0101066F020E0101076FF70E39
:103A98000101086F020E0101096F040E01010A6F8E
:103AA8009DEC76F072C2EAF201EC7CF00201726FD2
:103AB800040E0201736F060E0201696F000E020107
:103AC8009C6F020E02019D6F6E0E0101066F020EC1
:103AD8000101076F560E0101086F010E0101096F00
:103AE800040E01010A6F9DEC76F06A0E0101066F63
:103AF800020E0101076F6E0E0101086F020E01012F
:103B0800096F040E01010A6F9DEC76F0DD0E0101CC
:103B1800066F010E0101076F6A0E0101086F020EA0
:103B28000101096F040E01010A6F9DEC76F0000E89
:103B380002019E6F1D0E0201746F2B0E0201756F3C
:103B4800560E0101006F010E0101016F000E010107
:103B5800026F740E0101036F020E0101046F020E61
:103B68000101056F040E0101066F1AEC6FF05F0E7C
:103B78000101006F010E0101016F000E0101026FCA
:103B8800740E0101036F020E0101046F060E01019C
:103B9800056F040E0101066F1AEC6FF05DC17EF22D
:103BA8005EC17FF201015E51060D040EF326000E80
:103BB800F422BD0EF324D96E0B0EF420DA6EDF501A
:103BC8000F0B0201806F0D0E02019A6F000E0101AA
:103BD800D46F00D0000E0101D46F03D00101D42BA3
:103BE80000D0B4EC7CF00009D8A40CD002014E2B14
:103BF800020E02014E6506D09DEC4FF0000E020148
:103C08004E6F00D00201442B0101F0510201445DC6
:103C1800D8A03FD00101BD51020DC90EF324D96EC1
:103C2800090EF420DA6EDF38E832E832030B0009B7
:103C3800D8B422D0010E0101546F0101BD51020D0B
:103C4800C90EF324D96E090EF420DA6EDF380101AB
:103C5800556F55335531030B556F0101545101010F
:103C6800555F0101553B55375537DF50010155194F
:103C78003F0B5519DF6E00D00101BD2BF90E010174
:103C8800BD6503D0000E0101BD6F000E0201446F37
:103C980000D0070E48EC78F00009D8B41200CFEC39
:103CA80041F0010E536E1200120015C106F116C143
:103CB80007F1DD0E0101086F010E0101096F040E05
:103CC80001010A6FF6EC75F00009D8A4120001D0C2
:103CD800120001011729D8B4120001D01200030EF6
:103CE8000101086F01011751060D050EF326000E9C
:103CF800F422BD0EF324D96E0B0EF420DA6EDF50D9
:103D0800C7EC4BF00101196151D0030E0101086F96
:103D180001011751060D050EF326000EF422BD0E03
:103D2800F324D96E0B0EF420DA6EDF50C7EC4BF09B
:103D380001011B6F01011751060D040EF326000E39
:103D4800F422BD0EF324D96E0B0EF420DA6EDF38A0
:103D58000F0B47EC79F001011B5DD8B012D00101BF
:103D68001751060D040EF326000EF422BD0EF3249F
:103D7800D96E0B0EF420DA6EDF380F0B47EC79F0B2
:103D88003AD0030E0101086F01011751060D050E07
:103D9800F326000EF422BD0EF324D96E0B0EF42088
:103DA800DA6EDF50C7EC4BF026D02BD0010117514B
:103DB800060D040EF326000EF422BD0EF324D96E70
:103DC8000B0EF420DA6EDF380F0B47EC79F00101A7
:103DD800196114D001011751060D040EF326000EC7
:103DE800F422BD0EF324D96E0B0EF420DA6EDF3800
:103DF8000F0B47EC79F001011F6F03D019C11FF1B8
:103E080000D0000E0101206FF90E0101206501D0DC
:103E18006BD215C104F116C105F101012051E1EC85
:103E280061F00009D8B45DD201012051020DC90E1C
:103E3800F324D96E090EF420DA6EDF503F0BF5EC4F
:103E48006BF001011C6F01012051020D010EF326D8
:103E5800000EF422C90EF324D96E090EF420DA6E8E
:103E6800DF38E832070B01011B6F01011C5101010A
:103E78001B5DD8B019D01CC11BF101012051020DE6
:103E8800010EF326000EF422C90EF324D96E090E92
:103E9800F420DA6E01011B3B1B47DF5001011B199F
:103EA8001F0B1B19DF6E00D001011A510101D8B494
:103EB8002DD001012051020D010EF326000EF4222F
:103EC800C90EF324D96E090EF420DA6EDF50010111
:103ED8001819E00B1819DF6E01012051020DC90EE7
:103EE800F324D96E090EF420DA6EDF500101171998
:103EF800C00B1719DF6E01012051020DC90EF32402
:103F0800D96E090EF420DA6EC00EDF1201012051BD
:103F1800020DC90EF324D96E090EF420DA6EDF50B3
:103F28003F0B01011719D8A444D01FC11BF101018F
:103F38002051020D010EF326000EF422C90EF324BF
:103F4800D96E090EF420DA6E01011B3B1B47DF50C6
:103F580001011B191F0B1B19DF6E01012051020DF6
:103F6800010EF326000EF422C90EF324D96E090EB1
:103F7800F420DA6EDF501F0B01011819D8B405D0F0
:103F880001011751FFEC79F000D001012051020D19
:103F9800010EF326000EF422C90EF324D96E090E81
:103FA800F420DA6EDF5001011819E00B1819DF6EE2
:103FB800120001012051020DC90EF324D96E090E19
:103FC800F420DA6EDF38E832E832030B0009D8A4AF
:103FD800120001012051020D010EF326000EF422F9
:103FE800C90EF324D96E090EF420DA6EDF38E832F0
:103FF800070B070AD8A43BD001012051020D010E7E
:10400800F326000EF422C90EF324D96E090EF4200B
:10401800DA6EDF5001011819E00B1819DF6E010183
:104028002051020DC90EF324D96E090EF420DA6E60
:10403800DF5001011719C00B1719DF6E1FC11BF1E3
:1040480001012051020D010EF326000EF422C90EC3
:10405800F324D96E090EF420DA6E01011B3B1B47CD
:10406800DF5001011B191F0B1B19DF6E1200010124
:104078002051020D010EF326000EF422C90EF3247E
:10408800D96E090EF420DA6EDF501F0B010118619A
:1040980045D001011F510001D85DD8A012000101CF
:1040A8002051020D010EF326000EF422C90EF3244E
:1040B800D96E090EF420DA6EDF5001011819E00BF1
:1040C8001819DF6E01012051020DC90EF324D96EB3
:1040D800090EF420DA6EDF5001011719C00B171909
:1040E800DF6E1FC11BF101012051020D010EF326E5
:1040F800000EF422C90EF324D96E090EF420DA6EEC
:1041080001011B3B1B47DF5001011B191F0B1B192A
:10411800DF6E01011751FFEC79F012000101205107
:10412800020D010EF326000EF422C90EF324D96EF7
:10413800090EF420DA6EDF501F0B01011819D8A4FC
:1041480061D001012051020D010EF326000EF42268
:10415800C90EF324D96E090EF420DA6EDF38E8327E
:10416800070B01011F61120001012051020D010E10
:10417800F326000EF422C90EF324D96E090EF4209A
:10418800DA6EDF38E832070B0001D861120001014E
:104198002051020D010EF326000EF422C90EF3245D
:1041A800D96E090EF420DA6EDF5001011819E00B00
:1041B8001819DF6E01012051020DC90EF324D96EC2
:1041C800090EF420DA6EDF5001011719C00B171918
:1041D800DF6E1FC11BF101012051020D010EF326F4
:1041E800000EF422C90EF324D96E090EF420DA6EFB
:1041F80001011B3B1B47DF5001011B191F0B1B193A
:10420800DF6E120001012051020D010EF326000E8F
:10421800F422C90EF324D96E090EF420DA6EDF50A9
:104228001F0B01011B6F0101185101011B5DD8B063
:1042380012000001D85101011F5DD8B01200010120
:104248002051020D010EF326000EF422C90EF324AC
:10425800D96E090EF420DA6EDF38E832070B000158
:10426800D861120001012051020D010EF326000E43
:10427800F422C90EF324D96E090EF420DA6EDF5049
:1042880001011819E00B1819DF6E01012051020D08
:10429800C90EF324D96E090EF420DA6EDF5001013D
:1042A8001719C00B1719DF6E1FC11BF1010120512F
:1042B800020D010EF326000EF422C90EF324D96E66
:1042C800090EF420DA6E01011B3B1B47DF50010188
:1042D8001B191F0B1B19DF6E01011751FFEC79F039
:1042E80012000101202B90D51F0E0101186160D02A
:1042F800000E01011E6FF90E01011E6501D058D094
:10430800D90E0101046F010E0101056F01011E5153
:10431800E1EC61F00009D8B447D015C107F116C126
:1043280008F101011E51F4EC6FF001011E51020D5C
:10433800010EF326000EF422C90EF324D96E090EDD
:10434800F420DA6EDF5001011819E00B1819DF6E3E
:1043580001011E51020DC90EF324D96E090EF42075
:10436800DA6EDF5001011719C00B1719DF6E1FC174
:104378001BF101011E51020D010EF326000EF4225D
:10438800C90EF324D96E090EF420DA6E01011B3B25
:104398001B47DF5001011B191F0B1B19DF6E0101A1
:1043A8001751FFEC79F0120001011E2BA4D700D0A1
:1043B8001F0E010118611200AFC01DF1F90E0101B5
:1043C8001D6502D01200120001011D51020D010EDF
:1043D800F326000EF422C90EF324D96E090EF42038
:1043E800DA6EDF501F0B1F0AD8B40ED001011D5121
:1043F800020DC90EF324D96E090EF420DA6EDF50CF
:104408003F0B3F0AD8A454D015C107F116C108F1D3
:104418000001AF51F4EC6FF00001AF51020D010E35
:10442800F326000EF422C90EF324D96E090EF420E7
:10443800DA6EDF5001011819E00B1819DF6E000160
:10444800AF51020DC90EF324D96E090EF420DA6EAD
:10445800DF5001011719C00B1719DF6E1FC11BF1BF
:104468000001AF51020D010EF326000EF422C90E11
:10447800F324D96E090EF420DA6E01011B3B1B47A9
:10448800DF5001011B191F0B1B19DF6E0001AF5113
:10449800020DC90EF324D96E090EF420DA6E3F0E10
:1044A800DF1601011751FFEC79F01DC1AFF01200C2
:1044B800F90E01011D19D8A404D0000E0001AF6F38
:1044C80000D001011D2BF90E01011D657DD71200D9
:1044D80012001200000E0001D16F000E0001D26F11
:1044E800000E0001B26F000E0001B86F020E48EC1A
:1044F80078F00009D8B436D1010E0001D16F00015F
:10450800B32B020E0001B319D8A4FBD0000E000192
:10451800B36FF7D0000E0001B26F000E0101306FCB
:104528001E0E2F6F000E0101316F020E81EC70F02C
:1045380019D1010E0001B26F000E0101306F1E0E7D
:104548002F6F000E0101316F020E81EC70F00AD15D
:104558000001B305D8A404D0010E0001B26F00D049
:10456800000E0101306F400E2F6F000E0101316FF8
:10457800020E81EC70F0F6D00001B305D8A404D087
:10458800010E0001B26F00D0000E0101306F7D0EE8
:104598002F6F000E0101316F020E81EC70F0E2D036
:1045A80000D00001B305D8A404D0010E0001B26FF9
:1045B80000D0000E0101306FFA0E2F6F000E0101BE
:1045C800316F020E81EC70F0CDD00001B305D8A494
:1045D80004D0010E0001B26F00D0010E0101306F4E
:1045E800F40E2F6F000E0101316F020E81EC70F096
:1045F800B9D00001B305D8A404D0010E0001B26FF0
:1046080000D0030E0101306FE80E2F6F000E01017C
:10461800316F020E81EC70F0A5D00001B305D8A46B
:1046280004D0010E0001B26F00D0090E0101306FF5
:10463800C40E2F6F000E0101316F020E81EC70F075
:1046480091D00001B305D8A404D0010E0001B26FC7
:1046580000D0130E0101306F880E2F6F000E01017C
:10466800316F020E81EC70F07DD00001B305D8A443
:1046780021D0010E0001B26F3A50D8A40DD0000E1F
:104688000101306F500E2F6F000E0101316F020EC5
:1046980081EC70F0010E0CD0090E0101306F740E20
:1046A8002F6F000E0101316F020E81EC70F0000EC9
:1046B8003A6E58D03A50D8B40CD0000E0101306F81
:1046C800500E2F6F000E0101316F020E81EC70F059
:1046D80049D0090E0101306F740E2F6F000E0101D1
:1046E800316F020E81EC70F03DD0000E0101306F89
:1046F8001E0E2F6F000E0101316F020E81EC70F05B
:1047080031D00001B151000AD8B404D7010AD8B495
:1047180010D7030AD8B41CD7010AD8B42DD7070A72
:10472800D8B43FD7010AD8B450D7030AD8B461D750
:104738000D0AD8B436D7070AD8B433D7010AD8B483
:1047480030D7030AD8B42DD7010AD8B42AD71F0AFC
:10475800D8B463D7010AD8B474D7030AD8B485D7B4
:10476800C4D700D0030E48EC78F00009D8B436D18D
:10477800010E0001D26F0001B42B020E0001B41922
:10478800D8A4FBD0000E0001B46FF7D0000E0001D2
:10479800B86F000E0101306F1E0E2F6F000E010161
:1047A800316F030E81EC70F019D1010E0001B86F62
:1047B800000E0101306F1E0E2F6F000E0101316FC8
:1047C800030E81EC70F00AD10001B405D8A404D01E
:1047D800010E0001B86F00D0000E0101306F400ECD
:1047E8002F6F000E0101316F030E81EC70F0F6D0CF
:1047F8000001B405D8A404D0010E0001B86F00D0A0
:10480800000E0101306F7D0E2F6F000E0101316F18
:10481800030E81EC70F0E2D000D00001B405D8A4FA
:1048280004D0010E0001B86F00D0000E0101306FF6
:10483800FA0E2F6F000E0101316F030E81EC70F03C
:10484800CDD00001B405D8A404D0010E0001B86F82
:1048580000D0010E0101306FF40E2F6F000E010120
:10486800316F030E81EC70F0B9D00001B405D8A403
:1048780004D0010E0001B86F00D0030E0101306FA3
:10488800E80E2F6F000E0101316F030E81EC70F0FE
:10489800A5D00001B405D8A404D0010E0001B86F5A
:1048A80000D0090E0101306FC40E2F6F000E0101F8
:1048B800316F030E81EC70F091D00001B405D8A4DB
:1048C80004D0010E0001B86F00D0130E0101306F43
:1048D800880E2F6F000E0101316F030E81EC70F00E
:1048E8007DD00001B405D8A421D0010E0001B86F15
:1048F8003D50D8A40DD0000E0101306F500E2F6F1F
:10490800000E0101316F030E81EC70F0010E0CD026
:10491800090E0101306F740E2F6F000E0101316F07
:10492800030E81EC70F0000E3D6E58D03D50D8B4A7
:104938000CD0000E0101306F500E2F6F000E0101D8
:10494800316F030E81EC70F049D0090E0101306F10
:10495800740E2F6F000E0101316F030E81EC70F0A1
:104968003DD0000E0101306F1E0E2F6F000E0101A9
:10497800316F030E81EC70F031D00001B751000A9D
:10498800D8B404D7010AD8B410D7030AD8B41CD7AE
:10499800010AD8B42DD7070AD8B43FD7010AD8B42A
:1049A80050D7030AD8B461D70D0AD8B436D7070A46
:1049B800D8B433D7010AD8B430D7030AD8B42DD71E
:1049C800010AD8B42AD71F0AD8B463D7010AD8B4C1
:1049D80074D7030AD8B485D7C4D700D0090E00010C
:1049E800B119D8A40ED00001D2510001D8B409D011
:1049F8000001B4510001D8A404D0010E0001B26F27
:104A080000D00A0E0001B719D8A40ED00001D15168
:104A18000001D8B409D00001B3510001D8A404D0D2
:104A2800010E0001B86F00D0080E0001B119D8A41A
:104A38000ED00001D2510001D8B409D00001B851FC
:104A48000001D8B404D0010E0001B26F00D0070EE7
:104A58000001B719D8A40ED00001D1510001D8B473
:104A680009D00001B2510001D8B404D0010E0001F0
:104A7800B86F00D00001B8510001D8B40DD03C5037
:104A8800D8B402D03C0600D00001B6510001D8B419
:104A980003D00001B60700D00001B2510001D8B41C
:104AA8000DD03950D8B402D0390600D00001B05129
:104AB8000001D8B403D00001B00700D00001B05104
:104AC8000001D8B403D0000E0001B26F0001B65146
:104AD8000001D8B403D0000E0001B86F3950D8B423
:104AE80024D035D022D00A0E0001B06F0001B05199
:104AF800040F13D00A0E0001B06F0001B051030F6C
:104B08000CD00A0E0001B06F0001B051020F05D0A1
:104B18000A0E0001B06F0001B029396E18D00A0ED4
:104B28000001B06FB0C039F012D00001B1510B0ACA
:104B3800D8B4D9D7070AD8B4DDD7010AD8B4E1D791
:104B4800030AD8B4E5D7010AD8B4E9D700D03C5055
:104B5800D8B424D035D022D00A0E0001B66F000197
:104B6800B651040F13D00A0E0001B66F0001B651FA
:104B7800030F0CD00A0E0001B66F0001B651020FE8
:104B880005D00A0E0001B66F0001B6293C6E18D098
:104B98000A0E0001B66FB6C03CF012D00001B75142
:104BA8000B0AD8B4D9D7070AD8B4DDD7010AD8B4C4
:104BB800E1D7030AD8B4E5D7010AD8B4E9D700D0B9
:104BC8000001B251C8EC7CF00001B851E0EC7BF078
:104BD8001200000E0101446F000E456F000E466F73
:104BE800000E476F000E01013E6F000E3D6F00D0B2
:104BF8008A9400D081BC1200000E0101486F170E84
:104C08000101486501D027D08A8400D0050EE82E1E
:104C1800FED700F0D890010144350101446F01012D
:104C280045350101456F010146350101466F010116
:104C380047350101476F00D08A9400D081AC08D075
:104C4800010E01014427000E45234623472300D0C7
:104C58000101482BD4D78A8400D0050EE82EFED750
:104C680000F000D08A9400D0000E0101486F505027
:104C78000101B3250101356F51500101B421010132
:104C8800366F000E0101B5210101376F000E0101D9
:104C9800B6210101386F010135510101445D01015F
:104CA80036510101455901013751010146590101A8
:104CB800385101014759D8B0D5D250500101356F4C
:104CC80051500101366F0101376B0101386B010149
:104CD800351F361F371F381F352B000E3623372355
:104CE80038230101B351010135250101396F010153
:104CF800B4510101362101013A6F0101B551010199
:104D0800372101013B6F0101B65101013821010131
:104D18003C6F010144510101395D01014551010117
:104D28003A590101465101013B590101475101011D
:104D38003C59D8B097D20A0E0101CF6114D00101B5
:104D4800CF51040D320EF324D96E030EF420DA6E1F
:104D580044C1DEFF45C1DEFF46C1DEFF47C1DEFFBD
:104D68000101CF2B00D0090E0101CF651200000E02
:104D78000101B36F000EB46F000EB56F000EB66F71
:104D8800000E0101486F090E0101486501D018D0D5
:104D980001014851040D320EF324D96E030EF4209C
:104DA800DA6EDE500101B327DE500101B423DE5074
:104DB8000101B523DD500101B6230101482BE3D7DA
:104DC800B3C100F1B4C101F1B5C102F1B6C103F13B
:104DD8000A0E0101046F000E056F000E066F000E2B
:104DE800076F3CEC67F000C1B3F101C1B4F102C137
:104DF800B5F103C1B6F10101D805D8A42ED0B3C1CD
:104E0800F8F1B4C1F9F1B5C1FAF1B6C1FBF1000E80
:104E18000101D86FC4EC7CF0030E0101016FEC0EA8
:104E2800006FF8C102F132EC77F0C4EC7CF0030EAD
:104E38000101016FED0E006FF9C102F132EC77F05C
:104E4800C4EC7CF0030E0101016FEE0E006FFAC195
:104E580002F132EC77F04D8020D1020E0101D81911
:104E6800D8A478D0FF0E0101F86FFF0EF96FFF0E7E
:104E7800FA6F000EFB6F000E0101D86FC4EC7CF0D6
:104E8800030E0101016FEC0E006FF8C102F132EC64
:104E980077F0C4EC7CF0030E0101016FED0E006F9A
:104EA800F9C102F132EC77F0C4EC7CF0030E010199
:104EB800016FEE0E006FFAC102F132EC77F0C4EC2C
:104EC8007CF0030E0101016FF10E006FF8C102F1D1
:104ED80032EC77F0C4EC7CF0030E0101016FF20EA6
:104EE800006FF9C102F132EC77F0C4EC7CF0030EEC
:104EF8000101016FF30E006FFAC102F132EC77F095
:104F0800D00E0101356FCA0EE82EFED7352FFCD71B
:104F1800D00E0101356FCA0EE82EFED7352FFCD70B
:104F2800D00E0101356FCA0EE82EFED7352FFCD7FB
:104F3800D00E0101356FCA0EE82EFED7352FFCD7EB
:104F4800D00E0101356FCA0EE82EFED7352FFCD7DB
:104F5800FF00A3D0030E0101D819D8A409D0B3C10A
:104F68000CF2B4C10DF2B5C10EF2B6C10FF295D074
:104F78004150D8B492D0EAC108F1EBC109F1ECC1B3
:104F88000AF1EDC10BF18FEC71F008C111F109C103
:104F980012F10AC113F1000E0101146F7A0E01011A
:104FA800156F440E0101166FC0EC58F011C13FF1A6
:104FB80012C140F113C141F13FC114F140C115F1D3
:104FC80041C116F1F8C135F1F9C136F1FAC137F12D
:104FD800FBC138F10101351F361F371F381F352B2C
:104FE800000E3623372338230101B351010135253B
:104FF8000101086F0101B451010136210101096F56
:105008000101B5510101372101010A6F0101B651B2
:105018000101382101010B6F8FEC71F008C111F10A
:1050280009C112F10AC113F1C0EC58F011C120F105
:1050380012C121F113C122F117EC58F020C1E6F199
:1050480021C1E7F122C1E8F123C1E9F1000E416E67
:10505800C4EC7CF0030E0101016FF10E006FE6C194
:1050680002F132EC77F0C4EC7CF0030E0101016F21
:10507800F20E006FE7C102F132EC77F0C4EC7CF07D
:10508800030E0101016FF30E006FE8C102F132EC6B
:1050980077F04D8265EC68F000D00101B351010151
:1050A800F85D0101B4510101F9590101B55101013E
:1050B800FA590101B6510101FB59D8B0ADD0F8C178
:1050C80035F1F9C136F1FAC137F1FBC138F1010107
:1050D800351F361F371F381F352B000E3623372351
:1050E80038230101B351010135250101006F010188
:1050F800B451010136210101016F0101B5510101CE
:1051080037210101026F0101B65101013821010166
:10511800036F640E0101046F000E056F000E066F29
:10512800000E076F3CEC67F000C142F101C143F18A
:105138000101CA51020D730EF324D96E030EF42037
:10514800DA6EDECF35F1DDCF36F1EEC106F1EFC113
:1051580007F1000E0101096F640E086F0DEC71F084
:1051680001013551010106270101365101010723CB
:10517800010142510101065D010143510101075935
:10518800D8A031D00101CA51020D730EF324D96E93
:10519800030EF420DA6EDECF35F1DDCF36F1EEC145
:1051A80006F1EFC107F1000E0101096F640E086FE7
:1051B8000DEC71F00101061F0101071F0101064BEB
:1051C800072B010135510101062701013651010163
:1051D8000723010106510101425D01010751010147
:1051E8004359D8B032D00A0E0101CA6103D0010177
:1051F800CA2B04D0000E0101CA6F00D00101CA51A8
:10520800020D730EF324D96E030EF420DA6E42C138
:10521800DEFF43C1DDFF19D00A0E0101CA6103D0C8
:105228000101CA2B04D0000E0101CA6F00D0010190
:10523800CA51020D730EF324D96E030EF420DA6EF0
:10524800010EDE6E000EDD6E00D0000E0101B36FA0
:10525800000EB46F000EB56F000EB66F000E0101A0
:10526800CF6F1200000E0101CF6F44C1B3F145C1E9
:10527800B4F146C1B5F147C1B6F1120012000101FF
:105288004A6F0101C751D8A404D00101D751D8B43D
:105298004AD2800E0101C319D8B459D02CC00DF1DF
:1052A8002DC00EF1E0C20FF1E1C210F193EC74F0E1
:1052B80001010D5101010E11D8A413D0000E0101F6
:1052C8000E6F0001C751010D000EF324D96E070EB1
:1052D800F420DA6EDF5067EC7AF0010E0001C16F3E
:1052E80027D035C10EF1C7C000F10101016B5CC2C6
:1052F80002F10101036BC90E0101046F000E056F75
:10530800000E066F000E076F7AEC73F0000E0101B5
:105318000025D96E070E01010121DA6EDF5067EC16
:105328007AF0000E0001C16F000E02014A6F00D032
:10533800020E0101D719D8A406D0010E0101C76FCA
:10534800000E0101D76F000E0201616F2BD0020E13
:105358000101D719D8A407D0010E0101C76F000EAB
:105368000101D76F1FD00201612B010E0201616597
:1053780019D0F25000D0070EDDEC4EF0000E0101FE
:10538800C76F000E0101D76F010E0201E76F000E13
:105398000101016F040E006F030E0101026F05EC9D
:1053A8005DF000D02C042D10D8A407D0010E426E59
:1053B800A3C036F0A4C037F000D0080E48EC78F04F
:1053C8000009D8B408D00101CB51D8B404D0010EDB
:1053D80002015F6F00D0080E53EC7AF00009D8B4D0
:1053E8002ED00101CB51D8A41CD0F2C10CF101017F
:1053F8000D6B85EC69F001010C510101CC6F0101C5
:10540800CC5100080101F2250101CB6FCCC12FF16D
:105418000101306B010E0101316F080E81EC70F053
:105428000ED0CBC12FF10101306B010E0101316F9C
:10543800080E81EC70F0000E0101CB6F00D0010165
:10544800C8510101D8A406D002012051020121113E
:10545800D8B442D10001C151D8B43ED101014A515A
:105468000101D8B439D122C236F123C237F1010182
:10547800361F371F364B372B040E01010C6F010EF8
:105488004BEC5FF00101365101010C2501014F6F12
:105498000101375101010D210101506F4FC136F152
:1054A80050C137F10101361F371F364B372B36C134
:1054B8004DF137C14EF1080E0101505DD8A00BD057
:1054C800FE0E01014F5D0F0E01015059D8B003D0F7
:1054D8000101C82B36D001014F290F0E0101505987
:1054E800D8A00CD0FD0E01014F5D170E01015059D7
:1054F800D8B004D0020E0101C82723D0080E01013C
:105508004E5DD8A00BD0FE0E01014D5D0F0E0101BE
:105518004E59D8B003D00101C80713D001014D2955
:105528000F0E01014E59D8A00CD0FD0E01014D5DA2
:10553800170E01014E59D8B004D0020E0101C85F00
:1055480000D0040E01010C6F010E4BEC5FF00CC192
:105558004FF10DC150F1A3C000F1A4C001F14FC13A
:1055680002F150C103F1000E0101046F000E056F36
:10557800010E066F000E076F7AEC73F000C140F160
:1055880001C141F140C117F141C118F120C219F11F
:1055980021C21AF1000E01011B6F000E1C6F010ED3
:1055A8001D6F000E1E6F32EC65F017C14BF118C16C
:1055B8004CF14BC10DF14CC10EF1070E0101106FFA
:1055C8000F6993EC74F00DC146F10EC147F146C165
:1055D8000DF147C10EF1040E01010F6F010EF0EC41
:1055E8004AF00101465101014B5F01014751010198
:1055F8004C5B4BC1A3F04CC1A4F04BC106F14CC1AC
:1056080007F1070E0101096F08690DEC71F006C179
:105618002CF007C12DF0C7C017F10101186BC8C1E4
:1056280019F101011A6BC90E01011B6F000E1C6FE5
:10563800000E1D6F000E1E6F32EC65F00101175150
:105648000001C76FC8C138F10101396B000E0101B3
:10565800C86F000E0201216F000E206F000E0201BC
:10566800156F000E146F2C502D10D8A408D0000E02
:105678002D6E100E2C6E12C2A3F013C2A4F0070EEA
:10568800376E3668020E0101D76F040E01010C6FE8
:10569800010E4BEC5FF00001A35101010C25010143
:1056A800486F0001A45101010D210101496FB4ECBB
:1056B8007CF001013A6F48C13CF1010149510101F7
:1056C8003B6F000E0101016F040E006F020E010115
:1056D800026F05EC5DF023D00001C7510101D61916
:1056E800D8A40BD00101C751D8B407D001014A5141
:1056F8000101D8A414D001D012D002015F51D8B44E
:105708000ED0B8EC7CF00009D8B409D001014A5198
:105718000101D8B404D0000E02015F6F00D002016D
:10572800304B312B4ED0060E53EC7AF00009D8B42A
:105738001CD0000E01010D6F320E0C6F85EC69F064
:10574800540E01010C250101426F240E01010D21A7
:105758000101436F42C12FF143C130F1000E010135
:10576800316F060E81EC70F000D0060E48EC78F030
:105778000009D8B40DD0000E01010E6F0101F351DC
:1057880067EC7AF0000E0201E36F010EE26F00D0C1
:105798000201E3510BE1330E0201E25DD8B006D0FD
:1057A800E5EC7AF00201E24BE32B00D0330E020164
:1057B800E2190201E311D8A404D00201E24BE32B61
:1057C80000D00101D6510101D8A404D0C80E0101AE
:1057D800D66F03D00101D60700D0050E48EC78F04B
:1057E8000009D8A465EC75F0090E53EC7AF00009AD
:1057F800D8B44CD0C0EC7CF00101366F01013651B1
:105808003E0DF3CF44F1F4CF45F144C108F145C151
:1058180009F1E9EC79F008C111F109C112F10AC1E5
:1058280013F1000E0101146F7A0E0101156F440E79
:105838000101166FC0EC58F011C13DF112C13EF1E3
:1058480013C13FF1000E01010B6F280E01010C6F0F
:10585800430E01010D6F3DC108F13EC109F13FC181
:105868000AF142EC53F008C120F109C121F10AC143
:1058780022F117EC58F020C12FF121C130F1010EAF
:105888000101316F090E81EC70F000D0090E48EC6F
:1058980078F00009D8B417D0070EDDEC4EF0000EF2
:1058A8000101C76F000E0101D76F010E0201E76FFA
:1058B800000E0101016F040E006F050E0101026F59
:1058C80005EC5DF000D00F0E48EC78F00009D8B474
:1058D80004D0010E0201E76F00D00E0E48EC78F0FC
:1058E8001200000E0101176FB00E0101256F040EA2
:1058F8000101266F25C1D9FF26C1DAFF010EDF6E2F
:10590800000E0101186F060E0101186F010E01014A
:10591800226F010E0101226501D096D00001BC5111
:10592800060DBD0EF3240101066F0B0EF4200101D4
:10593800076FD90E0101086F010E0101096F040EEE
:1059480001010A6FF6EC75F00009D8A449D00001EE
:10595800BC51060D050EF326000EF422BD0EF324ED
:10596800D96E0B0EF420DA6EDE28D8B439D00001D7
:10597800BC51060DBD0EF3240101006F0B0EF4207F
:105988000101016F000E0101026F25C103F126C15B
:1059980004F1010E0101056F040E0101066F1AECF6
:1059A8006FF0010120EE05F02551D9262651DA22A3
:1059B800040E0101086F0001BC51060D050EF32607
:1059C800000EF422BD0EF324E16E0B0EF420E26EFD
:1059D800E750C7EC4BF0DF6E010E0101176F03D0E3
:1059E8000101220700D03E0E0001BC6103D0000176
:1059F800BC2B27D0000E0001BC6F0101175101011B
:105A0800D8A422D0D90E0101006F010E0101016F47
:105A1800000E0101026F25C103F126C104F1010E38
:105A28000101056F040E0101066F1AEC6FF0010108
:105A380020EE05F02551D9262651DA22FF0EDF6E19
:105A480003D00101222B65D7000E01011C6F000E47
:105A58000101246F000E0101196FBBC016F11AD2A3
:105A68000001CE51D8B4FCD001012451010D8B0E98
:105A7800F324D96E030EF420DA6EDF500101236F90
:105A88001E0E01010C6F010E01010D6F0101235162
:105A9800A0EC6BF0010E010124250101006F01014A
:105AA800016B000E0123000E0101036F050E026F4A
:105AB800A6EC78F0010E01010027000E0101012378
:105AC8000101005101012525D96E01010151010192
:105AD8002621DA6E1EC1DFFF010E01012425010116
:105AE800006F0101016B000E0123000E0101036F1D
:105AF800050E026FA6EC78F0020E01010027000ED9
:105B0800010101230101005101012525D96E01017F
:105B1800015101012621DA6E1FC1DFFF010E0101CB
:105B280024250101006F0101016B000E0123000E05
:105B38000101036F050E026FA6EC78F0030E010158
:105B48000027000E01010123010100510101252553
:105B5800D96E0101015101012621DA6E20C1DFFF52
:105B6800010E010124250101006F0101016B000EE6
:105B78000123000E0101036F050E026FA6EC78F0F9
:105B8800040E01010027000E01010123010100514B
:105B980001012525D96E0101015101012621DA6E85
:105BA80021C1DFFF01012351020D010EF326000E72
:105BB800F422C90EF324D96E090EF420DA6EDF3808
:105BC800E832070B0101146F050E0101156F010181
:105BD800D89014370101152FFAD70101145101018A
:105BE8001A6F01012351020D010EF326000EF42253
:105BF800C90EF324D96E090EF420DA6EDF501F0B9C
:105C080001011A27010E010124250101006F01017C
:105C1800016B000E0123000E0101036F050E026FD8
:105C2800A6EC78F0050E01010027000E0101012302
:105C38000101005101012525D96E01010151010120
:105C48002621DA6E1AC1DFFF050E01011C270101AA
:105C5800242B0001CE51D8B41DD10001CE071AD192
:105C6800D90E0101046F010E0101056F0001BB513E
:105C7800E1EC61F00009D8A4F8D00001BB51020D95
:105C8800C90EF324D96E090EF420DA6EDF503F0BEB
:105C98003F0AD8B4EAD01E0E01010C6F010E0101B3
:105CA8000D6F0001BB51A0EC6BF0010E0101242522
:105CB8000101006F0101016B000E0123000E0101BB
:105CC800036F050E026FA6EC78F0010E01010027A4
:105CD800000E010101230101005101012525D96EA2
:105CE8000101015101012621DA6E1EC1DFFF010EFB
:105CF800010124250101006F0101016B000E012340
:105D0800000E0101036F050E026FA6EC78F0020E7B
:105D180001010027000E01010123010100510101C9
:105D28002525D96E0101015101012621DA6E1FC115
:105D3800DFFF010E010124250101006F0101016B44
:105D4800000E0123000E0101036F050E026FA6EC81
:105D580078F0030E01010027000E01010123010163
:105D6800005101012525D96E0101015101012621AA
:105D7800DA6E20C1DFFF010E010124250101006F49
:105D88000101016B000E0123000E0101036F050ED6
:105D9800026FA6EC78F0040E01010027000E010145
:105DA80001230101005101012525D96E010101518D
:105DB80001012621DA6E21C1DFFF0001BB51020D6E
:105DC800010EF326000EF422C90EF324D96E090E33
:105DD800F420DA6EDF38E832070B0101146F050E84
:105DE8000101156F0101D89014370101152FFAD759
:105DF8000101145101011B6F0001BB51020D010E7D
:105E0800F326000EF422C90EF324D96E090EF420ED
:105E1800DA6EDF501F0B01011B27010E010124253B
:105E28000101006F0101016B000E0123000E010149
:105E3800036F050E026FA6EC78F0050E010100272E
:105E4800000E010101230101005101012525D96E30
:105E58000101015101012621DA6E1BC1DFFF050E88
:105E680001011C270101242B00D0F90E0001BB61A0
:105E780003D00001BB2B04D0000E0001BB6F00D083
:105E88000001BB5101011619D8A404D0010E01016B
:105E9800196F00D0080E0101246107D001011951C2
:105EA8000101D8A402D0DCD500D0010118510101AC
:105EB8001C2501011D6F01011D51010DF350010148
:105EC8002525D96EF45001012621DA6ECAC0DFFFFC
:105ED80001011D2B01011D51120012000101375152
:105EE8000101D8B4F2D2C90E01013961EED235C12F
:105EF800D9FF36C1DAFFDE28D8A456D00101D75120
:105F0800D8A452D00101C751D8B422D0050E53EC01
:105F18007AF00009D8B48DD2060E01010D6F0E0E6D
:105F28000C6F85EC69F01C0E01010C250101446F12
:105F38000C0E01010D210101456F44C12FF145C12E
:105F480030F1000E0101316F050E81EC70F071D255
:105F58000E0E53EC7AF00009D8B46BD2050E53EC50
:105F68007AF00009D8B41CD0060E01010D6F0E0E90
:105F78000C6F85EC69F01C0E01010C250101466FC0
:105F88000C0E01010D210101476F46C12FF147C1D8
:105F980030F1000E0101316F050E81EC70F000D078
:105FA800010E0101C76F45D2020E0101376541D2CA
:105FB800010120EE01F03551D9263651DA22DF50A1
:105FC80001013A6F01013A510101596F5A6B010100
:105FD800595101015A6F596B010120EE02F03551F8
:105FE800D9263651DA22DF5001013A6F01013A51C0
:105FF80001015927000E5A2359C13CF15AC13DF1FC
:10600800040E01010C6F010E4BEC5FF00CC155F151
:106018000DC156F1B9C117F1BAC118F155C119F13D
:1060280056C11AF1FF0E01011B6F070E1C6F000EFF
:106038001D6F000E1E6F32EC65F017C148F118C1D4
:1060480049F1A3C000F1A4C001F155C102F156C144
:1060580003F1000E0101046F000E056F010E066FBB
:10606800000E076F7AEC73F000C157F101C158F1C7
:1060780057C14FF158C150F157C100F158C101F152
:10608800000E0101036F3D0E026F000E0101046F47
:10609800000E056F010E066F000E076F7AEC73F0A5
:1060A80000C155F101C156F1010138510101D8B4BF
:1060B80015D055C100F156C101F1000E0101036F61
:1060C800050E026F000E0101046F000E056F010E30
:1060D800066F000E076F7AEC73F014D055C100F10B
:1060E80056C101F1000E0101036F000E026F000E90
:1060F8000101046F000E056F010E066F000E076F99
:106108007AEC73F000C157F101C158F159C117F188
:106118005AC118F148C119F149C11AF1000E01011B
:106128001B6F000E1C6F010E1D6F000E1E6F32ECF0
:1061380065F017C155F118C156F155C159F156C14D
:106148005AF157C13AF158C13BF101013A1F3B1FBF
:106158003A4B3B2B0101595101013A250101536F7B
:1061680001015A5101013B210101546F53C13AF118
:1061780054C13BF101013A1F3B1F3A4B3B2BFF0E29
:1061880001013A250101516FFF0E01013B21010177
:10619800526F35C1D9FF36C1DAFF01013951DE1816
:1061A800D8A414D0080E0101545DD8A005D0800EE3
:1061B8000101545DD8A00AD0080E0101525DD8A093
:1061C80075D0800E0101525DD8B070D00201E75140
:1061D800D8A404D00101C751D8A4D4D057C117F10D
:1061E80058C118F159C119F15AC11AF1000E01012B
:1061F8001B6F000E1C6F010E1D6F000E1E6F32EC20
:1062080065F017C120F218C121F257C10DF158C12C
:106218000EF1070E0101106F0F6993EC74F00DC1B8
:106228003AF10EC13BF159C10DF15AC10EF1070EF9
:106238000101106F0F6993EC74F001010D1F01014A
:106248000E1F01010D4B0E2B01010D5101013A25C5
:106258000201226F01010E5101013B210201236F4E
:1062680039C117F10101186B35C1D9FF36C1DAFF01
:10627800DF5001013A6F01013A510101196F1A6BA0
:10628800C90E01011B6F000E1C6F000E1D6F000E62
:106298001E6F32EC65F0010117510101C86F010E44
:1062A8000101D76F000E0101C76F6CD00101595170
:1062B8000101575D01015A5101015859D8B047D021
:1062C800800E0101545DD8B042D001015751000839
:1062D8000101592501014E6F01014E510001A3270B
:1062E800000EA42357C13AF158C13BF101013A1FEE
:1062F8003B1F3A4B3B2B0101595101013A25020141
:10630800286F01015A5101013B210201296F020145
:10631800285102012A5D0201295102012B59D8B0E6
:1063280016D057C13AF158C13BF101013A1F3B1F42
:106338003A4B3B2B0101595101013A2502012A6FC1
:1063480001015A5101013B2102012B6F00D00101CB
:10635800C751D8B404D00101D751D8A404D0010E34
:106368000101C76F00D001014F510201405D0101D9
:10637800505102014159D8B005D04FC140F250C127
:1063880041F200D0C0EC7CF001013A6F01013A51B2
:106398003E0DF3CF4AF1F4CF4BF14AC108F14BC19E
:1063A80009F1E9EC79F008C111F109C112F10AC14A
:1063B80013F1000E0101146F7A0E0101156F440EDE
:1063C8000101166FC0EC58F011C13EF112C13FF146
:1063D80013C140F1000E01010B6F280E01010C6F73
:1063E800430E01010D6F3EC108F13FC109F140C1E3
:1063F8000AF142EC53F008C120F109C121F10AC1A8
:1064080022F117EC58F020C12FF121C130F1010E13
:106418000101316F090E81EC70F0000E0201316F3D
:10642800000E306F030E0101376503D0010E120014
:1064380000D0C0EC7CF001013A6F01013A513E0DE9
:10644800F3CF4CF1F4CF4DF14CC108F14DC109F136
:10645800E9EC79F008C111F109C112F10AC113F18F
:10646800000E0101146F7A0E0101156F440E01012F
:10647800166FC0EC58F011C141F112C142F113C1BD
:1064880043F1000E01010B6F280E01010C6F430E42
:1064980001010D6F41C108F142C109F143C10AF17F
:1064A80042EC53F008C120F109C121F10AC122F1DF
:1064B80017EC58F020C12FF121C130F1010E010174
:1064C800316F090E81EC70F000D0000E120012003E
:1064D800000E01015F6F000E0001C96F000E01017F
:1064E800006F000E04EC78F0000E0201646F000EDD
:1064F800456E200E49EC5BF0000E0001CD6F000EDA
:106508000101BE6F0001D751D4EC7BF0020E89EC7B
:1065180078F0600E49EC5BF0000E01010E6F000E82
:1065280067EC7AF0190E0101306F640E2F6F000EC0
:106538000101316F110E81EC70F0000E0101306F16
:10654800780E2F6F010E0101316F120E81EC70F081
:10655800010E0001C06F04000101BF51D8B409D079
:10656800000E0101BF6F3E0E12EC3AF00201552BEE
:1065780000D00101C151D8B409D0000E0101C16F8A
:10658800200E49EC5BF0600E49EC5BF00101C25152
:10659800D8B407D0600E49EC5BF0000E0101C26F61
:1065A80000D00101C051D8A404D00101BE51D8B413
:1065B800AAD1000E0101676F000E01016A6F000E7B
:1065C800696F000E0201556F0101C051D8B455D052
:1065D800000E0101C06FECEC7BF00101E46FECEC04
:1065E8007BF0000E0101656F1DD001016551010DA1
:1065F800670EF324D96E040EF420DA6EECEC7BF00F
:10660800DF6E01016551010D670EF324D96E040E8A
:10661800F420DA6EDF50010167190101676F01018B
:10662800652B00D0FF0E0101546FFF0E0101556F5D
:106638000101E4510101566F576B010154510101E9
:1066480056270101555101015723010165510101E7
:10665800586F596B010156510101585D010159519B
:10666800800A01015A6F01015751800A01015A59E4
:10667800D8A0BBD7000E0001CD6F0101BE51D8B420
:106688001DD0000E0101666F3A0E0101666501D04A
:1066980011D001016651010D670EF324D96E040E65
:1066A800F420DA6EDF50010167190101676F0101FB
:1066B800662BEAD7000E0101BE6F00D068C469F1ED
:1066C80001016A6B0101695101016A6F696B04017B
:1066D800675101016927000E6A230101D5510101A3
:1066E800D8B41CD0D00E0101546FCA0EE82EFED7C4
:1066F800542FFCD7D00E0101546FCA0EE82EFED7D6
:10670800542FFCD7090E01016A5DD8B0DAD069C1EF
:1067180014F16AC115F126EC74F0D3D0010E010111
:106728005F6F010167510101D8A4CBD001D0C9D056
:106738000101B7510101691905E10101B8510101D0
:106748006A19D8A4BED00101B7510101B811D8A463
:106758002BD0000E0101616F000E626F000E636F97
:10676800000E646F010164511FE1100E0101625DAA
:10677800020E01016359D8B017D001D015D061C1FC
:1067880005F162C106F163C107F164C108F1D3ECF8
:1067980079F0000E01016127100E6223000E6323B9
:1067A800000E6423DFD700D0000E0101686F370E9A
:1067B8000101686501D044D0B7C100F1B8C101F149
:1067C800000E0101036F380E026FA6EC78F001018C
:1067D80000510101682501015B6F010101510101AF
:1067E8005C6F000E01015C2301015D6B01015D23FB
:1067F80001015E6B5BC105F15CC106F15DC107F18A
:106808005EC108F101016851010D020EF326000E68
:10681800F422670EF3240101096F040EF42001012C
:106828000A6F040E01010B6F000E0C6F000E0D6F46
:10683800000E0E6F64EC6FF0040E01016827B7D7E5
:106848000101B74BB82B34500101B7193AE1355063
:106858000101B819D8A435D0000E0101056F000E4A
:10686800066F020E076F000E086FA30E0101096F75
:10687800020E01010A6F010E01010B6F000E0C6F71
:10688800000E0D6F000E0E6F64EC6FF0010E01012B
:10689800056F000E066F020E076F000E086FC60E1A
:1068A8000101096F030E01010A6F0B0E01010B6F45
:1068B800000E0C6F000E0D6F000E0E6F64EC6FF083
:1068C80000D0030E0101306FE80E2F6F000E01019A
:1068D800316F110E81EC70F00101D5510101D8B46E
:1068E80012D00101695101016A11D8A40CD0270EF8
:1068F8000101306F100E2F6F000E0101316F110E64
:1069080081EC70F000D00101D5510101D8A422D04A
:10691800020E0201556506D0010E01015F6F000EDF
:106928000201556F01015F510101D8B413D03450F1
:106938000101B75D35500101B859D8B007D0B7C1CA
:106948000BF1B8C10CF17AEC7AF000D0000E01011D
:106958005F6F00D0000E0101016F010E006FE50EA0
:106968000101026F010E0101036F14EC56F00009DA
:10697800D8B438D0000E01010C6F050E01010D6F5F
:10698800E30E01010E6F010E01010F6F0101E551C8
:1069980002EC43F00009D8B425D005010151C00B21
:1069A8000101606F01016045E846030B0101606F5A
:1069B800030E01016019D8A415D0020E0101066F5B
:1069C800050E0101076F670E0101086F040E010132
:1069D800096F3B0E01010A6F9DEC76F0010E010173
:1069E800BE6F00D0020E48EC78F00009D8B405D08C
:1069F800937693B602D08A9600D0110E48EC78F0C0
:106A08000009D8A402D017D000D0ACA2FED7720ECD
:106A1800A0EC7BF000D0ACA2FED7730EA0EC7BF00C
:106A280000D0ACA2FED7740EA0EC7BF000D0ACA2D4
:106A3800FED7FF0000D0020E53EC7AF00009D8B45C
:106A48000BD0000E0101306FFA0E2F6F000E0101FE
:106A5800316F020E81EC70F0110E53EC7AF00009E0
:106A6800D8B40BD0030E0101306FE80E2F6F000E63
:106A78000101316F110E81EC70F0120E48EC78F0C4
:106A88000009D8B468D5FF0066D51200140E0101BC
:106A9800266F010E0101276F4CD2250E01012D1919
:106AA800D8B405D001012D5129EC7BF042D2000E5B
:106AB80001012C6F000E2B6F000E01012A6F07D009
:106AC80001012A850101124B132B01D00BD012C1F1
:106AD800F6FF13C1F7FF0800F550300AD8B4F0D715
:106AE80001D0F5D712C1F6FF13C1F7FF0800F55022
:106AF80077EC79F0D8A0A5D0000E01012C6F000E1C
:106B08002B6F00D02BC100F12CC101F1000E010147
:106B1800036F0A0E026FA6EC78F000C12BF101C1D9
:106B28002CF1D00E01011C6FFF0E01011D6F12C167
:106B3800F6FF13C1F7FF0800F55001011E6F1F6B28
:106B480001011C5101011E2701011D5101011F23D3
:106B580001011E5101012B2701011F5101012C23A5
:106B68000101124B132B12C1F6FF13C1F7FF0800E6
:106B7800F55077EC79F0D8A064D0C4D762D0120071
:106B88007FD000D001012A8F7BD001012B51010158
:106B9800235D01012C5101012459D8B009D001010C
:106BA800235101012B5F0101245101012C5B0AD003
:106BB800000E01012C6F000E2B6F04D0200E29EC63
:106BC8007BF000D001012B07D8A02C0701012B294D
:106BD800F5E101012C29D8B40DD0F0D70BD021C193
:106BE800D9FF22C1DAFFDF5029EC7BF00101214BEC
:106BF800222B00D001012307D8A024070101232953
:106C0800EEE101012429D8B494D1E9D792D126C163
:106C1800D9FF27C1DAFFDF5001012D6F020E0101F4
:106C28002627000E272300D02D0E0101216F010E0B
:106C38000101226F000E0101246F010E236FA5D7F9
:106C48001FD012C1F6FF13C1F7FF0101124B132B1E
:106C58000800F5CF2DF101012D51000AD8B412001A
:106C6800580AD8B48FD73B0AD8B4D1D7070AD8B4B2
:106C780007D00D0AD8B404D0110AD8B483D7D4D712
:106C880001012ABF19D026C1D9FF27C1DAFFDECFFB
:106C980028F1DDCF29F1020E01012627000E272356
:106CA800010129AF5DD0030E01012A130101286DEE
:106CB800291FD8B0292B54D026C1D9FF27C1DAFF04
:106CC800DECF28F1DDCF29F1020E01012627000EC3
:106CD800272346D0010E01012D6F050E01012D1944
:106CE800D8B448D001D046D001012D51020DC30EB1
:106CF800F324F66EFE0EF420F76E0900F55001013C
:106D0800285D0900F55001012959D8A033D001D0D8
:106D180031D001012D2BE1D72DD0010E01012D6FAE
:106D2800040E01012D19D8B425D001D023D00101BA
:106D38002D51020DCD0EF324F66EFE0EF420F76EE3
:106D48000900F5500101285D0900F5500101295994
:106D5800D8A010D001D00ED001012D2BE1D70AD038
:106D680001012A51800B000AD8B4B4D7800AD8B4DC
:106D7800D4D700D001012B5101012C11D8B40CD06B
:106D88002AC11CF1030E01011C17D8B405D001015A
:106D98002B07D8A02C0700D0800E01012DBF7F0E35
:106DA80001011C6F01012B5101012D5D01012C51C5
:106DB800800A01011C59D8B00BD001012D510101E5
:106DC8002B5F000E01012DBFFF0E01012C5B06D0C9
:106DD800000E01012C6F000E2B6F00D001012AA5B7
:106DE80020D02AC11CF1030E01011C17D8B404D00D
:106DF8002D0E29EC7BF000D001012B5101012C1143
:106E0800D8B42FD0300E29EC7BF001012B07D8A085
:106E18002C0701012B5101012C11D8B422D0F2D733
:106E280020D001012B5101012C11D8B40FD0200E14
:106E380029EC7BF001012B07D8A02C0701012B516D
:106E480001012C11D8B402D0F2D700D02AC11CF10C
:106E5800030E01011C17D8B404D02D0E29EC7BF0C9
:106E680000D02DC125F15DD04DD001012551020D75
:106E7800C30EF324F66EFE0EF420F76E0900F5CF6C
:106E880008F10A00F5CF09F128C106F129C107F177
:106E98000DEC71F006C10DF107C10EF1000E0101F4
:106EA800106F0A0E0F6F93EC74F001010D51300F43
:106EB80001012D6F31D028C106F129C107F1010167
:106EC8002551020DCD0EF324F66EFE0EF420F76E5A
:106ED8000900F5CF08F10A00F5CF09F10DEC71F0C2
:106EE800010106510F0B0101206F01012051010D15
:106EF800780EF324F66EFF0EF420F76E0800F5CF37
:106F08002DF10AD001012A51800B000AD8B4ADD75F
:106F1800800AD8B4D0D700D001012D5129EC7BF0DC
:106F280000D00101250701012529D8B402D0EAD7EC
:106F380000D012C1F6FF13C1F7FF0101124B132B4A
:106F48000800F5CF2DF101012D51D8B41200A5D5B7
:106F5800120012006E0E0001786F000E0001796FAA
:106F68004CD2250E00017F19D8B405D000017F51FD
:106F780049EC7BF042D2000E00017E6F000E7D6F5F
:106F8800000E00017C6F07D000017C8500016C4B6E
:106F98006D2B01D00BD06CC0F6FF6DC0F7FF080059
:106FA800F550300AD8B4F0D701D0F5D76CC0F6FF49
:106FB8006DC0F7FF0800F550A5EC79F0D8A0A5D072
:106FC800000E00017E6F000E7D6F00D07DC060F066
:106FD8007EC061F0000E0001636F0A0E626FC2ECA2
:106FE80078F060C07DF061C07EF0D00E00016E6F59
:106FF800FF0E00016F6F6CC0F6FF6DC0F7FF080051
:10700800F5500001706F716B00016E51000170271F
:1070180000016F51000171230001705100017D27AB
:107028000001715100017E2300016C4B6D2B6CC077
:10703800F6FF6DC0F7FF0800F550A5EC79F0D8A071
:1070480064D0C4D762D012007FD000D000017C8FFA
:107058007BD000017D510001755D00017E5100016A
:107068007659D8B009D00001755100017D5F000143
:10707800765100017E5B0AD0000E00017E6F000E83
:107088007D6F04D0200E49EC7BF000D000017D0715
:10709800D8A07E0700017D29F5E100017E29D8B43A
:1070A8000DD0F0D70BD073C0D9FF74C0DAFFDF5012
:1070B80049EC7BF00001734B742B00D0000175077D
:1070C800D8A0760700017529EEE100017629D8B429
:1070D80094D1E9D792D178C0D9FF79C0DAFFDF50CF
:1070E80000017F6F020E00017827000E792300D07F
:1070F8007F0E0001736F000E0001746F000E000117
:10710800766F010E756FA5D71FD06CC0F6FF6DC0E6
:10711800F7FF00016C4B6D2B0800F5CF7FF00001E5
:107128007F51000AD8B41200580AD8B48FD73B0A46
:10713800D8B4D1D7070AD8B407D00D0AD8B404D028
:10714800110AD8B483D7D4D700017CBF19D078C02E
:10715800D9FF79C0DAFFDECF7AF0DDCF7BF0020EFF
:1071680000017827000E792300017BAF5DD0030E64
:1071780000017C1300017A6D7B1FD8B07B2B54D0A3
:1071880078C0D9FF79C0DAFFDECF7AF0DDCF7BF0A7
:10719800020E00017827000E792346D0010E000167
:1071A8007F6F050E00017F19D8B448D001D046D0B2
:1071B80000017F51020DC30EF324F66EFE0EF4207B
:1071C800F76E0900F55000017A5D0900F5500001DD
:1071D8007B59D8A033D001D031D000017F2BE1D723
:1071E8002DD0010E00017F6F040E00017F19D8B465
:1071F80025D001D023D000017F51020DCD0EF324FC
:10720800F66EFE0EF420F76E0900F55000017A5D67
:107218000900F55000017B59D8A010D001D00ED03C
:1072280000017F2BE1D70AD000017C51800B000AB6
:10723800D8B4B4D7800AD8B4D4D700D000017D51CF
:1072480000017E11D8B40CD07CC06EF0030E000192
:107258006E17D8B405D000017D07D8A07E0700D0EE
:10726800800E00017FBF7F0E00016E6F00017D510F
:1072780000017F5D00017E51800A00016E59D8B07F
:107288000BD000017F5100017D5F000E00017FBF20
:10729800FF0E00017E5B06D0000E00017E6F000E1F
:1072A8007D6F00D000017CA520D07CC06EF0030E5D
:1072B80000016E17D8B404D02D0E49EC7BF000D035
:1072C80000017D5100017E11D8B42FD0300E49EC59
:1072D8007BF000017D07D8A07E0700017D510001E9
:1072E8007E11D8B422D0F2D720D000017D51000100
:1072F8007E11D8B40FD0200E49EC7BF000017D0739
:10730800D8A07E0700017D5100017E11D8B402D0BB
:10731800F2D700D07CC06EF0030E00016E17D8B40F
:1073280004D02D0E49EC7BF000D07FC077F05DD003
:107338004DD000017751020DC30EF324F66EFE0EF8
:10734800F420F76E0900F5CF62F00A00F5CF63F07C
:107358007AC060F07BC061F04EEC71F060C067F0FD
:1073680061C068F0000E00016A6F0A0E696FC9EC0F
:1073780074F000016751300F00017F6F31D07AC07F
:1073880060F07BC061F000017751020DCD0EF3244F
:10739800F66EFE0EF420F76E0900F5CF62F00A00D3
:1073A800F5CF63F04EEC71F0000160510F0B000156
:1073B800726F00017251010D780EF324F66EFF0E04
:1073C800F420F76E0800F5CF7FF00AD000017C5159
:1073D800800B000AD8B4ADD7800AD8B4D0D700D073
:1073E80000017F5149EC7BF000D0000177070001D4
:1073F8007729D8B402D0EAD700D06CC0F6FF6DC0A8
:10740800F7FF00016C4B6D2B0800F5CF7FF00001F2
:107418007F51D8B41200A5D5120012000101046FE3
:107428000101045102012E2502012E6F000E0201F6
:107438002F2102012F6F000E0101056F180E0101A7
:10744800056501D072D001010551010D5A0EF324D2
:10745800D96E030EF420DA6EDF50D8A463D0010190
:107468000551020D000EF324D96E030EF420DA6ED6
:10747800010104510101026F036B010E0101022792
:10748800000E0323DE500101025DDE5001010359A5
:10749800D8B02DD001010551020D000EF324D96E8C
:1074A800030EF420DA6EDECF00F1DDCF01F1010129
:1074B80004510101026F036B0101021F031F024BFC
:1074C800032B0101005101010227010101510101B2
:1074D800032301010551020D000EF324D96E030E9A
:1074E800F420DA6E02C1DEFF03C1DDFF1BD001010B
:1074F8000551020D000EF324D96E030EF420DA6E46
:10750800DE50DE10D8B40ED001010551020D000E78
:10751800F324D96E030EF420DA6E010EDE6E000E2F
:10752800DD6E00D00101052B89D7E80E02012E5D22
:10753800030E02012F59D8A01200180E02012E25A1
:1075480002012E6FFC0E02012F2102012F6F4A2A21
:10755800000E0101066F180E0101066501D063D007
:1075680001010651010D5A0EF324D96E030EF420C1
:10757800DA6EDE04D8A454D001010651020D000EC3
:10758800F324D96E030EF420DA6E010EDB5004E109
:10759800020EDE5CD8A029D0FF0E0101006FFF0E9D
:1075A8000101016F01010651020D000EF324D96E8D
:1075B800030EF420DA6EDECF02F1DDCF03F1010114
:1075C80000510101022701010151010103230101B9
:1075D8000651020D000EF324D96E030EF420DA6E64
:1075E80002C1DEFF03C1DDFF1BD001010651020D00
:1075F800000EF324D96E030EF420DA6EDE50DE108E
:10760800D8B40ED001010651020D000EF324D96E34
:10761800030EF420DA6E010EDE6E000EDD6E00D071
:107628000101062B98D73B0E4A6412004A50C40F3A
:107638004A6E442A000E0101076F180E0101076502
:1076480001D064D001010751010D5A0EF324D96EFF
:10765800030EF420DA6E020EDE18D8A454D001010D
:107668000751020D000EF324D96E030EF420DA6ED2
:10767800010EDB5004E1020EDE5CD8A029D0FF0E1B
:107688000101006FFF0E0101016F01010751020D99
:10769800000EF324D96E030EF420DA6EDECF02F169
:1076A800DDCF03F101010051010102270101015160
:1076B8000101032301010751020D000EF324D96EC5
:1076C800030EF420DA6E02C1DEFF03C1DDFF1BD01A
:1076D80001010751020D000EF324D96E030EF420A8
:1076E800DA6EDE50DE10D8B40ED001010751020D5B
:1076F800000EF324D96E030EF420DA6E010EDE6E4E
:10770800000EDD6E00D00101072B97D73B0E4464B5
:1077180012004450C40F446E000E0101086F180E89
:107728000101086502D01200120001010851010D83
:107738005A0EF324D96E030EF420DA6E030EDE1807
:10774800D8A454D001010851020D000EF324D96EBB
:10775800030EF420DA6E010EDB5004E1020EDE5C4B
:10776800D8A029D0FF0E0101006FFF0E0101016FA3
:1077780001010851020D000EF324D96E030EF42006
:10778800DA6EDECF02F1DDCF03F101010051010114
:107798000227010101510101032301010851020DD2
:1077A800000EF324D96E030EF420DA6E02C1DEFF58
:1077B80003C1DDFF1BD001010851020D000EF324A7
:1077C800D96E030EF420DA6EDE50DE10D8B40ED077
:1077D80001010851020D000EF324D96E030EF420A6
:1077E800DA6E010EDE6E000EDD6E00D00101082B90
:1077F800180E0101086599D71200120012001E0E1A
:1078080001018819D8A441D001018905D8A49DD1C6
:10781800020E010183250101186F000E0101842168
:107828000101196F000E01011A6F53EC46F0000EAA
:1078380053EC7AF00009D8B40CD0130E0101306F64
:10784800880E2F6F000E0101316F000E81EC70F071
:1078580000D00E0E01018A6578D1040E53EC7AF03F
:107868000009D8A472D1040E48EC78F00009D8A415
:107878006CD1000E0101306F010E2F6F000E010157
:10788800316F040E81EC70F060D11F0E0101881970
:10789800D8A454D1410E01018919D8A44BD00101B3
:1078A80020EE02F08351D9268451DA22540EDE18D4
:1078B800D8A44BD1010120EE03F08351D92684517D
:1078C800DA22410EDE18D8A440D1010120EE04F0DE
:1078D8008351D9268451DA22520EDE18D8A435D124
:1078E800010120EE05F08351D9268451DA22DF50B8
:1078F800D8B40CD0000E0101F86F000EF96F000E1D
:10790800FA6F000EFB6F65EC68F000D0010120EE05
:1079180006F08351D9268451DA22DF500101D86F4D
:1079280086C118F187C119F1410E01011A6FE1EC06
:107938006DF00BD1420E01018919D8A4ABD0010119
:1079480020EE02F08351D9268451DA22430EDE1844
:10795800D8A4FBD0010120EE03F08351D92684512D
:10796800DA22410EDE18D8A4F0D0010120EE04F08E
:107978008351D9268451DA224C0EDE18D8A4E5D0DA
:10798800010120EE07F08351D9268451DA22DF5015
:1079980001018B6F01018B5101018F6F906B916B0E
:1079A800926B8FC18BF190C18CF191C18DF192C115
:1079B8008EF18CC18EF18BC18DF101018C6B8B6BBB
:1079C8008BC18FF18CC190F18DC191F18EC192F173
:1079D8008FC1EAF190C1EBF191C1ECF192C1EDF1E7
:1079E800010120EE06F08351D9268451DA22DF50B6
:1079F80001018B6F01018B5101018F6F906B916BAE
:107A0800926B8FC18CF190C18DF191C18EF1010102
:107A18008B6B8BC18FF18CC190F18DC191F18EC1AF
:107A280092F101018F510101EA27010190510101F1
:107A3800EB23010191510101EC2301019251010154
:107A4800ED23010120EE05F08351D9268451DA2275
:107A5800DF5001018B6F01018B510101EA27000EF4
:107A6800EB23EC23ED230101EA510101EB110101A4
:107A7800EC110101ED11D8B403D0010E416E00D014
:107A880086C118F187C119F1420E01011A6FE1ECA4
:107A98006DF05BD0430E01018919D8A456D00101BD
:107AA80020EE02F08351D9268451DA22540EDE18D2
:107AB800D8A44BD0010120EE03F08351D92684517C
:107AC800DA22480EDE18D8A440D0010120EE04F0D6
:107AD8008351D9268451DA22520EDE18D8A435D023
:107AE800010120EE06F08351D9268451DA22DF50B5
:107AF80001018B6F01018B510101EE6FEF6B0101E9
:107B0800EE510101EF6FEE6B010120EE05F083519C
:107B1800D9268451DA22DF5001018B6F01018B5184
:107B28000101EE27000EEF2386C118F187C119F174
:107B3800430E01011A6FE1EC6DF007D001018805D1
:107B4800D8A403D0010E120000D0000E12001200BB
:107B5800010120EE01F03851D9263951DA2238C115
:107B6800E1FF39C1E2FFDE50E618D8A41200010196
:107B780020EE02F03851D9263951DA22010110EEEF
:107B880001F03851E1263951E222DE50E618D8A436
:107B98001200010120EE02F03851D9263951DA22BB
:107BA800DE28D8B4120038C1D9FF39C1DAFFDF5056
:107BB80001013C6F01013CA14CD0010120EE04F011
:107BC8003851D9263951DA22010110EE03F0385123
:107BD800E1263951E222DE50E618D8A43AD0010154
:107BE80020EE05F03851D9263951DA22010110EE7C
:107BF80004F03851E1263951E222DE50E618D8A4C3
:107C080028D0010120EE05F03851D9263951DA2261
:107C1800DE28D8B41ED0C4EC7CF0030E0101016F3D
:107C2800FD0E006F010120EE03F03851D9263951BD
:107C3800DA22DF500101026F32EC77F0010120EE09
:107C480003F03851D9263951DA22DF50F6EC7AF0B0
:107C580000D001013CA342D0010120EE07F03851C9
:107C6800D9263951DA22010110EE06F03851E12601
:107C78003951E222DE50E618D8A430D0010120EEB6
:107C880008F03851D9263951DA22010110EE07F0EF
:107C98003851E1263951E222DE50E618D8A41ED028
:107CA800C4EC7CF0030E0101016FFE0E006F0101B0
:107CB80020EE06F03851D9263951DA22DF50010179
:107CC800026F32EC77F0010120EE06F03851D92628
:107CD8003951DA22DF50C3EC76F000D001013CA51F
:107CE8004CD0010120EE0AF03851D9263951DA2258
:107CF800010110EE09F03851E1263951E222DE5037
:107D0800E618D8A43AD0010120EE0BF03851D92654
:107D18003951DA22010110EE0AF03851E1263951C1
:107D2800E222DE50E618D8A428D0010120EE0BF09C
:107D38003851D9263951DA22DE28D8B41ED0C4ECFD
:107D48007CF0030E0101016FFC0E006F010120EEB3
:107D580009F03851D9263951DA22DF500101026F72
:107D680032EC77F0010120EE09F03851D92639516B
:107D7800DA22DF50D4EC7BF000D001013CA71200DE
:107D8800010120EE0DF03851D9263951DA220101CE
:107D980010EE0CF03851E1263951E222DE50E61897
:107DA800D8A41200010120EE0EF03851D92639511D
:107DB800DA22010110EE0DF03851E1263951E222A4
:107DC800DE50E618D8A41200010120EE0EF038515A
:107DD800D9263951DA22DE28D8B41200C4EC7CF056
:107DE800030E0101016FEF0E006F010120EE0CF090
:107DF8003851D9263951DA22DF500101026F32ECAD
:107E080077F0010120EE0CF03851D9263951DA22E9
:107E1800DF5086EC7CF012001200400E0101286F42
:107E2800000E0101296F3E0E0101296501D0D7D04E
:107E380001012951060DBD0EF3240101066F0B0E39
:107E4800F4200101076F21C108F122C109F1040ED4
:107E580001010A6FF6EC75F00009D8B4A0D0010151
:107E68002951060D040EF326000EF422BD0EF3244C
:107E7800D96E0B0EF420DA6EDF500F0B0F0AD8A460
:107E880040D0010124510101D8B43BD0462A010158
:107E98002951060D040EF326000EF422BD0EF3241C
:107EA800D96E0B0EF420DA6EDF90DF92DF94DF9646
:107EB80023C100F10101295172EC66F0020E0101A3
:107EC8002419D8B41AD0030E0101086F01012351F7
:107ED800C7EC4BF00101266F21C115F122C116F143
:107EE80029C117F1010E0101186F26C119F1000E01
:107EF80001011A6F59EC1EF000D00101295112003E
:107F08006BD001012951060D040EF326000EF42250
:107F1800BD0EF324D96E0B0EF420DA6EDF500F0B72
:107F28000F0AD8B439D001012951060D040EF326E1
:107F3800000EF422BD0EF324D96E0B0EF420DA6E77
:107F4800DF90DF92DF94DF9623C100F10101295110
:107F580072EC66F0020E01012419D8B4CED7030ED4
:107F68000101086F01012351C7EC4BF00101266F95
:107F780021C115F122C116F129C117F1010E010124
:107F8800186F26C119F1000E01011A6F59EC1EF085
:107F9800B4D7B3D7120020D0FF0E12001DD00101B4
:107FA8002951060DBD0EF3240101066F0B0EF420B6
:107FB8000101076FD90E0101086F010E0101096F58
:107FC800040E01010A6FF6EC75F00009D8B404D06C
:107FD80029C128F104D000D00101292B24D73E0E55
:107FE8000101286521D0000E0101276F3E0E010115
:107FF800276501D019D001012751060D040EF3267B
:10800800000EF422BD0EF324D96E0B0EF420DA6EA6
:10801800DF500F0B0F0AD8A403D027C128F104D0D2
:108028000101272BE3D700D03F0E0101286154D06E
:10803800010124510101D8B44FD021C106F122C158
:1080480007F101012851060DBD0EF3240101086F47
:108058000B0EF4200101096F040E01010A6F9DEC5B
:1080680076F001012851060D040EF326000EF422C5
:10807800BD0EF324D96E0B0EF420DA6EDF90DF927A
:10808800DF94DF9623C100F10101285172EC66F0FC
:10809800462A020E01012419D8B41AD0030E010190
:1080A800086F01012351C7EC4BF00101266F21C174
:1080B80015F122C116F128C117F1010E0101186F3F
:1080C80026C119F1000E01011A6F59EC1EF000D0FB
:1080D80001012851120000D0FF0E12001200030EF9
:1080E8000101016F006984EC7BF00101156F01014A
:1080F8001505D8A440D0000E01011A6F000E196FA3
:1081080001011ABF0AD0F00E0101195D030E010129
:108118001A59D8B011D001D00FD0C4EC7CF019C1D5
:1081280000F11AC101F1FF0E0101026F32EC77F084
:108138000101194B1A2BE4D7030E01011A6FF40E33
:10814800196F01011ABF07D0040E01011A5DD8B0DA
:1081580012D001D010D0C4EC7CF019C100F11AC1C2
:1081680001F1FF0E0101026F32EC77F00101194BAA
:108178001A2BE7D700D0010E0101156504D00101C3
:108188001529D8A40CD0C4EC7CF0030E0101016FB2
:108198000069020E0101026F32EC77F000D0000E88
:1081A8000101166F030E0101166501D018D00101F7
:1081B8001651010DF40EF324D96E010EF420DA6E77
:1081C800E80E010116250101006F0101016B030E84
:1081D800012384EC7BF0DF6E0101162BE3D701014C
:1081E800F429D8A419D00101F529D8A415D0010182
:1081F800F629D8A411D00101F729D8A40DD0000E72
:108208000101F46F000E0101F56F000E0101F66F18
:10821800020E0101F76F00D0030E0101016FEF0E8E
:10822800006F84EC7BF00101146F01011429D8A4BC
:1082380004D0080E0101146F00D00101145186EC1E
:108248007CF00201F329D8A451D00201F429D8A462
:108258004DD00201F529D8A449D00201F629D8A4A5
:1082680045D0899E4B0EB0EC7AF0000EB0EC7AF057
:10827800000EB0EC7AF0000EB0EC7AF0000EB0EC24
:108288007AF0000E0101176F2BD02ED0BAEC7BF0DC
:10829800010100510101136F030E010117651ED082
:1082A800FC0E0101076FFF0E0101086F0101175154
:1082B8000101096F0A6B0101075101010927010139
:1082C800085101010A23F30E01010925D96E020E96
:1082D80001010A21DA6E13C1DFFF00D00101172B5B
:1082E800070E01011765D2D7898E00D0000E010153
:1082F800186F070E0101186501D018D00101185137
:10830800010D0B0EF324D96E010EF420DA6EF40E73
:10831800010118250101006F0101016B030E012302
:1083280084EC7BF0DF6E0101182BE3D70B0E010103
:10833800006F010E0101016FCDEC6EF0030E01011B
:10834800016FFD0E006F84EC7BF0FF0AD8B40BD0F0
:1083580001D009D0030E0101016FFD0E006F84ECFE
:108368007BF0F6EC7AF0030E0101016FFE0E006F50
:1083780084EC7BF0FF0AD8A403D00001CA6912007C
:10838800030E0101016FFE0E006F84EC7BF000010B
:10839800CA6F12001200000E0101126F000E116F59
:1083A800010112BF0AD00101125106E13F0E01017D
:1083B800115DD8B082D001D080D0D90E0101066FEE
:1083C800010E0101076F11C100F112C101F1000E88
:1083D8000101036F060E026FA6EC78F0BD0E0101D5
:1083E80000250101086F0B0E010101210101096F30
:1083F800040E01010A6F9DEC76F011C100F112C163
:1084080001F1000E0101036F060E026FA6EC78F071
:10841800040E01010027000E01010123BD0E010118
:108428000025D96E0B0E01010121DA6EDF80DF8293
:10843800DF84DF8611C100F112C101F1000E0101D4
:10844800036F060E026FA6EC78F0040E01010027F8
:10845800000E01010123BD0E01010025D96E0B0E8E
:1084680001010121DA6EDF88DF8ADF8CDF8E11C11E
:1084780000F112C101F1000E0101036F060E026F37
:10848800A6EC78F0050E01010027000E010101237A
:10849800BD0E01010025D96E0B0E01010121DA6E16
:1084A800FF0EDF6E0101114B122B010112BF85D7A0
:1084B8000101125102E17AD700D0000E0201696F62
:1084C800000E0101126F000E116F010112BF0AD0D8
:1084D8000101125166E1FA0E0101115DD8B061D0B7
:1084E80001D05FD011C10FF112C110F1D890010174
:1084F8000F371037010E01010F27000E1023C90E88
:1085080001010F25D96E090E01011021DA6EDF80F5
:10851800DF82DF84DF86DF88D90E0101076F010E55
:108528000101086F01011151F4EC6FF011C10FF155
:1085380012C110F1D89001010F371037010E010157
:108548000F27000E1023C90E01010F25D96E090E41
:1085580001011021DA6EDF8ADF8CDF8ED8900101ED
:108568001135D96E01011235DA6EC90ED926090EF8
:10857800DA22DF80DF82DF84DF86DF88DF8AD89037
:1085880001011135D96E01011235DA6EC90ED926ED
:10859800090EDA223F0EDF160101114B122B95D777
:1085A80000D0D90E0101066F010E0101076FF70E09
:1085B8000101086F020E0101096F040E01010A6F23
:1085C8009DEC76F00201EA69000E0201726F030E5B
:1085D8000201736F000E02019A6F000E02019C6F78
:1085E800020E02019D6F000E02019E6F010E536E76
:1085F800000E0201676F000E496E12000101166F2E
:108608000201E9510201D8B42CD0240E0101161937
:10861800D8A423D00201622B020E02016219D8A449
:108628001AD1000E0201E96F010E0201526F000E0D
:1086380002014F6F000E0201536F000E0201546FCA
:10864800010E0201506F000E0001C26F000E020100
:10865800626F000E0201606FFED0000E0201626FB1
:10866800FAD0020150510201D8B4DFD002015251B0
:108678000201D8B407D016C1CCF0000E0201526F27
:10868800010E06D002014F510201D8B404D0000EE9
:1086980002014F6F5DD00001C2510101106F116BD3
:1086A800FE0E0101126FFF0E0101136F0001CC5184
:1086B8000101146F156B0101125101011427010109
:1086C80013510101152301011051010114190FE182
:1086D8000101115101011519D8A409D00D0E01018C
:1086E8001619D8A435D0010E0201536F31D00001FC
:1086F800C2510101106F116BFF0E0101126FFF0EC5
:108708000101136F0001CC510101146F156B0101B8
:10871800125101011427010113510101152301010F
:108728001051010114190FE101011151010115192D
:10873800D8A409D00A0E01011619D8A409D0010E2F
:108748000201546F05D0010116510201601B00D0CF
:108758000001C251010D800EF324D96E050EF420DC
:10876800DA6E16C1DFFF0001C22B0001C251000101
:10877800CC19D8A43DD0000E0201506F0EC1D9FF0C
:108788000FC1DAFFC2C0DFFF800E0101066F050EC0
:108798000101076F0CC108F10DC109F1C2C00AF14E
:1087A8009DEC76F0010E0201E96F000E0201626F86
:1087B800020160510201D8B405D0000E0201606FB9
:1087C800000E1200020153510201D8B40BD002016D
:1087D80054510201D8B406D0000E0201606F010E98
:1087E800120039D0000E0201606F1CD0120033D085
:1087F8003E0E0001C2652FD0010E0201E96F000E86
:108808000201626F000E0001C26F000E0201526F7A
:10881800000E02014F6F000E0201536F000E02019D
:10882800546FE0D7000E120016D0010E0201E96F56
:10883800000E0201626F000E0201606F000E02015D
:10884800526F000E0201536F000E0201546F000EAA
:1088580002014F6F00D0000E120012007C0ED36E82
:108868009B8CD2909B8E200E926EFA0E936E930E76
:10887800946E860E896E010E8A6E040E8B6E000E43
:108888000F015D6F000E0F015C6FF19E0F015B9190
:108898000F015B930F015B950F015B970F015B99CC
:1088A8000F015B9B0F015B8D0F015B9FD180030E56
:1088B8000101016FEE0E006F84EC7BF00101356F52
:1088C800010135510101F86FF96BFA6BFB6BF8C1C7
:1088D80036F1F9C137F1FAC138F10101356B35C10B
:1088E800F8F136C1F9F137C1FAF138C1FBF1030EDD
:1088F8000101016FED0E006F84EC7BF00101356F13
:10890800010135510101F827000EF923FA23FB2351
:10891800F8C136F1F9C137F1FAC138F10101356B07
:1089280035C1F8F136C1F9F137C1FAF138C1FBF1B7
:10893800030E0101016FEC0E006F84EC7BF0010166
:10894800356F010135510101F827000EF923FA238B
:10895800FB230101F82913E10101F92910E10101C3
:10896800FA290101FB11D8A40AD0000E0101F86F01
:10897800000EF96F000EFA6F000EFB6F02D04D80EB
:1089880000D0030E0101016FF30E006F84EC7BF041
:108998000101356F010135510101E66FE76BE86BA5
:1089A800E96BE6C136F1E7C137F1E8C138F10101F9
:1089B800356B35C1E6F136C1E7F137C1E8F138C1A9
:1089C800E9F1030E0101016FF20E006F84EC7BF0F8
:1089D8000101356F010135510101E627000EE7233A
:1089E800E823E923E6C136F1E7C137F1E8C138F1F8
:1089F8000101356B35C1E6F136C1E7F137C1E8F160
:108A080038C1E9F1030E0101016FF10E006F84EC2A
:108A18007BF00101356F010135510101E627000E98
:108A2800E723E823E9230101E62913E10101E72906
:108A380010E10101E8290101E911D8A40AD0610E69
:108A48000101E66F030EE76F000EE86F000EE96F95
:108A580002D04D8200D065EC68F0AEEC54F0010E07
:108A6800536E000E02012B6F000E2A6F000E0201DA
:108A7800296F000E286F000E0201416F000E406F33
:108A8800000E0201436F000E426F000E02014C6F90
:108A980002019F690201A0690201A1690201A2699C
:108AA800000E02015A6F1200000E0101126F000E33
:108AB800116F010112BF0AD00101125106E1FA0E2D
:108AC8000101115DD8B0E8D001D0E6D00BC104F1A6
:108AD8000CC105F101011151E1EC61F00009D8B4B4
:108AE800D0D011C10FF112C110F1D89001010F3788
:108AF8001037010E01010F27000E1023C90E0101C6
:108B08000F25D96E090E01011021DA6EDF501F0BF7
:108B18001F0AD8B4A6D0D89001011135D96E010129
:108B28001235DA6EC90ED926090EDA22DF503F0B4C
:108B380001010F6F01010F51060DBD0EF324D96E0F
:108B48000B0EF420DA6E0DC1E1FF0EC1E2FFDFCF9C
:108B5800E7FFD89001011135D96E01011235DA6E9F
:108B6800C90ED926090EDA22DF503F0B01010F6F1B
:108B780001010F51060D010EF326000EF422BD0E61
:108B8800F324D96E0B0EF420DA6E010110EE01F019
:108B98000D51E1260E51E222DFCFE7FFD890010107
:108BA8001135D96E01011235DA6EC90ED926090EB2
:108BB800DA22DF503F0B01010F6F01010F51060D43
:108BC800020EF326000EF422BD0EF324D96E0B0E0E
:108BD800F420DA6E010110EE02F00D51E1260E517B
:108BE800E222DFCFE7FFD89001011135D96E0101EC
:108BF8001235DA6EC90ED926090EDA22DF503F0B7C
:108C080001010F6F01010F51060D030EF326000E2F
:108C1800F422BD0EF324D96E0B0EF420DA6E010196
:108C280010EE03F00D51E1260E51E222DFCFE7FFEF
:108C380011C10FF112C110F1D89001010F3710378F
:108C4800010E01010F27000E1023C90E01010F2587
:108C5800D96E090E01011021DA6EDF501F0B1200C8
:108C680010D0D89001011135D96E01011235DA6E94
:108C7800C90ED926090EDA223F0EDF161F0E120082
:108C880000D00101114B122B010112BF1FD70101A6
:108C9800125102E114D700D01F0E12001200000E6C
:108CA8000101816FABC07DF1ACC07EF1010E010105
:108CB800576F18C10BF119C10CF1590E01010D6F55
:108CC800010E01010E6F58EC45F00101586FCAC042
:108CD8005DF14DC05EF1000E01015F6F590E01019B
:108CE800066F010E0101076F7F0E0101086F010E6B
:108CF8000101096F800E01010A6F010E01010B6F5E
:108D08004DEC47F07FC160F180C161F118C10BF1F2
:108D180019C10CF1F0EC6AF00101626FACEC7CF067
:108D28000101636FB4EC7CF00101646F000E010176
:108D3800826F40D043D001018251020D730EF3249B
:108D4800D96E030EF420DA6EDECF7DF1DDCF7EF131
:108D58000101825101011B6F1C6BD89001011B3767
:108D68001C370E0E01011B27000E1C23570E010194
:108D78001B25D96E010E01011C21DA6E7DC1DFFFB2
:108D88000101825101011B6F1C6BD89001011B3737
:108D98001C370F0E01011B27000E1C23570E010163
:108DA8001B25D96E010E01011C21DA6E7EC1DFFF81
:108DB8000101822B0A0E01018265BDD7EEC17BF14C
:108DC800EFC17CF1260E0101816F070E0201D06F01
:108DD800B20ED16F010ED26F000ED36F000E0201DA
:108DE800006F000E016F000E026F000E036F01018D
:108DF8001A510101D8B434D0570E0101006F010E89
:108E08000101016F000E0101026F1D0E0101036FC8
:108E1800010E0101046F140E0101056F81C106F1F5
:108E28001AEC6FF01D0E01010E6F010E01010F6F9C
:108E380018C110F119C111F1C3EC64F01D0E010144
:108E4800046F010E0101056F01018151140F010129
:108E5800066F000E0101076F020E5AEC63F0120054
:108E680018C10EF119C10FF1570E0101106F010E53
:108E78000101116F81C112F1000E0101136F010E82
:108E88000101146F000E0101156F17EC4AF0120072
:108E98001200000E01010F6F000E0E6F01010FBFCF
:108EA8000AD001010F5106E13F0E01010E5DD8B055
:108EB800D4D001D0D2D006C1D9FF07C1DAFF0EC184
:108EC80000F10FC101F1000E0101036F060E026FE0
:108ED800A6EC78F0BD0E01010025E16E0B0E010134
:108EE8000121E26EDE50E618D8A4ACD0010120EED4
:108EF80001F00651D9260751DA220EC100F10FC13F
:108F080001F1000E0101036F060E026FA6EC78F066
:108F1800010E01010027000E01010123BD0E010110
:108F28000025E16E0B0E01010121E26EDE50E6180C
:108F3800D8A488D0010120EE02F00651D9260751A5
:108F4800DA220EC100F10FC101F1000E0101036F19
:108F5800060E026FA6EC78F0020E01010027000E43
:108F680001010123BD0E01010025E16E0B0E010177
:108F78000121E26EDE50E618D8A464D0010120EE8B
:108F880003F00651D9260751DA220EC100F10FC1AC
:108F980001F1000E0101036F060E026FA6EC78F0D6
:108FA800030E01010027000E01010123BD0E01017E
:108FB8000025E16E0B0E01010121E26EDE50E6187C
:108FC800D8A440D00EC100F10FC101F1000E01017B
:108FD800036F060E026FA6EC78F0050E010100275C
:108FE800000E01010123BD0E01010025D96E0B0EF3
:108FF80001010121DA6E08C1E1FF09C1E2FFDFCFFB
:10900800E7FF0EC100F10FC101F1000E0101036F6E
:10901800060E026FA6EC78F0040E01010027000E80
:1090280001010123BD0E01010025D96E0B0E0101BE
:109038000121DA6EDF380F0B0AC1D9FF0BC1DAFF45
:10904800DF6E120001010E4B0F2B01010FBF33D74A
:1090580001010F5102E128D700D008C1D9FF09C189
:10906800DAFFFF0EDF6E0AC1D9FF0BC1DAFF0F0E60
:10907800DF6E120012003B50D8B4D9D002015B5108
:10908800D8B410D0000E02015B6F000E0001CF6F44
:10909800000E0001D06F000E3B6E000E0001CD6F78
:1090A800000E120002015951D8A40DD0000E000183
:1090B800CF6F000E0001D06F000E3B6E000E000156
:1090C800CD6F000E12000001D051FD0F10C1D9FF65
:1090D80011C1DAFFDF6E000E0101186F400E0001AA
:1090E800D0650DD0000E0001CF6F000E0001D06FCB
:1090F800000E3B6E000E0001CD6F000E1200020E36
:109108000101196F11D001011951010D270EF32426
:10911800D96E040EF420DA6EDF500101181901012E
:10912800186F0101192B00D00001D0510101195D00
:10913800D8A0E9D7010118510101D8B40DD0000E0B
:109148000001CF6F000E0001D06F000E3B6E000EC5
:109158000001CD6F000E120010C1D9FF11C1DAFF56
:109168003D0EDF640DD0000E0001CF6F000E000130
:10917800D06F000E3B6E000E0001CD6F000E120086
:1091880010C1D9FF11C1DAFFDF500101126F136B53
:10919800FD0E0101146FFF0E0101156F0001D05182
:1091A8000101166F176B0101145101011627010106
:1091B800155101011723010112510101161906E188
:1091C8000101135101011719D8B40DD0000E000187
:1091D800CF6F000E0001D06F000E3B6E000E000135
:1091E800CD6F000E1200270E0101006F040E010161
:1091F800016F020E0101026F0EC103F10FC104F1EC
:10920800000E0101056F10C1D9FF11C1DAFFDF504F
:109218000101066F1AEC6FF0000E0001CF6F000E0F
:109228000001D06F000E3B6E010E12000FD03B50B4
:10923800D8B40CD0000E0001CF6F000E0001D06F23
:10924800000E3B6E000E0001CD6F00D0000E120024
:10925800120001014C6F4B50D8B403D0000E4B6E76
:109268001200040E48EC78F00009D8B48CD0010143
:10927800BB51010DD50EF324F66EFE0EF420F76EE9
:109288000800F5500009D8A47ED0010E0101BB6F7B
:10929800010E02015E6F77D0DCEC60F00DC1ABF01F
:1092A8000EC1ACF00001ACBF08D03E0E0001AB5DB2
:1092B800080E0001AC59D8B004D0000E0101BB6FF4
:1092C80012000101BB2B1200E4EC7CF000C13AF261
:1092D80001C13BF20101BB2B120001014C510201FB
:1092E800245D000E2559D8B003D00101BB2B120014
:1092F80001014C510201245F000E255B1200000E93
:10930800526E01014C510201265D000E2759D8A06A
:10931800120001D0120001014C510201265F000E1B
:10932800275B1200040E53EC7AF00009D8B412003F
:1093380049C12FF14AC130F14BC131F1040E81EC22
:1093480070F0000E02015E6F120002015D2B010E2B
:1093580002015D651200000E02015D6FEDEC25F063
:10936800040E53EC7AF00009D8B4120049C12FF169
:109378004AC130F14BC131F1040E81EC70F012009A
:109388000101BB2B12000101BB51010DD50EF324C5
:10939800F66EFE0EF420F76E0800F550000AD8B4F9
:1093A800C1D7010AD8B478D7030AD8B48DD7010A2F
:1093B800D8B41200070AD8B41200010AD8B41200AF
:1093C800030AD8B41200010AD8B412000F0AD8B49C
:1093D80084D7010AD8B41200030AD8B490D7010A76
:1093E800D8B41200070AD8B41200010AD8B412007F
:1093F800030AD8B41200010AD8B4A7D71F0AD8B4F0
:10940800BFD7010AD8B41200030AD8B41200010A5F
:10941800D8B41200070AD8B41200010AD8B412004E
:10942800030A1200120002016951D8A4D2D0020125
:109438009B51D8A4CED06A0E0101066F020E01011D
:10944800076FF70E0101086F020E0101096F040E84
:1094580001010A6F9DEC76F072C2EAF2060E020173
:10946800696F0EC106F10FC107F16E0E0101086F99
:10947800020E0101096F040E01010A6F9DEC76F0DE
:10948800DD0E0101066F010E0101076F6A0E010171
:10949800086F020E0101096F040E01010A6F9DECAD
:1094A80076F001EC7CF00201726F000E02019E6FF3
:1094B800010115510101D8B402D0040E01D0030EE8
:1094C8000201736F00D0270E0101126156D001010D
:1094D800C951D8B431D0010114510101D8B42CD0EC
:1094E800010E010110250101006F000E010111217B
:1094F8000101016FFF0E010112250101026F010137
:10950800036BFF0E032357EC60F00101166F050E85
:109518000101176F0101D89016370101172FFAD7EB
:10952800010116510201746F10C1D9FF11C1DAFF90
:10953800DF500201742708D010C1D9FF11C1DAFF2A
:10954800DF500201746F00D010C100F111C101F1A8
:10955800010E0101026F740E0101036F020E010179
:10956800046F010E0101056F010112050101066F6B
:109578001AEC6FF012C19AF200D013C19BF20101EC
:1095880013510101D8B403D0000E0201696F000124
:10959800BA51D8A404D0000E0101D46F18D06E0EB1
:1095A8000101066F020E0101076FEF0E0101086F3E
:1095B800020E0101096F040E01010A6FF6EC75F045
:1095C8000009D8B404D0020E0201696F00D0010E60
:1095D8001200000E120012000101146F000E0101AA
:1095E800166F000E176F000E186F000E196F040E1D
:1095F80001010F19D8A40BD00DC116F10EC117F136
:109608000101000E17BFFF0E186F196F54D001012A
:109618000F510101D8A42FD00DC110F10EC111F1C5
:10962800000E010111BFFF0E126F136F0F0ED890BD
:1096380001011037113712371337E82EF8D710C148
:1096480000F111C101F112C102F113C103F1E80ED9
:109658000101046F030E056F000E066F000E076F01
:109668003CEC67F000C116F101C117F102C118F115
:1096780003C119F120D001010F05D8A41CD00DC1D8
:1096880010F10EC111F1000E010111BFFF0E126F92
:10969800136F0F0ED8900101103711371237133797
:1096A800E82EF8D710C116F111C117F112C118F13F
:1096B80013C119F100D016C110F117C111F118C169
:1096C80012F119C113F10101101F111F121F131FED
:1096D800102B000E112312231323FF0E0101102556
:1096E8000101166FFF0E010111210101176F000E14
:1096F800010112210101186F000E0101132101015E
:10970800196F01011405D8A40BD017C1CFFF16C1DA
:10971800CEFF8C0ECD6E9F809E909D80CD8000D018
:10972800030E01011419D8A40AD017C1B3FF16C13A
:10973800B2FF8C0EB16EA292A192A082B1803E506F
:10974800D8A41200010E3E6E000E0101156F180E0E
:109758000101156502D01200120001011551020D18
:10976800000EF324D96E030EF420DA6E000EDE6EBE
:10977800000EDD6E0101152B180E01011565EDD7E0
:109788001200120012000101116F030E01010819E5
:10979800D8A460D03C0E0101116102D0000E12D095
:1097A800C30E010111250101006F0101016BFF0EBC
:1097B8000123000E0101036F050E026F0AEC66F02B
:1097C800010100510101126F00D001011251010184
:1097D800096F0A6BFF0E01010B6FFF0E01010C6F81
:1097E80008C10DF1010E01010E6F000E01010F6F8E
:1097F80001010D2B04D0D89001010E370F3701015C
:109808000D2FF9D701010B5101010E2701010C5150
:1098180001010F230101095101010E5D01010F51E1
:10982800800A0101106F01010A51800A01011059D3
:10983800D8B071D008C109F1010E01010A6F010108
:10984800092B03D00101D8900A370101092FFAD753
:109858005DD061D0040E01010819D8A45CD0DC0EDB
:10986800010111250101006F0101016BFF0E0123A8
:10987800000E0101036F050E026F0AEC66F001018C
:1098880000510101126F010112510101096F0A6BA8
:10989800FF0E01010B6FFF0E01010C6F08C10DF1E6
:1098A800010E01010E6F000E01010F6F01010D2B5A
:1098B80004D0D89001010E370F3701010D2FF9D7C9
:1098C80001010B5101010E2701010C5101010F2368
:1098D8000101095101010E5D01010F51800A0101C9
:1098E800106F01010A51800A01011059D8B013D034
:1098F80008C109F1010E01010A6F0101092B03D00A
:109908000101D8900A370101092FFAD701010A0588
:109918000101126F00D00101125112001200010161
:10992800066F010104510101D8B402D0200E01D004
:10993800600E0101056F9AD001010551020902016B
:10994800A46F630E0201AB6F010106511B0F55D0C6
:109958000101055102090201A46F640E0201AB6FF7
:1099680001010651040F49D0210E010106610BD0F7
:10997800010105510A090201A46F650E0201AB6FCE
:1099880006C1ACF282D0010105510A090201A46F97
:10999800640E0201AB6F01010651190F2ED075D06C
:1099A800010105510A090201A46F650E0201AB6F9E
:1099B80001010651210F21D00C0E010106610DD0C5
:1099C8000101055102090201A46F630E0201AB6F88
:1099D80001010651040DF350B9D70B0E01010665BC
:1099E8000FD0190E010106610BD0010105510209C2
:1099F80012D0640E0201AB6F11D00201AC6F45D0DA
:109A0800180E0101066510D01F0E010106610CD069
:109A1800010105510A090201A46FEBD701010645AE
:109A2800E846FC0BD00FE9D71E0E0101066509D0E8
:109A3800270E0101066105D00CD0650E0201AB6F3F
:109A48000ED0260E0101066520D0320E01010661F6
:109A58001CD0010105510A090201A46FEED70101CA
:109A68000645E846FC0B850FC8D70FD00201E55123
:109A7800010AD8B461D7030AD8B46AD7010AD8B49E
:109A880073D7070AD8B48CD797D7A4C202F1000EAF
:109A9800F9EC78F0ABC202F10E0EF9EC78F0ACC23A
:109AA80002F1100EF9EC78F0120002016951D8A405
:109AB800BBD002019B51D8A4B7D06A0E0101066F32
:109AC800020E0101076FF70E0101086F020E010176
:109AD800096F040E01010A6F9DEC76F072C2EAF27A
:109AE800060E0201696F000E02019C6F020E020150
:109AF8009D6F0EC106F10FC107F16E0E0101086FCF
:109B0800020E0101096F040E01010A6F9DEC76F047
:109B1800DD0E0101066F010E0101076F6A0E0101DA
:109B2800086F020E0101096F040E01010A6F9DEC16
:109B380076F001EC7CF00201726F000E02019B6F5F
:109B48001D0E0201746F210E0201756F10C176F2AD
:109B58003F0E0201776F080E0101116F01011051CC
:109B680001011103F3CF12F1000E0101136F46D06A
:109B78003F0E0101126121D001011251060DBD0EE7
:109B8800F3240101006F0B0EF4200101016F000E98
:109B98000101026F740E0101036F020E0101046FCF
:109BA80001011351040DF350060F0101056F040E56
:109BB8000101066F1AEC6FF01CD0D90E0101006F7D
:109BC800010E0101016F000E0101026F740E010107
:109BD800036F020E0101046F01011351040DF350CC
:109BE800060F0101056F040E0101066F1AEC6FF0F4
:109BF80000D00101122B0101132B00D001011151DA
:109C08000101135DD8A0B4D7030E0201736F260EAD
:109C180002019A6F0001BA51D8A404D0000E0101C4
:109C2800D46F00D0010E1200000E120012000400C2
:109C38004550D8A4120001D012001AC145F0000EF8
:109C480001011B6FAFD0000E0001C86F0001CD519C
:109C5800D8A49CD03E0E0101196198D0010E0001D4
:109C6800C96F0001CD51D8B404D0000E0001C96FEE
:109C780094D0200E49EC5BF00201B15101090101B9
:109C8800026F1A0EF9EC78F0800E49EC5BF00101D6
:109C98001951020FF7EC7BF00001B551F7EC7BF09E
:109CA800000E01011F6F64D001011F51010DF35017
:109CB80001011725D96EF45001011821DA6EDF5021
:109CC80001011C6F01011F05D8B410D0020E01015B
:109CD8001F19D8B40BD00001C85101011C1900018B
:109CE800C86F01011C51F7EC7BF03FD001011F0543
:109CF800D8A42BD0040E01010C6F010E4BEC5FF0C1
:109D08000001A35101010C2501011D6F0001A4519F
:109D180001010D2101011E6F01011E51F7EC7BF0BD
:109D280001011E510001C8190001C86F01011D5130
:109D38000201425D01011E5102014359D8B015D0FC
:109D48001DC142F21EC143F210D0020E01011F19BB
:109D5800D8A40BD001011D51F7EC7BF00001C851CC
:109D680001011D190001C86F00D001011F2B00D08F
:109D78000101195101011F5DD8A096D70001C851F2
:109D8800F7EC7BF00400010E4B6E09D03D0E01018B
:109D9800196501D002D00001CD51450600D001015E
:109DA8001B2B00D001011A5101011B5DD8A04BD714
:109DB800120001010C6F000E01010E6F0F015A997C
:109DC800000E0001CD6F000E0001D66F000E0001DD
:109DD800CF6F000E0001D06F000E486E000E3B6E74
:109DE800200E0101C36F000E0201596F000E000121
:109DF800C96F000E4B6E000E0201646F000E456EB7
:109E08008986050E0101076F260EE82EFED7072F5B
:109E1800FCD700D08996680E0101076FE40EE82E82
:109E2800FED7072FFCD700D0000E0101046F0101F7
:109E38000C5193EC4CF0000E01010E6F1F0E010146
:109E48000E6501D015D001010E51010DA40EF324A9
:109E5800D96E020EF420DA6EDF500101026F0101A3
:109E68000E51020DF350F9EC78F001010E2BE6D7F4
:109E7800030E0101016FFC0E006F84EC7BF0010101
:109E88000D6F01010D29D8A418D0C4EC7CF0030E85
:109E98000101016FFC0E006F000E0101026F32EC30
:109EA80077F0000ED4EC7BF0D80E0101096F09C1E0
:109EB80002F13C0EF9EC78F01ED001010D510101C0
:109EC800D8A40CD0000ED4EC7BF0D80E01010A6F98
:109ED8000AC102F13C0EF9EC78F00DD001010D51E8
:109EE800D4EC7BF0DA0E01010B6F0BC102F13C0ED2
:109EF800F9EC78F000D0F29600F00F015A8900F0E2
:109F080081CF08F100F0F290F2860CC1E4F2150E50
:109F18000101076FC60EE82EFED7072FFCD700D029
:109F280076EC7BF0010E0001D36F000E0001D56FB7
:109F38001200000E01010B6F3E0E01010B6502D0ED
:109F48001200120001010B51060D040EF326000E3B
:109F5800F422BD0EF324D96E0B0EF420DA6EDF5016
:109F68000F0B0F0AD8B49CD0010E0101086F010134
:109F78000B51060D040EF326000EF422BD0EF32439
:109F8800D96E0B0EF420DA6EDF500F0B0101096F4A
:109F98000101085101010927DF5001010919F00BDE
:109FA80001010919DF6E46500F0DF3CF00F1F4CF10
:109FB80001F1000E0101036F400E026F0AEC66F01A
:109FC800040E01010027000E0101012301010B51BC
:109FD800060D040EF326000EF422BD0EF324D96EEE
:109FE8000B0EF420DA6EDF500F0B0101086F096BBE
:109FF800010100510101085D01010951800A0101B7
:10A008000A6F01010151800A01010A59D8B012D022
:10A0180001010B51060D040EF326000EF422BD0EAD
:10A02800F324D96E0B0EF420DA6EDF500F0B0F0AF3
:10A03800D8A436D001010B51060D040EF326000EEC
:10A04800F422BD0EF324D96E0B0EF420DA6EDF80F5
:10A05800DF82DF84DF8601010B51060D050EF32632
:10A06800000EF422BD0EF324D96E0B0EF420DA6E26
:10A07800FF0EDF6E01010B51060D040EF326000ED4
:10A08800F422BD0EF324D96E0B0EF420DA6EDF88AD
:10A09800DF8ADF8CDF8E4650D8B402D0460600D067
:10A0A80001010B2B3E0E01010B654CD7120012006B
:10A0B800156E000E176E000E186E000E196E000E4B
:10A0C8001A6E040E1018D8A40AD00EC017F00FC0CC
:10A0D80018F0000E18BEFF0E196E1A6E4CD01050F4
:10A0E800D8A42CD00EC011F00FC012F0000E12BE72
:10A0F800FF0E136E146E0F0ED890113612361336EB
:10A108001436E82EF9D711C001F012C002F013C0BE
:10A1180003F014C004F0E80E056E030E066E000E80
:10A12800076E000E086EC7EC70F001C017F002C091
:10A1380018F003C019F004C01AF01DD01004D8A4F8
:10A148001AD00EC011F00FC012F0000E12BEFF0E92
:10A15800136E146E0F0ED89011361236133614364D
:10A16800E82EF9D711C017F012C018F013C019F073
:10A1780014C01AF000D017C011F018C012F019C09E
:10A1880013F01AC014F0111E121E131E141E112AE9
:10A19800000E122213221422FF0E1124176EFF0E36
:10A1A8001220186E000E1320196E000E14201A6E5D
:10A1B8001504D8A40BD018C0CFFF17C0CEFF8C0E43
:10A1C800CD6E9F809E909D80CD8000D0030E151887
:10A1D800D8A40AD018C0B3FF17C0B2FF8C0EB16E56
:10A1E800A292A192A082B1803E50D8A41200010E82
:10A1F8003E6E000E166E180E166402D01200120083
:10A208001650020D000EF324D96E030EF420DA6EF8
:10A21800000EDE6E000EDD6E162A180E1664F0D7DC
:10A228001200120012001D0E0101426F1AC10BF13B
:10A238001BC10CF1430E01010D6F010E01010E6FE0
:10A2480058EC45F00101476F1D0E01011C6F260EE9
:10A2580001011D6F1AC100F11BC101F1000E0101BE
:10A26800026F1C0E0101036F010E0101046F020E43
:10A278000101056F040E0101066F1AEC6FF0430E21
:10A288000101006F010E0101016F000E0101026F53
:10A298001C0E0101036F010E0101046F060E01017E
:10A2A800056F040E0101066F1AEC6FF047C126F125
:10A2B8001AC100F11BC101F1000E0101026F1C0E51
:10A2C8000101036F010E0101046F0B0E0101056FFF
:10A2D800040E0101066F1AEC6FF0430E0101006FC6
:10A2E800010E0101016F000E0101026F1C0E010138
:10A2F800036F010E0101046F0F0E0101056F040EBB
:10A308000101066F1AEC6FF047C12FF11AC100F175
:10A318001BC101F1000E0101026F1C0E0101036F48
:10A32800010E0101046F140E0101056F040E0101F5
:10A33800066F1AEC6FF0430E0101006F010E010168
:10A34800016F000E0101026F1C0E0101036F010E67
:10A358000101046F180E0101056F040E0101066F5B
:10A368001AEC6FF047C138F118C10EF119C10FF19D
:10A378001C0E0101106F010E0101116F42C112F193
:10A38800000E0101136F010E0101146F000E01018F
:10A39800156F17EC4AF01200120000C1D9FF01C175
:10A3A800DAFF000EDF6E010120EE01F00051D92620
:10A3B8000151DA22000EDF6E3F50D8A404D000010C
:10A3C800C351D8B439D01E0E0001C46103D00001B6
:10A3D800C42B00D01E0E0001C419D8A41AD00E0E2A
:10A3E8000001C66516D000C1D9FF01C1DAFF030E0E
:10A3F800DF6E2D0E0001C46F010120EE01F0005147
:10A40800D9260151DA22030EDF6E2D0E0001C66F28
:10A418000FD01E0E0001C419D8A40AD000C1D9FF5C
:10A4280001C1DAFF020EDF6E2D0E0001C46F00D0ED
:10A43800000E0001C36F13D0010E0001C4650BD0DC
:10A448001F0E0001C46107D000C1D9FF01C1DAFFA6
:10A45800010EDF6E00D0000E0001C46F00D0405026
:10A46800D8A404D00001C551D8B43AD01E0E0001BA
:10A47800C66103D00001C62B00D01E0E0001C6190C
:10A48800D8A41AD00E0E0001C46516D000C1D9FF99
:10A4980001C1DAFF030EDF6E2D0E0001C46F01014A
:10A4A80020EE01F00051D9260151DA22030E11D015
:10A4B8002D0E0001C66F10D01E0E0001C619D8A4BB
:10A4C8000BD0010120EE01F00051D9260151DA220A
:10A4D800020EDF6EEDD700D0000E0001C56F12002E
:10A4E800010E0001C6650ED01F0E0001C6610AD01C
:10A4F800010120EE01F00051D9260151DA22010EA6
:10A50800DF6E00D0000E0001C66F120012001D0E93
:10A518000101266F200E0101276F22C128F1DBEC13
:10A528007CF00101296F030E0101556F01012251D1
:10A5380001015503F3CF54F1000E0101586F000ECD
:10A54800576F6DD04C0E0101146F010E0101156F8C
:10A55800500E0101166F010E0101176F560E010111
:10A56800186F010E0101196F01015451DFEC62F0FF
:10A578004C0E0101006F010E0101016F000E010177
:10A58800026F260E0101036F010E0101046F010124
:10A598005751090DF350040F0101056F040E010115
:10A5A800066F1AEC6FF0500E0101006F010E0101E9
:10A5B800016F000E0101026F260E0101036F010EEB
:10A5C8000101046F01015751090DF350080F0101F2
:10A5D800056F040E0101066F1AEC6FF057C100F108
:10A5E80058C101F1000E0101036F090E026FA6ECBC
:10A5F80078F00C0E01010027000E01010123260E40
:10A6080001010025D96E010E01010121DA6E56C142
:10A61800DFFF0101542B0101574B582B00D00101DA
:10A6280055510101236F246B010123510101575D2D
:10A6380001015851800A0101256F01012451800A46
:10A6480001012559D8A07ED720C10EF121C10FF1F3
:10A65800260E0101106F010E0101116F260E010176
:10A66800126F000E0101136F010E0101146F000E2D
:10A678000101156F17EC4AF0120012000AC10EF121
:10A6880001010F6B106B0101093501010E3701E360
:10A698000F8101010E510101116F01011151D8A45F
:10A6A8000AD0000E0101086F000E0101096F000EAB
:10A6B80001010A6F12000DC10EF101010F6B106B41
:10A6C80001010C3501010E3701E30F8101010E5123
:10A6D8000101166F01011651D8A40AD0000E01011C
:10A6E800086F000E0101096F000E01010A6F1200C8
:10A6F800010116517B0F010111270AC116F1010151
:10A708000D510101161B800E010116170101098F59
:10A7180001010C8FFF0E01010B17FF0E01010C1731
:10A72800000E01010D17000E0101126F000E01014C
:10A73800136F000E0101146F070E0101156F00D091
:10A74800010108A10DD001010B51010112270101DE
:10A758000C510101132301010D510101142300D0F3
:10A768000101D8900A33093308330101D8900B3717
:10A778000C370D370101152FE3D700D0090E010161
:10A78800156F00D0010108A10DD001010B51010185
:10A79800122701010C510101132301010D5101017F
:10A7A800142300D00101D8900A330933083301017A
:10A7B800D8901433133312330101152FE3D700D087
:10A7C80012C100F113C101F114C102F111C103F169
:10A7D80016C104F12BEC5EF000C108F101C109F1CA
:10A7E80002C10AF1120012006EC072F00001736B10
:10A7F800746B00016D350001723701E3738100014C
:10A8080072510001756F00017551D8A40AD0000E6D
:10A8180000016C6F000E00016D6F000E00016E6F7D
:10A82800120071C072F00001736B746B0001703517
:10A838000001723701E373810001725100017A6FE0
:10A8480000017A51D8A40AD0000E00016C6F000EE6
:10A8580000016D6F000E00016E6F120000017A5149
:10A868007B0F000175276EC07AF00001715100015D
:10A878007A1B800E00017A1700016D8F0001708F1E
:10A88800FF0E00016F17FF0E00017017000E000188
:10A898007117000E0001766F000E0001776F000E31
:10A8A8000001786F070E0001796F00D000016CA1DC
:10A8B8000DD000016F510001762700017051000191
:10A8C8007723000171510001782300D00001D8904E
:10A8D8006E336D336C330001D8906F377037713732
:10A8E8000001792FE3D700D0090E0001796F00D05D
:10A8F80000016CA10DD000016F5100017627000105
:10A90800705100017723000171510001782300D0B4
:10A918000001D8906E336D336C330001D8907833D2
:10A92800773376330001792FE3D700D076C060F013
:10A9380077C061F078C062F075C063F07AC064F0E7
:10A94800BBEC5EF060C06CF061C06DF062C06EF090
:10A95800120012000001DC510001DB1132E1610E2E
:10A968000001D95D090E0001DA59D8B02AD0A786AE
:10A97800000E0101006F900E016FD00E026F030EE2
:10A98800036FD9C00DF1DAC00EF1DBC00FF1DCC0E6
:10A9980010F1040ED89001010D370E370F3710371C
:10A9A800E82EF8D70DC104F10EC105F10FC106F16B
:10A9B80010C107F13CEC67F035D06C0E0001BF6F99
:10A9C8006CD00001DC510001DB1137E1810E000180
:10A9D800D95D250E0001DA59D8B02FD0000E01013B
:10A9E800006F900E016FD00E026F030E036FD9C077
:10A9F8000DF1DAC00EF1DBC00FF1DCC010F1060E6C
:10AA0800D89001010D370E370F371037E82EF8D7D9
:10AA18000DC104F10EC105F10FC106F110C107F116
:10AA28003CEC67F0FF0E010100250201186FFF0ED4
:10AA3800010101210201196FC0D7000E0101006F49
:10AA4800900E016FD00E026F030E036FD9C004F190
:10AA5800DAC005F1DBC006F1DCC007F13CEC67F0B9
:10AA6800050E07D00101D8900333023301010133E9
:10AA78000033E82EF7D7FF0E010100250201186FF9
:10AA8800FF0E010101210201196F000E0201196F69
:10AA9800220E186F7C0E92D700D018C200F119C28E
:10AAA80001F10001BF5102EC73F0010E0001B96F12
:10AAB800AB98AB88AECF68F212000001DC51000100
:10AAC800DB1132E1610E0001D95D090E0001DA598E
:10AAD800D8B02AD0A786000E0001606F900E616F73
:10AAE800D00E626F030E636FD9C06DF0DAC06EF0DE
:10AAF800DBC06FF0DCC070F0040ED89000016D3739
:10AB08006E376F377037E82EF8D76DC064F06EC0B7
:10AB180065F06FC066F070C067F09FEC67F035D0E5
:10AB28006C0E0001BF6F6CD00001DC510001DB111D
:10AB380037E1810E0001D95D250E0001DA59D8B040
:10AB48002FD0000E0001606F900E616FD00E626F03
:10AB5800030E636FD9C06DF0DAC06EF0DBC06FF022
:10AB6800DCC070F0060ED89000016D376E376F3775
:10AB78007037E82EF8D76DC064F06EC065F06FC00E
:10AB880066F070C067F09FEC67F0FF0E000160256B
:10AB98000201186FFF0E000161210201196FC0D771
:10ABA800000E0001606F900E616FD00E626F030E91
:10ABB800636FD9C064F0DAC065F0DBC066F0DCC052
:10ABC80067F09FEC67F0050E07D00001D89063335B
:10ABD8006233000161336033E82EF7D7FF0E0001BE
:10ABE80060250201186FFF0E000161210201196F33
:10ABF800000E0201196F220E186F7C0E92D700D03A
:10AC080018C260F019C261F00001BF513EEC73F048
:10AC1800010E0001B96FAB98AB88AECF68F2120095
:10AC28000101000501010111D8A433D00001A75189
:10AC3800301805E10001A8513118D8B49DD002019F
:10AC480047510201D8B402D0000E1200010E0201D1
:10AC5800476F000E3024D96E060E3120DA6E02C11D
:10AC6800E1FF03C1E2FFDFCFE7FF304A312A31BEFF
:10AC78000AD0315004E1800E305CD8A004D0000E18
:10AC8800316E000E306E000E0201476F010E120089
:10AC980073D0020E0101001901010111D8A433D0AB
:10ACA8000001A951321805E10001AA513318D8B49E
:10ACB80063D0020148510201D8B402D0000E12003C
:10ACC800010E0201486FC90E3224D96E070E3320D7
:10ACD800DA6E02C1E1FF03C1E2FFDFCFE7FF324ACC
:10ACE800332A33BE0AD0800E325C010E3358D8A006
:10ACF80004D0000E336E000E326E000E0201486F53
:10AD0800C5D7120039D0040E010100190101011143
:10AD1800D8A432D00001A5512E1805E10001A65192
:10AD28002F18D8B429D00001AD51D8B402D0000EE4
:10AD38001200010E0001AD6F000E2E24D96E040E14
:10AD48002F20DA6E02C1E1FF03C1E2FFDFCFE7FF88
:10AD58002E4A2F2A2FBE0AD02F5004E1270E2E5C30
:10AD6800D8A004D0000E2F6E000E2E6E000E00012B
:10AD7800AD6F8CD7120000D0000E12001200000137
:10AD8800C151D8B4A4D00001CD51D8A4A0D0C7C017
:10AD980000F10101016B000E0101036F000E026F4B
:10ADA800C90E0101046F000E056F000E066F000E3C
:10ADB800076F7AEC73F0010100510101386F01014E
:10ADC80038510101D8A402D0000E1200000E010172
:10ADD8000E6F01013851010D000EF324D96E070ED4
:10ADE800F420DA6EDF5067EC7AF0D3A60FD0040EA9
:10ADF80001010C6F010E4BEC5FF00001A351010142
:10AE08000C250101396F0001A45114D0040E010171
:10AE18000C6F010E4BEC5FF00001A35101010C27F0
:10AE28000001A45101010D23E60E01010C250101C9
:10AE3800396FFF0E01010D2101013A6F00D0B4EC0A
:10AE48007CF035C1D9FF36C1DAFFDF6E010120EE93
:10AE580002F03551D9263651DA2239C1DFFF010116
:10AE680020EE01F03551D9263651DA2201013A5146
:10AE7800DF6E35C117F136C118F101013751030FE3
:10AE88000101196F010E01011A6F1BEC4EF001014F
:10AE9800CB51D8A417D0080E5DEC74F00101005115
:10AEA8000101CB250101CB6FCBC12FF10101306B23
:10AEB800010E0101316F080E81EC70F0000E0101E6
:10AEC800CB6F00D0000E02015F6F010E1200000E62
:10AED8001200120000C1D9FF01C1DAFF1D0EDF6E9A
:10AEE800010120EE01F00051D9260151DA22230E8A
:10AEF800DF6E010120EE02F00051D9260151DA225D
:10AF0800D5C002F10101023BF00E021781EC7CF082
:10AF1800010102250001D325DF6E010120EE03F0B7
:10AF28000051D9260151DA22D5C002F10101023BB4
:10AF3800F00E021781EC7CF0010102250001D325F7
:10AF4800DF6E010120EE04F00051D9260151DA220A
:10AF5800D5C002F10101023BF00E021781EC7CF032
:10AF6800010102250001D325DF6E010120EE05F065
:10AF78000051D9260151DA22CAC0DFFF010120EEB3
:10AF880006F00051D9260151DA22CAC0DFFF0101BB
:10AF980020EE07F00051D9260151DA22CAC0DFFF9E
:10AFA800010120EE08F00051D9260151DA22ACEC5B
:10AFB8007CF0DF6E010120EE09F00051D926015125
:10AFC800DA22ACEC7CF0DF6E010120EE0AF00051D1
:10AFD800D9260151DA22ACEC7CF0DF6E010120EEBB
:10AFE8000BF00051D9260151DA22A8EC7CF0DF6E73
:10AFF800010120EE0CF00051D9260151DA22A8EC0B
:10B008007CF0DF6E010120EE0DF00051D9260151D0
:10B01800DA22A8EC7CF0DF6E0E0E0101036F01014D
:10B0280003511200120022C124F10101256B266B85
:10B03800010121350101243701E325810101245152
:10B0480001012E6F01012E51D8A40AD0000E010172
:10B05800206F000E216F000E226F000E236F12006A
:10B06800170E0101246F20C125F121C126F122C14B
:10B0780027F1010124290101286F05D00101D89089
:10B088002733263325330101282FF8D7010125510D
:10B098000101296F0101218FFF0E01012017FF0E09
:10B0A80001012117000E01012217010120510101A0
:10B0B8002A6F0101215101012B6F01012251010168
:10B0C8002C6F01012D6B8E0E01012E5F01012EAF39
:10B0D8001BD001012E51800A8F0FD8B00BD0000E63
:10B0E8000101206F000E216F000E226F000E236FEA
:10B0F800120000D00101D8902D332C332B332A3382
:10B1080001012E3FF7D71FD0170E01012E6514D06D
:10B11800000E0101206F000E216F000E226F000E3D
:10B12800236F120009D00101D8902A372B372C370A
:10B138002D3701012E0700D001012E510101D8B48D
:10B1480002D0F1D700D0010129510101D8B40AD0A9
:10B1580001012D1F2C1F2B1F2A6D000E2B232C23C2
:10B168002D2300D02AC120F12BC121F12CC122F1BD
:10B178002DC123F11200120013C117F10101186B40
:10B18800196B010112350101173701E3188101011B
:10B19800175101011E6F01011E51D8A40AD0000EDB
:10B1A8000101116F000E0101126F000E0101136FF2
:10B1B800120016C117F10101186B196B0101153541
:10B1C8000101173701E318810101175101011F6FB0
:10B1D80001011F51D8A40AD0000E0101116F000E01
:10B1E8000101126F000E0101136F1200000E010120
:10B1F8001B6F000E01011C6F000E01011D6F010184
:10B208001F51890F01011E5F13C11FF10101165162
:10B2180001011F1B800E01011F170101128FFF0E74
:10B2280001011117FF0E01011217000E010113177A
:10B238000101158FFF0E01011417FF0E01011517EB
:10B24800000E01011617180E01011A6F00D0010136
:10B25800D8901B371C371D37010114510101115DAE
:10B26800010115510101125901011651010113592A
:10B27800D8A00ED0010114510101115F010115512F
:10B288000101125B010116510101135B01011B81D0
:10B298000101D89011371237133701011A2FD7D768
:10B2A80000D01BC100F11CC101F11DC102F11EC17A
:10B2B80003F11FC104F12BEC5EF000C111F101C1D3
:10B2C80012F102C113F1120012007DC07FF00001DB
:10B2D800806B816B00017C3500017F3701E3808141
:10B2E80000017F510001896F00018951D8A40AD05B
:10B2F800000E00017B6F000E7C6F000E7D6F000E4C
:10B308007E6F1200170E00017F6F7BC080F07CC03B
:10B3180081F07DC082F000017F290001836F05D094
:10B328000001D8908233813380330001832FF8D70E
:10B33800000180510001846F00017C8FFF0E000125
:10B348007B17FF0E00017C17000E00017D1700011E
:10B358007B510001856F00017C510001866F00015F
:10B368007D510001876F0001886B8E0E0001895F97
:10B37800000189AF1BD000018951800A8F0FD8B016
:10B388000BD0000E00017B6F000E7C6F000E7D6FEE
:10B39800000E7E6F120000D00001D89088338733EA
:10B3A800863385330001893FF7D71FD0170E000178
:10B3B800896514D0000E00017B6F000E7C6F000EB3
:10B3C8007D6F000E7E6F120009D00001D89085377E
:10B3D8008637873788370001890700D000018951EF
:10B3E8000001D8B402D0F1D700D000018451000187
:10B3F800D8B40AD00001881F871F861F856D000EEC
:10B4080086238723882300D085C07BF086C07CF004
:10B4180087C07DF088C07EF01200120007EEC9F0E8
:10B4280015EE6EF0EE6AE550E150FCE1E250FAE10B
:10B4380006EE00F0800EEE6AE806FDE105EE00F08B
:10B44800BF0EEE6AE806FDE104EE00F0E20EEE6AD9
:10B45800E806FDE103EE00F0D10EEE6AE806FDE134
:10B4680002EE00F0A40EEE6AE806FDE101EEB3F08C
:10B47800330EEE6AE806FDE100EEA3F0340EEE6A44
:10B48800E806FDE100EE2CF0240EEE6AE806FDE188
:10B49800AE0EF66ECD0EF76E000EF86E07EE00F0EB
:10B4A80010EEC9F00900F5CFEEFFE550E150FAE1E2
:10B4B800480EF66EF90EF76E000EF86E03EEF2F017
:10B4C80010EE08F00900F5CFEEFFE550E150FAE183
:10B4D800900EF66EEB0EF76E000EF86E02EEA4F00C
:10B4E80010EE5BF00900F5CFEEFFE550E150FAE110
:10B4F800160EF66EF80EF76E000EF86E01EEE6F018
:10B5080010EE12F00900F5CFEEFFE550E150FAE138
:10B51800AF0EF66EF90EF76E000EF86E00EED7F06D
:10B5280010EE06F00900F5CFEEFFE550E150FAE124
:10B53800A80EF66EF90EF76E000EF86E00EE50F0DB
:10B5480010EE07F00900F5CFEEFFE550E150FAE103
:10B55800000EF86E0001F6EF04F00001C151D8A406
:10B5680004D00001CD51D8B403D0000E12008AD007
:10B5780002014A510201D8A485D0C7C000F10101D7
:10B58800016B23C102F10101036BC90E0101046FB4
:10B59800000E056F000E066F000E076F7AEC73F051
:10B5A800010100510101246F010124510101D8A4B6
:10B5B80002D0000E1200000E01010E6F010124518D
:10B5C800010D000EF324D96E070EF420DA6EDF5059
:10B5D80067EC7AF0D3A60FD0040E01010C6F010EB0
:10B5E8004BEC5FF00001A35101010C250101256F0F
:10B5F8000001A45114D0040E01010C6F010E4BEC94
:10B608005FF00001A35101010C270001A4510101C1
:10B618000D23E60E01010C250101256FFF0E010126
:10B628000D210101266F00D0B4EC7CF020C1D9FFB8
:10B6380021C1DAFFDF6E010120EE02F02051D92688
:10B648002151DA2225C1DFFF010120EE01F020514E
:10B65800D9262151DA2201012651DF6E20C117F1C6
:10B6680021C118F101012251030F0101196F010EC7
:10B6780001011A6F1BEC4EF0010E02014A6F010E18
:10B68800120000D0000E120012000101056F80D0D8
:10B69800000E0101006F010E04EC78F0E40E00D0FA
:10B6A80000D0E82EFCD700D000D00201A4511F0B17
:10B6B80080090201A46FA4C202F1000EF9EC78F02F
:10B6C800800E0101C36F0B0E0101046F620EE82E9C
:10B6D800FED7042FFCD700D012000201A4511F0B83
:10B6E80060090201A46FA4C202F1000EF9EC78F01F
:10B6F800D5C000F1000E04EC78F0600E0101C36FB4
:10B708001200000E0101006F000E04EC78F0020137
:10B71800A4511F0B20090201A46FA4C202F1000E5C
:10B72800F9EC78F0680E0101046FE40EE82EFED7FC
:10B73800042FFCD700D0200E0101C36F1200000EA9
:10B748000101006F000E04EC78F00201A4511F0BF8
:10B7580040090201A46FA4C202F1000EF9EC78F0CE
:10B76800400E0101C36F1200000E0101006F000EB0
:10B7780004EC78F00201A4511F0B0201A46F000E23
:10B788000101C36FA4C202F1000EF9EC78F01200B7
:10B7980001010551000AD8B4E7D7200AD8B4B1D7B7
:10B7A800600AD8B4CCD7200AD8B497D7E00AD8A46E
:10B7B80012006ED7120006C1D9FF07C1DAFFDE04F6
:10B7C800D8A489D0050E0101086585D0F90E0101BC
:10B7D80008250101006F0101016BFF0E0123000E16
:10B7E8000101036F050E026FE3EC69F001010051DE
:10B7F80001010111D8A46FD0FF0E0101096FFF0EDE
:10B8080001010A6F0101085101010B6F0C6B010165
:10B81800095101010B2701010A5101010C23010102
:10B828000B5101010625D96E01010C5101010721B7
:10B83800DA6E0001CA51DE18D8B420D0FF0E01011B
:10B84800096FFF0E01010A6F0101085101010B6F19
:10B858000C6B0101095101010B2701010A5101017A
:10B868000C2301010B5101010625D96E01010C5170
:10B8780001010721DA6EDE28D8A403D0010E1200D8
:10B888002AD00001CA29D8A423D0FF0E0101096FCC
:10B89800FF0E01010A6F0101085101010B6F0C6BCA
:10B8A8000101095101010B2701010A5101010C2372
:10B8B80001010B5101010625D96E01010C5101014D
:10B8C8000721DA6EDE28D8B403D0020E120003D0A6
:10B8D800000E120000D0000E12001200000E00012F
:10B8E800C86F3E0E010108611200200E49EC5BF0A2
:10B8F800800E49EC5BF001010851020FF7EC7BF078
:10B908000001B551F7EC7BF0000E01010A6F21D060
:10B9180001010A51010DF35001010625D96EF450B9
:10B9280001010721DA6EDF500001C8190001C86F54
:10B9380001010A51010DF35001010625D96EF45099
:10B9480001010721DA6EDF50F7EC7BF001010A2BC9
:10B9580000D00101085101010A5DD8A0D9D7000122
:10B96800C851F7EC7BF000D0ACA2FED7240EA0ECB7
:10B978007BF000D0ACA2FED7240EA0EC7BF000D068
:10B98800ACA2FED701010851050FA0EC7BF000D056
:10B99800ACA2FED7C00EA0EC7BF0000E0101096F2F
:10B9A80014D000D0ACA2FED701010951010DF3500B
:10B9B80001010625D96EF45001010721DA6EDF5026
:10B9C800A0EC7BF00101092B00D001010851010115
:10B9D800095DD8B002D0E6D700D0ACA2FED70001EE
:10B9E800C851A0EC7BF000D0ACA2FED70D0EA0ECA5
:10B9F8007BF000D0ACA2FED70A0EA0EC7BF01200C0
:10BA080012000101000501010111D8A42AD000018A
:10BA1800BD51D8A4120001D01200010E0001BD6F63
:10BA2800000E0001A725D96E060E0001A821DA6EC6
:10BA380002C1DFFF0001A74BA82B0001A8BF0DD052
:10BA48000001A85105E1800E0001A75DD8A005D02E
:10BA5800000E0001A86F000EA76F000E0001BD6F59
:10BA68001200020E0101001901010111D8A42AD007
:10BA78000001BE51D8A4120001D01200010E00012D
:10BA8800BE6FC90E0001A925D96E070E0001AA21B3
:10BA9800DA6E02C1DFFF0001A94BAA2B0001AABF81
:10BAA8000DD0800E0001A95D010E0001AA59D8A091
:10BAB80005D0000E0001AA6F000EA96F000E00014C
:10BAC800BE6F1200040E0101001901010111D8A472
:10BAD80012000001AE51D8A4120001D01200010ECC
:10BAE8000001AE6F000E0001A525D96E040E0001FD
:10BAF800A621DA6E02C1DFFF0001A54BA62B0001CB
:10BB0800A6BF0DD00001A65105E1270E0001A55DD5
:10BB1800D8A005D0000E0001A66F000EA56F000E7C
:10BB28000001AE6F120012000001600500016111F2
:10BB3800D8A42AD00001BD51D8A4120001D0120007
:10BB4800010E0001BD6F000E0001A725D96E060E7B
:10BB58000001A821DA6E62C0DFFF0001A74BA82B05
:10BB68000001A8BF0DD00001A85105E1800E000119
:10BB7800A75DD8A005D0000E0001A86F000EA76F22
:10BB8800000E0001BD6F1200020E000160190001D5
:10BB98006111D8A42AD00001BE51D8A4120001D046
:10BBA8001200010E0001BE6FC90E0001A925D96E51
:10BBB800070E0001AA21DA6E62C0DFFF0001A94B5F
:10BBC800AA2B0001AABF0DD0800E0001A95D010EAD
:10BBD8000001AA59D8A005D0000E0001AA6F000ED6
:10BBE800A96F000E0001BE6F1200040E000160195B
:10BBF80000016111D8A412000001AE51D8A41200AE
:10BC080001D01200010E0001AE6F000E0001A52543
:10BC1800D96E040E0001A621DA6E62C0DFFF0001B2
:10BC2800A54BA62B0001A6BF0DD00001A65105E12A
:10BC3800270E0001A55DD8A005D0000E0001A66F53
:10BC4800000EA56F000E0001AE6F12001200010178
:10BC580003510101D8B408D00101005101010111BB
:10BC680001010211D8A413D0000E0101006F000ECB
:10BC78000101016F000E0101026F120008D00101DD
:10BC8800032B0101D89002330133003300D0000E9A
:10BC9800010100150101056F000E010101150101E7
:10BCA800066FFE0E010102150101076F0101055122
:10BCB8000101061101010711D8B413D0E0D711D042
:10BCC8000101032B010E01010027000E01010123D0
:10BCD800000E010102230101D89002330133003321
:10BCE80000D0000E010100150101056F000E0101D1
:10BCF80001150101066FFF0E010102150101076F11
:10BD0800010105510101061101010711D8B40AD03A
:10BD1800D7D708D0010103070101D89000370137B0
:10BD2800023700D0010101BF05D0020E01010361F5
:10BD3800F1D700D0010103B103D00101019F00D068
:10BD48000101D890033301010351010102130101DC
:10BD580004510101D8B403D00101028F00D000C101
:10BD680000F101C101F102C102F11200120000014B
:10BD780063510001D8B408D000016051000161117D
:10BD880000016211D8A413D0000E0001606F000EEC
:10BD98000001616F000E0001626F120008D00001FF
:10BDA800632B0001D89062336133603300D0000EFA
:10BDB800000160150001656F000E000161150001AA
:10BDC800666FFE0E000162150001676F0001655184
:10BDD8000001661100016711D8B413D0E0D711D063
:10BDE8000001632B010E00016027000E0001612392
:10BDF800000E000162230001D89062336133603382
:10BE080000D0000E000160150001656F000E0001F2
:10BE180061150001666FFF0E000162150001676F72
:10BE2800000165510001661100016711D8B40AD0FC
:10BE3800D7D708D0000163070001D8906037613771
:10BE4800623700D0000161BF05D0020E00016361B6
:10BE5800F1D700D0000163B103D00001619F00D089
:10BE68000001D8906333000163510001621300019F
:10BE780064510001D8B403D00001628F00D060C0C3
:10BE880060F061C061F062C062F01200120001014E
:10BE9800126F01011205D8A416D0CECF13F10101FB
:10BEA800146BCFCF15F10101166B0101155101017A
:10BEB800166F156B0101135101011527010114516A
:10BEC8000101162300D0030E01011219D8A416D0BF
:10BED800B2CF13F10101146BB3CF15F10101166B49
:10BEE800010115510101166F156B01011351010173
:10BEF8001527010114510101162300D001010C512D
:10BF08000101D8A435D015C10EF116C10FF10101F8
:10BF18000E1F0F1F0E4B0F2BFF0E01010E250101E7
:10BF2800106FFF0E01010F210101116F10C100F107
:10BF380011C101F10101026B036BE80E0101046FED
:10BF4800030E056F000E066F000E076F88EC72F087
:10BF5800100E07D00101D8900333023301010133D9
:10BF68000033E82EF7D700C10CF101C10DF1120022
:10BF780015C10EF116C10FF101010E1F0F1F0E4B57
:10BF88000F2BFF0E01010E2501010C6FFF0E0101A1
:10BF98000F2101010D6F120012000001706F0001E6
:10BFA8007005D8A416D0CECF73F00001746BCFCF34
:10BFB80075F00001766B000175510001766F756BA5
:10BFC80000017351000175270001745100017623A7
:10BFD80000D0030E00017019D8A416D0B2CF73F0A8
:10BFE8000001746BB3CF75F00001766B00017551D9
:10BFF8000001766F756B0001735100017527000110
:10C0080074510001762300D000016C510001D8A4BE
:10C0180035D075C06EF076C06FF000016E1F6F1FCF
:10C028006E4B6F2BFF0E00016E250001716FFF0E26
:10C0380000016F210001726F71C060F072C061F081
:10C048000001626B636BE80E0001646F030E656F9D
:10C05800000E666F000E676FC5EC72F0100E07D009
:10C068000001D89063336233000161336033E82EF6
:10C07800F7D760C06CF061C06DF0120075C06EF04B
:10C0880076C06FF000016E1F6F1F6E4B6F2BFF0E97
:10C0980000016E2500016C6FFF0E00016F21000189
:10C0A8006D6F120012000001CB510001D8A404D01A
:10C0B800010E0001CB6F00D0CBC007F1000E0101CB
:10C0C8000A6F5DD0000E0101096F000E086F2CD0B9
:10C0D80001010A51010DF35001010025D96EF450F8
:10C0E80001010121DA6E0001CB51010DF20EF3249A
:10C0F800E16E030EF420E26EE7500101046F0101C6
:10C108000A51010DF35001010025E16EF4500101BF
:10C118000121E26EE7500101042501010A25DF6EC5
:10C128000101084B092B00D00001CB51010DF20E83
:10C13800F324D96E030EF420DA6EDF50070B0101E9
:10C14800046F056B010104510101085D01010951EA
:10C15800800A0101066F01010551800A0101065993
:10C16800D8A0B6D70001CB2B070E0001CB6504D0B1
:10C17800000E0001CB6F00D001010A2B00D0010195
:10C188000A510101046F056B010102510101045DAF
:10C1980001010551800A0101066F01010351800A5E
:10C1A80001010659D8A08ED70101075112001200CB
:10C1B800000E0101116F000E0101106F000E0F6FCC
:10C1C800000E0101136F000E126F000E0101006FC7
:10C1D800040EE8EC76F0000E0101136F000E126FEA
:10C1E800000E0101116F090E0101116501D023D064
:10C1F800E1EC7CF000D06EEC7CF00009D8A4FBD711
:10C20800C4500101106F0F6BC35001010F13040ECE
:10C218000101116509D001010F5101011227010126
:10C2280010510101132300D00A0EE82EFED700D0CA
:10C238000101112BD8D712C106F113C107F1000E65
:10C248000101096F050E086F0DEC71F006C112F1BE
:10C2580007C113F1020E0101006F040EE8EC76F03D
:10C26800C29012C100F113C101F1000E0101036F68
:10C27800070E026FA6EC78F000C106F101C107F1C4
:10C28800000E0101096F060E086F0DEC71F006C172
:10C2980012F107C113F10101D1510101125F000E22
:10C2A8000101D1BFFF0E0101135B12C10DF113C1D2
:10C2B8000EF112001200000E0101096F010103AF17
:10C2C8000DD00101031F021F011F006D000E012385
:10C2D80002230323010E0101096F00D0010107AFFA
:10C2E8000AD00101071F061F051F046D000E052354
:10C2F8000623072300D001010451010105110101A2
:10C30800061101010711D8B43FD0010E0101086FD1
:10C3180009D00101D89004370537063707370101DE
:10C32800082B00D0010107BF02D0F3D700D00101CC
:10C3380004510101005D010105510101015901018B
:10C348000651010102590101075101010359D8A001
:10C3580011D0010104510101005F010105510101E2
:10C36800015B010106510101025B01010751010155
:10C37800035B00D00101D89007330633053304333B
:10C388000101082FD4D700D0010109510101D8B407
:10C398000AD00101031F021F011F006D000E0123B7
:10C3A8000223032300D000C100F101C101F102C141
:10C3B80002F103C103F1120012000101086FFA0E25
:10C3C8000101086178D008C109F101010A6B09C1AE
:10C3D80006F10AC107F10101D890063707370101B4
:10C3E800D8900637073706C109F107C10AF104C119
:10C3F800D9FF05C1DAFF09C102F10AC103F158ECFE
:10C408007CF00101076FDE5001010719D8A451D053
:10C41800010120EE01F00451D9260551DA22010E5E
:10C42800010109250101026F000E01010A21010124
:10C43800036F58EC7CF00101076FDE50010107190A
:10C44800D8A437D0010120EE02F00451D9260551B5
:10C45800DA22020E010109250101026F000E010115
:10C468000A210101036F58EC7CF00101076FDE50CF
:10C4780001010719D8A41DD0010120EE03F00451D1
:10C48800D9260551DA22030E010109250101026F9F
:10C49800000E01010A210101036F58EC7CF0010133
:10C4A800076FDE5001010719D8A403D0010E12004E
:10C4B80000D0000E1200000E12001200010E000142
:10C4C800D36F000E59EC7BF0000E0001D56FFF0E04
:10C4D800C3EC76F0000ED4EC7BF0080E86EC7CF012
:10C4E800D9C1F4F1DAC1F5F1DBC1F6F1DCC1F7F13C
:10C4F800D3C038F1C4EC7CF0030E0101016FEF0EDC
:10C50800006FA8EC7CF00101026F32EC77F0C4EC0C
:10C518007CF0030E0101016FFC0E006FACEC7CF0A7
:10C528000101026F32EC77F0C4EC7CF0030E0101DC
:10C53800016FFD0E006F38C102F132EC77F0C4ECE8
:10C548007CF0030E0101016FFE0E006FCAC002F1FC
:10C5580032EC77F0C4EC7CF0030E0101016FE80EB9
:10C56800006FFF0E0101026F32EC77F0C4EC7CF033
:10C57800030E0101016FE90E006FFF0E0101026F4A
:10C5880032EC77F0C4EC7CF0030E0101016FEA0E87
:10C59800006FFF0E0101026F32EC77F0C4EC7CF003
:10C5A800030E0101016FEB0E006FFF0E0101026F18
:10C5B80032EC77F0120001011F6FFA0E01011F61C2
:10C5C8004FD01B0E01010C6F010E01010D6F01010F
:10C5D8001F51A0EC6BF01B0E0101066F010E01014B
:10C5E800076F14C108F115C109F1040E01010A6FA2
:10C5F8009DEC76F001011F51020DC90EF324D96E8E
:10C60800090EF420DA6EDF503F0B01011A6F0101A9
:10C618001A51060DBD0EF3240101066F0B0EF4200E
:10C628000101076F16C108F117C109F1040E0101D4
:10C638000A6F9DEC76F001011F51020D010EF326E1
:10C64800000EF422C90EF324D96E090EF420DA6E16
:10C65800DF501F0B18C1D9FF19C1DAFFDF6E1200B6
:10C66800D90E0101066F010E0101076F14C108F10F
:10C6780015C109F1040E01010A6F9DEC76F0D90E7F
:10C688000101066F010E0101076F16C108F117C1FC
:10C6980009F1040E01010A6F9DEC76F018C1D9FF6B
:10C6A80019C1DAFFFF0EDF6E1200120001010D6FD3
:10C6B80001010D5114EC7AF00DC100F10101016B7B
:10C6C80001010651050F0101026F05EC5DF007C17C
:10C6D80008F1060E01010827020E0101096F010188
:10C6E800082B03D00101D89009370101082FFAD788
:10C6F8000101095101010A6F0DC100F10101016B2E
:10C708000AC102F105EC5DF0000E01010B6F000E8D
:10C7180001010C6F25D00DC100F10101016B010170
:10C728000C51010DF35001010425D96EF45001019B
:10C738000521DA6EDF500101026F05EC5DF00101A1
:10C748000C51010DF35001010425D96EF45001017B
:10C758000521DA6EDF5001010B1B01010C2B00D003
:10C768000101065101010C5DD8A0D5D70DC100F11A
:10C778000101016B0BC102F105EC5DF00DC100F187
:10C788000101016B0D0E0101026F05EC5DF00DC199
:10C7980000F10101016B0A0E0101026F05EC5DF069
:10C7A8001200000E01010A6F5ED0000E0101096F30
:10C7B800000E086F2DD001010A51010DF35001013F
:10C7C8000025D96EF45001010121DA6E01010A51E8
:10C7D800010DF35001010025E16EF4500101012122
:10C7E800E26EE7500101056F01010451010DF20EDF
:10C7F800F324E16E030EF420E26EE75001010A25EE
:10C80800000801010525DF6E0101084B092B00D046
:10C8180001010451010DF20EF324D96E030EF42028
:10C82800DA6EDF50070B0101056F066B0101055138
:10C838000101085D01010951800A0101076F010129
:10C848000651800A01010759D8A0B5D70101042B68
:10C85800070E0101046504D0000E0101046F00D029
:10C8680001010A2B00D001010A510101056F066B75
:10C87800010102510101055D01010651800A010112
:10C88800076F01010351800A01010759D8A08DD70C
:10C898001200030E01013D250101416F000E010147
:10C8A8003E210101426F3BC106F13CC107F19BECFF
:10C8B8006CF00101406F3BC106F13CC107F141C179
:10C8C80008F142C109F1040E01010A6F9DEC76F0EE
:10C8D800DD0E0101066F010E0101076F040E010153
:10C8E80041250101086F000E010142210101096F74
:10C8F800040E01010A6F9DEC76F0020E0101C519C4
:10C90800D8A410D041C104F142C105F101013F5141
:10C91800080F0101066F000E0101076F020E5AECA5
:10C9280063F000D03BC106F13CC107F1D90E01010B
:10C93800086F010E0101096F040E01010A6FF6EC80
:10C9480075F00009D8A40ED03DC120F13EC121F1F7
:10C9580001013F51080F0101226F40C123F1B1ECE1
:10C968005AF012003DC135F13EC136F101013F5187
:10C97800080F0101376FC3EC56F01200120010C106
:10C9880006F111C107F10EC108F10FC109F1040E3A
:10C9980001010A6F9DEC76F0DD0E0101006F010EBA
:10C9A8000101016F000E0101026F0EC103F10FC1F9
:10C9B80004F1040E0101056F040E0101066F1AEC63
:10C9C8006FF0010120EE08F00E51D9260F51DA223E
:10C9D800030EDF6E010120EE09F00E51D9260F512A
:10C9E800DA22000EDF6E010120EE0AF00E51D92680
:10C9F8000F51DA22000EDF6EDD0E0101006F010E0D
:10CA08000101016F000E0101026F0EC103F10FC198
:10CA180004F10B0E0101056F040E0101066F1AECFB
:10CA28006FF010C100F111C101F1000E0101026F98
:10CA38000EC103F10FC104F10F0E0101056F040EC1
:10CA48000101066F1AEC6FF0010120EE13F00E5190
:10CA5800D9260F51DA22000EDF6E1200010119519A
:10CA68000101175D01011A5101011859D8B045D0CB
:10CA78000101195101011F6F01011A510101206FB4
:10CA88000101216B0101226B01011F1F201F211FC2
:10CA9800221F1F2B000E20232123222301011751BF
:10CAA80001011F250101236F0101185101012021F6
:10CAB8000101246F000E010121210101256F000EE3
:10CAC800010122210101266F01011B5101012325CA
:10CAD8000101276F01011C51010124210101286F67
:10CAE80001011D51010125210101296F01011E517B
:10CAF8000101262101012A6F19D019C11FF11AC19C
:10CB080020F101011F1F201F1F4B202B010117516E
:10CB180001011F2701011851010120231FC127F11D
:10CB280020C128F10101296B2A6B00D027C117F118
:10CB380028C118F1120012000101126F01011251EF
:10CB48000101D8A40DD0D6CF13F10101146BD7CFB2
:10CB580015F111D0010115510101166F156B0ED099
:10CB6800030E01011219D8A412D0B2CF13F101019A
:10CB7800146BB3CF15F10101166BECD701011351FA
:10CB880001011527010114510101162300D00101EB
:10CB98000C510101D8A435D015C10EF116C10FF101
:10CBA80001010E1F0F1F0E4B0F2BFF0E01010E254B
:10CBB8000101106FFF0E01010F210101116F10C15A
:10CBC80000F111C101F10101026B036BE80E0101D3
:10CBD800046F030E056F000E066F000E076F88ECDA
:10CBE80072F0100E07D00101D8900333023301010F
:10CBF80001330033E82EF7D700C10CF101C10DF164
:10CC0800120015C10CF116C10DF11200000E010140
:10CC1800056F010103AF09D00101026D031FD8B0F0
:10CC2800032B010E0101056F00D0010101AF09D0EE
:10CC38000101006D011FD8B0012B010E0101051B78
:10CC480000D0000E0101076F000E066F01010251AE
:10CC580001010311D8B431D0010E0101046F07D0CE
:10CC68000101D890023703370101042B00D00101DC
:10CC780003BF02D0F5D700D00101D8900637073797
:10CC8800010102510101005D010103510101015936
:10CC9800D8A00BD0010102510101005F010103512D
:10CCA8000101015B0101068100D00101D890033325
:10CCB80002330101042FE0D700D001010551010121
:10CCC800D8B406D00101066D071FD8B0072B00D0D5
:10CCD80006C100F107C101F1120012000101026F43
:10CCE80001010251060D050EF326000EF422BD0EB9
:10CCF800F324D96E0B0EF420DA6EDE28D8A410D0F7
:10CD080001010251060D050EF326000EF422BD0E98
:10CD1800F324D96E0B0EF420DA6E00C1DFFF120087
:10CD280001010251060D050EF326000EF422BD0E78
:10CD3800F324D96E0B0EF420DA6E01010051DE5C8B
:10CD4800D8B00FD001010251060D050EF326000ED2
:10CD5800F422BD0EF324D96E0B0EF420DA6EDF2A0E
:10CD6800120001010251060D050EF326000EF422F1
:10CD7800BD0EF324D96E0B0EF420DA6EDE500101DD
:10CD8800005DD8B0120001010251060D050EF32610
:10CD9800000EF422BD0EF324D96E0B0EF420DA6EC9
:10CDA800DF061200120000010203040A0B0C0D0E2C
:10CDB80014151617181E1F20212228292A2B2C0586
:10CDC800060708090F10111213191A1B1C1D23241A
:10CDD8002526272D2E2F30310031302F2E2D2726B6
:10CDE8002524231D1C1B1A19131211100F090807DB
:10CDF80006052C2B2A29282221201F1E1817161554
:10CE0800140E0D0C0B0A0403020100010203040AAC
:10CE18000B0C0D0E14151617181E1F202122282979
:10CE28002A2B2C05060708090F10111213191A1BB3
:10CE38001C1D23242526272D2E2F30310031302F7D
:10CE48002E2D27262524231D1C1B1A1913121110F9
:10CE58000F09080706052C2B2A29282221201F1E26
:10CE680018171615140E0D0C0B0A04030201000006
:10CE7800000E0101086F000E096F000E0A6F000E08
:10CE88000B6F010104510101051101010611010196
:10CE98000711D8B447D0010E01010C6F09D0010168
:10CEA800D890043705370637073701010C2B00D017
:10CEB800010107BF02D0F3D700D00101D89008378D
:10CEC80009370A370B37010104510101005D0101DF
:10CED80005510101015901010651010102590101E0
:10CEE800075101010359D8A013D0010104510101D0
:10CEF800005F010105510101015B010106510101BA
:10CF0800025B010107510101035B0101088100D0A7
:10CF18000101D890073306330533043301010C2F80
:10CF2800CCD700D008C100F109C101F10AC102F152
:10CF38000BC103F11200000E0001686F000E696F4B
:10CF4800000E6A6F000E6B6F0001645100016511DD
:10CF58000001661100016711D8B447D0010E000125
:10CF68006C6F09D00001D89064376537663767372A
:10CF780000016C2B00D0000167BF02D0F3D700D0AE
:10CF88000001D890683769376A376B3700016451F8
:10CF98000001605D000165510001615900016651A1
:10CFA800000162590001675100016359D8A013D0EC
:10CFB800000164510001605F000165510001615B7F
:10CFC800000166510001625B000167510001635B6B
:10CFD8000001688100D00001D8906733663365335B
:10CFE800643300016C2FCCD700D068C060F069C0F2
:10CFF80061F06AC062F06BC063F012001B6E4250B1
:10D00800D8B41FD01B50D8B40CD0FF0E36240E6EE7
:10D01800FF0E37200F6E040E106E010E5CEC50F000
:10D028000AD036C00EF037C00FF0040E106E010E95
:10D038005CEC50F000D0070E376E3668000E426E7A
:10D0480000D0010E0001A3250001A36FF80E000116
:10D05800A4210001A46F2C06D8A02D062C502D1059
:10D06800D8A40ED0000E2D6E100E2C6E12C2A3F096
:10D0780013C2A4F07F0E0201136FF00E126F0BD0D3
:10D088002C042D10D8A407D0010E426EA3C036F090
:10D09800A4C037F000D00001C72BC80E0001C76537
:10D0A80004D0000E0001C76F00D00201142904E16A
:10D0B80002011529D8B412000201144B152B1200D5
:10D0C8001200000E0101146F800E0101156F3F0E52
:10D0D8000101166FF8C108F1F9C109F1FAC10AF1A5
:10D0E800FBC10BF18FEC71F008C111F109C112F10C
:10D0F8000AC113F1C0EC58F011C132F112C133F179
:10D1080013C134F132C111F133C112F134C113F139
:10D11800E6C108F1E7C109F1E8C10AF1E9C10BF17B
:10D128008FEC71F008C114F109C115F10AC116F1AB
:10D13800C0EC58F011C12FF112C130F113C131F117
:10D14800000E01010B6F7A0E01010C6F440E0101F4
:10D158000D6F2FC108F130C109F131C10AF142EC5C
:10D1680053F008C120F109C121F10AC122F117ECDD
:10D1780058F020C108F221C109F222C10AF223C1E4
:10D188000BF21200000E0101156F000E146F010161
:10D1980015BF0AD0010115513CE10A0E0101145DC9
:10D1A800D8B037D001D035D0DCEC60F00DC1ABF091
:10D1B8000EC1ACF00001ACBF0ED0230E0001AB5D78
:10D1C8000C0E0001AC59D8A006D00001AB51DE0FFF
:10D1D8000101D12712D00001ACBF08D01C0E0001FC
:10D1E800AB5D0C0E0001AC59D8B007D00001AB51B3
:10D1F80000081C0F0101D15F00D0020E0101016F70
:10D208008A0E006FFFEC74F00101144B152BBFD789
:10D2180000D00101D151800A9F0FD8A0120001014E
:10D22800D151800A600FD8B01200C4EC7CF0030E14
:10D238000101016FF00E006FD1C102F132EC77F0FD
:10D248001200120000018E6F8EC0D6F0D6C060F0BA
:10D258000001616B000E0001636F070E626F3DEC09
:10D268006AF00001605102014B6F880E0001D6651B
:10D2780004D0280E0001D66F1200000E00016F6F57
:10D28800000E0001706F3F0E0001716FDA0E000191
:10D298008A6FFF0E00018B6F0001D65100018C6F61
:10D2A8008D6B00018A5100018C2700018B51000110
:10D2B8008D2300018C1F8D1F8C4B8D2B640E00015C
:10D2C8008C250001686F000E00018D210001696F37
:10D2D80056EC77F068C06CF069C06DF06AC06EF00B
:10D2E800F8EC53F06CC07BF06DC07CF06EC07DF044
:10D2F80069EC59F000017B51280F0001D66F12002C
:10D308001200D4C200F1D5C201F1D6C202F1D7C2CF
:10D3180003F1D8C204F1D9C205F1DAC206F1DBC2C1
:10D3280007F188EC72F000C1D4F201C1D5F202C154
:10D33800D6F203C1D7F2390E0201D427300ED52315
:10D34800000ED623000ED723100E01010E6FD4C293
:10D358000FF1D5C210F1D6C211F1D7C212F10101F5
:10D368000E6701D009D00101123512331133103381
:10D378000F3301010E2FF3D7FF0E01010F15010125
:10D38800006F7F0E010110150101016F000E0101F0
:10D3980011150101026F000E010112150101036F41
:10D3A8000CC104F10DC105F10101066B076B5FECBF
:10D3B80061F000C10CF101C10DF112001200000E64
:10D3C8000101056F010101AF09D00101006D011FC5
:10D3D800D8B0012B010E0101056F00D0010103AF88
:10D3E80006D00101026D031FD8B0032B00D0010144
:10D3F800025101010311D8B42BD0010E0101046FB1
:10D4080007D00101D890023703370101042B00D05F
:10D41800010103BF02D0F5D700D00101025101017B
:10D42800005D0101035101010159D8A009D0010192
:10D4380002510101005F010103510101015B00D0AC
:10D448000101D890033302330101042FE6D700D03D
:10D45800010105510101D8B406D00101006D011F79
:10D46800D8B0012B00D000C100F101C101F11200B8
:10D478001200000E0001656F000161AF09D00001C4
:10D48800606D611FD8B0612B010E0001656F00D07F
:10D49800000163AF06D00001626D631FD8B0632B33
:10D4A80000D00001625100016311D8B42BD0010EE5
:10D4B8000001646F07D00001D8906237633700011C
:10D4C800642B00D0000163BF02D0F5D700D0000163
:10D4D80062510001605D0001635100016159D8A0EB
:10D4E80009D0000162510001605F00016351000131
:10D4F800615B00D00001D890633362330001642F70
:10D50800E6D700D0000165510001D8B406D000016B
:10D51800606D611FD8B0612B00D060C060F061C041
:10D5280061F0120012000EC100F10FC101F1000EEE
:10D538000101026F0EC103F10FC104F1080E0101D0
:10D54800056F080E0101066FCFEC71F00009D8B421
:10D5580012000EC100F10FC101F1080E0101026FA6
:10D568000EC103F10FC104F1100E0101056F080E81
:10D578000101066FCFEC71F00009D8B41200000E5B
:10D588000101106F070E0101106501D01DD0C4EC18
:10D598007CF0F40E010110250101006F0101016BFF
:10D5A800030E01230101105101010E25D96E01015D
:10D5B800000E01010F21DA6EDF500101026F32EC1B
:10D5C80077F00101102BDED70EC100F10FC101F178
:10D5D800CDEC6EF012001200000E0101106F000E6B
:10D5E8000F6F010110BF0AD0010110514AE1FA0E74
:10D5F80001010F5DD8B045D001D043D00BC104F173
:10D608000CC105F101010F51E1EC61F00009D8B43A
:10D6180033D00FC10DF110C10EF1D89001010D37B3
:10D628000E37010E01010D27000E0E23C90E010150
:10D638000D25D96E090E01010E21DA6EDF501F0B80
:10D648001F0AD8B419D00FC10DF110C10EF1D8902E
:10D6580001010D370E37010E01010D27000E0E23B3
:10D66800C90E01010D25D96E090E01010E21DA6ED0
:10D67800DF38E832070B120001010F4B102BB1D72E
:10D6880000D0000E12001200EACF1FF0E1CF20F008
:10D69800E2CF21F0D9CF22F0DACF23F0F3CF24F074
:10D6A800F4CF25F0F6CF26F0F7CF27F0F8CF28F003
:10D6B800F5CF29F09EB09DA022D09E90F80E2B6E3B
:10D6C800000E2A6E2B50CF6ED3B603D0010E4C6ECF
:10D6D80000D04C5002EC68F0010E0101BF6F02014E
:10D6E800632B0001CD51D8B404D002011E4B1F2B6F
:10D6F80006D0000E02011F6F000E1E6F00D029C059
:10D70800F5FF28C0F8FF27C0F7FF26C0F6FF25C0A1
:10D71800F4FF24C0F3FF23C0DAFF22C0D9FF21C0E1
:10D72800E2FF20C0E1FF1FC0EAFF1EC0E9FF1DC0E5
:10D73800FBFF1CC0FAFF11000101106FFA0E010176
:10D7480010613ED010C111F10101126B11C10EF12F
:10D7580012C10FF10101D8900E370F370101D8908F
:10D768000E370F370EC111F10FC112F1000E010172
:10D77800136F030E0101136502D01200120001019C
:10D788001351010DF35001010C25D96EF45001011C
:10D798000D21DA6E01011351010111250101026FFA
:10D7A800000E010112210101036F58EC7CF0DF6EBD
:10D7B8000101132B030E01011365E1D712001200BA
:10D7C800D90E0101066F010E0101076F0CC108F1A6
:10D7D8000DC109F1040E01010A6F9DEC76F01200EB
:10D7E80012000101146F030E0101086F01011451A9
:10D7F800060D050EF326000EF422BD0EF324D96E95
:10D808000B0EF420DA6EDF50C7EC4BF00101136FFA
:10D8180001011451060D040EF326000EF422BD0E6C
:10D82800F324D96E0B0EF420DA6EDF380F0B47ECB9
:10D8380079F00101135DD8B012D001011451060D21
:10D84800040EF326000EF422BD0EF324D96E0B0E3F
:10D85800F420DA6EDF380F0B47EC79F01200030E74
:10D868000101086F01011451060D050EF326000E83
:10D87800F422BD0EF324D96E0B0EF420DA6EDF50BD
:10D88800C7EC4BF0120012000EC106F10FC107F1F0
:10D89800D90E0101086F010E0101096F040E010183
:10D8A8000A6FF6EC75F00009D8A41200000E010109
:10D8B800126F3E0E0101126502D012001200010122
:10D8C8001251060DBD0EF3240101066F0B0EF42054
:10D8D8000101076F0EC108F10FC109F1040E010122
:10D8E8000A6FF6EC75F00009D8B418D010C111F120
:10D8F80001011251060D040EF326000EF422BD0E8E
:10D90800F324D96E0B0EF420DA6E0101113BDF50BF
:10D91800010111190F0B1119DF6E12000101122BF1
:10D928003E0E01011265CBD7120012001200000E44
:10D9380001010E6F000E0D6F010120EE03F006517C
:10D94800D9260751DA22DF500101086F06C1D9FF35
:10D9580007C1DAFFDF500101096F0A6B010120EEF0
:10D9680001F00651D9260751DA22DF5001010B6F69
:10D9780001010B5101010927000E0A23010120EEC4
:10D9880002F00651D9260751DA22DF5001010C6F47
:10D9980001010C5101010927000E0A230101085158
:10D9A800010109250101006F0101000E01010A2191
:10D9B8000101016F000E0101036FC90E026FE3EC54
:10D9C80069F000C10DF101C10EF101010D51120004
:10D9D80012000101356F01013551DDEC4EF0000EEA
:10D9E8000101C76F000E0101D76F010E0201E76F39
:10D9F8007F0E0201136FF00E126F7F0E0001A46FED
:10DA0800F00EA36F000E2D6E100E2C6E070E010186
:10DA18000E6F0D69040E01010F6F010EF0EC4AF054
:10DA2800010E0001A3250001A36FF80E0001A42137
:10DA38000001A46F2C06D8A02D06070E376E366895
:10DA4800090E39EC7BF0000E01010D6F1E0E0C6FF4
:10DA580085EC69F05A0E01010C2501012F6F000EAB
:10DA680001010D210101306F010E0101316F0E0E10
:10DA780081EC70F01200100E0101446F18C10BF117
:10DA880019C10CF1400E01010D6F010E01010E6F5D
:10DA980058EC45F01D0E01011A6F2E0E01011B6F87
:10DAA800460E01011C6F480E01011D6F430E010156
:10DAB8001E6F010E0101066F000E076F020E086F40
:10DAC800000E096F0B0E01010A6F000E0B6F000E9E
:10DAD8000C6F000E0D6F1F0E01010E6F010E01017C
:10DAE8000F6F7FEC6EF018C10EF119C10FF11A0E0D
:10DAF8000101106F010E0101116F44C112F1000EF6
:10DB08000101136F010E0101146F000E0101156F61
:10DB180017EC4AF012001200100E0101446F18C1F0
:10DB28000BF119C10CF1400E01010D6F010E01013D
:10DB38000E6F58EC45F01D0E01011A6F2A0E0101F7
:10DB48001B6F410E01011C6F530E01011D6F460E24
:10DB580001011E6F010E0101066F000E076F020E14
:10DB6800086F000E096F0B0E01010A6F000E0B6F94
:10DB7800000E0C6F000E0D6F1F0E01010E6F010ECF
:10DB880001010F6F7FEC6EF018C10EF119C10FF192
:10DB98001A0E0101106F010E0101116F44C112F13B
:10DBA800000E0101136F010E0101146F000E010137
:10DBB800156F17EC4AF012001200000E0101416FB8
:10DBC8001AC11BF1F8C11CF1F9C11DF1FAC11EF10E
:10DBD800FBC11FF1E6C120F1E7C121F1E8C122F143
:10DBE800E9C123F1EAC124F1EBC125F1ECC126F129
:10DBF800EDC127F150C028F151C029F1EEC106F15D
:10DC0800EFC107F1000E0101096F640E086F0DECFA
:10DC180071F006C142F107C143F142C12AF143C183
:10DC28002BF1110E0101416F18C10EF119C10FF14D
:10DC38001B0E0101106F010E0101116F41C112F19C
:10DC4800000E0101136F010E0101146F000E010196
:10DC5800156F17EC4AF01200000E01014A6F0A0E08
:10DC6800496F010E01014B6F3E0E2DEC49F0020188
:10DC780017BF0CD00201175104E102011605D8A004
:10DC880005D002011607D8A0170700D00101C3511B
:10DC9800D8A402D0110E18D0020116510201171192
:10DCA800D8A418D00DEC77F00009D8B407D0010E2D
:10DCB8000201176F2C0E166F120E06D0000E02010D
:10DCC800176F1E0E166F100E0001B76F010E0201BE
:10DCD800586F00D04350D8A412006EEC22F093B6CF
:10DCE8001200020158510201D8B402D08A861200EB
:10DCF8008A9612001200000E0101106F000E116FBB
:10DD0800000E126F000E136F899E030EB0EC7AF0AE
:10DD180001010851B0EC7AF001010751B0EC7AF03A
:10DD280001010651B0EC7AF0000E0101106F000EEF
:10DD3800116F000E126F000E136F17D001011051F2
:10DD480001010E25D96E0101115101010F21DA6E71
:10DD5800BAEC7BF001010051DF6E010E01011027C2
:10DD6800000E11231223132300D001010A510101CF
:10DD7800105D01010B510101115901010C51010103
:10DD8800125901010D5101011359D8A0D7D7898E15
:10DD98001200000E0101036F070E0101036501D097
:10DDA80019D001010351010DF35001010025D96E6D
:10DDB800F45001010121DA6E01010351010DF20E47
:10DDC800F324E16E030EF420E26EDFCFE7FF0101DA
:10DDD800032BE2D7000E0101036F070E0101036553
:10DDE80002D01200120001010351010DF35001018C
:10DDF8000025D96EF45001010121DA6EDE28D8A47D
:10DE080009D0070E01010319D8A408D0000E01019A
:10DE1800C96F04D0010E0101C96F12000101032B63
:10DE2800070E01010365DFD712001200000E010181
:10DE38000D6F3FD0010102510DC107F10101086BBF
:10DE480001010727000E082300C109F101C10AF1E9
:10DE580001010751010109270101085101010A23A4
:10DE680009C1F6FF0AC1F7FF000EF86E010105515E
:10DE78000DC10BF101010C6B01010B27000E0C23E6
:10DE880001010B5101010325D96E01010C5101015A
:10DE98000421DA6E0E0EF76403D00800F55005D0A1
:10DEA800F6CFE9FFF7CFEAFFEF50DF6E01010D2B48
:10DEB80000D00101065101010D5DD8A0BBD71200A9
:10DEC80038EC7CF0899E020EB0EC7AF00101075123
:10DED800B0EC7AF001010651B0EC7AF0010105517D
:10DEE800B0EC7AF0000E01010F6F000E106F000EFB
:10DEF800116F000E126F15D001010F510101092594
:10DF0800D96E0101105101010A21DA6EDF50B0EC1F
:10DF18007AF0010E01010F27000E1023112312239E
:10DF280000D001010B5101010F5D01010C510101EC
:10DF3800105901010D510101115901010E51010141
:10DF48001259D8A0D9D7898E14EC7CF0120012008F
:10DF5800040E01010E250101066F000E01010F21BB
:10DF68000101076F10C108F111C109F1040E010187
:10DF78000A6F9DEC76F048EC7CF002C1D9FF03C132
:10DF8800DAFF12C1E1FF13C1E2FFDFCFE7FF0EC1E5
:10DF980006F10FC107F1D90E0101086F010E010149
:10DFA800096F040E01010A6FF6EC75F00009D8A498
:10DFB80012D00EC106F10FC107F1DD0E0101086F85
:10DFC800010E0101096F040E01010A6FF6EC75F0EC
:10DFD8000009D8B402D0010E1200000E120012007F
:10DFE80001010B6FFA0E01010B6112000BC10CF15C
:10DFF80001010D6B0CC109F10DC10AF10101D890A5
:10E0080009370A370101D89009370A3709C10CF1D5
:10E018000AC10DF1000E01010E6F030E01010E651C
:10E0280002D01200120001010E5101010C2501015C
:10E03800046F000E01010D210101056F01010E5150
:10E04800010DF35001010725D96EF4500101082193
:10E05800DA6EDF500101066F68EC7BF001010E2BD0
:10E06800030E01010E65DFD7120012001200ECEC5E
:10E078007BF00101046F0001CF51D8A41CD001012D
:10E088000429D8A403D004C1D0F007D00101042981
:10E098000001D06F0001D005486E400E0001D06528
:10E0A8000AD0400E0001D06F0001D005486E010E65
:10E0B80002015B6F00D00001D0510001CF5DD8B0E4
:10E0C8000ED00001CF51010D270EF324D96E040E96
:10E0D800F420DA6E04C1DFFF0001CF2B00D000016D
:10E0E800D0510001CF19D8A412000001D051D8B4E2
:10E0F8001200010E3B6E120012000101346F010183
:10E108002F291DE101013029D8A419D0010134516A
:10E11800020D000EF324D96E030EF420DA6EFF0E02
:10E12800DE6EFF0EDD6E01013451010D5A0EF3242F
:10E13800D96E030EF420DA6E31C1DFFF1200010E32
:10E1480001012F250101326F000E0101302101016B
:10E15800336F01013451020D000EF324D96E030E02
:10E16800F420DA6E32C1DEFF33C1DDFF0101345124
:10E17800010D5A0EF324D96E030EF420DA6E31C164
:10E18800DFFF12001200000E096E000E0A6E000E6C
:10E198000B6E000E0C6E0550061007100810D8B450
:10E1A8002FD0010E0D6E07D0D890053606360736EB
:10E1B80008360D2A00D008BE02D0F6D700D0D89075
:10E1C80009360A360B360C360550015C06500258E3
:10E1D8000750035808500458D8A00AD00550015ECB
:10E1E8000650025A0750035A0850045A098000D0B2
:10E1F800D89008320732063205320D2EE0D700D00B
:10E2080009C001F00AC002F00BC003F00CC004F012
:10E218001200000E01010C6F000E0B6F0101085176
:10E2280001010911D8B431D0010E01010A6F07D0DC
:10E238000101D8900837093701010A2B00D00101E4
:10E2480009BF02D0F5D700D00101D8900B370C37A1
:10E25800010108510101065D010109510101075938
:10E26800D8A00BD0010108510101065F0101095135
:10E278000101075B01010B8100D00101D89009332E
:10E28800083301010A2FE0D700D00BC106F10CC1F9
:10E2980007F11200000E0001666F000E656F0001A5
:10E2A800625100016311D8B431D0010E0001646FCE
:10E2B80007D00001D890623763370001642B00D083
:10E2C800000163BF02D0F5D700D00001D8906537B0
:10E2D8006637000162510001605D00016351000171
:10E2E8006159D8A00BD0000162510001605F0001A4
:10E2F80063510001615B0001658100D00001D89085
:10E30800633362330001642FE0D700D065C060F04A
:10E3180066C061F012008E0E0101106F09D0010174
:10E32800D8900B330A33093308330101102B00D07E
:10E33800000E0101081501010C6F000E01010915FD
:10E3480001010D6F000E01010A1501010E6FFF0E8C
:10E3580001010B1501010F6F01010C5101010D1194
:10E3680001010E1101010F11D8A4D9D708C100F17C
:10E3780009C101F10AC102F110C103F1000E010146
:10E38800046F2BEC5EF000C108F101C109F102C174
:10E398000AF112001200000E01010D6F31D00101C7
:10E3A80005510DC107F10101086B01010727000E96
:10E3B80008230101075101010325D96E0101085104
:10E3C80001010421DA6E010102510DC10AF10101B6
:10E3D8000B6B01010A27000E0B2301010A510101F1
:10E3E8000025E16E01010B5101010121E26EDE50B1
:10E3F800E618D8B402D0000E120001010D2B00D08F
:10E408000101065101010D5DD8A0C9D7010E120006
:10E418001200000E0101116F000E106F010111BFF3
:10E428000AD00101115130E13F0E0101105DD8B051
:10E438002BD001D029D010C100F111C101F1000E7B
:10E448000101036F060E026FA6EC78F0BD0E010104
:10E4580000250101066F0B0E010101210101076F63
:10E468000EC108F10FC109F1040E01010A6FF6ECA3
:10E4780075F00009D8B403D0010110511200010150
:10E48800104B112BCBD700D0FF0E12001200120E2A
:10E4980001010E6F010E01010F6FF40E0101106FE3
:10E4A800010E0101116FC3EC64F0000E0101266F2B
:10E4B800D90E0101006FFE0E0101016F000E01016E
:10E4C800026F120E0101036F010E0101046F150E98
:10E4D8000101056F240E0101066F1AEC6FF00101AE
:10E4E800C951300F01014B6F120E0101046F010E6B
:10E4F8000101056F3A0E0101066F000E0101076F59
:10E50800020E5AEC63F01200000E0101086F000EB3
:10E51800096F000E0A6F000E0B6F00D0010100A1F9
:10E5280011D0010104510101082701010551010120
:10E5380009230101065101010A23010107510101C3
:10E548000B2300D00101D890043705370637073769
:10E558000101D89003330233013300330101005124
:10E56800010101110101021101010311D8A4D6D73B
:10E5780008C100F109C101F10AC102F10BC103F19F
:10E588001200000E0001686F000E696F000E6A6FBE
:10E59800000E6B6F00D0000160A111D00001645122
:10E5A80000016827000165510001692300016651D7
:10E5B80000016A230001675100016B2300D00001AC
:10E5C800D89064376537663767370001D89063336A
:10E5D8006233613360330001605100016111000151
:10E5E800621100016311D8A4D6D768C060F069C071
:10E5F80061F06AC062F06BC063F012000101026F43
:10E60800000EAC6E000EAB6E010102A102D0AC8808
:10E6180000D0010102A303D0AC8CAB8C00D0010167
:10E6280002A502D0AC8E00D0010102A702D0AB88AF
:10E6380002D0AB8A00D0010102A902D0AC8400D07C
:10E64800010102AB02D0AB8600D0010102AD02D0BD
:10E658009D8A02D09D9A00D0010102AF02D09D8808
:10E6680001D09D9800C1AFFF010101517D6EAC8AB8
:10E67800AB8E12000001626F000EAC6E000EAB6E26
:10E68800000162A102D0AC8800D0000162A303D0CF
:10E69800AC8CAB8C00D0000162A502D0AC8E00D04F
:10E6A800000162A702D0AB8802D0AB8A00D000017B
:10E6B80062A902D0AC8400D0000162AB02D0AB8664
:10E6C80000D0000162AD02D09D8A02D09D9A00D090
:10E6D800000162AF02D09D8801D09D9860C0AFFF55
:10E6E800000161517D6EAC8AAB8E120001010251AE
:10E6F800010100250101086F0101035101010121F8
:10E708000101096F08C10AF109C10BF101010C6B84
:10E718000D6B10D00101045101010A5F010105517F
:10E7280001010B5B0101065101010C5B010107515D
:10E7380001010D5B0101045101010A5D010105514F
:10E7480001010B590101065101010C590101075141
:10E7580001010D59D8B0DED70AC100F10BC101F192
:10E768001200060E0101446F18C10BF119C10CF11A
:10E77800400E01010D6F010E01010E6F58EC45F0BE
:10E788001F0E01011A6F2A0E01011B6F530E0101A2
:10E798001C6F460E01011D6F540E01011E6FD7C07C
:10E7A8001FF118C10EF119C10FF11A0E0101106FF6
:10E7B800010E0101116F44C112F1000E0101136F26
:10E7C800010E0101146F000E0101156F17EC4AF0DC
:10E7D80012001200000E01011B6FD90E0101006F1B
:10E7E800FE0E0101016F000E0101026F1B0E0101F7
:10E7F800036F010E0101046F010E0101056F240E64
:10E808000101066F1AEC6FF00101C951300F0101C7
:10E81800406F18C10EF119C10FF11B0E0101106FE5
:10E82800010E0101116F260E0101126F000E010188
:10E83800136F1AC114F1000E0101156F17EC4AF09D
:10E84800120012003D0E0101536F14C116F115C1DB
:10E8580017F114C100F115C101F1000E0101036F98
:10E86800380E026FA6EC78F0010100C106F1010133
:10E8780001C107F10101086B096B380E01010A6F2C
:10E88800000E0B6F000E0C6F000E0D6F180E0101BD
:10E898000E6F010E01010F6F7FEC6EF0160E010175
:10E8A800066F010E0101076F53C108F172EC5CF0AD
:10E8B80012000101046F01010451020D000EF3243E
:10E8C800D96E030EF420DA6EDE50DE10D8B418D0FC
:10E8D80001010451020D000EF324D96E030EF42039
:10E8E800DA6EDECF02F1DDCF03F1FF0E0101022562
:10E8F8000101006FFF0E010103210101016F1200E8
:10E9080001010451020D000EF324D96E030EF42008
:10E91800DA6EDECF00F1DDCF01F112001200010145
:10E928000F5101011011D8B42BD0010E0101116F44
:10E9380007D00101D8900F3710370101112B00D0F3
:10E94800010110BF02D0F5D700D001010F5101011C
:10E958000D5D0101105101010E59D8A009D0010126
:10E968000F5101010D5F0101105101010E5B00D033
:10E978000101D89010330F330101112FE6D700D0D1
:10E988000DC10DF10EC10EF1120000016951000117
:10E998006A11D8B42BD0010E00016B6F07D00001AB
:10E9A800D89069376A3700016B2B00D000016ABF25
:10E9B80002D0F5D700D0000169510001675D000160
:10E9C8006A5100016859D8A009D0000169510001B5
:10E9D800675F00016A510001685B00D00001D890B0
:10E9E8006A33693300016B2FE6D700D067C067F040
:10E9F80068C068F0120014D0D00E0101026FCA0E70
:10EA0800E82EFED7022FFCD7F60E010100250101E2
:10EA1800006FFF0E010101210101016F040000D008
:10EA280001010151E9E10B0E0101005DD8A010D0F0
:10EA3800E3D70ED0150E0101026FC60EE82EFED7E1
:10EA4800022FFCD700D001010007D8A0010704005D
:10EA58000101005101010111D8A4ECD712000101F4
:10EA6800026F3F0EC716000EC66E01010251C61294
:10EA780001010151C71205D0C78C16D0C78CC688B2
:10EA880013D001010051000AD8B4F6D7020AD8B44D
:10EA9800F5D7010AD8B4F3D707D09486928A0DD057
:10EAA80094860BD0949609D001010251040AD8B477
:10EAB800F4D7010AD8B4F4D7F5D79488949AC68ABB
:10EAC8001200000E01010E6F0101F35167EC7AF09C
:10EAD800040E01010C6F010E4BEC5FF00001A35115
:10EAE80001010C250101236F0001A45101010D2131
:10EAF8000101246FB4EC7CF00101206F23C122F1E5
:10EB0800010124510101216F200E0101176F010E2F
:10EB18000101186F030E0101196F010E01011A6F2F
:10EB28001BEC4EF012002CD04804D8A405D0ADEC54
:10EB38007BF00201596F00D00001D0510001CF5D78
:10EB4800D8B00FD00001CF51010D270EF324D96E94
:10EB5800040EF420DA6EECEC7BF0DF6E0001CF2BB4
:10EB680000D00001D0510001CF19D8A407D000016E
:10EB7800D051D8B403D0010E3B6E00D0480600D067
:10EB88004850D8A4D1D712002A8C02020CC177644D
:10EB98003277623238F81180E93838070000050703
:10EBA800090CF2004000D880FFFFFFFFFFFFFFFFC6
:10EBB800FFFFFFFF07B20100010000006D4EC641D4
:10EBC800170001000800FF0003FF01010101FF0118
:10EBD8000101FFFFFFFFFFFFFFFFFFFFFFFFFFFF39
:10EBE800FFFFFF00000E01010D6F1FD001010D5145
:10EBF800010DF35001010825D96EF45001010921D6
:10EC0800DA6E01010D51010DF35001010625E16E87
:10EC1800F45001010721E26EDE50E618D8B402D0A4
:10EC2800000E120001010D2B00D001010A51010153
:10EC38000D5DD8A0DBD7010E120012001D0E0101D8
:10EC48001A6F250E01011B6FF4C11CF1F5C11DF1EE
:10EC5800F6C11EF1F7C11FF1060E0101406F18C180
:10EC68000EF119C10FF11A0E0101106F010E010109
:10EC7800116F40C112F1000E0101136F010E010165
:10EC8800146F000E0101156F17EC4AF01200120004
:10EC98000101BF51D8A412000101C051D8A412002B
:10ECA8000101C251D8A412000001CD51D8A412000C
:10ECB8000001C951D8A412000101D051D8A41200F2
:10ECC8004F50D8A412000101CD51D8A412003850D9
:10ECD800D8A412005250D8B4120095EC7CF012005F
:10ECE80012002CC121F12DC122F13C0E0101236F2C
:10ECF800010E0101246F010E0101256F11EC3FF097
:10ED08002CC10EF12DC10FF10DEC72F001012F6F26
:10ED18002AC115F12BC116F12FC117F12EC118F117
:10ED2800000E0101196F010E01011A6F59EC1EF056
:10ED38001200000E01010B6F1BD001010B51010DD8
:10ED4800F35001010625D96EF45001010721DA6E4E
:10ED580001010B51010DF35001010825E16EF4503A
:10ED680001010921E26EDFCFE7FF01010B2B00D083
:10ED780001010A5101010B5DD8A0DFD71200010182
:10ED8800356F000E536E35C1CAF0000E0101376FA2
:10ED98003E0E366F36C100F137C101F1000E010198
:10EDA800036F1E0E026FA6EC78F000C136F101C1A8
:10EDB80037F136C12FF137C130F1000E0101316F43
:10EDC800070E81EC70F012000101026F00C101F121
:10EDD8000101013BC15001010119CF0B0119C16E9D
:10EDE800C196C190C192C19402C101F101010147CC
:10EDF8000147C25001010119830B0119C26EC08677
:10EE0800C088C08AC050F80B0609C06EC08EC28088
:10EE18001200000E0101016F3E0E0101016501D0D3
:10EE28001AD001010151060D040EF326000EF4223A
:10EE3800BD0EF324D96E0B0EF420DA6EDF500F0BE3
:10EE48000101006F020E0101006102D0010E1200E3
:10EE58000101012BE1D7000E12001200000E010182
:10EE6800036F01010151030B756E00C174FF02C1EC
:10EE780073FF7F9E7F9C7F84000EF2BE010E01010E
:10EE8800036FF29E550E7E6EAA0E7E6E7F8200D0B4
:10EE98007FB2FED7010103B102D0F29E01D0F28EFB
:10EEA8007F941200000E00016B6F000169AF09D05A
:10EEB8000001686D691FD8B0692B010E00016B6FE6
:10EEC80000D068C060F069C061F00001626B8E0E0E
:10EED8000001636F6BC064F0BBEC5EF060C068F06B
:10EEE80061C069F062C06AF0120012001A0E0101D6
:10EEF800006F010E0101016F6EEC57F00101406FC8
:10EF080018C10EF119C10FF11A0E0101106F010E8F
:10EF18000101116F40C112F1000E0101136F010EC2
:10EF28000101146F000E0101156F17EC4AF0120071
:10EF3800120093968A868986050E0101046F260EB3
:10EF4800E82EFED7042FFCD700D08996680E010161
:10EF5800046FE40EE82EFED7042FFCD700D0C4ECD3
:10EF68007CF0030E0101016FFE0E006FFF0E010120
:10EF7800026F32EC77F012001D0E01011C6F1AC1EE
:10EF88001DF11BC11EF1030E0101426F18C10EF1E4
:10EF980019C10FF11C0E0101106F010E0101116F53
:10EFA80042C112F1000E0101136F010E0101146F2D
:10EFB800010E0101156F17EC4AF012000FC106F19E
:10EFC80010C107F1DD0E0101086F010E0101096F83
:10EFD800040E01010A6F9DEC76F00101D969010167
:10EFE800DA690101DB690101DC69DD0E0101066FE7
:10EFF800010E0101076F9BEC6CF08BEC7CF01200AA
:10F008000101016F010101510101D8B409D00001CA
:10F01800D351D8B413D0899C8B94898012000ED018
:10F02800010100510101D8B409D00001D551D8B46B
:10F0380005D0898C8B948990120000D0899C8B8490
:10F04800899012000001616F000161510001D8B47C
:10F0580009D00001D351D8B413D0899C8B948980EE
:10F0680012000ED0000160510001D8B409D000018F
:10F07800D551D8B405D0898C8B948990120000D0D2
:10F08800899C8B84899012000101026F0101025151
:10F09800020D000EF324D96E030EF420DA6EDE049E
:10F0A800DE10D8A40FD001010251020D000EF32486
:10F0B800D96E030EF420DA6E000EDE6E000EDD6EE1
:10F0C800010E1200000E120012000101006F010172
:10F0D80000510101D8A409D0D59E000ED76E000EAC
:10F0E800D66E850ED56ED58E1200030E010100195D
:10F0F800D8A41200000EB36E000EB26E8C0EB16E64
:10F10800A292A192B180120012000101046F0101C4
:10F118000451D8090101056F05C102F13C0EF9EC53
:10F1280078F0C80E0101056F05C102F11A0EF9EC5D
:10F1380078F0000E0101056F05C102F13E0EF9ECF1
:10F1480078F012000101005101010203F3CF04F12C
:10F15800F4CF05F10101005101010303F35001014E
:10F1680005270101015101010203F350010105279F
:10F1780004C100F105C101F1120012000001605143
:10F1880000016203F3CF64F0F4CF65F00001605131
:10F1980000016303F350000165270001615100017C
:10F1A8006203F3500001652764C060F065C061F038
:10F1B800120012000101356F010135510101D8B467
:10F1C80004D0010E0201E76F1200000E0201E76F82
:10F1D800010E0101306F680E2F6F010E0101316FB2
:10F1E8000F0E81EC70F0120012000101036F899478
:10F1F80001010351B0EC7AF0E40E00D000D0E82E03
:10F20800FCD700D000D001010251B0EC7AF0E40E36
:10F2180000D000D0E82EFCD700D000D0898412009E
:10F22800F20E02014917ABAC07D002014991ABA01D
:10F2380003D00201498100D0ABA402D00201498564
:10F24800ABA202D002014987AECF60F00001605145
:10F2580012001200000E01010C6F010E4BEC5FF062
:10F2680001010C1F01010D1F01010C4B0D2B3E0E5E
:10F2780001010C250101176F000E01010D2101018B
:10F28800186F120012000101006F060E01010061E3
:10F2980002D0000E03D001010051FB0F0101016FE4
:10F2A800070E0101016503D0070E0101016F01017D
:10F2B800015112001200000E0101056F000E01013C
:10F2C800066F0BD01C0E29EC7AF00101066F0101C4
:10F2D8000651020B0101056F00D001010551010122
:10F2E800D8B4F0D712000101026F000E0101016FBE
:10F2F8003A0E0101026108D02F0E0101026504D007
:10F30800010E0101016F00D001C100F101010031BE
:10F3180012001200000E0101306F010E2F6F010E56
:10F328000101316F020E81EC70F0000E0101306FA7
:10F33800010E2F6F010E0101316F030E81EC70F089
:10F3480012000001626F000E0001616F3A0E0001A9
:10F35800626108D02F0E0001626504D0010E000121
:10F36800616F00D061C060F00001603112001200CE
:10F378000201642B020164514518D8A41200000E42
:10F388000001C96F000E0001606F000E26EC78F0D6
:10F39800000E0201646F000E456E1200120038EC78
:10F3A8007CF0899E200EB0EC7AF001010751B0EC98
:10F3B8007AF001010651B0EC7AF001010551B0EC88
:10F3C8007AF0898E14EC7CF0120008C100F109C1B2
:10F3D80001F10101026B8E0E0101036F000E0101A4
:10F3E800046F2BEC5EF000C108F101C109F102C104
:10F3F8000AF1120012000101006F080E0001CE612F
:10F4080012000001CE51010D8B0EF324D96E030EAC
:10F41800F420DA6E00C1DFFF0001CE2B12001200CB
:10F428000101036F03C100F10101016B240E010109
:10F43800026F05EC5DF003C100F10101016B240EC0
:10F448000101026F05EC5DF012000101046F89945F
:10F458000101045140090101046F01010451B0EC9C
:10F468007AF0BAEC7BF000C103F189840101035101
:10F47800120012000001646F899400016451400970
:10F488000001646F00016451C2EC7AF0C7EC7BF0B4
:10F4980060C063F089840001635112001200010109
:10F4A800026F01010251020D000EF324D96E030E02
:10F4B800F420DA6EDE50DE10D8A402D0010E12005D
:10F4C800000E1200120001010F6F01010F5102011D
:10F4D800E419D8B4120001D012000EC104F10101E0
:10F4E8000F5193EC4CF00FC1E4F21200020E01012F
:10F4F8000D6F0BC10EF10CC10FF10E0E0101066F5D
:10F50800010E0101076F0DC108F172EC5CF01200E9
:10F51800000E0101036F899E050EB0EC7AF0BAEC7B
:10F528007BF0010100510101036F898E0101035134
:10F5380012001200D08EF290F28CF196F1920F0127
:10F548005A9F0F015A9D0F015A9B0F015A99F28633
:10F55800F190F28E9F9A12000101016FC9CF00F15C
:10F568009E96C69E01C1C9FFC6BE120002D01200F7
:10F5780000D09EB61200FDD7120012000001616F84
:10F58800C9CF60F09E96C69E61C0C9FFC6BE120074
:10F5980002D0120000D09EB61200FDD71200120051
:10F5A8000101036F0001B951D8B41200000E010126
:10F5B800016F020E006F03C102F105EC5DF012004D
:10F5C8001200EEC220F1200E0101176F010E010199
:10F5D800186F010E0101196F010E01011A6F1BEC62
:10F5E8004EF012000101066F01010651010B0001E6
:10F5F800D36F010106510E0B0101056F0101055181
:10F6080059EC7BF012000001636F0001B951D8B4C6
:10F618001200000E0001616F020E606F63C062F09D
:10F6280098EC5DF012001200000162510201D82727
:10F63800000163510201D923000164510201DA2358
:10F64800000165510201DB2312000101046F000172
:10F65800D451D8A404D00001C051D8B4120001017B
:10F668000451D4EC7AF0120012000101006F01017C
:10F678000051020D000EF324D96E030EF420DA6E49
:10F68800000EDE6E000EDD6E12000001646F0001D8
:10F69800D451D8A404D00001C051D8B4120000013C
:10F6A800645107EC7BF0120012000101046F0201A3
:10F6B800BE51F00B010104110201BE6FBEC202F17E
:10F6C800340EF9EC78F01200010E0201676FC4ECF9
:10F6D8007CF004C100F105C101F106C102F132EC70
:10F6E80077F01200200E49EC5BF0400E49EC5BF01D
:10F6F8002FEC7CF05FEC79F0600E49EC5BF01200C7
:10F7080001010151030B756E00C174FF7F9C7F9E40
:10F718007F8000F000F07350120012000101006FAA
:10F7280000C1C7F1010100510101D8A41200010E66
:10F738000201E76F120012000101006FACAC06D0A5
:10F74800AC90020149A302D0AC8000D000C1ADFF4B
:10F7580012003C0E29EC7AF00101056F010105A1A8
:10F7680002D0010E1200000E12001200C9CF02F1E1
:10F778009E96000EC96E00D09EA6FED7C9CF00F196
:10F788000101016B1200C9CF62F09E96000EC96E8E
:10F7980000D09EA6FED7C9CF60F00001616B1200B1
:10F7A8000101046F04C1B5F004C1C1F2C1C202F184
:10F7B8003A0EF9EC78F012000101006F01010051D6
:10F7C8000101D8B402D09396120093861200120059
:10F7D80089848992BAEC7BF000C103F18982010126
:10F7E8000351120012000101026F898489920101FC
:10F7F8000251B0EC7AF0898212005428D8B402D0B1
:10F80800542A02D0000E546E5450120012006103A4
:10F81800000001000000B60608FF3C19FFFFFFFFCB
:10F8280000D08CEC7AF00101046F010104B1F9D722
:10F83800120000D08CEC7AF00101046F010104A3DE
:10F84800F9D712000101526F51C135F1010152512E
:10F8580043EC29F01200070E0101046F04C102F104
:10F868001C0EF9EC78F01200899E060EB0EC7AF0C6
:10F87800898E1DEC7CF0120000C1D4F201C1D5F2D2
:10F888000201D66BD76B120050EC7CF000C102F17C
:10F8980001C103F112001200D60E0101006F000E23
:10F8A8000101016F1200120002C100F103C101F150
:10F8B80084EC7BF0120012000101066F0101065171
:10F8C80067EC7CF012000101056F01010551D4ECD1
:10F8D8007BF01200C2A202D0010E1200000E12002C
:10F8E8001200070E0101016F006912001200280EB4
:10F8F8003EEC7AF026EC69F012000201BE510E0BC4
:10F90800120012000101006F00C1F0F112000101A4
:10F91800006F00C15CF21200B9C100F1BAC101F177
:10F928001200D39ED18E030004001200B9C160F00A
:10F93800BAC161F0120077C0B9F178C0BAF112000B
:10F94800FFFFFFFFFFFFFFFF0101F0511200120050
:10F958000001B55112001200B8EC7CF01200120040
:10F968000001C751120012000001C151120012001B
:10F978000101C751120012000201E05112001200E9
:10F9880000D07FB2FED712000101006F12001200F2
:10F998000001C751120012000001C15112001200EB
:10F9A80061030101FF0101FF0300C2010000FA0E1B
:10F9B80012001200000E12001200C2821200120081
:06F9C80012001200120003
:10FEC2000001000A006400E803102701001000008E
:10FED20001001000010F00656D5363616C652C32E7
:10FEE2002E3230392C312E33312C322C302C302C16
:10FEF200303030303030303030302C003C453E4EE7
:10FF02006F7420416C6C6F77656420746F20736529
:10FF12006E643C2F453E003C453E554152542042C2
:10FF220061756472617465204572726F723C2F450F
:10FF32003E004D6173743A203078253032582530B6
:10FF420032582530325825303258200049443A2060
:10FF52003078253032582530325825303258253005
:10FF6200325820004669726D776172653A207632A6
:10FF72002E32303920003031323334353637383989
:10FF82004142434445460047726F75703A203078CB
:10FF92002530325820004E6F64653A203078253083
:10FFA20032582000436F723A2025303258200042E6
:10FFB20061743A2025303458200053533A202530BA
:10FFC200325820005070723A20256920005479700E
:10FFD200653A20003C2F44413E003C2F55413E00F3
:10FFE2005744525354003C44413E003C55413E006C
:0EFFF20025632000424F5200504F5200000085
:020000040020DA
:08000000FFFFFFFFFFFFFFFF00
:020000040030CA
:0E0000001D981B36FF8980FF0FC00FE00F40D8
:00000001FF
