:040000000EEF00F00F
:0400080004EF04F00D
:100018000CEF04F086EF03F0000E276E000E036E5F
:10002800000E046E020E056E000E066E010E076EBF
:10003800000E086E000E096E000E0A6E270E0B6E7B
:10004800000E0C6E19EC02F02704D8A42FD1FF0E75
:100058001F6E000E206E000E216E000E226E000E26
:10006800236E000E246E000E256E000E266E000E06
:10007800036EF80E046E000E056E000E066E040E7A
:10008800076E000E086E000E096E000E0A6E1F0E37
:100098000B6E000E0C6E19EC02F0040E036EF80ED7
:1000A800046E000E056E000E066E040E076E000E3E
:1000B800086E000E096E000E0A6E230E0B6E000EFF
:1000C8000C6E19EC02F0000E306E000E286E080E51
:1000D800296E000E2A6E000E2B6E2B5067E12A0443
:1000E800D8B064D001D062D03050010D1B0EF3247B
:1000F800D96E000EF420DA6E000E2824036EF80E76
:100108002920046EFF0E2A20056EFF0E2B20066E96
:1001180036EC03F0DF6E3050010D1B0EF324D96E60
:10012800000EF420DA6EDF50166E16C017F0186A4B
:10013800196A1A6A1750235E1850245A1950255AFA
:100148001A50265A020E306421D030C016F0FD0E27
:100158001626030E1616D8A419D0FD0E166EFF0E1D
:10016800176E3050010D1650F3261750F4221B0E4F
:10017800F324D96E000EF420DA6EDE501F1ADE501A
:10018800201ADE50211ADD50221A00D0302A040E1F
:100198003018D8A402D0000E306E0400010E2826B4
:1001A800000E29222A222B2298D700D01F50201077
:1001B80021102210D8A47AD02350241025102610FC
:1001C800D8A474D0000E016E080E026E000E036EE5
:1001D800000E046EFF0E056EFF0E066E000E076E13
:1001E800000E086EDEEC01F0000E2C6E080E2D6E6F
:1001F800000E2E6E000E2F6E2F5055E12E04D8B033
:1002080052D001D050D0000E2C24036EF80E2D20B1
:10021800046EFF0E2E20056EFF0E2F20066E040EB4
:10022800076E000E086E000E096E000E0A6E1B0E99
:100238000B6E000E0C6E19EC02F02CC001F02DC0F4
:1002480002F02EC003F02FC004F0000E066E040E5C
:10025800056E1B0E076E000E086E5DEC01F00400C3
:100268002CC001F02DC002F02EC003F02FC004F006
:10027800290E056E000E066E000E076E000E086E43
:1002880053EC02F00150021003100410D8A403D05C
:100298006EEC03F000D0040E2C26000E2D222E2228
:1002A8002F22AAD700D0010E120000D0000E120093
:1002B8001200000E0D6E000E0E6E01C012F002C08C
:1002C80013F003C014F004C015F0060E096ED890A0
:1002D8000432033202320132092EF9D7060ED890C1
:1002E8000136023603360436E82EF9D7400E0126C9
:1002F800000E0222032204221250000801240D6E6F
:1003080054D012C00FF013C010F014C011F01FD059
:1003180007C0D9FF08C0DAFFDF500FC0F6FF10C0D2
:10032800F7FF11C0F8FFF56E0C00074A082A010E06
:100338000F26000E1022000E11220506D8A0060670
:1003480005500610D8B407D002D005D000D00D064D
:100358000D28D8A4DDD70FC00AF010C00BF011C0CB
:100368000CF012C00FF013C010F014C011F07F8E03
:100378007F9C7F84F2AE03D0F29E010E0E6E550E66
:100388007E6EAA0E7E6E7F827F940E50D8B403D004
:10039800F28E000E0E6E400E0D6E0A50126E0B504D
:1003A800136E0C50146E156A00D005500610D8A4B0
:1003B800A8D71200000E096E01C00AF002C00BF0A7
:1003C80003C00CF004C00DF025D00CC0F8FF0BC022
:1003D800F7FF0AC0F6FF7F8E7F9C7F847F88F2AE8E
:1003E80003D0F29E010E096E550E7E6EAA0E7E6E29
:1003F8007F820950D8B402D0F28E00D0400E0A2471
:100408000A6E000E0B200B6E000E0C200C6E000EF8
:100418000D200D6E05500A5C06500B5807500C58FD
:1004280008500D58D8A0D1D71200000E0D6E000E3E
:100438000E6E000E0F6E000E106E899E030E5DECA0
:1004480003F005505DEC03F004505DEC03F003503D
:100458005DEC03F0000E0D6E000E0E6E000E0F6EBA
:10046800000E106E10D00D500B24D96E0E500C20BB
:10047800DA6E7BEC03F0DF6E010E0D26000E0E2205
:100488000F22102200D007500D5C08500E5809505A
:100498000F580A501058D8A0E6D7898E1200055078
:1004A800061007100810D8B429D0010E096E07D01D
:1004B800D8900536063607360836092A00D008BE11
:1004C80002D0F6D700D00550015C065002580750FC
:1004D800035808500458D8A009D00550015E0650AA
:1004E800025A0750035A0850045A00D0D8900832CC
:1004F800073206320532092EE6D700D001C001F0D6
:1005080002C002F003C003F004C004F01200036E3E
:100518003F0EC716000EC66E0350C6120250C71211
:1005280005D0C78C15D0C78CC68812D00150000AD8
:10053800D8B4F7D7020AD8B4F6D7010AD8B4F4D792
:1005480007D09486928A0CD094860AD0949608D0C4
:100558000350040AD8B4F5D7010AD8B4F5D7F6D7AA
:100568009488949AC68A1200E3EC02F0000E016E99
:10057800800E026E020E8BEC02F093968A96010EA4
:10058800346E10EC00F000D04CEC03F00009D8A455
:1005980010D093968A86000E026EC80E016E0DEC7E
:1005A80003F09386000E026EC80E016E0DEC03F088
:1005B800F0D79386938600EF04F00EEF00F07C0EE0
:1005C800D36E9B8CD2909B8E200E926EBD0E936E36
:1005D800930E946E860E806E070E816E040E826EE8
:1005E800100E0F015D6F000E0F015C6FF19E0F0181
:1005F8005B810F015B930F015B950F015B970F0107
:100608005B990F015B9B0F015B9D0F015B9FD18085
:1006180012000FD0D00E036ECA0EE82EFED7032E9E
:10062800FCD7F60E0124016EFF0E0220026E0400B4
:1006380000D00250EFE10B0E015CD8A00ED0EAD733
:100648000CD0150E036EC60EE82EFED7032EFCD76F
:1006580000D00106D8A00206040001500210D8A458
:10066800F0D71200000E076E899E030E5DEC03F0B2
:1006780005505DEC03F004505DEC03F003505DECB5
:1006880003F07BEC03F0076E898E0750120012000E
:10069800000EF86E080EF76E000EF66E0800F5CF25
:1006A80001F00128D8A402D0000E1200010E120099
:1006B8001200026EC9CF01F09E96C69E02C0C9FF05
:1006C800C6BE120002D0120000D09EB61200FDD79E
:1006D800120012003450D8B404D09386000E346E41
:1006E800120093968A86010E346E12001200C9CF4A
:1006F80001F09E96000EC96E00D09EA6FED7C95086
:1007080012001200346A336A326A316A000EF86ED7
:060718000001B8EF02F041
:0408000009EF05F007
:10080800FACF1CF0FBCF1DF0E9CF1EF0EBEF61F043
:10081800D8CF8FF0E8CF90F0E0CF91F0FACF92F0F8
:10082800FBCF93F0E9CF94F0EACF95F0E1CF96F0C3
:10083800E2CF97F0D9CF98F0DACF99F0F3CF9AF0CA
:10084800F4CF9BF0F6CF9CF0F7CF9DF0F8CF9EF059
:10085800F5CF9FF0AED0000E0001A26FF2A066D0D7
:1008680081CFA0F000F0F2900001A0A95BD0600E4B
:100878000001B919D8A44BD00001D051D8A43AD05E
:100888000001CC51D8A436D0FAEC71F00101F56F13
:10089800040E00016C6F010E8FEC55F06CC077F000
:1008A8006DC078F0D1EC71F0D3B606D001D004D089
:1008B800010E0101D06F00D0ADEC71F0CCEC71F0FD
:1008C8000001A751000160270001A8510001612320
:1008D800000160C062F0000161C063F00001646B58
:1008E800656B5BEC70F0010E0101B96F010E000140
:1008F800D06F18D00001CC51D8A414D001D012D098
:10090800FEEC71F000D0010E0101BA6F0BD0800E21
:100918000001B919D8A406D0010E0101BB6FBAECC9
:100928006FF000D0010E0001A26F00D09EBA9DAA00
:1009380028D081EC6EF00001A16F9E9AABA208D07E
:100948004F0EAB16AC9ACF0E9D163BEC4BF015D064
:10095800ABB413D001D011D0A7B20FD001D00DD0B5
:10096800000E0001616F010E606FA1C062F0E9EC3A
:1009780053F0640E0101CE6F00D0010E0001A26F8A
:1009880000D0F0A21AD0010E0001A327000EA42364
:10099800A523A6230001A605D8A00AD0000E0001B1
:1009A800A36F000EA46F000EA56F000EA66F00D0F7
:1009B800F092010E0001A26F00D00001A2510001C7
:1009C800D8A449D79FC0F5FF9EC0F8FF9DC0F7FF88
:1009D8009CC0F6FF9BC0F4FF9AC0F3FF99C0DAFFF2
:1009E80098C0D9FF97C0E2FF96C0E1FF95C0EAFF23
:1009F80094C0E9FF93C0FBFF92C0FAFF91C0E0FFEB
:100A080090C0E8FF8FC0D8FF100038EF52F0000EFA
:100A1800D0B6010E0101F86F000ED0B2010E02012E
:100A2800FA6F000ED0B0010E0201F96FD0CFFBF2C1
:100A380032EC64F0030E0101016FE80E006F87ECE1
:100A48006AF0030E0101016FF00E006FA9EC70F05F
:100A58000101D46F0101D429D8B404D0010E0101D9
:100A6800C36F00D09AEC56F005D09386C7EC71F0AE
:100A78009AEC56F00DC1AFF00EC1B0F000D00001F5
:100A8800B0BFF3D73E0E0001AF5D080E0001B059AC
:100A9800D8A0EBD726EC6DF0360E0101016FB00E31
:100AA800006F87EC6AF00101C3510101D8A40ED090
:100AB8000001B0BF0BD0870E0001AF5D0B0E000127
:100AC800B059D8A003D00CEC5FF000D0000E0101A3
:100AD800006F000E0101016F020EBBEC6AF004000A
:100AE800C6EC35F00400F0C200F10101016B72ECB4
:100AF80071F092EC6FF0010E0101BE6F0101F85127
:100B08000101D8A413D0DC0E0101126FFF0E010100
:100B1800136F5FEC31F0000E0101016F040E006FDE
:100B2800060E0101026F59EC53F02CD00201FA5164
:100B38000201D8B418D00201F9510201D8A413D087
:100B4800F60E0101126FFF0E0101136F5FEC31F019
:100B5800000E0101016F040E006F070E0101026F04
:100B680059EC53F00FD00201FA510201D8A40AD06F
:100B7800FA0E0101126FFF0E0101136F5FEC31F0E5
:100B8800D08200D0000EFDEC68F0C90E0101126F92
:100B9800FF0E0101136F5FEC31F0BA0E0101126F05
:100BA800FE0E0101136F5FEC31F0F20E0101126FBE
:100BB800FF0E0101136F300E0101C7250101146FEB
:100BC8000101156B000E15235FEC31F0AB0E01012E
:100BD800126FFF0E0101136FAFC014F1B0C015F111
:100BE8005FEC31F0140E0101126FFF0E0101136F5B
:100BF800EDC214F10101156BEEC216F10101176B7C
:100C0800EFC218F10101196BF0C21AF101011B6B57
:100C18005FEC31F0FA0E0101126FFE0E0101136F45
:100C2800FCC114F10101156BFDC116F10101176B2F
:100C3800FEC118F10101196BFFC11AF101011B6B0B
:100C48005FEC31F0920E0101126FFF0E0101136F7C
:100C5800DAEC71F00501806F050180510101146F14
:100C6800156B5FEC31F0740E0101126FFF0E01017C
:100C7800136FCDC014F10101156B5FEC31F03F0E1D
:100C88000101126FFF0E0101136F5FEC31F0A00E2E
:100C98000101126FFF0E0101136FD4C114F101019C
:100CA800156B5FEC31F0C00E0101126FFF0E0101F0
:100CB800136F81BA02D0010E01D0000E0101146F2A
:100CC800156B5FEC31F0ED0E01010F6F020E0101A3
:100CD800106F6BEC6DF000EC3AF0E4EC6EF0000E87
:100CE8000101276F1E0E266F010E0101286F040EE9
:100CF80085EC66F0000E05019A6F000E0101066F83
:100D0800000E076F020E086F000E096F010E010139
:100D18000A6F000E0B6F000E0C6F000E0D6F9A0E0F
:100D280001010E6F050E01010F6F83EC64F00501E0
:100D38009A05D8A41ED0000E05019A6F000E010175
:100D4800056F000E066F020E076F000E086F9A0EF1
:100D58000101096F050E01010A6F010E01010B6FF8
:100D6800000E0C6F000E0D6F000E0E6F68EC65F034
:100D780000D0ED0E0101066F020E0101076FE20EB1
:100D88000101086F010E0101096F040E01010A6FCC
:100D980050EC6BF00009D8B403D00400FED700D0A3
:100DA80012EC72F0000E0101BE6F00D00101D851A3
:100DB8000101D8A456EF0CF0000EF2EC6DF0010121
:100DC800DF510101D8B402D0FF0000D0000E0101AC
:100DD800E16F04000101B851D8B485D00001B951C0
:100DE800D8B41CD09BEC6EF017C158F218C159F258
:100DF800020159510CE11F0E0201585DD8B007D00D
:100E0800000E01014A6F010E8EEC19F007D0000E9A
:100E180001014A6F000E8EEC19F000D00101F95162
:100E28000101D8B426D0FC0E01010B6F010E01019F
:100E38000C6F8B0E01010D6F050E01010E6F43EC57
:100E48003CF00501806F1F0E0501806112D0FC0E79
:100E58000101186F010E0101196F000E01011A6FCF
:100E6800ACEC69F00009D8B404D0000E0101F96FA8
:100E780000D0000E0101B86F3E0ED5EC33F0EA0E3B
:100E88000101006F010E0101016FABEC47F0B1ECFD
:100E98005CF0EAEC71F00009D8B425D00101F751F3
:100EA8000101D8B420D0010E0101BE6FB60E0101B8
:100EB800126FFF0E0101136F7AEC71F002C1D9FFB6
:100EC80003C1DAFFDF500501806F05018051010180
:100ED800146F156B5FEC31F0000E0101BE6F000E50
:100EE8000101F76F00D09BEC6EF017C158F218C1E2
:100EF80059F20201595105E1070E0201585DD8A0C7
:100F08002AD00201595127E11F0E0201585DD8B0BD
:100F180022D00101D251D8B41ED0910E01010E6F1A
:100F2800050E01010F6FC10E0101106F030E0101C3
:100F3800116FBCC112F1000E0101136F010E010106
:100F4800146F000E0101156F1EEC3FF000D0000E6B
:100F58000101D26F00D00101BA51D8B409D0000EF6
:100F68000101BA6F200E7CEC50F0600E7CEC50F062
:100F78000001D051D8B43AD0C2EC71F000C117F1D9
:100F880001C118F1040E01010C6F010E09EC55F0B6
:100F98000CC119F10DC11AF1A7EC71F0010100C1E2
:100FA8001BF1010101C11CF101011D6B1E6B71ECEC
:100FB8005BF017C18FF518C190F54B0E05018F5DD9
:100FC800010E05019059D8A011D00101B951D8B42A
:100FD8000AD00001CC51D8A406D03FEC66F0000E30
:100FE8000101B96F00D01FEC6BF000D0460E010173
:100FF8000E6F030E01010F6FED0E0101106F010E50
:101008000101116F30EC3EF00009D8B452D0460E01
:1010180001012C6F030E01012D6FEDC12EF1D0C11E
:101028002FF1F5C130F191EC2EF00009D8B43AD087
:10103800490E01010E6F030E01010F6F9F0E010192
:10104800106F020E0101116F980E0101126F050E4B
:101058000101136FB0EC65F00009D8B423D00B0E72
:101068000501976F9F0E0101896F020E01018A6FBA
:1010780005019751010D460EF32401018B6F030EF4
:10108800F42001018C6F0501975100080101ED253D
:1010980001018D6F98C58EF1000E01018F6F32EC42
:1010A80013F000D0000E0001D06F000E0101D06FC8
:1010B80000D0030E0101EA19D8A414D0030E0101CF
:1010C800EB19D8A40FD0000E0101EA6F000E010140
:1010D800EB6F030E0101006F010E13EC72F00101BA
:1010E800C28944D0020E0101EB19D8A40CD0000E1D
:1010F8000101EB6F020E0101006F010E13EC72F09B
:101108000101C28733D00101EB05D8A40CD0000E31
:101118000101EB6F010E0101006F010E13EC72F07B
:101128000101C28523D0020E0101EA19D8A40ED00C
:10113800000E0101EA6FA1EC58F0020E0101006FE8
:10114800000E13EC72F00101C28310D00101EA0510
:10115800D8A40CD0000E0101EA6F010E0101006F46
:10116800000E13EC72F00101C28100D00101BB51E5
:10117800D8B42BD0000E0101BB6F800E0001B91945
:10118800D8A411D00101D7510101D8A405D001017B
:10119800D8510101D8B407D0000E7CEC50F0000EF5
:1011A8000101D76F10D0800E0001B919D8A40BD057
:1011B8000001CC51D8A407D0200E7CEC50F0600E72
:1011C8007CEC50F000D0040000D0ACA21AD0000E85
:1011D8000101016F020E006FEF0E0101026F010E97
:1011E8000101036F3DEC4FF00009D8B406D00101AE
:1011F800EF51D3EC70F0010E01D0000E0101E06F49
:1012080000D0000E0101016F010E006FEF0E010109
:10121800026F010E0101036F3DEC4FF00009D8B4D5
:1012280008D0EFC100F1010E08EC72F00101B76FB0
:1012380007D00101CE51D8B403D00101CE0700D0A8
:101248000101B751D8B46BD104010151C00B05019C
:101258009B6F05019B45E846030B05019B6FED0E4F
:101268000101126FFF0E0101136F5FEC31F00501F0
:101278009B510501D8A409D1000E0101BD6FEAEC0C
:1012880071F00009D8B43FD1000E0101006F040EBF
:101298000101016F020E0101026FE20E0101036FED
:1012A800010E0101046F000E0101056F040E01011A
:1012B800066F52EC67F00009D8B4BDD00A0E0101E0
:1012C800BC6FE6C1C1F3E7C1C2F3E8C1C3F3E9C12A
:1012D800C4F31D0E0301C56F2B0E0301C66F02C4B4
:1012E800C7F303C4C8F304C4C9F305C4CAF3010EA1
:1012F8000101BE6F0101ED51FA0F0101ED6F000E02
:101308000101016F020E006F240E0101026F59ECFA
:1013180053F0000E0101016F020E006F240E01014F
:10132800026F59EC53F0000E0101016F020E006FBD
:101338000101ED51040F0101026F59EC53F0000E49
:101348000101016F020E006F000E0101026F59ECDE
:1013580053F0000E0501956F000E0501996F22D01C
:10136800000E0101016F020E006F05019951010D78
:10137800C10EF324D96E030EF420DA6EDF5001019A
:10138800026F59EC53F005019951010DC10EF32478
:10139800D96E030EF420DA6EDF500501951B0501A6
:1013A800992B00D0FF0E0501806FFF0E0501816F9C
:1013B8000101BC510501826F836B05018051050154
:1013C80082270501815105018323050199510501F2
:1013D800846F856B050182510501845D0501855186
:1013E800800A0501866F05018351800A0501865927
:1013F800D8A0B6D7000E0101016F020E006F95C587
:1014080002F159EC53F0000E0101016F020E006F5A
:101418000D0E0101026F59EC53F0000E0101016F2E
:10142800020E006F0A0E0101026F59EC53F0000E14
:101438000101BE6F68D00101EC51F80F0101BC6FCA
:10144800020E0301C16F000E0101006F040E0101BD
:10145800016F060E0101026FC10E0101036F030E39
:101468000101046F010E0101056FBCC106F11EECFC
:1014780065F002C491F503C492F504C493F505C45C
:1014880094F5010E0101D26F3ED0020E05019B19A1
:10149800D8A439D0020E0101BD6FEAEC71F0000941
:1014A800D8B431D0020E01010E6F040E01010F6F86
:1014B800870E0101106F050E0101116F960E0101D3
:1014C800126F050E0101136FB0EC65F00009D8B476
:1014D8001AD0060E0101896F040E01018A6F0A0EE7
:1014E80001018B6F040E01018C6F0101EC51F30FA8
:1014F80001018D6F280E01018E6F010E01018F6FA2
:1015080032EC13F000D0000E0101B76FD60E0101C6
:10151800126FFF0E0101136F5FEC31F000D0010E66
:10152800D1EC6DF00009D8B417D0050E0101276F72
:10153800A00E266F020E0101286F0C0E85EC66F0D6
:101548000D0E6CEC70F00101D7510101D8B404D034
:10155800000E0101D76F00D00A0ED1EC6DF0000922
:10156800D8B420D0FC0E0101066F010E0101076FEF
:10157800E20E0101086F010E0101096F040E01015D
:101588000A6F50EC6BF00009D8A40CD0FC0E0101D6
:10159800186F010E0101196F000E01011A6FCEECD0
:1015A80040F000D00B0ED1EC6DF00009D8B415D086
:1015B800000E0201476F000E466F000E0201496FD0
:1015C800000E486F000E02015B6F000E5A6F000E8E
:1015D80002015D6F000E5C6F00D0000ED1EC6DF063
:1015E8000009D8B404D0000E0101C26F00D00B0E60
:1015F800A6EC6FF00009D8B40BD0050E0101276FD7
:10160800A00E266F020E0101286F0B0E85EC66F006
:101618000A0EA6EC6FF000D002013B5105E10B0E5B
:1016280002013A5DD8A00CD0070E20EC58F0000E4D
:10163800C5EC70F0000E02013B6F000E3A6F00D04F
:101648000101C151D8B40AD0000E01010D6F240E5A
:101658000C6FCBEC5FF00101C10700D0000E020156
:10166800666F0C0EA6EC6FF00009D8B40CD0050E0E
:101678000101276FA00E266F020E0101286F0C0EC4
:1016880085EC66F000D00101D151D8B41ED0050E0A
:101698000101276FA00E266F020E0101286F0C0EA4
:1016A80085EC66F0000E0101D16F0001B951D8B484
:1016B8000CD00101C0510101D8A407D0000E0101CE
:1016C800D76F0D0E6CEC70F000D00C0ED1EC6DF0F5
:1016D8000009D8B40BD0040E0101276FB00E266F95
:1016E800010E0101286F0D0E85EC66F00D0ED1EC90
:1016F8006DF00009D8B40BD0020E0101276F580E07
:10170800266F010E0101286F0C0E85EC66F0110E94
:10171800D1EC6DF00009D8B406D0010E0101DA6FE2
:10172800B0EC2BF000D0100ED1EC6DF00009D8B45D
:101738001DD0EAEC71F00009D8A418D00101FA51C3
:101748000101D8B404D0CEEC67F0000E0CD0FC0E2A
:101758000101186F010E0101196F010E01011A6FC5
:10176800CEEC40F0010E0101FA6F00D0100EA6EC8D
:101778006FF00009D8B40CD0000E0101276F1E0EBF
:10178800266F010E0101286F100E85EC66F000D05F
:101798000001B0BF08D03E0E0001AF5D080E000189
:1017A800B059D8B00BD00101C0510101D8B452D002
:1017B8000001B951D8B455D04DD053D00101C05112
:1017C8000101D8B410D00101C0510101D8B439D0F9
:1017D8000001B0BF36D07D0E0001AF5D080E0001DC
:1017E800B059D8A02ED0000E0101C06F010E1BEC1D
:1017F8006AF00101005101010111D8B404D00CD0E4
:1018080030D010D02ED00D0E1BEC6AF00101005123
:1018180001010111D8B40DD00001B951D8B421D0BB
:1018280001D01FD00101D7510101D8A41AD015D079
:1018380018D00001B951D8A414D0000EFDEC68F0FE
:1018480010D00101C0510101D8B40BD00001B95129
:10185800D8B407D0010E0101C06F010E0101D76F86
:1018680000D0040E01010C6F000EDFEC5BF00CC120
:1018780038F20DC139F2020138510201485D020106
:10188800395102014959D8B009D00101E151D8A410
:1018980005D038C248F239C249F200D07CEC6BF06E
:1018A800DAEF06F010EC72F00009D8B4DAEF06F0BF
:1018B800C7EC71F0010E0101DF6FDAEF06F009EFF6
:1018C80005F02DC121F12EC122F134C123F131C11E
:1018D80006F132C107F133C108F112EC51F00101F0
:1018E800246F000E0101256F9EEC38F00101576F3F
:1018F8002DC106F12EC107F12FC108F130C109F140
:10190800040E01010A6F4BEC6CF001013551010125
:10191800D8A410D02DC106F12EC107F1F50E010192
:10192800086F020E0101096F040E01010A6F4BECEA
:101938006CF000D0010E010133652FEF13F031C1B7
:10194800D9FF32C1DAFFDE04D8A466D1050E010141
:10195800336562D1F90E010133250101006F0101E0
:10196800016BFF0E0123000E0101036F050E026FCC
:1019780086EC60F00101005101010111D8A44CD19D
:10198800FF0E0101366FFF0E0101376F0101335160
:101998000101386F396B0101365101013827010106
:1019A8003751010139230101385101013125D96E1F
:1019B8000101395101013221DA6E0001CD51DE18E1
:1019C800D8B424D0FF0E0101366FFF0E0101376F26
:1019D800010133510101386F396B010136510101A1
:1019E800382701013751010139230101385101011B
:1019F8003125D96E0101395101013221DA6EDE2813
:101A0800D8A42FEF13F002D02FEF13F0000E01012E
:101A1800596F010E586FE7D0050E010158250101D5
:101A2800366F000E010159210101376F0101335151
:101A38000101386F396B010136510101385D01012F
:101A48003951800A01013A6F01013751800A0101B9
:101A58003A59D8A082D0010159BF7FD0010159510C
:101A680005E1060E0101585DD8A077D031C100F11B
:101A780032C101F158C102F1400E0101036F010E9C
:101A88000101046F000E0101056F040E0101066FCC
:101A98001EEC65F0040E010158250101366F000E99
:101AA800010159210101376F010136510101312529
:101AB800D96E0101375101013221DA6EDF5001017F
:101AC800386F050E0101396F0101D89038330101D3
:101AD800392FFAD701013851070B01014C6F040E59
:101AE800010158250101366F000E0101592101013C
:101AF800376F0101365101013125D96E0101375186
:101B080001013221DA6EDF501F0B0101546F1E0EE6
:101B18000101546506D0000E01014F6F1F0E4E6F74
:101B28000AD0010E0101542501014E6F01014F6BCE
:101B3800000E4F2300D0400E0101156F010E010168
:101B4800166F57C117F14EC118F14CC119F1000EAB
:101B580001011A6FFCEC1DF03CD001015805010190
:101B68005911D8A436D031C100F132C101F1010EAA
:101B78000101026FE60E0101036F010E0101046FFE
:101B8800000E0101056F040E0101066F52EC67F0AB
:101B98000009D8B41ED02DC10EF12EC10FF1040ECC
:101BA800010158250101366F000E0101592101017B
:101BB800376F0101365101013125D96E01013751C5
:101BC80001013221DA6EDF500101106FEBEC62F097
:101BD80000D0050E010158250101586F000E0101C2
:101BE80059210101596F010133510101366F376BDA
:101BF800010136510101585D01015951800A010165
:101C0800386F01013751800A01013859D8B02FEFD8
:101C180013F002D72FEF13F031C1D9FF32C1DAFF29
:101C2800020EDE18D8A423D0010120EE02F03151B3
:101C3800D9263251DA22DE5002017219D8A42FEFC8
:101C480013F0000E0201696F000E02019C6F020E74
:101C580002019D6F000E0101D96F510E010134611F
:101C68002FEF13F0010E0201636F2FEF13F031C154
:101C7800D9FF32C1DAFF020EDF642FEF13F00B0E2B
:101C8800010133652FEF13F0010E0101D16F000E32
:101C98004BEC6EF0010120EE02F03151D9263251A1
:101CA800DA22DE5002017219D8A40AD0000E02010D
:101CB800696F000E02019C6F020E02019D6F00D039
:101CC800010120EE01F03151D9263251DA22DE50DD
:101CD80002017219D8A498D16A0E0101006F020E90
:101CE8000101016F000E0101026F31C103F132C120
:101CF80004F1030E0101056F040E0101066F52EC99
:101D080067F00009D8B480D1010120EE01F031510B
:101D1800D9263251DA22DF500101B46F010E0001D9
:101D2800BF6F2DC106F12EC107F1E90E0101086F41
:101D3800020E0101096F040E01010A6F4BEC6CF0F1
:101D4800010120EE07F03151D9263251DA22010182
:101D5800E651DE18D8A424D0010120EE08F0315154
:101D6800D9263251DA220101E751DE18D8A418D059
:101D7800010120EE09F03151D9263251DA22010150
:101D8800E851DE18D8A40CD0010120EE0AF0315138
:101D9800D9263251DA220101E951DE18D8B434D1FA
:101DA80031C1D9FF32C1DAFF040EDE18D8B429D107
:101DB80001D027D131C100F132C101F1030E010177
:101DC800026FE60E0101036F010E0101046F000EA0
:101DD8000101056F040E0101066F52EC67F000095E
:101DE800D8A40FD101D00DD1010120EE0BF0315153
:101DF800D9263251DA2202019E51DE5CD8B003D0D6
:101E0800000E1200FED0CFC250F1D0C251F1D1C2A3
:101E180052F1D2C253F131C100F132C101F1070EC2
:101E28000101026F440E0101036F010E0101046FED
:101E3800000E0101056F040E0101066F1EEC65F02E
:101E4800440E01010B6F010E01010C6F500E0101D0
:101E58000D6F010E01010E6F43EC3CF001014D6F57
:101E680001015569500E0101066F010E0101076F4E
:101E7800E20E0101086F010E0101096F040E010154
:101E88000A6F50EC6BF00009D8A40AD0500E01017B
:101E98000E6F010E01010F6F90EC67F00101556F95
:101EA8006A0E0101066F020E0101076FF10E0101B2
:101EB800086F020E0101096F040E01010A6F4BEC55
:101EC8006CF072C2F4F134EC71F00201726F040E1E
:101ED8000201736F060E0201696F000E02019C6F0A
:101EE800020E02019D6F31C100F132C101F1030EF2
:101EF8000101026F6E0E0101036F020E0101046FF2
:101F0800000E0101056F040E0101066F1EEC65F05D
:101F1800E60E0101066F010E0101076F6A0E01014D
:101F2800086F020E0101096F040E01010A6F4BECE4
:101F38006CF0000E02019E6F1D0E0201746F2B0ED5
:101F48000201756F440E0101006F010E0101016F5E
:101F5800000E0101026F740E0101036F020E0101F0
:101F6800046F020E0101056F040E0101066F1EECDD
:101F780065F0500E0101006F010E0101016F000EA6
:101F88000101026F740E0101036F020E0101046F5B
:101F9800060E0101056F040E0101066F1EEC65F0C7
:101FA8002DC100F12EC101F1000E0101026F740E66
:101FB8000101036F020E0101046F0A0E0101056F92
:101FC800040E0101066F1EEC65F04DC182F255C189
:101FD80083F201015551060D040EF326000EF4227A
:101FE800BD0EF324D96E0A0EF420DA6EDF500F0B03
:101FF8000201846F110E02019A6F000E0101D96F60
:1020080000D0000E120000D002016951D8A408D0F7
:102018000001BF51D8A404D002019B51D8B44ED0BE
:102028006E0E0101066F020E0101076F030E01011A
:1020380031250101086F000E010132210101096FEC
:10204800040E01010A6F50EC6BF00009D8B433D0CC
:1020580002016951D8B42FD00001BF51D8A42BD0A8
:1020680002019B51D8A427D0010120EE01F0315183
:10207800D9263251DA220101F451DE18D8A41ED033
:10208800F10E0101006F020E0101016F000E010146
:10209800026F31C103F132C104F1030E0101056F72
:1020A800040E0101066F52EC67F00009D8B406D09F
:1020B800000E120003D0000E120000D0010120EE25
:1020C80007F03151D9263251DA220101E651DE18E2
:1020D800D8A424D0010120EE08F03151D92632517C
:1020E800DA220101E751DE18D8A418D0010120EE48
:1020F80009F03151D9263251DA220101E851DE18AE
:10210800D8A40CD0010120EE0AF03151D926325161
:10211800DA220101E951DE18D8B4D0D0010120EE4D
:102128000BF03151D9263251DA221F0EDE18D8A40D
:1021380002D0000E12006A0E0101066F020E0101A4
:10214800076FF10E0101086F020E0101096F040EFD
:1021580001010A6F4BEC6CF072C2F4F1010120EE40
:1021680001F03151D9263251DA22DF500201726F63
:1021780031C1D9FF32C1DAFFDF500201736F060E99
:102188000201696F000E02019C6F020E02019D6F31
:1021980031C100F132C101F1070E0101026F6E0E6B
:1021A8000101036F020E0101046F000E0101056FAA
:1021B800040E0101066F1EEC65F031C100F132C159
:1021C80001F1030E0101026F6A0E0101036F020E95
:1021D8000101046F000E0101056F040E0101066F75
:1021E8001EEC65F0010120EE0BF03151D926325179
:1021F800DA22DF500101366F0101362902019E6F94
:1022080031C100F132C101F10C0E0101026F740EEF
:102218000101036F020E0101046F000E0101056F39
:1022280001013351F40F0101066F1EEC65F0010145
:102238003351F40F02019A6F000E0101D96F0101A9
:1022480020EE01F03151D9263251DA22DF50010156
:10225800B46F010E0001BF6F2DC106F12EC107F149
:10226800E90E0101086F020E0101096F040E010158
:102278000A6F4BEC6CF02DC121F12EC122F134C153
:1022880023F1010E0101246F010E0101256F9EEC5F
:1022980038F00101576F6A0E0101156F020E010136
:1022A800166F57C117F19EC218F1000E0101196F80
:1022B800010E01011A6FFCEC1DF0CDD16A0E01016F
:1022C800066F020E0101076FF10E0101086F020E81
:1022D8000101096F040E01010A6F4BEC6CF072C228
:1022E800F4F1010120EE01F03151D9263251DA2200
:1022F800DF500201726F31C1D9FF32C1DAFFDF50FE
:102308000201736F000E0201696F000E02019C6FDB
:10231800020E02019D6F31C100F132C101F1070EB9
:102328000101026F6E0E0101036F020E0101046FBD
:10233800000E0101056F040E0101066F1EEC65F029
:1023480031C100F132C101F1030E0101026F6A0EC1
:102358000101036F020E0101046F000E0101056FF8
:10236800040E0101066F1EEC65F031C100F132C1A7
:1023780001F1030E0101026F2FC103F130C104F115
:10238800000E0101056F040E0101066F1EEC65F0D9
:10239800010120EE0BF03151D9263251DA22DF50FB
:1023A8000101366F0101362902019E6F31C100F12A
:1023B80032C101F10C0E0101026F740E0101036FAD
:1023C800020E0101046F000E0101056F0101335176
:1023D800F40F0101066F1EEC65F001013351F40F93
:1023E80002019A6F010120EE01F03151D9263251D4
:1023F800DA22DF500101B46F010E0001BF6F2DC159
:1024080006F12EC107F1E90E0101086F020E010164
:10241800096F040E01010A6F4BEC6CF0000E01010C
:10242800D96F2DC121F12EC122F134C123F1010E42
:102438000101246F010E0101256F9EEC38F00101A6
:10244800576F6A0E0101156F020E0101166F57C111
:1024580017F19EC218F1000E0101196F010E01015A
:102468001A6FFCEC1DF0090E02017319D8A405D0EF
:102478000201755192EC71F0EED002017439E84214
:10248800070B0101566F010156510101D8B41ED046
:102498000101C751D8B41AD00D0E0101312501012F
:1024A800006F000E010132210101016FF30E0101DD
:1024B80033250101026F0101036BFF0E032356C18F
:1024C80004F114EC5AF0010E1200C5D00101565166
:1024D8000101D8A409D00101C751D8A405D0F3D768
:1024E80003D0F1D71200B7D0020174511F0B0C0AA8
:1024F800D8B4E9D7020174511F0B1E0AD8A407D01B
:1025080002017551D8A403D0DED71200A4D0D3C2DB
:1025180048F1D4C249F1D5C24AF1D6C24BF131C112
:1025280000F132C101F1070E0101026F3B0E0101FA
:10253800036F010E0101046F000E0101056F040E07
:102548000101066F1EEC65F03B0E01010B6F010ED9
:1025580001010C6F480E01010D6F010E01010E6F94
:1025680043EC3CF001013F69480E0101066F010E82
:102578000101076FE20E0101086F010E0101096FE9
:10258800040E01010A6F50EC6BF00009D8A40AD0C0
:10259800480E01010E6F010E01010F6F90EC67F0FC
:1025A80001013F6F6A0E0101066F020E0101076FFC
:1025B800F10E0101086F020E0101096F040E0101FD
:1025C8000A6F4BEC6CF072C2F4F134EC71F002015A
:1025D800726F040E0201736F060E0201696F000E1E
:1025E80002019C6F020E02019D6F31C100F132C1E0
:1025F80001F1030E0101026F6E0E0101036F020E5D
:102608000101046F000E0101056F040E0101066F40
:102618001EEC65F0E60E0101066F010E0101076F61
:102628006A0E0101086F020E0101096F040E010113
:102638000A6F4BEC6CF0000E02019E6F1D0E02013A
:10264800746F2C0E0201756F020E02019A6F000E54
:102658000101D96F00D0000E1200120089C12DF1BE
:102668008AC12EF1A00E01012F6F010E0101306FFA
:102678008BC131F18CC132F18DC133F18EC134F18E
:102688008FC135F165EC0CF00009D8B41200000ECA
:1026980001019F6F010120EE0CF08B51D9268C515E
:1026A800DA22DF501F0B0101A46F0101A6691B0E7E
:1026B8000101A4650BD0010120EE0DF08B51D92644
:1026C8008C51DA22DF500101A66F00D0000E010103
:1026D800986F0C0E01018B250101006F000E01019E
:1026E8008C210101016F020E0101026F0C0E010124
:1026F8008B250101036F000E01018C210101046F7C
:10270800060E0101056F040E0101066F52EC67F019
:102718000009D8B426D00C0E01018B250101006FE9
:10272800000E01018C210101016F060E0101026FEB
:102738000C0E01018B250101036F000E01018C2194
:102748000101046F0A0E0101056F040E0101066FF5
:1027580052EC67F00009D8B404D0010E0101986F5B
:1027680000D098C1A7F1000E0101996F0C0E01016C
:102778008B250101006F000E01018C210101016F01
:10278800030E0101026F0C0E01018B250101036F7D
:10279800000E01018C210101046F070E0101056F74
:1027A800040E0101066F52EC67F00009D8B426D078
:1027B8000C0E01018B250101006F000E01018C2117
:1027C8000101016F070E0101026F0C0E01018B253B
:1027D8000101036F000E01018C210101046F0B0E32
:1027E8000101056F040E0101066F52EC67F0000944
:1027F800D8B404D0010E0101996F00D099C19AF1A3
:102808000FEF18F02BEF18F01AD02BEF18F0190E65
:1028180001018D19D8A42BEF18F00D0E01018B259D
:102828000101186F000E01018C210101196F000EC2
:1028380001011A6FACEC69F02BEF18F044D0010ECF
:1028480001019F6F2BEF18F0010120EE0EF08B5164
:10285800D9268C51DA22410EDE18D8A4F8D301010A
:1028680020EE0FF08B51D9268C51DA22530EDE1848
:10287800D8A4EDD3010120EE10F08B51D9268C514C
:10288800DA22460EDE18D8A4E2D3F40E0101066F50
:10289800030E0101076F110E01018B250101086F5D
:1028A800000E01018C210101096F0B0E01010A6F55
:1028B80050EC6BF00009D8B4CAD3000E0101DA6FEE
:1028C800B0EC2BF0C4D30101A651030AD8B4B7D792
:1028D800290AD8B4B9D7BBD306D10101A751010140
:1028E800D8B4B5D30E0E01018B250101186F000E67
:1028F80001018C210101196F000E01011A6FACEC66
:1029080069F0A5D301019A510101D8B417D00F0E6F
:1029180001018B250101206F000E01018C210101AD
:10292800216F010120EE0EF08B51D9268C51DA224D
:10293800DF500101226F65EC48F089D3A00E010138
:10294800186F010E0101196F2D0E01011A6F010197
:1029580020EE01F08B51D9268C51DA22DF5001018B
:102968001B6F49EC6DF073D301019A510101D8B482
:1029780017D00F0E01018B2501010E6F000E01010A
:102988008C2101010F6F010120EE0EF08B51D92629
:102998008C51DA22DF500101106FB5EC44F057D3A7
:1029A800A00E0101186F010E0101196F2D0E010112
:1029B8001A6F010120EE01F08B51D9268C51DA22D1
:1029C800DF5001011B6F49EC6DF041D30101A751A4
:1029D8000101D8A43CD301D03AD3A00E0101186F4D
:1029E800010E0101196F2D0E01011A6F010120EE70
:1029F80001F08B51D9268C51DA22DF5001011B6F6F
:102A080049EC6DF024D30101A7510101D8B41FD3BB
:102A18000E0E01018B250101186F000E01018C219A
:102A28000101196F03EC6DF012D3010120EE0EF0D5
:102A38008B51D9268C51DA22520EDE18D8A419D01F
:102A4800010120EE0FF08B51D9268C51DA22530E5A
:102A5800DE18D8A40ED0010120EE10F08B51D92633
:102A68008C51DA22490EDE18D8A403D082EC71F01A
:102A7800EED2A00E0101186F010E0101196F2D0E83
:102A880001011A6F010120EE01F08B51D9268C51FA
:102A9800DA22DF5001011B6F49EC6DF0D8D2010139
:102AA800A7510101D8B4D3D20E0E01018B25010123
:102AB800186F000E01018C210101196FD3EC6BF026
:102AC800C6D20101A7510101D8B4C1D20E0E01012D
:102AD8008B250101186F000E01018C210101196F6E
:102AE80090EC63F0B4D20101A651000AD8B4F5D62F
:102AF800040AD8B4ACD2240AD8B404D7010AD8B48A
:102B080033D7030AD8B462D7010AD8B47CD7070AE6
:102B1800D8B48BD7010AD8B4C2D70B0AD8B4D1D746
:102B280096D25BD20E0E01018B2501012F6F000E8C
:102B380001018C210101306F39EC37F0A00E010141
:102B4800186F010E0101196F03EC6DF080D28BC173
:102B580000F18CC101F10E0E0101026FFC0E0101A2
:102B6800036F010E0101046F000E0101056F040ED1
:102B78000101066F1EEC65F00D0E01018B250101A8
:102B8800186F000E01018C210101196FD3EC6BF055
:102B98005ED28BC100F18CC101F10E0E0101026FF2
:102BA8008BC103F18CC104F1170E0101056F040EEE
:102BB8000101066F52EC67F00009D8B499D08BC1B7
:102BC80000F18CC101F1170E0101026F8BC103F1F5
:102BD8008CC104F1200E0101056F040E0101066F7E
:102BE80052EC67F00009D8B483D08BC100F18CC1D6
:102BF80001F1120E0101026F8BC103F18CC104F1C6
:102C08001B0E0101056F040E0101066F52EC67F0FF
:102C18000009D8B46DD08BC100F18CC101F11B0E35
:102C28000101026F8BC103F18CC104F1240E010173
:102C3800056F040E0101066F52EC67F00009D8B465
:102C480057D0010120EE1FF08B51D9268C51DA2282
:102C5800010110EE16F08B51E1268C51E222DE5074
:102C6800E618D8A445D0010120EE28F08B51D926CA
:102C78008C51DA22010110EE1FF08B51E1268C51A4
:102C8800E222DE50E618D8A433D00E0E01018B25BF
:102C980001012A6F000E01018C2101012B6F120E18
:102CA80001018B2501012C6F000E01018C2101010E
:102CB8002D6F010120EE16F08B51D9268C51DA22A6
:102CC800DF5001012E6FFDEC6BF0A00E0101186FB3
:102CD800010E0101196F0E0E01018B2501011A6FFA
:102CE800000E01018C2101011B6FF1EC46F0AFD100
:102CF800A00E0101186F010E0101196F2D0E0101BF
:102D08001A6F010120EE01F08B51D9268C51DA227D
:102D1800DF5001011B6F49EC6DF099D10E0E0101D6
:102D28008B2501010E6F000E01018C2101010F6F2F
:102D38003AEC61F0A00E0101186F010E0101196F44
:102D4800010E01011A6FACEC69F081D1010120EE8E
:102D58000EF08B51D9268C51DA22520EDE18D8A4E7
:102D680076D1010120EE0FF08B51D9268C51DA2251
:102D7800530EDE18D8A46BD1010120EE10F08B5150
:102D8800D9268C51DA22540EDE18D8A460D1FF005F
:102D98005ED1010120EE0EF08B51D9268C51DA223A
:102DA800530EDE18D8A453D1010120EE0FF08B5139
:102DB800D9268C51DA22460EDE18D8A448D1010152
:102DC80020EE10F08B51D9268C51DA22540EDE18E1
:102DD800D8A43DD1A00E0101186F010E0101196F91
:102DE800E1EC63F0010120EE11F08B51D9268C51F2
:102DF800DA22DF500001D76F150E0101276F7C0E14
:102E0800266F000E0101286F110E85EC66F01FD1A8
:102E1800010120EE0EF08B51D9268C51DA22530E87
:102E2800DE18D8A458D0010120EE0FF08B51D92616
:102E38008C51DA22520EDE18D8A44DD0010120EEB2
:102E480010F08B51D9268C51DA22460EDE18D8A400
:102E580042D0010120EE11F08B51D9268C51DA2293
:102E6800040EDF6038D0010120EE11F08B51D92615
:102E78008C51DA22DF500101976F010120EE12F028
:102E88008B51D9268C51DA22DF500101906F010154
:102E9800905101019C6F9D6B01019C5101019D6F37
:102EA8009C6B010120EE13F08B51D9268C51DA224C
:102EB800DF500101906F0101905101019C27000E24
:102EC8009D239CC126F19DC127F197C128F1010ED0
:102ED80085EC66F0BCD0A00E0101186F010E01014F
:102EE800196F2D0E01011A6F010120EE01F08B51AF
:102EF800D9268C51DA22DF5001011B6F49EC6DF0A5
:102F0800A6D00101A7510101D8B4A1D0010120EE3A
:102F18001BF08B51D9268C51DA22DF500101906FBA
:102F2800010190510101AF6FB06B0101AF51010177
:102F3800B06FAF6B010120EE1AF08B51D9268C517E
:102F4800DA22DF500101906F010190510101AF2792
:102F5800000EB0230101AF05090E0101B059D8A038
:102F680006D0000E0101B06F000EAF6F70D00101E6
:102F780020EE1CF08B51D9268C51DA22DF5000014B
:102F8800D76F0E0E01018B250101186F000E01018C
:102F98008C210101196F73EC69F0010120EE1DF01D
:102FA8008B51D9268C51DA22DF500101EE6F1E0EAB
:102FB80001018B250101066F000E01018C21010121
:102FC800076FF40E0101086F030E0101096F0B0E64
:102FD80001010A6F4BEC6CF03AD00101A651040ACA
:102FE800D8B48FD7270AD8B49DD5060AD8B4AFD598
:102FF800030AD8B4CED5010AD8B490D60F0AD8B4EB
:10300800A5D6010AD8B423D0030AD8B4C2D66A0A0E
:10301800D8B4FED61CD00101A451000AD8B417D0E8
:10302800020AD8B40CD4060AD8B411D0080AD8B405
:103038000BEF14F0100AD8B40AD0010AD8B443D45C
:10304800030AD8B450D5010AD8B4C7D700D00101B3
:103058009F510101D8A420D00C0E01018B2501013C
:10306800816F000E01018C210101826F8EC183F1F5
:10307800A00E0101846F010E0101856FA4C186F1C4
:10308800A6C187F101018D51F40F0101886F29EC68
:1030980060F001019F6F00D001019F510101D8B478
:1030A8001200E80E0101126FFF0E0101136F5FECB1
:1030B80031F00101BD51D8A423D1010E0101BE6F29
:1030C80001018D51FD0F01019B6F000E0101016F80
:1030D800020E006F240E0101026F59EC53F0000E2E
:1030E8000101016F020E006F240E0101026F59ECFD
:1030F80053F0000E0101016F020E006F9BC102F137
:1031080059EC53F0000E0101016F020E006F000E22
:103118000101026F59EC53F0000E01019E6F000E81
:103128000101016F020E006F010120EE03F08B51C7
:10313800D9268C51DA22DF500101026F59EC53F085
:10314800010120EE03F08B51D9268C51DA22DF5091
:1031580001019E1B000E0101016F020E006F0101AB
:1031680020EE04F08B51D9268C51DA22DF50010170
:10317800026F59EC53F0010120EE04F08B51D9266F
:103188008C51DA22DF5001019E1B000E0101016FF4
:10319800020E006F010120EE05F08B51D9268C51EB
:1031A800DA22DF500101026F59EC53F0010120EEE1
:1031B80005F08B51D9268C51DA22DF5001019E1B74
:1031C800000E0101016F020E006F010120EE06F0F2
:1031D8008B51D9268C51DA22DF500101026F59EC4C
:1031E80053F0010120EE06F08B51D9268C51DA22DA
:1031F800DF5001019E1B000E0101A56F38D0000EA3
:103208000101016F020E006F0101A5510101906FCC
:10321800916B0C0E01019027000E91230101905132
:1032280001018B25D96E0101915101018C21DA6EC2
:10323800DF500101026F59EC53F00101A551010162
:10324800906F916B0C0E01019027000E91230101E4
:10325800905101018B25D96E0101915101018C21F9
:10326800DA6EDF5001019E1B0101A52B00D0F70E7D
:103278000101906FFF0E0101916F01019B51010146
:10328800926F936B010190510101922701019151B5
:10329800010193230101A5510101946F956B01016F
:1032A80092510101945D01019551800A0101966FC7
:1032B80001019351800A01019659D8A0A0D7000EA8
:1032C8000101016F020E006F9EC102F159EC53F02B
:1032D800000E0101016F020E006F0D0E0101026F59
:1032E80059EC53F0000E0101016F020E006F0A0E37
:1032F8000101026F59EC53F0000E0101BE6F00D0BE
:10330800D00E0101126FFF0E0101136F5FEC31F057
:103318001200120001015A6F02016951D8A414D099
:103328000001BF51D8A410D002019B51D8A40CD0E1
:1033380001014A05D8A408D0010E0101486F010116
:103348005A5150EC71F008D0000E0101486F01018C
:103358005A5150EC71F000D08F0E01015B6F030ED3
:1033680001015C6FE2EC71F00009D8A416D0DFC24D
:103378000CF1E0C20DF1CBEC5FF0010E01010C2560
:1033880002012E6F000E01010D2102012F6F000EA8
:103398000201E26F000EE16F00D0DEEC71F000096F
:1033A800D8B4DED002019B51D8B47BD001015A5168
:1033B8000101D8B476D0000E02019B6F5BC1D9FF22
:1033C8005CC1DAFF73C2DFFF010120EE01F05B513F
:1033D800D9265C51DA2272C2DFFF010120EE02F029
:1033E8005B51D9265C51DA22B4C1DFFF6A0E0101B4
:1033F800006F020E0101016F000E0101026F5BC137
:1034080003F15CC104F1030E0101056F040E010113
:10341800066F1EEC65F06E0E0101006F020E0101D1
:10342800016F000E0101026F5BC103F15CC104F181
:10343800070E0101056F040E0101066F1EEC65F011
:10344800010120EE0BF05B51D9265C51DA229EC2B5
:10345800DFFF740E0101006F020E0101016F000E03
:103468000101026F5BC103F15CC104F10C0E0101A3
:10347800056F9AC206F11EEC65F0E20E0101326F8B
:10348800010E0101336F840E0101346F030E010137
:10349800356F02019A510C0F0101366F8CEC5AF00E
:1034A8005BD002012E510201E11956E102012F51B0
:1034B8000201E219D8A450D001015A510101D8B42F
:1034C80042D0EAEC71F00009D8B43DD00101F251C4
:1034D800D8B427D0B3EC28F00101516FE20E0101F6
:1034E800326F010E0101336F840E0101346F030E38
:1034F8000101356F51C136F18CEC5AF00009D8A49E
:103508002BD001D029D00201DF5102012E5D02012A
:10351800E05102012F59D8B01FD002012E4B2F2B9A
:103528001BD0E20E0101326F010E0101336F840ED0
:103538000101346F030E0101356F000E0101366F72
:103548008CEC5AF009D0DF0E0101126FFE0E01015A
:10355800136F5FEC31F000D00201E14BE22BE3D2B4
:10356800CBC256F1CCC257F1CDC258F1CEC259F1F7
:103578000101D951D8A4C1D00101D92B02019C5114
:10358800D8A4B8D0010E02016965CDD26E0E010132
:103598000B6F020E01010C6F560E01010D6F010E2B
:1035A80001010E6F43EC3CF00101526F0001BF5165
:1035B800D8B416D0560E0101066F010E0101076F2F
:1035C800E90E0101086F020E0101096F040E0101E5
:1035D8000A6F50EC6BF00009D8A4A5D201D0A3D291
:1035E8009DC20CF101010D6BCBEC5FF001010C5198
:1035F80002019C6F01015A510101D8B494D2020111
:10360800690702019D2B1F0E010152618CD25BC11B
:10361800D9FF5CC1DAFF73C2DFFF010120EE01F0C0
:103628005B51D9265C51DA2272C2DFFF010120EE1C
:1036380002F05B51D9265C51DA22B4C1DFFF6A0E71
:103648000101006F020E0101016F000E0101026FFE
:103658005BC103F15CC104F1030E0101056F040EA7
:103668000101066F1EEC65F06E0E0101006F020E7F
:103678000101016F000E0101026F5BC103F15CC122
:1036880004F1070E0101056F040E0101066F1EEC1F
:1036980065F0010120EE0BF05B51D9265C51DA226E
:1036A8009EC2DFFF740E0101006F020E0101016F5F
:1036B800000E0101026F5BC103F15CC104F10C0E45
:1036C8000101056F9AC206F11EEC65F0560E010164
:1036D800326F010E0101336F840E0101346F030E46
:1036E8000101356F02019A510C0F0101366F8CEC04
:1036F8005AF019D202019C0716D20101D905D8A4A3
:10370800E8D00001BF51D8B4E4D00101D92B6E0E26
:1037180001010B6F020E01010C6F560E01010D6FB6
:10372800010E01010E6F43EC3CF00101536F010ED5
:10373800020169659CD0560E0101066F010E010158
:10374800076FE90E0101086F020E0101096F040EEF
:1037580001010A6F50EC6BF00009D8B488D0000E54
:103768000201696F000E02019C6F020E02019D6F3B
:1037780001015A510101D8B4D6D11F0E010153617C
:10378800D2D1000E0001BF6F5BC1D9FF5CC1DAFF67
:1037980073C2DFFF010120EE01F05B51D9265C51B5
:1037A800DA2272C2DFFF010120EE02F05B51D92656
:1037B8005C51DA22B4C1DFFF6A0E0101006F020E0C
:1037C8000101016F000E0101026F5BC103F15CC1D1
:1037D80004F1030E0101056F040E0101066F1EECD2
:1037E80065F06E0E0101006F020E0101016F000EFF
:1037F8000101026F5BC103F15CC104F1070E010115
:10380800056F040E0101066F1EEC65F0010120EE44
:103818000BF05B51D9265C51DA229EC2DFFF740E91
:103828000101006F020E0101016F000E0101026F1C
:103838005BC103F15CC104F10C0E0101056F9AC272
:1038480006F11EEC65F0560E0101326F010E010102
:10385800336F840E0101346F030E0101356F0201CD
:103868009A510C0F0101366F8CEC5AF05CD1000EA6
:103878000001BF6F5BC1D9FF5CC1DAFF020EDF6ECA
:10388800010120EE01F05B51D9265C51DA22000ECD
:10389800DF6E010120EE02F05B51D9265C51DA227D
:1038A800B4C1DFFF01015A510101D8B43CD1E90E7E
:1038B8000101326F020E0101336F840E0101346F72
:1038C800030E0101356F030E0101366F8CEC5AF0BF
:1038D8002AD1020E0101D96523D102016905D8A4B4
:1038E8001BD12C0E0101126FFF0E0101136F5FEC4B
:1038F80031F06E0E01010B6F020E01010C6F560EB6
:1039080001010D6F010E01010E6F43EC3CF0010146
:10391800546F01015569560E0101066F010E010130
:10392800076FE20E0101086F010E0101096F040E15
:1039380001010A6F50EC6BF00009D8A40BD0560EA9
:1039480001010E6F010E01010F6F90EC67F001018C
:10395800556F00D0040E02017319D8B414D06A0E42
:103968000101066F020E0101076FE60E0101086FE3
:10397800010E0101096F040E01010A6F50EC6BF092
:103988000009D8B40AD0000E0201696F000E0201C6
:103998009C6F020E02019D6FBFD06A0E0101066F77
:1039A800020E0101076FE60E0101086F010E010109
:1039B800096F040E01010A6F50EC6BF00009D8A4DE
:1039C800ABD001D0A9D06A0E0101066F020E010129
:1039D800076FF10E0101086F020E0101096F040E55
:1039E80001010A6F4BEC6CF072C2F4F134EC71F027
:1039F8000201726F040E0201736F060E0201696FF5
:103A0800000E02019C6F020E02019D6F6E0E0101F5
:103A1800066F020E0101076F4D0E0101086F010EBE
:103A28000101096F040E01010A6F4BEC6CF06A0E7C
:103A38000101066F020E0101076F6E0E0101086F8A
:103A4800020E0101096F040E01010A6F4BEC6CF0C4
:103A5800E60E0101066F010E0101076F6A0E0101F2
:103A6800086F020E0101096F040E01010A6F4BEC89
:103A78006CF0000E02019E6F1D0E0201746F2B0E7A
:103A88000201756F4D0E0101006F010E0101016FFA
:103A9800000E0101026F740E0101036F020E010195
:103AA800046F020E0101056F040E0101066F1EEC82
:103AB80065F0560E0101006F010E0101016F000E45
:103AC8000101026F740E0101036F020E0101046F00
:103AD800060E0101056F040E0101066F1EEC65F06C
:103AE80054C17EF255C17FF201015551060D040EF5
:103AF800F326000EF422BD0EF324D96E0A0EF4202C
:103B0800DA6EDF500F0B0201806F0D0E02019A6F03
:103B1800000E0101D96F00D0000E0101D96F03D04A
:103B28000101D92B00D0E2EC71F00009D8A40CD027
:103B38000101C52B020E0101C56506D077EC45F0E1
:103B4800000E0101C56F00D00101B62B0101F15132
:103B58000101B65DD8A03FD00101B551020DC90ED3
:103B6800F324D96E080EF420DA6EDF38E832E83232
:103B7800030B0009D8B422D0010E01014B6F0101DB
:103B8800B551020DC90EF324D96E080EF420DA6E71
:103B9800DF3801014C6F4C334C31030B4C6F010182
:103BA8004B5101014C5F01014C3B4C374C37DF5006
:103BB80001014C193F0B4C19DF6E00D00101B52BE8
:103BC800F90E0101B56503D0000E0101B56F000EB5
:103BD8000101B66F00D0070ED1EC6DF00009D8B422
:103BE800120000EC3AF0010E0101F26F120012000F
:103BF80015C106F116C107F1E60E0101086F010EA5
:103C08000101096F040E01010A6F50EC6BF0000905
:103C1800D8A4120001D0120001011729D8B412004B
:103C280001D01200030E0101086F01011751060DA2
:103C3800050EF326000EF422BD0EF324D96E0A0EEB
:103C4800F420DA6EDF509EEC41F00101196151D089
:103C5800030E0101086F01011751060D050EF32629
:103C6800000EF422BD0EF324D96E0A0EF420DA6E8B
:103C7800DF509EEC41F001011B6F01011751060D49
:103C8800040EF326000EF422BD0EF324D96E0A0E9C
:103C9800F420DA6EDF380F0BB4EC6EF001011B5D17
:103CA800D8B012D001011751060D040EF326000EEC
:103CB800F422BD0EF324D96E0A0EF420DA6EDF3832
:103CC8000F0BB4EC6EF03AD0030E0101086F01013E
:103CD8001751060D050EF326000EF422BD0EF3242F
:103CE800D96E0A0EF420DA6EDF509EEC41F026D031
:103CF8002BD001011751060D040EF326000EF422F5
:103D0800BD0EF324D96E0A0EF420DA6EDF380F0BDD
:103D1800B4EC6EF00101196114D001011751060DC0
:103D2800040EF326000EF422BD0EF324D96E0A0EFB
:103D3800F420DA6EDF380F0BB4EC6EF001011F6F60
:103D480003D019C11FF100D0000E0101206FF90E38
:103D58000101206501D06BD215C104F116C105F12E
:103D6800010120519FEC57F00009D8B45DD2010140
:103D78002051020DC90EF324D96E080EF420DA6E14
:103D8800DF503F0B98EC62F001011C6F01012051DC
:103D9800020D010EF326000EF422C90EF324D96E8B
:103DA800080EF420DA6EDF38E832070B01011B6FCA
:103DB80001011C5101011B5DD8B019D01CC11BF1B8
:103DC80001012051020D010EF326000EF422C90E46
:103DD800F324D96E080EF420DA6E01011B3B1B4751
:103DE800DF5001011B191F0B1B19DF6E00D00101E9
:103DF8001A510101D8B42DD001012051020D010E34
:103E0800F326000EF422C90EF324D96E080EF4200E
:103E1800DA6EDF5001011819E00B1819DF6E010185
:103E28002051020DC90EF324D96E080EF420DA6E63
:103E3800DF5001011719C00B1719DF6E010120515E
:103E4800020DC90EF324D96E080EF420DA6EC00EE6
:103E5800DF1201012051020DC90EF324D96E080E9C
:103E6800F420DA6EDF503F0B01011719D8A444D0B3
:103E78001FC11BF101012051020D010EF326000E96
:103E8800F422C90EF324D96E080EF420DA6E01016B
:103E98001B3B1B47DF5001011B191F0B1B19DF6E52
:103EA80001012051020D010EF326000EF422C90E65
:103EB800F324D96E080EF420DA6EDF501F0B0101CF
:103EC8001819D8B405D0010117513EEC6FF000D095
:103ED80001012051020D010EF326000EF422C90E35
:103EE800F324D96E080EF420DA6EDF500101181998
:103EF800E00B1819DF6E120001012051020DC90EE6
:103F0800F324D96E080EF420DA6EDF38E832E8328E
:103F1800030B0009D8A4120001012051020D010E63
:103F2800F326000EF422C90EF324D96E080EF420ED
:103F3800DA6EDF38E832070B070AD8A43BD0010154
:103F48002051020D010EF326000EF422C90EF324AF
:103F5800D96E080EF420DA6EDF5001011819E00B53
:103F68001819DF6E01012051020DC90EF324D96E14
:103F7800080EF420DA6EDF5001011719C00B17196B
:103F8800DF6E1FC11BF101012051020D010EF32646
:103F9800000EF422C90EF324D96E080EF420DA6E4E
:103FA80001011B3B1B47DF5001011B191F0B1B198C
:103FB800DF6E120001012051020D010EF326000EE2
:103FC800F422C90EF324D96E080EF420DA6EDF50FD
:103FD8001F0B0101186145D001011F510001D85D77
:103FE800D8A0120001012051020D010EF326000E87
:103FF800F422C90EF324D96E080EF420DA6EDF50CD
:1040080001011819E00B1819DF6E01012051020D8A
:10401800C90EF324D96E080EF420DA6EDF500101C0
:104028001719C00B1719DF6E1FC11BF101012051B1
:10403800020D010EF326000EF422C90EF324D96EE8
:10404800080EF420DA6E01011B3B1B47DF5001010B
:104058001B191F0B1B19DF6E010117513EEC6FF086
:10406800120001012051020D010EF326000EF42268
:10407800C90EF324D96E080EF420DA6EDF501F0B38
:1040880001011819D8A461D001012051020D010EB7
:10409800F326000EF422C90EF324D96E080EF4207C
:1040A800DA6EDF38E832070B01011F6112000101E7
:1040B8002051020D010EF326000EF422C90EF3243E
:1040C800D96E080EF420DA6EDF38E832070B0001EB
:1040D800D861120001012051020D010EF326000ED5
:1040E800F422C90EF324D96E080EF420DA6EDF50DC
:1040F80001011819E00B1819DF6E01012051020D9A
:10410800C90EF324D96E080EF420DA6EDF500101CF
:104118001719C00B1719DF6E1FC11BF101012051C0
:10412800020D010EF326000EF422C90EF324D96EF7
:10413800080EF420DA6E01011B3B1B47DF5001011A
:104148001B191F0B1B19DF6E120001012051020DF4
:10415800010EF326000EF422C90EF324D96E080EC0
:10416800F420DA6EDF501F0B01011B6F010118519B
:1041780001011B5DD8B012000001D85101011F5D7B
:10418800D8B0120001012051020D010EF326000ED5
:10419800F422C90EF324D96E080EF420DA6EDF3843
:1041A800E832070B0001D861120001012051020D0D
:1041B800010EF326000EF422C90EF324D96E080E60
:1041C800F420DA6EDF5001011819E00B1819DF6EC0
:1041D80001012051020DC90EF324D96E080EF420F6
:1041E800DA6EDF5001011719C00B1719DF6E1FC1F6
:1041F8001BF101012051020D010EF326000EF422DD
:10420800C90EF324D96E080EF420DA6E01011B3BA7
:104218001B47DF5001011B191F0B1B19DF6E010122
:1042280017513EEC6FF012000101202B90D51F0EA4
:104238000101186160D0000E01011E6FF90E010125
:104248001E6501D058D0E20E0101046F010E010174
:10425800056F01011E519FEC57F00009D8B447D0F3
:1042680015C107F116C108F101011E51F8EC65F0FE
:1042780001011E51020D010EF326000EF422C90E93
:10428800F324D96E080EF420DA6EDF5001011819F4
:10429800E00B1819DF6E01011E51020DC90EF3243F
:1042A800D96E080EF420DA6EDF5001011719C00B21
:1042B8001719DF6E1FC11BF101011E51020D010EFE
:1042C800F326000EF422C90EF324D96E080EF4204A
:1042D800DA6E01011B3B1B47DF5001011B191F0B45
:1042E8001B19DF6E010117513EEC6FF0120001013E
:1042F8001E2BA4D700D01F0E010118611200B3C0F5
:104308001DF1F90E01011D6502D012001200010114
:104318001D51020D010EF326000EF422C90EF324DE
:10432800D96E080EF420DA6EDF501F0B1F0AD8B4BE
:104338000ED001011D51020DC90EF324D96E080ECD
:10434800F420DA6EDF503F0B3F0AD8A454D015C1D1
:1043580007F116C108F10001B351F8EC65F000014E
:10436800B351020D010EF326000EF422C90EF324F8
:10437800D96E080EF420DA6EDF5001011819E00B2F
:104388001819DF6E0001B351020DC90EF324D96E5E
:10439800080EF420DA6EDF5001011719C00B171947
:1043A800DF6E1FC11BF10001B351020D010EF32690
:1043B800000EF422C90EF324D96E080EF420DA6E2A
:1043C80001011B3B1B47DF5001011B191F0B1B1968
:1043D800DF6E0001B351020DC90EF324D96E080E29
:1043E800F420DA6E3F0EDF16010117513EEC6FF034
:1043F8001DC1B3F01200F90E01011D19D8A404D093
:10440800000E0001B36F00D001011D2BF90E010150
:104418001D657DD7120012001200000E4D6E000EB1
:104428004E6E000E0001B66F000E0001BD6F020E49
:10443800D1EC6DF00009D8B435D1010E4D6E0001F4
:10444800B72B020E0001B719D8A4FBD0000E00014B
:10445800B76FF7D0000E0001B66F000E0101276F8D
:104468001E0E266F000E0101286F020E85EC66F005
:1044780019D1010E0001B66F000E0101276F1E0E43
:10448800266F000E0101286F020E85EC66F00AD136
:104498000001B705D8A404D0010E0001B66F00D002
:1044A800000E0101276F400E266F000E0101286FD4
:1044B800020E85EC66F0F6D00001B705D8A404D04A
:1044C800010E0001B66F00D0000E0101276F7D0EAE
:1044D800266F000E0101286F020E85EC66F0E2D00F
:1044E80000D00001B705D8A404D0010E0001B66FB2
:1044F80000D0000E0101276FFA0E266F000E010191
:10450800286F020E85EC66F0CDD00001B705D8A45F
:1045180004D0010E0001B66F00D0010E0101276F13
:10452800F40E266F000E0101286F020E85EC66F06E
:10453800B9D00001B705D8A404D0010E0001B66FA8
:1045480000D0030E0101276FE80E266F000E01014F
:10455800286F020E85EC66F0A5D00001B705D8A437
:1045680004D0010E0001B66F00D0090E0101276FBB
:10457800C40E266F000E0101286F020E85EC66F04E
:1045880091D00001B705D8A404D0010E0001B66F80
:1045980000D0130E0101276F880E266F000E01014F
:1045A800286F020E85EC66F07DD00001B705D8A40F
:1045B80021D0010E0001B66F3850D8A40DD0000EDE
:1045C8000101276F500E266F000E0101286F020EA1
:1045D80085EC66F0010E0CD0090E0101276F740EF0
:1045E800266F000E0101286F020E85EC66F0000EA2
:1045F800386E58D03850D8B40CD0000E0101276F4F
:10460800500E266F000E0101286F020E85EC66F031
:1046180049D0090E0101276F740E266F000E0101A3
:10462800286F020E85EC66F03DD0000E0101276F61
:104638001E0E266F000E0101286F020E85EC66F033
:1046480031D00001B551000AD8B404D7010AD8B452
:1046580010D7030AD8B41CD7010AD8B42DD7070A33
:10466800D8B43FD7010AD8B450D7030AD8B461D711
:104678000D0AD8B436D7070AD8B433D7010AD8B444
:1046880030D7030AD8B42DD7010AD8B42AD71F0ABD
:10469800D8B463D7010AD8B474D7030AD8B485D775
:1046A800C4D700D0030ED1EC6DF00009D8B435D1D1
:1046B800010E4E6E0001B82B020E0001B819D8A4E5
:1046C800FBD0000E0001B86FF7D0000E0001BD6FDF
:1046D800000E0101276F1E0E266F000E0101286FC4
:1046E800030E85EC66F019D1010E0001BD6F000EB6
:1046F8000101276F1E0E266F000E0101286F030EA1
:1047080085EC66F00AD10001B805D8A404D0010EE2
:104718000001BD6F00D0000E0101276F400E266F0B
:10472800000E0101286F030E85EC66F0F6D000013B
:10473800B805D8A404D0010E0001BD6F00D0000E4A
:104748000101276F7D0E266F000E0101286F030EF1
:1047580085EC66F0E2D000D00001B805D8A404D0FA
:10476800010E0001BD6F00D0000E0101276FFA0E87
:10477800266F000E0101286F030E85EC66F0CDD080
:104788000001B805D8A404D0010E0001BD6F00D007
:10479800010E0101276FF40E266F000E0101286F2C
:1047A800030E85EC66F0B9D00001B805D8A404D092
:1047B800010E0001BD6F00D0030E0101276FE80E46
:1047C800266F000E0101286F030E85EC66F0A5D058
:1047D8000001B805D8A404D0010E0001BD6F00D0B7
:1047E800090E0101276FC40E266F000E0101286F04
:1047F800030E85EC66F091D00001B805D8A404D06A
:10480800010E0001BD6F00D0130E0101276F880E45
:10481800266F000E0101286F030E85EC66F07DD02F
:104828000001B805D8A421D0010E0001BD6F3B508E
:10483800D8A40DD0000E0101276F500E266F000E70
:104848000101286F030E85EC66F0010E0CD0090EED
:104858000101276F740E266F000E0101286F030EE9
:1048680085EC66F0000E3B6E58D03B50D8B40CD0A7
:10487800000E0101276F500E266F000E0101286FF0
:10488800030E85EC66F049D0090E0101276F740EFE
:10489800266F000E0101286F030E85EC66F03DD0EF
:1048A800000E0101276F1E0E266F000E0101286FF2
:1048B800030E85EC66F031D00001BC51000AD8B473
:1048C80004D7010AD8B410D7030AD8B41CD7010AF0
:1048D800D8B42DD7070AD8B43FD7010AD8B450D7CF
:1048E800030AD8B461D70D0AD8B436D7070AD8B4A2
:1048F80033D7010AD8B430D7030AD8B42DD7010A60
:10490800D8B42AD71F0AD8B463D7010AD8B474D741
:10491800030AD8B485D7C4D700D0090E0001B51949
:10492800D8A40CD04E50D8B409D00001B851000119
:10493800D8A404D0010E0001B66F00D00A0E000101
:10494800BC19D8A40CD04D50D8B409D00001B75127
:104958000001D8A404D0010E0001BD6F00D0080EDC
:104968000001B519D8A40CD04E50D8B409D0000114
:10497800BD510001D8B404D0010E0001B66F00D0BB
:10498800070E0001BC19D8A40CD04D50D8B409D0DA
:104998000001B6510001D8B404D0010E0001BD6F6A
:1049A80000D00001BD510001D8B40DD03A50D8B4A0
:1049B80002D03A0600D00001BB510001D8B403D0A0
:1049C8000001BB0700D00001B6510001D8B40DD0DA
:1049D8003750D8B402D0370600D00001B4510001D6
:1049E800D8B403D00001B40700D00001B4510001CD
:1049F800D8B403D0000E0001B66F0001BB5100010E
:104A0800D8B403D0000E0001BD6F3750D8B424D0FD
:104A180035D022D00A0E0001B46F0001B451040F42
:104A280013D00A0E0001B46F0001B451030F0CD06B
:104A38000A0E0001B46F0001B451020F05D00A0E2E
:104A48000001B46F0001B429376E18D00A0E0001B6
:104A5800B46FB4C037F012D00001B5510B0AD8B406
:104A6800D9D7070AD8B4DDD7010AD8B4E1D7030AE1
:104A7800D8B4E5D7010AD8B4E9D700D03A50D8B4A9
:104A880024D035D022D00A0E0001BB6F0001BB51E3
:104A9800040F13D00A0E0001BB6F0001BB51030FB6
:104AA8000CD00A0E0001BB6F0001BB51020F05D0EC
:104AB8000A0E0001BB6F0001BB293A6E18D00A0E1E
:104AC8000001BB6FBBC03AF012D00001BC510B0A09
:104AD800D8B4D9D7070AD8B4DDD7010AD8B4E1D7F2
:104AE800030AD8B4E5D7010AD8B4E9D700D0000141
:104AF800B651F6EC71F00001BD5113EC71F01200E3
:104B08000101416F0101C451D8A404D00101DE5153
:104B1800D8B44AD2800E0001B919D8B459D02CC0E3
:104B28000DF12DC00EF1E3C20FF1E4C210F151EC0A
:104B38006AF001010D5101010E11D8A413D0000E25
:104B480001010E6F0001CA51010D000EF324D96E48
:104B5800060EF420DA6EDF50F2EC6FF0010E000161
:104B6800C46F27D02CC10EF1CAC000F10101016B3E
:104B7800CFC102F10101036BC90E0101046F000EE0
:104B8800056F000E066F000E076F38EC69F0000E17
:104B980001010025D96E060E01010121DA6EDF50F0
:104BA800F2EC6FF0000E0001C46F000E0101BF6F40
:104BB80000D0020E0101DE19D8A406D0010E0101B1
:104BC800C46F000E0101DE6F000E0101DB6F2BD0F8
:104BD800020E0101DE19D8A407D0010E0101C46F2D
:104BE800000E0101DE6F1FD00101DB2B010E010158
:104BF800DB6519D0F25000D0070E20EC58F0000EFB
:104C08000101C46F000E0101DE6F010E0101F36F97
:104C1800000E0101016F040E006F030E0101026F07
:104C280059EC53F000D02C042D10D8A407D0010E55
:104C3800426EA7C034F0A8C035F000D0080ED1EC01
:104C48006DF00009D8B408D00101CC51D8B404D013
:104C5800010E0101D36F00D0080EA6EC6FF0000919
:104C6800D8B42ED00101CC51D8A41CD0F6C10CF177
:104C780001010D6BCBEC5FF001010C510101CD6F0F
:104C88000101CD5100080101F6250101CC6FCDC10C
:104C980026F10101276B010E0101286F080E85EC32
:104CA80066F00ED0CCC126F10101276B010E01017F
:104CB800286F080E85EC66F0000E0101CC6F00D05D
:104CC8000101C6510101D8A406D002013C510201DC
:104CD8003D11D8B442D10001C451D8B43ED101012C
:104CE80041510101D8B439D13EC22DF13FC22EF154
:104CF80001012D1F2E1F2D4B2E2B040E01010C6FB1
:104D0800010E09EC55F001012D5101010C2501019D
:104D1800466F01012E5101010D210101476F46C166
:104D28002DF147C12EF101012D1F2E1F2D4B2E2BCA
:104D38002DC144F12EC145F1080E0101475DD8A0EF
:104D48000BD0FE0E0101465D0F0E01014759D8B088
:104D580003D00101C62B36D0010146290F0E0101EF
:104D68004759D8A00CD0FD0E0101465D170E010170
:104D78004759D8B004D0020E0101C62723D0080E27
:104D88000101455DD8A00BD0FE0E0101445D0F0E58
:104D980001014559D8B003D00101C60713D001015C
:104DA80044290F0E01014559D8A00CD0FD0E010170
:104DB800445D170E01014559D8B004D0020E010117
:104DC800C65F00D0040E01010C6F010E09EC55F00E
:104DD8000CC146F10DC147F1A7C000F1A8C001F10F
:104DE80046C102F147C103F1000E0101046F000E34
:104DF800056F010E066F000E076F38EC69F000C1F1
:104E080037F101C138F137C117F138C118F13CC287
:104E180019F13DC21AF1000E01011B6F000E1C6F43
:104E2800010E1D6F000E1E6F71EC5BF017C142F191
:104E380018C143F142C10DF143C10EF1070E010142
:104E4800106F0F6951EC6AF00DC13DF10EC13EF1D2
:104E58003DC10DF13EC10EF1040E01010F6F010EAF
:104E6800F7EC3FF001013D510101425F01013E5164
:104E78000101435B42C1A7F043C1A8F042C106F15A
:104E880043C107F1070E0101096F086911EC67F0CA
:104E980006C12CF007C12DF0CAC017F10101186B2B
:104EA800C6C119F101011A6BC90E01011B6F000E71
:104EB8001C6F000E1D6F000E1E6F71EC5BF0010180
:104EC80017510001CA6FC6C12FF10101306B000EE6
:104ED8000101C66F000E02013D6F000E3C6F000E0F
:104EE8000201336F000E326F2C502D10D8A408D059
:104EF800000E2D6E100E2C6E30C2A7F031C2A8F035
:104F0800070E356E3468020E0101DE6F040E0101D2
:104F18000C6F010E09EC55F00001A75101010C2599
:104F280001013F6F0001A85101010D210101406FEE
:104F3800E2EC71F00101316F3FC133F101014051E1
:104F48000101326F000E0101016F040E006F020EA5
:104F58000101026F59EC53F023D00001CA5101013D
:104F6800DC19D8A40BD00101C451D8B407D0010171
:104F780041510101D8A414D001D012D00101D3515C
:104F8800D8B40ED0E6EC71F00009D8B409D001010C
:104F980041510101D8B404D0000E0101D36F00D0F3
:104FA80002014C4B4D2B4ED0060EA6EC6FF00009BB
:104FB800D8B41CD0000E01010D6F320E0C6FCBEC73
:104FC8005FF0540E01010C250101396F240E010117
:104FD8000D2101013A6F39C126F13AC127F1000EBE
:104FE8000101286F060E85EC66F000D0060ED1ECA4
:104FF8006DF00009D8B40DD0000E01010E6F01014B
:10500800FB51F2EC6FF0000E0201E66F010EE56F46
:1050180000D00201E6510BE1330E0201E55DD8B084
:1050280006D028EC70F00201E54BE62B00D0330ED9
:105038000201E5190201E611D8A404D00201E54BEA
:10504800E62B00D00101DC510101D8A404D0C80E20
:105058000101DC6F03D00101DC0700D0050ED1ECA3
:105068006DF00009D8A4EDEC6AF0090EA6EC6FF01B
:105078000009D8B44CD0F2EC71F001012D6F010198
:105088002D513E0DF3CF3BF1F4CF3CF13BC108F17C
:105098003CC109F128EC6FF008C10BF109C10CF112
:1050A8000AC10DF1000E01010E6F7A0E01010F6F9A
:1050B800440E0101106FEBEC4DF00BC134F10CC143
:1050C80035F10DC136F1000E01010B6F280E0101FB
:1050D8000C6F430E01010D6F34C108F135C109F1A0
:1050E80036C10AF11CEC49F008C117F109C118F1E1
:1050F8000AC119F142EC4DF017C126F118C127F188
:10510800010E0101286F090E85EC66F000D0090E2A
:10511800D1EC6DF00009D8B417D0070E20EC58F088
:10512800000E0101C46F000E0101DE6F010E0101C6
:10513800F36F000E0101016F040E006F050E0101EF
:10514800026F59EC53F000D00F0ED1EC6DF000094E
:10515800D8B41200010E0101F36F12001200000E04
:105168000101176F8F0E0101256F030E0101266FD4
:1051780025C1D9FF26C1DAFF010EDF6E000E01013D
:10518800186F060E0101186F010E0101226F010E42
:105198000101226501D096D00001C151060DBD0E56
:1051A800F3240101066F0A0EF4200101076FE20ED5
:1051B8000101086F010E0101096F040E01010A6F58
:1051C80050EC6BF00009D8A449D00001C151060D7C
:1051D800050EF326000EF422BD0EF324D96E0A0E36
:1051E800F420DA6EDE28D8B439D00001C151060D9A
:1051F800BD0EF3240101006F0A0EF4200101016FB6
:10520800000E0101026F25C103F126C104F1010E50
:105218000101056F040E0101066F1EEC65F0010126
:1052280020EE05F02551D9262651DA22040E010177
:10523800086F0001C151060D050EF326000EF42279
:10524800BD0EF324E16E0A0EF420E26EE7509EECE8
:1052580041F0DF6E010E0101176F03D00101220733
:1052680000D03E0E0001C16103D00001C12B27D040
:10527800000E0001C16F010117510101D8A422D00D
:10528800E20E0101006F010E0101016F000E010124
:10529800026F25C103F126C104F1010E0101056F5A
:1052A800040E0101066F1EEC65F0010120EE05F009
:1052B8002551D9262651DA22FF0EDF6E03D00101CF
:1052C800222B65D7000E01011C6F000E0101246F0F
:1052D800000E0101196FC0C016F11AD20001D15198
:1052E800D8B4FCD001012451010D3E0EF324D96E2F
:1052F800030EF420DA6EDF500101236F1E0E010148
:105308000C6F010E01010D6F0101235143EC62F096
:10531800010E010124250101006F0101016B000E3E
:105328000123000E0101036F050E026F2FEC6EF0D2
:10533800010E01010027000E0101012301010051A6
:1053480001012525D96E0101015101012621DA6EDD
:105358001EC1DFFF010E010124250101006F0101BB
:10536800016B000E0123000E0101036F050E026F91
:105378002FEC6EF0020E01010027000E010101233F
:105388000101005101012525D96E010101510101D9
:105398002621DA6E1FC1DFFF010E0101242501015C
:1053A800006F0101016B000E0123000E0101036F64
:1053B800050E026F2FEC6EF0030E01010027000EA0
:1053C800010101230101005101012525D96E0101C7
:1053D800015101012621DA6E20C1DFFF010E010112
:1053E80024250101006F0101016B000E0123000E4D
:1053F8000101036F050E026F2FEC6EF0040E010120
:105408000027000E0101012301010051010125259A
:10541800D96E0101015101012621DA6E21C1DFFF98
:1054280001012351020D010EF326000EF422C90ECC
:10543800F324D96E080EF420DA6EDF38E832070B51
:105448000101146F050E0101156F0101D890143781
:105458000101152FFAD70101145101011A6F010139
:105468002351020D010EF326000EF422C90EF32477
:10547800D96E080EF420DA6EDF501F0B01011A27CF
:10548800010E010124250101006F0101016B000ECD
:105498000123000E0101036F050E026F2FEC6EF061
:1054A800050E01010027000E010101230101005131
:1054B80001012525D96E0101015101012621DA6E6C
:1054C8001AC1DFFF050E01011C270101242B000171
:1054D800D151D8B41DD10001D1071AD1E20E010172
:1054E800046F010E0101056F0001C0519FEC57F0D8
:1054F8000009D8A4F8D00001C051020DC90EF32448
:10550800D96E080EF420DA6EDF503F0B3F0AD8B48C
:10551800EAD01E0E01010C6F010E01010D6F000192
:10552800C05143EC62F0010E010124250101006F16
:105538000101016B000E0123000E0101036F050E2E
:10554800026F2FEC6EF0010E01010027000E010121
:1055580001230101005101012525D96E01010151E5
:1055680001012621DA6E1EC1DFFF010E010124258B
:105578000101006F0101016B000E0123000E010102
:10558800036F050E026F2FEC6EF0020E010100276B
:10559800000E010101230101005101012525D96EE9
:1055A8000101015101012621DA6E1FC1DFFF010E41
:1055B800010124250101006F0101016B000E012387
:1055C800000E0101036F050E026F2FEC6EF0030E43
:1055D80001010027000E0101012301010051010111
:1055E8002525D96E0101015101012621DA6E20C15C
:1055F800DFFF010E010124250101006F0101016B8C
:10560800000E0123000E0101036F050E026F2FEC3F
:105618006EF0040E01010027000E010101230101B3
:10562800005101012525D96E0101015101012621F1
:10563800DA6E21C1DFFF0001C051020D010EF32611
:10564800000EF422C90EF324D96E080EF420DA6E87
:10565800DF38E832070B0101146F050E0101156FE1
:105668000101D89014370101152FFAD701011451FF
:1056780001011B6F0001C051020D010EF326000E3F
:10568800F422C90EF324D96E080EF420DA6EDF5026
:105698001F0B01011B27010E010124250101006FC9
:1056A8000101016B000E0123000E0101036F050EBD
:1056B800026F2FEC6EF0050E01010027000E0101AC
:1056C80001230101005101012525D96E0101015174
:1056D80001012621DA6E1BC1DFFF050E01011C271F
:1056E8000101242B00D0F90E0001C06103D0000194
:1056F800C02B04D0000E0001C06F00D00001C051C3
:1057080001011619D8A404D0010E0101196F00D0A7
:10571800080E0101246107D0010119510101D8A423
:1057280002D0DCD500D00101185101011C2501016E
:105738001D6F01011D51010DF35001012525D96E81
:10574800F45001012621DA6ECDC0DFFF01011D2BC7
:1057580001011D5112001200000E01015F6F000EC1
:105768000001CC6F000E0101006F000E8DEC6DF092
:10577800000E506E000E496E200E7CEC50F0000EAC
:105788000001D06F000E0101B76F0001D75107EC7F
:1057980071F0020E12EC6EF0600E7CEC50F0000E10
:1057A80001010E6F000EF2EC6FF0190E0101276F68
:1057B800640E266F000E0101286F110E85EC66F04D
:1057C800000E0101276F780E266F010E0101286F68
:1057D800120E85EC66F0010E0101BE6F0400010196
:1057E800B851D8B409D0000E0101B86F3E0ED5ECFF
:1057F80033F00101C82B00D00101BA51D8B409D047
:10580800000E0101BA6F200E7CEC50F0600E7CECAB
:1058180050F00101BB51D8B407D0600E7CEC50F0B9
:10582800000E0101BB6F00D00101B951D8A404D00A
:105838000101B751D8B4ACD1000E0101676F000E59
:1058480001016A6F000E696F000E0101C86F010146
:10585800B951D8B455D0000E0101B96F1FEC71F0E1
:105868000101ED6F1FEC71F0000E0101656F1DD095
:1058780001016551010D460EF324D96E030EF42083
:10588800DA6E1FEC71F0DF6E01016551010D460EF5
:10589800F324D96E030EF420DA6EDF500101671984
:1058A8000101676F0101652B00D0FF0E0101546FE4
:1058B800FF0E0101556F0101ED510101566F576B44
:1058C8000101545101015627010155510101572386
:1058D800010165510101586F596B010156510101D0
:1058E800585D01015951800A01015A6F0101575150
:1058F800800A01015A59D8A0BBD7000E0001D06F09
:105908000101B751D8B41DD0000E0101666F3A0EDF
:105918000101666501D011D001016651010D460EE5
:10592800F324D96E030EF420DA6EDF5001016719F3
:105938000101676F0101662BEAD7000E0101B76FFD
:1059480000D047C369F101016A6B01016951010186
:105958006A6F696B0301465101016927000E6A23CA
:105968000101DA510101D8B41CD0D00E0101546FE5
:10597800CA0EE82EFED7542FFCD7D00E0101546F63
:10598800CA0EE82EFED7542FFCD7090E01016A5D16
:10599800D8B0DCD069C114F16AC115F1E4EC69F042
:1059A800D5D0010E01015F6F010167510101D8A433
:1059B800CDD001D0CBD00101AD510101691905E16C
:1059C8000101AE5101016A19D8A4C0D00101AD513D
:1059D8000101AE11D8A42BD0000E0101616F000E99
:1059E800626F000E636F000E646F010164511FE166
:1059F800100E0101625D020E01016359D8B017D083
:105A080001D015D061C105F162C106F163C107F18A
:105A180064C108F112EC6FF0000E01016127100E4D
:105A28006223000E6323000E6423DFD700D0000E2C
:105A38000101686F370E0101686501D044D0ADC11E
:105A480000F1AEC101F1000E0101036F380E026FC3
:105A58002FEC6EF0010100510101682501015B6F17
:105A68000101015101015C6F000E01015C2301017C
:105A78005D6B01015D2301015E6B5BC105F15CC1DA
:105A880006F15DC107F15EC108F101016851010D20
:105A9800020EF326000EF422460EF3240101096FCC
:105AA800030EF42001010A6F040E01010B6F000EB2
:105AB8000C6F000E0D6F000E0E6F68EC65F0040E93
:105AC80001016827B7D70101AD4BAE2B0101AF51DA
:105AD8000101AD193BE10101B0510101AE19D8A492
:105AE80035D0000E0101056F000E066F020E076F1C
:105AF800000E086FEE0E0101096F010E01010A6F19
:105B0800010E01010B6F000E0C6F000E0D6F000EE1
:105B18000E6F68EC65F0010E0101056F000E066F4F
:105B2800020E076F000E086FF40E0101096F030ED5
:105B380001010A6F0B0E01010B6F000E0C6F000EB6
:105B48000D6F000E0E6F68EC65F000D0030E0101BA
:105B5800276FE80E266F000E0101286F110E85ECE5
:105B680066F00101DA510101D8B412D0010169517E
:105B780001016A11D8A40CD0270E0101276F100E5D
:105B8800266F000E0101286F110E85EC66F000D01B
:105B98000101DA510101D8A424D0020E0101C8651F
:105BA80006D0010E01015F6F000E0101C86F0101EF
:105BB8005F510101D8B415D00101AF510101AD5DAC
:105BC8000101B0510101AE59D8B007D0ADC10BF1F8
:105BD800AEC10CF1CEEC6FF000D0000E01015F6F8A
:105BE80000D0000E0101016F010E006FEF0E0101E0
:105BF800026F010E0101036F3DEC4FF00009D8B4AC
:105C080038D0000E01010C6F040E01010D6FEC0E6F
:105C180001010E6F010E01010F6F0101EF5135EC0B
:105C28003BF00009D8B425D004010151C00B010193
:105C3800606F01016045E846030B0101606F030EC8
:105C480001016019D8A415D0020E0101066F040ED7
:105C58000101076F460E0101086F030E0101096F6C
:105C68003B0E01010A6F4BEC6CF0010E0101B76F9E
:105C780000D0020ED1EC6DF00009D8B405D09376AF
:105C880093B602D08A9600D0110ED1EC6DF00009BF
:105C9800D8A402D017D000D0ACA2FED7720ED3EC95
:105CA80070F000D0ACA2FED7730ED3EC70F000D029
:105CB800ACA2FED7740ED3EC70F000D0ACA2FED725
:105CC800FF0000D0020EA6EC6FF00009D8B40BD08C
:105CD800000E0101276FFA0E266F000E0101286FD2
:105CE800020E85EC66F0110EA6EC6FF00009D8B430
:105CF8000BD0030E0101276FE80E266F000E01017D
:105D0800286F110E85EC66F0120ED1EC6DF00009CB
:105D1800D8B464D5FF0062D5120001012E510101EB
:105D2800D8B4C6D2C90E01013061C2D22CC1D9FF84
:105D38002DC1DAFFDE28D8A42AD00101DE51D8A46B
:105D480026D0050EA6EC6FF00009D8B41CD0060EBC
:105D580001010D6F0E0E0C6FCBEC5FF01C0E0101F4
:105D68000C2501013B6F0C0E01010D2101013C6F57
:105D78003BC126F13CC127F1000E0101286F050E39
:105D880085EC66F000D0010E0101C46F45D2020E09
:105D980001012E6541D2010120EE01F02C51D926D6
:105DA8002D51DA22DF500101316F0101315101011A
:105DB8004E6F4F6B01014E5101014F6F4E6B010148
:105DC80020EE02F02C51D9262D51DA22DF500101A4
:105DD800316F0101315101014E27000E4F234EC191
:105DE80033F14FC134F1040E01010C6F010E09ECBF
:105DF80055F00CC14AF10DC14BF1B1C117F1B2C157
:105E080018F14AC119F14BC11AF1FF0E01011B6FBC
:105E1800070E1C6F000E1D6F000E1E6F71EC5BF0FD
:105E280017C13DF118C13EF1A7C000F1A8C001F1AA
:105E38004AC102F14BC103F1000E0101046F000ECB
:105E4800056F010E066F000E076F38EC69F000C190
:105E58004CF101C14DF14CC144F14DC145F14CC16A
:105E680000F14DC101F1000E0101036F3D0E026FFB
:105E7800000E0101046F000E056F010E066F000E83
:105E8800076F38EC69F000C14AF101C14BF101011B
:105E98002F510101D8B415D04AC100F14BC101F10D
:105EA800000E0101036F050E026F000E0101046F61
:105EB800000E056F010E066F000E076F38EC69F0D3
:105EC80014D04AC100F14BC101F1000E0101036F6A
:105ED800000E026F000E0101046F000E056F010E27
:105EE800066F000E076F38EC69F000C14CF101C174
:105EF8004DF14EC117F14FC118F13DC119F13EC125
:105F08001AF1000E01011B6F000E1C6F010E1D6FB0
:105F1800000E1E6F71EC5BF017C14AF118C14BF10E
:105F28004AC14EF14BC14FF14CC131F14DC132F173
:105F38000101311F321F314B322B01014E5101013A
:105F480031250101486F01014F5101013221010141
:105F5800496F48C131F149C132F10101311F321F86
:105F6800314B322BFF0E010131250101466FFF0E27
:105F7800010132210101476F2CC1D9FF2DC1DAFF80
:105F880001013051DE18D8A414D0080E0101495D72
:105F9800D8A005D0800E0101495DD8A00AD0080E0E
:105FA8000101475DD8A075D0800E0101475DD8B0CA
:105FB80070D00101F351D8A404D00101C451D8A470
:105FC800D4D04CC117F14DC118F14EC119F14FC1D0
:105FD8001AF1000E01011B6F000E1C6F010E1D6FE0
:105FE800000E1E6F71EC5BF017C13CF218C13DF258
:105FF8004CC10DF14DC10EF1070E0101106F0F6973
:1060080051EC6AF00DC131F10EC132F14EC10DF102
:106018004FC10EF1070E0101106F0F6951EC6AF0C4
:1060280001010D1F01010E1F01010D4B0E2B010176
:106038000D510101312502013E6F01010E5101018F
:10604800322102013F6F30C117F10101186B2CC1D9
:10605800D9FF2DC1DAFFDF500101316F0101315144
:106068000101196F1A6BC90E01011B6F000E1C6F1D
:10607800000E1D6F000E1E6F71EC5BF001011751D1
:106088000101C66F010E0101DE6F000E0101C46F30
:106098006CD001014E5101014C5D01014F510101CC
:1060A8004D59D8B047D0800E0101495DD8B042D0D3
:1060B80001014C51000801014E250101436F010106
:1060C80043510001A727000EA8234CC131F14DC14F
:1060D80032F10101311F321F314B322B01014E5178
:1060E800010131250201446F01014F5101013221A3
:1060F8000201456F020144510201465D020145510A
:1061080002014759D8B016D04CC131F14DC132F116
:106118000101311F321F314B322B01014E51010158
:1061280031250201466F01014F510101322102015F
:10613800476F00D00101C451D8B404D00101DE5129
:10614800D8A404D0010E0101C46F00D0010144514C
:1061580002015A5D0101455102015B59D8B005D0D1
:1061680044C15AF245C15BF200D0F2EC71F0010172
:10617800316F010131513E0DF3CF3FF1F4CF40F1C2
:106188003FC108F140C109F128EC6FF008C10BF1DB
:1061980009C10CF10AC10DF1000E01010E6F7A0E52
:1061A80001010F6F440E0101106FEBEC4DF00BC1B4
:1061B80035F10CC136F10DC137F1000E01010B6F3D
:1061C800280E01010C6F430E01010D6F35C108F156
:1061D80036C109F137C10AF11CEC49F008C117F1C1
:1061E80009C118F10AC119F142EC4DF017C126F1A5
:1061F80018C127F1010E0101286F090E85EC66F020
:10620800000E02014D6F000E4C6F030E01012E654A
:1062180003D0010E120000D0F2EC71F00101316FD1
:10622800010131513E0DF3CF41F1F4CF42F141C1AB
:1062380008F142C109F128EC6FF008C10BF109C15E
:106248000CF10AC10DF1000E01010E6F7A0E010169
:106258000F6F440E0101106FEBEC4DF00BC138F1DC
:106268000CC139F10DC13AF1000E01010B6F280E76
:1062780001010C6F430E01010D6F38C108F139C1DE
:1062880009F13AC10AF11CEC49F008C117F109C13A
:1062980018F10AC119F142EC4DF017C126F118C1E5
:1062A80027F1010E0101286F090E85EC66F000D078
:1062B800000E12001200140E0101266F010E0101DA
:1062C800276F5ED2250E01012D19D8B405D0010122
:1062D8002D517CEC70F054D2000E01012C6F000E91
:1062E8002B6F000E01012A6F07D001012A850101D9
:1062F800124B132B01D00BD012C1F6FF13C1F7FFBD
:106308000800F550300AD8B4F0D701D0F5D712C13B
:10631800F6FF13C1F7FF0800F550FBEC6EF0D8A0AC
:10632800A8D0000E01012C6F000E2B6F00D02BC1DE
:1063380000F12CC101F1000E0101036F0A0E026F7A
:106348002FEC6EF000C12BF101C12CF1D00E010130
:106358001C6FFF0E01011D6F12C1F6FF13C1F7FF7D
:106368000800F55001011E6F1F6B01011C5101014E
:106378001E2701011D5101011F2301011E510101A9
:106388002B2701011F5101012C230101124B132B53
:1063980012C1F6FF13C1F7FF0800F550FBEC6EF0D1
:1063A800D8A067D0C4D765D0120085D000D001012D
:1063B8002A8F81D001012B510101235D01012C514C
:1063C80001012459D8B009D00101235101012B5FE3
:1063D8000101245101012C5B0AD0000E01012C6F30
:1063E800000E2B6F04D0200E7CEC70F000D0010161
:1063F8002B07D8A02C0701012B29F5E101012C2935
:10640800D8B40DD0F0D70BD021C1D9FF22C1DAFF03
:10641800DF507CEC70F00101214B222B00D00101F0
:106428002307D8A0240701012329EEE1010124292B
:10643800D8B4A6D1E9D7A4D126C1D9FF27C1DAFF9C
:10644800DF5001012D6F020E01012627000E2723C0
:1064580000D02D0E0101216F010E0101226F000EE7
:106468000101246F010E236FA5D7C00E01012A1365
:1064780022D012C1F6FF13C1F7FF0101124B132BF3
:106488000800F5CF2DF101012D51000AD8B41200F2
:10649800580AD8B48CD73B0AD8B4CED7070AD8B490
:1064A8000AD00D0AD8B407D01C0AD8B4DED70D0A12
:1064B800D8B47DD7CED72AC11CF1C00E01011C1754
:1064C800D8A419D026C1D9FF27C1DAFFDECF28F119
:1064D800DDCF29F1020E01012627000E2723010135
:1064E80029AF5ED0030E01012A130101286D291F6F
:1064F800D8B0292B55D026C1D9FF27C1DAFFDECF66
:1065080028F1DDCF29F1020E01012627000E2723ED
:1065180047D000D0010E01012D6F050E01012D1984
:10652800D8B44BD001D049D001012D51020DA50E90
:10653800F324F66EFE0EF420F76E0900F550010103
:10654800285D0900F55001012959D8A036D001D09D
:1065580034D001012D2BE1D730D0010E01012D6F70
:10656800040E01012D19D8B428D001D026D001017C
:106578002D51020DAF0EF324F66EFE0EF420F76EC9
:106588000900F5500101285D0900F550010129595C
:10659800D8A013D001D011D001012D2BE1D70DD0F7
:1065A80001012A51C00B000AD8B4B4D7800AD8B464
:1065B800D4D7400AD8B4AED700D001012B5101017D
:1065C8002C11D8B40CD02AC11CF1030E01011C17E0
:1065D800D8B405D001012B07D8A02C0700D0800E15
:1065E80001012DBF7F0E01011C6F01012B5101011B
:1065F8002D5D01012C51800A01011C59D8B00BD026
:1066080001012D5101012B5F000E01012DBFFF0E6D
:1066180001012C5B06D0000E01012C6F000E2B6FC0
:1066280000D001012AA520D02AC11CF1030E0101C6
:106638001C17D8B404D02D0E7CEC70F000D00101EA
:106648002B5101012C11D8B42FD0300E7CEC70F0F6
:1066580001012B07D8A02C0701012B5101012C1196
:10666800D8B422D0F2D720D001012B5101012C112E
:10667800D8B40FD0200E7CEC70F001012B07D8A005
:106688002C0701012B5101012C11D8B402D0F2D7EB
:1066980000D02AC11CF1030E01011C17D8B404D084
:1066A8002D0E7CEC70F000D02DC125F161D04ED0BC
:1066B80000D001012551020DA50EF324F66EFE0E41
:1066C800F420F76E0900F5CF08F10A00F5CF09F1BB
:1066D80028C106F129C107F111EC67F006C10DF1D7
:1066E80007C10EF1000E0101106F0A0E0F6F51EC79
:1066F8006AF001010D51300F01012D6F34D028C10E
:1067080006F129C107F101012551020DAF0EF3244D
:10671800F66EFE0EF420F76E0900F5CF08F10A00B8
:10672800F5CF09F111EC67F0010106510F0B0101DA
:10673800206F01012051010D630EF324F66EFF0E48
:10674800F420F76E0800F5CF2DF10DD001012A5184
:10675800C00B000AD8B4ADD7800AD8B4D0D7400A45
:10676800D8B4A7D700D001012D517CEC70F000D02F
:106778000101250701012529D8B402D0E7D700D0A7
:1067880012C1F6FF13C1F7FF0101124B132B0800CA
:10679800F5CF2DF101012D51D8B4120093D5120077
:1067A80012000101046F0101045102014A2502018E
:1067B8004A6F000E02014B2102014B6F000E0101CE
:1067C800056F160E0101056501D072D00101055152
:1067D800010D270EF324D96E030EF420DA6EDF5074
:1067E800D8A463D001010551020D000EF324D96E1F
:1067F800020EF420DA6E010104510101026F036BED
:10680800010E01010227000E0323DE500101025D83
:10681800DE5001010359D8B02DD001010551020DF8
:10682800000EF324D96E020EF420DA6EDECF00F1EA
:10683800DDCF01F1010104510101026F036B010178
:10684800021F031F024B032B010100510101022704
:10685800010101510101032301010551020D000E3F
:10686800F324D96E020EF420DA6E02C1DEFF03C1F2
:10687800DDFF1BD001010551020D000EF324D96E76
:10688800020EF420DA6EDE50DE10D8B40ED001010C
:106898000551020D000EF324D96E020EF420DA6EB3
:1068A800010EDE6E000EDD6E00D00101052B89D7CA
:1068B800E80E02014A5D030E02014B59D8A01200EE
:1068C800180E02014A2502014A6FFC0E02014B21F3
:1068D80002014B6F4C2A000E0101066F160E0101D2
:1068E800066501D063D001010651010D270EF3247E
:1068F800D96E030EF420DA6EDE04D8A454D0010158
:106908000651020D000EF324D96E020EF420DA6E41
:10691800010EDB5004E1020EDE5CD8A029D0FF0E88
:106928000101006FFF0E0101016F01010651020D07
:10693800000EF324D96E020EF420DA6EDECF02F1D7
:10694800DDCF03F1010100510101022701010151CD
:106958000101032301010651020D000EF324D96E33
:10696800020EF420DA6E02C1DEFF03C1DDFF1BD088
:1069780001010651020D000EF324D96E020EF42017
:10698800DA6EDE50DE10D8B40ED001010651020DC9
:10699800000EF324D96E020EF420DA6E010EDE6EBC
:1069A800000EDD6E00D00101062B98D73B0E4C641B
:1069B80012004C50C40F4C6E482A000E0101076F9C
:1069C800160E0101076501D064D001010751010DC0
:1069D800270EF324D96E030EF420DA6E020EDE18A9
:1069E800D8A454D001010751020D000EF324D96E2A
:1069F800020EF420DA6E010EDB5004E1020EDE5CBA
:106A0800D8A029D0FF0E0101006FFF0E0101016F10
:106A180001010751020D000EF324D96E020EF42075
:106A2800DA6EDECF02F1DDCF03F101010051010181
:106A38000227010101510101032301010751020D40
:106A4800000EF324D96E020EF420DA6E02C1DEFFC6
:106A580003C1DDFF1BD001010751020D000EF32415
:106A6800D96E020EF420DA6EDE50DE10D8B40ED0E5
:106A780001010751020D000EF324D96E020EF42015
:106A8800DA6E010EDE6E000EDD6E00D00101072BFE
:106A980097D73B0E486412004850C40F486E000E4A
:106AA8000101086F160E0101086502D012001200DC
:106AB80001010851010D270EF324D96E030EF420AD
:106AC800DA6E030EDE18D8A454D001010851020D65
:106AD800000EF324D96E020EF420DA6E010EDB509C
:106AE80004E1020EDE5CD8A029D0FF0E0101006F80
:106AF800FF0E0101016F01010851020D000EF32480
:106B0800D96E020EF420DA6EDECF02F1DDCF03F18A
:106B18000101005101010227010101510101032373
:106B280001010851020D000EF324D96E020EF42063
:106B3800DA6E02C1DEFF03C1DDFF1BD0010108517F
:106B4800020D000EF324D96E020EF420DA6EDE5028
:106B5800DE10D8B40ED001010851020D000EF32446
:106B6800D96E020EF420DA6E010EDE6E000EDD6EB6
:106B780000D00101082B160E0101086599D71200F3
:106B880012001200030E0101016F0069A9EC70F0F8
:106B98000101156F01011505D8A440D0000E0101AF
:106BA8001A6F000E196F01011ABF0AD0F00E010109
:106BB800195D030E01011A59D8B011D001D00FD0B8
:106BC800EEEC71F019C100F11AC101F1FF0E0101DB
:106BD800026FBBEC6CF00101194B1A2BE4D7030EC2
:106BE80001011A6FF40E196F01011ABF07D0040EC4
:106BF80001011A5DD8B012D001D010D0EEEC71F0BE
:106C080019C100F11AC101F1FF0E0101026FBBECBD
:106C18006CF00101194B1A2BE7D700D0010E0101C6
:106C2800156504D001011529D8A40CD0EEEC71F03B
:106C3800030E0101016F0069020E0101026FBBEC36
:106C48006CF000D0000E0101166F030E01011665ED
:106C580001D018D001011651010DFC0EF324D96E94
:106C6800010EF420DA6EE80E010116250101006F0D
:106C78000101016B030E0123A9EC70F0DF6E010125
:106C8800162BE3D70101FC29D8A419D00101FD294D
:106C9800D8A415D00101FE29D8A411D00101FF29DB
:106CA800D8A40DD0000E0101FC6F000E0101FD6F8C
:106CB800000E0101FE6F020E0101FF6F00D0030EEE
:106CC8000101016FEF0E006FA9EC70F00101146F64
:106CD80001011429D8A404D0080E0101146F00D0B2
:106CE80001011451B8EC71F00201ED29D8A451D07A
:106CF8000201EE29D8A44DD00201EF29D8A449D029
:106D08000201F029D8A445D0899E4B0E04EC70F0FE
:106D1800000E04EC70F0000E04EC70F0000E04ECB1
:106D280070F0000E04EC70F0000E0101176F2BD00C
:106D38002ED0EDEC70F0010100510101136F030E2C
:106D4800010117651ED0FC0E0101076FFF0E01013E
:106D5800086F010117510101096F0A6B0101075101
:106D6800010109270101085101010A23ED0E010162
:106D78000925D96E020E01010A21DA6E13C1DFFF5F
:106D880000D00101172B070E01011765D2D7898E94
:106D980000D0000E0101186F070E0101186501D01F
:106DA80018D001011851010D0B0EF324D96E010EF4
:106DB800F420DA6EF40E010118250101006F0101BB
:106DC800016B030E0123A9EC70F0DF6E0101182B93
:106DD800E3D70B0E0101006F010E0101016FD1EC29
:106DE80064F0030E0101016FFC0E006FA9EC70F056
:106DF800FF0AD8A404D0000E07EC71F009D0030EE6
:106E08000101016FFC0E006FA9EC70F007EC71F046
:106E1800030E0101016FFD0E006FA9EC70F0FF0A6F
:106E2800D8B40BD001D009D0030E0101016FFD0EBB
:106E3800006FA9EC70F039EC70F0030E0101016FDE
:106E4800FE0E006FA9EC70F0FF0AD8A403D0000171
:106E5800CD691200030E0101016FFE0E006FA9EC4F
:106E680070F00001CD6F12001200010120EE01F058
:106E78002F51D9263051DA222FC1E1FF30C1E2FF6C
:106E8800DE50E618D8A41200010120EE02F02F51BE
:106E9800D9263051DA22010110EE01F02F51E126F6
:106EA8003051E222DE50E618D8A41200010120EE8B
:106EB80002F02F51D9263051DA22DE28D8B4120038
:106EC8002FC1D9FF30C1DAFFDF500101336F010153
:106ED80033A14CD0010120EE04F02F51D9263051B6
:106EE800DA22010110EE03F02F51E1263051E2229F
:106EF800DE50E618D8A43AD0010120EE05F02F5153
:106F0800D9263051DA22010110EE04F02F51E12682
:106F18003051E222DE50E618D8A428D0010120EE34
:106F280005F02F51D9263051DA22DE28D8B41ED0E8
:106F3800EEEC71F0030E0101016FFD0E006F01010F
:106F480020EE03F02F51D9263051DA22DF5001010B
:106F5800026FBBEC6CF0010120EE03F02F51D92633
:106F68003051DA22DF5039EC70F000D0010133A340
:106F780042D0010120EE07F02F51D9263051DA22F4
:106F8800010110EE06F02F51E1263051E222DE50C9
:106F9800E618D8A430D0010120EE08F02F51D926E8
:106FA8003051DA22010110EE07F02F51E12630515D
:106FB800E222DE50E618D8A41ED0EEEC71F0030EE3
:106FC8000101016FFE0E006F010120EE06F02F5146
:106FD800D9263051DA22DF500101026FBBEC6CF088
:106FE800010120EE06F02F51D9263051DA22DF5068
:106FF80025EC6CF000D0010133A54CD0010120EE46
:107008000AF02F51D9263051DA22010110EE09F089
:107018002F51E1263051E222DE50E618D8A43AD0AA
:10702800010120EE0BF02F51D9263051DA2201014F
:1070380010EE0AF02F51E1263051E222DE50E61818
:10704800D8A428D0010120EE0BF02F51D9263051B9
:10705800DA22DE28D8B41ED0EEEC71F0030E01015E
:10706800016FFC0E006F010120EE09F02F51D926A7
:107078003051DA22DF500101026FBBEC6CF00101E4
:1070880020EE09F02F51D9263051DA22DF5007ECD3
:1070980071F000D0010133A71200010120EE0DF0BC
:1070A8002F51D9263051DA22010110EE0CF02F5160
:1070B800E1263051E222DE50E618D8A41200010180
:1070C80020EE0EF02F51D9263051DA22010110EEB0
:1070D8000DF02F51E1263051E222DE50E618D8A4F7
:1070E8001200010120EE0EF02F51D9263051DA227C
:1070F800DE28D8B41200EEEC71F0030E0101016F26
:10710800EF0E006F010120EE0CF02F51D9263051FF
:10711800DA22DF500101026FBBEC6CF0010120EEB6
:107128000CF02F51D9263051DA22DF50B8EC71F02B
:1071380012001200400E0101286F000E0101296F94
:107148003E0E0101296501D0D7D001012951060D54
:10715800BD0EF3240101066F0A0EF4200101076F2A
:1071680021C108F122C109F1040E01010A6F50EC96
:107178006BF00009D8B4A0D001012951060D040E06
:10718800F326000EF422BD0EF324D96E0A0EF42065
:10719800DA6EDF500F0B0F0AD8A440D0010124513A
:1071A8000101D8B43BD04A2A01012951060D040E29
:1071B800F326000EF422BD0EF324D96E0A0EF42035
:1071C800DA6EDF90DF92DF94DF9623C100F10101D0
:1071D800295119EC5DF0020E01012419D8B41AD016
:1071E800030E0101086F010123519EEC41F00101DA
:1071F800266F21C115F122C116F129C117F1010E1F
:107208000101186F26C119F1000E01011A6FFCEC7B
:107218001DF000D00101295112006BD00101295144
:10722800060D040EF326000EF422BD0EF324D96ECB
:107238000A0EF420DA6EDF500F0B0F0AD8B439D0DB
:1072480001012951060D040EF326000EF422BD0E8D
:10725800F324D96E0A0EF420DA6EDF90DF92DF9401
:10726800DF9623C100F10101295119EC5DF0020EEE
:1072780001012419D8B4CED7030E0101086F01010A
:1072880023519EEC41F00101266F21C115F122C165
:1072980016F129C117F1010E0101186F26C119F164
:1072A800000E01011A6FFCEC1DF0B4D7B3D7120021
:1072B80020D0FF0E12001DD001012951060DBD0E70
:1072C800F3240101066F0A0EF4200101076FE20E94
:1072D8000101086F010E0101096F040E01010A6F17
:1072E80050EC6BF00009D8B404D029C128F104D0BF
:1072F80000D00101292B24D73E0E0101286521D099
:10730800000E0101276F3E0E0101276501D019D03B
:1073180001012751060D040EF326000EF422BD0EBE
:10732800F324D96E0A0EF420DA6EDF500F0B0F0A21
:10733800D8A403D027C128F104D00101272BE3D713
:1073480000D03F0E0101286154D0010124510101F0
:10735800D8B44FD021C106F122C107F1010128514B
:10736800060DBD0EF3240101086F0A0EF420010179
:10737800096F040E01010A6F4BEC6CF001012851F2
:10738800060D040EF326000EF422BD0EF324D96E6A
:107398000A0EF420DA6EDF90DF92DF94DF9623C1C5
:1073A80000F10101285119EC5DF04A2A020E010191
:1073B8002419D8B41AD0030E0101086F0101235112
:1073C8009EEC41F00101266F21C115F122C116F191
:1073D80028C117F1010E0101186F26C119F1000E1D
:1073E80001011A6FFCEC1DF000D0010128511200B8
:1073F80000D0FF0E12001200000E0101126F000EE5
:10740800116F010112BF0AD00101125106E13F0EAE
:107418000101115DD8B082D001D080D0E20E010107
:10742800066F010E0101076F11C100F112C101F1D0
:10743800000E0101036F060E026F2FEC6EF0BD0EF9
:10744800010100250101086F0A0E01010121010156
:10745800096F040E01010A6F4BEC6CF011C100F1C9
:1074680012C101F1000E0101036F060E026F2FEC2D
:107478006EF0040E01010027000E01010123BD0E6C
:1074880001010025D96E0A0E01010121DA6EDF80A3
:10749800DF82DF84DF8611C100F112C101F1000E25
:1074A8000101036F060E026F2FEC6EF0040E01014E
:1074B8000027000E01010123BD0E01010025D96E30
:1074C8000A0E01010121DA6EDF88DF8ADF8CDF8E88
:1074D80011C100F112C101F1000E0101036F060E86
:1074E800026F2FEC6EF0050E01010027000E01015E
:1074F8000123BD0E01010025D96E0A0E01010121EB
:10750800DA6EFF0EDF6E0101114B122B010112BF63
:1075180085D70101125102E17AD700D0000E02018D
:10752800696F000E0101126F000E116F010112BF89
:107538000AD00101125166E1FA0E0101115DD8B0BD
:1075480061D001D05FD011C10FF112C110F1D890F4
:1075580001010F371037010E01010F27000E10230C
:10756800C90E01010F25D96E080E01011021DA6E2E
:10757800DF80DF82DF84DF86DF88E20E0101076FAC
:10758800010E0101086F01011151F8EC65F011C1FC
:107598000FF112C110F1D89001010F371037010E09
:1075A80001010F27000E1023C90E01010F25D96E06
:1075B800080E01011021DA6EDF8ADF8CDF8ED89089
:1075C80001011135D96E01011235DA6EC90ED926BD
:1075D800080EDA22DF80DF82DF84DF86DF88DF8A39
:1075E800D89001011135D96E01011235DA6EC90E34
:1075F800D926080EDA223F0EDF160101114B122B95
:1076080095D700D0E20E0101066F010E0101076F48
:10761800F10E0101086F020E0101096F040E01014C
:107628000A6F4BEC6CF00101F469000E0201726FF5
:10763800030E0201736F000E02019A6F000E020121
:107648009C6F020E02019D6F000E02019E6F010EDB
:107658000101F26F000E0101E16F000E0101D16F0F
:1076680012000101166F5450D8B426D0240E01011F
:107678001619D8A41DD00101DD2B020E0101DD1958
:10768800D8A4FAD0000E546E010E456E000E436E5B
:10769800000E466E000E476E010E446E000E00018D
:1076A800C56F000E0101DD6F000E0101D66FE4D039
:1076B800000E0101DD6FE0D04450D8B4CCD0455065
:1076C800D8B406D016C1CFF0000E456E010E04D016
:1076D8004350D8B403D0000E436E5BD00001C551AF
:1076E8000101106F116BFE0E0101126FFF0E0101F7
:1076F800136F0001CF510101146F156B0101125175
:107708000101142701011351010115230101105131
:10771800010114190EE10101115101011519D8A433
:1077280008D00D0E01011619D8A433D0010E466EEB
:1077380030D00001C5510101106F116BFF0E01011E
:10774800126FFF0E0101136F0001CF510101146F79
:10775800156B010112510101142701011351010197
:10776800152301011051010114190EE101011151F4
:1077780001011519D8A408D00A0E01011619D8A4B8
:1077880008D0010E476E05D0010116510101D61B24
:1077980000D00001C551010DC00EF324D96E040EAE
:1077A800F420DA6E16C1DFFF0001C52B0001C551B8
:1077B8000001CF19D8A437D0000E446E0EC1D9FFEE
:1077C8000FC1DAFFC5C0DFFFC00E0101066F040E4E
:1077D8000101076F0CC108F10DC109F1C5C00AF11B
:1077E8004BEC6CF0010E546E000E0101DD6F0101CF
:1077F800D6510101D8B405D0000E0101D66F000E94
:1078080012004650D8B409D04750D8B406D0000E5C
:107818000101D66F010E12002FD0000E0101D66FA4
:1078280017D0120029D03E0E0001C56525D0010EE3
:10783800546E000E0101DD6F000E0001C56F000ED1
:10784800456E000E436E000E466E000E476EE5D77D
:10785800000E120011D0010E546E000E0101DD6FF2
:10786800000E0101D66F000E456E000E466E000E2A
:10787800476E000E436E00D0000E12001200000E7C
:107888000101126F000E116F010112BF0AD0010130
:10789800125106E1FA0E0101115DD8B0E8D001D00D
:1078A800E6D00BC104F10CC105F1010111519FECA7
:1078B80057F00009D8B4D0D011C10FF112C110F19E
:1078C800D89001010F371037010E01010F27000E64
:1078D8001023C90E01010F25D96E080E01011021D0
:1078E800DA6EDF501F0B1F0AD8B4A6D0D89001015A
:1078F8001135D96E01011235DA6EC90ED926080E76
:10790800DA22DF503F0B01010F6F01010F51060D05
:10791800BD0EF324D96E0A0EF420DA6E0DC1E1FF14
:107928000EC1E2FFDFCFE7FFD89001011135D96E14
:1079380001011235DA6EC90ED926080EDA22DF5097
:107948003F0B01010F6F01010F51060D010EF326C8
:10795800000EF422BD0EF324D96E0A0EF420DA6E5E
:10796800010110EE01F00D51E1260E51E222DFCFA8
:10797800E7FFD89001011135D96E01011235DA6E91
:10798800C90ED926080EDA22DF503F0B01010F6F0E
:1079980001010F51060D020EF326000EF422BD0E52
:1079A800F324D96E0A0EF420DA6E010110EE02F00B
:1079B8000D51E1260E51E222DFCFE7FFD8900101F9
:1079C8001135D96E01011235DA6EC90ED926080EA5
:1079D800DA22DF503F0B01010F6F01010F51060D35
:1079E800030EF326000EF422BD0EF324D96E0A0E00
:1079F800F420DA6E010110EE03F00D51E1260E516C
:107A0800E222DFCFE7FF11C10FF112C110F1D890C8
:107A180001010F371037010E01010F27000E102347
:107A2800C90E01010F25D96E080E01011021DA6E69
:107A3800DF501F0B120010D0D89001011135D96EFC
:107A480001011235DA6EC90ED926080EDA223F0E68
:107A5800DF161F0E120000D00101114B122B01017D
:107A680012BF1FD70101125102E114D700D01F0E17
:107A780012001200000E01010F6F000E0E6F0101BF
:107A88000FBF0AD001010F5106E13F0E01010E5D43
:107A9800D8B0D4D001D0D2D006C1D9FF07C1DAFFFF
:107AA8000EC100F10FC101F1000E0101036F060EB6
:107AB800026F2FEC6EF0BD0E01010025E16E0A0E7B
:107AC80001010121E26EDE50E618D8A4ACD0010114
:107AD80020EE01F00651D9260751DA220EC100F135
:107AE8000FC101F1000E0101036F060E026F2FECAA
:107AF8006EF0010E01010027000E01010123BD0EE9
:107B080001010025E16E0A0E01010121E26EDE503D
:107B1800E618D8A488D0010120EE02F00651D92633
:107B28000751DA220EC100F10FC101F1000E010167
:107B3800036F060E026F2FEC6EF0020E0101002794
:107B4800000E01010123BD0E01010025E16E0A0EA0
:107B580001010121E26EDE50E618D8A464D00101CB
:107B680020EE03F00651D9260751DA220EC100F1A2
:107B78000FC101F1000E0101036F060E026F2FEC19
:107B88006EF0030E01010027000E01010123BD0E56
:107B980001010025E16E0A0E01010121E26EDE50AD
:107BA800E618D8A440D00EC100F10FC101F1000EB3
:107BB8000101036F060E026F2FEC6EF0050E010136
:107BC8000027000E01010123BD0E01010025D96E19
:107BD8000A0E01010121DA6E08C1E1FF09C1E2FFC5
:107BE800DFCFE7FF0EC100F10FC101F1000E010167
:107BF800036F060E026F2FEC6EF0040E01010027D2
:107C0800000E01010123BD0E01010025D96E0A0EE7
:107C180001010121DA6EDF380F0B0AC1D9FF0BC150
:107C2800DAFFDF6E120001010E4B0F2B01010FBFAF
:107C380033D701010F5102E128D700D008C1D9FF7D
:107C480009C1DAFFFF0EDF6E0AC1D9FF0BC1DAFFE7
:107C58000F0EDF6E120012003950D8B4D9D00201CD
:107C68006451D8B410D0000E0201646F000E0001F8
:107C7800D26F000E0001D36F000E396E000E0001A6
:107C8800D06F000E12000101CB51D8A40DD0000E08
:107C98000001D26F000E0001D36F000E396E000E86
:107CA8000001D06F000E12000001D351FD0F10C16A
:107CB800D9FF11C1DAFFDF6E000E0101186F400E07
:107CC8000001D3650DD0000E0001D26F000E000137
:107CD800D36F000E396E000E0001D06F000E120037
:107CE800020E0101196F11D001011951010D800E09
:107CF800F324D96E040EF420DA6EDF50010118194E
:107D08000101186F0101192B00D00001D3510101A5
:107D1800195DD8A0E9D7010118510101D8B40DD0D7
:107D2800000E0001D26F000E0001D36F000E396EF5
:107D3800000E0001D06F000E120010C1D9FF11C152
:107D4800DAFF3D0EDF640DD0000E0001D26F000E89
:107D58000001D36F000E396E000E0001D06F000EC7
:107D6800120010C1D9FF11C1DAFFDF500101126FF3
:107D7800136BFD0E0101146FFF0E0101156F000159
:107D8800D3510101166F176B010114510101162718
:107D980001011551010117230101125101011619A1
:107DA80006E10101135101011719D8B40DD0000ED5
:107DB8000001D26F000E0001D36F000E396E000E65
:107DC8000001D06F000E1200800E0101006F040E3A
:107DD8000101016F020E0101026F0EC103F10FC113
:107DE80004F1000E0101056F10C1D9FF11C1DAFFBE
:107DF800DF500101066F1EEC65F0000E0001D26F26
:107E0800000E0001D36F000E396E010E12000FD064
:107E18003950D8B40CD0000E0001D26F000E00010A
:107E2800D36F000E396E000E0001D06F00D0000E27
:107E38001200120002016951D8A4D2D002019B514C
:107E4800D8A4CED06A0E0101066F020E0101076F99
:107E5800F10E0101086F020E0101096F040E010104
:107E68000A6F4BEC6CF072C2F4F1060E0201696FF6
:107E78000EC106F10FC107F16E0E0101086F020E67
:107E88000101096F040E01010A6F4BEC6CF0E60E5C
:107E98000101066F010E0101076F6A0E0101086FEB
:107EA800020E0101096F040E01010A6F4BEC6CF020
:107EB80034EC71F00201726F000E02019E6F010135
:107EC80015510101D8B402D0040E01D0030E0201ED
:107ED800736F00D0270E0101126156D00101C751FE
:107EE800D8B431D0010114510101D8B42CD0010EFD
:107EF800010110250101006F000E0101112101018E
:107F0800016FFF0E010112250101026F0101036BD0
:107F1800FF0E032315EC56F00101166F050E010143
:107F2800176F0101D89016370101172FFAD70101F1
:107F380016510201746F10C1D9FF11C1DAFFDF5069
:107F48000201742708D010C1D9FF11C1DAFFDF5030
:107F58000201746F00D010C100F111C101F1010ECE
:107F68000101026F740E0101036F020E0101046F1B
:107F7800010E0101056F010112050101066F1EECDA
:107F880065F012C19AF200D013C19BF2010113519E
:107F98000101D8B403D0000E0201696F0001BF517E
:107FA800D8A404D0000E0101D96F18D06E0E0101BB
:107FB800066F020E0101076FE90E0101086F020E3C
:107FC8000101096F040E01010A6F50EC6BF0000902
:107FD800D8B404D0020E0201696F00D0010E12005D
:107FE800000E120012000101146F000E0101166F3D
:107FF800000E176F000E186F000E196F040E0101A6
:108008000F19D8A40BD00DC116F10EC117F101013B
:10801800000E17BFFF0E186F196F54D001010F51D2
:108028000101D8A42FD00DC110F10EC111F1000E1D
:10803800010111BFFF0E126F136F0F0ED8900101CF
:108048001037113712371337E82EF8D710C100F15F
:1080580011C101F112C102F113C103F1E80E0101CE
:10806800046F030E056F000E066F000E076FE3EC3A
:108078005DF000C116F101C117F102C118F103C189
:1080880019F120D001010F05D8A41CD00DC110F1A1
:108098000EC111F1000E010111BFFF0E126F136F17
:1080A8000F0ED89001011037113712371337E82E09
:1080B800F8D710C116F111C117F112C118F113C187
:1080C80019F100D016C110F117C111F118C112F140
:1080D80019C113F10101101F111F121F131F102BBB
:1080E800000E112312231323FF0E01011025010195
:1080F800166FFF0E010111210101176F000E01011A
:1081080012210101186F000E010113210101196FDD
:1081180001011405D8A40BD017C1CFFF16C1CEFF9B
:108128008C0ECD6E9F809E909D80CD8000D0030EDA
:1081380001011419D8A40AD017C1B3FF16C1B2FFA0
:108148008C0EB16EA292A192A082B1803F50D8A4A9
:108158001200010E3F6E000E0101156F160E01018F
:10816800156502D01200120001011551020D000E12
:10817800F324D96E020EF420DA6E000EDE6E000EC5
:10818800DD6E0101152B160E01011565EDD71200E4
:1081980012001200000E0101806FAFC07CF1B0C068
:1081A8007DF1010E0101566F18C10BF119C10CF1D7
:1081B800580E01010D6F010E01010E6F43EC3CF0EA
:1081C8000101576FCDC05CF17CC15DF17DC15EF1ED
:1081D800580E0101066F010E0101076F7E0E0101A5
:1081E800086F010E0101096F7F0E01010A6F010E70
:1081F80001010B6F3EEC3DF07EC15FF17FC160F184
:1082080018C10BF119C10CF193EC61F00101616F18
:10821800DAEC71F00101626FE2EC71F00101636F59
:10822800D5C01BF101011B3BF00E1B17B3EC71F01D
:1082380001011B250001D4250101646FC2C165F14C
:1082480048C266F149C267F146C268F147C269F19E
:1082580044C26AF145C26BF15CC26CF15DC26DF15A
:108268005AC26EF15BC26FF181BA02D0010E01D021
:10827800000E0101706FA3C071F1A4C072F1A5C016
:1082880073F1D6EC71F00101746F1F0E0101806F5C
:1082980001011A510101D8B434D0560E0101006F02
:1082A800010E0101016F000E0101026F1C0E010198
:1082B800036F010E0101046F140E0101056F80C1E7
:1082C80006F11EEC65F01C0E01010E6F010E010196
:1082D8000F6F18C110F119C111F102EC5BF01C0EFF
:1082E8000101046F010E0101056F01018051140F96
:1082F8000101066F000E0101076F020E99EC59F09B
:10830800120018C10EF119C10FF1560E0101106FBC
:10831800010E0101116F80C112F1000E0101136FEE
:10832800010E0101146F000E0101156F1EEC3FF0E4
:10833800120012000101116F030E01010819D8A4DF
:1083480060D03C0E0101116102D0000E12D0C30EA4
:10835800010111250101006F0101016BFF0E0123CD
:10836800000E0101036F050E026F49EC5CF001017C
:1083780000510101126F00D0010112510101096F72
:108388000A6BFF0E01010B6FFF0E01010C6F08C194
:108398000DF1010E01010E6F000E01010F6F0101B9
:1083A8000D2B04D0D89001010E370F3701010D2F86
:1083B800F9D701010B5101010E2701010C510101EF
:1083C8000F230101095101010E5D01010F51800ABE
:1083D8000101106F01010A51800A01011059D8B03A
:1083E80071D008C109F1010E01010A6F0101092BC1
:1083F80003D00101D8900A370101092FFAD75DD0BF
:1084080061D0040E01010819D8A45CD0DC0E01016A
:1084180011250101006F0101016BFF0E0123000E00
:108428000101036F050E026F49EC5CF00101005178
:108438000101126F010112510101096F0A6BFF0E50
:1084480001010B6FFF0E01010C6F08C10DF1010E48
:1084580001010E6F000E01010F6F01010D2B04D0F9
:10846800D89001010E370F3701010D2FF9D70101FF
:108478000B5101010E2701010C5101010F230101CC
:10848800095101010E5D01010F51800A0101106FB0
:1084980001010A51800A01011059D8B013D008C14E
:1084A80009F1010E01010A6F0101092B03D0010135
:1084B800D8900A370101092FFAD701010A050101ED
:1084C800126F00D001011251120012000101066F53
:1084D800010104510101D8B402D0200E01D0600E70
:1084E8000101056F9AD00101055102090201A36F2C
:1084F800630E0201AA6F010106511B0F55D001013D
:10850800055102090201A36F640E0201AA6F01015D
:108518000651040F49D0210E010106610BD001015B
:1085280005510A090201A36F650E0201AA6F06C16F
:10853800ABF281D0010105510A090201A36F640E53
:108548000201AA6F01010651190F2ED074D0010142
:1085580005510A090201A36F650E0201AA6F010104
:108568000651210F21D00C0E010106610DD0010129
:10857800055102090201A36F630E0201AA6F0101EE
:108588000651040DF350B9D70B0E010106650FD043
:10859800190E010106610BD001010551020912D023
:1085A800640E0201AA6F11D00201AB6F44D0180EFD
:1085B8000101066510D01F0E010106610CD00101F2
:1085C80005510A090201A36FEBD701010645E846E8
:1085D800FC0BD00FE9D71E0E0101066509D0270E46
:1085E8000101066105D00CD0650E0201AA6F0ED0FC
:1085F800260E010106651FD0320E010106611BD04F
:10860800010105510A090201A36FEED701010645D0
:10861800E846FC0B850FC8D70ED05350010AD8B4D2
:1086280062D7030AD8B46BD7010AD8B474D7070A3B
:10863800D8B48DD798D7A3C202F1000E66EC6EF0BD
:10864800AAC202F10E0E66EC6EF0ABC202F1100E79
:1086580066EC6EF0120004004950D8A4120001D054
:1086680012001AC149F0000E01011B6FB0D0000EB4
:108678000001CB6F0001D051D8A49DD03E0E01015E
:10868800196199D0010E0001CC6F0001D051D8B406
:1086980004D0000E0001CC6F95D0200E7CEC50F079
:1086A8000201B05101090101026F1A0E66EC6EF069
:1086B800800E7CEC50F001011951020F2AEC71F088
:1086C8000001BA512AEC71F0000E01011F6F64D04D
:1086D80001011F51010DF35001011725D96EF45006
:1086E80001011821DA6EDF5001011C6F01011F051D
:1086F800D8B410D0020E01011F19D8B40BD0000154
:10870800CB5101011C190001CB6F01011C512AEC4E
:1087180071F03FD001011F05D8A42BD0040E010130
:108728000C6F010E09EC55F00001A75101010C2551
:1087380001011D6F0001A85101010D2101011E6FEA
:1087480001011E512AEC71F001011E510001CB19E3
:108758000001CB6F01011D5102015C5D01011E5139
:1087680002015D59D8B015D01DC15CF21EC15DF281
:1087780010D0020E01011F19D8A40BD001011D5100
:108788002AEC71F00001CB5101011D190001CB6FDA
:1087980000D001011F2B00D00101195101011F5DFB
:1087A800D8A096D70001CB512AEC71F00400010E35
:1087B8000101D56F09D03D0E0101196501D002D024
:1087C8000001D051490600D001011B2B00D0010146
:1087D8001A5101011B5DD8A04AD7120001012F6F61
:1087E8000101D551D8B404D0000E0101D56F120093
:1087F800040ED1EC6DF00009D8B469D00101B35171
:10880800010DB70EF324F66EFE0EF420F76E080085
:10881800F5500009D8A45BD0010E0101B36F57D001
:108828009AEC56F00DC1AFF00EC1B0F00001B0BF28
:1088380008D03E0E0001AF5D080E0001B059D8B057
:1088480004D0000E0101B36F12000101B32B120016
:1088580011EC72F000C156F201C157F20101B32BBD
:10886800120001012F510201405D000E4159D8B09C
:1088780003D00101B32B120001012F510201405F07
:10888800000E415B1200000E0101F06F01012F5133
:108898000201425D000E4359D8A0120001D0120017
:1088A80001012F510201425F000E435B1200040ECA
:1088B800A6EC6FF00009D8B412002CC126F12DC126
:1088C80027F12EC128F1040E85EC66F01200010193
:1088D800B351010DB70EF324F66EFE0EF420F76EB9
:1088E8000800F550000AD8B4E2D7010AD8B498D7DE
:1088F800030AD8B4ADD7010AD8B41200070AD8B40D
:108908001200010AD8B41200030AD8B41200010AEE
:10891800D8B412000F0AD8B4A4D7010AD8B41200E8
:10892800030AD8B4B0D7010AD8B41200070AD8B4D9
:108938001200010AD8B41200030AD8B41200010ABE
:10894800D8B412001F0AD8B41200010AD8B4120011
:10895800030AD8B41200010AD8B41200070A120098
:10896800120002016951D8A4BBD002019B51D8A4BE
:10897800B7D06A0E0101066F020E0101076FF10EF2
:108988000101086F020E0101096F040E01010A6F4F
:108998004BEC6CF072C2F4F1060E0201696F000E26
:1089A80002019C6F020E02019D6F0EC106F10FC1FC
:1089B80007F16E0E0101086F020E0101096F040E26
:1089C80001010A6F4BEC6CF0E60E0101066F010E17
:1089D8000101076F6A0E0101086F020E0101096F9C
:1089E800040E01010A6F4BEC6CF034EC71F00201DB
:1089F800726F000E02019B6F1D0E0201746F210E33
:108A08000201756F10C176F23F0E0201776F080EF2
:108A18000101116F0101105101011103F3CF12F18E
:108A2800000E0101136F46D03F0E0101126121D0E3
:108A380001011251060DBD0EF3240101006F0A0E4B
:108A4800F4200101016F000E0101026F740E010193
:108A5800036F020E0101046F01011351040DF3505D
:108A6800060F0101056F040E0101066F1EEC65F08B
:108A78001CD0E20E0101006F010E0101016F000E12
:108A88000101026F740E0101036F020E0101046FF0
:108A980001011351040DF350060F0101056F040E77
:108AA8000101066F1EEC65F000D00101122B0101D7
:108AB800132B00D0010111510101135DD8A0B4D7C7
:108AC800030E0201736F260E02019A6F0001BF5157
:108AD800D8A404D0000E0101D96F00D0010E1200F5
:108AE800000E12001200000E01010B6F3E0E010174
:108AF8000B6502D01200120001010B51060D040E85
:108B0800F326000EF422BD0EF324D96E0A0EF420CB
:108B1800DA6EDF500F0B0F0AD8B49CD0010E01019A
:108B2800086F01010B51060D040EF326000EF42206
:108B3800BD0EF324D96E0A0EF420DA6EDF500F0B47
:108B48000101096F0101085101010927DF500101E5
:108B58000919F00B01010919DF6E4A500F0DF3CF07
:108B680000F1F4CF01F1000E0101036F400E026F16
:108B780049EC5CF0040E01010027000E01010123FD
:108B880001010B51060D040EF326000EF422BD0E52
:108B9800F324D96E0A0EF420DA6EDF500F0B0101B0
:108BA800086F096B010100510101085D01010951BC
:108BB800800A01010A6F01010151800A01010A5965
:108BC800D8B012D001010B51060D040EF326000E89
:108BD800F422BD0EF324D96E0A0EF420DA6EDF50AB
:108BE8000F0B0F0AD8A436D001010B51060D040E45
:108BF800F326000EF422BD0EF324D96E0A0EF420DB
:108C0800DA6EDF80DF82DF84DF8601010B51060D1B
:108C1800050EF326000EF422BD0EF324D96E0A0EBB
:108C2800F420DA6EFF0EDF6E01010B51060D040E03
:108C3800F326000EF422BD0EF324D96E0A0EF4209A
:108C4800DA6EDF88DF8ADF8CDF8E4A50D8B402D034
:108C58004A0600D001010B2B3E0E01010B654CD7D3
:108C680012001200156E000E176E000E186E000E20
:108C7800196E000E1A6E040E1018D8A40AD00EC071
:108C880017F00FC018F0000E18BEFF0E196E1A6EFE
:108C98004CD01050D8A42CD00EC011F00FC012F038
:108CA800000E12BEFF0E136E146E0F0ED890113602
:108CB800123613361436E82EF9D711C001F012C057
:108CC80002F013C003F014C004F0E80E056E030EA2
:108CD800066E000E076E000E086ECBEC66F001C043
:108CE80017F002C018F003C019F004C01AF01DD024
:108CF8001004D8A41AD00EC011F00FC012F0000E44
:108D080012BEFF0E136E146E0F0ED8901136123667
:108D180013361436E82EF9D711C017F012C018F020
:108D280013C019F014C01AF000D017C011F018C001
:108D380012F019C013F01AC014F0111E121E131EDF
:108D4800141E112A000E122213221422FF0E1124BF
:108D5800176EFF0E1220186E000E1320196E000EEB
:108D680014201A6E1504D8A40BD018C0CFFF17C052
:108D7800CEFF8C0ECD6E9F809E909D80CD8000D0C2
:108D8800030E1518D8A40AD018C0B3FF17C0B2FF35
:108D98008C0EB16EA292A192A082B1803F50D8A44D
:108DA8001200010E3F6E000E166E160E166402D0EB
:108DB800120012001650020D000EF324D96E020E96
:108DC800F420DA6E000EDE6E000EDD6E162A160E28
:108DD8001664F0D71200120012001D0E0101426F36
:108DE8001AC10BF11BC10CF1430E01010D6F010EED
:108DF80001010E6F43EC3CF00101476F1D0E0101AC
:108E08001C6F260E01011D6F1AC100F11BC101F173
:108E1800000E0101026F1C0E0101036F010E01011A
:108E2800046F020E0101056F040E0101066F1EECAE
:108E380065F0430E0101006F010E0101016F000E84
:108E48000101026F1C0E0101036F010E0101046F85
:108E5800060E0101056F040E0101066F1EEC65F098
:108E680047C126F11AC100F11BC101F1000E010131
:108E7800026F1C0E0101036F010E0101046F0B0E3E
:108E88000101056F040E0101066F1EEC65F0430E2B
:108E98000101006F010E0101016F000E0101026F57
:108EA8001C0E0101036F010E0101046F0F0E010179
:108EB800056F040E0101066F1EEC65F047C12FF126
:108EC8001AC100F11BC101F1000E0101026F1C0E55
:108ED8000101036F010E0101046F140E0101056FFA
:108EE800040E0101066F1EEC65F0430E0101006FD0
:108EF800010E0101016F000E0101026F1C0E01013C
:108F0800036F010E0101046F180E0101056F040EB5
:108F18000101066F1EEC65F047C138F118C10EF16A
:108F280019C10FF11C0E0101106F010E0101116F23
:108F380042C112F1000E0101136F010E0101146FFD
:108F4800000E0101156F1EEC3FF01200120000C167
:108F5800D9FF01C1DAFF000EDF6E010120EE01F03A
:108F68000051D9260151DA22000EDF6E4050D8A4F4
:108F780004D00001C651D8B439D01E0E0001C76113
:108F880003D00001C72B00D01E0E0001C719D8A4BA
:108F98001AD00E0E0001C96516D000C1D9FF01C153
:108FA800DAFF030EDF6E2D0E0001C76F010120EE00
:108FB80001F00051D9260151DA22030EDF6E2D0E81
:108FC8000001C96F0FD01E0E0001C719D8A40AD01E
:108FD80000C1D9FF01C1DAFF020EDF6E2D0E0001BC
:108FE800C76F00D0000E0001C66F13D0010E00013C
:108FF800C7650BD01F0E0001C76107D000C1D9FF9C
:1090080001C1DAFF010EDF6E00D0000E0001C76F4C
:1090180000D04150D8A404D00001C851D8B43AD0E7
:109028001E0E0001C96103D00001C92B00D01E0E1D
:109038000001C919D8A41AD00E0E0001C76516D0B0
:1090480000C1D9FF01C1DAFF030EDF6E2D0E00014A
:10905800C76F010120EE01F00051D9260151DA2233
:10906800030E11D02D0E0001C96F10D01E0E000185
:10907800C919D8A40BD0010120EE01F00051D9265E
:109088000151DA22020EDF6EEDD700D0000E00018A
:10909800C86F1200010E0001C9650ED01F0E000135
:1090A800C9610AD0010120EE01F00051D926015111
:1090B800DA22010EDF6E00D0000E0001C96F120027
:1090C80012001D0E0101266F200E0101276F22C11B
:1090D80028F105EC72F00101296F030E0101556FAB
:1090E8000101225101015503F3CF54F1000E010192
:1090F800586F000E576F6DD04C0E0101146F010EA2
:109108000101156F500E0101166F010E0101176F55
:10911800560E0101186F010E0101196F010154511A
:109128001EEC59F04C0E0101006F010E0101016F98
:10913800000E0101026F260E0101036F010E0101ED
:10914800046F01015751090DF350040F0101056F18
:10915800040E0101066F1EEC65F0500E0101006F50
:10916800010E0101016F000E0101026F260E0101BF
:10917800036F010E0101046F01015751090DF350EE
:10918800080F0101056F040E0101066F1EEC65F062
:1091980057C100F158C101F1000E0101036F090E1A
:1091A800026F2FEC6EF00C0E01010027000E01017A
:1091B8000123260E01010025D96E010E01010121AE
:1091C800DA6E56C1DFFF0101542B0101574B582BB2
:1091D80000D0010155510101236F246B0101235176
:1091E8000101575D01015851800A0101256F0101F4
:1091F8002451800A01012559D8A07ED720C10EF13B
:1092080021C10FF1260E0101106F010E0101116F2E
:10921800260E0101126F000E0101136F010E0101EC
:10922800146F000E0101156F1EEC3FF012001200C2
:109238000AC10EF101010F6B106B01010935010123
:109248000E3701E30F8101010E510101116F010178
:109258001151D8A40AD0000E0101086F000E0101B7
:10926800096F000E01010A6F12000DC10EF1010114
:109278000F6B106B01010C3501010E3701E30F81F3
:1092880001010E510101166F01011651D8A40AD02F
:10929800000E0101086F000E0101096F000E0101A7
:1092A8000A6F1200010116517B0F010111270AC133
:1092B80016F101010D510101161B800E010116174F
:1092C8000101098F01010C8FFF0E01010B17FF0E21
:1092D80001010C17000E01010D17000E0101126F9C
:1092E800000E0101136F000E0101146F070E01013A
:1092F800156F00D0010108A10DD001010B5101012A
:10930800122701010C510101132301010D51010123
:10931800142300D00101D8900A330933083301011E
:10932800D8900B370C370D370101152FE3D700D034
:10933800090E0101156F00D0010108A10DD001012E
:109348000B510101122701010C51010113230101E5
:109358000D510101142300D00101D8900A330933BB
:1093680008330101D8901433133312330101152F38
:10937800E3D700D012C100F113C101F114C102F109
:1093880011C103F116C104F1C9EC52F000C108F192
:1093980001C109F102C10AF1120012006EC072F097
:1093A8000001736B746B00016D350001723701E3C6
:1093B8007381000172510001756F00017551D8A4C5
:1093C8000AD0000E00016C6F000E00016D6F000ED8
:1093D80000016E6F120071C072F00001736B746B44
:1093E800000170350001723701E373810001725189
:1093F80000017A6F00017A51D8A40AD0000E00014A
:109408006C6F000E00016D6F000E00016E6F120090
:1094180000017A517B0F000175276EC07AF00001B8
:10942800715100017A1B800E00017A1700016D8FBF
:109438000001708FFF0E00016F17FF0E00017017FB
:10944800000E00017117000E0001766F000E00017A
:10945800776F000E0001786F070E0001796F00D05A
:1094680000016CA10DD000016F51000176270001A9
:10947800705100017723000171510001782300D059
:109488000001D8906E336D336C330001D8906F377C
:10949800703771370001792FE3D700D0090E00012A
:1094A800796F00D000016CA10DD000016F5100014F
:1094B80076270001705100017723000171510001E6
:1094C800782300D00001D8906E336D336C330001DF
:1094D800D8907833773376330001792FE3D700D0EB
:1094E80076C060F077C061F078C062F075C063F054
:1094F8007AC064F079EC54F060C06CF061C06DF033
:1095080062C06EF0120012000001DC510001DB1194
:1095180032E1610E0001D95D090E0001DA59D8B0B7
:109528002AD0A786000E0101006F900E016FD00EA1
:10953800026F030E036FD9C00DF1DAC00EF1DBC064
:109548000FF1DCC010F1040ED89001010D370E3771
:109558000F371037E82EF8D70DC104F10EC105F109
:109568000FC106F110C107F1E3EC5DF035D06C0EC8
:109578000001C36F6CD00001DC510001DB1137E141
:10958800810E0001D95D250E0001DA59D8B02FD01F
:10959800000E0101006F900E016FD00E026F030ED6
:1095A800036FD9C00DF1DAC00EF1DBC00FF1DCC0DA
:1095B80010F1060ED89001010D370E370F3710370E
:1095C800E82EF8D70DC104F10EC105F10FC106F15F
:1095D80010C107F1E3EC5DF0FF0E01010025020167
:1095E800366FFF0E010101210201376FC0D7000E4F
:1095F8000101006F900E016FD00E026F030E036F12
:10960800D9C004F1DAC005F1DBC006F1DCC007F10E
:10961800E3EC5DF0050E07D00101D8900333023367
:10962800010101330033E82EF7D7FF0E01010025B1
:109638000201366FFF0E010101210201376F000E92
:109648000201376F220E366F7C0E92D700D036C2D9
:1096580000F137C201F10001C35185EC68F0010E39
:109668000001BE6FAB98AB88AECF68F21200000164
:10967800DC510001DB1132E1610E0001D95D090EF8
:109688000001DA59D8B02AD0A786000E0001606F11
:10969800900E616FD00E626F030E636FD9C06DF0CC
:1096A800DAC06EF0DBC06FF0DCC070F0040ED8904A
:1096B80000016D376E376F377037E82EF8D76DC0F9
:1096C80064F06EC065F06FC066F070C067F046EC7D
:1096D8005EF035D06C0E0001C36F6CD00001DC5118
:1096E8000001DB1137E1810E0001D95D250E000173
:1096F800DA59D8B02FD0000E0001606F900E616F5C
:10970800D00E626F030E636FD9C06DF0DAC06EF0D1
:10971800DBC06FF0DCC070F0060ED89000016D372A
:109728006E376F377037E82EF8D76DC064F06EC0AB
:1097380065F06FC066F070C067F046EC5EF0FF0E33
:10974800000160250201366FFF0E00016121020150
:10975800376FC0D7000E0001606F900E616FD00E9A
:10976800626F030E636FD9C064F0DAC065F0DBC0C6
:1097780066F0DCC067F046EC5EF0050E07D000012D
:10978800D89063336233000161336033E82EF7D732
:10979800FF0E000160250201366FFF0E00016121F6
:1097A8000201376F000E0201376F220E366F7C0EF2
:1097B80092D700D036C260F037C261F00001C351C1
:1097C800C1EC68F0010E0001BE6FAB98AB88AECF5C
:1097D80068F212000001C451D8B4A4D00001D051DD
:1097E800D8A4A0D0CAC000F10101016B000E01018C
:1097F800036F000E026FC90E0101046F000E056FA2
:10980800000E066F000E076F38EC69F00101005179
:1098180001012F6F01012F510101D8A402D0000EC0
:109828001200000E01010E6F01012F51010D000EF3
:10983800F324D96E060EF420DA6EDF50F2EC6FF0E6
:10984800D3A60FD0040E01010C6F010E09EC55F0E0
:109858000001A75101010C250101306F0001A85139
:1098680014D0040E01010C6F010E09EC55F0000133
:10987800A75101010C270001A85101010D23E60E93
:1098880001010C250101306FFF0E01010D210101BD
:10989800316F00D0E2EC71F02CC1D9FF2DC1DAFF95
:1098A800DF6E010120EE02F02C51D9262D51DA226B
:1098B80030C1DFFF010120EE01F02C51D9262D51D6
:1098C800DA2201013151DF6E2CC117F12DC118F1D7
:1098D80001012E51030F0101196F010E01011A6FC9
:1098E8002FEC43F00101CC51D8A417D0080E1BEC83
:1098F8006AF0010100510101CC250101CC6FCCC1F6
:1099080026F10101276B010E0101286F080E85EC75
:1099180066F0000E0101CC6F00D0000E0101D36F7C
:10992800010E1200000E1200120000C1D9FF01C181
:10993800DAFF1D0EDF6E010120EE01F00051D9267D
:109948000151DA22230EDF6E010120EE02F00051F0
:10995800D9260151DA22D5C002F10101023BF00EED
:109968000217B3EC71F0010102250001D425DF6E66
:10997800010120EE03F00051D9260151DA22D5C0A9
:1099880002F10101023BF00E0217B3EC71F0010184
:1099980002250001D425DF6E010120EE04F00051FC
:1099A800D9260151DA22D5C002F10101023BF00E9D
:1099B8000217B3EC71F0010102250001D425DF6E16
:1099C800010120EE05F00051D9260151DA22CDC05F
:1099D800DFFF010120EE06F00051D9260151DA22FD
:1099E800CDC0DFFF010120EE07F00051D92601515B
:1099F800DA22CDC0DFFF010120EE08F00051D926A0
:109A08000151DA22DAEC71F0DF6E010120EE09F083
:109A18000051D9260151DA22DAEC71F0DF6E01012A
:109A280020EE0AF00051D9260151DA22DAEC71F061
:109A3800DF6E010120EE0BF00051D9260151DA2228
:109A4800D6EC71F0DF6E010120EE0CF00051D92642
:109A58000151DA22D6EC71F0DF6E010120EE0DF033
:109A68000051D9260151DA22D6EC71F0DF6E0E0EC4
:109A78000101036F010103511200120019C11BF10A
:109A880001011C6B1D6B0101183501011B3701E336
:109A98001C8101011B510101256F01012551D8A429
:109AA8000AD0000E0101176F000E186F000E196F13
:109AB800000E1A6F1200170E01011B6F17C11CF15F
:109AC80018C11DF119C11EF101011B2901011F6FE8
:109AD80005D00101D8901E331D331C3301011F2FFF
:109AE800F8D701011C510101206F0101188FFF0EE9
:109AF80001011717FF0E01011817000E01011917B0
:109B0800010117510101216F010118510101226F53
:109B1800010119510101236F0101246B8E0E01010E
:109B2800255F010125AF1BD001012551800A8F0F48
:109B3800D8B00BD0000E0101176F000E186F000E81
:109B4800196F000E1A6F120000D00101D89024334B
:109B58002333223321330101253FF7D71FD0170EB6
:109B68000101256514D0000E0101176F000E186F52
:109B7800000E196F000E1A6F120009D00101D8905B
:109B880021372237233724370101250700D0010167
:109B980025510101D8B402D0F1D700D001012051DC
:109BA8000101D8B40AD00101241F231F221F216DEF
:109BB800000E22232323242300D021C117F122C120
:109BC80018F123C119F124C11AF1120012000DC1B4
:109BD80011F10101126B136B01010C3501011137F1
:109BE80001E31281010111510101186F010118519E
:109BF800D8A40AD0000E01010B6F000E01010C6FF2
:109C0800000E01010D6F120010C111F10101126B5C
:109C1800136B01010F350101113701E312810101B5
:109C280011510101196F01011951D8A40AD0000E70
:109C380001010B6F000E01010C6F000E01010D6F89
:109C48001200000E0101156F000E0101166F000EC3
:109C58000101176F01011951890F0101185F0DC129
:109C680019F1010110510101191B800E0101191789
:109C780001010C8FFF0E01010B17FF0E01010C17DC
:109C8800000E01010D1701010F8FFF0E01010E17C4
:109C9800FF0E01010F17000E01011017180E010128
:109CA800146F00D00101D890153716371737010106
:109CB8000E5101010B5D01010F5101010C59010108
:109CC800105101010D59D8A00ED001010E5101010A
:109CD8000B5F01010F5101010C5B010110510101E2
:109CE8000D5B010115810101D8900B370C370D3739
:109CF8000101142FD7D700D015C100F116C101F109
:109D080017C102F118C103F119C104F1C9EC52F0ED
:109D180000C10BF101C10CF102C10DF112001200DA
:109D28007DC07FF00001806B816B00017C350001F4
:109D38007F3701E3808100017F510001896F0001B5
:109D48008951D8A40AD0000E00017B6F000E7C6FE9
:109D5800000E7D6F000E7E6F1200170E00017F6FE0
:109D68007BC080F07CC081F07DC082F000017F293B
:109D78000001836F05D00001D8908233813380338E
:109D88000001832FF8D7000180510001846F000182
:109D98007C8FFF0E00017B17FF0E00017C17000E61
:109DA80000017D1700017B510001856F00017C5186
:109DB8000001866F00017D510001876F0001886BEB
:109DC8008E0E0001895F000189AF1BD00001895107
:109DD800800A8F0FD8B00BD0000E00017B6F000EE9
:109DE8007C6F000E7D6F000E7E6F120000D00001A8
:109DF800D89088338733863385330001893FF7D776
:109E08001FD0170E0001896514D0000E00017B6F6A
:109E1800000E7C6F000E7D6F000E7E6F120009D061
:109E28000001D8908537863787378837000189073A
:109E380000D0000189510001D8B402D0F1D700D078
:109E4800000184510001D8B40AD00001881F871F7F
:109E5800861F856D000E86238723882300D085C042
:109E68007BF086C07CF087C07DF088C07EF0120051
:109E780012000101000501010111D8A42FD0000131
:109E8800AB51301805E10001AC513118D8B495D068
:109E98003C50D8B402D0000E1200010E3C6E000EE9
:109EA8003024D96E050E3120DA6E02C1E1FF03C1FC
:109EB800E2FFDFCFE7FF304A312A31BE0AD0315006
:109EC80004E1800E305CD8A004D0000E316E000E84
:109ED800306E000E3C6E010E12006FD0020E0101B2
:109EE800001901010111D8A42FD00001AD51321879
:109EF80005E10001AE513318D8B45FD03D50D8B455
:109F080002D0000E1200010E3D6EC90E3224D96E29
:109F1800060E3320DA6E02C1E1FF03C1E2FFDFCF94
:109F2800E7FF324A332A33BE0AD0800E325C010E74
:109F38003358D8A004D0000E336E000E326E000ED7
:109F48003D6EC9D7120039D0040E01010019010174
:109F58000111D8A432D00001A9512E1805E1000141
:109F6800AA512F18D8B429D00001B151D8B402D0C1
:109F7800000E1200010E0001B16F000E2E24D96EE2
:109F8800030E2F20DA6E02C1E1FF03C1E2FFDFCF2B
:109F9800E7FF2E4A2F2A2FBE0AD02F5004E1270EA2
:109FA8002E5CD8A004D0000E2F6E000E2E6E000E70
:109FB8000001B16F90D7120000D0000E12001200FD
:109FC8000001C451D8A404D00001D051D8B403D0A2
:109FD800000E12008AD00101BF510101D8A485D01A
:109FE800CAC000F10101016B23C102F10101036B39
:109FF800C90E0101046F000E056F000E066F000EFA
:10A00800076F38EC69F0010100510101246F01016B
:10A0180024510101D8A402D0000E1200000E010143
:10A028000E6F01012451010D000EF324D96E060EA6
:10A03800F420DA6EDF50F2EC6FF0D3A60FD0040EE6
:10A0480001010C6F010E09EC55F00001A751010147
:10A058000C250101256F0001A85114D0040E01013F
:10A068000C6F010E09EC55F00001A75101010C27F6
:10A078000001A85101010D23E60E01010C25010183
:10A08800256FFF0E01010D210101266F00D0E2ECC2
:10A0980071F020C1D9FF21C1DAFFDF6E010120EE86
:10A0A80002F02051D9262151DA2225C1DFFF010112
:10A0B80020EE01F02051D9262151DA220101265142
:10A0C800DF6E20C117F121C118F101012251030FE0
:10A0D8000101196F010E01011A6F2FEC43F0010EF7
:10A0E8000101BF6F010E120000D0000E1200120015
:10A0F8000101056F80D0000E0101006F010E8DEC8B
:10A108006DF0E40E00D000D0E82EFCD700D000D0CF
:10A118000201A3511F0B80090201A36FA3C202F120
:10A12800000E66EC6EF0800E0001B96F0B0E010197
:10A13800046F620EE82EFED7042FFCD700D0120061
:10A148000201A3511F0B60090201A36FA3C202F110
:10A15800000E66EC6EF0D5C000F1000E8DEC6DF0CF
:10A16800600E0001B96F1200000E0101006F000EB1
:10A178008DEC6DF00201A3511F0B20090201A36FA2
:10A18800A3C202F1000E66EC6EF0680E0101046FC6
:10A19800E40EE82EFED7042FFCD700D0200E0001D5
:10A1A800B96F1200000E0101006F000E8DEC6DF00A
:10A1B8000201A3511F0B40090201A36FA3C202F1C0
:10A1C800000E66EC6EF0400E0001B96F1200000E32
:10A1D8000101006F000E8DEC6DF00201A3511F0B01
:10A1E8000201A36F000E0001B96FA3C202F1000EB5
:10A1F80066EC6EF0120001010551000AD8B4E7D7E9
:10A20800200AD8B4B1D7600AD8B4CCD7200AD8B4B9
:10A2180097D7E00AD8A412006ED7120006C1D9FF5A
:10A2280007C1DAFFDE04D8A489D0050E010108654C
:10A2380085D0F90E010108250101006F0101016BAC
:10A24800FF0E0123000E0101036F050E026F86EC5D
:10A2580060F00101005101010111D8A46FD0FF0E77
:10A268000101096FFF0E01010A6F01010851010187
:10A278000B6F0C6B0101095101010B2701010A51F8
:10A2880001010C2301010B5101010625D96E0101C1
:10A298000C5101010721DA6E0001CD51DE18D8B446
:10A2A80020D0FF0E0101096FFF0E01010A6F0101A5
:10A2B800085101010B6F0C6B0101095101010B27BA
:10A2C80001010A5101010C2301010B51010106256D
:10A2D800D96E01010C5101010721DA6EDE28D8A4DC
:10A2E80003D0010E12002AD00001CD29D8A423D012
:10A2F800FF0E0101096FFF0E01010A6F01010851EC
:10A3080001010B6F0C6B0101095101010B270101C0
:10A318000A5101010C2301010B5101010625D96ED7
:10A3280001010C5101010721DA6EDE28D8B403D0EF
:10A33800020E120003D0000E120000D0000E120010
:10A348001200000E0001CB6F3E0E010108611200E1
:10A35800200E7CEC50F0800E7CEC50F0010108518E
:10A36800020F2AEC71F00001BA512AEC71F0000ECC
:10A3780001010A6F21D001010A51010DF3500101B9
:10A388000625D96EF45001010721DA6EDF5000016D
:10A39800CB190001CB6F01010A51010DF3500101E6
:10A3A8000625D96EF45001010721DA6EDF502AEC38
:10A3B80071F001010A2B00D00101085101010A5D69
:10A3C800D8A0D9D70001CB512AEC71F000D0ACA2AB
:10A3D800FED7240ED3EC70F000D0ACA2FED7240E2A
:10A3E800D3EC70F000D0ACA2FED701010851050FE4
:10A3F800D3EC70F000D0ACA2FED7C00ED3EC70F056
:10A40800000E0101096F14D000D0ACA2FED70101E3
:10A418000951010DF35001010625D96EF4500101CF
:10A428000721DA6EDF50D3EC70F00101092B00D060
:10A43800010108510101095DD8B002D0E6D700D06A
:10A44800ACA2FED70001CB51D3EC70F000D0ACA287
:10A45800FED70D0ED3EC70F000D0ACA2FED70A0EDA
:10A46800D3EC70F01200120006EEC9F015EE6EF093
:10A47800EE6AE550E150FCE1E250FAE105EE00F049
:10A48800800EEE6AE806FDE104EE00F010EEFFF043
:10A49800EE6AE550E150FCE1E250FAE103EE00F02B
:10A4A80010EEFFF0EE6AE550E150FCE1E250FAE10F
:10A4B80002EE00F0A30EEE6AE806FDE101EEADF053
:10A4C800430EEE6AE806FDE100EEA3F0340EEE6AF4
:10A4D800E806FDE100EE2CF0260EEE6AE806FDE146
:10A4E800FC0EF66EBA0EF76E000EF86E06EE00F071
:10A4F80010EEC9F00900F5CFEEFFE550E150FAE1A2
:10A50800500EF66ED70EF76E000EF86E02EEA3F040
:10A5180010EE56F00900F5CFEEFFE550E150FAE1F4
:10A52800C40EF66EE20EF76E000EF86E01EEF0F055
:10A5380010EE10F00900F5CFEEFFE550E150FAE11A
:10A54800040EF66EE40EF76E000EF86E00EED7F00D
:10A5580010EE06F00900F5CFEEFFE550E150FAE104
:10A56800160EF66EE40EF76E000EF86E00EE52F060
:10A5780010EE05F00900F5CFEEFFE550E150FAE1E5
:10A58800000EF86E00010BEF05F001010351010107
:10A59800D8B408D0010100510101011101010211D3
:10A5A800D8A413D0000E0101006F000E0101016F45
:10A5B800000E0101026F120008D00101032B0101F6
:10A5C800D89002330133003300D0000E010100158A
:10A5D8000101056F000E010101150101066FFE0E54
:10A5E800010102150101076F010105510101061161
:10A5F80001010711D8B413D0E0D711D00101032B02
:10A60800010E01010027000E01010123000E0101C6
:10A6180002230101D89002330133003300D0000E29
:10A62800010100150101056F000E0101011501016D
:10A63800066FFF0E010102150101076F01010551A7
:10A648000101061101010711D8B40AD0D7D708D0E3
:10A65800010103070101D89000370137023700D004
:10A66800010101BF05D0020E01010361F1D700D03D
:10A67800010103B103D00101019F00D00101D8906D
:10A6880003330101035101010213010104510101C6
:10A69800D8B403D00101028F00D000C100F101C17C
:10A6A80001F102C102F112001200010100050101CD
:10A6B8000111D8A42AD00001C251D8A4120001D097
:10A6C8001200010E0001C26F000E0001AB25D96E09
:10A6D800050E0001AC21DA6E02C1DFFF0001AB4BB1
:10A6E800AC2B0001ACBF0DD00001AC5105E1800ED0
:10A6F8000001AB5DD8A005D0000E0001AC6F000EC4
:10A70800AB6F000E0001C26F1200020E01010019AA
:10A7180001010111D8A427D03E50D8A4120001D0BD
:10A728001200010E3E6EC90E0001AD25D96E060E4F
:10A738000001AE21DA6E02C1DFFF0001AD4BAE2B86
:10A748000001AEBF0DD0800E0001AD5D010E00010D
:10A75800AE59D8A005D0000E0001AE6F000EAD6F47
:10A76800000E3E6E1200040E0101001901010111D4
:10A77800D8A412000001B251D8A4120001D01200CE
:10A78800010E0001B26F000E0001A925D96E030E5B
:10A798000001AA21DA6E02C1DFFF0001A94BAA2B32
:10A7A8000001AABF0DD00001AA5105E1270E000142
:10A7B800A95DD8A005D0000E0001AA6F000EA96FF0
:10A7C800000E0001B26F12001200000160050001C6
:10A7D8006111D8A42AD00001C251D8A4120001D016
:10A7E8001200010E0001C26F000E0001AB25D96EE8
:10A7F800050E0001AC21DA6E62C0DFFF0001AB4B31
:10A80800AC2B0001ACBF0DD00001AC5105E1800EAE
:10A818000001AB5DD8A005D0000E0001AC6F000EA2
:10A82800AB6F000E0001C26F1200020E000160192A
:10A8380000016111D8A427D03E50D8A4120001D03D
:10A848001200010E3E6EC90E0001AD25D96E060E2E
:10A858000001AE21DA6E62C0DFFF0001AD4BAE2B06
:10A868000001AEBF0DD0800E0001AD5D010E0001EC
:10A87800AE59D8A005D0000E0001AE6F000EAD6F26
:10A88800000E3E6E1200040E0001601900016111F5
:10A89800D8A412000001B251D8A4120001D01200AD
:10A8A800010E0001B26F000E0001A925D96E030E3A
:10A8B8000001AA21DA6E62C0DFFF0001A94BAA2BB2
:10A8C8000001AABF0DD00001AA5105E1270E000121
:10A8D800A95DD8A005D0000E0001AA6F000EA96FCF
:10A8E800000E0001B26F1200120000016351000156
:10A8F800D8B408D000016051000161110001621153
:10A90800D8A413D0000E0001606F000E0001616F23
:10A91800000E0001626F120008D00001632B0001D5
:10A92800D89062336133603300D0000E00016015A7
:10A938000001656F000E000161150001666FFE0ED3
:10A94800000162150001676F000165510001661181
:10A9580000016711D8B413D0E0D711D00001632BE0
:10A96800010E00016027000E00016123000E0001A6
:10A9780062230001D89062336133603300D0000E47
:10A98800000160150001656F000E000161150001EE
:10A99800666FFF0E000162150001676F00016551C7
:10A9A8000001661100016711D8B40AD0D7D708D0C2
:10A9B800000163070001D89060376137623700D023
:10A9C800000161BF05D0020E00016361F1D700D01C
:10A9D800000163B103D00001619F00D00001D8904D
:10A9E80063330001635100016213000164510001E7
:10A9F800D8B403D00001628F00D060C060F061C09D
:10AA080061F062C062F0120012000101126F0101D0
:10AA18001205D8A416D0CECF13F10101146BCFCFF5
:10AA280015F10101166B010115510101166F156B26
:10AA380001011351010115270101145101011623C8
:10AA480000D0030E01011219D8A416D0B2CF13F109
:10AA58000101146BB3CF15F10101166B01011551FA
:10AA68000101166F156B0101135101011527010131
:10AA780014510101162300D001010C510101D8A481
:10AA880035D015C10EF116C10FF101010E1F0F1FB0
:10AA98000E4B0F2BFF0E01010E250101106FFF0E4B
:10AAA80001010F210101116F10C100F111C101F164
:10AAB8000101026B036BE80E0101046F030E056FC1
:10AAC800000E066F000E076F0BEC68F0100E07D033
:10AAD8000101D89003330233010101330033E82E1A
:10AAE800F7D700C10CF101C10DF1120015C10EF12B
:10AAF80016C10FF101010E1F0F1F0E4B0F2BFF0E7A
:10AB080001010E2501010C6FFF0E01010F2101014A
:10AB18000D6F120012000001706F00017005D8A4BB
:10AB280016D0CECF73F00001746BCFCF75F0000153
:10AB3800766B000175510001766F756B00017351DA
:10AB480000017527000174510001762300D0030E1F
:10AB580000017019D8A416D0B2CF73F00001746B3D
:10AB6800B3CF75F00001766B000175510001766F67
:10AB7800756B0001735100017527000174510001C4
:10AB8800762300D000016C510001D8A435D075C0DF
:10AB98006EF076C06FF000016E1F6F1F6E4B6F2B4B
:10ABA800FF0E00016E250001716FFF0E00016F217D
:10ABB8000001726F71C060F072C061F00001626BD9
:10ABC800636BE80E0001646F030E656F000E666F1D
:10ABD800000E676F48EC68F0100E07D00001D8909F
:10ABE80063336233000161336033E82EF7D760C006
:10ABF8006CF061C06DF0120075C06EF076C06FF039
:10AC080000016E1F6F1F6E4B6F2BFF0E00016E252C
:10AC180000016C6FFF0E00016F2100016D6F1200C3
:10AC280012000001CE510001D8A404D0010E000189
:10AC3800CE6F00D0CEC007F1000E01010A6F5DD0C3
:10AC4800000E0101096F000E086F2CD001010A5196
:10AC5800010DF35001010025D96EF45001010121C5
:10AC6800DA6E0001CE51010DC30EF324E16E020E1F
:10AC7800F420E26EE7500101046F01010A51010D51
:10AC8800F35001010025E16EF45001010121E26E4B
:10AC9800E7500101042501010A25DF6E0101084B77
:10ACA800092B00D00001CE51010DC30EF324D96E3B
:10ACB800020EF420DA6EDF50070B0101046F056BFA
:10ACC800010104510101085D01010951800A0101D6
:10ACD800066F01010551800A01010659D8A0B6D7AF
:10ACE8000001CE2B070E0001CE6504D0000E000136
:10ACF800CE6F00D001010A2B00D001010A510101D9
:10AD0800046F056B010102510101045D0101055148
:10AD1800800A0101066F01010351800A01010659E9
:10AD2800D8A08ED70101075112001200000E0101B0
:10AD3800116F000E0101106F000E0F6F000E010160
:10AD4800136F000E126F000E0101006F040E71ECFC
:10AD58006CF0000E0101136F000E126F000E01015E
:10AD6800116F090E0101116501D023D00EEC72F0AC
:10AD780000D0A0EC71F00009D8A4FBD7C4500101A1
:10AD8800106F0F6BC35001010F13040E0101116501
:10AD980009D001010F5101011227010110510101D0
:10ADA800132300D00A0EE82EFED700D00101112B84
:10ADB800D8D712C106F113C107F1000E0101096FBE
:10ADC800050E086F11EC67F006C112F107C113F107
:10ADD800020E0101006F040E71EC6CF0C29012C1FA
:10ADE80000F113C101F1000E0101036F070E026F9C
:10ADF8002FEC6EF000C106F101C107F1000E010150
:10AE0800096F060E086F11EC67F006C112F107C151
:10AE180013F10101D4510101125F000E0101D4BFE9
:10AE2800FF0E0101135B12C10DF113C10EF11200E7
:10AE38001200000E0101096F010103AF0DD00101DD
:10AE4800031F021F011F006D000E012302230323AD
:10AE5800010E0101096F00D0010107AF0AD00101FD
:10AE6800071F061F051F046D000E05230623072371
:10AE780000D0010104510101051101010611010170
:10AE88000711D8B43FD0010E0101086F09D00101A4
:10AE9800D89004370537063707370101082B00D04B
:10AEA800010107BF02D0F3D700D00101045101010D
:10AEB800005D01010551010101590101065101011E
:10AEC80002590101075101010359D8A011D001010C
:10AED80004510101005F010105510101015B0101FC
:10AEE80006510101025B010107510101035B00D01A
:10AEF8000101D89007330633053304330101082FC5
:10AF0800D4D700D0010109510101D8B40AD00101F8
:10AF1800031F021F011F006D000E012302230323DC
:10AF280000D000C100F101C101F102C102F103C169
:10AF380003F1120012000101086FFA0E0101086105
:10AF480078D008C109F101010A6B09C106F10AC1EB
:10AF580007F10101D890063707370101D890063765
:10AF6800073706C109F107C10AF104C1D9FF05C1B4
:10AF7800DAFF09C102F10AC103F18AEC71F001019B
:10AF8800076FDE5001010719D8A451D0010120EE46
:10AF980001F00451D9260551DA22010E01010925D3
:10AFA8000101026F000E01010A210101036F8AEC01
:10AFB80071F00101076FDE5001010719D8A437D0DD
:10AFC800010120EE02F00451D9260551DA22020EC1
:10AFD800010109250101026F000E01010A21010189
:10AFE800036F8AEC71F00101076FDE500101071948
:10AFF800D8A41DD0010120EE03F00451D926055133
:10B00800DA22030E010109250101026F000E010178
:10B018000A210101036F8AEC71F00101076FDE500C
:10B0280001010719D8A403D0010E120000D0000EA8
:10B038001200000E120012000101096F000E01013A
:10B048000A6F0F015A99000E0001D06F000E00011F
:10B05800D66F000E0001D26F000E0001D36F000EF4
:10B068004B6E000E396E200E0001B96F000E010103
:10B07800CB6F000E0001CC6F000E0101D56F000EE2
:10B08800506E000E496E8986050E0101076F260E67
:10B09800E82EFED7072FFCD700D08996680E01014D
:10B0A800076FE40EE82EFED7072FFCD700D0000E5E
:10B0B8000101046F010109516AEC42F0000E01011F
:10B0C8000A6F1F0E01010A6501D015D001010A514E
:10B0D800010DA30EF324D96E020EF420DA6EDF50B0
:10B0E8000101026F01010A51020DF35066EC6EF086
:10B0F80001010A2BE6D70001BA5107EC71F0F2966C
:10B1080000F00F015A8900F081CF08F100F0F290A9
:10B11800F28609C152F0150E0101076FC60EE82E1E
:10B12800FED7072FFCD700D0B7EC70F0010E000156
:10B13800D46F000E0001D56F1200010E0001D46F0C
:10B14800000E8CEC70F0000E0001D56FFF0E25ECA0
:10B158006CF0000E07EC71F0080EB8EC71F0E2C16B
:10B16800FCF1E3C1FDF1E4C1FEF1E5C1FFF1D4C09A
:10B178002FF1EEEC71F0030E0101016FEF0E006F7D
:10B18800D6EC71F00101026FBBEC6CF0EEEC71F0E3
:10B19800030E0101016FFC0E006FDAEC71F0010182
:10B1A800026FBBEC6CF0EEEC71F0030E0101016F65
:10B1B800FD0E006F2FC102F1BBEC6CF0EEEC71F0EC
:10B1C800030E0101016FFE0E006FCDC002F1BBEC52
:10B1D8006CF0EEEC71F0030E0101016FE80E006FE8
:10B1E800FF0E0101026FBBEC6CF0EEEC71F0030E88
:10B1F8000101016FE90E006FFF0E0101026FBBEC48
:10B208006CF0EEEC71F0030E0101016FEA0E006FB5
:10B21800FF0E0101026FBBEC6CF0EEEC71F0030E57
:10B228000101016FEB0E006FFF0E0101026FBBEC15
:10B238006CF0120001011F6FFA0E01011F614FD05F
:10B248001B0E01010C6F010E01010D6F01011F5151
:10B2580043EC62F01B0E0101066F010E0101076F3E
:10B2680014C108F115C109F1040E01010A6F4BEC74
:10B278006CF001011F51020DC90EF324D96E080E9E
:10B28800F420DA6EDF503F0B01011A6F01011A51E9
:10B29800060DBD0EF3240101066F0A0EF42001010C
:10B2A800076F16C108F117C109F1040E01010A6FF1
:10B2B8004BEC6CF001011F51020D010EF326000E3C
:10B2C800F422C90EF324D96E080EF420DA6EDF508A
:10B2D8001F0B18C1D9FF19C1DAFFDF6E1200E20E89
:10B2E8000101066F010E0101076F14C108F115C1B4
:10B2F80009F1040E01010A6F4BEC6CF0E20E01013A
:10B30800066F010E0101076F16C108F117C109F197
:10B31800040E01010A6F4BEC6CF018C1D9FF19C17A
:10B32800DAFFFF0EDF6E1200120001010D6F01013E
:10B338000D5153EC6FF00DC100F10101016B0101DA
:10B348000651050F0101026F59EC53F007C108F1CE
:10B35800060E01010827020E0101096F0101082BE1
:10B3680003D00101D89009370101082FFAD701014C
:10B37800095101010A6F0DC100F10101016B0AC1F8
:10B3880002F159EC53F0000E01010B6F000E0101A0
:10B398000C6F25D00DC100F10101016B01010C51A9
:10B3A800010DF35001010425D96EF4500101052166
:10B3B800DA6EDF500101026F59EC53F001010C51B4
:10B3C800010DF35001010425D96EF4500101052146
:10B3D800DA6EDF5001010B1B01010C2B00D00101BB
:10B3E800065101010C5DD8A0D5D70DC100F10101AE
:10B3F800016B0BC102F159EC53F00DC100F10101D1
:10B40800016B0D0E0101026F59EC53F00DC100F1F3
:10B418000101016B0A0E0101026F59EC53F0120091
:10B42800000E01010A6F5ED0000E0101096F000EC7
:10B43800086F2DD001010A51010DF35001010025BB
:10B44800D96EF45001010121DA6E01010A51010D92
:10B45800F35001010025E16EF45001010121E26E73
:10B46800E7500101056F01010451010DC30EF324DA
:10B47800E16E020EF420E26EE75001010A25000891
:10B4880001010525DF6E0101084B092B00D00101E0
:10B498000451010DC30EF324D96E020EF420DA6EA6
:10B4A800DF50070B0101056F066B01010551010112
:10B4B800085D01010951800A0101076F0101065168
:10B4C800800A01010759D8A0B5D70101042B070E3E
:10B4D8000101046504D0000E0101046F00D00101D0
:10B4E8000A2B00D001010A510101056F066B010109
:10B4F80002510101055D01010651800A0101076F32
:10B5080001010351800A01010759D8A08DD7120003
:10B51800030E010134250101386F000E01013521A8
:10B528000101396F32C106F133C107F13EEC63F016
:10B538000101376F32C106F133C107F138C108F193
:10B5480039C109F1040E01010A6F4BEC6CF0E60EEB
:10B558000101066F010E0101076F040E0101382574
:10B568000101086F000E010139210101096F040E64
:10B5780001010A6F4BEC6CF0020E0101BD19D8A451
:10B5880010D038C104F139C105F101013651080F55
:10B598000101066F000E0101076F020E99EC59F0C8
:10B5A80000D032C106F133C107F1E20E0101086F84
:10B5B800010E0101096F040E01010A6F50EC6BF0D6
:10B5C8000009D8A40ED034C120F135C121F1010100
:10B5D8003651080F0101226F37C123F1E4EC4FF017
:10B5E800120034C12CF135C12DF101013651080F7B
:10B5F80001012E6FEEEC4BF01200120010C106F1A3
:10B6080011C107F10EC108F10FC109F1040E0101C2
:10B618000A6F4BEC6CF0E60E0101006F010E0101A0
:10B62800016F000E0101026F0EC103F10FC104F199
:10B63800040E0101056F040E0101066F1EEC65F092
:10B64800010120EE08F00E51D9260F51DA22030E1F
:10B65800DF6E010120EE09F00E51D9260F51DA22D2
:10B66800000EDF6E010120EE0AF00E51D9260F51AF
:10B67800DA22000EDF6EE60E0101006F010E0101F5
:10B68800016F000E0101026F0EC103F10FC104F139
:10B698000B0E0101056F040E0101066F1EEC65F02B
:10B6A80010C100F111C101F1000E0101026F0EC1BC
:10B6B80003F10FC104F10F0E0101056F040E010122
:10B6C800066F1EEC65F0010120EE13F00E51D9262D
:10B6D8000F51DA22000EDF6E12000101195101012B
:10B6E800175D01011A5101011859D8B045D001015F
:10B6F800195101011F6F01011A510101206F010148
:10B70800216B0101226B01011F1F201F211F221F16
:10B718001F2B000E20232123222301011751010191
:10B728001F250101236F0101185101012021010189
:10B73800246F000E010121210101256F000E010176
:10B7480022210101266F01011B510101232501015D
:10B75800276F01011C51010124210101286F0101FA
:10B768001D51010125210101296F01011E5101010E
:10B77800262101012A6F19D019C11FF11AC120F120
:10B7880001011F1F201F1F4B202B01011751010111
:10B798001F2701011851010120231FC127F120C1D2
:10B7A80028F10101296B2A6B00D027C117F128C1A4
:10B7B80018F1120012000101126F0101125101016A
:10B7C800D8A40DD0D6CF13F10101146BD7CF15F142
:10B7D80011D0010115510101166F156B0ED0030E22
:10B7E80001011219D8A412D0B2CF13F10101146BC0
:10B7F800B3CF15F10101166BECD70101135101010B
:10B808001527010114510101162300D001010C5123
:10B818000101D8A435D015C10EF116C10FF10101EF
:10B828000E1F0F1F0E4B0F2BFF0E01010E250101DE
:10B83800106FFF0E01010F210101116F10C100F1FE
:10B8480011C101F10101026B036BE80E0101046FE4
:10B85800030E056F000E066F000E076F0BEC68F005
:10B86800100E07D00101D8900333023301010133D0
:10B878000033E82EF7D700C10CF101C10DF1120019
:10B8880015C10CF116C10DF11200000E0101056F72
:10B89800010103AF09D00101026D031FD8B0032BCA
:10B8A800010E0101056F00D0010101AF09D00101AE
:10B8B800006D011FD8B0012B010E0101051B00D03E
:10B8C800000E0101076F000E066F01010251010110
:10B8D8000311D8B431D0010E0101046F07D0010162
:10B8E800D890023703370101042B00D0010103BFB0
:10B8F80002D0F5D700D00101D890063707370101EB
:10B9080002510101005D0101035101010159D8A053
:10B918000BD0010102510101005F01010351010136
:10B92800015B0101068100D00101D8900333023385
:10B938000101042FE0D700D0010105510101D8B45D
:10B9480006D00101066D071FD8B0072B00D006C12D
:10B9580000F107C101F112001200000E01012D6F64
:10B968000A0E2C6F010E01012E6F3E0EF2EC43F011
:10B97800020135BF0CD00201355104E10201340542
:10B98800D8A005D002013407D8A0350700D000019F
:10B99800B951D8A402D0110E18D0020134510201B5
:10B9A8003511D8A418D096EC6CF00009D8B407D09B
:10B9B800010E0201356F2C0E346F120E06D0000EE8
:10B9C8000201356F1E0E346F100E0001BC6F010EA0
:10B9D8000101C96F00D00101CA510101D8A40DD0DD
:10B9E80011EC22F093B609D00101C9510101D8B474
:10B9F80002D08A8602D08A9600D0010E0101BE6F5D
:10BA0800E20E0101126FFF0E0101136FA3C014F1C2
:10BA1800A4C015F1A5C016F1A6C017F15FEC31F06E
:10BA2800000E0101BE6F120012000101026F010138
:10BA38000251060D050EF326000EF422BD0EF32466
:10BA4800D96E0A0EF420DA6EDE28D8A410D00101CF
:10BA58000251060D050EF326000EF422BD0EF32446
:10BA6800D96E0A0EF420DA6E00C1DFFF1200010160
:10BA78000251060D050EF326000EF422BD0EF32426
:10BA8800D96E0A0EF420DA6E01010051DE5CD8B0DE
:10BA98000FD001010251060D050EF326000EF42207
:10BAA800BD0EF324D96E0A0EF420DA6EDF2A1200D6
:10BAB80001010251060D050EF326000EF422BD0EFB
:10BAC800F324D96E0A0EF420DA6EDE500101005D0F
:10BAD800D8B0120001010251060D050EF326000E22
:10BAE800F422BD0EF324D96E0A0EF420DA6EDF06B6
:10BAF8001200120000010203040A0B0C0D0E1415AB
:10BB08001617181E1F20212228292A2B2C05060764
:10BB180008090F10111213191A1B1C1D232425269E
:10BB2800272D2E2F30310031302F2E2D272625247A
:10BB3800231D1C1B1A19131211100F0908070605DB
:10BB48002C2B2A29282221201F1E18171615140EFF
:10BB58000D0C0B0A0403020100010203040A0B0C7A
:10BB68000D0E14151617181E1F20212228292A2BFE
:10BB78002C05060708090F10111213191A1B1C1D92
:10BB880023242526272D2E2F30310031302F2E2D1E
:10BB980027262524231D1C1B1A19131211100F09FF
:10BBA800080706052C2B2A29282221201F1E1817D2
:10BBB8001615140E0D0C0B0A040302010000000EEA
:10BBC8000101086F000E096F000E0A6F000E0B6F5F
:10BBD80001010451010105110101061101010711BB
:10BBE800D8B447D0010E01010C6F09D00101D890DB
:10BBF800043705370637073701010C2B00D0010140
:10BC080007BF02D0F3D700D00101D8900837093711
:10BC18000A370B37010104510101005D010105518B
:10BC280001010159010106510101025901010751A0
:10BC380001010359D8A013D0010104510101005F8B
:10BC4800010105510101015B010106510101025B7E
:10BC5800010107510101035B0101088100D00101C5
:10BC6800D890073306330533043301010C2FCCD7A2
:10BC780000D008C100F109C101F10AC102F10BC1EC
:10BC880003F11200000E0001686F000E696F000ECC
:10BC98006A6F000E6B6F00016451000165110001AD
:10BCA800661100016711D8B447D0010E00016C6F0E
:10BCB80009D00001D89064376537663767370001C7
:10BCC8006C2B00D0000167BF02D0F3D700D0000171
:10BCD800D890683769376A376B37000164510001BB
:10BCE800605D000165510001615900016651000164
:10BCF80062590001675100016359D8A013D00001AF
:10BD080064510001605F000165510001615B000141
:10BD180066510001625B000167510001635B00012D
:10BD2800688100D00001D890673366336533643387
:10BD380000016C2FCCD700D068C060F069C061F0FA
:10BD48006AC062F06BC063F012001B6E4250D8B438
:10BD58001FD01B50D8B40CD0FF0E34240E6EFF0E2B
:10BD680035200F6E040E106E010E36EC46F00AD028
:10BD780034C00EF035C00FF0040E106E010E36EC14
:10BD880046F000D0070E356E3468000E426E00D0C3
:10BD9800010E0001A7250001A76FF80E0001A821D8
:10BDA8000001A86F2C06D8A02D062C502D10D8A461
:10BDB8000ED0000E2D6E100E2C6E30C2A7F031C2C0
:10BDC800A8F07F0E0201316FF00E306F0BD02C04FB
:10BDD8002D10D8A407D0010E426EA7C034F0A8C019
:10BDE80035F000D00001CA2BC80E0001CA6504D086
:10BDF800000E0001CA6F00D00201322904E10201DD
:10BE08003329D8B412000201324B332B120012002E
:10BE1800000E0101156F000E146F010115BF0AD045
:10BE2800010115513CE10A0E0101145DD8B037D06B
:10BE380001D035D09AEC56F00DC1AFF00EC1B0F07C
:10BE48000001B0BF0ED0230E0001AF5D0C0E000143
:10BE5800B059D8A006D00001AF51DE0F0101D42798
:10BE680012D00001B0BF08D01C0E0001AF5D0C0E4F
:10BE78000001B059D8B007D00001AF5100081C0F1D
:10BE88000101D45F00D0020E0101016F8A0E006F1C
:10BE980087EC6AF00101144B152BBFD700D00101C4
:10BEA800D451800A9F0FD8A012000101D451800AF2
:10BEB800600FD8B01200EEEC71F0030E0101016FB3
:10BEC800F00E006FD4C102F1BBEC6CF0120012004E
:10BED80000018E6F8EC0D6F0D6C060F00001616B95
:10BEE800000E0001636F070E626FE0EC60F0000166
:10BEF80060510101C16F880E0001D66504D0280E7B
:10BF08000001D66F1200000E00016F6F000E0001D5
:10BF1800706F3F0E0001716FDA0E00018A6FFF0E1D
:10BF280000018B6F0001D65100018C6F8D6B0001F1
:10BF38008A5100018C2700018B5100018D230001DB
:10BF48008C1F8D1F8C4B8D2B640E00018C250001DE
:10BF5800686F000E00018D210001696FDFEC6CF045
:10BF680068C06CF069C06DF06AC06EF0D2EC49F040
:10BF78006CC07BF06DC07CF06EC07DF094EC4EF030
:10BF880000017B51280F0001D66F12001200D7C2A2
:10BF980000F1D8C201F1D9C202F1DAC203F1DBC261
:10BFA80004F1DCC205F1DDC206F1DEC207F10BECDB
:10BFB80068F000C1D7F201C1D8F202C1D9F203C1B9
:10BFC800DAF2390E0201D727300ED823000ED92312
:10BFD800000EDA23100E01010E6FD7C20FF1D8C27E
:10BFE80010F1D9C211F1DAC212F101010E6701D0C4
:10BFF80009D0010112351233113310330F33010107
:10C008000E2FF3D7FF0E01010F150101006F7F0EF0
:10C01800010110150101016F000E01011115010147
:10C02800026F000E010112150101036F0CC104F12A
:10C038000DC105F10101066B076B1DEC57F000C13E
:10C048000CF101C10DF1120012004FD0010187055A
:10C05800D8A455D0510E0101126FFF0E0101136FC4
:10C068005FEC31F0020E010181250101186F000E0D
:10C07800010182210101196F000E01011A6FCEEC36
:10C0880040F0040EA6EC6FF00009D8A411D0040EFD
:10C09800D1EC6DF00009D8A40BD0000E0101276F78
:10C0A800010E266F000E0101286F040E85EC66F064
:10C0B800000EA6EC6FF00009D8B421D0130E0101D0
:10C0C800276F880E266F000E0101286F000E85EC81
:10C0D80066F015D0830E0101126FFF0E0101136F78
:10C0E8005FEC31F0010E12000AD001018651010AFD
:10C0F800D8B4F0D71F0AD8B4A9D7010A00D0000EC7
:10C1080012001200000E0101056F010101AF09D0F4
:10C118000101006D011FD8B0012B010E0101056F4F
:10C1280000D0010103AF06D00101026D031FD8B092
:10C13800032B00D00101025101010311D8B42BD007
:10C14800010E0101046F07D00101D89002370337AF
:10C158000101042B00D0010103BF02D0F5D700D0A4
:10C16800010102510101005D010103510101015961
:10C17800D8A009D0010102510101005F010103515A
:10C188000101015B00D00101D890033302330101A2
:10C19800042FE6D700D0010105510101D8B406D01B
:10C1A8000101006D011FD8B0012B00D000C100F1C2
:10C1B80001C101F112001200000E0001656F0001BB
:10C1C80061AF09D00001606D611FD8B0612B010E0D
:10C1D8000001656F00D0000163AF06D00001626DF9
:10C1E800631FD8B0632B00D00001625100016311B6
:10C1F800D8B42BD0010E0001646F07D00001D8908D
:10C20800623763370001642B00D0000163BF02D09E
:10C21800F5D700D0000162510001605D0001635153
:10C2280000016159D8A009D0000162510001605F86
:10C23800000163510001615B00D00001D8906333B5
:10C2480062330001642FE6D700D000016551000178
:10C25800D8B406D00001606D611FD8B0612B00D042
:10C2680060C060F061C061F0120012000EC100F100
:10C278000FC101F1000E0101026F0EC103F10FC1E0
:10C2880004F1080E0101056F080E0101066F52EC5A
:10C2980067F00009D8B412000EC100F10FC101F116
:10C2A800080E0101026F0EC103F10FC104F1100E57
:10C2B8000101056F080E0101066F52EC67F00009D5
:10C2C800D8B41200000E0101106F070E01011065AD
:10C2D80001D01DD0EEEC71F0F40E01011025010122
:10C2E800006F0101016B030E0123010110510101CF
:10C2F8000E25D96E0101000E01010F21DA6EDF5003
:10C308000101026FBBEC6CF00101102BDED70EC1EE
:10C3180000F10FC101F1D1EC64F012001200000E1F
:10C328000101106F000E0F6F010110BF0AD001014B
:10C3380010514AE1FA0E01010F5DD8B045D001D085
:10C3480043D00BC104F10CC105F101010F519FEC61
:10C3580057F00009D8B433D00FC10DF110C10EF158
:10C36800D89001010D370E37010E01010D27000E7F
:10C378000E23C90E01010D25D96E080E01010E21EB
:10C38800DA6EDF501F0B1F0AD8B419D00FC10DF198
:10C3980010C10EF1D89001010D370E37010E0101C1
:10C3A8000D27000E0E23C90E01010D25D96E080EAA
:10C3B80001010E21DA6EDF38E832070B12000101A5
:10C3C8000F4B102BB1D700D0000E12001200EACF8D
:10C3D8001FF0E1CF20F0E2CF21F0D9CF22F0DACF61
:10C3E80023F0F3CF24F0F4CF25F0F6CF26F0F7CFE3
:10C3F80027F0F8CF28F0F5CF29F09EB09DA022D0E5
:10C408009E90F80E2B6E000E2A6E2B50CF6ED3B670
:10C4180003D0010E4F6E00D04F50A9EC5EF0010E14
:10C428000101B86F0201662B0001D051D8B404D0C5
:10C4380002013A4B3B2B06D0000E02013B6F000E67
:10C448003A6F00D029C0F5FF28C0F8FF27C0F7FFD2
:10C4580026C0F6FF25C0F4FF24C0F3FF23C0DAFF8F
:10C4680022C0D9FF21C0E2FF20C0E1FF1FC0EAFFC0
:10C478001EC0E9FF1DC0FBFF1CC0FAFF110001012F
:10C48800106FFA0E010110613ED010C111F10101C7
:10C49800126B11C10EF112C10FF10101D8900E37C4
:10C4A8000F370101D8900E370F370EC111F10FC1A8
:10C4B80012F1000E0101136F030E0101136502D082
:10C4C8001200120001011351010DF35001010C2556
:10C4D800D96EF45001010D21DA6E010113510101E9
:10C4E80011250101026F000E010112210101036FE4
:10C4F8008AEC71F0DF6E0101132B030E0101136545
:10C50800E1D712001200E20E0101066F010E0101CF
:10C51800076F0CC108F10DC109F1040E01010A6F82
:10C528004BEC6CF0120012000101146F030E0101B4
:10C53800086F01011451060D050EF326000EF422B2
:10C54800BD0EF324D96E0A0EF420DA6EDF509EEC8D
:10C5580041F00101136F01011451060D040EF32679
:10C56800000EF422BD0EF324D96E0A0EF420DA6E02
:10C57800DF380F0BB4EC6EF00101135DD8B012D0A8
:10C5880001011451060D040EF326000EF422BD0E0F
:10C59800F324D96E0A0EF420DA6EDF380F0BB4ECF0
:10C5A8006EF01200030E0101086F01011451060D0F
:10C5B800050EF326000EF422BD0EF324D96E0A0EE2
:10C5C800F420DA6EDF509EEC41F0120012000EC12A
:10C5D80006F10FC107F1E20E0101086F010E01011A
:10C5E800096F040E01010A6F50EC6BF00009D8A422
:10C5F8001200000E0101126F3E0E0101126502D0F9
:10C608001200120001011251060DBD0EF3240101A2
:10C61800066F0A0EF4200101076F0EC108F10FC161
:10C6280009F1040E01010A6F50EC6BF00009D8B44F
:10C6380018D010C111F101011251060D040EF32694
:10C64800000EF422BD0EF324D96E0A0EF420DA6E21
:10C658000101113BDF50010111190F0B1119DF6E98
:10C6680012000101122B3E0E01011265CBD71200F8
:10C6780012001200000E01010E6F000E0D6F010175
:10C6880020EE03F00651D9260751DA22DF500101C6
:10C69800086F06C1D9FF07C1DAFFDF500101096F32
:10C6A8000A6B010120EE01F00651D9260751DA2262
:10C6B800DF5001010B6F01010B5101010927000E29
:10C6C8000A23010120EE02F00651D9260751DA2289
:10C6D800DF5001010C6F01010C5101010927000E07
:10C6E8000A2301010851010109250101006F010117
:10C6F800000E01010A210101016F000E0101036F03
:10C70800C90E026F86EC60F000C10DF101C10EF197
:10C7180001010D5112001200100E0101446F18C1E1
:10C728000BF119C10CF1400E01010D6F010E010151
:10C738000E6F43EC3CF01D0E01011A6F2E0E010125
:10C748001B6F460E01011C6F480E01011D6F430E41
:10C7580001011E6F010E0101066F000E076F020E28
:10C76800086F000E096F0B0E01010A6F000E0B6FA8
:10C77800000E0C6F000E0D6F1F0E01010E6F010EE3
:10C7880001010F6F83EC64F018C10EF119C10FF1AC
:10C798001A0E0101106F010E0101116F44C112F14F
:10C7A800000E0101136F010E0101146F000E01014B
:10C7B800156F1EEC3FF012001200100E0101446FBD
:10C7C80018C10BF119C10CF1400E01010D6F010EDA
:10C7D80001010E6F43EC3CF01D0E01011A6F2A0E89
:10C7E80001011B6F410E01011C6F530E01011D6FEA
:10C7F800460E01011E6F010E0101066F000E076F44
:10C80800020E086F000E096F0B0E01010A6F000E71
:10C818000B6F000E0C6F000E0D6F1F0E01010E6FD7
:10C82800010E01010F6F83EC64F018C10EF119C1FC
:10C838000FF11A0E0101106F010E0101116F44C1B1
:10C8480012F1000E0101136F010E0101146F000EA9
:10C858000101156F1EEC3FF0120012007C0ED36E22
:10C868009B8CD2909B8E200E926EBE0E936E930E72
:10C87800946E860E806E010E816E040E826E100E0E
:10C888000F015D6F000E0F015C6FF19E0F015B8160
:10C898000F015B930F015B950F015B970F015B998C
:10C8A8000F015B9B0F015B9D0F015B9FD18088ECA3
:10C8B8004AF0010E0101F26F000E0201476F000EEF
:10C8C800466F000E0201456F000E446F000E020114
:10C8D8005B6F000E5A6F000E02015D6F000E5C6FF9
:10C8E800000E0101C26F02019F690201A0690201E5
:10C8F800A1690201A269000E0201636F1200000E15
:10C908000101106F000E116F000E126F000E136FF1
:10C91800899E030E04EC70F00101085104EC70F0DC
:10C928000101075104EC70F00101065104EC70F0AC
:10C93800000E0101106F000E116F000E126F000E35
:10C94800136F17D00101105101010E25D96E010195
:10C95800115101010F21DA6EEDEC70F00101005167
:10C96800DF6E010E01011027000E1123122313237D
:10C9780000D001010A510101105D01010B510101B3
:10C98800115901010C510101125901010D51010107
:10C998001359D8A0D7D7898E1200000E0101036F52
:10C9A800070E0101036501D019D001010351010DE2
:10C9B800F35001010025D96EF45001010121DA6E0E
:10C9C80001010351010DC30EF324E16E020EF420A0
:10C9D800E26EDFCFE7FF0101032BE2D7000E010172
:10C9E800036F070E0101036502D012001200010156
:10C9F8000351010DF35001010025D96EF4500101D6
:10CA08000121DA6EDE28D8A409D0070E0101031926
:10CA1800D8A408D0000E0101C76F04D0010E01018F
:10CA2800C76F12000101032B070E01010365DFD751
:10CA380012001200000E01010D6F3FD001010251DA
:10CA48000DC107F10101086B01010727000E08233A
:10CA580000C109F101C10AF10101075101010927CA
:10CA68000101085101010A2309C1F6FF0AC1F7FFB4
:10CA7800000EF86E010105510DC10BF101010C6B9F
:10CA880001010B27000E0C2301010B5101010325A5
:10CA9800D96E01010C5101010421DA6E0E0EF76402
:10CAA80003D00800F55005D0F6CFE1FFF7CFE2FF3D
:10CAB800E750DF6E01010D2B00D001010651010185
:10CAC8000D5DD8A0BBD712006AEC71F0899E020EEA
:10CAD80004EC70F00101075104EC70F001010651FB
:10CAE80004EC70F00101055104EC70F0000E010136
:10CAF8000F6F000E106F000E116F000E126F15D021
:10CB080001010F5101010925D96E010110510101DF
:10CB18000A21DA6EDF5004EC70F0010E01010F27D4
:10CB2800000E10231123122300D001010B51010123
:10CB38000F5D01010C510101105901010D51010155
:10CB4800115901010E5101011259D8A0D9D7898E66
:10CB58003EEC71F012001200040E01010E250101D5
:10CB6800066F000E01010F210101076F10C108F1C6
:10CB780011C109F1040E01010A6F4BEC6CF07AEC5B
:10CB880071F002C1D9FF03C1DAFF12C1E1FF13C17D
:10CB9800E2FFDFCFE7FF0EC106F10FC107F1E20E9A
:10CBA8000101086F010E0101096F040E01010A6FEE
:10CBB80050EC6BF00009D8A412D00EC106F10FC1D9
:10CBC80007F1E60E0101086F010E0101096F040E5D
:10CBD80001010A6F50EC6BF00009D8B402D0010EC5
:10CBE8001200000E1200120001010B6FFA0E010173
:10CBF8000B6112000BC10CF101010D6B0CC109F1A5
:10CC08000DC10AF10101D89009370A370101D890FE
:10CC180009370A3709C10CF10AC10DF1000E0101EB
:10CC28000E6F030E01010E6502D012001200010101
:10CC38000E5101010C250101046F000E01010D21A7
:10CC48000101056F01010E51010DF3500101072586
:10CC5800D96EF45001010821DA6EDF500101066F28
:10CC68009BEC70F001010E2B030E01010E65DFD75E
:10CC78001200120012001FEC71F00101046F000194
:10CC8800D251D8A41CD001010429D8A403D004C1CE
:10CC9800D3F007D0010104290001D36F0001D305A7
:10CCA8004B6E400E0001D3650AD0400E0001D36FD1
:10CCB8000001D3054B6E010E0201646F00D0000124
:10CCC800D3510001D25DD8B00ED00001D251010D70
:10CCD800800EF324D96E040EF420DA6E04C1DFFF4F
:10CCE8000001D22B00D00001D3510001D219D8A4E1
:10CCF80012000001D351D8B41200010E396E12008F
:10CD0800120001012B6F010126291DE101012729CC
:10CD1800D8A419D001012B51020D000EF324D96EAD
:10CD2800020EF420DA6EFF0EDE6EFF0EDD6E0101DC
:10CD38002B51010D270EF324D96E030EF420DA6E61
:10CD480028C1DFFF1200010E010126250101296F0C
:10CD5800000E0101272101012A6F01012B51020D4B
:10CD6800000EF324D96E020EF420DA6E29C1DEFF1C
:10CD78002AC1DDFF01012B51010D270EF324D96EC5
:10CD8800030EF420DA6E28C1DFFF12001200000E35
:10CD9800096E000E0A6E000E0B6E000E0C6E05502A
:10CDA800061007100810D8B42FD0010E0D6E07D04A
:10CDB800D89005360636073608360D2A00D008BE44
:10CDC80002D0F6D700D0D89009360A360B360C3682
:10CDD8000550015C06500258075003580850045883
:10CDE800D8A00AD00550015E0650025A0750035ACF
:10CDF8000850045A098000D0D89008320732063209
:10CE080005320D2EE0D700D009C001F00AC002F0AB
:10CE18000BC003F00CC004F01200000E01010C6FEF
:10CE2800000E0B6F0101085101010911D8B431D06E
:10CE3800010E01010A6F07D00101D89008370937A0
:10CE480001010A2B00D0010109BF02D0F5D700D09B
:10CE58000101D8900B370C37010108510101065D1B
:10CE68000101095101010759D8A00BD0010108514E
:10CE78000101065F010109510101075B01010B81F5
:10CE880000D00101D8900933083301010A2FE0D7F7
:10CE980000D00BC106F10CC107F11200000E010110
:10CEA8000D6F31D0010105510DC107F10101086B6A
:10CEB80001010727000E082301010751010103257D
:10CEC800D96E0101085101010421DA6E01010251F4
:10CED8000DC10AF101010B6B01010A27000E0B239A
:10CEE80001010A5101010025E16E01010B51010107
:10CEF8000121E26EDE50E618D8B402D0000E12000E
:10CF080001010D2B00D00101065101010D5DD8A0D2
:10CF1800C9D7010E12001200000E0101116F000E98
:10CF2800106F010111BF0AD00101115130E13F0E0C
:10CF38000101105DD8B02BD001D029D010C100F16B
:10CF480011C101F1000E0101036F060E026F2FECF3
:10CF58006EF0BD0E010100250101066F0A0E0101E8
:10CF680001210101076F0EC108F10FC109F1040E7B
:10CF780001010A6F50EC6BF00009D8B403D001012D
:10CF8800105112000101104B112BCBD700D0FF0E0E
:10CF980012001200120E01010E6F010E01010F6F37
:10CFA800FC0E0101106F010E0101116F02EC5BF024
:10CFB800000E0101266FBA0E0101006FFE0E01017D
:10CFC800016F000E0101026F120E0101036F010EC5
:10CFD8000101046F150E0101056F240E0101066F92
:10CFE8001EEC65F00101C751300F01014B6F120EA5
:10CFF8000101046F010E0101056F3A0E0101066F70
:10D00800000E0101076F020E99EC59F01200000E94
:10D018000101086F000E096F000E0A6F000E0B6FFA
:10D0280000D0010100A111D001010451010108271C
:10D0380001010551010109230101065101010A23DA
:10D048000101075101010B2300D00101D8900437D9
:10D058000537063707370101D89003330233013308
:10D068000033010100510101011101010211010107
:10D078000311D8A4D6D708C100F109C101F10AC12A
:10D0880002F10BC103F11200000E0001686F000EDF
:10D09800696F000E6A6F000E6B6F00D0000160A10F
:10D0A80011D0000164510001682700016551000199
:10D0B80069230001665100016A23000167510001DC
:10D0C8006B2300D00001D89064376537663767371F
:10D0D8000001D890633362336133603300016051DB
:10D0E800000161110001621100016311D8A4D6D7B3
:10D0F80068C060F069C061F06AC062F06BC063F03C
:10D1080012000101026F000EAC6E000EAB6E010141
:10D1180002A102D0AC8800D0010102A303D0AC8CDC
:10D12800AB8C00D0010102A502D0AC8E00D0010169
:10D1380002A702D0AB8802D0AB8A00D0010102A9B5
:10D1480002D0AC8400D0010102AB02D0AB8600D083
:10D15800010102AD02D09D8A02D09D9A00D0010142
:10D1680002AF02D09D8801D09D9800C1AFFF010198
:10D1780001517D6EAC8AAB8E12000001626F000E09
:10D18800AC6E000EAB6E000162A102D0AC8800D07C
:10D19800000162A303D0AC8CAB8C00D0000162A567
:10D1A80002D0AC8E00D0000162A702D0AB8802D0BA
:10D1B800AB8A00D0000162A902D0AC8400D0000183
:10D1C80062AB02D0AB8600D0000162AD02D09D8A6E
:10D1D80002D09D9A00D0000162AF02D09D8801D094
:10D1E8009D9860C0AFFF000161517D6EAC8AAB8E27
:10D1F800120001011A6F01011A5120EC58F0000EBB
:10D208000101C46F000E0101DE6F010E0101F36F11
:10D218007F0E0201316FF00E306F7F0E0001A86F94
:10D22800F00EA76F000E2D6E100E2C6E070E01016A
:10D238000E6F0D69040E01010F6F010EF7EC3FF040
:10D24800010E0001A7250001A76FF80E0001A82113
:10D258000001A86F2C06D8A02D06070E356E34687D
:10D26800090E6CEC70F01200010102510101002559
:10D278000101086F01010351010101210101096F39
:10D2880008C10AF109C10BF101010C6B0D6B10D03B
:10D298000101045101010A5F0101055101010B5B04
:10D2A8000101065101010C5B0101075101010D5BF0
:10D2B8000101045101010A5D0101055101010B59E8
:10D2C8000101065101010C590101075101010D59D4
:10D2D800D8B0DED70AC100F10BC101F11200060E69
:10D2E8000101446F18C10BF119C10CF1400E010185
:10D2F8000D6F010E01010E6F43EC3CF01F0E010192
:10D308001A6F2A0E01011B6F530E01011C6F460E86
:10D3180001011D6F540E01011E6FD7C01FF118C106
:10D328000EF119C10FF11A0E0101106F010E010162
:10D33800116F44C112F1000E0101136F010E0101BA
:10D34800146F000E0101156F1EEC3FF01200120061
:10D35800000E01011B6FBA0E0101006FFE0E0101E4
:10D36800016F000E0101026F1B0E0101036F010E18
:10D378000101046F010E0101056F240E0101066F02
:10D388001EEC65F00101C751300F0101406F18C153
:10D398000EF119C10FF11B0E0101106F010E0101F1
:10D3A800116F260E0101126F000E0101136F1AC1D1
:10D3B80014F1000E0101156F1EEC3FF0120012006F
:10D3C8003D0E0101536F14C116F115C117F114C1B7
:10D3D80000F115C101F1000E0101036F380E026F53
:10D3E8002FEC6EF0010100C106F1010101C107F146
:10D3F8000101086B096B380E01010A6F000E0B6FF3
:10D40800000E0C6F000E0D6F180E01010E6F010E4D
:10D4180001010F6F83EC64F0160E0101066F010E17
:10D428000101076F53C108F1A5EC51F01200010189
:10D43800046F01010451020D000EF324D96E020E8F
:10D44800F420DA6EDE50DE10D8B418D00101045191
:10D45800020D000EF324D96E020EF420DA6EDECF30
:10D4680002F1DDCF03F1FF0E010102250101006F7A
:10D47800FF0E010103210101016F12000101045196
:10D48800020D000EF324D96E020EF420DA6EDECF00
:10D4980000F1DDCF01F11200120001010F5101016D
:10D4A8001011D8B42BD0010E0101116F07D0010162
:10D4B800D8900F3710370101112B00D0010110BF90
:10D4C80002D0F5D700D001010F5101010D5D010116
:10D4D800105101010E59D8A009D001010F510101C5
:10D4E8000D5F0101105101010E5B00D00101D890C0
:10D4F80010330F330101112FE6D700D00DC10DF104
:10D508000EC10EF1120014D0D00E0101026FCA0E26
:10D51800E82EFED7022FFCD7F60E010100250101E7
:10D52800006FFF0E010101210101016F040000D00D
:10D5380001010151E9E10B0E0101005DD8A010D0F5
:10D54800E3D70ED0150E0101026FC60EE82EFED7E6
:10D55800022FFCD700D001010007D8A00107040062
:10D568000101005101010111D8A4ECD712000101F9
:10D57800026F3F0EC716000EC66E01010251C61299
:10D5880001010151C71205D0C78C16D0C78CC688B7
:10D5980013D001010051000AD8B4F6D7020AD8B452
:10D5A800F5D7010AD8B4F3D707D09486928A0DD05C
:10D5B80094860BD0949609D001010251040AD8B47C
:10D5C800F4D7010AD8B4F4D7F5D79488949AC68AC0
:10D5D8001200000E01010E6F0101FB51F2EC6FF019
:10D5E800040E01010C6F010E09EC55F00001A75162
:10D5F80001010C250101236F0001A85101010D2132
:10D608000101246FE2EC71F00101206F23C122F1C6
:10D61800010124510101216F200E0101176F010E34
:10D628000101186F030E0101196F010E01011A6F34
:10D638002FEC43F012002CD04B04D8A405D0E0EC1A
:10D6480070F00101CB6F00D00001D3510001D25D11
:10D65800D8B00FD00001D251010D800EF324D96E3D
:10D66800040EF420DA6E1FEC71F0DF6E0001D22B8D
:10D6780000D00001D3510001D219D8A407D000016D
:10D68800D351D8B403D0010E396E00D04B0600D068
:10D698004B50D8A4D1D71200000E01010D6F1FD036
:10D6A80001010D51010DF35001010825D96EF45007
:10D6B80001010921DA6E01010D51010DF35001013B
:10D6C8000625E16EF45001010721E26EDE50E618EE
:10D6D800D8B402D0000E120001010D2B00D00101B8
:10D6E8000A5101010D5DD8A0DBD7010E120012000E
:10D6F8000101B851D8A412000101B951D8A41200EF
:10D708000101BB51D8A412000001D051D8A41200C5
:10D718000001CC51D8A412000101D251D8A41200A2
:10D728000101E0510101D8A412000101CE51D8A491
:10D7380012003650D8A412000101F051D8B41200DA
:10D74800C7EC71F0120012002A8C02020CC1776437
:10D758003277623238F81180E93838070000050757
:10D76800090CF2004010DC80FFFFFFFFFFFFFFFF06
:10D77800FFFFFFFFFFFFFFFFFFFFFFFF01000000AC
:10D788006D4EC641170001000800FF000101FFFFB0
:10D79800FFFFFFFFFFFFFFFFFFFFFFFFFFFF1D0E64
:10D7A80001011A6F250E01011B6FFCC11CF1FDC19F
:10D7B8001DF1FEC11EF1FFC11FF1060E0101406FF0
:10D7C80018C10EF119C10FF11A0E0101106F010EE7
:10D7D8000101116F40C112F1000E0101136F010E1A
:10D7E8000101146F000E0101156F1EEC3FF01200CD
:10D7F80012002CC121F12DC122F13C0E0101236F31
:10D80800010E0101246F010E0101256F9EEC38F015
:10D818002CC10EF12DC10FF190EC67F001012F6FB3
:10D828002AC115F12BC116F12FC117F12EC118F11C
:10D83800000E0101196F010E01011A6FFCEC1DF0B9
:10D84800120001012C6F000E0101F26F2CC1CDF006
:10D85800000E01012E6F3E0E2D6F2DC100F12EC15D
:10D8680001F1000E0101036F1E0E026F2FEC6EF026
:10D8780000C12DF101C12EF12DC126F12EC127F1D4
:10D88800000E0101286F070E85EC66F01200000EED
:10D8980001010B6F1BD001010B51010DF350010168
:10D8A8000625D96EF45001010721DA6E01010B51EA
:10D8B800010DF35001010825E16EF4500101092121
:10D8C800E26EDFCFE7FF01010B2B00D001010A5107
:10D8D80001010B5DD8A0DFD712000101026F00C162
:10D8E80001F10101013BC15001010119CF0B0119DF
:10D8F800C16EC196C190C192C19402C101F10101EA
:10D9080001470147C25001010119830B0119C26E79
:10D91800C086C088C08AC050F80B0609C06EC08E89
:10D92800C2801200000E0101016F3E0E0101016567
:10D9380001D01AD001010151060D040EF326000E84
:10D94800F422BD0EF324D96E0A0EF420DA6EDF50ED
:10D958000F0B0101006F020E0101006102D0010EE0
:10D9680012000101012BE1D7000E12001200000E77
:10D978000101036F01010151030B756E00C174FFB2
:10D9880002C173FF7F9E7F9C7F84000EF2BE010E52
:10D998000101036FF29E550E7E6EAA0E7E6E7F8287
:10D9A80000D07FB2FED7010103B102D0F29E01D0B0
:10D9B800F28E7F941200000E00016B6F000169AFB8
:10D9C80009D00001686D691FD8B0692B010E0001EC
:10D9D8006B6F00D068C060F069C061F00001626BD5
:10D9E8008E0E0001636F6BC064F079EC54F060C078
:10D9F80068F061C069F062C06AF0120012001A0E85
:10DA08000101006F010E0101016F99EC4CF0010159
:10DA1800406F18C10EF119C10FF11A0E0101106FF4
:10DA2800010E0101116F40C112F1000E0101136FC7
:10DA3800010E0101146F000E0101156F1EEC3FF07D
:10DA48001200120093968A868986050E0101046FDA
:10DA5800260EE82EFED7042FFCD700D08996680E34
:10DA68000101046FE40EE82EFED7042FFCD700D086
:10DA7800EEEC71F0030E0101016FFE0E006FFF0E58
:10DA88000101026FBBEC6CF012001D0E01011C6F4E
:10DA98001AC11DF11BC11EF1030E0101426F18C10D
:10DAA8000EF119C10FF11C0E0101106F010E0101D9
:10DAB800116F42C112F1000E0101136F010E010135
:10DAC800146F010E0101156F1EEC3FF012000FC11B
:10DAD80006F110C107F1E60E0101086F010E010100
:10DAE800096F040E01010A6F4BEC6CF00101E26949
:10DAF8000101E3690101E4690101E569E60E01013B
:10DB0800066F010E0101076F3EEC63F0BDEC71F08A
:10DB180012000101016F010101510101D8B409D0BE
:10DB28000001D451D8B413D0899C8B9489801200F9
:10DB38000ED0010100510101D8B409D00001D5511E
:10DB4800D8B405D0898C8B948990120000D0899C18
:10DB58008B84899012000001616F000161510001FE
:10DB6800D8B409D00001D451D8B413D0899C8B946F
:10DB7800898012000ED0000160510001D8B409D08C
:10DB88000001D551D8B405D0898C8B9489901200A6
:10DB980000D0899C8B84899012000101026F0101D9
:10DBA8000251020D000EF324D96E020EF420DA6E33
:10DBB800DE04DE10D8A40FD001010251020D000EC0
:10DBC800F324D96E020EF420DA6E000EDE6E000E1B
:10DBD800DD6E010E1200000E120012000101006F2E
:10DBE800010100510101D8A409D0D59E000ED76EBD
:10DBF800000ED66E850ED56ED58E1200030E01016D
:10DC08000019D8A41200000EB36E000EB26E8C0E6E
:10DC1800B16EA292A192B180120012000101046FAC
:10DC280001010451D8090101056F05C102F13C0E3B
:10DC380066EC6EF0C80E0101056F05C102F11A0EFF
:10DC480066EC6EF0000E0101056F05C102F13E0E93
:10DC580066EC6EF012000101005101010203F3CFDE
:10DC680004F1F4CF05F10101005101010303F35060
:10DC7800010105270101015101010203F3500101CE
:10DC8800052704C100F105C101F1120012000101CC
:10DC98002C6F01012C510101D8B404D0010E0101EF
:10DCA800F36F1200000E0101F36F010E0101276FDF
:10DCB800680E266F010E0101286F0F0E85EC66F0C5
:10DCC800120012000101036F89940101035104EC51
:10DCD80070F0E40E00D000D0E82EFCD700D000D0C1
:10DCE8000101025104EC70F0E40E00D000D0E82EDF
:10DCF800FCD700D000D089841200F20E0201601710
:10DD0800ABAC07D002016091ABA003D002016081E7
:10DD180000D0ABA402D002016085ABA202D0020100
:10DD28006087AECF60F00001605112001200000E53
:10DD380001010C6F010E09EC55F001010C1F0101E6
:10DD48000D1F01010C4B0D2B3E0E01010C2501018D
:10DD5800176F000E01010D210101186F120012004A
:10DD68000101006F060E0101006102D0000E03D010
:10DD780001010051FB0F0101016F070E010101654F
:10DD880003D0070E0101016F0101015112001200B9
:10DD9800000E0101056F000E0101066F0BD01C0E6D
:10DDA80068EC6FF00101066F01010651020B0101D9
:10DDB800056F00D0010105510101D8B4F0D7120058
:10DDC800000E0101276F010E266F010E0101286F59
:10DDD800020E85EC66F0000E0101276F010E266F1A
:10DDE800010E0101286F030E85EC66F01200010197
:10DDF800026F000E0101016F3A0E0101026108D0A5
:10DE08002F0E0101026504D0010E0101016F00D03F
:10DE180001C100F101010031120012006AEC71F039
:10DE2800899E200E04EC70F00101075104EC70F09B
:10DE38000101065104EC70F00101055104EC70F089
:10DE4800898E3EEC71F0120008C100F109C101F1A0
:10DE58000101026B8E0E0101036F000E0101046FB8
:10DE6800C9EC52F000C108F101C109F102C10AF17F
:10DE7800120012000101006F080E0001D1611200AA
:10DE88000001D151010D3E0EF324D96E030EF4208A
:10DE9800DA6E00C1DFFF0001D12B12001200010170
:10DEA800036F03C100F10101016B240E0101026F30
:10DEB80059EC53F003C100F10101016B240E01017B
:10DEC800026F59EC53F012000101046F89940101AB
:10DED800045140090101046F0101045104EC70F080
:10DEE800EDEC70F000C103F18984010103511200C7
:10DEF80012000001646F8994000164514009000117
:10DF0800646F0001645116EC70F0FAEC70F060C0B8
:10DF180063F089840001635112001200D08EF290E0
:10DF2800F28CF092F198F09EF0880F015A9F0F0141
:10DF38005A9D0F015A9B0F015A99F286F190F28E61
:10DF48009F9A12000101026F01010251020D000E99
:10DF5800F324D96E020EF420DA6EDE50DE10D8A457
:10DF680002D0010E1200000E12001200502A50506A
:10DF78004918D8A41200000E0001CC6F000E000151
:10DF8800606F000EAFEC6DF0000E506E000E496E23
:10DF980012001200020E01010D6F0BC10EF10CC12F
:10DFA8000FF10E0E0101066F010E0101076F0DC181
:10DFB80008F1A5EC51F01200000E0101036F899ED3
:10DFC800050E04EC70F0EDEC70F001010051010158
:10DFD800036F898E010103511200120001010F6FB6
:10DFE80001010F515218D8B4120001D012000EC10D
:10DFF80004F101010F516AEC42F00FC152F0120016
:10E008000101016FC9CF00F19E96C69E01C1C9FFEB
:10E01800C6BE120002D0120000D09EB61200FDD774
:10E02800120012000001616FC9CF60F09E96C69E73
:10E0380061C0C9FFC6BE120002D0120000D09EB651
:10E048001200FDD71200120056C020F1200E010167
:10E05800176F010E0101186F010E0101196F010EF2
:10E0680001011A6F2FEC43F012000101066F010144
:10E078000651010B0001D46F010106510E0B01017D
:10E08800056F010105518CEC70F012000101036F5E
:10E098000001BE51D8B41200000E0101016F020E3A
:10E0A800006F03C102F159EC53F012001200000195
:10E0B80062510201DB27000163510201DC230001E8
:10E0C80064510201DD23000165510201DE231200C3
:10E0D8000101006F01010051020D000EF324D96EF9
:10E0E800020EF420DA6E000EDE6E000EDD6E1200F7
:10E0F8000101046F5150D8A405D00101BE5101019E
:10E10800D8B41200010104514AEC70F01200120058
:10E118000101046F0201BD51F00B0101041102015C
:10E12800BD6FBDC202F1340E66EC6EF01200010E36
:10E138000101E16FEEEC71F004C100F105C101F1DC
:10E1480006C102F1BBEC6CF0120001010151030B96
:10E15800756E00C174FF7F9C7F9E7F8000F000F089
:10E16800735012001200200E7CEC50F0400E7CEC34
:10E1780050F059EC71F0CCEC6EF0600E7CEC50F085
:10E1880012000101006F00C1C4F101010051010139
:10E19800D8A41200010E0101F36F12001200010150
:10E1A800006FACAC06D0AC90020160A302D0AC808A
:10E1B80000D000C1ADFF12003C0E68EC6FF0010109
:10E1C800056F010105A102D0010E1200000E120018
:10E1D8001200C9CF02F19E96000EC96E00D09EA60D
:10E1E800FED7C9CF00F10101016B1200C9CF62F05F
:10E1F8009E96000EC96E00D09EA6FED7C9CF60F0CD
:10E208000001616B12000101046F04C1BAF004C17E
:10E21800C0F2C0C202F13A0E66EC6EF012000101C3
:10E22800006F010100510101D8B402D09396120089
:10E2380093861200120089848992EDEC70F000C177
:10E2480003F1898201010351120012000101026FDA
:10E25800898489920101025104EC70F089821200CC
:10E268005528D8B402D0552A02D0000E556E555004
:10E278001200120000D0E0EC6FF00101046F010100
:10E2880004B1F9D7120000D0E0EC6FF00101046F7F
:10E29800010104A3F9D712000101496F48C12CF10B
:10E2A8000101495184EC25F01200070E0101046FA9
:10E2B80004C102F11C0E66EC6EF0120001080101A7
:10E2C800FFFF3C0101010119FFFFFFFF899E060EB8
:10E2D80004EC70F0898E47EC71F0120000C1D7F29F
:10E2E80001C1D8F20201D96BDA6B120082EC71F02D
:10E2F80000C102F101C103F112001200D60E0101A2
:10E30800006F000E0101016F1200120002C100F13E
:10E3180003C101F1A9EC70F0120012000101066FAF
:10E328000101065199EC71F012000101056F01011C
:10E33800055107EC71F01200C2A202D0010E1200C2
:10E34800000E12001200070E0101016F0069120091
:10E358001200280E7DEC6FF06CEC5FF012000201E9
:10E36800BD510E0B120012000101006F00C1F1F146
:10E3780012000101006F00C1CFF11200B1C100F11C
:10E38800B2C101F11200D39ED18E03000400120025
:10E39800B1C160F0B2C161F0120077C0B1F178C0CC
:10E3A800B2F112000101F151120012000001BA513C
:10E3B80012001200E6EC71F0120012000001CA51BE
:10E3C800120012000001C451120012000101C451D0
:10E3D8001200120000D07FB2FED712000201E351F2
:10E3E800120012000101006F120012000001CA5150
:10E3F800120012000001C45112001200FF0300C2F3
:10E408000100FA0E12001200000E1200120003FFA3
:10E4180001FFFF00C2821200120012001200120057
:10FEA4000001000A006400E80310270100100000AC
:10FEB400010010000100656D466C6F772C322E3105
:10FEC40037362C312E33312C322C312C302C30302F
:10FED4003030303030303030302C003C453E4E6FC6
:10FEE4007420416C6C6F77656420746F2073656E49
:10FEF400643C2F453E004D6173743A2030782530C0
:10FF040032582530325825303258253032582000A6
:10FF140049443A203078253032582530325825303B
:10FF240032582530325820003C453E4D61782072CD
:10FF34006574726965733C2F453E004669726D773E
:10FF44006172653A2076322E31373620003C543EB9
:10FF5400476574526566726573683C2F543E003081
:10FF6400313233343536373839414243444546001B
:10FF740047726F75703A2030782530325820003C33
:10FF8400543E526566726573683C2F543E004E6F52
:10FF940064653A203078253032582000436F723A35
:10FFA400202530325820004261743A2025303458DC
:10FFB400200053533A202530325820005070723AB2
:10FFC4002025692000547970653A20003C2F444173
:10FFD4003E003C2F55413E00574452535400463A8C
:10FFE400257520003C44413E003C55413E002563BC
:0CFFF4002000424F5200504F520000000D
:020000040020DA
:08000000FFFFFFFFFFFFFFFF00
:020000040030CA
:0E0000001D981B36FF8980FF0FC00FE00F40D8
:00000001FF
