:04000000D6EF00F047
:10000800FACF01F0FBCF02F0E9CF03F0FEEF1EF0CC
:10001800D8CF60F0E8CF61F0E0CF62F0FACF63F0BC
:10002800FBCF64F0E9CF65F0EACF66F0E1CF67F087
:10003800E2CF68F0D9CF69F0DACF6AF0F3CF6BF08E
:10004800F4CF6CF0F6CF6DF0F7CF6EF0F8CF6FF01D
:10005800F5CF70F07ED0000E406EF2A047D081CF71
:100068003EF000F0F2903EA83ED0600E4118D8A4B1
:1000780025D04750D8A414D04650D8A411D0040E87
:100088001B6E010EA8EC1CF01BC083F11CC084F190
:10009800BCEC24F0010E01018B6F010E476E23D0DA
:1000A8004650D8B407D06E0E1B6EFF0E1C6E55EC72
:1000B80006F019D0010E01018C6F15D0800E411881
:1000C800D8A406D0010E0001DA6FADEC24F00BD0F5
:1000D800200E4118D8A407D0300E1B6EFF0E1C6EE0
:1000E80055EC06F000D0010E406E00D0A4BAA3AAC9
:1000F80033D0D8EC22F03F6EA49AA6A20CD04F0EB3
:10010800A616BA9ACF0EA316C90E1B6EFF0E1C6E4A
:1001180055EC06F01ED0A6A407D0B80E1B6EFF0E35
:100128001C6E55EC06F015D0B9A207D0FD0E1B6E5B
:10013800FE0E1C6E55EC06F00CD0000E106E010E73
:100148000F6E3FC011F072EC18F0640E0101A56F3C
:1001580000D0010E406E00D04050D8A47CD770C0AB
:10016800F5FF6FC0F8FF6EC0F7FF6DC0F6FF6CC0FB
:10017800F4FF6BC0F3FF6AC0DAFF69C0D9FF68C03B
:10018800E2FF67C0E1FF66C0EAFF65C0E9FF64C03F
:10019800FBFF63C0FAFF62C0E0FF61C0E8FF60C018
:1001A800D8FF100069EF1DF021EE45F010EEA7F022
:1001B800050EDBCFE3FFE806FCE2240E0001726FB8
:1001C800000E716FEAEC0DF0000E0001726F0F0E59
:1001D800716FF8EC20F0000E0001A16F000EA06F07
:1001E8008B9C1A0EE82EFED700D0000E0001B06FCF
:1001F80034D037D08B9EB0C099F0400E00019A6F72
:10020800000E00019B6F0001992B04D000019B3563
:100218009B339A330001992FF9D700019A510001B5
:10022800E51500019C6F00019C510001A06FA16BB6
:100238000001A0510001A111D8B402D08B8C02D0CA
:100248008B9C00D01A0EE82EFED700D08B8E1A0E8B
:10025800E82EFED700D00001B02B060E0001B065D5
:10026800C9D78B9E8B8C1A0EE82EFED700D08B8EAA
:100278001A0EE82EFED700D08B9E948C1A0EE82E0C
:10028800FED700D08B8E1A0EE82EFED700D0000EB7
:1002980082BC010E0001A26F0001A2510001D8A486
:1002A8002FD0000E0001B16F070E0001B16501D01B
:1002B80034D08B9E1A0EE82EFED700D08B8E1A0EE5
:1002C800E82EFED700D082AC17D0B1C099F0800ECE
:1002D80000019A6F000E00019B6F0001992B04D05A
:1002E80000019B359B339A330001992FF9D7000100
:1002F8009A510001A72700D00001B12BD5D70DD006
:100308007F0E01017C6F7B69010173697469000EBE
:100318000001986F000E976F12008B9E949C8B9C27
:100328001A0EE82EFED700D08B8E1A0EE82EFED7B6
:1003380000D0000E0001B26F27D02AD08B9E948C7B
:100348001A0EE82EFED700D08B8E1A0EE82EFED796
:1003580000D082AC17D0B2C099F0800E00019A6F1D
:10036800000E00019B6F0001992B04D000019B3502
:100378009B339A330001992FF9D700019A51000154
:10038800A82700D00001B22B070E0001B265D6D70E
:100398008B9E949C8B9C1A0EE82EFED700D08B8ED9
:1003A8001A0EE82EFED700D0000E0001B36F27D03A
:1003B8002AD08B9E948C1A0EE82EFED700D08B8EF6
:1003C8001A0EE82EFED700D082AC17D0B3C099F031
:1003D800800E00019A6F000E00019B6F0001992B9F
:1003E80004D000019B359B339A330001992FF9D72C
:1003F80000019A510001A92700D00001B32B070E74
:100408000001B365D6D78B9E949C8B9C1A0EE82E60
:10041800FED700D08B8E1A0EE82EFED700D0000E25
:100428000001B46F27D02AD08B9E948C1A0EE82E28
:10043800FED700D08B8E1A0EE82EFED700D082ACE5
:1004480017D0B4C099F0800E00019A6F000E000119
:100458009B6F0001992B04D000019B359B339A3385
:100468000001992FF9D700019A510001AA2700D05D
:100478000001B42B070E0001B465D6D78B9E949C5F
:100488008B9C1A0EE82EFED700D08B8E1A0EE82E03
:10049800FED700D0000E0001B56F27D02AD08B9E62
:1004A800948C1A0EE82EFED700D08B8E1A0EE82EEA
:1004B800FED700D082AC17D0B5C099F0800E0001ED
:1004C8009A6F000E00019B6F0001992B04D0000168
:1004D8009B359B339A330001992FF9D700019A5124
:1004E8000001AB2700D00001B52B070E0001B56550
:1004F800D6D78B9E949C8B9C1A0EE82EFED700D0E4
:100508008B8E1A0EE82EFED700D0000E0001B66FB3
:1005180027D02AD08B9E948C1A0EE82EFED700D0B6
:100528008B8E1A0EE82EFED700D082AC17D0B6C03C
:1005380099F0800E00019A6F000E00019B6F000178
:10054800992B04D000019B359B339A330001992FD6
:10055800F9D700019A510001AC2700D00001B62B51
:10056800070E0001B665D6D78B9E949C8B9C1A0EFD
:10057800E82EFED700D08B8E1A0EE82EFED700D0BC
:100588008B9E1A0EE82EFED700D08B8E1A0EE82E00
:10059800FED700D0949C8B8CA7C0A3F00001A46B5D
:1005A8000001A351A46FA36B0001A8510001A3137C
:1005B800A70E0001716F000E0001726F000E00019E
:1005C800746F020E736FC2EC1DF00001A919D8B444
:1005D8000DD07F0E01017C6F7B690101736974691D
:1005E800000E0001986F000E976F1200AAC0A5F0C8
:1005F8000001A66B0001A551A66FA56B0001AB51C8
:100608000001A513AA0E0001716F000E0001726FA0
:10061800000E0001746F020E736FC2EC1DF0000132
:10062800AC19D8B40DD07F0E01017C6F7B69010134
:1006380073697469000E0001986F000E976F1200BD
:10064800A3C079F0A4C07AF037EC23F079C0B7F0F2
:100658007AC0B8F07BC0B9F0B7C079F0B8C07AF00A
:10066800B9C07BF0000E00017C6F2F0E00017D6F7A
:10067800430E00017E6F68EC13F079C0B7F07AC0C2
:10068800B8F07BC0B9F0B7C088F0B8C089F0B9C07D
:100698008AF0FF0E00018B6F7F0E00018C6F470EF2
:1006A80000018D6F7CEC15F088C0B7F089C0B8F0F8
:1006B8008AC0B9F0B7C088F0B8C089F0B9C08AF06C
:1006C800000E00018B6F340E00018C6FC20E00010A
:1006D8008D6F78EC0BF088C0B7F089C0B8F08AC08D
:1006E800B9F0B7C058F1B8C059F1B9C05AF158C1FA
:1006F80079F059C17AF05AC17BF0000E00017C6F85
:10070800200E00017D6F410E00017E6F68EC13F032
:1007180079C09DF07AC09EF07BC09FF09DC071F0BB
:100728009EC072F09FC073F0D3EC14F071C07BF1DF
:1007380072C07CF1A5C079F0A6C07AF037EC23F03E
:1007480079C0ADF07AC0AEF07BC0AFF0ADC079F043
:10075800AEC07AF0AFC07BF0000E00017C6FC80E0F
:1007680000017D6F420E00017E6F68EC13F079C0C6
:10077800ADF07AC0AEF07BC0AFF0ADC088F0AEC0CF
:1007880089F0AFC08AF0FF0E00018B6F7F0E000169
:100798008C6F470E00018D6F7CEC15F088C0ADF0B2
:1007A80089C0AEF08AC0AFF0ADC055F1AEC056F109
:1007B800AFC057F155C171F056C172F057C173F00F
:1007C800D3EC14F071C073F172C074F1000E000123
:1007D800986F010E976F12001200980E0001AA6F11
:1007E800000E0001AB6F4CD2250E0001B119D8B430
:1007F80005D00001B1511EEC24F042D2000E0001D8
:10080800B06F000EAF6F000E0001AE6F07D0000191
:10081800AE850001964B972B01D00BD096C0F6FF02
:1008280097C0F7FF0800F550300AD8B4F0D701D0C8
:10083800F5D796C0F6FF97C0F7FF0800F55020ECF3
:1008480023F0D8A0A5D0000E0001B06F000EAF6F46
:1008580000D0AFC084F0B0C085F0000E0001876FF3
:100868000A0E866F85EC22F084C0AFF085C0B0F028
:10087800D00E0001A06FFF0E0001A16F96C0F6FF19
:1008880097C0F7FF0800F5500001A26FA36B0001A5
:10089800A0510001A2270001A1510001A3230001DA
:1008A800A2510001AF270001A3510001B0230001AC
:1008B800964B972B96C0F6FF97C0F7FF0800F550A8
:1008C80020EC23F0D8A064D0C4D762D012007FD027
:1008D80000D00001AE8F7BD00001AF510001A75DB1
:1008E8000001B0510001A859D8B009D00001A751A2
:1008F8000001AF5F0001A8510001B05B0AD0000EF3
:100908000001B06F000EAF6F04D0200E1EEC24F073
:1009180000D00001AF07D8A0B0070001AF29F5E16A
:100928000001B029D8B40DD0F0D70BD0A5C0D9FF9D
:10093800A6C0DAFFDF501EEC24F00001A54BA62B61
:1009480000D00001A707D8A0A8070001A729EEE159
:100958000001A829D8B494D1E9D792D1AAC0D9FF67
:10096800ABC0DAFFDF500001B16F020E0001AA2709
:10097800000EAB2300D0B10E0001A56F000E0001E0
:10098800A66F000E0001A86F010EA76FA5D71FD094
:1009980096C0F6FF97C0F7FF0001964B972B08000B
:1009A800F5CFB1F00001B151000AD8B41200580ACD
:1009B800D8B48FD73B0AD8B4D1D7070AD8B407D050
:1009C8000D0AD8B404D0110AD8B483D7D4D70001FB
:1009D800AEBF19D0AAC0D9FFABC0DAFFDECFACF0EA
:1009E800DDCFADF0020E0001AA27000EAB230001F7
:1009F800ADAF5DD0030E0001AE130001AC6DAD1FAD
:100A0800D8B0AD2B54D0AAC0D9FFABC0DAFFDECF27
:100A1800ACF0DDCFADF0020E0001AA27000EAB232B
:100A280046D0010E0001B16F050E0001B119D8B40E
:100A380048D001D046D00001B151020DA30EF324D5
:100A4800F66EFE0EF420F76E0900F5500001AC5D5D
:100A58000900F5500001AD59D8A033D001D031D0EC
:100A68000001B12BE1D72DD0010E0001B16F040EAA
:100A78000001B119D8B425D001D023D00001B1515B
:100A8800020DAD0EF324F66EFE0EF420F76E09008B
:100A9800F5500001AC5D0900F5500001AD59D8A032
:100AA80010D001D00ED00001B12BE1D70AD000013F
:100AB800AE51800B000AD8B4B4D7800AD8B4D4D7C2
:100AC80000D00001AF510001B011D8B40CD0AEC0B5
:100AD800A0F0030E0001A017D8B405D00001AF079D
:100AE800D8A0B00700D0800E0001B1BF7F0E000172
:100AF800A06F0001AF510001B15D0001B051800A43
:100B08000001A059D8B00BD00001B1510001AF5F6E
:100B1800000E0001B1BFFF0E0001B05B06D0000E51
:100B28000001B06F000EAF6F00D00001AEA520D05D
:100B3800AEC0A0F0030E0001A017D8B404D02D0E4B
:100B48001EEC24F000D00001AF510001B011D8B460
:100B58002FD0300E1EEC24F00001AF07D8A0B0074C
:100B68000001AF510001B011D8B422D0F2D720D083
:100B78000001AF510001B011D8B40FD0200E1EEC07
:100B880024F00001AF07D8A0B0070001AF51000161
:100B9800B011D8B402D0F2D700D0AEC0A0F0030E86
:100BA8000001A017D8B404D02D0E1EEC24F000D0FC
:100BB800B1C0A9F05DD04DD00001A951020DA30E1E
:100BC800F324F66EFE0EF420F76E0900F5CF8CF0D4
:100BD8000A00F5CF8DF0ACC08AF0ADC08BF08BEC7D
:100BE8001FF08AC091F08BC092F0000E0001946F44
:100BF8000A0E936FC2EC20F000019151300F0001F2
:100C0800B16F31D0ACC08AF0ADC08BF00001A951F2
:100C1800020DAD0EF324F66EFE0EF420F76E0900F9
:100C2800F5CF8CF00A00F5CF8DF08BEC1FF00001AA
:100C38008A510F0B0001A46F0001A451010DA70EEA
:100C4800F324F66EFF0EF420F76E0800F5CFB1F02E
:100C58000AD00001AE51800B000AD8B4ADD7800A83
:100C6800D8B4D0D700D00001B1511EEC24F000D088
:100C78000001A9070001A929D8B402D0EAD700D0F9
:100C880096C0F6FF97C0F7FF0001964B972B080018
:100C9800F5CFB1F00001B151D8B41200A5D51200BA
:100CA80012001D0E276E000E286EE5D1250E2E1897
:100CB800D8B404D02E5065EC24F0DDD1000E2D6E92
:100CC800000E2C6E000E2B6E05D02B841B4A1C2A9E
:100CD80001D00BD01BC0F6FF1CC0F7FF0800F55071
:100CE800300AD8B4F2D701D0F5D71BC0F6FF1CC024
:100CF800F7FF0800F550CDEC23F0D8A081D0000E06
:100D08002D6E000E2C6E00D02CC00FF02DC010F0F0
:100D1800000E126E0A0E116E62EC23F00FC02CF05A
:100D280010C02DF0D00E1D6EFF0E1E6E1BC0F6FFFC
:100D38001CC0F7FF0800F5501F6E206A1D501F26C3
:100D48001E5020221F502C2620502D221B4A1C2AC0
:100D58001BC0F6FF1CC0F7FF0800F550CDEC23F0D0
:100D6800D8A04ED0D1D74CD0120067D000D02B8E4F
:100D780064D02C50245C2D502558D8B005D0245070
:100D88002C5E25502D5A09D0000E2D6E000E2C6EAB
:100D980004D0200E65EC24F000D02C06D8A02D0637
:100DA8002C28F7E12D28D8B40CD0F3D70AD022C0CC
:100DB800D9FF23C0DAFFDF5065EC24F0224A232A4A
:100DC80000D02406D8A025062428F1E12528D8B487
:100DD80052D1EDD750D127C0D9FF28C0DAFFDF5054
:100DE8002E6E020E2726000E282200D02E0E226E0E
:100DF800000E236E000E256E010E246EBAD71DD08C
:100E08001BC0F6FF1CC0F7FF1B4A1C2A0800F5CFC1
:100E18002EF02E50000AD8B41200580AD8B4A7D71A
:100E28003B0AD8B4D8D7070AD8B407D00D0AD8B423
:100E380004D0110AD8B49BD7D9D72BBE15D027C058
:100E4800D9FF28C0DAFFDECF29F0DDCF2AF0020E65
:100E58002726000E28222AAE4ED0030E2B12296C0C
:100E68002A1ED8B02A2A47D027C0D9FF28C0DAFFBF
:100E7800DECF29F0DDCF2AF0020E2726000E282229
:100E88003AD0010E2E6E050E2E18D8B43DD001D0E2
:100E98003BD02E50020DA30EF324F66EFE0EF42066
:100EA800F76E0900F550295C0900F5502A58D8A0BA
:100EB8002BD001D029D02E2AE6D726D0010E2E6EAF
:100EC800040E2E18D8B420D001D01ED02E50020DFA
:100ED800AD0EF324F66EFE0EF420F76E0900F55001
:100EE800295C0900F5502A58D8A00ED001D00CD0A2
:100EF8002E2AE6D709D02B50800B000AD8B4C1D7C8
:100F0800800AD8B4DBD700D02C502D10D8B40AD022
:100F18002BC01DF0030E1D16D8B404D02C06D8A083
:100F28002D0600D0800E2EBE7F0E1D6E2C502E5C1E
:100F38002D50800A1D58D8B007D02E502C5E000EB8
:100F48002EBEFF0E2D5A05D0000E2D6E000E2C6EF3
:100F580000D02BA41AD02BC01DF0030E1D16D8B438
:100F680004D02D0E65EC24F000D02C502D10D8B4F0
:100F780026D0300E65EC24F02C06D8A02D062C5077
:100F88002D10D8B41CD0F5D71AD02C502D10D8B4A9
:100F98000CD0200E65EC24F02C06D8A02D062C5081
:100FA8002D10D8B402D0F5D700D02BC01DF0030EF9
:100FB8001D16D8B404D02D0E65EC24F000D02EC038
:100FC80026F053D045D02650020DA30EF324F66E1A
:100FD800FE0EF420F76E0900F5CF11F00A00F5CFE8
:100FE80012F029C00FF02AC010F05EEC21F00FC0FB
:100FF80016F010C017F0000E196E0A0E186EB9EC34
:1010080021F01650300F2E6E2CD029C00FF02AC0B8
:1010180010F02650020DAD0EF324F66EFE0EF420ED
:10102800F76E0900F5CF11F00A00F5CF12F05EEC6B
:1010380021F00F500F0B216E2150010DA70EF32444
:10104800F66EFF0EF420F76E0800F5CF2EF009D0EB
:101058002B50800B000AD8B4B6D7800AD8B4D5D79D
:1010680000D02E5065EC24F000D026062628D8B4EF
:1010780002D0EED700D01BC0F6FF1CC0F7FF1B4AFA
:101088001C2A0800F5CF2EF02E50D8B412000ED628
:101098001200120021EE4BF010EE9BF0050EDBCF94
:1010A800E3FFE806FCE20B0E0001976F620EE82EE4
:1010B800FED7972FFCD700D0A80E1EEC14F0C80E50
:1010C80000F0E82EFDD7000E0001A26F000EA16F00
:1010D8008B9C000E0001A76F34D037D08B9EA7C021
:1010E80097F0400E0001986F000E0001996F000103
:1010F800972B04D000019935993398330001972F25
:10110800F9D7000198510001E61500019A6F000116
:101118009A510001A16FA26B0001A1510001A21117
:10112800D8B402D08B8C02D08B9C00D01A0EE82E3B
:10113800FED700D08B8E1A0EE82EFED700D0000105
:10114800A72B060E0001A765C9D78B9E8B8C1A0E9C
:10115800E82EFED700D08B8E1A0EE82EFED700D0D0
:101168008B9E948C1A0EE82EFED700D08B8E1A0E0A
:10117800E82EFED700D0000E82BC010E0001A36F3E
:101188000001A3510001D8A42FD0000E0001A86FC0
:10119800070E0001A86501D02BD08B9E1A0EE82EF1
:1011A800FED700D08B8E1A0EE82EFED700D082AC68
:1011B80017D0A8C097F0800E0001986F000E0001AC
:1011C800996F0001972B04D0000199359933983312
:1011D8000001972FF9D70001985100019B2700D0F3
:1011E8000001A82BD5D704D00101756976691200D2
:1011F8008B9E949C8B9C1A0EE82EFED700D08B8E6B
:101208001A0EE82EFED700D0000E0001A96F27D0D5
:101218002AD08B9E948C1A0EE82EFED700D08B8E87
:101228001A0EE82EFED700D082AC17D0A9C097F0CE
:10123800800E0001986F000E0001996F0001972B36
:1012480004D000019935993398330001972FF9D7C5
:101258000001985100019C2700D00001A92B070E1E
:101268000001A965D6D78B9E949C8B9C1A0EE82EFC
:10127800FED700D08B8E1A0EE82EFED700D0000EB7
:101288000001AA6F27D02AD08B9E948C1A0EE82EC4
:10129800FED700D08B8E1A0EE82EFED700D082AC77
:1012A80017D0AAC097F0800E0001986F000E0001B9
:1012B800996F0001972B04D0000199359933983321
:1012C8000001972FF9D70001985100019D2700D000
:1012D8000001AA2B070E0001AA65D6D78B9E949C05
:1012E8008B8C1A0EE82EFED700D08B8E1A0EE82EA5
:1012F800FED700D08B9E949C8B9C1A0EE82EFED7AE
:1013080000D08B8E1A0EE82EFED700D08B8C0001F1
:101318009D510001AB6FAC6BAD6BAE6BABC098F081
:10132800ACC099F0ADC09AF00001976B97C0ABF0D4
:1013380098C0ACF099C0ADF09AC0AEF000019C51D5
:101348000001AB27000EAC23AD23AE23ABC098F051
:10135800ACC099F0ADC09AF00001976B97C0ABF0A4
:1013680098C0ACF099C0ADF09AC0AEF000019B51A6
:101378000001AB27000EAC23AD23AE23ABC079F040
:10138800ACC07AF0ADC07BF0AEC07CF00DEC20F0C4
:1013980079C0A4F07AC0A5F07BC0A6F0000E0001C9
:1013A8008B6F800E00018C6F450E00018D6FA4C0FD
:1013B80088F0A5C089F0A6C08AF07CEC15F088C03A
:1013C80079F089C07AF08AC07BF0000E00017C6F4A
:1013D800200E00017D6F410E00017E6F68EC13F056
:1013E80079C0A4F07AC0A5F07BC0A6F0A4C088F0AC
:1013F800A5C089F0A6C08AF0000E00018B6F000E10
:1014080000018C6F3F0E00018D6F78EC0BF088C0E7
:10141800A4F089C0A5F08AC0A6F0A4C071F0A5C048
:1014280072F0A6C073F0D3EC14F071C075F172C0FD
:1014380076F112001200000ED0B6010E0101E66F1F
:10144800000ED0B2010E0101EE6F000ED0B0010EF9
:101458000101ED6F8AEC20F0030E0001726FE80EB7
:10146800716FF8EC20F0030E0001726FF00E716FCF
:101478004AEC24F00001E26F83EC1AF005D0938661
:10148800CAEC24F083EC1AF091C06FF192C070F1AD
:1014980000D0010170BFF3D7080E0101705DD8A01C
:1014A800EED709EC23F0030E0001726FE80E716F9E
:1014B800F8EC20F0000E0001716F000E0001726F51
:1014C800020E2CEC21F0899EAB0E88EC23F0898E5D
:1014D8000400B7EC0CF0040076EC23F0000E0001D9
:1014E8007F6F3E0E7E6F000E0001806F010EF6ECDE
:1014F80010F0E70E0001966FFF0E0001976FF1ECF8
:1015080003F0000E0001CA6F230E0001CA6501D066
:1015180019D0FC0E0001966FFF0E0001976F0001B5
:10152800CA51010D5A0EF324F66EFF0EF420F76E21
:101538000800F5500001986F996BF1EC03F0000179
:10154800CA2BE2D7F30E0001966FFF0E0001976FCA
:10155800300E0001E1250001986F0001996B000E23
:101568009923F1EC03F0DB0E0001966FFE0E0001EB
:10157800976F4BC098F00001996B4CC09AF000012E
:101588009B6B4DC09CF000019D6B4EC09EF000010E
:101598009F6BF1EC03F0B70E0001966FFE0E000191
:1015A800976FD6C198F00001996BD7C19AF00001E6
:1015B8009B6BD8C19CF000019D6BD9C19EF00001C6
:1015C8009F6BF1EC03F0180E0001966FFF0E0001FF
:1015D800976FC2EC24F00001C66F0001C6510001EC
:1015E800986F996BF1EC03F0950E0001966FFF0E62
:1015F8000001976FF1EC03F0820E0001966FFF0E69
:101608000001976F0001E2510001986F996B98BF34
:101618009907F1EC03F04B28D8A40BD04C28D8A498
:1016280008D04D28D8A405D04E28D8A402D0FF0051
:1016380000D0000E0001726F020E716F010E0001E2
:10164800736F050E45EC1FF0CEEC24F0000E00EC95
:101658001BF0200E51EC17F04C504BC0C6F00001A7
:10166800C76B0001C627000EC7234D500001C627CF
:10167800000EC7234E500001C6250001C86F000E9A
:101688000001C7210001C96FC8C071F0C9C072F05C
:101698009DEC24F09386CD909E909D90000E51EC89
:1016A80017F0000E476E000E01018B6F00D000018D
:1016B800D951D8B409D0000E0001D96FCD909E90B1
:1016C8009D90010E0101AB6F0001DA51D8B407D02B
:1016D800000E0001DA6F000E51EC17F000D025EC77
:1016E80016F0E5D7D6EF00F08AC08EF000018F6BB8
:1016F800906B0001893500018E3701E38F8100016D
:101708008E510001936F8DC08EF000018F6B906B2E
:1017180000018C3500018E3701E38F8100018E5165
:101728000001926F000193510001D8B411D000015B
:1017380092510001935DD8B012D000019351000876
:101748000001922500018E6F180E00018E6507D0EA
:101758008BC088F08CC089F08DC08AF0120000011F
:1017680092510001D8B411D0000193510001925D4B
:10177800D8B012D000019251000800019325000151
:101788008E6F180E00018E6507D088C088F089C05A
:1017980089F08AC08AF01200060E0001916F0001DC
:1017A8008AAF03D00001918F00D000018DAF02D025
:1017B8000001918D0001898FFF0E00018817FF0E2F
:1017C80000018917000E00018A1700018C8FFF0E97
:1017D80000018B17FF0E00018C17000E00018D17FA
:1017E800000192510001935DD8B028D00001D89033
:1017F8008B378C378D370001920700019351000118
:101808009219D8B413D00001910791C08EF0070E39
:1018180000018E17D8B40AD0E9D708D00001D890B3
:101828008A33893388330001932B00D00001925109
:1018380000019319D8B430D0F1D72ED000019351BC
:101848000001925DD8B028D00001D8908837893738
:101858008A37000193070001935100019219D8B407
:1018680013D00001910791C08EF0070E00018E176A
:10187800D8B40AD0E9D708D00001D8908D338C337A
:101888008B330001922B00D0000192510001931973
:10189800D8B402D0F1D700D0000191AF12D0FF0E1A
:1018A8000001881BFF0E0001891BFF0E00018A1B27
:1018B800010E00018827000E00018923000E000197
:1018C8008A23000191AD13D0FF0E00018B1BFF0E80
:1018D80000018C1BFF0E00018D1B010E00018B27E0
:1018E800000E00018C23000E00018D2300D0000E95
:1018F8000001916F0001885100018B270001895177
:1019080000018C2300018A5100018D2300018DAF55
:1019180016D0FF0E00018B1BFF0E00018C1BFF0E63
:1019280000018D1B010E00018B27000E00018C2386
:10193800000E00018D23010E0001916F00D08BC0B5
:1019480071F08CC072F08DC073F093C074F091C0C8
:1019580075F0E2EC17F071C088F072C089F073C0BE
:101968008AF012001200030E0001726F71694AECCE
:1019780024F00001C06F0001C005D8A448D0460E6D
:101988000001966FFF0E0001976FF1EC03F0000E57
:101998000001C56F000EC46F0001C5BF0AD0F00E6C
:1019A8000001C45D030E0001C559D8B011D001D0A3
:1019B8000FD0C6EC24F0C4C071F0C5C072F0FF0EA1
:1019C8000001736F04EC22F00001C44BC52BE4D76F
:1019D800030E0001C56FF40EC46F0001C5BF07D028
:1019E800040E0001C55DD8B012D001D010D0C6ECED
:1019F80024F0C4C071F0C5C072F0FF0E0001736F0F
:101A080004EC22F00001C44BC52BE7D700D0020E2E
:101A18000001C0610CD0C6EC24F0030E0001726F07
:101A28007169020E0001736F04EC22F000D0000E01
:101A38000001C16F030E0001C16501D018D000017B
:101A4800C151010DD60EF324D96E010EF420DA6EC1
:101A5800E80E0001C1250001716F0001726B030ED1
:101A680072234AEC24F0DF6E0001C12BE3D7030E8A
:101A78000001726FEF0E716F4AEC24F00001BE6F27
:101A88004B28D8A44ED04C28D8A44BD04D28D8A445
:101A980048D04E28D8A445D0899E4B0E88EC23F018
:101AA800000E88EC23F0000E88EC23F0000E88EC82
:101AB80023F0000E88EC23F0000E0001C26F2BD03B
:101AC8002ED058EC24F0000171510001BF6F030EB5
:101AD8000001C2651ED0FC0E0001B26FFF0E0001AE
:101AE800B36F0001C2510001B46FB56B0001B25170
:101AF8000001B4270001B3510001B5234B0E0001CA
:101B0800B425D96E000E0001B521DA6EBFC0DFFF23
:101B180000D00001C22B070E0001C265D2D7898E02
:101B280000D0000E0001C36F070E0001C36501D08D
:101B380018D00001C351010DB60EF324D96E000E62
:101B4800F420DA6EF40E0001C3250001716F000164
:101B5800726B030E72234AEC24F0DF6E0001C32B74
:101B6800E3D7030E0001726FFC0E716F4AEC24F08C
:101B7800FF0AD8A404D0000E72EC24F009D0030E9A
:101B88000001726FFC0E716F4AEC24F072EC24F0C5
:101B9800030E0001726FFD0E716F4AEC24F0FF0A0C
:101BA800D8B40BD001D009D0030E0001726FFD0E1E
:101BB800716F4AEC24F09AEC23F0030E0001726F67
:101BC800FE0E716F4AEC24F0120012008B9C1A0E64
:101BD800E82EFED700D0000E00017C6F2ED031D049
:101BE8008B9E7CC073F0400E0001746F000E0001E4
:101BF800756F0001732B04D000017535753374338C
:101C08000001732FF9D7000174510001E515000197
:101C18007A6F00017A510001D8B402D08B8C02D0BF
:101C28008B9C00D01A0EE82EFED700D08B8E1A0E91
:101C3800E82EFED700D000017C2B060E00017C6543
:101C4800CFD78B9E8B9C1A0EE82EFED700D08B8E9A
:101C58001A0EE82EFED700D08B9E948C1A0EE82E12
:101C6800FED700D08B8E1A0EE82EFED700D0000EBD
:101C780082BC010E00017B6F00017B510001D8A4DA
:101C88003ED0949C000E00017D6F070E00017D651B
:101C980001D035D08B9E7DC073F0000E0001746FAB
:101CA800800E0001756F0001732B04D00001D890DD
:101CB800753374330001732FF9D700017151000196
:101CC80074150001766F000172510001751500014D
:101CD800776F0001765100017711D8B402D08B8C50
:101CE80002D08B9C00D01A0EE82EFED700D08B8E27
:101CF8001A0EE82EFED700D000017D2BC6D78B9E8A
:101D0800948C1A0EE82EFED700D08B8E1A0EE82E71
:101D1800FED700D0000E82BC010E00017B6F0001CF
:101D28007B510001D8A43ED0949C000E00017E6F28
:101D3800070E00017E6501D035D08B9E7EC073F002
:101D4800800E0001746F000E0001756F0001732B87
:101D580004D000017535753374330001732FF9D73A
:101D680000017151000174150001786F0001725172
:101D7800000175150001796F000178510001791192
:101D8800D8B402D08B8C02D08B9C00D01A0EE82ECF
:101D9800FED700D08B8E1A0EE82EFED700D0000199
:101DA8007E2BC6D78B9E948C1A0EE82EFED700D0B9
:101DB8008B8E1A0EE82EFED700D0000E82BC010EC4
:101DC80000017B6F8B9E1A0EE82EFED700D08B8EFB
:101DD8001A0EE82EFED700D0949C8B8C12000001BE
:101DE800746F8B9C1A0EE82EFED700D0000E0001EF
:101DF800766F2ED031D08B9E76C071F0400E0001E8
:101E0800726F000E0001736F0001712B04D0000186
:101E18007335733372330001712FF9D70001725192
:101E28000001E6150001796F000179510001D8B46D
:101E380002D08B8C02D08B9C00D01A0EE82EFED7D5
:101E480000D08B8E1A0EE82EFED700D00001762B1C
:101E5800060E00017665CFD78B9E8B9C1A0EE82E56
:101E6800FED700D08B8E1A0EE82EFED700D08B9EA0
:101E7800948C1A0EE82EFED700D08B8E1A0EE82E00
:101E8800FED700D0000E82BC010E0001756F000164
:101E980075510001D8A436D0949C000E0001776FCC
:101EA800070E0001776501D02DD08B9E77C071F0A9
:101EB800800E0001726F000E0001736F0001712B1C
:101EC80004D000017335733372330001712FF9D7D1
:101ED80000017251200B0001796F00017951000156
:101EE800D8B402D08B8C02D08B9C00D01A0EE82E6E
:101EF800FED700D08B8E1A0EE82EFED700D0000138
:101F0800772BCED78B9E948C1A0EE82EFED700D056
:101F18008B8E1A0EE82EFED700D0000E82BC010E62
:101F28000001756F000175510001D8A43DD0949C43
:101F3800000E0001786F070E0001786501D034D0DB
:101F48008B9E000174510001D8B416D078C071F08E
:101F5800800E0001726F000E0001736F0001712B7B
:101F680004D000017335733372330001712FF9D730
:101F780000017251800B01D0000E0001796F000141
:101F880079510001D8B402D08B8C02D08B9C00D040
:101F98001A0EE82EFED700D08B8E1A0EE82EFED72A
:101FA80000D00001782BC7D78B9E948C1A0EE82E90
:101FB800FED700D08B8E1A0EE82EFED700D0000E6A
:101FC80082BC010E0001756F8B9E1A0EE82EFED79B
:101FD80000D0949C8B8C1A0EE82EFED700D08B8EE6
:101FE8001A0EE82EFED700D012008B9C1A0EE82E8F
:101FF800FED700D0000E0001756F2ED031D08B9E19
:1020080075C071F0400E0001726F000E0001736F11
:102018000001712B04D00001733573337233000152
:10202800712FF9D7000172510001E6150001786F90
:10203800000178510001D8B402D08B8C02D08B9C5F
:1020480000D01A0EE82EFED700D08B8E1A0EE82E7E
:10205800FED700D00001752B060E00017565CFD79D
:102068008B9E8B9C1A0EE82EFED700D08B8E1A0EF4
:10207800E82EFED700D08B9E948C1A0EE82EFED741
:1020880000D08B8E1A0EE82EFED700D0000E82BC30
:10209800010E0001746F000174510001D8A436D0FC
:1020A800949C000E0001766F070E0001766501D042
:1020B8002DD08B9E76C071F0800E0001726F000EDD
:1020C8000001736F0001712B04D000017335733365
:1020D80072330001712FF9D700017251210B0001F1
:1020E800786F000178510001D8B402D08B8C02D0EF
:1020F8008B9C00D01A0EE82EFED700D08B8E1A0EBD
:10210800E82EFED700D00001762BCED78B9E948C7C
:102118001A0EE82EFED700D08B8E1A0EE82EFED7A8
:1021280000D0000E82BC010E0001746F00017451D2
:102138000001D8A436D0949C000E0001776F070EDA
:102148000001776501D02DD08B9E77C071F0800E8D
:102158000001726F000E0001736F0001712B04D033
:1021680000017335733372330001712FF9D7000101
:102178007251010B0001786F000178510001D8B449
:1021880002D08B8C02D08B9C00D01A0EE82EFED782
:1021980000D08B8E1A0EE82EFED700D00001772BC8
:1021A800CED78B9E948C1A0EE82EFED700D08B8E3D
:1021B8001A0EE82EFED700D0000E82BC010E0001D8
:1021C800746F8B9E1A0EE82EFED700D0949C8B8CD1
:1021D8001A0EE82EFED700D08B8E1A0EE82EFED7E8
:1021E80000D012000001856F000E0001876F000EFD
:1021F800886F000E896F000E8A6F040E0001801927
:10220800D8A40BD07EC087F07FC088F00001000EF4
:1022180088BFFF0E896F8A6F5FD00001805100016F
:10222800D8A43AD07EC081F07FC082F0000E0001B1
:1022380082BFFF0E836F846F0F0ED8900001813725
:10224800823783378437E82EF8D781C071F082C08F
:1022580072F083C073F084C074F0E80E0001756FEB
:10226800030E766F000E776F000E786FE2EC1BF0AE
:10227800030E07D00001D890743373330001723312
:102288007133E82EF7D771C087F072C088F073C039
:1022980089F074C08AF020D000018005D8A41CD031
:1022A8007EC081F07FC082F0000E000182BFFF0E69
:1022B800836F846F0D0ED890000181378237833782
:1022C8008437E82EF8D781C087F082C088F083C0B1
:1022D80089F084C08AF000D087C081F088C082F07D
:1022E80089C083F08AC084F00001811F821F831F88
:1022F800841F812B000E822383238423FF0E000179
:1023080081250001876FFF0E000182210001886F7F
:10231800000E000183210001896F000E0001842155
:1023280000018A6F00018505D8A40BD088C0CFFFB3
:1023380087C0CEFFAC0ECD6E9F809E909D80CD80D5
:1023480000D0030E00018519D8A40AD088C0B3FFB5
:1023580087C0B2FF8C0EB16EA292A192A082B1800A
:10236800010199510101D8A41200010E0101996FD0
:10237800000E0001866F160E0001866502D012005D
:10238800120000018651020D000EF324D96E010ED1
:10239800F420DA6E000EDE6E000EDD6E0001862B74
:1023A800160E00018665EDD7120012001200000E0D
:1023B8000001A06F000E00019A6F000E996F000EC9
:1023C80000019C6F000E9B6F000E0001716F080EDC
:1023D800DFEC21F0000E00019C6F000E9B6F000ED9
:1023E8000001A06F090E0001A06501D023D0D4EC34
:1023F80024F000D0B5EC24F00009D8A4FBD7C450D1
:1024080000019A6F996BC35000019913040E0001E3
:10241800A06509D00001995100019B2700019A513C
:1024280000019C2300D00A0EE82EFED700D0000140
:10243800A02BD8D79BC08AF09CC08BF0000E00015F
:102448008D6F050E8C6F8BEC1FF08AC09BF08BC0D4
:102458009CF0C2900001E25100019B5F000E000158
:10246800E2BFFF0E00019C5B9BC079F09CC07AF034
:1024780037EC23F079C09DF07AC09EF07BC09FF0C6
:10248800330E00017C6F530E00017D6F400E00017A
:102498007E6F9DC079F09EC07AF09FC07BF068EC9B
:1024A80013F079C088F07AC089F07BC08AF0000EFA
:1024B80000018B6F800E00018C6F450E00018D6F3F
:1024C8007CEC15F088C09DF089C09EF08AC09FF012
:1024D800000E00017C6FC80E00017D6F420E0001E6
:1024E8007E6F9DC079F09EC07AF09FC07BF068EC4B
:1024F80013F079C088F07AC089F07BC08AF0000EAA
:1025080000018B6F000E00018C6F3F0E00018D6F74
:1025180078EC0BF088C09DF089C09EF08AC09FF0CF
:102528009DC071F09EC072F09FC073F0D3EC14F0A0
:1025380071C097F072C098F0120012000001776F16
:10254800000175510001D8B402D0200E01D0600EF0
:102558000001766F9AD00001765102090101B66F29
:10256800630E0101BD6F000177511B0F55D00001AB
:10257800765102090101B66F640E0101BD6F0001B9
:102588007751040F49D0210E000177610BD000016B
:1025980076510A090101B66F650E0101BD6F77C05A
:1025A800BEF182D0000176510A090101B66F640EAE
:1025B8000101BD6F00017751190F2ED075D00001B0
:1025C80076510A090101B66F650E0101BD6F000160
:1025D8007751210F21D00C0E000177610DD0000139
:1025E800765102090101B66F630E0101BD6F00014A
:1025F8007751040DF350B9D70B0E000177650FD052
:10260800190E000177610BD000017651020912D032
:10261800640E0101BD6F11D00101BE6F45D0180EC7
:102628000001776510D01F0E000177610CD0000102
:1026380076510A090101B66FEBD700017745E846E4
:10264800FC0BD00FE9D71E0E0001776509D0270EC5
:102658000001776105D00CD0650E0101BD6F0ED069
:10266800260E0001776520D0320E000177611CD05C
:10267800000176510A090101B66FEED700017745CE
:10268800E846FC0B850FC8D70FD00101E451010AB9
:10269800D8B461D7030AD8B46AD7010AD8B473D7B3
:1026A800070AD8B48CD797D7B6C173F0000EBDEC23
:1026B80022F0BDC173F00E0EBDEC22F0BEC173F066
:1026C800100EBDEC22F012007BC07FF00001806B81
:1026D800816B00017A3500017F3701E380810001B9
:1026E8007F510001826F00018251D8A40AD0000EE8
:1026F8000001796F000E00017A6F000E00017B6FF8
:1027080012007EC07FF00001806B816B00017D3577
:1027180000017F3701E3808100017F510001876F4D
:1027280000018751D8A40AD0000E0001796F000E6D
:1027380000017A6F000E00017B6F120000018751C3
:102748007B0F000182277BC087F000017E510001CA
:10275800871B800E0001871700017A8F00017D8F8B
:10276800FF0E00017C17FF0E00017D17000E00010F
:102778007E17000E0001836F000E0001846F000EAB
:102788000001856F070E0001866F00D0000179A156
:102798000DD000017C510001832700017D5100010B
:1027A800842300017E510001852300D00001D890C8
:1027B8007B337A3379330001D8907C377D377E3785
:1027C8000001862FE3D700D0090E0001866F00D0E4
:1027D800000179A10DD000017C510001832700017F
:1027E8007D510001842300017E510001852300D022
:1027F8000001D8907B337A3379330001D890853340
:10280800843383330001862FE3D700D083C071F06F
:1028180084C072F085C073F082C074F087C075F010
:10282800E2EC17F071C079F072C07AF073C07BF0F7
:10283800120012000001746F8B9C1A0EE82EFED74E
:1028480000D0000E0001776F2ED031D08B9E77C05C
:1028580071F0400E0001726F000E0001736F0001ED
:10286800712B04D000017335733372330001712F5B
:10287800F9D7000172510001E6150001766F0001D9
:1028880076510001D8B402D08B8C02D08B9C00D03A
:102898001A0EE82EFED700D08B8E1A0EE82EFED721
:1028A80000D00001772B060E00017765CFD78B9EED
:1028B8008B9C1A0EE82EFED700D08B8E1A0EE82EAF
:1028C800FED700D08B9E948C1A0EE82EFED700D02F
:1028D8008B8E1A0EE82EFED700D0000E82BC010E99
:1028E8000001756F000175510001D8A437D0949C80
:1028F800000E0001786F070E0001786501D02ED018
:102908008B9E78C071F0800E0001726F000E00017E
:10291800736F0001712B04D0000173357333723368
:102928000001712FF9D700017251000174150001DF
:10293800766F000176510001D8B402D08B8C02D09A
:102948008B9C00D01A0EE82EFED700D08B8E1A0E64
:10295800E82EFED700D00001782BCDD78B9E948C23
:102968001A0EE82EFED700D08B8E1A0EE82EFED750
:1029780000D0000E82BC010E0001756F8B9E1A0EEE
:10298800E82EFED700D0949C8B8C1A0EE82EFED72A
:1029980000D08B8E1A0EE82EFED700D0120073C01E
:1029A80075F00001766B776B0001723500017537A1
:1029B80001E376810001755100017F6F00017F51AD
:1029C800D8A40AD0000E0001716F000E726F000EBD
:1029D800736F000E746F1200170E0001756F71C0CF
:1029E80076F072C077F073C078F0000175290001A5
:1029F800796F05D00001D8907833773376330001AA
:102A0800792FF8D70001765100017A6F0001728F93
:102A1800FF0E00017117FF0E00017217000E000172
:102A280073170001715100017B6F000172510001A1
:102A38007C6F0001735100017D6F00017E6B8E0E6B
:102A480000017F5F00017FAF1BD000017F51800A2A
:102A58008F0FD8B00BD0000E0001716F000E726F8F
:102A6800000E736F000E746F120000D00001D89032
:102A78007E337D337C337B3300017F3FF7D71FD014
:102A8800170E00017F6514D0000E0001716F000E53
:102A9800726F000E736F000E746F120009D0000180
:102AA800D8907B377C377D377E3700017F0700D091
:102AB80000017F510001D8B402D0F1D700D0000145
:102AC8007A510001D8B40AD000017E1F7D1F7C1FF7
:102AD8007B6D000E7C237D237E2300D07BC071F0AC
:102AE8007CC072F07DC073F07EC074F012001200DA
:102AF8008AC08EF000018F6B906B00018935000150
:102B08008E3701E38F8100018E510001956F00011E
:102B18009551D8A40AD0000E0001886F000E00015C
:102B2800896F000E00018A6F12008DC08EF00001BF
:102B38008F6B906B00018C3500018E3701E38F811C
:102B480000018E510001966F00019651D8A40AD059
:102B5800000E0001886F000E0001896F000E000151
:102B68008A6F1200000E0001926F000E0001936F31
:102B7800000E0001946F00019651890F0001955FC6
:102B88008AC096F000018D510001961B800E00014D
:102B980096170001898FFF0E00018817FF0E0001AC
:102BA8008917000E00018A1700018C8FFF0E0001A3
:102BB8008B17FF0E00018C17000E00018D17180EE1
:102BC8000001916F00D00001D89092379337943765
:102BD80000018B510001885D00018C510001895969
:102BE80000018D5100018A59D8A00ED000018B51E7
:102BF8000001885F00018C510001895B00018D5143
:102C080000018A5B000192810001D89088378937DA
:102C18008A370001912FD7D700D092C071F093C0A6
:102C280072F094C073F095C074F096C075F0E2EC41
:102C380017F071C088F072C089F073C08AF0120072
:102C480012000101AB510101D8B44FD0010EF3ECD1
:102C58000EF0F9EC0FF0DBEC11F097C0D1F098C052
:102C6800D2F0D8EC00F0000E0001726F1E0E716FEA
:102C7800F8EC20F04EEC08F0000EF3EC0EF0010139
:102C880073510001D1250001BA6F0101745100018F
:102C9800D2210001BB6F010175510001BA27010162
:102CA80076510001BB2301017B510001BA270101C4
:102CB8007C510001BB23BAC0BCF0BBC0BDF0000111
:102CC800000EBDBFFF0EBE6FBF6FBCC071F0BDC0B0
:102CD80072F0BEC073F0BFC074F0BCEC23F018EC07
:102CE8001EF0000E0101AB6F00D00001D951D8A42D
:102CF80012000001DA51D8A412004650D8A41200DC
:102D08000001DA51D8A41200899EB90E88EC23F08C
:102D1800898E899C8B948990CAEC24F0000ED0B6D9
:102D2800010E0101E66F0101E6510101D8A412006C
:102D3800000E00017E6F500E7D6F0BEC1DF07DC004
:102D480084F07EC085F0000E0001876F3E0E866F0E
:102D580085EC22F084C0C0F085C0C1F0C0C07EF010
:102D6800C1C07FF0000E0001806F010EF6EC10F07C
:102D7800120012000001710500017211D8A42AD0B6
:102D880001019251D8A4120001D01200010E0101D4
:102D9800926F000E0001CD25D96E030E0001CE21E1
:102DA800DA6E73C0DFFF0001CD4BCE2B0001CEBF22
:102DB8000DD00001CE5105E1800E0001CD5DD8A0F7
:102DC80005D0000E0001CE6F000ECD6F000E010180
:102DD800926F1200020E0001711900017211D8A43D
:102DE8002AD001019451D8A4120001D01200010E7A
:102DF8000101946F800E0001CF25D96E030E0001EA
:102E0800D021DA6E73C0DFFF0001CF4BD02B000159
:102E1800D0BF0DD0800E0001CF5D010E0001D0594A
:102E2800D8A005D0000E0001D06F000ECF6F000EA5
:102E38000101946F1200040E000171190001721152
:102E4800D8A412000001D351D8A4120001D0120056
:102E5800010E0001D36F3E0E0001CB25D96E020E84
:102E68000001CC21DA6E73C0DFFF0001CB4BCC2B05
:102E78000001CCBF0DD00001CC5105E1270E0001A7
:102E8800CB5DD8A005D0000E0001CC6F000ECB6F33
:102E9800000E0001D36F120012000001766F7BD084
:102EA800000E0001716F000E28EC22F0E40E00D035
:102EB80000D0E82EFCD700D000D00101B6511F0B7E
:102EC80080090101B66FB6C173F0000EBDEC22F0A7
:102ED800800E416E150E0001756FC60EE82EFED7E6
:102EE800752FFCD700D012000101B6511F0B6009E5
:102EF8000101B66FB6C173F0000EBDEC22F0E4C05C
:102F080071F0000E28EC22F0600E416E1200000EE7
:102F18000001716F000E28EC22F00101B6511F0B61
:102F280020090101B66FB6C173F0000EBDEC22F0A6
:102F3800680E0001756FE40EE82EFED7752FFCD7DA
:102F480000D0200E416E1200000E0001716F000EBD
:102F580028EC22F00101B6511F0B40090101B66FA0
:102F6800B6C173F0000EBDEC22F0400E416E1200A7
:102F7800000E0001716F000E28EC22F00101B6511D
:102F88001F0B0101B66F000E416EB6C173F0000E43
:102F9800BDEC22F0120000017651000AD8B4E8D73F
:102FA800200AD8B4B4D7600AD8B4CED7200AD8B487
:102FB8009BD7E00AD8A4120073D7120000017451FD
:102FC8000001D8B408D0000171510001721100014C
:102FD8007311D8A413D0000E0001716F000E000108
:102FE800726F000E0001736F120008D00001742B7D
:102FF8000001D89073337233713300D0000E000192
:1030080071150001766F000E000172150001776FCF
:10301800FE0E000173150001786F00017651000162
:10302800771100017811D8B413D0E0D711D000017E
:10303800742B010E00017127000E00017223000E8F
:10304800000173230001D89073337233713300D0B9
:10305800000E000171150001766F000E0001721557
:103068000001776FFF0E000173150001786F0001F2
:1030780076510001771100017811D8B40AD0D7D75A
:1030880008D0000174070001D89071377237733780
:1030980000D0000172BF05D0020E00017461F1D7A3
:1030A80000D0000174B103D00001729F00D000016C
:1030B800D8907433000174510001731300017551E5
:1030C8000001D8B403D00001738F00D071C071F033
:1030D80072C072F073C073F0120012000F04101067
:1030E800D8A42AD001019251D8A4120001D012000C
:1030F800010E0101926F000E0001CD25D96E030E5D
:103108000001CE21DA6E11C0DFFF0001CD4BCE2BBE
:103118000001CEBF0DD00001CE5105E1800E0001A7
:10312800CD5DD8A005D0000E0001CE6F000ECD6F8A
:10313800000E0101926F1200020E0F181010D8A491
:103148002AD001019451D8A4120001D01200010E16
:103158000101946F800E0001CF25D96E030E000186
:10316800D021DA6E11C0DFFF0001CF4BD02B000158
:10317800D0BF0DD0800E0001CF5D010E0001D059E7
:10318800D8A005D0000E0001D06F000ECF6F000E42
:103198000101946F1200040E0F181010D8A4120029
:1031A8000001D351D8A4120001D01200010E000171
:1031B800D36F3E0E0001CB25D96E020E0001CC2143
:1031C800DA6E11C0DFFF0001CB4BCC2B0001CCBF66
:1031D8000DD00001CC5105E1270E0001CB5DD8A030
:1031E80005D0000E0001CC6F000ECB6F000E000161
:1031F800D36F12001200000E00017A6F000174AF45
:103208000DD00001741F731F721F716D000E7223A1
:1032180073237423010E00017A6F00D0000178AF88
:103228000AD00001781F771F761F756D000E762370
:103238007723782300D00001755100017611000131
:10324800771100017811D8B43FD0010E0001796FD1
:1032580009D00001D890753776377737783700016D
:10326800792B00D0000178BF02D0F3D700D000013D
:1032780075510001715D000176510001725900011C
:103288007751000173590001785100017459D8A091
:1032980011D0000175510001715F000176510001E4
:1032A800725B000177510001735B000178510001E6
:1032B800745B00D00001D890783377337633753358
:1032C8000001792FD4D700D000017A510001D8B479
:1032D8000AD00001741F731F721F716D000E7223D4
:1032E8007323742300D071C071F072C072F073C080
:1032F80073F074C074F0120012002CC02EF02F6A04
:10330800306A2B342E3601E32F802E50386E385019
:10331800D8A409D0000E2A6E000E2B6E000E2C6E5B
:10332800000E2D6E1200170E2E6E2AC02FF02BC025
:1033380030F02CC031F02E28326E04D0D8903132C3
:1033480030322F32322EFAD72F50336E2B8EFF0E9B
:103358002A16FF0E2B16000E2C162A50346E2B50F0
:10336800356E2C50366E376A8E0E385E38AE17D0F2
:103378003850800A8F0FD8B00AD0000E2A6E000E7F
:103388002B6E000E2C6E000E2D6E120000D0D89001
:103398003732363235323432383EF9D719D0170E33
:1033A800386411D0000E2A6E000E2B6E000E2C6EA3
:1033B800000E2D6E120007D0D890343635363636CA
:1033C8003736380600D03850D8B402D0F5D700D0F8
:1033D8003350D8B409D0371E361E351E346C000E53
:1033E80035223622372200D034C02AF035C02BF0DF
:1033F80036C02CF037C02DF0120012001DC021F08D
:10340800226A236A1C34213601E322802150246E6B
:103418002450D8A407D0000E1B6E000E1C6E000EA0
:103428001D6E120020C021F0226A236A1F34213643
:1034380001E322802150296E2950D8A407D0000E1C
:103448001B6E000E1C6E000E1D6E120029507B0FA5
:1034580024261DC029F02050291A800E29161C8EFA
:103468001F8EFF0E1E16FF0E1F16000E2016000ED2
:10347800256E000E266E000E276E070E286E00D0F1
:103488001BA007D01E5025261F5026222050272279
:1034980000D0D8901D321C321B32D8901E361F36F1
:1034A8002036282EEDD700D0090E286E00D01BA09C
:1034B80007D01E5025261F5026222050272200D034
:1034C800D8901D321C321B32D89027322632253232
:1034D800282EEDD700D025C00FF026C010F027C049
:1034E80011F024C012F029C013F045EC1CF00FC0F5
:1034F8001BF010C01CF011C01DF012001200000ECD
:103508000001956F000E0001946F000E936F000E7E
:103518000001976F000E966F000E0001716F040E88
:10352800DFEC21F0000E0001976F000E966F000E81
:103538000001956F090E0001956501D023D0D4ECE8
:1035480024F000D0B5EC24F00009D8A4FBD7C4506F
:103558000001946F936BC35000019313040E000194
:10356800956509D0000193510001962700019451F7
:103578000001972300D00A0EE82EFED700D00001E4
:10358800952BD8D796C08AF097C08BF0000E000113
:103598008D6F050E8C6F8BEC1FF08AC096F08BC078
:1035A80097F0C29096C084F097C085F0000E000195
:1035B800876F070E866F85EC22F084C08AF085C07D
:1035C8008BF0000E00018D6F060E8C6F8BEC1FF0D8
:1035D8008AC096F08BC097F00001E2510001965F17
:1035E800000E0001E2BFFF0E0001975B96C091F04C
:1035F80097C092F01200120000017A6F000E0001CD
:103608007B6F0F015A99000E476E000E4A6E000E2E
:10361800486E000E496E000E0101A76F000E0101F1
:103628008D6F200E416E000E0101A46F000E466ED4
:10363800000E0101AC6F8986050E0001786F260E19
:10364800E82EFED7782FFCD700D08996680E0001A7
:10365800786FE40EE82EFED7782FFCD700D0000E46
:103668000001756F00017A51A2EC12F0000E000102
:103678007B6F1F0E00017B6501D015D000017B51C7
:10368800010DB60EF324D96E010EF420DA6EDF5068
:103698000001736F00017B51020DF350BDEC22F065
:1036A80000017B2BE6D70001DB5172EC24F0F29687
:1036B80000F00F015A8900F081CF79F000F0F29004
:1036C800F2867AC0E3F1150E0001786FC60EE82E77
:1036D800FED7782FFCD700D03CEC24F0010E010176
:1036E800B16F000E0001E46F1200000E0001B66F0A
:1036F8005ED0000E0001E06F4750D8A455D03E0EB2
:103708000001B46151D0010E466E4750D8B40BD0B9
:10371800000E466EDA0E0001966FFF0E0001976FDD
:10372800F1EC03F041D0200E51EC17F00101C35128
:1037380001090001736F1A0EBDEC22F0800E51ECE6
:1037480017F00001B451020F8AEC24F00001DB519C
:103758008AEC24F0000E0001B86F1BD00001B851AC
:10376800010DF3500001B225D96EF4500001B321C8
:10377800DA6EDF500001B76F0001E0510001B719A0
:103788000001E06F0001B7518AEC24F00001B82B6A
:1037980000D00001B4510001B85DD8A0DFD7000106
:1037A800E0518AEC24F000D00001B62B00D00001D3
:1037B800B5510001B65DD8A09CD71200000E0001DB
:1037C800796F000E7A6F000E7B6F000E7C6F000120
:1037D8007551000176110001771100017811D8B4F4
:1037E80047D0010E00017D6F09D00001D8907537D0
:1037F80076377737783700017D2B00D0000178BF06
:1038080002D0F3D700D00001D89079377A377B37C8
:103818007C37000175510001715D0001765100018E
:103828007259000177510001735900017851000164
:103838007459D8A013D0000175510001715F0001BF
:1038480076510001725B000177510001735B000142
:1038580078510001745B0001798100D00001D89093
:10386800783377337633753300017D2FCCD700D08A
:1038780079C071F07AC072F07BC073F07CC074F0CC
:1038880012001250D8B405D00F5010101110D8A43F
:103898000ED0000E0F6E000E106E000E116E12008C
:1038A80006D0122AD890113210320F3200D0000EF2
:1038B8000F14146E000E1014156EFE0E1114166EF1
:1038C800145015101610D8B40ED0EBD70CD0122AFD
:1038D800010E0F26000E1022000E1122D890113270
:1038E80010320F3200D0000E0F14146E000E101498
:1038F800156EFF0E1114166E145015101610D8B44C
:1039080008D0E5D706D01206D8900F3610361136F3
:1039180000D010BE04D0020E1260F5D700D012B04D
:1039280002D0109E00D0D8901232125011121350AB
:10393800D8B402D0118E00D00FC00FF010C010F014
:1039480011C011F012001200216E2104D8A40ED06B
:10395800CECF22F0236ACFCF24F0256A2450256EDB
:10396800246A225024262350252200D0030E211831
:10397800D8A40ED0B2CF22F0236AB3CF24F0256AA0
:103988002450256E246A225024262350252200D054
:103998001B50D8A42CD024C01DF025C01EF01D1E1D
:1039A8001E1E1D4A1E2AFF0E1D241F6EFF0E1E20FE
:1039B800206E1FC00FF020C010F0116A126AE80EC6
:1039C800136E030E146E000E156E000E166E8CEC40
:1039D80021F0100E05D0D8901232113210320F3269
:1039E800E82EF9D70FC01BF010C01CF0120024C03D
:1039F8001DF025C01EF01D1E1E1E1D4A1E2AFF0E8C
:103A08001D241B6EFF0E1E201C6E12001200DAC150
:103A180071F0DBC172F0DCC173F0DDC174F0DEC19E
:103A280075F0DFC176F0E0C177F0E1C178F04DECD8
:103A380020F071C0DAF172C0DBF173C0DCF174C040
:103A4800DDF1390E0101DA27300EDB23000EDC230D
:103A5800000EDD23100E00017F6FDAC180F0DBC19C
:103A680081F0DCC182F0DDC183F000017F6701D005
:103A780009D00001833583338233813380330001D9
:103A88007F2FF3D7FF0E000180150001716F7F0EA5
:103A9800000181150001726F000E000182150001FE
:103AA800736F000E000183150001746F7DC075F0FF
:103AB8007EC076F00001776B786BFFEC18F071C070
:103AC8007DF072C07EF01200120003EE80F012EE5C
:103AD80000F0EE6AE550E150FCE1E250FAE103EE55
:103AE80000F0800EEE6AE806FDE102EE00F0A50E99
:103AF800EE6AE806FDE101EE00F0B60EEE6AE806B1
:103B0800FDE100EECBF01A0EEE6AE806FDE100EEEC
:103B180041F00A0EEE6AE806FDE1420EF66E450E29
:103B2800F76E000EF86E01EEB6F010EE37F00900F1
:103B3800F5CFEEFFE550E150FAE1AC0EF66E490E16
:103B4800F76E000EF86E0900F5CFE5F00900F5CF25
:103B5800E6F0A40EF66E490EF76E000EF86E00EE53
:103B68004BF010EE04F00900F5CFEEFFE550E15000
:103B7800FAE1000EF86E00011FEF0AF0310E0001A5
:103B88007D6F00017E6973C077F074C078F042D011
:103B980071C0D9FF72C0DAFFDF5000017E1B00013F
:103BA800714B722B000E00017A6F080E796F27D0C7
:103BB80000017EBF0AD0D89000017E3500017B6FDE
:103BC80000017C6B00017C3713D000017D517EC061
:103BD80075F00001766BD8900001753776370001D3
:103BE800751900017B6F0001765100017C6F00D0D0
:103BF8007BC07EF000017907D8A07A0700D00001C9
:103C0800795100017A11D8A4D3D700017707D8A039
:103C1800780700D00001775100017811D8A4B8D7EF
:103C280000017E5112001200000E0201D36FD6C1AE
:103C3800A5F2D7C1A6F2D8C1A7F2D9C1A8F24BC044
:103C4800A9F24CC0AAF24DC0ABF24EC0ACF2050EC0
:103C58000201AD6F5A0E0001716FFF0E0001726F05
:103C6800000E0001736FA50E0001746F020E0001B3
:103C7800756F090E0001766F130E0001776F6DECFA
:103C88001EF00001E151300F0201C16FD1C0C2F234
:103C9800D2C0C3F20201C4697BC1C5F27CC1C6F2BD
:103CA80073C1C7F274C1C8F275C1C9F276C1CAF24C
:103CB800260E0201D36FA50E0001B26F020E00019D
:103CC800B36FD3C2B4F0010E0001B56F79EC1BF0ED
:103CD8001200000E00017E6F3FD0000173517EC0BC
:103CE80078F00001796B00017827000E792371C004
:103CF8007AF072C07BF00001785100017A27000148
:103D0800795100017B237AC0F6FF7BC0F7FF000ED4
:103D1800F86E000176517EC07CF000017D6B0001D9
:103D28007C27000E7D2300017C5100017425D96E8B
:103D380000017D5100017521DA6E0E0EF76403D083
:103D48000800F55005D0F6CFE9FFF7CFEAFFEF50AE
:103D5800DF6E00017E2B00D00001775100017E5DEF
:103D6800D8A0BBD712003D6E3DC04AF04AC00FF044
:103D7800106A000E126E070E116ECCEC1FF00F5079
:103D880001019A6F880E4A6403D0280E4A6E120009
:103D9800000E1E6E000E1F6E3F0E206EDA0E396E7C
:103DA800FF0E3A6E4A503B6E3C6A39503B263A50F9
:103DB8003C223B1E3C1E3B4A3C2A640E3B24176EA9
:103DC800000E3C20186E4AEC22F017C01BF018C0F9
:103DD8001CF019C01DF002EC1AF01BC02AF01CC020
:103DE8002BF01DC02CF081EC19F02A50280F4A6ED8
:103DF80012001200EACF04F0E1CF05F0E2CF06F09E
:103E0800D9CF07F0DACF08F0F3CF09F0F4CF0AF0F2
:103E1800F6CF0BF0F7CF0CF0F8CF0DF0F5CF0EF092
:103E28009EB09DA011D09E90010E0001D96F475001
:103E3800D8B404D00101674B682B06D0000E0101ED
:103E4800686F000E676F00D00EC0F5FF0DC0F8FF59
:103E58000CC0F7FF0BC0F6FF0AC0F4FF09C0F3FF60
:103E680008C0DAFF07C0D9FF06C0E2FF05C0E1FFBE
:103E780004C0EAFF03C0E9FF02C0FBFF01C0FAFF6C
:103E880011000001766F000171291DE100017229FE
:103E9800D8A419D000017651020D000EF324D96E72
:103EA800010EF420DA6EFF0EDE6EFF0EDD6E0001ED
:103EB8007651010D2E0EF324D96E010EF420DA6E20
:103EC80073C0DFFF1200010E000171250001746F3D
:103ED800000E000172210001756F00017651020D7C
:103EE800000EF324D96E010EF420DA6E74C0DEFFE2
:103EF80075C0DDFF00017651010D2E0EF324D96E39
:103F0800010EF420DA6E73C0DFFF12001200000EFB
:103F18000001906F000E8F6F00018C5100018D1110
:103F2800D8B431D0010E00018E6F07D00001D890AF
:103F38008C378D3700018E2B00D000018DBF02D049
:103F4800F5D700D00001D8908F37903700018C51F9
:103F580000018A5D00018D5100018B59D8A00BD05A
:103F680000018C5100018A5F00018D5100018B5BBB
:103F780000018F8100D00001D8908D338C3300016F
:103F88008E2FE0D700D08FC08AF090C08BF012003F
:103F9800000E146E10AE07D00F6C101ED8B0102A89
:103FA800010E146E00D012AE05D0116C121ED8B0DE
:103FB800122A00D011501210D8B41DD0010E136E61
:103FC80005D0D89011361236132A00D012BE02D06E
:103FD800F8D700D011500F5C12501058D8A005D057
:103FE80011500F5E1250105A00D0D8901232113270
:103FF800132EF0D700D01450D8B405D00F6C101E73
:10400800D8B0102A00D00FC00FF010C010F0120066
:1040180012008E0E0001816F09D00001D8907C3308
:104028007B337A3379330001812B00D0000E0001F5
:10403800791500017D6F000E00017A1500017E6F71
:10404800000E00017B1500017F6FFF0E00017C153B
:104058000001806F00017D5100017E1100017F1178
:1040680000018011D8A4D9D779C071F07AC072F054
:104078007BC073F081C074F0000E0001756FE2EC34
:1040880017F071C079F072C07AF073C07BF012003B
:104098001200000E0001796F000E7A6F000E7B6F20
:1040A800000E7C6F00D0000171A111D00001755184
:1040B800000179270001765100017A230001775128
:1040C80000017B230001785100017C2300D000010E
:1040D800D89075377637773778370001D8907433AA
:1040E8007333723371330001715100017211000191
:1040F800731100017411D8A4D6D779C071F07AC0B1
:1041080072F07BC073F07CC074F012007C0ED36E2A
:104118009B8CD2909B8E200E926E320E936E130E55
:10412800946E860E896E010E8A6EC40E8B6E100E0A
:104138000F015D6F010E0F015C6FF19E0F015B9126
:104148000F015B930F015B850F015B970F015B9973
:104158000F015B9B0F015B9D0F015B9FD180000EE0
:1041680001019E6F01015169010152690101536901
:1041780001015469000E0101A66F1200000193515C
:1041880000019411D8B42BD0010E0001956F07D00F
:104198000001D890933794370001952B00D0000187
:1041A80094BF02D0F5D700D0000193510001915D72
:1041B8000001945100019259D8A009D000019351EF
:1041C8000001915F000194510001925B00D0000151
:1041D800D890943393330001952FE6D700D091C03F
:1041E80091F092C092F0120014D0D00E0001736FBB
:1041F800CA0EE82EFED7732FFCD7F60E00017125E4
:104208000001716FFF0E000172210001726F04003E
:1042180000D000017251E9E10B0E0001715DD8A0D8
:1042280010D0E3D70ED0150E0001736FC60EE82E1E
:10423800FED7732FFCD700D000017107D8A07207F2
:1042480004000001715100017211D8A4ECD71200CA
:104258000001736F3F0EC716000EC66E0001735142
:10426800C61200017251C71205D0C78C16D0C78C70
:10427800C68813D000017151000AD8B4F6D7020AD3
:10428800D8B4F5D7010AD8B4F3D707D09486928A60
:104298000DD094860BD0949609D000017351040A6E
:1042A800D8B4F4D7010AD8B4F4D7F5D79488949A37
:1042B800C68A1200000E146E000E136E11501210F2
:1042C800D8B421D0010E156E05D0D890113612360B
:1042D800152A00D012BE02D0F8D700D0D8901336D5
:1042E800143611500F5C12501058D8A006D0115037
:1042F8000F5E1250105A138000D0D890123211322B
:10430800152EECD700D013C00FF014C010F0120017
:10431800000E176E000E186E000E196E000E1A6E43
:1043280000D00FA009D0135017261450182215508A
:10433800192216501A2200D0D89013361436153682
:104348001636D8901232113210320F320F50101028
:1043580011101210D8A4E5D717C00FF018C010F02C
:1043680019C011F01AC012F0120018501910D8B460
:104378001DD0010E1A6E05D0D890183619361A2A93
:1043880000D019BE02D0F8D700D01850165C1950CA
:104398001758D8A005D01850165E1950175A00D0D3
:1043A800D890193218321A2EF0D700D016C016F04D
:1043B80017C017F012000001736F71C072F000018E
:1043C800723BC15000017219CF0B7219C16EC196B0
:1043D800C190C192C19473C072F0000172477247D4
:1043E800C25000017219830B7219C26EC086C08850
:1043F800C08AC050F80B0609C06EC08EC280120079
:10440800000E0001746F00017251030B756E71C0CC
:1044180074FF73C073FF7F9E7F9C7F84000EF2BE83
:10442800010E0001746FF29E550E7E6EAA0E7E6E0E
:104438007F8200D07FB2FED7000174B102D0F29E15
:1044480001D0F28E7F9412000001726F0001725148
:104458000001D8B409D00101B151D8B413D0899C56
:104468008B94898012000ED0000171510001D8B4DC
:1044780009D00001E451D8B405D0898C8B94899077
:10448800120000D0899C8B8489901200000E1A6E4D
:1044980018AE07D0176C181ED8B0182A010E1A6E5D
:1044A80000D017C00FF018C010F0116A8E0E126EEF
:1044B8001AC013F045EC1CF00FC017F010C018F02C
:1044C80011C019F012001200106E1050D8B409D0A3
:1044D8000101B151D8B411D0899C8B948980120004
:1044E8000CD00F50D8B409D00001E451D8B405D08D
:1044F800898C8B948990120000D0899C8B84899038
:1045080012000001845100018603F3CF88F0F4CF34
:1045180089F00001845100018703F35000018927C5
:104528000001855100018603F3500001892788C0E6
:1045380084F089C085F0120012002A8C01020CC197
:1045480077643277623238F81180E938380700002A
:104558000507090DF0004010DC80FFFFFFFF010098
:1045680000006D4EC6410103FF0101010100C201B7
:1045780000000001746F89940001745188EC23F0E5
:10458800E40E00D000D0E82EFCD700D000D0000107
:10459800735188EC23F0E40E00D000D0E82EFCD74D
:1045A80000D000D089841200F20E01019517A6AC44
:1045B80007D001019591A6A003D00101958100D0F3
:1045C800A6A402D001019585A6A202D00101958773
:1045D8007ACF0FF00F5012001200000E0001766F14
:1045E800000E0001776F0BD01C0E4DEC23F000017C
:1045F800776F00017751020B0001766F00D0000140
:1046080076510001D8B4F0D7120093968A8689862D
:10461800050E0001716F260EE82EFED7712FFCD70C
:1046280000D08996680E0001716FE40EE82EFED75F
:10463800712FFCD700D012000001736F000E00012B
:10464800726F3A0E0001736108D02F0E0001736576
:1046580004D0010E0001726F00D072C071F0000129
:1046680071311200120079C071F07AC072F0000145
:10467800736B8E0E0001746F000E0001756FE2EC13
:1046880017F071C079F072C07AF073C07BF0120035
:1046980012000001756F89940001755140090001ED
:1046A800756F0001755188EC23F058EC24F071C047
:1046B80074F0898400017451120012000F50110225
:1046C800F3CF13F0F4CF14F00F501202F350142666
:1046D80010501102F350142613C00FF014C010F03C
:1046E80012001200D08EF290F28CF196F1920F0126
:1046F8005A9F0F015A9D0F015A9B0F015A99F28632
:10470800F190F28EA59A12000001726FC9CF71F074
:104718009E96C69E72C0C9FFC6BE120002D0120085
:1047280000D09EB61200FDD7120012000001776F6C
:1047380000017751010B0101B16F000177510E0B98
:104748000001766F000176510FEC24F01200000191
:10475800746F0001DF51D8B41200000E0001726FAF
:10476800020E716F74C073F0BEEC16F012001200E6
:10477800000171510101DE27000172510101DF239F
:10478800000173510101E023000174510101E1238B
:104798001200116E000E106E3A0E116006D02F0E28
:1047A800116403D0010E106E00D010C00FF00F304E
:1047B80012001200106EC9CF0FF09E96C69E10C050
:1047C800C9FFC6BE120002D0120000D09EB6120069
:1047D800FDD712001200300E0001726FA20E716F29
:1047E800EAEC0DF0D00E00017F6FCA0EE82EFED75E
:1047F8007F2FFCD71200136E899413504009136E53
:104808001350DEEC23F07EEC24F00FC012F0898404
:104818001250120012000001756F0101D051F00B07
:10482800000175110101D06FD0C173F0340EBDECD9
:1048380022F012000001756F0001E351D8A403D0E3
:104848004250D8B4120000017551ABEC23F01200AD
:104858001200126E0001DF51D8B41200000E106E63
:10486800020E0F6E12C011F072EC18F01200120056
:10487800200E51EC17F0400E51EC17F094EC24F098
:10488800F1EC22F0600E51EC17F0120000017251A9
:10489800030B756E71C074FF7F9C7F9E7F8000F054
:1048A80000F0735012001200C9CF73F09E96000EEC
:1048B800C96E00D09EA6FED7C9CF71F00001726BF9
:1048C8001200136E0001E351D8A403D04250D8B4AB
:1048D800120013502DEC24F0120012000001756F25
:1048E80075C0DBF075C0D3F1D3C173F03A0EBDECDF
:1048F80022F01200C9CF11F09E96000EC96E00D0AA
:104908009EA6FED7C9CF0FF0106A12000001736F80
:10491800898489920001735188EC23F089821200FE
:10492800070E0001756F75C073F01C0EBDEC22F008
:10493800120071C0DAF172C0DBF10101DC6BDD6BD2
:1049480012000001806F80C0E5F0EFEC23F0120048
:104958001200000E466E000E0F6E000E68EC22F07C
:104968001200C2A202D0010E1200000E12001200A4
:10497800280EFFEC23F0B7EC1EF012000001DB510B
:104988001200120000D07FB2FED71200D39ED18E43
:1049980003001200440EA5EC24F01200FFFFFFFFF5
:0649A800C2821200445C13
:10FEA2000001000A006400E80310270100100000AE
:10FEB20001001001003C494E463E4D6173743A20E8
:10FEC2003078253032582530325825303258253096
:10FED20032583C2F494E463E003C494E463E49442C
:10FEE2003A20307825303258253032582530325871
:10FEF200253032583C2F494E463E003C453E554146
:10FF02005254204261756472617465204572726F49
:10FF1200723C2F453E003C494E463E4E6F64653A68
:10FF2200203078253032583C2F494E463E003C4521
:10FF32003E73746279207768696C6520696E743CDF
:10FF42002F453E003C44453E5769706545657072D9
:10FF52006F6D3C2F44453E00656D42726561746869
:10FF62002C302E3031372C322C302C003C453E4781
:10FF72006F696E6720746F205458313C2F453E00E4
:10FF82003C494E463E436F723A2025693C2F494E0A
:10FF9200463E004669726D776172653A2076302E70
:10FFA2003031372000303132333435363738394149
:10FFB2004243444546003C453E5541525420464545
:10FFC20052523C2F453E003C453E55415254204F33
:10FFD2004552523C2F453E003C44453E655F7265AA
:10FFE2006164323A003C494E463E547970653A208B
:0EFFF2000025633C2F494E463E00256300006B
:020000040020DA
:08000000FFFFFFFFFFFFFFFF00
:020000040030CA
:0E0000001D981B36FF8980FF0FC00FE00F40D8
:00000001FF
