:04080000EBEF04F026
:10080800FACF21F0FBCF22F0E9CF23F0F5EF66F025
:10081800D8CF8FF0E8CF90F0E0CF91F0FACF92F0F8
:10082800FBCF93F0E9CF94F0EACF95F0E1CF96F0C3
:10083800E2CF97F0D9CF98F0DACF99F0F3CF9AF0CA
:10084800F4CF9BF0F6CF9CF0F7CF9DF0F8CF9EF059
:10085800F5CF9FF090D0000E0001A16FF2A08FD0CD
:1008680081CFA0F000F0F2900001A0A984D0600E22
:100878000101C219D8A466D00001CD51D8A43AD03C
:100888000001C651D8A436D068EC7AF00101FB6F9C
:10089800040E00016C6F010E83EC5DF06CC077F004
:1008A8006DC078F03FEC7AF0D3B606D001D004D012
:1008B800010E0101DA6F00D01BEC7AF03AEC7AF005
:1008C8000001A251000160270001A351000161232A
:1008D800000160C062F0000161C063F00001646B58
:1008E800656B82EC78F0010E0101BF6F010E00010B
:1008F800CD6F41D00001C651D8B409D0850E000192
:100908006C6FFE0E00016D6F05EC34F034D06CECAA
:100918007AF00009D8B409D0D20E00016C6FFE0E2F
:1009280000016D6F05EC34F009D0990E00016C6F71
:10093800FE0E00016D6F05EC34F000D0010E0101D0
:10094800C06F19D0800E0101C219D8A406D0010EBB
:100958000101C16F9DEC76F00ED0200E0101C21985
:10096800D8A409D06F0E00016C6FFE0E00016D6FE8
:1009780005EC34F000D0010E0001A16F00D0000199
:10098800A1510001D8A467D79FC0F5FF9EC0F8FF0A
:100998009DC0F7FF9CC0F6FF9BC0F4FF9AC0F3FF11
:1009A80099C0DAFF98C0D9FF97C0E2FF96C0E1FF6F
:1009B80095C0EAFF94C0E9FF93C0FBFF92C0FAFF1D
:1009C80091C0E0FF90C0E8FF8FC0D8FF1000BFEFD4
:1009D8005AF0000ED0B6010E5A6E000ED0B2010EBB
:1009E8000201FE6F000ED0B0010E0201FD6FD0CFE4
:1009F800FFF254EC50F0030E0101016FE80E006F96
:100A08001BEC72F0030E0101016FF00E006F0EEC8B
:100A180079F00101DD6F0101DD29D8B403D0010EA1
:100A28003D6E00D012EC5FF006D08A94938630ECCD
:100A38007AF012EC5FF00DC1B0F00EC1B1F000D049
:100A48000001B1BFF2D73E0E0001B05D080E0001F3
:100A5800B159D8A0EAD70FEC75F0360E0101016F35
:100A6800B00E006F1BEC72F03D50D8A40ED0000100
:100A7800B1BF0BD0870E0001B05D0B0E0001B1595C
:100A8800D8A003D0B3EC69F000D0000E0101006FCC
:100A9800000E0101016F020E83EC72F004007EEC7F
:100AA8003AF00400F4C200F10101016BD9EC79F0CD
:100AB80060EC78F0010E0001BB6F5A50D8A413D037
:100AC800D90E0101126FFF0E0101136F8FEC31F087
:100AD800000E0101016F040E006F060E0101026F86
:100AE80099EC59F02CD00201FE510201D8B418D06B
:100AF8000201FD510201D8A413D0F60E0101126FB4
:100B0800FF0E0101136F8FEC31F0000E0101016F30
:100B1800040E006F070E0101026F99EC59F00FD017
:100B28000201FE510201D8A40AD0FA0E0101126F87
:100B3800FF0E0101136F8FEC31F0D08200D0000E50
:100B480097EC70F0C60E0101126FFF0E0101136FD2
:100B58008FEC31F0FD0E0101126FFD0E0101136FD4
:100B68008FEC31F0F20E0101126FFF0E0101136FCD
:100B7800300E0101D3250101146F0101156B000E20
:100B880015238FEC31F0880E0101126FFF0E010161
:100B9800136FB0C014F1B1C015F18FEC31F0570EDE
:100BA8000101126FFE0E0101136FF1C214F1010170
:100BB800156BF2C216F10101176BF3C218F10101AE
:100BC800196BF4C21AF101011B6B8FEC31F03D0E69
:100BD8000101126FFE0E0101136FDEC014F1010155
:100BE800156BDFC016F10101176BE0C018F10101A8
:100BF800196BE1C01AF101011B6B8FEC31F0570E34
:100C08000101126FFF0E0101136F5CEC7AF0050110
:100C1800806F050180510101146F156B8FEC31F065
:100C2800390E0101126FFF0E0101136FC7C014F1D5
:100C38000101156B8FEC31F0C00E0101126FFE0E31
:100C48000101136F8FEC31F07D0E0101126FFF0E61
:100C58000101136FDDC114F10101156B8FEC31F047
:100C6800BD0E0101126FFF0E0101136F81BA02D090
:100C7800010E01D0000E0101146F156B8FEC31F0DD
:100C8800F10E01010F6F020E0101106F54EC75F0A7
:100C9800BAEC3EF0FDEC76F0000E0101276F1E0E57
:100CA800266F010E0101286F040EDCEC6DF0000EBA
:100CB80005019A6F000E0101066F000E076F020E04
:100CC800086F000E096F010E01010A6F000E0B6F0D
:100CD800000E0C6F000E0D6F9A0E01010E6F050EBF
:100CE80001010F6F4BEC6BF005019A05D8A41ED0DB
:100CF800000E05019A6F000E0101056F000E066FC8
:100D0800020E076F000E086F9A0E0101096F050E9B
:100D180001010A6F010E01010B6F000E0C6F000E2E
:100D28000D6F000E0E6F30EC6CF000D0F10E01016B
:100D3800066F020E0101076FEB0E0101086F010E2D
:100D48000101096F040E01010A6F15EC73F0000927
:100D5800D8B403D00400FED700D082EC79F0000E9E
:100D68000001BB6F00D00101E0510101D8A490EF50
:100D78000CF0000EDBEC75F00101E9510101D8B46B
:100D880002D0FF0000D0000E0101EA6F040001014B
:100D9800BE51D8B482D00101C251D8B41CD084EC61
:100DA80076F017C15CF218C15DF202015D510CE1E9
:100DB8001F0E02015C5DD8B007D0000E01014A6F1A
:100DC800010EC5EC19F007D0000E01014A6F000EA4
:100DD800C5EC19F000D00101FD510101D8B426D0AD
:100DE800DE0E01010B6F000E01010C6F8B0E01016D
:100DF8000D6F050E01010E6F25EC44F00501806FA3
:100E08001F0E0501806112D0DE0E0101186F000E61
:100E18000101196F000E01011A6F0AEC71F0000947
:100E2800D8B404D0000E0101FD6F00D0000E0101FE
:100E3800BE6F3E0E85EC38F0F30E0101006F010E17
:100E48000101016F1FEC4EF036EC57F054EC7AF0CC
:100E58000009D8B422D05950D8B41FD0010E0001CF
:100E6800BB6FA90E0101126FFF0E0101136FE1ECB8
:100E780079F002C1D9FF03C1DAFFDF500501806FA5
:100E8800050180510101146F156B8FEC31F0000ED4
:100E98000001BB6F000E596E00D084EC76F017C1CC
:100EA8005CF218C15DF202015D5105E1070E020115
:100EB8005C5DD8A02AD002015D5127E11F0E020116
:100EC8005C5DD8B022D00101DC51D8B41ED0910E9F
:100ED80001010E6F050E01010F6FC10E0101106FA8
:100EE800030E0101116FC3C112F1000E0101136F4E
:100EF800010E0101146F000E0101156FE0EC47F0BF
:100F080000D0000E0101DC6F00D00101C051D8B43F
:100F180009D0000E0101C06F200EDBEC57F0600E07
:100F2800DBEC57F00001CD51D8B43AD02BEC7AF075
:100F380000C117F101C118F1040E01010C6F010E77
:100F4800FDEC5CF00CC119F10DC11AF115EC7AF049
:100F5800010100C11BF1010101C11CF101011D6B5F
:100F68001E6B68EC63F017C18FF518C190F54B0E36
:100F780005018F5D010E05019059D8A011D001011E
:100F8800BF51D8B40AD00001C651D8A406D0C0ECCD
:100F98006CF0000E0101BF6F00D04FEC72F000D072
:100FA800460E01010E6F030E01010F6FF60E0101CF
:100FB800106F010E0101116F20EC45F00009D8B443
:100FC80052D0460E01012C6F030E01012D6FF6C1A0
:100FD8002EF1DAC12FF1FBC130F1F9EC2BF0000949
:100FE800D8B43AD0490E01010E6F030E01010F6FFC
:100FF800A30E0101106F020E0101116F980E01017D
:10100800126F050E0101136F78EC6CF00009D8B46B
:1010180023D00B0E0501976FA30E01018A6F020EF4
:1010280001018B6F05019751010D460EF324010153
:101038008C6F030EF42001018D6F05019751000894
:101048000101F62501018E6F98C58FF1000E01018F
:10105800906F6AEC13F000D0000E0001CD6F000E07
:101068000101DA6F00D0030E0101F319D8A414D0DE
:10107800030E0101F419D8A40FD0000E0101F36F7B
:10108800000E0101F46F030E0101006F010E7DECEB
:101098007AF00001C48944D0020E0101F419D8A4E1
:1010A8000CD0000E0101F46F020E0101006F010E59
:1010B8007DEC7AF00001C48733D00101F405D8A48F
:1010C8000CD0000E0101F46F010E0101006F010E3A
:1010D8007DEC7AF00001C48523D0020E0101F319DA
:1010E800D8A40ED0000E0101F36F98EC60F0020E48
:1010F8000101006F000E7DEC7AF00001C48310D06E
:101108000101F305D8A40CD0000E0101F36F010E04
:101118000101006F000E7DEC7AF00001C48100D05F
:101128000101C151D8B433D0000E0101C16F800E46
:101138000101C219D8A419D00101DF510101D8A4B5
:1011480005D00101E0510101D8B40FD0000EDBEC4D
:1011580057F0000E0101DF6FB30E0101126FFF0E91
:101168000101136F8FEC31F010D0800E0101C2190C
:10117800D8A40BD00001C651D8A407D0200EDBECB0
:1011880057F0600EDBEC57F000D0040000D0000EE2
:101198000101016F010E006FF70E0101026F010ED0
:1011A8000101036F9BEC4CF00009D8B41BD0F7C1C8
:1011B80000F1010E77EC7AF00009D8A41AD0000EDD
:1011C80001010C6F040E01010D6FF50E01010E6F88
:1011D800010E01010F6F0101F75129EC42F00101E5
:1011E800BD6F07D00101D851D8B403D00101D80789
:1011F80000D00101BD51D8B46BD104010151C00B1D
:1012080005019B6F05019B45E846030B05019B6F94
:10121800E90E0101126FFF0E0101136F8FEC31F01F
:1012280005019B510501D8A409D1000E0101CB6F1E
:1012380054EC7AF00009D8B43FD1000E0101006FD8
:10124800040E0101016F020E0101026FEB0E010194
:10125800036F010E0101046F000E0101056F040EFA
:101268000101066F29EC6FF00009D8B4BDD00A0E51
:101278000101C36FEFC1C1F3F0C1C2F3F1C1C3F300
:10128800F2C1C4F31D0E0301C56F2B0E0301C66F17
:1012980002C4C7F303C4C8F304C4C9F305C4CAF33A
:1012A800010E0001BB6F0101F651FA0F0101F66F43
:1012B800000E0101016F020E006F240E0101026F82
:1012C80099EC59F0000E0101016F020E006F240E17
:1012D8000101026F99EC59F0000E0101016F020E35
:1012E800006F0101F651040F0101026F99EC59F0EA
:1012F800000E0101016F020E006F000E0101026F66
:1013080099EC59F0000E0501956F000E0501996FD3
:1013180022D0000E0101016F020E006F05019951E4
:10132800010DC10EF324D96E030EF420DA6EDF50DE
:101338000101026F99EC59F005019951010DC10E97
:10134800F324D96E030EF420DA6EDF500501951BE5
:101358000501992B00D0FF0E0501806FFF0E0501D6
:10136800816F0101C3510501826F836B05018051B3
:101378000501822705018151050183230501995142
:101388000501846F856B050182510501845D0501A6
:101398008551800A0501866F05018351800A050180
:1013A8008659D8A0B6D7000E0101016F020E006F52
:1013B80095C502F199EC59F0000E0101016F020E7A
:1013C800006F0D0E0101026F99EC59F0000E01013A
:1013D800016F020E006F0A0E0101026F99EC59F0BD
:1013E800000E0001BB6F68D00101F551F80F010133
:1013F800C36F020E0301C16F000E0101006F040EDE
:101408000101016F060E0101026FC10E0101036F98
:10141800030E0101046F010E0101056FC3C106F13E
:10142800E6EC6BF002C491F503C492F504C493F59D
:1014380005C494F5010E0101DC6F3ED0020E0501D2
:101448009B19D8A439D0020E0101CB6F54EC7AF065
:101458000009D8B431D0020E01010E6F040E01014B
:101468000F6F870E0101106F050E0101116F960EA7
:101478000101126F050E0101136F78EC6CF0000981
:10148800D8B41AD0060E01018A6F040E01018B6FC1
:101498000A0E01018C6F040E01018D6F0101F551D7
:1014A800F30F01018E6F280E01018F6F010E0101EC
:1014B800906F6AEC13F000D0000E0101BD6FD30EDF
:1014C8000101126FFF0E0101136F8FEC31F000D094
:1014D800010EBAEC75F00009D8B41FD0710E0101E5
:1014E800126FFF0E0101136F8FEC31F0050E010131
:1014F800276FA00E266F020E0101286F0C0EDCEC80
:101508006DF00D0EB4EC78F00101DF510101D8B493
:1015180004D0000E0101DF6F00D00A0EBAEC75F09E
:101528000009D8B420D0DE0E0101066F000E0101BB
:10153800076FEB0E0101086F010E0101096F040E20
:1015480001010A6F15EC73F00009D8A40CD0DE0E67
:101558000101186F000E0101196F000E01011A6FC9
:101568000FEC41F000D00B0EBAEC75F00009D8B4BE
:1015780015D0000E0201476F000E466F000E0201E3
:10158800496F000E486F000E0201616F000E606F18
:10159800000E0201636F000E626F00D0000EBAECFD
:1015A80075F00009D8B404D0000E0001C46F00D053
:1015B8000B0EABEC77F00009D8B40BD0050E010187
:1015C800276FA00E266F020E0101286F0B0EDCECB0
:1015D8006DF00A0EABEC77F000D002013B5105E14B
:1015E8000B0E02013A5DD8A014D0650E0101126FEE
:1015F800FF0E0101136F8FEC31F0070E8EEC5EF0D9
:10160800000E44EC79F0000E02013B6F000E3A6FB9
:1016180000D00101CE51D8B40AD0000E01010D6FDF
:10162800240E0C6F97EC66F00101CE0700D0010E76
:101638000101E7650DD0290E0101126FFF0E0101AE
:10164800136FE7C114F10101156B8FEC31F000D075
:10165800000E0101E76F0C0EABEC77F00009D8B46F
:101668000CD0050E0101276FA00E266F020E010196
:10167800286F0C0EDCEC6DF000D00101DB51D8B402
:101688001ED0050E0101276FA00E266F020E010164
:10169800286F0C0EDCEC6DF0000E0101DB6F010110
:1016A800C251D8B40CD00101CC510101D8A407D043
:1016B800000E0101DF6F0D0EB4EC78F000D00C0EB7
:1016C800BAEC75F00009D8B414D0070E0101126FF6
:1016D800FF0E0101136F8FEC31F0040E0101276F2B
:1016E800B00E266F010E0101286F0D0EDCEC6DF0B7
:1016F80000D00D0EBAEC75F00009D8B414D0180E4D
:101708000101126FFF0E0101136F8FEC31F0020E11
:101718000101276F580E266F010E0101286F0C0E6C
:10172800DCEC6DF000D0110EBAEC75F00009D8B4FD
:1017380006D0010E0101E26FC6EC2EF000D0100EAB
:10174800BAEC75F00009D8B41DD054EC7AF0000951
:10175800D8A418D00101FE510101D8B404D0A5ECD9
:101768006FF0000E0CD0DE0E0101186F000E0101A3
:10177800196F010E01011A6F0FEC41F0010E010102
:10178800FE6F00D0100EABEC77F00009D8B40CD087
:10179800000E0101276F1E0E266F010E0101286F32
:1017A800100EDCEC6DF000D00001B1BF08D03E0E89
:1017B8000001B05D080E0001B159D8B016D0010182
:1017C800CC510101D8B404D00101C251D8B483D09E
:1017D8009E0E0101126FFF0E0101136F8FEC31F0A5
:1017E80075D0010E0101DF6F76D00101CC510101E6
:1017F800D8B410D00101CC510101D8B45ED0000199
:10180800B1BF5BD07D0E0001B05D080E0001B1597B
:10181800D8A053D0000E0101CC6F010E79EC71F005
:101828000101005101010111D8B417D00101C251C1
:10183800D8B451D001D04FD00101DF510101D8A453
:101848004AD0010E0101DF6FDF0E0101126FFF0E9A
:101858000101136F8FEC31F03ED00D0E79EC71F071
:101868000101005101010111D8B417D00101C25181
:10187800D8B431D001D02FD00101DF510101D8A453
:101888002AD0010E0101DF6F0E0E0101126FFF0E4B
:101898000101136F8FEC31F01ED00101C251D8A4A1
:1018A8001AD0750E0101126FFF0E0101136F8FEC34
:1018B80031F0000E97EC70F00ED00101CC5101010F
:1018C800D8B409D00101C251D8B405D0010E010124
:1018D800CC6F87D700D0040E01010C6F000ED6EC38
:1018E80063F00CC138F20DC139F20201385102011E
:1018F800485D0201395102014959D8B009D00101A6
:10190800EA51D8A405D038C248F239C249F200D009
:1019180096EC73F0B7EF06F07CEC7AF00009D8B4D7
:10192800B7EF06F030EC7AF0010E0101E96FB7EF7E
:1019380006F0EBEF04F02DC121F12EC122F134C1E4
:1019480023F131C106F132C107F133C108F106ECC8
:1019580059F00101246F000E0101256F56EC3DF08E
:101968000101576F2DC106F12EC107F12FC108F1F2
:1019780030C109F1040E01010A6F0EEC74F0010187
:1019880035510101D8A410D02DC106F12EC107F19F
:10199800F90E0101086F020E0101096F040E010121
:1019A8000A6F0EEC74F000D0010E0101336567EF89
:1019B80013F031C1D9FF32C1DAFFDE04D8A466D1F1
:1019C800050E0101336562D1F90E010133250101CC
:1019D800006F0101016BFF0E0123000E0101036F6F
:1019E800050E026F53EC67F001010051010101116E
:1019F800D8A44CD1FF0E0101366FFF0E0101376FDD
:101A0800010133510101386F396B01013651010170
:101A180038270101375101013923010138510101EA
:101A28003125D96E0101395101013221DA6E0001E7
:101A3800C751DE18D8B424D0FF0E0101366FFF0E4F
:101A48000101376F010133510101386F396B010111
:101A580036510101382701013751010139230101AC
:101A6800385101013125D96E010139510101322165
:101A7800DA6EDE28D8A467EF13F002D067EF13F010
:101A8800000E0101596F010E586FE7D0050E0101D4
:101A980058250101366F000E010159210101376FE8
:101AA800010133510101386F396B010136510101D0
:101AB800385D01013951800A01013A6F010137513E
:101AC800800A01013A59D8A082D0010159BF7FD0BC
:101AD8000101595105E1060E0101585DD8A077D0E2
:101AE80031C100F132C101F158C102F1400E0101CA
:101AF800036F010E0101046F000E0101056F040E52
:101B08000101066FE6EC6BF0040E01015825010196
:101B1800366F000E010159210101376F010136515D
:101B280001013125D96E0101375101013221DA6EE7
:101B3800DF500101386F050E0101396F0101D8909E
:101B480038330101392FFAD701013851070B010148
:101B58004C6F040E010158250101366F000E01017A
:101B680059210101376F0101365101013125D96E23
:101B78000101375101013221DA6EDF501F0B0101DB
:101B8800546F1E0E0101546506D0000E01014F6FFF
:101B98001F0E4E6F0AD0010E0101542501014E6F30
:101BA80001014F6B000E4F2300D0400E0101156F4D
:101BB800010E0101166F57C117F14EC118F14CC142
:101BC80019F1000E01011A6F2DEC1EF03CD0010135
:101BD800580501015911D8A436D031C100F132C1DC
:101BE80001F1010E0101026FEF0E0101036F010EF9
:101BF8000101046F000E0101056F040E0101066F5B
:101C080029EC6FF00009D8B41ED02DC10EF12EC1F9
:101C18000FF1040E010158250101366F000E010174
:101C280059210101376F0101365101013125D96E62
:101C38000101375101013221DA6EDF500101106FC5
:101C480060EC69F000D0050E010158250101586FBC
:101C5800000E010159210101596F010133510101A0
:101C6800366F376B010136510101585D0101595139
:101C7800800A0101386F01013751800A0101385982
:101C8800D8B067EF13F002D767EF13F031C1D9FF6F
:101C980032C1DAFF020EDE18D8A422D0010120EEEC
:101CA80002F03151D9263251DA22DE50020176197A
:101CB800D8A467EF13F0000E02016D6F000E020149
:101CC800A06F020E0201A16F000E0101E16F510E1B
:101CD8000101346167EF13F0010E486E67EF13F0EE
:101CE80031C1D9FF32C1DAFF020EDF6467EF13F0AA
:101CF8000B0E0101336567EF13F0010E0101DB6F75
:101D0800000E6BEC76F0010120EE02F03151D9267D
:101D18003251DA22DE5002017619D8A40AD0000E18
:101D280002016D6F000E0201A06F020E0201A16F89
:101D380000D0010120EE01F03151D9263251DA22CA
:101D4800DE5002017619D8A498D16E0E0101006FF9
:101D5800020E0101016F000E0101026F31C103F192
:101D680032C104F1030E0101056F040E0101066F73
:101D780029EC6FF00009D8B480D1010120EE01F000
:101D88003151D9263251DA22DF500101B46F010EE8
:101D98000001B86F2DC106F12EC107F1ED0E01014A
:101DA800086F020E0101096F040E01010A6F0EECA3
:101DB80074F0010120EE07F03151D9263251DA22B0
:101DC8000101EF51DE18D8A424D0010120EE08F05B
:101DD8003151D9263251DA220101F051DE18D8A446
:101DE80018D0010120EE09F03151D9263251DA22FA
:101DF8000101F151DE18D8A40CD0010120EE0AF03F
:101E08003151D9263251DA220101F251DE18D8B403
:101E180034D131C1D9FF32C1DAFF040EDE18D8B48B
:101E280029D101D027D131C100F132C101F1030E0E
:101E38000101026FEF0E0101036F010E0101046F32
:101E4800000E0101056F040E0101066F29EC6FF009
:101E58000009D8A40FD101D00DD1010120EE0BF05B
:101E68003151D9263251DA220201A251DE5CD8B0B2
:101E780003D0000E1200FED0D3C250F1D4C251F1EB
:101E8800D5C252F1D6C253F131C100F132C101F1CC
:101E9800070E0101026F440E0101036F010E0101DB
:101EA800046F000E0101056F040E0101066FE6ECD8
:101EB8006BF0440E01010B6F010E01010C6F500E07
:101EC80001010D6F010E01010E6F25EC44F00101B7
:101ED8004D6F01015569500E0101066F010E010198
:101EE800076FEB0E0101086F010E0101096F040E67
:101EF80001010A6F15EC73F00009D8A40AD0500E3E
:101F080001010E6F010E01010F6F67EC6FF0010107
:101F1800556F6E0E0101066F020E0101076FF50E77
:101F28000101086F020E0101096F040E01010A6F19
:101F38000EEC74F076C257F0A3EC79F00201766FDC
:101F4800040E0201776F060E02016D6F000E02018A
:101F5800A06F020E0201A16F31C100F132C101F17F
:101F6800030E0101026F720E0101036F020E0101DF
:101F7800046F000E0101056F040E0101066FE6EC07
:101F88006BF0EF0E0101066F010E0101076F6E0E77
:101F98000101086F020E0101096F040E01010A6FA9
:101FA8000EEC74F0000E0201A26F1D0E0201786F94
:101FB8002B0E0201796F440E0101006F010E010121
:101FC800016F000E0101026F780E0101036F020E0E
:101FD8000101046F020E0101056F040E0101066F75
:101FE800E6EC6BF0500E0101006F010E0101016F6C
:101FF800000E0101026F780E0101036F020E01014C
:10200800046F060E0101056F040E0101066FE6EC70
:102018006BF02DC100F12EC101F1000E0101026F1C
:10202800780E0101036F020E0101046F0A0E01010F
:10203800056F040E0101066FE6EC6BF04DC186F2E8
:1020480055C187F201015551060D040EF326000E05
:10205800F422BD0EF324D96E0A0EF420DA6EDF5096
:102068000F0B0201886F110E02019E6F000E010115
:10207800E16F00D0000E120000D002016D51D8A40B
:1020880008D00001B851D8A404D002019F51D8B497
:102098004DD0720E0101066F020E0101076F030E8B
:1020A800010131250101086F000E010132210101F2
:1020B800096F040E01010A6F15EC73F00009D8B41A
:1020C80032D002016D51D8B42ED00001B851D8A435
:1020D8002AD002019F51D8A426D0010120EE01F098
:1020E8003151D9263251DA225750DE18D8A41ED0E1
:1020F800F50E0101006F020E0101016F000E0101D2
:10210800026F31C103F132C104F1030E0101056F01
:10211800040E0101066F29EC6FF00009D8B406D04F
:10212800000E120003D0000E120000D0010120EEB4
:1021380007F03151D9263251DA220101EF51DE1868
:10214800D8A424D0010120EE08F03151D92632510B
:10215800DA220101F051DE18D8A418D0010120EECE
:1021680009F03151D9263251DA220101F151DE1834
:10217800D8A40CD0010120EE0AF03151D9263251F1
:10218800DA220101F251DE18D8B4D0D0010120EED4
:102198000BF03151D9263251DA221F0EDE18D8A49D
:1021A80002D0000E12006E0E0101066F020E010130
:1021B800076FF50E0101086F020E0101096F040E89
:1021C80001010A6F0EEC74F076C257F0010120EE9F
:1021D80001F03151D9263251DA22DF500201766FEF
:1021E80031C1D9FF32C1DAFFDF500201776F060E25
:1021F80002016D6F000E0201A06F020E0201A16FB5
:1022080031C100F132C101F1070E0101026F720EF6
:102218000101036F020E0101046F000E0101056F39
:10222800040E0101066FE6EC6BF031C100F132C11A
:1022380001F1030E0101026F6E0E0101036F020E20
:102248000101046F000E0101056F040E0101066F04
:10225800E6EC6BF0010120EE0BF03151D92632513A
:10226800DA22DF500101366F010136290201A26F1F
:1022780031C100F132C101F10C0E0101026F780E7B
:102288000101036F020E0101046F000E0101056FC9
:1022980001013351F40F0101066FE6EC6BF0010107
:1022A8003351F40F02019E6F000E0101E16F01012D
:1022B80020EE01F03151D9263251DA22DF500101E6
:1022C800B46F010E0001B86F2DC106F12EC107F1E0
:1022D800ED0E0101086F020E0101096F040E0101E4
:1022E8000A6F0EEC74F02DC121F12EC122F134C118
:1022F80023F1010E0101246F010E0101256F56EC37
:102308003DF00101576F6E0E0101156F020E0101BC
:10231800166F57C117F1A2C218F1000E0101196F0B
:10232800010E01011A6F2DEC1EF0CDD16E0E0101C8
:10233800066F020E0101076FF50E0101086F020E0C
:102348000101096F040E01010A6F0EEC74F076C2E8
:1023580057F0010120EE01F03151D9263251DA222D
:10236800DF500201766F31C1D9FF32C1DAFFDF5089
:102378000201776F000E02016D6F000E0201A06F5F
:10238800020E0201A16F31C100F132C101F1070E45
:102398000101026F720E0101036F020E0101046F49
:1023A800000E0101056F040E0101066FE6EC6BF0EB
:1023B80031C100F132C101F1030E0101026F6E0E4D
:1023C8000101036F020E0101046F000E0101056F88
:1023D800040E0101066FE6EC6BF031C100F132C169
:1023E80001F1030E0101026F2FC103F130C104F1A5
:1023F800000E0101056F040E0101066FE6EC6BF09B
:10240800010120EE0BF03151D9263251DA22DF508A
:102418000101366F010136290201A26F31C100F1B5
:1024280032C101F10C0E0101026F780E0101036F38
:10243800020E0101046F000E0101056F0101335105
:10244800F40F0101066FE6EC6BF001013351F40F54
:1024580002019E6F010120EE01F03151D92632515F
:10246800DA22DF500101B46F010E0001B86F2DC1EF
:1024780006F12EC107F1ED0E0101086F020E0101F0
:10248800096F040E01010A6F0EEC74F0000E0101D1
:10249800E16F2DC121F12EC122F134C123F1010ECA
:1024A8000101246F010E0101256F56EC3DF0010179
:1024B800576F6E0E0101156F020E0101166F57C19D
:1024C80017F1A2C218F1000E0101196F010E0101E6
:1024D8001A6F2DEC1EF0090E02017719D8A405D049
:1024E8000201795100EC7AF0EED002017839E84225
:1024F800070B0101566F010156510101D8B41ED0D6
:102508000101D351D8B41AD00D0E010131250101B2
:10251800006F000E010132210101016FF30E01016C
:1025280033250101026F0101036BFF0E032356C11E
:1025380004F10BEC62F0010E1200C5D001015651F6
:102548000101D8A409D00101D351D8A405D0F3D7EB
:1025580003D0F1D71200B7D0020178511F0B0C0A33
:10256800D8B4E9D7020178511F0B1E0AD8A407D0A6
:1025780002017951D8A403D0DED71200A4D0D7C263
:1025880048F1D8C249F1D9C24AF1DAC24BF131C196
:1025980000F132C101F1070E0101026F3B0E01018A
:1025A800036F010E0101046F000E0101056F040E97
:1025B8000101066FE6EC6BF03B0E01010B6F010E9B
:1025C80001010C6F480E01010D6F010E01010E6F24
:1025D80025EC44F001013F69480E0101066F010E28
:1025E8000101076FEB0E0101086F010E0101096F70
:1025F800040E01010A6F15EC73F00009D8A40AD083
:10260800480E01010E6F010E01010F6F67EC6FF0AC
:1026180001013F6F6E0E0101066F020E0101076F87
:10262800F50E0101086F020E0101096F040E010188
:102638000A6F0EEC74F076C257F0A3EC79F0020141
:10264800766F040E0201776F060E02016D6F000EA1
:102658000201A06F020E0201A16F31C100F132C167
:1026680001F1030E0101026F720E0101036F020EE8
:102678000101046F000E0101056F040E0101066FD0
:10268800E6EC6BF0EF0E0101066F010E0101076F1A
:102698006E0E0101086F020E0101096F040E01019F
:1026A8000A6F0EEC74F0000E0201A26F1D0E0201FB
:1026B800786F2C0E0201796F020E02019E6F000ED8
:1026C8000101E16F00D0000E120012008AC12DF145
:1026D8008BC12EF1A20E01012F6F010E0101306F87
:1026E8008CC131F18DC132F18EC133F18FC134F11A
:1026F80090C135F19FEC0CF00009D8B41200000E1F
:102708000101A06F010120EE0CF08C51D9268D51EA
:10271800DA22DF501F0B0101A16F0101A7691B0E0F
:102728000101A1650BD0010120EE0DF08C51D926D5
:102738008D51DA22DF500101A76F00D0000E010190
:10274800996F0C0E01018C250101006F000E01012B
:102758008D210101016F020E0101026F0C0E0101B2
:102768008C250101036F000E01018D210101046F09
:10277800060E0101056F040E0101066F29EC6FF0CA
:102788000009D8B426D00C0E01018C250101006F78
:10279800000E01018D210101016F060E0101026F7A
:1027A8000C0E01018C250101036F000E01018D2122
:1027B8000101046F0A0E0101056F040E0101066F85
:1027C80029EC6FF00009D8B404D0010E0101996F0B
:1027D80000D099C1A8F1000E01019A6F0C0E0101F9
:1027E8008C250101006F000E01018D210101016F8F
:1027F800030E0101026F0C0E01018C250101036F0C
:10280800000E01018D210101046F070E0101056F02
:10281800040E0101066F29EC6FF00009D8B426D028
:102828000C0E01018C250101006F000E01018D21A4
:102838000101016F070E0101026F0C0E01018C25C9
:102848000101036F000E01018D210101046F0B0EC0
:102858000101056F040E0101066F29EC6FF00009F4
:10286800D8B404D0010E01019A6F00D09AC19BF12F
:1028780046EF18F062EF18F01AD062EF18F0190E50
:1028880001018E19D8A462EF18F00D0E01018C25F4
:102898000101186F000E01018D210101196F000E51
:1028A80001011A6F0AEC71F062EF18F044D0010EC2
:1028B8000101A06F62EF18F0010120EE0EF08C51BB
:1028C800D9268D51DA22410EDE18D8A4F7D301019A
:1028D80020EE0FF08C51D9268D51DA22530EDE18D6
:1028E800D8A4ECD3010120EE10F08C51D9268D51DB
:1028F800DA22460EDE18D8A4E1D3F40E0101066FE1
:10290800030E0101076F110E01018C250101086FEB
:10291800000E01018D210101096F0B0E01010A6FE3
:1029280015EC73F00009D8B4C9D3000E0101E26FA9
:10293800C6EC2EF0C3D30101A751030AD8B4B7D708
:10294800290AD8B4B9D7BAD306D10101A8510101CF
:10295800D8B4B4D30E0E01018C250101186F000EF6
:1029680001018D210101196F000E01011A6F0AEC96
:1029780071F0A4D301019B510101D8B417D00F0EF7
:1029880001018C250101206F000E01018D2101013B
:10299800216F010120EE0EF08C51D9268D51DA22DB
:1029A800DF500101226FC5EC51F088D3A20E01015E
:1029B800186F010E0101196F2D0E01011A6F010127
:1029C80020EE01F08C51D9268D51DA22DF50010119
:1029D8001B6F32EC75F072D301019B510101D8B421
:1029E80017D00F0E01018C2501010E6F000E010199
:1029F8008D2101010F6F010120EE0EF08C51D926B7
:102A08008D51DA22DF500101106FD9EC4BF056D30B
:102A1800A20E0101186F010E0101196F2D0E01019F
:102A28001A6F010120EE01F08C51D9268D51DA225E
:102A3800DF5001011B6F32EC75F040D30101A85142
:102A48000101D8A43BD301D039D3A20E0101186FDC
:102A5800010E0101196F2D0E01011A6F010120EEFF
:102A680001F08C51D9268D51DA22DF5001011B6FFC
:102A780032EC75F023D30101A8510101D8B41ED35B
:102A88000E0E01018C250101186F000E01018D2128
:102A98000101196FECEC74F011D3010120EE0EF076
:102AA8008C51D9268D51DA22520EDE18D8A419D0AD
:102AB800010120EE0FF08C51D9268D51DA22530EE8
:102AC800DE18D8A40ED0010120EE10F08C51D926C2
:102AD8008D51DA22490EDE18D8A403D0E9EC79F03A
:102AE800EDD2A20E0101186F010E0101196F2D0E12
:102AF80001011A6F010120EE01F08C51D9268D5188
:102B0800DA22DF5001011B6F32EC75F0D7D20101D8
:102B1800A8510101D8B4D2D20E0E01018C250101B1
:102B2800186F000E01018D210101196F6CEC73F013
:102B3800C5D20101A8510101D8B4C0D20E0E0101BD
:102B48008C250101186F000E01018D210101196FFB
:102B580058EC6AF0B3D20101A751000AD8B4F5D6EF
:102B6800040AD8B4ABD2240AD8B404D7010AD8B41A
:102B780033D7030AD8B462D7010AD8B47CD7070A76
:102B8800D8B48BD7010AD8B4C2D70B0AD8B4D1D7D6
:102B980095D25AD20E0E01018C2501012F6F000E1D
:102BA80001018D210101306FF1EC3BF0A20E010112
:102BB800186F010E0101196FECEC74F07FD28CC113
:102BC80000F18DC101F10E0E0101026FDE0E01014F
:102BD800036F000E0101046F000E0101056F040E62
:102BE8000101066FE6EC6BF00D0E01018C25010169
:102BF800186F000E01018D210101196F6CEC73F043
:102C08005DD28CC100F18DC101F10E0E0101026F80
:102C18008CC103F18DC104F1170E0101056F040E7B
:102C28000101066F29EC6FF00009D8B499D08CC166
:102C380000F18DC101F1170E0101026F8CC103F182
:102C48008DC104F1200E0101056F040E0101066F0C
:102C580029EC6FF00009D8B483D08CC100F18DC184
:102C680001F1120E0101026F8CC103F18DC104F153
:102C78001B0E0101056F040E0101066F29EC6FF0B0
:102C88000009D8B46DD08CC100F18DC101F11B0EC3
:102C98000101026F8CC103F18DC104F1240E010101
:102CA800056F040E0101066F29EC6FF00009D8B416
:102CB80057D0010120EE1FF08C51D9268D51DA2210
:102CC800010110EE16F08C51E1268D51E222DE5002
:102CD800E618D8A445D0010120EE28F08C51D92659
:102CE8008D51DA22010110EE1FF08C51E1268D5131
:102CF800E222DE50E618D8A433D00E0E01018C254E
:102D080001012A6F000E01018D2101012B6F120EA6
:102D180001018C2501012C6F000E01018D2101019B
:102D28002D6F010120EE16F08C51D9268D51DA2233
:102D3800DF5001012E6FC0EC73F0A20E0101186F75
:102D4800010E0101196F0E0E01018C2501011A6F88
:102D5800000E01018D2101011B6F9AEC4FF0AED1DD
:102D6800A20E0101186F010E0101196F2D0E01014C
:102D78001A6F010120EE01F08C51D9268D51DA220B
:102D8800DF5001011B6F32EC75F098D10E0E010176
:102D98008C2501010E6F000E01018D2101010F6FBD
:102DA80007EC68F0A20E0101186F010E0101196FFE
:102DB800010E01011A6F0AEC71F080D1010120EEB9
:102DC8000EF08C51D9268D51DA22520EDE18D8A475
:102DD80075D1010120EE0FF08C51D9268D51DA22E0
:102DE800530EDE18D8A46AD1010120EE10F08C51E0
:102DF800D9268D51DA22540EDE18D8A45FD1FF00EF
:102E08005DD1010120EE0EF08C51D9268D51DA22C8
:102E1800530EDE18D8A452D1010120EE0FF08C51C8
:102E2800D9268D51DA22460EDE18D8A447D10101E1
:102E380020EE10F08C51D9268D51DA22540EDE186E
:102E4800D8A43CD1A20E0101186F010E0101196F1F
:102E5800A9EC6AF0010120EE11F08C51D9268D51B0
:102E6800DA22DF500001DC6F150E0101276F7C0E9E
:102E7800266F000E0101286F110EDCEC6DF01ED1DB
:102E8800010120EE0EF08C51D9268D51DA22530E15
:102E9800DE18D8A458D0010120EE0FF08C51D926A5
:102EA8008D51DA22520EDE18D8A44DD0010120EE41
:102EB80010F08C51D9268D51DA22460EDE18D8A48E
:102EC80042D0010120EE11F08C51D9268D51DA2221
:102ED800040EDF6038D0010120EE11F08C51D926A4
:102EE8008D51DA22DF500101986F010120EE12F0B6
:102EF8008C51D9268D51DA22DF500101916F0101E1
:102F0800915101019D6F9E6B01019D5101019E6FC1
:102F18009D6B010120EE13F08C51D9268D51DA22D8
:102F2800DF500101916F0101915101019D27000EB0
:102F38009E239DC126F19EC127F198C128F1010E5B
:102F4800DCEC6DF0BBD0A20E0101186F010E01017F
:102F5800196F2D0E01011A6F010120EE01F08C513D
:102F6800D9268D51DA22DF5001011B6F32EC75F042
:102F7800A5D00101A8510101D8B4A0D0010120EECB
:102F88001BF08C51D9268D51DA22DF500101916F47
:102F9800010191510101B06FB16B0101B051010103
:102FA800B16FB06B010120EE1AF08C51D9268D510A
:102FB800DA22DF500101916F010191510101B0271F
:102FC800000EB1230101B005090E0101B159D8A0C5
:102FD80006D0000E0101B16F000EB06F6FD0010175
:102FE80020EE1CF08C51D9268D51DA22DF500001D9
:102FF800DC6F0E0E01018C250101186F000E010116
:103008008D210101196FD1EC70F0010120EE1DF046
:103018008C51D9268D51DA22DF50516E1E0E0101D6
:103028008C250101066F000E01018D210101076F3A
:10303800F40E0101086F030E0101096F0B0E010167
:103048000A6F0EEC74F03AD00101A751040AD8B403
:1030580090D7270AD8B49ED5060AD8B4B0D5030AA3
:10306800D8B4CFD5010AD8B491D60F0AD8B4A6D609
:10307800010AD8B423D0030AD8B4C3D66A0AD8B48C
:10308800FFD61CD00101A151000AD8B417D0020AFA
:10309800D8B40DD4060AD8B411D0080AD8B443EF6E
:1030A80014F0100AD8B40AD0010AD8B444D4030AD8
:1030B800D8B451D5010AD8B4C7D700D00101A0515E
:1030C8000101D8A420D00C0E01018C250101816FCB
:1030D800000E01018D210101826F8FC183F1A20EC3
:1030E8000101846F010E0101856FA1C186F1A7C19D
:1030F80087F101018E51F40F0101886FEEEC3FF06A
:103108000101A06F00D00101A0510101D8B4120043
:10311800E40E0101126FFF0E0101136F8FEC31F005
:103128000101CB51D8A423D1010E0001BB6F0101CD
:103138008E51FD0F01019C6F000E0101016F020EFF
:10314800006F240E0101026F99EC59F0000E010185
:10315800016F020E006F240E0101026F99EC59F005
:10316800000E0101016F020E006F9CC102F199EC83
:1031780059F0000E0101016F020E006F000E0101EF
:10318800026F99EC59F0000E01019F6F000E0101CA
:10319800016F020E006F010120EE03F08C51D92659
:1031A8008D51DA22DF500101026F99EC59F00101CB
:1031B80020EE03F08C51D9268D51DA22DF5001011F
:1031C8009F1B000E0101016F020E006F010120EE2E
:1031D80004F08C51D9268D51DA22DF500101026F9B
:1031E80099EC59F0010120EE04F08C51D9268D514B
:1031F800DA22DF5001019F1B000E0101016F020E50
:10320800006F010120EE05F08C51D9268D51DA228C
:10321800DF500101026F99EC59F0010120EE05F031
:103228008C51D9268D51DA22DF5001019F1B000EE7
:103238000101016F020E006F010120EE06F08C51B2
:10324800D9268D51DA22DF500101026F99EC59F02D
:10325800010120EE06F08C51D9268D51DA22DF507B
:1032680001019F1B000E0101A66F38D0000E01015D
:10327800016F020E006F0101A6510101916F926B5F
:103288000C0E01019127000E9223010191510101B9
:103298008C25D96E0101925101018D21DA6EDF5022
:1032A8000101026F99EC59F00101A6510101916FDA
:1032B800926B0C0E01019127000E9223010191518E
:1032C80001018C25D96E0101925101018D21DA6E1F
:1032D800DF5001019F1B0101A62B00D0F70E010151
:1032E800916FFF0E0101926F01019C510101936FD3
:1032F800946B010191510101932701019251010140
:1033080094230101A6510101956F966B0101935118
:103318000101955D01019651800A0101976F010134
:103328009451800A01019759D8A0A0D7000E010135
:10333800016F020E006F9FC102F199EC59F0000E67
:103348000101016F020E006F0D0E0101026F99EC71
:1033580059F0000E0101016F020E006F0A0E010103
:10336800026F99EC59F0000E0001BB6F00D0CD0E32
:103378000101126FFF0E0101136F8FEC31F0120083
:10338800120001015A6F02016D51D8A414D0000136
:10339800B851D8A410D002019F51D8A40CD0010173
:1033A8004A05D8A408D0010E0101486F01015A51FD
:1033B800BFEC79F008D0000E0101486F01015A51A5
:1033C800BFEC79F000D08F0E01015B6F030E010195
:1033D8005C6F60EC7AF00009D8A416D0E3C20CF157
:1033E800E4C20DF197EC66F0010E01010C25020113
:1033F8002E6F000E01010D2102012F6F000E020138
:10340800E66F000EE56F00D04CEC7AF00009D8B4F6
:10341800DED002019F51D8B47BD001015A5101017D
:10342800D8B476D0000E02019F6F5BC1D9FF5CC192
:10343800DAFF77C2DFFF010120EE01F05B51D926E8
:103448005C51DA2276C2DFFF010120EE02F05B5107
:10345800D9265C51DA22B4C1DFFF6E0E0101006F7C
:10346800020E0101016F000E0101026F5BC103F141
:103478005CC104F1030E0101056F040E0101066F22
:10348800E6EC6BF0720E0101006F020E0101016F94
:10349800000E0101026F5BC103F15CC104F1070E6C
:1034A8000101056F040E0101066FE6EC6BF00101E6
:1034B80020EE0BF05B51D9265C51DA22A2C2DFFF65
:1034C800780E0101006F020E0101016F000E01016B
:1034D800026F5BC103F15CC104F10C0E0101056FC1
:1034E8009EC206F1E6EC6BF0EB0E0101326F010EA5
:1034F8000101336F840E0101346F030E0101356F32
:1035080002019E510C0F0101366F83EC62F05BD013
:1035180002012E510201E51956E102012F51020163
:10352800E619D8A450D001015A510101D8B442D0AB
:1035380054EC7AF00009D8B43DD00101FA51D8B45E
:1035480027D0FCEC28F00101516FEB0E0101326F1E
:10355800010E0101336F840E0101346F030E010166
:10356800356F51C136F183EC62F00009D8A42BD035
:1035780001D029D00201E35102012E5D0201E4517C
:1035880002012F59D8B01FD002012E4B2F2B1BD070
:10359800EB0E0101326F010E0101336F840E010140
:1035A800346F030E0101356F000E0101366F83EC95
:1035B80062F009D0220E0101126FFE0E0101136F95
:1035C8008FEC31F000D00201E54BE62BE3D2CFC2FD
:1035D80056F1D0C257F1D1C258F1D2C259F1010106
:1035E800E151D8A4C1D00101E12B0201A051D8A416
:1035F800B8D0010E02016D65CDD2720E01010B6FBC
:10360800020E01010C6F560E01010D6F010E010132
:103618000E6F25EC44F00101526F0001B851D8B487
:1036280016D0560E0101066F010E0101076FED0E4F
:103638000101086F020E0101096F040E01010A6FF2
:1036480015EC73F00009D8A4A5D201D0A3D2A1C269
:103658000CF101010D6B97EC66F001010C510201B0
:10366800A06F01015A510101D8B494D202016D072B
:103678000201A12B1F0E010152618CD25BC1D9FF3F
:103688005CC1DAFF77C2DFFF010120EE01F05B5178
:10369800D9265C51DA2276C2DFFF010120EE02F062
:1036A8005B51D9265C51DA22B4C1DFFF6E0E0101ED
:1036B800006F020E0101016F000E0101026F5BC174
:1036C80003F15CC104F1030E0101056F040E010151
:1036D800066FE6EC6BF0720E0101006F020E01013D
:1036E800016F000E0101026F5BC103F15CC104F1BF
:1036F800070E0101056F040E0101066FE6EC6BF081
:10370800010120EE0BF05B51D9265C51DA22A2C2EE
:10371800DFFF780E0101006F020E0101016F000E3C
:103728000101026F5BC103F15CC104F10C0E0101E0
:10373800056F9EC206F1E6EC6BF0560E0101326F82
:10374800010E0101336F840E0101346F030E010174
:10375800356F02019E510C0F0101366F83EC62F048
:1037680019D20201A00716D20101E105D8A4E8D0B8
:103778000001B851D8B4E4D00101E12B720E010167
:103788000B6F020E01010C6F560E01010D6F010E39
:1037980001010E6F25EC44F00101536F010E020187
:1037A8006D659CD0560E0101066F010E0101076F71
:1037B800ED0E0101086F020E0101096F040E0101EF
:1037C8000A6F15EC73F00009D8B488D0000E020116
:1037D8006D6F000E0201A06F020E0201A16F0101C0
:1037E8005A510101D8B4D6D11F0E01015361D2D16B
:1037F800000E0001B86F5BC1D9FF5CC1DAFF77C268
:10380800DFFF010120EE01F05B51D9265C51DA227D
:1038180076C2DFFF010120EE02F05B51D9265C5130
:10382800DA22B4C1DFFF6E0E0101006F020E010142
:10383800016F000E0101026F5BC103F15CC104F16D
:10384800030E0101056F040E0101066FE6EC6BF033
:10385800720E0101006F020E0101016F000E0101DD
:10386800026F5BC103F15CC104F1070E0101056F32
:10387800040E0101066FE6EC6BF0010120EE0BF07F
:103888005B51D9265C51DA22A2C2DFFF780E010112
:10389800006F020E0101016F000E0101026F5BC192
:1038A80003F15CC104F10C0E0101056F9EC206F123
:1038B800E6EC6BF0560E0101326F010E0101336F19
:1038C800840E0101346F030E0101356F02019E5110
:1038D8000C0F0101366F83EC62F05CD1000E000121
:1038E800B86F5BC1D9FF5CC1DAFF020EDF6E010160
:1038F80020EE01F05B51D9265C51DA22000EDF6E12
:10390800010120EE02F05B51D9265C51DA22B4C1E4
:10391800DFFF01015A510101D8B43CD1ED0E01017C
:10392800326F020E0101336F840E0101346F030EF2
:103938000101356F030E0101366F83EC62F02AD165
:10394800020E0101E16523D102016D05D8A41BD146
:10395800AD0E0101126FFE0E0101136F8FEC31F0F5
:10396800720E01010B6F020E01010C6F560E010160
:103978000D6F010E01010E6F25EC44F00101546F2B
:1039880001015569560E0101066F010E0101076F0D
:10399800EB0E0101086F010E0101096F040E010110
:1039A8000A6F15EC73F00009D8A40BD0560E01016C
:1039B8000E6F010E01010F6F67EC6FF00101556F7B
:1039C80000D0040E02017719D8B414D06E0E01018C
:1039D800066F020E0101076FEF0E0101086F010E5D
:1039E8000101096F040E01010A6F15EC73F000095B
:1039F800D8B40AD0000E02016D6F000E0201A06F4C
:103A0800020E0201A16FBFD06E0E0101066F020EF9
:103A18000101076FEF0E0101086F010E0101096F27
:103A2800040E01010A6F15EC73F00009D8A4ABD09D
:103A380001D0A9D06E0E0101066F020E0101076FB9
:103A4800F50E0101086F020E0101096F040E010154
:103A58000A6F0EEC74F076C257F0A3EC79F002010D
:103A6800766F040E0201776F060E02016D6F000E6D
:103A78000201A06F020E0201A16F720E0101066F12
:103A8800020E0101076F4D0E0101086F010E0101C1
:103A9800096F040E01010A6F0EEC74F06E0E01013D
:103AA800066F020E0101076F720E0101086F020E08
:103AB8000101096F040E01010A6F0EEC74F0EF0E9C
:103AC8000101066F010E0101076F6E0E0101086FFB
:103AD800020E0101096F040E01010A6F0EEC74F069
:103AE800000E0201A26F1D0E0201786F2B0E02015B
:103AF800796F4D0E0101006F010E0101016F000E7B
:103B08000101026F780E0101036F020E0101046FBB
:103B1800020E0101056F040E0101066FE6EC6BF061
:103B2800560E0101006F010E0101016F000E010127
:103B3800026F780E0101036F020E0101046F060E79
:103B48000101056F040E0101066FE6EC6BF054C12C
:103B580082F255C183F201015551060D040EF32678
:103B6800000EF422BD0EF324D96E0A0EF420DA6E8C
:103B7800DF500F0B0201846F0D0E02019E6F000EC5
:103B88000101E16F00D0000E0101E16F03D00101D6
:103B9800E12B00D060EC7AF00009D8A409D03E2AC5
:103BA800020E3E6405D05DEC4DF0000E3E6E00D076
:103BB800392A0101F951395CD8A03ED00101B5512B
:103BC800020DC90EF324D96E080EF420DA6EDF3820
:103BD800E832E832030B0009D8B422D0010E010103
:103BE8004B6F0101B551020DC90EF324D96E080EB1
:103BF800F420DA6EDF3801014C6F4C334C31030B83
:103C08004C6F01014B5101014C5F01014C3B4C379A
:103C18004C37DF5001014C193F0B4C19DF6E00D0B7
:103C28000101B52BF90E0101B56503D0000E0101A4
:103C3800B56F000E396E00D0070EBAEC75F00009AA
:103C4800D8B41200BAEC3EF0010E0101FA6F12006E
:103C5800120015C106F116C107F1EF0E0101086F38
:103C6800010E0101096F040E01010A6F15EC73F0D2
:103C78000009D8A4120001D0120001011729D8B4F4
:103C8800120001D01200030E0101086F0101175143
:103C9800060D050EF326000EF422BD0EF324D96E90
:103CA8000A0EF420DA6EDF50B9EC48F00101196110
:103CB80051D0030E0101086F01011751060D050EC1
:103CC800F326000EF422BD0EF324D96E0A0EF4205A
:103CD800DA6EDF50B9EC48F001011B6F0101175192
:103CE800060D040EF326000EF422BD0EF324D96E41
:103CF8000A0EF420DA6EDF380F0BB6EC76F001010D
:103D08001B5DD8B012D001011751060D040EF32621
:103D1800000EF422BD0EF324D96E0A0EF420DA6EDA
:103D2800DF380F0BB6EC76F03AD0030E0101086FBE
:103D380001011751060D050EF326000EF422BD0EE3
:103D4800F324D96E0A0EF420DA6EDF50B9EC48F08D
:103D580026D02BD001011751060D040EF326000EB4
:103D6800F422BD0EF324D96E0A0EF420DA6EDF3881
:103D78000F0BB6EC76F00101196114D0010117514F
:103D8800060D040EF326000EF422BD0EF324D96EA0
:103D98000A0EF420DA6EDF380F0BB6EC76F001016C
:103DA8001F6F03D019C11FF100D0000E0101206F51
:103DB800F90E0101206501D06BD215C104F116C1BD
:103DC80005F10101205117EC60F00009D8B45DD26B
:103DD80001012051020DC90EF324D96E080EF420FA
:103DE800DA6EDF503F0B0DEC69F001011C6F010129
:103DF8002051020D010EF326000EF422C90EF32401
:103E0800D96E080EF420DA6EDF38E832070B0101AC
:103E18001B6F01011C5101011B5DD8B019D01CC1D9
:103E28001BF101012051020D010EF326000EF422B0
:103E3800C90EF324D96E080EF420DA6E01011B3B7B
:103E48001B47DF5001011B191F0B1B19DF6E00D028
:103E580001011A510101D8B42DD001012051020DE0
:103E6800010EF326000EF422C90EF324D96E080EB3
:103E7800F420DA6EDF5001011819E00B1819DF6E13
:103E880001012051020DC90EF324D96E080EF42049
:103E9800DA6EDF5001011719C00B1719DF6E010127
:103EA8002051020DC90EF324D96E080EF420DA6EE3
:103EB800C00EDF1201012051020DC90EF324D96E84
:103EC800080EF420DA6EDF503F0B01011719D8A451
:103ED80044D01FC11BF101012051020D010EF32630
:103EE800000EF422C90EF324D96E080EF420DA6EFF
:103EF80001011B3B1B47DF5001011B191F0B1B193D
:103F0800DF6E01012051020D010EF326000EF4228E
:103F1800C90EF324D96E080EF420DA6EDF501F0B99
:103F280001011819D8B405D00101175157EC77F0E1
:103F380000D001012051020D010EF326000EF422DB
:103F4800C90EF324D96E080EF420DA6EDF50010191
:103F58001819E00B1819DF6E120001012051020D2B
:103F6800C90EF324D96E080EF420DA6EDF38E83271
:103F7800E832030B0009D8A4120001012051020DF8
:103F8800010EF326000EF422C90EF324D96E080E92
:103F9800F420DA6EDF38E832070B070AD8A43BD0E2
:103FA80001012051020D010EF326000EF422C90E64
:103FB800F324D96E080EF420DA6EDF5001011819C7
:103FC800E00B1819DF6E01012051020DC90EF32410
:103FD800D96E080EF420DA6EDF5001011719C00BF4
:103FE8001719DF6E1FC11BF101012051020D010ECF
:103FF800F326000EF422C90EF324D96E080EF4201D
:10400800DA6E01011B3B1B47DF5001011B191F0B17
:104018001B19DF6E120001012051020D010EF3265B
:10402800000EF422C90EF324D96E080EF420DA6EBD
:10403800DF501F0B0101186145D001011F5100011C
:10404800DD5DD8A0120001012051020D010EF326FA
:10405800000EF422C90EF324D96E080EF420DA6E8D
:10406800DF5001011819E00B1819DF6E010120510A
:10407800020DC90EF324D96E080EF420DA6EDF5053
:1040880001011719C00B1719DF6E1FC11BF10101C0
:104098002051020D010EF326000EF422C90EF3245E
:1040A800D96E080EF420DA6E01011B3B1B47DF5066
:1040B80001011B191F0B1B19DF6E0101175157EC6A
:1040C80077F0120001012051020D010EF326000EB7
:1040D800F422C90EF324D96E080EF420DA6EDF50EC
:1040E8001F0B01011819D8A461D001012051020D3C
:1040F800010EF326000EF422C90EF324D96E080E21
:10410800F420DA6EDF38E832070B01011F61120074
:1041180001012051020D010EF326000EF422C90EF2
:10412800F324D96E080EF420DA6EDF38E832070B74
:104138000001DD61120001012051020D010EF3267C
:10414800000EF422C90EF324D96E080EF420DA6E9C
:10415800DF5001011819E00B1819DF6E0101205119
:10416800020DC90EF324D96E080EF420DA6EDF5062
:1041780001011719C00B1719DF6E1FC11BF10101CF
:104188002051020D010EF326000EF422C90EF3246D
:10419800D96E080EF420DA6E01011B3B1B47DF5075
:1041A80001011B191F0B1B19DF6E120001012051A1
:1041B800020D010EF326000EF422C90EF324D96E67
:1041C800080EF420DA6EDF501F0B01011B6F01018E
:1041D800185101011B5DD8B012000001DD51010129
:1041E8001F5DD8B0120001012051020D010EF32607
:1041F800000EF422C90EF324D96E080EF420DA6EEC
:10420800DF38E832070B0001DD611200010120519F
:10421800020D010EF326000EF422C90EF324D96E06
:10422800080EF420DA6EDF5001011819E00B181996
:10423800DF6E01012051020DC90EF324D96E080E5C
:10424800F420DA6EDF5001011719C00B1719DF6E61
:104258001FC11BF101012051020D010EF326000EB2
:10426800F422C90EF324D96E080EF420DA6E010187
:104278001B3B1B47DF5001011B191F0B1B19DF6E6E
:104288000101175157EC77F012000101202B90D54E
:104298001F0E0101186160D0000E01011E6FF90E9A
:1042A80001011E6501D058D0EB0E0101046F010E0B
:1042B8000101056F01011E5117EC60F00009D8B427
:1042C80047D015C107F116C108F101011E514FEC85
:1042D8006DF001011E51020D010EF326000EF422AD
:1042E800C90EF324D96E080EF420DA6EDF500101EE
:1042F8001819E00B1819DF6E01011E51020DC90EC5
:10430800F324D96E080EF420DA6EDF500101171974
:10431800C00B1719DF6E1FC11BF101011E51020DE1
:10432800010EF326000EF422C90EF324D96E080EEE
:10433800F420DA6E01011B3B1B47DF5001011B19FA
:104348001F0B1B19DF6E0101175157EC77F0120094
:1043580001011E2BA4D700D01F0E01011861120005
:10436800B4C01DF1F90E01011D6502D01200120042
:1043780001011D51020D010EF326000EF422C90E93
:10438800F324D96E080EF420DA6EDF501F0B1F0AD3
:10439800D8B40ED001011D51020DC90EF324D96EF7
:1043A800080EF420DA6EDF503F0B3F0AD8A454D031
:1043B80015C107F116C108F10001B4514FEC6DF0B9
:1043C8000001B451020D010EF326000EF422C90EAD
:1043D800F324D96E080EF420DA6EDF5001011819A3
:1043E800E00B1819DF6E0001B451020DC90EF32459
:1043F800D96E080EF420DA6EDF5001011719C00BD0
:104408001719DF6E1FC11BF10001B451020D010E17
:10441800F326000EF422C90EF324D96E080EF420F8
:10442800DA6E01011B3B1B47DF5001011B191F0BF3
:104438001B19DF6E0001B451020DC90EF324D96EA9
:10444800080EF420DA6E3F0EDF160101175157EC03
:1044580077F01DC1B4F01200F90E01011D19D8A49E
:1044680004D0000E0001B46F00D001011D2BF90E1D
:1044780001011D657DD7120012001200000E010116
:10448800E56F000E0101E66F000E0101B96F000E25
:104498000101C76F020EBAEC75F00009D8B43BD120
:1044A800010E0101E56F0101BB2B020E0101BB19D1
:1044B800D8A400D1000E0101BB6FFCD0000E010191
:1044C800B96F000E0101276F1E0E266F000E010145
:1044D800286F020EDCEC6DF01ED1010E0101B96FE0
:1044E800000E0101276F1E0E266F000E0101286FB6
:1044F800020EDCEC6DF00FD10101BB05D8A404D08D
:10450800010E0101B96F00D0000E0101276F400EA6
:10451800266F000E0101286F020EDCEC6DF0FBD057
:104528000101BB05D8A404D0010E0101B96F00D068
:10453800000E0101276F7D0E266F000E0101286F06
:10454800020EDCEC6DF0E7D000D00101BB05D8A469
:1045580004D0010E0101B96F00D0000E0101276FD0
:10456800FA0E266F000E0101286F020EDCEC6DF0CA
:10457800D2D00101BB05D8A404D0010E0101B96F46
:1045880000D0010E0101276FF40E266F000E010105
:10459800286F020EDCEC6DF0BED00101BB05D8A47B
:1045A80004D0010E0101B96F00D0030E0101276F7D
:1045B800E80E266F000E0101286F020EDCEC6DF08C
:1045C800AAD00101BB05D8A404D0010E0101B96F1E
:1045D80000D0090E0101276FC40E266F000E0101DD
:1045E800286F020EDCEC6DF096D00101BB05D8A453
:1045F80004D0010E0101B96F00D0130E0101276F1D
:10460800880E266F000E0101286F020EDCEC6DF09B
:1046180082D00101BB05D8A424D0010E0101B96FD5
:104628000101BA510101D8A40DD0000E0101276F74
:10463800500E266F000E0101286F020EDCEC6DF0A3
:10464800010E0CD0090E0101276F740E266F000EA3
:104658000101286F020EDCEC6DF0000E0101BA6F4B
:104668005AD00101BA510101D8B40CD0000E010191
:10467800276F500E266F000E0101286F020EDCEC2A
:104688006DF049D0090E0101276F740E266F000ED8
:104698000101286F020EDCEC6DF03DD0000E010127
:1046A800276F1E0E266F000E0101286F020EDCEC2C
:1046B8006DF031D00101B851000AD8B4FFD6010A13
:1046C800D8B40BD7030AD8B417D7010AD8B428D757
:1046D800070AD8B43AD7010AD8B44BD7030AD8B4D2
:1046E8005CD70D0AD8B431D7070AD8B42ED7010A37
:1046F800D8B42BD7030AD8B428D7010AD8B425D7F9
:104708001F0AD8B45ED7010AD8B46FD7030AD8B441
:1047180080D7C4D700D0030EBAEC75F00009D8B41E
:104728003BD1010E0101E66F0101BC2B020E010114
:10473800BC19D8A400D1000E0101BC6FFCD0000E3A
:104748000101C76F000E0101276F1E0E266F000EB4
:104758000101286F030EDCEC6DF01ED1010E010182
:10476800C76F000E0101276F1E0E266F000E010194
:10477800286F030EDCEC6DF00FD10101BC05D8A445
:1047880004D0010E0101C76F00D0000E0101276F90
:10479800400E266F000E0101286F030EDCEC6DF051
:1047A800FBD00101BC05D8A404D0010E0101C76FDC
:1047B80000D0000E0101276F7D0E266F000E01014B
:1047C800286F030EDCEC6DF0E7D000D00101BC05CA
:1047D800D8A404D0010E0101C76F00D0000E01015A
:1047E800276FFA0E266F000E0101286F030EDCEC0E
:1047F8006DF0D2D00101BC05D8A404D0010E01018E
:10480800C76F00D0010E0101276FF40E266F000E4E
:104818000101286F030EDCEC6DF0BED00101BC0570
:10482800D8A404D0010E0101C76F00D0030E010106
:10483800276FE80E266F000E0101286F030EDCECCF
:104848006DF0AAD00101BC05D8A404D0010E010165
:10485800C76F00D0090E0101276FC40E266F000E26
:104868000101286F030EDCEC6DF096D00101BC0548
:10487800D8A404D0010E0101C76F00D0130E0101A6
:10488800276F880E266F000E0101286F030EDCECDF
:104898006DF082D00101BC05D8A424D0010E01011D
:1048A800C76F0101C8510101D8A40DD0000E010144
:1048B800276F500E266F000E0101286F030EDCECE7
:1048C8006DF0010E0CD0090E0101276F740E266FD2
:1048D800000E0101286F030EDCEC6DF0000E0101E3
:1048E800C86F5AD00101C8510101D8B40CD0000ECC
:1048F8000101276F500E266F000E0101286F030E6D
:10490800DCEC6DF049D0090E0101276F740E266F9B
:10491800000E0101286F030EDCEC6DF03DD0000E97
:104928000101276F1E0E266F000E0101286F030E6E
:10493800DCEC6DF031D00101C651000AD8B4FFD6C5
:10494800010AD8B40BD7030AD8B417D7010AD8B4C8
:1049580028D7070AD8B43AD7010AD8B44BD7030ADC
:10496800D8B45CD70D0AD8B431D7070AD8B42ED733
:10497800010AD8B42BD7030AD8B428D7010AD8B467
:1049880025D71F0AD8B45ED7010AD8B46FD7030A4F
:10499800D8B480D7C4D700D0090E0101B819D8A45B
:1049A8000ED00101E6510101D8B409D00101BC5172
:1049B8000101D8A404D0010E0101B96F00D00A0E7C
:1049C8000101C619D8A40ED00101E5510101D8B4DE
:1049D80009D00101BB510101D8A404D0010E010185
:1049E800C76F00D0080E0101B819D8A40ED0010174
:1049F800E6510101D8B409D00101C7510101D8B469
:104A080004D0010E0101B96F00D0070E0101C619CB
:104A1800D8A40ED00101E5510101D8B409D0010193
:104A2800B9510101D8B404D0010E0101C76F00D0FB
:104A38000101C7510101D8B410D00101C4510101CD
:104A4800D8B403D00101C40700D00101C551010148
:104A5800D8B403D00101C50700D00101B951010143
:104A6800D8B410D00101B6510101D8B403D0010166
:104A7800B60700D00101B7510101D8B403D0010134
:104A8800B70700D00101B7510101D8B403D0000E17
:104A98000101B96F0101C5510101D8B403D0000E5D
:104AA8000101C76F0101B6510101D8B425D036D034
:104AB80023D00A0E0101B76F0101B751040F13D0BB
:104AC8000A0E0101B76F0101B751030F0CD00A0E8E
:104AD8000101B76F0101B751020F05D00A0E01019C
:104AE800B76F0101B7290101B66F18D00A0E01018D
:104AF800B76FB7C1B6F112D00101B8510B0AD8B4DB
:104B0800D8D7070AD8B4DCD7010AD8B4E0D7030A43
:104B1800D8B4E4D7010AD8B4E9D700D00101C45108
:104B28000101D8B425D036D023D00A0E0101C56FB3
:104B38000101C551040F13D00A0E0101C56F01010F
:104B4800C551030F0CD00A0E0101C56F0101C551F3
:104B5800020F05D00A0E0101C56F0101C529010127
:104B6800C46F18D00A0E0101C56FC5C1C4F112D0B7
:104B78000101C6510B0AD8B4D8D7070AD8B4DCD774
:104B8800010AD8B4E0D7030AD8B4E4D7010AD8B4E4
:104B9800E9D700D00101B95176EC79F00101C7518C
:104BA8006AEC79F012000101416F0101CF51D8A4DC
:104BB80004D00101E451D8B442D2800E0101C219D7
:104BC800D8B457D031C00DF132C00EF1E7C20FF1A1
:104BD800E8C210F1AFEC71F001010D5101010E11A5
:104BE800D8A413D0000E01010E6F0101D051010DA0
:104BF800000EF324D96E060EF420DA6EDF50F7ECBF
:104C080077F0010E0101CD6F26D02CC10EF1D0C175
:104C180000F10101016B4AC002F10101036BC90EE9
:104C28000101046F000E056F000E066F000E076F7E
:104C38005CEC70F0000E01010025D96E060E010132
:104C48000121DA6EDF50F7EC77F0000E0101CD6F2D
:104C5800000E3C6E00D0020E0101E419D8A406D063
:104C6800010E0101CF6F000E0101E46F000E4D6EC1
:104C780028D0020E0101E419D8A407D0010E0101C1
:104C8800CF6F000E0101E46F1CD04D2A010E4D6458
:104C980018D0F25000D0070E8EEC5EF0000E010125
:104CA800CF6F000E0101E46F010E546E000E01017A
:104CB800016F040E006F030E0101026F99EC59F0A9
:104CC80000D031043210D8A407D0010E3F6EA2C024
:104CD80033F0A3C034F000D0080EBAEC75F0000928
:104CE800D8B407D00101D651D8B403D0010E4B6E09
:104CF80000D0080EABEC77F00009D8B42ED0010133
:104D0800D651D8A41CD0FCC10CF101010D6B97EC55
:104D180066F001010C510101D76F0101D75100085C
:104D28000101FC250101D66FD7C126F10101276BCE
:104D3800010E0101286F080EDCEC6DF00ED0D6C113
:104D480026F10101276B010E0101286F080EDCEC2A
:104D58006DF0000E0101D66F00D00101D2510101A2
:104D6800D8A406D002013C5102013D11D8B442D169
:104D78000101CD51D8B43ED1010141510101D8B44E
:104D880039D13EC22DF13FC22EF101012D1F2E1F38
:104D98002D4B2E2B040E01010C6F010EFDEC5CF067
:104DA80001012D5101010C250101466F01012E5110
:104DB80001010D210101476F46C12DF147C12EF1B7
:104DC80001012D1F2E1F2D4B2E2B2DC144F12EC15D
:104DD80045F1080E0101475DD8A00BD0FE0E010178
:104DE800465D0F0E01014759D8B003D00101D22BFF
:104DF80036D0010146290F0E01014759D8A00CD021
:104E0800FD0E0101465D170E01014759D8B004D0C7
:104E1800020E0101D22723D0080E0101455DD8A05A
:104E28000BD0FE0E0101445D0F0E01014559D8B0AB
:104E380003D00101D20713D0010144290F0E01014B
:104E48004559D8A00CD0FD0E0101445D170E010193
:104E58004559D8B004D0020E0101D25F00D0040E2B
:104E680001010C6F010EFDEC5CF00CC146F10DC1A7
:104E780047F1A2C000F1A3C001F146C102F147C148
:104E880003F1000E0101046F000E056F010E066F9D
:104E9800000E076F5CEC70F000C137F101C138F10A
:104EA80037C117F138C118F13CC219F13DC21AF1E6
:104EB800000E01011B6F000E1C6F010E1D6F000E0E
:104EC8001E6F68EC63F017C142F118C143F142C18B
:104ED8000DF143C10EF1070E0101106F0F69AFEC20
:104EE80071F00DC13DF10EC13EF13DC10DF13EC164
:104EF8000EF1040E01010F6F010E07EC47F00101DE
:104F08003D510101425F01013E510101435B42C134
:104F1800A2F043C1A3F042C106F143C107F1070E55
:104F28000101096F086968EC6EF006C131F007C12C
:104F380032F0D0C117F10101186BD2C119F101018A
:104F48001A6BC90E01011B6F000E1C6F000E1D6F3E
:104F5800000E1E6F68EC63F0010117510101D06F5C
:104F6800D2C12FF10101306B000E0101D26F000E8A
:104F780002013D6F000E3C6F000E0201336F000E00
:104F8800326F31503210D8A408D0000E326E100E95
:104F9800316E30C2A2F031C2A3F0070E346E33680E
:104FA800020E0101E46F040E01010C6F010EFDEC0D
:104FB8005CF00001A25101010C2501013F6F0001C5
:104FC800A35101010D210101406F60EC7AF001014C
:104FD800316F3FC133F1010140510101326F000EC1
:104FE8000101016F040E006F020E0101026F99ECBE
:104FF80059F021D00101D0510101E319D8A40BD0F7
:105008000101CF51D8B407D0010141510101D8A401
:1050180012D001D010D04B50D8B40DD050EC7AF04B
:105028000009D8B408D0010141510101D8B403D016
:10503800000E4B6E00D002014C4B4D2B4ED0060E8D
:10504800ABEC77F00009D8B41CD0000E01010D6F4D
:10505800320E0C6F97EC66F0540E01010C2501011D
:10506800396F240E01010D2101013A6F39C126F172
:105078003AC127F1000E0101286F060EDCEC6DF035
:1050880000D0060EBAEC75F00009D8B40DD0000EA9
:1050980001010E6F0101FF51F7EC77F0000E0201DC
:1050A800EA6F010EE96F00D00201EA510BE1330EFD
:1050B8000201E95DD8B006D02DEC78F00201E94B89
:1050C800EA2B00D0330E0201E9190201EA11D8A433
:1050D80004D00201E94BEA2B00D00101E3510101A0
:1050E800D8A404D0C80E0101E36F03D00101E3077F
:1050F80000D0050EBAEC75F00009D8A4B5EC72F032
:10510800090EABEC77F00009D8B44CD058EC7AF023
:1051180001012D6F01012D513E0DF3CF3BF1F4CF6D
:105128003CF13BC108F13CC109F141EC77F008C101
:105138000BF109C10CF10AC10DF1000E01010E6F4E
:105148007A0E01010F6F440E0101106FE4EC55F067
:105158000BC134F10CC135F10DC136F1000E01015E
:105168000B6F280E01010C6F430E01010D6F34C146
:1051780008F135C109F136C10AF17CEC52F008C1D9
:1051880017F109C118F10AC119F13BEC55F017C123
:1051980026F118C127F1010E0101286F090EDCEC78
:1051A8006DF000D0090EBAEC75F00009D8B416D02D
:1051B800070E8EEC5EF0000E0101CF6F000E0101AC
:1051C800E46F010E546E000E0101016F040E006FB2
:1051D800050E0101026F99EC59F000D00F0EBAECE0
:1051E80075F00009D8B41200010E546E12001200B6
:1051F800000E0101176F8F0E0101256F030E0101CB
:10520800266F25C1D9FF26C1DAFF010EDF6E000E19
:105218000101186F060E0101186F010E0101226FBE
:10522800010E0101226501D096D00101CA51060D77
:10523800BD0EF3240101066F0A0EF4200101076F69
:10524800EB0E0101086F010E0101096F040E010147
:105258000A6F15EC73F00009D8A449D00101CA51AE
:10526800060D050EF326000EF422BD0EF324D96EAA
:105278000A0EF420DA6EDE28D8B439D00101CA51FA
:10528800060DBD0EF3240101006F0A0EF420010182
:10529800016F000E0101026F25C103F126C104F15F
:1052A800010E0101056F040E0101066FE6EC6BF0BB
:1052B800010120EE05F02551D9262651DA22040EE7
:1052C8000101086F0101CA51060D050EF326000EF3
:1052D800F422BD0EF324E16E0A0EF420E26EE750CC
:1052E800B9EC48F0DF6E010E0101176F03D0010120
:1052F800220700D03E0E0101CA6103D00101CA2B6A
:1053080027D0000E0101CA6F010117510101D8A46D
:1053180022D0EB0E0101006F010E0101016F000E9A
:105328000101026F25C103F126C104F1010E01013B
:10533800056F040E0101066FE6EC6BF0010120EE2B
:1053480005F02551D9262651DA22FF0EDF6E03D04B
:105358000101222B65D7000E01011C6F000E01010F
:10536800246F000E0101196FC9C116F11AD201018B
:10537800D951D8B4FCD001012451010D3E0EF324BB
:10538800D96E030EF420DA6EDF500101236F1E0E72
:1053980001010C6F010E01010D6F01012351B8ECE1
:1053A80068F0010E010124250101006F0101016B64
:1053B800000E0123000E0101036F050E026F18ECA9
:1053C80076F0010E01010027000E01010123010101
:1053D800005101012525D96E010101510101262144
:1053E800DA6E1EC1DFFF010E010124250101006FE5
:1053F8000101016B000E0123000E0101036F050E70
:10540800026F18EC76F0020E01010027000E010170
:1054180001230101005101012525D96E0101015126
:1054280001012621DA6E1FC1DFFF010E01012425CB
:105438000101006F0101016B000E0123000E010143
:10544800036F050E026F18EC76F0030E01010027BA
:10545800000E010101230101005101012525D96E2A
:105468000101015101012621DA6E20C1DFFF010E81
:10547800010124250101006F0101016B000E0123C8
:10548800000E0101036F050E026F18EC76F0040E92
:1054980001010027000E0101012301010051010152
:1054A8002525D96E0101015101012621DA6E21C19C
:1054B800DFFF01012351020D010EF326000EF42235
:1054C800C90EF324D96E080EF420DA6EDF38E832FC
:1054D800070B0101146F050E0101156F0101D8902A
:1054E80014370101152FFAD70101145101011A6F60
:1054F80001012351020D010EF326000EF422C90EFC
:10550800F324D96E080EF420DA6EDF501F0B010168
:105518001A27010E010124250101006F0101016B09
:10552800000E0123000E0101036F050E026F18EC37
:1055380076F0050E01010027000E0101012301018B
:10554800005101012525D96E0101015101012621D2
:10555800DA6E1AC1DFFF050E01011C270101242B99
:105568000101D951D8B41DD10101D9071AD1EB0EC7
:105578000101046F010E0101056F0101C95117EC0A
:1055880060F00009D8A4F8D00101C951020DC90E74
:10559800F324D96E080EF420DA6EDF503F0B3F0A71
:1055A800D8B4EAD01E0E01010C6F010E01010D6F77
:1055B8000101C951B8EC68F0010E0101242501016F
:1055C800006F0101016B000E0123000E0101036F42
:1055D800050E026F18EC76F0010E01010027000E8F
:1055E800010101230101005101012525D96E0101A5
:1055F800015101012621DA6E1EC1DFFF010E0101F2
:1056080024250101006F0101016B000E0123000E2A
:105618000101036F050E026F18EC76F0020E01010E
:105628000027000E01010123010100510101252578
:10563800D96E0101015101012621DA6E1FC1DFFF78
:10564800010E010124250101006F0101016B000E0B
:105658000123000E0101036F050E026F18EC76F0AE
:10566800030E01010027000E010101230101005171
:1056780001012525D96E0101015101012621DA6EAA
:1056880020C1DFFF010E010124250101006F010186
:10569800016B000E0123000E0101036F050E026F5E
:1056A80018EC76F0040E01010027000E0101012319
:1056B8000101005101012525D96E010101510101A6
:1056C8002621DA6E21C1DFFF0101C951020D010E49
:1056D800F326000EF422C90EF324D96E080EF42026
:1056E800DA6EDF38E832070B0101146F050E01018D
:1056F800156F0101D89014370101152FFAD7010150
:10570800145101011B6F0101C951020D010EF3264D
:10571800000EF422C90EF324D96E080EF420DA6EB6
:10572800DF501F0B01011B27010E01012425010178
:10573800006F0101016B000E0123000E0101036FD0
:10574800050E026F18EC76F0050E01010027000E19
:10575800010101230101005101012525D96E010133
:10576800015101012621DA6E1BC1DFFF050E01017F
:105778001C270101242B00D0F90E0101C96103D0B7
:105788000101C92B04D0000E0101C96F00D001012D
:10579800C95101011619D8A404D0010E0101196FCD
:1057A80000D0080E0101246107D00101195101013F
:1057B800D8A402D0DCD500D00101185101011C2564
:1057C80001011D6F01011D51010DF3500101252536
:1057D800D96EF45001012621DA6EC7C0DFFF01013E
:1057E8001D2B01011D511200120001012E51010152
:1057F800D8B4C5D2C90E01013061C1D22CC1D9FFBC
:105808002DC1DAFFDE28D8A42AD00101E451D8A49A
:1058180026D0050EABEC77F00009D8B41CD0060EE4
:1058280001010D6F0E0E0C6F97EC66F01C0E010156
:105838000C2501013B6F0C0E01010D2101013C6F8C
:105848003BC126F13CC127F1000E0101286F050E6E
:10585800DCEC6DF000D0010E0101CF6F44D2020ED6
:1058680001012E6540D2010120EE01F02C51D9260C
:105878002D51DA22DF500101316F0101315101014F
:105888004E6F4F6B01014E5101014F6F4E6B01017D
:1058980020EE02F02C51D9262D51DA22DF500101D9
:1058A800316F0101315101014E27000E4F234EC1C6
:1058B80033F14FC134F1040E01010C6F010EFDEC00
:1058C8005CF00CC14AF10DC14BF1B2C117F1B3C183
:1058D80018F14AC119F14BC11AF1FF0E01011B6FF2
:1058E800070E1C6F000E1D6F000E1E6F68EC63F034
:1058F80017C13DF118C13EF1A2C000F1A3C001F1EA
:105908004AC102F14BC103F1000E0101046F000E00
:10591800056F010E066F000E076F5CEC70F000C19A
:105928004CF101C14DF14CC144F14DC145F14CC19F
:1059380000F14DC101F1000E0101036F3D0E026F30
:10594800000E0101046F000E056F010E066F000EB8
:10595800076F5CEC70F000C14AF101C14BF1010125
:105968002F510101D8B415D04AC100F14BC101F142
:10597800000E0101036F050E026F000E0101046F96
:10598800000E056F010E066F000E076F5CEC70F0DD
:1059980014D04AC100F14BC101F1000E0101036F9F
:1059A800000E026F000E0101046F000E056F010E5C
:1059B800066F000E076F5CEC70F000C14CF101C17E
:1059C8004DF14EC117F14FC118F13DC119F13EC15A
:1059D8001AF1000E01011B6F000E1C6F010E1D6FE6
:1059E800000E1E6F68EC63F017C14AF118C14BF145
:1059F8004AC14EF14BC14FF14CC131F14DC132F1A9
:105A08000101311F321F314B322B01014E5101016F
:105A180031250101486F01014F5101013221010176
:105A2800496F48C131F149C132F10101311F321FBB
:105A3800314B322BFF0E010131250101466FFF0E5C
:105A4800010132210101476F2CC1D9FF2DC1DAFFB5
:105A580001013051DE18D8A414D0080E0101495DA7
:105A6800D8A005D0800E0101495DD8A00AD0080E43
:105A78000101475DD8A074D0800E0101475DD8B000
:105A88006FD05450D8A404D00101CF51D8A4D4D099
:105A98004CC117F14DC118F14EC119F14FC11AF19E
:105AA800000E01011B6F000E1C6F010E1D6F000E12
:105AB8001E6F68EC63F017C13CF218C13DF24CC18F
:105AC8000DF14DC10EF1070E0101106F0F69AFEC1A
:105AD80071F00DC131F10EC132F14EC10DF14FC15E
:105AE8000EF1070E0101106F0F69AFEC71F00101A3
:105AF8000D1F01010E1F01010D4B0E2B01010D5150
:105B08000101312502013E6F01010E5101013221CF
:105B180002013F6F30C117F10101186B2CC1D9FF89
:105B28002DC1DAFFDF500101316F0101315101014F
:105B3800196F1A6BC90E01011B6F000E1C6F000E46
:105B48001D6F000E1E6F68EC63F001011751010113
:105B5800D26F010E0101E46F000E0101CF6F6CD00E
:105B680001014E5101014C5D01014F5101014D5997
:105B7800D8B047D0800E0101495DD8B042D00101AC
:105B88004C51000801014E250101436F01014351A9
:105B98000001A227000EA3234CC131F14DC132F1FF
:105BA8000101311F321F314B322B01014E510101CE
:105BB80031250201446F01014F51010132210201D7
:105BC800456F020144510201465D0201455102013F
:105BD8004759D8B016D04CC131F14DC132F101014D
:105BE800311F321F314B322B01014E51010131253A
:105BF8000201466F01014F51010132210201476F35
:105C080000D00101CF51D8B404D00101E451D8A487
:105C180004D0010E0101CF6F00D0010144510201EF
:105C2800605D0101455102016159D8B005D044C1F8
:105C380060F245C161F200D058EC7AF00101316F91
:105C4800010131513E0DF3CF3FF1F4CF40F13FC197
:105C580008F140C109F141EC77F008C10BF109C125
:105C68000CF10AC10DF1000E01010E6F7A0E01014F
:105C78000F6F440E0101106FE4EC55F00BC135F1C4
:105C88000CC136F10DC137F1000E01010B6F280E62
:105C980001010C6F430E01010D6F35C108F136C1CA
:105CA80009F137C10AF17CEC52F008C117F109C1BA
:105CB80018F10AC119F13BEC55F017C126F118C1CA
:105CC80027F1010E0101286F090EDCEC6DF0000EC2
:105CD80002014D6F000E4C6F030E01012E6503D0BB
:105CE800010E120000D058EC7AF00101316F010169
:105CF80031513E0DF3CF41F1F4CF42F141C108F1EA
:105D080042C109F141EC77F008C10BF109C10CF16E
:105D18000AC10DF1000E01010E6F7A0E01010F6F1D
:105D2800440E0101106FE4EC55F00BC138F10CC1C1
:105D380039F10DC13AF1000E01010B6F280E010176
:105D48000C6F430E01010D6F38C108F139C109F11B
:105D58003AC10AF17CEC52F008C117F109C118F1F7
:105D68000AC119F13BEC55F017C126F118C127F10A
:105D7800010E0101286F090EDCEC6DF000D0000E59
:105D880012001200000E01015F6F000E0001C66FC5
:105D9800000E0101006F000E76EC75F0000E010197
:105DA800E86F000E0001CB6F200EDBEC57F0000E01
:105DB8000001CD6F000E0101BD6F0001DC515EECEA
:105DC80079F0020EFBEC75F0600EDBEC57F0000E7C
:105DD80001010E6F000EF7EC77F0190E0101276F25
:105DE800640E266F000E0101286F110EDCEC6DF0B9
:105DF800000E0101276F780E266F010E0101286F32
:105E0800120EDCEC6DF0010E0001BB6F0400010105
:105E1800BE51D8B408D0000E0101BE6F3E0E85EC0D
:105E280038F0452A00D00101C051D8B409D0000E7D
:105E38000101C06F200EDBEC57F0600EDBEC57F071
:105E48000101C151D8B407D0600EDBEC57F0000E49
:105E58000101C16F00D00101BF51D8A404D00101D4
:105E6800BD51D8B4ABD1000E0101676F000E01011E
:105E78006A6F000E696F000E456E0101BF51D8B4FC
:105E880055D0000E0101BF6F8EEC79F00101F66F5D
:105E98008EEC79F0000E0101656F1DD0010165518E
:105EA800010D460EF324D96E030EF420DA6E8EEC43
:105EB80079F0DF6E01016551010D460EF324D96EAC
:105EC800030EF420DA6EDF50010167190101676FD4
:105ED8000101652B00D0FF0E0101546FFF0E010177
:105EE800556F0101F6510101566F576B010154516D
:105EF800010156270101555101015723010165513F
:105F08000101586F596B010156510101585D01019A
:105F18005951800A01015A6F01015751800A010144
:105F28005A59D8A0BBD7000E0001CD6F0101BD5151
:105F3800D8B41DD0000E0101666F3A0E01016665E6
:105F480001D011D001016651010D460EF324D96E1E
:105F5800030EF420DA6EDF50010167190101676F43
:105F68000101662BEAD7000E0101BD6F00D047C3BF
:105F780069F101016A6B0101695101016A6F696B7D
:105F88000301465101016927000E6A230101E2510C
:105F98000101D8B41CD0D00E0101546FCA0EE82EEE
:105FA800FED7542FFCD7D00E0101546FCA0EE82E2D
:105FB800FED7542FFCD7090E01016A5DD8B0DCD09A
:105FC80069C114F16AC115F142EC71F0D5D0010E26
:105FD80001015F6F010167510101D8A4CDD001D043
:105FE800CBD00101AE510101691905E10101AF51A1
:105FF80001016A19D8A4C0D00101AE510101AF1145
:10600800D8A42BD0000E0101616F000E626F000E44
:10601800636F000E646F010164511FE1100E0101EE
:10602800625D020E01016359D8B017D001D015D0B6
:1060380061C105F162C106F163C107F164C108F1EC
:106048002BEC77F0000E01016127100E6223000E81
:106058006323000E6423DFD700D0000E0101686FB0
:10606800370E0101686501D044D0AEC100F1AFC15F
:1060780001F1000E0101036F380E026F18EC76F083
:10608800010100510101682501015B6F0101015106
:1060980001015C6F000E01015C2301015D6B0101D0
:1060A8005D2301015E6B5BC105F15CC106F15DC159
:1060B80007F15EC108F101016851010D020EF326D6
:1060C800000EF422460EF3240101096F030EF4209A
:1060D80001010A6F040E01010B6F000E0C6F000E18
:1060E8000D6F000E0E6F30EC6CF0040E0101682786
:1060F800B7D70101AE4BAF2B0101B0510101AE1969
:106108003BE10101B1510101AF19D8A435D0000E0E
:106118000101056F000E066F020E076F000E086F73
:10612800510E0101096F000E01010A6F010E0101F4
:106138000B6F000E0C6F000E0D6F000E0E6F30EC23
:106148006CF0010E0101056F000E066F020E076F5D
:10615800000E086FF40E0101096F030E01010A6FAA
:106168000B0E01010B6F000E0C6F000E0D6F000E71
:106178000E6F30EC6CF000D0030E0101276FE80EB3
:10618800266F000E0101286F110EDCEC6DF0010185
:10619800E2510101D8B412D00101695101016A111B
:1061A800D8A40CD0270E0101276F100E266F000E01
:1061B8000101286F110EDCEC6DF000D00101E251F5
:1061C8000101D8A422D0020E456405D0010E0101B8
:1061D8005F6F000E456E01015F510101D8B415D003
:1061E8000101B0510101AE5D0101B1510101AF5989
:1061F800D8B007D0AEC10AF1AFC10BF1D3EC77F03C
:1062080000D0000E01015F6F00D0000E0101016F88
:10621800010E006FF70E0101026F010E0101036FFD
:106228009BEC4CF00009D8B438D0000E01010C6F7B
:10623800040E01010D6FF50E01010E6F010E010133
:106248000F6F0101F75129EC42F00009D8B425D0AD
:1062580004010151C00B0101606F01016045E8466E
:10626800030B0101606F030E01016019D8A415D05A
:10627800020E0101066F040E0101076F460E0101AF
:10628800086F030E0101096F3B0E01010A6F0EEC46
:1062980074F0010E0101BD6F00D0020EBAEC75F06A
:1062A8000009D8B405D0937693B602D08A9600D068
:1062B800110EBAEC75F00009D8B402D0FF0000D076
:1062C800020EABEC77F00009D8B40BD0000E010138
:1062D800276FFA0E266F000E0101286F020EDCEC04
:1062E8006DF0110EABEC77F00009D8B40BD0030EAB
:1062F8000101276FE80E266F000E0101286F110EAD
:10630800DCEC6DF0120EBAEC75F00009D8B47ED54D
:10631800FF007CD51200140E0101266F010E010149
:10632800276F5ED2250E01012D19D8B405D00101C1
:106338002D51A4EC78F054D2000E01012C6F000E00
:106348002B6F000E01012A6F07D001012A85010178
:10635800124B132B01D00BD012C1F6FF13C1F7FF5C
:106368000800F550300AD8B4F0D701D0F5D712C1DB
:10637800F6FF13C1F7FF0800F550E6EC76F0D8A059
:10638800A8D0000E01012C6F000E2B6F00D02BC17E
:1063980000F12CC101F1000E0101036F0A0E026F1A
:1063A80018EC76F000C12BF101C12CF1D00E0101DF
:1063B8001C6FFF0E01011D6F12C1F6FF13C1F7FF1D
:1063C8000800F55001011E6F1F6B01011C510101EE
:1063D8001E2701011D5101011F2301011E51010149
:1063E8002B2701011F5101012C230101124B132BF3
:1063F80012C1F6FF13C1F7FF0800F550E6EC76F07E
:10640800D8A067D0C4D765D0120085D000D00101CC
:106418002A8F81D001012B510101235D01012C51EB
:1064280001012459D8B009D00101235101012B5F82
:106438000101245101012C5B0AD0000E01012C6FCF
:10644800000E2B6F04D0200EA4EC78F000D00101D0
:106458002B07D8A02C0701012B29F5E101012C29D4
:10646800D8B40DD0F0D70BD021C1D9FF22C1DAFFA3
:10647800DF50A4EC78F00101214B222B00D0010160
:106488002307D8A0240701012329EEE101012429CB
:10649800D8B4A6D1E9D7A4D126C1D9FF27C1DAFF3C
:1064A800DF5001012D6F020E01012627000E272360
:1064B80000D02D0E0101216F010E0101226F000E87
:1064C8000101246F010E236FA5D7C00E01012A1305
:1064D80022D012C1F6FF13C1F7FF0101124B132B93
:1064E8000800F5CF2DF101012D51000AD8B4120092
:1064F800580AD8B48CD73B0AD8B4CED7070AD8B430
:106508000AD00D0AD8B407D01C0AD8B4DED70D0AB1
:10651800D8B47DD7CED72AC11CF1C00E01011C17F3
:10652800D8A419D026C1D9FF27C1DAFFDECF28F1B8
:10653800DDCF29F1020E01012627000E27230101D4
:1065480029AF5ED0030E01012A130101286D291F0E
:10655800D8B0292B55D026C1D9FF27C1DAFFDECF05
:1065680028F1DDCF29F1020E01012627000E27238D
:1065780047D000D0010E01012D6F050E01012D1924
:10658800D8B44BD001D049D001012D51020DE50EF0
:10659800F324F66EFD0EF420F76E0900F5500101A4
:1065A800285D0900F55001012959D8A036D001D03D
:1065B80034D001012D2BE1D730D0010E01012D6F10
:1065C800040E01012D19D8B428D001D026D001011C
:1065D8002D51020DEF0EF324F66EFD0EF420F76E2A
:1065E8000900F5500101285D0900F55001012959FC
:1065F800D8A013D001D011D001012D2BE1D70DD097
:1066080001012A51C00B000AD8B4B4D7800AD8B403
:10661800D4D7400AD8B4AED700D001012B5101011C
:106628002C11D8B40CD02AC11CF1030E01011C177F
:10663800D8B405D001012B07D8A02C0700D0800EB4
:1066480001012DBF7F0E01011C6F01012B510101BA
:106658002D5D01012C51800A01011C59D8B00BD0C5
:1066680001012D5101012B5F000E01012DBFFF0E0D
:1066780001012C5B06D0000E01012C6F000E2B6F60
:1066880000D001012AA520D02AC11CF1030E010166
:106698001C17D8B404D02D0EA4EC78F000D001015A
:1066A8002B5101012C11D8B42FD0300EA4EC78F066
:1066B80001012B07D8A02C0701012B5101012C1136
:1066C800D8B422D0F2D720D001012B5101012C11CE
:1066D800D8B40FD0200EA4EC78F001012B07D8A075
:1066E8002C0701012B5101012C11D8B402D0F2D78B
:1066F80000D02AC11CF1030E01011C17D8B404D024
:106708002D0EA4EC78F000D02DC125F161D04ED02B
:1067180000D001012551020DE50EF324F66EFD0EA1
:10672800F420F76E0900F5CF08F10A00F5CF09F15A
:1067380028C106F129C107F168EC6EF006C10DF118
:1067480007C10EF1000E0101106F0A0E0F6FAFECBA
:1067580071F001010D51300F01012D6F34D028C1A6
:1067680006F129C107F101012551020DEF0EF324AD
:10677800F66EFD0EF420F76E0900F5CF08F10A0059
:10678800F5CF09F168EC6EF0010106510F0B01011C
:10679800206F01012051010DF60EF324F66EFE0E56
:1067A800F420F76E0800F5CF2DF10DD001012A5124
:1067B800C00B000AD8B4ADD7800AD8B4D0D7400AE5
:1067C800D8B4A7D700D001012D51A4EC78F000D09F
:1067D8000101250701012529D8B402D0E7D700D047
:1067E80012C1F6FF13C1F7FF0101124B132B08006A
:1067F800F5CF2DF101012D51D8B4120093D5120017
:1068080012006E0E0001786F000E0001796F5ED2E3
:10681800250E00017F19D8B405D000017F51C4ECC2
:1068280078F054D2000E00017E6F000E7D6F000ECE
:1068380000017C6F07D000017C8500016C4B6D2B3B
:1068480001D00BD06CC0F6FF6DC0F7FF0800F55003
:10685800300AD8B4F0D701D0F5D76CC0F6FF6DC0B8
:10686800F7FF0800F55014EC77F0D8A0A8D0000E78
:1068780000017E6F000E7D6F00D07DC060F07EC08D
:1068880061F0000E0001636F0A0E626F34EC76F05F
:1068980060C07DF061C07EF0D00E00016E6FFF0E0B
:1068A80000016F6F6CC0F6FF6DC0F7FF0800F55070
:1068B8000001706F716B00016E51000170270001BB
:1068C8006F51000171230001705100017D27000103
:1068D800715100017E2300016C4B6D2B6CC0F6FFDB
:1068E8006DC0F7FF0800F55014EC77F0D8A067D01A
:1068F800C4D765D0120085D000D000017C8F81D02C
:1069080000017D510001755D00017E51000176593D
:10691800D8B009D00001755100017D5F00017651A2
:1069280000017E5B0AD0000E00017E6F000E7D6FB5
:1069380004D0200EC4EC78F000D000017D07D8A068
:106948007E0700017D29F5E100017E29D8B40DD02C
:10695800F0D70BD073C0D9FF74C0DAFFDF50C4EC96
:1069680078F00001734B742B00D000017507D8A094
:10697800760700017529EEE100017629D8B4A6D181
:10698800E9D7A4D178C0D9FF79C0DAFFDF50000178
:106998007F6F020E00017827000E792300D07F0E4A
:1069A8000001736F000E0001746F000E0001766F16
:1069B800010E756FA5D7C00E00017C1322D06CC0E4
:1069C800F6FF6DC0F7FF00016C4B6D2B0800F5CF8B
:1069D8007FF000017F51000AD8B41200580AD8B4D9
:1069E8008CD73B0AD8B4CED7070AD8B40AD00D0A38
:1069F800D8B407D01C0AD8B4DED70D0AD8B47DD7CE
:106A0800CED77CC06EF0C00E00016E17D8A419D086
:106A180078C0D9FF79C0DAFFDECF7AF0DDCF7BF01E
:106A2800020E00017827000E792300017BAF5ED0AB
:106A3800030E00017C1300017A6D7B1FD8B07B2BFD
:106A480055D078C0D9FF79C0DAFFDECF7AF0DDCF34
:106A58007BF0020E00017827000E792347D000D082
:106A6800010E00017F6F050E00017F19D8B44BD0CD
:106A780001D049D000017F51020DE50EF324F66ED6
:106A8800FD0EF420F76E0900F55000017A5D09004B
:106A9800F55000017B59D8A036D001D034D0000180
:106AA8007F2BE1D730D0010E00017F6F040E00016B
:106AB8007F19D8B428D001D026D000017F51020D0B
:106AC800EF0EF324F66EFD0EF420F76E0900F55074
:106AD80000017A5D0900F55000017B59D8A013D058
:106AE80001D011D000017F2BE1D70DD000017C51DE
:106AF800C00B000AD8B4B4D7800AD8B4D4D7400A97
:106B0800D8B4AED700D000017D5100017E11D8B4B1
:106B18000CD07CC06EF0030E00016E17D8B405D0FF
:106B280000017D07D8A07E0700D0800E00017FBF3E
:106B38007F0E00016E6F00017D5100017F5D000135
:106B48007E51800A00016E59D8B00BD000017F51E8
:106B580000017D5F000E00017FBFFF0E00017E5B1C
:106B680006D0000E00017E6F000E7D6F00D0000180
:106B78007CA520D07CC06EF0030E00016E17D8B43F
:106B880004D02D0EC4EC78F000D000017D51000136
:106B98007E11D8B42FD0300EC4EC78F000017D07F8
:106BA800D8A07E0700017D5100017E11D8B422D003
:106BB800F2D720D000017D5100017E11D8B40FD04A
:106BC800200EC4EC78F000017D07D8A07E070001F4
:106BD8007D5100017E11D8B402D0F2D700D07CC01C
:106BE8006EF0030E00016E17D8B404D02D0EC4EC5D
:106BF80078F000D07FC077F061D04ED000D000018F
:106C08007751020DE50EF324F66EFD0EF420F76EB3
:106C18000900F5CF62F00A00F5CF63F07AC060F0A2
:106C28007BC061F0A9EC6EF060C067F061C068F0ED
:106C3800000E00016A6F0A0E696FE5EC71F0000141
:106C48006751300F00017F6F34D07AC060F07BC08D
:106C580061F000017751020DEF0EF324F66EFD0E80
:106C6800F420F76E0900F5CF62F00A00F5CF63F063
:106C7800A9EC6EF0000160510F0B0001726F00016A
:106C88007251010DF60EF324F66EFE0EF420F76E27
:106C98000800F5CF7FF00DD000017C51C00B000A31
:106CA800D8B4ADD7800AD8B4D0D7400AD8B4A7D7BB
:106CB80000D000017F51C4EC78F000D000017707C4
:106CC80000017729D8B402D0E7D700D06CC0F6FF0E
:106CD8006DC0F7FF00016C4B6D2B0800F5CF7FF0FE
:106CE80000017F51D8B4120093D5120012000F0E84
:106CF800196E000E1A6EF6D1250E2018D8B404D0DD
:106D080020501CEC79F0EED1000E1F6E000E1E6EA6
:106D1800000E1D6E05D01D840D4A0E2A01D00BD021
:106D28000DC0F6FF0EC0F7FF0800F550300AD8B4C2
:106D3800F2D701D0F5D70DC0F6FF0EC0F7FF080057
:106D4800F55093EC78F0D8A083D0000E1F6E000E9B
:106D58001E6E00D01EC001F01FC002F0000E046EAF
:106D68000A0E036EBFEC77F001C01EF002C01FF0E0
:106D7800D00E0F6EFF0E106E0DC0F6FF0EC0F7FF9F
:106D88000800F550116E126A0F5011261050122289
:106D980011501E2612501F220D4A0E2A0DC0F6FF52
:106DA8000EC0F7FF0800F55093EC78F0D8A050D04B
:106DB800D1D74ED012006CD000D01D8E69D01E5095
:106DC800165C1F501758D8B005D016501E5E1750C5
:106DD8001F5A09D0000E1F6E000E1E6E04D0200E22
:106DE8001CEC79F000D01E06D8A01F061E28F7E17B
:106DF8001F28D8B40CD0F3D70AD014C0D9FF15C0B7
:106E0800DAFFDF501CEC79F0144A152A00D0160678
:106E1800D8A017061628F1E11728D8B463D1EDD702
:106E280061D119C0D9FF1AC0DAFFDF50206E020EF7
:106E38001926000E1A2200D0200E146E000E156EB0
:106E4800000E176E010E166EBAD7C00E1D1220D096
:106E58000DC0F6FF0EC0F7FF0D4A0E2A0800F5CF49
:106E680020F02050000AD8B41200580AD8B4A5D788
:106E78003B0AD8B4D6D7070AD8B40AD00D0AD8B472
:106E880007D01C0AD8B4E1D70D0AD8B496D7D4D7FE
:106E98001DC00FF0C00E0F16D8A415D019C0D9FF09
:106EA8001AC0DAFFDECF1BF0DDCF1CF0020E192668
:106EB800000E1A221CAE4FD0030E1D121B6C1C1E96
:106EC800D8B01C2A48D019C0D9FF1AC0DAFFDECFC3
:106ED8001BF0DDCF1CF0020E1926000E1A223BD043
:106EE80000D0010E206E050E2018D8B440D001D075
:106EF8003ED02050020DE50EF324F66EFD0EF42070
:106F0800F76E0900F5501B5C0900F5501C58D8A015
:106F18002ED001D02CD0202AE6D729D0010E206E01
:106F2800040E2018D8B423D001D021D02050020D4F
:106F3800EF0EF324F66EFD0EF420F76E0900F550FF
:106F48001B5C0900F5501C58D8A011D001D00FD0F7
:106F5800202AE6D70CD01D50C00B000AD8B4C1D7E0
:106F6800800AD8B4DBD7400AD8B4BBD700D01E50AB
:106F78001F10D8B40AD01DC00FF0030E0F16D8B4D6
:106F880004D01E06D8A01F0600D0800E20BE7F0E9B
:106F98000F6E1E50205C1F50800A0F58D8B007D0C3
:106FA80020501E5E000E20BEFF0E1F5A05D0000E98
:106FB8001F6E000E1E6E00D01DA41AD01DC00FF04B
:106FC800030E0F16D8B404D02D0E1CEC79F000D0A7
:106FD8001E501F10D8B426D0300E1CEC79F01E06B7
:106FE800D8A01F061E501F10D8B41CD0F5D71AD031
:106FF8001E501F10D8B40CD0200E1CEC79F01E06C1
:10700800D8A01F061E501F10D8B402D0F5D700D044
:107018001DC00FF0030E0F16D8B404D02D0E1CECB3
:1070280079F000D020C018F057D046D000D01850C2
:10703800020DE50EF324F66EFD0EF420F76E09003E
:10704800F5CF03F00A00F5CF04F01BC001F01CC017
:1070580002F0E7EC72F001C008F002C009F0000E7F
:107068000B6E0A0E0A6E34EC74F00850300F206E66
:107078002FD01BC001F01CC002F01850020DEF0EFB
:10708800F324F66EFD0EF420F76E0900F5CF03F039
:107098000A00F5CF04F0E7EC72F001500F0B136E05
:1070A8001350010DF60EF324F66EFE0EF420F76E63
:1070B8000800F5CF20F00CD01D50C00B000AD8B442
:1070C800B6D7800AD8B4D5D7400AD8B4B0D700D03C
:1070D80020501CEC79F000D018061828D8B402D03B
:1070E800EBD700D00DC0F6FF0EC0F7FF0D4A0E2AF1
:1070F8000800F5CF20F02050D8B41200FDD51200BA
:1071080012000101046F0101045102014A25020124
:107118004A6F000E02014B2102014B6F000E010164
:10712800056F160E0101056501D072D001010551E8
:10713800010D270EF324D96E030EF420DA6EDF500A
:10714800D8A463D001010551020D000EF324D96EB5
:10715800020EF420DA6E010104510101026F036B83
:10716800010E01010227000E0323DE500101025D1A
:10717800DE5001010359D8B02DD001010551020D8F
:10718800000EF324D96E020EF420DA6EDECF00F181
:10719800DDCF01F1010104510101026F036B01010F
:1071A800021F031F024B032B01010051010102279B
:1071B800010101510101032301010551020D000ED6
:1071C800F324D96E020EF420DA6E02C1DEFF03C189
:1071D800DDFF1BD001010551020D000EF324D96E0D
:1071E800020EF420DA6EDE50DE10D8B40ED00101A3
:1071F8000551020D000EF324D96E020EF420DA6E4A
:10720800010EDE6E000EDD6E00D00101052B89D760
:10721800E80E02014A5D030E02014B59D8A0120084
:10722800180E02014A2502014A6FFC0E02014B2189
:1072380002014B6F0001D12B000E0101066F160EE3
:107248000101066501D063D001010651010D270E29
:10725800F324D96E030EF420DA6EDE04D8A454D0D9
:1072680001010651020D000EF324D96E020EF4201E
:10727800DA6E010EDB5004E1020EDE5CD8A029D0E4
:10728800FF0E0101006FFF0E0101016F01010651A0
:10729800020D000EF324D96E020EF420DA6EDECF52
:1072A80002F1DDCF03F101010051010102270101C3
:1072B80001510101032301010651020D000EF324BF
:1072C800D96E020EF420DA6E02C1DEFF03C1DDFFC3
:1072D8001BD001010651020D000EF324D96E020ED7
:1072E800F420DA6EDE50DE10D8B40ED0010106515B
:1072F800020D000EF324D96E020EF420DA6E010E90
:10730800DE6E000EDD6E00D00101062B98D73B0E15
:107318000001D16512000001D151C40F0001D16FE5
:107328000001CA2B000E0101076F160E0101076547
:1073380001D064D001010751010D270EF324D96E45
:10734800030EF420DA6E020EDE18D8A454D0010120
:107358000751020D000EF324D96E020EF420DA6EE6
:10736800010EDB5004E1020EDE5CD8A029D0FF0E2E
:107378000101006FFF0E0101016F01010751020DAC
:10738800000EF324D96E020EF420DA6EDECF02F17D
:10739800DDCF03F101010051010102270101015173
:1073A8000101032301010751020D000EF324D96ED8
:1073B800020EF420DA6E02C1DEFF03C1DDFF1BD02E
:1073C80001010751020D000EF324D96E020EF420BC
:1073D800DA6EDE50DE10D8B40ED001010751020D6E
:1073E800000EF324D96E020EF420DA6E010EDE6E62
:1073F800000EDD6E00D00101072B97D73B0E000170
:10740800CA6512000001CA51C40F0001CA6F000EFC
:107418000101086F160E0101086502D01200120062
:1074280001010851010D270EF324D96E030EF42033
:10743800DA6E030EDE18D8A454D001010851020DEB
:10744800000EF324D96E020EF420DA6E010EDB5022
:1074580004E1020EDE5CD8A029D0FF0E0101006F06
:10746800FF0E0101016F01010851020D000EF32406
:10747800D96E020EF420DA6EDECF02F1DDCF03F111
:1074880001010051010102270101015101010323FA
:1074980001010851020D000EF324D96E020EF420EA
:1074A800DA6E02C1DEFF03C1DDFF1BD00101085106
:1074B800020D000EF324D96E020EF420DA6EDE50AF
:1074C800DE10D8B40ED001010851020D000EF324CD
:1074D800D96E020EF420DA6E010EDE6E000EDD6E3D
:1074E80000D00101082B160E0101086599D712007A
:1074F80012001200030E0101016F00690EEC79F011
:1075080001013C6F01013C05D8A448D0930E01014C
:10751800126FFF0E0101136F8FEC31F0000E0101A5
:10752800416F000E406F010141BF0AD0F00E01010A
:10753800405D030E01014159D8B011D001D00FD0E0
:1075480064EC7AF040C100F141C101F1FF0E010184
:10755800026FA4EC74F00101404B412BE4D7030EF9
:107568000101416FF40E406F010141BF07D0040EC5
:107578000101415DD8B012D001D010D064EC7AF08E
:1075880040C100F141C101F1FF0E0101026FA4ECFD
:1075980074F00101404B412BE7D700D0010E0101E7
:1075A8003C6504D001013C29D8A40CD064EC7AF0E5
:1075B800030E0101016F0069020E0101026FA4ECC4
:1075C80074F000D0000E01013D6F030E01013D650E
:1075D80001D018D001013D51010DDE0EF324D96E02
:1075E800000EF420DA6EE80E01013D250101006F5E
:1075F8000101016B030E01230EEC79F0DF6E01012E
:107608003D2BE3D70001DE29D8A419D00001DF29DA
:10761800D8A415D00001E029D8A411D00001E1298F
:10762800D8A40DD0000E0001DE6F000E0001DF6F40
:10763800000E0001E06F020E0001E16F00D0030EA2
:107648000101016FEF0E006F0EEC79F001013A6F46
:1076580001013A5121EC7AF00201F129D8A451D064
:107668000201F229D8A44DD00201F329D8A449D0A7
:107678000201F429D8A445D0899E4B0E09EC78F074
:10768800000E09EC78F0000E09EC78F0000E09EC19
:1076980078F0000E09EC78F0000E01013E6F2BD057
:1076A8002ED037EC79F00101005101013B6F030E38
:1076B80001013E651ED0FC0E01012E6FFF0E010177
:1076C8002F6F01013E510101306F316B01012E51C5
:1076D8000101302701012F5101013123F10E010170
:1076E8003025D96E020E01013121DA6E3BC1DFFF70
:1076F80000D001013E2B070E01013E65D2D7898ECD
:1077080000D0000E01013F6F070E01013F6501D057
:1077180018D001013F51010D320EF324D96E010E2C
:10772800F420DA6EF40E01013F250101006F01011A
:10773800016B030E01230EEC79F0DF6E01013F2B84
:10774800E3D7320E0101006F010E0101016F99ECC0
:107758006BF0030E0101016FFC0E006F0EEC79F067
:10776800FF0AD8A404D0000E5EEC79F009D0030E0D
:107778000101016FFC0E006F0EEC79F05EEC79F000
:10778800030E0101016FFD0E006F0EEC79F0FF0A88
:10779800D8B40BD001D009D0030E0101016FFD0E42
:1077A800006F0EEC79F04FEC78F0030E0101016FD9
:1077B800FE0E006F0EEC79F0FF0AD8A403D000018A
:1077C800C7691200030E0101016FFE0E006F0EEC77
:1077D80079F00001C76F12001200010120EE01F0DC
:1077E8002F51D9263051DA222FC1E1FF30C1E2FFF3
:1077F800DE50E618D8A41200010120EE02F02F5145
:10780800D9263051DA22010110EE01F02F51E1267C
:107818003051E222DE50E618D8A41200010120EE11
:1078280002F02F51D9263051DA22DE28D8B41200BE
:107838002FC1D9FF30C1DAFFDF500101336F0101D9
:1078480033A14CD0010120EE04F02F51D92630513C
:10785800DA22010110EE03F02F51E1263051E22225
:10786800DE50E618D8A43AD0010120EE05F02F51D9
:10787800D9263051DA22010110EE04F02F51E12609
:107888003051E222DE50E618D8A428D0010120EEBB
:1078980005F02F51D9263051DA22DE28D8B41ED06F
:1078A80064EC7AF0030E0101016FFD0E006F010117
:1078B80020EE03F02F51D9263051DA22DF50010192
:1078C800026FA4EC74F0010120EE03F02F51D926C9
:1078D8003051DA22DF504FEC78F000D0010133A3A9
:1078E80042D0010120EE07F02F51D9263051DA227B
:1078F800010110EE06F02F51E1263051E222DE5050
:10790800E618D8A430D0010120EE08F02F51D9266E
:107918003051DA22010110EE07F02F51E1263051E3
:10792800E222DE50E618D8A41ED064EC7AF0030EEA
:107938000101016FFE0E006F010120EE06F02F51CC
:10794800D9263051DA22DF500101026FA4EC74F01D
:10795800010120EE06F02F51D9263051DA22DF50EE
:10796800E8EC73F000D0010133A54CD0010120EE02
:107978000AF02F51D9263051DA22010110EE09F010
:107988002F51E1263051E222DE50E618D8A43AD031
:10799800010120EE0BF02F51D9263051DA220101D6
:1079A80010EE0AF02F51E1263051E222DE50E6189F
:1079B800D8A428D0010120EE0BF02F51D926305140
:1079C800DA22DE28D8B41ED064EC7AF0030E010166
:1079D800016FFC0E006F010120EE09F02F51D9262E
:1079E8003051DA22DF500101026FA4EC74F001017A
:1079F80020EE09F02F51D9263051DA22DF505EEC03
:107A080079F000D0010133A71200010120EE0DF03A
:107A18002F51D9263051DA22010110EE0CF02F51E6
:107A2800E1263051E222DE50E618D8A41200010106
:107A380020EE0EF02F51D9263051DA22010110EE36
:107A48000DF02F51E1263051E222DE50E618D8A47D
:107A58001200010120EE0EF02F51D9263051DA2202
:107A6800DE28D8B4120064EC7AF0030E0101016F2D
:107A7800EF0E006F010120EE0CF02F51D926305186
:107A8800DA22DF500101026FA4EC74F0010120EE4C
:107A98000CF02F51D9263051DA22DF5021EC7AF040
:107AA80012001200400E0101286F000E0101296F1B
:107AB8003E0E0101296501D0D8D001012951060DDA
:107AC800BD0EF3240101066F0A0EF4200101076FB1
:107AD80021C108F122C109F1040E01010A6F15EC58
:107AE80073F00009D8B4A1D001012951060D040E84
:107AF800F326000EF422BD0EF324D96E0A0EF420EC
:107B0800DA6EDF500F0B0F0AD8A441D001012451BF
:107B18000101D8B43CD00001CC2B01012951060D3C
:107B2800040EF326000EF422BD0EF324D96E0A0EBD
:107B3800F420DA6EDF90DF92DF94DF9623C100F144
:107B480001012951A8EC64F0020E01012419D8B4EE
:107B58001AD0030E0101086F01012351B9EC48F056
:107B68000101266F21C115F122C116F129C117F1B2
:107B7800010E0101186F26C119F1000E01011A6FDB
:107B88002DEC1EF000D00101295112006BD001012B
:107B98002951060D040EF326000EF422BD0EF3241F
:107BA800D96E0A0EF420DA6EDF500F0B0F0AD8B424
:107BB80039D001012951060D040EF326000EF422D6
:107BC800BD0EF324D96E0A0EF420DA6EDF90DF9230
:107BD800DF94DF9623C100F101012951A8EC64F07C
:107BE800020E01012419D8B4CED7030E0101086F83
:107BF80001012351B9EC48F00101266F21C115F1AB
:107C080022C116F129C117F1010E0101186F26C111
:107C180019F1000E01011A6F2DEC1EF0B4D7B3D77D
:107C2800120020D0FF0E12001DD001012951060DAF
:107C3800BD0EF3240101066F0A0EF4200101076F3F
:107C4800EB0E0101086F010E0101096F040E01011D
:107C58000A6F15EC73F00009D8B404D029C128F1D3
:107C680004D000D00101292B23D73E0E010128653D
:107C780021D0000E0101276F3E0E0101276501D0BA
:107C880019D001012751060D040EF326000EF42227
:107C9800BD0EF324D96E0A0EF420DA6EDF500F0BF6
:107CA8000F0AD8A403D027C128F104D00101272B3B
:107CB800E3D700D03F0E0101286155D001012451BE
:107CC8000101D8B450D021C106F122C107F1010148
:107CD8002851060DBD0EF3240101086F0A0EF42089
:107CE8000101096F040E01010A6F0EEC74F0010125
:107CF8002851060D040EF326000EF422BD0EF324BF
:107D0800D96E0A0EF420DA6EDF90DF92DF94DF96E8
:107D180023C100F101012851A8EC64F00001CC2B2B
:107D2800020E01012419D8B41AD0030E0101086FFC
:107D380001012351B9EC48F00101266F21C115F169
:107D480022C116F128C117F1010E0101186F26C1D1
:107D580019F1000E01011A6F2DEC1EF000D001017F
:107D68002851120000D0FF0E12001200000E01016F
:107D7800126F000E116F010112BF0AD001011251DA
:107D880006E13F0E0101115DD8B082D001D080D04C
:107D9800EB0E0101066F010E0101076F11C100F121
:107DA80012C101F1000E0101036F060E026F18ECFB
:107DB80076F0BD0E010100250101086F0A0E0101D0
:107DC80001210101096F040E01010A6F0EEC74F024
:107DD80011C100F112C101F1000E0101036F060E7D
:107DE800026F18EC76F0040E01010027000E010165
:107DF8000123BD0E01010025D96E0A0E01010121E2
:107E0800DA6EDF80DF82DF84DF8611C100F112C104
:107E180001F1000E0101036F060E026F18EC76F0F7
:107E2800040E01010027000E01010123BD0E01010E
:107E38000025D96E0A0E01010121DA6EDF88DF8A7A
:107E4800DF8CDF8E11C100F112C101F1000E0101BA
:107E5800036F060E026F18EC76F0050E010100277D
:107E6800000E01010123BD0E01010025D96E0A0E85
:107E780001010121DA6EFF0EDF6E0101114B122B99
:107E8800010112BF85D70101125102E17AD700D052
:107E9800000E02016D6F000E0101126F000E116FCE
:107EA800010112BF0AD00101125166E1FA0E010167
:107EB800115DD8B061D001D05FD011C10FF112C1EE
:107EC80010F1D89001010F371037010E01010F276B
:107ED800000E1023C90E01010F25D96E080E0101ED
:107EE8001021DA6EDF80DF82DF84DF86DF88EB0E29
:107EF8000101076F010E0101086F010111514FECDB
:107F08006DF011C10FF112C110F1D89001010F37B6
:107F18001037010E01010F27000E1023C90E0101B1
:107F28000F25D96E080E01011021DA6EDF8ADF8C69
:107F3800DF8ED89001011135D96E01011235DA6E44
:107F4800C90ED926080EDA22DF80DF82DF84DF86B9
:107F5800DF88DF8AD89001011135D96E0101123509
:107F6800DA6EC90ED926080EDA223F0EDF16010195
:107F7800114B122B95D700D0EB0E0101066F010EA5
:107F88000101076FF50E0101086F020E0101096F6B
:107F9800040E01010A6F0EEC74F05768000E02011E
:107FA800766F030E0201776F000E02019E6F000EBE
:107FB8000201A06F020E0201A16F000E0201A26F62
:107FC800010E0101FA6F000E0101EA6F000E0101B6
:107FD800DB6F120011D101018705D8A419D1E40E75
:107FE8000101126FFE0E0101136F8FEC31F0020ECA
:107FF800010181250101186F000E01018221010193
:10800800196F000E01011A6F0FEC41F0040EABEC72
:1080180077F00009D8A411D0040EBAEC75F0000965
:10802800D8A40BD0000E0101276F010E266F000E99
:108038000101286F040EDCEC6DF0000EABEC77F05C
:108048000009D8B40BD0130E0101276F880E266FD4
:10805800000E0101286F000EDCEC6DF0010E01012D
:10806800276F2C0E266F010E0101286F130EDCEC12
:108078006DF0010E0101B86FCBD0420E01018719D6
:10808800D8A414D0010120EE02F08151D9268251E2
:10809800DA22DF50EAEC6EF084C118F185C119F1DB
:1080A800000E01011A6F0FEC41F000D0430E0101E0
:1080B8008719D8A4ADD0010120EE02F08151D9264C
:1080C8008251DA22DF500001D76F010120EE03F060
:1080D8008151D9268251DA22DF500001D66F010181
:1080E80020EE04F08151D9268251DA22DF500101B5
:1080F800896F0001D85101018919F00B8919000114
:10810800D86F010120EE05F08151D9268251DA227B
:10811800DF500101896F0101893B0001D85101013C
:1081280089190F0B89190001D86F010120EE06F09B
:108138008151D9268251DA22DF500101896F00016D
:10814800D95101018919F00B89190001D96F010171
:1081580020EE07F08151D9268251DA22DF50010141
:10816800896F0101893B0001D951010189190F0B60
:1081780089190001D96F64EC7AF0030E0101016FCF
:10818800EE0E006FD6C002F1A4EC74F064EC7AF045
:10819800030E0101016FF10E006FD7C002F1A4ECCC
:1081A80074F064EC7AF0030E0101016FF20E006FB7
:1081B800D8C002F1A4EC74F064EC7AF0030E01016B
:1081C800016FED0E006FD9C002F1A4EC74F084C108
:1081D80018F185C119F1000E01011A6F0FEC41F079
:1081E80017D0480E0101126FFF0E0101136F8FECBB
:1081F80031F0010E12000CD001018651010AD8B4E9
:10820800F0D71F0AD8B4E7D6010AD8B436D700D0B9
:10821800000E12001200000E01017E6FB0C07FF147
:10822800B1C080F1010E0101566F18C10BF119C1DF
:108238000CF1580E01010D6F010E01010E6F25ECB6
:1082480044F00101576FC7C05CF17FC15DF180C187
:108258005EF1580E0101066F010E0101076F7C0ED9
:108268000101086F010E0101096F7D0E01010A6FFE
:10827800010E01010B6F15EC46F07CC15FF17DC169
:1082880060F118C10BF119C10CF160EC68F0010143
:10829800616F5CEC7AF00101626F60EC7AF00101C9
:1082A800636FD4C01BF101011B3BF00E1B1735ECAB
:1082B8007AF001011B250001D2250101646FC4C0B9
:1082C80065F148C266F149C267F146C268F147C222
:1082D80069F144C26AF145C26BF162C26CF163C2D2
:1082E8006DF160C26EF161C26FF181BA02D0010E08
:1082F80001D0000E0101706FE3C071F150C272F13C
:1083080051C273F1D5C074F1DBC075F10001D951C8
:108318000F0B01011B6F01011B5101017F6F806B66
:1083280001017F3B803BF00E80177F510F0B8013BC
:10833800F00E7F170001D9390F0B01011B6F0101E6
:108348001B5101017F27000E80237FC176F135C0C4
:1083580077F136C078F1D6C079F1D7C07AF100014B
:10836800D8510F0B01011B6F01011B5101017F6FD8
:10837800806B01017F3B803BF00E80177F510F0B14
:108388008013F00E7F170001D8390F0B01011B6F06
:1083980001011B5101017F27000E80237FC17BF162
:1083A800260E01017E6F01011A510101D8B434D0A3
:1083B800560E0101006F010E0101016F000E01014F
:1083C800026F1C0E0101036F010E0101046F140EF0
:1083D8000101056F7EC106F1E6EC6BF01C0E010190
:1083E8000E6F010E01010F6F18C110F119C111F1C3
:1083F800F9EC62F01C0E0101046F010E0101056F1A
:1084080001017E51140F0101066F000E0101076F73
:10841800020E90EC61F0120018C10EF119C10FF1B3
:10842800560E0101106F010E0101116F7EC112F18C
:10843800000E0101136F010E0101146F000E0101FE
:10844800156FE0EC47F0120012000101166F55504D
:10845800D8B421D0240E01011619D8A419D04E2A57
:10846800020E4E18D8A4EDD0000E556E010E426EC5
:10847800000E406E000E436E000E446E010E416EFB
:10848800000E0001BD6F000E4E6E000E4C6ED9D06E
:10849800000E4E6ED6D04150D8B4C4D04250D8B495
:1084A80006D016C1C9F0000E426E010E04D040502D
:1084B800D8B403D0000E406E5AD00001BD5101015E
:1084C800106F116BFE0E0101126FFF0E0101136F89
:1084D8000001C9510101146F156B0101125101010D
:1084E8001427010113510101152301011051010144
:1084F80014190EE10101115101011519D8A408D070
:108508000D0E01011619D8A432D0010E436E2FD0DA
:108518000001BD510101106F116BFF0E0101126FB7
:10852800FF0E0101136F0001C9510101146F156B92
:1085380001011251010114270101135101011523F1
:1085480001011051010114190EE10101115101013C
:108558001519D8A408D00A0E01011619D8A407D0F5
:10856800010E446E04D0010116514C1A00D00001CE
:10857800BD51010DC00EF324D96E040EF420DA6E3D
:1085880016C1DFFF0001BD2B0001BD510001C91953
:10859800D8A431D0000E416E0EC1D9FF0FC1DAFF49
:1085A800BDC0DFFFC00E0101066F040E0101076F99
:1085B8000CC108F10DC109F1BDC00AF10EEC74F04F
:1085C800010E556E000E4E6E4C50D8B404D0000EFD
:1085D8004C6E000E12004350D8B408D04450D8B4A2
:1085E80005D0000E4C6E010E12002BD0000E4C6E02
:1085F80016D0120026D03E0E0001BD6522D0010E15
:10860800556E000E4E6E000E0001BD6F000E426EDC
:10861800000E406E000E436E000E446EE7D7000E4B
:1086280012000FD0010E556E000E4E6E000E4C6EED
:10863800000E426E000E436E000E446E000E406E39
:1086480000D0000E120012000101046F8B9C1A0E5C
:10865800E82EFED700D0000E0101066F2DD030D0D5
:108668008B9E06C101F1400E0101026F000E01014F
:10867800036F0101012B04D00101033503330233D9
:108688000101012FF9D70101025156140101096FA7
:10869800010109510101D8B402D08B8C02D08B9C06
:1086A80000D01A0EE82EFED700D08B8E1A0EE82EB8
:1086B800FED700D00101062B060E01010665D0D7B2
:1086C8008B9E8B9C1A0EE82EFED700D08B8E1A0E2E
:1086D800E82EFED700D08B9E948C1A0EE82EFED77B
:1086E80000D08B8E1A0EE82EFED700D0000E82BC6A
:1086F800010E0101056F010105510101D8A437D010
:10870800949C000E0101076F070E0101076501D057
:108718002ED08B9E07C101F1800E0101026F000E61
:108728000101036F0101012B04D00101033503335B
:1087380002330101012FF9D701010251010104158A
:108748000101096F010109510101D8B402D08B8CD4
:1087580002D08B9C00D01A0EE82EFED700D08B8E4C
:108768001A0EE82EFED700D00101072BCDD78B9E1D
:10877800948C1A0EE82EFED700D08B8E1A0EE82E97
:10878800FED700D0000E82BC010E0101056F010169
:1087980005510101D8A437D0949C000E0101086F3F
:1087A800070E0101086501D02ED08B9E08C101F18A
:1087B800800E0101026F000E0101036F0101012B00
:1087C80004D001010335033302330101012FF9D726
:1087D80001010251010100150101096F010109514F
:1087E8000101D8B402D08B8C02D08B9C00D01A0E19
:1087F800E82EFED700D08B8E1A0EE82EFED700D0BA
:108808000101082BCDD78B9E948C1A0EE82EFED72B
:1088180000D08B8E1A0EE82EFED700D0000E82BC38
:10882800010E0101056F949C8B9C8B9E1A0EE82EFD
:10883800FED700D08B8E1A0EE82EFED700D08B8C78
:108848001200000E0101126F000E116F010112BF1C
:108858000AD00101125106E1FA0E0101115DD8B0EA
:10886800E8D001D0E6D00BC104F10CC105F101013B
:10887800115117EC60F00009D8B4D0D011C10FF134
:1088880012C110F1D89001010F371037010E010104
:108898000F27000E1023C90E01010F25D96E080EEF
:1088A80001011021DA6EDF501F0B1F0AD8B4A6D0C1
:1088B800D89001011135D96E01011235DA6EC90E51
:1088C800D926080EDA22DF503F0B01010F6F010194
:1088D8000F51060DBD0EF324D96E0A0EF420DA6E80
:1088E8000DC1E1FF0EC1E2FFDFCFE7FFD890010124
:1088F8001135D96E01011235DA6EC90ED926080E66
:10890800DA22DF503F0B01010F6F01010F51060DF5
:10891800010EF326000EF422BD0EF324D96E0A0EC2
:10892800F420DA6E010110EE01F00D51E1260E512E
:10893800E222DFCFE7FFD89001011135D96E01019E
:108948001235DA6EC90ED926080EDA22DF503F0B2F
:1089580001010F6F01010F51060D020EF326000EE3
:10896800F422BD0EF324D96E0A0EF420DA6E01014A
:1089780010EE02F00D51E1260E51E222DFCFE7FFA3
:10898800D89001011135D96E01011235DA6EC90E80
:10899800D926080EDA22DF503F0B01010F6F0101C3
:1089A8000F51060D030EF326000EF422BD0EF3241C
:1089B800D96E0A0EF420DA6E010110EE03F00D51A3
:1089C800E1260E51E222DFCFE7FF11C10FF112C1FC
:1089D80010F1D89001010F371037010E01010F2750
:1089E800000E1023C90E01010F25D96E080E0101D2
:1089F8001021DA6EDF501F0B120010D0D890010141
:108A08001135D96E01011235DA6EC90ED926080E54
:108A1800DA223F0EDF161F0E120000D00101114BA3
:108A2800122B010112BF1FD70101125102E114D705
:108A380000D01F0E120012000001B551D8B4DDD0CD
:108A48004950D8B410D0000E496E000E0001CF6F07
:108A5800000E0001D06F000E0001B56F000E00017E
:108A6800CD6F000E12004750D8A40ED0000E0001A2
:108A7800CF6F000E0001D06F000E0001B56F000E21
:108A88000001CD6F000E12000001D051FD0F10C182
:108A9800D9FF11C1DAFFDF6E000E0101186F400E19
:108AA8000001D0650ED0000E0001CF6F000E00014E
:108AB800D06F000E0001B56F000E0001CD6F000EE3
:108AC8001200020E0101196F11D001011951010D97
:108AD800800EF324D96E040EF420DA6EDF50010103
:108AE80018190101186F0101192B00D00001D0518C
:108AF8000101195DD8A0E9D7010118510101D8B4C5
:108B08000ED0000E0001CF6F000E0001D06F000ED6
:108B18000001B56F000E0001CD6F000E120010C1EC
:108B2800D9FF11C1DAFF3D0EDF640ED0000E00013F
:108B3800CF6F000E0001D06F000E0001B56F000E60
:108B48000001CD6F000E120010C1D9FF11C1DAFF6C
:108B5800DF500101126F136BFD0E0101146FFF0E40
:108B68000101156F0001D0510101166F176B01014A
:108B780014510101162701011551010117230101A3
:108B880012510101161906E10101135101011719CA
:108B9800D8B40ED0000E0001CF6F000E0001D06FC8
:108BA800000E0001B56F000E0001CD6F000E12001F
:108BB800800E0101006F040E0101016F020E010118
:108BC800026F0EC103F10FC104F1000E0101056F20
:108BD80010C1D9FF11C1DAFFDF500101066FE6ECC1
:108BE8006BF0000E0001CF6F000E0001D06F000E79
:108BF8000001B56F010E120011D00001B551D8B4B3
:108C08000DD0000E0001CF6F000E0001D06F000ED6
:108C18000001B56F000E0001CD6F00D0000E1200EC
:108C28001200000E01010F6F000E0E6F01010FBF41
:108C38000AD001010F5106E13F0E01010E5DD8B0C7
:108C4800D4D001D0D2D006C1D9FF07C1DAFF0EC1F6
:108C580000F10FC101F1000E0101036F060E026F52
:108C680018EC76F0BD0E01010025E16E0A0E010137
:108C78000121E26EDE50E618D8A4ACD0010120EE46
:108C880001F00651D9260751DA220EC100F10FC1B1
:108C980001F1000E0101036F060E026F18EC76F069
:108CA800010E01010027000E01010123BD0E010183
:108CB8000025E16E0A0E01010121E26EDE50E61880
:108CC800D8A488D0010120EE02F00651D926075118
:108CD800DA220EC100F10FC101F1000E0101036F8C
:108CE800060E026F18EC76F0020E01010027000E46
:108CF80001010123BD0E01010025E16E0A0E0101EB
:108D08000121E26EDE50E618D8A464D0010120EEFD
:108D180003F00651D9260751DA220EC100F10FC11E
:108D280001F1000E0101036F060E026F18EC76F0D8
:108D3800030E01010027000E01010123BD0E0101F0
:108D48000025E16E0A0E01010121E26EDE50E618EF
:108D5800D8A440D00EC100F10FC101F1000E0101ED
:108D6800036F060E026F18EC76F0050E010100275E
:108D7800000E01010123BD0E01010025D96E0A0E66
:108D880001010121DA6E08C1E1FF09C1E2FFDFCF6D
:108D9800E7FF0EC100F10FC101F1000E0101036FE1
:108DA800060E026F18EC76F0040E01010027000E83
:108DB80001010123BD0E01010025D96E0A0E010132
:108DC8000121DA6EDF380F0B0AC1D9FF0BC1DAFFB8
:108DD800DF6E120001010E4B0F2B01010FBF33D7BD
:108DE80001010F5102E128D700D008C1D9FF09C1FC
:108DF800DAFFFF0EDF6E0AC1D9FF0BC1DAFF0F0ED3
:108E0800DF6E120012000101146F000E0101166FCF
:108E1800000E176F000E186F000E196F040E010177
:108E28000F19D8A40BD00DC116F10EC117F101010D
:108E3800000E17BFFF0E186F196F54D001010F51A4
:108E48000101D8A42FD00DC110F10EC111F1000EEF
:108E5800010111BFFF0E126F136F0F0ED8900101A1
:108E68001037113712371337E82EF8D710C100F131
:108E780011C101F112C102F113C103F1E80E0101A0
:108E8800046F030E056F000E066F000E076F72EC7D
:108E980065F000C116F101C117F102C118F103C153
:108EA80019F120D001010F05D8A41CD00DC110F173
:108EB8000EC111F1000E010111BFFF0E126F136FE9
:108EC8000F0ED89001011037113712371337E82EDB
:108ED800F8D710C116F111C117F112C118F113C159
:108EE80019F100D016C110F117C111F118C112F112
:108EF80019C113F10101101F111F121F131F102B8D
:108F0800000E112312231323FF0E01011025010166
:108F1800166FFF0E010111210101176F000E0101EB
:108F280012210101186F000E010113210101196FAF
:108F380001011405D8A40BD017C1CFFF16C1CEFF6D
:108F48008C0ECD6E9F809E909D80CD8000D0030EAC
:108F580001011419D8A40AD017C1B3FF16C1B2FF72
:108F68008C0EB16EA292A192A082B1800001BC5178
:108F7800D8A41200010E0001BC6F000E0101156F8C
:108F8800160E0101156502D01200120001011551DB
:108F9800020D000EF324D96E020EF420DA6E000ED4
:108FA800DE6E000EDD6E0101152B160E0101156532
:108FB800EDD712001200120002016D51D8A4D2D0D0
:108FC80002019F51D8A4CED06E0E0101066F020E89
:108FD8000101076FF50E0101086F020E0101096F0B
:108FE800040E01010A6F0EEC74F076C257F0060EFB
:108FF80002016D6F0EC106F10FC107F1720E01017A
:10900800086F020E0101096F040E01010A6F0EECD0
:1090180074F0EF0E0101066F010E0101076F6E0E6D
:109028000101086F020E0101096F040E01010A6FA8
:109038000EEC74F0A3EC79F00201766F000E0201D9
:10904800A26F010115510101D8B402D0040E01D05C
:10905800030E0201776F00D0270E0101126156D06E
:109068000101D351D8B431D0010114510101D8B450
:109078002CD0010E010110250101006F000E010125
:1090880011210101016FFF0E010112250101026F7B
:109098000101036BFF0E032309EC5EF00101166F5B
:1090A800050E0101176F0101D89016370101172F1E
:1090B800FAD7010116510201786F10C1D9FF11C109
:1090C800DAFFDF500201782708D010C1D9FF11C19B
:1090D800DAFFDF500201786F00D010C100F111C132
:1090E80001F1010E0101026F780E0101036F020EFA
:1090F8000101046F010E0101056F01011205010153
:10910800066FE6EC6BF012C19EF200D013C19FF21D
:10911800010113510101D8B403D0000E02016D6F93
:109128000001B851D8A404D0000E0101E16F18D095
:10913800720E0101066F020E0101076FED0E0101AB
:10914800086F020E0101096F040E01010A6F15EC88
:1091580073F00009D8B404D0020E02016D6F00D07C
:10916800010E1200000E120012000101116F030E11
:1091780001010819D8A460D03C0E0101116102D088
:10918800000E12D0C30E010111250101006F01016B
:10919800016BFF0E0123000E0101036F050E026F24
:1091A80040EC64F0010100510101126F00D001018F
:1091B80012510101096F0A6BFF0E01010B6FFF0EBF
:1091C80001010C6F08C10DF1010E01010E6F000EB7
:1091D80001010F6F01010D2B04D0D89001010E374A
:1091E8000F3701010D2FF9D701010B5101010E278E
:1091F80001010C5101010F230101095101010E5D0B
:1092080001010F51800A0101106F01010A51800A02
:1092180001011059D8B071D008C109F1010E01013E
:109228000A6F0101092B03D00101D8900A37010107
:10923800092FFAD75DD061D0040E01010819D8A40E
:109248005CD0DC0E010111250101006F0101016BE9
:10925800FF0E0123000E0101036F050E026F40ECA3
:1092680064F0010100510101126F01011251010165
:10927800096F0A6BFF0E01010B6FFF0E01010C6FE6
:1092880008C10DF1010E01010E6F000E01010F6FF3
:1092980001010D2B04D0D89001010E370F370101C1
:1092A8000D2FF9D701010B5101010E2701010C51B6
:1092B80001010F230101095101010E5D01010F5147
:1092C800800A0101106F01010A51800A0101105939
:1092D800D8B013D008C109F1010E01010A6F0101CC
:1092E800092B03D00101D8900A370101092FFAD7B9
:1092F80001010A050101126F00D00101125112008B
:1093080012000001D5510001DB19D8B49ED002012A
:109318005E5102015F11D8A498D00001DB51000111
:10932800D55DD8B048D0040E0001DB6144D00001FF
:10933800D551D8A40CD0010E0001E36F0001E25111
:109348000A0DF3CF5EF2F4CF5FF2010E20D00001D8
:10935800D505D8A40CD0050E0001E36F0001E25139
:109368000A0DF3CF5EF2F4CF5FF2020E10D0020EB8
:109378000001D519D8A40ED0070E0001E36F000133
:10938800E2510A0DF3CF5EF2F4CF5FF2030E000153
:10939800D56F00D064EC7AF0030E0101016FEC0E7A
:1093A800006FE3C002F1A4EC74F0E3C000F1010E19
:1093B80028EC43F04AD00001D5510001DB5DD8B05C
:1093C80044D0020E0001D5650CD0050E0001E36FF4
:1093D8000001E2510A0DF3CF5EF2F4CF5FF2020E04
:1093E80020D0020E0001D519D8A40CD0010E00011E
:1093F800E36F0001E2510A0DF3CF5EF2F4CF5FF2A2
:10940800010E0FD00001D505D8A40ED0000E000122
:10941800E36F0001E2510A0DF3CF5EF2F4CF5FF281
:10942800000E0001D56F00D064EC7AF0030E010144
:10943800016FEC0E006FE3C002F1A4EC74F0E3C01E
:1094480000F1010E28EC43F000D002015E51020148
:109458005F11D8B412000101D12B0F0E0101D165A3
:10946800120002015E07D8A05F07000E0101D16F4C
:1094780002015E5102015F11D8A41200DE0E010143
:10948800186F000E0101196F000E01011A6F0FEC21
:1094980041F01200120004000001CB51D8A41200C0
:1094A80001D012001AC1CBF0000E01011B6FB1D020
:1094B800000E0001C56F0001CD51D8A49DD03E0E0D
:1094C8000101196199D0010E0001C66F0001CD514B
:1094D800D8B404D0000E0001C66F95D0200EDBEC86
:1094E80057F00201B45101090101026F1A0E50EC44
:1094F80076F0800EDBEC57F001011951020F99EC60
:1095080079F00001B65199EC79F0000E01011F6F56
:1095180064D001011F51010DF35001011725D96EC7
:10952800F45001011821DA6EDF5001011C6F0101AE
:109538001F05D8B410D0020E01011F19D8B40BD0E2
:109548000001C55101011C190001C56F01011C5121
:1095580099EC79F03FD001011F05D8A42BD0040E57
:1095680001010C6F010EFDEC5CF00001A25101013C
:109578000C2501011D6F0001A35101010D210101FD
:109588001E6F01011E5199EC79F001011E51000175
:10959800C5190001C56F01011D510201625D01017C
:1095A8001E5102016359D8B015D01DC162F21EC107
:1095B80063F210D0020E01011F19D8A40BD00101CB
:1095C8001D5199EC79F00001C55101011D190001E7
:1095D800C56F00D001011F2B00D0010119510101F5
:1095E8001F5DD8A096D70001C55199EC79F0040009
:1095F800010E0101DE6F0AD03D0E0101196501D08F
:1096080002D00001CD510001CB0700D001011B2B76
:1096180000D001011A5101011B5DD8A049D71200E1
:109628000101066F010104510101D8B402D0200ED6
:1096380001D0600E0101056F9AD0010105510209A0
:109648000201A76F630E0201AE6F010106511B0FE5
:1096580055D00101055102090201A76F640E0201EC
:10966800AE6F01010651040F49D0210E01010661B8
:109678000BD0010105510A090201A76F650E02010D
:10968800AE6F06C1AFF281D0010105510A0902018E
:10969800A76F640E0201AE6F01010651190F2ED09B
:1096A80074D0010105510A090201A76F650E020174
:1096B800AE6F01010651210F21D00C0E0101066188
:1096C8000DD00101055102090201A76F630E0201C5
:1096D800AE6F01010651040DF350B9D70B0E01010D
:1096E80006650FD0190E010106610BD00101055165
:1096F800020912D0640E0201AE6F11D00201AF6FE1
:1097080044D0180E0101066510D01F0E0101066134
:109718000CD0010105510A090201A76FEBD701011D
:109728000645E846FC0BD00FE9D71E0E0101066579
:1097380009D0270E0101066105D00CD0650E020183
:10974800AE6F0ED0260E010106651FD0320E010144
:1097580006611BD0010105510A090201A76FEED766
:1097680001010645E846FC0B850FC8D70ED05350BB
:10977800010AD8B462D7030AD8B46BD7010AD8B49F
:1097880074D7070AD8B48DD798D7A7C202F1000EAC
:1097980050EC76F0AEC202F10E0E50EC76F0AFC28D
:1097A80002F1100E50EC76F0120002016D51D8A4AF
:1097B800BBD002019F51D8A4B7D06E0E0101066F2D
:1097C800020E0101076FF50E0101086F020E01017B
:1097D800096F040E01010A6F0EEC74F076C257F09F
:1097E800060E02016D6F000E0201A06F020E02014B
:1097F800A16F0EC106F10FC107F1720E0101086FCA
:10980800020E0101096F040E01010A6F0EEC74F0DB
:10981800EF0E0101066F010E0101076F6E0E0101C7
:10982800086F020E0101096F040E01010A6F0EECA8
:1098380074F0A3EC79F00201766F000E02019F6FBD
:109848001D0E0201786F210E0201796F10C17AF2A4
:109858003F0E02017B6F080E0101116F01011051CB
:1098680001011103F3CF12F1000E0101136F46D06D
:109878003F0E0101126121D001011251060DBD0EEA
:10988800F3240101006F0A0EF4200101016F000E9C
:109898000101026F780E0101036F020E0101046FCE
:1098A80001011351040DF350060F0101056F040E59
:1098B8000101066FE6EC6BF01CD0EB0E0101006FA6
:1098C800010E0101016F000E0101026F780E010106
:1098D800036F020E0101046F01011351040DF350CF
:1098E800060F0101056F040E0101066FE6EC6BF02F
:1098F80000D00101122B0101132B00D001011151DD
:109908000101135DD8A0B4D7030E0201776F260EAC
:1099180002019E6F0001B851D8A404D0000E0101C5
:10992800E16F00D0010E1200000E120012000101BA
:10993800000501010111D8A438D00001AA51000185
:10994800A81906E10001AB510001A919D8B4AED09D
:109958003A50D8B402D0000E1200010E3A6E000E32
:109968000001A825D96E050E0001A921DA6E02C1F1
:10997800E1FF03C1E2FFDFCFE7FF0001A84BA92BFE
:109988000001A9BF0DD00001A95105E1800E000119
:10999800A85DD8A005D0000E0001A96F000EA86F21
:1099A800000E3A6E010E120081D0020E010100195C
:1099B80001010111D8A438D00001AE510001AC1941
:1099C80006E10001AF510001AD19D8B46FD03B508A
:1099D800D8B402D0000E1200010E3B6EC90E000171
:1099E800AC25D96E060E0001AD21DA6E02C1E1FF89
:1099F80003C1E2FFDFCFE7FF0001AC4BAD2B000155
:109A0800ADBF0DD0800E0001AC5D010E0001AD5957
:109A1800D8A005D0000E0001AD6F000EAC6F000E8F
:109A28003B6EC0D7120042D0040E0101001901019B
:109A38000111D8A43BD00001A6510001A41906E1E8
:109A48000001A7510001A519D8B430D00001B251C6
:109A5800D8B402D0000E1200010E0001B26F000E41
:109A68000001A425D96E030E0001A521DA6E02C1FA
:109A7800E1FF03C1E2FFDFCFE7FF0001A44BA52B05
:109A88000001A5BF0DD00001A55105E1270E000179
:109A9800A45DD8A005D0000E0001A56F000EA46F2C
:109AA800000E0001B26F7ED7120000D0000E120027
:109AB8001200000E01010B6F3E0E01010B6502D072
:109AC8001200120001010B51060D040EF326000EC0
:109AD800F422BD0EF324D96E0A0EF420DA6EDF509C
:109AE8000F0B0F0AD8B49FD0010E0101086F0101B6
:109AF8000B51060D040EF326000EF422BD0EF324BE
:109B0800D96E0A0EF420DA6EDF500F0B0101096FCF
:109B18000101085101010927DF5001010919F00B62
:109B280001010919DF6E0001CC510F0DF3CF00F1CF
:109B3800F4CF01F1000E0101036F400E026F40ECFB
:109B480064F0040E01010027000E01010123010148
:109B58000B51060D040EF326000EF422BD0EF3245D
:109B6800D96E0A0EF420DA6EDF500F0B0101086F70
:109B7800096B010100510101085D01010951800AC9
:109B880001010A6F01010151800A01010A59D8B087
:109B980012D001010B51060D040EF326000EF4221B
:109BA800BD0EF324D96E0A0EF420DA6EDF500F0BC7
:109BB8000F0AD8A438D001010B51060D040EF32664
:109BC800000EF422BD0EF324D96E0A0EF420DA6ECC
:109BD800DF80DF82DF84DF8601010B51060D050E71
:109BE800F326000EF422BD0EF324D96E0A0EF420DB
:109BF800DA6EFF0EDF6E01010B51060D040EF3261F
:109C0800000EF422BD0EF324D96E0A0EF420DA6E8B
:109C1800DF88DF8ADF8CDF8E0001CC51D8B403D017
:109C28000001CC0700D001010B2B3E0E01010B6592
:109C380049D71200120000C1D9FF01C1DAFF000E96
:109C4800DF6E010120EE01F00051D9260151DA2220
:109C5800000EDF6E0001BE510001D8A404D000013F
:109C6800BF51D8B439D01E0E0001C06103D0000125
:109C7800C02B00D01E0E0001C019D8A41AD00E0E99
:109C88000001C36516D000C1D9FF01C1DAFF030E78
:109C9800DF6E2D0E0001C06F010120EE01F00051B2
:109CA800D9260151DA22030EDF6E2D0E0001C36F93
:109CB8000FD01E0E0001C019D8A40AD000C1D9FFC8
:109CC80001C1DAFF020EDF6E2D0E0001C06F00D059
:109CD800000E0001BF6F13D0010E0001C0650BD04C
:109CE8001F0E0001C06107D000C1D9FF01C1DAFF12
:109CF800010EDF6E00D0000E0001C06F00D0000121
:109D0800C1510001D8A404D00001C251D8B43AD03E
:109D18001E0E0001C36103D00001C32B00D01E0E2C
:109D28000001C319D8A41AD00E0E0001C06516D0C0
:109D380000C1D9FF01C1DAFF030EDF6E2D0E00014D
:109D4800C06F010120EE01F00051D9260151DA223D
:109D5800030E11D02D0E0001C36F10D01E0E00018E
:109D6800C319D8A40BD0010120EE01F00051D92667
:109D78000151DA22020EDF6EEDD700D0000E00018D
:109D8800C26F1200010E0001C3650ED01F0E000144
:109D9800C3610AD0010120EE01F00051D92601511A
:109DA800DA22010EDF6E00D0000E0001C36F120030
:109DB8001200156E000E176E000E186E000E196E4A
:109DC800000E1A6E040E1018D8A40AD00EC017F090
:109DD8000FC018F0000E18BEFF0E196E1A6E4CD088
:109DE8001050D8A42CD00EC011F00FC012F0000EE5
:109DF80012BEFF0E136E146E0F0ED8901136123667
:109E080013361436E82EF9D711C001F012C002F04B
:109E180013C003F014C004F0E80E056E030E066EBE
:109E2800000E076E000E086E22EC6EF001C017F0EF
:109E380002C018F003C019F004C01AF01DD01004B5
:109E4800D8A41AD00EC011F00FC012F0000E12BE26
:109E5800FF0E136E146E0F0ED8901136123613368D
:109E68001436E82EF9D711C017F012C018F013C035
:109E780019F014C01AF000D017C011F018C012F071
:109E880019C013F01AC014F0111E121E131E141E4E
:109E9800112A000E122213221422FF0E1124176E0B
:109EA800FF0E1220186E000E1320196E000E1420DB
:109EB8001A6E1504D8A40BD018C0CFFF17C0CEFF58
:109EC8008C0ECD6E9F809E909D80CD8000D0030E1D
:109ED8001518D8A40AD018C0B3FF17C0B2FF8C0E4B
:109EE800B16EA292A192A082B1800001BC51D8A407
:109EF8001200010E0001BC6F000E166E160E1664DD
:109F080002D0120012001650020D000EF324D96E72
:109F1800020EF420DA6E000EDE6E000EDD6E162ADA
:109F2800160E1664F0D71200120012001D0E010161
:109F3800426F1AC10BF11BC10CF1430E01010D6FE9
:109F4800010E01010E6F25EC44F00101476F1D0E53
:109F580001011C6F260E01011D6F1AC100F11BC102
:109F680001F1000E0101026F1C0E0101036F010EC9
:109F78000101046F020E0101056F040E0101066F55
:109F8800E6EC6BF0430E0101006F010E0101016F59
:109F9800000E0101026F1C0E0101036F010E010189
:109FA800046F060E0101056F040E0101066FE6EC51
:109FB8006BF047C126F11AC100F11BC101F1000E77
:109FC8000101026F1C0E0101036F010E0101046FF4
:109FD8000B0E0101056F040E0101066FE6EC6BF034
:109FE800430E0101006F010E0101016F000E010116
:109FF800026F1C0E0101036F010E0101046F0F0EA9
:10A008000101056F040E0101066FE6EC6BF047C114
:10A018002FF11AC100F11BC101F1000E0101026FFD
:10A028001C0E0101036F010E0101046F140E0101E2
:10A03800056F040E0101066FE6EC6BF0430E01019B
:10A04800006F010E0101016F000E0101026F1C0E6D
:10A058000101036F010E0101046F180E0101056F64
:10A06800040E0101066FE6EC6BF047C138F118C128
:10A078000EF119C10FF11C0E0101106F010E010143
:10A08800116F42C112F1000E0101136F010E01019F
:10A09800146F000E0101156FE0EC47F0120012007A
:10A0A8007C0ED36E9B8CD2909B8E200E926EBB0E34
:10A0B800936E130E946E860E806E010E816EC40E22
:10A0C800826E100E0F015D6F050E0F015C6FF19E21
:10A0D8000F015B810F015B930F015B850F015B979C
:10A0E8000F015B990F015B9B0F015B9D0F015B9F4C
:10A0F800D180030E0101016FEC0E006F0EEC79F0B8
:10A108000001E36F030E0101016FEE0E006F0EEC0C
:10A1180079F00001D66F030E0101016FF10E006F97
:10A128000EEC79F00001D76F030E0101016FF20EFA
:10A13800006F0EEC79F00001D86F030E0101016F7A
:10A14800ED0E006F0EEC79F00001D96F0001D951C6
:10A158000F0B0001E26F0001E251D8A404D0060EF3
:10A168000001E26F00D00001E329D8B41CD000013F
:10A17800E305D8A404D0010E0001DB6F1AD0050E48
:10A188000001E319D8A405D0020E09D00001E36F3D
:10A1980010D0070E0001E319D8A405D0030E000162
:10A1A800DB6F010EF3D7000E0001DB6F000EEED758
:10A1B80000D0000E0101006F030E28EC43F0E3C04D
:10A1C80000F1010E28EC43F0010E0101FA6F000EB8
:10A1D8000201476F000E466F000E0201456F000E28
:10A1E800446F000E0201616F000E606F000E0201E5
:10A1F800636F000E626F000E0001C46F0201A36955
:10A208000201A4690201A5690201A669000E486E4F
:10A21800120001012F6F0101DE51D8B404D0000EE5
:10A228000101DE6F1200040EBAEC75F00009D8B413
:10A2380066D0010E386E63D012EC5FF00DC1B0F03D
:10A248000EC1B1F00001B1BF08D03E0E0001B05DF3
:10A25800080E0001B159D8B003D0000E386E1200B4
:10A26800382A1200FAEC6AF00DC135F00EC136F04A
:10A27800382A120001012F510201405D000E415998
:10A28800D8B002D0382A120001012F510201405FD4
:10A29800000E415B1200000E0101F86F01012F5101
:10A2A8000201425D000E4359D8A0120001D01200ED
:10A2B80001012F510201425F000E435B1200040EA0
:10A2C800ABEC77F00009D8B412002CC126F12DC1EF
:10A2D80027F12EC128F1040EDCEC6DF01200000EFF
:10A2E8000101006F080E5AEC74F0382A120096EC3F
:10A2F8006DF00DC150F20EC151F2382A12003850DB
:10A30800010DF70EF324F66EFD0EF420F76E08002B
:10A31800F550000AD8B4D3D7010AD8B48DD7030AA8
:10A32800D8B4A0D7010AD8B41200070AD8B41200CA
:10A33800010AD8B41200030AD8B41200010AD8B42A
:10A3480012000F0AD8B496D7010AD8B41200030A2B
:10A35800D8B4A1D7010AD8B41200070AD8B4120099
:10A36800010AD8B41200030AD8B41200010AD8B4FA
:10A3780012001F0AD8B4BBD7010AD8A41200AFD75D
:10A3880012001D0E0101266F200E0101276F22C148
:10A3980028F174EC7AF00101296F030E0101556F61
:10A3A8000101225101015503F3CF54F1000E0101BF
:10A3B800586F000E576F6DD04C0E0101146F010ECF
:10A3C8000101156F500E0101166F010E0101176F83
:10A3D800560E0101186F010E0101196F0101545148
:10A3E80015EC61F04C0E0101006F010E0101016FC7
:10A3F800000E0101026F260E0101036F010E01011B
:10A40800046F01015751090DF350040F0101056F45
:10A41800040E0101066FE6EC6BF0500E0101006FAF
:10A42800010E0101016F000E0101026F260E0101EC
:10A43800036F010E0101046F01015751090DF3501B
:10A44800080F0101056F040E0101066FE6EC6BF0C1
:10A4580057C100F158C101F1000E0101036F090E47
:10A46800026F18EC76F00C0E01010027000E0101B6
:10A478000123260E01010025D96E010E01010121DB
:10A48800DA6E56C1DFFF0101542B0101574B582BDF
:10A4980000D0010155510101236F246B01012351A3
:10A4A8000101575D01015851800A0101256F010121
:10A4B8002451800A01012559D8A07ED720C10EF168
:10A4C80021C10FF1260E0101106F010E0101116F5C
:10A4D800260E0101126F000E0101136F010E01011A
:10A4E800146F000E0101156FE0EC47F01200120026
:10A4F8000AC10EF101010F6B106B01010935010151
:10A508000E3701E30F8101010E510101116F0101A5
:10A518001151D8A40AD0000E0101086F000E0101E4
:10A52800096F000E01010A6F12000DC10EF1010141
:10A538000F6B106B01010C3501010E3701E30F8120
:10A5480001010E510101166F01011651D8A40AD05C
:10A55800000E0101086F000E0101096F000E0101D4
:10A568000A6F1200010116517B0F010111270AC160
:10A5780016F101010D510101161B800E010116177C
:10A588000101098F01010C8FFF0E01010B17FF0E4E
:10A5980001010C17000E01010D17000E0101126FC9
:10A5A800000E0101136F000E0101146F070E010167
:10A5B800156F00D0010108A10DD001010B51010157
:10A5C800122701010C510101132301010D51010151
:10A5D800142300D00101D8900A330933083301014C
:10A5E800D8900B370C370D370101152FE3D700D062
:10A5F800090E0101156F00D0010108A10DD001015C
:10A608000B510101122701010C5101011323010112
:10A618000D510101142300D00101D8900A330933E8
:10A6280008330101D8901433133312330101152F65
:10A63800E3D700D012C100F113C101F114C102F136
:10A6480011C103F116C104F150EC5BF000C108F12F
:10A6580001C109F102C10AF1120012006EC072F0C4
:10A668000001736B746B00016D350001723701E3F3
:10A678007381000172510001756F00017551D8A4F2
:10A688000AD0000E00016C6F000E00016D6F000E05
:10A6980000016E6F120071C072F00001736B746B71
:10A6A800000170350001723701E3738100017251B6
:10A6B80000017A6F00017A51D8A40AD0000E000177
:10A6C8006C6F000E00016D6F000E00016E6F1200BE
:10A6D80000017A517B0F000175276EC07AF00001E6
:10A6E800715100017A1B800E00017A1700016D8FED
:10A6F8000001708FFF0E00016F17FF0E0001701729
:10A70800000E00017117000E0001766F000E0001A7
:10A71800776F000E0001786F070E0001796F00D087
:10A7280000016CA10DD000016F51000176270001D6
:10A73800705100017723000171510001782300D086
:10A748000001D8906E336D336C330001D8906F37A9
:10A75800703771370001792FE3D700D0090E000157
:10A76800796F00D000016CA10DD000016F5100017C
:10A778007627000170510001772300017151000113
:10A78800782300D00001D8906E336D336C3300010C
:10A79800D8907833773376330001792FE3D700D018
:10A7A80076C060F077C061F078C062F075C063F081
:10A7B8007AC064F0E0EC5BF060C06CF061C06DF0F2
:10A7C80062C06EF0120012000101CD51D8B4A3D0BE
:10A7D8000001CD51D8A49FD0D0C100F10101016B77
:10A7E800000E0101036F000E026FC90E0101046F14
:10A7F800000E056F000E066F000E076F5CEC70F020
:10A808000101005101012F6F01012F510101D8A44D
:10A8180002D0000E1200000E01010E6F01012F512F
:10A82800010D000EF324D96E060EF420DA6EDF5007
:10A83800F7EC77F0D3A60FD0040E01010C6F010ED0
:10A84800FDEC5CF00001A25101010C250101306F03
:10A858000001A35114D0040E01010C6F010EFDEC90
:10A868005CF00001A25101010C270001A351010174
:10A878000D23E60E01010C250101306FFF0E0101C9
:10A888000D210101316F00D060EC7AF02CC1D9FFA5
:10A898002DC1DAFFDF6E010120EE02F02C51D9261E
:10A8A8002D51DA2230C1DFFF010120EE01F02C51D9
:10A8B800D9262D51DA2201013151DF6E2CC117F151
:10A8C8002DC118F101012E51030F0101196F010E5D
:10A8D80001011A6F4FEC4AF00101D651D8A417D0E4
:10A8E800080E79EC71F0010100510101D625010132
:10A8F800D66FD6C126F10101276B010E0101286F21
:10A90800080EDCEC6DF0000E0101D66F00D0000ED1
:10A918004B6E010E1200000E1200120000C1D9FF8A
:10A9280001C1DAFF1D0EDF6E010120EE01F00051BA
:10A93800D9260151DA22230EDF6E010120EE02F042
:10A948000051D9260151DA22D4C002F10101023B9B
:10A95800F00E021735EC7AF0010102250001D2252C
:10A96800DF6E010120EE03F00051D9260151DA22F1
:10A97800D4C002F10101023BF00E021735EC7AF067
:10A98800010102250001D225DF6E010120EE04F04D
:10A998000051D9260151DA22D4C002F10101023B4B
:10A9A800F00E021735EC7AF0010102250001D225DC
:10A9B800DF6E010120EE05F00051D9260151DA229F
:10A9C800C7C0DFFF010120EE06F00051D926015172
:10A9D800DA22C7C0DFFF010120EE07F00051D926B7
:10A9E8000151DA22C7C0DFFF010120EE08F0005153
:10A9F800D9260151DA225CEC7AF0DF6E010120EEF3
:10AA080009F00051D9260151DA225CEC7AF0DF6EA8
:10AA1800010120EE0AF00051D9260151DA225CEC3E
:10AA28007AF0DF6E010120EE0BF00051D9260151BA
:10AA3800DA2248EC7AF0DF6E010120EE0CF00051CA
:10AA4800D9260151DA2248EC7AF0DF6E010120EEB6
:10AA58000DF00051D9260151DA2248EC7AF0DF6E68
:10AA68000E0E0101036F010103511200120019C1FA
:10AA78001BF101011C6B1D6B0101183501011B370E
:10AA880001E31C8101011B510101256F01012551C1
:10AA9800D8A40AD0000E0101176F000E186F000E1F
:10AAA800196F000E1A6F1200170E01011B6F17C1E4
:10AAB8001CF118C11DF119C11EF101011B29010169
:10AAC8001F6F05D00101D8901E331D331C330101BF
:10AAD8001F2FF8D701011C510101206F0101188FA8
:10AAE800FF0E01011717FF0E01011817000E0101D3
:10AAF8001917010117510101216F010118510101B5
:10AB0800226F010119510101236F0101246B8E0E7F
:10AB18000101255F010125AF1BD001012551800AE4
:10AB28008F0FD8B00BD0000E0101176F000E186FF1
:10AB3800000E196F000E1A6F120000D00101D89094
:10AB480024332333223321330101253FF7D71FD084
:10AB5800170E0101256514D0000E0101176F000EB4
:10AB6800186F000E196F000E1A6F120009D001013C
:10AB7800D89021372237233724370101250700D001
:10AB8800010125510101D8B402D0F1D700D001014B
:10AB980020510101D8B40AD00101241F231F221F0C
:10ABA800216D000E22232323242300D021C117F175
:10ABB80022C118F123C119F124C11AF1120012009F
:10ABC8000DC111F10101126B136B01010C3501016B
:10ABD800113701E31281010111510101186F0101BF
:10ABE8001851D8A40AD0000E01010B6F000E010104
:10ABF8000C6F000E01010D6F120010C111F101015F
:10AC0800126B136B01010F350101113701E312813A
:10AC1800010111510101196F01011951D8A40AD07C
:10AC2800000E01010B6F000E01010C6F000E0101F7
:10AC38000D6F1200000E0101156F000E0101166F55
:10AC4800000E0101176F01011951890F0101185FE9
:10AC58000DC119F1010110510101191B800E0101EB
:10AC6800191701010C8FFF0E01010B17FF0E0101CF
:10AC78000C17000E01010D1701010F8FFF0E0101C6
:10AC88000E17FF0E01010F17000E01011017180E05
:10AC98000101146F00D00101D89015371637173706
:10ACA80001010E5101010B5D01010F5101010C5908
:10ACB8000101105101010D59D8A00ED001010E510A
:10ACC80001010B5F01010F5101010C5B01011051E2
:10ACD80001010D5B010115810101D8900B370C377B
:10ACE8000D370101142FD7D700D015C100F116C1B7
:10ACF80001F117C102F118C103F119C104F150ECB7
:10AD08005BF000C10BF101C10CF102C10DF11200A1
:10AD180012007DC07FF00001806B816B00017C35E3
:10AD280000017F3701E3808100017F510001896FB5
:10AD380000018951D8A40AD0000E00017B6F000ED3
:10AD48007C6F000E7D6F000E7E6F1200170E0001E3
:10AD58007F6F7BC080F07CC081F07DC082F00001F5
:10AD68007F290001836F05D00001D8908233813399
:10AD780080330001832FF8D7000180510001846FD0
:10AD880000017C8FFF0E00017B17FF0E00017C176E
:10AD9800000E00017D1700017B510001856F000145
:10ADA8007C510001866F00017D510001876F000111
:10ADB800886B8E0E0001895F000189AF1BD00001EE
:10ADC8008951800A8F0FD8B00BD0000E00017B6F1D
:10ADD800000E7C6F000E7D6F000E7E6F120000D09B
:10ADE8000001D89088338733863385330001893F43
:10ADF800F7D71FD0170E0001896514D0000E000187
:10AE08007B6F000E7C6F000E7D6F000E7E6F120050
:10AE180009D00001D89085378637873788370001F1
:10AE2800890700D0000189510001D8B402D0F1D7B8
:10AE380000D0000184510001D8B40AD00001881F55
:10AE4800871F861F856D000E86238723882300D0E1
:10AE580085C07BF086C07CF087C07DF088C07EF01E
:10AE680012001200000E01012D6F0A0E2C6F010E48
:10AE780001012E6F3E0E0DEC51F0020135BF0CD0D2
:10AE88000201355104E102013405D8A005D00201C0
:10AE98003407D8A0350700D00101C251D8A402D088
:10AEA800110E18D00201345102013511D8A418D05E
:10AEB8007FEC74F00009D8B407D0010E0201356F99
:10AEC8002C0E346F120E06D0000E0201356F1E0EC6
:10AED800346F100E0101C66F010E0101D46F00D04E
:10AEE8000101D5510101D8A40DD042EC22F093B64E
:10AEF80009D00101D4510101D8B402D08A8602D008
:10AF08008A9600D0130EBAEC75F00009D8B439D07F
:10AF1800D7C081F10101826B01018151826F816B80
:10AF28000001D65101018127000E822301018129E8
:10AF38000F0E01018259D8B020D001018151355C32
:10AF4800010182513658D8B00CD00001D8510F0BEE
:10AF5800040AD8B412D00001D8510F0BEAEC6EF0F5
:10AF68000CD00001D8390F0B040AD8B406D0000160
:10AF7800D8390F0BEAEC6EF000D0000E0101B86F63
:10AF880000D0130EABEC77F00009D8B40CD0010E4A
:10AF98000101276F2C0E266F010E0101286F130E79
:10AFA800DCEC6DF000D085EC49F0120012000101D4
:10AFB800056F80D0000E0101006F010E76EC75F070
:10AFC800E40E00D000D0E82EFCD700D000D002015B
:10AFD800A7511F0B80090201A76FA7C202F1000E3B
:10AFE80050EC76F0800E0101C26F0B0E0101046F68
:10AFF800620EE82EFED7042FFCD700D01200020103
:10B00800A7511F0B60090201A76FA7C202F1000E2A
:10B0180050EC76F0D4C000F1000E76EC75F0600EBE
:10B028000101C26F1200000E0101006F000E76ECE4
:10B0380075F00201A7511F0B20090201A76FA7C2D3
:10B0480002F1000E50EC76F0680E0101046FE40E78
:10B05800E82EFED7042FFCD700D0200E0101C26FC6
:10B068001200000E0101006F000E76EC75F002016F
:10B07800A7511F0B40090201A76FA7C202F1000EDA
:10B0880050EC76F0400E0101C26F1200000E010173
:10B09800006F000E76EC75F00201A7511F0B02013C
:10B0A800A76F000E0101C26FA7C202F1000E50EC9B
:10B0B80076F0120001010551000AD8B4E7D7200A3A
:10B0C800D8B4B1D7600AD8B4CCD7200AD8B497D7A7
:10B0D800E00AD8A412006ED712000101CD51D8A4FD
:10B0E80004D00001CD51D8B403D0000E120087D08F
:10B0F8003C50D8A484D0D0C100F10101016B23C118
:10B1080002F10101036BC90E0101046F000E056F06
:10B11800000E066F000E076F5CEC70F00101005125
:10B128000101246F010124510101D8A402D0000EAD
:10B138001200000E01010E6F01012451010D000ED5
:10B14800F324D96E060EF420DA6EDF50F7EC77F0B0
:10B15800D3A60FD0040E01010C6F010EFDEC5CF0BC
:10B168000001A25101010C250101256F0001A35125
:10B1780014D0040E01010C6F010EFDEC5CF000010F
:10B18800A25101010C270001A35101010D23E60E74
:10B1980001010C250101256FFF0E01010D2101019F
:10B1A800266F00D060EC7AF020C1D9FF21C1DAFF08
:10B1B800DF6E010120EE02F02051D9262151DA225A
:10B1C80025C1DFFF010120EE01F02051D9262151D0
:10B1D800DA2201012651DF6E20C117F121C118F1D1
:10B1E80001012251030F0101196F010E01011A6FAC
:10B1F8004FEC4AF0010E3C6E010E120000D0000E1A
:10B208001200120006C1D9FF07C1DAFFDE04D8A474
:10B2180089D0050E0101086585D0F90E01010825C0
:10B228000101006F0101016BFF0E0123000E0101F6
:10B23800036F050E026F53EC67F001010051010125
:10B248000111D8A46FD0FF0E0101096FFF0E010193
:10B258000A6F0101085101010B6F0C6B01010951C3
:10B2680001010B2701010A5101010C2301010B51B6
:10B2780001010625D96E01010C5101010721DA6E81
:10B288000001C751DE18D8B420D0FF0E0101096FA4
:10B29800FF0E01010A6F0101085101010B6F0C6BD0
:10B2A8000101095101010B2701010A5101010C2378
:10B2B80001010B5101010625D96E01010C51010153
:10B2C8000721DA6EDE28D8A403D0010E12002AD096
:10B2D8000001C729D8A423D0FF0E0101096FFF0E72
:10B2E80001010A6F0101085101010B6F0C6B01018B
:10B2F800095101010B2701010A5101010C23010128
:10B308000B5101010625D96E01010C5101010721DC
:10B31800DA6EDE28D8B403D0020E120003D0000E75
:10B32800120000D0000E12001200010100050101F8
:10B338000111D8A42AD00001B951D8A4120001D013
:10B348001200010E0001B96F000E0001AA25D96E86
:10B35800050E0001AB21DA6E02C1DFFF0001AA4B26
:10B36800AB2B0001ABBF0DD00001AB5105E1800E46
:10B378000001AA5DD8A005D0000E0001AB6F000E39
:10B38800AA6F000E0001B96F1200020E0101001928
:10B3980001010111D8A42AD00001BA51D8A4120081
:10B3A80001D01200010E0001BA6FC90E0001AE25CE
:10B3B800D96E060E0001AF21DA6E02C1DFFF00016F
:10B3C800AE4BAF2B0001AFBF0DD0800E0001AE5DBC
:10B3D800010E0001AF59D8A005D0000E0001AF6FD3
:10B3E800000EAE6F000E0001BA6F1200040E0101CC
:10B3F800001901010111D8A412000001B351D8A409
:10B40800120001D01200010E0001B36F000E0001FE
:10B41800A625D96E030E0001A721DA6E02C1DFFF4F
:10B428000001A64BA72B0001A7BF0DD00001A75113
:10B4380005E1270E0001A65DD8A005D0000E000189
:10B44800A76F000EA66F000E0001B36F1200120066
:10B458000001600500016111D8A42AD00001B9518A
:10B46800D8A4120001D01200010E0001B96F000E1D
:10B478000001AA25D96E050E0001AB21DA6E62C063
:10B48800DFFF0001AA4BAB2B0001ABBF0DD00001C1
:10B49800AB5105E1800E0001AA5DD8A005D0000ED1
:10B4A8000001AB6F000EAA6F000E0001B96F120009
:10B4B800020E0001601900016111D8A42AD0000110
:10B4C800BA51D8A4120001D01200010E0001BA6FBF
:10B4D800C90E0001AE25D96E060E0001AF21DA6E45
:10B4E80062C0DFFF0001AE4BAF2B0001AFBF0DD034
:10B4F800800E0001AE5D010E0001AF59D8A005D045
:10B50800000E0001AF6F000EAE6F000E0001BA6FA3
:10B518001200040E0001601900016111D8A4120084
:10B528000001B351D8A4120001D01200010E00018D
:10B53800B36F000E0001A625D96E030E0001A721E6
:10B54800DA6E62C0DFFF0001A64BA72B0001A7BF80
:10B558000DD00001A75105E1270E0001A65DD8A076
:10B5680005D0000E0001A76F000EA66F000E0001A7
:10B57800B36F1200120006EEC9F015EE6EF0EE6A17
:10B58800E550E150FCE1E250FAE105EE00F0800EF2
:10B59800EE6AE806FDE104EE00F010EEFFF0EE6A58
:10B5A800E550E150FCE1E250FAE103EE00F010EE64
:10B5B800FFF0EE6AE550E150FCE1E250FAE102EEFC
:10B5C80000F0A70EEE6AE806FDE101EEAEF04A0EC5
:10B5D800EE6AE806FDE100EEA2F0390EEE6AE80632
:10B5E800FDE100EE31F0210EEE6AE806FDE11A0EEB
:10B5F800F66ECA0EF76E000EF86E06EE00F010EE4C
:10B60800C9F00900F5CFEEFFE550E150FAE1820EEE
:10B61800F66EE60EF76E000EF86E02EEA7F010EE6C
:10B6280056F00900F5CFEEFFE550E150FAE1880E3B
:10B63800F66EF40EF76E000EF86E01EEF8F010EEEE
:10B6480008F00900F5CFEEFFE550E150FAE1E00E11
:10B65800F66EF40EF76E000EF86E00EEDBF010EEEC
:10B6680007F00900F5CFEEFFE550E150FAE1F20EE0
:10B67800F66EF30EF76E000EF86E00EE52F010EE56
:10B688000EF00900F5CFEEFFE550E150FAE1000EAB
:10B69800F86E0001EDEF04F0010103510101D8B487
:10B6A80008D0010100510101011101010211D8A4C2
:10B6B80013D0000E0101006F000E0101016F000E92
:10B6C8000101026F120008D00101032B0101D8907B
:10B6D80002330133003300D0000E010100150101CF
:10B6E800056F000E010101150101066FFE0E010133
:10B6F80002150101076F0101055101010611010140
:10B708000711D8B413D0E0D711D00101032B010ED3
:10B7180001010027000E01010123000E010102238F
:10B728000101D89002330133003300D0000E01012B
:10B7380000150101056F000E010101150101066FD9
:10B74800FF0E010102150101076F010105510101F9
:10B75800061101010711D8B40AD0D7D708D00101C2
:10B7680003070101D89000370137023700D00101E3
:10B7780001BF05D0020E01010361F1D700D001011C
:10B7880003B103D00101019F00D00101D890033318
:10B798000101035101010213010104510101D8B44F
:10B7A80003D00101028F00D000C100F101C101F1F5
:10B7B80002C102F112001200000163510001D8B465
:10B7C80008D0000160510001611100016211D8A484
:10B7D80013D0000E0001606F000E0001616F000EB3
:10B7E8000001626F120008D00001632B0001D8909D
:10B7F80062336133603300D0000E00016015000130
:10B80800656F000E000161150001666FFE0E0001F4
:10B8180062150001676F00016551000166110001A2
:10B828006711D8B413D0E0D711D00001632B010EF3
:10B8380000016027000E00016123000E0001622351
:10B848000001D89062336133603300D0000E0001EC
:10B8580060150001656F000E000161150001666F3B
:10B86800FF0E000162150001676F000165510001BC
:10B87800661100016711D8B40AD0D7D708D00001E3
:10B8880063070001D89060376137623700D0000144
:10B8980061BF05D0020E00016361F1D700D000013D
:10B8A80063B103D00001619F00D00001D8906333D9
:10B8B8000001635100016213000164510001D8B412
:10B8C80003D00001628F00D060C060F061C061F0F9
:10B8D80062C062F01200120001040210D8A42AD03B
:10B8E8000001B951D8A4120001D01200010E0001C4
:10B8F800B96F000E0001AA25D96E050E0001AB2113
:10B90800DA6E03C0DFFF0001AA4BAB2B0001ABBF0F
:10B918000DD00001AB5105E1800E0001AA5DD8A051
:10B9280005D0000E0001AB6F000EAA6F000E0001DB
:10B93800B96F1200020E01180210D8A42AD0000113
:10B94800BA51D8A4120001D01200010E0001BA6F3A
:10B95800C90E0001AE25D96E060E0001AF21DA6EC0
:10B9680003C0DFFF0001AE4BAF2B0001AFBF0DD00E
:10B97800800E0001AE5D010E0001AF59D8A005D0C0
:10B98800000E0001AF6F000EAE6F000E0001BA6F1F
:10B998001200040E01180210D8A412000001B351BD
:10B9A800D8A4120001D01200010E0001B36F000EDE
:10B9B8000001A625D96E030E0001A721DA6E03C087
:10B9C800DFFF0001A64BA72B0001A7BF0DD0000188
:10B9D800A75105E1270E0001A65DD8A005D0000EED
:10B9E8000001A76F000EA66F000E0001B36F1200D2
:10B9F80012000101126F01011205D8A416D0CECF92
:10BA080013F10101146BCFCF15F10101166B010180
:10BA180015510101166F156B01011351010115270D
:10BA2800010114510101162300D0030E010112195E
:10BA3800D8A416D0B2CF13F10101146BB3CF15F10E
:10BA48000101166B010115510101166F156B0101FA
:10BA5800135101011527010114510101162300D0CA
:10BA680001010C510101D8A435D015C10EF116C140
:10BA78000FF101010E1F0F1F0E4B0F2BFF0E0101BF
:10BA88000E250101106FFF0E01010F210101116F39
:10BA980010C100F111C101F10101026B036BE80E45
:10BAA8000101046F030E056F000E066F000E076F8D
:10BAB800E2EC6FF0100E07D00101D8900333023387
:10BAC800010101330033E82EF7D700C10CF101C1A1
:10BAD8000DF1120015C10EF116C10FF101010E1F73
:10BAE8000F1F0E4B0F2BFF0E01010E2501010C6FCE
:10BAF800FF0E01010F2101010D6F1200120000015C
:10BB0800706F00017005D8A416D0CECF73F0000175
:10BB1800746BCFCF75F00001766B00017551000191
:10BB2800766F756B00017351000175270001745120
:10BB38000001762300D0030E00017019D8A416D096
:10BB4800B2CF73F00001746BB3CF75F00001766B60
:10BB5800000175510001766F756B0001735100018A
:10BB68007527000174510001762300D000016C5143
:10BB78000001D8A435D075C06EF076C06FF0000112
:10BB88006E1F6F1F6E4B6F2BFF0E00016E2500019D
:10BB9800716FFF0E00016F210001726F71C060F0BC
:10BBA80072C061F00001626B636BE80E0001646FA4
:10BBB800030E656F000E666F000E676F1FEC70F066
:10BBC800100E07D00001D89063336233000161334F
:10BBD8006033E82EF7D760C06CF061C06DF01200DA
:10BBE80075C06EF076C06FF000016E1F6F1F6E4B50
:10BBF8006F2BFF0E00016E2500016C6FFF0E000118
:10BC08006F2100016D6F120012000001C851000180
:10BC1800D8A404D0010E0001C86F00D0C8C007F135
:10BC2800000E01010A6F5DD0000E0101096F000EC0
:10BC3800086F2CD001010A51010DF35001010025B4
:10BC4800D96EF45001010121DA6E0001C851010DCD
:10BC5800C70EF324E16E020EF420E26EE7500101F4
:10BC6800046F01010A51010DF35001010025E16E35
:10BC7800F45001010121E26EE750010104250101A0
:10BC88000A25DF6E0101084B092B00D00001C851BD
:10BC9800010DC70EF324D96E020EF420DA6EDF50C0
:10BCA800070B0101046F056B010104510101085DD7
:10BCB80001010951800A0101066F01010551800A3D
:10BCC80001010659D8A0B6D70001C82B070E0001FC
:10BCD800C86504D0000E0001C86F00D001010A2B0E
:10BCE80000D001010A510101046F056B01010251E5
:10BCF8000101045D01010551800A0101066F01017E
:10BD08000351800A01010659D8A08ED701010751B5
:10BD1800120012000101096F000E01010A6F0F01E4
:10BD28005A99000E0001CD6F000E0001DA6F000E67
:10BD38000001CF6F000E0001D06F000E0001CE6F22
:10BD4800000E0001B56F200E0101C26F000E476E94
:10BD5800000E0001C66F000E0101DE6F000E01012A
:10BD6800E86F000E0001CB6F8986050E0101076F91
:10BD7800260EE82EFED7072FFCD700D08996680E2E
:10BD88000101076FE40EE82EFED7072FFCD700D07D
:10BD9800000E0101046F0101095114EC4BF0000E73
:10BDA80001010A6F1F0E01010A6501D015D00101BA
:10BDB8000A51010DA70EF324D96E020EF420DA6E93
:10BDC800DF500101026F01010A51020DF35050ECDE
:10BDD80076F001010A2BE6D70001B6515EEC79F046
:10BDE800F29600F00F015A8900F081CF08F100F0B7
:10BDF800F290F28609C152F0150E0101076FC60EC6
:10BE0800E82EFED7072FFCD700D000EC79F0010E02
:10BE18000001D26F000E0001D46F1200000E010164
:10BE2800116F000E0101106F000E0F6F000E01015F
:10BE3800136F000E126F000E0101006F040E5AEC12
:10BE480074F0000E0101136F000E126F000E010155
:10BE5800116F090E0101116501D023D07AEC7AF037
:10BE680000D00EEC7AF00009D8A4FBD7C450010129
:10BE7800106F0F6BC35001010F13040E0101116500
:10BE880009D001010F5101011227010110510101CF
:10BE9800132300D00A0EE82EFED700D00101112B83
:10BEA800D8D712C106F113C107F1000E0101096FBD
:10BEB800050E086F68EC6EF006C112F107C113F1A8
:10BEC800020E0101006F040E5AEC74F0C29012C108
:10BED80000F113C101F1000E0101036F070E026F9B
:10BEE80018EC76F000C106F101C107F1000E01015E
:10BEF800096F060E086F68EC6EF006C112F107C1F3
:10BF080013F10101DD510101125F000E0101DDBFD6
:10BF1800FF0E0101135B12C10DF113C10EF11200E6
:10BF28001200000E0101096F010103AF0DD00101DC
:10BF3800031F021F011F006D000E012302230323AC
:10BF4800010E0101096F00D0010107AF0AD00101FC
:10BF5800071F061F051F046D000E05230623072370
:10BF680000D001010451010105110101061101016F
:10BF78000711D8B43FD0010E0101086F09D00101A3
:10BF8800D89004370537063707370101082B00D04A
:10BF9800010107BF02D0F3D700D00101045101010C
:10BFA800005D01010551010101590101065101011D
:10BFB80002590101075101010359D8A011D001010B
:10BFC80004510101005F010105510101015B0101FB
:10BFD80006510101025B010107510101035B00D019
:10BFE8000101D89007330633053304330101082FC4
:10BFF800D4D700D0010109510101D8B40AD00101F8
:10C00800031F021F011F006D000E012302230323DB
:10C0180000D000C100F101C101F102C102F103C168
:10C0280003F1120012000101086FFA0E0101086104
:10C0380078D008C109F101010A6B09C106F10AC1EA
:10C0480007F10101D890063707370101D890063764
:10C05800073706C109F107C10AF104C1D9FF05C1B3
:10C06800DAFF09C102F10AC103F1F1EC79F001012B
:10C07800076FDE5001010719D8A451D0010120EE45
:10C0880001F00451D9260551DA22010E01010925D2
:10C098000101026F000E01010A210101036FF1EC99
:10C0A80079F00101076FDE5001010719D8A437D0D4
:10C0B800010120EE02F00451D9260551DA22020EC0
:10C0C800010109250101026F000E01010A21010188
:10C0D800036FF1EC79F00101076FDE5001010719D8
:10C0E800D8A41DD0010120EE03F00451D926055132
:10C0F800DA22030E010109250101026F000E010178
:10C108000A210101036FF1EC79F00101076FDE509C
:10C1180001010719D8A403D0010E120000D0000EA7
:10C128001200000E12001200010E0001D26F000E64
:10C13800D4EC78F0000E0001D46FFF0EE8EC73F039
:10C14800000E5EEC79F0080E21EC7AF0EBC1DEF01F
:10C15800ECC1DFF0EDC1E0F0EEC1E1F0D2C02FF1AB
:10C1680064EC7AF0030E0101016FEF0E006F48ECEA
:10C178007AF00101026FA4EC74F064EC7AF0030E1B
:10C188000101016FFC0E006F5CEC7AF00101026F97
:10C19800A4EC74F064EC7AF0030E0101016FFD0E5B
:10C1A800006F2FC102F1A4EC74F064EC7AF0030E76
:10C1B8000101016FFE0E006FC7C002F1A4EC74F01C
:10C1C80064EC7AF0030E0101016FE80E006FFF0EB8
:10C1D8000101026FA4EC74F064EC7AF0030E010123
:10C1E800016FE90E006FFF0E0101026FA4EC74F0FD
:10C1F80064EC7AF0030E0101016FEA0E006FFF0E86
:10C208000101026FA4EC74F064EC7AF0030E0101F2
:10C21800016FEB0E006FFF0E0101026FA4EC74F0CA
:10C22800120001011F6FFA0E01011F614FD01B0E92
:10C2380001010C6F010E01010D6F01011F51B8ECD6
:10C2480068F01B0E0101066F010E0101076F14C192
:10C2580008F115C109F1040E01010A6F0EEC74F022
:10C2680001011F51020DC90EF324D96E080EF420E6
:10C27800DA6EDF503F0B01011A6F01011A51060DEA
:10C28800BD0EF3240101066F0A0EF4200101076FA9
:10C2980016C108F117C109F1040E01010A6F0EEC6D
:10C2A80074F001011F51020D010EF326000EF42255
:10C2B800C90EF324D96E080EF420DA6EDF501F0B76
:10C2C80018C1D9FF19C1DAFFDF6E1200EB0E0101A8
:10C2D800066F010E0101076F14C108F115C109F1BC
:10C2E800040E01010A6F0EEC74F0EB0E0101066FEB
:10C2F800010E0101076F16C108F117C109F1040EFB
:10C3080001010A6F0EEC74F018C1D9FF19C1DAFFE8
:10C31800FF0EDF6E1200120001010D6F01010D51B9
:10C3280081EC77F00DC100F10101016B01010651AB
:10C33800050F0101026F99EC59F007C108F1060ECB
:10C3480001010827020E0101096F0101082B03D022
:10C358000101D89009370101082FFAD701010951C5
:10C3680001010A6F0DC100F10101016B0AC102F15F
:10C3780099EC59F0000E01010B6F000E01010C6FD2
:10C3880025D00DC100F10101016B01010C51010D16
:10C39800F35001010425D96EF45001010521DA6E2C
:10C3A800DF500101026F99EC59F001010C51010DA8
:10C3B800F35001010425D96EF45001010521DA6E0C
:10C3C800DF5001010B1B01010C2B00D001010651AC
:10C3D80001010C5DD8A0D5D70DC100F10101016B99
:10C3E8000BC102F199EC59F00DC100F10101016B8B
:10C3F8000D0E0101026F99EC59F00DC100F1010118
:10C40800016B0A0E0101026F99EC59F01200000E3F
:10C4180001010A6F5ED0000E0101096F000E086F5E
:10C428002DD001010A51010DF35001010025D96EEB
:10C43800F45001010121DA6E01010A51010DF35096
:10C4480001010025E16EF45001010121E26EE7507F
:10C458000101056F01010451010DC70EF324E16EBE
:10C46800020EF420E26EE75001010A2500080101DE
:10C478000525DF6E0101084B092B00D0010104518D
:10C48800010DC70EF324D96E020EF420DA6EDF50C8
:10C49800070B0101056F066B010105510101085DDC
:10C4A80001010951800A0101076F01010651800A43
:10C4B80001010759D8A0B5D70101042B070E0101C6
:10C4C800046504D0000E0101046F00D001010A2B9D
:10C4D80000D001010A510101056F066B01010251EB
:10C4E8000101055D01010651800A0101076F010183
:10C4F8000351800A01010759D8A08DD71200030EF5
:10C50800010134250101386F000E010135210101B7
:10C51800396F32C106F133C107F106EC6AF0010147
:10C52800376F32C106F133C107F138C108F139C19B
:10C5380009F1040E01010A6F0EEC74F0EF0E01010F
:10C54800066F010E0101076F040E01013825010174
:10C55800086F000E010139210101096F040E010164
:10C568000A6F0EEC74F0020E0101CB19D8A410D09A
:10C5780038C104F139C105F101013651080F010133
:10C58800066F000E0101076F020E90EC61F000D0FB
:10C5980032C106F133C107F1EB0E0101086F010E3C
:10C5A8000101096F040E01010A6F15EC73F000090F
:10C5B800D8A40ED034C120F135C121F10101365182
:10C5C800080F0101226F37C123F171EC58F01200F6
:10C5D80034C12CF135C12DF101013651080F01018B
:10C5E8002E6FE8EC53F01200120010C106F111C1D1
:10C5F80007F10EC108F10FC109F1040E01010A6F1C
:10C608000EEC74F0EF0E0101006F010E0101016FD5
:10C61800000E0101026F0EC103F10FC104F1040EF7
:10C628000101056F040E0101066FE6EC6BF00101D4
:10C6380020EE08F00E51D9260F51DA22030EDF6ED4
:10C64800010120EE09F00E51D9260F51DA22000E11
:10C65800DF6E010120EE0AF00E51D9260F51DA22C1
:10C66800000EDF6EEF0E0101006F010E0101016F78
:10C67800000E0101026F0EC103F10FC104F10B0E90
:10C688000101056F040E0101066FE6EC6BF010C1A5
:10C6980000F111C101F1000E0101026F0EC103F199
:10C6A8000FC104F10F0E0101056F040E0101066FA1
:10C6B800E6EC6BF0010120EE13F00E51D9260F5174
:10C6C800DA22000EDF6E1200010119510101175D17
:10C6D80001011A5101011859D8B045D00101195169
:10C6E80001011F6F01011A510101206F0101216B26
:10C6F8000101226B01011F1F201F211F221F1F2B59
:10C70800000E2023212322230101175101011F2597
:10C718000101236F01011851010120210101246F3A
:10C72800000E010121210101256F000E01012221C6
:10C738000101266F01011B51010123250101276F0A
:10C7480001011C51010124210101286F01011D5122
:10C75800010125210101296F01011E510101262135
:10C7680001012A6F19D019C11FF11AC120F1010165
:10C778001F1F201F1F4B202B0101175101011F27CD
:10C7880001011851010120231FC127F120C128F1FF
:10C798000101296B2A6B00D027C117F128C118F1B4
:10C7A800120012000101126F010112510101D8A4F7
:10C7B8000DD0D6CF13F10101146BD7CF15F111D0DD
:10C7C800010115510101166F156B0ED0030E010101
:10C7D8001219D8A412D0B2CF13F10101146BB3CF40
:10C7E80015F10101166BECD7010113510101152751
:10C7F800010114510101162300D001010C5101015E
:10C80800D8A435D015C10EF116C10FF101010E1FC4
:10C818000F1F0E4B0F2BFF0E01010E250101106F8C
:10C82800FF0E01010F210101116F10C100F111C1AB
:10C8380001F10101026B036BE80E0101046F030EA5
:10C84800056F000E066F000E076FE2EC6FF0100E1A
:10C8580007D00101D89003330233010101330033BB
:10C86800E82EF7D700C10CF101C10DF1120015C176
:10C878000CF116C10DF11200000E0101056F010146
:10C8880003AF09D00101026D031FD8B0032B010EBD
:10C898000101056F00D0010101AF09D00101006D50
:10C8A800011FD8B0012B010E0101051B00D0000E9D
:10C8B8000101076F000E066F01010251010103110A
:10C8C800D8B431D0010E0101046F07D00101D8900E
:10C8D800023703370101042B00D0010103BF02D046
:10C8E800F5D700D00101D89006370737010102516A
:10C8F8000101005D0101035101010159D8A00BD0CC
:10C90800010102510101005F010103510101015BB5
:10C918000101068100D00101D890033302330101DF
:10C92800042FE0D700D0010105510101D8B406D089
:10C938000101066D071FD8B0072B00D006C100F112
:10C9480007C101F1120012000101026F0101025139
:10C95800060D050EF326000EF422BD0EF324D96E43
:10C968000A0EF420DA6EDE28D8A410D00101025194
:10C97800060D050EF326000EF422BD0EF324D96E23
:10C988000A0EF420DA6E00C1DFFF12000101025125
:10C99800060D050EF326000EF422BD0EF324D96E03
:10C9A8000A0EF420DA6E01010051DE5CD8B00FD017
:10C9B80001010251060D050EF326000EF422BD0EEC
:10C9C800F324D96E0A0EF420DA6EDF2A1200010170
:10C9D8000251060D050EF326000EF422BD0EF324B7
:10C9E800D96E0A0EF420DA6EDE500101005DD8B06F
:10C9F800120001010251060D050EF326000EF42265
:10CA0800BD0EF324D96E0A0EF420DA6EDF0612008A
:10CA1800120000010203040A0B0C0D0E1415161760
:10CA2800181E1F20212228292A2B2C050607080951
:10CA38000F10111213191A1B1C1D23242526272D2C
:10CA48002E2F30310031302F2E2D27262524231D5F
:10CA58001C1B1A19131211100F09080706052C2B95
:10CA68002A29282221201F1E18171615140E0D0C0E
:10CA78000B0A0403020100010203040A0B0C0D0E49
:10CA880014151617181E1F20212228292A2B2C05B9
:10CA9800060708090F10111213191A1B1C1D23244D
:10CAA8002526272D2E2F30310031302F2E2D2726E9
:10CAB8002524231D1C1B1A19131211100F0908070E
:10CAC80006052C2B2A29282221201F1E1817161587
:10CAD800140E0D0C0B0A040302010000000E0101E4
:10CAE800086F000E096F000E0A6F000E0B6F010130
:10CAF8000451010105110101061101010711D8B402
:10CB080047D0010E01010C6F09D00101D8900437FC
:10CB180005370637073701010C2B00D0010107BF85
:10CB280002D0F3D700D00101D890083709370A3767
:10CB38000B37010104510101005D0101055101019B
:10CB48000159010106510101025901010751010171
:10CB58000359D8A013D0010104510101005F01015C
:10CB680005510101015B010106510101025B01014F
:10CB780007510101035B0101088100D00101D89030
:10CB8800073306330533043301010C2FCCD700D00B
:10CB980008C100F109C101F10AC102F10BC103F199
:10CBA80012001B6E3F50D8B41FD01B50D8B40CD005
:10CBB800FF0E33240E6EFF0E34200F6E040E106E1F
:10CBC800010EDDEC4EF00AD033C00EF034C00FF089
:10CBD800040E106E010EDDEC4EF000D0070E346E20
:10CBE8003368000E3F6E00D0010E0001A22500013F
:10CBF800A26FF80E0001A3210001A36F3106D8A08F
:10CC0800320631503210D8A40ED0000E326E100EFB
:10CC1800316E30C2A2F031C2A3F07F0E0201316F33
:10CC2800F00E306F0BD031043210D8A407D0010EAB
:10CC38003F6EA2C033F0A3C034F000D00101D02B66
:10CC4800C80E0101D06504D0000E0101D06F00D0DC
:10CC58000201322904E102013329D8B41200020189
:10CC6800324B332B1200120000018E6F8EC0DAF0A7
:10CC7800DAC060F00001616B000E0001636F070EFF
:10CC8800626FADEC67F0000160510101CE6F880E54
:10CC98000001DA6504D0280E0001DA6F1200000ED8
:10CCA80000016F6F000E0001706F3F0E0001716F81
:10CCB800DA0E00018A6FFF0E00018B6F0001DA5156
:10CCC80000018C6F8D6B00018A5100018C270001D7
:10CCD8008B5100018D2300018C1F8D1F8C4B8D2BD8
:10CCE800640E00018C250001686F000E00018D2183
:10CCF8000001696FC8EC74F068C06CF069C06DF031
:10CD08006AC06EF032EC53F06CC07BF06DC07CF002
:10CD18006EC07DF08DEC56F000017B51280F0001AC
:10CD2800DA6F12001200DBC200F1DCC201F1DDC2D1
:10CD380002F1DEC203F1DFC204F1E0C205F1E1C293
:10CD480006F1E2C207F1E2EC6FF000C1DBF201C1CB
:10CD5800DCF202C1DDF203C1DEF2390E0201DB278B
:10CD6800300EDC23000EDD23000EDE23100E010141
:10CD78000E6FDBC20FF1DCC210F1DDC211F1DEC2B1
:10CD880012F101010E6701D009D0010112351233E9
:10CD9800113310330F3301010E2FF3D7FF0E0101AA
:10CDA8000F150101006F7F0E010110150101016FC0
:10CDB800000E010111150101026F000E010112158B
:10CDC8000101036F0CC104F10DC105F10101066BEE
:10CDD800076B95EC5FF000C10CF101C10DF1120079
:10CDE8001200EACF24F0E1CF25F0E2CF26F0D9CF28
:10CDF80027F0DACF28F0F3CF29F0F4CF2AF0F6CFD6
:10CE08002BF0F7CF2CF0F8CF2DF0F5CF2EF09EB009
:10CE18009DA028D09E90F80E306E000E2F6E3050D8
:10CE2800CF6ED3B603D0010E4F6E00D04F50D5EC65
:10CE380065F0010E0101BE6F0101E72B0001CD5124
:10CE4800D8B40AD0EE0E0D6EFF0E0E6E7BEC36F0E7
:10CE580002013A4B3B2B06D0000E02013B6F000E3D
:10CE68003A6F00D02EC0F5FF2DC0F8FF2CC0F7FF99
:10CE78002BC0F6FF2AC0F4FF29C0F3FF28C0DAFF51
:10CE880027C0D9FF26C0E2FF25C0E1FF24C0EAFF82
:10CE980023C0E9FF22C0FBFF21C0FAFF1100000EEA
:10CEA8000101056F010101AF09D00101006D011FEA
:10CEB800D8B0012B010E0101056F00D0010103AFAD
:10CEC80006D00101026D031FD8B0032B00D0010169
:10CED800025101010311D8B42BD0010E0101046FD6
:10CEE80007D00101D890023703370101042B00D085
:10CEF800010103BF02D0F5D700D0010102510101A1
:10CF0800005D0101035101010159D8A009D00101B7
:10CF180002510101005F010103510101015B00D0D1
:10CF28000101D890033302330101042FE6D700D062
:10CF3800010105510101D8B406D00101006D011F9E
:10CF4800D8B0012B00D000C100F101C101F11200DD
:10CF58001200000E0001656F000161AF09D00001E9
:10CF6800606D611FD8B0612B010E0001656F00D0A4
:10CF7800000163AF06D00001626D631FD8B0632B58
:10CF880000D00001625100016311D8B42BD0010E0A
:10CF98000001646F07D00001D89062376337000141
:10CFA800642B00D0000163BF02D0F5D700D0000188
:10CFB80062510001605D0001635100016159D8A010
:10CFC80009D0000162510001605F00016351000156
:10CFD800615B00D00001D890633362330001642F95
:10CFE800E6D700D0000165510001D8B406D0000191
:10CFF800606D611FD8B0612B00D060C060F061C067
:10D0080061F0120012000EC100F10FC101F1000E13
:10D018000101026F0EC103F10FC104F1080E0101F5
:10D02800056F080E0101066F29EC6FF00009D8B4EE
:10D0380012000EC100F10FC101F1080E0101026FCB
:10D048000EC103F10FC104F1100E0101056F080EA6
:10D058000101066F29EC6FF00009D8B41200000E28
:10D068000101106F070E0101106501D01DD064EC9D
:10D078007AF0F40E010110250101006F0101016B26
:10D08800030E01230101105101010E25D96E010182
:10D09800000E01010F21DA6EDF500101026FA4ECCE
:10D0A80074F00101102BDED70EC100F10FC101F1A0
:10D0B80099EC6BF012001200000E0101106F000EC7
:10D0C8000F6F010110BF0AD0010110514AE1FA0E99
:10D0D80001010F5DD8B045D001D043D00BC104F198
:10D0E8000CC105F101010F5117EC60F00009D8B42B
:10D0F80033D00FC10DF110C10EF1D89001010D37D9
:10D108000E37010E01010D27000E0E23C90E010175
:10D118000D25D96E080E01010E21DA6EDF501F0BA6
:10D128001F0AD8B419D00FC10DF110C10EF1D89053
:10D1380001010D370E37010E01010D27000E0E23D8
:10D14800C90E01010D25D96E080E01010E21DA6EF6
:10D15800DF38E832070B120001010F4B102BB1D753
:10D1680000D0000E120012000101106FFA0E01012A
:10D1780010613ED010C111F10101126B11C10EF105
:10D1880012C10FF10101D8900E370F370101D89065
:10D198000E370F370EC111F10FC112F1000E010148
:10D1A800136F030E0101136502D012001200010172
:10D1B8001351010DF35001010C25D96EF4500101F2
:10D1C8000D21DA6E01011351010111250101026FD0
:10D1D800000E010112210101036FF1EC79F0DF6EFD
:10D1E8000101132B030E01011365E1D71200120090
:10D1F800EB0E0101066F010E0101076F0CC108F16A
:10D208000DC109F1040E01010A6F0EEC74F0120051
:10D2180012000101146F030E0101086F010114517E
:10D22800060D050EF326000EF422BD0EF324D96E6A
:10D238000A0EF420DA6EDF50B9EC48F00101136FE2
:10D2480001011451060D040EF326000EF422BD0E42
:10D25800F324D96E0A0EF420DA6EDF380F0BB6EC21
:10D2680076F00101135DD8B012D001011451060DFA
:10D27800040EF326000EF422BD0EF324D96E0A0E16
:10D28800F420DA6EDF380F0BB6EC76F01200030EDE
:10D298000101086F01011451060D050EF326000E59
:10D2A800F422BD0EF324D96E0A0EF420DA6EDF5094
:10D2B800B9EC48F0120012000EC106F10FC107F1D7
:10D2C800EB0E0101086F010E0101096F040E010147
:10D2D8000A6F15EC73F00009D8A41200000E0101C2
:10D2E800126F3E0E0101126502D0120012000101F8
:10D2F8001251060DBD0EF3240101066F0A0EF4202B
:10D308000101076F0EC108F10FC109F1040E0101F7
:10D318000A6F15EC73F00009D8B418D010C111F1D8
:10D3280001011251060D040EF326000EF422BD0E63
:10D33800F324D96E0A0EF420DA6E0101113BDF5096
:10D34800010111190F0B1119DF6E12000101122BC7
:10D358003E0E01011265CBD7120012001200000E1A
:10D368000101156F000E146F010115BF0AD00101EC
:10D3780015513CE10A0E0101145DD8B037D001D037
:10D3880035D012EC5FF00DC1B0F00EC1B1F0000164
:10D39800B1BF0ED0230E0001B05D0C0E0001B159D3
:10D3A800D8A006D00001B051DE0F0101DD2712D050
:10D3B8000001B1BF08D01C0E0001B05D0C0E0001C9
:10D3C800B159D8B007D00001B05100081C0F0101B5
:10D3D800DD5F00D0020E0101016F8A0E006F1BECA9
:10D3E80072F00101144B152BBFD700D064EC7AF012
:10D3F800030E0101016FF00E006FDDC102F1A4EC14
:10D4080074F01200000E01010E6F000E0D6F010185
:10D4180020EE03F00651D9260751DA22DF50010128
:10D42800086F06C1D9FF07C1DAFFDF500101096F94
:10D438000A6B010120EE01F00651D9260751DA22C4
:10D44800DF5001010B6F01010B5101010927000E8B
:10D458000A23010120EE02F00651D9260751DA22EB
:10D46800DF5001010C6F01010C5101010927000E69
:10D478000A2301010851010109250101006F010179
:10D48800000E01010A210101016F000E0101036F65
:10D49800C90E026F53EC67F000C10DF101C10EF126
:10D4A80001010D5112001200100E0101446F18C144
:10D4B8000BF119C10CF1400E01010D6F010E0101B4
:10D4C8000E6F25EC44F01D0E01011A6F2E0E01019E
:10D4D8001B6F460E01011C6F480E01011D6F430EA4
:10D4E80001011E6F010E0101066F000E076F020E8B
:10D4F800086F000E096F0B0E01010A6F000E0B6F0B
:10D50800000E0C6F000E0D6F1F0E01010E6F010E45
:10D5180001010F6F4BEC6BF018C10EF119C10FF13F
:10D528001A0E0101106F010E0101116F44C112F1B1
:10D53800000E0101136F010E0101146F000E0101AD
:10D54800156FE0EC47F012001200100E0101446F55
:10D5580018C10BF119C10CF1400E01010D6F010E3C
:10D5680001010E6F25EC44F01D0E01011A6F2A0E01
:10D5780001011B6F410E01011C6F530E01011D6F4C
:10D58800460E01011E6F010E0101066F000E076FA6
:10D59800020E086F000E096F0B0E01010A6F000ED4
:10D5A8000B6F000E0C6F000E0D6F1F0E01010E6F3A
:10D5B800010E01010F6F4BEC6BF018C10EF119C190
:10D5C8000FF11A0E0101106F010E0101116F44C114
:10D5D80012F1000E0101136F010E0101146F000E0C
:10D5E8000101156FE0EC47F012001200000E010176
:10D5F800106F000E0F6F000E0101126F000E116FF9
:10D60800000E0101006F0A0E5AEC74F0000E0101C1
:10D61800126F000E116F000E0101136F090E010148
:10D62800136501D01FD07AEC7AF000D00EEC7AF0B6
:10D638000009D8A4FBD7C4500101106F0F6BC35069
:10D6480001010F13040E0101136509D001010F51E7
:10D6580001011127010110510101122300D001011C
:10D66800132BDCD711C106F112C107F1000E01011D
:10D67800096F050E086F68EC6EF006C111F107C15D
:10D6880012F111C10DF112C10EF112001200000EBB
:10D698000101106F000E116F000E126F000E136F54
:10D6A800899E030E09EC78F00101085109EC78F025
:10D6B8000101075109EC78F00101065109EC78F0F5
:10D6C800000E0101106F000E116F000E126F000E98
:10D6D800136F17D00101105101010E25D96E0101F8
:10D6E800115101010F21DA6E37EC79F00101005177
:10D6F800DF6E010E01011027000E112312231323E0
:10D7080000D001010A510101105D01010B51010115
:10D71800115901010C510101125901010D51010169
:10D728001359D8A0D7D7898E1200000E0101036FB4
:10D73800070E0101036501D019D001010351010D44
:10D74800F35001010025D96EF45001010121DA6E70
:10D7580001010351010DC70EF324E16E020EF420FE
:10D76800E26EDFCFE7FF0101032BE2D7000E0101D4
:10D77800036F070E0101036502D0120012000101B8
:10D788000351010DF35001010025D96EF450010138
:10D798000121DA6EDE28D8A409D0070E0101031989
:10D7A800D8A408D0000E0101D36F04D0010E0101E6
:10D7B800D36F12000101032B070E01010365DFD7A8
:10D7C80012001200000E01010D6F3FD0010102513D
:10D7D8000DC107F10101086B01010727000E08239D
:10D7E80000C109F101C10AF101010751010109272D
:10D7F8000101085101010A2309C1F6FF0AC1F7FF17
:10D80800000EF86E010105510DC10BF101010C6B01
:10D8180001010B27000E0C2301010B510101032507
:10D82800D96E01010C5101010421DA6E0E0EF76464
:10D8380003D00800F55005D0F6CFE9FFF7CFEAFF8F
:10D84800EF50DF6E01010D2B00D0010106510101DF
:10D858000D5DD8A0BBD71200D1EC79F0899E020EDD
:10D8680009EC78F00101075109EC78F00101065143
:10D8780009EC78F00101055109EC78F0000E01017E
:10D888000F6F000E106F000E116F000E126F15D083
:10D8980001010F5101010925D96E01011051010142
:10D8A8000A21DA6EDF5009EC78F0010E01010F272A
:10D8B800000E10231123122300D001010B51010186
:10D8C8000F5D01010C510101105901010D510101B8
:10D8D800115901010E5101011259D8A0D9D7898EC9
:10D8E800ADEC79F012001200040E01010E250101C1
:10D8F800066F000E01010F210101076F10C108F129
:10D9080011C109F1040E01010A6F0EEC74F0E1EC8B
:10D9180079F002C1D9FF03C1DAFF12C1E1FF13C1D7
:10D92800E2FFDFCFE7FF0EC106F10FC107F1EB0EF3
:10D938000101086F010E0101096F040E01010A6F50
:10D9480015EC73F00009D8A412D00EC106F10FC16E
:10D9580007F1EF0E0101086F010E0101096F040EB6
:10D9680001010A6F15EC73F00009D8B402D0010E5A
:10D978001200000E120012008EEC79F00101046F03
:10D988000001CF51D8A41DD001010429D8A403D087
:10D9980004C1D0F008D0010104290001D06F0001B2
:10D9A800D0050001CE6F400E0001D0650AD0400EB0
:10D9B8000001D06F0001D0050001CE6F010E496E45
:10D9C80000D00001D0510001CF5DD8B00ED00001C9
:10D9D800CF51010D800EF324D96E040EF420DA6EB7
:10D9E80004C1DFFF0001CF2B00D00001D05100019E
:10D9F800CF19D8A412000001D051D8B41200010EDA
:10DA08000001B56F12001200000E0001C56F3E0E36
:10DA1800010108611200200EDBEC57F0800EDBECF0
:10DA280057F001010851020F99EC79F00001B65145
:10DA380099EC79F0000E0101096F21D0010109511B
:10DA4800010DF35001010625D96EF450010107219B
:10DA5800DA6EDF500001C5190001C56F01010951D7
:10DA6800010DF35001010625D96EF450010107217B
:10DA7800DA6EDF5099EC79F00101092B00D0010131
:10DA880008510101095DD8A0D9D70001C55199EC09
:10DA980079F01200120001010B6FFA0E01010B61FF
:10DAA80012000BC10CF101010D6B0CC109F10DC184
:10DAB8000AF10101D89009370A370101D8900937CE
:10DAC8000A3709C10CF10AC10DF1000E01010E6FF0
:10DAD800030E01010E6502D01200120001010E5161
:10DAE80001010C250101046F000E01010D21010146
:10DAF800056F01010E51010DF35001010725D96E83
:10DB0800F45001010821DA6EDF500101066FF2ECD2
:10DB180078F001010E2B030E01010E65DFD712000C
:10DB280012001200000E0101106F000E0F6F000EA0
:10DB38000101126F000E116F000E0101136F090E23
:10DB48000101136501D01FD07AEC7AF000D00EECF9
:10DB58007AF00009D8A4FBD7C4500101106F0F6BED
:10DB6800C35001010F13040E0101136509D001010F
:10DB78000F5101011127010110510101122300D099
:10DB88000101132BDCD711C106F112C107F1000EF8
:10DB98000101096F050E086F68EC6EF006C111F1FE
:10DBA80007C112F111C10DF112C10EF112001200DC
:10DBB80001012B6F010126291DE101012729D8A4A4
:10DBC80019D001012B51020D000EF324D96E020E5B
:10DBD800F420DA6EFF0EDE6EFF0EDD6E01012B51B2
:10DBE800010D270EF324D96E030EF420DA6E28C136
:10DBF800DFFF1200010E010126250101296F000E29
:10DC08000101272101012A6F01012B51020D000E8C
:10DC1800F324D96E020EF420DA6E29C1DEFF2AC180
:10DC2800DDFF01012B51010D270EF324D96E030EE0
:10DC3800F420DA6E28C1DFFF12001200000E096E10
:10DC4800000E0A6E000E0B6E000E0C6E05500610CC
:10DC580007100810D8B42FD0010E0D6E07D0D89039
:10DC680005360636073608360D2A00D008BE02D01B
:10DC7800F6D700D0D89009360A360B360C36055040
:10DC8800015C065002580750035808500458D8A0A1
:10DC98000AD00550015E0650025A0750035A085030
:10DCA800045A098000D0D89008320732063205326B
:10DCB8000D2EE0D700D009C001F00AC002F00BC059
:10DCC80003F00CC004F01200000E01010C6F000EEE
:10DCD8000B6F0101085101010911D8B431D0010EAF
:10DCE80001010A6F07D00101D890083709370101EF
:10DCF8000A2B00D0010109BF02D0F5D700D00101DD
:10DD0800D8900B370C37010108510101065D01015C
:10DD1800095101010759D8A00BD00101085101018F
:10DD2800065F010109510101075B01010B8100D068
:10DD38000101D8900933083301010A2FE0D700D038
:10DD48000BC106F10CC107F11200000E0001656F4E
:10DD5800000E646F0001625100016311D8B431D024
:10DD6800010E0001666F07D00001D8906237633753
:10DD78000001662B00D0000163BF02D0F5D700D0A8
:10DD88000001D89064376537000162510001605D79
:10DD98000001635100016159D8A00BD00001625104
:10DDA8000001605F000163510001615B0001648153
:10DDB80000D00001D890633362330001662FE0D7AA
:10DDC80000D064C060F065C061F012000101006F0E
:10DDD80000C1DBF00001DB510001D55DD8B017D0E0
:10DDE8004650D8A405D0000E02015F6F000E5E6F8A
:10DDF800010E466E0001D9510F0B0001E26F0001C0
:10DE0800E251D8A41200060E0001E26F12000001D0
:10DE1800D5510001DB5DD8B012004650D8B405D00A
:10DE2800000E02015F6F000E5E6F000E466E00016D
:10DE3800D9390F0B0001E26F0001E251D8A412009A
:10DE4800060E0001E26F12001200000E01010D6FB4
:10DE580031D0010105510DC107F10101086B010124
:10DE68000727000E08230101075101010325D96E78
:10DE78000101085101010421DA6E010102510DC1AD
:10DE88000AF101010B6B01010A27000E0B230101A6
:10DE98000A5101010025E16E01010B510101012127
:10DEA800E26EDE50E618D8B402D0000E120001016E
:10DEB8000D2B00D00101065101010D5DD8A0C9D775
:10DEC800010E12001200000E0101116F000E106FFA
:10DED800010111BF0AD00101115130E13F0E0101CA
:10DEE800105DD8B02BD001D029D010C100F111C1DC
:10DEF80001F1000E0101036F060E026F18EC76F0B7
:10DF0800BD0E010100250101066F0A0E0101012164
:10DF18000101076F0EC108F10FC109F1040E0101DB
:10DF28000A6F15EC73F00009D8B403D00101105141
:10DF380012000101104B112BCBD700D0FF0E12009D
:10DF48001200120E01010E6F010E01010F6FDE0E9D
:10DF58000101106F000E0101116FF9EC62F0000E63
:10DF68000101266FFD0E0101006FFD0E0101016F19
:10DF7800000E0101026F120E0101036F010E010173
:10DF8800046F150E0101056F240E0101066FE6EC02
:10DF98006BF00101D351300F01014B6F120E0101DB
:10DFA800046F010E0101056F3A0E0101066F000EA4
:10DFB8000101076F020E90EC61F01200000E0101E2
:10DFC800086F000E096F000E0A6F000E0B6F00D06D
:10DFD800010100A111D0010104510101082701012B
:10DFE8000551010109230101065101010A2301011B
:10DFF800075101010B2300D00101D89004370537E0
:10E00800063707370101D890033302330133003351
:10E018000101005101010111010102110101031166
:10E02800D8A4D6D708C100F109C101F10AC102F18B
:10E038000BC103F11200000E0001686F000E696F3A
:10E04800000E6A6F000E6B6F00D0000160A111D046
:10E05800000164510001682700016551000169232E
:10E068000001665100016A230001675100016B231A
:10E0780000D00001D89064376537663767370001EC
:10E08800D89063336233613360330001605100011B
:10E0980061110001621100016311D8A4D6D768C0CC
:10E0A80060F069C061F06AC062F06BC063F0120092
:10E0B80001010251010100250101086F010103510D
:10E0C800010101210101096F08C10AF109C10BF120
:10E0D80001010C6B0D6B10D00101045101010A5FA5
:10E0E8000101055101010B5B0101065101010C5BA6
:10E0F8000101075101010D5B0101045101010A5D94
:10E108000101055101010B590101065101010C5989
:10E118000101075101010D59D8B0DED70AC100F13C
:10E128000BC101F1120001011A6F01011A518EECA5
:10E138005EF0000E0101CF6F000E0101E46F010EC9
:10E14800546E7F0E0201316FF00E306F7F0E0001AA
:10E15800A36FF00EA26F000E326E100E316E070E16
:10E1680001010E6F0D69040E01010F6F010E07EC1E
:10E1780047F0010E0001A2250001A26FF80E000170
:10E18800A3210001A36F3106D8A03206070E346E12
:10E198003368090EB4EC78F01200060E0101446FE2
:10E1A80018C10BF119C10CF1400E01010D6F010EE0
:10E1B80001010E6F25EC44F01F0E01011A6F2A0EA3
:10E1C80001011B6F530E01011C6F460E01011D6FEB
:10E1D800540E01011E6FDCC01FF118C10EF119C1E8
:10E1E8000FF11A0E0101106F010E0101116F44C1E8
:10E1F80012F1000E0101136F010E0101146F000EE0
:10E208000101156FE0EC47F012001200000E010149
:10E218001B6FFD0E0101006FFD0E0101016F000E65
:10E228000101026F1B0E0101036F010E0101046F52
:10E23800010E0101056F240E0101066FE6EC6BF07B
:10E248000101D351300F0101406F18C10EF119C1FE
:10E258000FF11B0E0101106F010E0101116F260E47
:10E268000101126F000E0101136F1AC114F1000EA3
:10E278000101156FE0EC47F0120012003D0E01019C
:10E28800536F14C116F115C117F114C100F115C16E
:10E2980001F1000E0101036F380E026F18EC76F0E1
:10E2A800010100C106F1010101C107F10101086B7B
:10E2B800096B380E01010A6F000E0B6F000E0C6F10
:10E2C800000E0D6F180E01010E6F010E01010F6F88
:10E2D8004BEC6BF0160E0101066F010E0101076F82
:10E2E80053C108F108EC6DF012000101046F01013F
:10E2F8000451020D000EF324D96E020EF420DA6EDA
:10E30800DE50DE10D8B418D001010451020D000E01
:10E31800F324D96E020EF420DA6EDECF02F1DDCFDF
:10E3280003F1FF0E010102250101006FFF0E01013B
:10E3380003210101016F120001010451020D000EB9
:10E34800F324D96E020EF420DA6EDECF00F1DDCFB1
:10E3580001F11200120001010F5101011011D8B48E
:10E368002BD0010E0101116F07D00101D8900F3792
:10E3780010370101112B00D0010110BF02D0F5D7D1
:10E3880000D001010F5101010D5D01011051010182
:10E398000E59D8A009D001010F5101010D5F0101EB
:10E3A800105101010E5B00D00101D89010330F33DA
:10E3B8000101112FE6D700D00DC10DF10EC10EF1EC
:10E3C80012000001695100016A11D8B42BD0010E66
:10E3D80000016B6F07D00001D89069376A370001D8
:10E3E8006B2B00D000016ABF02D0F5D700D0000126
:10E3F80069510001675D00016A5100016859D8A0A0
:10E4080009D0000169510001675F00016A510001EC
:10E41800685B00D00001D8906A33693300016B2F24
:10E42800E6D700D067C067F068C068F0120014D063
:10E43800D00E0101026FCA0EE82EFED7022FFCD7BC
:10E44800F60E010100250101006FFF0E01010121F7
:10E458000101016F040000D001010151E9E10B0E37
:10E468000101005DD8A010D0E3D70ED0150E010130
:10E47800026FC60EE82EFED7022FFCD700D001018E
:10E488000007D8A001070400010100510101011192
:10E49800D8A4ECD712002ED00001CE05D8A404D001
:10E4A8002AEC79F0476E00D00001D0510001CF5D11
:10E4B800D8B00FD00001CF51010D800EF324D96ED2
:10E4C800040EF420DA6E8EEC79F0DF6E0001CF2BAB
:10E4D80000D00001D0510001CF19D8A408D0000104
:10E4E800D051D8B404D0010E0001B56F00D000019E
:10E4F800CE0700D00001CE51D8A4CED7120001011A
:10E50800026F3F0EC716000EC66E01010251C612F9
:10E5180001010151C71205D0C78C16D0C78CC68817
:10E5280013D001010051000AD8B4F6D7020AD8B4B2
:10E53800F5D7010AD8B4F3D707D09486928A0DD0BC
:10E5480094860BD0949609D001010251040AD8B4DC
:10E55800F4D7010AD8B4F4D7F5D79488949AC68A20
:10E568001200000E01010E6F0101FF51F7EC77F068
:10E57800040E01010C6F010EFDEC5CF00001A251CC
:10E5880001010C250101236F0001A35101010D2197
:10E598000101246F60EC7AF00101206F23C122F1A0
:10E5A800010124510101216F200E0101176F010E95
:10E5B8000101186F030E0101196F010E01011A6F95
:10E5C8004FEC4AF01200000E066E000E056E035066
:10E5D8000410D8B421D0010E076E05D0D8900336A8
:10E5E8000436072A00D004BE02D0F8D700D0D8904D
:10E5F800053606360350015C04500258D8A006D0F0
:10E608000350015E0450025A058000D0D8900432AD
:10E618000332072EECD700D005C001F006C002F087
:10E628001200000E01010D6F1FD001010D51010DE7
:10E63800F35001010825D96EF45001010921DA6E61
:10E6480001010D51010DF35001010625E16EF45051
:10E6580001010721E26EDE50E618D8B402D0000EA0
:10E66800120001010D2B00D001010A5101010D5DBD
:10E67800D8A0DBD7010E120012002A8C02020CC1AE
:10E6880077643277623238F81180E9383807000049
:10E698000507090CF2004010DC80FFFFFFFFFFFFB9
:10E6A800FFFFFFFFFFFFFFFFFFFFFFFFFFFF01006F
:10E6B80000006D4EC641170001000800FF0001016F
:10E6C800FFFFFFFFFFFFFFFFFFFFFFFFFFFFFFFF52
:10E6D8001D0E01011A6F250E01011B6FDEC01CF112
:10E6E800DFC01DF1E0C01EF1E1C01FF1060E0101FF
:10E6F800406F18C10EF119C10FF11A0E0101106F08
:10E70800010E0101116F40C112F1000E0101136FDA
:10E71800010E0101146F000E0101156FE0EC47F0C6
:10E72800120012000101BE51D8A412000101BF510C
:10E73800D8A412000101C151D8A412000001CD5182
:10E74800D8A412000001C651D8A412000101DC515E
:10E75800D8A412005050D8A412000101D851D8A44E
:10E7680012003750D8A412000101F851D8B4120091
:10E7780030EC7AF0120012002CC121F12DC122F1E7
:10E788003C0E0101236F010E0101246F010E0101EE
:10E79800256F56EC3DF02CC10EF12DC10FF167EC41
:10E7A8006FF001012F6F2AC115F12BC116F12FC18E
:10E7B80017F12EC118F1000E0101196F010E0101A8
:10E7C8001A6F2DEC1EF0120001012C6F000E0101D2
:10E7D800FA6F2CC1C7F0000E01012E6F3E0E2D6F8F
:10E7E8002DC100F12EC101F1000E0101036F1E0EB3
:10E7F800026F18EC76F000C12DF101C12EF12DC188
:10E8080026F12EC127F1000E0101286F070EDCEC5E
:10E818006DF01200000E01010B6F1BD001010B51AE
:10E82800010DF35001010625D96EF45001010721AD
:10E83800DA6E01010B51010DF35001010825E16E5B
:10E84800F45001010921E26EDFCFE7FF01010B2B34
:10E8580000D001010A5101010B5DD8A0DFD71200D9
:10E868000A500B10D8B41DD0010E0C6E05D0D890EC
:10E878000A360B360C2A00D00BBE02D0F8D700D0CF
:10E888000A50085C0B500958D8A005D00A50085EF9
:10E898000B50095A00D0D8900B320A320C2EF0D700
:10E8A80000D008C008F009C009F012000101026F89
:10E8B80000C101F10101013BC15001010119CF0B58
:10E8C8000119C16EC196C190C192C19402C101F1F2
:10E8D800010101470147C25001010119830B0119C8
:10E8E800C26EC086C088C08AC050F80B0609C06EC8
:10E8F800C08EC2801200000E0101016F3E0E0101A0
:10E90800016501D01AD001010151060D040EF3264C
:10E91800000EF422BD0EF324D96E0A0EF420DA6E2E
:10E92800DF500F0B0101006F020E0101006102D0E0
:10E93800010E12000101012BE1D7000E1200120096
:10E94800000E0101036F01010151030B756E00C137
:10E9580074FF02C173FF7F9E7F9C7F84000EF2BE0E
:10E96800010E0101036FF29E550E7E6EAA0E7E6E99
:10E978007F8200D07FB2FED7010103B102D0F29EA0
:10E9880001D0F28E7F941200000E00016B6F00011F
:10E9980069AF09D00001686D691FD8B0692B010EF5
:10E9A80000016B6F00D068C060F069C061F00001C1
:10E9B800626B8E0E0001636F6BC064F0E0EC5BF07D
:10E9C80060C068F061C069F062C06AF012001200AD
:10E9D8001A0E0101006F010E0101016F92EC54F053
:10E9E8000101406F18C10EF119C10FF11A0E010192
:10E9F800106F010E0101116F40C112F1000E0101EB
:10EA0800136F010E0101146F000E0101156FE0EC88
:10EA180047F01200120093968A868986050E010136
:10EA2800046F260EE82EFED7042FFCD700D0899657
:10EA3800680E0101046FE40EE82EFED7042FFCD700
:10EA480000D064EC7AF0030E0101016FFE0E006F36
:10EA5800FF0E0101026FA4EC74F012001D0E0101FB
:10EA68001C6F1AC11DF11BC11EF1030E0101426F7B
:10EA780018C10EF119C10FF11C0E0101106F010E22
:10EA88000101116F42C112F1000E0101136F010E55
:10EA98000101146F010E0101156FE0EC47F012003F
:10EAA8000FC106F110C107F1EF0E0101086F010E49
:10EAB8000101096F040E01010A6F0EEC74F00101E7
:10EAC800EB690101EC690101ED690101EE69EF0EE5
:10EAD8000101066F010E0101076F06EC6AF026ECD2
:10EAE8007AF012000101016F010101510101D8B44E
:10EAF80009D00001D251D8B413D0899C8B94898055
:10EB080012000ED0010100510101D8B409D0000152
:10EB1800D451D8B405D0898C8B948990120000D038
:10EB2800899C8B84899012000001616F00016151FA
:10EB38000001D8B409D00001D251D8B413D0899CAF
:10EB48008B94898012000ED0000160510001D8B466
:10EB580009D00001D451D8B405D0898C8B94899000
:10EB6800120000D0899C8B84899012000101026FE9
:10EB780001010251020D000EF324D96E020EF42099
:10EB8800DA6EDE04DE10D8A40FD001010251020DA6
:10EB9800000EF324D96E020EF420DA6E000EDE6E3B
:10EBA800000EDD6E010E1200000E120012000101AF
:10EBB800006F010100510101D8A409D0D59E000EB3
:10EBC800D76E000ED66E850ED56ED58E1200030E4A
:10EBD80001010019D8A41200000EB36E000EB26E27
:10EBE8008C0EB16EA292A192B180120012000101A6
:10EBF800046F01010451D8090101056F05C102F133
:10EC08003C0E50EC76F0C80E0101056F05C102F10B
:10EC18001A0E50EC76F0000E0101056F05C102F1E5
:10EC28003E0E50EC76F01200010100510101020382
:10EC3800F3CF04F1F4CF05F1010100510101030301
:10EC4800F350010105270101015101010203F350AD
:10EC58000101052704C100F105C101F112001200EC
:10EC68000001605100016203F3CF64F0F4CF65F056
:10EC78000001605100016303F350000165270001A2
:10EC8800615100016203F3500001652764C060F020
:10EC980065C061F0120012000101036F899401013F
:10ECA800035109EC78F0E40E00D000D0E82EFCD730
:10ECB80000D000D00101025109EC78F0E40E00D038
:10ECC80000D0E82EFCD700D000D0898412000101C2
:10ECD8002C6F01012C510101D8B403D0010E546EE0
:10ECE8001200000E546E010E0101276F680E266F88
:10ECF800010E0101286F0F0EDCEC6DF012001200FE
:10ED0800000E01010C6F010EFDEC5CF001010C1FFF
:10ED180001010D1F01010C4B0D2B3E0E01010C25AD
:10ED28000101176F000E01010D210101186F12007A
:10ED380012000101E82B0101E8510001CB19D8A408
:10ED48001200000E0001C66F000E0001606F000E79
:10ED580098EC75F0000E0101E86F000E0001CB6F12
:10ED6800120012000101006F060E0101006102D0BD
:10ED7800000E03D001010051FB0F0101016F070EC6
:10ED88000101016503D0070E0101016F0101015165
:10ED980012001200000E0101056F000E0101066F3E
:10EDA8000BD01C0E6CEC77F00101066F01010651C7
:10EDB800020B0101056F00D0010105510101D8B412
:10EDC800F0D712000101026F000E0101016F3A0E27
:10EDD8000101026108D02F0E0101026504D0010E65
:10EDE8000101016F00D001C100F1010100311200E1
:10EDF8001200000E0101276F010E266F010E01019E
:10EE0800286F020EDCEC6DF0000E0101276F010E79
:10EE1800266F010E0101286F030EDCEC6DF0120065
:10EE28000001626F000E0001616F3A0E000162611D
:10EE380008D02F0E0001626504D0010E0001616F39
:10EE480000D061C060F00001603112001200D1EC06
:10EE580079F0899E200E09EC78F00101075109EC40
:10EE680078F00101065109EC78F00101055109EC2F
:10EE780078F0898EADEC79F0120008C100F109C173
:10EE880001F10101026B8E0E0101036F000E0101F9
:10EE9800046F50EC5BF000C108F101C109F102C137
:10EEA8000AF1120012000101006F080E0101D96178
:10EEB80012000101D951010D3E0EF324D96E030E43
:10EEC800F420DA6E00C1DFFF0101D92B1200120015
:10EED8000101046F89940101045140090101046F83
:10EEE8000101045109EC78F037EC79F000C103F125
:10EEF800898401010351120012000101036F03C14B
:10EF080000F10101016B240E0101026F99EC59F027
:10EF180003C100F10101016B240E0101026F99EC9C
:10EF280059F012000001646F89940001645140098E
:10EF38000001646F000164511BEC78F051EC79F02A
:10EF480060C063F08984000163511200120001015E
:10EF5800026F01010251020D000EF324D96E020E58
:10EF6800F420DA6EDE50DE10D8A402D0010E1200B2
:10EF7800000E1200120001500302F3CF05F0F4CF87
:10EF880006F001500402F350062602500302F35023
:10EF9800062605C001F006C002F012001200020E9B
:10EFA80001010C6F0AC10DF10BC10EF10D0E01012B
:10EFB800066F010E0101076F0CC108F108EC6DF036
:10EFC8001200000E0101036F899E050E09EC78F00E
:10EFD80037EC79F0010100510101036F898E0101BD
:10EFE80003511200120001010F6F01010F51521855
:10EFF800D8B4120001D012000EC104F101010F5162
:10F0080014EC4BF00FC152F012000101016FC9CF8F
:10F0180000F19E96C69E01C1C9FFC6BE120002D06D
:10F02800120000D09EB61200FDD712001200000197
:10F03800616FC9CF60F09E96C69E61C0C9FFC6BE0B
:10F04800120002D0120000D09EB61200FDD71200A6
:10F0580012005BC020F1200E0101176F010E0101A3
:10F06800186F010E0101196F010E01011A6F4FECA3
:10F078004AF012000101036F0001B751D8B4120021
:10F08800000E0101016F020E006F03C102F199EC3D
:10F0980059F0120012000101066F01010651010B1F
:10F0A8000001D26F010106510E0B0101056F01012C
:10F0B8000551D4EC78F01200D08EF290F28CF196D3
:10F0C800F1920F015A9F0F015A9D0F015A9B0F0190
:10F0D8005A99F286F190F28E12000001636F0001D6
:10F0E800B751D8B41200000E0001616F020E606FB4
:10F0F80063C062F02CEC5AF0120012000001625159
:10F108000201DF27000163510201E023000164517D
:10F118000201E123000165510201E2231200036E9E
:10F12800000E026E3A0E036006D02F0E036403D061
:10F13800010E026E00D002C001F001301200120070
:10F148000101046F0001D351D8A404D00001BB51C0
:10F15800D8B41200010104513EEC78F012001200FC
:10F168000101006F01010051020D000EF324D96E58
:10F17800020EF420DA6E000EDE6E000EDD6E120056
:10F188000001646F0001D351D8A404D00001BB5121
:10F19800D8B412000001645171EC78F0120012002A
:10F1A8000101046F0201C151F00B010104110201B8
:10F1B800C16FC1C202F1340E50EC76F01200046E39
:10F1C8000001B751D8B41200000E026E020E016E93
:10F1D80004C003F070EC5CF012001200010E010193
:10F1E800EA6F64EC7AF004C100F105C101F106C1CF
:10F1F80002F1A4EC74F01200200EDBEC57F0400E84
:10F20800DBEC57F0C8EC79F0CEEC76F0600EDBEC76
:10F2180057F0120001010151030B756E00C174FF14
:10F228007F9C7F9E7F8000F000F0735012001200D8
:10F23800056E0001D351D8A404D00001BB51D8B445
:10F2480012000550E3EC78F0120012003C0E6CEC52
:10F2580077F00101056F010105A102D0010E12002E
:10F26800000E12001200C9CF02F19E96000EC96E60
:10F2780000D09EA6FED7C9CF00F10101016B120094
:10F288000101006F00C1CFF1010100510101D8A4B3
:10F298001200010E546E12001200C9CF62F09E9641
:10F2A800000EC96E00D09EA6FED7C9CF60F000013F
:10F2B800616B12000101046F04C1B6F004C1C4F20D
:10F2C800C4C202F13A0E50EC76F012000101006F50
:10F2D800010100510101D8B402D09396120093861F
:10F2E800120012000101006F010100510101D8B4A0
:10F2F80002D08A8412008A9412001200010E0101C1
:10F30800276F2C0E266F010E0101286F130EDCECFF
:10F318006DF012008984899237EC79F000C103F10D
:10F32800898201010351120012000101026F8984D0
:10F3380089920101025109EC78F08982120058285B
:10F34800D8B402D0582A02D0000E586E5850120075
:10F35800120000D0E5EC77F00101046F010104B15F
:10F36800F9D7120000D0E5EC77F00101046F010134
:10F3780004A3F9D712000101496F48C12CF101011A
:10F388004951D7EC25F01200070E0101046F04C1A2
:10F3980002F11C0E50EC76F01200899E060E09EC64
:10F3A80078F0898EB6EC79F0120000C1DBF201C169
:10F3B800DCF20201DD6BDE6B1200E9EC79F000C1D2
:10F3C80002F101C103F112001200DA0E0101006F0F
:10F3D800000E0101016F1200120002C100F103C109
:10F3E80001F10EEC79F01200120003FF010141FF58
:10F3F800FF0101FF00C201000101066F0101065172
:10F4080007EC7AF012000101056F010105515EEC6D
:10F4180079F01200C2A202D0010E1200000E1200F2
:10F428001200070E0101016F006912001200280E78
:10F4380096EC77F038EC66F012000101006F00C11D
:10F44800F9F112000101006F00C14AF01200B2C1C7
:10F4580000F1B3C101F11200D39ED18E0300040064
:10F4680012000201C1510E0B12001200B2C160F06D
:10F47800B3C161F0120077C0B2F178C0B3F11200E5
:10F48800010801FF3C0101190101F95112001200A4
:10F4980050EC7AF0120012000101CD511200120056
:10F4A8000101CF51120012000201E75112001200AF
:10F4B8000001B651120012000101D05112001200D1
:10F4C80000D07FB2FED712000101D0511200120005
:10F4D8000101CD511200120004FF03FFFFFFFF00DE
:10F4E800FA0E12001200000E12001200C282120060
:04F4F80012001200EC
:10FDE4000001000A006400E803102701001000006D
:10FDF400010010000111100200656D57616C6C2C3C
:10FE0400322E3137302C312E33312C322C312C30F0
:10FE14002C30303030303030303030302C003C45F5
:10FE24003E4E6F7420416C6C6F77656420746F2054
:10FE340073656E643C2F453E004D6173743A203007
:10FE44007825303258253032582530325825303212
:10FE540058200049443A2030782530325825303231
:10FE640058253032582530325820003C453E7374B2
:10FE74006279207768696C6520696E743C2F453E11
:10FE8400003C453E476F696E6720746F20545831BB
:10FE94003C2F453E003C453E526563762058322057
:10FEA400444154413C2F453E003C453E4D61782041
:10FEB400726574726965733C2F453E004669726DC4
:10FEC400776172653A2076322E31373020003C4516
:10FED4003E526563762058322042433C2F453E0013
:10FEE4003C543E476574526566726573683C2F5492
:10FEF4003E003031323334353637383941424344A9
:10FF040045460073686F756C64204175746F536C5B
:10FF1400656570004D7266204175746F2077616B62
:10FF240065207570003C453E2575207420696E740B
:10FF34003C2F453E0047726F75703A20307825306B
:10FF4400325820003C543E526566726573683C2FFB
:10FF5400543E004E6F64653A203078253032582084
:10FF6400003C453E527831303C2F453E004D726690
:10FF74002077616B6520757000436F723A202530DD
:10FF8400325820004261743A2025303458200057FA
:10FF9400697065456570726F6D006261742073618C
:10FFA400666574790053533A202530325820002076
:10FFB400534C454550494E47005070723A202569CC
:10FFC4002000547970653A20003C2F44413E003CA7
:10FFD4002F55413E005744525354002046432000BD
:10FFE4003C44413E003C55413E00453220002563DF
:0CFFF4002000424F5200504F520000000D
:020000040020DA
:08000000FFFFFFFFFFFFFFFF00
:020000040030CA
:0E0000001D981B36FF8980FF0FC00FE00F40D8
:00000001FF
