:04080000EBEF04F026
:10080800FACF1CF0FBCF1DF0E9CF1EF07EEF66F0AB
:10081800D8CF8FF0E8CF90F0E0CF91F0FACF92F0F8
:10082800FBCF93F0E9CF94F0EACF95F0E1CF96F0C3
:10083800E2CF97F0D9CF98F0DACF99F0F3CF9AF0CA
:10084800F4CF9BF0F6CF9CF0F7CF9DF0F8CF9EF059
:10085800F5CF9FF090D0000E0001A16FF2A08FD0CD
:1008680081CFA0F000F0F2900001A0A984D0600E22
:100878000101BC19D8A466D00001CB51D8A43AD044
:100888000001C751D8A436D06EEC77F00101F86F9B
:10089800040E00016C6F010EEEEC5AF06CC077F09C
:1008A8006DC078F041EC77F0D3B606D001D004D013
:1008B800010E0101D16F00D01DEC77F03CEC77F010
:1008C8000001A251000160270001A351000161232A
:1008D800000160C062F0000161C063F00001646B58
:1008E800656BB1EC75F0010E0101B96F010E0001E5
:1008F800CB6F41D00001C751D8B409D00B0E00010D
:100908006C6FFF0E00016D6F9BEC33F034D072EC0E
:1009180077F00009D8B409D0450E00016C6FFF0EBE
:1009280000016D6F9BEC33F009D01F0E00016C6F56
:10093800FF0E00016D6F9BEC33F000D0010E01013A
:10094800BA6F19D0800E0101BC19D8A406D0010EC7
:100958000101BB6FEEEC74F00ED0200E0101BC1942
:10096800D8A409D0F50E00016C6FFE0E00016D6F62
:100978009BEC33F000D0010E0001A16F00D0000104
:10098800A1510001D8A467D79FC0F5FF9EC0F8FF0A
:100998009DC0F7FF9CC0F6FF9BC0F4FF9AC0F3FF11
:1009A80099C0DAFF98C0D9FF97C0E2FF96C0E1FF6F
:1009B80095C0EAFF94C0E9FF93C0FBFF92C0FAFF1D
:1009C80091C0E0FF90C0E8FF8FC0D8FF1000D4EFBF
:1009D80055F0000ED0B6010E0101FB6F000ED0B22B
:1009E800010E0201FF6F000ED0B0010E0301FC6F73
:1009F800D0CFFDF381EC46F0030E0101016FE80E44
:100A0800006FBBEC6FF0030E0101016FF00E006F79
:100A18002BEC76F00101D56F0101D529D8B404D0AB
:100A2800010E0101C56F00D0F9EC5BF006D08A9485
:100A3800938632EC77F0F9EC5BF00DC1AAF00EC1A9
:100A4800ABF000D00001ABBFF2D73E0E0001AA5DAB
:100A5800080E0001AB59D8A0EAD755EC72F0360E53
:100A68000101016FB00E006FBBEC6FF00101C551C1
:100A78000101D8A40ED00001ABBF0BD0870E000136
:100A8800AA5D0B0E0001AB59D8A003D0A0EC63F00F
:100A980000D0000E0101006F000E0101016F020E6F
:100AA800EFEC6FF00400F0EC37F00400F6C200F150
:100AB8000101016BDBEC76F08FEC75F0010E0001A3
:100AC800BD6F0101FB510101D8A413D0E20E010151
:100AD800126FFF0E0101136F37EC31F0000E0101A8
:100AE800016F040E006F060E0101026F4EEC59F003
:100AF8002CD00201FF510201D8B418D00301FC51D7
:100B08000301D8A413D0F60E0101126FFF0E0101E4
:100B1800136F37EC31F0000E0101016F040E006F06
:100B2800070E0101026F4EEC59F00FD00201FF5180
:100B38000201D8A40AD0FA0E0101126FFF0E0101BA
:100B4800136F37EC31F0D08200D0000E23EC68F040
:100B5800CF0E0101126FFF0E0101136F37EC31F058
:100B6800830E0101126FFE0E0101136F37EC31F095
:100B7800F20E0101126FFF0E0101136F300E010119
:100B8800C8250101146F0101156B000E152337EC00
:100B980031F0B10E0101126FFF0E0101136FAAC0EF
:100BA80014F1ABC015F137EC31F0DD0E0101126F15
:100BB800FE0E0101136FF3C214F10101156BF4C2AB
:100BC80016F10101176BF5C218F10101196BF6C294
:100BD8001AF101011B6B37EC31F0C30E0101126FE2
:100BE800FE0E0101136FD7C014F10101156BD8C0B7
:100BF80016F10101176BD9C018F10101196BDAC0A0
:100C08001AF101011B6B37EC31F0980E0101126FDC
:100C1800FF0E0101136F62EC77F00301D86F030137
:100C2800D8510101146F156B37EC31F07A0E0101C0
:100C3800126FFF0E0101136FC8C014F10101156B8B
:100C480037EC31F0330E0101126FFF0E0101136F03
:100C580037EC31F0A60E0101126FFF0E0101136F80
:100C6800D5C114F10101156B37EC31F0C60E010145
:100C7800126FFF0E0101136F81BA02D0010E01D06D
:100C8800000E0101146F156B37EC31F0F30E010102
:100C98000F6F020E0101106F9AEC72F06BEC3DF0D1
:100CA8002CEC74F0000E0101276F1E0E266F010E4A
:100CB8000101286F040EB1EC6BF0000E0301F26F16
:100CC800000E0101066F000E076F020E086F000E7E
:100CD800096F010E01010A6F000E0B6F000E0C6FF9
:100CE800000E0D6FF20E01010E6F030E01010F6F62
:100CF80068EC69F00301F205D8A41ED0000E0301C8
:100D0800F26F000E0101056F000E066F020E076FED
:100D1800000E086FF20E0101096F030E01010A6F40
:100D2800010E01010B6F000E0C6F000E0D6F000E0F
:100D38000E6F4DEC6AF000D0F30E0101066F020E43
:100D48000101076FE50E0101086F010E0101096F2E
:100D5800040E01010A6F84EC70F00009D8B403D0C6
:100D68000400FED700D084EC76F0000E0001BD6FC1
:100D780000D00101D8510101D8A41DEF0CF0000EDC
:100D880021EC73F00101DE510101D8B402D0FF005B
:100D980000D0000E0101DF6F04000101B851D8B482
:100DA80085D00101BC51D8B41CD0CCEC73F017C16C
:100DB8005AF218C15BF202015B510CE11F0E0201ED
:100DC8005A5DD8B007D0000E01014A6F010E55ECEC
:100DD80019F007D0000E01014A6F000E55EC19F00A
:100DE80000D00101FC510101D8B426D0D70E010171
:100DF8000B6F000E01010C6FE30E01010D6F030E66
:100E080001010E6FC8EC42F00301D86F1F0E0301F9
:100E1800D86112D0D70E0101186F000E0101196FA9
:100E2800000E01011A6FAAEC6EF00009D8B404D0C4
:100E3800000E0101FC6F00D0000E0101B86F3E0EDC
:100E4800FFEC35F0ED0E0101006F010E0101016F9D
:100E580057EC4EF02DEC55F056EC77F00009D8B46D
:100E680025D00101FA510101D8B420D0010E0001AA
:100E7800BD6FBC0E0101126FFF0E0101136FE3EC91
:100E880076F002C1D9FF03C1DAFFDF500301D86F42
:100E98000301D8510101146F156B37EC31F0000EC6
:100EA8000001BD6F000E0101FA6F00D0CCEC73F0A9
:100EB80017C15AF218C15BF202015B5105E1070E36
:100EC80002015A5DD8A02AD002015B5127E11F0E0A
:100ED80002015A5DD8B022D00101D351D8B41ED036
:100EE800E90E01010E6F030E01010F6F9A0E010149
:100EF800106F030E0101116FBDC112F1000E010147
:100F0800136F010E0101146F000E0101156F5DECE6
:100F180047F000D0000E0101D36F00D00101BA5193
:100F2800D8B409D0000E0101BA6F200E05EC57F0B5
:100F3800600E05EC57F00001CB51D8B43AD02DEC37
:100F480077F000C117F101C118F1040E01010C6F0F
:100F5800010E68EC5AF00CC119F10DC11AF117EC29
:100F680077F0010100C11BF1010101C11CF1010170
:100F78001D6B1E6BD0EC60F017C1E7F318C1E8F3E6
:100F88004B0E0301E75D010E0301E859D8A011D00B
:100F98000101B951D8B40AD00001C751D8A406D06C
:100FA8006BEC6BF0000E0101B96F00D053EC70F0E0
:100FB80000D01F0E01010E6F030E01010F6FF00E1E
:100FC8000101106F010E0101116FB5EC44F0000929
:100FD800D8B452D01F0E01012C6F030E01012D6FE2
:100FE800F0C12EF1D1C12FF1F8C130F172EC2BF024
:100FF8000009D8B43AD0220E01010E6F030E010188
:101008000F6FAB0E0101106F020E0101116FF00E90
:101018000101126F030E0101136F95EC6AF00009CC
:10102800D8B423D00B0E0301EF6FAB0E01018A6F0A
:10103800020E01018B6F0301EF51010D1F0EF32406
:1010480001018C6F030EF42001018D6F0301EF5134
:1010580000080101F02501018E6FF0C38FF1000E29
:101068000101906FF9EC12F000D0000E0001CB6F77
:10107800000E0101D16F00D0030E0101ED19D8A4B3
:1010880014D0030E0101EE19D8A40FD0000E0101EF
:10109800ED6F000E0101EE6F030E0101006F010EEE
:1010A80082EC77F00101C48944D0020E0101EE19E7
:1010B800D8A40CD0000E0101EE6F020E0101006FE2
:1010C800010E82EC77F00101C48733D00101EE05EF
:1010D800D8A40CD0000E0101EE6F010E0101006FC3
:1010E800010E82EC77F00101C48523D0020E0101C4
:1010F800ED19D8A40ED0000E0101ED6F00EC5EF0E2
:10110800020E0101006F000E82EC77F00101C4832A
:1011180010D00101ED05D8A40CD0000E0101ED6F2F
:10112800010E0101006F000E82EC77F00101C4810D
:1011380000D00101BB51D8B42BD0000E0101BB6F08
:10114800800E0101BC19D8A411D00101D7510101A9
:10115800D8A405D00101D8510101D8B407D0000E98
:1011680005EC57F0000E0101D76F10D0800E010179
:10117800BC19D8A40BD00001C751D8A407D0200EA1
:1011880005EC57F0600E05EC57F000D0040000D0D5
:10119800000E0101016F010E006FF20E0101026FD6
:1011A800010E0101036F32EC51F00009D8B408D0E8
:1011B800F2C100F1010E7CEC77F00101B76F07D0A6
:1011C8000101CF51D8B403D00101CF0700D00101EC
:1011D800B751D8B46BD104012851C00B0301F36F88
:1011E8000301F345E846030B0301F36FED0E01011C
:1011F800126FFF0E0101136F37EC31F00301F35149
:101208000301D8A409D1000E0101C06F56EC77F094
:101218000009D8B43FD1270E0101006F040E010167
:10122800016F020E0101026FE50E0101036F010E4D
:101238000101046F000E0101056F040E0101066F24
:1012480003EC6DF00009D8B4BDD00A0E0101BD6FE2
:10125800E9C19AF3EAC19BF3EBC19CF3ECC19DF39E
:101268001D0E03019E6F2B0E03019F6F29C4A0F36F
:101278002AC4A1F32BC4A2F32CC4A3F3010E0001CA
:10128800BD6F0101F051FA0F0101F06F000E01016D
:10129800016F020E006F240E0101026F4EEC59F02F
:1012A800000E0101016F020E006F240E0101026F92
:1012B8004EEC59F0000E0101016F020E006F0101A2
:1012C800F051040F0101026F4EEC59F0000E0101BC
:1012D800016F020E006F000E0101026F4EEC59F013
:1012E800000E0301ED6F000E0301F16F22D0000E16
:1012F8000101016F020E006F0301F151010D9A0EF9
:10130800F324D96E030EF420DA6EDF500101026F68
:101318004EEC59F00301F151010D9A0EF324D96EE8
:10132800030EF420DA6EDF500301ED1B0301F12BED
:1013380000D0FF0E0301D86FFF0E0301D96F010122
:10134800BD510301DA6FDB6B0301D8510301DA27C2
:101358000301D9510301DB230301F1510301DC6FC0
:10136800DD6B0301DA510301DC5D0301DD51800A05
:101378000301DE6F0301DB51800A0301DE59D8A0A7
:10138800B6D7000E0101016F020E006FEDC302F126
:101398004EEC59F0000E0101016F020E006F0D0EA8
:1013A8000101026F4EEC59F0000E0101016F020EAF
:1013B800006F0A0E0101026F4EEC59F0000E000199
:1013C800BD6F68D00101EF51F80F0101BD6F020E2A
:1013D80003019A6F270E0101006F040E0101016FCE
:1013E800060E0101026F9A0E0101036F030E01013F
:1013F800046F010E0101056FBDC106F103EC6AF02F
:1014080029C4E9F32AC4EAF32BC4EBF32CC4ECF3A4
:10141800010E0101D36F3ED0020E0301F319D8A4C7
:1014280039D0020E0101C06F56EC77F00009D8B42C
:1014380031D0290E01010E6F040E01010F6FDF0E6E
:101448000101106F030E0101116FEE0E0101126F01
:10145800030E0101136F95EC6AF00009D8B41AD095
:101468002D0E01018A6F040E01018B6F310E0101EF
:101478008C6F040E01018D6F0101EF51F30F010113
:101488008E6F280E01018F6F010E0101906FF9EC2C
:1014980012F000D0000E0101B76FDC0E0101126FCF
:1014A800FF0E0101136F37EC31F000D0010E00EC94
:1014B80073F00009D8B417D0050E0101276FA00EEC
:1014C800266F020E0101286F0C0EB1EC6BF00D0EA9
:1014D800D2EC75F00101D7510101D8B404D0000E47
:1014E8000101D76F00D00A0E00EC73F00009D8B4E0
:1014F80020D0D70E0101066F000E0101076FE50E1F
:101508000101086F010E0101096F040E01010A6F44
:1015180084EC70F00009D8A40CD0D70E0101186F24
:10152800000E0101196F000E01011A6FD0EC3FF097
:1015380000D00B0E00EC73F00009D8B415D0000EE3
:101548000201476F000E466F000E0201496F000E40
:10155800486F000E02015D6F000E5C6F000E020105
:101568005F6F000E5E6F00D0000E00EC73F0000994
:10157800D8B404D0000E0101C46F00D00B0EDAEC11
:1015880074F00009D8B40BD0050E0101276FA00E26
:10159800266F020E0101286F0B0EB1EC6BF00A0EDC
:1015A800DAEC74F000D002013B5105E10B0E0201A8
:1015B8003A5DD8A00CD0070EFEEC5CF0000E1DECD6
:1015C80076F0000E02013B6F000E3A6F00D0010169
:1015D800C351D8B40AD0000E01010D6F240E0C6F50
:1015E8005FEC64F00101C30700D0000E0201726FC6
:1015F8000C0EDAEC74F00009D8B40CD0050E010119
:10160800276FA00E266F020E0101286F0C0EB1EC99
:101618006BF000D00101D251D8B41ED0050E0101E3
:10162800276FA00E266F020E0101286F0C0EB1EC79
:101638006BF0000E0101D26F0101BC51D8B40CD07F
:101648000101C2510101D8A407D0000E0101D76FD2
:101658000D0ED2EC75F000D00C0E00EC73F0000902
:10166800D8B40BD0040E0101276FB00E266F010EFF
:101678000101286F0D0EB1EC6BF00D0E00EC73F04C
:101688000009D8B40BD0020E0101276F580E266F3F
:10169800010E0101286F0C0EB1EC6BF0110E00EC7D
:1016A80073F00009D8B406D0010E0101DA6F6CECB2
:1016B8002EF000D0100E00EC73F00009D8B41DD045
:1016C80056EC77F00009D8A418D00101FD510101AA
:1016D800D8B404D07FEC6DF0000E0CD0D70E010109
:1016E800186F000E0101196F010E01011A6FD0EC7D
:1016F8003FF0010E0101FD6F00D0100EDAEC74F01E
:101708000009D8B40CD0000E0101276F1E0E266FF9
:10171800010E0101286F100EB1EC6BF000D0000132
:10172800ABBF08D03E0E0001AA5D080E0001AB5900
:10173800D8B00BD00101C2510101D8B452D0010177
:10174800BC51D8B455D04DD053D00101C25101017C
:10175800D8B410D00101C2510101D8B439D0000168
:10176800ABBF36D07D0E0001AA5D080E0001AB5953
:10177800D8A02ED0000E0101C26F010E19EC6FF037
:101788000101005101010111D8B404D00CD030D0AE
:1017980010D02ED00D0E19EC6FF00101005101018F
:1017A8000111D8B40DD00101BC51D8B421D001D059
:1017B8001FD00101D7510101D8A41AD015D018D0D3
:1017C8000101BC51D8A414D0000E23EC68F010D04D
:1017D8000101C2510101D8B40BD00101BC51D8B4E8
:1017E80007D0010E0101C26F010E0101D76F00D0B1
:1017F800040E01010C6F000E3EEC61F00CC138F2D2
:101808000DC139F2020138510201485D0201395116
:1018180002014959D8B009D00101DF51D8A405D037
:1018280038C248F239C249F200D0DAEC70F0BDEFA4
:1018380006F081EC77F00009D8B4BDEF06F032EC81
:1018480077F0010E0101DE6FBDEF06F0EBEF04F05B
:101858002DC121F12EC122F134C123F131C106F18C
:1018680032C107F133C108F19BEC57F00101246F35
:10187800000E0101256FC8EC3AF00101576F2DC128
:1018880006F12EC107F12FC108F130C109F1040E8C
:1018980001010A6F7AEC71F0010135510101D8A4F8
:1018A80010D02DC106F12EC107F1FB0E0101086F02
:1018B800020E0101096F040E01010A6F7AEC71F042
:1018C80000D0010E01013365F6EF12F031C1D9FFE6
:1018D80032C1DAFFDE04D8A466D1050E01013365F2
:1018E80062D1F90E010133250101006F0101016B7D
:1018F800FF0E0123000E0101036F050E026F19ECA4
:1019080065F00101005101010111D8A44CD1FF0E6D
:101918000101366FFF0E0101376F010133510101DB
:10192800386F396B010136510101382701013751F0
:10193800010139230101385101013125D96E010115
:10194800395101013221DA6E0001C851DE18D8B4CC
:1019580024D0FF0E0101366FFF0E0101376F010120
:1019680033510101386F396B0101365101013827B4
:101978000101375101013923010138510101312594
:10198800D96E0101395101013221DA6EDE28D8A45D
:10199800F6EF12F002D0F6EF12F0000E0101596FC7
:1019A800010E586FE7D0050E010158250101366F69
:1019B800000E010159210101376F01013351010165
:1019C800386F396B010136510101385D0101395118
:1019D800800A01013A6F01013751800A01013A5921
:1019E800D8A082D0010159BF7FD00101595105E12A
:1019F800060E0101585DD8A077D031C100F132C17F
:101A080001F158C102F1400E0101036F010E0101FD
:101A1800046F000E0101056F040E0101066F03EC4F
:101A28006AF0040E010158250101366F000E01010C
:101A380059210101376F0101365101013125D96E54
:101A48000101375101013221DA6EDF500101386F8F
:101A5800050E0101396F0101D89038330101392F82
:101A6800FAD701013851070B01014C6F040E01012F
:101A780058250101366F000E010159210101376F08
:101A88000101365101013125D96E0101375101019A
:101A98003221DA6EDF501F0B0101546F1E0E010157
:101AA800546506D0000E01014F6F1F0E4E6F0AD00D
:101AB800010E0101542501014E6F01014F6B000E0B
:101AC8004F2300D0400E0101156F010E0101166F62
:101AD80057C117F14EC118F14CC119F1000E01019F
:101AE8001A6FBBEC1DF03CD00101580501015911DA
:101AF800D8A436D031C100F132C101F1010E010183
:101B0800026FE90E0101036F010E0101046F000E5F
:101B18000101056F040E0101066F03EC6DF0000969
:101B2800D8B41ED02DC10EF12EC10FF1040E010143
:101B380058250101366F000E010159210101376F47
:101B48000101365101013125D96E010137510101D9
:101B58003221DA6EDF500101106F7EEC67F000D0A1
:101B6800050E010158250101586F000E0101592188
:101B78000101596F010133510101366F376B0101C2
:101B880036510101585D01015951800A0101386F30
:101B980001013751800A01013859D8B0F6EF12F027
:101BA80002D7F6EF12F031C1D9FF32C1DAFF020EC7
:101BB800DE18D8A423D0010120EE02F03151D92635
:101BC8003251DA22DE5002017E19D8A4F6EF12F063
:101BD800000E0201756F000E0201A86F020E0201CD
:101BE800A96F000E0101D96F510E01013461F6EFA2
:101BF80012F0010E02016C6FF6EF12F031C1D9FF3D
:101C080032C1DAFF020EDF64F6EF12F00B0E0101AB
:101C18003365F6EF12F0010E0101D26F000E96EC5B
:101C280073F0010120EE02F03151D9263251DA2247
:101C3800DE5002017E19D8A40AD0000E0201756F89
:101C4800000E0201A86F020E0201A96F00D0010167
:101C580020EE01F03151D9263251DA22DE5002014C
:101C68007E19D8A498D1760E0101006F020E0101E9
:101C7800016F000E0101026F31C103F132C104F19D
:101C8800030E0101056F040E0101066F03EC6DF0F0
:101C98000009D8B480D1010120EE01F03151D926D4
:101CA8003251DA22DF500101B56F010E0001BA6F1F
:101CB8002DC106F12EC107F1EF0E0101086F020ECA
:101CC8000101096F040E01010A6F7AEC71F001013C
:101CD80020EE07F03151D9263251DA220101E951BB
:101CE800DE18D8A424D0010120EE08F03151D926FD
:101CF8003251DA220101EA51DE18D8A418D00101C4
:101D080020EE09F03151D9263251DA220101EB5186
:101D1800DE18D8A40CD0010120EE0AF03151D926E2
:101D28003251DA220101EC51DE18D8B434D131C174
:101D3800D9FF32C1DAFF040EDE18D8B429D101D098
:101D480027D131C100F132C101F1030E0101026F47
:101D5800E90E0101036F010E0101046F000E01017C
:101D6800056F040E0101066F03EC6DF00009D8A49D
:101D78000FD101D00DD1010120EE0BF03151D92640
:101D88003251DA220201AA51DE5CD8B003D0000E2B
:101D98001200FED0D3C250F1D4C251F1D5C252F1D3
:101DA800D6C253F131C100F132C101F1070E010170
:101DB800026F440E0101036F010E0101046F000E52
:101DC8000101056F040E0101066F03EC6AF0440E71
:101DD80001010B6F010E01010C6F500E01010D6F17
:101DE800010E01010E6FC8EC42F001014D6F0101B7
:101DF8005569500E0101066F010E0101076FE50ECE
:101E08000101086F010E0101096F040E01010A6F3B
:101E180084EC70F00009D8A40AD0500E01010E6FAE
:101E2800010E01010F6F41EC6DF00101556F760E47
:101E38000101066F020E0101076FF70E0101086F1D
:101E4800020E0101096F040E01010A6F7AEC71F0AC
:101E58007EC2EEF2A5EC76F002017E6F040E02015E
:101E68007F6F060E0201756F000E0201A86F020E49
:101E78000201A96F31C100F132C101F1030E010164
:101E8800026F7A0E0101036F020E0101046F000E4A
:101E98000101056F040E0101066F03EC6AF0E90EFB
:101EA8000101066F010E0101076F760E0101086F2F
:101EB800020E0101096F040E01010A6F7AEC71F03C
:101EC800000E0201AA6F1D0E0201806F2B0E020187
:101ED800816F440E0101006F010E0101016F000EB8
:101EE8000101026F800E0101036F020E0101046FF0
:101EF800020E0101056F040E0101066F03EC6AF082
:101F0800500E0101006F010E0101016F000E010169
:101F1800026F800E0101036F020E0101046F060EAD
:101F28000101056F040E0101066F03EC6AF02DC173
:101F380000F12EC101F1000E0101026F800E0101B6
:101F4800036F020E0101046F0A0E0101056F040EF2
:101F58000101066F03EC6AF04DC18EF255C18FF294
:101F680001015551060D040EF326000EF422BD0E94
:101F7800F324D96E0A0EF420DA6EDF500F0B02013B
:101F8800906F110E0201A66F000E0101D96F00D0EB
:101F9800000E120000D002017551D8A408D000012B
:101FA800BA51D8A404D00201A751D8B44ED07A0EA1
:101FB8000101066F020E0101076F030E01013125B1
:101FC8000101086F000E010132210101096F040EA1
:101FD80001010A6F84EC70F00009D8B433D0020113
:101FE8007551D8B42FD00001BA51D8A42BD0020112
:101FF800A751D8A427D0010120EE01F03151D926EC
:102008003251DA220201EE51DE18D8A41ED0F70EA2
:102018000101006F020E0101016F000E0101026F44
:1020280031C103F132C104F1030E0101056F040E41
:102038000101066F03EC6DF00009D8B406D0000E5C
:10204800120003D0000E120000D0010120EE07F0AC
:102058003151D9263251DA220101E951DE18D8A4CA
:1020680024D0010120EE08F03151D9263251DA226C
:102078000101EA51DE18D8A418D0010120EE09F0B8
:102088003151D9263251DA220101EB51DE18D8A498
:102098000CD0010120EE0AF03151D9263251DA2252
:1020A8000101EC51DE18D8B4D0D0010120EE0BF0BC
:1020B8003151D9263251DA221F0EDE18D8A402D0A7
:1020C800000E1200760E0101066F020E0101076F65
:1020D800F70E0101086F020E0101096F040E0101DC
:1020E8000A6F7AEC71F07EC2EEF2010120EE01F087
:1020F8003151D9263251DA22DF5002017E6F31C1C7
:10210800D9FF32C1DAFFDF5002017F6F060E0201EC
:10211800756F000E0201A86F020E0201A96F31C18E
:1021280000F132C101F1070E0101026F7A0E0101BF
:10213800036F020E0101046F000E0101056F040E0A
:102148000101066F03EC6AF031C100F132C101F1FF
:10215800030E0101026F760E0101036F020E0101E9
:10216800046F000E0101056F040E0101066F03ECF8
:102178006AF0010120EE0BF03151D9263251DA22F2
:10218800DF500101366F010136290201AA6F31C102
:1021980000F132C101F10C0E0101026F800E010144
:1021A800036F020E0101046F000E0101056F0101AA
:1021B8003351F40F0101066F03EC6AF0010133514A
:1021C800F40F0201A66F000E0101D96F010120EE84
:1021D80001F03151D9263251DA22DF500101B56FB1
:1021E800010E0001BA6F2DC106F12EC107F1EF0EE5
:1021F8000101086F020E0101096F040E01010A6F47
:102208007AEC71F02DC121F12EC122F134C123F1F4
:10221800010E0101246F010E0101256FC8EC3AF08F
:102228000101576F760E0101156F020E0101166F3D
:1022380057C117F1AAC218F1000E0101196F010E5A
:1022480001011A6FBBEC1DF0CDD1760E0101066FAE
:10225800020E0101076FF70E0101086F020E01015E
:10226800096F040E01010A6F7AEC71F07EC2EEF27A
:10227800010120EE01F03151D9263251DA22DF5026
:1022880002017E6F31C1D9FF32C1DAFFDF5002018E
:102298007F6F000E0201756F000E0201A86F020E1B
:1022A8000201A96F31C100F132C101F1070E01012C
:1022B800026F7A0E0101036F020E0101046F000E16
:1022C8000101056F040E0101066F03EC6AF031C1CC
:1022D80000F132C101F1030E0101026F760E010116
:1022E800036F020E0101046F000E0101056F040E59
:1022F8000101066F03EC6AF031C100F132C101F14E
:10230800030E0101026F2FC103F130C104F1000E69
:102318000101056F040E0101066F03EC6AF001016B
:1023280020EE0BF03151D9263251DA22DF5001016B
:10233800366F010136290201AA6F31C100F132C19D
:1023480001F10C0E0101026F800E0101036F020EF4
:102358000101046F000E0101056F01013351F40FF3
:102368000101066F03EC6AF001013351F40F020119
:10237800A66F010120EE01F03151D9263251DA223F
:10238800DF500101B56F010E0001BA6F2DC106F1D2
:102398002EC107F1EF0E0101086F020E0101096F4E
:1023A800040E01010A6F7AEC71F0000E0101D96F79
:1023B8002DC121F12EC122F134C123F1010E0101F9
:1023C800246F010E0101256FC8EC3AF00101576F27
:1023D800760E0101156F020E0101166F57C117F134
:1023E800AAC218F1000E0101196F010E01011A6F3E
:1023F800BBEC1DF0090E02017F19D8A405D002011B
:102408008151FBEC76F0EED002018039E842070BEF
:102418000101566F010156510101D8B41ED00101C6
:10242800C851D8B41AD00D0E010131250101006F31
:10243800000E010132210101016FF30E0101332564
:102448000101026F0101036BFF0E032356C104F162
:1024580073EC5FF0010E1200C5D001015651010165
:10246800D8A409D00101C851D8A405D0F3D703D006
:10247800F1D71200B7D0020180511F0B0C0AD8B453
:10248800E9D7020180511F0B1E0AD8A407D0020108
:102498008151D8A403D0DED71200A4D0D7C248F106
:1024A800D8C249F1D9C24AF1DAC24BF131C100F1BF
:1024B80032C101F1070E0101026F3B0E0101036FEA
:1024C800010E0101046F000E0101056F040E0101E8
:1024D800066F03EC6AF03B0E01010B6F010E010160
:1024E8000C6F480E01010D6F010E01010E6FC8EC53
:1024F80042F001013F69480E0101066F010E01011A
:10250800076FE50E0101086F010E0101096F040E46
:1025180001010A6F84EC70F00009D8A40AD0480EB3
:1025280001010E6F010E01010F6F41EC6DF0010109
:102538003F6F760E0101066F020E0101076FF70E5D
:102548000101086F020E0101096F040E01010A6FF3
:102558007AEC71F07EC2EEF2A5EC76F002017E6FA5
:10256800040E02017F6F060E0201756F000E020154
:10257800A86F020E0201A96F31C100F132C101F149
:10258800030E0101026F7A0E0101036F020E0101B1
:10259800046F000E0101056F040E0101066F03ECC4
:1025A8006AF0E90E0101066F010E0101076F760E50
:1025B8000101086F020E0101096F040E01010A6F83
:1025C8007AEC71F0000E0201AA6F1D0E0201806FF5
:1025D8002C0E0201816F020E0201A66F000E01018E
:1025E800D96F00D0000E120012008AC12DF18BC1E4
:1025F8002EF1A30E01012F6F010E0101306F8CC166
:1026080031F18DC132F18EC133F18FC134F190C1F6
:1026180035F12CEC0CF00009D8B41200000E0101C1
:10262800A06F010120EE0CF08C51D9268D51DA22D1
:10263800DF501F0B0101A16F0101A7691B0E0101EA
:10264800A1650BD0010120EE0DF08C51D9268D51DA
:10265800DA22DF500101A76F00D0000E0101996F47
:102668000C0E01018C250101006F000E01018D2166
:102678000101016F020E0101026F0C0E01018C2590
:102688000101036F000E01018D210101046F060E87
:102698000101056F040E0101066F03EC6DF00009DE
:1026A800D8B426D00C0E01018C250101006F000E54
:1026B80001018D210101016F060E0101026F0C0E4F
:1026C80001018C250101036F000E01018D2101011B
:1026D800046F0A0E0101056F040E0101066F03EC79
:1026E8006DF00009D8B404D0010E0101996F00D033
:1026F80099C1A8F1000E01019A6F0C0E01018C25F9
:102708000101006F000E01018D210101016F030E0F
:102718000101026F0C0E01018C250101036F000EEF
:1027280001018D210101046F070E0101056F040EDF
:102738000101066F03EC6DF00009D8B426D00C0E29
:1027480001018C250101006F000E01018D2101019D
:10275800016F070E0101026F0C0E01018C250101AA
:10276800036F000E01018D210101046F0B0E0101A1
:10277800056F040E0101066F03EC6DF00009D8B473
:1027880004D0010E01019A6F00D09AC19BF1D6EFD7
:1027980017F0F2EF17F01AD0F2EF17F0190E010147
:1027A8008E19D8A4F2EF17F00D0E01018C25010146
:1027B800186F000E01018D210101196F000E010132
:1027C8001A6FAAEC6EF0F2EF17F044D0010E010177
:1027D800A06FF2EF17F0010120EE0EF08C51D92610
:1027E8008D51DA22410EDE18D8A4F8D3010120EE6B
:1027F8000FF08C51D9268D51DA22530EDE18D8A449
:10280800EDD3010120EE10F08C51D9268D51DA223A
:10281800460EDE18D8A4E2D3CD0E0101066F030ED2
:102828000101076F110E01018C250101086F000ECF
:1028380001018D210101096F0B0E01010A6F84EC62
:1028480070F00009D8B4CAD3000E0101DA6F6CEC3D
:102858002EF0C4D30101A751030AD8B4B7D7290A67
:10286800D8B4B9D7BBD306D10101A8510101D8B456
:10287800B5D30E0E01018C250101186F000E010160
:102888008D210101196F000E01011A6FAAEC6EF07B
:10289800A5D301019B510101D8B417D00F0E010136
:1028A8008C250101206F000E01018D210101216F8E
:1028B800010120EE0EF08C51D9268D51DA22DF501D
:1028C8000101226F0FEC4FF089D3A30E0101186F9D
:1028D800010E0101196F2D0E01011A6F010120EE81
:1028E80001F08C51D9268D51DA22DF5001011B6F7E
:1028F80078EC72F073D301019B510101D8B417D061
:102908000F0E01018C2501010E6F000E01018D21B2
:1029180001010F6F010120EE0EF08C51D9268D5167
:10292800DA22DF500101106F61EC4BF057D3A30E90
:102938000101186F010E0101196F2D0E01011A6FA7
:10294800010120EE01F08C51D9268D51DA22DF5099
:1029580001011B6F78EC72F041D30101A85101010C
:10296800D8A43CD301D03AD3A30E0101186F010EAD
:102978000101196F2D0E01011A6F010120EE01F0FE
:102988008C51D9268D51DA22DF5001011B6F78EC6A
:1029980072F024D30101A8510101D8B41FD30E0E3F
:1029A80001018C250101186F000E01018D21010123
:1029B800196F32EC72F012D3010120EE0EF08C5137
:1029C800D9268D51DA22520EDE18D8A419D0010169
:1029D80020EE0FF08C51D9268D51DA22530EDE18D5
:1029E800D8A40ED0010120EE10F08C51D9268D51BB
:1029F800DA22490EDE18D8A403D0EBEC76F0EED23A
:102A0800A30E0101186F010E0101196F2D0E0101AE
:102A18001A6F010120EE01F08C51D9268D51DA226E
:102A2800DF5001011B6F78EC72F0D8D20101A85178
:102A38000101D8B4D3D20E0E01018C250101186F03
:102A4800000E01018D210101196FB0EC70F0C6D2A2
:102A58000101A8510101D8B4C1D20E0E01018C2583
:102A68000101186F000E01018D210101196F75EC2C
:102A780068F0B4D20101A751000AD8B4F5D6040A07
:102A8800D8B4ACD2240AD8B404D7010AD8B433D7FE
:102A9800030AD8B462D7010AD8B47CD7070AD8B4D5
:102AA8008BD7010AD8B4C2D70B0AD8B4D1D796D2DB
:102AB8005BD20E0E01018C2501012F6F000E010162
:102AC8008D210101306F63EC39F0A30E0101186FFD
:102AD800010E0101196F32EC72F080D28CC100F145
:102AE8008DC101F10E0E0101026FD70E0101036FB6
:102AF800000E0101046F000E0101056F040E0101B3
:102B0800066F03EC6AF00D0E01018C250101186FA8
:102B1800000E01018D210101196FB0EC70F05ED239
:102B28008CC100F18DC101F10E0E0101026F8CC143
:102B380003F18DC104F1170E0101056F040E0101A7
:102B4800066F03EC6DF00009D8B499D08CC100F180
:102B58008DC101F1170E0101026F8CC103F18DC106
:102B680004F1200E0101056F040E0101066F03EC4C
:102B78006DF00009D8B483D08CC100F18DC101F18A
:102B8800120E0101026F8CC103F18DC104F11B0EFD
:102B98000101056F040E0101066F03EC6DF00009D9
:102BA800D8B46DD08CC100F18DC101F11B0E0101AB
:102BB800026F8CC103F18DC104F1240E0101056F70
:102BC800040E0101066F03EC6DF00009D8B457D06C
:102BD800010120EE1FF08C51D9268D51DA22010116
:102BE80010EE16F08C51E1268D51E222DE50E618E7
:102BF800D8A445D0010120EE28F08C51D9268D515A
:102C0800DA22010110EE1FF08C51E1268D51E222EB
:102C1800DE50E618D8A433D00E0E01018C25010130
:102C28002A6F000E01018D2101012B6F120E010187
:102C38008C2501012C6F000E01018D2101012D6FE2
:102C4800010120EE16F08C51D9268D51DA22DF5081
:102C580001012E6F2CEC71F0A30E0101186F010E0B
:102C68000101196F0E0E01018C2501011A6F000E6A
:102C780001018D2101011B6F9DEC4DF0AFD1A30E19
:102C88000101186F010E0101196F2D0E01011A6F54
:102C9800010120EE01F08C51D9268D51DA22DF5046
:102CA80001011B6F78EC72F099D10E0E01018C2591
:102CB80001010E6F000E01018D2101010F6FCDEC96
:102CC80065F0A30E0101186F010E0101196F010EC5
:102CD80001011A6FAAEC6EF081D1010120EE0EF00D
:102CE8008C51D9268D51DA22520EDE18D8A476D10D
:102CF800010120EE0FF08C51D9268D51DA22530EA6
:102D0800DE18D8A46BD1010120EE10F08C51D92621
:102D18008D51DA22540EDE18D8A460D1FF005ED19E
:102D2800010120EE0EF08C51D9268D51DA22530E76
:102D3800DE18D8A453D1010120EE0FF08C51D9260A
:102D48008D51DA22460EDE18D8A448D1010120EEB2
:102D580010F08C51D9268D51DA22540EDE18D8A4E1
:102D68003DD1A30E0101186F010E0101196FC6ECC8
:102D780068F0010120EE11F08C51D9268D51DA222C
:102D8800DF500101F76F150E0101276F7C0E266FCA
:102D9800000E0101286F110EB1EC6BF01FD101017B
:102DA80020EE0EF08C51D9268D51DA22530EDE1802
:102DB800D8A458D0010120EE0FF08C51D9268D519E
:102DC800DA22520EDE18D8A44DD0010120EE10F000
:102DD8008C51D9268D51DA22460EDE18D8A442D05D
:102DE800010120EE11F08C51D9268D51DA22040E02
:102DF800DF6038D0010120EE11F08C51D9268D51B9
:102E0800DA22DF500101986F010120EE12F08C5197
:102E1800D9268D51DA22DF500101916F01019151BC
:102E280001019D6F9E6B01019D5101019E6F9D6B7C
:102E3800010120EE13F08C51D9268D51DA22DF5092
:102E48000101916F0101915101019D27000E9E23FF
:102E58009DC126F19EC127F198C128F1010EB1EC60
:102E68006BF0BCD0A30E0101186F010E0101196FA0
:102E78002D0E01011A6F010120EE01F08C51D926A7
:102E88008D51DA22DF5001011B6F78EC72F0A6D069
:102E98000101A8510101D8B4A1D0010120EE1BF015
:102EA8008C51D9268D51DA22DF500101916F010131
:102EB80091510101B06FB16B0101B0510101B16FC6
:102EC800B06B010120EE1AF08C51D9268D51DA220F
:102ED800DF500101916F010191510101B027000EEE
:102EE800B1230101B005090E0101B159D8A006D0DE
:102EF800000E0101B16F000EB06F70D0010120EE1D
:102F08001CF08C51D9268D51DA22DF500101F76F60
:102F18000E0E01018C250101186F000E01018D2193
:102F28000101196F71EC6EF0010120EE1DF08C515A
:102F3800D9268D51DA22DF500101F16F1E0E0101F1
:102F48008C250101066F000E01018D210101076F1B
:102F5800CD0E0101086F030E0101096F0B0E01016F
:102F68000A6F7AEC71F03AD00101A751040AD8B47B
:102F78008FD7270AD8B49DD5060AD8B4AFD5030A87
:102F8800D8B4CED5010AD8B490D60F0AD8B4A5D6ED
:102F9800010AD8B423D0030AD8B4C2D66A0AD8B46E
:102FA800FED61CD00101A151000AD8B417D0020ADC
:102FB800D8B40CD4060AD8B411D0080AD8B4D2EFC1
:102FC80013F0100AD8B40AD0010AD8B443D4030ABB
:102FD800D8B450D5010AD8B4C7D700D00101A05140
:102FE8000101D8A420D00C0E01018C250101816FAC
:102FF800000E01018D210101826F8FC183F1A30EA3
:103008000101846F010E0101856FA1C186F1A7C17D
:1030180087F101018E51F40F0101886F2AEC3CF011
:103028000101A06F00D00101A0510101D8B4120024
:10303800E80E0101126FFF0E0101136F37EC31F03A
:103048000101C051D8A423D1010E0001BD6F0101B7
:103058008E51FD0F01019C6F000E0101016F020EE0
:10306800006F240E0101026F4EEC59F0000E0101B1
:10307800016F020E006F240E0101026F4EEC59F031
:10308800000E0101016F020E006F9CC102F14EECAF
:1030980059F0000E0101016F020E006F000E0101D0
:1030A800026F4EEC59F0000E01019F6F000E0101F6
:1030B800016F020E006F010120EE03F08C51D9263A
:1030C8008D51DA22DF500101026F4EEC59F00101F7
:1030D80020EE03F08C51D9268D51DA22DF50010100
:1030E8009F1B000E0101016F020E006F010120EE0F
:1030F80004F08C51D9268D51DA22DF500101026F7C
:103108004EEC59F0010120EE04F08C51D9268D5176
:10311800DA22DF5001019F1B000E0101016F020E30
:10312800006F010120EE05F08C51D9268D51DA226D
:10313800DF500101026F4EEC59F0010120EE05F05D
:103148008C51D9268D51DA22DF5001019F1B000EC8
:103158000101016F020E006F010120EE06F08C5193
:10316800D9268D51DA22DF500101026F4EEC59F059
:10317800010120EE06F08C51D9268D51DA22DF505C
:1031880001019F1B000E0101A26F38D0000E010142
:10319800016F020E006F0101A2510101916F926B44
:1031A8000C0E01019127000E92230101915101019A
:1031B8008C25D96E0101925101018D21DA6EDF5003
:1031C8000101026F4EEC59F00101A2510101916F0A
:1031D800926B0C0E01019127000E9223010191516F
:1031E80001018C25D96E0101925101018D21DA6E00
:1031F800DF5001019F1B0101A22B00D0F70E010136
:10320800916FFF0E0101926F01019C510101936FB3
:10321800946B010191510101932701019251010120
:1032280094230101A2510101956F966B01019351FD
:103238000101955D01019651800A0101976F010115
:103248009451800A01019759D8A0A0D7000E010116
:10325800016F020E006F9FC102F14EEC59F0000E93
:103268000101016F020E006F0D0E0101026F4EEC9D
:1032780059F0000E0101016F020E006F0A0E0101E4
:10328800026F4EEC59F0000E0001BD6F00D0D60E53
:103298000101126FFF0E0101136F37EC31F01200BC
:1032A800120001015A6F02017551D8A414D000010F
:1032B800BA51D8A410D00201A751D8A40CD001014A
:1032C8004A05D8A408D0010E0101486F01015A51DE
:1032D800C1EC76F008D0000E0101486F01015A5187
:1032E800C1EC76F000D0680E01015B6F030E01019E
:1032F8005C6F66EC77F00009D8A416D0E3C20CF135
:10330800E4C20DF15FEC64F0010E01010C2502012D
:103318002E6F000E01010D2102012F6F000E020118
:10332800E66F000EE56F00D04EEC77F00009D8B4D8
:10333800DED00201A751D8B47BD001015A51010156
:10334800D8B476D0000E0201A76F5BC1D9FF5CC16B
:10335800DAFF7FC2DFFF010120EE01F05B51D926C1
:103368005C51DA227EC2DFFF010120EE02F05B51E0
:10337800D9265C51DA22B5C1DFFF760E0101006F54
:10338800020E0101016F000E0101026F5BC103F122
:103398005CC104F1030E0101056F040E0101066F03
:1033A80003EC6AF07A0E0101006F020E0101016F51
:1033B800000E0101026F5BC103F15CC104F1070E4D
:1033C8000101056F040E0101066F03EC6AF00101AB
:1033D80020EE0BF05B51D9265C51DA22AAC2DFFF3E
:1033E800800E0101006F020E0101016F000E010144
:1033F800026F5BC103F15CC104F10C0E0101056FA2
:10340800A6C206F103EC6AF0E50E0101326F010E67
:103418000101336F5D0E0101346F030E0101356F39
:103428000201A6510C0F0101366FEBEC5FF05BD087
:1034380002012E510201E51956E102012F51020144
:10344800E619D8A450D001015A510101D8B442D08C
:1034580056EC77F00009D8B43DD00101F551D8B445
:1034680027D075EC28F00101516FE50E0101326F8C
:10347800010E0101336F5D0E0101346F030E01016E
:10348800356F51C136F1EBEC5FF00009D8A42BD0B1
:1034980001D029D00201E35102012E5D0201E4515D
:1034A80002012F59D8B01FD002012E4B2F2B1BD051
:1034B800E50E0101326F010E0101336F5D0E01014E
:1034C800346F030E0101356F000E0101366FEBEC0E
:1034D8005FF009D0A80E0101126FFE0E0101136FF3
:1034E80037EC31F000D00201E54BE62BDBD2CFC23E
:1034F80056F1D0C257F1D1C258F1D2C259F10101E7
:10350800D951D8A4C1D00101D92B0201A851D8A4FE
:10351800B8D0010E02017565C5D27A0E01010B6F94
:10352800020E01010C6F560E01010D6F010E010113
:103538000E6FC8EC42F00101526F0001BA51D8B4C5
:1035480016D0560E0101066F010E0101076FEF0E2E
:103558000101086F020E0101096F040E01010A6FD3
:1035680084EC70F00009D8A49DD201D09BD2A9C2E6
:103578000CF101010D6B5FEC64F001010C510201CB
:10358800A86F01015A510101D8B48CD20201750704
:103598000201A92B1F0E0101526184D25BC1D9FF20
:1035A8005CC1DAFF7FC2DFFF010120EE01F05B5151
:1035B800D9265C51DA227EC2DFFF010120EE02F03B
:1035C8005B51D9265C51DA22B5C1DFFF760E0101C5
:1035D800006F020E0101016F000E0101026F5BC155
:1035E80003F15CC104F1030E0101056F040E010132
:1035F800066F03EC6AF07A0E0101006F020E0101FA
:10360800016F000E0101026F5BC103F15CC104F19F
:10361800070E0101056F040E0101066F03EC6AF045
:10362800010120EE0BF05B51D9265C51DA22AAC2C7
:10363800DFFF800E0101006F020E0101016F000E15
:103648000101026F5BC103F15CC104F10C0E0101C1
:10365800056FA6C206F103EC6AF0560E0101326F3F
:10366800010E0101336F5D0E0101346F030E01017C
:10367800356F0201A6510C0F0101366FEBEC5FF0BC
:1036880011D20201A8070ED20101D905D8A4E8D0A9
:103698000001BA51D8B4E4D00101D92B7A0E010146
:1036A8000B6F020E01010C6F560E01010D6F010E1A
:1036B80001010E6FC8EC42F00101536F010E0201C7
:1036C80075659CD0560E0101066F010E0101076F4A
:1036D800EF0E0101086F020E0101096F040E0101CE
:1036E8000A6F84EC70F00009D8B488D0000E02018B
:1036F800756F000E0201A86F020E0201A96F010189
:103708005A510101D8B4CED11F0E01015361CAD15B
:10371800000E0001BA6F5BC1D9FF5CC1DAFF7FC23E
:10372800DFFF010120EE01F05B51D9265C51DA225E
:103738007EC2DFFF010120EE02F05B51D9265C5109
:10374800DA22B5C1DFFF760E0101006F020E01011A
:10375800016F000E0101026F5BC103F15CC104F14E
:10376800030E0101056F040E0101066F03EC6AF0F8
:103778007A0E0101006F020E0101016F000E0101B6
:10378800026F5BC103F15CC104F1070E0101056F13
:10379800040E0101066F03EC6AF0010120EE0BF044
:1037A8005B51D9265C51DA22AAC2DFFF800E0101E3
:1037B800006F020E0101016F000E0101026F5BC173
:1037C80003F15CC104F10C0E0101056FA6C206F1FC
:1037D80003EC6AF0560E0101326F010E0101336FDE
:1037E8005D0E0101346F030E0101356F0201A65110
:1037F8000C0F0101366FEBEC5FF054D1000E0001A5
:10380800BA6F5BC1D9FF5CC1DAFF020EDF6E01013E
:1038180020EE01F05B51D9265C51DA22000EDF6EF2
:10382800010120EE02F05B51D9265C51DA22B5C1C4
:10383800DFFF01015A510101D8B434D1EF0E010163
:10384800326F020E0101336F5D0E0101346F030EFA
:103858000101356F030E0101366FEBEC5FF022D1E9
:10386800020E0101D9651BD102017505D8A413D137
:103878007A0E01010B6F020E01010C6F560E010149
:103888000D6F010E01010E6FC8EC42F00101546F7B
:1038980001015569560E0101066F010E0101076FFE
:1038A800E50E0101086F010E0101096F040E010107
:1038B8000A6F84EC70F00009D8A40BD0560E0101F1
:1038C8000E6F010E01010F6F41EC6DF00101556F94
:1038D80000D0040E02017F19D8B414D0760E01016D
:1038E800066F020E0101076FE90E0101086F010E54
:1038F8000101096F040E01010A6F84EC70F00009E0
:10390800D8B40AD0000E0201756F000E0201A86F2C
:10391800020E0201A96FBFD0760E0101066F020EDA
:103928000101076FE90E0101086F010E0101096F1E
:10393800040E01010A6F84EC70F00009D8A4ABD022
:1039480001D0A9D0760E0101066F020E0101076FA2
:10395800F70E0101086F020E0101096F040E010143
:103968000A6F7AEC71F07EC2EEF2A5EC76F00201F5
:103978007E6F040E02017F6F060E0201756F000E46
:103988000201A86F020E0201A96F7A0E0101066FEB
:10399800020E0101076F4D0E0101086F010E0101B2
:1039A800096F040E01010A6F7AEC71F0760E0101BD
:1039B800066F020E0101076F7A0E0101086F020EF1
:1039C8000101096F040E01010A6F7AEC71F0E90E2A
:1039D8000101066F010E0101076F760E0101086FE4
:1039E800020E0101096F040E01010A6F7AEC71F0F1
:1039F800000E0201AA6F1D0E0201806F2B0E02013C
:103A0800816F4D0E0101006F010E0101016F000E63
:103A18000101026F800E0101036F020E0101046FA4
:103A2800020E0101056F040E0101066F03EC6AF036
:103A3800560E0101006F010E0101016F000E010118
:103A4800026F800E0101036F020E0101046F060E62
:103A58000101056F040E0101066F03EC6AF054C101
:103A68008AF255C18BF201015551060D040EF32659
:103A7800000EF422BD0EF324D96E0A0EF420DA6E7D
:103A8800DF500F0B02018C6F0D0E0201A66F000EA6
:103A98000101D96F00D0000E0101D96F03D00101D7
:103AA800D92B00D066EC77F00009D8A40CD002011D
:103AB800642B020E0201646506D023EC4CF0000E64
:103AC8000201646F00D00201602B0101F451020170
:103AD800605DD8A03FD00101B651020DC90EF32494
:103AE800D96E080EF420DA6EDF38E832E832030BBC
:103AF8000009D8B422D0010E01014B6F0101B65163
:103B0800020DC90EF324D96E080EF420DA6EDF38E0
:103B180001014C6F4C334C31030B4C6F01014B517D
:103B280001014C5F01014C3B4C374C37DF50010120
:103B38004C193F0B4C19DF6E00D00101B62BF90E62
:103B48000101B66503D0000E0101B66F000E020137
:103B5800606F00D0070E00EC73F00009D8B41200B3
:103B68006BEC3DF0010E0101F56F1200120015C15A
:103B780006F116C107F1E90E0101086F010E0101F6
:103B8800096F040E01010A6F84EC70F00009D8A4D3
:103B9800120001D0120001011729D8B4120001D077
:103BA8001200030E0101086F01011751060D050EE1
:103BB800F326000EF422BD0EF324D96E0A0EF4206B
:103BC800DA6EDF500DEC49F00101196151D0030E96
:103BD8000101086F01011751060D050EF326000EAD
:103BE800F422BD0EF324D96E0A0EF420DA6EDF50EB
:103BF8000DEC49F001011B6F01011751060D040E70
:103C0800F326000EF422BD0EF324D96E0A0EF4201A
:103C1800DA6EDF380F0BE5EC73F001011B5DD8B0ED
:103C280012D001011751060D040EF326000EF422DE
:103C3800BD0EF324D96E0A0EF420DA6EDF380F0BAE
:103C4800E5EC73F03AD0030E0101086F010117513A
:103C5800060D050EF326000EF422BD0EF324D96ED0
:103C68000A0EF420DA6EDF500DEC49F026D02BD086
:103C780001011751060D040EF326000EF422BD0EA5
:103C8800F324D96E0A0EF420DA6EDF380F0BE5EC58
:103C980073F00101196114D001011751060D040ECA
:103CA800F326000EF422BD0EF324D96E0A0EF4207A
:103CB800DA6EDF380F0BE5EC73F001011F6F03D0EC
:103CC80019C11FF100D0000E0101206FF90E01018A
:103CD800206501D06BD215C104F116C105F10101AF
:103CE80020517FEC5DF00009D8B45DD2010120516C
:103CF800020DC90EF324D96E080EF420DA6EDF50D7
:103D08003F0B2BEC67F001011C6F01012051020DE4
:103D1800010EF326000EF422C90EF324D96E080E04
:103D2800F420DA6EDF38E832070B01011B6F01015E
:103D38001C5101011B5DD8B019D01CC11BF1010138
:103D48002051020D010EF326000EF422C90EF324B1
:103D5800D96E080EF420DA6E01011B3B1B47DF50B9
:103D680001011B191F0B1B19DF6E00D001011A512D
:103D78000101D8B42DD001012051020D010EF32606
:103D8800000EF422C90EF324D96E080EF420DA6E60
:103D9800DF5001011819E00B1819DF6E01012051DD
:103DA800020DC90EF324D96E080EF420DA6EDF5026
:103DB80001011719C00B1719DF6E01012051020DFF
:103DC800C90EF324D96E080EF420DA6EC00EDF1285
:103DD80001012051020DC90EF324D96E080EF420FA
:103DE800DA6EDF503F0B01011719D8A444D01FC168
:103DF8001BF101012051020D010EF326000EF422E1
:103E0800C90EF324D96E080EF420DA6E01011B3BAB
:103E18001B47DF5001011B191F0B1B19DF6E010126
:103E28002051020D010EF326000EF422C90EF324D0
:103E3800D96E080EF420DA6EDF501F0B0101181935
:103E4800D8B405D00101175186EC74F000D00101F7
:103E58002051020D010EF326000EF422C90EF324A0
:103E6800D96E080EF420DA6EDF5001011819E00B44
:103E78001819DF6E120001012051020DC90EF3243A
:103E8800D96E080EF420DA6EDF38E832E832030B18
:103E98000009D8A4120001012051020D010EF326D9
:103EA800000EF422C90EF324D96E080EF420DA6E3F
:103EB800DF38E832070B070AD8A43BD001012051AC
:103EC800020D010EF326000EF422C90EF324D96E5A
:103ED800080EF420DA6EDF5001011819E00B1819EA
:103EE800DF6E01012051020DC90EF324D96E080EB0
:103EF800F420DA6EDF5001011719C00B1719DF6EB5
:103F08001FC11BF101012051020D010EF326000E05
:103F1800F422C90EF324D96E080EF420DA6E0101DA
:103F28001B3B1B47DF5001011B191F0B1B19DF6EC1
:103F3800120001012051020D010EF326000EF42299
:103F4800C90EF324D96E080EF420DA6EDF501F0B69
:103F58000101186145D001011F510001D65DD8A0AB
:103F6800120001012051020D010EF326000EF42269
:103F7800C90EF324D96E080EF420DA6EDF50010161
:103F88001819E00B1819DF6E01012051020DC90E36
:103F9800F324D96E080EF420DA6EDF5001011719E8
:103FA800C00B1719DF6E1FC11BF101012051020D53
:103FB800010EF326000EF422C90EF324D96E080E62
:103FC800F420DA6E01011B3B1B47DF5001011B196E
:103FD8001F0B1B19DF6E0101175186EC74F01200DC
:103FE80001012051020D010EF326000EF422C90E24
:103FF800F324D96E080EF420DA6EDF501F0B01018E
:104008001819D8A461D001012051020D010EF32620
:10401800000EF422C90EF324D96E080EF420DA6ECD
:10402800DF38E832070B01011F611200010120513E
:10403800020D010EF326000EF422C90EF324D96EE8
:10404800080EF420DA6EDF38E832070B0001D6617B
:10405800120001012051020D010EF326000EF42278
:10406800C90EF324D96E080EF420DA6EDF50010170
:104078001819E00B1819DF6E01012051020DC90E45
:10408800F324D96E080EF420DA6EDF5001011719F7
:10409800C00B1719DF6E1FC11BF101012051020D62
:1040A800010EF326000EF422C90EF324D96E080E71
:1040B800F420DA6E01011B3B1B47DF5001011B197D
:1040C8001F0B1B19DF6E120001012051020D010E9A
:1040D800F326000EF422C90EF324D96E080EF4203C
:1040E800DA6EDF501F0B01011B6F0101185101012E
:1040F8001B5DD8B012000001D65101011F5DD8B078
:10410800120001012051020D010EF326000EF422C7
:10411800C90EF324D96E080EF420DA6EDF38E832BF
:10412800070B0001D661120001012051020D010E9A
:10413800F326000EF422C90EF324D96E080EF420DB
:10414800DA6EDF5001011819E00B1819DF6E010152
:104158002051020DC90EF324D96E080EF420DA6E30
:10416800DF5001011719C00B1719DF6E1FC11BF1B2
:1041780001012051020D010EF326000EF422C90E92
:10418800F324D96E080EF420DA6E01011B3B1B479D
:10419800DF5001011B191F0B1B19DF6E010117519D
:1041A80086EC74F012000101202B90D51F0E01013E
:1041B800186160D0000E01011E6FF90E01011E6525
:1041C80001D058D0E50E0101046F010E0101056F01
:1041D80001011E517FEC5DF00009D8B447D015C12C
:1041E80007F116C108F101011E5124EC6BF0010121
:1041F8001E51020D010EF326000EF422C90EF324FF
:10420800D96E080EF420DA6EDF5001011819E00BA0
:104218001819DF6E01011E51020DC90EF324D96E63
:10422800080EF420DA6EDF5001011719C00B1719B8
:10423800DF6E1FC11BF101011E51020D010EF32695
:10424800000EF422C90EF324D96E080EF420DA6E9B
:1042580001011B3B1B47DF5001011B191F0B1B19D9
:10426800DF6E0101175186EC74F0120001011E2B5C
:10427800A4D700D01F0E010118611200AFC01DF1B4
:10428800F90E01011D6502D01200120001011D5135
:10429800020D010EF326000EF422C90EF324D96E86
:1042A800080EF420DA6EDF501F0B1F0AD8B40ED0A8
:1042B80001011D51020DC90EF324D96E080EF42018
:1042C800DA6EDF503F0B3F0AD8A454D015C107F16E
:1042D80016C108F10001AF5124EC6BF00001AF5199
:1042E800020D010EF326000EF422C90EF324D96E36
:1042F800080EF420DA6EDF5001011819E00B1819C6
:10430800DF6E0001AF51020DC90EF324D96E080EFD
:10431800F420DA6EDF5001011719C00B1719DF6E90
:104328001FC11BF10001AF51020D010EF326000E53
:10433800F422C90EF324D96E080EF420DA6E0101B6
:104348001B3B1B47DF5001011B191F0B1B19DF6E9D
:104358000001AF51020DC90EF324D96E080EF420E6
:10436800DA6E3F0EDF160101175186EC74F01DC19D
:10437800AFF01200F90E01011D19D8A404D0000EE7
:104388000001AF6F00D001011D2BF90E01011D6561
:104398007DD7120012001200000E4A6E000E4B6EFE
:1043A800000E0001B26F000E0001B86F020E00ECA3
:1043B80073F00009D8B435D1010E4A6E0001B32B51
:1043C800020E0001B319D8A4FBD0000E0001B36F90
:1043D800F7D0000E0001B26F000E0101276F1E0E0C
:1043E800266F000E0101286F020EB1EC6BF019D197
:1043F800010E0001B26F000E0101276F1E0E266F1D
:10440800000E0101286F020EB1EC6BF00AD1000119
:10441800B305D8A404D0010E0001B26F00D0000E7D
:104428000101276F400E266F000E0101286F020E52
:10443800B1EC6BF0F6D00001B305D8A404D0010E9E
:104448000001B26F00D0000E0101276F7D0E266FAC
:10445800000E0101286F020EB1EC6BF0E2D000D023
:104468000001B305D8A404D0010E0001B26F00D03A
:10447800000E0101276FFA0E266F000E0101286F4A
:10448800020EB1EC6BF0CDD00001B305D8A404D076
:10449800010E0001B26F00D0010E0101276FF40E6A
:1044A800266F000E0101286F020EB1EC6BF0B9D037
:1044B8000001B305D8A404D0010E0001B26F00D0EA
:1044C800030E0101276FE80E266F000E0101286F09
:1044D800020EB1EC6BF0A5D00001B305D8A404D04E
:1044E800010E0001B26F00D0090E0101276FC40E42
:1044F800266F000E0101286F020EB1EC6BF091D00F
:104508000001B305D8A404D0010E0001B26F00D099
:10451800130E0101276F880E266F000E0101286F08
:10452800020EB1EC6BF07DD00001B305D8A421D008
:10453800010E0001B26F3950D8A40DD0000E010150
:10454800276F500E266F000E0101286F020EB1EC86
:104558006BF0010E0CD0090E0101276F740E266F47
:10456800000E0101286F020EB1EC6BF0000E396EDF
:1045780058D03950D8B40CD0000E0101276F500E16
:10458800266F000E0101286F020EB1EC6BF049D0C6
:10459800090E0101276F740E266F000E0101286FA6
:1045A800020EB1EC6BF03DD0000E0101276F1E0E1C
:1045B800266F000E0101286F020EB1EC6BF031D0AE
:1045C8000001B151000AD8B404D7010AD8B410D7F1
:1045D800030AD8B41CD7010AD8B42DD7070AD8B40F
:1045E8003FD7010AD8B450D7030AD8B461D70D0A07
:1045F800D8B436D7070AD8B433D7010AD8B430D7D5
:10460800030AD8B42DD7010AD8B42AD71F0AD8B4B8
:1046180063D7010AD8B474D7030AD8B485D7C4D7E6
:1046280000D0030E00EC73F00009D8B435D1010EA8
:104638004B6E0001B42B020E0001B419D8A4FBD0B4
:10464800000E0001B46FF7D0000E0001B86F000E25
:104658000101276F1E0E266F000E0101286F030E41
:10466800B1EC6BF019D1010E0001B86F000E010119
:10467800276F1E0E266F000E0101286F030EB1EC86
:104688006BF00AD10001B405D8A404D0010E0001D2
:10469800B86F00D0000E0101276F400E266F000E84
:1046A8000101286F030EB1EC6BF0F6D00001B405E0
:1046B800D8A404D0010E0001B86F00D0000E01018B
:1046C800276F7D0E266F000E0101286F030EB1ECD7
:1046D8006BF0E2D000D00001B405D8A404D0010EDC
:1046E8000001B86F00D0000E0101276FFA0E266F87
:1046F800000E0101286F030EB1EC6BF0CDD0000164
:10470800B405D8A404D0010E0001B86F00D0010E82
:104718000101276FF40E266F000E0101286F030EAA
:10472800B1EC6BF0B9D00001B405D8A404D0010EE7
:104738000001B86F00D0030E0101276FE80E266F45
:10474800000E0101286F030EB1EC6BF0A5D000013B
:10475800B405D8A404D0010E0001B86F00D0090E2A
:104768000101276FC40E266F000E0101286F030E8A
:10477800B1EC6BF091D00001B405D8A404D0010EBF
:104788000001B86F00D0130E0101276F880E266F45
:10479800000E0101286F030EB1EC6BF07DD0000113
:1047A800B405D8A421D0010E0001B86F3C50D8A49C
:1047B8000DD0000E0101276F500E266F000E01016B
:1047C800286F030EB1EC6BF0010E0CD0090E01013D
:1047D800276F740E266F000E0101286F030EB1ECCF
:1047E8006BF0000E3C6E58D03C50D8B40CD0000E84
:1047F8000101276F500E266F000E0101286F030E6E
:10480800B1EC6BF049D0090E0101276F740E266FC9
:10481800000E0101286F030EB1EC6BF03DD0000EC5
:104828000101276F1E0E266F000E0101286F030E6F
:10483800B1EC6BF031D00001B751000AD8B404D7FD
:10484800010AD8B410D7030AD8B41CD7010AD8B4BF
:104858002DD7070AD8B43FD7010AD8B450D7030ACE
:10486800D8B461D70D0AD8B436D7070AD8B433D725
:10487800010AD8B430D7030AD8B42DD7010AD8B45E
:104888002AD71F0AD8B463D7010AD8B474D7030A41
:10489800D8B485D7C4D700D0090E0001B119D8A45F
:1048A8000CD04B50D8B409D00001B4510001D8A4A1
:1048B80004D0010E0001B26F00D00A0E0001B71932
:1048C800D8A40CD04A50D8B409D00001B351000183
:1048D800D8A404D0010E0001B86F00D0080E000162
:1048E800B119D8A40CD04B50D8B409D00001B85194
:1048F8000001D8B404D0010E0001B26F00D0070E39
:104908000001B719D8A40CD04A50D8B409D0000176
:10491800B2510001D8B404D0010E0001B86F00D024
:104928000001B8510001D8B40DD03B50D8B402D022
:104938003B0600D00001B6510001D8B403D00001F5
:10494800B60700D00001B2510001D8B40DD03850DC
:10495800D8B402D0380600D00001B0510001D8B454
:1049680003D00001B00700D00001B0510001D8B455
:1049780003D0000E0001B26F0001B6510001D8B497
:1049880003D0000E0001B86F3850D8B424D035D009
:1049980022D00A0E0001B06F0001B051040F13D0ED
:1049A8000A0E0001B06F0001B051030F0CD00A0EBF
:1049B8000001B06F0001B051020F05D00A0E0001CE
:1049C800B06F0001B029386E18D00A0E0001B06F20
:1049D800B0C038F012D00001B1510B0AD8B4D9D701
:1049E800070AD8B4DDD7010AD8B4E1D7030AD8B486
:1049F800E5D7010AD8B4E9D700D03B50D8B424D0C1
:104A080035D022D00A0E0001B66F0001B651040F4E
:104A180013D00A0E0001B66F0001B651030F0CD077
:104A28000A0E0001B66F0001B651020F05D00A0E3A
:104A38000001B66F0001B6293B6E18D00A0E0001BE
:104A4800B66FB6C03BF012D00001B7510B0AD8B40C
:104A5800D9D7070AD8B4DDD7010AD8B4E1D7030AF1
:104A6800D8B4E5D7010AD8B4E9D700D00001B251CB
:104A780078EC76F00001B8516CEC76F01200010188
:104A8800416F0101C651D8A404D00101DD51D8B449
:104A98004AD2800E0101BC19D8B459D02CC00DF1EE
:104AA8002DC00EF1E7C20FF1E8C210F14FEC6FF024
:104AB80001010D5101010E11D8A413D0000E0101FE
:104AC8000E6F0001C351010D000EF324D96E060EBE
:104AD800F420DA6EDF5026EC75F0010E0001BE6F8F
:104AE80027D02CC10EF1C3C000F10101016BD0C168
:104AF80002F10101036BC90E0101046F000E056F7D
:104B0800000E066F000E076F36EC6EF0000E010106
:104B18000025D96E060E01010121DA6EDF5026EC60
:104B280075F0000E0001BE6F000E0101C16F00D0CC
:104B3800020E0101DD19D8A406D0010E0101C66FCD
:104B4800000E0101DD6F000E0101DB6F2BD0020E9C
:104B58000101DD19D8A407D0010E0101C66F000EAE
:104B68000101DD6F1FD00101DB2B010E0101DB65A7
:104B780019D0F25000D0070EFEEC5CF0000E0101D7
:104B8800C66F000E0101DD6F010E0101F66F000E08
:104B98000101016F040E006F030E0101026F4EEC5C
:104BA80059F000D02C042D10D8A407D0010E436E64
:104BB800A2C034F0A3C035F000D0080E00EC73F0AA
:104BC8000009D8B408D00101CD51D8B404D0010EE1
:104BD8000101D46F00D0080EDAEC74F00009D8B4E3
:104BE8002ED00101CD51D8A41CD0F9C10CF101017E
:104BF8000D6B5FEC64F001010C510101CE6F0101F6
:104C0800CE5100080101F9250101CD6FCEC126F171
:104C18000101276B010E0101286F080EB1EC6BF042
:104C28000ED0CDC126F10101276B010E0101286FBD
:104C3800080EB1EC6BF0000E0101CD6F00D0000141
:104C4800C6510001D8A406D002013C5102013D1111
:104C5800D8B442D10001BE51D8B43ED1010141516E
:104C68000101D8B439D13EC22DF13FC22EF1010164
:104C78002D1F2E1F2D4B2E2B040E01010C6F010E24
:104C880068EC5AF001012D5101010C250101466F14
:104C980001012E5101010D210101476F46C12DF17E
:104CA80047C12EF101012D1F2E1F2D4B2E2B2DC17B
:104CB80044F12EC145F1080E0101475DD8A00BD083
:104CC800FE0E0101465D0F0E01014759D8B003D011
:104CD8000001C62B36D0010146290F0E01014759A4
:104CE800D8A00CD0FD0E0101465D170E01014759F1
:104CF800D8B004D0020E0001C62723D0080E010147
:104D0800455DD8A00BD0FE0E0101445D0F0E0101D8
:104D18004559D8B003D00001C60713D00101442972
:104D28000F0E01014559D8A00CD0FD0E0101445DBC
:104D3800170E01014559D8B004D0020E0001C65F14
:104D480000D0040E01010C6F010E68EC5AF00CC182
:104D580046F10DC147F1A2C000F1A3C001F146C15F
:104D680002F147C103F1000E0101046F000E056F47
:104D7800010E066F000E076F36EC6EF000C137F1BA
:104D880001C138F137C117F138C118F13CC219F126
:104D98003DC21AF1000E01011B6F000E1C6F010EBF
:104DA8001D6F000E1E6FD0EC60F017C142F118C1E4
:104DB80043F142C10DF143C10EF1070E0101106F1D
:104DC8000F694FEC6FF00DC13DF10EC13EF13DC1D1
:104DD8000DF13EC10EF1040E01010F6F010E36EC0C
:104DE80048F001013D510101425F01013E510101BD
:104DF800435B42C1A2F043C1A3F042C106F143C1E3
:104E080007F1070E0101096F086981EC6CF006C112
:104E18002CF007C12DF0C3C017F10101186BC6C0F3
:104E280019F101011A6BC90E01011B6F000E1C6FED
:104E3800000E1D6F000E1E6FD0EC60F001011751BF
:104E48000001C36FC6C02FF10101306B000E0001D5
:104E5800C66F000E02013D6F000E3C6F000E02018E
:104E6800336F000E326F2C502D10D8A408D0000ECE
:104E78002D6E100E2C6E30C2A2F031C2A3F0070EB8
:104E8800356E3468020E0101DD6F040E01010C6FEE
:104E9800010E68EC5AF00001A25101010C25010134
:104EA8003F6F0001A35101010D210101406F66EC24
:104EB80077F00101316F3FC133F101014051010128
:104EC800326F000E0101016F040E006F020E010126
:104ED800026F4EEC59F023D00001C3510101DC19D7
:104EE800D8A40BD00101C651D8B407D00101415153
:104EF8000101D8A414D001D012D00101D451D8B4E2
:104F08000ED052EC77F00009D8B409D00101415114
:104F18000101D8B404D0000E0101D46F00D0020101
:104F28004C4B4D2B4ED0060EDAEC74F00009D8B479
:104F38001CD0000E01010D6F320E0C6F5FEC64F097
:104F4800540E01010C250101396F240E01010D21B8
:104F580001013A6F39C126F13AC127F1000E01016A
:104F6800286F060EB1EC6BF000D0060E00EC73F063
:104F78000009D8B40DD0000E01010E6F0101FE51D9
:104F880026EC75F0000E0201EA6F010EE96F00D001
:104F98000201EA510BE1330E0201E95DD8B006D0F7
:104FA8006DEC75F00201E94BEA2B00D0330E0201DB
:104FB800E9190201EA11D8A404D00201E94BEA2B4D
:104FC80000D00101DC510101D8A404D0C80E0101B0
:104FD800DC6F03D00101DC0700D0050E00EC73F094
:104FE8000009D8A421EC70F0090EDAEC74F000097D
:104FF800D8B44CD05AEC77F001012D6F01012D5136
:105008003E0DF3CF3BF1F4CF3CF13BC108F13CC17D
:1050180009F170EC74F008C10BF109C10CF10AC177
:105028000DF1000E01010E6F7A0E01010F6F440E93
:105038000101106FDBEC53F00BC134F10CC135F1F9
:105048000DC136F1000E01010B6F280E01010C6F26
:10505800430E01010D6F34C108F135C109F136C1A4
:105068000AF1C6EC4FF008C117F109C118F10AC1DD
:1050780019F132EC53F017C126F118C127F1010ECE
:105088000101286F090EB1EC6BF000D0090E00EC9D
:1050980073F00009D8B417D0070EFEEC5CF0000ED0
:1050A8000101C66F000E0101DD6F010E0101F66FEF
:1050B800000E0101016F040E006F050E0101026F61
:1050C8004EEC59F000D00F0E00EC73F00009D8B484
:1050D80004D0010E0101F66F00D00E0E00EC73F043
:1050E8001200000E0101176F680E0101256F030EF3
:1050F8000101266F25C1D9FF26C1DAFF010EDF6E37
:10510800000E0101186F060E0101186F010E010152
:10511800226F010E0101226501D096D00001BC5119
:10512800060DBD0EF3240101066F0A0EF4200101DD
:10513800076FE50E0101086F010E0101096F040EEA
:1051480001010A6F84EC70F00009D8A449D000016D
:10515800BC51060D050EF326000EF422BD0EF324F5
:10516800D96E0A0EF420DA6EDE28D8B439D00001E0
:10517800BC51060DBD0EF3240101006F0A0EF42088
:105188000101016F000E0101026F25C103F126C163
:1051980004F1010E0101056F040E0101066F03EC15
:1051A8006AF0010120EE05F02551D9262651DA22B0
:1051B800040E0101086F0001BC51060D050EF3260F
:1051C800000EF422BD0EF324E16E0A0EF420E26E06
:1051D800E7500DEC49F0DF6E010E0101176F03D0A7
:1051E8000101220700D03E0E0001BC6103D000017E
:1051F800BC2B27D0000E0001BC6F01011751010123
:10520800D8A422D0E50E0101006F010E0101016F43
:10521800000E0101026F25C103F126C104F1010E40
:105228000101056F040E0101066F03EC6AF001012C
:1052380020EE05F02551D9262651DA22FF0EDF6E21
:1052480003D00101222B65D7000E01011C6F000E4F
:105258000101246F000E0101196FBBC016F11AD2AB
:105268000001CD51D8B4FCD001012451010D170E15
:10527800F324D96E030EF420DA6EDF500101236F98
:105288001E0E01010C6F010E01010D6F010123516A
:10529800D6EC66F0010E010124250101006F010121
:1052A800016B000E0123000E0101036F050E026F52
:1052B8005EEC73F0010E01010027000E01010123CD
:1052C8000101005101012525D96E0101015101019A
:1052D8002621DA6E1EC1DFFF010E0101242501011E
:1052E800006F0101016B000E0123000E0101036F25
:1052F800050E026F5EEC73F0020E01010027000E2E
:10530800010101230101005101012525D96E010187
:10531800015101012621DA6E1FC1DFFF010E0101D3
:1053280024250101006F0101016B000E0123000E0D
:105338000101036F050E026F5EEC73F0030E0101AD
:105348000027000E0101012301010051010125255B
:10535800D96E0101015101012621DA6E20C1DFFF5A
:10536800010E010124250101006F0101016B000EEE
:105378000123000E0101036F050E026F5EEC73F04E
:10538800040E01010027000E010101230101005153
:1053980001012525D96E0101015101012621DA6E8D
:1053A80021C1DFFF01012351020D010EF326000E7A
:1053B800F422C90EF324D96E080EF420DA6EDF3811
:1053C800E832070B0101146F050E0101156F010189
:1053D800D89014370101152FFAD701011451010192
:1053E8001A6F01012351020D010EF326000EF4225B
:1053F800C90EF324D96E080EF420DA6EDF501F0BA5
:1054080001011A27010E010124250101006F010184
:10541800016B000E0123000E0101036F050E026FE0
:105428005EEC73F0050E01010027000E0101012357
:105438000101005101012525D96E01010151010128
:105448002621DA6E1AC1DFFF050E01011C270101B2
:10545800242B0001CD51D8B41DD10001CD071AD19C
:10546800E50E0101046F010E0101056F0001BB513A
:105478007FEC5DF00009D8A4F8D00001BB51020D03
:10548800C90EF324D96E080EF420DA6EDF503F0BF4
:105498003F0AD8B4EAD01E0E01010C6F010E0101BB
:1054A8000D6F0001BB51D6EC66F0010E01012425F9
:1054B8000101006F0101016B000E0123000E0101C3
:1054C800036F050E026F5EEC73F0010E01010027F9
:1054D800000E010101230101005101012525D96EAA
:1054E8000101015101012621DA6E1EC1DFFF010E03
:1054F800010124250101006F0101016B000E012348
:10550800000E0101036F050E026F5EEC73F0020ED0
:1055180001010027000E01010123010100510101D1
:105528002525D96E0101015101012621DA6E1FC11D
:10553800DFFF010E010124250101006F0101016B4C
:10554800000E0123000E0101036F050E026F5EECD1
:1055580073F0030E01010027000E01010123010170
:10556800005101012525D96E0101015101012621B2
:10557800DA6E20C1DFFF010E010124250101006F51
:105588000101016B000E0123000E0101036F050EDE
:10559800026F5EEC73F0040E01010027000E01019A
:1055A80001230101005101012525D96E0101015195
:1055B80001012621DA6E21C1DFFF0001BB51020D76
:1055C800010EF326000EF422C90EF324D96E080E3C
:1055D800F420DA6EDF38E832070B0101146F050E8C
:1055E8000101156F0101D89014370101152FFAD761
:1055F8000101145101011B6F0001BB51020D010E85
:10560800F326000EF422C90EF324D96E080EF420F6
:10561800DA6EDF501F0B01011B27010E0101242543
:105628000101006F0101016B000E0123000E010151
:10563800036F050E026F5EEC73F0050E0101002783
:10564800000E010101230101005101012525D96E38
:105658000101015101012621DA6E1BC1DFFF050E90
:1056680001011C270101242B00D0F90E0001BB61A8
:1056780003D00001BB2B04D0000E0001BB6F00D08B
:105688000001BB5101011619D8A404D0010E010173
:10569800196F00D0080E0101246107D001011951CA
:1056A8000101D8A402D0DCD500D0010118510101B4
:1056B8001C2501011D6F01011D51010DF350010150
:1056C8002525D96EF45001012621DA6EC8C0DFFF06
:1056D80001011D2B01011D511200120001012E5163
:1056E8000101D8B4F2D2C90E01013061EED22CC149
:1056F800D9FF2DC1DAFFDE28D8A456D00101DD512B
:10570800D8A452D00101C651D8B422D0050EDAEC83
:1057180074F00009D8B48DD2060E01010D6F0E0E7B
:105728000C6F5FEC64F01C0E01010C2501013B6F4E
:105738000C0E01010D2101013C6F3BC126F13CC15A
:1057480027F1000E0101286F050EB1EC6BF071D244
:105758000E0EDAEC74F00009D8B46BD2050EDAEC50
:1057680074F00009D8B41CD0060E01010D6F0E0E9E
:105778000C6F5FEC64F01C0E01010C2501013D6FFC
:105788000C0E01010D2101013E6F3DC126F13EC104
:1057980027F1000E0101286F050EB1EC6BF000D067
:1057A800010E0101C66F45D2020E01012E6541D2DC
:1057B800010120EE01F02C51D9262D51DA22DF50BB
:1057C8000101316F010131510101506F516B01012C
:1057D80050510101516F506B010120EE02F02C5124
:1057E800D9262D51DA22DF500101316F01013151E3
:1057F80001015027000E512350C133F151C134F13A
:10580800040E01010C6F010E68EC5AF00CC14CF14A
:105818000DC14DF1B2C117F1B3C118F14CC119F165
:105828004DC11AF1FF0E01011B6F070E1C6F000E10
:105838001D6F000E1E6FD0EC60F017C13FF118C14C
:1058480040F1A2C000F1A3C001F14CC102F14DC169
:1058580003F1000E0101046F000E056F010E066FC3
:10586800000E076F36EC6EF000C14EF101C14FF12A
:105878004EC146F14FC147F14EC100F14FC101F190
:10588800000E0101036F3D0E026F000E0101046F4F
:10589800000E056F010E066F000E076F36EC6EF0F6
:1058A80000C14CF101C14DF101012F510101D8B4E2
:1058B80015D04CC100F14DC101F1000E0101036F7B
:1058C800050E026F000E0101046F000E056F010E38
:1058D800066F000E076F36EC6EF014D04CC100F165
:1058E8004DC101F1000E0101036F000E026F000EA1
:1058F8000101046F000E056F010E066F000E076FA1
:1059080036EC6EF000C14EF101C14FF150C117F1F4
:1059180051C118F13FC119F140C11AF1000E01013E
:105928001B6F000E1C6F010E1D6F000E1E6FD0EC5A
:1059380060F017C14CF118C14DF14CC150F14DC187
:1059480051F14EC131F14FC132F10101311F321F06
:10595800314B322B010150510101312501014A6FB0
:10596800010151510101322101014B6F4AC131F14D
:105978004BC132F10101311F321F314B322BFF0E67
:10598800010131250101486FFF0E0101322101019A
:10599800496F2CC1D9FF2DC1DAFF01013051DE1842
:1059A800D8A414D0080E01014B5DD8A005D0800EF4
:1059B80001014B5DD8A00AD0080E0101495DD8A0AD
:1059C80075D0800E0101495DD8B070D00101F65143
:1059D800D8A404D00101C651D8A4D4D04EC117F11F
:1059E8004FC118F150C119F151C11AF1000E01014E
:1059F8001B6F000E1C6F010E1D6F000E1E6FD0EC8A
:105A080060F017C13CF218C13DF24EC10DF14FC113
:105A18000EF1070E0101106F0F694FEC6FF00DC109
:105A280031F10EC132F150C10DF151C10EF1070E25
:105A38000101106F0F694FEC6FF001010D1F01019B
:105A48000E1F01010D4B0E2B01010D5101013125D6
:105A580002013E6F01010E510101322102013F6F27
:105A680030C117F10101186B2CC1D9FF2DC1DAFF24
:105A7800DF500101316F010131510101196F1A6BBA
:105A8800C90E01011B6F000E1C6F000E1D6F000E6A
:105A98001E6FD0EC60F0010117510001C66F010EB6
:105AA8000101DD6F000E0101C66F6CD0010150517C
:105AB80001014E5D0101515101014F59D8B047D044
:105AC800800E01014B5DD8B042D001014E51000853
:105AD800010150250101456F010145510001A2272F
:105AE800000EA3234EC131F14FC132F10101311F24
:105AF800321F314B322B0101505101013125020176
:105B0800446F01015151010132210201456F020127
:105B180044510201465D0201455102014759D8B07E
:105B280016D04EC131F14FC132F10101311F321F80
:105B3800314B322B01015051010131250201466FD1
:105B480001015151010132210201476F00D00101C9
:105B5800C651D8B404D00101DD51D8A404D0010E37
:105B68000101C66F00D00101465102015C5D0101CF
:105B7800475102015D59D8B005D046C15CF247C112
:105B88005DF200D05AEC77F00101316F010131511B
:105B98003E0DF3CF41F1F4CF42F141C108F142C1CA
:105BA80009F170EC74F008C10BF109C10CF10AC1DC
:105BB8000DF1000E01010E6F7A0E01010F6F440EF8
:105BC8000101106FDBEC53F00BC135F10CC136F15C
:105BD8000DC137F1000E01010B6F280E01010C6F8A
:105BE800430E01010D6F35C108F136C109F137C106
:105BF8000AF1C6EC4FF008C117F109C118F10AC142
:105C080019F132EC53F017C126F118C127F1010E32
:105C18000101286F090EB1EC6BF0000E02014D6F07
:105C2800000E4C6F030E01012E6503D0010E120009
:105C380000D05AEC77F00101316F010131513E0D6E
:105C4800F3CF43F1F4CF44F143C108F144C109F162
:105C580070EC74F008C10BF109C10CF10AC10DF127
:105C6800000E01010E6F7A0E01010F6F440E010143
:105C7800106FDBEC53F00BC138F10CC139F10DC1D9
:105C88003AF1000E01010B6F280E01010C6F430E53
:105C980001010D6F38C108F139C109F13AC10AF1A2
:105CA800C6EC4FF008C117F109C118F10AC119F182
:105CB80032EC53F017C126F118C127F1010E01018A
:105CC800286F090EB1EC6BF000D0000E1200120024
:105CD800000E01015F6F000E0001C76F000E010189
:105CE800006F000EBCEC72F0000E4D6E000E466E9A
:105CF800200E05EC57F0000E0001CB6F000E0101DD
:105D0800B76F0101F75160EC76F0020E41EC73F0C9
:105D1800600E05EC57F0000E01010E6F000E26EC28
:105D280075F0190E0101276F640E266F000E010130
:105D3800286F110EB1EC6BF0000E0101276F780E81
:105D4800266F010E0101286F120EB1EC6BF0010EE7
:105D58000001BD6F04000101B851D8B409D0000E8C
:105D68000101B86F3E0EFFEC35F00101CA2B00D0DF
:105D78000101BA51D8B409D0000E0101BA6F200E42
:105D880005EC57F0600E05EC57F00101BB51D8B493
:105D980007D0600E05EC57F0000E0101BB6F00D074
:105DA8000101B951D8A404D00101B751D8B4ACD17C
:105DB800000E0101676F000E01016A6F000E696F26
:105DC800000E0101CA6F0101B951D8B455D0000EB7
:105DD8000101B96F90EC76F00101F06F90EC76F06C
:105DE800000E0101656F1DD001016551010D1F0EE7
:105DF800F324D96E030EF420DA6E90EC76F0DF6EA1
:105E080001016551010D1F0EF324D96E030EF42014
:105E1800DA6EDF50010167190101676F0101652B17
:105E280000D0FF0E0101546FFF0E0101556F0101F3
:105E3800F0510101566F576B01015451010156276A
:105E48000101555101015723010165510101586FA5
:105E5800596B010156510101585D01015951800AE0
:105E680001015A6F01015751800A01015A59D8A0FE
:105E7800BBD7000E0001CB6F0101B751D8B41DD0BC
:105E8800000E0101666F3A0E0101666501D011D05E
:105E980001016651010D1F0EF324D96E030EF42083
:105EA800DA6EDF50010167190101676F0101662B86
:105EB800EAD7000E0101B76F00D020C369F10101D4
:105EC8006A6B0101695101016A6F696B03011F5116
:105ED80001016927000E6A230101DA510101D8B4D2
:105EE8001CD0D00E0101546FCA0EE82EFED7542FD5
:105EF800FCD7D00E0101546FCA0EE82EFED7542FDE
:105F0800FCD7090E01016A5DD8B0DCD069C114F173
:105F18006AC115F1E2EC6EF0D5D0010E01015F6F98
:105F2800010167510101D8A4CDD001D0CBD0010126
:105F3800AE510101691905E10101AF5101016A1969
:105F4800D8A4C0D00101AE510101AF11D8A42BD003
:105F5800000E0101616F000E626F000E636F000E8C
:105F6800646F010164511FE1100E0101625D020EB0
:105F780001016359D8B017D001D015D061C105F11E
:105F880062C106F163C107F164C108F15AEC74F00B
:105F9800000E01016127100E6223000E6323000E1C
:105FA8006423DFD700D0000E0101686F370E0101AE
:105FB800686501D044D0AEC100F1AFC101F1000E57
:105FC8000101036F380E026F5EEC73F0010100519E
:105FD8000101682501015B6F0101015101015C6F3D
:105FE800000E01015C2301015D6B01015D230101CC
:105FF8005E6B5BC105F15CC106F15DC107F15EC175
:1060080008F101016851010D020EF326000EF42279
:106018001F0EF3240101096F030EF42001010A6F1A
:10602800040E01010B6F000E0C6F000E0D6F000EB9
:106038000E6F4DEC6AF0040E01016827B7D7010115
:10604800AE4BAF2B0101B0510101AE193BE101018B
:10605800B1510101AF19D8A435D0000E0101056F67
:10606800000E066F020E076F000E086FF10E010199
:10607800096F010E01010A6F010E01010B6F000E7D
:106088000C6F000E0D6F000E0E6F4DEC6AF0010ED6
:106098000101056F000E066F020E076F000E086FF4
:1060A800CD0E0101096F030E01010A6F0B0E0101EC
:1060B8000B6F000E0C6F000E0D6F000E0E6F4DEC87
:1060C8006AF000D0030E0101276FE80E266F000E5C
:1060D8000101286F110EB1EC6BF00101DA510101D9
:1060E800D8B412D00101695101016A11D8A40CD0A9
:1060F800270E0101276F100E266F000E0101286F71
:10610800110EB1EC6BF000D00101DA510101D8A4F5
:1061180024D0020E0101CA6506D0010E01015F6F8D
:10612800000E0101CA6F01015F510101D8B415D0F9
:106138000101B0510101AE5D0101B1510101AF5939
:10614800D8B007D0AEC10AF1AFC10BF102EC75F0BF
:1061580000D0000E01015F6F00D0000E0101016F39
:10616800010E006FF20E0101026F010E0101036FB3
:1061780032EC51F00009D8B438D0270E01010C6F69
:10618800040E01010D6FEF0E01010E6F010E0101EA
:106198000F6F0101F251A0EC3EF00009D8B425D0F0
:1061A80004012851C00B0101606F01016045E846F8
:1061B800030B0101606F030E01016019D8A415D00B
:1061C800290E0101066F040E0101076F1F0E010160
:1061D800086F030E0101096F3B0E01010A6F7AEC8B
:1061E80071F0010E0101B76F00D0020E00EC73F0E0
:1061F8000009D8B405D0937693B602D08A9600D019
:10620800110E00EC73F00009D8B402D0FF0000D0E2
:10621800020EDAEC74F00009D8B40BD0000E0101BC
:10622800276FFA0E266F000E0101286F020EB1ECDF
:106238006BF0110EDAEC74F00009D8B40BD0030E31
:106248000101276FE80E266F000E0101286F110E5D
:10625800B1EC6BF0120E00EC73F00009D8B47AD5EB
:10626800FF0078D51200140E0101266F010E0101FE
:10627800276F4CD2250E01012D19D8B405D0010184
:106288002D51C2EC75F042D2000E01012C6F000EA8
:106298002B6F000E01012A6F07D001012A85010129
:1062A800124B132B01D00BD012C1F6FF13C1F7FF0D
:1062B8000800F550300AD8B4F0D701D0F5D712C18C
:1062C800F6FF13C1F7FF0800F55015EC74F0D8A0DD
:1062D800A5D0000E01012C6F000E2B6F00D02BC132
:1062E80000F12CC101F1000E0101036F0A0E026FCB
:1062F8005EEC73F000C12BF101C12CF1D00E01014D
:106308001C6FFF0E01011D6F12C1F6FF13C1F7FFCD
:106318000800F55001011E6F1F6B01011C5101019E
:106328001E2701011D5101011F2301011E510101F9
:106338002B2701011F5101012C230101124B132BA3
:1063480012C1F6FF13C1F7FF0800F55015EC74F001
:10635800D8A064D0C4D762D012007FD000D0010189
:106368002A8F7BD001012B510101235D01012C51A2
:1063780001012459D8B009D00101235101012B5F33
:106388000101245101012C5B0AD0000E01012C6F80
:10639800000E2B6F04D0200EC2EC75F000D0010166
:1063A8002B07D8A02C0701012B29F5E101012C2985
:1063B800D8B40DD0F0D70BD021C1D9FF22C1DAFF54
:1063C800DF50C2EC75F00101214B222B00D00101F6
:1063D8002307D8A0240701012329EEE1010124297C
:1063E800D8B494D1E9D792D126C1D9FF27C1DAFF11
:1063F800DF5001012D6F020E01012627000E272311
:1064080000D02D0E0101216F010E0101226F000E37
:106418000101246F010E236FA5D71FD012C1F6FF0B
:1064280013C1F7FF0101124B132B0800F5CF2DF113
:1064380001012D51000AD8B41200580AD8B48FD7D8
:106448003B0AD8B4D1D7070AD8B407D00D0AD8B4B4
:1064580004D0110AD8B483D7D4D701012ABF19D0E0
:1064680026C1D9FF27C1DAFFDECF28F1DDCF29F118
:10647800020E01012627000E2723010129AF5DD056
:10648800030E01012A130101286D291FD8B0292BF9
:1064980054D026C1D9FF27C1DAFFDECF28F1DDCFDE
:1064A80029F1020E01012627000E272346D0010EEE
:1064B80001012D6F050E01012D19D8B448D001D066
:1064C80046D001012D51020D6B0EF324F66EFE0E1F
:1064D800F420F76E0900F5500101285D0900F55018
:1064E80001012959D8A033D001D031D001012D2B79
:1064F800E1D72DD0010E01012D6F040E01012D19D8
:10650800D8B425D001D023D001012D51020D750E2C
:10651800F324F66EFE0EF420F76E0900F550010123
:10652800285D0900F55001012959D8A010D001D0E3
:106538000ED001012D2BE1D70AD001012A51800B81
:10654800000AD8B4B4D7800AD8B4D4D700D001018F
:106558002B5101012C11D8B40CD02AC11CF1030E07
:1065680001011C17D8B405D001012B07D8A02C07AE
:1065780000D0800E01012DBF7F0E01011C6F0101AB
:106588002B5101012D5D01012C51800A01011C597B
:10659800D8B00BD001012D5101012B5F000E010174
:1065A8002DBFFF0E01012C5B06D0000E01012C6FE0
:1065B800000E2B6F00D001012AA520D02AC11CF1A2
:1065C800030E01011C17D8B404D02D0EC2EC75F0CF
:1065D80000D001012B5101012C11D8B42FD0300E5D
:1065E800C2EC75F001012B07D8A02C0701012B5133
:1065F80001012C11D8B422D0F2D720D001012B519F
:1066080001012C11D8B40FD0200EC2EC75F0010195
:106618002B07D8A02C0701012B5101012C11D8B44C
:1066280002D0F2D700D02AC11CF1030E01011C17B9
:10663800D8B404D02D0EC2EC75F000D02DC125F1D0
:106648005DD04DD001012551020D6B0EF324F66E7D
:10665800FE0EF420F76E0900F5CF08F10A00F5CF19
:1066680009F128C106F129C107F181EC6CF006C1D6
:106678000DF107C10EF1000E0101106F0A0E0F6F28
:106688004FEC6FF001010D51300F01012D6F31D02A
:1066980028C106F129C107F101012551020D750E26
:1066A800F324F66EFE0EF420F76E0900F5CF08F11C
:1066B8000A00F5CF09F181EC6CF0010106510F0BCE
:1066C8000101206F01012051010D690EF324F66EBE
:1066D800FF0EF420F76E0800F5CF2DF10AD0010166
:1066E8002A51800B000AD8B4ADD7800AD8B4D0D7C5
:1066F80000D001012D51C2EC75F000D00101250731
:1067080001012529D8B402D0EAD700D012C1F6FF7A
:1067180013C1F7FF0101124B132B0800F5CF2DF120
:1067280001012D51D8B41200A5D5120012006E0E29
:106738000001786F000E0001796F4CD2250E000120
:106748007F19D8B405D000017F51E2EC75F042D230
:10675800000E00017E6F000E7D6F000E00017C6F41
:1067680007D000017C8500016C4B6D2B01D00BD04C
:106778006CC0F6FF6DC0F7FF0800F550300AD8B4BA
:10678800F0D701D0F5D76CC0F6FF6DC0F7FF080051
:10679800F55043EC74F0D8A0A5D0000E00017E6F30
:1067A800000E7D6F00D07DC060F07EC061F0000EED
:1067B8000001636F0A0E626F7AEC73F060C07DF0BF
:1067C80061C07EF0D00E00016E6FFF0E00016F6F8A
:1067D8006CC0F6FF6DC0F7FF0800F5500001706F40
:1067E800716B00016E510001702700016F510001AB
:1067F80071230001705100017D27000171510001D2
:106808007E2300016C4B6D2B6CC0F6FF6DC0F7FF4B
:106818000800F55043EC74F0D8A064D0C4D762D017
:1068280012007FD000D000017C8F7BD000017D5109
:106838000001755D00017E5100017659D8B009D07C
:106848000001755100017D5F0001765100017E5BFA
:106858000AD0000E00017E6F000E7D6F04D0200E5E
:10686800E2EC75F000D000017D07D8A07E0700019A
:106878007D29F5E100017E29D8B40DD0F0D70BD0E1
:1068880073C0D9FF74C0DAFFDF50E2EC75F0000185
:10689800734B742B00D000017507D8A07607000150
:1068A8007529EEE100017629D8B494D1E9D792D1BF
:1068B80078C0D9FF79C0DAFFDF5000017F6F020E80
:1068C80000017827000E792300D07F0E0001736F36
:1068D800000E0001746F000E0001766F010E756FD7
:1068E800A5D71FD06CC0F6FF6DC0F7FF00016C4B39
:1068F8006D2B0800F5CF7FF000017F51000AD8B456
:106908001200580AD8B48FD73B0AD8B4D1D7070A8F
:10691800D8B407D00D0AD8B404D0110AD8B483D794
:10692800D4D700017CBF19D078C0D9FF79C0DAFF6D
:10693800DECF7AF0DDCF7BF0020E00017827000E63
:10694800792300017BAF5DD0030E00017C130001A9
:106958007A6D7B1FD8B07B2B54D078C0D9FF79C013
:10696800DAFFDECF7AF0DDCF7BF0020E0001782768
:10697800000E792346D0010E00017F6F050E00013D
:106988007F19D8B448D001D046D000017F51020DFC
:106998006B0EF324F66EFE0EF420F76E0900F55028
:1069A80000017A5D0900F55000017B59D8A033D069
:1069B80001D031D000017F2BE1D72DD0010E00018D
:1069C8007F6F040E00017F19D8B425D001D023D0E1
:1069D80000017F51020D750EF324F66EFE0EF420B1
:1069E800F76E0900F55000017A5D0900F5500001C5
:1069F8007B59D8A010D001D00ED000017F2BE1D751
:106A08000AD000017C51800B000AD8B4B4D7800AA0
:106A1800D8B4D4D700D000017D5100017E11D8B47C
:106A28000CD07CC06EF0030E00016E17D8B405D0F0
:106A380000017D07D8A07E0700D0800E00017FBF2F
:106A48007F0E00016E6F00017D5100017F5D000126
:106A58007E51800A00016E59D8B00BD000017F51D9
:106A680000017D5F000E00017FBFFF0E00017E5B0D
:106A780006D0000E00017E6F000E7D6F00D0000171
:106A88007CA520D07CC06EF0030E00016E17D8B430
:106A980004D02D0EE2EC75F000D000017D5100010C
:106AA8007E11D8B42FD0300EE2EC75F000017D07CE
:106AB800D8A07E0700017D5100017E11D8B422D0F4
:106AC800F2D720D000017D5100017E11D8B40FD03B
:106AD800200EE2EC75F000017D07D8A07E070001CA
:106AE8007D5100017E11D8B402D0F2D700D07CC00D
:106AF8006EF0030E00016E17D8B404D02D0EE2EC30
:106B080075F000D07FC077F05DD04DD0000177518F
:106B1800020D6B0EF324F66EFE0EF420F76E0900DC
:106B2800F5CF62F00A00F5CF63F07AC060F07BC061
:106B380061F0C2EC6CF060C067F061C068F0000EF4
:106B480000016A6F0A0E696F85EC6FF000016751EA
:106B5800300F00017F6F31D07AC060F07BC061F0E8
:106B680000017751020D750EF324F66EFE0EF42027
:106B7800F76E0900F5CF62F00A00F5CF63F0C2ECBA
:106B88006CF0000160510F0B0001726F000172512F
:106B9800010D690EF324F66EFF0EF420F76E08005F
:106BA800F5CF7FF00AD000017C51800B000AD8B4E1
:106BB800ADD7800AD8B4D0D700D000017F51E2EC1D
:106BC80075F000D00001770700017729D8B402D00A
:106BD800EAD700D06CC0F6FF6DC0F7FF00016C4B20
:106BE8006D2B0800F5CF7FF000017F51D8B412005B
:106BF800A5D5120012000101046F01010451020120
:106C08004A2502014A6F000E02014B2102014B6F17
:106C1800000E0101056F160E0101056501D072D045
:106C280001010551010D000EF324D96E030EF42065
:106C3800DA6EDF50D8A463D001010551020D000EB1
:106C4800F324D96E020EF420DA6E01010451010119
:106C5800026F036B010E01010227000E0323DE50B1
:106C68000101025DDE5001010359D8B02DD00101A8
:106C78000551020D000EF324D96E020EF420DA6ECF
:106C8800DECF00F1DDCF01F1010104510101026FF6
:106C9800036B0101021F031F024B032B010100516B
:106CA80001010227010101510101032301010551DD
:106CB800020D000EF324D96E020EF420DA6E02C122
:106CC800DEFF03C1DDFF1BD001010551020D000EDF
:106CD800F324D96E020EF420DA6EDE50DE10D8B43A
:106CE8000ED001010551020D000EF324D96E020EDB
:106CF800F420DA6E010EDE6E000EDD6E00D00101AA
:106D0800052B89D7E80E02014A5D030E02014B5993
:106D1800D8A01200180E02014A2502014A6FFC0E83
:106D280002014B2102014B6F492A000E0101066F37
:106D3800160E0101066501D063D001010651010D4F
:106D4800000EF324D96E030EF420DA6EDE04D8A404
:106D580054D001010651020D000EF324D96E020E23
:106D6800F420DA6E010EDB5004E1020EDE5CD8A0DE
:106D780029D0FF0E0101006FFF0E0101016F010113
:106D88000651020D000EF324D96E020EF420DA6EBD
:106D9800DECF02F1DDCF03F101010051010102272D
:106DA800010101510101032301010651020D000EE9
:106DB800F324D96E020EF420DA6E02C1DEFF03C19D
:106DC800DDFF1BD001010651020D000EF324D96E20
:106DD800020EF420DA6EDE50DE10D8B40ED00101B7
:106DE8000651020D000EF324D96E020EF420DA6E5D
:106DF800010EDE6E000EDD6E00D00101062B98D765
:106E08003B0E496412004950C40F496E452A000ED2
:106E18000101076F160E0101076501D064D0010159
:106E28000751010D000EF324D96E030EF420DA6E1B
:106E3800020EDE18D8A454D001010751020D000E2D
:106E4800F324D96E020EF420DA6E010EDB5004E151
:106E5800020EDE5CD8A029D0FF0E0101006FFF0EE4
:106E68000101016F01010751020D000EF324D96ED3
:106E7800020EF420DA6EDECF02F1DDCF03F101015C
:106E88000051010102270101015101010323010100
:106E98000751020D000EF324D96E020EF420DA6EAB
:106EA80002C1DEFF03C1DDFF1BD001010751020D46
:106EB800000EF324D96E020EF420DA6EDE50DE10D6
:106EC800D8B40ED001010751020D000EF324D96E7B
:106ED800020EF420DA6E010EDE6E000EDD6E00D0BA
:106EE8000101072B97D73B0E456412004550C40F8C
:106EF800456E000E0101086F160E0101086502D0EB
:106F08001200120001010851010D000EF324D96E80
:106F1800030EF420DA6E030EDE18D8A454D0010153
:106F28000851020D000EF324D96E020EF420DA6E19
:106F3800010EDB5004E1020EDE5CD8A029D0FF0E62
:106F48000101006FFF0E0101016F01010851020DDF
:106F5800000EF324D96E020EF420DA6EDECF02F1B1
:106F6800DDCF03F1010100510101022701010151A7
:106F78000101032301010851020D000EF324D96E0B
:106F8800020EF420DA6E02C1DEFF03C1DDFF1BD062
:106F980001010851020D000EF324D96E020EF420EF
:106FA800DA6EDE50DE10D8B40ED001010851020DA1
:106FB800000EF324D96E020EF420DA6E010EDE6E96
:106FC800000EDD6E00D00101082B160E01010865C8
:106FD80099D7120012001200030E0101016F006917
:106FE8002BEC76F00101156F01011505D8A440D0EE
:106FF800000E01011A6F000E196F01011ABF0AD0A5
:10700800F00E0101195D030E01011A59D8B011D013
:1070180001D00FD06AEC77F019C100F11AC101F163
:10702800FF0E0101026FEAEC71F00101194B1A2BF6
:10703800E4D7030E01011A6FF40E196F01011ABF8C
:1070480007D0040E01011A5DD8B012D001D010D0BB
:107058006AEC77F019C100F11AC101F1FF0E0101C4
:10706800026FEAEC71F00101194B1A2BE7D700D037
:10707800010E0101156504D001011529D8A40CD011
:107088006AEC77F0030E0101016F0069020E01013D
:10709800026FEAEC71F000D0000E0101166F030ECA
:1070A8000101166501D018D001011651010DD70E46
:1070B800F324D96E000EF420DA6EE80E01011625CD
:1070C8000101006F0101016B030E01232BEC76F027
:1070D800DF6E0101162BE3D70001D729D8A419D0F8
:1070E8000001D829D8A415D00001D929D8A411D0D5
:1070F8000001DA29D8A40DD0000E0001D76F000EC8
:107108000001D86F000E0001D96F020E0001DA6F7E
:1071180000D0030E0101016FEF0E006F2BEC76F02B
:107128000101146F01011429D8A404D0080E01012B
:10713800146F00D00101145123EC77F00201F329F8
:10714800D8A451D00201F429D8A44DD00201F529C0
:10715800D8A449D00201F629D8A445D0899E4B0E5F
:1071680038EC75F0000E38EC75F0000E38EC75F060
:10717800000E38EC75F0000E38EC75F0000E0101C9
:10718800176F2BD02ED046EC76F00101005101018B
:10719800136F030E010117651ED0FC0E0101076F66
:1071A800FF0E0101086F010117510101096F0A6BF8
:1071B80001010751010109270101085101010A23B1
:1071C800F30E01010925D96E020E01010A21DA6EBA
:1071D80013C1DFFF00D00101172B070E010117654E
:1071E800D2D7898E00D0000E0101186F070E010159
:1071F800186501D018D001011851010D0B0EF324A8
:10720800D96E010EF420DA6EF40E01011825010181
:10721800006F0101016B030E01232BEC76F0DF6E8A
:107228000101182BE3D70B0E0101006F010E0101BC
:10723800016FB6EC69F0030E0101016FFC0E006FDF
:107248002BEC76F0FF0AD8A404D0000E60EC76F0A0
:1072580009D0030E0101016FFC0E006F2BEC76F0D4
:1072680060EC76F0030E0101016FFD0E006F2BEC50
:1072780076F0FF0AD8B40BD001D009D0030E010173
:10728800016FFD0E006F2BEC76F07EEC75F0030EAF
:107298000101016FFE0E006F2BEC76F0FF0AD8A4F7
:1072A80003D00001C8691200030E0101016FFE0E30
:1072B800006F2BEC76F00001C86F1200120001017C
:1072C80020EE01F02F51D9263051DA222FC1E1FFEB
:1072D80030C1E2FFDE50E618D8A41200010120EE0A
:1072E80002F02F51D9263051DA22010110EE01F0B7
:1072F8002F51E1263051E222DE50E618D8A41200C0
:10730800010120EE02F02F51D9263051DA22DE2871
:10731800D8B412002FC1D9FF30C1DAFFDF50010104
:10732800336F010133A14CD0010120EE04F02F513D
:10733800D9263051DA22010110EE03F02F51E1264F
:107348003051E222DE50E618D8A43AD0010120EEEE
:1073580005F02F51D9263051DA22010110EE04F040
:107368002F51E1263051E222DE50E618D8A428D069
:10737800010120EE05F02F51D9263051DA22DE28FE
:10738800D8B41ED06AEC77F0030E0101016FFD0E30
:10739800006F010120EE03F02F51D9263051DA2277
:1073A800DF500101026FEAEC71F0010120EE03F0F9
:1073B8002F51D9263051DA22DF507EEC75F000D0FB
:1073C800010133A342D0010120EE07F02F51D92645
:1073D8003051DA22010110EE06F02F51E12630512A
:1073E800E222DE50E618D8A430D0010120EE08F0E1
:1073F8002F51D9263051DA22010110EE07F02F5112
:10740800E1263051E222DE50E618D8A41ED06AECFC
:1074180077F0030E0101016FFE0E006F010120EEEF
:1074280006F02F51D9263051DA22DF500101026FC0
:10743800EAEC71F0010120EE06F02F51D926305107
:10744800DA22DF5054EC71F000D0010133A54CD0A2
:10745800010120EE0AF02F51D9263051DA2201011C
:1074680010EE09F02F51E1263051E222DE50E618E5
:10747800D8A43AD0010120EE0BF02F51D926305173
:10748800DA22010110EE0AF02F51E1263051E222F2
:10749800DE50E618D8A428D0010120EE0BF02F51B9
:1074A800D9263051DA22DE28D8B41ED06AEC77F01B
:1074B800030E0101016FFC0E006F010120EE09F0BF
:1074C8002F51D9263051DA22DF500101026FEAEC40
:1074D80071F0010120EE09F02F51D9263051DA223E
:1074E800DF5060EC76F000D0010133A712000101F3
:1074F80020EE0DF02F51D9263051DA22010110EE7D
:107508000CF02F51E1263051E222DE50E618D8A4C3
:107518001200010120EE0EF02F51D9263051DA2247
:10752800010110EE0DF02F51E1263051E222DE501C
:10753800E618D8A41200010120EE0EF02F51D9262A
:107548003051DA22DE28D8B412006AEC77F0030E44
:107558000101016FEF0E006F010120EE0CF02F51B9
:10756800D9263051DA22DF500101026FEAEC71F0BE
:10757800010120EE0CF02F51D9263051DA22DF50CC
:1075880023EC77F012001200400E0101286F000E64
:107598000101296F3E0E0101296501D0D7D00101F3
:1075A8002951060DBD0EF3240101066F0A0EF420C1
:1075B8000101076F21C108F122C109F1040E01017F
:1075C8000A6F84EC70F00009D8B4A0D001012951E9
:1075D800060D040EF326000EF422BD0EF324D96E18
:1075E8000A0EF420DA6EDF500F0B0F0AD8A440D031
:1075F800010124510101D8B43BD0472A0101295186
:10760800060D040EF326000EF422BD0EF324D96EE7
:107618000A0EF420DA6EDF90DF92DF94DF9623C142
:1076280000F10101295110EC62F0020E0101241948
:10763800D8B41AD0030E0101086F010123510DECD3
:1076480049F00101266F21C115F122C116F129C1A6
:1076580017F1010E0101186F26C119F1000E010181
:107668001A6FBBEC1DF000D00101295112006BD03C
:1076780001012951060D040EF326000EF422BD0E59
:10768800F324D96E0A0EF420DA6EDF500F0B0F0ABE
:10769800D8B439D001012951060D040EF326000E85
:1076A800F422BD0EF324D96E0A0EF420DA6EDF90B0
:1076B800DF92DF94DF9623C100F10101295110EC1C
:1076C80062F0020E01012419D8B4CED7030E0101CD
:1076D800086F010123510DEC49F00101266F21C10A
:1076E80015F122C116F129C117F1010E0101186F18
:1076F80026C119F1000E01011A6FBBEC1DF0B4D7B9
:10770800B3D7120020D0FF0E12001DD0010129515D
:10771800060DBD0EF3240101066F0A0EF4200101C7
:10772800076FE50E0101086F010E0101096F040ED4
:1077380001010A6F84EC70F00009D8B404D029C1A3
:1077480028F104D000D00101292B24D73E0E0101D5
:10775800286521D0000E0101276F3E0E0101276523
:1077680001D019D001012751060D040EF326000E91
:10777800F422BD0EF324D96E0A0EF420DA6EDF501F
:107788000F0B0F0AD8A403D027C128F104D0010198
:10779800272BE3D700D03F0E0101286154D0010107
:1077A80024510101D8B44FD021C106F122C107F1FB
:1077B80001012851060DBD0EF3240101086F0A0EC0
:1077C800F4200101096F040E01010A6F7AEC71F0CF
:1077D80001012851060D040EF326000EF422BD0EF9
:1077E800F324D96E0A0EF420DA6EDF90DF92DF946C
:1077F800DF9623C100F10101285110EC62F0472AFD
:10780800020E01012419D8B41AD0030E0101086F21
:10781800010123510DEC49F00101266F21C115F139
:1078280022C116F128C117F1010E0101186F26C1F6
:1078380019F1000E01011A6FBBEC1DF000D0010117
:107848002851120000D0FF0E1200120000D10101D1
:107858008705D8A408D1570E0101126FFF0E010148
:10786800136F37EC31F0020E010181250101186F09
:10787800000E010182210101196F000E01011A6F2A
:10788800D0EC3FF0040EDAEC74F00009D8A411D063
:10789800040E00EC73F00009D8A40BD0000E01010F
:1078A800276F010E266F000E0101286F040EB1EC40
:1078B8006BF0000EDAEC74F00009D8B40CD0130E9B
:1078C8000101276F880E266F000E0101286F000E38
:1078D800B1EC6BF000D0010E0001B16FC4D0420EC4
:1078E80001018719D8A414D0010120EE02F08151BA
:1078F800D9268251DA22DF503DEC6CF084C118F1B0
:1079080085C119F1000E01011A6FD0EC3FF000D0CB
:10791800430E01018719D8A4A6D0010120EE02F078
:107928008151D9268251DA22DF500101E16F01012C
:1079380020EE03F08151D9268251DA22DF5001016D
:10794800E06F010120EE04F08151D9268251DA223C
:10795800DF500101896F0101E25101018919F00B22
:1079680089190101E26F010120EE05F08151D92644
:107978008251DA22DF500101896F0101893B01013F
:10798800E251010189190F0B89190101E26F010107
:1079980020EE06F08151D9268251DA22DF5001010A
:1079A800E36F010120EE07F08151D9268251DA22D6
:1079B800DF500101E46F6AEC77F0030E0101016FFB
:1079C800EE0E006FE0C102F1EAEC71F06AEC77F0BC
:1079D800030E0101016FF10E006FE1C102F1EAEC43
:1079E80071F06AEC77F0030E0101016FF20E006F7F
:1079F800E2C102F1EAEC71F06AEC77F0030E0101E2
:107A0800016FED0E006FE3C102F1EAEC71F06AEC70
:107A180077F0030E0101016FF30E006FE4C102F16C
:107A2800EAEC71F084C118F185C119F1000E010169
:107A38001A6FD0EC3FF017D0890E0101126FFF0EBC
:107A48000101136F37EC31F0010E12000CD0010167
:107A58008651010AD8B4F0D71F0AD8B4F8D6010A5B
:107A6800D8B43DD700D084C1D9FF85C1DAFFDF5033
:107A7800D8A42AD0010120EE01F08451D9268551DD
:107A8800DA22DF50D8A420D0010120EE02F0845180
:107A9800D9268551DA22DF50D8A416D0010120EE6C
:107AA80003F08451D9268551DA22100EDF600CD0FC
:107AB800010E0101276F2C0E266F010E0101286FA0
:107AC800130EB1EC6BF000D0000E12001200000E85
:107AD8000101126F000E116F010112BF0AD00101DE
:107AE800125106E13F0E0101115DD8B082D001D0DC
:107AF80080D0E50E0101066F010E0101076F11C16B
:107B080000F112C101F1000E0101036F060E026FB0
:107B18005EEC73F0BD0E010100250101086F0A0E2D
:107B2800010101210101096F040E01010A6F7AECBC
:107B380071F011C100F112C101F1000E0101036FD2
:107B4800060E026F5EEC73F0040E01010027000EB2
:107B580001010123BD0E01010025D96E0A0E0101A4
:107B68000121DA6EDF80DF82DF84DF8611C100F158
:107B780012C101F1000E0101036F060E026F5EECE7
:107B880073F0040E01010027000E01010123BD0E50
:107B980001010025D96E0A0E01010121DA6EDF8884
:107BA800DF8ADF8CDF8E11C100F112C101F1000EF6
:107BB8000101036F060E026F5EEC73F0050E010102
:107BC8000027000E01010123BD0E01010025D96E19
:107BD8000A0E01010121DA6EFF0EDF6E0101114B61
:107BE800122B010112BF85D70101125102E17AD788
:107BF80000D0000E0201756F000E0101126F000E19
:107C0800116F010112BF0AD00101125166E1FA0E8B
:107C18000101115DD8B061D001D05FD011C10FF161
:107C280012C110F1D89001010F371037010E010170
:107C38000F27000E1023C90E01010F25D96E080E5B
:107C480001011021DA6EDF80DF82DF84DF86DF88C2
:107C5800E50E0101076F010E0101086F01011151C5
:107C680024EC6BF011C10FF112C110F1D890010191
:107C78000F371037010E01010F27000E1023C90E10
:107C880001010F25D96E080E01011021DA6EDF8A75
:107C9800DF8CDF8ED89001011135D96E01011235C4
:107CA800DA6EC90ED926080EDA22DF80DF82DF8479
:107CB800DF86DF88DF8AD89001011135D96E01018E
:107CC8001235DA6EC90ED926080EDA223F0EDF16F3
:107CD8000101114B122B95D700D0E50E0101066F5B
:107CE800010E0101076FF70E0101086F020E010175
:107CF800096F040E01010A6F7AEC71F00201EE6956
:107D0800000E02017E6F030E02017F6F000E02015A
:107D1800A66F000E0201A86F020E0201A96F000EE5
:107D28000201AA6F010E0101F56F000E0101DF6F5C
:107D3800000E0101D26F12000101166F0201ED5110
:107D48000201D8B42CD0240E01011619D8A423D0CE
:107D58000201712B020E02017119D8A41AD1000E6A
:107D68000201ED6F010E0201666F000E0201656FE0
:107D7800000E0201676F000E0201686F010E01011B
:107D8800C96F000E0001BF6F000E0201716F000E77
:107D980002016F6FFED0000E0201716FFAD001016F
:107DA800C9510101D8B4DFD0020166510201D8B42B
:107DB80007D016C1CAF0000E0201666F010E06D088
:107DC800020165510201D8B404D0000E0201656FAA
:107DD8005DD00001BF510101106F116BFE0E010152
:107DE800126FFF0E0101136F0001CA510101146FD8
:107DF800156B0101125101011427010113510101F1
:107E0800152301011051010114190FE1010111514C
:107E180001011519D8A409D00D0E01011619D8A40D
:107E280035D0010E0201676F31D00001BF51010149
:107E3800106F116BFF0E0101126FFF0E0101136F1E
:107E48000001CA510101146F156B010112510101A2
:107E580014270101135101011523010110510101DA
:107E680014190FE10101115101011519D8A409D004
:107E78000A0E01011619D8A409D0010E0201686F73
:107E880005D00101165102016F1B00D00001BF513E
:107E9800010D800EF324D96E050EF420DA6E16C19A
:107EA800DFFF0001BF2B0001BF510001CA19D8A490
:107EB8003DD0000E0101C96F0EC1D9FF0FC1DAFF15
:107EC800BFC0DFFF800E0101066F050E0101076FBD
:107ED8000CC108F10DC109F1BFC00AF17AEC71F0CB
:107EE800010E0201ED6F000E0201716F02016F5168
:107EF8000201D8B405D0000E02016F6F000E120007
:107F0800020167510201D8B40BD002016851020185
:107F1800D8B406D0000E02016F6F010E120039D0DE
:107F2800000E02016F6F1CD0120033D03E0E00010C
:107F3800BF652FD0010E0201ED6F000E0201716FB7
:107F4800000E0001BF6F000E0201666F000E0201F5
:107F5800656F000E0201676F000E0201686FE0D7BF
:107F6800000E120016D0010E0201ED6F000E020184
:107F7800716F000E02016F6F000E0201666F000E36
:107F88000201676F000E0201686F000E0201656F43
:107F980000D0000E12001200000E01017E6FAAC070
:107FA8007FF1ABC080F1010E0101566F18C10BF1D2
:107FB80019C10CF1580E01010D6F010E01010E6F70
:107FC800C8EC42F00101576FC8C05CF17FC15DF198
:107FD80080C15EF1580E0101066F010E0101076FA5
:107FE8007C0E0101086F010E0101096F7D0E010170
:107FF8000A6F010E01010B6FC3EC43F07CC15FF106
:108008007DC160F118C10BF119C10CF126EC66F0C5
:108018000101616F62EC77F00101626F66EC77F045
:108028000101636FD2C01BF101011B3BF00E1B174E
:1080380037EC77F001011B250001D0250101646FA1
:10804800C4C165F148C266F149C267F146C268F128
:1080580047C269F15EEC77F001016A6FE4C16BF128
:108068005EC26CF15FC26DF15CC26EF1FDC36FF16F
:1080780081BA02D0010E01D0000E0101706FCCC090
:1080880071F150C272F151C273F1D3C074F1D5C00D
:1080980075F1E3C176F158C277F159C278F1E0C1C0
:1080A80079F1E1C17AF10101E2510F0B01011B6F76
:1080B80001011B5101017F6F806B01017F3B803BF8
:1080C800F00E80177F510F0B8013F00E7F17010100
:1080D800E2390F0B01011B6F01011B5101017F27C1
:1080E800000E80237FC17BF1260E01017E6F030104
:1080F800FD6901011A510101D8B434D0560E0101AD
:10810800006F010E0101016F000E0101026F1C0ECC
:108118000101036F010E0101046F140E0101056FC7
:108128007EC106F103EC6AF01C0E01010E6F010E10
:1081380001010F6F18C110F119C111F161EC60F064
:108148001C0E0101046F010E0101056F01017E5132
:10815800140F0101066F000E0101076F020EF8EC03
:108168005EF0120018C10EF119C10FF1560E01018F
:10817800106F010E0101116F7EC112F1000E010195
:10818800136F010E0101146F000E0101156F5DECF4
:1081980047F0120012000101046F8B9C1A0EE82EA2
:1081A800FED700D0000E0101066F2DD030D08B9E77
:1081B80006C101F1400E0101026F000E0101036FBB
:1081C8000101012B04D001010335033302330101FE
:1081D800012FF9D70101025151140101096F010161
:1081E80009510101D8B402D08B8C02D08B9C00D0ED
:1081F8001A0EE82EFED700D08B8E1A0EE82EFED768
:1082080000D00101062B060E01010665D0D78B9E12
:108218008B9C1A0EE82EFED700D08B8E1A0EE82EF5
:10822800FED700D08B9E948C1A0EE82EFED700D075
:108238008B8E1A0EE82EFED700D0000E82BC010EDF
:108248000101056F010105510101D8A437D0949CA3
:10825800000E0101076F070E0101076501D02ED03E
:108268008B9E07C101F1800E0101026F000E010112
:10827800036F0101012B04D00101033503330233DD
:108288000101012FF9D70101025101010415010172
:10829800096F010109510101D8B402D08B8C02D0B9
:1082A8008B9C00D01A0EE82EFED700D08B8E1A0EAB
:1082B800E82EFED700D00101072BCDD78B9E948CDA
:1082C8001A0EE82EFED700D08B8E1A0EE82EFED797
:1082D80000D0000E82BC010E0101056F010105519D
:1082E8000101D8A437D0949C000E0101086F070E35
:1082F8000101086501D02ED08B9E08C101F1800EC6
:108308000101026F000E0101036F0101012B04D06E
:1083180001010335033302330101012FF9D70101AC
:108328000251010100150101096F01010951010103
:10833800D8B402D08B8C02D08B9C00D01A0EE82EB9
:10834800FED700D08B8E1A0EE82EFED700D0010182
:10835800082BCDD78B9E948C1A0EE82EFED700D012
:108368008B8E1A0EE82EFED700D0000E82BC010EAE
:108378000101056F949C8B9C8B9E1A0EE82EFED7EC
:1083880000D08B8E1A0EE82EFED700D08B8C1200F0
:108398000001D3510001D519D8B4D0D00001AC5197
:1083A8000001AD11D8A4CAD00001D5510001D35D98
:1083B800D8B061D0040E0001D5615DD00001D35161
:1083C800D8A418D0010E0001CC6FC5C0ACF00001D4
:1083D800AD6BACC000F1ADC001F1000E0101036F3F
:1083E8001E0E026F5EEC73F000C1ACF001C1ADF07F
:1083F800010E38D00001D305D8A418D0050E00010D
:10840800CC6FC5C0ACF00001AD6BACC000F1ADC025
:1084180001F1000E0101036F1E0E026F5EEC73F096
:1084280000C1ACF001C1ADF0020E1CD0020E00017B
:10843800D319D8A41AD0070E0001CC6FC5C0ACF070
:108448000001AD6BACC000F1ADC001F1000E01013F
:10845800036F1E0E026F5EEC73F000C1ACF001C139
:10846800ADF0030E0001D36F00D0CCC000F1010EB7
:10847800CFEC40F063D00001D3510001D55DD8B0F6
:108488005DD0020E0001D36518D0050E0001CC6F37
:10849800C5C0ACF00001AD6BACC000F1ADC001F1DE
:1084A800000E0101036F1E0E026F5EEC73F000C137
:1084B800ACF001C1ADF0020E38D0020E0001D319A4
:1084C800D8A418D0010E0001CC6FC5C0ACF00001D3
:1084D800AD6BACC000F1ADC001F1000E0101036F3E
:1084E8001E0E026F5EEC73F000C1ACF001C1ADF07E
:1084F800010E1BD00001D305D8A41AD0000E00012C
:10850800CC6FC5C0ACF00001AD6BACC000F1ADC024
:1085180001F1000E0101036F1E0E026F5EEC73F095
:1085280000C1ACF001C1ADF0000E0001D36F00D066
:10853800CCC000F1010ECFEC40F000D00001AC51EE
:108548000001AD11D8B412000101C72B0F0E0101B3
:10855800C76512000001AC07D8A0AD07000E0101E5
:10856800C76F0001AC510001AD11D8A41200D70E9D
:108578000101186F000E0101196F000E01011A6F39
:10858800D0EC3FF012001200000E0101126F000E35
:10859800116F010112BF0AD00101125106E1FA0E52
:1085A8000101115DD8B0E8D001D0E6D00BC104F1CB
:1085B8000CC105F1010111517FEC5DF00009D8B43F
:1085C800D0D011C10FF112C110F1D89001010F37AD
:1085D8001037010E01010F27000E1023C90E0101EB
:1085E8000F25D96E080E01011021DA6EDF501F0B1E
:1085F8001F0AD8B4A6D0D89001011135D96E01014F
:108608001235DA6EC90ED926080EDA22DF503F0B72
:1086180001010F6F01010F51060DBD0EF324D96E34
:108628000A0EF420DA6E0DC1E1FF0EC1E2FFDFCFC2
:10863800E7FFD89001011135D96E01011235DA6EC4
:10864800C90ED926080EDA22DF503F0B01010F6F41
:1086580001010F51060D010EF326000EF422BD0E86
:10866800F324D96E0A0EF420DA6E010110EE01F03F
:108678000D51E1260E51E222DFCFE7FFD89001012C
:108688001135D96E01011235DA6EC90ED926080ED8
:10869800DA22DF503F0B01010F6F01010F51060D68
:1086A800020EF326000EF422BD0EF324D96E0A0E34
:1086B800F420DA6E010110EE02F00D51E1260E51A0
:1086C800E222DFCFE7FFD89001011135D96E010111
:1086D8001235DA6EC90ED926080EDA22DF503F0BA2
:1086E80001010F6F01010F51060D030EF326000E55
:1086F800F422BD0EF324D96E0A0EF420DA6E0101BD
:1087080010EE03F00D51E1260E51E222DFCFE7FF14
:1087180011C10FF112C110F1D89001010F371037B4
:10872800010E01010F27000E1023C90E01010F25AC
:10873800D96E080E01011021DA6EDF501F0B1200EE
:1087480010D0D89001011135D96E01011235DA6EB9
:10875800C90ED926080EDA223F0EDF161F0E1200A8
:1087680000D00101114B122B010112BF1FD70101CB
:10877800125102E114D700D01F0E12001200000E91
:1087880001010F6F000E0E6F01010FBF0AD001012A
:108798000F5106E13F0E01010E5DD8B0D4D001D0D3
:1087A800D2D006C1D9FF07C1DAFF0EC100F10FC14F
:1087B80001F1000E0101036F060E026F5EEC73F00B
:1087C800BD0E01010025E16E0A0E01010121E26ED4
:1087D800DE50E618D8A4ACD0010120EE01F0065115
:1087E800D9260751DA220EC100F10FC101F1000E9E
:1087F8000101036F060E026F5EEC73F0010E0101BA
:108808000027000E01010123BD0E01010025E16EC4
:108818000A0E01010121E26EDE50E618D8A488D0C4
:10882800010120EE02F00651D9260751DA220EC1C5
:1088380000F10FC101F1000E0101036F060E026F76
:108848005EEC73F0020E01010027000E0101012306
:10885800BD0E01010025E16E0A0E01010121E26E43
:10886800DE50E618D8A464D0010120EE03F00651CA
:10887800D9260751DA220EC100F10FC101F1000E0D
:108888000101036F060E026F5EEC73F0030E010127
:108898000027000E01010123BD0E01010025E16E34
:1088A8000A0E01010121E26EDE50E618D8A440D07C
:1088B8000EC100F10FC101F1000E0101036F060E98
:1088C800026F5EEC73F0050E01010027000E010136
:1088D8000123BD0E01010025D96E0A0E01010121F7
:1088E800DA6E08C1E1FF09C1E2FFDFCFE7FF0EC181
:1088F80000F10FC101F1000E0101036F060E026FB6
:108908005EEC73F0040E01010027000E0101012343
:10891800BD0E01010025D96E0A0E01010121DA6E92
:10892800DF380F0B0AC1D9FF0BC1DAFFDF6E120067
:1089380001010E4B0F2B01010FBF33D701010F515E
:1089480002E128D700D008C1D9FF09C1DAFFFF0E1C
:10895800DF6E0AC1D9FF0BC1DAFF0F0EDF6E1200FE
:1089680012003A50D8B4D9D002016D51D8B410D001
:10897800000E02016D6F000E0001CE6F000E0001A7
:10898800CF6F000E3A6E000E0001CB6F000E120082
:1089980002016B51D8A40DD0000E0001CE6F000E5D
:1089A8000001CF6F000E3A6E000E0001CB6F000E73
:1089B80012000001CF51FD0F10C1D9FF11C1DAFF1C
:1089C800DF6E000E0101186F400E0001CF650DD05B
:1089D800000E0001CE6F000E0001CF6F000E3A6E40
:1089E800000E0001CB6F000E1200020E0101196F7C
:1089F80011D001011951010DA70EF324D96E040EEF
:108A0800F420DA6EDF50010118190101186F010115
:108A1800192B00D00001CF510101195DD8A0E9D769
:108A2800010118510101D8B40DD0000E0001CE6F1C
:108A3800000E0001CF6F000E3A6E000E0001CB6FE2
:108A4800000E120010C1D9FF11C1DAFF3D0EDF641C
:108A58000DD0000E0001CE6F000E0001CF6F000E8A
:108A68003A6E000E0001CB6F000E120010C1D9FF44
:108A780011C1DAFFDF500101126F136BFD0E010106
:108A8800146FFF0E0101156F0001CF510101166F20
:108A9800176B01011451010116270101155101013C
:108AA8001723010112510101161906E101011351A1
:108AB80001011719D8B40DD0000E0001CE6F000EB9
:108AC8000001CF6F000E3A6E000E0001CB6F000E52
:108AD8001200A70E0101006F040E0101016F020EC2
:108AE8000101026F0EC103F10FC104F1000E010173
:108AF800056F10C1D9FF11C1DAFFDF500101066F00
:108B080003EC6AF0000E0001CE6F000E0001CF6F7B
:108B1800000E3A6E010E12000FD03A50D8B40CD0A5
:108B2800000E0001CE6F000E0001CF6F000E3A6EEE
:108B3800000E0001CB6F00D0000E120012000101E0
:108B48002F6F0101D651D8B404D0000E0101D66FA1
:108B58001200040E00EC73F00009D8B481D00101B2
:108B6800B451010D7D0EF324F66EFE0EF420F76E5F
:108B78000800F5500009D8A473D0010E0101B46FA4
:108B8800010E02016E6F6CD0F9EC5BF00DC1AAF01A
:108B98000EC1ABF00001ABBF08D03E0E0001AA5DCC
:108BA800080E0001AB59D8B004D0000E0101B46F13
:108BB80012000101B42B1200BDEC64F00DC158F293
:108BC8000EC159F20101B42B120001012F5102010B
:108BD800405D000E4159D8B003D00101B42B1200FA
:108BE80001012F510201405F000E415B1200000E8F
:108BF8000101F36F01012F510201425D000E43593B
:108C0800D8A0120001D0120001012F510201425FC9
:108C1800000E435B1200040EDAEC74F00009D8B4BD
:108C280012002CC126F12DC127F12EC128F1040E06
:108C3800B1EC6BF0000E02016E6F1200000E010124
:108C4800006F080EA0EC71F00101B42B120017ECB4
:108C580069F00DC150F20EC151F20101B42B12009E
:108C68000101B451010D7D0EF324F66EFE0EF420C1
:108C7800F76E0800F550000AD8B4CDD7010AD8B469
:108C880083D7030AD8B498D7010AD8B41200070AC0
:108C9800D8B41200010AD8B41200030AD8B41200DA
:108CA800010AD8B412000F0AD8B48FD7010AD8B471
:108CB8001200030AD8B49BD7010AD8B41200070AD5
:108CC800D8B41200010AD8B41200030AD8B41200AA
:108CD800010AD8B412001F0AD8B4B9D7010AD8B407
:108CE800ADD7030AD8B41200010AD8B41200070A93
:108CF800D8B41200010A120012007C0ED36E9B8CAD
:108D0800D2909B8E200E926EBB0E936E130E946EB5
:108D1800860E806E010E816EC40E826E100E0F01DB
:108D28005D6F050E0F015C6FF19E0F015B810F01F6
:108D38005B930F015B850F015B970F015B990F0137
:108D48005B9B0F015B9D0F015B9FD180030E0101AF
:108D5800016FEC0E006F2BEC76F00001D56F030E5F
:108D68000101016FEE0E006F2BEC76F00101E06F50
:108D7800030E0101016FF10E006F2BEC76F001017B
:108D8800E16F030E0101016FF20E006F2BEC76F01C
:108D98000101E26F030E0101016FED0E006F2BEC74
:108DA80076F03F0B0101E36F030E0101016FF30E33
:108DB800006F2BEC76F03F0B0101E46F3F0E0101D1
:108DC800E319D8A404D0060E0101E36F00D03F0ECA
:108DD8000101E419D8A404D0060E0101E46F00D003
:108DE800E3C1C5F00001C551D8A404D0060E0001A6
:108DF800C56F00D00001D529D8B424D00001D5050D
:108E0800D8A404D014D00001CC6F22D0020E0001E7
:108E1800D519D8B40CD0030E0001D519D8B407D091
:108E2800050E0001D519D8A404D0020E08D0010EF1
:108E3800EAD7070E0001D519D8A404D0030E000103
:108E4800D56FF5D7000E0001D56F000EDCD700D026
:108E5800000E0101006F030ECFEC40F0CCC000F112
:108E6800010ECFEC40F0010E0101F56F000E02017A
:108E7800476F000E466F000E0201456F000E446FEB
:108E8800000E02015D6F000E5C6F000E02015F6F45
:108E9800000E5E6F000E0101C46F0201AB69020192
:108EA800AC690201AD690201AE69000E02016C6F86
:108EB800120002017551D8A4D2D00201A751D8A43A
:108EC800CED0760E0101066F020E0101076FF70E74
:108ED8000101086F020E0101096F040E01010A6FFA
:108EE8007AEC71F07EC2EEF2060E0201756F0EC1C9
:108EF80006F10FC107F17A0E0101086F020E010198
:108F0800096F040E01010A6F7AEC71F0E90E010194
:108F1800066F010E0101076F760E0101086F020E40
:108F28000101096F040E01010A6F7AEC71F0A5ECDA
:108F380076F002017E6F000E0201AA6F0101155141
:108F48000101D8B402D0040E01D0030E02017F6FD4
:108F580000D0270E0101126156D00101C851D8B4C2
:108F680031D0010114510101D8B42CD0010E0101F6
:108F780010250101006F000E010111210101016F8F
:108F8800FF0E010112250101026F0101036BFF0EA3
:108F9800032374EC5BF00101166F050E0101176FD6
:108FA8000101D89016370101172FFAD70101165180
:108FB8000201806F10C1D9FF11C1DAFFDF50020131
:108FC800802708D010C1D9FF11C1DAFFDF50020194
:108FD800806F00D010C100F111C101F1010E010133
:108FE800026F800E0101036F020E0101046F010E72
:108FF8000101056F010112050101066F03EC6AF01A
:1090080012C1A6F200D013C1A7F201011351010148
:10901800D8B403D0000E0201756F0001BA51D8A46C
:1090280004D0000E0101D96F18D07A0E0101066F25
:10903800020E0101076FEF0E0101086F020E010118
:10904800096F040E01010A6F84EC70F00009D8B4AE
:1090580004D0020E0201756F00D0010E1200000E3E
:10906800120012000101146F000E0101166F000EAC
:10907800176F000E186F000E196F040E01010F19FB
:10908800D8A40BD00DC116F10EC117F10101000EC5
:1090980017BFFF0E186F196F54D001010F5101014E
:1090A800D8A42FD00DC110F10EC111F1000E01018D
:1090B80011BFFF0E126F136F0F0ED89001011037FA
:1090C800113712371337E82EF8D710C100F111C144
:1090D80001F112C102F113C103F1E80E0101046F9D
:1090E800030E056F000E066F000E076FDAEC62F0D4
:1090F80000C116F101C117F102C118F103C119F13C
:1091080020D001010F05D8A41CD00DC110F10EC14B
:1091180011F1000E010111BFFF0E126F136F0F0E38
:10912800D89001011037113712371337E82EF8D7C6
:1091380010C116F111C117F112C118F113C119F1BB
:1091480000D016C110F117C111F118C112F119C1DF
:1091580013F10101101F111F121F131F102B000EF6
:10916800112312231323FF0E010110250101166F8D
:10917800FF0E010111210101176F000E01011221DB
:109188000101186F000E010113210101196F01017E
:109198001405D8A40BD017C1CFFF16C1CEFF8C0E73
:1091A800CD6E9F809E909D80CD8000D0030E0101E2
:1091B8001419D8A40AD017C1B3FF16C1B2FF8C0E78
:1091C800B16EA292A192A082B1803F50D8A41200A1
:1091D800010E3F6E000E0101156F160E0101156597
:1091E80002D01200120001011551020D000EF324E5
:1091F800D96E020EF420DA6E000EDE6E000EDD6E01
:109208000101152B160E01011565EDD7120012008C
:1092180012000101116F030E01010819D8A460D0D2
:109228003C0E0101116102D0000E12D0C30E0101E3
:1092380011250101006F0101016BFF0E0123000ED2
:109248000101036F050E026FA8EC61F001010051E6
:109258000101126F00D0010112510101096F0A6B5F
:10926800FF0E01010B6FFF0E01010C6F08C10DF11C
:10927800010E01010E6F000E01010F6F01010D2B90
:1092880004D0D89001010E370F3701010D2FF9D7FF
:1092980001010B5101010E2701010C5101010F239E
:1092A8000101095101010E5D01010F51800A0101FF
:1092B800106F01010A51800A01011059D8B071D00C
:1092C80008C109F1010E01010A6F0101092B03D040
:1092D8000101D8900A370101092FFAD75DD061D072
:1092E800040E01010819D8A45CD0DC0E0101112577
:1092F8000101006F0101016BFF0E0123000E010146
:10930800036F050E026FA8EC61F001010051010125
:10931800126F010112510101096F0A6BFF0E010161
:109328000B6FFF0E01010C6F08C10DF1010E010159
:109338000E6F000E01010F6F01010D2B04D0D890A4
:1093480001010E370F3701010D2FF9D701010B511C
:1093580001010E2701010C5101010F2301010951DF
:1093680001010E5D01010F51800A0101106F010119
:109378000A51800A01011059D8B013D008C109F167
:10938800010E01010A6F0101092B03D00101D890D8
:109398000A370101092FFAD701010A050101126FE5
:1093A80000D001011251120012000101066F0101E3
:1093B80004510101D8B402D0200E01D0600E010181
:1093C800056F9AD00101055102090201AF6F630EC2
:1093D8000201B66F010106511B0F55D0010105515D
:1093E80002090201AF6F640E0201B66F0101065156
:1093F800040F49D0210E010106610BD0010105516E
:109408000A090201AF6F650E0201B66F06C1B7F215
:1094180081D0010105510A090201AF6F640E0201F2
:10942800B66F01010651190F2ED074D001010551F4
:109438000A090201AF6F650E0201B66F01010651FC
:10944800210F21D00C0E010106610DD0010105513B
:1094580002090201AF6F630E0201B66F01010651E6
:10946800040DF350B9D70B0E010106650FD0190E84
:10947800010106610BD001010551020912D0640EE9
:109488000201B66F11D00201B76F44D0180E010166
:10949800066510D01F0E010106610CD001010551AF
:1094A8000A090201AF6FEBD701010645E846FC0B3C
:1094B800D00FE9D71E0E0101066509D0270E01015C
:1094C800066105D00CD0650E0201B66F0ED0260ECF
:1094D800010106651FD0320E010106611BD0010192
:1094E80005510A090201AF6FEED701010645E846AA
:1094F800FC0B850FC8D70ED05050010AD8B462D7DC
:10950800030AD8B46BD7010AD8B474D7070AD8B4F9
:109518008DD798D7AFC202F1000EB1EC73F0B6C286
:1095280002F10E0EB1EC73F0B7C202F1100EB1ECFD
:1095380073F0120004004650D8A4120001D01200A3
:109548001AC146F0000E01011B6FB0D0000E0001D9
:10955800C46F0001CB51D8A49DD03E0E0101196102
:1095680099D0010E0001C76F0001CB51D8B404D0C7
:10957800000E0001C76F95D0200E05EC57F00201D0
:10958800BC5101090101026F1A0EB1EC73F0800E93
:1095980005EC57F001011951020F9BEC76F0000120
:1095A800B5519BEC76F0000E01011F6F64D00101EC
:1095B8001F51010DF35001011725D96EF450010117
:1095C8001821DA6EDF5001011C6F01011F05D8B4A4
:1095D80010D0020E01011F19D8B40BD00001C451DC
:1095E80001011C190001C46F01011C519BEC76F0AC
:1095F8003FD001011F05D8A42BD0040E01010C6F28
:10960800010E68EC5AF00001A25101010C2501017C
:109618001D6F0001A35101010D2101011E6F010100
:109628001E519BEC76F001011E510001C419000186
:10963800C46F01011D5102015E5D01011E5102014D
:109648005F59D8B015D01DC15EF21EC15FF210D0AF
:10965800020E01011F19D8A40BD001011D519BEC6A
:1096680076F00001C45101011D190001C46F00D03A
:1096780001011F2B00D00101195101011F5DD8A064
:1096880096D70001C4519BEC76F00400010E01014D
:10969800D66F09D03D0E0101196501D002D0000135
:1096A800CB51460600D001011B2B00D001011A51F5
:1096B80001011B5DD8A04AD7120002017551D8A438
:1096C800BBD00201A751D8A4B7D0760E0101066F0E
:1096D800020E0101076FF70E0101086F020E01016A
:1096E800096F040E01010A6F7AEC71F07EC2EEF286
:1096F800060E0201756F000E0201A86F020E02012C
:10970800A96F0EC106F10FC107F17A0E0101086FAA
:10971800020E0101096F040E01010A6F7AEC71F063
:10972800E90E0101066F010E0101076F760E0101B6
:10973800086F020E0101096F040E01010A6F7AEC2D
:1097480071F0A5EC76F002017E6F000E0201A76FA2
:109758001D0E0201806F210E0201816F10C182F27D
:109768003F0E0201836F080E0101116F01011051B4
:1097780001011103F3CF12F1000E0101136F46D05E
:109788003F0E0101126121D001011251060DBD0EDB
:10979800F3240101006F0A0EF4200101016F000E8D
:1097A8000101026F800E0101036F020E0101046FB7
:1097B80001011351040DF350060F0101056F040E4A
:1097C8000101066F03EC6AF01CD0E50E0101006F81
:1097D800010E0101016F000E0101026F800E0101EF
:1097E800036F020E0101046F01011351040DF350C0
:1097F800060F0101056F040E0101066F03EC6AF004
:1098080000D00101122B0101132B00D001011151CD
:109818000101135DD8A0B4D7030E02017F6F260E95
:109828000201A66F0001BA51D8A404D0000E0101AC
:10983800D96F00D0010E1200000E12001200000EA7
:1098480001010B6F3E0E01010B6502D012001200E0
:1098580001010B51060D040EF326000EF422BD0E75
:10986800F324D96E0A0EF420DA6EDF500F0B0F0ABC
:10987800D8B49CD0010E0101086F01010B51060DEF
:10988800040EF326000EF422BD0EF324D96E0A0E40
:10989800F420DA6EDF500F0B0101096F0101085146
:1098A80001010927DF5001010919F00B010109190C
:1098B800DF6E47500F0DF3CF00F1F4CF01F1000E2A
:1098C8000101036F400E026FA8EC61F0040E010164
:1098D8000027000E0101012301010B51060D040EA2
:1098E800F326000EF422BD0EF324D96E0A0EF420DE
:1098F800DA6EDF500F0B0101086F096B010100518F
:109908000101085D01010951800A01010A6F010185
:109918000151800A01010A59D8B012D001010B5136
:10992800060D040EF326000EF422BD0EF324D96EA4
:109938000A0EF420DA6EDF500F0B0F0AD8A436D0C7
:1099480001010B51060D040EF326000EF422BD0E84
:10995800F324D96E0A0EF420DA6EDF80DF82DF840A
:10996800DF8601010B51060D050EF326000EF422C9
:10997800BD0EF324D96E0A0EF420DA6EFF0EDF6EE8
:1099880001010B51060D040EF326000EF422BD0E44
:10999800F324D96E0A0EF420DA6EDF88DF8ADF8CB2
:1099A800DF8E4750D8B402D0470600D001010B2BF8
:1099B8003E0E01010B654CD712001200156E000E09
:1099C800176E000E186E000E196E000E1A6E040E39
:1099D8001018D8A40AD00EC017F00FC018F0000E47
:1099E80018BEFF0E196E1A6E4CD01050D8A42CD089
:1099F8000EC011F00FC012F0000E12BEFF0E136E53
:109A0800146E0F0ED8901136123613361436E82E0F
:109A1800F9D711C001F012C002F013C003F014C04E
:109A280004F0E80E056E030E066E000E076E000EBB
:109A3800086EF7EC6BF001C017F002C018F003C015
:109A480019F004C01AF01DD01004D8A41AD00EC002
:109A580011F00FC012F0000E12BEFF0E136E146E3E
:109A68000F0ED8901136123613361436E82EF9D761
:109A780011C017F012C018F013C019F014C01AF072
:109A880000D017C011F018C012F019C013F01AC096
:109A980014F0111E121E131E141E112A000E12227B
:109AA80013221422FF0E1124176EFF0E1220186EB7
:109AB800000E1320196E000E14201A6E1504D8A477
:109AC8000BD018C0CFFF17C0CEFF8C0ECD6E9F8075
:109AD8009E909D80CD8000D0030E1518D8A40AD082
:109AE80018C0B3FF17C0B2FF8C0EB16EA292A1923C
:109AF800A082B1803F50D8A41200010E3F6E000E24
:109B0800166E160E166402D0120012001650020DC0
:109B1800000EF324D96E020EF420DA6E000EDE6E0B
:109B2800000EDD6E162A160E1664F0D7120012000B
:109B380012001D0E0101426F1AC10BF11BC10CF17D
:109B4800430E01010D6F010E01010E6FC8EC42F0CA
:109B58000101476F1D0E01011C6F260E01011D6FCB
:109B68001AC100F11BC101F1000E0101026F1C0EA8
:109B78000101036F010E0101046F020E0101056F5F
:109B8800040E0101066F03EC6AF0430E0101006F39
:109B9800010E0101016F000E0101026F1C0E01018F
:109BA800036F010E0101046F060E0101056F040E1B
:109BB8000101066F03EC6AF047C126F11AC100F1F2
:109BC8001BC101F1000E0101026F1C0E0101036FA0
:109BD800010E0101046F0B0E0101056F040E010156
:109BE800066F03EC6AF0430E0101006F010E0101DC
:109BF800016F000E0101026F1C0E0101036F010EBF
:109C08000101046F0F0E0101056F040E0101066FBB
:109C180003EC6AF047C12FF11AC100F11BC101F131
:109C2800000E0101026F1C0E0101036F010E0101FC
:109C3800046F140E0101056F040E0101066F03EC99
:109C48006AF0430E0101006F010E0101016F000E61
:109C58000101026F1C0E0101036F010E0101046F67
:109C6800180E0101056F040E0101066F03EC6AF07E
:109C780047C138F118C10EF119C10FF11C0E0101CD
:109C8800106F010E0101116F42C112F1000E0101A6
:109C9800136F010E0101146F000E0101156F5DECC9
:109CA80047F01200120000C1D9FF01C1DAFF000E0F
:109CB800DF6E010120EE01F00051D9260151DA22B0
:109CC800000EDF6E4050D8A404D00001C051D8B4B3
:109CD80039D01E0E0001C16103D00001C12B00D094
:109CE8001E0E0001C119D8A41AD00E0E0001C265BB
:109CF80016D000C1D9FF01C1DAFF030EDF6E2D0EA9
:109D08000001C16F010120EE01F00051D926015177
:109D1800DA22030EDF6E2D0E0001C26F0FD01E0E69
:109D28000001C119D8A40AD000C1D9FF01C1DAFFC6
:109D3800020EDF6E2D0E0001C16F00D0000E000173
:109D4800C06F13D0010E0001C1650BD01F0E0001BA
:109D5800C16107D000C1D9FF01C1DAFF010EDF6E72
:109D680000D0000E0001C16F00D04150D8A403D02C
:109D78004250D8B439D01E0E0001C26103D0000190
:109D8800C22B00D01E0E0001C219D8A41AD00E0E84
:109D98000001C16516D000C1D9FF01C1DAFF030E69
:109DA800DF6E2D0E0001C16F010120EE01F00051A0
:109DB800D9260151DA22030E11D02D0E0001C26FEF
:109DC80010D01E0E0001C219D8A40BD0010120EE3C
:109DD80001F00051D9260151DA22020EDF6EEDD7CB
:109DE80000D0000E426E1200010E0001C2650ED0B6
:109DF8001F0E0001C2610AD0010120EE01F00051DE
:109E0800D9260151DA22010EDF6E00D0000E0001C2
:109E1800C26F120012001D0E0101266F200E0101F3
:109E2800276F22C128F179EC77F00101296F030E21
:109E38000101556F0101225101015503F3CF54F17E
:109E4800000E0101586F000E576F6DD04C0E0101C6
:109E5800146F010E0101156F500E0101166F010EEE
:109E68000101176F560E0101186F010E0101196FDC
:109E7800010154517DEC5EF04C0E0101006F010EA2
:109E88000101016F000E0101026F260E0101036F2F
:109E9800010E0101046F01015751090DF350040F20
:109EA8000101056F040E0101066F03EC6AF0500E04
:109EB8000101006F010E0101016F000E0101026F27
:109EC800260E0101036F010E0101046F01015751B4
:109ED800090DF350080F0101056F040E0101066F0B
:109EE80003EC6AF057C100F158C101F1000E0101FD
:109EF800036F090E026F5EEC73F00C0E0101002770
:109F0800000E01010123260E01010025D96E010E64
:109F180001010121DA6E56C1DFFF0101542B010155
:109F2800574B582B00D0010155510101236F246B69
:109F3800010123510101575D01015851800A0101B6
:109F4800256F01012451800A01012559D8A07ED727
:109F580020C10EF121C10FF1260E0101106F010E73
:109F68000101116F260E0101126F000E0101136F1E
:109F7800010E0101146F000E0101156F5DEC47F031
:109F8800120012000AC10EF101010F6B106B0101E2
:109F9800093501010E3701E30F8101010E5101015D
:109FA800116F01011151D8A40AD0000E0101086FE8
:109FB800000E0101096F000E01010A6F12000DC1A8
:109FC8000EF101010F6B106B01010C3501010E3709
:109FD80001E30F8101010E510101166F01011651B4
:109FE800D8A40AD0000E0101086F000E0101096F04
:109FF800000E01010A6F1200010116517B0F0101C9
:10A0080011270AC116F101010D510101161B800E1D
:10A01800010116170101098F01010C8FFF0E0101C3
:10A028000B17FF0E01010C17000E01010D17000E92
:10A038000101126F000E0101136F000E0101146F70
:10A04800070E0101156F00D0010108A10DD0010113
:10A058000B510101122701010C51010113230101C8
:10A068000D510101142300D00101D8900A3309339E
:10A0780008330101D8900B370C370D370101152F24
:10A08800E3D700D0090E0101156F00D0010108A126
:10A098000DD001010B510101122701010C510101E1
:10A0A800132301010D510101142300D00101D8909F
:10A0B8000A33093308330101D890143313331233A8
:10A0C8000101152FE3D700D012C100F113C101F12E
:10A0D80014C102F111C103F116C104F12EEC58F0BC
:10A0E80000C108F101C109F102C10AF11200120010
:10A0F8006EC072F00001736B746B00016D35000166
:10A10800723701E37381000172510001756F00011C
:10A118007551D8A40AD0000E00016C6F000E000122
:10A128006D6F000E00016E6F120071C072F00001B9
:10A13800736B746B000170350001723701E3738132
:10A148000001725100017A6F00017A51D8A40AD037
:10A15800000E00016C6F000E00016D6F000E000113
:10A168006E6F120000017A517B0F000175276EC0D7
:10A178007AF00001715100017A1B800E00017A17F4
:10A1880000016D8F0001708FFF0E00016F17FF0E29
:10A1980000017017000E00017117000E0001766FA4
:10A1A800000E0001776F000E0001786F070E0001A6
:10A1B800796F00D000016CA10DD000016F51000132
:10A1C80076270001705100017723000171510001C9
:10A1D800782300D00001D8906E336D336C330001C2
:10A1E800D8906F37703771370001792FE3D700D0D7
:10A1F800090E0001796F00D000016CA10DD000019B
:10A208006F5100017627000170510001772300018A
:10A2180071510001782300D00001D8906E336D335E
:10A228006C330001D8907833773376330001792F77
:10A23800E3D700D076C060F077C061F078C062F0F4
:10A2480075C063F07AC064F0BEEC58F060C06CF082
:10A2580061C06DF062C06EF01200120001010005CD
:10A2680001010111D8A433D00001A651301805E12D
:10A278000001A7513118D8B49AD00101BE5101018B
:10A28800D8B402D0000E1200010E0101BE6F000EFC
:10A298003024D96E050E3120DA6E02C1E1FF03C108
:10A2A800E2FFDFCFE7FF304A312A31BE0AD0315012
:10A2B80004E1800E305CD8A004D0000E316E000E90
:10A2C800306E000E0101BE6F010E120070D0020E3A
:10A2D8000101001901010111D8A433D00001A851CE
:10A2E800321805E10001A9513318D8B460D0010132
:10A2F800BF510101D8B402D0000E1200010E0101B5
:10A30800BF6FC90E3224D96E060E3320DA6E02C131
:10A31800E1FF03C1E2FFDFCFE7FF324A332A33BE52
:10A328000AD0800E325C010E3358D8A004D0000E3B
:10A33800336E000E326E000E0101BF6FC5D71200DA
:10A3480036D0040E0101001901010111D8A42FD043
:10A358000001A4512E1805E10001A5512F18D8B409
:10A3680026D03750D8B402D0000E1200010E376E36
:10A37800000E2E24D96E040E2F20DA6E02C1E1FFE2
:10A3880003C1E2FFDFCFE7FF2E4A2F2A2FBE0AD0F4
:10A398002F5004E1270E2E5CD8A004D0000E2F6E9B
:10A3A800000E2E6E000E376E8FD7120000D0000EF2
:10A3B800120012000001BE51D8B4A4D00001CB5144
:10A3C800D8A4A0D0C3C000F10101016B000E0101A7
:10A3D800036F000E026FC90E0101046F000E056FB6
:10A3E800000E066F000E076F36EC6EF0010100518B
:10A3F80001012F6F01012F510101D8A402D0000ED5
:10A408001200000E01010E6F01012F51010D000E07
:10A41800F324D96E060EF420DA6EDF5026EC75F0C0
:10A42800D3A60FD0040E01010C6F010E68EC5AF090
:10A438000001A25101010C250101306F0001A35157
:10A4480014D0040E01010C6F010E68EC5AF00001E3
:10A45800A25101010C270001A35101010D23E60EB1
:10A4680001010C250101306FFF0E01010D210101D1
:10A47800316F00D066EC77F02CC1D9FF2DC1DAFF1F
:10A48800DF6E010120EE02F02C51D9262D51DA227F
:10A4980030C1DFFF010120EE01F02C51D9262D51EA
:10A4A800DA2201013151DF6E2CC117F12DC118F1EB
:10A4B80001012E51030F0101196F010E01011A6FDD
:10A4C8009EEC4AF00101CD51D8A417D0080E19EC22
:10A4D8006FF0010100510101CD250101CD6FCDC102
:10A4E80026F10101276B010E0101286F080EB1EC5E
:10A4F8006BF0000E0101CD6F00D0000E0101D46F8A
:10A50800010E1200000E1200120000C1D9FF01C195
:10A51800DAFF1D0EDF6E010120EE01F00051D92691
:10A528000151DA22230EDF6E010120EE02F0005104
:10A53800D9260151DA22D2C002F10101023BF00E04
:10A54800021737EC77F0010102250001D025DF6EF4
:10A55800010120EE03F00051D9260151DA22D2C0C0
:10A5680002F10101023BF00E021737EC77F001010E
:10A5780002250001D025DF6E010120EE04F0005114
:10A58800D9260151DA22D2C002F10101023BF00EB4
:10A59800021737EC77F0010102250001D025DF6EA4
:10A5A800010120EE05F00051D9260151DA22C8C078
:10A5B800DFFF010120EE06F00051D9260151DA2211
:10A5C800C8C0DFFF010120EE07F00051D926015174
:10A5D800DA22C8C0DFFF010120EE08F00051D926B9
:10A5E8000151DA2262EC77F0DF6E010120EE09F00A
:10A5F8000051D9260151DA2262EC77F0DF6E0101B1
:10A6080020EE0AF00051D9260151DA2262EC77F0E7
:10A61800DF6E010120EE0BF00051D9260151DA223C
:10A628005EEC77F0DF6E010120EE0CF00051D926C8
:10A638000151DA225EEC77F0DF6E010120EE0DF0B9
:10A648000051D9260151DA225EEC77F0DF6E0E0E4A
:10A658000101036F010103511200120019C11BF11E
:10A6680001011C6B1D6B0101183501011B3701E34A
:10A678001C8101011B510101256F01012551D8A43D
:10A688000AD0000E0101176F000E186F000E196F27
:10A69800000E1A6F1200170E01011B6F17C11CF173
:10A6A80018C11DF119C11EF101011B2901011F6FFC
:10A6B80005D00101D8901E331D331C3301011F2F13
:10A6C800F8D701011C510101206F0101188FFF0EFD
:10A6D80001011717FF0E01011817000E01011917C4
:10A6E800010117510101216F010118510101226F68
:10A6F800010119510101236F0101246B8E0E010123
:10A70800255F010125AF1BD001012551800A8F0F5C
:10A71800D8B00BD0000E0101176F000E186F000E95
:10A72800196F000E1A6F120000D00101D89024335F
:10A738002333223321330101253FF7D71FD0170ECA
:10A748000101256514D0000E0101176F000E186F66
:10A75800000E196F000E1A6F120009D00101D8906F
:10A7680021372237233724370101250700D001017B
:10A7780025510101D8B402D0F1D700D001012051F0
:10A788000101D8B40AD00101241F231F221F216D03
:10A79800000E22232323242300D021C117F122C134
:10A7A80018F123C119F124C11AF1120012000DC1C8
:10A7B80011F10101126B136B01010C350101113705
:10A7C80001E31281010111510101186F01011851B2
:10A7D800D8A40AD0000E01010B6F000E01010C6F06
:10A7E800000E01010D6F120010C111F10101126B71
:10A7F800136B01010F350101113701E312810101CA
:10A8080011510101196F01011951D8A40AD0000E84
:10A8180001010B6F000E01010C6F000E01010D6F9D
:10A828001200000E0101156F000E0101166F000ED7
:10A838000101176F01011951890F0101185F0DC13D
:10A8480019F1010110510101191B800E010119179D
:10A8580001010C8FFF0E01010B17FF0E01010C17F0
:10A86800000E01010D1701010F8FFF0E01010E17D8
:10A87800FF0E01010F17000E01011017180E01013C
:10A88800146F00D00101D89015371637173701011A
:10A898000E5101010B5D01010F5101010C5901011C
:10A8A800105101010D59D8A00ED001010E5101011E
:10A8B8000B5F01010F5101010C5B010110510101F6
:10A8C8000D5B010115810101D8900B370C370D374D
:10A8D8000101142FD7D700D015C100F116C101F11D
:10A8E80017C102F118C103F119C104F12EEC58F097
:10A8F80000C10BF101C10CF102C10DF112001200EF
:10A908007DC07FF00001806B816B00017C35000108
:10A918007F3701E3808100017F510001896F0001C9
:10A928008951D8A40AD0000E00017B6F000E7C6FFD
:10A93800000E7D6F000E7E6F1200170E00017F6FF4
:10A948007BC080F07CC081F07DC082F000017F294F
:10A958000001836F05D00001D890823381338033A2
:10A968000001832FF8D7000180510001846F000196
:10A978007C8FFF0E00017B17FF0E00017C17000E75
:10A9880000017D1700017B510001856F00017C519A
:10A998000001866F00017D510001876F0001886BFF
:10A9A8008E0E0001895F000189AF1BD0000189511B
:10A9B800800A8F0FD8B00BD0000E00017B6F000EFD
:10A9C8007C6F000E7D6F000E7E6F120000D00001BC
:10A9D800D89088338733863385330001893FF7D78A
:10A9E8001FD0170E0001896514D0000E00017B6F7F
:10A9F800000E7C6F000E7D6F000E7E6F120009D076
:10AA08000001D8908537863787378837000189074E
:10AA180000D0000189510001D8B402D0F1D700D08C
:10AA2800000184510001D8B40AD00001881F871F93
:10AA3800861F856D000E86238723882300D085C056
:10AA48007BF086C07CF087C07DF088C07EF0120065
:10AA58001200000E01012D6F0A0E2C6F010E01016C
:10AA68002E6F3E0EA3EC45F0020135BF0CD002015B
:10AA7800355104E102013405D8A005D0020134079C
:10AA8800D8A0350700D00101BC51D8A402D0110EBE
:10AA980018D00201345102013511D8A418D0C5ECE0
:10AAA80071F00009D8B407D0010E0201356F2C0EE1
:10AAB800346F120E06D0000E0201356F1E0E346F71
:10AAC800100E0001B76F010E0101CB6F00D001011C
:10AAD800CC510101D8A40DD0D0EC21F093B609D007
:10AAE8000101CB510101D8B402D08A8602D08A96DE
:10AAF80000D0130E00EC73F00009D8B43BD0E1C1CC
:10AB080081F10101826B01018151826F816B010129
:10AB1800E05101018127000E8223010181290F0ED6
:10AB280001018259D8B022D0010181510201585D3A
:10AB38000101825102015959D8B00CD00101E251EA
:10AB48000F0B040AD8B412D00101E2510F0B3DECEF
:10AB58006CF00CD00101E2390F0B040AD8B406D00E
:10AB68000101E2390F0B3DEC6CF000D0000E000142
:10AB7800B16F00D0130EDAEC74F00009D8B40CD021
:10AB8800000E0101276F3C0E266F010E0101286F90
:10AB9800130EB1EC6BF000D0CCEC41F012001200B7
:10ABA80006EEC9F015EE6EF0EE6AE550E150FCE1F4
:10ABB800E250FAE105EE00F0BF0EEE6AE806FDE1AC
:10ABC80004EE00F0E70EEE6AE806FDE103EE00F0A1
:10ABD800D80EEE6AE806FDE102EE00F0AF0EEE6A6E
:10ABE800E806FDE101EEAEF0450EEE6AE806FDE18D
:10ABF80000EEA2F0330EEE6AE806FDE100EE2CF05E
:10AC0800230EEE6AE806FDE1EA0EF66EC40EF76E54
:10AC1800000EF86E06EE00F010EEC9F00900F5CF50
:10AC2800EEFFE550E150FAE1940EF66EEE0EF76E87
:10AC3800000EF86E03EEF4F010EE08F00900F5CF00
:10AC4800EEFFE550E150FAE1080EF66EE20EF76EFF
:10AC5800000EF86E02EEAFF010EE50F00900F5CFDE
:10AC6800EEFFE550E150FAE1200EF66EEE0EF76EBB
:10AC7800000EF86E01EEF3F010EE0DF00900F5CFBE
:10AC8800EEFFE550E150FAE1EC0EF66EEE0EF76ECF
:10AC9800000EF86E00EED5F010EE06F00900F5CFC4
:10ACA800EEFFE550E150FAE18C0EF66EEE0EF76E0F
:10ACB800000EF86E00EE4FF010EE08F00900F5CF28
:10ACC800EEFFE550E150FAE1000EF86E0001EDEFFD
:10ACD80004F00001BE51D8A404D00001CB51D8B46F
:10ACE80003D0000E12008AD00101C1510101D8A47D
:10ACF80085D0C3C000F10101016B23C102F101013C
:10AD0800036BC90E0101046F000E056F000E066F7C
:10AD1800000E076F36EC6EF0010100510101246F3F
:10AD2800010124510101D8A402D0000E1200000E26
:10AD380001010E6F01012451010D000EF324D96E9B
:10AD4800060EF420DA6EDF5026EC75F0D3A60FD08D
:10AD5800040E01010C6F010E68EC5AF00001A251BB
:10AD680001010C250101256F0001A35114D0040E27
:10AD780001010C6F010E68EC5AF00001A2510101AB
:10AD88000C270001A35101010D23E60E01010C253A
:10AD98000101256FFF0E01010D210101266F00D071
:10ADA80066EC77F020C1D9FF21C1DAFFDF6E01011F
:10ADB80020EE02F02051D9262151DA2225C1DFFFE9
:10ADC800010120EE01F02051D9262151DA2201019A
:10ADD8002651DF6E20C117F121C118F1010122515E
:10ADE800030F0101196F010E01011A6F9EEC4AF061
:10ADF800010E0101C16F010E120000D0000E1200F9
:10AE080012000101056F80D0000E0101006F010ED4
:10AE1800BCEC72F0E40E00D000D0E82EFCD700D0D5
:10AE280000D00201AF511F0B80090201AF6FAFC202
:10AE380002F1000EB1EC73F0800E0101BC6F0B0E35
:10AE48000101046F620EE82EFED7042FFCD700D054
:10AE580012000201AF511F0B60090201AF6FAFC2B0
:10AE680002F1000EB1EC73F0D2C000F1000EBCECA0
:10AE780072F0600E0101BC6F1200000E0101006F3C
:10AE8800000EBCEC72F00201AF511F0B2009020149
:10AE9800AF6FAFC202F1000EB1EC73F0680E0101A2
:10AEA800046FE40EE82EFED7042FFCD700D0200E46
:10AEB8000101BC6F1200000E0101006F000EBCEC16
:10AEC80072F00201AF511F0B40090201AF6FAFC210
:10AED80002F1000EB1EC73F0400E0101BC6F1200DC
:10AEE800000E0101006F000EBCEC72F00201AF51C0
:10AEF8001F0B0201AF6F000E0101BC6FAFC202F160
:10AF0800000EB1EC73F0120001010551000AD8B42B
:10AF1800E7D7200AD8B4B1D7600AD8B4CCD7200A6A
:10AF2800D8B497D7E00AD8A412006ED7120006C189
:10AF3800D9FF07C1DAFFDE04D8A489D0050E0101C4
:10AF4800086585D0F90E010108250101006F01018E
:10AF5800016BFF0E0123000E0101036F050E026F46
:10AF680019EC65F00101005101010111D8A46FD05D
:10AF7800FF0E0101096FFF0E01010A6F010108515F
:10AF880001010B6F0C6B0101095101010B27010134
:10AF98000A5101010C2301010B5101010625D96E4B
:10AFA80001010C5101010721DA6E0001C851DE18B8
:10AFB800D8B420D0FF0E0101096FFF0E01010A6FFE
:10AFC8000101085101010B6F0C6B010109510101CD
:10AFD8000B2701010A5101010C2301010B51010149
:10AFE8000625D96E01010C5101010721DA6EDE2810
:10AFF800D8A403D0010E12002AD00001C829D8A471
:10B0080023D0FF0E0101096FFF0E01010A6F010134
:10B01800085101010B6F0C6B0101095101010B274C
:10B0280001010A5101010C2301010B5101010625FF
:10B03800D96E01010C5101010721DA6EDE28D8B45E
:10B0480003D0020E120003D0000E120000D0000E32
:10B0580012001200010103510101D8B408D0010106
:10B0680000510101011101010211D8A413D0000EF1
:10B078000101006F000E0101016F000E0101026F56
:10B08800120008D00101032B0101D89002330133CB
:10B09800003300D0000E010100150101056F000EFC
:10B0A800010101150101066FFE0E010102150101E2
:10B0B800076F010105510101061101010711D8B4FB
:10B0C80013D0E0D711D00101032B010E0101002795
:10B0D800000E01010123000E010102230101D89095
:10B0E80002330133003300D0000E010100150101C5
:10B0F800056F000E010101150101066FFF0E010128
:10B1080002150101076F0101055101010611010135
:10B118000711D8B40AD0D7D708D001010307010115
:10B12800D89000370137023700D0010101BF05D0A0
:10B13800020E01010361F1D700D0010103B103D070
:10B148000101019F00D00101D8900333010103518F
:10B1580001010213010104510101D8B403D0010116
:10B16800028F00D000C100F101C101F102C102F15A
:10B1780012001200000163510001D8B408D0000188
:10B1880060510001611100016211D8A413D0000EB2
:10B198000001606F000E0001616F000E0001626F18
:10B1A800120008D00001632B0001D890623361338C
:10B1B800603300D0000E000160150001656F000EBD
:10B1C800000161150001666FFE0E000162150001A5
:10B1D800676F000165510001661100016711D8B45D
:10B1E80013D0E0D711D00001632B010E00016027B6
:10B1F800000E00016123000E000162230001D890B7
:10B2080062336133603300D0000E00016015000125
:10B21800656F000E000161150001666FFF0E0001E9
:10B2280062150001676F0001655100016611000198
:10B238006711D8B40AD0D7D708D000016307000136
:10B24800D89060376137623700D0000161BF05D000
:10B25800020E00016361F1D700D0000163B103D091
:10B268000001619F00D00001D89063330001635151
:10B2780000016213000164510001D8B403D0000139
:10B28800628F00D060C060F061C061F062C062F09F
:10B29800120012000101000501010111D8A427D0F4
:10B2A8003D50D8A4120001D01200010E3D6E000ED0
:10B2B8000001A625D96E050E0001A721DA6E02C18C
:10B2C800DFFF0001A64BA72B0001A7BF0DD000018F
:10B2D800A75105E1800E0001A65DD8A005D0000E9B
:10B2E8000001A76F000EA66F000E3D6E1200020E41
:10B2F8000101001901010111D8A427D03E50D8A49A
:10B30800120001D01200010E3E6EC90E0001A825E0
:10B31800D96E060E0001A921DA6E02C1DFFF000115
:10B32800A84BA92B0001A9BF0DD0800E0001A85D74
:10B33800010E0001A959D8A005D0000E0001A96F7F
:10B34800000EA86F000E3E6E1200040E01010019D7
:10B3580001010111D8A412000001AE51D8A41200B5
:10B3680001D01200010E0001AE6F000E0001A425ED
:10B37800D96E040E0001A521DA6E02C1DFFF0001BB
:10B38800A44BA52B0001A5BF0DD00001A55105E1D7
:10B39800270E0001A45DD8A005D0000E0001A56FFE
:10B3A800000EA46F000E0001AE6F12001200000123
:10B3B800600500016111D8A427D03D50D8A412001F
:10B3C80001D01200010E3D6E000E0001A625D96EB7
:10B3D800050E0001A721DA6E62C0DFFF0001A64B4F
:10B3E800A72B0001A7BF0DD00001A75105E1800ED2
:10B3F8000001A65DD8A005D0000E0001A76F000EC1
:10B40800A66F000E3D6E1200020E000160190001C9
:10B418006111D8A427D03E50D8A4120001D0120040
:10B42800010E3E6EC90E0001A825D96E060E000158
:10B43800A921DA6E62C0DFFF0001A84BA92B000129
:10B44800A9BF0DD0800E0001A85D010E0001A95909
:10B45800D8A005D0000E0001A96F000EA86F000E3D
:10B468003E6E1200040E0001601900016111D8A49B
:10B4780012000001AE51D8A4120001D01200010E32
:10B488000001AE6F000E0001A425D96E040E000164
:10B49800A521DA6E62C0DFFF0001A44BA52B0001D5
:10B4A800A5BF0DD00001A55105E1270E0001A45D3F
:10B4B800D8A005D0000E0001A56F000EA46F000EE5
:10B4C8000001AE6F120012000101126F0101120596
:10B4D800D8A416D0CECF13F10101146BCFCF15F13C
:10B4E8000101166B010115510101166F156B010160
:10B4F800135101011527010114510101162300D030
:10B50800030E01011219D8A416D0B2CF13F101010C
:10B51800146BB3CF15F10101166B0101155101012F
:10B52800166F156B01011351010115270101145103
:10B538000101162300D001010C510101D8A435D016
:10B5480015C10EF116C10FF101010E1F0F1F0E4B91
:10B558000F2BFF0E01010E250101106FFF0E0101D7
:10B568000F210101116F10C100F111C101F1010199
:10B57800026B036BE80E0101046F030E056F000EEA
:10B58800066F000E076FBCEC6DF0100E07D00101BE
:10B59800D89003330233010101330033E82EF7D783
:10B5A80000C10CF101C10DF1120015C10EF116C157
:10B5B8000FF101010E1F0F1F0E4B0F2BFF0E010184
:10B5C8000E2501010C6FFF0E01010F2101010D6F06
:10B5D800120012000001706F00017005D8A416D087
:10B5E800CECF73F00001746BCFCF75F00001766B8E
:10B5F800000175510001766F756B000173510001F0
:10B608007527000174510001762300D0030E000154
:10B618007019D8A416D0B2CF73F00001746BB3CFF1
:10B6280075F00001766B000175510001766F756B3E
:10B638000001735100017527000174510001762340
:10B6480000D000016C510001D8A435D075C06EF04F
:10B6580076C06FF000016E1F6F1F6E4B6F2BFF0ED1
:10B6680000016E250001716FFF0E00016F210001BE
:10B67800726F71C060F072C061F00001626B636B41
:10B68800E80E0001646F030E656F000E666F000E12
:10B69800676FF9EC6DF0100E07D00001D890633396
:10B6A8006233000161336033E82EF7D760C06CF075
:10B6B80061C06DF0120075C06EF076C06FF00001C9
:10B6C8006E1F6F1F6E4B6F2BFF0E00016E25000162
:10B6D8006C6FFF0E00016F2100016D6F12001200E8
:10B6E8000001C9510001D8A404D0010E0001C96F9E
:10B6F80000D0C9C007F1000E01010A6F5DD0000E2D
:10B708000101096F000E086F2CD001010A51010DCB
:10B71800F35001010025D96EF45001010121DA6EC0
:10B728000001C951010DF40EF324E16E030EF4205B
:10B73800E26EE7500101046F01010A51010DF35057
:10B7480001010025E16EF45001010121E26EE7508C
:10B758000101042501010A25DF6E0101084B092BAF
:10B7680000D00001C951010DF40EF324D96E030E67
:10B77800F420DA6EDF50070B0101046F056B01013D
:10B7880004510101085D01010951800A0101066F98
:10B7980001010551800A01010659D8A0B6D7000158
:10B7A800C92B070E0001C96504D0000E0001C96F3E
:10B7B80000D001010A2B00D001010A510101046FD8
:10B7C800056B010102510101045D01010551800A67
:10B7D8000101066F01010351800A01010659D8A031
:10B7E8008ED70101075112001200000E0101116FDE
:10B7F800000E0101106F000E0F6F000E0101136F94
:10B80800000E126F000E0101006F040EA0EC71F023
:10B81800000E0101136F000E126F000E0101116F6F
:10B82800090E0101116501D023D07FEC77F000D01B
:10B8380009EC77F00009D8A4FBD7C4500101106FB8
:10B848000F6BC35001010F13040E0101116509D0DC
:10B8580001010F51010112270101105101011323A8
:10B8680000D00A0EE82EFED700D00101112BD8D740
:10B8780012C106F113C107F1000E0101096F050E8F
:10B88800086F81EC6CF006C112F107C113F1020ECA
:10B898000101006F040EA0EC71F0C29012C100F11A
:10B8A80013C101F1000E0101036F070E026F5EEC78
:10B8B80073F000C106F101C107F1000E0101096F23
:10B8C800060E086F81EC6CF006C112F107C113F186
:10B8D8000101D5510101125F000E0101D5BFFF0E14
:10B8E8000101135B12C10DF113C10EF11200120018
:10B8F800000E0101096F010103AF0DD00101031F03
:10B90800021F011F006D000E012302230323010EF5
:10B918000101096F00D0010107AF0AD00101071F1B
:10B92800061F051F046D000E05230623072300D0FC
:10B93800010104510101051101010611010107115D
:10B94800D8B43FD0010E0101086F09D00101D89089
:10B9580004370537063707370101082B00D00101E6
:10B9680007BF02D0F3D700D0010104510101005DE7
:10B978000101055101010159010106510101025955
:10B988000101075101010359D8A011D00101045147
:10B998000101005F010105510101015B010106512F
:10B9A8000101025B010107510101035B00D00101A4
:10B9B800D89007330633053304330101082FD4D751
:10B9C80000D0010109510101D8B40AD00101031FB7
:10B9D800021F011F006D000E01230223032300D064
:10B9E80000C100F101C101F102C102F103C103F17B
:10B9F800120012000101096F000E01010A6F0F0108
:10BA08005A99000E0001CB6F000E0001D46F000E92
:10BA18000001CE6F000E0001CF6F000E486E000EC1
:10BA28003A6E200E0101BC6F000E02016B6F000E12
:10BA38000001C76F000E0101D66F000E4D6E000E9B
:10BA4800466E8986050E0101076F260EE82EFED781
:10BA5800072FFCD700D08996680E0101076FE40E06
:10BA6800E82EFED7072FFCD700D0000E0101046F87
:10BA780001010951D9EC49F0000E01010A6F1F0EAE
:10BA880001010A6501D015D001010A51010DAF0E5F
:10BA9800F324D96E020EF420DA6EDF500101026F32
:10BAA80001010A51020DF350B1EC73F001010A2BA8
:10BAB800E6D70001B55160EC76F0F29600F00F0180
:10BAC8005A8900F081CF08F100F0F290F28609C19E
:10BAD8004FF0150E0101076FC60EE82EFED7072F8F
:10BAE800FCD700D00FEC76F0010E0001D06F000EED
:10BAF8000001D26F12000101086FFA0E01010861FE
:10BB080078D008C109F101010A6B09C106F10AC11F
:10BB180007F10101D890063707370101D890063799
:10BB2800073706C109F107C10AF104C1D9FF05C1E8
:10BB3800DAFF09C102F10AC103F1F3EC76F0010161
:10BB4800076FDE5001010719D8A451D0010120EE7A
:10BB580001F00451D9260551DA22010E0101092507
:10BB68000101026F000E01010A210101036FF3ECCC
:10BB780076F00101076FDE5001010719D8A437D00C
:10BB8800010120EE02F00451D9260551DA22020EF5
:10BB9800010109250101026F000E01010A210101BD
:10BBA800036FF3EC76F00101076FDE50010107190E
:10BBB800D8A41DD0010120EE03F00451D926055167
:10BBC800DA22030E010109250101026F000E0101AD
:10BBD8000A210101036FF3EC76F00101076FDE50D3
:10BBE80001010719D8A403D0010E120000D0000EDD
:10BBF8001200000E12001200010E0001D06F000E9C
:10BC0800F2EC75F0000E0001D26FFF0E54EC71F0EB
:10BC1800000E60EC76F0080E23EC77F0E5C1D7F063
:10BC2800E6C1D8F0E7C1D9F0E8C1DAF0D0C02FF109
:10BC38006AEC77F0030E0101016FEF0E006F5EEC06
:10BC480077F00101026FEAEC71F06AEC77F0030E0D
:10BC58000101016FFC0E006F62EC77F00101026FC9
:10BC6800EAEC71F06AEC77F0030E0101016FFD0E4A
:10BC7800006F2FC102F1EAEC71F06AEC77F0030E65
:10BC88000101016FFE0E006FC8C002F1EAEC71F00D
:10BC98006AEC77F0030E0101016FE80E006FFF0EEA
:10BCA8000101026FEAEC71F06AEC77F0030E010112
:10BCB800016FE90E006FFF0E0101026FEAEC71F0EF
:10BCC8006AEC77F0030E0101016FEA0E006FFF0EB8
:10BCD8000101026FEAEC71F06AEC77F0030E0101E2
:10BCE800016FEB0E006FFF0E0101026FEAEC71F0BD
:10BCF800120001011F6FFA0E01011F614FD01B0EC8
:10BD080001010C6F010E01010D6F01011F51D6ECED
:10BD180066F01B0E0101066F010E0101076F14C1C9
:10BD280008F115C109F1040E01010A6F7AEC71F0EE
:10BD380001011F51020DC90EF324D96E080EF4201B
:10BD4800DA6EDF503F0B01011A6F01011A51060D1F
:10BD5800BD0EF3240101066F0A0EF4200101076FDE
:10BD680016C108F117C109F1040E01010A6F7AEC36
:10BD780071F001011F51020D010EF326000EF4228D
:10BD8800C90EF324D96E080EF420DA6EDF501F0BAB
:10BD980018C1D9FF19C1DAFFDF6E1200E50E0101E3
:10BDA800066F010E0101076F14C108F115C109F1F1
:10BDB800040E01010A6F7AEC71F0E50E0101066FBD
:10BDC800010E0101076F16C108F117C109F1040E30
:10BDD80001010A6F7AEC71F018C1D9FF19C1DAFFB5
:10BDE800FF0EDF6E1200120001010D6F01010D51EF
:10BDF800B0EC74F00DC100F10101016B01010651B5
:10BE0800050F0101026F4EEC59F007C108F1060E4B
:10BE180001010827020E0101096F0101082B03D057
:10BE28000101D89009370101082FFAD701010951FA
:10BE380001010A6F0DC100F10101016B0AC102F194
:10BE48004EEC59F0000E01010B6F000E01010C6F52
:10BE580025D00DC100F10101016B01010C51010D4B
:10BE6800F35001010425D96EF45001010521DA6E61
:10BE7800DF500101026F4EEC59F001010C51010D28
:10BE8800F35001010425D96EF45001010521DA6E41
:10BE9800DF5001010B1B01010C2B00D001010651E1
:10BEA80001010C5DD8A0D5D70DC100F10101016BCE
:10BEB8000BC102F14EEC59F00DC100F10101016B0B
:10BEC8000D0E0101026F4EEC59F00DC100F1010198
:10BED800016B0A0E0101026F4EEC59F01200000EC0
:10BEE80001010A6F5ED0000E0101096F000E086F94
:10BEF8002DD001010A51010DF35001010025D96E21
:10BF0800F45001010121DA6E01010A51010DF350CB
:10BF180001010025E16EF45001010121E26EE750B4
:10BF28000101056F01010451010DF40EF324E16EC6
:10BF3800030EF420E26EE75001010A250008010112
:10BF48000525DF6E0101084B092B00D001010451C2
:10BF5800010DF40EF324D96E030EF420DA6EDF50CF
:10BF6800070B0101056F066B010105510101085D11
:10BF780001010951800A0101076F01010651800A78
:10BF880001010759D8A0B5D70101042B070E0101FB
:10BF9800046504D0000E0101046F00D001010A2BD2
:10BFA80000D001010A510101056F066B0101025120
:10BFB8000101055D01010651800A0101076F0101B8
:10BFC8000351800A01010759D8A08DD71200030E2A
:10BFD800010134250101386F000E010135210101ED
:10BFE800396F32C106F133C107F1D1EC67F00101B5
:10BFF800376F32C106F133C107F138C108F139C1D1
:10C0080009F1040E01010A6F7AEC71F0E90E0101E1
:10C01800066F010E0101076F040E010138250101A9
:10C02800086F000E010139210101096F040E010199
:10C038000A6F7AEC71F0020E0101C019D8A410D071
:10C0480038C104F139C105F101013651080F010168
:10C05800066F000E0101076F020EF8EC5EF000D0CB
:10C0680032C106F133C107F1E50E0101086F010E77
:10C078000101096F040E01010A6F84EC70F00009D8
:10C08800D8A40ED034C120F135C121F101013651B7
:10C09800080F0101226F37C123F16DEC56F0120031
:10C0A80034C12CF135C12DF101013651080F0101C0
:10C0B8002E6FDEEC51F01200120010C106F111C112
:10C0C80007F10EC108F10FC109F1040E01010A6F51
:10C0D8007AEC71F0E90E0101006F010E0101016FA8
:10C0E800000E0101026F0EC103F10FC104F1040E2D
:10C0F8000101056F040E0101066F03EC6AF00101EE
:10C1080020EE08F00E51D9260F51DA22030EDF6E09
:10C11800010120EE09F00E51D9260F51DA22000E46
:10C12800DF6E010120EE0AF00E51D9260F51DA22F6
:10C13800000EDF6EE90E0101006F010E0101016FB3
:10C14800000E0101026F0EC103F10FC104F10B0EC5
:10C158000101056F040E0101066F03EC6AF010C1BE
:10C1680000F111C101F1000E0101026F0EC103F1CE
:10C178000FC104F10F0E0101056F040E0101066FD6
:10C1880003EC6AF0010120EE13F00E51D9260F518D
:10C19800DA22000EDF6E1200010119510101175D4C
:10C1A80001011A5101011859D8B045D0010119519E
:10C1B80001011F6F01011A510101206F0101216B5B
:10C1C8000101226B01011F1F201F211F221F1F2B8E
:10C1D800000E2023212322230101175101011F25CD
:10C1E8000101236F01011851010120210101246F70
:10C1F800000E010121210101256F000E01012221FC
:10C208000101266F01011B51010123250101276F3F
:10C2180001011C51010124210101286F01011D5157
:10C22800010125210101296F01011E51010126216A
:10C2380001012A6F19D019C11FF11AC120F101019A
:10C248001F1F201F1F4B202B0101175101011F2702
:10C2580001011851010120231FC127F120C128F134
:10C268000101296B2A6B00D027C117F128C118F1E9
:10C27800120012000101126F010112510101D8A42C
:10C288000DD0D6CF13F10101146BD7CF15F111D012
:10C29800010115510101166F156B0ED0030E010136
:10C2A8001219D8A412D0B2CF13F10101146BB3CF75
:10C2B80015F10101166BECD7010113510101152786
:10C2C800010114510101162300D001010C51010193
:10C2D800D8A435D015C10EF116C10FF101010E1FFA
:10C2E8000F1F0E4B0F2BFF0E01010E250101106FC2
:10C2F800FF0E01010F210101116F10C100F111C1E1
:10C3080001F10101026B036BE80E0101046F030EDA
:10C31800056F000E066F000E076FBCEC6DF0100E77
:10C3280007D00101D89003330233010101330033F0
:10C33800E82EF7D700C10CF101C10DF1120015C1AB
:10C348000CF116C10DF11200000E0101056F01017B
:10C3580003AF09D00101026D031FD8B0032B010EF2
:10C368000101056F00D0010101AF09D00101006D85
:10C37800011FD8B0012B010E0101051B00D0000ED2
:10C388000101076F000E066F01010251010103113F
:10C39800D8B431D0010E0101046F07D00101D89043
:10C3A800023703370101042B00D0010103BF02D07B
:10C3B800F5D700D00101D89006370737010102519F
:10C3C8000101005D0101035101010159D8A00BD001
:10C3D800010102510101005F010103510101015BEB
:10C3E8000101068100D00101D89003330233010115
:10C3F800042FE0D700D0010105510101D8B406D0BF
:10C408000101066D071FD8B0072B00D006C100F147
:10C4180007C101F1120012000101026F010102516E
:10C42800060D050EF326000EF422BD0EF324D96E78
:10C438000A0EF420DA6EDE28D8A410D001010251C9
:10C44800060D050EF326000EF422BD0EF324D96E58
:10C458000A0EF420DA6E00C1DFFF1200010102515A
:10C46800060D050EF326000EF422BD0EF324D96E38
:10C478000A0EF420DA6E01010051DE5CD8B00FD04C
:10C4880001010251060D050EF326000EF422BD0E21
:10C49800F324D96E0A0EF420DA6EDF2A12000101A5
:10C4A8000251060D050EF326000EF422BD0EF324EC
:10C4B800D96E0A0EF420DA6EDE500101005DD8B0A4
:10C4C800120001010251060D050EF326000EF4229A
:10C4D800BD0EF324D96E0A0EF420DA6EDF061200C0
:10C4E800120000010203040A0B0C0D0E1415161796
:10C4F800181E1F20212228292A2B2C050607080987
:10C508000F10111213191A1B1C1D23242526272D61
:10C518002E2F30310031302F2E2D27262524231D94
:10C528001C1B1A19131211100F09080706052C2BCA
:10C538002A29282221201F1E18171615140E0D0C43
:10C548000B0A0403020100010203040A0B0C0D0E7E
:10C5580014151617181E1F20212228292A2B2C05EE
:10C56800060708090F10111213191A1B1C1D232482
:10C578002526272D2E2F30310031302F2E2D27261E
:10C588002524231D1C1B1A19131211100F09080743
:10C5980006052C2B2A29282221201F1E18171615BC
:10C5A800140E0D0C0B0A040302010000000E010119
:10C5B800086F000E096F000E0A6F000E0B6F010165
:10C5C8000451010105110101061101010711D8B437
:10C5D80047D0010E01010C6F09D00101D890043732
:10C5E80005370637073701010C2B00D0010107BFBB
:10C5F80002D0F3D700D00101D890083709370A379D
:10C608000B37010104510101005D010105510101D0
:10C6180001590101065101010259010107510101A6
:10C628000359D8A013D0010104510101005F010191
:10C6380005510101015B010106510101025B010184
:10C6480007510101035B0101088100D00101D89065
:10C65800073306330533043301010C2FCCD700D040
:10C6680008C100F109C101F10AC102F10BC103F1CE
:10C6780012001B6E4350D8B41FD01B50D8B40CD036
:10C68800FF0E34240E6EFF0E35200F6E040E106E52
:10C69800010EE2EC4CF00AD034C00EF035C00FF0B9
:10C6A800040E106E010EE2EC4CF000D0070E356E51
:10C6B8003468000E436E00D0010E0001A22500016F
:10C6C800A26FF80E0001A3210001A36F2C06D8A0C9
:10C6D8002D062C502D10D8A40ED0000E2D6E100E45
:10C6E8002C6E30C2A2F031C2A3F07F0E0201316F6E
:10C6F800F00E306F0BD02C042D10D8A407D0010EEB
:10C70800436EA2C034F0A3C035F000D00001C32BA3
:10C71800C80E0001C36504D0000E0001C36F00D02D
:10C728000201322904E102013329D8B412000201BE
:10C73800324B332B12001200000E0101156F000E50
:10C74800146F010115BF0AD0010115513CE10A0E11
:10C758000101145DD8B037D001D035D0F9EC5BF0C9
:10C768000DC1AAF00EC1ABF00001ABBF0ED0230E75
:10C778000001AA5D0C0E0001AB59D8A006D000013B
:10C78800AA51DE0F0101D52712D00001ABBF08D096
:10C798001C0E0001AA5D0C0E0001AB59D8B007D0E1
:10C7A8000001AA5100081C0F0101D55F00D0020E3C
:10C7B8000101016F8A0E006FBBEC6FF00101144B91
:10C7C800152BBFD700D00101D551800A9F0FD8A0E3
:10C7D80012000101D551800A600FD8B012006AEC2E
:10C7E80077F0030E0101016FF00E006FD5C102F161
:10C7F800EAEC71F01200120000018E6F8EC0D4F0C6
:10C80800D4C060F00001616B000E0001636F070E79
:10C81800626F73EC65F0000160510101C36F880E0F
:10C828000001D46504D0280E0001D46F1200000E58
:10C8380000016F6F000E0001706F3F0E0001716FF5
:10C84800DA0E00018A6FFF0E00018B6F0001D451D0
:10C8580000018C6F8D6B00018A5100018C2700014B
:10C868008B5100018D2300018C1F8D1F8C4B8D2B4C
:10C87800640E00018C250001686F000E00018D21F7
:10C888000001696F0EEC72F068C06CF069C06DF061
:10C898006AC06EF07CEC50F06CC07BF06DC07CF030
:10C8A8006EC07DF084EC54F000017B51280F00012C
:10C8B800D46F12001200DBC200F1DCC201F1DDC24C
:10C8C80002F1DEC203F1DFC204F1E0C205F1E1C208
:10C8D80006F1E2C207F1BCEC6DF000C1DBF201C168
:10C8E800DCF202C1DDF203C1DEF2390E0201DB2700
:10C8F800300EDC23000EDD23000EDE23100E0101B6
:10C908000E6FDBC20FF1DCC210F1DDC211F1DEC225
:10C9180012F101010E6701D009D00101123512335D
:10C92800113310330F3301010E2FF3D7FF0E01011E
:10C938000F150101006F7F0E010110150101016F34
:10C94800000E010111150101026F000E01011215FF
:10C958000101036F0CC104F10DC105F10101066B62
:10C96800076B7CEC5CF000C10CF101C10DF1120009
:10C978001200000E0101106F000E0F6F000E010172
:10C98800126F000E116F000E0101006F0A0EA0EC6D
:10C9980071F0000E0101126F000E116F000E0101FF
:10C9A800136F090E0101136501D02AD07FEC77F0CF
:10C9B80000D009EC77F00009D8A4FBD7C4500101D6
:10C9C800106F0F6BC35001010F13040E01011365A3
:10C9D80014D0100E0101105DD8A006D0000E010180
:10C9E800106F000E0F6F00D001010F5101011127C8
:10C9F800010110510101122300D00101132BD1D7DD
:10CA080011C106F112C107F1000E0101096F050EEF
:10CA1800086F81EC6CF006C111F107C112F111C168
:10CA28000DF112C10EF112001200000E0101056F86
:10CA3800010101AF09D00101006D011FD8B0012B20
:10CA4800010E0101056F00D0010103AF06D00101FD
:10CA5800026D031FD8B0032B00D001010251010160
:10CA68000311D8B42BD0010E0101046F07D00101C6
:10CA7800D890023703370101042B00D0010103BF0E
:10CA880002D0F5D700D0010102510101005D01017A
:10CA9800035101010159D8A009D001010251010136
:10CAA800005F010103510101015B00D00101D89031
:10CAB800033302330101042FE6D700D001010551E9
:10CAC8000101D8B406D00101006D011FD8B0012BB7
:10CAD80000D000C100F101C101F112001200000EE6
:10CAE8000001656F000161AF09D00001606D611F31
:10CAF800D8B0612B010E0001656F00D0000163AF53
:10CB080006D00001626D631FD8B0632B00D000010E
:10CB1800625100016311D8B42BD0010E0001646F7B
:10CB280007D00001D890623763370001642B00D02A
:10CB3800000163BF02D0F5D700D0000162510001A7
:10CB4800605D0001635100016159D8A009D000015E
:10CB580062510001605F000163510001615B00D018
:10CB68000001D890633362330001642FE6D700D008
:10CB7800000165510001D8B406D00001606D611F45
:10CB8800D8B0612B00D060C060F061C061F01200C5
:10CB980012000EC100F10FC101F1000E0101026F78
:10CBA8000EC103F10FC104F1080E0101056F080E53
:10CBB8000101066F03EC6DF00009D8B412000EC134
:10CBC80000F10FC101F1080E0101026F0EC103F15E
:10CBD8000FC104F1100E0101056F080E0101066F67
:10CBE80003EC6DF00009D8B41200000E0101106FBB
:10CBF800070E0101106501D01DD06AEC77F0F40E24
:10CC0800010110250101006F0101016B030E0123D1
:10CC18000101105101010E25D96E0101000E01011B
:10CC28000F21DA6EDF500101026FEAEC71F00101A9
:10CC3800102BDED70EC100F10FC101F1B6EC69F07F
:10CC480012001200000E0101106F000E0F6F01019B
:10CC580010BF0AD0010110514AE1FA0E01010F5D1F
:10CC6800D8B045D001D043D00BC104F10CC105F1B7
:10CC780001010F517FEC5DF00009D8B433D00FC12A
:10CC88000DF110C10EF1D89001010D370E37010ECC
:10CC980001010D27000E0E23C90E01010D25D96EC5
:10CCA800080E01010E21DA6EDF501F0B1F0AD8B4DF
:10CCB80019D00FC10DF110C10EF1D89001010D3737
:10CCC8000E37010E01010D27000E0E23C90E0101BA
:10CCD8000D25D96E080E01010E21DA6EDF38E83213
:10CCE800070B120001010F4B102BB1D700D0000E1B
:10CCF80012001200EACF1FF0E1CF20F0E2CF21F0BE
:10CD0800D9CF22F0DACF23F0F3CF24F0F4CF25F0F7
:10CD1800F6CF26F0F7CF27F0F8CF28F0F5CF29F097
:10CD28009EB09DA022D09E90F80E2B6E000E2A6E0B
:10CD38002B50CF6ED3B603D0010E4C6E00D04C50A2
:10CD48003DEC63F0010E0101B86F0201722B000186
:10CD5800CB51D8B404D002013A4B3B2B06D0000E7D
:10CD680002013B6F000E3A6F00D029C0F5FF28C0C2
:10CD7800F8FF27C0F7FF26C0F6FF25C0F4FF24C040
:10CD8800F3FF23C0DAFF22C0D9FF21C0E2FF20C091
:10CD9800E1FF1FC0EAFF1EC0E9FF1DC0FBFF1CC06A
:10CDA800FAFF11000101106FFA0E010110613ED067
:10CDB80010C111F10101126B11C10EF112C10FF175
:10CDC8000101D8900E370F370101D8900E370F3771
:10CDD8000EC111F10FC112F1000E0101136F030E04
:10CDE8000101136502D01200120001011351010D57
:10CDF800F35001010C25D96EF45001010D21DA6EB2
:10CE080001011351010111250101026F000E0101F9
:10CE180012210101036FF3EC76F0DF6E0101132B91
:10CE2800030E01011365E1D712001200E50E01019E
:10CE3800066F010E0101076F0CC108F10DC109F160
:10CE4800040E01010A6F7AEC71F012001200010160
:10CE5800146F030E0101086F01011451060D050E30
:10CE6800F326000EF422BD0EF324D96E0A0EF42028
:10CE7800DA6EDF500DEC49F00101136F0101145116
:10CE8800060D040EF326000EF422BD0EF324D96E0F
:10CE98000A0EF420DA6EDF380F0BE5EC73F00101AF
:10CEA800135DD8B012D001011451060D040EF326FB
:10CEB800000EF422BD0EF324D96E0A0EF420DA6EA9
:10CEC800DF380F0BE5EC73F01200030E0101086F59
:10CED80001011451060D050EF326000EF422BD0EB5
:10CEE800F324D96E0A0EF420DA6EDF500DEC49F007
:10CEF800120012000EC106F10FC107F1E50E010183
:10CF0800086F010E0101096F040E01010A6F84EC1C
:10CF180070F00009D8A41200000E0101126F3E0E35
:10CF28000101126502D01200120001011251060D12
:10CF3800BD0EF3240101066F0A0EF4200101076FEC
:10CF48000EC108F10FC109F1040E01010A6F84EC4A
:10CF580070F00009D8B418D010C111F101011251B4
:10CF6800060D040EF326000EF422BD0EF324D96E2E
:10CF78000A0EF420DA6E0101113BDF50010111198C
:10CF88000F0B1119DF6E12000101122B3E0E010169
:10CF98001265CBD7120012001200000E01010E6FAD
:10CFA800000E0D6F010120EE03F00651D92607513E
:10CFB800DA22DF500101086F06C1D9FF07C1DAFF85
:10CFC800DF500101096F0A6B010120EE01F00651E3
:10CFD800D9260751DA22DF5001010B6F01010B51ED
:10CFE80001010927000E0A23010120EE02F0065173
:10CFF800D9260751DA22DF5001010C6F01010C51CB
:10D0080001010927000E0A23010108510101092520
:10D018000101006F0101000E01010A210101016FE8
:10D02800000E0101036FC90E026F19EC65F000C113
:10D038000DF101C10EF101010D51120012000101A3
:10D048002C6F01012C51FEEC5CF0000E0101C66F43
:10D05800000E0101DD6F010E0101F66F7F0E020166
:10D06800316FF00E306F7F0E0001A36FF00EA26FCC
:10D07800000E2D6E100E2C6E070E01010E6F0D693D
:10D08800040E01010F6F010E36EC48F0010E00018D
:10D09800A2250001A26FF80E0001A3210001A36FD1
:10D0A8002C06D8A02D06070E356E3468090ED2EC72
:10D0B80075F0000E01010D6F1E0E0C6F5FEC64F031
:10D0C8005A0E01010C250101266F000E01010D21E8
:10D0D8000101276F010E0101286F0E0EB1EC6BF0F4
:10D0E8001200100E0101446F18C10BF119C10CF1A7
:10D0F800400E01010D6F010E01010E6FC8EC42F0E8
:10D108001D0E01011A6F2E0E01011B6F460E010143
:10D118001C6F480E01011D6F430E01011E6F010EA9
:10D128000101066F000E076F020E086F000E096FEF
:10D138000B0E01010A6F000E0B6F000E0C6F000E34
:10D148000D6F1F0E01010E6F010E01010F6F68ECCC
:10D1580069F018C10EF119C10FF11A0E0101106F13
:10D16800010E0101116F44C112F1000E0101136F8C
:10D17800010E0101146F000E0101156F5DEC47F0FF
:10D1880012001200100E0101446F18C10BF119C1F1
:10D198000CF1400E01010D6F010E01010E6FC8EC7C
:10D1A80042F01D0E01011A6F2A0E01011B6F410E7C
:10D1B80001011C6F530E01011D6F460E01011E6F08
:10D1C800010E0101066F000E076F020E086F000EB8
:10D1D800096F0B0E01010A6F000E0B6F000E0C6F2A
:10D1E800000E0D6F1F0E01010E6F010E01010F6F72
:10D1F80068EC69F018C10EF119C10FF11A0E01019E
:10D20800106F010E0101116F44C112F1000E0101EE
:10D21800136F010E0101146F000E0101156F5DEC13
:10D2280047F012001200000E0101126F000E116F7C
:10D23800000E0101106F000E0F6F000E0101136F39
:10D24800090E0101136501D02AD07FEC77F000D0D8
:10D2580009EC77F00009D8A4FBD7C4500101126F7C
:10D26800116BC35001011113040E0101136514D091
:10D27800100E0101125DD8A006D0000E0101126F38
:10D28800000E116F00D00101115101010F2701019A
:10D2980012510101102300D00101132BD1D70FC166
:10D2A80006F110C107F1000E0101096F050E086FA4
:10D2B80081EC6CF006C10FF107C110F10FC10DF13F
:10D2C80010C10EF112001200000E0101106F000EC5
:10D2D800116F000E126F000E136F899E030E38EC4B
:10D2E80075F00101085138EC75F00101075138EC6F
:10D2F80075F00101065138EC75F0000E0101106F50
:10D30800000E116F000E126F000E136F17D001017F
:10D31800105101010E25D96E0101115101010F2192
:10D32800DA6E46EC76F001010051DF6E010E010164
:10D338001027000E11231223132300D001010A51D4
:10D348000101105D01010B510101115901010C513D
:10D358000101125901010D5101011359D8A0D7D764
:10D36800898E1200000E0101036F070E010103658B
:10D3780001D019D001010351010DF350010100251D
:10D38800D96EF45001010121DA6E01010351010D3A
:10D39800F40EF324E16E030EF420E26EDFCFE7FF14
:10D3A8000101032BE2D7000E0101036F070E0101F3
:10D3B800036502D01200120001010351010DF35060
:10D3C80001010025D96EF45001010121DA6EDE2831
:10D3D800D8A409D0070E01010319D8A408D0000E5B
:10D3E8000101C86F04D0010E0101C86F12000101CC
:10D3F800032B070E01010365DFD712001200000E90
:10D4080001010D6F3FD0010102510DC107F101016A
:10D41800086B01010727000E082300C109F101C1AB
:10D428000AF1010107510101092701010851010110
:10D438000A2309C1F6FF0AC1F7FF000EF86E0101C1
:10D4480005510DC10BF101010C6B01010B27000EF9
:10D458000C2301010B5101010325D96E01010C5167
:10D4680001010421DA6E0E0EF76403D00800F550AE
:10D4780005D0F6CFE9FFF7CFEAFFEF50DF6E0101E5
:10D488000D2B00D00101065101010D5DD8A0BBD7BD
:10D498001200D3EC76F0899E020E38EC75F001018B
:10D4A800075138EC75F00101065138EC75F00101AF
:10D4B800055138EC75F0000E01010F6F000E106F6A
:10D4C800000E116F000E126F15D001010F510101EE
:10D4D8000925D96E0101105101010A21DA6EDF50C8
:10D4E80038EC75F0010E01010F27000E10231123EF
:10D4F800122300D001010B5101010F5D01010C51F4
:10D508000101105901010D510101115901010E517B
:10D5180001011259D8A0D9D7898EAFEC76F0120044
:10D528001200040E01010E250101066F000E010113
:10D538000F210101076F10C108F111C109F1040E93
:10D5480001010A6F7AEC71F0E3EC76F002C1D9FFC1
:10D5580003C1DAFF12C1E1FF13C1E2FFDFCFE7FF2A
:10D568000EC106F10FC107F1E50E0101086F010EAA
:10D578000101096F040E01010A6F84EC70F00009C3
:10D58800D8A412D00EC106F10FC107F1E90E0101AE
:10D59800086F010E0101096F040E01010A6F84EC86
:10D5A80070F00009D8B402D0010E1200000E12006B
:10D5B8001200000E0001C46F3E0E01010861120046
:10D5C800200E05EC57F0800E05EC57F001010851CC
:10D5D800020F9BEC76F00001B5519BEC76F0000E43
:10D5E8000101096F21D001010951010DF350010119
:10D5F8000625D96EF45001010721DA6EDF500001CB
:10D60800C4190001C46F01010951010DF350010152
:10D618000625D96EF45001010721DA6EDF509BEC24
:10D6280076F00101092B00D0010108510101095DC3
:10D63800D8A0D9D70001C4519BEC76F01200120093
:10D6480001010B6FFA0E01010B6112000BC10CF105
:10D6580001010D6B0CC109F10DC10AF10101D8904E
:10D6680009370A370101D89009370A3709C10CF17F
:10D678000AC10DF1000E01010E6F030E01010E65C6
:10D6880002D01200120001010E5101010C25010106
:10D69800046F000E01010D210101056F01010E51FA
:10D6A800010DF35001010725D96EF450010108213D
:10D6B800DA6EDF500101066F01EC76F001010E2BE6
:10D6C800030E01010E65DFD712001200120090EC64
:10D6D80076F00101046F0001CE51D8A41CD00101DD
:10D6E8000429D8A403D004C1CFF007D0010104292C
:10D6F8000001CF6F0001CF05486E400E0001CF65D5
:10D708000AD0400E0001CF6F0001CF05486E010E10
:10D7180002016D6F00D00001CF510001CE5DD8B07D
:10D728000ED00001CE51010DA70EF324D96E040EC0
:10D73800F420DA6E04C1DFFF0001CE2B00D0000117
:10D74800CF510001CE19D8A412000001CF51D8B48E
:10D758001200010E3A6E1200120001012B6F010136
:10D7680026291DE101012729D8A419D001012B512F
:10D77800020D000EF324D96E020EF420DA6EFF0EAD
:10D78800DE6EFF0EDD6E01012B51010D000EF3243C
:10D79800D96E030EF420DA6E28C1DFFF1200010EE5
:10D7A800010126250101296F000E01012721010130
:10D7B8002A6F01012B51020D000EF324D96E020EBF
:10D7C800F420DA6E29C1DEFF2AC1DDFF01012B51E9
:10D7D800010D000EF324D96E030EF420DA6E28C171
:10D7E800DFFF12001200000E096E000E0A6E000E16
:10D7F8000B6E000E0C6E0550061007100810D8B4FA
:10D808002FD0010E0D6E07D0D89005360636073694
:10D8180008360D2A00D008BE02D0F6D700D0D8901E
:10D8280009360A360B360C360550015C065002588C
:10D838000750035808500458D8A00AD00550015E74
:10D848000650025A0750035A0850045A098000D05B
:10D85800D89008320732063205320D2EE0D700D0B4
:10D8680009C001F00AC002F00BC003F00CC004F0BC
:10D8780012000101046F04C1D5F06AEC77F0030EC1
:10D888000101016FEC0E006FD5C002F1EAEC71F0F6
:10D898000001D5510001D35DD8B014D04450D8A4AC
:10D8A80005D0000E0001AD6F000EAC6F010E446E86
:10D8B800E3C1C5F00001C551D8A41200060E00014D
:10D8C800C56F12000001D3510001D55DD8B0120018
:10D8D8004450D8B405D0000E0001AD6F000EAC6FF7
:10D8E800000E446EE4C1C5F00001C551D8A4120071
:10D8F800060E0001C56F12001200000E01010C6F28
:10D90800000E0B6F0101085101010911D8B431D083
:10D91800010E01010A6F07D00101D89008370937B5
:10D9280001010A2B00D0010109BF02D0F5D700D0B0
:10D938000101D8900B370C37010108510101065D30
:10D948000101095101010759D8A00BD00101085163
:10D958000101065F010109510101075B01010B810A
:10D9680000D00101D8900933083301010A2FE0D70C
:10D9780000D00BC106F10CC107F11200000E000126
:10D98800666F000E656F0001625100016311D8B423
:10D9980031D0010E0001646F07D00001D8906237C2
:10D9A80063370001642B00D0000163BF02D0F5D7B4
:10D9B80000D00001D8906537663700016251000138
:10D9C800605D0001635100016159D8A00BD00001CE
:10D9D80062510001605F000163510001615B000159
:10D9E800658100D00001D890633362330001642F51
:10D9F800E0D700D065C060F066C061F01200000E8C
:10DA080001010D6F31D0010105510DC107F101016F
:10DA1800086B01010727000E0823010107510101C6
:10DA28000325D96E0101085101010421DA6E0101B3
:10DA380002510DC10AF101010B6B01010A27000E09
:10DA48000B2301010A5101010025E16E01010B516F
:10DA580001010121E26EDE50E618D8B402D0000EB2
:10DA6800120001010D2B00D00101065101010D5DCD
:10DA7800D8A0C9D7010E12001200000E0101116FC3
:10DA8800000E106F010111BF0AD00101115130E1E0
:10DA98003F0E0101105DD8B02BD001D029D010C1A4
:10DAA80000F111C101F1000E0101036F060E026FB2
:10DAB8005EEC73F0BD0E010100250101066F0A0E30
:10DAC800010101210101076F0EC108F10FC109F120
:10DAD800040E01010A6F84EC70F00009D8B403D079
:10DAE8000101105112000101104B112BCBD700D0AE
:10DAF800FF0E12001200120E01010E6F010E01013D
:10DB08000F6FD70E0101106F000E0101116F61EC4C
:10DB180060F0000E0101266F830E0101006FFE0EFA
:10DB28000101016F000E0101026F120E0101036F66
:10DB3800010E0101046F150E0101056F240E01018C
:10DB4800066F03EC6AF00101C851300F01014B6FF9
:10DB5800120E0101046F010E0101056F3A0E010159
:10DB6800066F000E0101076F020EF8EC5EF012005E
:10DB7800000E0101086F000E096F000E0A6F000EFB
:10DB88000B6F00D0010100A111D001010451010166
:10DB9800082701010551010109230101065101016D
:10DBA8000A230101075101010B2300D00101D8907C
:10DBB80004370537063707370101D8900333023396
:10DBC800013300330101005101010111010102116A
:10DBD80001010311D8A4D6D708C100F109C101F188
:10DBE8000AC102F10BC103F11200000E0001686FB7
:10DBF800000E696F000E6A6F000E6B6F00D0000197
:10DC080060A111D00001645100016827000165512D
:10DC1800000169230001665100016A230001675170
:10DC280000016B2300D00001D89064376537663750
:10DC380067370001D8906333623361336033000182
:10DC48006051000161110001621100016311D8A443
:10DC5800D6D768C060F069C061F06AC062F06BC076
:10DC680063F0120001010251010100250101086F52
:10DC780001010351010101210101096F08C10AF1E4
:10DC880009C10BF101010C6B0D6B10D0010104519E
:10DC980001010A5F0101055101010B5B01010651F8
:10DCA80001010C5B0101075101010D5B01010451E8
:10DCB80001010A5D0101055101010B5901010651DC
:10DCC80001010C590101075101010D59D8B0DED7E6
:10DCD8000AC100F10BC101F11200060E0101446FE7
:10DCE80018C10BF119C10CF1400E01010D6F010EA5
:10DCF80001010E6FC8EC42F01F0E01011A6F2A0EC7
:10DD080001011B6F530E01011C6F460E01011D6FAF
:10DD1800540E01011E6FF7C11FF118C10EF119C190
:10DD28000FF11A0E0101106F010E0101116F44C1AC
:10DD380012F1000E0101136F010E0101146F000EA4
:10DD48000101156F5DEC47F012001200000E010191
:10DD58001B6F830E0101006FFE0E0101016F000EA3
:10DD68000101026F1B0E0101036F010E0101046F17
:10DD7800010E0101056F240E0101066F03EC6AF024
:10DD88000101C851300F0101406F18C10EF119C1CE
:10DD98000FF11B0E0101106F010E0101116F260E0C
:10DDA8000101126F000E0101136F1AC114F1000E68
:10DDB8000101156F5DEC47F0120012003D0E0101E4
:10DDC800536F14C116F115C117F114C100F115C133
:10DDD80001F1000E0101036F380E026F5EEC73F063
:10DDE800010100C106F1010101C107F10101086B40
:10DDF800096B380E01010A6F000E0B6F000E0C6FD5
:10DE0800000E0D6F180E01010E6F010E01010F6F4C
:10DE180068EC69F0160E0101066F010E0101076F2B
:10DE280053C108F1DDEC6AF012000101046F010131
:10DE38000451020D000EF324D96E020EF420DA6E9E
:10DE4800DE50DE10D8B418D001010451020D000EC6
:10DE5800F324D96E020EF420DA6EDECF02F1DDCFA4
:10DE680003F1FF0E010102250101006FFF0E010100
:10DE780003210101016F120001010451020D000E7E
:10DE8800F324D96E020EF420DA6EDECF00F1DDCF76
:10DE980001F11200120001010F5101011011D8B453
:10DEA8002BD0010E0101116F07D00101D8900F3757
:10DEB80010370101112B00D0010110BF02D0F5D796
:10DEC80000D001010F5101010D5D01011051010147
:10DED8000E59D8A009D001010F5101010D5F0101B0
:10DEE800105101010E5B00D00101D89010330F339F
:10DEF8000101112FE6D700D00DC10DF10EC10EF1B1
:10DF080012000001695100016A11D8B42BD0010E2A
:10DF180000016B6F07D00001D89069376A3700019C
:10DF28006B2B00D000016ABF02D0F5D700D00001EA
:10DF380069510001675D00016A5100016859D8A064
:10DF480009D0000169510001675F00016A510001B1
:10DF5800685B00D00001D8906A33693300016B2FE9
:10DF6800E6D700D067C067F068C068F0120014D028
:10DF7800D00E0101026FCA0EE82EFED7022FFCD781
:10DF8800F60E010100250101006FFF0E01010121BC
:10DF98000101016F040000D001010151E9E10B0EFC
:10DFA8000101005DD8A010D0E3D70ED0150E0101F5
:10DFB800026FC60EE82EFED7022FFCD700D0010153
:10DFC8000007D8A001070400010100510101011157
:10DFD800D8A4ECD712000101026F3F0EC716000E3D
:10DFE800C66E01010251C61201010151C71205D0C6
:10DFF800C78C16D0C78CC68813D001010051000AFF
:10E00800D8B4F6D7020AD8B4F5D7010AD8B4F3D7EA
:10E0180007D09486928A0DD094860BD0949609D016
:10E0280001010251040AD8B4F4D7010AD8B4F4D7CC
:10E03800F5D79488949AC68A1200000E01010E6FD3
:10E048000101FE5126EC75F0040E01010C6F010E62
:10E0580068EC5AF00001A25101010C250101236F5F
:10E068000001A35101010D210101246F66EC77F035
:10E078000101206F23C122F1010124510101216F07
:10E08800200E0101176F010E0101186F030E010127
:10E09800196F010E01011A6F9EEC4AF012002CD084
:10E0A8004804D8A405D039EC76F002016B6F00D093
:10E0B8000001CF510001CE5DD8B00FD00001CE5184
:10E0C800010DA70EF324D96E040EF420DA6E90EC3D
:10E0D80076F0DF6E0001CE2B00D00001CF51000199
:10E0E800CE19D8A407D00001CF51D8B403D0010E5F
:10E0F8003A6E00D0480600D04850D8A4D1D71200B4
:10E10800000E01010D6F1FD001010D51010DF350DB
:10E1180001010825D96EF45001010921DA6E0101C7
:10E128000D51010DF35001010625E16EF450010176
:10E138000721E26EDE50E618D8B402D0000E1200B5
:10E1480001010D2B00D001010A5101010D5DD8A07C
:10E15800DBD7010E120012001D0E01011A6F250EE9
:10E1680001011B6FD7C01CF1D8C01DF1D9C01EF129
:10E17800DAC01FF1060E0101406F18C10EF119C176
:10E188000FF11A0E0101106F010E0101116F40C14C
:10E1980012F1000E0101136F010E0101146F000E40
:10E1A8000101156F5DEC47F0120012000101B85132
:10E1B800D8A412000101B951D8A412000101BB5121
:10E1C800D8A412000001CB51D8A412000001C751F5
:10E1D800D8A412000101D351D8A412004E50D8A4DB
:10E1E80012000101CF51D8A412003650D8A4120051
:10E1F8000101F351D8B4120032EC77F0120012008A
:10E208002A8C02020CC177643277623238F81180A6
:10E21800E938380700000507090CF2004010DC80D7
:10E22800FFFFFFFFFFFFFFFFFFFFFFFF01000000F1
:10E238006D4EC641170001000800FF00010101FFF3
:10E24800FFFFFFFFFFFFFFFFFFFFFFFFFFFFFFFFD6
:10E258002CC121F12DC122F13C0E0101236F010EC9
:10E268000101246F010E0101256FC8EC3AF02CC1A1
:10E278000EF12DC10FF141EC6DF001012F6F2AC194
:10E2880015F12BC116F12FC117F12EC118F1000E8F
:10E298000101196F010E01011A6FBBEC1DF012008C
:10E2A80001012C6F000E0101F56F2CC1C8F0000EA2
:10E2B80001012E6F3E0E2D6F2DC100F12EC101F10F
:10E2C800000E0101036F1E0E026F5EEC73F000C1B9
:10E2D8002DF101C12EF12DC126F12EC127F1000E1D
:10E2E8000101286F070EB1EC6BF01200000E01015E
:10E2F8000B6F1BD001010B51010DF35001010625D5
:10E30800D96EF45001010721DA6E01010B51010D9C
:10E31800F35001010825E16EF45001010921E26E74
:10E32800DFCFE7FF01010B2B00D001010A510101EA
:10E338000B5DD8A0DFD712000101026F00C101F107
:10E348000101013BC15001010119CF0B0119C16E37
:10E35800C196C190C192C19402C101F10101014766
:10E368000147C25001010119830B0119C26EC08611
:10E37800C088C08AC050F80B0609C06EC08EC28023
:10E388001200000E0101016F3E0E0101016501D06E
:10E398001AD001010151060D040EF326000EF422D5
:10E3A800BD0EF324D96E0A0EF420DA6EDF500F0B7F
:10E3B8000101006F020E0101006102D0010E12007E
:10E3C8000101012BE1D7000E12001200000E01011D
:10E3D800036F01010151030B756E00C174FF02C187
:10E3E80073FF7F9E7F9C7F84000EF2BE010E0101A9
:10E3F800036FF29E550E7E6EAA0E7E6E7F8200D04F
:10E408007FB2FED7010103B102D0F29E01D0F28E95
:10E418007F941200000E00016B6F000169AF09D0F4
:10E428000001686D691FD8B0692B010E00016B6F80
:10E4380000D068C060F069C061F00001626B8E0EA8
:10E448000001636F6BC064F0BEEC58F060C068F008
:10E4580061C069F062C06AF0120012001A0E010170
:10E46800006F010E0101016F89EC52F00101406F4C
:10E4780018C10EF119C10FF11A0E0101106F010E2A
:10E488000101116F40C112F1000E0101136F010E5D
:10E498000101146F000E0101156F5DEC47F01200C9
:10E4A800120093968A868986050E0101046F260E4E
:10E4B800E82EFED7042FFCD700D08996680E0101FC
:10E4C800046FE40EE82EFED7042FFCD700D06AECC8
:10E4D80077F0030E0101016FFE0E006FFF0E0101C0
:10E4E800026FEAEC71F012001D0E01011C6F1AC1D7
:10E4F8001DF11BC11EF1030E0101426F18C10EF17F
:10E5080019C10FF11C0E0101106F010E0101116FED
:10E5180042C112F1000E0101136F010E0101146FC7
:10E52800010E0101156F5DEC47F012000FC106F1F5
:10E5380010C107F1E90E0101086F010E0101096F11
:10E54800040E01010A6F7AEC71F00101E56901011D
:10E55800E6690101E7690101E869E90E0101066F51
:10E56800010E0101076FD1EC67F028EC77F012007B
:10E578000101016F010101510101D8B409D0000165
:10E58800D051D8B413D0899C8B94898012000ED0B6
:10E59800010100510101D8B409D00001D251D8B409
:10E5A80005D0898C8B948990120000D0899C8B842B
:10E5B800899012000001616F000161510001D8B417
:10E5C80009D00001D051D8B413D0899C8B9489808C
:10E5D80012000ED0000160510001D8B409D000012A
:10E5E800D251D8B405D0898C8B948990120000D070
:10E5F800899C8B84899012000101026F01010251EC
:10E60800020D000EF324D96E020EF420DA6EDE0439
:10E61800DE10D8A40FD001010251020D000EF32420
:10E62800D96E020EF420DA6E000EDE6E000EDD6E7C
:10E63800010E1200000E120012000101006F01010C
:10E6480000510101D8A409D0D59E000ED76E000E46
:10E65800D66E850ED56ED58E1200030E01010019F7
:10E66800D8A41200000EB36E000EB26E8C0EB16EFE
:10E67800A292A192B180120012000101046F01015F
:10E688000451D8090101056F05C102F13C0EB1EC36
:10E6980073F0C80E0101056F05C102F11A0EB1EC45
:10E6A80073F0000E0101056F05C102F13E0EB1ECD9
:10E6B80073F012000101005101010203F3CF04F1CC
:10E6C800F4CF05F10101005101010303F3500101E9
:10E6D80005270101015101010203F350010105273A
:10E6E80004C100F105C101F11200120000016051DE
:10E6F80000016203F3CF64F0F4CF65F000016051CC
:10E7080000016303F3500001652700016151000116
:10E718006203F3500001652764C060F065C061F0D2
:10E728001200120001012C6F01012C510101D8B413
:10E7380004D0010E0101F66F1200000E0101F66F00
:10E74800010E0101276F680E266F010E0101286F67
:10E758000F0EB1EC6BF0120012000101036F8994E7
:10E768000101035138EC75F0E40E00D000D0E82E1A
:10E77800FCD700D000D00101025138EC75F0E40E4E
:10E7880000D000D0E82EFCD700D000D08984120039
:10E79800000E01010C6F010E68EC5AF001010C1F0C
:10E7A80001010D1F01010C4B0D2B3E0E01010C2523
:10E7B8000101176F000E01010D210101186F1200F0
:10E7C80012000101006F060E0101006102D0000E67
:10E7D80003D001010051FB0F0101016F070E010178
:10E7E800016503D0070E0101016F010101511200FB
:10E7F8001200000E0101056F000E0101066F0BD01B
:10E808001C0E9BEC74F00101066F01010651020B0E
:10E818000101056F00D0010105510101D8B4F0D7FD
:10E8280012000101026F000E0101016F3A0E010191
:10E83800026108D02F0E0101026504D0010E01010A
:10E84800016F00D001C100F1010100311200120076
:10E85800000E0101276F010E266F010E0101286FBE
:10E86800020EB1EC6BF0000E0101276F010E266F4E
:10E87800010E0101286F030EB1EC6BF012000001CC
:10E88800626F000E0001616F3A0E0001626108D0EC
:10E898002F0E0001626504D0010E0001616F00D0E7
:10E8A80061C060F00001603112001200D3EC76F014
:10E8B800899E200E38EC75F00101075138EC75F08F
:10E8C8000101065138EC75F00101055138EC75F07D
:10E8D800898EAFEC76F0120008C100F109C101F190
:10E8E8000101026B8E0E0101036F000E0101046F1E
:10E8F8002EEC58F000C108F101C109F102C10AF17A
:10E90800120012000101006F080E0001CD61120013
:10E918000001CD51010D170EF324D96E030EF4201A
:10E92800DA6E00C1DFFF0001CD2B120012000101D9
:10E93800046F89940101045140090101046F010128
:10E94800045138EC75F046EC76F000C103F1898487
:10E9580001010351120012000101036F03C100F10C
:10E968000101016B240E0101026F4EEC59F003C145
:10E9780000F10101016B240E0101026F4EEC59F008
:10E9880012000001646F899400016451400900017C
:10E99800646F000164514AEC75F053EC76F060C086
:10E9A80063F0898400016351120012000101026FB3
:10E9B80001010251020D000EF324D96E020EF4205B
:10E9C800DA6EDE50DE10D8A402D0010E1200000E5E
:10E9D800120012004D2A4D504618D8A41200000EFD
:10E9E8000001C76F000E0001606F000EDEEC72F0D0
:10E9F800000E4D6E000E466E12001200020E01014E
:10EA08000C6F0AC10DF10BC10EF10D0E0101066F5D
:10EA1800010E0101076F0CC108F1DDEC6AF012006C
:10EA2800000E0101036F899E050E38EC75F046EC67
:10EA380076F0010100510101036F898E0101035134
:10EA48001200120001010F6F01010F514F18D8B4C5
:10EA5800120001D012000EC104F101010F51D9ECCE
:10EA680049F00FC14FF012000101016FC9CF00F149
:10EA78009E96C69E01C1C9FFC6BE120002D01200F2
:10EA880000D09EB61200FDD7120012000001616F7F
:10EA9800C9CF60F09E96C69E61C0C9FFC6BE12006F
:10EAA80002D0120000D09EB61200FDD7120012004C
:10EAB8000101036F0001B951D8B41200000E010121
:10EAC800016F020E006F03C102F14EEC59F0120003
:10EAD8001200FFC120F1200E0101176F010E010184
:10EAE800186F010E0101196F010E01011A6F9EECDA
:10EAF8004AF012000101066F01010651010B0001E5
:10EB0800D06F010106510E0B0101056F010105517E
:10EB1800F2EC75F01200D08EF290F28CF196F19230
:10EB28000F015A9F0F015A9D0F015A9B0F015A99C5
:10EB3800F286F190F28E12000001636F0001B95164
:10EB4800D8B41200000E0001616F020E606F63C03E
:10EB580062F0DBEC59F01200120000016251020170
:10EB6800DF27000163510201E02300016451020123
:10EB7800E123000165510201E22312000101046F43
:10EB88000001D151D8A404D00001BD51D8B412005D
:10EB9800010104515CEC75F0120012000101006FD4
:10EBA80001010051020D000EF324D96E020EF4206B
:10EBB800DA6E000EDE6E000EDD6E12000001646F6C
:10EBC8000001D151D8A404D00001BD51D8B412001D
:10EBD80000016451A0EC75F0120012000101046FED
:10EBE8000201C951F00B010104110201C96FC9C228
:10EBF80002F1340EB1EC73F01200010E0101DF6F67
:10EC08006AEC77F004C100F105C101F106C102F117
:10EC1800EAEC71F01200200E05EC57F0400E05ECFE
:10EC280057F0CAEC76F0FDEC73F0600E05EC57F087
:10EC380012000101006F00C1C6F10101005101017C
:10EC4800D8A41200010E0101F66F12001200010192
:10EC58000151030B756E00C174FF7F9C7F9E7F80FE
:10EC680000F000F07350120012003C0E9BEC74F0A0
:10EC78000101056F010105A102D0010E1200000E6D
:10EC880012001200C9CF02F19E96000EC96E00D084
:10EC98009EA6FED7C9CF00F10101016B1200C9CFB2
:10ECA80062F09E96000EC96E00D09EA6FED7C9CF10
:10ECB80060F00001616B12000101046F04C1B5F03E
:10ECC80004C1CCF2CCC202F13A0EB1EC73F01200DE
:10ECD8000101006F010100510101D8B402D09396DF
:10ECE80012009386120012000101006F0101005109
:10ECF8000101D8B402D08A8412008A94120012004A
:10ED0800010E0101276F2C0E266F010E0101286FDD
:10ED1800130EB1EC6BF012008984899246EC76F000
:10ED280000C103F18982010103511200120001019F
:10ED3800026F898489920101025138EC75F0898249
:10ED480012005228D8B402D0522A02D0000E526EB5
:10ED580052501200120000D014EC75F00101046F3B
:10ED6800010104B1F9D7120000D014EC75F00101CB
:10ED7800046F010104A3F9D712000101496F48C1CA
:10ED88002CF10101495143EC25F01200070E010155
:10ED9800046F04C102F11C0EB1EC73F01200899EDD
:10EDA800060E38EC75F0898EB8EC76F0120000C1CA
:10EDB800DBF201C1DCF20201DD6BDE6B1200EBEC71
:10EDC80076F000C102F101C103F112001200D40E65
:10EDD8000101006F000E0101016F1200120002C153
:10EDE80000F103C101F12BEC76F0120012000101D1
:10EDF800066F0101065102EC77F012000101056F60
:10EE08000101055160EC76F01200C2A202D0010E99
:10EE18001200000E1200120001080101FFFF3C0160
:10EE280001010119FF00070E0101016F00691200BD
:10EE38001200280EC5EC74F000EC64F01200010119
:10EE4800006F00C1F4F112000101006F00C1D0F1A0
:10EE58001200B2C100F1B3C101F11200D39ED18EEC
:10EE68000300040012000201C9510E0B1200120027
:10EE7800B2C160F0B3C161F0120077C0B2F178C0DE
:10EE8800B3F1120003FF41FF00C20100FFFFFFFFC3
:10EE9800FFFFFFFF52EC77F0120012000001BE5195
:10EEA800120012000101C651120012000201E751BE
:10EEB800120012000101F451120012000001B551B4
:10EEC800120012000001C3511200120000D07FB2DC
:10EED800FED712000001C351120012000001BE51FA
:10EEE800120012000403FFFFFFFFFA0E12001200C7
:0EEEF800000E12001200C28212001200120060
:10FE6A000001000A006400E80310270100100000E6
:10FE7A00010010000111100200656D57616C6C2CB5
:10FE8A00322E3139322C312E33312C322C312C3066
:10FE9A002C30303030303030303030302C003C456F
:10FEAA003E4E6F7420416C6C6F77656420746F20CE
:10FEBA0073656E643C2F453E004D6173743A203081
:10FECA00782530325825303258253032582530328C
:10FEDA0058200049443A20307825303258253032AB
:10FEEA0058253032582530325820003C453E73742C
:10FEFA006279207768696C6520696E743C2F453E8B
:10FF0A00003C453E476F696E6720746F2054583134
:10FF1A003C2F453E003C453E5265637620583220D0
:10FF2A00444154413C2F453E004669726D776172E7
:10FF3A00653A2076322E31393220003C453E5265F0
:10FF4A0063762058322042433C2F453E003C543EC3
:10FF5A00476574526566726573683C2F543E00307B
:10FF6A003132333435363738394142434445460015
:10FF7A0047726F75703A2030782530325820003C2D
:10FF8A00543E526566726573683C2F543E004E6F4C
:10FF9A0064653A203078253032582000436F723A2F
:10FFAA00202530325820004261743A2025303458D6
:10FFBA00200053533A202530325820005070723AAC
:10FFCA002025692000547970653A20003C2F44416D
:10FFDA003E003C2F55413E005744525354003C4486
:10FFEA00413E003C55413E0025632000424F5200ED
:06FFFA00504F5200000010
:020000040020DA
:08000000FFFFFFFFFFFFFFFF00
:020000040030CA
:0E0000001D981B36FF8980FF0FC00FE00F40D8
:00000001FF
