:040000000EEF00F00F
:0400080004EF04F00D
:100018000CEF04F086EF03F0000E276E000E036E5F
:10002800000E046E020E056E000E066E010E076EBF
:10003800000E086E000E096E000E0A6E270E0B6E7B
:10004800000E0C6E19EC02F02704D8A42FD1FF0E75
:100058001F6E000E206E000E216E000E226E000E26
:10006800236E000E246E000E256E000E266E000E06
:10007800036EF80E046E000E056E000E066E040E7A
:10008800076E000E086E000E096E000E0A6E1F0E37
:100098000B6E000E0C6E19EC02F0040E036EF80ED7
:1000A800046E000E056E000E066E040E076E000E3E
:1000B800086E000E096E000E0A6E230E0B6E000EFF
:1000C8000C6E19EC02F0000E306E000E286E080E51
:1000D800296E000E2A6E000E2B6E2B5067E12A0443
:1000E800D8B064D001D062D03050010D1B0EF3247B
:1000F800D96E000EF420DA6E000E2824036EF80E76
:100108002920046EFF0E2A20056EFF0E2B20066E96
:1001180036EC03F0DF6E3050010D1B0EF324D96E60
:10012800000EF420DA6EDF50166E16C017F0186A4B
:10013800196A1A6A1750235E1850245A1950255AFA
:100148001A50265A020E306421D030C016F0FD0E27
:100158001626030E1616D8A419D0FD0E166EFF0E1D
:10016800176E3050010D1650F3261750F4221B0E4F
:10017800F324D96E000EF420DA6EDE501F1ADE501A
:10018800201ADE50211ADD50221A00D0302A040E1F
:100198003018D8A402D0000E306E0400010E2826B4
:1001A800000E29222A222B2298D700D01F50201077
:1001B80021102210D8A47AD02350241025102610FC
:1001C800D8A474D0000E016E080E026E000E036EE5
:1001D800000E046EFF0E056EFF0E066E000E076E13
:1001E800000E086EDEEC01F0000E2C6E080E2D6E6F
:1001F800000E2E6E000E2F6E2F5055E12E04D8B033
:1002080052D001D050D0000E2C24036EF80E2D20B1
:10021800046EFF0E2E20056EFF0E2F20066E040EB4
:10022800076E000E086E000E096E000E0A6E1B0E99
:100238000B6E000E0C6E19EC02F02CC001F02DC0F4
:1002480002F02EC003F02FC004F0000E066E040E5C
:10025800056E1B0E076E000E086E5DEC01F00400C3
:100268002CC001F02DC002F02EC003F02FC004F006
:10027800290E056E000E066E000E076E000E086E43
:1002880053EC02F00150021003100410D8A403D05C
:100298006EEC03F000D0040E2C26000E2D222E2228
:1002A8002F22AAD700D0010E120000D0000E120093
:1002B8001200000E0D6E000E0E6E01C012F002C08C
:1002C80013F003C014F004C015F0060E096ED890A0
:1002D8000432033202320132092EF9D7060ED890C1
:1002E8000136023603360436E82EF9D7400E0126C9
:1002F800000E0222032204221250000801240D6E6F
:1003080054D012C00FF013C010F014C011F01FD059
:1003180007C0D9FF08C0DAFFDF500FC0F6FF10C0D2
:10032800F7FF11C0F8FFF56E0C00074A082A010E06
:100338000F26000E1022000E11220506D8A0060670
:1003480005500610D8B407D002D005D000D00D064D
:100358000D28D8A4DDD70FC00AF010C00BF011C0CB
:100368000CF012C00FF013C010F014C011F07F8E03
:100378007F9C7F84F2AE03D0F29E010E0E6E550E66
:100388007E6EAA0E7E6E7F827F940E50D8B403D004
:10039800F28E000E0E6E400E0D6E0A50126E0B504D
:1003A800136E0C50146E156A00D005500610D8A4B0
:1003B800A8D71200000E096E01C00AF002C00BF0A7
:1003C80003C00CF004C00DF025D00CC0F8FF0BC022
:1003D800F7FF0AC0F6FF7F8E7F9C7F847F88F2AE8E
:1003E80003D0F29E010E096E550E7E6EAA0E7E6E29
:1003F8007F820950D8B402D0F28E00D0400E0A2471
:100408000A6E000E0B200B6E000E0C200C6E000EF8
:100418000D200D6E05500A5C06500B5807500C58FD
:1004280008500D58D8A0D1D71200000E0D6E000E3E
:100438000E6E000E0F6E000E106E899E030E5DECA0
:1004480003F005505DEC03F004505DEC03F003503D
:100458005DEC03F0000E0D6E000E0E6E000E0F6EBA
:10046800000E106E10D00D500B24D96E0E500C20BB
:10047800DA6E7BEC03F0DF6E010E0D26000E0E2205
:100488000F22102200D007500D5C08500E5809505A
:100498000F580A501058D8A0E6D7898E1200055078
:1004A800061007100810D8B429D0010E096E07D01D
:1004B800D8900536063607360836092A00D008BE11
:1004C80002D0F6D700D00550015C065002580750FC
:1004D800035808500458D8A009D00550015E0650AA
:1004E800025A0750035A0850045A00D0D8900832CC
:1004F800073206320532092EE6D700D001C001F0D6
:1005080002C002F003C003F004C004F01200036E3E
:100518003F0EC716000EC66E0350C6120250C71211
:1005280005D0C78C15D0C78CC68812D00150000AD8
:10053800D8B4F7D7020AD8B4F6D7010AD8B4F4D792
:1005480007D09486928A0CD094860AD0949608D0C4
:100558000350040AD8B4F5D7010AD8B4F5D7F6D7AA
:100568009488949AC68A1200E3EC02F0000E016E99
:10057800800E026E020E8BEC02F093968A96010EA4
:10058800346E10EC00F000D04CEC03F00009D8A455
:1005980010D093968A86000E026EC80E016E0DEC7E
:1005A80003F09386000E026EC80E016E0DEC03F088
:1005B800F0D79386938600EF04F00EEF00F07C0EE0
:1005C800D36E9B8CD2909B8E200E926EBD0E936E36
:1005D800930E946E860E806E070E816E040E826EE8
:1005E800100E0F015D6F000E0F015C6FF19E0F0181
:1005F8005B810F015B930F015B950F015B970F0107
:100608005B990F015B9B0F015B9D0F015B9FD18085
:1006180012000FD0D00E036ECA0EE82EFED7032E9E
:10062800FCD7F60E0124016EFF0E0220026E0400B4
:1006380000D00250EFE10B0E015CD8A00ED0EAD733
:100648000CD0150E036EC60EE82EFED7032EFCD76F
:1006580000D00106D8A00206040001500210D8A458
:10066800F0D71200000E076E899E030E5DEC03F0B2
:1006780005505DEC03F004505DEC03F003505DECB5
:1006880003F07BEC03F0076E898E0750120012000E
:10069800000EF86E080EF76E000EF66E0800F5CF25
:1006A80001F00128D8A402D0000E1200010E120099
:1006B8001200026EC9CF01F09E96C69E02C0C9FF05
:1006C800C6BE120002D0120000D09EB61200FDD79E
:1006D800120012003450D8B404D09386000E346E41
:1006E800120093968A86010E346E12001200C9CF4A
:1006F80001F09E96000EC96E00D09EA6FED7C95086
:1007080012001200346A336A326A316A000EF86ED7
:060718000001B8EF02F041
:04080000EBEF04F026
:10080800FACF1CF0FBCF1DF0E9CF1EF072EF68F0B5
:10081800D8CF8FF0E8CF90F0E0CF91F0FACF92F0F8
:10082800FBCF93F0E9CF94F0EACF95F0E1CF96F0C3
:10083800E2CF97F0D9CF98F0DACF99F0F3CF9AF0CA
:10084800F4CF9BF0F6CF9CF0F7CF9DF0F8CF9EF059
:10085800F5CF9FF090D0000E0001A16FF2A08FD0CD
:1008680081CFA0F000F0F2900001A0A984D0600E22
:100878000001B719D8A466D00001CF51D8A43AD046
:100888000001CB51D8A436D088EC7AF00101F26F80
:10089800040E00016C6F010E70EC5CF06CC077F018
:1008A8006DC078F05EEC7AF0D3B606D001D004D0F3
:1008B800010E0101D36F00D03AEC7AF059EC7AF0CE
:1008C8000001A251000160270001A351000161232A
:1008D800000160C062F0000161C063F00001646B58
:1008E800656BCDEC78F0010E0101BE6F010E0001C1
:1008F800CF6F41D00001CB51D8B409D00B0E000105
:100908006C6FFF0E00016D6FC0EC36F034D08CECCC
:100918007AF00009D8B409D0450E00016C6FFF0EBB
:1009280000016D6FC0EC36F009D01F0E00016C6F2E
:10093800FF0E00016D6FC0EC36F000D0010E010112
:10094800BF6F19D0800E0001B719D8A406D0010EC8
:100958000101C06FF7EC77F00ED0200E0001B71937
:10096800D8A409D0F50E00016C6FFE0E00016D6F62
:10097800C0EC36F000D0010E0001A16F00D00001DC
:10098800A1510001D8A467D79FC0F5FF9EC0F8FF0A
:100998009DC0F7FF9CC0F6FF9BC0F4FF9AC0F3FF11
:1009A80099C0DAFF98C0D9FF97C0E2FF96C0E1FF6F
:1009B80095C0EAFF94C0E9FF93C0FBFF92C0FAFF1D
:1009C80091C0E0FF90C0E8FF8FC0D8FF1000F6EF9D
:1009D8005CF0000ED0B6010E0101F56F000ED0B22A
:1009E800010E0201FA6F000ED0B0010E0201F96F7C
:1009F800000E0001D06FADEC4CF0030E0101016F49
:100A0800E80E006FFCEC71F0030E0101016FF00EAF
:100A1800006F39EC79F00101D66F0101D629D8B4FD
:100A280004D0010E0101C76F00D000EC5EF006D0C3
:100A38008A94938654EC7AF000EC5EF00DC1ACF029
:100A48000EC1ADF000D00001ADBFF2D73E0E0001DF
:100A5800AC5D080E0001AD59D8A0EAD749EC75F095
:100A6800360E0101016FB00E006FFCEC71F0010150
:100A7800C7510101D8A40ED00001ADBF0BD0870E1D
:100A88000001AC5D0B0E0001AD59D8A003D094EC69
:100A980065F000D0000E0101006F000E0101016F2A
:100AA800020E30EC72F00400DCEC3DF00400E6C20B
:100AB80000F10101016BF8EC79F0ABEC78F0010E74
:100AC8000001C16F0101F5510101D8A413D0E20E54
:100AD8000101126FFF0E0101136F5CEC34F0000E80
:100AE8000101016F040E006F060E0101026FD0ECC8
:100AF8005AF02CD00201FA510201D8B418D00201E0
:100B0800F9510201D8A413D0F60E0101126FFF0E9D
:100B18000101136F5CEC34F0000E0101016F040E4B
:100B2800006F070E0101026FD0EC5AF00FD00201DE
:100B3800FA510201D8A40AD0FA0E0101126FFF0E71
:100B48000101136F5CEC34F0D08200D0000EB9ECD8
:100B58006AF0CF0E0101126FFF0E0101136F5CECFA
:100B680034F0830E0101126FFE0E0101136F5CEC6D
:100B780034F0F20E0101126FFF0E0101136F300EF7
:100B88000101CA250101146F0101156B000E15231F
:100B98005CEC34F0B10E0101126FFF0E0101136F0E
:100BA800ACC014F1ADC015F15CEC34F0DD0E010100
:100BB800126FFE0E0101136FE3C214F10101156BF0
:100BC800E4C216F10101176BE5C218F10101196BB6
:100BD800E6C21AF101011B6B5CEC34F0C30E010193
:100BE800126FFE0E0101136FF9C114F10101156BAB
:100BF800FAC116F10101176BFBC118F10101196B5C
:100C0800FCC11AF101011B6B5CEC34F0980E010178
:100C1800126FFF0E0101136F6CEC7AF00301EE6F97
:100C28000301EE510101146F156B5CEC34F07A0E80
:100C38000101126FFF0E0101136FCCC014F1010105
:100C4800156B5CEC34F0330E0101126FFF0E0101DD
:100C5800136F5CEC34F0A60E0101126FFF0E010158
:100C6800136FD6C114F10101156B5CEC34F0C60E9C
:100C78000101126FFF0E0101136F81BA02D0010E3C
:100C880001D0000E0101146F156B5CEC34F0E30E1B
:100C980001010F6F020E0101106F8EEC75F038EC38
:100CA8003FF01EEC77F0000E0101276F1E0E266F35
:100CB800010E0101286F040EA4EC6DF0000E050171
:100CC800D26F000E01010C6F000E0D6F020E0E6F39
:100CD800000E0F6F010E0101106F000E116F000E54
:100CE800126F000E136FD20E0101146F050E010171
:100CF800156F5BEC6BF00501D205D8A41ED0000E71
:100D08000501D26F000E0101056F000E066F020E7D
:100D1800076F000E086FD20E0101096F050E010161
:100D28000A6F010E01010B6F000E0C6F000E0D6FA4
:100D3800000E0E6F40EC6CF000D0E30E0101066F60
:100D4800020E0101076FE10E0101086F010E01019A
:100D5800096F040E01010A6F55EC73F00009D8B44D
:100D680003D00400FED700D035EC77F0000E000168
:100D7800C16F00D00101D8510101D8A46DEF0CF06A
:100D8800000E15EC76F00101DF510101D8B402D054
:100D9800FF0000D0000E0101E06F04000101BD5109
:100DA800D8B485D00001B751D8B41CD0BEEC76F0C9
:100DB80017C136F218C137F2020137510CE11F0E84
:100DC8000201365DD8B007D0000E01014A6F010E4E
:100DD800EAEC19F007D0000E01014A6F000EEAECA8
:100DE80019F000D00101F6510101D8B426D0F90E4E
:100DF80001010B6F010E01010C6FC30E01010D6F94
:100E0800050E01010E6F9DEC41F00301EE6F1F0E00
:100E18000301EE6112D0F90E0101186F010E0101F4
:100E2800196F000E01011A6F22EC71F00009D8B495
:100E380004D0000E0101F66F00D0000E0101BD6F55
:100E48003E0E24EC39F0E90E0101006F010E01019C
:100E5800016F62EC50F0C5EC48F07CEC7AF00009C8
:100E6800D8B425D00101F4510101D8B420D0010E25
:100E78000001C16FBC0E0101126FFF0E0101136F5B
:100E880000EC7AF002C1D9FF03C1DAFFDF50030199
:100E9800EE6F0301EE510101146F156B5CEC34F039
:100EA800000E0001C16F000E0101F46F00D0BEEC0E
:100EB80076F017C136F218C137F20201375105E151
:100EC800070E0201365DD8A02AD00201375127E16A
:100ED8001F0E0201365DD8B022D00101D551D8B419
:100EE8001ED0C90E01010E6F050E01010F6FB00E65
:100EF8000101106F030E0101116FC1C112F1000E43
:100F08000101136F010E0101146F000E0101156F2D
:100F180042EC46F000D0000E0101D56F00D001016F
:100F2800BF51D8B409D0000E0101BF6F200E87EC65
:100F380058F0600E87EC58F00001CF51D8B43AD081
:100F48004FEC7AF000C117F101C118F1040E01014C
:100F58000C6F010EEAEC5BF00CC119F10DC11AF12E
:100F680034EC7AF0010100C11BF1010101C11CF14F
:100F780001011D6B1E6B56EC62F017C1C7F518C155
:100F8800C8F54B0E0501C75D010E0501C859D8A06B
:100F980011D00101BE51D8B40AD00001CB51D8A458
:100FA80006D05EEC6DF0000E0101BE6F00D0C6ECFD
:100FB80072F000D0720E01010E6F030E01010F6F67
:100FC800EC0E0101106F010E0101116F8AEC43F064
:100FD8000009D8B452D0720E01012C6F030E010122
:100FE8002D6FECC12EF1D3C12FF1F2C130F101EC1C
:100FF8002CF00009D8B43AD0750E01010E6F030E1B
:1010080001010F6F910E0101106F020E0101116FA6
:10101800D00E0101126F050E0101136F88EC6CF000
:101028000009D8B423D00B0E0501CF6F910E010132
:101038008B6F020E01018C6F0501CF51010D720EED
:10104800F32401018D6F030EF42001018E6F050159
:10105800CF5100080101EC2501018F6FD0C590F137
:10106800000E0101916F76EC13F000D0000E000124
:10107800CF6F000E0101D36F00D0030E0101E919F3
:10108800D8A414D0030E0101EA19D8A40FD0000E79
:101098000101E96F000E0101EA6F030E0101006F03
:1010A800010E9AEC7AF00201498944D0020E01013E
:1010B800EA19D8A40CD0000E0101EA6F020E010152
:1010C800006F010E9AEC7AF00201498733D00101D2
:1010D800EA05D8A40CD0000E0101EA6F010E010147
:1010E800006F010E9AEC7AF00201498523D0020EB6
:1010F8000101E919D8A40ED0000E0101E96F86ECB0
:101108005FF0020E0101006F000E9AEC7AF0020106
:10111800498310D00101E905D8A40CD0000E0101C3
:10112800E96F010E0101006F000E9AEC7AF00201DE
:10113800498100D00101C051D8B42BD0000E010163
:10114800C06F800E0001B719D8A411D00101D75182
:101158000101D8A405D00101D8510101D8B407D0A4
:10116800000E87EC58F0000E0101D76F10D0800EEA
:101178000001B719D8A40BD00001CB51D8A407D0CF
:10118800200E87EC58F0600E87EC58F000D0040071
:1011980000D0000E0101016F010E006FEE0E01017B
:1011A800026F010E0101036FF4EC53F00009D8B48B
:1011B80008D0EEC100F1010E93EC7AF00101BC6F8A
:1011C80007D00101D151D8B403D00101D10700D013
:1011D8000101BC51D8B46BD104010151C00B050108
:1011E800D36F0501D345E846030B0501D36FED0E18
:1011F8000101126FFF0E0101136F5CEC34F0050161
:10120800D3510501D8A409D1000E0101C26F7CECAD
:101218007AF00009D8B43FD1000E0101006F040E26
:101228000101016F020E0101026FE10E0101036F5E
:10123800010E0101046F000E0101056F040E01018A
:10124800066F7BEC6FF00009D8B4BDD00A0E01011F
:10125800C16FE5C1B0F3E6C1B1F3E7C1B2F3E8C1CC
:10126800B3F31D0E0301B46F2B0E0301B56F02C457
:10127800B6F303C4B7F304C4B8F305C4B9F3010E55
:101288000001C16F0101EC51FA0F0101EC6F000E72
:101298000101016F020E006F240E0101026FD0ECF4
:1012A8005AF0000E0101016F020E006F240E0101B9
:1012B800026FD0EC5AF0000E0101016F020E006FB0
:1012C8000101EC51040F0101026FD0EC5AF0000E3D
:1012D8000101016F020E006F000E0101026FD0ECD8
:1012E8005AF0000E0501CD6F000E0501D16F22D016
:1012F800000E0101016F020E006F0501D151010DB1
:10130800B00EF324D96E030EF420DA6EDF5001011B
:10131800026FD0EC5AF00501D151010DB00EF32443
:10132800D96E030EF420DA6EDF500501CD1B0501DE
:10133800D12B00D0FF0E0301EE6FFF0E0301EF6FFC
:101348000101C1510301F06FF16B0301EE5103017B
:10135800F0270301EF510301F1230501D1510301E6
:10136800F26FF36B0301F0510301F25D0301F351D6
:10137800800A0301F46F0301F151800A0301F45953
:10138800D8A0B6D7000E0101016F020E006FCDC5BF
:1013980002F1D0EC5AF0000E0101016F020E006F4D
:1013A8000D0E0101026FD0EC5AF0000E0101016F21
:1013B800020E006F0A0E0101026FD0EC5AF0000E07
:1013C8000001C16F68D00101EB51F80F0101C16F35
:1013D800020E0301B06F000E0101006F040E01013F
:1013E800016F060E0101026FB00E0101036F030EBB
:1013F8000101046F010E0101056FC1C106F1F6EC90
:101408006BF002C4C9F503C4CAF504C4CBF505C41E
:10141800CCF5010E0101D56F3ED0020E0501D3199E
:10142800D8A439D0020E0101C26F7CEC7AF0000911
:10143800D8B431D0020E01010E6F040E01010F6FF6
:10144800BF0E0101106F050E0101116FCE0E0101D3
:10145800126F050E0101136F88EC6CF00009D8B407
:101468001AD0060E01018B6F040E01018C6F0A0E53
:1014780001018D6F040E01018E6F0101EB51F30F15
:1014880001018F6F280E0101906F010E0101916F0C
:1014980076EC13F000D0000E0101BC6FDC0E0101E8
:1014A800126FFF0E0101136F5CEC34F000D0010ED7
:1014B800F4EC75F00009D8B417D0050E0101276FB8
:1014C800A00E266F020E0101286F0C0EA4EC6DF021
:1014D8000D0EEEEC78F00101D7510101D8B404D01B
:1014E800000E0101D76F00D00A0EF4EC75F0000968
:1014F800D8B420D0F90E0101066F010E0101076F63
:10150800E10E0101086F010E0101096F040E0101CE
:101518000A6F55EC73F00009D8A40CD0F90E01013C
:10152800186F010E0101196F000E01011A6F78EC96
:1015380044F000D00B0EF4EC75F00009D8B415D0C7
:10154800000E0201276F000E266F000E0201296FA0
:10155800000E286F000E02013F6F000E3E6F000E56
:101568000201416F000E406F00D0000EF4EC75F0E0
:101578000009D8B404D0000E0201496F00D00B0E48
:10158800E3EC77F00009D8B40BD0050E0101276F02
:10159800A00E266F020E0101286F0B0EA4EC6DF051
:1015A8000A0EE3EC77F000D002011B5105E10B0EA7
:1015B80002011A5DD8A00CD0070E6EEC4DF0000E9B
:1015C8006FEC79F0000E02011B6F000E1A6F00D04D
:1015D8000101C651D8B40AD0000E01010D6F240EC6
:1015E8000C6F53EC66F00101C60700D0000E020133
:1015F800576F0C0EE3EC77F00009D8B40CD0050E49
:101608000101276FA00E266F020E0101286F0C0E34
:10161800A4EC6DF000D00101D451D8B41ED0050E51
:101628000101276FA00E266F020E0101286F0C0E14
:10163800A4EC6DF0000E0101D46F0001B751D8B4CD
:101648000CD00101C5510101D8A407D0000E010139
:10165800D76F0D0EEEEC78F000D0170EF4EC75F0A5
:101668000009D8B40ED0070EB9EC6AF0000E0101DB
:10167800276F0A0E266F020E0101286F170EA4ECC1
:101688006DF0170EE3EC77F00009D8B40BD0000E1C
:101698000101276F0A0E266F020E0101286F170E2F
:1016A800A4EC6DF00C0EF4EC75F00009D8B40BD076
:1016B800040E0101276FB00E266F010E0101286F7D
:1016C8000D0EA4EC6DF00D0EF4EC75F00009D8B415
:1016D8000BD0020E0101276F580E266F010E010173
:1016E800286F0C0EA4EC6DF0180EF4EC75F00009E0
:1016F800D8B413D0FA0E0001D06103D00001D02B6A
:1017080000D0000E0101276F0A0E266F020E01019C
:10171800286F180EA4EC6DF000D0180EE3EC77F0EB
:101728000009D8B40BD0000E0101276F0A0E266FEE
:10173800020E0101286F180EA4EC6DF0110EF4ECE6
:1017480075F00009D8B406D0010E0101DA6FFAEC81
:101758002EF000D0100EF4EC75F00009D8B41DD0AE
:101768007CEC7AF00009D8A418D00101F7510101E6
:10177800D8B404D0F7EC6FF0000E0CD0F90E0101CC
:10178800186F010E0101196F010E01011A6F78EC33
:1017980044F0010E0101F76F00D0100EE3EC77F072
:1017A8000009D8B40CD0000E0101276F1E0E266F59
:1017B800010E0101286F100EA4EC6DF000D000019D
:1017C800ADBF08D03E0E0001AC5D080E0001AD595A
:1017D800D8B00BD00101C5510101D8B452D00001D5
:1017E800B751D8B455D04DD053D00101C5510101DE
:1017F800D8B410D00101C5510101D8B439D00001C5
:10180800ADBF36D07D0E0001AC5D080E0001AD59AC
:10181800D8A02ED0000E0101C56F010E5AEC71F050
:101828000101005101010111D8B404D00CD030D00D
:1018380010D02ED00D0E5AEC71F0010100510101AB
:101848000111D8B40DD00001B751D8B421D001D0BE
:101858001FD00101D7510101D8A41AD015D018D032
:101868000001B751D8A414D0000EB9EC6AF010D01A
:101878000101C5510101D8B40BD00001B751D8B44A
:1018880007D0010E0101C56F010E0101D76F00D00D
:10189800040E01010C6F000E32EC63F00CC116F25D
:1018A8000DC117F2020116510201285D02011751FC
:1018B80002012959D8B009D00101E051D8A405D0B6
:1018C80016C228F217C229F200D0ABEC73F0BEEFB3
:1018D80006F099EC7AF00009D8B4BEEF06F054ECA3
:1018E8007AF0010E0101DF6FBEEF06F0EBEF04F0B6
:1018F8002DC121F12EC122F134C123F131C106F1EC
:1019080032C107F133C108F11DEC59F00101246F10
:10191800000E0101256F7AEC3CF00101576F2DC1D3
:1019280006F12EC107F12FC108F130C109F1040EEB
:1019380001010A6F23EC74F0010135510101D8A4AB
:1019480010D02DC106F12EC107F1EB0E0101086F71
:10195800020E0101096F040E01010A6F23EC74F0F5
:1019680000D0010E0101336573EF13F031C1D9FFC7
:1019780032C1DAFFDE04D8A41AD0050E010133659E
:1019880016D0F90E010133250101006F0101016B29
:10199800FF0E0123000E0101036F050E026F0DEC0F
:1019A80067F00101005101010111D8B40CD0000EFB
:1019B8000101276F0A0E266F020E0101286F170E0C
:1019C800A4EC6DF000D031C1D9FF32C1DAFFDE04DA
:1019D800D8A466D1050E0101336562D1F90E010163
:1019E80033250101006F0101016BFF0E0123000E79
:1019F8000101036F050E026F0DEC67F00101005144
:101A080001010111D8A44CD1FF0E0101366FFF0E60
:101A18000101376F010133510101386F396B010141
:101A280036510101382701013751010139230101DC
:101A3800385101013125D96E010139510101322195
:101A4800DA6E0001CC51DE18D8B424D0FF0E0101A3
:101A5800366FFF0E0101376F010133510101386FF5
:101A6800396B010136510101382701013751010154
:101A780039230101385101013125D96E010139514C
:101A880001013221DA6EDE28D8A473EF13F002D0F8
:101A980073EF13F0000E0101596F010E586FE7D074
:101AA800050E010158250101366F000E010159216B
:101AB8000101376F010133510101386F396B0101A1
:101AC80036510101385D01013951800A01013A6F2F
:101AD80001013751800A01013A59D8A082D0010189
:101AE80059BF7FD00101595105E1060E0101585D2A
:101AF800D8A077D031C100F132C101F158C102F14B
:101B0800400E0101036F010E0101046F000E010177
:101B1800056F040E0101066FF6EC6BF0040E01016F
:101B280058250101366F000E010159210101376F57
:101B38000101365101013125D96E010137510101E9
:101B48003221DA6EDF500101386F050E0101396F5D
:101B58000101D89038330101392FFAD701013851E2
:101B6800070B01014C6F040E010158250101366F66
:101B7800000E010159210101376F010136510101A0
:101B88003125D96E0101375101013221DA6EDF505A
:101B98001F0B0101546F1E0E0101546506D0000E83
:101BA80001014F6F1F0E4E6F0AD0010E010154251F
:101BB80001014E6F01014F6B000E4F2300D0400E04
:101BC8000101156F010E0101166F57C117F14EC1C2
:101BD80018F14CC119F1000E01011A6F50EC1EF0FA
:101BE8003CD00101580501015911D8A436D031C1A2
:101BF80000F132C101F1010E0101026FE50E010190
:101C0800036F010E0101046F000E0101056F040E40
:101C18000101066F7BEC6FF00009D8B41ED02DC10E
:101C28000EF12EC10FF1040E010158250101366F86
:101C3800000E010159210101376F010136510101DF
:101C48003125D96E0101375101013221DA6EDF5099
:101C58000101106F72EC69F000D0050E01015825E2
:101C68000101586F000E010159210101596F01014D
:101C780033510101366F376B010136510101585D4F
:101C880001015951800A0101386F01013751800A59
:101C980001013859D8B073EF13F002D773EF13F07E
:101CA80031C1D9FF32C1DAFF020EDE18D8A423D021
:101CB800010120EE02F03151D9263251DA22DE50EC
:101CC80002016419D8A473EF13F0000E02015B6FD0
:101CD800000E02018E6F020E02018F6F000E0101CD
:101CE800D96F510E0101346173EF13F0010E020137
:101CF800516F73EF13F031C1D9FF32C1DAFF020E11
:101D0800DF6473EF13F00B0E0101336573EF13F00B
:101D1800010E0101D46F000EA5EC76F0010120EE52
:101D280002F03151D9263251DA22DE50020164190B
:101D3800D8A40AD0000E02015B6F000E02018E6F5C
:101D4800020E02018F6F00D0010120EE01F0315127
:101D5800D9263251DA22DE5002016419D8A498D16A
:101D68005C0E0101006F020E0101016F000E0101FE
:101D7800026F31C103F132C104F1030E0101056F95
:101D8800040E0101066F7BEC6FF00009D8B480D116
:101D9800010120EE01F03151D9263251DA22DF500B
:101DA8000101BA6F010E0001BD6F2DC106F12EC1F0
:101DB80007F1DF0E0101086F020E0101096F040E21
:101DC80001010A6F23EC74F0010120EE07F0315194
:101DD800D9263251DA220101E551DE18D8A424D0DF
:101DE800010120EE08F03151D9263251DA220101E1
:101DF800E651DE18D8A418D0010120EE09F03151BF
:101E0800D9263251DA220101E751DE18D8A40CD0C4
:101E1800010120EE0AF03151D9263251DA220101AE
:101E2800E851DE18D8B434D131C1D9FF32C1DAFF54
:101E3800040EDE18D8B429D101D027D131C100F160
:101E480032C101F1030E0101026FE50E0101036FBA
:101E5800010E0101046F000E0101056F040E01015E
:101E6800066F7BEC6FF00009D8A40FD101D00DD11B
:101E7800010120EE0BF03151D9263251DA2202014C
:101E88009051DE5CD8B003D0000E1200FED0C1C263
:101E980050F1C2C251F1C3C252F1C4C253F131C1AF
:101EA80000F132C101F1070E0101026F440E010178
:101EB800036F010E0101046F000E0101056F040E8E
:101EC8000101066FF6EC6BF0440E01010B6F010E79
:101ED80001010C6F500E01010D6F010E01010E6F13
:101EE8009DEC41F001014D6F01015569500E010152
:101EF800066F010E0101076FE10E0101086F010E67
:101F08000101096F040E01010A6F55EC73F0000915
:101F1800D8A40AD0500E01010E6F010E01010F6FF7
:101F2800B9EC6FF00101556F5C0E0101066F020EEE
:101F38000101076FE70E0101086F020E0101096F29
:101F4800040E01010A6F23EC74F064C2DDF2C2ECE6
:101F580079F00201646F040E0201656F060E02013A
:101F68005B6F000E02018E6F020E02018F6F31C18E
:101F780000F132C101F1030E0101026F600E01018F
:101F8800036F020E0101046F000E0101056F040EBC
:101F98000101066FF6EC6BF0E50E0101066F010E0C
:101FA8000101076F5C0E0101086F020E0101096F44
:101FB800040E01010A6F23EC74F0000E0201906F09
:101FC8001D0E0201666F2B0E0201676F440E0101A0
:101FD800006F010E0101016F000E0101026F660E14
:101FE8000101036F020E0101046F020E0101056F6A
:101FF800040E0101066FF6EC6BF0500E0101006F44
:10200800010E0101016F000E0101026F660E010150
:10201800036F020E0101046F060E0101056F040E25
:102028000101066FF6EC6BF02DC100F12EC101F134
:10203800000E0101026F660E0101036F020E01011D
:10204800046F0A0E0101056F040E0101066FF6EC1C
:102058006BF04DC174F255C175F201015551060D71
:10206800040EF326000EF422BD0EF324D96E0A0ED8
:10207800F420DA6EDF500F0B0201766F110E0201A9
:102088008C6F000E0101D96F00D0000E120000D035
:1020980002015B51D8A408D00001BD51D8A404D0D6
:1020A80002018D51D8B44ED0600E0101066F020EA8
:1020B8000101076F030E010131250101086F000EB0
:1020C800010132210101096F040E01010A6F55EC6B
:1020D80073F00009D8B433D002015B51D8B42FD0C3
:1020E8000001BD51D8A42BD002018D51D8A427D00E
:1020F800010120EE01F03151D9263251DA220201D4
:10210800DD51DE18D8A41ED0E70E0101006F020EC3
:102118000101016F000E0101026F31C103F132C1EB
:1021280004F1030E0101056F040E0101066F7BEC3B
:102138006FF00009D8B406D0000E120003D0000ECC
:10214800120000D0010120EE07F03151D92632519A
:10215800DA220101E551DE18D8A424D0010120EECD
:1021680008F03151D9263251DA220101E651DE1840
:10217800D8A418D0010120EE09F03151D9263251E6
:10218800DA220101E751DE18D8A40CD0010120EEB3
:102198000AF03151D9263251DA220101E851DE180C
:1021A800D8B4D0D0010120EE0BF03151D9263251EC
:1021B800DA221F0EDE18D8A402D0000E12005C0E20
:1021C8000101066F020E0101076FE70E0101086F9A
:1021D800020E0101096F040E01010A6F23EC74F06D
:1021E80064C2DDF2010120EE01F03151D9263251ED
:1021F800DA22DF500201646F31C1D9FF32C1DAFF40
:10220800DF500201656F060E02015B6F000E0201CE
:102218008E6F020E02018F6F31C100F132C101F1E0
:10222800070E0101026F600E0101036F020E01012A
:10223800046F000E0101056F040E0101066FF6EC34
:102248006BF031C100F132C101F1030E0101026FDF
:102258005C0E0101036F020E0101046F000E010103
:10226800056F040E0101066FF6EC6BF0010120EE1C
:102278000BF03151D9263251DA22DF500101366F85
:10228800010136290201906F31C100F132C101F11B
:102298000C0E0101026F660E0101036F020E0101AF
:1022A800046F000E0101056F01013351F40F0101A4
:1022B800066FF6EC6BF001013351F40F02018C6FDD
:1022C800000E0101D96F010120EE01F03151D9262C
:1022D8003251DA22DF500101BA6F010E0001BD6FE1
:1022E8002DC106F12EC107F1DF0E0101086F020EA4
:1022F8000101096F040E01010A6F23EC74F02DC16E
:1023080021F12EC122F134C123F1010E0101246F04
:10231800010E0101256F7AEC3CF00101576F5C0E4C
:102328000101156F020E0101166F57C117F190C216
:1023380018F1000E0101196F010E01011A6F50EC1E
:102348001EF0CDD15C0E0101066F020E0101076F70
:10235800E70E0101086F020E0101096F040E010169
:102368000A6F23EC74F064C2DDF2010120EE01F083
:102378003151D9263251DA22DF500201646F31C15E
:10238800D9FF32C1DAFFDF500201656F000E02018A
:102398005B6F000E02018E6F020E02018F6F31C15A
:1023A80000F132C101F1070E0101026F600E010157
:1023B800036F020E0101046F000E0101056F040E88
:1023C8000101066FF6EC6BF031C100F132C101F189
:1023D800030E0101026F5C0E0101036F020E010181
:1023E800046F000E0101056F040E0101066FF6EC83
:1023F8006BF031C100F132C101F1030E0101026F2E
:102408002FC103F130C104F1000E0101056F040E64
:102418000101066FF6EC6BF0010120EE0BF0315173
:10242800D9263251DA22DF500101366F01013629EF
:102438000201906F31C100F132C101F10C0E0101AE
:10244800026F660E0101036F020E0101046F000E98
:102458000101056F01013351F40F0101066FF6EC1C
:102468006BF001013351F40F02018C6F010120EE72
:1024780001F03151D9263251DA22DF500101BA6F09
:10248800010E0001BD6F2DC106F12EC107F1DF0E4F
:102498000101086F020E0101096F040E01010A6FA4
:1024A80023EC74F0000E0101D96F2DC121F12EC16A
:1024B80022F134C123F1010E0101246F010E010143
:1024C800256F7AEC3CF00101576F5C0E0101156F26
:1024D800020E0101166F57C117F190C218F1000ED4
:1024E8000101196F010E01011A6F50EC1EF0090E5F
:1024F80002016519D8A405D0020167511FEC7AF0D2
:10250800EED002016639E842070B0101566F01015E
:1025180056510101D8B41ED00101CA51D8B41AD0FD
:102528000D0E010131250101006F000E010132215C
:102538000101016FF30E010133250101026F010151
:10254800036BFF0E032356C104F1F9EC60F0010E92
:102558001200C5D0010156510101D8A409D00101CA
:10256800CA51D8A405D0F3D703D0F1D71200B7D0F9
:10257800020166511F0B0C0AD8B4E9D70201665153
:102588001F0B1E0AD8A407D002016751D8A403D094
:10259800DED71200A4D0C5C248F1C6C249F1C7C2ED
:1025A8004AF1C8C24BF131C100F132C101F1070E45
:1025B8000101026F3B0E0101036F010E0101046F5F
:1025C800000E0101056F040E0101066FF6EC6BF0B9
:1025D8003B0E01010B6F010E01010C6F480E01014A
:1025E8000D6F010E01010E6F9DEC41F001013F6975
:1025F800480E0101066F010E0101076FE10E01018E
:10260800086F010E0101096F040E01010A6F55ECF4
:1026180073F00009D8A40AD0480E01010E6F010E0C
:1026280001010F6FB9EC6FF001013F6F5C0E010102
:10263800066F020E0101076FE70E0101086F020E17
:102648000101096F040E01010A6F23EC74F064C2E2
:10265800DDF2C2EC79F00201646F040E0201656FCD
:10266800060E02015B6F000E02018E6F020E020160
:102678008F6F31C100F132C101F1030E0101026F08
:10268800600E0101036F020E0101046F000E0101CB
:10269800056F040E0101066FF6EC6BF0E50E010103
:1026A800066F010E0101076F5C0E0101086F020E33
:1026B8000101096F040E01010A6F23EC74F0000E8A
:1026C8000201906F1D0E0201666F2C0E0201676FEA
:1026D800020E02018C6F000E0101D96F00D0000EAE
:1026E800120012008BC12DF18CC12EF1A50E010133
:1026F8002F6F010E0101306F8DC131F18EC132F1A2
:102708008FC133F190C134F191C135F17CEC0CF0FB
:102718000009D8B41200000E0101A26F010120EED9
:102728000CF08D51D9268E51DA22DF501F0B010192
:10273800A36F0101A9691B0E0101A3650BD001015B
:1027480020EE0DF08D51D9268E51DA22DF5001018D
:10275800A96F00D0000E01019B6F0C0E01018D25A1
:102768000101006F000E01018E210101016F020EAF
:102778000101026F0C0E01018D250101036F000E8E
:1027880001018E210101046F060E0101056F040E7F
:102798000101066F7BEC6FF00009D8B426D00C0E4F
:1027A80001018D250101006F000E01018E2101013B
:1027B800016F060E0101026F0C0E01018D2501014A
:1027C800036F000E01018E210101046F0A0E010141
:1027D800056F040E0101066F7BEC6FF00009D8B499
:1027E80004D0010E01019B6F00D09BC1AAF1000E1D
:1027F80001019C6F0C0E01018D250101006F000E77
:1028080001018E210101016F030E0101026F0C0EFF
:1028180001018D250101036F000E01018E210101C7
:10282800046F070E0101056F040E0101066F7BECB2
:102838006FF00009D8B426D00C0E01018D250101D6
:10284800006F000E01018E210101016F070E0101C9
:10285800026F0C0E01018D250101036F000E0101AD
:102868008E210101046F0B0E0101056F040E010199
:10287800066F7BEC6FF00009D8B404D0010E01019B
:102888009C6F00D09CC19DF16AEF18F087EF18F09B
:102898001AD087EF18F0190E01018F19D8A487EF05
:1028A80018F00D0E01018D250101186F000E0101B0
:1028B8008E210101196F000E01011A6F22EC71F0CF
:1028C80087EF18F046D0010E0101A26F87EF18F0CC
:1028D800010120EE0EF08D51D9268E51DA22410EDB
:1028E800DE18D8A487EF18F0010120EE0FF08D5103
:1028F800D9268E51DA22530EDE18D8A487EF18F0A5
:10290800010120EE10F08D51D9268E51DA22460EA3
:10291800DE18D8A4F8D3E30E0101066F030E0101F7
:10292800076F110E01018D250101086F000E0101CD
:102938008E210101096F0B0E01010A6F55EC73F02E
:102948000009D8B4E0D3000E0101DA6FFAEC2EF0DA
:10295800DAD30101A951030AD8B4B5D7290AD8B4E2
:10296800B7D7D1D306D10101AA510101D8B4CBD32D
:102978000E0E01018D250101186F000E01018E2137
:102988000101196F000E01011A6F22EC71F0BBD31F
:1029980001019D510101D8B417D00F0E01018D25F9
:1029A8000101206F000E01018E210101216F01013B
:1029B80020EE0EF08D51D9268E51DA22DF5001011A
:1029C800226F1CEC51F09FD3A50E0101186F010E68
:1029D8000101196F2D0E01011A6F010120EE01F09E
:1029E8008D51D9268E51DA22DF5001011B6F6CEC14
:1029F80075F089D301019D510101D8B417D00F0E8C
:102A080001018D2501010E6F000E01018E210101CA
:102A18000F6F010120EE0EF08D51D9268E51DA226A
:102A2800DF500101106FEBEC4BF06DD3A50E0101E7
:102A3800186F010E0101196F2D0E01011A6F0101A6
:102A480020EE01F08D51D9268E51DA22DF50010196
:102A58001B6F6CEC75F057D30101AA510101D8A482
:102A680052D301D050D3A50E0101186F010E0101F8
:102A7800196F2D0E01011A6F010120EE01F08D5121
:102A8800D9268E51DA22DF5001011B6F6CEC75F0EC
:102A98003AD30101AA510101D8B435D30E0E010170
:102AA8008D250101186F000E01018E210101196F9A
:102AB80026EC75F028D3010120EE0EF08D51D926B1
:102AC8008E51DA22520EDE18D8A419D0010120EE58
:102AD8000FF08D51D9268E51DA22530EDE18D8A464
:102AE8000ED0010120EE10F08D51D9268E51DA2238
:102AF800490EDE18D8A403D008EC7AF004D3A50E4A
:102B08000101186F010E0101196F2D0E01011A6FD5
:102B1800010120EE01F08D51D9268E51DA22DF50C5
:102B280001011B6F6CEC75F0EED20101AA51010195
:102B3800D8B4E9D20E0E01018D250101186F000EDF
:102B480001018E210101196F81EC73F0DCD20101C2
:102B5800AA510101D8B4D7D20E0E01018D25010169
:102B68001A6F000E01018E2101011B6F17EC6AF02C
:102B7800CAD20101A951000AD8B4F5D6040AD8B4BA
:102B8800C2D2240AD8B404D7010AD8B433D7030A66
:102B9800D8B462D7010AD8B47CD7070AD8B48BD77F
:102BA800010AD8B4C2D70B0AD8B4D1D7ACD26DD2E7
:102BB8000E0E01018D2501012F6F000E01018E21DE
:102BC8000101306F15EC3BF0A50E0101186F010EE5
:102BD8000101196F26EC75F096D28DC100F18EC1F6
:102BE80001F10E0E0101026FF90E0101036F010ED2
:102BF8000101046F000E0101056F040E0101066F4B
:102C0800F6EC6BF00D0E01018D250101186F000E19
:102C180001018E210101196F81EC73F074D28DC10D
:102C280000F18EC101F10E0E0101026F8DC103F199
:102C38008EC104F1170E0101056F040E0101066F24
:102C48007BEC6FF00009D8B499D08DC100F18EC12A
:102C580001F1170E0101026F8DC103F18EC104F15C
:102C6800200E0101056F040E0101066F7BEC6FF069
:102C78000009D8B483D08DC100F18EC101F1120EC4
:102C88000101026F8DC103F18EC104F11B0E010118
:102C9800056F040E0101066F7BEC6FF00009D8B4D4
:102CA8006DD08DC100F18EC101F11B0E0101026FC3
:102CB8008DC103F18EC104F1240E0101056F040ECC
:102CC8000101066F7BEC6FF00009D8B457D0010101
:102CD80020EE1FF08D51D9268E51DA22010110EE17
:102CE80016F08D51E1268E51E222DE50E618D8A466
:102CF80045D0010120EE28F08D51D9268E51DA22D7
:102D0800010110EE1FF08D51E1268E51E222DE50B6
:102D1800E618D8A433D00E0E01018D2501012A6FC3
:102D2800000E01018E2101012B6F120E01018D256C
:102D380001012C6F000E01018E2101012D6F01018F
:102D480020EE16F08D51D9268E51DA22DF5001017E
:102D58002E6FD5EC73F0A50E0101186F010E01015D
:102D6800196F0E0E01018D2501011A6F000E010168
:102D78008E2101011B6FA8EC4FF0C5D1A50E0101F2
:102D8800186F010E0101196F2D0E01011A6F010153
:102D980020EE01F08D51D9268E51DA22DF50010143
:102DA8001B6F6CEC75F0AFD10E0E01018D25010182
:102DB8000E6F000E01018E2101010F6FC1EC67F04B
:102DC800A50E0101186F010E0101196F010E010115
:102DD8001A6F22EC71F097D1010120EE0EF08D519F
:102DE800D9268E51DA22520EDE18D8A48CD10101D0
:102DF80020EE0FF08D51D9268E51DA22530EDE18AF
:102E0800D8A481D1010120EE10F08D51D9268E5120
:102E1800DA22540EDE18D8A476D1FF0074D101014D
:102E280020EE0EF08D51D9268E51DA22530EDE187F
:102E3800D8A469D1010120EE0FF08D51D9268E5109
:102E4800DA22460EDE18D8A45ED1010120EE10F079
:102E58008D51D9268E51DA22540EDE18D8A453D1BA
:102E6800A50E01011A6F010E01011B6F68EC6AF0D3
:102E7800010120EE11F08D51D9268E51DA22DF5052
:102E88000101F16F150E0101276F7C0E266F000EF0
:102E98000101286F110EA4EC6DF035D1010120EE6F
:102EA8000EF08D51D9268E51DA22530EDE18D8A491
:102EB80058D0010120EE0FF08D51D9268E51DA221B
:102EC800520EDE18D8A44DD0010120EE10F08D511D
:102ED800D9268E51DA22460EDE18D8A442D0010136
:102EE80020EE11F08D51D9268E51DA22040EDF60C2
:102EF80038D0010120EE11F08D51D9268E51DA22F9
:102F0800DF5001019A6F010120EE12F08D51D92690
:102F18008E51DA22DF500101926F010192510101B5
:102F28009F6FA06B01019F510101A06F9F6B010171
:102F380020EE13F08D51D9268E51DA22DF5001018F
:102F4800926F0101925101019F27000EA0239FC19A
:102F580026F1A0C127F19AC128F1010EA4EC6DF069
:102F6800D2D0A50E0101186F010E0101196F2D0EA7
:102F780001011A6F010120EE01F08D51D9268E5101
:102F8800DA22DF5001011B6F6CEC75F0BCD0010137
:102F980020EE0EF08D51D9268E51DA22DF50D80955
:102FA8000101996F99C102F13C0E8AEC76F0ABD021
:102FB8000101AA510101D8B4A6D0010120EE1BF0ED
:102FC8008D51D9268E51DA22DF500101926F01010D
:102FD80092510101B46FB56B0101B4510101B56F94
:102FE800B46B010120EE1AF08D51D9268E51DA22E8
:102FF800DF500101926F010192510101B427000EC7
:10300800B523260E0101B45D090E0101B559D8A0FA
:1030180006D0000E0101B56F000EB46F74D0010127
:1030280020EE1CF08D51D9268E51DA22DF50010195
:10303800F16F0E0E01018D250101186F000E0101BF
:103048008E210101196FE9EC70F0010120EE1DF0ED
:103058008D51D9268E51DA22DF500101ED6F1E0EF7
:1030680001018D250101066F000E01018E2101016C
:10307800076FE30E0101086F030E0101096F0B0EC4
:1030880001010A6F23EC74F03ED00101A951040A32
:10309800D8B48ED7270AD8B48BD5060AD8B49DD50C
:1030A800030AD8B4BCD5010AD8B47ED60F0AD8B45E
:1030B80093D6010AD8B427D0030AD8B4B0D66A0A7E
:1030C800D8B4ECD6BE0AD8B462D71DD00101A3513A
:1030D800000AD8B418D0020AD8B467EF14F0060A68
:1030E800D8B411D0080AD8B44FEF14F0100AD8B4E5
:1030F8000AD0010AD8B42DD4030AD8B43AD5010AA3
:10310800D8B4C3D700D00101A2510101D8A420D05E
:103118000C0E01018D250101806F000E01018E2129
:103128000101816F90C182F1A50E0101836F010E2B
:103138000101846FA3C185F1A9C186F101018F51F5
:10314800F40F0101876FD9EC31F00101A26F00D0B3
:103158000101A2510101D8B41200E80E0101126F59
:10316800FF0E0101136F5CEC34F00101C251D8A4C9
:1031780023D1010E0001C16F01018F51FD0F010123
:103188009E6F000E0101016F020E006F240E0101F7
:10319800026FD0EC5AF0000E0101016F020E006FB1
:1031A800240E0101026FD0EC5AF0000E0101016FEC
:1031B800020E006F9EC102F1D0EC5AF0000E010120
:1031C800016F020E006F000E0101026FD0EC5AF081
:1031D800000E0101A16F000E0101016F020E006FC8
:1031E800010120EE03F08D51D9268E51DA22DF50ED
:1031F8000101026FD0EC5AF0010120EE03F08D516D
:10320800D9268E51DA22DF500101A11B000E0101DF
:10321800016F020E006F010120EE04F08D51D926D6
:103228008E51DA22DF500101026FD0EC5AF0010111
:1032380020EE04F08D51D9268E51DA22DF5001019B
:10324800A11B000E0101016F020E006F010120EEAB
:1032580005F08D51D9268E51DA22DF500101026F17
:10326800D0EC5AF0010120EE05F08D51D9268E518F
:10327800DA22DF500101A11B000E0101016F020ECD
:10328800006F010120EE06F08D51D9268E51DA2209
:10329800DF500101026FD0EC5AF0010120EE06F078
:1032A8008D51D9268E51DA22DF500101A11B000E63
:1032B8000101A46F38D0000E0101016F020E006FEA
:1032C8000101A4510101926F936B0C0E0101922729
:1032D800000E93230101925101018D25D96E010140
:1032E800935101018E21DA6EDF500101026FD0EC9B
:1032F8005AF00101A4510101926F936B0C0E010168
:103308009227000E93230101925101018D25D96E58
:103318000101935101018E21DA6EDF500101A11BD9
:103328000101A42B00D0F70E0101926FFF0E0101DD
:10333800936F01019E510101946F956B01019251A8
:103348000101942701019351010195230101A45121
:103358000101966F976B010194510101965D01017E
:103368009751800A0101986F01019551800A010166
:103378009859D8A0A0D7000E0101016F020E006F66
:10338800A1C102F1D0EC5AF0000E0101016F020E4A
:10339800006F0D0E0101026FD0EC5AF0000E010112
:1033A800016F020E006F0A0E0101026FD0EC5AF095
:1033B800000E0001C16F00D0D60E0101126FFF0E82
:1033C8000101136F5CEC34F01200120001015A6F16
:1033D80002015B51D8A414D00001BD51D8A410D06B
:1033E80002018D51D8A40CD001014A05D8A408D0F7
:1033F800010E0101486F01015A51DEEC79F008D045
:10340800000E0101486F01015A51DEEC79F000D03D
:10341800CB0E01015B6F040E01015C6F74EC7AF056
:103428000009D8A416D0D1C20CF1D2C20DF153ECC8
:1034380066F0010E01010C2502010C6F000E01015E
:103448000D2102010D6F000E0201D46F000ED36F23
:1034580000D070EC7AF00009D8B4DED002018D51AA
:10346800D8B47BD001015A510101D8B476D0000EEE
:1034780002018D6F5BC1D9FF5CC1DAFF65C2DFFF56
:10348800010120EE01F05B51D9265C51DA2264C2B9
:10349800DFFF010120EE02F05B51D9265C51DA22F0
:1034A800BAC1DFFF5C0E0101006F020E0101016F5E
:1034B800000E0101026F5BC103F15CC104F1030E50
:1034C8000101056F040E0101066FF6EC6BF0600E4A
:1034D8000101006F020E0101016F000E0101026F70
:1034E8005BC103F15CC104F1070E0101056F040E15
:1034F8000101066FF6EC6BF0010120EE0BF05B5159
:10350800D9265C51DA2290C2DFFF660E0101006FF6
:10351800020E0101016F000E0101026F5BC103F190
:103528005CC104F10C0E0101056F8CC206F1F6ECCA
:103538006BF0E10E0101326F010E0101336FC00E15
:103548000101346F040E0101356F02018C510C0F1B
:103558000101366F71EC61F05BD002010C51020180
:10356800D31956E102010D510201D419D8A450D043
:1035780001015A510101D8B442D07CEC7AF000091B
:10358800D8B43DD00101F051D8B427D004EC29F0CB
:103598000101516FE10E0101326F010E0101336F1C
:1035A800C00E0101346F040E0101356F51C136F1AF
:1035B80071EC61F00009D8A42BD001D029D0020108
:1035C800D15102010C5D0201D25102010D59D8B04E
:1035D8001FD002010C4B0D2B1BD0E10E0101326FE5
:1035E800010E0101336FC00E0101346F040E010199
:1035F800356F000E0101366F71EC61F009D0A80E2D
:103608000101126FFE0E0101136F5CEC34F000D063
:103618000201D34BD42BDBD2BDC256F1BEC257F147
:10362800BFC258F1C0C259F10101D951D8A4C1D0C3
:103638000101D92B02018E51D8A4B8D0010E020184
:103648005B65C5D2600E01010B6F020E01010C6FA4
:10365800560E01010D6F010E01010E6F9DEC41F038
:103668000101526F0001BD51D8B416D0560E0101A8
:10367800066F010E0101076FDF0E0101086F020ED0
:103688000101096F040E01010A6F55EC73F000097E
:10369800D8A49DD201D09BD28FC20CF101010D6B31
:1036A80053EC66F001010C5102018E6F01015A5171
:1036B8000101D8B48CD202015B0702018F2B1F0EC7
:1036C8000101526184D25BC1D9FF5CC1DAFF65C2D6
:1036D800DFFF010120EE01F05B51D9265C51DA22AF
:1036E80064C2DFFF010120EE02F05B51D9265C5174
:1036F800DA22BAC1DFFF5C0E0101006F020E010180
:10370800016F000E0101026F5BC103F15CC104F19E
:10371800030E0101056F040E0101066FF6EC6BF054
:10372800600E0101006F020E0101016F000E010120
:10373800026F5BC103F15CC104F1070E0101056F63
:10374800040E0101066FF6EC6BF0010120EE0BF0A0
:103758005B51D9265C51DA2290C2DFFF660E010167
:10376800006F020E0101016F000E0101026F5BC1C3
:1037780003F15CC104F10C0E0101056F8CC206F166
:10378800F6EC6BF0560E0101326F010E0101336F3A
:10379800C00E0101346F040E0101356F02018C5116
:1037A8000C0F0101366F71EC61F011D202018E0726
:1037B8000ED20101D905D8A4E8D00001BD51D8B472
:1037C800E4D00101D92B600E01010B6F020E01013B
:1037D8000C6F560E01010D6F010E01010E6F9DEC6D
:1037E80041F00101536F010E02015B659CD0560E3A
:1037F8000101066F010E0101076FDF0E0101086F5D
:10380800020E0101096F040E01010A6F55EC73F0F5
:103818000009D8B488D0000E02015B6F000E0201C7
:103828008E6F020E02018F6F01015A510101D8B447
:10383800CED11F0E01015361CAD1000E0001BD6F28
:103848005BC1D9FF5CC1DAFF65C2DFFF010120EE71
:1038580001F05B51D9265C51DA2264C2DFFF010115
:1038680020EE02F05B51D9265C51DA22BAC1DFFFA3
:103878005C0E0101006F020E0101016F000E0101D3
:10388800026F5BC103F15CC104F1030E0101056F16
:10389800040E0101066FF6EC6BF0600E0101006F7B
:1038A800020E0101016F000E0101026F5BC103F1FD
:1038B8005CC104F1070E0101056F040E0101066FDA
:1038C800F6EC6BF0010120EE0BF05B51D9265C5150
:1038D800DA2290C2DFFF660E0101006F020E0101BD
:1038E800016F000E0101026F5BC103F15CC104F1BD
:1038F8000C0E0101056F8CC206F1F6EC6BF0560E4A
:103908000101326F010E0101336FC00E0101346FE6
:10391800040E0101356F02018C510C0F0101366F45
:1039280071EC61F054D1000E0001BD6F5BC1D9FF8D
:103938005CC1DAFF020EDF6E010120EE01F05B517F
:10394800D9265C51DA22000EDF6E010120EE02F06A
:103958005B51D9265C51DA22BAC1DFFF01015A5105
:103968000101D8B434D1DF0E0101326F020E01011A
:10397800336FC00E0101346F040E0101356F030E61
:103988000101366F71EC61F022D1020E0101D96597
:103998001BD102015B05D8A413D1600E01010B6F86
:1039A800020E01010C6F560E01010D6F010E01018F
:1039B8000E6F9DEC41F00101546F01015569560EDF
:1039C8000101066F010E0101076FE10E0101086F89
:1039D800010E0101096F040E01010A6F55EC73F025
:1039E8000009D8A40BD0560E01010E6F010E01017B
:1039F8000F6FB9EC6FF00101556F00D0040E020192
:103A08006519D8B414D05C0E0101066F020E0101CD
:103A1800076FE50E0101086F010E0101096F040E21
:103A280001010A6F55EC73F00009D8B40AD0000EF2
:103A380002015B6F000E02018E6F020E02018F6F92
:103A4800BFD05C0E0101066F020E0101076FE50E83
:103A58000101086F010E0101096F040E01010A6FCF
:103A680055EC73F00009D8A4ABD001D0A9D05C0EF6
:103A78000101066F020E0101076FE70E0101086FD1
:103A8800020E0101096F040E01010A6F23EC74F0A4
:103A980064C2DDF2C2EC79F00201646F040E020127
:103AA800656F060E02015B6F000E02018E6F020E3B
:103AB80002018F6F600E0101066F020E0101076F90
:103AC8004D0E0101086F010E0101096F040E01017D
:103AD8000A6F23EC74F05C0E0101066F020E0101FF
:103AE800076F600E0101086F020E0101096F040ED5
:103AF80001010A6F23EC74F0E50E0101066F010E57
:103B08000101076F5C0E0101086F020E0101096FC8
:103B1800040E01010A6F23EC74F0000E0201906F8D
:103B28001D0E0201666F2B0E0201676F4D0E01011B
:103B3800006F010E0101016F000E0101026F660E98
:103B48000101036F020E0101046F020E0101056FEE
:103B5800040E0101066FF6EC6BF0560E0101006FC2
:103B6800010E0101016F000E0101026F660E0101D5
:103B7800036F020E0101046F060E0101056F040EAA
:103B88000101066FF6EC6BF054C170F255C171F289
:103B980001015551060D040EF326000EF422BD0E48
:103BA800F324D96E0A0EF420DA6EDF500F0B0201EF
:103BB800726F0D0E02018C6F000E0101D96F00D0DB
:103BC800000E0101D96F03D00101D92B00D074EC8C
:103BD8007AF00009D8A40CD002014A2B020E020187
:103BE8004A6506D02EEC4EF0000E02014A6F00D056
:103BF8000201422B0101EF510201425DD8A03FD0E2
:103C08000101BB51020DC90EF324D96E080EF42030
:103C1800DA6EDF38E832E832030B0009D8B422D074
:103C2800010E01014B6F0101BB51020DC90EF324B6
:103C3800D96E080EF420DA6EDF3801014C6F4C3370
:103C48004C31030B4C6F01014B5101014C5F0101D9
:103C58004C3B4C374C37DF5001014C193F0B4C198A
:103C6800DF6E00D00101BB2BF90E0101BB6503D04B
:103C7800000E0101BB6F000E0201426F00D0070E5B
:103C8800F4EC75F00009D8B4120038EC3FF0010EDE
:103C98000101F06F1200120015C106F116C107F1FB
:103CA800E50E0101086F010E0101096F040E010103
:103CB8000A6F55EC73F00009D8A4120001D0120065
:103CC80001011729D8B4120001D01200030E010116
:103CD800086F01011751060D050EF326000EF42298
:103CE800BD0EF324D96E0A0EF420DA6EDF5097EC7D
:103CF80049F00101196151D0030E0101086F01015A
:103D08001751060D050EF326000EF422BD0EF324FE
:103D1800D96E0A0EF420DA6EDF5097EC49F00101F3
:103D28001B6F01011751060D040EF326000EF42235
:103D3800BD0EF324D96E0A0EF420DA6EDF380F0BAD
:103D4800D7EC76F001011B5DD8B012D001011751F4
:103D5800060D040EF326000EF422BD0EF324D96ED0
:103D68000A0EF420DA6EDF380F0BD7EC76F03AD073
:103D7800030E0101086F01011751060D050EF32608
:103D8800000EF422BD0EF324D96E0A0EF420DA6E6A
:103D9800DF5097EC49F026D02BD001011751060DC2
:103DA800040EF326000EF422BD0EF324D96E0A0E7B
:103DB800F420DA6EDF380F0BD7EC76F001011961C9
:103DC80014D001011751060D040EF326000EF4223B
:103DD800BD0EF324D96E0A0EF420DA6EDF380F0B0D
:103DE800D7EC76F001011F6F03D019C11FF100D085
:103DF800000E0101206FF90E0101206501D06BD280
:103E080015C104F116C105F10101205105EC5FF05F
:103E18000009D8B45DD201012051020DC90EF32466
:103E2800D96E080EF420DA6EDF503F0B1FEC69F0F4
:103E380001011C6F01012051020D010EF326000E35
:103E4800F422C90EF324D96E080EF420DA6EDF3896
:103E5800E832070B01011B6F01011C5101011B5DB9
:103E6800D8B019D01CC11BF101012051020D010E5F
:103E7800F326000EF422C90EF324D96E080EF4209E
:103E8800DA6E01011B3B1B47DF5001011B191F0B99
:103E98001B19DF6E00D001011A510101D8B42DD0D1
:103EA80001012051020D010EF326000EF422C90E65
:103EB800F324D96E080EF420DA6EDF5001011819C8
:103EC800E00B1819DF6E01012051020DC90EF32411
:103ED800D96E080EF420DA6EDF5001011719C00BF5
:103EE8001719DF6E01012051020DC90EF324D96E96
:103EF800080EF420DA6EC00EDF1201012051020D07
:103F0800C90EF324D96E080EF420DA6EDF503F0B89
:103F180001011719D8A444D01FC11BF10101205178
:103F2800020D010EF326000EF422C90EF324D96EF9
:103F3800080EF420DA6E01011B3B1B47DF5001011C
:103F48001B191F0B1B19DF6E01012051020D010EF9
:103F5800F326000EF422C90EF324D96E080EF420BD
:103F6800DA6EDF501F0B01011819D8B405D0010112
:103F780017518FEC77F000D001012051020D010E8E
:103F8800F326000EF422C90EF324D96E080EF4208D
:103F9800DA6EDF5001011819E00B1819DF6E1200F4
:103FA80001012051020DC90EF324D96E080EF42028
:103FB800DA6EDF38E832E832030B0009D8A41200C1
:103FC80001012051020D010EF326000EF422C90E44
:103FD800F324D96E080EF420DA6EDF38E832070BC6
:103FE800070AD8A43BD001012051020D010EF32687
:103FF800000EF422C90EF324D96E080EF420DA6EEE
:10400800DF5001011819E00B1819DF6E010120516A
:10401800020DC90EF324D96E080EF420DA6EDF50B3
:1040280001011719C00B1719DF6E1FC11BF1010120
:104038002051020D010EF326000EF422C90EF324BE
:10404800D96E080EF420DA6E01011B3B1B47DF50C6
:1040580001011B191F0B1B19DF6E120001012051F2
:10406800020D010EF326000EF422C90EF324D96EB8
:10407800080EF420DA6EDF501F0B0101186145D0DD
:1040880001011F510001DA5DD8A012000101205181
:10409800020D010EF326000EF422C90EF324D96E88
:1040A800080EF420DA6EDF5001011819E00B181918
:1040B800DF6E01012051020DC90EF324D96E080EDE
:1040C800F420DA6EDF5001011719C00B1719DF6EE3
:1040D8001FC11BF101012051020D010EF326000E34
:1040E800F422C90EF324D96E080EF420DA6E010109
:1040F8001B3B1B47DF5001011B191F0B1B19DF6EF0
:10410800010117518FEC77F0120001012051020DC7
:10411800010EF326000EF422C90EF324D96E080E00
:10412800F420DA6EDF501F0B01011819D8A461D0F2
:1041380001012051020D010EF326000EF422C90ED2
:10414800F324D96E080EF420DA6EDF38E832070B54
:1041580001011F61120001012051020D010EF32619
:10416800000EF422C90EF324D96E080EF420DA6E7C
:10417800DF38E832070B0001DA6112000101205133
:10418800020D010EF326000EF422C90EF324D96E97
:10419800080EF420DA6EDF5001011819E00B181927
:1041A800DF6E01012051020DC90EF324D96E080EED
:1041B800F420DA6EDF5001011719C00B1719DF6EF2
:1041C8001FC11BF101012051020D010EF326000E43
:1041D800F422C90EF324D96E080EF420DA6E010118
:1041E8001B3B1B47DF5001011B191F0B1B19DF6EFF
:1041F800120001012051020D010EF326000EF422D7
:10420800C90EF324D96E080EF420DA6EDF501F0BA6
:1042180001011B6F0101185101011B5DD8B012008B
:104228000001DA5101011F5DD8B0120001012051CF
:10423800020D010EF326000EF422C90EF324D96EE6
:10424800080EF420DA6EDF38E832070B0001DA6175
:10425800120001012051020D010EF326000EF42276
:10426800C90EF324D96E080EF420DA6EDF5001016E
:104278001819E00B1819DF6E01012051020DC90E43
:10428800F324D96E080EF420DA6EDF5001011719F5
:10429800C00B1719DF6E1FC11BF101012051020D60
:1042A800010EF326000EF422C90EF324D96E080E6F
:1042B800F420DA6E01011B3B1B47DF5001011B197B
:1042C8001F0B1B19DF6E010117518FEC77F01200DD
:1042D8000101202B90D51F0E0101186160D0000E3E
:1042E80001011E6FF90E01011E6501D058D0E10EC3
:1042F8000101046F010E0101056F01011E5105EC5A
:104308005FF00009D8B447D015C107F116C108F10C
:1043180001011E5117EC6DF001011E51020D010E35
:10432800F326000EF422C90EF324D96E080EF420E9
:10433800DA6EDF5001011819E00B1819DF6E010160
:104348001E51020DC90EF324D96E080EF420DA6E40
:10435800DF5001011719C00B1719DF6E1FC11BF1C0
:1043680001011E51020D010EF326000EF422C90EA2
:10437800F324D96E080EF420DA6E01011B3B1B47AB
:10438800DF5001011B191F0B1B19DF6E01011751AB
:104398008FEC77F0120001011E2BA4D700D01F0E5E
:1043A800010118611200B1C01DF1F90E01011D656E
:1043B80002D01200120001011D51020D010EF32658
:1043C800000EF422C90EF324D96E080EF420DA6E1A
:1043D800DF501F0B1F0AD8B40ED001011D51020D6A
:1043E800C90EF324D96E080EF420DA6EDF503F0BA5
:1043F8003F0AD8A454D015C107F116C108F100012D
:10440800B15117EC6DF00001B151020D010EF32608
:10441800000EF422C90EF324D96E080EF420DA6EC9
:10442800DF5001011819E00B1819DF6E0001B151B6
:10443800020DC90EF324D96E080EF420DA6EDF508F
:1044480001011719C00B1719DF6E1FC11BF10001FD
:10445800B151020D010EF326000EF422C90EF32409
:10446800D96E080EF420DA6E01011B3B1B47DF50A2
:1044780001011B191F0B1B19DF6E0001B151020D41
:10448800C90EF324D96E080EF420DA6E3F0EDF163B
:10449800010117518FEC77F01DC1B1F01200F90E30
:1044A80001011D19D8A404D0000E0001B16F00D07D
:1044B80001011D2BF90E01011D657DD712001200A7
:1044C8001200000E496E000E4A6E000E0001B46F15
:1044D800000E0001BB6F020EF4EC75F00009D8B4B1
:1044E80035D1010E496E0001B52B020E0001B51938
:1044F800D8A4FBD0000E0001B56FF7D0000E000164
:10450800B46F000E0101276F1E0E266F000E010109
:10451800286F020EA4EC6DF019D1010E0001B46FE2
:10452800000E0101276F1E0E266F000E0101286F75
:10453800020EA4EC6DF00AD10001B505D8A404D090
:10454800010E0001B46F00D0000E0101276F400E6C
:10455800266F000E0101286F020EA4EC6DF0F6D054
:104568000001B505D8A404D0010E0001B46F00D035
:10457800000E0101276F7D0E266F000E0101286FC6
:10458800020EA4EC6DF0E2D000D00001B505D8A46D
:1045980004D0010E0001B46F00D0000E0101276F96
:1045A800FA0E266F000E0101286F020EA4EC6DF0C2
:1045B800CDD00001B505D8A404D0010E0001B46F18
:1045C80000D0010E0101276FF40E266F000E0101C5
:1045D800286F020EA4EC6DF0B9D00001B505D8A47F
:1045E80004D0010E0001B46F00D0030E0101276F43
:1045F800E80E266F000E0101286F020EA4EC6DF084
:10460800A5D00001B505D8A404D0010E0001B46FEF
:1046180000D0090E0101276FC40E266F000E01019C
:10462800286F020EA4EC6DF091D00001B505D8A456
:1046380004D0010E0001B46F00D0130E0101276FE2
:10464800880E266F000E0101286F020EA4EC6DF093
:104658007DD00001B505D8A421D0010E0001B46FAA
:104668003850D8A40DD0000E0101276F500E266FC8
:10467800000E0101286F020EA4EC6DF0010E0CD0A3
:10468800090E0101276F740E266F000E0101286FB5
:10469800020EA4EC6DF0000E386E58D03850D8B425
:1046A8000CD0000E0101276F500E266F000E01017D
:1046B800286F020EA4EC6DF049D0090E0101276F96
:1046C800740E266F000E0101286F020EA4EC6DF027
:1046D8003DD0000E0101276F1E0E266F000E01014E
:1046E800286F020EA4EC6DF031D00001B351000A1E
:1046F800D8B404D7010AD8B410D7030AD8B41CD741
:10470800010AD8B42DD7070AD8B43FD7010AD8B4BC
:1047180050D7030AD8B461D70D0AD8B436D7070AD8
:10472800D8B433D7010AD8B430D7030AD8B42DD7B0
:10473800010AD8B42AD71F0AD8B463D7010AD8B453
:1047480074D7030AD8B485D7C4D700D0030EF4ECC5
:1047580075F00009D8B435D1010E4A6E0001B62BA8
:10476800020E0001B619D8A4FBD0000E0001B66FE6
:10477800F7D0000E0001BB6F000E0101276F1E0E5F
:10478800266F000E0101286F030EA4EC6DF019D1FD
:10479800010E0001BB6F000E0101276F1E0E266F70
:1047A800000E0101286F030EA4EC6DF00AD1000180
:1047B800B605D8A404D0010E0001BB6F00D0000ECE
:1047C8000101276F400E266F000E0101286F030EAE
:1047D800A4EC6DF0F6D00001B605D8A404D0010E03
:1047E8000001BB6F00D0000E0101276F7D0E266F00
:1047F800000E0101286F030EA4EC6DF0E2D000D08A
:104808000001B605D8A404D0010E0001BB6F00D08A
:10481800000E0101276FFA0E266F000E0101286FA6
:10482800030EA4EC6DF0CDD00001B605D8A404D0D9
:10483800010E0001BB6F00D0010E0101276FF40EBD
:10484800266F000E0101286F030EA4EC6DF0B9D09D
:104858000001B605D8A404D0010E0001BB6F00D03A
:10486800030E0101276FE80E266F000E0101286F65
:10487800030EA4EC6DF0A5D00001B605D8A404D0B1
:10488800010E0001BB6F00D0090E0101276FC40E95
:10489800266F000E0101286F030EA4EC6DF091D075
:1048A8000001B605D8A404D0010E0001BB6F00D0EA
:1048B800130E0101276F880E266F000E0101286F65
:1048C800030EA4EC6DF07DD00001B605D8A421D06C
:1048D800010E0001BB6F3B50D8A40DD0000E0101A2
:1048E800276F500E266F000E0101286F030EA4ECEF
:1048F8006DF0010E0CD0090E0101276F740E266FA2
:10490800000E0101286F030EA4EC6DF0000E3B6E43
:1049180058D03B50D8B40CD0000E0101276F500E70
:10492800266F000E0101286F030EA4EC6DF049D02C
:10493800090E0101276F740E266F000E0101286F02
:10494800030EA4EC6DF03DD0000E0101276F1E0E82
:10495800266F000E0101286F030EA4EC6DF031D014
:104968000001BA51000AD8B404D7010AD8B410D744
:10497800030AD8B41CD7010AD8B42DD7070AD8B46B
:104988003FD7010AD8B450D7030AD8B461D70D0A63
:10499800D8B436D7070AD8B433D7010AD8B430D731
:1049A800030AD8B42DD7010AD8B42AD71F0AD8B415
:1049B80063D7010AD8B474D7030AD8B485D7C4D743
:1049C80000D0090E0001B319D8A40CD04A50D8B4AD
:1049D80009D00001B6510001D8A404D0010E00018D
:1049E800B46F00D00A0E0001BA19D8A40CD04950EF
:1049F800D8B409D00001B5510001D8A404D0010EE3
:104A08000001BB6F00D0080E0001B319D8A40CD068
:104A18004A50D8B409D00001BB510001D8B404D021
:104A2800010E0001B46F00D0070E0001BA19D8A416
:104A38000CD04950D8B409D00001B4510001D8B401
:104A480004D0010E0001BB6F00D00001BB51000172
:104A5800D8B40DD03A50D8B402D03A0600D00001EC
:104A6800B9510001D8B403D00001B90700D0000142
:104A7800B4510001D8B40DD03750D8B402D037069D
:104A880000D00001B2510001D8B403D00001B20730
:104A980000D00001B2510001D8B403D0000E0001CB
:104AA800B46F0001B9510001D8B403D0000E000161
:104AB800BB6F3750D8B424D035D022D00A0E0001AD
:104AC800B26F0001B251040F13D00A0E0001B26F89
:104AD8000001B251030F0CD00A0E0001B26F0001A1
:104AE800B251020F05D00A0E0001B26F0001B229BF
:104AF800376E18D00A0E0001B26FB2C037F012D06C
:104B08000001B3510B0AD8B4D9D7070AD8B4DDD7F6
:104B1800010AD8B4E1D7030AD8B4E5D7010AD8B452
:104B2800E9D700D03A50D8B424D035D022D00A0ED4
:104B38000001B96F0001B951040F13D00A0E00012A
:104B4800B96F0001B951030F0CD00A0E0001B96FFB
:104B58000001B951020F05D00A0E0001B96F00011A
:104B6800B9293A6E18D00A0E0001B96FB9C03AF0E7
:104B780012D00001BA510B0AD8B4D9D7070AD8B451
:104B8800DDD7010AD8B4E1D7030AD8B4E5D7010ABA
:104B9800D8B4E9D700D00001B451A1EC79F00001F4
:104BA800BB5195EC79F012000101416F0101C85128
:104BB800D8A404D00101DC51D8B446D2800E00013B
:104BC800B719D8B458D02CC00DF12DC00EF1D5C2EC
:104BD8000FF1D6C210F190EC71F001010D510101F5
:104BE8000E11D8A413D0000E01010E6F0001C85198
:104BF800010D000EF324D96E060EF420DA6EDF5094
:104C080042EC78F0010E0001C26F27D02CC10EF1E2
:104C1800C8C000F10101016B46C002F10101036B3C
:104C2800C90E0101046F000E056F000E066F000E1D
:104C3800076FAEEC70F0000E01010025D96E060E6C
:104C480001010121DA6EDF5042EC78F0000E00011C
:104C5800C26F000E0201486F00D0020E0101DC197C
:104C6800D8A406D0010E0101C86F000E0101DC6F47
:104C7800000E486E28D0020E0101DC19D8A407D016
:104C8800010E0101C86F000E0101DC6F1CD0482A1B
:104C9800010E486418D0F25000D0070E6EEC4DF0AB
:104CA800000E0101C86F000E0101DC6F010E516E8C
:104CB800000E0101016F040E006F030E0101026F67
:104CC800D0EC5AF000D02C042D10D8A407D0010E37
:104CD800416EA2C034F0A3C035F000D0080EF4EC49
:104CE80075F00009D8B408D00101CF51D8B404D068
:104CF800010E0201546F00D0080EE3EC77F00009B2
:104D0800D8B42ED00101CF51D8A41CD0F3C10CF1D6
:104D180001010D6B53EC66F001010C510101D06FDC
:104D28000101D05100080101F3250101CF6FD0C165
:104D380026F10101276B010E0101286F080EA4EC72
:104D48006DF00ED0CFC126F10101276B010E0101D4
:104D5800286F080EA4EC6DF0000E0101CF6F00D093
:104D68000001CA510001D8A406D002012051020155
:104D78002111D8B442D10001C251D8B43ED10101A9
:104D880041510101D8B439D122C22DF123C22EF1EB
:104D980001012D1F2E1F2D4B2E2B040E01010C6F10
:104DA800010EEAEC5BF001012D5101010C25010116
:104DB800466F01012E5101010D210101476F46C1C6
:104DC8002DF147C12EF101012D1F2E1F2D4B2E2B2A
:104DD8002DC144F12EC145F1080E0101475DD8A04F
:104DE8000BD0FE0E0101465D0F0E01014759D8B0E8
:104DF80003D00001CA2B36D0010146290F0E01014C
:104E08004759D8A00CD0FD0E0101465D170E0101CF
:104E18004759D8B004D0020E0001CA2723D0080E83
:104E28000101455DD8A00BD0FE0E0101445D0F0EB7
:104E380001014559D8B003D00001CA0713D00101B8
:104E480044290F0E01014559D8A00CD0FD0E0101CF
:104E5800445D170E01014559D8B004D0020E000177
:104E6800CA5F00D0040E01010C6F010EEAEC5BF082
:104E78000CC146F10DC147F1A2C000F1A3C001F178
:104E880046C102F147C103F1000E0101046F000E93
:104E9800056F010E066F000E076FAEEC70F000C1D3
:104EA80037F101C138F137C117F138C118F120C203
:104EB80019F121C21AF1000E01011B6F000E1C6FBF
:104EC800010E1D6F000E1E6F56EC62F017C142F105
:104ED80018C143F142C10DF143C10EF1070E0101A2
:104EE800106F0F6990EC71F00DC13DF10EC13EF1EC
:104EF8003DC10DF13EC10EF1040E01010F6F010E0F
:104F08001BEC47F001013D510101425F01013E5197
:104F18000101435B42C1A2F043C1A3F042C106F1C3
:104F280043C107F1070E0101096F0869B8EC6EF07B
:104F380006C12CF007C12DF0C8C017F10101186B8C
:104F4800CAC019F101011A6BC90E01011B6F000ECD
:104F58001C6F000E1D6F000E1E6F56EC62F00101F3
:104F680017510001C86FCAC02FF10101306B000E44
:104F78000001CA6F000E0201216F000E206F000EA3
:104F88000201116F000E106F2C502D10D8A408D0FC
:104F9800000E2D6E100E2C6E0EC2A2F00FC2A3F0E2
:104FA800070E356E3468020E0101DC6F040E010134
:104FB8000C6F010EEAEC5BF00001A25101010C2517
:104FC80001013F6F0001A35101010D210101406F53
:104FD80074EC7AF00101316F3FC133F101014051A6
:104FE8000101326F000E0101016F040E006F020E05
:104FF8000101026FD0EC5AF023D00001C851010121
:10500800DB19D8A40BD00101C851D8B407D00101CD
:1050180041510101D8A414D001D012D00201545139
:10502800D8B40ED078EC7AF00009D8B409D00101D0
:1050380041510101D8B404D0000E0201546F00D0D0
:1050480002012C4B2D2B4ED0060EE3EC77F0000915
:10505800D8B41CD0000E01010D6F320E0C6F53EC4A
:1050680066F0540E01010C250101396F240E01016F
:105078000D2101013A6F39C126F13AC127F1000E1D
:105088000101286F060EA4EC6DF000D0060EF4ECBA
:1050980075F00009D8B40DD0000E01010E6F0101A2
:1050A800F85142EC78F0000E0201D86F010ED76F6C
:1050B80000D00201D8510BE1330E0201D75DD8B000
:1050C80006D089EC78F00201D74BD82B00D0330EEC
:1050D8000201D7190201D811D8A404D00201D74B74
:1050E800D82B00D00101DB510101D8A404D0C80E8F
:1050F8000101DB6F03D00101DB0700D0050EF4ECE2
:1051080075F00009D8A462EC72F0090EE3EC77F0B0
:105118000009D8B44CD084EC7AF001012D6F01015C
:105128002D513E0DF3CF3BF1F4CF3CF13BC108F1DB
:105138003CC109F179EC77F008C10BF109C10CF118
:105148000AC10DF1000E01010E6F7A0E01010F6FF9
:10515800440E0101106F9DEC56F00BC134F10CC1E7
:1051680035F10DC136F1000E01010B6F280E01015A
:105178000C6F430E01010D6F34C108F135C109F1FF
:1051880036C10AF1D3EC51F008C117F109C118F181
:105198000AC119F1F4EC55F017C126F118C127F12D
:1051A800010E0101286F090EA4EC6DF000D0090E64
:1051B800F4EC75F00009D8B416D0070E6EEC4DF07B
:1051C800000E0101C86F000E0101DC6F010E516E67
:1051D800000E0101016F040E006F050E0101026F40
:1051E800D0EC5AF000D00F0EF4EC75F00009D8B4EA
:1051F80003D0010E516E00D00E0EF4EC75F01200C3
:10520800000E0101176FCB0E0101256F040E01017D
:10521800266F25C1D9FF26C1DAFF010EDF6E000E09
:105228000101186F060E0101186F010E0101226FAE
:10523800010E0101226501D096D00001BF51060D73
:10524800BD0EF3240101066F0A0EF4200101076F59
:10525800E10E0101086F010E0101096F040E010141
:105268000A6F55EC73F00009D8A449D00001BF516A
:10527800060D050EF326000EF422BD0EF324D96E9A
:105288000A0EF420DA6EDE28D8B439D00001BF51F6
:10529800060DBD0EF3240101006F0A0EF420010172
:1052A800016F000E0101026F25C103F126C104F14F
:1052B800010E0101056F040E0101066FF6EC6BF09B
:1052C800010120EE05F02551D9262651DA22040ED7
:1052D8000101086F0001BF51060D050EF326000EEF
:1052E800F422BD0EF324E16E0A0EF420E26EE750BC
:1052F80097EC49F0DF6E010E0101176F03D0010131
:10530800220700D03E0E0001BF6103D00001BF2B71
:1053180027D0000E0001BF6F010117510101D8A469
:1053280022D0E10E0101006F010E0101016F000E94
:105338000101026F25C103F126C104F1010E01012B
:10534800056F040E0101066FF6EC6BF0010120EE0B
:1053580005F02551D9262651DA22FF0EDF6E03D03B
:105368000101222B65D7000E01011C6F000E0101FF
:10537800246F000E0101196FBEC016F11AD2000188
:10538800D151D8B4FCD001012451010D000EF324F1
:10539800D96E020EF420DA6EDF500101236F1E0E63
:1053A80001010C6F010E01010D6F01012351CAECBF
:1053B80068F0010E010124250101006F0101016B54
:1053C800000E0123000E0101036F050E026F52EC5F
:1053D80076F0010E01010027000E010101230101F1
:1053E800005101012525D96E010101510101262134
:1053F800DA6E1EC1DFFF010E010124250101006FD5
:105408000101016B000E0123000E0101036F050E5F
:10541800026F52EC76F0020E01010027000E010126
:1054280001230101005101012525D96E0101015116
:1054380001012621DA6E1FC1DFFF010E01012425BB
:105448000101006F0101016B000E0123000E010133
:10545800036F050E026F52EC76F0030E0101002770
:10546800000E010101230101005101012525D96E1A
:105478000101015101012621DA6E20C1DFFF010E71
:10548800010124250101006F0101016B000E0123B8
:10549800000E0101036F050E026F52EC76F0040E48
:1054A80001010027000E0101012301010051010142
:1054B8002525D96E0101015101012621DA6E21C18C
:1054C800DFFF01012351020D010EF326000EF42225
:1054D800C90EF324D96E080EF420DA6EDF38E832EC
:1054E800070B0101146F050E0101156F0101D8901A
:1054F80014370101152FFAD70101145101011A6F50
:1055080001012351020D010EF326000EF422C90EEB
:10551800F324D96E080EF420DA6EDF501F0B010158
:105528001A27010E010124250101006F0101016BF9
:10553800000E0123000E0101036F050E026F52ECED
:1055480076F0050E01010027000E0101012301017B
:10555800005101012525D96E0101015101012621C2
:10556800DA6E1AC1DFFF050E01011C270101242B89
:105578000001D151D8B41DD10001D1071AD1E10ED3
:105588000101046F010E0101056F0001BE5105EC18
:105598005FF00009D8A4F8D00001BE51020DC90E71
:1055A800F324D96E080EF420DA6EDF503F0B3F0A61
:1055B800D8B4EAD01E0E01010C6F010E01010D6F67
:1055C8000001BE51CAEC68F0010E01012425010159
:1055D800006F0101016B000E0123000E0101036F32
:1055E800050E026F52EC76F0010E01010027000E45
:1055F800010101230101005101012525D96E010195
:10560800015101012621DA6E1EC1DFFF010E0101E1
:1056180024250101006F0101016B000E0123000E1A
:105628000101036F050E026F52EC76F0020E0101C4
:105638000027000E01010123010100510101252568
:10564800D96E0101015101012621DA6E1FC1DFFF68
:10565800010E010124250101006F0101016B000EFB
:105668000123000E0101036F050E026F52EC76F064
:10567800030E01010027000E010101230101005161
:1056880001012525D96E0101015101012621DA6E9A
:1056980020C1DFFF010E010124250101006F010176
:1056A800016B000E0123000E0101036F050E026F4E
:1056B80052EC76F0040E01010027000E01010123CF
:1056C8000101005101012525D96E01010151010196
:1056D8002621DA6E21C1DFFF0001BE51020D010E45
:1056E800F326000EF422C90EF324D96E080EF42016
:1056F800DA6EDF38E832070B0101146F050E01017D
:10570800156F0101D89014370101152FFAD701013F
:10571800145101011B6F0001BE51020D010EF32649
:10572800000EF422C90EF324D96E080EF420DA6EA6
:10573800DF501F0B01011B27010E01012425010168
:10574800006F0101016B000E0123000E0101036FC0
:10575800050E026F52EC76F0050E01010027000ECF
:10576800010101230101005101012525D96E010123
:10577800015101012621DA6E1BC1DFFF050E01016F
:105788001C270101242B00D0F90E0001BE6103D0B3
:105798000001BE2B04D0000E0001BE6F00D0000136
:1057A800BE5101011619D8A404D0010E0101196FC8
:1057B80000D0080E0101246107D00101195101012F
:1057C800D8A402D0DCD500D00101185101011C2554
:1057D80001011D6F01011D51010DF3500101252526
:1057E800D96EF45001012621DA6ECCC0DFFF010129
:1057F8001D2B01011D511200120001012E51010142
:10580800D8B4F1D2C90E01013061EDD22CC1D9FF53
:105818002DC1DAFFDE28D8A456D00101DC51D8A466
:1058280052D00101C851D8B422D0050EE3EC77F06C
:105838000009D8B48CD2060E01010D6F0E0E0C6F44
:1058480053EC66F01C0E01010C2501013B6F0C0E98
:1058580001010D2101013C6F3BC126F13CC127F13B
:10586800000E0101286F050EA4EC6DF070D20E0E2B
:10587800E3EC77F00009D8B46AD2050EE3EC77F0D0
:105888000009D8B41CD0060E01010D6F0E0E0C6F66
:1058980053EC66F01C0E01010C2501013D6F0C0E46
:1058A80001010D2101013E6F3DC126F13EC127F1E5
:1058B800000E0101286F050EA4EC6DF000D0010E5A
:1058C8000101C86F44D2020E01012E6540D20101C8
:1058D80020EE01F02C51D9262D51DA22DF5001019A
:1058E800316F010131510101506F516B010150516C
:1058F8000101516F506B010120EE02F02C51D926A5
:105908002D51DA22DF500101316F010131510101BE
:105918005027000E512350C133F151C134F1040E08
:1059280001010C6F010EEAEC5BF00CC14CF10DC1EA
:105938004DF1B6C117F1B7C118F14CC119F14DC1FC
:105948001AF1FF0E01011B6F070E1C6F000E1D6F71
:10595800000E1E6F56EC62F017C13FF118C140F1FE
:10596800A2C000F1A3C001F14CC102F14DC103F185
:10597800000E0101046F000E056F010E066F000E88
:10598800076FAEEC70F000C14EF101C14FF14EC18E
:1059980046F14FC147F14EC100F14FC101F1000E70
:1059A8000101036F3D0E026F000E0101046F000E2E
:1059B800056F010E066F000E076FAEEC70F000C1A8
:1059C8004CF101C14DF101012F510101D8B415D09D
:1059D8004CC100F14DC101F1000E0101036F050E2C
:1059E800026F000E0101046F000E056F010E066FB5
:1059F800000E076FAEEC70F014D04CC100F14DC131
:105A080001F1000E0101036F000E026F000E01018B
:105A1800046F000E056F010E066F000E076FAEECE7
:105A280070F000C14EF101C14FF150C117F151C1E1
:105A380018F13FC119F140C11AF1000E01011B6FA5
:105A4800000E1C6F010E1D6F000E1E6F56EC62F0EB
:105A580017C14CF118C14DF14CC150F14DC151F174
:105A68004EC131F14FC132F10101311F321F314BAB
:105A7800322B010150510101312501014A6F010109
:105A880051510101322101014B6F4AC131F14BC122
:105A980032F10101311F321F314B322BFF0E010150
:105AA80031250101486FFF0E010132210101496FC3
:105AB8002CC1D9FF2DC1DAFF01013051DE18D8A45D
:105AC80014D0080E01014B5DD8A005D0800E01014D
:105AD8004B5DD8A00AD0080E0101495DD8A074D04A
:105AE800800E0101495DD8B06FD05150D8A404D0C0
:105AF8000101C851D8A4D4D04EC117F14FC118F133
:105B080050C119F151C11AF1000E01011B6F000EAD
:105B18001C6F010E1D6F000E1E6F56EC62F017C150
:105B280020F218C121F24EC10DF14FC10EF1070E3E
:105B38000101106F0F6990EC71F00DC131F10EC1C8
:105B480032F150C10DF151C10EF1070E0101106F74
:105B58000F6990EC71F001010D1F01010E1F010189
:105B68000D4B0E2B01010D51010131250201226F50
:105B780001010E51010132210201236F30C117F1D9
:105B88000101186B2CC1D9FF2DC1DAFFDF500101CB
:105B9800316F010131510101196F1A6BC90E0101F1
:105BA8001B6F000E1C6F000E1D6F000E1E6F56EC53
:105BB80062F0010117510001CA6F010E0101DC6F8B
:105BC800000E0101C86F6CD00101505101014E5DFA
:105BD8000101515101014F59D8B047D0800E010140
:105BE8004B5DD8B042D001014E510008010150254B
:105BF8000101456F010145510001A227000EA323B1
:105C08004EC131F14FC132F10101311F321F314B09
:105C1800322B01015051010131250201246F01018C
:105C28005151010132210201256F02012451020163
:105C3800265D0201255102012759D8B016D04EC160
:105C480031F14FC132F10101311F321F314B322B7B
:105C580001015051010131250201266F0101515105
:105C6800010132210201276F00D00101C851D8B4C7
:105C780004D00101DC51D8A404D0010E0101C86F81
:105C880000D00101465102013E5D01014751020168
:105C98003F59D8B005D046C13EF247C13FF200D0C7
:105CA80084EC7AF00101316F010131513E0DF3CFDF
:105CB80041F1F4CF42F141C108F142C109F179EC57
:105CC80077F008C10BF109C10CF10AC10DF1000E02
:105CD80001010E6F7A0E01010F6F440E0101106F62
:105CE8009DEC56F00BC135F10CC136F10DC137F101
:105CF800000E01010B6F280E01010C6F430E01010C
:105D08000D6F35C108F136C109F137C10AF1D3EC7D
:105D180051F008C117F109C118F10AC119F1F4ECE1
:105D280055F017C126F118C127F1010E0101286F9E
:105D3800090EA4EC6DF0000E02012D6F000E2C6F01
:105D4800030E01012E6503D0010E120000D084EC71
:105D58007AF00101316F010131513E0DF3CF43F16A
:105D6800F4CF44F143C108F144C109F179EC77F06B
:105D780008C10BF109C10CF10AC10DF1000E0101B6
:105D88000E6F7A0E01010F6F440E0101106F9DEC2A
:105D980056F00BC138F10CC139F10DC13AF1000EC2
:105DA80001010B6F280E01010C6F430E01010D6FED
:105DB80038C108F139C109F13AC10AF1D3EC51F0FF
:105DC80008C117F109C118F10AC119F1F4EC55F02D
:105DD80017C126F118C127F1010E0101286F090E1C
:105DE800A4EC6DF000D0000E12001200000E0101AC
:105DF8006D6F000E0001CB6F000E0101006F000EE9
:105E0800B0EC75F0000E4C6E000E436E200E87EC61
:105E180058F0000E0001CF6F000E0101BC6F0101A8
:105E2800F15189EC79F0020E35EC76F0600E87ECD2
:105E380058F0000E01010E6F000E42EC78F0190EBA
:105E48000101276F640E266F000E0101286F110EE5
:105E5800A4EC6DF0000E0101276FB40E266F010E41
:105E68000101286F120EA4EC6DF0010E0001C16F44
:105E780004000101BD51D8B409D0000E0101BD6F65
:105E88003E0E24EC39F00101CC2B00D00101BF51AA
:105E9800D8B409D0000E0101BF6F200E87EC58F06E
:105EA800600E87EC58F00101C051D8B407D0600EDD
:105EB80087EC58F0000E0101C06F00D00101BE51FF
:105EC800D8A404D00101BC51D8B4C0D1000E01013E
:105ED800756F000E0101786F000E776F000E0101DB
:105EE800CC6F0101BE51D8B455D0000E0101BE6F70
:105EF800ADEC79F00101EC6FADEC79F0000E010129
:105F0800736F1DD001017351010D720EF324D96E08
:105F1800030EF420DA6EADEC79F0DF6E01017351F7
:105F2800010D720EF324D96E030EF420DA6EDF50E1
:105F3800010175190101756F0101732B00D0FF0E66
:105F480001015E6FFF0E01015F6F0101EC5101015C
:105F5800606F616B01015E510101602701015F51B2
:105F680001016123010173510101626F636B01013A
:105F780060510101625D01016351800A0101646F92
:105F880001016151800A01016459D8A0BBD7000EF4
:105F98000001CF6F0101BC51D8B41DD0000E010122
:105FA800746F3A0E0101746501D011D0010174516A
:105FB800010D720EF324D96E030EF420DA6EDF5051
:105FC800010175190101756F0101742BEAD7000EE3
:105FD8000101BC6F00D073C377F10101786B010137
:105FE80077510101786F776B0301725101017727AF
:105FF800000E78230101DA510101D8B41FD0D00E68
:1060080001015E6FCA0EE82EFED75E2FFCD7D00EB8
:1060180001015E6FCA0EE82EFED75E2FFCD7250E53
:106028000101775D090E01017859D8B0EDD077C12B
:106038001AF178C11BF130EC6EF0E6D0010E0101C7
:106048006D6F010175510101D8A4DED001D0DCD0FB
:106058000101B2510101771905E10101B3510101B3
:106068007819D8A4D1D00101B2510101B311D8A433
:106078002BD0000E01016F6F000E706F000E716F54
:10608800000E726F010172511FE1100E0101705D67
:10609800020E01017159D8B017D001D015D06FC1C7
:1060A80005F170C106F171C107F172C108F163EC25
:1060B80077F0000E01016F27100E7023000E712378
:1060C800000E7223DFD700D0000E0101766F370E65
:1060D8000101766501D055D0B2C165F1B3C166F151
:1060E8000101676B686B65C100F166C101F167C1A9
:1060F80002F168C103F1380E0101046F000E056F4B
:10610800000E066F000E076F34EC70F00101765137
:10611800010100250101696F000E01010121010142
:106128006A6F000E0101022101016B6F000E01016F
:10613800032101016C6F69C105F16AC106F16BC1E8
:1061480007F16CC108F101017651010D020EF32629
:10615800000EF422720EF3240101096F030EF420DD
:1061680001010A6F040E01010B6F000E0C6F000E87
:106178000D6F000E0E6F40EC6CF0040E01017627D7
:10618800A6D70101B24BB32B0101B4510101B219D9
:106198003BE10101B5510101B319D8A435D0000E76
:1061A8000101056F000E066F020E076F000E086FE3
:1061B800ED0E0101096F010E01010A6F010E0101C7
:1061C8000B6F000E0C6F000E0D6F000E0E6F40EC83
:1061D8006CF0010E0101056F000E066F020E076FCD
:1061E800000E086FE30E0101096F030E01010A6F2B
:1061F8000B0E01010B6F000E0C6F000E0D6F000EE1
:106208000E6F40EC6CF000D0030E0101276FE80E12
:10621800266F000E0101286F110EA4EC6DF001012C
:10622800DA510101D8B412D0010177510101781176
:10623800D8A40CD0270E0101276F100E266F000E70
:106248000101286F110EA4EC6DF000D00101DA51A4
:106258000101D8A424D0020E0101CC6506D0010E9C
:1062680001016D6F000E0101CC6F01016D5101013B
:10627800D8B415D00101B4510101B25D0101B55185
:106288000101B359D8B007D0B2C10AF1B3C10BF1BB
:106298001EEC78F000D0000E01016D6F00D0000EEA
:1062A8000101016F010E006FEE0E0101026F010E78
:1062B8000101036FF4EC53F00009D8B438D0000E94
:1062C80001010C6F040E01010D6FEB0E01010E6F41
:1062D800010E01010F6F0101EE516DEC40F0000954
:1062E800D8B425D004010151C00B01016E6F010122
:1062F8006E45E846030B01016E6F030E01016E192E
:10630800D8A415D0020E0101066F040E0101076F13
:10631800720E0101086F030E0101096F3B0E0101A6
:106328000A6F23EC74F0010E0101BC6F00D0020E5D
:10633800F4EC75F00009D8B405D0937693B602D082
:106348008A9600D0110EF4EC75F00009D8B402D08A
:10635800FF0000D0020EE3EC77F00009D8B40BD0B0
:10636800000E0101276FFA0E266F000E0101286F3B
:10637800020EA4EC6DF0110EE3EC77F00009D8B42E
:106388000BD0030E0101276FE80E266F000E0101E6
:10639800286F110EA4EC6DF0120EF4EC75F00009E4
:1063A800D8B466D5FF0064D5120042D20101860533
:1063B800D8A44AD2570E0101126FFF0E0101136FC4
:1063C8005CEC34F0020E010180250101186F000E0B
:1063D800010181210101196F000E01011A6F78EC8A
:1063E80044F0040EE3EC77F00009D8A411D0040EB1
:1063F800F4EC75F00009D8A40BD0000E0101276F4A
:10640800010E266F000E0101286F040EA4EC6DF03A
:10641800000EE3EC77F00009D8B40CD0130E01019C
:10642800276F880E266F000E0101286F000EA4EC5E
:106438006DF000D0010E0001B36F06D2430E0101CA
:106448008619D8A463D0010120EE03F08051D92623
:106458008151DA22DF500101886F01018851010161
:10646800B06FB16B0101B0510101B16FB06B0101A7
:1064780020EE02F08051D9268151DA22DF50010145
:10648800886F010188510101B027000EB12324D083
:10649800010120EE05F08051D9268151DA22DF5022
:1064A8000101886F010188510201186F196B0201FF
:1064B80018510201196F186B010120EE04F0805188
:1064C800D9268151DA22DF500101886F01018851F4
:1064D80002011827000E1923010E0101C46F010ED5
:1064E8000101276F2C0E266F010E0101286F140E73
:1064F800A4EC6DF062EC45F083C118F184C119F188
:10650800000E01011A6F78EC44F09ED1440E01018F
:106518008619D8A4FDD0010120EE02F08051D926B9
:106528008151DA22DF500101886F01018851010190
:10653800FD6FFE6B0101FD51FE6FFD6B010120EE49
:1065480003F08051D9268151DA22DF500101886F8A
:10655800010188510101FD27000EFE23010120EEF3
:1065680004F08051D9268151DA22DF500101886F69
:10657800010188510201F56FF66B0201F551F66FC2
:10658800F56B010120EE05F08051D9268151DA2200
:10659800DF500101886F010188510201F527000EC3
:1065A800F623010120EE06F08051D9268151DA2226
:1065B800DF500101886F010188510201F76FF86B04
:1065C8000201F751F86FF76B010120EE07F08051D7
:1065D800D9268151DA22DF500101886F01018851E3
:1065E8000201F727000EF82380EC7AF0030E010170
:1065F800016FEC0E006FFDC102F1DEEC74F080EC6F
:106608007AF0030E0101016FED0E006FFEC102F179
:10661800DEEC74F080EC7AF0030E0101016FEE0EEF
:10662800006FF5C202F1DEEC74F080EC7AF0030E34
:106638000101016FF10E006FF6C202F1DEEC74F099
:1066480080EC7AF0030E0101016FF20E006FF7C2C1
:1066580002F1DEEC74F080EC7AF0030E0101016FB8
:10666800F30E006FF8C202F1DEEC74F047D00101BE
:1066780020EE08F08051D9268151DA22DF5001013D
:10668800886F0101885102011C6F1D6B02011C51AA
:106698001D6F1C6B010120EE09F08051D926815134
:1066A800DA22DF500101886F0101885102011C279D
:1066B800000E1D23010120EE0AF08051D9268151D8
:1066C800DA22DF500101886F0101885102011E6F33
:1066D8001F6B02011E511F6F1E6B010120EE0BF094
:1066E8008051D9268151DA22DF500101886F0101DA
:1066F800885102011E27000E1F2300D083C118F104
:1067080084C119F1000E01011A6F78EC44F09CD095
:10671800420E01018619D8A46ED0020E01018A6FBB
:10672800040E01018A6501D052D00101875101018F
:106738008A5DD8B049D001018A51010DF350010199
:106748008025D96EF45001018121DA6EDF50D8A47A
:1067580017D08AC188F1FE0E01018827010E0101B8
:10676800896F0101882B03D00101D8908937010175
:10677800882FFAD701018951FF0A0101D21724D0C5
:1067880001018A51010DF35001018025D96EF450A1
:1067980001018121DA6EDE04D8A416D08AC188F1FD
:1067A800FE0E01018827010E0101896F0101882B66
:1067B80003D00101D89089370101882FFAD7010148
:1067C80089510101D21300D001018A2BA9D7D2C166
:1067D80007F1010E49EC74F0010E94EC72F001011E
:1067E800D26F83C118F184C119F1000E01011A6F2B
:1067F80078EC44F029D0450E01018619D8A424D09C
:10680800140E0101C96F83C118F184C119F1000E7A
:1068180001011A6F78EC44F017D0890E0101126F4C
:10682800FF0E0101136F5CEC34F0010E12000CD066
:1068380001018551010AD8B4F0D71F0AD8B4B6D5DA
:10684800010AD8B4FBD500D083C1D9FF84C1DAFFCF
:10685800DF50D8A42AD0010120EE01F08351D926B7
:106868008451DA22DF50D8A420D0010120EE02F0B2
:106878008351D9268451DA22DF50D8A416D00101D9
:1068880020EE03F08351D9268451DA22100EDF60FE
:106898000CD0010E0101276F2C0E266F010E01018D
:1068A800286F130EA4EC6DF000D0000E1200120039
:1068B800140E0101266F010E0101276F4CD2250E1F
:1068C80001012D19D8B405D001012D51DEEC78F065
:1068D80042D2000E01012C6F000E2B6F000E010139
:1068E8002A6F07D001012A850101124B132B01D011
:1068F8000BD012C1F6FF13C1F7FF0800F550300A9C
:10690800D8B4F0D701D0F5D712C1F6FF13C1F7FFFD
:106918000800F55007EC77F0D8A0A5D0000E0101CB
:106928002C6F000E2B6F00D02BC100F12CC101F190
:10693800000E0101036F0A0E026F52EC76F000C1DF
:106948002BF101C12CF1D00E01011C6FFF0E0101CA
:106958001D6F12C1F6FF13C1F7FF0800F5500101C2
:106968001E6F1F6B01011C5101011E2701011D51E2
:1069780001011F2301011E5101012B2701011F5194
:1069880001012C230101124B132B12C1F6FF13C175
:10699800F7FF0800F55007EC77F0D8A064D0C4D70B
:1069A80062D012007FD000D001012A8F7BD0010174
:1069B8002B510101235D01012C5101012459D8B04B
:1069C80009D00101235101012B5F0101245101016B
:1069D8002C5B0AD0000E01012C6F000E2B6F04D027
:1069E800200EDEEC78F000D001012B07D8A02C0790
:1069F80001012B29F5E101012C29D8B40DD0F0D7DC
:106A08000BD021C1D9FF22C1DAFFDF50DEEC78F0CC
:106A18000101214B222B00D001012307D8A0240714
:106A280001012329EEE101012429D8B494D1E9D741
:106A380092D126C1D9FF27C1DAFFDF5001012D6F9E
:106A4800020E01012627000E272300D02D0E01017A
:106A5800216F010E0101226F000E0101246F010E4A
:106A6800236FA5D71FD012C1F6FF13C1F7FF01018D
:106A7800124B132B0800F5CF2DF101012D51000AFF
:106A8800D8B41200580AD8B48FD73B0AD8B4D1D793
:106A9800070AD8B407D00D0AD8B404D0110AD8B45C
:106AA80083D7D4D701012ABF19D026C1D9FF27C15E
:106AB800DAFFDECF28F1DDCF29F1020E010126270A
:106AC800000E2723010129AF5DD0030E01012A130F
:106AD8000101286D291FD8B0292B54D026C1D9FF10
:106AE80027C1DAFFDECF28F1DDCF29F1020E01013F
:106AF8002627000E272346D0010E01012D6F050E13
:106B080001012D19D8B448D001D046D001012D512A
:106B1800020D690EF324F66EFE0EF420F76E0900DE
:106B2800F5500101285D0900F55001012959D8A047
:106B380033D001D031D001012D2BE1D72DD0010E5A
:106B480001012D6F040E01012D19D8B425D001D0F3
:106B580023D001012D51020D7B0EF324F66EFE0E9B
:106B6800F420F76E0900F5500101285D0900F55081
:106B780001012959D8A010D001D00ED001012D2B28
:106B8800E1D70AD001012A51800B000AD8B4B4D742
:106B9800800AD8B4D4D700D001012B5101012C119F
:106BA800D8B40CD02AC11CF1030E01011C17D8B4AB
:106BB80005D001012B07D8A02C0700D0800E0101B9
:106BC8002DBF7F0E01011C6F01012B5101012D5DAD
:106BD80001012C51800A01011C59D8B00BD00101C8
:106BE8002D5101012B5F000E01012DBFFF0E010188
:106BF8002C5B06D0000E01012C6F000E2B6F00D00D
:106C080001012AA520D02AC11CF1030E01011C177D
:106C1800D8B404D02D0EDEEC78F000D001012B5151
:106C280001012C11D8B42FD0300EDEEC78F0010120
:106C38002B07D8A02C0701012B5101012C11D8B426
:106C480022D0F2D720D001012B5101012C11D8B448
:106C58000FD0200EDEEC78F001012B07D8A02C070E
:106C680001012B5101012C11D8B402D0F2D700D068
:106C78002AC11CF1030E01011C17D8B404D02D0E33
:106C8800DEEC78F000D02DC125F15DD04DD00101AA
:106C98002551020D690EF324F66EFE0EF420F76EF0
:106CA8000900F5CF08F10A00F5CF09F128C106F16E
:106CB80029C107F1B8EC6EF006C10DF107C10EF15C
:106CC800000E0101106F0A0E0F6F90EC71F00101B8
:106CD8000D51300F01012D6F31D028C106F129C1A6
:106CE80007F101012551020D7B0EF324F66EFE0E0D
:106CF800F420F76E0900F5CF08F10A00F5CF09F185
:106D0800B8EC6EF0010106510F0B0101206F010173
:106D18002051010D690EF324F66EFF0EF420F76E74
:106D28000800F5CF2DF10AD001012A51800B000A85
:106D3800D8B4ADD7800AD8B4D0D700D001012D512E
:106D4800DEEC78F000D00101250701012529D8B42F
:106D580002D0EAD700D012C1F6FF13C1F7FF010134
:106D6800124B132B0800F5CF2DF101012D51D8B48A
:106D78001200A5D5120012006E0E0001786F000EE9
:106D88000001796F4CD2250E00017F19D8B405D0C7
:106D980000017F51FEEC78F042D2000E00017E6FB8
:106DA800000E7D6F000E00017C6F07D000017C850E
:106DB80000016C4B6D2B01D00BD06CC0F6FF6DC081
:106DC800F7FF0800F550300AD8B4F0D701D0F5D74E
:106DD8006CC0F6FF6DC0F7FF0800F5504CEC77F07B
:106DE800D8A0A5D0000E00017E6F000E7D6F00D0E8
:106DF8007DC060F07EC061F0000E0001636F0A0E76
:106E0800626F6EEC76F060C07DF061C07EF0D00EEF
:106E180000016E6FFF0E00016F6F6CC0F6FF6DC052
:106E2800F7FF0800F5500001706F716B00016E519B
:106E38000001702700016F5100017123000170519A
:106E480000017D270001715100017E2300016C4B78
:106E58006D2B6CC0F6FF6DC0F7FF0800F5504CECC9
:106E680077F0D8A064D0C4D762D012007FD000D009
:106E780000017C8F7BD000017D510001755D000110
:106E88007E5100017659D8B009D000017551000132
:106E98007D5F0001765100017E5B0AD0000E000183
:106EA8007E6F000E7D6F04D0200EFEEC78F000D0CF
:106EB80000017D07D8A07E0700017D29F5E10001CA
:106EC8007E29D8B40DD0F0D70BD073C0D9FF74C0C9
:106ED800DAFFDF50FEEC78F00001734B742B00D022
:106EE80000017507D8A0760700017529EEE10001B9
:106EF8007629D8B494D1E9D792D178C0D9FF79C08E
:106F0800DAFFDF5000017F6F020E00017827000EC4
:106F1800792300D07F0E0001736F000E0001746F9B
:106F2800000E0001766F010E756FA5D71FD06CC0DB
:106F3800F6FF6DC0F7FF00016C4B6D2B0800F5CF15
:106F48007FF000017F51000AD8B41200580AD8B463
:106F58008FD73B0AD8B4D1D7070AD8B407D00D0ABF
:106F6800D8B404D0110AD8B483D7D4D700017CBFD1
:106F780019D078C0D9FF79C0DAFFDECF7AF0DDCF3B
:106F88007BF0020E00017827000E792300017BAF09
:106F98005DD0030E00017C1300017A6D7B1FD8B011
:106FA8007B2B54D078C0D9FF79C0DAFFDECF7AF0D6
:106FB800DDCF7BF0020E00017827000E792346D042
:106FC800010E00017F6F050E00017F19D8B448D06B
:106FD80001D046D000017F51020D690EF324F66EF0
:106FE800FE0EF420F76E0900F55000017A5D0900E5
:106FF800F55000017B59D8A033D001D031D0000121
:107008007F2BE1D72DD0010E00017F6F040E000108
:107018007F19D8B425D001D023D000017F51020DAB
:107028007B0EF324F66EFE0EF420F76E0900F55081
:1070380000017A5D0900F55000017B59D8A010D0F5
:1070480001D00ED000017F2BE1D70AD000017C517E
:10705800800B000AD8B4B4D7800AD8B4D4D700D0EB
:1070680000017D5100017E11D8B40CD07CC06EF0B7
:10707800030E00016E17D8B405D000017D07D8A013
:107088007E0700D0800E00017FBF7F0E00016E6F6B
:1070980000017D5100017F5D00017E51800A0001E1
:1070A8006E59D8B00BD000017F5100017D5F000EF2
:1070B80000017FBFFF0E00017E5B06D0000E0001BD
:1070C8007E6F000E7D6F00D000017CA520D07CC0B3
:1070D8006EF0030E00016E17D8B404D02D0EFEEC2E
:1070E80078F000D000017D5100017E11D8B42FD076
:1070F800300EFEEC78F000017D07D8A07E07000175
:107108007D5100017E11D8B422D0F2D720D00001E1
:107118007D5100017E11D8B40FD0200EFEEC78F01E
:1071280000017D07D8A07E0700017D5100017E1176
:10713800D8B402D0F2D700D07CC06EF0030E0001A4
:107148006E17D8B404D02D0EFEEC78F000D07FC0B6
:1071580077F05DD04DD000017751020D690EF32410
:10716800F66EFE0EF420F76E0900F5CF62F00A0005
:10717800F5CF63F07AC060F07BC061F03AEC6FF055
:1071880060C067F061C068F0000E00016A6F0A0E07
:10719800696FC6EC71F000016751300F00017F6F15
:1071A80031D07AC060F07BC061F000017751020DE8
:1071B8007B0EF324F66EFE0EF420F76E0900F5CF71
:1071C80062F00A00F5CF63F03AEC6FF0000160510D
:1071D8000F0B0001726F00017251010D690EF3244B
:1071E800F66EFF0EF420F76E0800F5CF7FF00AD098
:1071F80000017C51800B000AD8B4ADD7800AD8B4FE
:10720800D0D700D000017F51FEEC78F000D000010B
:10721800770700017729D8B402D0EAD700D06CC02C
:10722800F6FF6DC0F7FF00016C4B6D2B0800F5CF22
:107238007FF000017F51D8B41200A5D512001200CA
:107248000101046F0101045102012A2502012A6F7C
:10725800000E02012B2102012B6F000E0101056FA8
:10726800180E0101056501D072D001010551010D0B
:10727800590EF324D96E030EF420DA6EDF50D8A429
:1072880063D001010551020D000EF324D96E030EDF
:10729800F420DA6E010104510101026F036B010E43
:1072A80001010227000E0323DE500101025DDE50BA
:1072B80001010359D8B02DD001010551020D000E6E
:1072C800F324D96E030EF420DA6EDECF00F1DDCFA1
:1072D80001F1010104510101026F036B0101021F59
:1072E800031F024B032B0101005101010227010179
:1072F80001510101032301010551020D000EF32480
:10730800D96E030EF420DA6E02C1DEFF03C1DDFF81
:107318001BD001010551020D000EF324D96E030E96
:10732800F420DA6EDE50DE10D8B40ED0010105511B
:10733800020D000EF324D96E030EF420DA6E010E4E
:10734800DE6E000EDD6E00D00101052B89D7E80E38
:1073580002012A5D030E02012B59D8A01200180E53
:1073680002012A2502012A6FFC0E02012B210201CB
:107378002B6F472A000E0101066F180E01010665E2
:1073880001D063D001010651010D590EF324D96EC5
:10739800030EF420DA6EDE04D8A454D0010106519D
:1073A800020D000EF324D96E030EF420DA6E010EDE
:1073B800DB5004E1020EDE5CD8A029D0FF0E0101EB
:1073C800006FFF0E0101016F01010651020D000E51
:1073D800F324D96E030EF420DA6EDECF02F1DDCF8E
:1073E80003F10101005101010227010101510101CD
:1073F800032301010651020D000EF324D96E030E7A
:10740800F420DA6E02C1DEFF03C1DDFF1BD00101EB
:107418000651020D000EF324D96E030EF420DA6E25
:10742800DE50DE10D8B40ED001010651020D000E58
:10743800F324D96E030EF420DA6E010EDE6E000E10
:10744800DD6E00D00101062B98D73B0E4764120071
:107458004750C40F476E422A000E0101076F180EED
:107468000101076501D064D001010751010D590ED2
:10747800F324D96E030EF420DA6E020EDE18D8A4B7
:1074880054D001010751020D000EF324D96E030EEA
:10749800F420DA6E010EDB5004E1020EDE5CD8A0A7
:1074A80029D0FF0E0101006FFF0E0101016F0101DC
:1074B8000751020D000EF324D96E030EF420DA6E84
:1074C800DECF02F1DDCF03F10101005101010227F6
:1074D800010101510101032301010751020D000EB1
:1074E800F324D96E030EF420DA6E02C1DEFF03C165
:1074F800DDFF1BD001010751020D000EF324D96EE8
:10750800030EF420DA6EDE50DE10D8B40ED001017E
:107518000751020D000EF324D96E030EF420DA6E23
:10752800010EDE6E000EDD6E00D00101072B97D72D
:107538003B0E426412004250C40F426E000E01011D
:10754800086F180E0101086502D01200120001012F
:107558000851010D590EF324D96E030EF420DA6E8A
:10756800030EDE18D8A454D001010851020D000EF4
:10757800F324D96E030EF420DA6E010EDB5004E119
:10758800020EDE5CD8A029D0FF0E0101006FFF0EAD
:107598000101016F01010851020D000EF324D96E9B
:1075A800030EF420DA6EDECF02F1DDCF03F1010124
:1075B80000510101022701010151010103230101C9
:1075C8000851020D000EF324D96E030EF420DA6E72
:1075D80002C1DEFF03C1DDFF1BD001010851020D0E
:1075E800000EF324D96E030EF420DA6EDE50DE109E
:1075F800D8B40ED001010851020D000EF324D96E43
:10760800030EF420DA6E010EDE6E000EDD6E00D081
:107618000101082B180E0101086599D71200120004
:107628001200010120EE01F02F51D9263051DA2243
:107638002FC1E1FF30C1E2FFDE50E618D8A41200E6
:10764800010120EE02F02F51D9263051DA22010132
:1076580010EE01F02F51E1263051E222DE50E618FB
:10766800D8A41200010120EE02F02F51D926305182
:10767800DA22DE28D8B412002FC1D9FF30C1DAFFD0
:10768800DF500101336F010133A14CD0010120EE1D
:1076980004F02F51D9263051DA22010110EE03F0FF
:1076A8002F51E1263051E222DE50E618D8A43AD014
:1076B800010120EE05F02F51D9263051DA220101BF
:1076C80010EE04F02F51E1263051E222DE50E61888
:1076D800D8A428D0010120EE05F02F51D926305129
:1076E800DA22DE28D8B41ED080EC7AF0030E01012D
:1076F800016FFD0E006F010120EE03F02F51D92616
:107708003051DA22DF500101026FDEEC74F0010122
:1077180020EE03F02F51D9263051DA22DF509AECAF
:1077280078F000D0010133A342D0010120EE07F028
:107738002F51D9263051DA22010110EE06F02F51CF
:10774800E1263051E222DE50E618D8A430D00101FB
:1077580020EE08F02F51D9263051DA22010110EE1F
:1077680007F02F51E1263051E222DE50E618D8A466
:107778001ED080EC7AF0030E0101016FFE0E006F3F
:10778800010120EE06F02F51D9263051DA22DF50C0
:107798000101026FDEEC74F0010120EE06F02F51BA
:1077A800D9263051DA22DF50FDEC73F000D0010108
:1077B80033A54CD0010120EE0AF02F51D9263051C3
:1077C800DA22010110EE09F02F51E1263051E222B0
:1077D800DE50E618D8A43AD0010120EE0BF02F5164
:1077E800D9263051DA22010110EE0AF02F51E12694
:1077F8003051E222DE50E618D8A428D0010120EE4C
:107808000BF02F51D9263051DA22DE28D8B41ED0F9
:1078180080EC7AF0030E0101016FFC0E006F01018C
:1078280020EE09F02F51D9263051DA22DF5001011C
:10783800026FDEEC74F0010120EE09F02F51D92619
:107848003051DA22DF5089EC79F000D0010133A7FA
:107858001200010120EE0DF02F51D9263051DA2205
:10786800010110EE0CF02F51E1263051E222DE50DA
:10787800E618D8A41200010120EE0EF02F51D926E7
:107888003051DA22010110EE0DF02F51E12630516E
:10789800E222DE50E618D8A41200010120EE0EF014
:1078A8002F51D9263051DA22DE28D8B4120080ECC4
:1078B8007AF0030E0101016FEF0E006F010120EE57
:1078C8000CF02F51D9263051DA22DF500101026F16
:1078D800DEEC74F0010120EE0CF02F51D926305166
:1078E800DA22DF5045EC7AF012001200400E010156
:1078F800286F000E0101296F3E0E0101296501D094
:10790800D7D001012951060DBD0EF3240101066FE0
:107918000A0EF4200101076F21C108F122C109F103
:10792800040E01010A6F55EC73F00009D8B4A0D019
:1079380001012951060D040EF326000EF422BD0E96
:10794800F324D96E0A0EF420DA6EDF500F0B0F0AFB
:10795800D8A440D0010124510101D8B43BD0442A15
:1079680001012951060D040EF326000EF422BD0E66
:10797800F324D96E0A0EF420DA6EDF90DF92DF94DA
:10798800DF9623C100F10101295104EC64F0020ED5
:1079980001012419D8B41AD0030E0101086F01019E
:1079A800235197EC49F00101266F21C115F122C13D
:1079B80016F129C117F1010E0101186F26C119F13D
:1079C800000E01011A6F50EC1EF000D00101295180
:1079D80012006BD001012951060D040EF326000E8A
:1079E800F422BD0EF324D96E0A0EF420DA6EDF50AD
:1079F8000F0B0F0AD8B439D001012951060D040E16
:107A0800F326000EF422BD0EF324D96E0A0EF420DC
:107A1800DA6EDF90DF92DF94DF9623C100F1010177
:107A2800295104EC64F0020E01012419D8B4CED710
:107A3800030E0101086F0101235197EC49F0010180
:107A4800266F21C115F122C116F129C117F1010EC6
:107A58000101186F26C119F1000E01011A6F50ECCF
:107A68001EF0B4D7B3D7120020D0FF0E12001DD0DD
:107A780001012951060DBD0EF3240101066F0A0EFE
:107A8800F4200101076FE10E0101086F010E0101E9
:107A9800096F040E01010A6F55EC73F00009D8B4A0
:107AA80004D029C128F104D000D00101292B24D702
:107AB8003E0E0101286521D0000E0101276F3E0E00
:107AC8000101276501D019D001012751060D040EC7
:107AD800F326000EF422BD0EF324D96E0A0EF4200C
:107AE800DA6EDF500F0B0F0AD8A403D027C128F194
:107AF80004D00101272BE3D700D03F0E01012861F4
:107B080054D0010124510101D8B44FD021C106F14C
:107B180022C107F101012851060DBD0EF324010110
:107B2800086F0A0EF4200101096F040E01010A6FA3
:107B380023EC74F001012851060D040EF326000E03
:107B4800F422BD0EF324D96E0A0EF420DA6EDF900B
:107B5800DF92DF94DF9623C100F10101285104EC84
:107B680064F0442A020E01012419D8B41AD0030E75
:107B78000101086F0101235197EC49F00101266FBB
:107B880021C115F122C116F128C117F1010E010119
:107B9800186F26C119F1000E01011A6F50EC1EF082
:107BA80000D001012851120000D0FF0E120012006F
:107BB800030E0101016F006939EC79F00101156FBD
:107BC80001011505D8A440D0000E01011A6F000E5E
:107BD800196F01011ABF0AD0F00E0101195D030ED9
:107BE80001011A59D8B011D001D00FD080EC7AF029
:107BF80019C100F11AC101F1FF0E0101026FDEEC9B
:107C080074F00101194B1A2BE4D7030E01011A6F06
:107C1800F40E196F01011ABF07D0040E01011A5D95
:107C2800D8B012D001D010D080EC7AF019C100F190
:107C38001AC101F1FF0E0101026FDEEC74F00101BF
:107C4800194B1A2BE7D700D0010E0101156504D096
:107C580001011529D8A40CD080EC7AF0030E01019B
:107C6800016F0069020E0101026FDEEC74F000D0B2
:107C7800000E0101166F030E0101166501D018D020
:107C880001011651010DF90EF324D96E010EF420ED
:107C9800DA6EE80E010116250101006F0101016B82
:107CA800030E012339EC79F0DF6E0101162BE3D7BF
:107CB8000101F929D8A419D00101FA29D8A415D0AD
:107CC8000101FB29D8A411D00101FC29D8A40DD0A9
:107CD800000E0101F96F000E0101FA6F000E01019B
:107CE800FB6F020E0101FC6F00D0030E0101016F52
:107CF800EF0E006F39EC79F00101146F01011429BE
:107D0800D8A404D0080E0101146F00D00101145149
:107D180045EC7AF00201E329D8A451D00201E42904
:107D2800D8A44DD00201E529D8A449D00201E629FA
:107D3800D8A445D0899E4B0E54EC78F0000E54EC34
:107D480078F0000E54EC78F0000E54EC78F0000E49
:107D580054EC78F0000E0101176F2BD02ED062EC96
:107D680079F0010100510101136F030E010117653C
:107D78001ED0FC0E0101076FFF0E0101086F010103
:107D880017510101096F0A6B010107510101092708
:107D98000101085101010A23E30E01010925D96EE9
:107DA800020E01010A21DA6E13C1DFFF00D00101C2
:107DB800172B070E01011765D2D7898E00D0000E48
:107DC8000101186F070E0101186501D018D00101D3
:107DD8001851010D0B0EF324D96E010EF420DA6E42
:107DE800F40E010118250101006F0101016B030E5A
:107DF800012339EC79F0DF6E0101182BE3D70B0E64
:107E08000101006F010E0101016FA9EC6BF0030E77
:107E18000101016FFD0E006F39EC79F0FF0AD8B44B
:107E28000BD001D009D0030E0101016FFD0E006FC8
:107E380039EC79F09AEC78F0030E0101016FFE0E2F
:107E4800006F39EC79F0FF0AD8A403D00001CC699F
:107E58001200030E0101016FFE0E006F39EC79F07C
:107E68000001CC6F12001200000E0101126F000E0B
:107E7800116F010112BF0AD00101125106E13F0E34
:107E88000101115DD8B082D001D080D0E10E01018E
:107E9800066F010E0101076F11C100F112C101F156
:107EA800000E0101036F060E026F52EC76F0BD0E54
:107EB800010100250101086F0A0E010101210101DC
:107EC800096F040E01010A6F23EC74F011C100F16F
:107ED80012C101F1000E0101036F060E026F52EC90
:107EE80076F0040E01010027000E01010123BD0EEA
:107EF80001010025D96E0A0E01010121DA6EDF8029
:107F0800DF82DF84DF8611C100F112C101F1000EAA
:107F18000101036F060E026F52EC76F0040E0101A8
:107F28000027000E01010123BD0E01010025D96EB5
:107F38000A0E01010121DA6EDF88DF8ADF8CDF8E0D
:107F480011C100F112C101F1000E0101036F060E0B
:107F5800026F52EC76F0050E01010027000E0101B8
:107F68000123BD0E01010025D96E0A0E0101012170
:107F7800DA6EFF0EDF6E0101114B122B010112BFE9
:107F880085D70101125102E17AD700D0000E020113
:107F98005B6F000E0101126F000E116F010112BF1D
:107FA8000AD00101125166E1FA0E0101115DD8B043
:107FB80061D001D05FD011C10FF112C110F1D8907A
:107FC80001010F371037010E01010F27000E102392
:107FD800C90E01010F25D96E080E01011021DA6EB4
:107FE800DF80DF82DF84DF86DF88E10E0101076F33
:107FF800010E0101086F0101115117EC6DF011C15B
:108008000FF112C110F1D89001010F371037010E8E
:1080180001010F27000E1023C90E01010F25D96E8B
:10802800080E01011021DA6EDF8ADF8CDF8ED8900E
:1080380001011135D96E01011235DA6EC90ED92642
:10804800080EDA22DF80DF82DF84DF86DF88DF8ABE
:10805800D89001011135D96E01011235DA6EC90EB9
:10806800D926080EDA223F0EDF160101114B122B1A
:1080780095D700D0E10E0101066F010E0101076FCF
:10808800E70E0101086F020E0101096F040E0101DC
:108098000A6F23EC74F00201DD69000E0201646FBF
:1080A800030E0201656F000E02018C6F000E0201C3
:1080B8008E6F020E02018F6F000E0201906F010E8B
:1080C8000101F06F000E0101E06F000E0101D46F95
:1080D80012000101166F0201DB510201D8B42CD045
:1080E800240E01011619D8A423D00201562B020E22
:1080F80002015619D8A41AD1000E0201DB6F010E35
:1081080002014D6F000E02014B6F000E02014E6F0F
:10811800000E02014F6F010E02014C6F000E0001AC
:10812800C36F000E0201566F000E0201556FFED09C
:10813800000E0201566FFAD002014C510201D8B468
:10814800DFD002014D510201D8B407D016C1CEF0DC
:10815800000E02014D6F010E06D002014B510201C3
:10816800D8B404D0000E02014B6F5DD00001C3519A
:108178000101106F116BFE0E0101126FFF0E01015C
:10818800136F0001CE510101146F156B01011251DB
:108198000101142701011351010115230101105197
:1081A800010114190FE10101115101011519D8A498
:1081B80009D00D0E01011619D8A435D0010E0201FF
:1081C8004E6F31D00001C3510101106F116BFF0ECA
:1081D8000101126FFF0E0101136F0001CE51010161
:1081E800146F156B0101125101011427010113517C
:1081F8000101152301011051010114190FE10101B9
:10820800115101011519D8A409D00A0E0101161936
:10821800D8A409D0010E02014F6F05D001011651F3
:108228000201551B00D00001C351010D800EF3243B
:10823800D96E050EF420DA6E16C1DFFF0001C32BDC
:108248000001C3510001CE19D8A43DD0000E02018F
:108258004C6F0EC1D9FF0FC1DAFFC3C0DFFF800E1C
:108268000101066F050E0101076F0CC108F10DC170
:1082780009F1C3C00AF123EC74F0010E0201DB6FAF
:10828800000E0201566F020155510201D8B405D003
:10829800000E0201556F000E120002014E5102013C
:1082A800D8B40BD002014F510201D8B406D0000E49
:1082B8000201556F010E120039D0000E0201556FF0
:1082C8001CD0120033D03E0E0001C3652FD0010E22
:1082D8000201DB6F000E0201566F000E0001C36F32
:1082E800000E02014D6F000E02014B6F000E0201DD
:1082F8004E6F000E02014F6FE0D7000E120016D02D
:10830800010E0201DB6F000E0201566F000E020122
:10831800556F000E02014D6F000E02014E6F000EE8
:1083280002014F6F000E02014B6F00D0000E1200C9
:108338001200000E0101126F000E116F010112BF31
:108348000AD00101125106E1FA0E0101115DD8B0FF
:10835800E8D001D0E6D00BC104F10CC105F1010150
:10836800115105EC5FF00009D8B4D0D011C10FF15C
:1083780012C110F1D89001010F371037010E010119
:108388000F27000E1023C90E01010F25D96E080E04
:1083980001011021DA6EDF501F0B1F0AD8B4A6D0D6
:1083A800D89001011135D96E01011235DA6EC90E66
:1083B800D926080EDA22DF503F0B01010F6F0101A9
:1083C8000F51060DBD0EF324D96E0A0EF420DA6E95
:1083D8000DC1E1FF0EC1E2FFDFCFE7FFD890010139
:1083E8001135D96E01011235DA6EC90ED926080E7B
:1083F800DA22DF503F0B01010F6F01010F51060D0B
:10840800010EF326000EF422BD0EF324D96E0A0ED7
:10841800F420DA6E010110EE01F00D51E1260E5143
:10842800E222DFCFE7FFD89001011135D96E0101B3
:108438001235DA6EC90ED926080EDA22DF503F0B44
:1084480001010F6F01010F51060D020EF326000EF8
:10845800F422BD0EF324D96E0A0EF420DA6E01015F
:1084680010EE02F00D51E1260E51E222DFCFE7FFB8
:10847800D89001011135D96E01011235DA6EC90E95
:10848800D926080EDA22DF503F0B01010F6F0101D8
:108498000F51060D030EF326000EF422BD0EF32431
:1084A800D96E0A0EF420DA6E010110EE03F00D51B8
:1084B800E1260E51E222DFCFE7FF11C10FF112C111
:1084C80010F1D89001010F371037010E01010F2765
:1084D800000E1023C90E01010F25D96E080E0101E7
:1084E8001021DA6EDF501F0B120010D0D890010156
:1084F8001135D96E01011235DA6EC90ED926080E6A
:10850800DA223F0EDF161F0E120000D00101114BB8
:10851800122B010112BF1FD70101125102E114D71A
:1085280000D01F0E12001200000E01010F6F000E86
:108538000E6F01010FBF0AD001010F5106E13F0E76
:1085480001010E5DD8B0D4D001D0D2D006C1D9FF78
:1085580007C1DAFF0EC100F10FC101F1000E0101E0
:10856800036F060E026F52EC76F0BD0E0101002576
:10857800E16E0A0E01010121E26EDE50E618D8A470
:10858800ACD0010120EE01F00651D9260751DA22BC
:108598000EC100F10FC101F1000E0101036F060EBB
:1085A800026F52EC76F0010E01010027000E010166
:1085B8000123BD0E01010025E16E0A0E0101012112
:1085C800E26EDE50E618D8A488D0010120EE02F051
:1085D8000651D9260751DA220EC100F10FC101F167
:1085E800000E0101036F060E026F52EC76F0020EC8
:1085F80001010027000E01010123BD0E0101002524
:10860800E16E0A0E01010121E26EDE50E618D8A4DF
:1086180064D0010120EE03F00651D9260751DA2271
:108628000EC100F10FC101F1000E0101036F060E2A
:10863800026F52EC76F0030E01010027000E0101D3
:108648000123BD0E01010025E16E0A0E0101012181
:10865800E26EDE50E618D8A440D00EC100F10FC17A
:1086680001F1000E0101036F060E026F52EC76F065
:10867800050E01010027000E01010123BD0E0101B5
:108688000025D96E0A0E01010121DA6E08C1E1FF49
:1086980009C1E2FFDFCFE7FF0EC100F10FC101F111
:1086A800000E0101036F060E026F52EC76F0040E05
:1086B80001010027000E01010123BD0E0101002563
:1086C800D96E0A0E01010121DA6EDF380F0B0AC1DB
:1086D800D9FF0BC1DAFFDF6E120001010E4B0F2B21
:1086E80001010FBF33D701010F5102E128D700D094
:1086F80008C1D9FF09C1DAFFFF0EDF6E0AC1D9FF31
:108708000BC1DAFF0F0EDF6E120012003950D8B419
:10871800D9D002015251D8B410D0000E0201526FC4
:10872800000E0001D26F000E0001D36F000E396EEB
:10873800000E0001CF6F000E120002015051D8A4A4
:108748000DD0000E0001D26F000E0001D36F000E95
:10875800396E000E0001CF6F000E12000001D351D8
:10876800FD0F10C1D9FF11C1DAFFDF6E000E010144
:10877800186F400E0001D3650DD0000E0001D26FB6
:10878800000E0001D36F000E396E000E0001CF6F8E
:10879800000E1200020E0101196F11D001011951CA
:1087A800010D800EF324D96E040EF420DA6EDF502A
:1087B800010118190101186F0101192B00D00001DE
:1087C800D3510101195DD8A0E9D701011851010160
:1087D800D8B40DD0000E0001D26F000E0001D36F87
:1087E800000E396E000E0001CF6F000E120010C18E
:1087F800D9FF11C1DAFF3D0EDF640DD0000E000174
:10880800D26F000E0001D36F000E396E000E00010A
:10881800CF6F000E120010C1D9FF11C1DAFFDF506F
:108828000101126F136BFD0E0101146FFF0E0101A0
:10883800156F0001D3510101166F176B0101145117
:1088480001011627010115510101172301011251D8
:108858000101161906E10101135101011719D8B4D4
:108868000DD0000E0001D26F000E0001D36F000E74
:10887800396E000E0001CF6F000E1200800E01014C
:10888800006F040E0101016F020E0101026F0EC19B
:1088980003F10FC104F1000E0101056F10C1D9FFEA
:1088A80011C1DAFFDF500101066FF6EC6BF0000E24
:1088B8000001D26F000E0001D36F000E396E010E59
:1088C80012000FD03950D8B40CD0000E0001D26F6E
:1088D800000E0001D36F000E396E000E0001CF6F3D
:1088E80000D0000E12001200000E01017F6FACC014
:1088F80055F1ADC056F1010E0101576F18C10BF1CA
:1089080019C10CF1590E01010D6F010E01010E6F15
:108918009DEC41F00101586FCCC05DF13CC25EF1A5
:108928003DC25FF1590E0101066F010E0101076F8B
:108938007D0E0101086F010E0101096F7E0E010114
:108948000A6F010E01010B6F98EC42F07DC160F1D6
:108958007EC161F118C10BF119C10CF11AEC68F074
:108968000101626F6CEC7AF00101636F74EC7AF0CC
:108978000101646F38C265F139C266F1AEC067F1B2
:10898800AFC068F13AC269F13BC26AF1010E010158
:10899800CB6F32C26BF133C26CF11BD01EC26DF1CA
:1089A8001FC26EF11CC26FF11DC270F181BA02D0F4
:1089B800010E01D0000E0101716FAAC072F1ABC0A7
:1089C80073F118C274F119C275F11AD0FEC177F1AA
:1089D8001AD0F7C26DF1F8C26EF1F5C26FF1F6C2A6
:1089E80070F181BA02D0010E01D0000E0101716F41
:1089F800AAC072F1ABC073F1B0C174F1B1C175F125
:108A0800FDC176F1E3D7AEC078F1AFC079F1D0C03F
:108A18007AF1240E01017F6F01011A510101D8B4C6
:108A280034D0570E0101006F010E0101016F000ED5
:108A38000101026F1B0E0101036F010E0101046F9A
:108A4800140E0101056F7FC106F1F6EC6BF01B0EE9
:108A580001010E6F010E01010F6F18C110F119C14C
:108A680011F1E7EC61F01B0E0101046F010E010129
:108A7800056F01017F51140F0101066F000E0101FE
:108A8800076F020E7EEC60F0120018C10EF119C1DA
:108A98000FF1570E0101106F010E0101116F7FC117
:108AA80012F1000E0101136F010E0101146F000E87
:108AB8000101156F42EC46F0120012000001D4517A
:108AC800D8A4120001D012000AEC6BF00DC1AAF074
:108AD8000EC1ABF00001C0510001D8B403D00001B1
:108AE800C00700D00101C4510101D8B41200030E1F
:108AF8000001AA250101146F000E0001AB2101013C
:108B0800156F0101B0510101145D0101B15101015D
:108B18001559D8B038D00001D9510001D8A40DD0CA
:108B2800020E0001D96F060E0101076F010E49EC14
:108B380074F0500E0001C06F12000101C351010111
:108B4800D8B412D00001C0510001D8A40DD0000E35
:108B58000101076F010E49EC74F0000E0101C36FAB
:108B6800100E0001C06F12000001C0510001D8A40E
:108B78001200010E0101076F010E49EC74F0010E9D
:108B88000001D96F1200FD0E0101146FFF0E0101E3
:108B9800156FAAC016F1ABC017F1010114510101FC
:108BA8001627010115510101172301011651010171
:108BB800B05D010117510101B159D8B037D000019A
:108BC800D905D8A40DD0020E0001D96F000E0101FD
:108BD800076F010E49EC74F0500E0001C06F1200CF
:108BE8000101C3510101D8A412D00001C0510001F4
:108BF800D8A40DD0060E0101076F010E49EC74F0E0
:108C0800010E0101C36F100E0001C06F12000001B8
:108C1800C0510001D8A41200070E0101076F010E10
:108C280049EC74F0000E0001D96F12000001D9510F
:108C38000001D8A40DD0020E0001D96F060E010163
:108C4800076F010E49EC74F0500E0001C06F12005E
:108C58000001C0510001D8A41200000E0101076FE5
:108C6800010E49EC74F0000E0101C36F020E000101
:108C7800D96F000E0101C46F1200120002015B518E
:108C8800D8A4D2D002018D51D8A4CED05C0E010157
:108C9800066F020E0101076FE70E0101086F020E51
:108CA8000101096F040E01010A6F23EC74F064C21C
:108CB800DDF2060E02015B6F0EC106F10FC107F16E
:108CC800600E0101086F020E0101096F040E010117
:108CD8000A6F23EC74F0E50E0101066F010E010125
:108CE800076F5C0E0101086F020E0101096F040E87
:108CF80001010A6F23EC74F0C2EC79F00201646F91
:108D0800000E0201906F010115510101D8B402D083
:108D1800040E01D0030E0201656F00D0270E010179
:108D2800126156D00101CA51D8B431D00101145191
:108D38000101D8B42CD0010E010110250101006FEA
:108D4800000E010111210101016FFF0E0101122521
:108D58000101026F0101036BFF0E03237BEC5DF041
:108D68000101166F050E0101176F0101D890163722
:108D78000101172FFAD7010116510201666F10C1C0
:108D8800D9FF11C1DAFFDF500201662708D010C1F0
:108D9800D9FF11C1DAFFDF500201666F00D010C1A0
:108DA80000F111C101F1010E0101026F660E01010E
:108DB800036F020E0101046F010E0101056F01012D
:108DC80012050101066FF6EC6BF012C18CF200D0AF
:108DD80013C18DF2010113510101D8B403D0000E63
:108DE80002015B6F0001BD51D8A404D0000E01013F
:108DF800D96F18D0600E0101066F020E0101076FCE
:108E0800DF0E0101086F020E0101096F040E010156
:108E18000A6F55EC73F00009D8B404D0020E0201B1
:108E28005B6F00D0010E1200000E1200120001014B
:108E3800146F000E0101166F000E176F000E186FE9
:108E4800000E196F040E01010F19D8A40BD00DC123
:108E580016F10EC117F10101000E17BFFF0E186FB2
:108E6800196F54D001010F510101D8A42FD00DC1A1
:108E780010F10EC111F1000E010111BFFF0E126FAA
:108E8800136F0F0ED89001011037113712371337AF
:108E9800E82EF8D710C100F111C101F112C102F199
:108EA80013C103F1E80E0101046F030E056F000EF4
:108EB800066F000E076FCEEC64F000C116F101C119
:108EC80017F102C118F103C119F120D001010F05F2
:108ED800D8A41CD00DC110F10EC111F1000E010172
:108EE80011BFFF0E126F136F0F0ED89001011037CC
:108EF800113712371337E82EF8D710C116F111C100
:108F080017F112C118F113C119F100D016C110F1EF
:108F180017C111F118C112F119C113F10101101F84
:108F2800111F121F131F102B000E112312231323BE
:108F3800FF0E010110250101166FFF0E010111211D
:108F48000101176F000E010112210101186F000EB7
:108F5800010113210101196F01011405D8A40BD0D7
:108F680017C1CFFF16C1CEFF8C0ECD6E9F809E908D
:108F78009D80CD8000D0030E01011419D8A40AD019
:108F880017C1B3FF16C1B2FF8C0EB16EA292A192A7
:108F9800A082B1803E50D8A41200010E3E6E000E91
:108FA8000101156F180E0101156502D0120012009B
:108FB80001011551020D000EF324D96E030EF420A1
:108FC800DA6E000EDE6E000EDD6E0101152B180E36
:108FD80001011565EDD71200120012000001D451ED
:108FE800D8B404D0000E0001D46F1200040EF4ECC3
:108FF80075F00009D8B4A3D00101B951010D730E61
:10900800F324F66EFE0EF420F76E0800F550000902
:10901800D8A495D0010E0101B96F010E0201536F5A
:109028008ED000EC5EF00DC1ACF00EC1ADF00001C9
:10903800ADBF08D03E0E0001AC5D080E0001AD5971
:10904800D8B004D0000E0101B96F12000101B92B8C
:10905800120094EC74F00009D8B404D0010E010198
:10906800DE6F00D0B1EC66F00DC132F20EC133F202
:109078000101B92B12000101CB51D8B413D0000E55
:109088000101CB6F000E0201396F000E386F000E20
:109098000001AF6F000EAE6F000E02013B6F000EB5
:1090A8003A6F00D0010EC4EC62F00101B92B010146
:1090B800DD05D8A41200020E0101DD6F1200020EB8
:1090C800C4EC62F00101B92B1200030EC4EC62F08B
:1090D8000101B92B12000AEC6BF00DC13CF20EC174
:1090E8003DF20101B92B1200040EE3EC77F0000900
:1090F800D8B412002CC126F12DC127F12EC128F1B8
:10910800040EA4EC6DF0000E0201536F020E010173
:10911800DD19D8A404D0030E0101DD6F120001018E
:10912800DD05D8A41200000E0101276F010E266F7D
:10913800000E0101286F040EA4EC6DF0120001016D
:10914800B951010D730EF324F66EFE0EF420F76E7E
:109158000800F550000AD8B4C7D7010AD8B461D7B7
:10916800030AD8B476D7010AD8B485D7070AD8B481
:10917800A6D7010AD8B4A9D7030AD8A41200ABD736
:10918800120062EC45F0000E01012D6F0A0E2C6FE3
:10919800010E01012E6F3E0EF2EC47F0020113BFE3
:1091A8000CD00201135104E102011205D8A005D028
:1091B80002011207D8A0130700D00001B751D8A4A4
:1091C80002D0110E18D00201125102011311D8A4B5
:1091D80018D0B9EC74F00009D8B407D0010E020118
:1091E800136F2C0E126F120E06D0000E0201136FB1
:1091F8001E0E126F100E0001BA6F010E0101CD6F25
:1092080000D00101CE510101D8A40DD065EC22F0A7
:1092180093B609D00101CD510101D8B402D08A8694
:1092280002D08A9600D0140EF4EC75F00009D8B478
:109238000AD0000E0101C46F000E0101076F010E74
:1092480049EC74F000D0130EF4EC75F00009D8B4B2
:109258002ED00101FD2904E10101FE29D8B423D053
:109268000101FD510201325D0101FE510201335934
:10927800D8B005D0F5C2B0F1F6C2B1F105D0F7C249
:10928800B0F1F8C2B1F100D0010E0101C46F010EB6
:109298000101276F2C0E266F010E0101286F140E95
:1092A800A4EC6DF000D0000E0001B36F00D00101F6
:1092B800C951D8B410D0020E0101D21BD2C107F196
:1092C800010E49EC74F0010E94EC72F00101D26FBA
:1092D8000101C90700D0130EE3EC77F00009D8B4F8
:1092E8000CD0000E0101276F3C0E266F010E010104
:1092F800286F130EA4EC6DF000D00101DE51D8B434
:109308000DD0000E0101DE6F000E0101076F010E86
:1093180049EC74F0000E0101C36F00D0010E010189
:10932800B86F120012000101116F030E0101081934
:10933800D8A460D03C0E0101116102D0000E12D0F9
:10934800C30E010111250101006F0101016BFF0E20
:109358000123000E0101036F050E026F9CEC63F000
:10936800010100510101126F00D0010112510101E8
:10937800096F0A6BFF0E01010B6FFF0E01010C6FE5
:1093880008C10DF1010E01010E6F000E01010F6FF2
:1093980001010D2B04D0D89001010E370F370101C0
:1093A8000D2FF9D701010B5101010E2701010C51B5
:1093B80001010F230101095101010E5D01010F5146
:1093C800800A0101106F01010A51800A0101105938
:1093D800D8B071D008C109F1010E01010A6F01016D
:1093E800092B03D00101D8900A370101092FFAD7B8
:1093F8005DD061D0040E01010819D8A45CD0DC0E40
:10940800010111250101006F0101016BFF0E01230C
:10941800000E0101036F050E026F9CEC63F0010161
:1094280000510101126F010112510101096F0A6B0C
:10943800FF0E01010B6FFF0E01010C6F08C10DF14A
:10944800010E01010E6F000E01010F6F01010D2BBE
:1094580004D0D89001010E370F3701010D2FF9D72D
:1094680001010B5101010E2701010C5101010F23CC
:109478000101095101010E5D01010F51800A01012D
:10948800106F01010A51800A01011059D8B013D098
:1094980008C109F1010E01010A6F0101092B03D06E
:1094A8000101D8900A370101092FFAD701010A05ED
:1094B8000101126F00D001011251120012000101C6
:1094C800066F010104510101D8B402D0200E01D069
:1094D800600E0101056F9AD00101055102090201D0
:1094E800956F630E02019C6F010106511B0F55D049
:1094F8000101055102090201956F640E02019C6F7A
:1095080001010651040F49D0210E010106610BD05B
:10951800010105510A090201956F650E02019C6F50
:1095280006C19DF281D0010105510A090201956F1A
:10953800640E02019C6F01010651190F2ED074D0E0
:10954800010105510A090201956F650E02019C6F20
:1095580001010651210F21D00C0E010106610DD029
:109568000101055102090201956F630E02019C6F0A
:1095780001010651040DF350B9D70B0E0101066520
:109588000FD0190E010106610BD001010551020926
:1095980012D0640E02019C6F11D002019D6F44D05D
:1095A800180E0101066510D01F0E010106610CD0CE
:1095B800010105510A090201956FEBD70101064522
:1095C800E846FC0BD00FE9D71E0E0101066509D04D
:1095D800270E0101066105D00CD0650E02019C6FB3
:1095E8000ED0260E010106651FD0320E010106615C
:1095F8001BD0010105510A090201956FEED701013F
:109608000645E846FC0B850FC8D70ED05050010A16
:10961800D8B462D7030AD8B46BD7010AD8B474D7C0
:10962800070AD8B48DD798D795C202F1000E8AECF4
:1096380076F09CC202F10E0E8AEC76F09DC202F121
:10964800100E8AEC76F0120004004350D8A41200E1
:1096580001D012001AC143F0000E01011B6FB0D0F7
:10966800000E0001C96F0001CF51D8A49DD03E0E55
:109678000101196199D0010E0001CB6F0001CF5192
:10968800D8B404D0000E0001CB6F95D0200E87EC23
:1096980058F00201A25101090101026F1A0E8AEC69
:1096A80076F0800E87EC58F001011951020FB8ECE2
:1096B80079F00001B851B8EC79F0000E01011F6F84
:1096C80064D001011F51010DF35001011725D96E16
:1096D800F45001011821DA6EDF5001011C6F0101FD
:1096E8001F05D8B410D0020E01011F19D8B40BD031
:1096F8000001C95101011C190001C96F01011C5168
:10970800B8EC79F03FD001011F05D8A42BD0040E86
:1097180001010C6F010EEAEC5BF00001A25101019E
:109728000C2501011D6F0001A35101010D2101014B
:109738001E6F01011E51B8EC79F001011E510001A4
:10974800C9190001C96F01011D510201405D0101E4
:109758001E5102014159D8B015D01DC140F21EC199
:1097680041F210D0020E01011F19D8A40BD001013B
:109778001D51B8EC79F00001C95101011D19000112
:10978800C96F00D001011F2B00D00101195101013F
:109798001F5DD8A096D70001C951B8EC79F0040034
:1097A800010E0001D46F09D03D0E0101196501D0E9
:1097B80002D00001CF51430600D001011B2B00D07D
:1097C80001011A5101011B5DD8A04AD712000201FC
:1097D8005B51D8A4BBD002018D51D8A4B7D05C0E80
:1097E8000101066F020E0101076FE70E0101086F04
:1097F800020E0101096F040E01010A6F23EC74F0D7
:1098080064C2DDF2060E02015B6F000E02018E6F6C
:10981800020E02018F6F0EC106F10FC107F1600E33
:109828000101086F020E0101096F040E01010A6FA0
:1098380023EC74F0E50E0101066F010E0101076FBC
:109848005C0E0101086F020E0101096F040E01018F
:109858000A6F23EC74F0C2EC79F00201646F000E19
:1098680002018D6F1D0E0201666F210E0201676FE6
:1098780010C168F23F0E0201696F080E0101116FF5
:109888000101105101011103F3CF12F1000E010182
:10989800136F46D03F0E0101126121D00101125110
:1098A800060DBD0EF3240101006F0A0EF42001011C
:1098B800016F000E0101026F660E0101036F020EB7
:1098C8000101046F01011351040DF350060F01014A
:1098D800056F040E0101066FF6EC6BF01CD0E10E6B
:1098E8000101006F010E0101016F000E0101026FFD
:1098F800660E0101036F020E0101046F010113518D
:10990800040DF350060F0101056F040E0101066FE7
:10991800F6EC6BF000D00101122B0101132B00D0E3
:10992800010111510101135DD8A0B4D7030E020142
:10993800656F260E02018C6F0001BD51D8A404D0BA
:10994800000E0101D96F00D0010E1200000E1200A6
:1099580012007C0ED36E9B8CD2909B8E200E926E42
:10996800BB0E936E130E946E860E806E000E816E83
:10997800C40E826E100E0F015D6F050E0F015C6F35
:10998800F19E0F015B910F015B930F015B850F0146
:109998005B970F015B990F015B9B0F015B9D0F01AB
:1099A8005B9FD180030E0101016FED0E006F39EC52
:1099B80079F001010A6F01010A510101FD6FFE6B87
:1099C8000101FD51FE6FFD6B030E0101016FEC0EED
:1099D800006F39EC79F001010A6F01010A510101A8
:1099E800FD27000EFE23030E0101016FF10E006F2B
:1099F80039EC79F001010A6F01010A510201F56F92
:109A0800F66B0201F551F66FF56B030E0101016F5C
:109A1800EE0E006F39EC79F001010A6F01010A516D
:109A28000201F527000EF623030E0101016FF30E64
:109A3800006F39EC79F001010A6F01010A51020146
:109A4800F76FF86B0201F751F86FF76B030E01011E
:109A5800016FF20E006F39EC79F001010A6F010114
:109A68000A510201F727000EF823000E0101076FC3
:109A7800030E49EC74F0000E0101076F010E49EC6A
:109A880074F0000E0101C36F010E0101F06F000EAA
:109A98000201276F000E266F000E0201256F000ECF
:109AA800246F000E02013F6F000E3E6F000E020190
:109AB800416F000E406F000E0201496F020191696B
:109AC800020192690201936902019469000E020180
:109AD800516F120001010C6F000E01010E6F0F0192
:109AE8005A99000E0001CF6F000E0001D86F000ECA
:109AF8000001D26F000E0001D36F000E456E000EFC
:109B0800396E200E0001B76F000E0201506F000E73
:109B18000001CB6F000E0001D46F000E4C6E000EDA
:109B2800436E8986050E0101076F260EE82EFED7C3
:109B3800072FFCD700D08996680E0101076FE40E45
:109B4800E82EFED7072FFCD700D0000E0101046FC6
:109B580001010C5163EC4AF0000E01010E6F1F0E5B
:109B680001010E6501D015D001010E51010D950EB0
:109B7800F324D96E020EF420DA6EDF500101026F71
:109B880001010E51020DF3508AEC76F001010E2B03
:109B9800E6D7030E0101016FFC0E006F39EC79F076
:109BA80001010D6F01010D29D8A418D080EC7AF0BD
:109BB800030E0101016FFC0E006F000E0101026F20
:109BC800DEEC74F0000E89EC79F0D80E0101096F13
:109BD80009C102F13C0E8AEC76F01ED001010D514C
:109BE8000101D8A40CD0000E89EC79F0D80E01013F
:109BF8000A6F0AC102F13C0E8AEC76F00DD0010121
:109C08000D5189EC79F0DA0E01010B6F0BC102F1ED
:109C18003C0E8AEC76F000D0F29600F00F015A89DB
:109C280000F081CF08F100F0F290F2860CC14FF0FD
:109C3800150E0101076FC60EE82EFED7072FFCD7B9
:109C480000D02BEC79F0010E0001D56F000E000159
:109C5800D76F1200000E01010B6F3E0E01010B655C
:109C680002D01200120001010B51060D040EF3265A
:109C7800000EF422BD0EF324D96E0A0EF420DA6E1B
:109C8800DF500F0B0F0AD8B49CD0010E0101086FEA
:109C980001010B51060D040EF326000EF422BD0E31
:109CA800F324D96E0A0EF420DA6EDF500F0B01018F
:109CB800096F0101085101010927DF500101091944
:109CC800F00B01010919DF6E44500F0DF3CF00F1BD
:109CD800F4CF01F1000E0101036F400E026F9CECFE
:109CE80063F0040E01010027000E010101230101A8
:109CF8000B51060D040EF326000EF422BD0EF324BC
:109D0800D96E0A0EF420DA6EDF500F0B0101086FCE
:109D1800096B010100510101085D01010951800A27
:109D280001010A6F01010151800A01010A59D8B0E5
:109D380012D001010B51060D040EF326000EF42279
:109D4800BD0EF324D96E0A0EF420DA6EDF500F0B25
:109D58000F0AD8A436D001010B51060D040EF326C4
:109D6800000EF422BD0EF324D96E0A0EF420DA6E2A
:109D7800DF80DF82DF84DF8601010B51060D050ECF
:109D8800F326000EF422BD0EF324D96E0A0EF42039
:109D9800DA6EFF0EDF6E01010B51060D040EF3267D
:109DA800000EF422BD0EF324D96E0A0EF420DA6EEA
:109DB800DF88DF8ADF8CDF8E4450D8B402D04406B7
:109DC80000D001010B2B3E0E01010B654CD7120090
:109DD8001200156E000E176E000E186E000E196E2A
:109DE800000E1A6E040E1018D8A40AD00EC017F070
:109DF8000FC018F0000E18BEFF0E196E1A6E4CD068
:109E08001050D8A42CD00EC011F00FC012F0000EC4
:109E180012BEFF0E136E146E0F0ED8901136123646
:109E280013361436E82EF9D711C001F012C002F02B
:109E380013C003F014C004F0E80E056E030E066E9E
:109E4800000E076E000E086EEAEC6DF001C017F008
:109E580002C018F003C019F004C01AF01DD0100495
:109E6800D8A41AD00EC011F00FC012F0000E12BE06
:109E7800FF0E136E146E0F0ED8901136123613366D
:109E88001436E82EF9D711C017F012C018F013C015
:109E980019F014C01AF000D017C011F018C012F051
:109EA80019C013F01AC014F0111E121E131E141E2E
:109EB800112A000E122213221422FF0E1124176EEB
:109EC800FF0E1220186E000E1320196E000E1420BB
:109ED8001A6E1504D8A40BD018C0CFFF17C0CEFF38
:109EE8008C0ECD6E9F809E909D80CD8000D0030EFD
:109EF8001518D8A40AD018C0B3FF17C0B2FF8C0E2B
:109F0800B16EA292A192A082B1803E50D8A4120054
:109F1800010E3E6E000E166E180E166402D0120068
:109F280012001650020D000EF324D96E030EF42011
:109F3800DA6E000EDE6E000EDD6E162A180E16643E
:109F4800F0D71200120012001D0E0101426F1AC153
:109F58000BF11BC10CF1430E01010D6F010E010144
:109F68000E6F9DEC41F00101476F1D0E01011C6F42
:109F7800260E01011D6F1AC100F11BC101F1000E6F
:109F88000101026F1C0E0101036F010E0101046F34
:109F9800020E0101056F040E0101066FF6EC6BF06D
:109FA800430E0101006F010E0101016F000E010156
:109FB800026F1C0E0101036F010E0101046F060EF2
:109FC8000101056F040E0101066FF6EC6BF047C145
:109FD80026F11AC100F11BC101F1000E0101026F47
:109FE8001C0E0101036F010E0101046F0B0E01012C
:109FF800056F040E0101066FF6EC6BF0430E0101CC
:10A00800006F010E0101016F000E0101026F1C0EAD
:10A018000101036F010E0101046F0F0E0101056FAD
:10A02800040E0101066FF6EC6BF047C12FF11AC15F
:10A0380000F11BC101F1000E0101026F1C0E0101AC
:10A04800036F010E0101046F140E0101056F040E68
:10A058000101066FF6EC6BF0430E0101006F010E73
:10A068000101016F000E0101026F1C0E0101036F57
:10A07800010E0101046F180E0101056F040E0101A4
:10A08800066FF6EC6BF047C138F118C10EF119C133
:10A098000FF11C0E0101106F010E0101116F42C179
:10A0A80012F1000E0101136F010E0101146F000E71
:10A0B8000101156F42EC46F01200120000C1D9FFF1
:10A0C80001C1DAFF000EDF6E010120EE01F0005140
:10A0D800D9260151DA22000EDF6E3F50D8A404D0F1
:10A0E8000001C451D8B439D01E0E0001C56103D097
:10A0F8000001C52B00D01E0E0001C519D8A41AD026
:10A108000E0E0001C76516D000C1D9FF01C1DAFFE4
:10A11800030EDF6E2D0E0001C56F010120EE01F068
:10A128000051D9260151DA22030EDF6E2D0E0001EF
:10A13800C76F0FD01E0E0001C519D8A40AD000C1E0
:10A14800D9FF01C1DAFF020EDF6E2D0E0001C56FC7
:10A1580000D0000E0001C46F13D0010E0001C565C8
:10A168000BD01F0E0001C56107D000C1D9FF01C186
:10A17800DAFF010EDF6E00D0000E0001C56F00D0BF
:10A188004050D8A404D00001C651D8B43AD01E0E0D
:10A198000001C76103D00001C72B00D01E0E0001CB
:10A1A800C719D8A41AD00E0E0001C56516D000C173
:10A1B800D9FF01C1DAFF030EDF6E2D0E0001C56F56
:10A1C800010120EE01F00051D9260151DA22030ED7
:10A1D80011D02D0E0001C76F10D01E0E0001C71937
:10A1E800D8A40BD0010120EE01F00051D92601516D
:10A1F800DA22020EDF6EEDD700D0000E0001C66F26
:10A208001200010E0001C7650ED01F0E0001C761C4
:10A218000AD0010120EE01F00051D9260151DA22BD
:10A22800010EDF6E00D0000E0001C76F1200120091
:10A238001D0E0101266F200E0101276F22C128F192
:10A2480090EC7AF00101296F030E0101556F0101AD
:10A25800225101015503F3CF54F1000E0101586F4B
:10A26800000E576F6DD04C0E0101146F010E0101E5
:10A27800156F500E0101166F010E0101176F560E72
:10A288000101186F010E0101196F0101545103EC0E
:10A2980060F04C0E0101006F010E0101016F000E0C
:10A2A8000101026F260E0101036F010E0101046F07
:10A2B80001015751090DF350040F0101056F040EF8
:10A2C8000101066FF6EC6BF0500E0101006F010EF4
:10A2D8000101016F000E0101026F260E0101036FDB
:10A2E800010E0101046F01015751090DF350080FC8
:10A2F8000101056F040E0101066FF6EC6BF057C102
:10A3080000F158C101F1000E0101036F090E026F3F
:10A3180052EC76F00C0E01010027000E010101231A
:10A32800260E01010025D96E010E01010121DA6E08
:10A3380056C1DFFF0101542B0101574B582B00D0A8
:10A34800010155510101236F246B010123510101C2
:10A35800575D01015851800A0101256F01012451FF
:10A36800800A01012559D8A07ED720C10EF121C14C
:10A378000FF1260E0101106F010E0101116F260E5B
:10A388000101126F000E0101136F010E0101146F1C
:10A39800000E0101156F42EC46F0120012000AC1CE
:10A3A8000EF101010F6B106B0101093501010E3728
:10A3B80001E30F8101010E510101116F01011151DA
:10A3C800D8A40AD0000E0101086F000E0101096F20
:10A3D800000E01010A6F12000DC10EF101010F6B91
:10A3E800106B01010C3501010E3701E30F810101EA
:10A3F8000E510101166F01011651D8A40AD0000EA2
:10A408000101086F000E0101096F000E01010A6FBA
:10A418001200010116517B0F010111270AC116F123
:10A4280001010D510101161B800E010116170101D2
:10A43800098F01010C8FFF0E01010B17FF0E01019F
:10A448000C17000E01010D17000E0101126F000E0E
:10A458000101136F000E0101146F070E0101156F42
:10A4680000D0010108A10DD001010B5101011227F3
:10A4780001010C510101132301010D5101011423A4
:10A4880000D00101D8900A33093308330101D8906C
:10A498000B370C370D370101152FE3D700D0090E04
:10A4A8000101156F00D0010108A10DD001010B5168
:10A4B8000101122701010C510101132301010D5162
:10A4C8000101142300D00101D8900A33093308335D
:10A4D8000101D8901433133312330101152FE3D738
:10A4E80000D012C100F113C101F114C102F111C170
:10A4F80003F116C104F1B0EC59F000C108F101C133
:10A5080009F102C10AF1120012006EC072F00001D6
:10A51800736B746B00016D350001723701E3738151
:10A52800000172510001756F00017551D8A40AD05D
:10A53800000E00016C6F000E00016D6F000E00012F
:10A548006E6F120071C072F00001736B746B0001C2
:10A5580070350001723701E3738100017251000107
:10A568007A6F00017A51D8A40AD0000E00016C6FEE
:10A57800000E00016D6F000E00016E6F12000001E9
:10A588007A517B0F000175276EC07AF00001715176
:10A5980000017A1B800E00017A1700016D8F0001FF
:10A5A800708FFF0E00016F17FF0E00017017000E6D
:10A5B80000017117000E0001766F000E0001776F21
:10A5C800000E0001786F070E0001796F00D00001BE
:10A5D8006CA10DD000016F51000176270001705168
:10A5E80000017723000171510001782300D0000198
:10A5F800D8906E336D336C330001D8906F37703755
:10A6080071370001792FE3D700D0090E0001796F67
:10A6180000D000016CA10DD000016F510001762718
:10A628000001705100017723000171510001782366
:10A6380000D00001D8906E336D336C330001D89090
:10A648007833773376330001792FE3D700D076C09B
:10A6580060F077C061F078C062F075C063F07AC0CE
:10A6680064F040EC5AF060C06CF061C06DF062C0FC
:10A678006EF01200120001010C6F070E0101106F3D
:10A688000F69000E01010D6F000E01010E6F000E23
:10A698000101156F000E146F000E0101176F000EF7
:10A6A800166F01010C510C250101126F4B0E0101AF
:10A6B800116F01011251910F0101126F000E01017A
:10A6C800156F000E146F27EC73F00BEC78F0010196
:10A6D8001251F9EC6EF00009D8A461D0000E010106
:10A6E800136F55D0000E0101156F000E146F000E88
:10A6F80075EC6EF001010D6F010113510101066F38
:10A70800076BFF0E0101086FFF0E0101096F0101C0
:10A71800115101010A6F0B6B0101085101010A2750
:10A728000101095101010B230101065101010A1917
:10A738000AE10101075101010B19D8A404D0010E47
:10A7480075EC6EF003D0000E75EC6EF001010E6F23
:10A7580000D001010D510101141301011451156FAD
:10A76800146B01010E51010114130101145101016F
:10A77800165D0101155101011759D8B005D014C152
:10A7880016F115C117F100D00101132B00D00101FA
:10A7980011510101135DD8B002D0A4D700D047EC05
:10A7A80079F001010F510101165D010110510101FC
:10A7B8001759D8B006D0000E0101176F000E166F9A
:10A7C80009D001010F510101165F0101105101016A
:10A7D800175B00D016C103F117C104F11200120073
:10A7E8000101000501010111D8A433D00001A651CF
:10A7F800301805E10001A7513118D8B49AD00201E8
:10A8080045510201D8B402D0000E1200010E020117
:10A81800456F000E3024D96E050E3120DA6E02C164
:10A82800E1FF03C1E2FFDFCFE7FF304A312A31BE43
:10A838000AD0315004E1800E305CD8A004D0000E5C
:10A84800316E000E306E000E0201456F010E1200CF
:10A8580070D0020E0101001901010111D8A433D0F2
:10A868000001A851321805E10001A9513318D8B4E4
:10A8780060D0020146510201D8B402D0000E120085
:10A88800010E0201466FC90E3224D96E060E33201E
:10A89800DA6E02C1E1FF03C1E2FFDFCFE7FF324A10
:10A8A800332A33BE0AD0800E325C010E3358D8A04A
:10A8B80004D0000E336E000E326E000E0201466F99
:10A8C800C5D7120036D0040E01010019010101118B
:10A8D800D8A42FD00001A4512E1805E10001A551DC
:10A8E8002F18D8B426D03650D8B402D0000E120093
:10A8F800010E366E320E2E24D96E030E2F20DA6E1C
:10A9080002C1E1FF03C1E2FFDFCFE7FF2E4A2F2A92
:10A918002FBE0AD02F5004E1270E2E5CD8A004D0F9
:10A92800000E2F6E000E2E6E000E366E8FD71200A0
:10A9380000D0000E120012000001C251D8B4A4D0F9
:10A948000001CF51D8A4A0D0C8C000F10101016B0B
:10A95800000E0101036F000E026FC90E0101046FA2
:10A96800000E056F000E066F000E076FAEEC70F05C
:10A978000101005101012F6F01012F510101D8A4DC
:10A9880002D0000E1200000E01010E6F01012F51BE
:10A99800010D000EF324D96E060EF420DA6EDF5096
:10A9A80042EC78F0D3A60FD0040E01010C6F010E13
:10A9B800EAEC5BF00001A25101010C250101306FA6
:10A9C8000001A35114D0040E01010C6F010EEAEC32
:10A9D8005BF00001A25101010C270001A351010104
:10A9E8000D23E60E01010C250101306FFF0E010158
:10A9F8000D210101316F00D074EC7AF02CC1D9FF20
:10AA08002DC1DAFFDF6E010120EE02F02C51D926AC
:10AA18002D51DA2230C1DFFF010120EE01F02C5167
:10AA2800D9262D51DA2201013151DF6E2CC117F1DF
:10AA38002DC118F101012E51030F0101196F010EEB
:10AA480001011A6F28EC4BF00101CF51D8A417D09F
:10AA5800080E5AEC71F0010100510101CF250101E6
:10AA6800CF6FCFC126F10101276B010E0101286FBD
:10AA7800080EA4EC6DF0000E0101CF6F00D0000E9F
:10AA88000201546F010E1200000E1200120000C1E4
:10AA9800D9FF01C1DAFF1D0EDF6E010120EE01F0C2
:10AAA8000051D9260151DA22230EDF6E010120EE72
:10AAB80002F00051D9260151DA22D7C002F1010172
:10AAC800023BF00E021740EC7AF00101022500016A
:10AAD800D525DF6E010120EE03F00051D926015182
:10AAE800DA22D7C002F10101023BF00E021740EC56
:10AAF8007AF0010102250001D525DF6E010120EE63
:10AB080004F00051D9260151DA22D7C002F101011F
:10AB1800023BF00E021740EC7AF001010225000119
:10AB2800D525DF6E010120EE05F00051D92601512F
:10AB3800DA22CCC0DFFF010120EE06F00051D92651
:10AB48000151DA22CCC0DFFF010120EE07F00051ED
:10AB5800D9260151DA22CCC0DFFF010120EE08F02E
:10AB68000051D9260151DA226CEC7AF0DF6E01012E
:10AB780020EE09F00051D9260151DA226CEC7AF066
:10AB8800DF6E010120EE0AF00051D9260151DA22C8
:10AB98006CEC7AF0DF6E010120EE0BF00051D92643
:10ABA8000151DA2268EC7AF0DF6E010120EE0CF038
:10ABB8000051D9260151DA2268EC7AF0DF6E0101E2
:10ABC80020EE0DF00051D9260151DA2268EC7AF016
:10ABD800DF6E0E0E0101036F010103511200120016
:10ABE80019C11BF101011C6B1D6B01011835010115
:10ABF8001B3701E31C8101011B510101256F010174
:10AC08002551D8A40AD0000E0101176F000E186F45
:10AC1800000E196F000E1A6F1200170E01011B6F3C
:10AC280017C11CF118C11DF119C11EF101011B2921
:10AC380001011F6F05D00101D8901E331D331C334D
:10AC480001011F2FF8D701011C510101206F0101DB
:10AC5800188FFF0E01011717FF0E01011817000EBC
:10AC680001011917010117510101216F0101185143
:10AC78000101226F010119510101236F0101246BA8
:10AC88008E0E0101255F010125AF1BD00101255161
:10AC9800800A8F0FD8B00BD0000E0101176F000E7D
:10ACA800186F000E196F000E1A6F120000D0010104
:10ACB800D89024332333223321330101253FF7D79A
:10ACC8001FD0170E0101256514D0000E0101176F62
:10ACD800000E186F000E196F000E1A6F120009D0BF
:10ACE8000101D8902137223723372437010125075E
:10ACF80000D0010125510101D8B402D0F1D700D00C
:10AD0800010120510101D8B40AD00101241F231FD9
:10AD1800221F216D000E22232323242300D021C1CA
:10AD280017F122C118F123C119F124C11AF1120037
:10AD380012000DC111F10101126B136B01010C35E9
:10AD48000101113701E31281010111510101186F4D
:10AD580001011851D8A40AD0000E01010B6F000E92
:10AD680001010C6F000E01010D6F120010C111F1ED
:10AD78000101126B136B01010F350101113701E35A
:10AD88001281010111510101196F01011951D8A452
:10AD98000AD0000E01010B6F000E01010C6F000EAE
:10ADA80001010D6F1200000E0101156F000E010167
:10ADB800166F000E0101176F01011951890F01016A
:10ADC800185F0DC119F1010110510101191B800E05
:10ADD8000101191701010C8FFF0E01010B17FF0E5E
:10ADE80001010C17000E01010D1701010F8FFF0E55
:10ADF80001010E17FF0E01010F17000E01011017B8
:10AE0800180E0101146F00D00101D89015371637BC
:10AE1800173701010E5101010B5D01010F510101AD
:10AE28000C590101105101010D59D8A00ED0010192
:10AE38000E5101010B5F01010F5101010C5B010172
:10AE4800105101010D5B010115810101D8900B37EB
:10AE58000C370D370101142FD7D700D015C100F1D9
:10AE680016C101F117C102F118C103F119C104F1AA
:10AE7800B0EC59F000C10BF101C10CF102C10DF1A8
:10AE8800120012007DC07FF00001806B816B000111
:10AE98007C3500017F3701E3808100017F5100018B
:10AEA800896F00018951D8A40AD0000E00017B6F78
:10AEB800000E7C6F000E7D6F000E7E6F1200170E65
:10AEC80000017F6F7BC080F07CC081F07DC082F084
:10AED80000017F290001836F05D00001D8908233DB
:10AEE800813380330001832FF8D70001805100019E
:10AEF800846F00017C8FFF0E00017B17FF0E00019D
:10AF08007C17000E00017D1700017B510001856F41
:10AF180000017C510001866F00017D510001876F9F
:10AF28000001886B8E0E0001895F000189AF1BD07C
:10AF380000018951800A8F0FD8B00BD0000E000194
:10AF48007B6F000E7C6F000E7D6F000E7E6F12000F
:10AF580000D00001D89088338733863385330001C9
:10AF6800893FF7D71FD0170E0001896514D0000E4E
:10AF780000017B6F000E7C6F000E7D6F000E7E6FF0
:10AF8800120009D00001D89085378637873788376F
:10AF98000001890700D0000189510001D8B402D00E
:10AFA800F1D700D0000184510001D8B40AD00001C3
:10AFB800881F871F861F856D000E86238723882399
:10AFC80000D085C07BF086C07CF087C07DF088C04B
:10AFD8007EF0120012000001C251D8A404D0000172
:10AFE800CF51D8B403D0000E12008AD002014851C4
:10AFF8000201D8A485D0C8C000F10101016B23C1AA
:10B0080002F10101036BC90E0101046F000E056F07
:10B01800000E066F000E076FAEEC70F001010051D4
:10B028000101246F010124510101D8A402D0000EAE
:10B038001200000E01010E6F01012451010D000ED6
:10B04800F324D96E060EF420DA6EDF5042EC78F065
:10B05800D3A60FD0040E01010C6F010EEAEC5BF0D1
:10B068000001A25101010C250101256F0001A35126
:10B0780014D0040E01010C6F010EEAEC5BF0000124
:10B08800A25101010C270001A35101010D23E60E75
:10B0980001010C250101256FFF0E01010D210101A0
:10B0A800266F00D074EC7AF020C1D9FF21C1DAFFF5
:10B0B800DF6E010120EE02F02051D9262151DA225B
:10B0C80025C1DFFF010120EE01F02051D9262151D1
:10B0D800DA2201012651DF6E20C117F121C118F1D2
:10B0E80001012251030F0101196F010E01011A6FAD
:10B0F80028EC4BF0010E0201486F010E120000D03F
:10B10800000E120012000101056F80D0000E01012F
:10B11800006F010EB0EC75F0E40E00D000D0E82E00
:10B12800FCD700D000D0020195511F0B8009020105
:10B13800956F95C202F1000E8AEC76F0800E000140
:10B14800B76F0B0E0101046F620EE82EFED7042FB5
:10B15800FCD700D01200020195511F0B60090201B3
:10B16800956F95C202F1000E8AEC76F0D7C000F117
:10B17800000EB0EC75F0600E0001B76F1200000E03
:10B188000101006F000EB0EC75F0020195511F0B24
:10B1980020090201956F95C202F1000E8AEC76F043
:10B1A800680E0101046FE40EE82EFED7042FFCD7C9
:10B1B80000D0200E0001B76F1200000E0101006FD1
:10B1C800000EB0EC75F0020195511F0B4009020109
:10B1D800956F95C202F1000E8AEC76F0400E0001E0
:10B1E800B76F1200000E0101006F000EB0EC75F091
:10B1F800020195511F0B0201956F000E0001B76FF8
:10B2080095C202F1000E8AEC76F012000101055198
:10B21800000AD8B4E7D7200AD8B4B1D7600AD8B49E
:10B22800CCD7200AD8B497D7E00AD8A412006ED792
:10B23800120006C1D9FF07C1DAFFDE04D8A489D0FD
:10B24800050E0101086585D0F90E010108250101E7
:10B25800006F0101016BFF0E0123000E0101036F56
:10B26800050E026F0DEC67F001010051010101119B
:10B27800D8A46FD0FF0E0101096FFF0E01010A6FFC
:10B288000101085101010B6F0C6B0101095101010A
:10B298000B2701010A5101010C2301010B51010186
:10B2A8000625D96E01010C5101010721DA6E000152
:10B2B800CC51DE18D8B420D0FF0E0101096FFF0E63
:10B2C80001010A6F0101085101010B6F0C6B0101AB
:10B2D800095101010B2701010A5101010C23010148
:10B2E8000B5101010625D96E01010C5101010721FD
:10B2F800DA6EDE28D8A403D0010E12002AD000018D
:10B30800CC29D8A423D0FF0E0101096FFF0E01013B
:10B318000A6F0101085101010B6F0C6B0101095102
:10B3280001010B2701010A5101010C2301010B51F5
:10B3380001010625D96E01010C5101010721DA6EC0
:10B34800DE28D8B403D0020E120003D0000E12007B
:10B3580000D0000E12001200010103510101D8B4FF
:10B3680008D0010100510101011101010211D8A405
:10B3780013D0000E0101006F000E0101016F000ED5
:10B388000101026F120008D00101032B0101D890BE
:10B3980002330133003300D0000E01010015010112
:10B3A800056F000E010101150101066FFE0E010176
:10B3B80002150101076F0101055101010611010183
:10B3C8000711D8B413D0E0D711D00101032B010E17
:10B3D80001010027000E01010123000E01010223D3
:10B3E8000101D89002330133003300D0000E01016F
:10B3F80000150101056F000E010101150101066F1D
:10B40800FF0E010102150101076F0101055101013C
:10B41800061101010711D8B40AD0D7D708D0010105
:10B4280003070101D89000370137023700D0010126
:10B4380001BF05D0020E01010361F1D700D001015F
:10B4480003B103D00101019F00D00101D89003335B
:10B458000101035101010213010104510101D8B492
:10B4680003D00101028F00D000C100F101C101F138
:10B4780002C102F112001200000163510001D8B4A8
:10B4880008D0000160510001611100016211D8A4C7
:10B4980013D0000E0001606F000E0001616F000EF6
:10B4A8000001626F120008D00001632B0001D890E0
:10B4B80062336133603300D0000E00016015000173
:10B4C800656F000E000161150001666FFE0E000138
:10B4D80062150001676F00016551000166110001E6
:10B4E8006711D8B413D0E0D711D00001632B010E37
:10B4F80000016027000E00016123000E0001622395
:10B508000001D89062336133603300D0000E00012F
:10B5180060150001656F000E000161150001666F7E
:10B52800FF0E000162150001676F000165510001FF
:10B53800661100016711D8B40AD0D7D708D0000126
:10B5480063070001D89060376137623700D0000187
:10B5580061BF05D0020E00016361F1D700D0000180
:10B5680063B103D00001619F00D00001D89063331C
:10B578000001635100016213000164510001D8B455
:10B5880003D00001628F00D060C060F061C061F03C
:10B5980062C062F0120012000101000501010111F0
:10B5A800D8A427D03C50D8A4120001D01200010E14
:10B5B8003C6E000E0001A625D96E050E0001A721DC
:10B5C800DA6E02C1DFFF0001A64BA72B0001A7BF5F
:10B5D8000DD00001A75105E1800E0001A65DD8A09D
:10B5E80005D0000E0001A76F000EA66F000E3C6E7E
:10B5F8001200020E0101001901010111D8A427D07F
:10B608003D50D8A4120001D01200010E3D6EC90EA3
:10B618000001A825D96E060E0001A921DA6E02C123
:10B62800DFFF0001A84BA92B0001A9BF0DD0800E98
:10B638000001A85D010E0001A959D8A005D0000E8F
:10B648000001A96F000EA86F000E3D6E1200040ED7
:10B658000101001901010111D8A412000001B05123
:10B66800D8A4120001D01200010E0001B06F320EF2
:10B678000001A425D96E030E0001A521DA6E02C1CE
:10B68800DFFF0001A44BA52B0001A5BF0DD00001D1
:10B69800A55105E1270E0001A45DD8A005D0000E34
:10B6A8000001A56F000EA46F000E0001B06F12001C
:10B6B80012000001600500016111D8A427D03C5098
:10B6C800D8A4120001D01200010E3C6E000E000139
:10B6D800A625D96E050E0001A721DA6E62C0DFFF2C
:10B6E8000001A64BA72B0001A7BF0DD00001A75151
:10B6F80005E1800E0001A65DD8A005D0000E00016E
:10B70800A76F000EA66F000E3C6E1200020E00011D
:10B71800601900016111D8A427D03D50D8A41200A7
:10B7280001D01200010E3D6EC90E0001A825D96E88
:10B73800060E0001A921DA6E62C0DFFF0001A84BE6
:10B74800A92B0001A9BF0DD0800E0001A85D010E34
:10B758000001A959D8A005D0000E0001A96F000E5C
:10B76800A86F000E3D6E1200040E00016019000162
:10B778006111D8A412000001B051D8A4120001D060
:10B788001200010E0001B06F320E0001A425D96E1F
:10B79800030E0001A521DA6E62C0DFFF0001A44B91
:10B7A800A52B0001A5BF0DD00001A55105E1270E6D
:10B7B8000001A45DD8A005D0000E0001A56F000E01
:10B7C800A46F000E0001B06F120012000101126F89
:10B7D80001011205D8A416D0CECF13F10101146BC4
:10B7E800CFCF15F10101166B010115510101166F3B
:10B7F800156B0101135101011527010114510101B4
:10B80800162300D0030E01011219D8A416D0B2CF06
:10B8180013F10101146BB3CF15F10101166B01018E
:10B8280015510101166F156B0101135101011527FF
:10B83800010114510101162300D001010C5101012D
:10B84800D8A435D015C10EF116C10FF101010E1F94
:10B858000F1F0E4B0F2BFF0E01010E250101106F5C
:10B86800FF0E01010F210101116F10C100F111C17B
:10B8780001F10101026B036BE80E0101046F030E75
:10B88800056F000E066F000E076F34EC70F0100E97
:10B8980007D00101D890033302330101013300338B
:10B8A800E82EF7D700C10CF101C10DF1120015C146
:10B8B8000EF116C10FF101010E1F0F1F0E4B0F2BBA
:10B8C800FF0E01010E2501010C6FFF0E01010F2172
:10B8D80001010D6F120012000001706F0001700568
:10B8E800D8A416D0CECF73F00001746BCFCF75F00B
:10B8F8000001766B000175510001766F756B0001D0
:10B90800735100017527000174510001762300D09E
:10B91800030E00017019D8A416D0B2CF73F000013D
:10B92800746BB3CF75F00001766B0001755100019F
:10B93800766F756B00017351000175270001745112
:10B948000001762300D000016C510001D8A435D045
:10B9580075C06EF076C06FF000016E1F6F1F6E4BE2
:10B968006F2BFF0E00016E250001716FFF0E0001A5
:10B978006F210001726F71C060F072C061F0000148
:10B98800626B636BE80E0001646F030E656F000E57
:10B99800666F000E676F71EC70F0100E07D0000133
:10B9A800D89063336233000161336033E82EF7D7F0
:10B9B80060C06CF061C06DF0120075C06EF076C0AA
:10B9C8006FF000016E1F6F1F6E4B6F2BFF0E000193
:10B9D8006E2500016C6FFF0E00016F2100016D6F75
:10B9E8001200120006EEC9F015EE6EF0EE6AE55090
:10B9F800E150FCE1E250FAE105EE00F0BF0EEE6A1C
:10BA0800E806FDE104EE00F0FD0EEE6AE806FDE151
:10BA180003EE00F0EE0EEE6AE806FDE102EE00F03D
:10BA2800950EEE6AE806FDE101EEB0F03F0EEE6A13
:10BA3800E806FDE100EEA2F0370EEE6AE806FDE149
:10BA480000EE2CF0220EEE6AE806FDE1D20EF66E4C
:10BA5800C80EF76E000EF86E06EE00F010EEC9F094
:10BA68000900F5CFEEFFE550E150FAE1EE0EF66E73
:10BA7800E50EF76E000EF86E02EE95F010EE60F02F
:10BA88000900F5CFEEFFE550E150FAE1300EF66E11
:10BA9800F40EF76E000EF86E01EEEFF010EE0EF0F9
:10BAA8000900F5CFEEFFE550E150FAE1300EF66EF1
:10BAB800F50EF76E000EF86E0900F5CFD9F0090003
:10BAC800F5CFDAF0C60EF66EF40EF76E000EF86ECD
:10BAD80000EE4EF010EE09F00900F5CFEEFFE5504C
:10BAE800E150FAE1000EF86E0001EDEF04F00001FC
:10BAF800CD510001D8A404D0010E0001CD6F00D0B3
:10BB0800CDC007F1000E01010A6F5DD0000E0101E2
:10BB1800096F000E086F2CD001010A51010DF35076
:10BB280001010025D96EF45001010121DA6E0001EE
:10BB3800CD51010DB50EF324E16E020EF420E26E34
:10BB4800E7500101046F01010A51010DF350010191
:10BB58000025E16EF45001010121E26EE750010178
:10BB6800042501010A25DF6E0101084B092B00D0CD
:10BB78000001CD51010DB50EF324D96E020EF4204B
:10BB8800DA6EDF50070B0101046F056B01010451E8
:10BB98000101085D01010951800A0101066F0101D7
:10BBA8000551800A01010659D8A0B6D70001CD2B4E
:10BBB800070E0001CD6504D0000E0001CD6F00D046
:10BBC80001010A2B00D001010A510101046F056B24
:10BBD800010102510101045D01010551800A0101C1
:10BBE800066F01010351800A01010659D8A08ED7BA
:10BBF8000101075112001200000E0101116F000E21
:10BC08000101106F000E0F6F000E0101136F000E7F
:10BC1800126F000E0101006F040E6FEC74F0000E3D
:10BC28000101136F000E126F000E0101116F090E52
:10BC38000101116501D023D096EC7AF000D02DECEB
:10BC48007AF00009D8A4FBD7C4500101106F0F6B1C
:10BC5800C35001010F13040E0101116509D0010140
:10BC68000F5101011227010110510101132300D0C6
:10BC78000A0EE82EFED700D00101112BD8D712C129
:10BC880006F113C107F1000E0101096F050E086FD7
:10BC9800B8EC6EF006C112F107C113F1020E0101F2
:10BCA800006F040E6FEC74F0C29012C100F113C162
:10BCB80001F1000E0101036F070E026F52EC76F0DE
:10BCC80000C106F101C107F1000E0101096F060E5E
:10BCD800086FB8EC6EF006C112F107C113F101014B
:10BCE800D6510101125F000E0101D6BFFF0E0101FE
:10BCF800135B12C10DF113C10EF112001200000EF8
:10BD08000101096F010103AF0DD00101031F021FDB
:10BD1800011F006D000E012302230323010E010100
:10BD2800096F00D0010107AF0AD00101071F061FE4
:10BD3800051F046D000E05230623072300D001010B
:10BD48000451010105110101061101010711D8B4BF
:10BD58003FD0010E0101086F09D00101D8900437C6
:10BD68000537063707370101082B00D0010107BF47
:10BD780002D0F3D700D0010104510101005D010197
:10BD88000551010101590101065101010259010141
:10BD9800075101010359D8A011D001010451010133
:10BDA800005F010105510101015B0101065101011B
:10BDB800025B010107510101035B00D00101D8902A
:10BDC80007330633053304330101082FD4D700D0D5
:10BDD800010109510101D8B40AD00101031F021F52
:10BDE800011F006D000E01230223032300D000C1B0
:10BDF80000F101C101F102C102F103C103F1120016
:10BE080012000101086FFA0E0101086178D008C11B
:10BE180009F101010A6B09C106F10AC107F1010123
:10BE2800D890063707370101D8900637073706C17B
:10BE380009F107C10AF104C1D9FF05C1DAFF09C137
:10BE480002F10AC103F110EC7AF00101076FDE502C
:10BE580001010719D8A451D0010120EE01F00451C5
:10BE6800D9260551DA22010E010109250101026FC7
:10BE7800000E01010A210101036F10EC7AF00101A3
:10BE8800076FDE5001010719D8A437D0010120EE51
:10BE980002F00451D9260551DA22020E01010925C2
:10BEA8000101026F000E01010A210101036F10EC6C
:10BEB8007AF00101076FDE5001010719D8A41DD0DF
:10BEC800010120EE03F00451D9260551DA22030EB0
:10BED800010109250101026F000E01010A2101017A
:10BEE800036F10EC7AF00101076FDE5001010719AA
:10BEF800D8A403D0010E120000D0000E1200000ECC
:10BF080012001200010E0001D56F000E0EEC79F040
:10BF1800000E0001D76FFF0EFDEC73F0000E89ECE8
:10BF280079F0080E45EC7AF0E1C1F9F1E2C1FAF1D5
:10BF3800E3C1FBF1E4C1FCF1D5C02FF180EC7AF04C
:10BF4800030E0101016FEF0E006F68EC7AF001013A
:10BF5800026FDEEC74F080EC7AF0030E0101016FE1
:10BF6800FC0E006F6CEC7AF00101026FDEEC74F0ED
:10BF780080EC7AF0030E0101016FFD0E006F2FC1F6
:10BF880002F1DEEC74F080EC7AF0030E0101016F2F
:10BF9800FE0E006FCCC002F1DEEC74F080EC7AF09B
:10BFA800030E0101016FE80E006FFF0E0101026F21
:10BFB800DEEC74F080EC7AF0030E0101016FE90EFB
:10BFC800006FFF0E0101026FDEEC74F080EC7AF076
:10BFD800030E0101016FEA0E006FFF0E0101026FEF
:10BFE800DEEC74F080EC7AF0030E0101016FEB0EC9
:10BFF800006FFF0E0101026FDEEC74F01200010108
:10C008001F6FFA0E01011F614FD01B0E01010C6F4B
:10C01800010E01010D6F01011F51CAEC68F01B0EE2
:10C028000101066F010E0101076F14C108F115C166
:10C0380009F1040E01010A6F23EC74F001011F518C
:10C04800020DC90EF324D96E080EF420DA6EDF5003
:10C058003F0B01011A6F01011A51060DBD0EF324A1
:10C068000101066F0A0EF4200101076F16C108F1DD
:10C0780017C109F1040E01010A6F23EC74F00101E4
:10C088001F51020D010EF326000EF422C90EF324EF
:10C09800D96E080EF420DA6EDF501F0B18C1D9FFD5
:10C0A80019C1DAFFDF6E1200E10E0101066F010E01
:10C0B8000101076F14C108F115C109F1040E01014E
:10C0C8000A6F23EC74F0E10E0101066F010E010105
:10C0D800076F16C108F117C109F1040E01010A6FB3
:10C0E80023EC74F018C1D9FF19C1DAFFFF0EDF6E17
:10C0F8001200120001010D6F01010D51A4EC77F03F
:10C108000DC100F10101016B01010651050F01018B
:10C11800026FD0EC5AF007C108F1060E010108279A
:10C12800020E0101096F0101082B03D00101D8900B
:10C1380009370101082FFAD70101095101010A6FD6
:10C148000DC100F10101016B0AC102F1D0EC5AF0F6
:10C15800000E01010B6F000E01010C6F25D00DC1FF
:10C1680000F10101016B01010C51010DF3500101B6
:10C178000425D96EF45001010521DA6EDF50010162
:10C18800026FD0EC5AF001010C51010DF35001017E
:10C198000425D96EF45001010521DA6EDF50010142
:10C1A8000B1B01010C2B00D00101065101010C5D94
:10C1B800D8A0D5D70DC100F10101016B0BC102F167
:10C1C800D0EC5AF00DC100F10101016B0D0E010117
:10C1D800026FD0EC5AF00DC100F10101016B0A0E9B
:10C1E8000101026FD0EC5AF01200000E01010A6F33
:10C1F8005ED0000E0101096F000E086F2DD00101FD
:10C208000A51010DF35001010025D96EF4500101C6
:10C218000121DA6E01010A51010DF35001010025D7
:10C22800E16EF45001010121E26EE7500101056F52
:10C2380001010451010DB50EF324E16E020EF42044
:10C24800E26EE75001010A25000801010525DF6EAD
:10C258000101084B092B00D001010451010DB50E55
:10C26800F324D96E020EF420DA6EDF50070B0101B9
:10C27800056F066B010105510101085D01010951B6
:10C28800800A0101076F01010651800A010107595F
:10C29800D8A0B5D70101042B070E0101046504D00D
:10C2A800000E0101046F00D001010A2B00D001012A
:10C2B8000A510101056F066B010102510101055D7B
:10C2C80001010651800A0101076F01010351800A2B
:10C2D80001010759D8A08DD71200030E010134259A
:10C2E8000101386F000E010135210101396F32C19A
:10C2F80006F133C107F1C5EC69F00101376F32C1AE
:10C3080006F133C107F138C108F139C109F1040E4A
:10C3180001010A6F23EC74F0E50E0101066F010EAE
:10C328000101076F040E010138250101086F000E95
:10C33800010139210101096F040E01010A6F23EC83
:10C3480074F0020E0101C219D8A410D038C104F14A
:10C3580039C105F101013651080F0101066F000EC0
:10C368000101076F020E7EEC60F000D032C106F1C9
:10C3780033C107F1E10E0101086F010E0101096FD8
:10C38800040E01010A6F55EC73F00009D8A40ED011
:10C3980034C120F135C121F101013651080F0101E5
:10C3A800226F37C123F1EFEC57F0120034C12CF1A2
:10C3B80035C12DF101013651080F01012E6FA0EC96
:10C3C80054F01200120010C106F111C107F10EC19C
:10C3D80008F10FC109F1040E01010A6F23EC74F092
:10C3E800E50E0101006F010E0101016F000E010150
:10C3F800026F0EC103F10FC104F1040E0101056FB4
:10C40800040E0101066FF6EC6BF0010120EE08F056
:10C418000E51D9260F51DA22030EDF6E010120EEEC
:10C4280009F00E51D9260F51DA22000EDF6E0101F4
:10C4380020EE0AF00E51D9260F51DA22000EDF6ED7
:10C44800E50E0101006F010E0101016F000E0101EF
:10C45800026F0EC103F10FC104F10B0E0101056F4C
:10C46800040E0101066FF6EC6BF010C100F111C16A
:10C4780001F1000E0101026F0EC103F10FC104F1B9
:10C488000F0E0101056F040E0101066FF6EC6BF04B
:10C49800010120EE13F00E51D9260F51DA22000EB9
:10C4A800DF6E1200010119510101175D01011A51D6
:10C4B80001011859D8B045D00101195101011F6F68
:10C4C80001011A510101206F0101216B0101226B49
:10C4D80001011F1F201F211F221F1F2B000E2023B9
:10C4E800212322230101175101011F250101236F77
:10C4F80001011851010120210101246F000E0101E1
:10C5080021210101256F000E010122210101266F61
:10C5180001011B51010123250101276F01011C5154
:10C52800010124210101286F01011D51010125216B
:10C538000101296F01011E510101262101012A6F04
:10C5480019D019C11FF11AC120F101011F1F201FA5
:10C558001F4B202B0101175101011F270101185101
:10C56800010120231FC127F120C128F10101296BF6
:10C578002A6B00D027C117F128C118F11200120048
:10C5880001011E6F01011E05D8A41FD0EF0E010185
:10C59800036F020E0101046F000E0101056F000E0A
:10C5A8003FEC53F003C118F104C119F1010118510E
:10C5B8000201385D0101195102013959D8B0120040
:10C5C80018C138F219C139F21200020E01011E1900
:10C5D800D8A41FD0F10E0101036F020E0101046FF0
:10C5E800000E0101056F050E3FEC53F003C11AF16F
:10C5F80004C11BF101011A510001AE5D01011B517B
:10C608000001AF59D8B012001AC1AEF01BC1AFF08B
:10C618001200030E01011E19D8A41200F30E010125
:10C62800036F020E0101046F000E0101056F070E72
:10C638003FEC53F003C11CF104C11DF101011C5171
:10C6480002013A5D01011D5102013B59D8B01200A7
:10C658001CC13AF21DC13BF2120012000101126F17
:10C66800010112510101D8A40DD0D6CF13F1010157
:10C67800146BD7CF15F111D0010115510101166FB7
:10C68800156B0ED0030E01011219D8A412D0B2CF27
:10C6980013F10101146BB3CF15F10101166BECD73F
:10C6A800010113510101152701011451010116233C
:10C6B80000D001010C510101D8A435D015C10EF1EB
:10C6C80016C10FF101010E1F0F1F0E4B0F2BFF0E8E
:10C6D80001010E250101106FFF0E01010F2101015B
:10C6E800116F10C100F111C101F10101026B036B5F
:10C6F800E80E0101046F030E056F000E066F000EB1
:10C70800076F34EC70F0100E07D00101D890033396
:10C718000233010101330033E82EF7D700C10CF1D1
:10C7280001C10DF1120015C10CF116C10DF1120075
:10C73800000E0101056F010103AF09D00101026D6F
:10C74800031FD8B0032B010E0101056F00D00101B2
:10C7580001AF09D00101006D011FD8B0012B010EF6
:10C768000101051B00D0000E0101076F000E066FC6
:10C778000101025101010311D8B431D0010E0101A8
:10C78800046F07D00101D890023703370101042B49
:10C7980000D0010103BF02D0F5D700D00101D89025
:10C7A80006370737010102510101005D01010351FC
:10C7B80001010159D8A00BD0010102510101005F0C
:10C7C800010103510101015B0101068100D0010152
:10C7D800D890033302330101042FE0D700D00101C0
:10C7E80005510101D8B406D00101066D071FD8B064
:10C7F800072B00D006C100F107C101F11200120099
:10C808000101026F01010251060D050EF326000E0B
:10C81800F422BD0EF324D96E0A0EF420DA6EDE2857
:10C82800D8A410D001010251060D050EF326000E02
:10C83800F422BD0EF324D96E0A0EF420DA6E00C17C
:10C84800DFFF120001010251060D050EF326000E4E
:10C85800F422BD0EF324D96E0A0EF420DA6E01011B
:10C868000051DE5CD8B00FD001010251060D050E53
:10C87800F326000EF422BD0EF324D96E0A0EF4201E
:10C88800DA6EDF2A120001010251060D050EF326A9
:10C89800000EF422BD0EF324D96E0A0EF420DA6ECF
:10C8A800DE500101005DD8B0120001010251060DF1
:10C8B800050EF326000EF422BD0EF324D96E0A0EDF
:10C8C800F420DA6EDF061200120000010203040AE7
:10C8D8000B0C0D0E14151617181E1F2021222829BF
:10C8E8002A2B2C05060708090F10111213191A1BF9
:10C8F8001C1D23242526272D2E2F30310031302FC3
:10C908002E2D27262524231D1C1B1A19131211103E
:10C918000F09080706052C2B2A29282221201F1E6B
:10C9280018171615140E0D0C0B0A0403020100014A
:10C938000203040A0B0C0D0E14151617181E1F20DF
:10C94800212228292A2B2C05060708090F10111265
:10C9580013191A1B1C1D23242526272D2E2F303191
:10C968000031302F2E2D27262524231D1C1B1A1994
:10C97800131211100F09080706052C2B2A29282243
:10C9880021201F1E18171615140E0D0C0B0A040370
:10C9980002010000000E0101086F000E096F000E71
:10C9A8000A6F000E0B6F010104510101051101010D
:10C9B800061101010711D8B447D0010E01010C6F0F
:10C9C80009D00101D8900437053706370737010128
:10C9D8000C2B00D0010107BF02D0F3D700D0010112
:10C9E800D890083709370A370B370101045101017C
:10C9F800005D0101055101010159010106510101C3
:10CA080002590101075101010359D8A013D00101AE
:10CA180004510101005F010105510101015B0101A0
:10CA280006510101025B010107510101035B01018C
:10CA3800088100D00101D890073306330533043349
:10CA480001010C2FCCD700D008C100F109C101F1B8
:10CA58000AC102F10BC103F112001B6E4150D8B498
:10CA68001FD01B50D8B40CD0FF0E34240E6EFF0E0E
:10CA780035200F6E040E106E010EEDEC4EF00AD04C
:10CA880034C00EF035C00FF0040E106E010EEDEC40
:10CA98004EF000D0070E356E3468000E416E00D09F
:10CAA800010E0001A2250001A26FF80E0001A321CA
:10CAB8000001A36F2C06D8A02D062C502D10D8A449
:10CAC8000ED0000E2D6E100E2C6E0EC2A2F00FC2EC
:10CAD800A3F07F0E02010F6FF00E0E6F0BD02C0427
:10CAE8002D10D8A407D0010E416EA2C034F0A3C007
:10CAF80035F000D00001C82BC80E0001C86504D06D
:10CB0800000E0001C86F00D00201102904E10201E3
:10CB18001129D8B412000201104B112B1200120077
:10CB2800000E0101156F000E146F010115BF0AD028
:10CB3800010115513CE10A0E0101145DD8B037D04E
:10CB480001D035D000EC5EF00DC1ACF00EC1ADF0F7
:10CB58000001ADBF0ED0230E0001AC5D0C0E00012C
:10CB6800AD59D8A006D00001AC51DE0F0101D6277F
:10CB780012D00001ADBF08D01C0E0001AC5D0C0E38
:10CB88000001AD59D8B007D00001AC5100081C0F06
:10CB98000101D65F00D0020E0101016F8A0E006FFD
:10CBA800FCEC71F00101144B152BBFD700D001012B
:10CBB800D651800A9F0FD8A012000101D651800AD1
:10CBC800600FD8B0120080EC7AF0030E0101016FFB
:10CBD800F00E006FD6C102F1DEEC74F01200120004
:10CBE80000018E6F8EC0D8F0D8C060F00001616B74
:10CBF800000E0001636F070E626F67EC67F00001BB
:10CC080060510101C66F880E0001D86504D0280E56
:10CC18000001D86F1200000E00016F6F000E0001B6
:10CC2800706F3F0E0001716FDA0E00018A6FFF0E00
:10CC380000018B6F0001D85100018C6F8D6B0001D2
:10CC48008A5100018C2700018B5100018D230001BE
:10CC58008C1F8D1F8C4B8D2B640E00018C250001C1
:10CC6800686F000E00018D210001696F02EC75F0FC
:10CC780068C06CF069C06DF06AC06EF089EC52F063
:10CC88006CC07BF06DC07CF06EC07DF046EC57F058
:10CC980000017B51280F0001D86F12001200C9C291
:10CCA80000F1CAC201F1CBC202F1CCC203F1CDC27C
:10CCB80004F1CEC205F1CFC206F1D0C207F134ECBF
:10CCC80070F000C1C9F201C1CAF202C1CBF203C1BE
:10CCD800CCF2390E0201C927300ECA23000ECB232D
:10CCE800000ECC23100E01010E6FC9C20FF1CAC28B
:10CCF80010F1CBC211F1CCC212F101010E6701D0C3
:10CD080009D0010112351233113310330F330101E9
:10CD18000E2FF3D7FF0E01010F150101006F7F0ED3
:10CD2800010110150101016F000E0101111501012A
:10CD3800026F000E010112150101036F0CC104F10D
:10CD48000DC105F10101066B076B83EC5EF000C1B4
:10CD58000CF101C10DF112001200000E0101106F5B
:10CD6800000E0F6F000E0101126F000E116F000E02
:10CD78000101006F0A0E6FEC74F0000E0101126FD2
:10CD8800000E116F000E0101136F090E01011365EA
:10CD980001D02AD096EC7AF000D02DEC7AF0000978
:10CDA800D8A4FBD7C4500101106F0F6BC350010109
:10CDB8000F13040E0101136514D0100E0101105D4C
:10CDC800D8A006D0000E0101106F000E0F6F00D022
:10CDD80001010F5101011127010110510101122315
:10CDE80000D00101132BD1D711C106F112C107F1EF
:10CDF800000E0101096F050E086FB8EC6EF006C150
:10CE080011F107C112F111C10DF112C10EF1120099
:10CE18001200000E0101056F010101AF09D00101E7
:10CE2800006D011FD8B0012B010E0101056F00D064
:10CE3800010103AF06D00101026D031FD8B0032B17
:10CE480000D00101025101010311D8B42BD0010E09
:10CE58000101046F07D00101D8900237033701019F
:10CE6800042B00D0010103BF02D0F5D700D0010187
:10CE780002510101005D0101035101010159D8A0CE
:10CE880009D0010102510101005F010103510101B3
:10CE9800015B00D00101D890033302330101042F54
:10CEA800E6D700D0010105510101D8B406D001012F
:10CEB800006D011FD8B0012B00D000C100F101C1E5
:10CEC80001F112001200000E0001656F000161AF50
:10CED80009D00001606D611FD8B0612B010E0001FF
:10CEE800656F00D0000163AF06D00001626D631F5B
:10CEF800D8B0632B00D00001625100016311D8B48F
:10CF08002BD0010E0001646F07D00001D890623762
:10CF180063370001642B00D0000163BF02D0F5D74E
:10CF280000D0000162510001605D00016351000101
:10CF38006159D8A009D0000162510001605F000169
:10CF480063510001615B00D00001D8906333623304
:10CF58000001642FE6D700D0000165510001D8B464
:10CF680006D00001606D611FD8B0612B00D060C091
:10CF780060F061C061F0120012000EC100F10FC133
:10CF880001F1000E0101026F0EC103F10FC104F19E
:10CF9800080E0101056F080E0101066F7BEC6FF0AA
:10CFA8000009D8B412000EC100F10FC101F1080E3A
:10CFB8000101026F0EC103F10FC104F1100E01014E
:10CFC800056F080E0101066F7BEC6FF00009D8B4FD
:10CFD8001200000E0101106F070E0101106501D04B
:10CFE8001DD080EC7AF0F40E010110250101006FCC
:10CFF8000101016B030E01230101105101010E25EE
:10D00800D96E0101000E01010F21DA6EDF50010116
:10D01800026FDEEC74F00101102BDED70EC100F1B7
:10D028000FC101F1A9EC6BF012001200000E010112
:10D03800106F000E0F6F010110BF0AD001011051CF
:10D048004AE1FA0E01010F5DD8B045D001D043D0B6
:10D058000BC104F10CC105F101010F5105EC5FF0A2
:10D068000009D8B433D00FC10DF110C10EF1D8901A
:10D0780001010D370E37010E01010D27000E0E2399
:10D08800C90E01010D25D96E080E01010E21DA6EB7
:10D09800DF501F0B1F0AD8B419D00FC10DF110C1F2
:10D0A8000EF1D89001010D370E37010E01010D2741
:10D0B800000E0E23C90E01010D25D96E080E0101BF
:10D0C8000E21DA6EDF38E832070B120001010F4B30
:10D0D800102BB1D700D0000E12001200EACF1FF0BB
:10D0E800E1CF20F0E2CF21F0D9CF22F0DACF23F040
:10D0F800F3CF24F0F4CF25F0F6CF26F0F7CF27F0C2
:10D10800F8CF28F0F5CF29F09EB09DA022D09E90B0
:10D11800F80E2B6E000E2A6E2B50CF6ED3B603D0AE
:10D12800010E4B6E00D04B5031EC65F0010E010141
:10D13800BD6F0201572B0001CF51D8B404D00201B2
:10D148001A4B1B2B06D0000E02011B6F000E1A6F24
:10D1580000D029C0F5FF28C0F8FF27C0F7FF26C078
:10D16800F6FF25C0F4FF24C0F3FF23C0DAFF22C076
:10D17800D9FF21C0E2FF20C0E1FF1FC0EAFF1EC0A7
:10D18800E9FF1DC0FBFF1CC0FAFF11000101106F71
:10D19800FA0E010110613ED010C111F10101126BAC
:10D1A80011C10EF112C10FF10101D8900E370F37DE
:10D1B8000101D8900E370F370EC111F10FC112F1CE
:10D1C800000E0101136F030E0101136502D0120056
:10D1D800120001011351010DF35001010C25D96E04
:10D1E800F45001010D21DA6E0101135101011125DD
:10D1F8000101026F000E010112210101036F10EC01
:10D208007AF0DF6E0101132B030E01011365E1D7DC
:10D2180012001200E10E0101066F010E0101076FF5
:10D228000CC108F10DC109F1040E01010A6F23ECCC
:10D2380074F0120012000101146F030E0101086F4F
:10D2480001011451060D050EF326000EF422BD0E41
:10D25800F324D96E0A0EF420DA6EDF5097EC49F009
:10D268000101136F01011451060D040EF326000E7F
:10D27800F422BD0EF324D96E0A0EF420DA6EDF38DC
:10D288000F0BD7EC76F00101135DD8B012D0010175
:10D298001451060D040EF326000EF422BD0EF324DD
:10D2A800D96E0A0EF420DA6EDF380F0BD7EC76F061
:10D2B8001200030E0101086F01011451060D050E3D
:10D2C800F326000EF422BD0EF324D96E0A0EF420C4
:10D2D800DA6EDF5097EC49F0120012000EC106F129
:10D2E8000FC107F1E10E0101086F010E0101096F7D
:10D2F800040E01010A6F55EC73F00009D8A412005E
:10D30800000E0101126F3E0E0101126502D01200DB
:10D31800120001011251060DBD0EF3240101066F22
:10D328000A0EF4200101076F0EC108F10FC109F1BF
:10D33800040E01010A6F55EC73F00009D8B418D037
:10D3480010C111F101011251060D040EF326000E51
:10D35800F422BD0EF324D96E0A0EF420DA6E010110
:10D36800113BDF50010111190F0B1119DF6E12006B
:10D378000101122B3E0E01011265CBD712001200DB
:10D388001200000E01010E6F000E0D6F010120EE5C
:10D3980003F00651D9260751DA22DF500101086F40
:10D3A80006C1D9FF07C1DAFFDF500101096F0A6B17
:10D3B800010120EE01F00651D9260751DA22DF508B
:10D3C80001010B6F01010B5101010927000E0A230E
:10D3D800010120EE02F00651D9260751DA22DF506A
:10D3E80001010C6F01010C5101010927000E0A23EC
:10D3F80001010851010109250101006F0101000E19
:10D4080001010A210101016F000E0101036FC90E1C
:10D41800026F0DEC67F000C10DF101C10EF10101C1
:10D428000D5112001200100E0101466F1AC10BF1C6
:10D438001BC10CF1420E01010D6F010E01010E6FAF
:10D448009DEC41F01D0E01011C6F2E0E01011D6F98
:10D45800460E01011E6F480E01011F6F430E0101A8
:10D46800206F010E01010C6F000E0D6F020E0E6F82
:10D47800000E0F6F0B0E0101106F000E116F000EE2
:10D48800126F000E136F210E0101146F010E0101BE
:10D49800156F5BEC6BF01AC10EF11BC10FF11C0E7E
:10D4A8000101106F010E0101116F46C112F1000E4A
:10D4B8000101136F010E0101146F000E0101156FB8
:10D4C80042EC46F012001200100E0101466F1AC11C
:10D4D8000BF11BC10CF1420E01010D6F010E010190
:10D4E8000E6F9DEC41F01D0E01011C6F2A0E01010B
:10D4F8001D6F410E01011E6F530E01011F6F460E75
:10D508000101206F010E01010C6F000E0D6F020E5C
:10D518000E6F000E0F6F0B0E0101106F000E116FD2
:10D52800000E126F000E136F210E0101146F010E11
:10D538000101156F5BEC6BF01AC10EF11BC10FF105
:10D548001C0E0101106F010E0101116F46C112F18D
:10D55800000E0101136F010E0101146F000E01018D
:10D56800156F42EC46F01200120001012C6F010108
:10D578002C516EEC4DF0000E0101C86F000E010138
:10D58800DC6F010E516E7F0E02010F6FF00E0E6FF1
:10D598007F0E0001A36FF00EA26F000E2D6E100E0D
:10D5A8002C6E070E01010E6F0D69040E01010F6F3D
:10D5B800010E1BEC47F0010E0001A2250001A26F2D
:10D5C800F80E0001A3210001A36F2C06D8A02D0698
:10D5D800070E356E3468090EEEEC78F0000E010186
:10D5E8000D6F1E0E0C6F53EC66F05A0E01010C25E0
:10D5F8000101266F000E01010D210101276F010EA7
:10D608000101286F0E0EA4EC6DF01200000E01014E
:10D61800106F000E0F6F000E0101126F000E116FD8
:10D62800000E0101006F080E6FEC74F0000E01018E
:10D63800126F000E116F000E0101136F090E010128
:10D64800136501D01FD096EC7AF000D02DEC7AF05B
:10D658000009D8A4FBD7C4500101106F0F6BC35049
:10D6680001010F13040E0101136509D001010F51C7
:10D6780001011127010110510101122300D00101FC
:10D68800132BDCD711C106F112C107F1000E0101FD
:10D69800096F050E086FB8EC6EF006C111F107C1ED
:10D6A80012F111C10DF112C10EF112001200000E9B
:10D6B8000101166F000E176F000E186F000E196F1C
:10D6C800899E030E54EC78F001010E5154EC78F069
:10D6D80001010D5154EC78F001010C5154EC78F033
:10D6E800000E0101166F000E176F000E186F000E66
:10D6F800196F17D00101165101011425D96E0101C6
:10D70800175101011521DA6E62EC79F0010100511F
:10D71800DF6E010E01011627000E172318231923A7
:10D7280000D0010110510101165D010111510101E3
:10D738001759010112510101185901011351010131
:10D748001959D8A0D7D7898E1200000E0101036F8E
:10D75800070E0101036501D019D001010351010D24
:10D76800F35001010025D96EF45001010121DA6E50
:10D7780001010351010DB50EF324E16E020EF420F0
:10D78800E26EDFCFE7FF0101032BE2D7000E0101B4
:10D79800036F070E0101036502D012001200010198
:10D7A8000351010DF35001010025D96EF450010118
:10D7B8000121DA6EDE28D8A409D0070E0101031969
:10D7C800D8A408D0000E0101CA6F04D0010E0101CF
:10D7D800CA6F12000101032B070E01010365DFD791
:10D7E80012001200000E01010D6F3FD0010102511D
:10D7F8000DC107F10101086B01010727000E08237D
:10D8080000C109F101C10AF101010751010109270C
:10D818000101085101010A2309C1F6FF0AC1F7FFF6
:10D82800000EF86E010105510DC10BF101010C6BE1
:10D8380001010B27000E0C2301010B5101010325E7
:10D84800D96E01010C5101010421DA6E0E0EF76444
:10D8580003D00800F55005D0F6CFE9FFF7CFEAFF6F
:10D86800EF50DF6E01010D2B00D0010106510101BF
:10D878000D5DD8A0BBD71200F0EC79F0899E020E9E
:10D8880054EC78F00101075154EC78F0010106518D
:10D8980054EC78F00101055154EC78F0000E0101C8
:10D8A8000F6F000E106F000E116F000E126F15D063
:10D8B80001010F5101010925D96E01011051010122
:10D8C8000A21DA6EDF5054EC78F0010E01010F27BF
:10D8D800000E10231123122300D001010B51010166
:10D8E8000F5D01010C510101105901010D51010198
:10D8F800115901010E5101011259D8A0D9D7898EA9
:10D90800CCEC79F012001200040E01010E25010181
:10D91800066F000E01010F210101076F10C108F108
:10D9280011C109F1040E01010A6F23EC74F000EC37
:10D938007AF002C1D9FF03C1DAFF12C1E1FF13C1B6
:10D94800E2FFDFCFE7FF0EC106F10FC107F1E10EDD
:10D958000101086F010E0101096F040E01010A6F30
:10D9680055EC73F00009D8A412D00EC106F10FC10E
:10D9780007F1E50E0101086F010E0101096F040EA0
:10D9880001010A6F55EC73F00009D8B402D0010EFA
:10D998001200000E12001200000E0001C96F3E0EA8
:10D9A800010108611200200E87EC58F0800E87EC08
:10D9B80058F001010851020FB8EC79F00001B85194
:10D9C800B8EC79F0000E0101096F21D0010109516D
:10D9D800010DF35001010625D96EF450010107210C
:10D9E800DA6EDF500001C9190001C96F0101095140
:10D9F800010DF35001010625D96EF45001010721EC
:10DA0800DA6EDF50B8EC79F00101092B00D0010182
:10DA180008510101095DD8A0D9D70001C951B8EC56
:10DA280079F01200120001010B6FFA0E01010B616F
:10DA380012000BC10CF101010D6B0CC109F10DC1F4
:10DA48000AF10101D89009370A370101D89009373E
:10DA58000A3709C10CF10AC10DF1000E01010E6F60
:10DA6800030E01010E6502D01200120001010E51D1
:10DA780001010C250101046F000E01010D210101B6
:10DA8800056F01010E51010DF35001010725D96EF3
:10DA9800F45001010821DA6EDF500101066F1DEC18
:10DAA80079F001010E2B030E01010E65DFD712007C
:10DAB80012001200ADEC79F00101046F0001D2519F
:10DAC800D8A41CD001010429D8A403D004C1D3F0E0
:10DAD80007D0010104290001D36F0001D305456E69
:10DAE800400E0001D3650AD0400E0001D36F00013B
:10DAF800D305456E010E0201526F00D00001D351CB
:10DB08000001D25DD8B00ED00001D251010D800EB7
:10DB1800F324D96E040EF420DA6E04C1DFFF00018D
:10DB2800D22B00D00001D3510001D219D8A4120081
:10DB38000001D351D8B41200010E396E1200120040
:10DB480001012B6F010126291DE101012729D8A414
:10DB580019D001012B51020D000EF324D96E030ECA
:10DB6800F420DA6EFF0EDE6EFF0EDD6E01012B5122
:10DB7800010D590EF324D96E030EF420DA6E28C174
:10DB8800DFFF1200010E010126250101296F000E99
:10DB98000101272101012A6F01012B51020D000EFD
:10DBA800F324D96E030EF420DA6E29C1DEFF2AC1F0
:10DBB800DDFF01012B51010D590EF324D96E030E1F
:10DBC800F420DA6E28C1DFFF12001200000E096E81
:10DBD800000E0A6E000E0B6E000E0C6E055006103D
:10DBE80007100810D8B42FD0010E0D6E07D0D890AA
:10DBF80005360636073608360D2A00D008BE02D08C
:10DC0800F6D700D0D89009360A360B360C360550B0
:10DC1800015C065002580750035808500458D8A011
:10DC28000AD00550015E0650025A0750035A0850A0
:10DC3800045A098000D0D8900832073206320532DB
:10DC48000D2EE0D700D009C001F00AC002F00BC0C9
:10DC580003F00CC004F012003D0E01015D6F1AC103
:10DC68001CF11BC11DF11AC159F11BC15AF1010167
:10DC78005B6B5C6B59C100F15AC101F15BC102F1E8
:10DC88005CC103F1380E0101046F000E056F000E30
:10DC9800066F000E076F34EC70F000C10CF101C183
:10DCA8000DF102C10EF103C10FF1380E0101106F21
:10DCB800000E116F000E126F000E136F1E0E010181
:10DCC800146F010E0101156F5BEC6BF01C0E010166
:10DCD800066F010E0101076F5DC108F1D0EC6CF011
:10DCE80012000101006F000E0101016F949E8B9ECE
:10DCF800948C1A0EE82EFED700D0000E0101026F98
:10DD0800070E0101026501D015D00101D890013735
:10DD18008B8E1A0EE82EFED700D082AC03D00101FC
:10DD2800018100D08B9E1A0EE82EFED700D001018B
:10DD3800022BE6D7010100510101D8A403D08B9C26
:10DD4800949C00D01A0EE82EFED700D08B8E1A0EA7
:10DD5800E82EFED700D08B9E1A0EE82EFED700D0F4
:10DD68000101015112001200000E01010C6F000E9A
:10DD78000B6F0101085101010911D8B431D0010E0E
:10DD880001010A6F07D00101D8900837093701014E
:10DD98000A2B00D0010109BF02D0F5D700D001013C
:10DDA800D8900B370C37010108510101065D0101BC
:10DDB800095101010759D8A00BD0010108510101EF
:10DDC800065F010109510101075B01010B8100D0C8
:10DDD8000101D8900933083301010A2FE0D700D098
:10DDE8000BC106F10CC107F112000101006F00C15F
:10DDF80001F1949C949E000E0101026F1BD01ED06D
:10DE0800010101AF02D08B8C02D08B9C00D00101A4
:10DE1800D89001371A0EE82EFED700D08B8E1A0E36
:10DE2800E82EFED700D08B9E1A0EE82EFED700D023
:10DE38000101022B070E01010265E2D7948C1A0E2C
:10DE4800E82EFED700D08B8E1A0EE82EFED700D013
:10DE5800000E82BC010E0101026F8B9E1A0EE82E85
:10DE6800FED700D00101025112001200000E00017D
:10DE7800666F000E656F0001625100016311D8B42E
:10DE880031D0010E0001646F07D00001D8906237CD
:10DE980063370001642B00D0000163BF02D0F5D7BF
:10DEA80000D00001D8906537663700016251000143
:10DEB800605D0001635100016159D8A00BD00001D9
:10DEC80062510001605F000163510001615B000164
:10DED800658100D00001D890633362330001642F5C
:10DEE800E0D700D065C060F066C061F01200000E97
:10DEF80001010D6F31D0010105510DC107F101017B
:10DF0800086B01010727000E0823010107510101D1
:10DF18000325D96E0101085101010421DA6E0101BE
:10DF280002510DC10AF101010B6B01010A27000E14
:10DF38000B2301010A5101010025E16E01010B517A
:10DF480001010121E26EDE50E618D8B402D0000EBD
:10DF5800120001010D2B00D00101065101010D5DD8
:10DF6800D8A0C9D7010E12001200000E0101116FCE
:10DF7800000E106F010111BF0AD00101115130E1EB
:10DF88003F0E0101105DD8B02BD001D029D010C1AF
:10DF980000F111C101F1000E0101036F060E026FBD
:10DFA80052EC76F0BD0E010100250101066F0A0E44
:10DFB800010101210101076F0EC108F10FC109F12B
:10DFC800040E01010A6F55EC73F00009D8B403D0B0
:10DFD8000101105112000101104B112BCBD700D0B9
:10DFE800FF0E12001200120E01010E6F010E010148
:10DFF8000F6FF90E0101106F010E0101116FE7ECAF
:10E0080061F0000E0101266F830E0101006FFE0E04
:10E018000101016F000E0101026F120E0101036F71
:10E02800010E0101046F150E0101056F240E010197
:10E03800066FF6EC6BF00101CA51300F01014B6F0E
:10E04800120E0101046F010E0101056F3A0E010164
:10E05800066F000E0101076F020E7EEC60F01200E1
:10E06800000E0101086F000E096F000E0A6F000E06
:10E078000B6F00D0010100A111D001010451010171
:10E088000827010105510101092301010651010178
:10E098000A230101075101010B2300D00101D89087
:10E0A80004370537063707370101D89003330233A1
:10E0B8000133003301010051010101110101021175
:10E0C80001010311D8A4D6D708C100F109C101F193
:10E0D8000AC102F10BC103F11200000E0001686FC2
:10E0E800000E696F000E6A6F000E6B6F00D00001A2
:10E0F80060A111D000016451000168270001655139
:10E10800000169230001665100016A23000167517B
:10E1180000016B2300D00001D8906437653766375B
:10E1280067370001D890633362336133603300018D
:10E138006051000161110001621100016311D8A44E
:10E14800D6D768C060F069C061F06AC062F06BC081
:10E1580063F0120001010251010100250101086F5D
:10E1680001010351010101210101096F08C10AF1EF
:10E1780009C10BF101010C6B0D6B10D001010451A9
:10E1880001010A5F0101055101010B5B0101065103
:10E1980001010C5B0101075101010D5B01010451F3
:10E1A80001010A5D0101055101010B5901010651E7
:10E1B80001010C590101075101010D59D8B0DED7F1
:10E1C8000AC100F10BC101F11200060E0101446FF2
:10E1D80018C10BF119C10CF1400E01010D6F010EB0
:10E1E80001010E6F9DEC41F01F0E01011A6F2A0EFE
:10E1F80001011B6F530E01011C6F460E01011D6FBB
:10E20800540E01011E6FF1C11FF118C10EF119C1A1
:10E218000FF11A0E0101106F010E0101116F44C1B7
:10E2280012F1000E0101136F010E0101146F000EAF
:10E238000101156F42EC46F012001200000E0101B8
:10E248001B6F830E0101006FFE0E0101016F000EAE
:10E258000101026F1B0E0101036F010E0101046F22
:10E26800010E0101056F240E0101066FF6EC6BF03B
:10E278000101CA51300F0101406F18C10EF119C1D7
:10E288000FF11B0E0101106F010E0101116F260E17
:10E298000101126F000E0101136F1AC114F1000E73
:10E2A8000101156F42EC46F0120012000101046FE3
:10E2B80001010451020D000EF324D96E030EF4205F
:10E2C800DA6EDE50DE10D8B418D001010451020D08
:10E2D800000EF324D96E030EF420DA6EDECF02F1BD
:10E2E800DDCF03F1FF0E010102250101006FFF0ED2
:10E2F800010103210101016F120001010451020D06
:10E30800000EF324D96E030EF420DA6EDECF00F18E
:10E31800DDCF01F11200120001010F5101011011AE
:10E32800D8B42BD0010E0101116F07D00101D8908C
:10E338000F3710370101112B00D0010110BF02D097
:10E34800F5D700D001010F5101010D5D01011051F8
:10E3580001010E59D8A009D001010F5101010D5F2B
:10E368000101105101010E5B00D00101D89010335A
:10E378000F330101112FE6D700D00DC10DF10EC1E9
:10E388000EF112000001695100016A11D8B42BD0B6
:10E39800010E00016B6F07D00001D89069376A370A
:10E3A80000016B2B00D000016ABF02D0F5D700D066
:10E3B800000169510001675D00016A510001685957
:10E3C800D8A009D0000169510001675F00016A51B6
:10E3D8000001685B00D00001D8906A3369330001FE
:10E3E8006B2FE6D700D067C067F068C068F01200EE
:10E3F80014D0D00E0101026FCA0EE82EFED7022FEC
:10E40800FCD7F60E010100250101006FFF0E010186
:10E4180001210101016F040000D001010151E9E16E
:10E428000B0E0101005DD8A010D0E3D70ED0150E59
:10E438000101026FC60EE82EFED7022FFCD700D0CE
:10E4480001010007D8A001070400010100510101E2
:10E458000111D8A4ECD712000101026F3F0EC716B4
:10E46800000EC66E01010251C61201010151C71208
:10E4780005D0C78C16D0C78CC68813D001010051AF
:10E48800000AD8B4F6D7020AD8B4F5D7010AD8B426
:10E49800F3D707D09486928A0DD094860BD09496A1
:10E4A80009D001010251040AD8B4F4D7010AD8B43A
:10E4B800F4D7F5D79488949AC68A1200000E010101
:10E4C8000E6F0101F85142EC78F0040E01010C6F57
:10E4D800010EEAEC5BF00001A25101010C250101DB
:10E4E800236F0001A35101010D210101246F74EC78
:10E4F8007AF00101206F23C122F1010124510101A9
:10E50800216F200E0101176F010E0101186F030E14
:10E518000101196F010E01011A6F28EC4BF012006E
:10E528000101036F410E0101056F0101046927EC28
:10E5380073F00101D89005370BEC78F00101055113
:10E54800F9EC6EF00009D8A417D001010351F9ECD9
:10E558006EF00009D8A410D00BEC78F00101052961
:10E56800F9EC6EF00009D8A407D0010E75EC6EF036
:10E578000F0B0101046F00D047EC79F00101045141
:10E58800120012002CD04504D8A405D055EC79F01F
:10E598000201506F00D00001D3510001D25DD8B004
:10E5A8000FD00001D251010D800EF324D96E040E54
:10E5B800F420DA6EADEC79F0DF6E0001D22B00D0DA
:10E5C8000001D3510001D219D8A407D00001D351BA
:10E5D800D8B403D0010E396E00D0450600D045509E
:10E5E800D8A4D1D712002A8C02020CC177643277E2
:10E5F800623238F81180E938380700000507090C3D
:10E60800F2004000D880FFFFFFFFFFFFFFFFFFFF82
:10E61800FFFFFFFFFFFFFFFFFFFF010000006D4E40
:10E62800C641170001000800FF0001020141FFFF79
:10E63800FFFFFFFFFFFFFFFFFFFFFFFFFFFFFFFFE2
:10E64800EA06EA06EA06000E0101006F948C1A0E2B
:10E65800E82EFED700D0000E82BC010E0101006F2B
:10E66800010100510101D8A4120001D01200949EAA
:10E67800000E0101006F080E0101006501D00DD0E8
:10E688008B8E1A0EE82EFED700D08B9E1A0EE82E1F
:10E69800FED700D00101002BEED747EC79F012002D
:10E6A8001200000E01010D6F1FD001010D51010D67
:10E6B800F35001010825D96EF45001010921DA6EE1
:10E6C80001010D51010DF35001010625E16EF450D1
:10E6D80001010721E26EDE50E618D8B402D0000E20
:10E6E800120001010D2B00D001010A5101010D5D3D
:10E6F800D8A0DBD7010E120012001D0E01011A6FFF
:10E70800250E01011B6FF9C11CF1FAC11DF1FBC1F6
:10E718001EF1FCC11FF1060E0101406F18C10EF178
:10E7280019C10FF11A0E0101106F010E0101116FCD
:10E7380040C112F1000E0101136F010E0101146FA7
:10E74800000E0101156F42EC46F0120012000101A3
:10E75800BD51D8A412000101BE51D8A41200010174
:10E76800C051D8A412000001CF51D8A41200000152
:10E77800CB51D8A412000101D551D8A412004D5094
:10E78800D8A412000101D151D8A412000101B85136
:10E79800D8A412004E50D8B4120054EC7AF01200EB
:10E7A80012002CC121F12DC122F13C0E0101236F71
:10E7B800010E0101246F010E0101256F7AEC3CF076
:10E7C8002CC10EF12DC10FF1B9EC6FF001012F6FC3
:10E7D8002AC115F12BC116F12FC117F12EC118F15D
:10E7E800000E0101196F010E01011A6F50EC1EF0A5
:10E7F800120001012C6F000E0101F06F2CC1CCF04A
:10E80800000E01012E6F3E0E2D6F2DC100F12EC19D
:10E8180001F1000E0101036F1E0E026F52EC76F03B
:10E8280000C12DF101C12EF12DC126F12EC127F114
:10E83800000E0101286F070EA4EC6DF01200000E07
:10E8480001010B6F1BD001010B51010DF3500101A8
:10E858000625D96EF45001010721DA6E01010B512A
:10E86800010DF35001010825E16EF4500101092161
:10E87800E26EDFCFE7FF01010B2B00D001010A5147
:10E8880001010B5DD8A0DFD712000101096F410E0D
:10E898000101086F27EC73F001010905D8A403D022
:10E8A80094EC74F000D00101D89008370BEC78F0A4
:10E8B80001010851F9EC6EF00009D8A409D0010152
:10E8C8000951F9EC6EF001010751F9EC6EF000D036
:10E8D80047EC79F012000101026F00C101F101015A
:10E8E800013BC15001010119CF0B0119C16EC1963D
:10E8F800C190C192C19402C101F1010101470147D0
:10E90800C25001010119830B0119C26EC086C0886B
:10E91800C08AC050F80B0609C06EC08EC2801200B3
:10E92800410E0101066F27EC73F0030E94EC72F0B0
:10E938000009D8B417D00101D89006370BEC78F04D
:10E9480001010651F9EC6EF00009D8A407D0030EB6
:10E95800F9EC6EF0000EF9EC6EF000D047EC79F0AF
:10E96800010E1200000E12001200000E0101016FCC
:10E978003E0E0101016501D01AD001010151060DB9
:10E98800040EF326000EF422BD0EF324D96E0A0EEF
:10E99800F420DA6EDF500F0B0101006F020E010147
:10E9A800006102D0010E12000101012BE1D7000E17
:10E9B80012001200000E0101036F01010151030B47
:10E9C800756E00C174FF02C173FF7F9E7F9C7F84B8
:10E9D800000EF2BE010E0101036FF29E550E7E6E0F
:10E9E800AA0E7E6E7F8200D07FB2FED7010103B1EE
:10E9F80002D0F29E01D0F28E7F941200000E000128
:10EA08006B6F000169AF09D00001686D691FD8B04C
:10EA1800692B010E00016B6F00D068C060F069C0FF
:10EA280061F00001626B8E0E0001636F6BC064F0D1
:10EA380040EC5AF060C068F061C069F062C06AF0EA
:10EA4800120012001A0E0101006F010E0101016F80
:10EA58004BEC55F00101406F18C10EF119C10FF1CF
:10EA68001A0E0101106F010E0101116F40C112F160
:10EA7800000E0101136F010E0101146F000E010158
:10EA8800156F42EC46F01200120093968A8689862A
:10EA9800050E0101046F260EE82EFED7042FFCD7C1
:10EAA80000D08996680E0101046FE40EE82EFED7A7
:10EAB800042FFCD700D080EC7AF0030E0101016F1F
:10EAC800FE0E006FFF0E0101026FDEEC74F0120003
:10EAD8001D0E01011C6F1AC11DF11BC11EF1030E91
:10EAE8000101426F18C10EF119C10FF11C0E01018D
:10EAF800106F010E0101116F42C112F1000E0101E8
:10EB0800136F010E0101146F010E0101156F42EC24
:10EB180046F012000FC106F110C107F1E50E010120
:10EB2800086F010E0101096F040E01010A6F23EC41
:10EB380074F00101E1690101E2690101E369010180
:10EB4800E469E50E0101066F010E0101076FC5ECCE
:10EB580069F04AEC7AF012000101016F01010151DC
:10EB68000101D8B409D00001D551D8B413D0899C7B
:10EB78008B94898012000ED0010100510101D8B494
:10EB880009D00001D751D8B405D0898C8B948990CD
:10EB9800120000D0899C8B84899012000001616F5B
:10EBA800000161510001D8B409D00001D551D8B491
:10EBB80013D0899C8B94898012000ED0000160517B
:10EBC8000001D8B409D00001D751D8B405D0898C38
:10EBD8008B948990120000D0899C8B8489901200B4
:10EBE8000101026F01010251020D000EF324D96EDA
:10EBF800030EF420DA6EDE04DE10D8A40FD0010173
:10EC08000251020D000EF324D96E030EF420DA6EC1
:10EC1800000EDE6E000EDD6E010E1200000E1200F8
:10EC280012000101006F010100510101D8A409D0AF
:10EC3800D59E000ED76E000ED66E850ED56ED58E7B
:10EC48001200030E01010019D8A41200000EB36EC1
:10EC5800000EB26E8C0EB16EA292A192B18012001B
:10EC680012000101046F01010451D8090101056F67
:10EC780005C102F13C0E8AEC76F0C80E0101056F61
:10EC880005C102F11A0E8AEC76F0000E0101056F3B
:10EC980005C102F13E0E8AEC76F012000101005126
:10ECA80001010203F3CF04F1F4CF05F10101005192
:10ECB80001010303F350010105270101015101017D
:10ECC8000203F3500101052704C100F105C101F158
:10ECD800120012000001605100016203F3CF64F0DA
:10ECE800F4CF65F00001605100016303F3500001A7
:10ECF80065270001615100016203F3500001652797
:10ED080064C060F065C061F0120012000101036F79
:10ED180089940101035154EC78F0E40E00D000D03E
:10ED2800E82EFCD700D000D00101025154EC78F055
:10ED3800E40E00D000D0E82EFCD700D000D08984A3
:10ED4800120001012C6F01012C510101D8B403D02C
:10ED5800010E516E1200000E516E010E0101276F57
:10ED6800680E266F010E0101286F0F0EA4EC6DF0DE
:10ED780012001200000E01010C6F010EEAEC5BF0AC
:10ED880001010C1F01010D1F01010C4B0D2B3E0E43
:10ED980001010C250101176F000E01010D21010170
:10EDA800186F120012000101006F060E01010061C8
:10EDB80002D0000E03D001010051FB0F0101016FC9
:10EDC800070E0101016503D0070E0101016F010162
:10EDD800015112001200000E0101056F000E010121
:10EDE800066F0BD01C0EB9EC77F00101066F01011C
:10EDF8000651020B0101056F00D001010551010107
:10EE0800D8B4F0D712000101026F000E0101016FA2
:10EE18003A0E0101026108D02F0E0101026504D0EB
:10EE2800010E0101016F00D001C100F101010031A3
:10EE380012001200000E0101276F010E266F010E4D
:10EE48000101286F020EA4EC6DF0000E0101276F7E
:10EE5800010E266F010E0101286F030EA4EC6DF060
:10EE68001200010E0101276F2C0E266F010E010101
:10EE7800286F140EA4EC6DF0010E0101276F2C0E03
:10EE8800266F010E0101286F130EA4EC6DF012001D
:10EE98000001626F000E0001616F3A0E00016261AD
:10EEA80008D02F0E0001626504D0010E0001616FC9
:10EEB80000D061C060F00001603112001200F0EC77
:10EEC80079F0899E200E54EC78F00101075154EC3A
:10EED80078F00101065154EC78F00101055154EC29
:10EEE80078F0898ECCEC79F0120008C100F109C1E4
:10EEF80001F10101026B8E0E0101036F000E010189
:10EF0800046FB0EC59F000C108F101C109F102C168
:10EF18000AF1120012000101006F080E0001D16110
:10EF280012000001D151010D000EF324D96E020E1A
:10EF3800F420DA6E00C1DFFF0001D12B12001200AD
:10EF48000101036F03C100F10101016B240E0101EE
:10EF5800026FD0EC5AF003C100F10101016B240EDD
:10EF68000101026FD0EC5AF012000101046F89947C
:10EF78000101045140090101046F0101045154ECDD
:10EF880078F062EC79F000C103F189840101035142
:10EF9800120012000001646F899400016451400955
:10EFA8000001646F0001645166EC78F07CEC79F044
:10EFB80060C063F0898400016351120012000101EE
:10EFC800026F01010251020D000EF324D96E030EE7
:10EFD800F420DA6EDE50DE10D8A402D0010E120042
:10EFE800000E120012004C2A4C504318D8A41200EC
:10EFF800000E0001CB6F000E0001606F000ED2EC16
:10F0080075F0000E4C6E000E436E12001200948CC8
:10F018001A0EE82EFED700D08B8E949E8B9C949C63
:10F028001A0EE82EFED700D08B9E1A0EE82EFED7B9
:10F0380000D01200020E01010C6F0AC10DF10BC1C4
:10F048000EF10D0E0101066F010E0101076F0CC1D3
:10F0580008F1D0EC6CF01200000E0101036F899EDC
:10F06800050E54EC78F062EC79F0010100510101D1
:10F07800036F898E010103511200120001010F6F05
:10F0880001010F514F18D8B4120001D012000EC15F
:10F0980004F101010F5163EC4AF00FC14FF0120067
:10F0A8000101016FC9CF00F19E96C69E01C1C9FF3B
:10F0B800C6BE120002D0120000D09EB61200FDD7C4
:10F0C800120012000001616FC9CF60F09E96C69EC3
:10F0D80061C0C9FFC6BE120002D0120000D09EB6A1
:10F0E8001200FDD7120012000101036F0001BC518C
:10F0F800D8B41200000E0101016F020E006F03C1A7
:10F1080002F1D0EC5AF012001200DEC220F1200EFB
:10F118000101176F010E0101186F010E0101196F2E
:10F12800010E01011A6F28EC4BF012000101066F65
:10F1380001010651010B0001D56F010106510E0BAB
:10F148000101056F010105510EEC79F01200D08E16
:10F15800F290F28CF196F1920F015A9F0F015A9D8D
:10F168000F015A9B0F015A99F286F190F28E120004
:10F178000001636F0001BC51D8B41200000E0001F9
:10F18800616F020E606F63C062F05DEC5BF01200AD
:10F198001200000162510201CD27000163510201F2
:10F1A800CE23000164510201CF2300016551020101
:10F1B800D02312000101046F0001D651D8A404D055
:10F1C8000001C151D8B412000101045178EC78F063
:10F1D800120012000101006F01010051020D000E22
:10F1E800F324D96E030EF420DA6E000EDE6E000EE4
:10F1F800DD6E12000001646F0001D651D8A404D05E
:10F208000001C151D8B4120000016451BCEC78F07F
:10F21800120012000101046F0201AF51F00B01014D
:10F2280004110201AF6FAFC202F1340E8AEC76F01E
:10F238001200010E0101E06F80EC7AF004C100F1C8
:10F2480005C101F106C102F1DEEC74F01200200ED6
:10F2580087EC58F0400E87EC58F0E7EC79F0EFECCB
:10F2680076F0600E87EC58F0120001010151030B93
:10F27800756E00C174FF7F9C7F9E7F8000F000F058
:10F288007350120012008B9C949C1A0EE82EFED725
:10F2980000D0949E8B8E1A0EE82EFED700D0948C48
:10F2A80012003C0EB9EC77F00101056F010105A1D0
:10F2B80002D0010E1200000E12001200C9CF02F196
:10F2C8009E96000EC96E00D09EA6FED7C9CF00F14B
:10F2D8000101016B12000101006F00C1C8F10101B9
:10F2E80000510101D8A41200010E516E1200120043
:10F2F800C9CF62F09E96000EC96E00D09EA6FED7BA
:10F30800C9CF60F00001616B12000101046F04C1F4
:10F31800B8F004C1B2F2B2C202F13A0E8AEC76F049
:10F3280012000101006F010100510101D8B402D09F
:10F33800939612009386120012000101006F0101DA
:10F3480000510101D8B402D08A8412008A941200B4
:10F3580012008984899262EC79F000C103F18982F4
:10F3680001010351120012000101026F8984899280
:10F378000101025154EC78F0898212005228D8B465
:10F3880002D0522A02D0000E526E525012001200C1
:10F3980000D030EC78F00101046F010104B1F9D715
:10F3A800120000D030EC78F00101046F010104A3D1
:10F3B800F9D712000101496F48C12CF101014951E7
:10F3C800D8EC25F01200070E0101046F04C102F108
:10F3D8001C0E8AEC76F01200899E060E54EC78F02A
:10F3E800898ED5EC79F0120000C1C9F201C1CAF2C8
:10F3F8000201CB6BCC6B120008EC7AF000C102F171
:10F4080001C103F112001200D80E0101006F000EB5
:10F418000101016F1200120002C100F103C101F1E4
:10F4280039EC79F0120012000801FFFF3C010101DC
:10F438000119FFFFFFFF0101066F0101065126ECCC
:10F448007AF012000101056F0101055189EC79F08C
:10F458001200C2A202D0010E1200000E1200120009
:10F46800070E0101016F006912001200280ECEEC90
:10F4780077F0F4EC65F012000201AF510E0B1200A8
:10F4880012000101006F00C1EFF112000101006FCD
:10F4980000C146F01200B6C100F1B7C101F1120077
:10F4A800D39ED18E030004001200B6C160F0B7C12C
:10F4B80061F0120077C0B6F178C0B7F1120001030D
:10F4C800FF01FF00C20100000101EF51120012000C
:10F4D8000001B8511200120078EC7AF01200120004
:10F4E8000001C851120012000001C251120012009E
:10F4F8000101C8511200120000D07FB2FED71200DD
:10F508000201D551120012000001C8511200120068
:10F518000001C25112001200FA0E12001200000E71
:0EF5280012001200C282120002031200120032
:10FE68000001000A006400E80310270001020304EF
:10FE78000506000100100000010010656D4472695C
:10FE88007665415A342C322E3231342C312E3331AE
:10FE98002C322C312C302C303030303030302C009B
:10FEA8003C453E4E6F7420416C6C6F7765642074DE
:10FEB8006F2073656E643C2F453E004D6173743A44
:10FEC80020307825303258253032582530325825A0
:10FED800303258200049443A2030782530325825AD
:10FEE800303258253032582530325820003C453EB3
:10FEF80073746279207768696C6520696E743C2F29
:10FF0800453E003C453E476F696E6720746F20543C
:10FF180058313C2F453E003C453E5265637620589B
:10FF28003220444154413C2F453E004669726D776A
:10FF38006172653A2076322E32313420003C453EDB
:10FF4800526563762058322042433C2F453E003CA0
:10FF5800543E476574526566726573683C2F543E1B
:10FF6800003031323334353637383941424344452D
:10FF7800460047726F75703A203078253032582025
:10FF8800003C543E526566726573683C2F543E00CF
:10FF98004E6F64653A203078253032582000436F20
:10FFA800723A202530325820004261743A202530B8
:10FFB8003458200053533A202530325820005070CE
:10FFC800723A2025692000547970653A20003C2F48
:10FFD80044413E003C2F55413E0057445253540083
:10FFE8003C44413E003C55413E0025632000424FC1
:08FFF8005200504F52000000BE
:020000040020DA
:08000000FFFFFFFFFFFFFFFF00
:020000040030CA
:0E0000001D981B36FF8980FF0FC00FE00F40D8
:00000001FF
