:040000000EEF00F00F
:0400080004EF04F00D
:100018000CEF04F086EF03F0000E276E000E036E5F
:10002800000E046E020E056E000E066E010E076EBF
:10003800000E086E000E096E000E0A6E270E0B6E7B
:10004800000E0C6E19EC02F02704D8A42FD1FF0E75
:100058001F6E000E206E000E216E000E226E000E26
:10006800236E000E246E000E256E000E266E000E06
:10007800036EF80E046E000E056E000E066E040E7A
:10008800076E000E086E000E096E000E0A6E1F0E37
:100098000B6E000E0C6E19EC02F0040E036EF80ED7
:1000A800046E000E056E000E066E040E076E000E3E
:1000B800086E000E096E000E0A6E230E0B6E000EFF
:1000C8000C6E19EC02F0000E306E000E286E080E51
:1000D800296E000E2A6E000E2B6E2B5067E12A0443
:1000E800D8B064D001D062D03050010D1B0EF3247B
:1000F800D96E000EF420DA6E000E2824036EF80E76
:100108002920046EFF0E2A20056EFF0E2B20066E96
:1001180036EC03F0DF6E3050010D1B0EF324D96E60
:10012800000EF420DA6EDF50166E16C017F0186A4B
:10013800196A1A6A1750235E1850245A1950255AFA
:100148001A50265A020E306421D030C016F0FD0E27
:100158001626030E1616D8A419D0FD0E166EFF0E1D
:10016800176E3050010D1650F3261750F4221B0E4F
:10017800F324D96E000EF420DA6EDE501F1ADE501A
:10018800201ADE50211ADD50221A00D0302A040E1F
:100198003018D8A402D0000E306E0400010E2826B4
:1001A800000E29222A222B2298D700D01F50201077
:1001B80021102210D8A47AD02350241025102610FC
:1001C800D8A474D0000E016E080E026E000E036EE5
:1001D800000E046EFF0E056EFF0E066E000E076E13
:1001E800000E086EDEEC01F0000E2C6E080E2D6E6F
:1001F800000E2E6E000E2F6E2F5055E12E04D8B033
:1002080052D001D050D0000E2C24036EF80E2D20B1
:10021800046EFF0E2E20056EFF0E2F20066E040EB4
:10022800076E000E086E000E096E000E0A6E1B0E99
:100238000B6E000E0C6E19EC02F02CC001F02DC0F4
:1002480002F02EC003F02FC004F0000E066E040E5C
:10025800056E1B0E076E000E086E5DEC01F00400C3
:100268002CC001F02DC002F02EC003F02FC004F006
:10027800290E056E000E066E000E076E000E086E43
:1002880053EC02F00150021003100410D8A403D05C
:100298006EEC03F000D0040E2C26000E2D222E2228
:1002A8002F22AAD700D0010E120000D0000E120093
:1002B8001200000E0D6E000E0E6E01C012F002C08C
:1002C80013F003C014F004C015F0060E096ED890A0
:1002D8000432033202320132092EF9D7060ED890C1
:1002E8000136023603360436E82EF9D7400E0126C9
:1002F800000E0222032204221250000801240D6E6F
:1003080054D012C00FF013C010F014C011F01FD059
:1003180007C0D9FF08C0DAFFDF500FC0F6FF10C0D2
:10032800F7FF11C0F8FFF56E0C00074A082A010E06
:100338000F26000E1022000E11220506D8A0060670
:1003480005500610D8B407D002D005D000D00D064D
:100358000D28D8A4DDD70FC00AF010C00BF011C0CB
:100368000CF012C00FF013C010F014C011F07F8E03
:100378007F9C7F84F2AE03D0F29E010E0E6E550E66
:100388007E6EAA0E7E6E7F827F940E50D8B403D004
:10039800F28E000E0E6E400E0D6E0A50126E0B504D
:1003A800136E0C50146E156A00D005500610D8A4B0
:1003B800A8D71200000E096E01C00AF002C00BF0A7
:1003C80003C00CF004C00DF025D00CC0F8FF0BC022
:1003D800F7FF0AC0F6FF7F8E7F9C7F847F88F2AE8E
:1003E80003D0F29E010E096E550E7E6EAA0E7E6E29
:1003F8007F820950D8B402D0F28E00D0400E0A2471
:100408000A6E000E0B200B6E000E0C200C6E000EF8
:100418000D200D6E05500A5C06500B5807500C58FD
:1004280008500D58D8A0D1D71200000E0D6E000E3E
:100438000E6E000E0F6E000E106E899E030E5DECA0
:1004480003F005505DEC03F004505DEC03F003503D
:100458005DEC03F0000E0D6E000E0E6E000E0F6EBA
:10046800000E106E10D00D500B24D96E0E500C20BB
:10047800DA6E7BEC03F0DF6E010E0D26000E0E2205
:100488000F22102200D007500D5C08500E5809505A
:100498000F580A501058D8A0E6D7898E1200055078
:1004A800061007100810D8B429D0010E096E07D01D
:1004B800D8900536063607360836092A00D008BE11
:1004C80002D0F6D700D00550015C065002580750FC
:1004D800035808500458D8A009D00550015E0650AA
:1004E800025A0750035A0850045A00D0D8900832CC
:1004F800073206320532092EE6D700D001C001F0D6
:1005080002C002F003C003F004C004F01200036E3E
:100518003F0EC716000EC66E0350C6120250C71211
:1005280005D0C78C15D0C78CC68812D00150000AD8
:10053800D8B4F7D7020AD8B4F6D7010AD8B4F4D792
:1005480007D09486928A0CD094860AD0949608D0C4
:100558000350040AD8B4F5D7010AD8B4F5D7F6D7AA
:100568009488949AC68A1200E3EC02F0000E016E99
:10057800800E026E020E8BEC02F093968A96010EA4
:10058800346E10EC00F000D04CEC03F00009D8A455
:1005980010D093968A86000E026EC80E016E0DEC7E
:1005A80003F09386000E026EC80E016E0DEC03F088
:1005B800F0D79386938600EF04F00EEF00F07C0EE0
:1005C800D36E9B8CD2909B8E200E926EBD0E936E36
:1005D800930E946E860E806E070E816E040E826EE8
:1005E800100E0F015D6F000E0F015C6FF19E0F0181
:1005F8005B810F015B930F015B950F015B970F0107
:100608005B990F015B9B0F015B9D0F015B9FD18085
:1006180012000FD0D00E036ECA0EE82EFED7032E9E
:10062800FCD7F60E0124016EFF0E0220026E0400B4
:1006380000D00250EFE10B0E015CD8A00ED0EAD733
:100648000CD0150E036EC60EE82EFED7032EFCD76F
:1006580000D00106D8A00206040001500210D8A458
:10066800F0D71200000E076E899E030E5DEC03F0B2
:1006780005505DEC03F004505DEC03F003505DECB5
:1006880003F07BEC03F0076E898E0750120012000E
:10069800000EF86E080EF76E000EF66E0800F5CF25
:1006A80001F00128D8A402D0000E1200010E120099
:1006B8001200026EC9CF01F09E96C69E02C0C9FF05
:1006C800C6BE120002D0120000D09EB61200FDD79E
:1006D800120012003450D8B404D09386000E346E41
:1006E800120093968A86010E346E12001200C9CF4A
:1006F80001F09E96000EC96E00D09EA6FED7C95086
:1007080012001200346A336A326A316A000EF86ED7
:060718000001B8EF02F041
:04080000EBEF04F026
:10080800FACF1CF0FBCF1DF0E9CF1EF015EF67F013
:10081800D8CF8FF0E8CF90F0E0CF91F0FACF92F0F8
:10082800FBCF93F0E9CF94F0EACF95F0E1CF96F0C3
:10083800E2CF97F0D9CF98F0DACF99F0F3CF9AF0CA
:10084800F4CF9BF0F6CF9CF0F7CF9DF0F8CF9EF059
:10085800F5CF9FF090D0000E0001A16FF2A08FD0CD
:1008680081CFA0F000F0F2900001A0A984D0600E22
:100878000001B619D8A466D00001CF51D8A43AD047
:100888000001CB51D8A436D0C2EC78F00101F26F48
:10089800040E00016C6F010E17EC5BF06CC077F072
:1008A8006DC078F098EC78F0D3B606D001D004D0BB
:1008B800010E0101D36F00D074EC78F093EC78F05E
:1008C8000001A251000160270001A351000161232A
:1008D800000160C062F0000161C063F00001646B58
:1008E800656BF6EC76F0010E0101BE6F010E00019A
:1008F800CF6F41D00001CB51D8B409D00B0E000105
:100908006C6FFF0E00016D6F9AEC33F034D0C6ECBB
:1009180078F00009D8B409D0450E00016C6FFF0EBD
:1009280000016D6F9AEC33F009D01F0E00016C6F57
:10093800FF0E00016D6F9AEC33F000D0010E01013B
:10094800BF6F19D0800E0001B619D8A406D0010EC9
:100958000101C06F20EC76F00ED0200E0001B61910
:10096800D8A409D0F50E00016C6FFE0E00016D6F62
:100978009AEC33F000D0010E0001A16F00D0000105
:10098800A1510001D8A467D79FC0F5FF9EC0F8FF0A
:100998009DC0F7FF9CC0F6FF9BC0F4FF9AC0F3FF11
:1009A80099C0DAFF98C0D9FF97C0E2FF96C0E1FF6F
:1009B80095C0EAFF94C0E9FF93C0FBFF92C0FAFF1D
:1009C80091C0E0FF90C0E8FF8FC0D8FF100001EF92
:1009D80056F0000ED0B6010E0101F56F000ED0B230
:1009E800010E0201F96F000ED0B0010E0201F86F7E
:1009F800D0CFFAF21DEC4AF0030E0101016FE80EA8
:100A0800006F92EC70F0030E0101016FF00E006FA1
:100A180072EC77F00101D76F0101D729D8B404D05F
:100A2800010E0101C66F00D022EC5CF006D08A945A
:100A380093868EEC78F022EC5CF00DC1AAF00EC122
:100A4800ABF000D00001ABBFF2D73E0E0001AA5DAB
:100A5800080E0001AB59D8A0EAD731EC73F0360E76
:100A68000101016FB00E006F92EC70F00101C651E8
:100A78000101D8A40ED00001ABBF0BD0870E000136
:100A8800AA5D0B0E0001AB59D8A003D037EC64F077
:100A980000D0000E0101006F000E0101016F020E6F
:100AA800C6EC70F0040000EC3AF00400E5C200F176
:100AB8000101016B32EC78F0D4EC76F0010E000104
:100AC800C16F0101F5510101D8A413D0E20E010153
:100AD800126FFF0E0101136F36EC31F0000E0101A9
:100AE800016F040E006F060E0101026F77EC59F0DA
:100AF8002CD00201F9510201D8B418D00201F851E2
:100B08000201D8A413D0F60E0101126FFF0E0101E5
:100B1800136F36EC31F0000E0101016F040E006F07
:100B2800070E0101026F77EC59F00FD00201F9515D
:100B38000201D8A40AD0FA0E0101126FFF0E0101BA
:100B4800136F36EC31F0D08200D0000EBAEC68F0AA
:100B5800CF0E0101126FFF0E0101136F36EC31F059
:100B6800830E0101126FFE0E0101136F36EC31F096
:100B7800F20E0101126FFF0E0101136F300E010119
:100B8800C9250101146F0101156B000E152336EC00
:100B980031F0B10E0101126FFF0E0101136FAAC0EF
:100BA80014F1ABC015F136EC31F0DD0E0101126F16
:100BB800FE0E0101136FE2C214F10101156BE3C2CD
:100BC80016F10101176BE4C218F10101196BE5C2B6
:100BD8001AF101011B6B36EC31F0C30E0101126FE3
:100BE800FE0E0101136FF9C114F10101156BFAC171
:100BF80016F10101176BFBC118F10101196BFCC15A
:100C08001AF101011B6B36EC31F0980E0101126FDD
:100C1800FF0E0101136FA6EC78F00301F06F0301DA
:100C2800F0510101146F156B36EC31F07A0E0101A9
:100C3800126FFF0E0101136FCCC014F10101156B87
:100C480036EC31F0330E0101126FFF0E0101136F04
:100C580036EC31F0A60E0101126FFF0E0101136F81
:100C6800D7C114F10101156B36EC31F0C60E010144
:100C7800126FFF0E0101136F81BA02D0010E01D06D
:100C8800000E0101146F156B36EC31F0E20E010114
:100C98000F6F020E0101106F76EC73F066EC3EF0F8
:100CA80047EC75F0000E0101276F1E0E266F010E2E
:100CB8000101286F040E48EC6CF0000E0401FA6F75
:100CC800000E0101066F000E076F020E086F000E7E
:100CD800096F010E01010A6F000E0B6F000E0C6FF9
:100CE800000E0D6FFA0E01010E6F040E01010F6F59
:100CF800FFEC69F00401FA05D8A41ED0000E040127
:100D0800FA6F000E0101056F000E066F020E076FE5
:100D1800000E086FFA0E0101096F040E01010A6F37
:100D2800010E01010B6F000E0C6F000E0D6F000E0F
:100D38000E6FE4EC6AF000D0E20E0101066F020EBD
:100D48000101076FE10E0101086F010E0101096F32
:100D5800040E01010A6F89EC71F00009D8B403D0C0
:100D68000400FED700D05EEC75F0000E0001C16FE4
:100D780000D00101D9510101D8A41DEF0CF0000EDB
:100D8800FDEC73F00101DF510101D8B402D0FF007E
:100D980000D0000E0101E06F04000101BD51D8B47C
:100DA80085D00001B651D8B41CD0E7EC74F017C157
:100DB8005AF218C15BF202015B510CE11F0E0201ED
:100DC8005A5DD8B007D0000E01014A6F010E55ECEC
:100DD80019F007D0000E01014A6F000E55EC19F00A
:100DE80000D00101F6510101D8B426D0F90E010155
:100DF8000B6F010E01010C6FEB0E01010D6F040E5C
:100E080001010E6FCBEC40F00301F06F1F0E0301E0
:100E1800F06112D0F90E0101186F010E0101196F6E
:100E2800000E01011A6F81EC6FF00009D8B404D0EC
:100E3800000E0101F66F00D0000E0101BD6F3E0EDD
:100E48000FEC38F0E90E0101006F010E0101016F8E
:100E580012EC4DF0CCEC4DF0B6EC78F00009D8B4BB
:100E680025D00101F4510101D8B420D0010E0001B0
:100E7800C16FBC0E0101126FFF0E0101136F3AEC36
:100E880078F002C1D9FF03C1DAFFDF500301F06F28
:100E98000301F0510101146F156B36EC31F0000EAF
:100EA8000001C16F000E0101F46F00D0E7EC74F08F
:100EB80017C15AF218C15BF202015B5105E1070E36
:100EC80002015A5DD8A02AD002015B5127E11F0E0A
:100ED80002015A5DD8B022D00101D551D8B41ED034
:100EE800F10E01010E6F040E01010F6F920E010148
:100EF800106F030E0101116FC1C112F1000E010143
:100F0800136F010E0101146F000E0101156F86ECBD
:100F180044F000D0000E0101D56F00D00101BF518F
:100F2800D8B409D0000E0101BF6F200E99EC56F01D
:100F3800600E99EC56F00001CF51D8B43AD089EC44
:100F480078F000C117F101C118F1040E01010C6F0E
:100F5800010E91EC5AF00CC119F10DC11AF16EECA9
:100F680078F0010100C11BF1010101C11CF101016F
:100F78001D6B1E6BF9EC60F017C1EFF418C1F0F4AB
:100F88004B0E0401EF5D010E0401F059D8A011D0F9
:100F98000101BE51D8B40AD00001CB51D8A406D063
:100FA80002EC6CF0000E0101BE6F00D02AEC71F06B
:100FB80000D0170E01010E6F030E01010F6FEC0E2A
:100FC8000101106F010E0101116FB8EC42F0000928
:100FD800D8B452D0170E01012C6F030E01012D6FEA
:100FE800ECC12EF1D3C12FF1F2C130F171EC2BF02D
:100FF8000009D8B43AD01A0E01010E6F030E010190
:101008000F6FB10E0101106F020E0101116FF80E82
:101018000101126F040E0101136F2CEC6BF0000933
:10102800D8B423D00B0E0401F76FB10E01018B6FFA
:10103800020E01018C6F0401F751010D170EF32404
:1010480001018D6F030EF42001018E6F0401F75129
:1010580000080101EC2501018F6FF8C490F1000E22
:101068000101916FF9EC12F000D0000E0001CF6F72
:10107800000E0101D36F00D0030E0101E919D8A4B5
:1010880014D0030E0101EA19D8A40FD0000E0101F3
:10109800E96F000E0101EA6F030E0101006F010EF6
:1010A800D5EC78F002016B8944D0020E0101EA19EF
:1010B800D8A40CD0000E0101EA6F020E0101006FE6
:1010C800010ED5EC78F002016B8733D00101EA05F7
:1010D800D8A40CD0000E0101EA6F010E0101006FC7
:1010E800010ED5EC78F002016B8523D0020E0101C8
:1010F800E919D8A40ED0000E0101E96F29EC5EF0C1
:10110800020E0101006F000ED5EC78F002016B832E
:1011180010D00101E905D8A40CD0000E0101E96F37
:10112800010E0101006F000ED5EC78F002016B8111
:1011380000D00101C051D8B42BD0000E0101C06FFE
:10114800800E0001B619D8A411D00101D8510101AF
:10115800D8A405D00101D9510101D8B407D0000E97
:1011680099EC56F0000E0101D86F10D0800E0001E6
:10117800B619D8A40BD00001CB51D8A407D0200EA3
:1011880099EC56F0600E99EC56F000D0040000D0AF
:10119800000E0101016F010E006FEE0E0101026FDA
:1011A800010E0101036F5CEC51F00009D8B408D0BE
:1011B800EEC100F1010ECDEC78F00101BC6F07D053
:1011C8000101D051D8B403D00101D00700D00101EA
:1011D800BC51D8B46BD104012851C00B0401FB6F7A
:1011E8000401FB45E846030B0401FB6FED0E01010A
:1011F800126FFF0E0101136F36EC31F00401FB5141
:101208000401D8A409D1000E0101C26FB6EC78F030
:101218000009D8B43FD1270E0101006F040E010167
:10122800016F020E0101026FE10E0101036F010E51
:101238000101046F000E0101056F040E0101066F24
:10124800DAEC6DF00009D8B4BDD00A0E0101C16F07
:10125800E5C192F3E6C193F3E7C194F3E8C195F3CE
:101268001D0E0301966F2B0E0301976F29C498F387
:101278002AC499F32BC49AF32CC49BF3010E0001E2
:10128800C16F0101EC51FA0F0101EC6F000E010171
:10129800016F020E006F240E0101026F77EC59F006
:1012A800000E0101016F020E006F240E0101026F92
:1012B80077EC59F0000E0101016F020E006F010179
:1012C800EC51040F0101026F77EC59F0000E010197
:1012D800016F020E006F000E0101026F77EC59F0EA
:1012E800000E0401F56F000E0401F96F22D0000E04
:1012F8000101016F020E006F0401F951010D920EF8
:10130800F324D96E030EF420DA6EDF500101026F68
:1013180077EC59F00401F951010D920EF324D96EBE
:10132800030EF420DA6EDF500401F51B0401F92BDB
:1013380000D0FF0E0301F06FFF0E0301F16F0101F2
:10134800C1510301F26FF36B0301F0510301F2275E
:101358000301F1510301F3230401F9510301F46F6F
:10136800F56B0301F2510301F45D0301F551800AA5
:101378000301F66F0301F351800A0301F659D8A05F
:10138800B6D7000E0101016F020E006FF5C402F11D
:1013980077EC59F0000E0101016F020E006F0D0E7F
:1013A8000101026F77EC59F0000E0101016F020E86
:1013B800006F0A0E0101026F77EC59F0000E000170
:1013C800C16F68D00101EB51F80F0101C16F020E26
:1013D8000301926F270E0101006F040E0101016FD6
:1013E800060E0101026F920E0101036F030E010147
:1013F800046F010E0101056FC1C106F19AEC6AF094
:1014080029C4F1F42AC4F2F42BC4F3F42CC4F4F480
:10141800010E0101D56F3ED0020E0401FB19D8A4BC
:1014280039D0020E0101C26FB6EC78F00009D8B4C9
:1014380031D0290E01010E6F040E01010F6FE70E66
:101448000101106F040E0101116FF60E0101126FF8
:10145800040E0101136F2CEC6BF00009D8B41AD0FC
:101468002D0E01018B6F040E01018C6F310E0101ED
:101478008D6F040E01018E6F0101EB51F30F010115
:101488008F6F280E0101906F010E0101916FF9EC29
:1014980012F000D0000E0101BC6FDC0E0101126FCA
:1014A800FF0E0101136F36EC31F000D0010EDCECB9
:1014B80073F00009D8B417D0050E0101276FA00EEC
:1014C800266F020E0101286F0C0E48EC6CF00D0E11
:1014D80027EC77F00101D8510101D8B404D0000EEF
:1014E8000101D86F00D00A0EDCEC73F00009D8B403
:1014F80020D0F90E0101066F010E0101076FE10E00
:101508000101086F010E0101096F040E01010A6F44
:1015180089EC71F00009D8A40CD0F90E0101186FFC
:10152800010E0101196F000E01011A6F36EC46F029
:1015380000D00B0EDCEC73F00009D8B415D0000E07
:1015480002014B6F000E4A6F000E02014D6F000E34
:101558004C6F000E0201636F000E626F000E0201F5
:10156800656F000E646F00D0000EDCEC73F00009AC
:10157800D8B404D0000E02016B6F00D00B0E0CEC37
:1015880076F00009D8B40BD0050E0101276FA00E24
:10159800266F020E0101286F0B0E48EC6CF00A0E44
:1015A8000CEC76F000D00201435105E10B0E02016C
:1015B800425DD8A00CD0070EA8EC5DF0000E80ECC0
:1015C80077F0000E0201436F000E426F00D0010158
:1015D800C551D8B40AD0000E01010D6F240E0C6F4E
:1015E800F6EC64F00101C50700D0000E0201786F27
:1015F8000C0E0CEC76F00009D8B40CD0050E0101E5
:10160800276FA00E266F020E0101286F0C0E48EC02
:101618006CF000D00101D451D8B41ED0050E0101E0
:10162800276FA00E266F020E0101286F0C0E48ECE2
:101638006CF0000E0101D46F0001B651D8B40CD083
:101648000101C4510101D8A407D0000E0101D86FCF
:101658000D0E27EC77F000D00C0EDCEC73F00009CF
:10166800D8B40BD0040E0101276FB00E266F010EFF
:101678000101286F0D0E48EC6CF00D0EDCEC73F0D8
:101688000009D8B40BD0020E0101276F580E266F3F
:10169800010E0101286F0C0E48EC6CF0110EDCEC09
:1016A80073F00009D8B406D0010E0101DB6F6BECB2
:1016B8002EF000D0100EDCEC73F00009D8B41DD069
:1016C800B6EC78F00009D8A418D00101F75101014F
:1016D800D8B404D056EC6EF0000E0CD0F90E01010F
:1016E800186F010E0101196F010E01011A6F36EC16
:1016F80046F0010E0101F76F00D0100E0CEC76F0E9
:101708000009D8B40CD0000E0101276F1E0E266FF9
:10171800010E0101286F100E48EC6CF000D000019A
:10172800ABBF08D03E0E0001AA5D080E0001AB5900
:10173800D8B00BD00101C4510101D8B452D0000176
:10174800B651D8B455D04DD053D00101C451010180
:10175800D8B410D00101C4510101D8B439D0000166
:10176800ABBF36D07D0E0001AA5D080E0001AB5953
:10177800D8A02ED0000E0101C46F010EF0EC6FF05E
:101788000101005101010111D8B404D00CD030D0AE
:1017980010D02ED00D0EF0EC6FF0010100510101B8
:1017A8000111D8B40DD00001B651D8B421D001D060
:1017B8001FD00101D8510101D8A41AD015D018D0D2
:1017C8000001B651D8A414D0000EBAEC68F010D0BD
:1017D8000101C4510101D8B40BD00001B651D8B4ED
:1017E80007D0010E0101C46F010E0101D86F00D0AE
:1017F800040E01010C6F000ED5EC61F00CC140F233
:101808000DC141F20201405102014C5D02014151FA
:1018180002014D59D8B009D00101E051D8A405D032
:1018280040C24CF241C24DF200D0DFEC71F0BDEF86
:1018380006F0D4EC78F00009D8B4BDEF06F08EECD1
:1018480078F0010E0101DF6FBDEF06F0EBEF04F059
:101858002DC121F12EC122F134C123F131C106F18C
:1018680032C107F133C108F1C4EC57F00101246F0C
:10187800000E0101256F04EC3DF00101576F2DC1E9
:1018880006F12EC107F12FC108F130C109F1040E8C
:1018980001010A6F56EC72F0010135510101D8A41B
:1018A80010D02DC106F12EC107F1EA0E0101086F13
:1018B800020E0101096F040E01010A6F56EC72F065
:1018C80000D0010E01013365F6EF12F031C1D9FFE6
:1018D80032C1DAFFDE04D8A466D1050E01013365F2
:1018E80062D1F90E010133250101006F0101016B7D
:1018F800FF0E0123000E0101036F050E026FB0EC0D
:1019080065F00101005101010111D8A44CD1FF0E6D
:101918000101366FFF0E0101376F010133510101DB
:10192800386F396B010136510101382701013751F0
:10193800010139230101385101013125D96E010115
:10194800395101013221DA6E0001CC51DE18D8B4C8
:1019580024D0FF0E0101366FFF0E0101376F010120
:1019680033510101386F396B0101365101013827B4
:101978000101375101013923010138510101312594
:10198800D96E0101395101013221DA6EDE28D8A45D
:10199800F6EF12F002D0F6EF12F0000E0101596FC7
:1019A800010E586FE7D0050E010158250101366F69
:1019B800000E010159210101376F01013351010165
:1019C800386F396B010136510101385D0101395118
:1019D800800A01013A6F01013751800A01013A5921
:1019E800D8A082D0010159BF7FD00101595105E12A
:1019F800060E0101585DD8A077D031C100F132C17F
:101A080001F158C102F1400E0101036F010E0101FD
:101A1800046F000E0101056F040E0101066F9AECB8
:101A28006AF0040E010158250101366F000E01010C
:101A380059210101376F0101365101013125D96E54
:101A48000101375101013221DA6EDF500101386F8F
:101A5800050E0101396F0101D89038330101392F82
:101A6800FAD701013851070B01014C6F040E01012F
:101A780058250101366F000E010159210101376F08
:101A88000101365101013125D96E0101375101019A
:101A98003221DA6EDF501F0B0101546F1E0E010157
:101AA800546506D0000E01014F6F1F0E4E6F0AD00D
:101AB800010E0101542501014E6F01014F6B000E0B
:101AC8004F2300D0400E0101156F010E0101166F62
:101AD80057C117F14EC118F14CC119F1000E01019F
:101AE8001A6FBBEC1DF03CD00101580501015911DA
:101AF800D8A436D031C100F132C101F1010E010183
:101B0800026FE50E0101036F010E0101046F000E63
:101B18000101056F040E0101066FDAEC6DF0000992
:101B2800D8B41ED02DC10EF12EC10FF1040E010143
:101B380058250101366F000E010159210101376F47
:101B48000101365101013125D96E010137510101D9
:101B58003221DA6EDF500101106F15EC68F000D009
:101B6800050E010158250101586F000E0101592188
:101B78000101596F010133510101366F376B0101C2
:101B880036510101585D01015951800A0101386F30
:101B980001013751800A01013859D8B0F6EF12F027
:101BA80002D7F6EF12F031C1D9FF32C1DAFF020EC7
:101BB800DE18D8A423D0010120EE02F03151D92635
:101BC8003251DA22DE5002018419D8A4F6EF12F05D
:101BD800000E02017B6F000E0201AE6F020E0201C1
:101BE800AF6F000E0101DA6F510E01013461F6EF9B
:101BF80012F0010E0201736FF6EF12F031C1D9FF36
:101C080032C1DAFF020EDF64F6EF12F00B0E0101AB
:101C18003365F6EF12F0010E0101D46F000EB1EC3E
:101C280074F0010120EE02F03151D9263251DA2246
:101C3800DE5002018419D8A40AD0000E02017B6F7D
:101C4800000E0201AE6F020E0201AF6F00D001015B
:101C580020EE01F03151D9263251DA22DE5002014C
:101C68008419D8A498D17C0E0101006F020E0101DD
:101C7800016F000E0101026F31C103F132C104F19D
:101C8800030E0101056F040E0101066FDAEC6DF019
:101C98000009D8B480D1010120EE01F03151D926D4
:101CA8003251DA22DF500101BA6F010E0001BC6F18
:101CB8002DC106F12EC107F1DE0E0101086F020EDB
:101CC8000101096F040E01010A6F56EC72F001015F
:101CD80020EE07F03151D9263251DA220101E551BF
:101CE800DE18D8A424D0010120EE08F03151D926FD
:101CF8003251DA220101E651DE18D8A418D00101C8
:101D080020EE09F03151D9263251DA220101E7518A
:101D1800DE18D8A40CD0010120EE0AF03151D926E2
:101D28003251DA220101E851DE18D8B434D131C178
:101D3800D9FF32C1DAFF040EDE18D8B429D101D098
:101D480027D131C100F132C101F1030E0101026F47
:101D5800E50E0101036F010E0101046F000E010180
:101D6800056F040E0101066FDAEC6DF00009D8A4C6
:101D78000FD101D00DD1010120EE0BF03151D92640
:101D88003251DA220201B051DE5CD8B003D0000E25
:101D98001200FED0C1C250F1C2C251F1C3C252F109
:101DA800C4C253F131C100F132C101F1070E010182
:101DB800026F440E0101036F010E0101046F000E52
:101DC8000101056F040E0101066F9AEC6AF0440EDA
:101DD80001010B6F010E01010C6F500E01010D6F17
:101DE800010E01010E6FCBEC40F001014D6F0101B6
:101DF8005569500E0101066F010E0101076FE10ED2
:101E08000101086F010E0101096F040E01010A6F3B
:101E180089EC71F00009D8A40AD0500E01010E6FA8
:101E2800010E01010F6F18EC6EF00101556F7C0E69
:101E38000101066F020E0101076FE60E0101086F2E
:101E4800020E0101096F040E01010A6F56EC72F0CF
:101E580084C2DDF2FCEC77F00201846F040E02010B
:101E6800856F060E02017B6F000E0201AE6F020E37
:101E78000201AF6F31C100F132C101F1030E01015E
:101E8800026F800E0101036F020E0101046F000E44
:101E98000101056F040E0101066F9AEC6AF0E50E68
:101EA8000101066F010E0101076F7C0E0101086F29
:101EB800020E0101096F040E01010A6F56EC72F05F
:101EC800000E0201B06F1D0E0201866F2B0E02017B
:101ED800876F440E0101006F010E0101016F000EB2
:101EE8000101026F860E0101036F020E0101046FEA
:101EF800020E0101056F040E0101066F9AEC6AF0EB
:101F0800500E0101006F010E0101016F000E010169
:101F1800026F860E0101036F020E0101046F060EA7
:101F28000101056F040E0101066F9AEC6AF02DC1DC
:101F380000F12EC101F1000E0101026F860E0101B0
:101F4800036F020E0101046F0A0E0101056F040EF2
:101F58000101066F9AEC6AF04DC194F255C195F2F1
:101F680001015551060D040EF326000EF422BD0E94
:101F7800F324D96E0A0EF420DA6EDF500F0B02013B
:101F8800966F110E0201AC6F000E0101DA6F00D0DE
:101F9800000E120000D002017B51D8A408D0000125
:101FA800BC51D8A404D00201AD51D8B44ED0800E93
:101FB8000101066F020E0101076F030E01013125B1
:101FC8000101086F000E010132210101096F040EA1
:101FD80001010A6F89EC71F00009D8B433D002010D
:101FE8007B51D8B42FD00001BC51D8A42BD002010A
:101FF800AD51D8A427D0010120EE01F03151D926E6
:102008003251DA220201DD51DE18D8A41ED0E60EC4
:102018000101006F020E0101016F000E0101026F44
:1020280031C103F132C104F1030E0101056F040E41
:102038000101066FDAEC6DF00009D8B406D0000E85
:10204800120003D0000E120000D0010120EE07F0AC
:102058003151D9263251DA220101E551DE18D8A4CE
:1020680024D0010120EE08F03151D9263251DA226C
:102078000101E651DE18D8A418D0010120EE09F0BC
:102088003151D9263251DA220101E751DE18D8A49C
:102098000CD0010120EE0AF03151D9263251DA2252
:1020A8000101E851DE18D8B4D0D0010120EE0BF0C0
:1020B8003151D9263251DA221F0EDE18D8A402D0A7
:1020C800000E12007C0E0101066F020E0101076F5F
:1020D800E60E0101086F020E0101096F040E0101ED
:1020E8000A6F56EC72F084C2DDF2010120EE01F0B5
:1020F8003151D9263251DA22DF500201846F31C1C1
:10210800D9FF32C1DAFFDF500201856F060E0201E6
:102118007B6F000E0201AE6F020E0201AF6F31C17C
:1021280000F132C101F1070E0101026F800E0101B9
:10213800036F020E0101046F000E0101056F040E0A
:102148000101066F9AEC6AF031C100F132C101F168
:10215800030E0101026F7C0E0101036F020E0101E3
:10216800046F000E0101056F040E0101066F9AEC61
:102178006AF0010120EE0BF03151D9263251DA22F2
:10218800DF500101366F010136290201B06F31C1FC
:1021980000F132C101F10C0E0101026F860E01013E
:1021A800036F020E0101046F000E0101056F0101AA
:1021B8003351F40F0101066F9AEC6AF001013351B3
:1021C800F40F0201AC6F000E0101DA6F010120EE7D
:1021D80001F03151D9263251DA22DF500101BA6FAC
:1021E800010E0001BC6F2DC106F12EC107F1DE0EF4
:1021F8000101086F020E0101096F040E01010A6F47
:1022080056EC72F02DC121F12EC122F134C123F117
:10221800010E0101246F010E0101256F04EC3DF050
:102228000101576F7C0E0101156F020E0101166F37
:1022380057C117F1B0C218F1000E0101196F010E54
:1022480001011A6FBBEC1DF0CDD17C0E0101066FA8
:10225800020E0101076FE60E0101086F020E01016F
:10226800096F040E01010A6F56EC72F084C2DDF2A8
:10227800010120EE01F03151D9263251DA22DF5026
:102288000201846F31C1D9FF32C1DAFFDF50020188
:10229800856F000E02017B6F000E0201AE6F020E09
:1022A8000201AF6F31C100F132C101F1070E010126
:1022B800026F800E0101036F020E0101046F000E10
:1022C8000101056F040E0101066F9AEC6AF031C135
:1022D80000F132C101F1030E0101026F7C0E010110
:1022E800036F020E0101046F000E0101056F040E59
:1022F8000101066F9AEC6AF031C100F132C101F1B7
:10230800030E0101026F2FC103F130C104F1000E69
:102318000101056F040E0101066F9AEC6AF00101D4
:1023280020EE0BF03151D9263251DA22DF5001016B
:10233800366F010136290201B06F31C100F132C197
:1023480001F10C0E0101026F860E0101036F020EEE
:102358000101046F000E0101056F01013351F40FF3
:102368000101066F9AEC6AF001013351F40F020182
:10237800AC6F010120EE01F03151D9263251DA2239
:10238800DF500101BA6F010E0001BC6F2DC106F1CB
:102398002EC107F1DE0E0101086F020E0101096F5F
:1023A800040E01010A6F56EC72F0000E0101DA6F9B
:1023B8002DC121F12EC122F134C123F1010E0101F9
:1023C800246F010E0101256F04EC3DF00101576FE8
:1023D8007C0E0101156F020E0101166F57C117F12E
:1023E800B0C218F1000E0101196F010E01011A6F38
:1023F800BBEC1DF0090E02018519D8A405D0020115
:10240800875159EC78F0EED002018639E842070B83
:102418000101566F010156510101D8B41ED00101C6
:10242800C951D8B41AD00D0E010131250101006F30
:10243800000E010132210101016FF30E0101332564
:102448000101026F0101036BFF0E032356C104F162
:102458009CEC5FF0010E1200C5D00101565101013C
:10246800D8A409D00101C951D8A405D0F3D703D005
:10247800F1D71200B7D0020186511F0B0C0AD8B44D
:10248800E9D7020186511F0B1E0AD8A407D0020102
:102498008751D8A403D0DED71200A4D0C5C248F112
:1024A800C6C249F1C7C24AF1C8C24BF131C100F1F5
:1024B80032C101F1070E0101026F3B0E0101036FEA
:1024C800010E0101046F000E0101056F040E0101E8
:1024D800066F9AEC6AF03B0E01010B6F010E0101C9
:1024E8000C6F480E01010D6F010E01010E6FCBEC50
:1024F80040F001013F69480E0101066F010E01011C
:10250800076FE10E0101086F010E0101096F040E4A
:1025180001010A6F89EC71F00009D8A40AD0480EAD
:1025280001010E6F010E01010F6F18EC6EF0010131
:102538003F6F7C0E0101066F020E0101076FE60E68
:102548000101086F020E0101096F040E01010A6FF3
:1025580056EC72F084C2DDF2FCEC77F00201846F75
:10256800040E0201856F060E02017B6F000E020148
:10257800AE6F020E0201AF6F31C100F132C101F13D
:10258800030E0101026F800E0101036F020E0101AB
:10259800046F000E0101056F040E0101066F9AEC2D
:1025A8006AF0E50E0101066F010E0101076F7C0E4E
:1025B8000101086F020E0101096F040E01010A6F83
:1025C80056EC72F0000E0201B06F1D0E0201866F0C
:1025D8002C0E0201876F020E0201AC6F000E010182
:1025E800DA6F00D0000E120012008BC12DF18CC1E1
:1025F8002EF1A40E01012F6F010E0101306F8DC164
:1026080031F18EC132F18FC133F190C134F191C1F2
:1026180035F12CEC0CF00009D8B41200000E0101C1
:10262800A16F010120EE0CF08D51D9268E51DA22CE
:10263800DF501F0B0101A26F0101A8691B0E0101E8
:10264800A2650BD0010120EE0DF08D51D9268E51D7
:10265800DA22DF500101A86F00D0000E01019A6F45
:102668000C0E01018D250101006F000E01018E2164
:102678000101016F020E0101026F0C0E01018D258F
:102688000101036F000E01018E210101046F060E86
:102698000101056F040E0101066FDAEC6DF0000907
:1026A800D8B426D00C0E01018D250101006F000E53
:1026B80001018E210101016F060E0101026F0C0E4E
:1026C80001018D250101036F000E01018E21010119
:1026D800046F0A0E0101056F040E0101066FDAECA2
:1026E8006DF00009D8B404D0010E01019A6F00D032
:1026F8009AC1A9F1000E01019B6F0C0E01018D25F5
:102708000101006F000E01018E210101016F030E0E
:102718000101026F0C0E01018D250101036F000EEE
:1027280001018E210101046F070E0101056F040EDE
:102738000101066FDAEC6DF00009D8B426D00C0E52
:1027480001018D250101006F000E01018E2101019B
:10275800016F070E0101026F0C0E01018D250101A9
:10276800036F000E01018E210101046F0B0E0101A0
:10277800056F040E0101066FDAEC6DF00009D8B49C
:1027880004D0010E01019B6F00D09BC19CF1D6EFD4
:1027980017F0F2EF17F01AD0F2EF17F0190E010147
:1027A8008F19D8A4F2EF17F00D0E01018D25010144
:1027B800186F000E01018E210101196F000E010131
:1027C8001A6F81EC6FF0F2EF17F044D0010E01019F
:1027D800A16FF2EF17F0010120EE0EF08D51D9260E
:1027E8008E51DA22410EDE18D8A4F8D3010120EE6A
:1027F8000FF08D51D9268E51DA22530EDE18D8A447
:10280800EDD3010120EE10F08D51D9268E51DA2238
:10281800460EDE18D8A4E2D3C50E0101066F030EDA
:102828000101076F110E01018D250101086F000ECE
:1028380001018E210101096F0B0E01010A6F89EC5C
:1028480071F00009D8B4CAD3000E0101DB6F6BEC3C
:102858002EF0C4D30101A851030AD8B4B7D7290A66
:10286800D8B4B9D7BBD306D10101A9510101D8B455
:10287800B5D30E0E01018D250101186F000E01015F
:102888008E210101196F000E01011A6F81EC6FF0A2
:10289800A5D301019C510101D8B417D00F0E010135
:1028A8008D250101206F000E01018E210101216F8C
:1028B800010120EE0EF08D51D9268E51DA22DF501B
:1028C8000101226F84EC4EF089D3A40E0101186F28
:1028D800010E0101196F2D0E01011A6F010120EE81
:1028E80001F08D51D9268E51DA22DF5001011B6F7C
:1028F80054EC73F073D301019C510101D8B417D083
:102908000F0E01018D2501010E6F000E01018E21B0
:1029180001010F6F010120EE0EF08D51D9268E5165
:10292800DA22DF500101106F5BEC49F057D3A40E97
:102938000101186F010E0101196F2D0E01011A6FA7
:10294800010120EE01F08D51D9268E51DA22DF5097
:1029580001011B6F54EC73F041D30101A95101012E
:10296800D8A43CD301D03AD3A40E0101186F010EAC
:102978000101196F2D0E01011A6F010120EE01F0FE
:102988008D51D9268E51DA22DF5001011B6F54EC8C
:1029980073F024D30101A9510101D8B41FD30E0E3D
:1029A80001018D250101186F000E01018E21010121
:1029B800196F0EEC73F012D3010120EE0EF08D5159
:1029C800D9268E51DA22520EDE18D8A419D0010168
:1029D80020EE0FF08D51D9268E51DA22530EDE18D3
:1029E800D8A40ED0010120EE10F08D51D9268E51B9
:1029F800DA22490EDE18D8A403D042EC78F0EED2E1
:102A0800A40E0101186F010E0101196F2D0E0101AD
:102A18001A6F010120EE01F08D51D9268E51DA226C
:102A2800DF5001011B6F54EC73F0D8D20101A9519A
:102A38000101D8B4D3D20E0E01018D250101186F02
:102A4800000E01018E210101196FB5EC71F0C6D29B
:102A58000101A9510101D8B4C1D20E0E01018D2581
:102A68000101186F000E01018E210101196F0CEC94
:102A780069F0B4D20101A851000AD8B4F5D6040A05
:102A8800D8B4ACD2240AD8B404D7010AD8B433D7FE
:102A9800030AD8B462D7010AD8B47CD7070AD8B4D5
:102AA8008BD7010AD8B4C2D70B0AD8B4D1D796D2DB
:102AB8005BD20E0E01018D2501012F6F000E010161
:102AC8008E210101306F9FEC3BF0A40E0101186FBD
:102AD800010E0101196F0EEC73F080D28DC100F167
:102AE8008EC101F10E0E0101026FF90E0101036F93
:102AF800010E0101046F000E0101056F040E0101B2
:102B0800066F9AEC6AF00D0E01018D250101186F10
:102B1800000E01018E210101196FB5EC71F05ED232
:102B28008DC100F18EC101F10E0E0101026F8DC140
:102B380003F18EC104F1170E0101056F040E0101A6
:102B4800066FDAEC6DF00009D8B499D08DC100F1A8
:102B58008EC101F1170E0101026F8DC103F18EC103
:102B680004F1200E0101056F040E0101066FDAEC75
:102B78006DF00009D8B483D08DC100F18EC101F188
:102B8800120E0101026F8DC103F18EC104F11B0EFB
:102B98000101056F040E0101066FDAEC6DF0000902
:102BA800D8B46DD08DC100F18EC101F11B0E0101A9
:102BB800026F8DC103F18EC104F1240E0101056F6E
:102BC800040E0101066FDAEC6DF00009D8B457D095
:102BD800010120EE1FF08D51D9268E51DA22010114
:102BE80010EE16F08D51E1268E51E222DE50E618E5
:102BF800D8A445D0010120EE28F08D51D9268E5158
:102C0800DA22010110EE1FF08D51E1268E51E222E9
:102C1800DE50E618D8A433D00E0E01018D2501012F
:102C28002A6F000E01018E2101012B6F120E010186
:102C38008D2501012C6F000E01018E2101012D6FE0
:102C4800010120EE16F08D51D9268E51DA22DF507F
:102C580001012E6F08EC72F0A40E0101186F010E2D
:102C68000101196F0E0E01018D2501011A6F000E69
:102C780001018E2101011B6F58EC4CF0AFD1A40E5D
:102C88000101186F010E0101196F2D0E01011A6F54
:102C9800010120EE01F08D51D9268E51DA22DF5044
:102CA80001011B6F54EC73F099D10E0E01018D25B3
:102CB80001010E6F000E01018E2101010F6F64ECFE
:102CC80066F0A40E0101186F010E0101196F010EC3
:102CD80001011A6F81EC6FF081D1010120EE0EF035
:102CE8008D51D9268E51DA22520EDE18D8A476D10B
:102CF800010120EE0FF08D51D9268E51DA22530EA4
:102D0800DE18D8A46BD1010120EE10F08D51D92620
:102D18008E51DA22540EDE18D8A460D1FF005ED19D
:102D2800010120EE0EF08D51D9268E51DA22530E74
:102D3800DE18D8A453D1010120EE0FF08D51D92609
:102D48008E51DA22460EDE18D8A448D1010120EEB1
:102D580010F08D51D9268E51DA22540EDE18D8A4DF
:102D68003DD1A40E0101186F010E0101196F5DEC30
:102D780069F0010120EE11F08D51D9268E51DA2229
:102D8800DF500001D96F150E0101276F7C0E266FE9
:102D9800000E0101286F110E48EC6CF01FD10101E3
:102DA80020EE0EF08D51D9268E51DA22530EDE1800
:102DB800D8A458D0010120EE0FF08D51D9268E519C
:102DC800DA22520EDE18D8A44DD0010120EE10F000
:102DD8008D51D9268E51DA22460EDE18D8A442D05B
:102DE800010120EE11F08D51D9268E51DA22040E00
:102DF800DF6038D0010120EE11F08D51D9268E51B7
:102E0800DA22DF500101996F010120EE12F08D5195
:102E1800D9268E51DA22DF500101926F01019251B9
:102E280001019E6F9F6B01019E5101019F6F9E6B77
:102E3800010120EE13F08D51D9268E51DA22DF5090
:102E48000101926F0101925101019E27000E9F23FB
:102E58009EC126F19FC127F199C128F1010E48ECC6
:102E68006CF0BCD0A40E0101186F010E0101196F9E
:102E78002D0E01011A6F010120EE01F08D51D926A6
:102E88008E51DA22DF5001011B6F54EC73F0A6D08B
:102E98000101A9510101D8B4A1D0010120EE1BF014
:102EA8008D51D9268E51DA22DF500101926F01012E
:102EB80092510101B56FB66B0101B5510101B66FB1
:102EC800B56B010120EE1AF08D51D9268E51DA2208
:102ED800DF500101926F010192510101B527000EE7
:102EE800B6230101B505090E0101B659D8A006D0CF
:102EF800000E0101B66F000EB56F70D0010120EE13
:102F08001CF08D51D9268E51DA22DF500001D96F7D
:102F18000E0E01018D250101186F000E01018E2191
:102F28000101196F48EC6FF0010120EE1DF08D5181
:102F3800D9268E51DA22DF500101ED6F1E0E0101F4
:102F48008D250101066F000E01018E210101076F19
:102F5800C50E0101086F030E0101096F0B0E010177
:102F68000A6F56EC72F03AD00101A851040AD8B49D
:102F78008FD7270AD8B49DD5060AD8B4AFD5030A87
:102F8800D8B4CED5010AD8B490D60F0AD8B4A5D6ED
:102F9800010AD8B423D0030AD8B4C2D66A0AD8B46E
:102FA800FED61CD00101A251000AD8B417D0020ADB
:102FB800D8B40CD4060AD8B411D0080AD8B4D2EFC1
:102FC80013F0100AD8B40AD0010AD8B443D4030ABB
:102FD800D8B450D5010AD8B4C7D700D00101A1513F
:102FE8000101D8A420D00C0E01018D250101806FAC
:102FF800000E01018E210101816F90C182F1A40EA2
:103008000101836F010E0101846FA2C185F1A8C17E
:1030180086F101018F51F40F0101876FFEEC35F045
:103028000101A16F00D00101A1510101D8B4120022
:10303800E80E0101126FFF0E0101136F36EC31F03B
:103048000101C251D8A423D1010E0001C16F0101B1
:103058008F51FD0F01019D6F000E0101016F020EDE
:10306800006F240E0101026F77EC59F0000E010188
:10307800016F020E006F240E0101026F77EC59F008
:10308800000E0101016F020E006F9DC102F177EC85
:1030980059F0000E0101016F020E006F000E0101D0
:1030A800026F77EC59F0000E0101A06F000E0101CC
:1030B800016F020E006F010120EE03F08D51D92639
:1030C8008E51DA22DF500101026F77EC59F00101CD
:1030D80020EE03F08D51D9268E51DA22DF500101FE
:1030E800A01B000E0101016F020E006F010120EE0E
:1030F80004F08D51D9268E51DA22DF500101026F7A
:1031080077EC59F0010120EE04F08D51D9268E514B
:10311800DA22DF500101A01B000E0101016F020E2F
:10312800006F010120EE05F08D51D9268E51DA226B
:10313800DF500101026F77EC59F0010120EE05F034
:103148008D51D9268E51DA22DF500101A01B000EC5
:103158000101016F020E006F010120EE06F08D5192
:10316800D9268E51DA22DF500101026F77EC59F02F
:10317800010120EE06F08D51D9268E51DA22DF505A
:103188000101A01B000E0101A36F38D0000E010140
:10319800016F020E006F0101A3510101926F936B41
:1031A8000C0E01019227000E932301019251010197
:1031B8008D25D96E0101935101018E21DA6EDF5000
:1031C8000101026F77EC59F00101A3510101926FDF
:1031D800936B0C0E01019227000E9323010192516B
:1031E80001018D25D96E0101935101018E21DA6EFD
:1031F800DF500101A01B0101A32B00D0F70E010134
:10320800926FFF0E0101936F01019D510101946FAF
:10321800956B01019251010194270101935101011C
:1032280095230101A3510101966F976B01019451F8
:103238000101965D01019751800A0101986F010112
:103248009551800A01019859D8A0A0D7000E010114
:10325800016F020E006FA0C102F177EC59F0000E69
:103268000101016F020E006F0D0E0101026F77EC74
:1032780059F0000E0101016F020E006F0A0E0101E4
:10328800026F77EC59F0000E0001C16F00D0D60E26
:103298000101126FFF0E0101136F36EC31F01200BD
:1032A800120001015A6F02017B51D8A414D0000109
:1032B800BC51D8A410D00201AD51D8A40CD0010142
:1032C8004A05D8A408D0010E0101486F01015A51DE
:1032D80018EC78F008D0000E0101486F01015A512E
:1032E80018EC78F000D0600E01015B6F030E01014D
:1032F8005C6FAEEC78F00009D8A416D0D1C20CF1FE
:10330800D2C20DF1F6EC64F0010E01010C250201A8
:10331800366F000E01010D210201376F000E020108
:10332800D46F000ED36F00D0AAEC78F00009D8B49F
:10333800DED00201AD51D8B47BD001015A51010150
:10334800D8B476D0000E0201AD6F5BC1D9FF5CC165
:10335800DAFF85C2DFFF010120EE01F05B51D926BB
:103368005C51DA2284C2DFFF010120EE02F05B51DA
:10337800D9265C51DA22BAC1DFFF7C0E0101006F49
:10338800020E0101016F000E0101026F5BC103F122
:103398005CC104F1030E0101056F040E0101066F03
:1033A8009AEC6AF0800E0101006F020E0101016FB4
:1033B800000E0101026F5BC103F15CC104F1070E4D
:1033C8000101056F040E0101066F9AEC6AF0010114
:1033D80020EE0BF05B51D9265C51DA22B0C2DFFF38
:1033E800860E0101006F020E0101016F000E01013E
:1033F800026F5BC103F15CC104F10C0E0101056FA2
:10340800ACC206F19AEC6AF0E10E0101326F010ECE
:103418000101336F550E0101346F030E0101356F41
:103428000201AC510C0F0101366F14EC60F05BD057
:10343800020136510201D31956E102013751020146
:10344800D419D8A450D001015A510101D8B442D09E
:10345800B6EC78F00009D8B43DD00101F051D8B4E9
:1034680027D074EC28F00101516FE10E0101326F91
:10347800010E0101336F550E0101346F030E010176
:10348800356F51C136F114EC60F00009D8A42BD087
:1034980001D029D00201D1510201365D0201D25179
:1034A80002013759D8B01FD00201364B372B1BD039
:1034B800E10E0101326F010E0101336F550E01015A
:1034C800346F030E0101356F000E0101366F14ECE5
:1034D80060F009D0A80E0101126FFE0E0101136FF2
:1034E80036EC31F000D00201D34BD42BDBD2BDC275
:1034F80056F1BEC257F1BFC258F1C0C259F101011D
:10350800DA51D8A4C1D00101DA2B0201AE51D8A4F6
:10351800B8D0010E02017B65C5D2800E01010B6F88
:10352800020E01010C6F560E01010D6F010E010113
:103538000E6FCBEC40F00101526F0001BC51D8B4C2
:1035480016D0560E0101066F010E0101076FDE0E3F
:103558000101086F020E0101096F040E01010A6FD3
:1035680089EC71F00009D8A49DD201D09BD2AFC2DA
:103578000CF101010D6BF6EC64F001010C51020134
:10358800AE6F01015A510101D8B48CD202017B07F8
:103598000201AF2B1F0E0101526184D25BC1D9FF1A
:1035A8005CC1DAFF85C2DFFF010120EE01F05B514B
:1035B800D9265C51DA2284C2DFFF010120EE02F035
:1035C8005B51D9265C51DA22BAC1DFFF7C0E0101BA
:1035D800006F020E0101016F000E0101026F5BC155
:1035E80003F15CC104F1030E0101056F040E010132
:1035F800066F9AEC6AF0800E0101006F020E01015D
:10360800016F000E0101026F5BC103F15CC104F19F
:10361800070E0101056F040E0101066F9AEC6AF0AE
:10362800010120EE0BF05B51D9265C51DA22B0C2C1
:10363800DFFF860E0101006F020E0101016F000E0F
:103648000101026F5BC103F15CC104F10C0E0101C1
:10365800056FACC206F19AEC6AF0560E0101326FA2
:10366800010E0101336F550E0101346F030E010184
:10367800356F0201AC510C0F0101366F14EC60F08C
:1036880011D20201AE070ED20101DA05D8A4E8D0A2
:103698000001BC51D8B4E4D00101DA2B800E01013D
:1036A8000B6F020E01010C6F560E01010D6F010E1A
:1036B80001010E6FCBEC40F00101536F010E0201C6
:1036C8007B659CD0560E0101066F010E0101076F44
:1036D800DE0E0101086F020E0101096F040E0101DF
:1036E8000A6F89EC71F00009D8B488D0000E020185
:1036F8007B6F000E0201AE6F020E0201AF6F010177
:103708005A510101D8B4CED11F0E01015361CAD15B
:10371800000E0001BC6F5BC1D9FF5CC1DAFF85C236
:10372800DFFF010120EE01F05B51D9265C51DA225E
:1037380084C2DFFF010120EE02F05B51D9265C5103
:10374800DA22BAC1DFFF7C0E0101006F020E01010F
:10375800016F000E0101026F5BC103F15CC104F14E
:10376800030E0101056F040E0101066F9AEC6AF061
:10377800800E0101006F020E0101016F000E0101B0
:10378800026F5BC103F15CC104F1070E0101056F13
:10379800040E0101066F9AEC6AF0010120EE0BF0AD
:1037A8005B51D9265C51DA22B0C2DFFF860E0101D7
:1037B800006F020E0101016F000E0101026F5BC173
:1037C80003F15CC104F10C0E0101056FACC206F1F6
:1037D8009AEC6AF0560E0101326F010E0101336F47
:1037E800550E0101346F030E0101356F0201AC5112
:1037F8000C0F0101366F14EC60F054D1000E00017B
:10380800BC6F5BC1D9FF5CC1DAFF020EDF6E01013C
:1038180020EE01F05B51D9265C51DA22000EDF6EF2
:10382800010120EE02F05B51D9265C51DA22BAC1BF
:10383800DFFF01015A510101D8B434D1DE0E010174
:10384800326F020E0101336F550E0101346F030E02
:103858000101356F030E0101366F14EC60F022D1BF
:10386800020E0101DA651BD102017B05D8A413D130
:10387800800E01010B6F020E01010C6F560E010143
:103888000D6F010E01010E6FCBEC40F00101546F7A
:1038980001015569560E0101066F010E0101076FFE
:1038A800E10E0101086F010E0101096F040E01010B
:1038B8000A6F89EC71F00009D8A40BD0560E0101EB
:1038C8000E6F010E01010F6F18EC6EF00101556FBC
:1038D80000D0040E02018519D8B414D07C0E010161
:1038E800066F020E0101076FE50E0101086F010E58
:1038F8000101096F040E01010A6F89EC71F00009DA
:10390800D8B40AD0000E02017B6F000E0201AE6F20
:10391800020E0201AF6FBFD07C0E0101066F020ECE
:103928000101076FE50E0101086F010E0101096F22
:10393800040E01010A6F89EC71F00009D8A4ABD01C
:1039480001D0A9D07C0E0101066F020E0101076F9C
:10395800E60E0101086F020E0101096F040E010154
:103968000A6F56EC72F084C2DDF2FCEC77F00201CB
:10397800846F040E0201856F060E02017B6F000E34
:103988000201AE6F020E0201AF6F800E0101066FD9
:10399800020E0101076F4D0E0101086F010E0101B2
:1039A800096F040E01010A6F56EC72F07C0E0101DA
:1039B800066F020E0101076F800E0101086F020EEB
:1039C8000101096F040E01010A6F56EC72F0E50E51
:1039D8000101066F010E0101076F7C0E0101086FDE
:1039E800020E0101096F040E01010A6F56EC72F014
:1039F800000E0201B06F1D0E0201866F2B0E020130
:103A0800876F4D0E0101006F010E0101016F000E5D
:103A18000101026F860E0101036F020E0101046F9E
:103A2800020E0101056F040E0101066F9AEC6AF09F
:103A3800560E0101006F010E0101016F000E010118
:103A4800026F860E0101036F020E0101046F060E5C
:103A58000101056F040E0101066F9AEC6AF054C16A
:103A680090F255C191F201015551060D040EF3264D
:103A7800000EF422BD0EF324D96E0A0EF420DA6E7D
:103A8800DF500F0B0201926F0D0E0201AC6F000E9A
:103A98000101DA6F00D0000E0101DA6F03D00101D5
:103AA800DA2B00D0AEEC78F00009D8A40CD00201D3
:103AB8006C2B020E02016C6506D0DEEC4AF0000E9B
:103AC80002016C6F00D00201662B0101EF51020167
:103AD800665DD8A03FD00101BB51020DC90EF32489
:103AE800D96E080EF420DA6EDF38E832E832030BBC
:103AF8000009D8B422D0010E01014B6F0101BB515E
:103B0800020DC90EF324D96E080EF420DA6EDF38E0
:103B180001014C6F4C334C31030B4C6F01014B517D
:103B280001014C5F01014C3B4C374C37DF50010120
:103B38004C193F0B4C19DF6E00D00101BB2BF90E5D
:103B48000101BB6503D0000E0101BB6F000E02012D
:103B5800666F00D0070EDCEC73F00009D8B41200D1
:103B680066EC3EF0010E0101F06F1200120015C163
:103B780006F116C107F1E50E0101086F010E0101FA
:103B8800096F040E01010A6F89EC71F00009D8A4CD
:103B9800120001D0120001011729D8B4120001D077
:103BA8001200030E0101086F01011751060D050EE1
:103BB800F326000EF422BD0EF324D96E0A0EF4206B
:103BC800DA6EDF5007EC47F00101196151D0030E9E
:103BD8000101086F01011751060D050EF326000EAD
:103BE800F422BD0EF324D96E0A0EF420DA6EDF50EB
:103BF80007EC47F001011B6F01011751060D040E78
:103C0800F326000EF422BD0EF324D96E0A0EF4201A
:103C1800DA6EDF380F0B00EC75F001011B5DD8B0D0
:103C280012D001011751060D040EF326000EF422DE
:103C3800BD0EF324D96E0A0EF420DA6EDF380F0BAE
:103C480000EC75F03AD0030E0101086F010117511D
:103C5800060D050EF326000EF422BD0EF324D96ED0
:103C68000A0EF420DA6EDF5007EC47F026D02BD08E
:103C780001011751060D040EF326000EF422BD0EA5
:103C8800F324D96E0A0EF420DA6EDF380F0B00EC3D
:103C980075F00101196114D001011751060D040EC8
:103CA800F326000EF422BD0EF324D96E0A0EF4207A
:103CB800DA6EDF380F0B00EC75F001011F6F03D0CF
:103CC80019C11FF100D0000E0101206FF90E01018A
:103CD800206501D06BD215C104F116C105F10101AF
:103CE800205127EC5DF00009D8B45DD201012051C4
:103CF800020DC90EF324D96E080EF420DA6EDF50D7
:103D08003F0BC2EC67F001011C6F01012051020D4D
:103D1800010EF326000EF422C90EF324D96E080E04
:103D2800F420DA6EDF38E832070B01011B6F01015E
:103D38001C5101011B5DD8B019D01CC11BF1010138
:103D48002051020D010EF326000EF422C90EF324B1
:103D5800D96E080EF420DA6E01011B3B1B47DF50B9
:103D680001011B191F0B1B19DF6E00D001011A512D
:103D78000101D8B42DD001012051020D010EF32606
:103D8800000EF422C90EF324D96E080EF420DA6E60
:103D9800DF5001011819E00B1819DF6E01012051DD
:103DA800020DC90EF324D96E080EF420DA6EDF5026
:103DB80001011719C00B1719DF6E01012051020DFF
:103DC800C90EF324D96E080EF420DA6EC00EDF1285
:103DD80001012051020DC90EF324D96E080EF420FA
:103DE800DA6EDF503F0B01011719D8A444D01FC168
:103DF8001BF101012051020D010EF326000EF422E1
:103E0800C90EF324D96E080EF420DA6E01011B3BAB
:103E18001B47DF5001011B191F0B1B19DF6E010126
:103E28002051020D010EF326000EF422C90EF324D0
:103E3800D96E080EF420DA6EDF501F0B0101181935
:103E4800D8B405D001011751B8EC75F000D00101C4
:103E58002051020D010EF326000EF422C90EF324A0
:103E6800D96E080EF420DA6EDF5001011819E00B44
:103E78001819DF6E120001012051020DC90EF3243A
:103E8800D96E080EF420DA6EDF38E832E832030B18
:103E98000009D8A4120001012051020D010EF326D9
:103EA800000EF422C90EF324D96E080EF420DA6E3F
:103EB800DF38E832070B070AD8A43BD001012051AC
:103EC800020D010EF326000EF422C90EF324D96E5A
:103ED800080EF420DA6EDF5001011819E00B1819EA
:103EE800DF6E01012051020DC90EF324D96E080EB0
:103EF800F420DA6EDF5001011719C00B1719DF6EB5
:103F08001FC11BF101012051020D010EF326000E05
:103F1800F422C90EF324D96E080EF420DA6E0101DA
:103F28001B3B1B47DF5001011B191F0B1B19DF6EC1
:103F3800120001012051020D010EF326000EF42299
:103F4800C90EF324D96E080EF420DA6EDF501F0B69
:103F58000101186145D001011F510001DA5DD8A0A7
:103F6800120001012051020D010EF326000EF42269
:103F7800C90EF324D96E080EF420DA6EDF50010161
:103F88001819E00B1819DF6E01012051020DC90E36
:103F9800F324D96E080EF420DA6EDF5001011719E8
:103FA800C00B1719DF6E1FC11BF101012051020D53
:103FB800010EF326000EF422C90EF324D96E080E62
:103FC800F420DA6E01011B3B1B47DF5001011B196E
:103FD8001F0B1B19DF6E01011751B8EC75F01200A9
:103FE80001012051020D010EF326000EF422C90E24
:103FF800F324D96E080EF420DA6EDF501F0B01018E
:104008001819D8A461D001012051020D010EF32620
:10401800000EF422C90EF324D96E080EF420DA6ECD
:10402800DF38E832070B01011F611200010120513E
:10403800020D010EF326000EF422C90EF324D96EE8
:10404800080EF420DA6EDF38E832070B0001DA6177
:10405800120001012051020D010EF326000EF42278
:10406800C90EF324D96E080EF420DA6EDF50010170
:104078001819E00B1819DF6E01012051020DC90E45
:10408800F324D96E080EF420DA6EDF5001011719F7
:10409800C00B1719DF6E1FC11BF101012051020D62
:1040A800010EF326000EF422C90EF324D96E080E71
:1040B800F420DA6E01011B3B1B47DF5001011B197D
:1040C8001F0B1B19DF6E120001012051020D010E9A
:1040D800F326000EF422C90EF324D96E080EF4203C
:1040E800DA6EDF501F0B01011B6F0101185101012E
:1040F8001B5DD8B012000001DA5101011F5DD8B074
:10410800120001012051020D010EF326000EF422C7
:10411800C90EF324D96E080EF420DA6EDF38E832BF
:10412800070B0001DA61120001012051020D010E96
:10413800F326000EF422C90EF324D96E080EF420DB
:10414800DA6EDF5001011819E00B1819DF6E010152
:104158002051020DC90EF324D96E080EF420DA6E30
:10416800DF5001011719C00B1719DF6E1FC11BF1B2
:1041780001012051020D010EF326000EF422C90E92
:10418800F324D96E080EF420DA6E01011B3B1B479D
:10419800DF5001011B191F0B1B19DF6E010117519D
:1041A800B8EC75F012000101202B90D51F0E01010B
:1041B800186160D0000E01011E6FF90E01011E6525
:1041C80001D058D0E10E0101046F010E0101056F05
:1041D80001011E5127EC5DF00009D8B447D015C184
:1041E80007F116C108F101011E51BBEC6BF001018A
:1041F8001E51020D010EF326000EF422C90EF324FF
:10420800D96E080EF420DA6EDF5001011819E00BA0
:104218001819DF6E01011E51020DC90EF324D96E63
:10422800080EF420DA6EDF5001011719C00B1719B8
:10423800DF6E1FC11BF101011E51020D010EF32695
:10424800000EF422C90EF324D96E080EF420DA6E9B
:1042580001011B3B1B47DF5001011B191F0B1B19D9
:10426800DF6E01011751B8EC75F0120001011E2B29
:10427800A4D700D01F0E010118611200B0C01DF1B3
:10428800F90E01011D6502D01200120001011D5135
:10429800020D010EF326000EF422C90EF324D96E86
:1042A800080EF420DA6EDF501F0B1F0AD8B40ED0A8
:1042B80001011D51020DC90EF324D96E080EF42018
:1042C800DA6EDF503F0B3F0AD8A454D015C107F16E
:1042D80016C108F10001B051BBEC6BF00001B05100
:1042E800020D010EF326000EF422C90EF324D96E36
:1042F800080EF420DA6EDF5001011819E00B1819C6
:10430800DF6E0001B051020DC90EF324D96E080EFC
:10431800F420DA6EDF5001011719C00B1719DF6E90
:104328001FC11BF10001B051020D010EF326000E52
:10433800F422C90EF324D96E080EF420DA6E0101B6
:104348001B3B1B47DF5001011B191F0B1B19DF6E9D
:104358000001B051020DC90EF324D96E080EF420E5
:10436800DA6E3F0EDF1601011751B8EC75F01DC16A
:10437800B0F01200F90E01011D19D8A404D0000EE6
:104388000001B06F00D001011D2BF90E01011D6560
:104398007DD7120012001200000E496E000E4A6E00
:1043A800000E0001B36F000E0001BA6F020EDCECC4
:1043B80073F00009D8B435D1010E496E0001B42B51
:1043C800020E0001B419D8A4FBD0000E0001B46F8E
:1043D800F7D0000E0001B36F000E0101276F1E0E0B
:1043E800266F000E0101286F020E48EC6CF019D1FF
:1043F800010E0001B36F000E0101276F1E0E266F1C
:10440800000E0101286F020E48EC6CF00AD1000181
:10441800B405D8A404D0010E0001B36F00D0000E7B
:104428000101276F400E266F000E0101286F020E52
:1044380048EC6CF0F6D00001B405D8A404D0010E05
:104448000001B36F00D0000E0101276F7D0E266FAB
:10445800000E0101286F020E48EC6CF0E2D000D08B
:104468000001B405D8A404D0010E0001B36F00D038
:10447800000E0101276FFA0E266F000E0101286F4A
:10448800020E48EC6CF0CDD00001B405D8A404D0DD
:10449800010E0001B36F00D0010E0101276FF40E69
:1044A800266F000E0101286F020E48EC6CF0B9D09F
:1044B8000001B405D8A404D0010E0001B36F00D0E8
:1044C800030E0101276FE80E266F000E0101286F09
:1044D800020E48EC6CF0A5D00001B405D8A404D0B5
:1044E800010E0001B36F00D0090E0101276FC40E41
:1044F800266F000E0101286F020E48EC6CF091D077
:104508000001B405D8A404D0010E0001B36F00D097
:10451800130E0101276F880E266F000E0101286F08
:10452800020E48EC6CF07DD00001B405D8A421D06F
:10453800010E0001B36F3850D8A40DD0000E010150
:10454800276F500E266F000E0101286F020E48ECEF
:104558006CF0010E0CD0090E0101276F740E266F46
:10456800000E0101286F020E48EC6CF0000E386E48
:1045780058D03850D8B40CD0000E0101276F500E17
:10458800266F000E0101286F020E48EC6CF049D02E
:10459800090E0101276F740E266F000E0101286FA6
:1045A800020E48EC6CF03DD0000E0101276F1E0E84
:1045B800266F000E0101286F020E48EC6CF031D016
:1045C8000001B251000AD8B404D7010AD8B410D7F0
:1045D800030AD8B41CD7010AD8B42DD7070AD8B40F
:1045E8003FD7010AD8B450D7030AD8B461D70D0A07
:1045F800D8B436D7070AD8B433D7010AD8B430D7D5
:10460800030AD8B42DD7010AD8B42AD71F0AD8B4B8
:1046180063D7010AD8B474D7030AD8B485D7C4D7E6
:1046280000D0030EDCEC73F00009D8B435D1010ECC
:104638004A6E0001B52B020E0001B519D8A4FBD0B3
:10464800000E0001B56FF7D0000E0001BA6F000E22
:104658000101276F1E0E266F000E0101286F030E41
:1046680048EC6CF019D1010E0001BA6F000E01017F
:10467800276F1E0E266F000E0101286F030E48ECEF
:104688006CF00AD10001B505D8A404D0010E0001D0
:10469800BA6F00D0000E0101276F400E266F000E82
:1046A8000101286F030E48EC6CF0F6D00001B50547
:1046B800D8A404D0010E0001BA6F00D0000E010189
:1046C800276F7D0E266F000E0101286F030E48EC40
:1046D8006CF0E2D000D00001B505D8A404D0010EDA
:1046E8000001BA6F00D0000E0101276FFA0E266F85
:1046F800000E0101286F030E48EC6CF0CDD00001CC
:10470800B505D8A404D0010E0001BA6F00D0010E7F
:104718000101276FF40E266F000E0101286F030EAA
:1047280048EC6CF0B9D00001B505D8A404D0010E4E
:104738000001BA6F00D0030E0101276FE80E266F43
:10474800000E0101286F030E48EC6CF0A5D00001A3
:10475800B505D8A404D0010E0001BA6F00D0090E27
:104768000101276FC40E266F000E0101286F030E8A
:1047780048EC6CF091D00001B505D8A404D0010E26
:104788000001BA6F00D0130E0101276F880E266F43
:10479800000E0101286F030E48EC6CF07DD000017B
:1047A800B505D8A421D0010E0001BA6F3B50D8A49A
:1047B8000DD0000E0101276F500E266F000E01016B
:1047C800286F030E48EC6CF0010E0CD0090E0101A5
:1047D800276F740E266F000E0101286F030E48EC38
:1047E8006CF0000E3B6E58D03B50D8B40CD0000E85
:1047F8000101276F500E266F000E0101286F030E6E
:1048080048EC6CF049D0090E0101276F740E266F31
:10481800000E0101286F030E48EC6CF03DD0000E2D
:104828000101276F1E0E266F000E0101286F030E6F
:1048380048EC6CF031D00001B951000AD8B404D763
:10484800010AD8B410D7030AD8B41CD7010AD8B4BF
:104858002DD7070AD8B43FD7010AD8B450D7030ACE
:10486800D8B461D70D0AD8B436D7070AD8B433D725
:10487800010AD8B430D7030AD8B42DD7010AD8B45E
:104888002AD71F0AD8B463D7010AD8B474D7030A41
:10489800D8B485D7C4D700D0090E0001B219D8A45E
:1048A8000CD04A50D8B409D00001B5510001D8A4A1
:1048B80004D0010E0001B36F00D00A0E0001B9192F
:1048C800D8A40CD04950D8B409D00001B451000183
:1048D800D8A404D0010E0001BA6F00D0080E000160
:1048E800B219D8A40CD04A50D8B409D00001BA5192
:1048F8000001D8B404D0010E0001B36F00D0070E38
:104908000001B919D8A40CD04950D8B409D0000175
:10491800B3510001D8B404D0010E0001BA6F00D021
:104928000001BA510001D8B40DD03A50D8B402D021
:104938003A0600D00001B8510001D8B403D00001F4
:10494800B80700D00001B3510001D8B40DD03750DA
:10495800D8B402D0370600D00001B1510001D8B454
:1049680003D00001B10700D00001B1510001D8B453
:1049780003D0000E0001B36F0001B8510001D8B494
:1049880003D0000E0001BA6F3750D8B424D035D008
:1049980022D00A0E0001B16F0001B151040F13D0EB
:1049A8000A0E0001B16F0001B151030F0CD00A0EBD
:1049B8000001B16F0001B151020F05D00A0E0001CC
:1049C800B16F0001B129376E18D00A0E0001B16F1E
:1049D800B1C037F012D00001B2510B0AD8B4D9D700
:1049E800070AD8B4DDD7010AD8B4E1D7030AD8B486
:1049F800E5D7010AD8B4E9D700D03A50D8B424D0C2
:104A080035D022D00A0E0001B86F0001B851040F4A
:104A180013D00A0E0001B86F0001B851030F0CD073
:104A28000A0E0001B86F0001B851020F05D00A0E36
:104A38000001B86F0001B8293A6E18D00A0E0001BB
:104A4800B86FB8C03AF012D00001B9510B0AD8B407
:104A5800D9D7070AD8B4DDD7010AD8B4E1D7030AF1
:104A6800D8B4E5D7010AD8B4E9D700D00001B351CA
:104A7800DBEC77F00001BA51CFEC77F012000101BE
:104A8800416F0101C751D8A404D00101DE51D8B447
:104A980049D2800E0001B619D8B458D02CC00DF1F7
:104AA8002DC00EF1D5C20FF1D6C210F126EC70F070
:104AB80001010D5101010E11D8A413D0000E0101FE
:104AC8000E6F0001C851010D000EF324D96E060EB9
:104AD800F420DA6EDF506BEC76F0010E0001C26F45
:104AE80026D02CC10EF1C8C000F10101016BD2C162
:104AF80002F10101036BC90E0101046F000E056F7D
:104B0800000E066F000E076F0DEC6FF0000E01012E
:104B18000025D96E060E01010121DA6EDF506BEC1B
:104B280076F0000E0001C26F000E3F6E00D0020E3C
:104B38000101DE19D8A406D0010E0101C76F000ECD
:104B48000101DE6F000E0101DC6F2BD0020E0101A6
:104B5800DE19D8A407D0010E0101C76F000E0101AC
:104B6800DE6F1FD00101DC2B010E0101DC6519D0BD
:104B7800F25000D0070EA8EC5DF0000E0101C76FDF
:104B8800000E0101DE6F010E0101F16F000E01013F
:104B9800016F040E006F030E0101026F77EC59F0EC
:104BA80000D02C042D10D8A407D0010E436EA2C04B
:104BB80034F0A3C035F000D0080EDCEC73F0000927
:104BC800D8B408D00101CE51D8B404D0010E0101E7
:104BD800D66F00D0080E0CEC76F00009D8B42ED0B1
:104BE8000101CE51D8A41CD0F3C10CF101010D6B09
:104BF800F6EC64F001010C510101CF6F0101CF51B6
:104C080000080101F3250101CE6FCFC126F1010192
:104C1800276B010E0101286F080E48EC6CF00ED0CE
:104C2800CEC126F10101276B010E0101286F080E84
:104C380048EC6CF0000E0101CE6F00D00001CA51A3
:104C48000001D8A406D00201445102014511D8B48C
:104C580042D10001C251D8B43ED1010141510101F4
:104C6800D8B439D146C22DF147C22EF101012D1F0A
:104C78002E1F2D4B2E2B040E01010C6F010E91ECF3
:104C88005AF001012D5101010C250101466F010166
:104C98002E5101010D210101476F46C12DF147C178
:104CA8002EF101012D1F2E1F2D4B2E2B2DC144F14E
:104CB8002EC145F1080E0101475DD8A00BD0FE0EAC
:104CC8000101465D0F0E01014759D8B003D000011C
:104CD800CA2B36D0010146290F0E01014759D8A029
:104CE8000CD0FD0E0101465D170E01014759D8B0E1
:104CF80004D0020E0001CA2723D0080E0101455D29
:104D0800D8A00BD0FE0E0101445D0F0E01014559DC
:104D1800D8B003D00001CA0713D0010144290F0EEF
:104D280001014559D8A00CD0FD0E0101445D170EB4
:104D380001014559D8B004D0020E0001CA5F00D065
:104D4800040E01010C6F010E91EC5AF00CC146F1F2
:104D58000DC147F1A2C000F1A3C001F146C102F1A3
:104D680047C103F1000E0101046F000E056F010E2B
:104D7800066F000E076F0DEC6FF000C137F101C12F
:104D880038F137C117F138C118F144C219F145C2D9
:104D98001AF1000E01011B6F000E1C6F010E1D6F32
:104DA800000E1E6FF9EC60F017C142F118C143F113
:104DB80042C10DF143C10EF1070E0101106F0F69D9
:104DC80026EC70F00DC13DF10EC13EF13DC10DF173
:104DD8003EC10EF1040E01010F6F010E5FEC45F0AC
:104DE80001013D510101425F01013E510101435B57
:104DF80042C1A2F043C1A3F042C106F143C107F189
:104E0800070E0101096F086917EC6DF006C12CF057
:104E180007C12DF0C8C017F10101186BCAC019F1FC
:104E280001011A6BC90E01011B6F000E1C6F000EE9
:104E38001D6F000E1E6FF9EC60F0010117510001A3
:104E4800C86FCAC02FF10101306B000E0001CA6F94
:104E5800000E0201456F000E446F000E02013B6F09
:104E6800000E3A6F2C502D10D8A408D0000E2D6ECD
:104E7800100E2C6E38C2A2F039C2A3F0070E356EA0
:104E88003468020E0101DE6F040E01010C6F010E81
:104E980091EC5AF00001A25101010C2501013F6F6C
:104EA8000001A35101010D210101406FAEEC78F022
:104EB8000101316F3FC133F1010140510101326FEE
:104EC800000E0101016F040E006F020E0101026F56
:104ED80077EC59F023D00001C8510101DD19D8A49D
:104EE8000BD00101C751D8B407D0010141510101CC
:104EF800D8A414D001D012D00101D651D8B40ED004
:104F0800B2EC78F00009D8B409D00101415101018F
:104F1800D8B404D0000E0101D66F00D00201504B66
:104F2800512B4ED0060E0CEC76F00009D8B41CD0EC
:104F3800000E01010D6F320E0C6FF6EC64F0540E8A
:104F480001010C250101396F240E01010D21010118
:104F58003A6F39C126F13AC127F1000E0101286FD5
:104F6800060E48EC6CF000D0060EDCEC73F000097D
:104F7800D8B40DD0000E01010E6F0101F8516BEC91
:104F880076F0000E0201D86F010ED76F00D0020133
:104F9800D8510BE1330E0201D75DD8B006D0B2EC80
:104FA80076F00201D74BD82B00D0330E0201D71967
:104FB8000201D811D8A404D00201D74BD82B00D0B5
:104FC8000101DD510101D8A404D0C80E0101DD6F33
:104FD80003D00101DD0700D0050EDCEC73F00009F9
:104FE800D8A4F8EC70F0090E0CEC76F00009D8B4EF
:104FF8004CD0BEEC78F001012D6F01012D513E0D12
:10500800F3CF3BF1F4CF3CF13BC108F13CC109F1CE
:10501800A2EC75F008C10BF109C10CF10AC10DF140
:10502800000E01010E6F7A0E01010F6F440E01018F
:10503800106FAFEC54F00BC134F10CC135F10DC158
:1050480036F1000E01010B6F280E01010C6F430EA3
:1050580001010D6F34C108F135C109F136C10AF1FA
:105068003BEC4FF008C117F109C118F10AC119F159
:1050780006EC54F017C126F118C127F1010E010101
:10508800286F090E48EC6CF000D0090EDCEC73F0C8
:105098000009D8B417D0070EA8EC5DF0000E010186
:1050A800C76F000E0101DE6F010E0101F16F000EE6
:1050B8000101016F040E006F050E0101026F77EC0C
:1050C80059F000D00F0EDCEC73F00009D8B404D00E
:1050D800010E0101F16F00D00E0EDCEC73F012002E
:1050E800000E0101176F600E0101256F030E01010B
:1050F800266F25C1D9FF26C1DAFF010EDF6E000E2B
:105108000101186F060E0101186F010E0101226FCF
:10511800010E0101226501D096D00001BE51060D95
:10512800BD0EF3240101066F0A0EF4200101076F7A
:10513800E10E0101086F010E0101096F040E010162
:105148000A6F89EC71F00009D8A449D00001BE515A
:10515800060D050EF326000EF422BD0EF324D96EBB
:105168000A0EF420DA6EDE28D8B439D00001BE5118
:10517800060DBD0EF3240101006F0A0EF420010193
:10518800016F000E0101026F25C103F126C104F170
:10519800010E0101056F040E0101066F9AEC6AF019
:1051A800010120EE05F02551D9262651DA22040EF8
:1051B8000101086F0001BE51060D050EF326000E11
:1051C800F422BD0EF324E16E0A0EF420E26EE750DD
:1051D80007EC47F0DF6E010E0101176F03D00101E4
:1051E800220700D03E0E0001BE6103D00001BE2B95
:1051F80027D0000E0001BE6F010117510101D8A48C
:1052080022D0E10E0101006F010E0101016F000EB5
:105218000101026F25C103F126C104F1010E01014C
:10522800056F040E0101066F9AEC6AF0010120EE89
:1052380005F02551D9262651DA22FF0EDF6E03D05C
:105248000101222B65D7000E01011C6F000E010120
:10525800246F000E0101196FBDC016F11AD20001AA
:10526800D051D8B4FCD001012451010D2E0EF324E5
:10527800D96E020EF420DA6EDF500101236F1E0E84
:1052880001010C6F010E01010D6F010123516DEC3D
:1052980067F0010E010124250101006F0101016B76
:1052A800000E0123000E0101036F050E026F79EC59
:1052B80074F0010E01010027000E01010123010114
:1052C800005101012525D96E010101510101262155
:1052D800DA6E1EC1DFFF010E010124250101006FF6
:1052E8000101016B000E0123000E0101036F050E81
:1052F800026F79EC74F0020E01010027000E010123
:1053080001230101005101012525D96E0101015137
:1053180001012621DA6E1FC1DFFF010E01012425DC
:105328000101006F0101016B000E0123000E010154
:10533800036F050E026F79EC74F0030E010100276C
:10534800000E010101230101005101012525D96E3B
:105358000101015101012621DA6E20C1DFFF010E92
:10536800010124250101006F0101016B000E0123D9
:10537800000E0101036F050E026F79EC74F0040E44
:1053880001010027000E0101012301010051010163
:105398002525D96E0101015101012621DA6E21C1AD
:1053A800DFFF01012351020D010EF326000EF42246
:1053B800C90EF324D96E080EF420DA6EDF38E8320D
:1053C800070B0101146F050E0101156F0101D8903B
:1053D80014370101152FFAD70101145101011A6F71
:1053E80001012351020D010EF326000EF422C90E0D
:1053F800F324D96E080EF420DA6EDF501F0B01017A
:105408001A27010E010124250101006F0101016B1A
:10541800000E0123000E0101036F050E026F79ECE7
:1054280074F0050E01010027000E0101012301019E
:10543800005101012525D96E0101015101012621E3
:10544800DA6E1AC1DFFF050E01011C270101242BAA
:105458000001D051D8B41DD10001D0071AD1E10EF6
:105468000101046F010E0101056F0001BD5127EC18
:105478005DF00009D8A4F8D00001BD51020DC90E95
:10548800F324D96E080EF420DA6EDF503F0B3F0A82
:10549800D8B4EAD01E0E01010C6F010E01010D6F88
:1054A8000001BD516DEC67F0010E010124250101D9
:1054B800006F0101016B000E0123000E0101036F53
:1054C800050E026F79EC74F0010E01010027000E41
:1054D800010101230101005101012525D96E0101B6
:1054E800015101012621DA6E1EC1DFFF010E010103
:1054F80024250101006F0101016B000E0123000E3C
:105508000101036F050E026F79EC74F0020E0101C0
:105518000027000E01010123010100510101252589
:10552800D96E0101015101012621DA6E1FC1DFFF89
:10553800010E010124250101006F0101016B000E1C
:105548000123000E0101036F050E026F79EC74F060
:10555800030E01010027000E010101230101005182
:1055680001012525D96E0101015101012621DA6EBB
:1055780020C1DFFF010E010124250101006F010197
:10558800016B000E0123000E0101036F050E026F6F
:1055980079EC74F0040E01010027000E01010123CB
:1055A8000101005101012525D96E010101510101B7
:1055B8002621DA6E21C1DFFF0001BD51020D010E67
:1055C800F326000EF422C90EF324D96E080EF42037
:1055D800DA6EDF38E832070B0101146F050E01019E
:1055E800156F0101D89014370101152FFAD7010161
:1055F800145101011B6F0001BD51020D010EF3266C
:10560800000EF422C90EF324D96E080EF420DA6EC7
:10561800DF501F0B01011B27010E01012425010189
:10562800006F0101016B000E0123000E0101036FE1
:10563800050E026F79EC74F0050E01010027000ECB
:10564800010101230101005101012525D96E010144
:10565800015101012621DA6E1BC1DFFF050E010190
:105668001C270101242B00D0F90E0001BD6103D0D5
:105678000001BD2B04D0000E0001BD6F00D0000159
:10568800BD5101011619D8A404D0010E0101196FEA
:1056980000D0080E0101246107D001011951010150
:1056A800D8A402D0DCD500D00101185101011C2575
:1056B80001011D6F01011D51010DF3500101252547
:1056C800D96EF45001012621DA6ECCC0DFFF01014A
:1056D8001D2B01011D511200120001012E51010163
:1056E800D8B4F2D2C90E01013061EED22CC1D9FF73
:1056F8002DC1DAFFDE28D8A456D00101DE51D8A486
:1057080052D00101C751D8B422D0050E0CEC76F066
:105718000009D8B48DD2060E01010D6F0E0E0C6F64
:10572800F6EC64F01C0E01010C2501013B6F0C0E18
:1057380001010D2101013C6F3BC126F13CC127F15C
:10574800000E0101286F050E48EC6CF071D20E0EA8
:105758000CEC76F00009D8B46BD2050E0CEC76F0A0
:105768000009D8B41CD0060E01010D6F0E0E0C6F87
:10577800F6EC64F01C0E01010C2501013D6F0C0EC6
:1057880001010D2101013E6F3DC126F13EC127F106
:10579800000E0101286F050E48EC6CF000D0010ED8
:1057A8000101C76F45D2020E01012E6541D20101E8
:1057B80020EE01F02C51D9262D51DA22DF500101BB
:1057C800316F010131510101506F516B010150518D
:1057D8000101516F506B010120EE02F02C51D926C6
:1057E8002D51DA22DF500101316F010131510101E0
:1057F8005027000E512350C133F151C134F1040E2A
:1058080001010C6F010E91EC5AF00CC14CF10DC165
:105818004DF1B7C117F1B8C118F14CC119F14DC11B
:105828001AF1FF0E01011B6F070E1C6F000E1D6F92
:10583800000E1E6FF9EC60F017C13FF118C140F17E
:10584800A2C000F1A3C001F14CC102F14DC103F1A6
:10585800000E0101046F000E056F010E066F000EA9
:10586800076F0DEC6FF000C14EF101C14FF14EC151
:1058780046F14FC147F14EC100F14FC101F1000E91
:105888000101036F3D0E026F000E0101046F000E4F
:10589800056F010E066F000E076F0DEC6FF000C16B
:1058A8004CF101C14DF101012F510101D8B415D0BE
:1058B8004CC100F14DC101F1000E0101036F050E4D
:1058C800026F000E0101046F000E056F010E066FD6
:1058D800000E076F0DEC6FF014D04CC100F14DC1F4
:1058E80001F1000E0101036F000E026F000E0101AD
:1058F800046F000E056F010E066F000E076F0DECAA
:105908006FF000C14EF101C14FF150C117F151C103
:1059180018F13FC119F140C11AF1000E01011B6FC6
:10592800000E1C6F010E1D6F000E1E6FF9EC60F06B
:1059380017C14CF118C14DF14CC150F14DC151F195
:105948004EC131F14FC132F10101311F321F314BCC
:10595800322B010150510101312501014A6F01012A
:1059680051510101322101014B6F4AC131F14BC143
:1059780032F10101311F321F314B322BFF0E010171
:1059880031250101486FFF0E010132210101496FE4
:105998002CC1D9FF2DC1DAFF01013051DE18D8A47E
:1059A80014D0080E01014B5DD8A005D0800E01016E
:1059B8004B5DD8A00AD0080E0101495DD8A075D06A
:1059C800800E0101495DD8B070D00101F151D8A411
:1059D80004D00101C751D8A4D4D04EC117F14FC18A
:1059E80018F150C119F151C11AF1000E01011B6FD4
:1059F800000E1C6F010E1D6F000E1E6FF9EC60F09B
:105A080017C144F218C145F24EC10DF14FC10EF154
:105A1800070E0101106F0F6926EC70F00DC131F10E
:105A28000EC132F150C10DF151C10EF1070E010145
:105A3800106F0F6926EC70F001010D1F01010E1F98
:105A480001010D4B0E2B01010D5101013125020100
:105A5800466F01010E51010132210201476F30C129
:105A680017F10101186B2CC1D9FF2DC1DAFFDF50E6
:105A78000101316F010131510101196F1A6BC90E12
:105A880001011B6F000E1C6F000E1D6F000E1E6FB4
:105A9800F9EC60F0010117510001CA6F010E010114
:105AA800DE6F000E0101C76F6CD00101505101017A
:105AB8004E5D0101515101014F59D8B047D0800EB8
:105AC80001014B5DD8B042D001014E5100080101DF
:105AD80050250101456F010145510001A227000E23
:105AE800A3234EC131F14FC132F10101311F321FE1
:105AF800314B322B01015051010131250201486F10
:105B080001015151010132210201496F020148513D
:105B180002014A5D0201495102014B59D8B016D021
:105B28004EC131F14FC132F10101311F321F314BEA
:105B3800322B010150510101312502014A6F010147
:105B480051510101322102014B6F00D00101C751AF
:105B5800D8B404D00101DE51D8A404D0010E01014B
:105B6800C76F00D0010146510201625D0101475132
:105B780002016359D8B005D046C162F247C163F249
:105B880000D0BEEC78F00101316F010131513E0DBA
:105B9800F3CF41F1F4CF42F141C108F142C109F11B
:105BA800A2EC75F008C10BF109C10CF10AC10DF1A5
:105BB800000E01010E6F7A0E01010F6F440E0101F4
:105BC800106FAFEC54F00BC135F10CC136F10DC1BB
:105BD80037F1000E01010B6F280E01010C6F430E07
:105BE80001010D6F35C108F136C109F137C10AF15C
:105BF8003BEC4FF008C117F109C118F10AC119F1BE
:105C080006EC54F017C126F118C127F1010E010165
:105C1800286F090E48EC6CF0000E0201516F000E5F
:105C2800506F030E01012E6503D0010E120000D043
:105C3800BEEC78F00101316F010131513E0DF3CF17
:105C480043F1F4CF44F143C108F144C109F1A2EC96
:105C580075F008C10BF109C10CF10AC10DF1000E74
:105C680001010E6F7A0E01010F6F440E0101106FD2
:105C7800AFEC54F00BC138F10CC139F10DC13AF158
:105C8800000E01010B6F280E01010C6F430E01017C
:105C98000D6F38C108F139C109F13AC10AF13BEC7D
:105CA8004FF008C117F109C118F10AC119F106EC42
:105CB80054F017C126F118C127F1010E0101286F10
:105CC800090E48EC6CF000D0000E12001200000E15
:105CD80001015F6F000E0001CB6F000E0101006F24
:105CE800000E98EC73F0000E4C6E000E456E200E00
:105CF80099EC56F0000E0001CF6F000E0101BC6F49
:105D08000001D951C3EC77F0020E5CEC74F0600E20
:105D180099EC56F0000E01010E6F000E6BEC76F058
:105D2800190E0101276F640E266F000E0101286FFE
:105D3800110E48EC6CF0000E0101276F780E266FEB
:105D4800010E0101286F120E48EC6CF0010E0001E3
:105D5800C16F04000101BD51D8B409D0000E010182
:105D6800BD6F3E0E0FEC38F00101CB2B00D00101C6
:105D7800BF51D8B409D0000E0101BF6F200E99ECB5
:105D880056F0600E99EC56F00101C051D8B407D016
:105D9800600E99EC56F0000E0101C06F00D00101B1
:105DA800BE51D8A404D00101BC51D8B4ACD1000E66
:105DB8000101676F000E01016A6F000E696F000E26
:105DC8000101CB6F0101BE51D8B455D0000E0101BD
:105DD800BE6FE7EC77F00101EC6FE7EC77F0000EAF
:105DE8000101656F1DD001016551010D170EF324E6
:105DF800D96E030EF420DA6EE7EC77F0DF6E01015E
:105E08006551010D170EF324D96E030EF420DA6ED6
:105E1800DF50010167190101676F0101652B00D08F
:105E2800FF0E0101546FFF0E0101556F0101EC5186
:105E38000101566F576B01015451010156270101A9
:105E4800555101015723010165510101586F596BE3
:105E5800010156510101585D01015951800A0101A2
:105E68005A6F01015751800A01015A59D8A0BBD76E
:105E7800000E0001CF6F0101BC51D8B41DD0000E37
:105E88000101666F3A0E0101666501D011D001016A
:105E98006651010D170EF324D96E030EF420DA6E45
:105EA800DF50010167190101676F0101662BEAD70D
:105EB800000E0101BC6F00D018C369F101016A6BC3
:105EC8000101695101016A6F696B030117510101F1
:105ED8006927000E6A230101DB510101D8B41CD0E7
:105EE800D00E0101546FCA0EE82EFED7542FFCD7EE
:105EF800D00E0101546FCA0EE82EFED7542FFCD7DE
:105F0800090E01016A5DD8B0DCD069C114F16AC11B
:105F180015F1B9EC6FF0D5D0010E01015F6F0101E9
:105F280067510101D8A4CDD001D0CBD00101B35124
:105F38000101691905E10101B45101016A19D8A4E7
:105F4800C0D00101B3510101B411D8A42BD0000E67
:105F58000101616F000E626F000E636F000E646FC7
:105F6800010164511FE1100E0101625D020E010181
:105F78006359D8B017D001D015D061C105F162C1FD
:105F880006F163C107F164C108F18CEC75F0000EED
:105F980001016127100E6223000E6323000E6423A3
:105FA800DFD700D0000E0101686F370E0101686568
:105FB80001D044D0B3C100F1B4C101F1000E010118
:105FC800036F380E026F79EC74F001010051010182
:105FD800682501015B6F0101015101015C6F000E31
:105FE80001015C2301015D6B01015D2301015E6B11
:105FF8005BC105F15CC106F15DC107F15EC108F145
:1060080001016851010D020EF326000EF422170E4D
:10601800F3240101096F030EF42001010A6F040E35
:1060280001010B6F000E0C6F000E0D6F000E0E6F4E
:10603800E4EC6AF0040E01016827B7D70101B34BFD
:10604800B42B0101B5510101B3193BE10101B6516E
:106058000101B419D8A435D0000E0101056F000E56
:10606800066F020E076F000E086FED0E0101096F33
:10607800010E01010A6F010E01010B6F000E0C6F7A
:10608800000E0D6F000E0E6FE4EC6AF0010E0101B8
:10609800056F000E066F020E076F000E086FC50E23
:1060A8000101096F030E01010A6F0B0E01010B6F4D
:1060B800000E0C6F000E0D6F000E0E6FE4EC6AF010
:1060C80000D0030E0101276FE80E266F000E0101B4
:1060D800286F110E48EC6CF00101DB510101D8B4B6
:1060E80012D00101695101016A11D8A40CD0270E00
:1060F8000101276F100E266F000E0101286F110E87
:1061080048EC6CF000D00101DB510101D8A424D087
:10611800020E0101CB6506D0010E01015F6F000E72
:106128000101CB6F01015F510101D8B415D0010104
:10613800B5510101B35D0101B6510101B459D8B09F
:1061480007D0B3C10AF1B4C10BF147EC76F000D027
:10615800000E01015F6F00D0000E0101016F010EFA
:10616800006FEE0E0101026F010E0101036F5CEC7E
:1061780051F00009D8B438D0270E01010C6F040E75
:1061880001010D6FEB0E01010E6F010E01010F6F82
:106198000101EE519BEC3FF00009D8B425D0040171
:1061A8002851C00B0101606F01016045E846030BEF
:1061B8000101606F030E01016019D8A415D0290EE2
:1061C8000101066F040E0101076F170E0101086F28
:1061D800030E0101096F3B0E01010A6F56EC72F0C4
:1061E800010E0101BC6F00D0020EDCEC73F0000957
:1061F800D8B405D0937693B602D08A9600D0110E03
:10620800DCEC73F00009D8B402D0FF0000D0020E15
:106218000CEC76F00009D8B40BD0000E0101276F02
:10622800FA0E266F000E0101286F020E48EC6CF082
:10623800110E0CEC76F00009D8B40BD0030E010156
:10624800276FE80E266F000E0101286F110E48EC2B
:106258006CF0120EDCEC73F00009D8B47AD5FF00AC
:1062680078D51200140E0101266F010E0101276F67
:106278004CD2250E01012D19D8B405D001012D519C
:1062880017EC77F042D2000E01012C6F000E2B6F35
:10629800000E01012A6F07D001012A850101124B66
:1062A800132B01D00BD012C1F6FF13C1F7FF080062
:1062B800F550300AD8B4F0D701D0F5D712C1F6FF9F
:1062C80013C1F7FF0800F55030EC75F0D8A0A5D041
:1062D800000E01012C6F000E2B6F00D02BC100F1B6
:1062E8002CC101F1000E0101036F0A0E026F79EC57
:1062F80074F000C12BF101C12CF1D00E01011C6F0B
:10630800FF0E01011D6F12C1F6FF13C1F7FF080050
:10631800F55001011E6F1F6B01011C5101011E2761
:1063280001011D5101011F2301011E5101012B27EC
:1063380001011F5101012C230101124B132B12C122
:10634800F6FF13C1F7FF0800F55030EC75F0D8A040
:1063580064D0C4D762D012007FD000D001012A8F48
:106368007BD001012B510101235D01012C51010159
:106378002459D8B009D00101235101012B5F010133
:10638800245101012C5B0AD0000E01012C6F000E74
:106398002B6F04D0200E17EC77F000D001012B07EB
:1063A800D8A02C0701012B29F5E101012C29D8B42B
:1063B8000DD0F0D70BD021C1D9FF22C1DAFFDF50B1
:1063C80017EC77F00101214B222B00D001012307A4
:1063D800D8A0240701012329EEE101012429D8B41A
:1063E80094D1E9D792D126C1D9FF27C1DAFFDF506E
:1063F80001012D6F020E01012627000E272300D070
:106408002D0E0101216F010E0101226F000E010105
:10641800246F010E236FA5D71FD012C1F6FF13C139
:10642800F7FF0101124B132B0800F5CF2DF10101E5
:106438002D51000AD8B41200580AD8B48FD73B0A95
:10644800D8B4D1D7070AD8B407D00D0AD8B404D025
:10645800110AD8B483D7D4D701012ABF19D026C1CD
:10646800D9FF27C1DAFFDECF28F1DDCF29F1020EEF
:1064780001012627000E2723010129AF5DD0030E55
:1064880001012A130101286D291FD8B0292B54D0E6
:1064980026C1D9FF27C1DAFFDECF28F1DDCF29F1E8
:1064A800020E01012627000E272346D0010E010106
:1064B8002D6F050E01012D19D8B448D001D046D052
:1064C80001012D51020D690EF324F66EFE0EF42023
:1064D800F76E0900F5500101285D0900F55001012A
:1064E8002959D8A033D001D031D001012D2BE1D7C3
:1064F8002DD0010E01012D6F040E01012D19D8B404
:1065080025D001D023D001012D51020D7B0EF3249B
:10651800F66EFE0EF420F76E0900F5500101285DB5
:106528000900F55001012959D8A010D001D00ED08A
:1065380001012D2BE1D70AD001012A51800B000A55
:10654800D8B4B4D7800AD8B4D4D700D001012B511D
:1065580001012C11D8B40CD02AC11CF1030E010181
:106568001C17D8B405D001012B07D8A02C0700D0E0
:10657800800E01012DBF7F0E01011C6F01012B51FF
:1065880001012D5D01012C51800A01011C59D8B06F
:106598000BD001012D5101012B5F000E01012DBF10
:1065A800FF0E01012C5B06D0000E01012C6F000EBE
:1065B8002B6F00D001012AA520D02AC11CF1030E9F
:1065C80001011C17D8B404D02D0E17EC77F000D0B9
:1065D80001012B5101012C11D8B42FD0300E17EC2A
:1065E80077F001012B07D8A02C0701012B510101DD
:1065F8002C11D8B422D0F2D720D001012B5101019F
:106608002C11D8B40FD0200E17EC77F001012B070E
:10661800D8A02C0701012B5101012C11D8B402D0AC
:10662800F2D700D02AC11CF1030E01011C17D8B4FF
:1066380004D02D0E17EC77F000D02DC125F15DD0D8
:106648004DD001012551020D690EF324F66EFE0EA0
:10665800F420F76E0900F5CF08F10A00F5CF09F12B
:1066680028C106F129C107F117EC6DF006C10DF13B
:1066780007C10EF1000E0101106F0A0E0F6F26EC14
:1066880070F001010D51300F01012D6F31D028C17B
:1066980006F129C107F101012551020D7B0EF324F2
:1066A800F66EFE0EF420F76E0900F5CF08F10A0029
:1066B800F5CF09F117EC6DF0010106510F0B01013F
:1066C800206F01012051010D690EF324F66EFF0EB3
:1066D800F420F76E0800F5CF2DF10AD001012A51F8
:1066E800800B000AD8B4ADD7800AD8B4D0D700D070
:1066F80001012D5117EC77F000D0010125070101A8
:106708002529D8B402D0EAD700D012C1F6FF13C1A8
:10671800F7FF0101124B132B0800F5CF2DF10101F2
:106728002D51D8B41200A5D5120012006E0E00012A
:10673800786F000E0001796F4CD2250E00017F1989
:10674800D8B405D000017F5137EC77F042D2000E63
:1067580000017E6F000E7D6F000E00017C6F07D078
:1067680000017C8500016C4B6D2B01D00BD06CC0F7
:10677800F6FF6DC0F7FF0800F550300AD8B4F0D71F
:1067880001D0F5D76CC0F6FF6DC0F7FF0800F550D3
:1067980075EC75F0D8A0A5D0000E00017E6F000E34
:1067A8007D6F00D07DC060F07EC061F0000E0001FA
:1067B800636F0A0E626F95EC74F060C07DF061C083
:1067C8007EF0D00E00016E6FFF0E00016F6F6CC07F
:1067D800F6FF6DC0F7FF0800F5500001706F716B90
:1067E80000016E510001702700016F5100017123F3
:1067F8000001705100017D270001715100017E23C5
:1068080000016C4B6D2B6CC0F6FF6DC0F7FF0800E4
:10681800F55075EC75F0D8A064D0C4D762D01200DA
:106828007FD000D000017C8F7BD000017D5100011A
:10683800755D00017E5100017659D8B009D000017C
:10684800755100017D5F0001765100017E5B0AD021
:10685800000E00017E6F000E7D6F04D0200E37EC15
:1068680077F000D000017D07D8A07E0700017D29C0
:10687800F5E100017E29D8B40DD0F0D70BD073C054
:10688800D9FF74C0DAFFDF5037EC77F00001734BA3
:10689800742B00D000017507D8A076070001752970
:1068A800EEE100017629D8B494D1E9D792D178C025
:1068B800D9FF79C0DAFFDF5000017F6F020E0001B7
:1068C8007827000E792300D07F0E0001736F000E29
:1068D8000001746F000E0001766F010E756FA5D769
:1068E8001FD06CC0F6FF6DC0F7FF00016C4B6D2B1D
:1068F8000800F5CF7FF000017F51000AD8B41200DC
:10690800580AD8B48FD73B0AD8B4D1D7070AD8B415
:1069180007D00D0AD8B404D0110AD8B483D7D4D775
:1069280000017CBF19D078C0D9FF79C0DAFFDECF6B
:106938007AF0DDCF7BF0020E00017827000E792374
:1069480000017BAF5DD0030E00017C1300017A6D5E
:106958007B1FD8B07B2B54D078C0D9FF79C0DAFF21
:10696800DECF7AF0DDCF7BF0020E00017827000E33
:10697800792346D0010E00017F6F050E00017F19B3
:10698800D8B448D001D046D000017F51020D690E1D
:10699800F324F66EFE0EF420F76E0900F5500001A0
:1069A8007A5D0900F55000017B59D8A033D001D099
:1069B80031D000017F2BE1D72DD0010E00017F6F70
:1069C800040E00017F19D8B425D001D023D00001CE
:1069D8007F51020D7B0EF324F66EFE0EF420F76E47
:1069E8000900F55000017A5D0900F55000017B5956
:1069F800D8A010D001D00ED000017F2BE1D70AD04B
:106A080000017C51800B000AD8B4B4D7800AD8B4EE
:106A1800D4D700D000017D5100017E11D8B40CD02C
:106A28007CC06EF0030E00016E17D8B405D00001CB
:106A38007D07D8A07E0700D0800E00017FBF7F0EA3
:106A480000016E6F00017D5100017F5D00017E51E4
:106A5800800A00016E59D8B00BD000017F510001A7
:106A68007D5F000E00017FBFFF0E00017E5B06D038
:106A7800000E00017E6F000E7D6F00D000017CA526
:106A880020D07CC06EF0030E00016E17D8B404D07D
:106A98002D0E37EC77F000D000017D5100017E11FA
:106AA800D8B42FD0300E37EC77F000017D07D8A08E
:106AB8007E0700017D5100017E11D8B422D0F2D7A3
:106AC80020D000017D5100017E11D8B40FD0200ED6
:106AD80037EC77F000017D07D8A07E0700017D51D3
:106AE80000017E11D8B402D0F2D700D07CC06EF07D
:106AF800030E00016E17D8B404D02D0E37EC77F0D2
:106B080000D07FC077F05DD04DD000017751020DE5
:106B1800690EF324F66EFE0EF420F76E0900F5CF29
:106B280062F00A00F5CF63F07AC060F07BC061F0D4
:106B380099EC6DF060C067F061C068F0000E00016C
:106B48006A6F0A0E696F5CEC70F000016751300FD4
:106B580000017F6F31D07AC060F07BC061F0000126
:106B68007751020D7B0EF324F66EFE0EF420F76EBD
:106B78000900F5CF62F00A00F5CF63F099EC6DF0EB
:106B8800000160510F0B0001726F00017251010D7D
:106B9800690EF324F66EFF0EF420F76E0800F5CFA9
:106BA8007FF00AD000017C51800B000AD8B4ADD721
:106BB800800AD8B4D0D700D000017F5137EC77F0E5
:106BC80000D00001770700017729D8B402D0EAD7AE
:106BD80000D06CC0F6FF6DC0F7FF00016C4B6D2B49
:106BE8000800F5CF7FF000017F51D8B41200A5D579
:106BF80012001200D0D101018605D8A4D8D1570EB1
:106C08000101126FFF0E0101136F36EC31F0020E15
:106C1800010180250101186F000E01018121010188
:106C2800196F000E01011A6F36EC46F0040E0CECD9
:106C380076F00009D8A411D0040EDCEC73F000093A
:106C4800D8A40BD0000E0101276F010E266F000E8D
:106C58000101286F040E48EC6CF0000E0CEC76F085
:106C68000009D8B40CD0130E0101276F880E266FC7
:106C7800000E0101286F000E48EC6CF000D0010EE8
:106C88000001B26F94D1430E01018619D8A43ED0F9
:106C9800010120EE03F08051D9268151DA22DF501C
:106CA8000101886F010188510101AF6FB06B0101CB
:106CB800AF510101B06FAF6B010120EE02F08051BE
:106CC800D9268151DA22DF500101886F01018851EC
:106CD8000101AF27000EB023010E0101C36F010EA1
:106CE8000101276F2C0E266F010E0101286F140E6B
:106CF80048EC6CF0A6EC43F083C118F184C119F19B
:106D0800000E01011A6F36EC46F051D1440E010114
:106D18008619D8A4B5D0010120EE02F08051D926F9
:106D28008151DA22DF500101886F01018851010188
:106D3800FD6FFE6B0101FD51FE6FFD6B010120EE41
:106D480003F08051D9268151DA22DF500101886F82
:106D5800010188510101FD27000EFE23010120EEEB
:106D680004F08051D9268151DA22DF500101886F61
:106D7800010188510201F46FF56B0201F451F56FBE
:106D8800F46B010120EE05F08051D9268151DA22F9
:106D9800DF500101886F010188510201F427000EBC
:106DA800F523010120EE06F08051D9268151DA221F
:106DB800DF500101886F010188510201F66FF76BFE
:106DC8000201F651F76FF66B010120EE07F08051D2
:106DD800D9268151DA22DF500101886F01018851DB
:106DE8000201F627000EF723BAEC78F0030E010132
:106DF800016FEC0E006FFDC102F1C6EC72F0BAEC47
:106E080078F0030E0101016FED0E006FFEC102F173
:106E1800C6EC72F0BAEC78F0030E0101016FEE0EC9
:106E2800006FF4C202F1C6EC72F0BAEC78F0030E0F
:106E38000101016FF10E006FF5C202F1C6EC72F0AC
:106E4800BAEC78F0030E0101016FF20E006FF6C282
:106E580002F1C6EC72F0BAEC78F0030E0101016F92
:106E6800F30E006FF7C202F1C6EC72F083C118F19D
:106E780084C119F1000E01011A6F36EC46F097D063
:106E8800420E01018619D8A469D0020E01018A6F49
:106E9800040E01018A6501D052D001018751010118
:106EA8008A5DD8B049D001018A51010DF350010122
:106EB8008025D96EF45001018121DA6EDF50D8A403
:106EC80017D08AC188F1FE0E01018827010E010141
:106ED800896F0101882B03D00101D89089370101FE
:106EE800882FFAD701018951FF0A0101D11724D04F
:106EF80001018A51010DF35001018025D96EF4502A
:106F080001018121DA6EDE04D8A416D08AC188F185
:106F1800FE0E01018827010E0101896F0101882BEE
:106F280003D00101D89089370101882FFAD70101D0
:106F380089510101D11300D001018A2BA9D7D1C1F0
:106F480003F1010E3DEC74F083C118F184C119F10D
:106F5800000E01011A6F36EC46F029D0450E0101EA
:106F68008619D8A424D0140E0101C86F83C118F162
:106F780084C119F1000E01011A6F36EC46F017D0E2
:106F8800890E0101126FFF0E0101136F36EC31F00B
:106F9800010E12000CD001018551010AD8B4F0D7B6
:106FA8001F0AD8B428D6010AD8B46DD600D083C138
:106FB800D9FF84C1DAFFDF50D8A42AD0010120EE1E
:106FC80001F08351D9268451DA22DF50D8A420D089
:106FD800010120EE02F08351D9268451DA22DF50D4
:106FE800D8A416D0010120EE03F08351D92684518C
:106FF800DA22100EDF600CD0010E0101276F2C0E73
:10700800266F010E0101286F130E48EC6CF000D0BA
:10701800000E120012000101046F01010451020167
:107028004E2502014E6F000E02014F2102014F6FE3
:10703800000E0101056F160E0101056501D072D021
:1070480001010551010D000EF324D96E030EF42041
:10705800DA6EDF50D8A463D001010551020D000E8D
:10706800F324D96E020EF420DA6E010104510101F5
:10707800026F036B010E01010227000E0323DE508D
:107088000101025DDE5001010359D8B02DD0010184
:107098000551020D000EF324D96E020EF420DA6EAB
:1070A800DECF00F1DDCF01F1010104510101026FD2
:1070B800036B0101021F031F024B032B0101005147
:1070C80001010227010101510101032301010551B9
:1070D800020D000EF324D96E020EF420DA6E02C1FE
:1070E800DEFF03C1DDFF1BD001010551020D000EBB
:1070F800F324D96E020EF420DA6EDE50DE10D8B416
:107108000ED001010551020D000EF324D96E020EB6
:10711800F420DA6E010EDE6E000EDD6E00D0010185
:10712800052B89D7E80E02014E5D030E02014F5967
:10713800D8A01200180E02014E2502014E6FFC0E57
:1071480002014F2102014F6F482A000E0101066F0C
:10715800160E0101066501D063D001010651010D2B
:10716800000EF324D96E030EF420DA6EDE04D8A4E0
:1071780054D001010651020D000EF324D96E020EFF
:10718800F420DA6E010EDB5004E1020EDE5CD8A0BA
:1071980029D0FF0E0101006FFF0E0101016F0101EF
:1071A8000651020D000EF324D96E020EF420DA6E99
:1071B800DECF02F1DDCF03F1010100510101022709
:1071C800010101510101032301010651020D000EC5
:1071D800F324D96E020EF420DA6E02C1DEFF03C179
:1071E800DDFF1BD001010651020D000EF324D96EFC
:1071F800020EF420DA6EDE50DE10D8B40ED0010193
:107208000651020D000EF324D96E020EF420DA6E38
:10721800010EDE6E000EDD6E00D00101062B98D740
:107228003B0E486412004850C40F486E442A000EB2
:107238000101076F160E0101076501D064D0010135
:107248000751010D000EF324D96E030EF420DA6EF7
:10725800020EDE18D8A454D001010751020D000E09
:10726800F324D96E020EF420DA6E010EDB5004E12D
:10727800020EDE5CD8A029D0FF0E0101006FFF0EC0
:107288000101016F01010751020D000EF324D96EAF
:10729800020EF420DA6EDECF02F1DDCF03F1010138
:1072A80000510101022701010151010103230101DC
:1072B8000751020D000EF324D96E020EF420DA6E87
:1072C80002C1DEFF03C1DDFF1BD001010751020D22
:1072D800000EF324D96E020EF420DA6EDE50DE10B2
:1072E800D8B40ED001010751020D000EF324D96E57
:1072F800020EF420DA6E010EDE6E000EDD6E00D096
:107308000101072B97D73B0E446412004450C40F69
:10731800446E000E0101086F160E0101086502D0C7
:107328001200120001010851010D000EF324D96E5C
:10733800030EF420DA6E030EDE18D8A454D001012F
:107348000851020D000EF324D96E020EF420DA6EF5
:10735800010EDB5004E1020EDE5CD8A029D0FF0E3E
:107368000101006FFF0E0101016F01010851020DBB
:10737800000EF324D96E020EF420DA6EDECF02F18D
:10738800DDCF03F101010051010102270101015183
:107398000101032301010851020D000EF324D96EE7
:1073A800020EF420DA6E02C1DEFF03C1DDFF1BD03E
:1073B80001010851020D000EF324D96E020EF420CB
:1073C800DA6EDE50DE10D8B40ED001010851020D7D
:1073D800000EF324D96E020EF420DA6E010EDE6E72
:1073E800000EDD6E00D00101082B160E01010865A4
:1073F80099D7120012001200030E0101016F0069F3
:1074080072EC77F00101186F01011805D8A440D07B
:10741800000E01011E6F000E1D6F01011EBF0AD074
:10742800F00E01011D5D030E01011E59D8B011D0E7
:1074380001D00FD0BAEC78F01DC100F11EC101F1E6
:10744800FF0E0101026FC6EC72F001011D4B1E2BED
:10745800E4D7030E01011E6FF40E1D6F01011EBF5C
:1074680007D0040E01011E5DD8B012D001D010D093
:10747800BAEC78F01DC100F11EC101F1FF0E010147
:10748800026FC6EC72F001011D4B1E2BE7D700D02E
:10749800010E0101186504D001011829D8A40CD0E7
:1074A800BAEC78F0030E0101016F0069020E0101C8
:1074B800026FC6EC72F000D0000E01011A6F030EC5
:1074C80001011A6501D018D001011A51010DF90EF8
:1074D800F324D96E010EF420DA6EE80E01011A25A4
:1074E8000101006F0101016B030E012372EC77F0BB
:1074F800DF6E01011A2BE3D70101F929D8A419D0AD
:107508000101FA29D8A415D00101FB29D8A411D06A
:107518000101FC29D8A40DD0000E0101F96F000E5D
:107528000101FA6F000E0101FB6F020E0101FC6FF1
:1075380000D0030E0101016FEF0E006F72EC77F0BF
:107548000101176F01011729D8A404D0080E010101
:10755800176F00D0010117517FEC78F00201E22982
:10756800D8A451D00201E329D8A44DD00201E429BE
:10757800D8A449D00201E529D8A445D0899E4B0E4C
:107588007DEC76F0000E7DEC76F0000E7DEC76F06A
:10759800000E7DEC76F0000E7DEC76F0000E010119
:1075A8001B6F2BD02ED0A9EC77F0010100510101FF
:1075B800136F030E01011B651ED0FC0E0101076F3E
:1075C800FF0E0101086F01011B510101096F0A6BD0
:1075D80001010751010109270101085101010A238D
:1075E800E20E01010925D96E020E01010A21DA6EA7
:1075F80013C1DFFF00D001011B2B070E01011B6522
:10760800D2D7898E00D0000E01011C6F070E010130
:107618001C6501D018D001011C51010D0B0EF3247B
:10762800D96E010EF420DA6EF40E01011C25010159
:10763800006F0101016B030E012372EC77F0DF6E1E
:1076480001011C2BE3D70B0E0101006F010E010194
:10765800016F4DEC6AF0030E0101016FFC0E006F23
:1076680072EC77F00101196F01011929D8A418D01B
:10767800BAEC78F0030E0101016FFC0E006F000EEA
:107688000101026FC6EC72F0000EC3EC77F0D80E61
:107698000101146F14C102F13C0ECCEC74F01ED041
:1076A800010119510101D8A40CD0000EC3EC77F0E8
:1076B800D80E0101156F15C102F13C0ECCEC74F027
:1076C8000DD001011951C3EC77F0DC0E0101166FE2
:1076D80016C102F13C0ECCEC74F000D0030E01018F
:1076E800016FFD0E006F72EC77F0FF0AD8B40BD073
:1076F80001D009D0030E0101016FFD0E006F72EC7D
:1077080077F0C3EC76F0030E0101016FFE0E006FF7
:1077180072EC77F0FF0AD8A403D00001CC691200FC
:10772800030E0101016FFE0E006F72EC77F000018D
:10773800CC6F12001200010120EE01F02F51D92662
:107748003051DA222FC1E1FF30C1E2FFDE50E618E6
:10775800D8A41200010120EE02F02F51D926305191
:10776800DA22010110EE01F02F51E1263051E22218
:10777800DE50E618D8A41200010120EE02F02F51C5
:10778800D9263051DA22DE28D8B412002FC1D9FF09
:1077980030C1DAFFDF500101336F010133A14CD052
:1077A800010120EE04F02F51D9263051DA220101CF
:1077B80010EE03F02F51E1263051E222DE50E61898
:1077C800D8A43AD0010120EE05F02F51D926305126
:1077D800DA22010110EE04F02F51E1263051E222A5
:1077E800DE50E618D8A428D0010120EE05F02F516C
:1077F800D9263051DA22DE28D8B41ED0BAEC78F077
:10780800030E0101016FFD0E006F010120EE03F070
:107818002F51D9263051DA22DF500101026FC6EC10
:1078280072F0010120EE03F02F51D9263051DA22EF
:10783800DF50C3EC76F000D0010133A342D0010140
:1078480020EE07F02F51D9263051DA22010110EE2F
:1078580006F02F51E1263051E222DE50E618D8A476
:1078680030D0010120EE08F02F51D9263051DA220C
:10787800010110EE07F02F51E1263051E222DE50CF
:10788800E618D8A41ED0BAEC78F0030E0101016FF7
:10789800FE0E006F010120EE06F02F51D92630515F
:1078A800DA22DF500101026FC6EC72F0010120EE0E
:1078B80006F02F51D9263051DA22DF5030EC72F021
:1078C80000D0010133A54CD0010120EE0AF02F5160
:1078D800D9263051DA22010110EE09F02F51E126A4
:1078E8003051E222DE50E618D8A43AD0010120EE49
:1078F8000BF02F51D9263051DA22010110EE0AF08F
:107908002F51E1263051E222DE50E618D8A428D0C3
:10791800010120EE0BF02F51D9263051DA22DE2852
:10792800D8B41ED0BAEC78F0030E0101016FFC0E3A
:10793800006F010120EE09F02F51D9263051DA22CB
:10794800DF500101026FC6EC72F0010120EE09F070
:107958002F51D9263051DA22DF50C3EC77F000D00E
:10796800010133A71200010120EE0DF02F51D92695
:107978003051DA22010110EE0CF02F51E12630517E
:10798800E222DE50E618D8A41200010120EE0EF023
:107998002F51D9263051DA22010110EE0DF02F5166
:1079A800E1263051E222DE50E618D8A41200010187
:1079B80020EE0EF02F51D9263051DA22DE28D8B425
:1079C8001200BAEC78F0030E0101016FEF0E006FA0
:1079D800010120EE0CF02F51D9263051DA22DF5068
:1079E8000101026FC6EC72F0010120EE0CF02F517C
:1079F800D9263051DA22DF507FEC78F012001200DD
:107A0800400E0101286F000E0101296F3E0E010191
:107A1800296501D0D7D001012951060DBD0EF324E7
:107A28000101066F0A0EF4200101076F21C108F158
:107A380022C109F1040E01010A6F89EC71F00009F5
:107A4800D8B4A0D001012951060D040EF326000E6A
:107A5800F422BD0EF324D96E0A0EF420DA6EDF503C
:107A68000F0B0F0AD8A440D0010124510101D8B44A
:107A78003BD0462A01012951060D040EF326000EBB
:107A8800F422BD0EF324D96E0A0EF420DA6EDF90CC
:107A9800DF92DF94DF9623C100F101012951A7ECA1
:107AA80062F0020E01012419D8B41AD0030E0101A4
:107AB800086F0101235107EC47F00101266F21C12E
:107AC80015F122C116F129C117F1010E0101186F34
:107AD80026C119F1000E01011A6FBBEC1DF000D090
:107AE8000101295112006BD001012951060D040E24
:107AF800F326000EF422BD0EF324D96E0A0EF420EC
:107B0800DA6EDF500F0B0F0AD8B439D001012951B2
:107B1800060D040EF326000EF422BD0EF324D96ED2
:107B28000A0EF420DA6EDF90DF92DF94DF9623C12D
:107B380000F101012951A7EC62F0020E010124199C
:107B4800D8B4CED7030E0101086F0101235107EC09
:107B580047F00101266F21C115F122C116F129C193
:107B680017F1010E0101186F26C119F1000E01016C
:107B78001A6FBBEC1DF0B4D7B3D7120020D0FF0E9C
:107B880012001DD001012951060DBD0EF32401017B
:107B9800066F0A0EF4200101076FE10E0101086F5C
:107BA800010E0101096F040E01010A6F89EC71F0E1
:107BB8000009D8B404D029C128F104D000D00101AB
:107BC800292B24D73E0E0101286521D0000E010182
:107BD800276F3E0E0101276501D019D001012751F9
:107BE800060D040EF326000EF422BD0EF324D96E02
:107BF8000A0EF420DA6EDF500F0B0F0AD8A403D058
:107C080027C128F104D00101272BE3D700D03F0E6C
:107C18000101286154D0010124510101D8B44FD089
:107C280021C106F122C107F101012851060DBD0E3F
:107C3800F3240101086F0A0EF4200101096F040EF4
:107C480001010A6F56EC72F001012851060D040E6D
:107C5800F326000EF422BD0EF324D96E0A0EF4208A
:107C6800DA6EDF90DF92DF94DF9623C100F1010125
:107C78002851A7EC62F0462A020E01012419D8B453
:107C88001AD0030E0101086F0101235107EC47F0D8
:107C98000101266F21C115F122C116F128C117F182
:107CA800010E0101186F26C119F1000E01011A6FAA
:107CB800BBEC1DF000D001012851120000D0FF0ECE
:107CC80012001200000E0101126F000E116F010167
:107CD80012BF0AD00101125106E13F0E0101115DE8
:107CE800D8B082D001D080D0E10E0101066F010E1C
:107CF8000101076F11C100F112C101F1000E01016C
:107D0800036F060E026F79EC74F0BD0E01010025B9
:107D18000101086F0A0E010101210101096F040E1A
:107D280001010A6F56EC72F011C100F112C101F1A4
:107D3800000E0101036F060E026F79EC74F0040E59
:107D480001010027000E01010123BD0E01010025DC
:107D5800D96E0A0E01010121DA6EDF80DF82DF842D
:107D6800DF8611C100F112C101F1000E0101036F9C
:107D7800060E026F79EC74F0040E01010027000E64
:107D880001010123BD0E01010025D96E0A0E010172
:107D98000121DA6EDF88DF8ADF8CDF8E11C100F106
:107DA80012C101F1000E0101036F060E026F79EC9A
:107DB80074F0050E01010027000E01010123BD0E1C
:107DC80001010025D96E0A0E01010121DA6EFF0EAC
:107DD800DF6E0101114B122B010112BF85D7010182
:107DE800125102E17AD700D0000E02017B6F000E1B
:107DF8000101126F000E116F010112BF0AD00101BB
:107E0800125166E1FA0E0101115DD8B061D001D0BE
:107E18005FD011C10FF112C110F1D89001010F37D5
:107E28001037010E01010F27000E1023C90E0101A2
:107E38000F25D96E080E01011021DA6EDF80DF826E
:107E4800DF84DF86DF88E10E0101076F010E010183
:107E5800086F01011151BBEC6BF011C10FF112C198
:107E680010F1D89001010F371037010E01010F27CB
:107E7800000E1023C90E01010F25D96E080E01014D
:107E88001021DA6EDF8ADF8CDF8ED8900101113580
:107E9800D96E01011235DA6EC90ED926080EDA221A
:107EA800DF80DF82DF84DF86DF88DF8AD890010108
:107EB8001135D96E01011235DA6EC90ED926080EB0
:107EC800DA223F0EDF160101114B122B95D700D095
:107ED800E10E0101066F010E0101076FE60E0101B7
:107EE800086F020E0101096F040E01010A6F56ECBA
:107EF80072F00201DD69000E0201846F030E0201B7
:107F0800856F000E0201AC6F000E0201AE6F020E0B
:107F18000201AF6F000E0201B06F010E0101F06F98
:107F2800000E0101E06F000E0101D46F1200010183
:107F3800166F0201DB510201D8B42CD0240E0101C6
:107F48001619D8A423D00201772B020E0201771943
:107F5800D8A41AD1000E0201DB6F010E02016F6F67
:107F6800000E02016D6F000E0201706F000E02011B
:107F7800716F010E02016E6F000E0001C36F000EDB
:107F88000201776F000E0201766FFED0000E02012B
:107F9800776FFAD002016E510201D8B4DFD0020126
:107FA8006F510201D8B407D016C1CEF0000E0201FD
:107FB8006F6F010E06D002016D510201D8B404D0D2
:107FC800000E02016D6F5DD00001C3510101106FF9
:107FD800116BFE0E0101126FFF0E0101136F0001FC
:107FE800CE510101146F156B0101125101011427C3
:107FF8000101135101011523010110510101141947
:108008000FE10101115101011519D8A409D00D0E74
:1080180001011619D8A435D0010E0201706F31D0B4
:108028000001C3510101106F116BFF0E0101126FA6
:10803800FF0E0101136F0001CE510101146F156B82
:1080480001011251010114270101135101011523E6
:1080580001011051010114190FE101011151010130
:108068001519D8A409D00A0E01011619D8A409D0E7
:10807800010E0201716F05D0010116510201761B34
:1080880000D00001C351010D800EF324D96E050EF6
:10809800F420DA6E16C1DFFF0001C32B0001C351C3
:1080A8000001CE19D8A43DD0000E02016E6F0EC19A
:1080B800D9FF0FC1DAFFC3C0DFFF800E0101066FD1
:1080C800050E0101076F0CC108F10DC109F1C3C00C
:1080D8000AF156EC72F0010E0201DB6F000E02018C
:1080E800776F020176510201D8B405D0000E020163
:1080F800766F000E1200020170510201D8B40BD045
:10810800020171510201D8B406D0000E0201766F47
:10811800010E120039D0000E0201766F1CD0120039
:1081280033D03E0E0001C3652FD0010E0201DB6F74
:10813800000E0201776F000E0001C36F000E0201EE
:108148006F6F000E02016D6F000E0201706F000E5E
:108158000201716FE0D7000E120016D0010E020165
:10816800DB6F000E0201776F000E0201766F000EC2
:1081780002016F6F000E0201706F000E0201716F35
:10818800000E02016D6F00D0000E12001200000EEA
:108198000101126F000E116F010112BF0AD0010117
:1081A800125106E1FA0E0101115DD8B0E8D001D0F4
:1081B800E6D00BC104F10CC105F10101115127EC06
:1081C8005DF00009D8B4D0D011C10FF112C110F17F
:1081D800D89001010F371037010E01010F27000E4B
:1081E8001023C90E01010F25D96E080E01011021B7
:1081F800DA6EDF501F0B1F0AD8B4A6D0D890010141
:108208001135D96E01011235DA6EC90ED926080E5C
:10821800DA22DF503F0B01010F6F01010F51060DEC
:10822800BD0EF324D96E0A0EF420DA6E0DC1E1FFFB
:108238000EC1E2FFDFCFE7FFD89001011135D96EFB
:1082480001011235DA6EC90ED926080EDA22DF507E
:108258003F0B01010F6F01010F51060D010EF326AF
:10826800000EF422BD0EF324D96E0A0EF420DA6E45
:10827800010110EE01F00D51E1260E51E222DFCF8F
:10828800E7FFD89001011135D96E01011235DA6E78
:10829800C90ED926080EDA22DF503F0B01010F6FF5
:1082A80001010F51060D020EF326000EF422BD0E39
:1082B800F324D96E0A0EF420DA6E010110EE02F0F2
:1082C8000D51E1260E51E222DFCFE7FFD8900101E0
:1082D8001135D96E01011235DA6EC90ED926080E8C
:1082E800DA22DF503F0B01010F6F01010F51060D1C
:1082F800030EF326000EF422BD0EF324D96E0A0EE7
:10830800F420DA6E010110EE03F00D51E1260E5152
:10831800E222DFCFE7FF11C10FF112C110F1D890AF
:1083280001010F371037010E01010F27000E10232E
:10833800C90E01010F25D96E080E01011021DA6E50
:10834800DF501F0B120010D0D89001011135D96EE3
:1083580001011235DA6EC90ED926080EDA223F0E4F
:10836800DF161F0E120000D00101114B122B010164
:1083780012BF1FD70101125102E114D700D01F0EFE
:1083880012001200000E01010F6F000E0E6F0101A6
:108398000FBF0AD001010F5106E13F0E01010E5D2A
:1083A800D8B0D4D001D0D2D006C1D9FF07C1DAFFE6
:1083B8000EC100F10FC101F1000E0101036F060E9D
:1083C800026F79EC74F0BD0E01010025E16E0A0E12
:1083D80001010121E26EDE50E618D8A4ACD00101FB
:1083E80020EE01F00651D9260751DA220EC100F11C
:1083F8000FC101F1000E0101036F060E026F79EC47
:1084080074F0010E01010027000E01010123BD0EC9
:1084180001010025E16E0A0E01010121E26EDE5024
:10842800E618D8A488D0010120EE02F00651D9261A
:108438000751DA220EC100F10FC101F1000E01014E
:10844800036F060E026F79EC74F0020E010100272B
:10845800000E01010123BD0E01010025E16E0A0E87
:1084680001010121E26EDE50E618D8A464D00101B2
:1084780020EE03F00651D9260751DA220EC100F189
:108488000FC101F1000E0101036F060E026F79ECB6
:1084980074F0030E01010027000E01010123BD0E37
:1084A80001010025E16E0A0E01010121E26EDE5094
:1084B800E618D8A440D00EC100F10FC101F1000E9A
:1084C8000101036F060E026F79EC74F0050E0101CD
:1084D8000027000E01010123BD0E01010025D96E00
:1084E8000A0E01010121DA6E08C1E1FF09C1E2FFAC
:1084F800DFCFE7FF0EC100F10FC101F1000E01014E
:10850800036F060E026F79EC74F0040E0101002768
:10851800000E01010123BD0E01010025D96E0A0ECE
:1085280001010121DA6EDF380F0B0AC1D9FF0BC137
:10853800DAFFDF6E120001010E4B0F2B01010FBF96
:1085480033D701010F5102E128D700D008C1D9FF64
:1085580009C1DAFFFF0EDF6E0AC1D9FF0BC1DAFFCE
:108568000F0EDF6E120012003950D8B4D9D00201B4
:108578007451D8B410D0000E0201746F000E0001BF
:10858800D16F000E0001D26F000E396E000E00018F
:10859800CF6F000E120002017251D8A40DD0000E48
:1085A8000001D16F000E0001D26F000E396E000E6F
:1085B8000001CF6F000E12000001D251FD0F10C153
:1085C800D9FF11C1DAFFDF6E000E0101186F400EEE
:1085D8000001D2650DD0000E0001D16F000E000120
:1085E800D26F000E396E000E0001CF6F000E120020
:1085F800020E0101196F11D001011951010DA70EC9
:10860800F324D96E040EF420DA6EDF500101181934
:108618000101186F0101192B00D00001D25101018D
:10862800195DD8A0E9D7010118510101D8B40DD0BE
:10863800000E0001D16F000E0001D26F000E396EDE
:10864800000E0001CF6F000E120010C1D9FF11C13A
:10865800DAFF3D0EDF640DD0000E0001D16F000E71
:108668000001D26F000E396E000E0001CF6F000EB0
:10867800120010C1D9FF11C1DAFFDF500101126FDA
:10868800136BFD0E0101146FFF0E0101156F000140
:10869800D2510101166F176B010114510101162700
:1086A8000101155101011723010112510101161988
:1086B80006E10101135101011719D8B40DD0000EBC
:1086C8000001D16F000E0001D26F000E396E000E4E
:1086D8000001CF6F000E1200A70E0101006F040EFB
:1086E8000101016F020E0101026F0EC103F10FC1FA
:1086F80004F1000E0101056F10C1D9FF11C1DAFFA5
:10870800DF500101066F9AEC6AF0000E0001D16F8C
:10871800000E0001D26F000E396E010E12000FD04C
:108728003950D8B40CD0000E0001D16F000E0001F2
:10873800D26F000E396E000E0001CF6F00D0000E10
:10874800120012000001D351D8A4120001D0120067
:10875800AEEC69F00DC1B1F10EC1B2F10001BF512B
:108768000001D8B403D00001BF0700D00101C351F4
:108778000101D8B412000F0E0101B1250101146FD7
:10878800000E0101B2210101156F0101AF51010174
:10879800145D0101B05101011559D8B038D000015C
:1087A800D8510001D8A40DD0020E0001D86F020ED6
:1087B8000101036F010E3DEC74F0500E0001BF6F14
:1087C80012000001C0510001D8B412D00001BF51FD
:1087D8000001D8A40DD0000E0101036F010E3DEC7D
:1087E80074F0000E0001C06F100E0001BF6F120080
:1087F8000001BF510001D8A41200010E0101036F4E
:10880800010E3DEC74F0010E0001D86F1200F10E5C
:108818000101146FFF0E0101156FB1C116F1B2C14C
:1088280017F1010114510101162701011551010128
:108838001723010116510101AF5D01011751010113
:10884800B059D8B037D00001D805D8A40DD0020E41
:108858000001D86F000E0101036F010E3DEC74F0AA
:10886800500E0001BF6F12000001C0510001D8A4D2
:1088780012D00001BF510001D8A40DD0020E010191
:10888800036F010E3DEC74F0010E0001C06F100E75
:108898000001BF6F12000001BF510001D8A41200EF
:1088A800030E0101036F010E3DEC74F0000E000190
:1088B800D86F12000001D8510001D8A40DD0020EC3
:1088C8000001D86F020E0101036F010E3DEC74F038
:1088D800500E0001BF6F12000001BF510001D8A463
:1088E8001200000E0101036F010E3DEC74F0000E42
:1088F8000001C06F020E0001D86F000E0101C36FA6
:108908001200120002017B51D8A4D2D00201AD514D
:10891800D8A4CED07C0E0101066F020E0101076FAC
:10892800E60E0101086F020E0101096F040E010134
:108938000A6F56EC72F084C2DDF2060E02017B6FFC
:108948000EC106F10FC107F1800E0101086F020E7A
:108958000101096F040E01010A6F56EC72F0E50E71
:108968000101066F010E0101076F7C0E0101086FFE
:10897800020E0101096F040E01010A6F56EC72F034
:10898800FCEC77F00201846F000E0201B06F010168
:1089980015510101D8B402D0040E01D0030E020112
:1089A800856F00D0270E0101126156D00101C9510F
:1089B800D8B431D0010114510101D8B42CD0010E22
:1089C800010110250101006F000E010111210101B3
:1089D800016FFF0E010112250101026F0101036BF6
:1089E800FF0E03239DEC5BF00101166F050E0101DC
:1089F800176F0101D89016370101172FFAD7010117
:108A080016510201866F10C1D9FF11C1DAFFDF507C
:108A18000201862708D010C1D9FF11C1DAFFDF5043
:108A28000201866F00D010C100F111C101F1010EE1
:108A38000101026F860E0101036F020E0101046F2E
:108A4800010E0101056F010112050101066F9AEC83
:108A58006AF012C1ACF200D013C1ADF2010113519A
:108A68000101D8B403D0000E02017B6F0001BC5194
:108A7800D8A404D0000E0101DA6F18D0800E0101CD
:108A8800066F020E0101076FDE0E0101086F020E6C
:108A98000101096F040E01010A6F89EC71F00009E8
:108AA800D8B404D0020E02017B6F00D0010E120070
:108AB800000E120012000101146F000E0101166F62
:108AC800000E176F000E186F000E196F040E0101CB
:108AD8000F19D8A40BD00DC116F10EC117F1010161
:108AE800000E17BFFF0E186F196F54D001010F51F8
:108AF8000101D8A42FD00DC110F10EC111F1000E43
:108B0800010111BFFF0E126F136F0F0ED8900101F4
:108B18001037113712371337E82EF8D710C100F184
:108B280011C101F112C102F113C103F1E80E0101F3
:108B3800046F030E056F000E066F000E076F71ECD1
:108B480063F000C116F101C117F102C118F103C1A8
:108B580019F120D001010F05D8A41CD00DC110F1C6
:108B68000EC111F1000E010111BFFF0E126F136F3C
:108B78000F0ED89001011037113712371337E82E2E
:108B8800F8D710C116F111C117F112C118F113C1AC
:108B980019F100D016C110F117C111F118C112F165
:108BA80019C113F10101101F111F121F131F102BE0
:108BB800000E112312231323FF0E010110250101BA
:108BC800166FFF0E010111210101176F000E01013F
:108BD80012210101186F000E010113210101196F03
:108BE80001011405D8A40BD017C1CFFF16C1CEFFC1
:108BF8008C0ECD6E9F809E909D80CD8000D0030E00
:108C080001011419D8A40AD017C1B3FF16C1B2FFC5
:108C18008C0EB16EA292A192A082B1804050D8A4CD
:108C28001200010E406E000E0101156F160E0101B3
:108C3800156502D01200120001011551020D000E37
:108C4800F324D96E020EF420DA6E000EDE6E000EEA
:108C5800DD6E0101152B160E01011565EDD7120009
:108C680012001200000E01017F6FAAC055F1ABC0BF
:108C780056F1010E0101576F18C10BF119C10CF122
:108C8800590E01010D6F010E01010E6FCBEC40F082
:108C98000101586FCCC05DF160C25EF161C25FF145
:108CA800590E0101066F010E0101076F7D0E0101CA
:108CB800086F010E0101096F7E0E01010A6F010E96
:108CC80001010B6FC6EC41F07DC160F17EC161F11D
:108CD80018C10BF119C10CF1BDEC66F00101626F0E
:108CE800A6EC78F00101636FAEEC78F00101646FD7
:108CF8005CC265F15DC266F1ACC067F1ADC068F1F8
:108D08005EC269F15FC26AF1010E0101CA6F56C203
:108D18006BF157C26CF1F6C26DF1F7C26EF1F4C295
:108D28006FF1F5C270F181BA02D0010E01D0000EC8
:108D38000101716FB1C172F1B2C173F1AFC174F1C8
:108D4800B0C175F1FDC176F1FEC177F1ACC078F123
:108D5800ADC079F1FAC27AF1240E01017F6F0201E8
:108D6800FA6901011A510101D8B434D0570E010132
:108D7800006F010E0101016F000E0101026F1B0E51
:108D88000101036F010E0101046F140E0101056F4B
:108D98007FC106F19AEC6AF01B0E01010E6F010EFD
:108DA80001010F6F18C110F119C111F18AEC60F0BF
:108DB8001B0E0101046F010E0101056F01017F51B6
:108DC800140F0101066F000E0101076F020E21EC5E
:108DD8005FF0120018C10EF119C10FF1570E010111
:108DE800106F010E0101116F7FC112F1000E010118
:108DF800136F010E0101146F000E0101156F86EC4F
:108E080044F0120012000101116F030E010108194C
:108E1800D8A460D03C0E0101116102D0000E12D01E
:108E2800C30E010111250101006F0101016BFF0E45
:108E38000123000E0101036F050E026F3FEC62F083
:108E4800010100510101126F00D00101125101010D
:108E5800096F0A6BFF0E01010B6FFF0E01010C6F0A
:108E680008C10DF1010E01010E6F000E01010F6F17
:108E780001010D2B04D0D89001010E370F370101E5
:108E88000D2FF9D701010B5101010E2701010C51DA
:108E980001010F230101095101010E5D01010F516B
:108EA800800A0101106F01010A51800A010110595D
:108EB800D8B071D008C109F1010E01010A6F010192
:108EC800092B03D00101D8900A370101092FFAD7DD
:108ED8005DD061D0040E01010819D8A45CD0DC0E65
:108EE800010111250101006F0101016BFF0E012332
:108EF800000E0101036F050E026F3FEC62F00101E5
:108F080000510101126F010112510101096F0A6B31
:108F1800FF0E01010B6FFF0E01010C6F08C10DF16F
:108F2800010E01010E6F000E01010F6F01010D2BE3
:108F380004D0D89001010E370F3701010D2FF9D752
:108F480001010B5101010E2701010C5101010F23F1
:108F58000101095101010E5D01010F51800A010152
:108F6800106F01010A51800A01011059D8B013D0BD
:108F780008C109F1010E01010A6F0101092B03D093
:108F88000101D8900A370101092FFAD701010A0512
:108F98000101126F00D001011251120012000101EB
:108FA800066F010104510101D8B402D0200E01D08E
:108FB800600E0101056F9AD00101055102090301F4
:108FC800D06F630E0301D76F010106511B0F55D0F7
:108FD8000101055102090301D06F640E0301D76F27
:108FE80001010651040F49D0210E010106610BD081
:108FF800010105510A090301D06F650E0301D76FFE
:1090080006C1D8F381D0010105510A090301D06FC7
:10901800640E0301D76F01010651190F2ED074D0C9
:10902800010105510A090301D06F650E0301D76FCD
:1090380001010651210F21D00C0E010106610DD04E
:109048000101055102090301D06F630E0301D76FB7
:1090580001010651040DF350B9D70B0E0101066545
:109068000FD0190E010106610BD00101055102094B
:1090780012D0640E0301D76F11D00301D86F44D00A
:10908800180E0101066510D01F0E010106610CD0F3
:10909800010105510A090301D06FEBD7010106450B
:1090A800E846FC0BD00FE9D71E0E0101066509D072
:1090B800270E0101066105D00CD0650E0301D76F9C
:1090C8000ED0260E010106651FD0320E0101066181
:1090D8001BD0010105510A090301D06FEED7010128
:1090E8000645E846FC0B850FC8D70ED05050010A3C
:1090F800D8B462D7030AD8B46BD7010AD8B474D7E6
:10910800070AD8B48DD798D7D0C302F1000ECCEC9B
:1091180074F0D7C302F10E0ECCEC74F0D8C302F190
:10912800100ECCEC74F0120004004550D8A41200C4
:1091380001D012001AC145F0000E01011B6FB0D01A
:10914800000E0001C96F0001CF51D8A49DD03E0E7A
:109158000101196199D0010E0001CB6F0001CF51B7
:10916800D8B404D0000E0001CB6F95D0200E99EC36
:1091780056F00301DD5101090101026F1A0ECCEC12
:1091880074F0800E99EC56F001011951020FF2ECBF
:1091980077F00001B751F2EC77F0000E01011F6F74
:1091A80064D001011F51010DF35001011725D96E3B
:1091B800F45001011821DA6EDF5001011C6F010122
:1091C8001F05D8B410D0020E01011F19D8B40BD056
:1091D8000001C95101011C190001C96F01011C518D
:1091E800F2EC77F03FD001011F05D8A42BD0040E74
:1091F80001010C6F010E91EC5AF00001A25101011E
:109208000C2501011D6F0001A35101010D21010170
:109218001E6F01011E51F2EC77F001011E51000191
:10922800C9190001C96F01011D510201645D0101E5
:109238001E5102016559D8B015D01DC164F21EC176
:1092480065F210D0020E01011F19D8A40BD001013C
:109258001D51F2EC77F00001C95101011D190001FF
:10926800C96F00D001011F2B00D001011951010164
:109278001F5DD8A096D70001C951F2EC77F0040021
:10928800010E0001D36F09D03D0E0101196501D00F
:1092980002D00001CF51450600D001011B2B00D0A0
:1092A80001011A5101011B5DD8A04AD71200020121
:1092B8007B51D8A4BBD00201AD51D8A4B7D07C0E45
:1092C8000101066F020E0101076FE60E0101086F2A
:1092D800020E0101096F040E01010A6F56EC72F0CB
:1092E80084C2DDF2060E02017B6F000E0201AE6F32
:1092F800020E0201AF6F0EC106F10FC107F1800E19
:109308000101086F020E0101096F040E01010A6FC5
:1093180056EC72F0E50E0101066F010E0101076FB0
:109328007C0E0101086F020E0101096F040E010194
:109338000A6F56EC72F0FCEC77F00201846F000EB5
:109348000201AD6F1D0E0201866F210E0201876FAB
:1093580010C188F23F0E0201896F080E0101116FDA
:109368000101105101011103F3CF12F1000E0101A7
:10937800136F46D03F0E0101126121D00101125135
:10938800060DBD0EF3240101006F0A0EF420010141
:10939800016F000E0101026F860E0101036F020EBC
:1093A8000101046F01011351040DF350060F01016F
:1093B800056F040E0101066F9AEC6AF01CD0E10EED
:1093C8000101006F010E0101016F000E0101026F22
:1093D800860E0101036F020E0101046F0101135192
:1093E800040DF350060F0101056F040E0101066F0D
:1093F8009AEC6AF000D00101122B0101132B00D066
:10940800010111510101135DD8A0B4D7030E020167
:10941800856F260E0201AC6F0001BC51D8A404D0A0
:10942800000E0101DA6F00D0010E1200000E1200CA
:1094380012007C0ED36E9B8CD2909B8E200E926E67
:10944800BB0E936E130E946E860E806E000E816EA8
:10945800C40E826E100E0F015D6F050E0F015C6F5A
:10946800F19E0F015B910F015B930F015B850F016B
:109478005B970F015B990F015B9B0F015B9D0F01D0
:109488005B9FD180030E0101016FED0E006F72EC3E
:1094980077F00101066F010106510101FD6FFE6BB6
:1094A8000101FD51FE6FFD6B030E0101016FEC0E12
:1094B800006F72EC77F00101066F0101065101019E
:1094C800FD27000EFE23030E0101016FF10E006F50
:1094D80072EC77F00101066F010106510201F46F89
:1094E800F56B0201F451F56FF46B030E0101016F86
:1094F800EE0E006F72EC77F00101066F0101065164
:109508000201F427000EF523030E0101016FF30E8B
:10951800006F72EC77F00101066F0101065102013C
:10952800F66FF76B0201F651F76FF66B030E010148
:10953800016FF20E006F72EC77F00101066F010106
:1095480006510201F627000EF723000E0101036FF2
:10955800030E3DEC74F0000E0101036F010E3DECAB
:1095680074F0000E0001C06F010E0101F06F000ED3
:1095780002014B6F000E4A6F000E0201496F000E88
:10958800486F000E0201636F000E626F000E020149
:10959800656F000E646F000E02016B6F0201B16906
:1095A8000201B2690201B3690201B469000E020145
:1095B800736F1200000E01010B6F3E0E01010B6567
:1095C80002D01200120001010B51060D040EF32601
:1095D800000EF422BD0EF324D96E0A0EF420DA6EC2
:1095E800DF500F0B0F0AD8B49CD0010E0101086F91
:1095F80001010B51060D040EF326000EF422BD0ED8
:10960800F324D96E0A0EF420DA6EDF500F0B010135
:10961800096F0101085101010927DF5001010919EA
:10962800F00B01010919DF6E46500F0DF3CF00F161
:10963800F4CF01F1000E0101036F400E026F3FEC01
:1096480062F0040E01010027000E0101012301014F
:109658000B51060D040EF326000EF422BD0EF32462
:10966800D96E0A0EF420DA6EDF500F0B0101086F75
:10967800096B010100510101085D01010951800ACE
:1096880001010A6F01010151800A01010A59D8B08C
:1096980012D001010B51060D040EF326000EF42220
:1096A800BD0EF324D96E0A0EF420DA6EDF500F0BCC
:1096B8000F0AD8A436D001010B51060D040EF3266B
:1096C800000EF422BD0EF324D96E0A0EF420DA6ED1
:1096D800DF80DF82DF84DF8601010B51060D050E76
:1096E800F326000EF422BD0EF324D96E0A0EF420E0
:1096F800DA6EFF0EDF6E01010B51060D040EF32624
:10970800000EF422BD0EF324D96E0A0EF420DA6E90
:10971800DF88DF8ADF8CDF8E4650D8B402D0460659
:1097280000D001010B2B3E0E01010B654CD7120036
:109738001200156E000E176E000E186E000E196ED0
:10974800000E1A6E040E1018D8A40AD00EC017F016
:109758000FC018F0000E18BEFF0E196E1A6E4CD00E
:109768001050D8A42CD00EC011F00FC012F0000E6B
:1097780012BEFF0E136E146E0F0ED89011361236ED
:1097880013361436E82EF9D711C001F012C002F0D2
:1097980013C003F014C004F0E80E056E030E066E45
:1097A800000E076E000E086E8EEC6CF001C017F00C
:1097B80002C018F003C019F004C01AF01DD010043C
:1097C800D8A41AD00EC011F00FC012F0000E12BEAD
:1097D800FF0E136E146E0F0ED89011361236133614
:1097E8001436E82EF9D711C017F012C018F013C0BC
:1097F80019F014C01AF000D017C011F018C012F0F8
:1098080019C013F01AC014F0111E121E131E141ED4
:10981800112A000E122213221422FF0E1124176E91
:10982800FF0E1220186E000E1320196E000E142061
:109838001A6E1504D8A40BD018C0CFFF17C0CEFFDE
:109848008C0ECD6E9F809E909D80CD8000D0030EA3
:109858001518D8A40AD018C0B3FF17C0B2FF8C0ED1
:10986800B16EA292A192A082B1804050D8A41200F9
:10987800010E406E000E166E160E166402D012000F
:1098880012001650020D000EF324D96E020EF420B9
:10989800DA6E000EDE6E000EDD6E162A160E1664E7
:1098A800F0D71200120012001D0E0101426F1AC1FA
:1098B8000BF11BC10CF1430E01010D6F010E0101EB
:1098C8000E6FCBEC40F00101476F1D0E01011C6FBC
:1098D800260E01011D6F1AC100F11BC101F1000E16
:1098E8000101026F1C0E0101036F010E0101046FDB
:1098F800020E0101056F040E0101066F9AEC6AF071
:10990800430E0101006F010E0101016F000E0101FC
:10991800026F1C0E0101036F010E0101046F060E98
:109928000101056F040E0101066F9AEC6AF047C148
:1099380026F11AC100F11BC101F1000E0101026FED
:109948001C0E0101036F010E0101046F0B0E0101D2
:10995800056F040E0101066F9AEC6AF0430E0101CF
:10996800006F010E0101016F000E0101026F1C0E54
:109978000101036F010E0101046F0F0E0101056F54
:10998800040E0101066F9AEC6AF047C12FF11AC163
:1099980000F11BC101F1000E0101026F1C0E010153
:1099A800036F010E0101046F140E0101056F040E0F
:1099B8000101066F9AEC6AF0430E0101006F010E77
:1099C8000101016F000E0101026F1C0E0101036FFE
:1099D800010E0101046F180E0101056F040E01014B
:1099E800066F9AEC6AF047C138F118C10EF119C137
:1099F8000FF11C0E0101106F010E0101116F42C120
:109A080012F1000E0101136F010E0101146F000E17
:109A18000101156F86EC44F01200120000C1D9FF55
:109A280001C1DAFF000EDF6E010120EE01F00051E6
:109A3800D9260151DA22000EDF6E4150D8A404D095
:109A48000001C451D8B439D01E0E0001C56103D03D
:109A58000001C52B00D01E0E0001C519D8A41AD0CC
:109A68000E0E0001C76516D000C1D9FF01C1DAFF8B
:109A7800030EDF6E2D0E0001C56F010120EE01F00F
:109A88000051D9260151DA22030EDF6E2D0E000196
:109A9800C76F0FD01E0E0001C519D8A40AD000C187
:109AA800D9FF01C1DAFF020EDF6E2D0E0001C56F6E
:109AB80000D0000E0001C46F13D0010E0001C5656F
:109AC8000BD01F0E0001C56107D000C1D9FF01C12D
:109AD800DAFF010EDF6E00D0000E0001C56F00D066
:109AE8004250D8A404D00001C651D8B43AD01E0EB2
:109AF8000001C76103D00001C72B00D01E0E000172
:109B0800C719D8A41AD00E0E0001C56516D000C119
:109B1800D9FF01C1DAFF030EDF6E2D0E0001C56FFC
:109B2800010120EE01F00051D9260151DA22030E7D
:109B380011D02D0E0001C76F10D01E0E0001C719DD
:109B4800D8A40BD0010120EE01F00051D926015113
:109B5800DA22020EDF6EEDD700D0000E0001C66FCC
:109B68001200010E0001C7650ED01F0E0001C7616B
:109B78000AD0010120EE01F00051D9260151DA2264
:109B8800010EDF6E00D0000E0001C76F1200120038
:109B9800A6EC43F0000E01012D6F0A0E2C6F010E8A
:109BA80001012E6F3E0EB2EC52F002013DBF0CD007
:109BB80002013D5104E102013C05D8A005D0020193
:109BC8003C07D8A03D0700D00001B651D8A402D068
:109BD800110E18D002013C5102013D11D8A418D031
:109BE800A1EC72F00009D8B407D0010E02013D6F54
:109BF8002C0E3C6F120E06D0000E02013D6F1E0E99
:109C08003C6F100E0001B96F010E0101CC6F00D03E
:109C18000101CD510101D8A40DD0D0EC21F093B6AB
:109C280009D00101CC510101D8B402D08A8602D0F2
:109C38008A9600D0140EDCEC73F00009D8B40AD070
:109C4800000E0101C36F000E0101036F010E3DEC10
:109C580074F000D0130EDCEC73F00009D8B42ED0E9
:109C68000101FD2904E10101FE29D8B423D0010135
:109C7800FD510201565D0101FE5102015759D8B04C
:109C880005D0F4C2AFF1F5C2B0F105D0F6C2AFF11C
:109C9800F7C2B0F100D0010E0101C36F010E01013E
:109CA800276F2C0E266F010E0101286F140E48EC49
:109CB8006CF000D0000E0001B26F00D00101C85155
:109CC800D8B40BD0020E0101D11BD1C103F1010E92
:109CD8003DEC74F00101C80700D0130E0CEC76F0CF
:109CE8000009D8B41200000E0101276F3C0E266F40
:109CF800010E0101286F130E48EC6CF012001200DF
:109D08001D0E0101266F200E0101276F22C128F1C7
:109D1800CAEC78F00101296F030E0101556F0101AA
:109D2800225101015503F3CF54F1000E0101586F80
:109D3800000E576F6DD04C0E0101146F010E01011A
:109D4800156F500E0101166F010E0101176F560EA7
:109D58000101186F010E0101196F01015451A6ECA0
:109D68005EF04C0E0101006F010E0101016F000E43
:109D78000101026F260E0101036F010E0101046F3C
:109D880001015751090DF350040F0101056F040E2D
:109D98000101066F9AEC6AF0500E0101006F010E86
:109DA8000101016F000E0101026F260E0101036F10
:109DB800010E0101046F01015751090DF350080FFD
:109DC8000101056F040E0101066F9AEC6AF057C194
:109DD80000F158C101F1000E0101036F090E026F75
:109DE80079EC74F00C0E01010027000E010101232B
:109DF800260E01010025D96E010E01010121DA6E3E
:109E080056C1DFFF0101542B0101574B582B00D0DD
:109E1800010155510101236F246B010123510101F7
:109E2800575D01015851800A0101256F0101245134
:109E3800800A01012559D8A07ED720C10EF121C181
:109E48000FF1260E0101106F010E0101116F260E90
:109E58000101126F000E0101136F010E0101146F51
:109E6800000E0101156F86EC44F0120012000AC1C1
:109E78000EF101010F6B106B0101093501010E375D
:109E880001E30F8101010E510101116F010111510F
:109E9800D8A40AD0000E0101086F000E0101096F55
:109EA800000E01010A6F12000DC10EF101010F6BC6
:109EB800106B01010C3501010E3701E30F8101011F
:109EC8000E510101166F01011651D8A40AD0000ED7
:109ED8000101086F000E0101096F000E01010A6FF0
:109EE8001200010116517B0F010111270AC116F159
:109EF80001010D510101161B800E01011617010108
:109F0800098F01010C8FFF0E01010B17FF0E0101D4
:109F18000C17000E01010D17000E0101126F000E43
:109F28000101136F000E0101146F070E0101156F77
:109F380000D0010108A10DD001010B510101122728
:109F480001010C510101132301010D5101011423D9
:109F580000D00101D8900A33093308330101D890A1
:109F68000B370C370D370101152FE3D700D0090E39
:109F78000101156F00D0010108A10DD001010B519D
:109F88000101122701010C510101132301010D5197
:109F98000101142300D00101D8900A330933083392
:109FA8000101D8901433133312330101152FE3D76D
:109FB80000D012C100F113C101F114C102F111C1A5
:109FC80003F116C104F157EC58F000C108F101C1C2
:109FD80009F102C10AF1120012006EC072F000010C
:109FE800736B746B00016D350001723701E3738187
:109FF800000172510001756F00017551D8A40AD093
:10A00800000E00016C6F000E00016D6F000E000164
:10A018006E6F120071C072F00001736B746B0001F7
:10A0280070350001723701E373810001725100013C
:10A038007A6F00017A51D8A40AD0000E00016C6F23
:10A04800000E00016D6F000E00016E6F120000011E
:10A058007A517B0F000175276EC07AF000017151AB
:10A0680000017A1B800E00017A1700016D8F000134
:10A07800708FFF0E00016F17FF0E00017017000EA2
:10A0880000017117000E0001766F000E0001776F56
:10A09800000E0001786F070E0001796F00D00001F3
:10A0A8006CA10DD000016F5100017627000170519D
:10A0B80000017723000171510001782300D00001CD
:10A0C800D8906E336D336C330001D8906F3770378A
:10A0D80071370001792FE3D700D0090E0001796F9D
:10A0E80000D000016CA10DD000016F51000176274E
:10A0F800000170510001772300017151000178239C
:10A1080000D00001D8906E336D336C330001D890C5
:10A118007833773376330001792FE3D700D076C0D0
:10A1280060F077C061F078C062F075C063F07AC003
:10A1380064F0E7EC58F060C06CF061C06DF062C08C
:10A148006EF01200120001010C6F070E0101106F72
:10A158000F69000E01010D6F000E01010E6F000E58
:10A168000101156F000E146F000E0101176F000E2C
:10A17800166F01010C510C250101126F4B0E0101E4
:10A18800116F01011251910F0101126F000E0101AF
:10A19800156F000E146F5BEC71F034EC76F0010172
:10A1A800125158EC6DF00009D8A461D0000E0101DD
:10A1B800136F55D0000E0101156F000E146F000EBD
:10A1C800D4EC6CF001010D6F010113510101066F10
:10A1D800076BFF0E0101086FFF0E0101096F0101F6
:10A1E800115101010A6F0B6B0101085101010A2786
:10A1F8000101095101010B230101065101010A194D
:10A208000AE10101075101010B19D8A404D0010E7C
:10A21800D4EC6CF003D0000ED4EC6CF001010E6F9E
:10A2280000D001010D510101141301011451156FE2
:10A23800146B01010E5101011413010114510101A4
:10A24800165D0101155101011759D8B005D014C187
:10A2580016F115C117F100D00101132B00D001012F
:10A2680011510101135DD8B002D0A4D700D08EECF3
:10A2780077F001010F510101165D01011051010133
:10A288001759D8B006D0000E0101176F000E166FCF
:10A2980009D001010F510101165F0101105101019F
:10A2A800175B00D016C103F117C104F112001200A8
:10A2B8000101000501010111D8A42FD00001A65108
:10A2C800301805E10001A7513118D8B499D03C5095
:10A2D800D8B402D0000E1200010E3C6E000E3024DD
:10A2E800D96E050E3120DA6E02C1E1FF03C1E2FF2B
:10A2F800DFCFE7FF304A312A31BE0AD0315004E1BE
:10A30800800E305CD8A004D0000E316E000E306E86
:10A31800000E3C6E010E120073D0020E01010019EE
:10A3280001010111D8A433D00001A851321805E168
:10A338000001A9513318D8B463D002016951020150
:10A34800D8B402D0000E1200010E0201696FC90EC6
:10A358003224D96E060E3320DA6E02C1E1FF03C142
:10A36800E2FFDFCFE7FF324A332A33BE0AD0800E3E
:10A37800325C010E3358D8A004D0000E336E000EA4
:10A38800326E000E0201696FC5D7120039D0040E73
:10A398000101001901010111D8A432D00001A45112
:10A3A8002E1805E10001A5512F18D8B429D00001B5
:10A3B800AE51D8B402D0000E1200010E0001AE6FEB
:10A3C800000E2E24D96E040E2F20DA6E02C1E1FF92
:10A3D80003C1E2FFDFCFE7FF2E4A2F2A2FBE0AD0A4
:10A3E8002F5004E1270E2E5CD8A004D0000E2F6E4B
:10A3F800000E2E6E000E0001AE6F8CD7120000D03A
:10A40800000E120012000001C251D8B4A4D00001FD
:10A41800CF51D8A4A0D0C8C000F10101016B000E33
:10A428000101036F000E026FC90E0101046F000ED7
:10A43800056F000E066F000E076F0DEC6FF001013F
:10A44800005101012F6F01012F510101D8A402D041
:10A45800000E1200000E01010E6F01012F51010DB7
:10A46800000EF324D96E060EF420DA6EDF506BEC82
:10A4780076F0D3A60FD0040E01010C6F010E91ECFB
:10A488005AF00001A25101010C250101306F0001B1
:10A49800A35114D0040E01010C6F010E91EC5AF077
:10A4A8000001A25101010C270001A35101010D2354
:10A4B800E60E01010C250101306FFF0E01010D218F
:10A4C8000101316F00D0AEEC78F02CC1D9FF2DC15D
:10A4D800DAFFDF6E010120EE02F02C51D9262D5152
:10A4E800DA2230C1DFFF010120EE01F02C51D9261C
:10A4F8002D51DA2201013151DF6E2CC117F12DC126
:10A5080018F101012E51030F0101196F010E01010C
:10A518001A6F98EC48F00101CE51D8A417D0080E54
:10A52800F0EC6FF0010100510101CE250101CE6F61
:10A53800CEC126F10101276B010E0101286F080E1B
:10A5480048EC6CF0000E0101CE6F00D0000E010146
:10A55800D66F010E1200000E120012000001D35136
:10A56800D8B404D0000E0001D36F1200040EDCEC46
:10A5780073F00009D8B47BD00101B951010D730EF5
:10A58800F324F66EFE0EF420F76E0800F55000096D
:10A59800D8A46DD0010E0101B96F010E0201756FCB
:10A5A80066D022EC5CF00DC1AAF00EC1ABF0000140
:10A5B800ABBF08D03E0E0001AA5D080E0001AB59E2
:10A5C800D8B004D0000E0101B96F12000101B92BF7
:10A5D800120054EC65F00DC156F20EC157F201019C
:10A5E800B92B12000101CA51D8B413D0000E0101D1
:10A5F800CA6F000E02015D6F000E5C6F000E000155
:10A60800AD6F000EAC6F000E02015F6F000E5E6F43
:10A6180000D0010E67EC61F00101B92B1200020EA7
:10A6280067EC61F00101B92B1200030E67EC61F0D1
:10A638000101B92B1200AEEC69F00DC160F20EC138
:10A6480061F20101B92B1200040E0CEC76F000093E
:10A65800D8B412002CC126F12DC127F12EC128F142
:10A66800040E48EC6CF0000E0201756F1200010137
:10A67800B951010D730EF324F66EFE0EF420F76E39
:10A688000800F550000AD8B4DFD7010AD8B489D732
:10A69800030AD8B49ED7010AD8B4A4D7070AD8B4F5
:10A6A800BED7010AD8B4C1D7030AD8A41200C3D7A9
:10A6B800120000C1D9FF01C1DAFF1D0EDF6E0101D2
:10A6C80020EE01F00051D9260151DA22230EDF6E67
:10A6D800010120EE02F00051D9260151DA22D6C03C
:10A6E80002F10101023BF00E02177AEC78F0010149
:10A6F80002250001D425DF6E010120EE03F0005190
:10A70800D9260151DA22D6C002F10101023BF00E2E
:10A7180002177AEC78F0010102250001D425DF6EDA
:10A72800010120EE04F00051D9260151DA22D6C0E9
:10A7380002F10101023BF00E02177AEC78F00101F8
:10A7480002250001D425DF6E010120EE05F000513D
:10A75800D9260151DA22CCC0DFFF010120EE06F034
:10A768000051D9260151DA22CCC0DFFF010120EEC9
:10A7780007F00051D9260151DA22CCC0DFFF0101D0
:10A7880020EE08F00051D9260151DA22A6EC78F023
:10A79800DF6E010120EE09F00051D9260151DA22BD
:10A7A800A6EC78F0DF6E010120EE0AF00051D92600
:10A7B8000151DA22A6EC78F0DF6E010120EE0BF0F1
:10A7C8000051D9260151DA22A2EC78F0DF6E01019E
:10A7D80020EE0CF00051D9260151DA22A2EC78F0D3
:10A7E800DF6E010120EE0DF00051D9260151DA2269
:10A7F800A2EC78F0DF6E0E0E0101036F0101035128
:10A808001200120019C11BF101011C6B1D6B010123
:10A81800183501011B3701E31C8101011B5101019E
:10A82800256F01012551D8A40AD0000E0101176F28
:10A83800000E186F000E196F000E1A6F1200170E17
:10A8480001011B6F17C11CF118C11DF119C11EF1BF
:10A8580001011B2901011F6F05D00101D8901E338A
:10A868001D331C3301011F2FF8D701011C510101B1
:10A87800206F0101188FFF0E01011717FF0E01014C
:10A888001817000E01011917010117510101216F55
:10A89800010118510101226F010119510101236FB2
:10A8A8000101246B8E0E0101255F010125AF1BD02C
:10A8B80001012551800A8F0FD8B00BD0000E01017D
:10A8C800176F000E186F000E196F000E1A6F120026
:10A8D80000D00101D89024332333223321330101DE
:10A8E800253FF7D71FD0170E0101256514D0000E9C
:10A8F8000101176F000E186F000E196F000E1A6F06
:10A90800120009D00101D890213722372337243784
:10A918000101250700D0010125510101D8B402D059
:10A92800F1D700D0010120510101D8B40AD00101AA
:10A93800241F231F221F216D000E222323232423DB
:10A9480000D021C117F122C118F123C119F124C186
:10A958001AF1120012000DC111F10101126B136BF3
:10A9680001010C350101113701E312810101115177
:10A978000101186F01011851D8A40AD0000E010175
:10A988000B6F000E01010C6F000E01010D6F12001C
:10A9980010C111F10101126B136B01010F35010197
:10A9A800113701E31281010111510101196F0101F0
:10A9B8001951D8A40AD0000E01010B6F000E010135
:10A9C8000C6F000E01010D6F1200000E0101156FD2
:10A9D800000E0101166F000E0101176F01011951D8
:10A9E800890F0101185F0DC119F101011051010111
:10A9F800191B800E0101191701010C8FFF0E0101AF
:10AA08000B17FF0E01010C17000E01010D170101B4
:10AA18000F8FFF0E01010E17FF0E01010F17000E19
:10AA280001011017180E0101146F00D00101D89010
:10AA380015371637173701010E5101010B5D01015A
:10AA48000F5101010C590101105101010D59D8A0F4
:10AA58000ED001010E5101010B5F01010F510101DF
:10AA68000C5B0101105101010D5B01011581010110
:10AA7800D8900B370C370D370101142FD7D700D0DA
:10AA880015C100F116C101F117C102F118C103F196
:10AA980019C104F157EC58F000C10BF101C10CF1D8
:10AAA80002C10DF1120012007DC07FF00001806B21
:10AAB800816B00017C3500017F3701E38081000153
:10AAC8007F510001896F00018951D8A40AD0000E76
:10AAD80000017B6F000E7C6F000E7D6F000E7E6F95
:10AAE8001200170E00017F6F7BC080F07CC081F0E0
:10AAF8007DC082F000017F290001836F05D000012D
:10AB0800D8908233813380330001832FF8D7000136
:10AB180080510001846F00017C8FFF0E00017B17BC
:10AB2800FF0E00017C17000E00017D1700017B510C
:10AB38000001856F00017C510001866F00017D5185
:10AB48000001876F0001886B8E0E0001895F00018C
:10AB580089AF1BD000018951800A8F0FD8B00BD064
:10AB6800000E00017B6F000E7C6F000E7D6F000EE3
:10AB78007E6F120000D00001D89088338733863367
:10AB880085330001893FF7D71FD0170E000189656B
:10AB980014D0000E00017B6F000E7C6F000E7D6FDD
:10ABA800000E7E6F120009D00001D89085378637D5
:10ABB800873788370001890700D0000189510001D3
:10ABC800D8B402D0F1D700D0000184510001D8B424
:10ABD8000AD00001881F871F861F856D000E8623F7
:10ABE8008723882300D085C07BF086C07CF087C08F
:10ABF8007DF088C07EF01200120006EEC9F015EE56
:10AC08006EF0EE6AE550E150FCE1E250FAE105EE43
:10AC180000F0BF0EEE6AE806FDE104EE00F0E70E74
:10AC2800EE6AE806FDE103EE00F0D00EEE6AE806F3
:10AC3800FDE102EE00F0B50EEE6AE806FDE101EE78
:10AC4800AFF0400EEE6AE806FDE100EEA2F0360E27
:10AC5800EE6AE806FDE100EE2CF0220EEE6AE80648
:10AC6800FDE1180EF66EC60EF76E000EF86E06EED3
:10AC780000F010EEC9F00900F5CFEEFFE550E15005
:10AC8800FAE10E0EF66EEE0EF76E000EF86E03EE9B
:10AC9800D0F010EE20F00900F5CFEEFFE550E150BE
:10ACA800FAE13A0EF66EE80EF76E000EF86E02EE56
:10ACB800B5F010EE3FF00900F5CFEEFFE550E1509A
:10ACC800FAE1A40EF66EF00EF76E000EF86E01EEC5
:10ACD800EFF010EE0EF00900F5CFEEFFE550E15071
:10ACE800FAE1A40EF66EF10EF76E000EF86E09008A
:10ACF800F5CFD8F00900F5CFD9F00900F5CFDAF093
:10AD08003A0EF66EF10EF76E000EF86E00EE4EF08B
:10AD180010EE09F00900F5CFEEFFE550E150FAE139
:10AD2800000EF86E0001EDEF04F00101056F80D010
:10AD3800000E0101006F010E98EC73F0E40E00D0D4
:10AD480000D0E82EFCD700D000D00301D0511F0B53
:10AD580080090301D06FD0C302F1000ECCEC74F06F
:10AD6800800E0001B66F0B0E0101046F620EE82E13
:10AD7800FED7042FFCD700D012000301D0511F0BBF
:10AD880060090301D06FD0C302F1000ECCEC74F05F
:10AD9800D6C000F1000E98EC73F0600E0001B66F9B
:10ADA8001200000E0101006F000E98EC73F0030111
:10ADB800D0511F0B20090301D06FD0C302F1000E40
:10ADC800CCEC74F0680E0101046FE40EE82EFED797
:10ADD800042FFCD700D0200E0001B66F1200000E21
:10ADE8000101006F000E98EC73F00301D0511F0BA6
:10ADF80040090301D06FD0C302F1000ECCEC74F00F
:10AE0800400E0001B66F1200000E0101006F000E27
:10AE180098EC73F00301D0511F0B0301D06F000EA3
:10AE28000001B66FD0C302F1000ECCEC74F0120032
:10AE380001010551000AD8B4E7D7200AD8B4B1D720
:10AE4800600AD8B4CCD7200AD8B497D7E00AD8A4D7
:10AE580012006ED712000001C251D8A404D000011C
:10AE6800CF51D8B403D0000E120087D03F50D8A4D9
:10AE780084D0C8C000F10101016B23C102F10101B6
:10AE8800036BC90E0101046F000E056F000E066FFB
:10AE9800000E076F0DEC6FF0010100510101246FE6
:10AEA800010124510101D8A402D0000E1200000EA5
:10AEB80001010E6F01012451010D000EF324D96E1A
:10AEC800060EF420DA6EDF506BEC76F0D3A60FD0C6
:10AED800040E01010C6F010E91EC5AF00001A25111
:10AEE80001010C250101256F0001A35114D0040EA6
:10AEF80001010C6F010E91EC5AF00001A251010101
:10AF08000C270001A35101010D23E60E01010C25B8
:10AF18000101256FFF0E01010D210101266F00D0EF
:10AF2800AEEC78F020C1D9FF21C1DAFFDF6E010154
:10AF380020EE02F02051D9262151DA2225C1DFFF67
:10AF4800010120EE01F02051D9262151DA22010118
:10AF58002651DF6E20C117F121C118F101012251DC
:10AF6800030F0101196F010E01011A6F98EC48F0E7
:10AF7800010E3F6E010E120000D0000E12001200EA
:10AF880006C1D9FF07C1DAFFDE04D8A489D0050EAF
:10AF98000101086585D0F90E010108250101006F3E
:10AFA8000101016BFF0E0123000E0101036F050E65
:10AFB800026FB0EC65F00101005101010111D8A444
:10AFC8006FD0FF0E0101096FFF0E01010A6F010129
:10AFD800085101010B6F0C6B0101095101010B278D
:10AFE80001010A5101010C2301010B510101062540
:10AFF800D96E01010C5101010721DA6E0001CC5113
:10B00800DE18D8B420D0FF0E0101096FFF0E010130
:10B018000A6F0101085101010B6F0C6B0101095105
:10B0280001010B2701010A5101010C2301010B51F8
:10B0380001010625D96E01010C5101010721DA6EC3
:10B04800DE28D8A403D0010E12002AD00001CC2992
:10B05800D8A423D0FF0E0101096FFF0E01010A6F6A
:10B068000101085101010B6F0C6B0101095101012C
:10B078000B2701010A5101010C2301010B510101A8
:10B088000625D96E01010C5101010721DA6EDE286F
:10B09800D8B403D0020E120003D0000E120000D064
:10B0A800000E12001200010103510101D8B408D0AA
:10B0B800010100510101011101010211D8A413D0AD
:10B0C800000E0101006F000E0101016F000E010169
:10B0D800026F120008D00101032B0101D89002333E
:10B0E8000133003300D0000E010100150101056F86
:10B0F800000E010101150101066FFE0E0101021586
:10B108000101076F01010551010106110101071134
:10B11800D8B413D0E0D711D00101032B010E0101DF
:10B128000027000E01010123000E01010223010185
:10B13800D89002330133003300D0000E010100150E
:10B148000101056F000E010101150101066FFF0ED7
:10B15800010102150101076F0101055101010611E5
:10B1680001010711D8B40AD0D7D708D001010307C5
:10B178000101D89000370137023700D0010101BF23
:10B1880005D0020E01010361F1D700D0010103B11E
:10B1980003D00101019F00D00101D89003330101C0
:10B1A800035101010213010104510101D8B403D074
:10B1B8000101028F00D000C100F101C101F102C1FB
:10B1C80002F112001200000163510001D8B408D046
:10B1D800000160510001611100016211D8A413D06F
:10B1E800000E0001606F000E0001616F000E00018B
:10B1F800626F120008D00001632B0001D8906233FF
:10B208006133603300D0000E000160150001656FE6
:10B21800000E000161150001666FFE0E0001621547
:10B228000001676F00016551000166110001671197
:10B23800D8B413D0E0D711D00001632B010E000160
:10B248006027000E00016123000E00016223000147
:10B25800D89062336133603300D0000E000160156E
:10B268000001656F000E000161150001666FFF0E99
:10B27800000162150001676F000165510001661148
:10B2880000016711D8B40AD0D7D708D000016307E6
:10B298000001D89060376137623700D0000161BF84
:10B2A80005D0020E00016361F1D700D0000163B13F
:10B2B80003D00001619F00D00001D89063330001E2
:10B2C800635100016213000164510001D8B403D036
:10B2D8000001628F00D060C060F061C061F062C0A0
:10B2E80062F0120012000101000501010111D8A449
:10B2F80027D03D50D8A4120001D01200010E3D6E97
:10B30800000E0001A625D96E050E0001A721DA6EF0
:10B3180002C1DFFF0001A64BA72B0001A7BF0DD07C
:10B328000001A75105E1800E0001A65DD8A005D057
:10B33800000E0001A76F000EA66F000E3D6E1200F2
:10B34800020E0101001901010111D8A427D03E50B5
:10B35800D8A4120001D01200010E3E6EC90E0001E1
:10B36800A825D96E060E0001A921DA6E02C1DFFFF9
:10B378000001A84BA92B0001A9BF0DD0800E000128
:10B38800A85D010E0001A959D8A005D0000E000142
:10B39800A96F000EA86F000E3E6E1200040E010188
:10B3A800001901010111D8A412000001AF51D8A45D
:10B3B800120001D01200010E0001AF6F000E000153
:10B3C800A425D96E040E0001A521DA6E02C1DFFFA3
:10B3D8000001A44BA52B0001A5BF0DD00001A5516C
:10B3E80005E1270E0001A45DD8A005D0000E0001DC
:10B3F800A56F000EA46F000E0001AF6F12001200BF
:10B408000001600500016111D8A427D03D50D8A4DF
:10B41800120001D01200010E3D6E000E0001A6259B
:10B42800D96E050E0001A721DA6E62C0DFFF0001A8
:10B43800A64BA72B0001A7BF0DD00001A75105E11E
:10B44800800E0001A65DD8A005D0000E0001A76FF0
:10B45800000EA66F000E3D6E1200020E000160196C
:10B4680000016111D8A427D03E50D8A4120001D001
:10B478001200010E3E6EC90E0001A825D96E060EF7
:10B488000001A921DA6E62C0DFFF0001A84BA92BD9
:10B498000001A9BF0DD0800E0001A85D010E0001BA
:10B4A800A959D8A005D0000E0001A96F000EA86FF9
:10B4B800000E3E6E1200040E0001601900016111B9
:10B4C800D8A412000001AF51D8A4120001D0120074
:10B4D800010E0001AF6F000E0001A425D96E040E05
:10B4E8000001A521DA6E62C0DFFF0001A44BA52B85
:10B4F8000001A5BF0DD00001A55105E1270E0001EF
:10B50800A45DD8A005D0000E0001A56F000EA46FA1
:10B51800000E0001AF6F120012000101126F01014D
:10B528001205D8A416D0CECF13F10101146BCFCFDA
:10B5380015F10101166B010115510101166F156B0B
:10B5480001011351010115270101145101011623AD
:10B5580000D0030E01011219D8A416D0B2CF13F1EE
:10B568000101146BB3CF15F10101166B01011551DF
:10B578000101166F156B0101135101011527010116
:10B5880014510101162300D001010C510101D8A466
:10B5980035D015C10EF116C10FF101010E1F0F1F95
:10B5A8000E4B0F2BFF0E01010E250101106FFF0E30
:10B5B80001010F210101116F10C100F111C101F149
:10B5C8000101026B036BE80E0101046F030E056FA6
:10B5D800000E066F000E076F93EC6EF0100E07D08A
:10B5E8000101D89003330233010101330033E82EFF
:10B5F800F7D700C10CF101C10DF1120015C10EF110
:10B6080016C10FF101010E1F0F1F0E4B0F2BFF0E5E
:10B6180001010E2501010C6FFF0E01010F2101012F
:10B628000D6F120012000001706F00017005D8A4A0
:10B6380016D0CECF73F00001746BCFCF75F0000138
:10B64800766B000175510001766F756B00017351BF
:10B6580000017527000174510001762300D0030E04
:10B6680000017019D8A416D0B2CF73F00001746B22
:10B67800B3CF75F00001766B000175510001766F4C
:10B68800756B0001735100017527000174510001A9
:10B69800762300D000016C510001D8A435D075C0C4
:10B6A8006EF076C06FF000016E1F6F1F6E4B6F2B30
:10B6B800FF0E00016E250001716FFF0E00016F2162
:10B6C8000001726F71C060F072C061F00001626BBE
:10B6D800636BE80E0001646F030E656F000E666F02
:10B6E800000E676FD0EC6EF0100E07D00001D890F6
:10B6F80063336233000161336033E82EF7D760C0EB
:10B708006CF061C06DF0120075C06EF076C06FF01D
:10B7180000016E1F6F1F6E4B6F2BFF0E00016E2511
:10B7280000016C6FFF0E00016F2100016D6F1200A8
:10B7380012000001CD510001D8A404D0010E00016F
:10B74800CD6F00D0CDC007F1000E01010A6F5DD0AA
:10B75800000E0101096F000E086F2CD001010A517B
:10B76800010DF35001010025D96EF45001010121AA
:10B77800DA6E0001CD51010DB50EF324E16E020E13
:10B78800F420E26EE7500101046F01010A51010D36
:10B79800F35001010025E16EF45001010121E26E30
:10B7A800E7500101042501010A25DF6E0101084B5C
:10B7B800092B00D00001CD51010DB50EF324D96E2F
:10B7C800020EF420DA6EDF50070B0101046F056BDF
:10B7D800010104510101085D01010951800A0101BB
:10B7E800066F01010551800A01010659D8A0B6D794
:10B7F8000001CD2B070E0001CD6504D0000E00011D
:10B80800CD6F00D001010A2B00D001010A510101BE
:10B81800046F056B010102510101045D010105512D
:10B82800800A0101066F01010351800A01010659CE
:10B83800D8A08ED70101075112001200000E010195
:10B84800116F000E0101106F000E0F6F000E010145
:10B85800136F000E126F000E0101006F040E7CECD6
:10B8680072F0000E0101136F000E126F000E01013D
:10B87800116F090E0101116501D023D0D0EC78F0C9
:10B8880000D067EC78F00009D8A4FBD7C4500101B8
:10B89800106F0F6BC35001010F13040E01011165E6
:10B8A80009D001010F5101011227010110510101B5
:10B8B800132300D00A0EE82EFED700D00101112B69
:10B8C800D8D712C106F113C107F1000E0101096FA3
:10B8D800050E086F17EC6DF006C112F107C113F1E0
:10B8E800020E0101006F040E7CEC72F0C29012C1CE
:10B8F80000F113C101F1000E0101036F070E026F81
:10B9080079EC74F000C106F101C107F1000E0101E4
:10B91800096F060E086F17EC6DF006C112F107C12A
:10B9280013F10101D7510101125F000E0101D7BFC8
:10B93800FF0E0101135B12C10DF113C10EF11200CC
:10B948001200000E0101096F010103AF0DD00101C2
:10B95800031F021F011F006D000E01230223032392
:10B96800010E0101096F00D0010107AF0AD00101E2
:10B97800071F061F051F046D000E05230623072356
:10B9880000D0010104510101051101010611010155
:10B998000711D8B43FD0010E0101086F09D0010189
:10B9A800D89004370537063707370101082B00D030
:10B9B800010107BF02D0F3D700D0010104510101F2
:10B9C800005D010105510101015901010651010103
:10B9D80002590101075101010359D8A011D00101F1
:10B9E80004510101005F010105510101015B0101E1
:10B9F80006510101025B010107510101035B00D0FF
:10BA08000101D89007330633053304330101082FA9
:10BA1800D4D700D0010109510101D8B40AD00101DD
:10BA2800031F021F011F006D000E012302230323C1
:10BA380000D000C100F101C101F102C102F103C14E
:10BA480003F1120012000101086FFA0E01010861EA
:10BA580078D008C109F101010A6B09C106F10AC1D0
:10BA680007F10101D890063707370101D89006374A
:10BA7800073706C109F107C10AF104C1D9FF05C199
:10BA8800DAFF09C102F10AC103F14AEC78F00101B9
:10BA9800076FDE5001010719D8A451D0010120EE2B
:10BAA80001F00451D9260551DA22010E01010925B8
:10BAB8000101026F000E01010A210101036F4AEC26
:10BAC80078F00101076FDE5001010719D8A437D0BB
:10BAD800010120EE02F00451D9260551DA22020EA6
:10BAE800010109250101026F000E01010A2101016E
:10BAF800036F4AEC78F00101076FDE500101071966
:10BB0800D8A41DD0010120EE03F00451D926055117
:10BB1800DA22030E010109250101026F000E01015D
:10BB28000A210101036F4AEC78F00101076FDE502A
:10BB380001010719D8A403D0010E120000D0000E8D
:10BB48001200000E120012000101096F000E01011F
:10BB58000A6F0F015A99000E0001CF6F000E000105
:10BB6800D76F000E0001D16F000E0001D26F000EDA
:10BB7800476E000E396E200E0001B66F000E0201EE
:10BB8800726F000E0001CB6F000E0001D36F000E24
:10BB98004C6E000E456E8986050E0101076F260E54
:10BBA800E82EFED7072FFCD700D08996680E010132
:10BBB800076FE40EE82EFED7072FFCD700D0000E43
:10BBC8000101046F01010951D3EC47F0000E010196
:10BBD8000A6F1F0E01010A6501D015D001010A5133
:10BBE800010DD00EF324D96E030EF420DA6EDF5067
:10BBF8000101026F01010A51020DF350CCEC74F0FF
:10BC080001010A2BE6D70001B751C3EC77F0F29691
:10BC180000F00F015A8900F081CF08F100F0F2908E
:10BC2800F28609C14FF0150E0101076FC60EE82E06
:10BC3800FED7072FFCD700D064EC77F0010E000187
:10BC4800D46F000E0001D66F1200010E0001D46FF0
:10BC5800000E47EC77F0000E0001D66FFF0E30ECB7
:10BC680072F0000EC3EC77F0080E7FEC78F0E1C1BB
:10BC7800F9F1E2C1FAF1E3C1FBF1E4C1FCF1D4C08E
:10BC88002FF1BAEC78F0030E0101016FEF0E006F8F
:10BC9800A2EC78F00101026FC6EC72F0BAEC78F011
:10BCA800030E0101016FFC0E006FA6EC78F0010194
:10BCB800026FC6EC72F0BAEC78F0030E0101016F66
:10BCC800FD0E006F2FC102F1C6EC72F0BAEC78F0ED
:10BCD800030E0101016FFE0E006FCCC002F1C6EC2D
:10BCE80072F0BAEC78F0030E0101016FE80E006FF4
:10BCF800FF0E0101026FC6EC72F0BAEC78F0030E89
:10BD08000101016FE90E006FFF0E0101026FC6EC21
:10BD180072F0BAEC78F0030E0101016FEA0E006FC1
:10BD2800FF0E0101026FC6EC72F0BAEC78F0030E58
:10BD38000101016FEB0E006FFF0E0101026FC6ECEF
:10BD480072F0120001011F6FFA0E01011F614FD03E
:10BD58001B0E01010C6F010E01010D6F01011F5136
:10BD68006DEC67F01B0E0101066F010E0101076FF4
:10BD780014C108F115C109F1040E01010A6F56EC4E
:10BD880072F001011F51020DC90EF324D96E080E7D
:10BD9800F420DA6EDF503F0B01011A6F01011A51CE
:10BDA800060DBD0EF3240101066F0A0EF4200101F1
:10BDB800076F16C108F117C109F1040E01010A6FD6
:10BDC80056EC72F001011F51020D010EF326000E10
:10BDD800F422C90EF324D96E080EF420DA6EDF506F
:10BDE8001F0B18C1D9FF19C1DAFFDF6E1200E10E6F
:10BDF8000101066F010E0101076F14C108F115C199
:10BE080009F1040E01010A6F56EC72F0E10E01010E
:10BE1800066F010E0101076F16C108F117C109F17C
:10BE2800040E01010A6F56EC72F018C1D9FF19C14E
:10BE3800DAFFFF0EDF6E1200120001010D6F010123
:10BE48000D51CDEC75F00DC100F10101016B01013F
:10BE58000651050F0101026F77EC59F007C108F18F
:10BE6800060E01010827020E0101096F0101082BC6
:10BE780003D00101D89009370101082FFAD7010131
:10BE8800095101010A6F0DC100F10101016B0AC1DD
:10BE980002F177EC59F0000E01010B6F000E010161
:10BEA8000C6F25D00DC100F10101016B01010C518E
:10BEB800010DF35001010425D96EF450010105214B
:10BEC800DA6EDF500101026F77EC59F001010C5175
:10BED800010DF35001010425D96EF450010105212B
:10BEE800DA6EDF5001010B1B01010C2B00D00101A0
:10BEF800065101010C5DD8A0D5D70DC100F1010193
:10BF0800016B0BC102F177EC59F00DC100F1010191
:10BF1800016B0D0E0101026F77EC59F00DC100F1B4
:10BF28000101016B0A0E0101026F77EC59F0120052
:10BF3800000E01010A6F5ED0000E0101096F000EAC
:10BF4800086F2DD001010A51010DF35001010025A0
:10BF5800D96EF45001010121DA6E01010A51010D77
:10BF6800F35001010025E16EF45001010121E26E58
:10BF7800E7500101056F01010451010DB50EF324CD
:10BF8800E16E020EF420E26EE75001010A25000876
:10BF980001010525DF6E0101084B092B00D00101C5
:10BFA8000451010DB50EF324D96E020EF420DA6E99
:10BFB800DF50070B0101056F066B010105510101F7
:10BFC800085D01010951800A0101076F010106514D
:10BFD800800A01010759D8A0B5D70101042B070E23
:10BFE8000101046504D0000E0101046F00D00101B5
:10BFF8000A2B00D001010A510101056F066B0101EE
:10C0080002510101055D01010651800A0101076F16
:10C0180001010351800A01010759D8A08DD71200E8
:10C02800030E010134250101386F000E010135218D
:10C038000101396F32C106F133C107F168EC68F0CC
:10C048000101376F32C106F133C107F138C108F178
:10C0580039C109F1040E01010A6F56EC72F0E50EC0
:10C068000101066F010E0101076F040E0101382559
:10C078000101086F000E010139210101096F040E49
:10C0880001010A6F56EC72F0020E0101C219D8A420
:10C0980010D038C104F139C105F101013651080F3A
:10C0A8000101066F000E0101076F020E21EC5FF01F
:10C0B80000D032C106F133C107F1E10E0101086F6A
:10C0C800010E0101096F040E01010A6F89EC71F07C
:10C0D8000009D8A40ED034C120F135C121F10101E5
:10C0E8003651080F0101226F37C123F12FEC57F0A9
:10C0F800120034C12CF135C12DF101013651080F60
:10C1080001012E6F07EC52F01200120010C106F167
:10C1180011C107F10EC108F10FC109F1040E0101A7
:10C128000A6F56EC72F0E50E0101006F010E010175
:10C13800016F000E0101026F0EC103F10FC104F17E
:10C14800040E0101056F040E0101066F9AEC6AF0F6
:10C15800010120EE08F00E51D9260F51DA22030E04
:10C16800DF6E010120EE09F00E51D9260F51DA22B7
:10C17800000EDF6E010120EE0AF00E51D9260F5194
:10C18800DA22000EDF6EE50E0101006F010E0101DB
:10C19800016F000E0101026F0EC103F10FC104F11E
:10C1A8000B0E0101056F040E0101066F9AEC6AF08F
:10C1B80010C100F111C101F1000E0101026F0EC1A1
:10C1C80003F10FC104F10F0E0101056F040E010107
:10C1D800066F9AEC6AF0010120EE13F00E51D92691
:10C1E8000F51DA22000EDF6E120001011951010110
:10C1F800175D01011A5101011859D8B045D0010144
:10C20800195101011F6F01011A510101206F01012C
:10C21800216B0101226B01011F1F201F211F221FFB
:10C228001F2B000E20232123222301011751010176
:10C238001F250101236F010118510101202101016E
:10C24800246F000E010121210101256F000E01015B
:10C2580022210101266F01011B5101012325010142
:10C26800276F01011C51010124210101286F0101DF
:10C278001D51010125210101296F01011E510101F3
:10C28800262101012A6F19D019C11FF11AC120F105
:10C2980001011F1F201F1F4B202B010117510101F6
:10C2A8001F2701011851010120231FC127F120C1B7
:10C2B80028F10101296B2A6B00D027C117F128C189
:10C2C80018F11200120001011E6F01011E05D8A409
:10C2D8001FD0EE0E0101036F020E0101046F000E64
:10C2E8000101056F000EA7EC50F003C118F104C15D
:10C2F80019F10101185102015C5D01011951020196
:10C308005D59D8B0120018C15CF219C15DF2120073
:10C31800020E01011E19D8A41FD0F00E0101036FEF
:10C32800020E0101046F000E0101056F050EA7EC56
:10C3380050F003C11AF104C11BF101011A510001A7
:10C34800AC5D01011B510001AD59D8B012001AC1F2
:10C35800ACF01BC1ADF01200030E01011E19D8A4E8
:10C368001200F20E0101036F020E0101046F000EAC
:10C378000101056F070EA7EC50F003C11CF104C1C1
:10C388001DF101011C5102015E5D01011D510201F7
:10C398005F59D8B012001CC15EF21DC15FF21200D5
:10C3A80012000101126F010112510101D8A40DD030
:10C3B800D6CF13F10101146BD7CF15F111D00101BC
:10C3C80015510101166F156B0ED0030E01011219DC
:10C3D800D8A412D0B2CF13F10101146BB3CF15F169
:10C3E8000101166BECD70101135101011527010159
:10C3F80014510101162300D001010C510101D8A4E8
:10C4080035D015C10EF116C10FF101010E1F0F1F16
:10C418000E4B0F2BFF0E01010E250101106FFF0EB1
:10C4280001010F210101116F10C100F111C101F1CA
:10C438000101026B036BE80E0101046F030E056F27
:10C44800000E066F000E076F93EC6EF0100E07D00B
:10C458000101D89003330233010101330033E82E80
:10C46800F7D700C10CF101C10DF1120015C10CF193
:10C4780016C10DF11200000E0101056F010103AF95
:10C4880009D00101026D031FD8B0032B010E010171
:10C49800056F00D0010101AF09D00101006D011F36
:10C4A800D8B0012B010E0101051B00D0000E0101BF
:10C4B800076F000E066F0101025101010311D8B484
:10C4C80031D0010E0101046F07D00101D890023765
:10C4D80003370101042B00D0010103BF02D0F5D7B7
:10C4E80000D00101D8900637073701010251010138
:10C4F800005D0101035101010159D8A00BD00101D0
:10C5080002510101005F010103510101015B0101B9
:10C51800068100D00101D890033302330101042FB2
:10C52800E0D700D0010105510101D8B406D00101BE
:10C53800066D071FD8B0072B00D006C100F107C150
:10C5480001F1120012000101026F01010251060DF2
:10C55800050EF326000EF422BD0EF324D96E0A0E42
:10C56800F420DA6EDE28D8A410D001010251060D9D
:10C57800050EF326000EF422BD0EF324D96E0A0E22
:10C58800F420DA6E00C1DFFF120001010251060D2E
:10C59800050EF326000EF422BD0EF324D96E0A0E02
:10C5A800F420DA6E01010051DE5CD8B00FD0010131
:10C5B8000251060D050EF326000EF422BD0EF324DB
:10C5C800D96E0A0EF420DA6EDF2A12000101025138
:10C5D800060D050EF326000EF422BD0EF324D96EC7
:10C5E8000A0EF420DA6EDE500101005DD8B01200A8
:10C5F80001010251060D050EF326000EF422BD0EB0
:10C60800F324D96E0A0EF420DA6EDF061200120047
:10C6180000010203040A0B0C0D0E14151617181E40
:10C628001F20212228292A2B2C05060708090F106C
:10C63800111213191A1B1C1D23242526272D2E2FF2
:10C6480030310031302F2E2D27262524231D1C1B89
:10C658001A19131211100F09080706052C2B2A297D
:10C66800282221201F1E18171615140E0D0C0B0A50
:10C678000403020100010203040A0B0C0D0E141539
:10C688001617181E1F20212228292A2B2C050607D9
:10C6980008090F10111213191A1B1C1D2324252613
:10C6A800272D2E2F30310031302F2E2D27262524EF
:10C6B800231D1C1B1A19131211100F090807060550
:10C6C8002C2B2A29282221201F1E18171615140E74
:10C6D8000D0C0B0A040302010000000E0101086F93
:10C6E800000E096F000E0A6F000E0B6F0101045156
:10C6F800010105110101061101010711D8B447D044
:10C70800010E01010C6F09D00101D89004370537DB
:10C718000637073701010C2B00D0010107BF02D0F3
:10C72800F3D700D00101D890083709370A370B37FB
:10C73800010104510101005D010105510101015987
:10C748000101065101010259010107510101035973
:10C75800D8A013D0010104510101005F0101055166
:10C768000101015B010106510101025B0101075151
:10C778000101035B0101088100D00101D890073352
:10C7880006330533043301010C2FCCD700D008C180
:10C7980000F109C101F10AC102F10BC103F1120054
:10C7A8001B6E4350D8B41FD01B50D8B40CD0FF0E0A
:10C7B80034240E6EFF0E35200F6E040E106E010E1F
:10C7C8009DEC4BF00AD034C00EF035C00FF0040ECB
:10C7D800106E010E9DEC4BF000D0070E356E3468DC
:10C7E800000E436E00D0010E0001A2250001A26FC9
:10C7F800F80E0001A3210001A36F2C06D8A02D0676
:10C808002C502D10D8A40ED0000E2D6E100E2C6EAC
:10C8180038C2A2F039C2A3F07F0E0201396FF00EC0
:10C82800386F0BD02C042D10D8A407D0010E436EFE
:10C83800A2C034F0A3C035F000D00001C82BC80E48
:10C848000001C86504D0000E0001C86F00D00201C5
:10C858003A2904E102013B29D8B4120002013A4BFB
:10C868003B2B12001200000E0101156F000E146F11
:10C87800010115BF0AD0010115513CE10A0E010161
:10C88800145DD8B037D001D035D022EC5CF00DC1A2
:10C89800AAF00EC1ABF00001ABBF0ED0230E000111
:10C8A800AA5D0C0E0001AB59D8A006D00001AA5110
:10C8B800DE0F0101D72712D00001ABBF08D01C0E34
:10C8C8000001AA5D0C0E0001AB59D8B007D00001D9
:10C8D800AA5100081C0F0101D75F00D0020E010108
:10C8E800016F8A0E006F92EC70F00101144B152B4A
:10C8F800BFD700D00101D751800A9F0FD8A01200DE
:10C908000101D751800A600FD8B01200BAEC78F054
:10C91800030E0101016FF00E006FD7C102F1C6ECE2
:10C9280072F01200120000018E6F8EC0D7F0D7C0CF
:10C9380060F00001616B000E0001636F070E626F0B
:10C948000AEC66F0000160510101C56F880E000114
:10C95800D76504D0280E0001D76F1200000E000121
:10C968006F6F000E0001706F3F0E0001716FDA0EDD
:10C9780000018A6FFF0E00018B6F0001D751000183
:10C988008C6F8D6B00018A5100018C2700018B513F
:10C9980000018D2300018C1F8D1F8C4B8D2B640E85
:10C9A80000018C250001686F000E00018D21000137
:10C9B800696FEAEC72F068C06CF069C06DF06AC02B
:10C9C8006EF0F1EC4FF06CC07BF06DC07CF06EC087
:10C9D8007DF058EC55F000017B51280F0001D76F0E
:10C9E80012001200C9C200F1CAC201F1CBC202F1A1
:10C9F800CCC203F1CDC204F1CEC205F1CFC206F11B
:10CA0800D0C207F193EC6EF000C1C9F201C1CAF2BD
:10CA180002C1CBF203C1CCF2390E0201C927300E94
:10CA2800CA23000ECB23000ECC23100E01010E6F7B
:10CA3800C9C20FF1CAC210F1CBC211F1CCC212F1B6
:10CA480001010E6701D009D00101123512331133EB
:10CA580010330F3301010E2FF3D7FF0E01010F150D
:10CA68000101006F7F0E010110150101016F000E19
:10CA7800010111150101026F000E010112150101DA
:10CA8800036F0CC104F10DC105F10101066B076BC1
:10CA9800A5EC5CF000C10CF101C10DF1120012000F
:10CAA800000E0101106F000E0F6F000E0101126FD2
:10CAB800000E116F000E0101006F0A0E7CEC72F07F
:10CAC800000E0101126F000E116F000E0101136FAD
:10CAD800090E0101136501D02AD0D0EC78F000D0FE
:10CAE80067EC78F00009D8A4FBD7C4500101106F97
:10CAF8000F6BC35001010F13040E0101136514D00D
:10CB0800100E0101105DD8A006D0000E0101106FB3
:10CB1800000E0F6F00D001010F5101011127010113
:10CB280010510101122300D00101132BD1D711C1DB
:10CB380006F112C107F1000E0101096F050E086F19
:10CB480017EC6DF006C111F107C112F111C10DF119
:10CB580012C10EF112001200000E0101056F010151
:10CB680001AF09D00101006D011FD8B0012B010EE2
:10CB78000101056F00D0010103AF06D00101026D6C
:10CB8800031FD8B0032B00D001010251010103118A
:10CB9800D8B42BD0010E0101046F07D00101D89041
:10CBA800023703370101042B00D0010103BF02D073
:10CBB800F5D700D0010102510101005D01010351C7
:10CBC80001010159D8A009D0010102510101005FFA
:10CBD800010103510101015B00D00101D890033329
:10CBE80002330101042FE6D700D0010105510101EC
:10CBF800D8B406D00101006D011FD8B0012B00D0B8
:10CC080000C100F101C101F112001200000E000183
:10CC1800656F000161AF09D00001606D611FD8B078
:10CC2800612B010E0001656F00D0000163AF06D0D3
:10CC38000001626D631FD8B0632B00D00001625100
:10CC480000016311D8B42BD0010E0001646F07D026
:10CC58000001D890623763370001642B00D00001CF
:10CC680063BF02D0F5D700D0000162510001605DBA
:10CC78000001635100016159D8A009D00001625137
:10CC88000001605F000163510001615B00D0000199
:10CC9800D890633362330001642FE6D700D00001D7
:10CCA80065510001D8B406D00001606D611FD8B08D
:10CCB800612B00D060C060F061C061F0120012000A
:10CCC8000EC100F10FC101F1000E0101026F0EC18A
:10CCD80003F10FC104F1080E0101056F080E0101EF
:10CCE800066FDAEC6DF00009D8B412000EC100F13D
:10CCF8000FC101F1080E0101026F0EC103F10FC14E
:10CD080004F1100E0101056F080E0101066FDAEC3F
:10CD18006DF00009D8B41200000E0101106F070E63
:10CD28000101106501D01DD0BAEC78F0F40E0101B4
:10CD380010250101006F0101016B030E01230101A0
:10CD4800105101010E25D96E0101000E01010F21BC
:10CD5800DA6EDF500101026FC6EC72F00101102B90
:10CD6800DED70EC100F10FC101F14DEC6AF01200DF
:10CD78001200000E0101106F000E0F6F010110BFAD
:10CD88000AD0010110514AE1FA0E01010F5DD8B035
:10CD980045D001D043D00BC104F10CC105F101010C
:10CDA8000F5127EC5DF00009D8B433D00FC10DF155
:10CDB80010C10EF1D89001010D370E37010E010197
:10CDC8000D27000E0E23C90E01010D25D96E080E80
:10CDD80001010E21DA6EDF501F0B1F0AD8B419D0DB
:10CDE8000FC10DF110C10EF1D89001010D370E37AA
:10CDF800010E01010D27000E0E23C90E01010D259C
:10CE0800D96E080E01010E21DA6EDF38E832070B01
:10CE1800120001010F4B102BB1D700D0000E1200E9
:10CE28001200EACF1FF0E1CF20F0E2CF21F0D9CFF6
:10CE380022F0DACF23F0F3CF24F0F4CF25F0F6CFA9
:10CE480026F0F7CF27F0F8CF28F0F5CF29F09EB0DD
:10CE58009DA022D09E90F80E2B6E000E2A6E2B50AD
:10CE6800CF6ED3B603D0010E4B6E00D04B50D4EC2E
:10CE780063F0010E0101BD6F0201782B0001CF5153
:10CE8800D8B404D00201424B432B06D0000E020155
:10CE9800436F000E426F00D029C0F5FF28C0F8FF8D
:10CEA80027C0F7FF26C0F6FF25C0F4FF24C0F3FF14
:10CEB80023C0DAFF22C0D9FF21C0E2FF20C0E1FF72
:10CEC8001FC0EAFF1EC0E9FF1DC0FBFF1CC0FAFF20
:10CED80011000101106FFA0E010110613ED010C15E
:10CEE80011F10101126B11C10EF112C10FF1010113
:10CEF800D8900E370F370101D8900E370F370EC173
:10CF080011F10FC112F1000E0101136F030E01019F
:10CF1800136502D01200120001011351010DF350E4
:10CF280001010C25D96EF45001010D21DA6E0101C1
:10CF38001351010111250101026F000E0101122197
:10CF48000101036F4AEC78F0DF6E0101132B030E29
:10CF580001011365E1D712001200E10E0101066F0D
:10CF6800010E0101076F0CC108F10DC109F1040E92
:10CF780001010A6F56EC72F0120012000101146FE1
:10CF8800030E0101086F01011451060D050EF32669
:10CF9800000EF422BD0EF324D96E0A0EF420DA6EC8
:10CFA800DF5007EC47F00101136F01011451060D22
:10CFB800040EF326000EF422BD0EF324D96E0A0ED9
:10CFC800F420DA6EDF380F0B00EC75F00101135D09
:10CFD800D8B012D001011451060D040EF326000E2C
:10CFE800F422BD0EF324D96E0A0EF420DA6EDF386F
:10CFF8000F0B00EC75F01200030E0101086F010120
:10D008001451060D050EF326000EF422BD0EF3246E
:10D01800D96E0A0EF420DA6EDF5007EC47F01200E2
:10D0280012000EC106F10FC107F1E10E0101086FF0
:10D03800010E0101096F040E01010A6F89EC71F0FC
:10D048000009D8A41200000E0101126F3E0E010162
:10D05800126502D01200120001011251060DBD0E18
:10D06800F3240101066F0A0EF4200101076F0EC1B7
:10D0780008F10FC109F1040E01010A6F89EC71F082
:10D088000009D8B418D010C111F101011251060DD0
:10D09800040EF326000EF422BD0EF324D96E0A0EF8
:10D0A800F420DA6E0101113BDF50010111190F0B59
:10D0B8001119DF6E12000101122B3E0E01011265DB
:10D0C800CBD7120012001200000E01010E6F000EE5
:10D0D8000D6F010120EE03F00651D9260751DA221F
:10D0E800DF500101086F06C1D9FF07C1DAFFDF5021
:10D0F8000101096F0A6B010120EE01F00651D926E2
:10D108000751DA22DF5001010B6F01010B510101B8
:10D118000927000E0A23010120EE02F00651D92644
:10D128000751DA22DF5001010C6F01010C51010196
:10D138000927000E0A2301010851010109250101EF
:10D14800006F0101000E01010A210101016F000EAB
:10D158000101036FC90E026FB0EC65F000C10DF15B
:10D1680001C10EF101010D511200120001012C6FD5
:10D1780001012C51A8EC5DF0000E0101C76F000EF3
:10D188000101DE6F010E0101F16F7F0E0201396F9F
:10D19800F00E386F7F0E0001A36FF00EA26F000E25
:10D1A8002D6E100E2C6E070E01010E6F0D69040E08
:10D1B80001010F6F010E5FEC45F0010E0001A22581
:10D1C8000001A26FF80E0001A3210001A36F2C0635
:10D1D800D8A02D06070E356E3468090E27EC77F0B7
:10D1E800000E01010D6F1E0E0C6FF6EC64F05A0E66
:10D1F80001010C250101266F000E01010D2101011D
:10D20800276F010E0101286F0E0E48EC6CF012001A
:10D21800100E0101446F18C10BF119C10CF1400E39
:10D2280001010D6F010E01010E6FCBEC40F01D0ED8
:10D2380001011A6F2E0E01011B6F460E01011C6FB2
:10D24800480E01011D6F430E01011E6F010E010101
:10D25800066F000E076F020E086F000E096F0B0EA7
:10D2680001010A6F000E0B6F000E0C6F000E0D6FA0
:10D278001F0E01010E6F010E01010F6FFFEC69F027
:10D2880018C10EF119C10FF11A0E0101106F010E2C
:10D298000101116F44C112F1000E0101136F010E5B
:10D2A8000101146F000E0101156F86EC44F01200A5
:10D2B8001200100E0101446F18C10BF119C10CF1D5
:10D2C800400E01010D6F010E01010E6FCBEC40F015
:10D2D8001D0E01011A6F2A0E01011B6F410E01017B
:10D2E8001C6F530E01011D6F460E01011E6F010ECA
:10D2F8000101066F000E076F020E086F000E096F1E
:10D308000B0E01010A6F000E0B6F000E0C6F000E62
:10D318000D6F1F0E01010E6F010E01010F6FFFEC63
:10D3280069F018C10EF119C10FF11A0E0101106F41
:10D33800010E0101116F44C112F1000E0101136FBA
:10D34800010E0101146F000E0101156F86EC44F007
:10D3580012001200000E0101106F000E0F6F000E78
:10D368000101126F000E116F000E0101006F080E0F
:10D378007CEC72F0000E0101126F000E116F000EAE
:10D388000101136F090E0101136501D01FD0D0EC04
:10D3980078F000D067EC78F00009D8A4FBD7C45027
:10D3A8000101106F0F6BC35001010F13040E01012F
:10D3B800136509D001010F51010111270101105115
:10D3C8000101122300D00101132BDCD711C106F192
:10D3D80012C107F1000E0101096F050E086F17EC65
:10D3E8006DF006C111F107C112F111C10DF112C1A1
:10D3F8000EF112001200000E0101106F000E116FE5
:10D40800000E126F000E136F899E030E7DEC76F0EE
:10D41800010108517DEC76F0010107517DEC76F0B1
:10D42800010106517DEC76F0000E0101106F000E2F
:10D43800116F000E126F000E136F17D001011051FB
:10D4480001010E25D96E0101115101010F21DA6E7A
:10D45800A9EC77F001010051DF6E010E01011027E0
:10D46800000E11231223132300D001010A510101D8
:10D47800105D01010B510101115901010C5101010C
:10D48800125901010D5101011359D8A0D7D7898E1E
:10D498001200000E0101036F070E0101036501D0A0
:10D4A80019D001010351010DF35001010025D96E76
:10D4B800F45001010121DA6E01010351010DB50E8D
:10D4C800F324E16E020EF420E26EDFCFE7FF0101E4
:10D4D800032BE2D7000E0101036F070E010103655C
:10D4E80002D01200120001010351010DF350010195
:10D4F8000025D96EF45001010121DA6EDE28D8A486
:10D5080009D0070E01010319D8A408D0000E0101A3
:10D51800C96F04D0010E0101C96F12000101032B6C
:10D52800070E01010365DFD712001200000E01018A
:10D538000D6F3FD0010102510DC107F10101086BC8
:10D5480001010727000E082300C109F101C10AF1F2
:10D5580001010751010109270101085101010A23AD
:10D5680009C1F6FF0AC1F7FF000EF86E0101055167
:10D578000DC10BF101010C6B01010B27000E0C23EF
:10D5880001010B5101010325D96E01010C51010163
:10D598000421DA6E0E0EF76403D00800F55005D0AA
:10D5A800F6CFE9FFF7CFEAFFEF50DF6E01010D2B51
:10D5B80000D00101065101010D5DD8A0BBD71200B2
:10D5C8002AEC78F0899E020E7DEC76F00101075175
:10D5D8007DEC76F0010106517DEC76F001010551F4
:10D5E8007DEC76F0000E01010F6F000E106F000E3B
:10D5F800116F000E126F15D001010F51010109259D
:10D60800D96E0101105101010A21DA6EDF507DEC5B
:10D6180076F0010E01010F27000E102311231223AB
:10D6280000D001010B5101010F5D01010C510101F5
:10D63800105901010D510101115901010E5101014A
:10D648001259D8A0D9D7898E06EC78F012001200AA
:10D65800040E01010E250101066F000E01010F21C4
:10D668000101076F10C108F111C109F1040E010190
:10D678000A6F56EC72F03AEC78F002C1D9FF03C198
:10D68800DAFF12C1E1FF13C1E2FFDFCFE7FF0EC1EE
:10D6980006F10FC107F1E10E0101086F010E01014A
:10D6A800096F040E01010A6F89EC71F00009D8A412
:10D6B80012D00EC106F10FC107F1E50E0101086F86
:10D6C800010E0101096F040E01010A6F89EC71F066
:10D6D8000009D8B402D0010E1200000E1200120088
:10D6E800000E0001C96F3E0E010108611200200EF4
:10D6F80099EC56F0800E99EC56F001010851020F92
:10D70800F2EC77F00001B751F2EC77F0000E01016E
:10D71800096F21D001010951010DF35001010625BE
:10D72800D96EF45001010721DA6EDF500001C919E2
:10D738000001C96F01010951010DF35001010625CE
:10D74800D96EF45001010721DA6EDF50F2EC77F060
:10D758000101092B00D0010108510101095DD8A080
:10D76800D9D70001C951F2EC77F01200120001017B
:10D778000B6FFA0E01010B6112000BC10CF10101D4
:10D788000D6B0CC109F10DC10AF10101D8900937DF
:10D798000A370101D89009370A3709C10CF10AC1C3
:10D7A8000DF1000E01010E6F030E01010E6502D08E
:10D7B8001200120001010E5101010C250101046F34
:10D7C800000E01010D210101056F01010E51010D2E
:10D7D800F35001010725D96EF45001010821DA6ED2
:10D7E800DF500101066F56EC77F001010E2B030E96
:10D7F80001010E65DFD7120012001200E7EC77F086
:10D808000101046F0001D151D8A41CD001010429E1
:10D81800D8A403D004C1D2F007D001010429000123
:10D82800D26F0001D205476E400E0001D2650AD0C2
:10D83800400E0001D26F0001D205476E010E0201B1
:10D84800746F00D00001D2510001D15DD8B00ED064
:10D858000001D151010DA70EF324D96E040EF42056
:10D86800DA6E04C1DFFF0001D12B00D00001D251D4
:10D878000001D119D8A412000001D251D8B4120065
:10D88800010E396E1200120001012B6F01012629C9
:10D898001DE101012729D8A419D001012B51020D3E
:10D8A800000EF324D96E020EF420DA6EFF0EDE6E3F
:10D8B800FF0EDD6E01012B51010D000EF324D96E10
:10D8C800030EF420DA6E28C1DFFF1200010E0101F9
:10D8D80026250101296F000E0101272101012A6F68
:10D8E80001012B51020D000EF324D96E020EF42013
:10D8F800DA6E29C1DEFF2AC1DDFF01012B51010DBE
:10D90800000EF324D96E030EF420DA6E28C1DFFF6F
:10D9180012001200000E096E000E0A6E000E0B6E49
:10D92800000E0C6E0550061007100810D8B42FD042
:10D93800010E0D6E07D0D890053606360736083624
:10D948000D2A00D008BE02D0F6D700D0D8900936EC
:10D958000A360B360C360550015C06500258075043
:10D96800035808500458D8A00AD00550015E065044
:10D97800025A0750035A0850045A098000D0D89018
:10D9880008320732063205320D2EE0D700D009C022
:10D9980001F00AC002F00BC003F00CC004F0120042
:10D9A8000101006F000E0101016F949E8B9E948C03
:10D9B8001A0EE82EFED700D0000E0101026F070EE6
:10D9C8000101026501D015D00101D89001378B8E75
:10D9D8001A0EE82EFED700D082AC03D001010181D7
:10D9E80000D08B9E1A0EE82EFED700D00101022B24
:10D9F800E6D7010100510101D8A403D08B9C949C67
:10DA080000D01A0EE82EFED700D08B8E1A0EE82E04
:10DA1800FED700D08B9E1A0EE82EFED700D001014B
:10DA2800015112001200000E01010C6F000E0B6F65
:10DA38000101085101010911D8B431D0010E0101C9
:10DA48000A6F07D00101D8900837093701010A2B5E
:10DA580000D0010109BF02D0F5D700D00101D8904C
:10DA68000B370C37010108510101065D010109510D
:10DA780001010759D8A00BD0010108510101065F27
:10DA8800010109510101075B01010B8100D001016E
:10DA9800D8900933083301010A2FE0D700D00BC111
:10DAA80006F10CC107F112000101006F00C101F17C
:10DAB800949C949E000E0101026F1BD01ED00101A0
:10DAC80001AF02D08B8C02D08B9C00D00101D89082
:10DAD80001371A0EE82EFED700D08B8E1A0EE82ECC
:10DAE800FED700D08B9E1A0EE82EFED700D001017B
:10DAF800022B070E01010265E2D7948C1A0EE82E5C
:10DB0800FED700D08B8E1A0EE82EFED700D0000E5E
:10DB180082BC010E0101026F8B9E1A0EE82EFED701
:10DB280000D00101025112001200000E0001666FC0
:10DB3800000E656F0001625100016311D8B431D045
:10DB4800010E0001646F07D00001D8906237633777
:10DB58000001642B00D0000163BF02D0F5D700D0CC
:10DB68000001D89065376637000162510001605D99
:10DB78000001635100016159D8A00BD00001625126
:10DB88000001605F000163510001615B0001658174
:10DB980000D00001D890633362330001642FE0D7CE
:10DBA80000D065C060F066C061F01200000E01018F
:10DBB8000D6F31D0010105510DC107F10101086B4D
:10DBC80001010727000E0823010107510101032560
:10DBD800D96E0101085101010421DA6E01010251D7
:10DBE8000DC10AF101010B6B01010A27000E0B237D
:10DBF80001010A5101010025E16E01010B510101EA
:10DC08000121E26EDE50E618D8B402D0000E1200F0
:10DC180001010D2B00D00101065101010D5DD8A0B5
:10DC2800C9D7010E12001200000E0101116F000E7B
:10DC3800106F010111BF0AD00101115130E13F0EEF
:10DC48000101105DD8B02BD001D029D010C100F14E
:10DC580011C101F1000E0101036F060E026F79EC8C
:10DC680074F0BD0E010100250101066F0A0E0101C5
:10DC780001210101076F0EC108F10FC109F1040E5E
:10DC880001010A6F89EC71F00009D8B403D00101D1
:10DC9800105112000101104B112BCBD700D0FF0EF1
:10DCA80012001200120E01010E6F010E01010F6F1A
:10DCB800F90E0101106F010E0101116F8AEC60F07D
:10DCC800000E0101266F830E0101006FFE0E010197
:10DCD800016F000E0101026F120E0101036F010EA8
:10DCE8000101046F150E0101056F240E0101066F75
:10DCF8009AEC6AF00101C951300F01014B6F120E05
:10DD08000101046F010E0101056F3A0E0101066F52
:10DD1800000E0101076F020E21EC5FF01200000EE9
:10DD28000101086F000E096F000E0A6F000E0B6FDD
:10DD380000D0010100A111D00101045101010827FF
:10DD480001010551010109230101065101010A23BD
:10DD58000101075101010B2300D00101D8900437BC
:10DD68000537063707370101D890033302330133EB
:10DD780000330101005101010111010102110101EA
:10DD88000311D8A4D6D708C100F109C101F10AC10D
:10DD980002F10BC103F11200000E0001686F000EC2
:10DDA800696F000E6A6F000E6B6F00D0000160A1F2
:10DDB80011D000016451000168270001655100017C
:10DDC80069230001665100016A23000167510001BF
:10DDD8006B2300D00001D890643765376637673702
:10DDE8000001D890633362336133603300016051BE
:10DDF800000161110001621100016311D8A4D6D796
:10DE080068C060F069C061F06AC062F06BC063F01E
:10DE1800120001010251010100250101086F0101F1
:10DE28000351010101210101096F08C10AF109C16A
:10DE38000BF101010C6B0D6B10D0010104510101B4
:10DE48000A5F0101055101010B5B01010651010146
:10DE58000C5B0101075101010D5B01010451010136
:10DE68000A5D0101055101010B590101065101012A
:10DE78000C590101075101010D59D8B0DED70AC16B
:10DE880000F10BC101F11200060E0101446F18C127
:10DE98000BF119C10CF1400E01010D6F010E0101CA
:10DEA8000E6FCBEC40F01F0E01011A6F2A0E010114
:10DEB8001B6F530E01011C6F460E01011D6F540E9E
:10DEC80001011E6FD9C01FF118C10EF119C10FF160
:10DED8001A0E0101106F010E0101116F44C112F1F8
:10DEE800000E0101136F010E0101146F000E0101F4
:10DEF800156F86EC44F012001200000E01011B6F32
:10DF0800830E0101006FFE0E0101016F000E010179
:10DF1800026F1B0E0101036F010E0101046F010E58
:10DF28000101056F240E0101066F9AEC6AF00101E8
:10DF3800C951300F0101406F18C10EF119C10FF11D
:10DF48001B0E0101106F010E0101116F260E010158
:10DF5800126F000E0101136F1AC114F1000E0101B6
:10DF6800156F86EC44F0120012003D0E0101536F4C
:10DF780014C116F115C117F114C100F115C101F151
:10DF8800000E0101036F380E026F79EC74F0010185
:10DF980000C106F1010101C107F10101086B096B1C
:10DFA800380E01010A6F000E0B6F000E0C6F000E89
:10DFB8000D6F180E01010E6F010E01010F6FFFECBE
:10DFC80069F0160E0101066F010E0101076F53C1BA
:10DFD80008F174EC6BF012000101046F01010451A7
:10DFE800020D000EF324D96E020EF420DA6EDE5014
:10DFF800DE10D8B418D001010451020D000EF3242C
:10E00800D96E020EF420DA6EDECF02F1DDCF03F115
:10E01800FF0E010102250101006FFF0E010103211E
:10E028000101016F120001010451020D000EF324D9
:10E03800D96E020EF420DA6EDECF00F1DDCF01F1E9
:10E048001200120001010F5101011011D8B42BD098
:10E05800010E0101116F07D00101D8900F37103759
:10E068000101112B00D0010110BF02D0F5D700D05B
:10E0780001010F5101010D5D0101105101010E59FE
:10E08800D8A009D001010F5101010D5F0101105104
:10E0980001010E5B00D00101D89010330F3301014C
:10E0A800112FE6D700D00DC10DF10EC10EF11200EF
:10E0B8000001695100016A11D8B42BD0010E00018A
:10E0C8006B6F07D00001D89069376A3700016B2B56
:10E0D80000D000016ABF02D0F5D700D00001695115
:10E0E8000001675D00016A5100016859D8A009D094
:10E0F800000169510001675F00016A510001685B16
:10E1080000D00001D8906A33693300016B2FE6D73D
:10E1180000D067C067F068C068F0120014D0D00E55
:10E128000101026FCA0EE82EFED7022FFCD7F60EA9
:10E13800010100250101006FFF0E0101012101010C
:10E14800016F040000D001010151E9E10B0E01014A
:10E15800005DD8A010D0E3D70ED0150E0101026FD4
:10E16800C60EE82EFED7022FFCD700D0010100070B
:10E17800D8A0010704000101005101010111D8A430
:10E18800ECD712000101026F3F0EC716000EC66ED3
:10E1980001010251C61201010151C71205D0C78CF5
:10E1A80016D0C78CC68813D001010051000AD8B414
:10E1B800F6D7020AD8B4F5D7010AD8B4F3D707D0EE
:10E1C8009486928A0DD094860BD0949609D001013A
:10E1D8000251040AD8B4F4D7010AD8B4F4D7F5D751
:10E1E8009488949AC68A1200000E01010E6F0101EC
:10E1F800F8516BEC76F0040E01010C6F010E91ECF6
:10E208005AF00001A25101010C250101236F000100
:10E21800A35101010D210101246FAEEC78F0010139
:10E22800206F23C122F1010124510101216F200E29
:10E238000101176F010E0101186F030E0101196F1B
:10E24800010E01011A6F98EC48F012002CD0470417
:10E25800D8A405D09CEC77F00201726F00D00001C1
:10E26800D2510001D15DD8B00FD00001D151010DBC
:10E27800A70EF324D96E040EF420DA6EE7EC77F0DB
:10E28800DF6E0001D12B00D00001D2510001D1195D
:10E29800D8A407D00001D251D8B403D0010E396EEA
:10E2A80000D0470600D04750D8A4D1D71200000E9E
:10E2B8000101006F948C1A0EE82EFED700D0000ED4
:10E2C80082BC010E0101006F010100510101D8A4B7
:10E2D800120001D01200949E000E0101006F080E7A
:10E2E8000101006501D00DD08B8E1A0EE82EFED7E5
:10E2F80000D08B9E1A0EE82EFED700D00101002B0D
:10E30800EED78EEC77F012001200000E01010D6FAF
:10E318001FD001010D51010DF35001010825D96EDF
:10E32800F45001010921DA6E01010D51010DF3507C
:10E3380001010625E16EF45001010721E26EDE506D
:10E34800E618D8B402D0000E120001010D2B00D03F
:10E3580001010A5101010D5DD8A0DBD7010E1200A1
:10E3680012001D0E01011A6F250E01011B6FF9C164
:10E378001CF1FAC11DF1FBC11EF1FCC11FF1060E13
:10E388000101406F18C10EF119C10FF11A0E0101F8
:10E39800106F010E0101116F40C112F1000E010151
:10E3A800136F010E0101146F000E0101156F86EC49
:10E3B80044F0120012000101BD51D8A4120001015D
:10E3C800BE51D8A412000101C051D8A41200000106
:10E3D800CF51D8A412000001CB51D8A412000101DA
:10E3E800D551D8A412004D50D8A412000101D05123
:10E3F800D8A412003650D8A412004E50D8B4120037
:10E408008EEC78F0120012002CC121F12DC122F1FE
:10E418003C0E0101236F010E0101246F010E010161
:10E42800256F04EC3DF02CC10EF12DC10FF118EC55
:10E438006EF001012F6F2AC115F12BC116F12FC102
:10E4480017F12EC118F1000E0101196F010E01011B
:10E458001A6FBBEC1DF0120001012C6F000E0101B8
:10E46800F06F2CC1CCF0000E01012E6F3E0E2D6F07
:10E478002DC100F12EC101F1000E0101036F1E0E26
:10E48800026F79EC74F000C12DF101C12EF12DC19C
:10E4980026F12EC127F1000E0101286F070E48EC66
:10E4A8006CF01200000E01010B6F1BD001010B5123
:10E4B800010DF35001010625D96EF4500101072121
:10E4C800DA6E01010B51010DF35001010825E16ECF
:10E4D800F45001010921E26EDFCFE7FF01010B2BA8
:10E4E80000D001010A5101010B5DD8A0DFD712004D
:10E4F8000101026F00C101F10101013BC15001019D
:10E508000119CF0B0119C16EC196C190C192C19476
:10E5180002C101F1010101470147C250010101197E
:10E52800830B0119C26EC086C088C08AC050F80B20
:10E538000609C06EC08EC2801200000E0101016F74
:10E548003E0E0101016501D01AD001010151060DED
:10E55800040EF326000EF422BD0EF324D96E0A0E23
:10E56800F420DA6EDF500F0B0101006F020E01017B
:10E57800006102D0010E12000101012BE1D7000E4B
:10E5880012001200000E0101036F01010151030B7B
:10E59800756E00C174FF02C173FF7F9E7F9C7F84EC
:10E5A800000EF2BE010E0101036FF29E550E7E6E43
:10E5B800AA0E7E6E7F8200D07FB2FED7010103B122
:10E5C80002D0F29E01D0F28E7F941200000E00015C
:10E5D8006B6F000169AF09D00001686D691FD8B081
:10E5E800692B010E00016B6F00D068C060F069C034
:10E5F80061F00001626B8E0E0001636F6BC064F006
:10E60800E7EC58F060C068F061C069F062C06AF079
:10E61800120012001A0E0101006F010E0101016FB4
:10E628005DEC53F00101406F18C10EF119C10FF1F3
:10E638001A0E0101106F010E0101116F40C112F194
:10E64800000E0101136F010E0101146F000E01018C
:10E65800156F86EC44F01200120093968A8689861C
:10E66800050E0101046F260EE82EFED7042FFCD7F5
:10E6780000D08996680E0101046FE40EE82EFED7DB
:10E68800042FFCD700D0BAEC78F0030E0101016F1B
:10E69800FE0E006FFF0E0101026FC6EC72F0120051
:10E6A8001D0E01011C6F1AC11DF11BC11EF1030EC5
:10E6B8000101426F18C10EF119C10FF11C0E0101C1
:10E6C800106F010E0101116F42C112F1000E01011C
:10E6D800136F010E0101146F010E0101156F86EC15
:10E6E80044F012000FC106F110C107F1E50E010157
:10E6F800086F010E0101096F040E01010A6F56EC43
:10E7080072F00101E1690101E2690101E3690101B6
:10E71800E469E50E0101066F010E0101076F68EC5F
:10E7280068F084EC78F012000101016F01010151D9
:10E738000101D8B409D00001D451D8B413D0899CB0
:10E748008B94898012000ED0010100510101D8B4C8
:10E7580009D00001D651D8B405D0898C8B94899002
:10E76800120000D0899C8B84899012000001616F8F
:10E77800000161510001D8B409D00001D451D8B4C6
:10E7880013D0899C8B94898012000ED000016051AF
:10E798000001D8B409D00001D651D8B405D0898C6D
:10E7A8008B948990120000D0899C8B8489901200E8
:10E7B8000101026F01010251020D000EF324D96E0E
:10E7C800020EF420DA6EDE04DE10D8A40FD00101A8
:10E7D8000251020D000EF324D96E020EF420DA6EF7
:10E7E800000EDE6E000EDD6E010E1200000E12002D
:10E7F80012000101006F010100510101D8A409D0E4
:10E80800D59E000ED76E000ED66E850ED56ED58EAF
:10E818001200030E01010019D8A41200000EB36EF5
:10E82800000EB26E8C0EB16EA292A192B18012004F
:10E838001200FFFFFFFFFFFFFFFFFFFFFFFFFFFFCC
:10E84800FFFFFFFFFFFF010000006D4EC6411700EC
:10E8580001000800FF0001020141FFFFFFFFFFFF69
:10E86800FFFFFFFFFFFFFFFFFFFFFFEA06EA06EAE1
:10E8780006000101046F410E0101056F0101D890E6
:10E8880005375BEC71F034EC76F00101055158EC7A
:10E898006DF00009D8A409D00101045158EC6DF0BD
:10E8A8000101035158EC6DF000D08EEC77F01200A6
:10E8B8000101046F01010451D8090101056F05C167
:10E8C80002F13C0ECCEC74F0C80E0101056F05C1D5
:10E8D80002F11A0ECCEC74F0000E0101056F05C1AF
:10E8E80002F13E0ECCEC74F012000101005101015E
:10E8F8000203F3CF04F1F4CF05F101010051010146
:10E908000303F3500101052701010151010102032D
:10E91800F3500101052704C100F105C101F11200FE
:10E9280012000001605100016203F3CF64F0F4CFDC
:10E9380065F00001605100016303F3500001652791
:10E948000001615100016203F3500001652764C0B2
:10E9580060F065C061F01200120001012C6F010126
:10E968002C510101D8B404D0010E0101F16F12003D
:10E97800000E0101F16F010E0101276F680E266F6D
:10E98800010E0101286F0F0E48EC6CF01200120006
:10E998000101036F8994010103517DEC76F0E40EC7
:10E9A80000D000D0E82EFCD700D000D001010251E1
:10E9B8007DEC76F0E40E00D000D0E82EFCD700D035
:10E9C80000D089841200000E01010C6F010E91EC39
:10E9D8005AF001010C1F01010D1F01010C4B0D2BF9
:10E9E8003E0E01010C250101176F000E01010D21DA
:10E9F8000101186F120012000101006F060E0101DB
:10EA0800006102D0000E03D001010051FB0F01018B
:10EA1800016F070E0101016503D0070E0101016FA7
:10EA28000101015112001200000E0101056F000ED4
:10EA38000101066F0BD01C0EE2EC75F00101066FA8
:10EA480001010651020B0101056F00D001010551BA
:10EA58000101D8B4F0D712000101026F000E0101C4
:10EA6800016F3A0E0101026108D02F0E0101026503
:10EA780004D0010E0101016F00D001C100F10101B4
:10EA8800003112001200000E0101276F010E266FDF
:10EA9800010E0101286F020E48EC6CF0000E010116
:10EAA800276F010E266F010E0101286F030E48EC37
:10EAB8006CF01200010E0101276F2C0E266F010E5B
:10EAC8000101286F140E48EC6CF0010E0101276F4C
:10EAD8002C0E266F010E0101286F130E48EC6CF006
:10EAE80012000001626F000E0001616F3A0E000112
:10EAF800626108D02F0E0001626504D0010E00018A
:10EB0800616F00D061C060F0000160311200120036
:10EB18002AEC78F0899E200E7DEC76F001010751F1
:10EB28007DEC76F0010106517DEC76F0010105518E
:10EB38007DEC76F0898E06EC78F0120008C100F1C1
:10EB480009C101F10101026B8E0E0101036F000E74
:10EB58000101046F57EC58F000C108F101C109F137
:10EB680002C10AF1120012000101006F080E000133
:10EB7800D06112000001D051010D2E0EF324D96E80
:10EB8800020EF420DA6E00C1DFFF0001D02B120064
:10EB980012000101036F03C100F10101016B240E92
:10EBA8000101026F77EC59F003C100F10101016B1B
:10EBB800240E0101026F77EC59F012000101046F75
:10EBC80089940101045140090101046F01010451B4
:10EBD8007DEC76F0A9EC77F000C103F1898401019E
:10EBE8000351120012000001646F899400016451FE
:10EBF80040090001646F000164518FEC76F0B6ECB7
:10EC080077F060C063F0898400016351120012003C
:10EC18000101026F01010251020D000EF324D96EA9
:10EC2800020EF420DA6EDE50DE10D8A402D0010EF7
:10EC38001200000E120012004C2A4C504518D8A49D
:10EC48001200000E0001CB6F000E0001606F000E75
:10EC5800BAEC73F0000E4C6E000E456E12001200F6
:10EC6800948C1A0EE82EFED700D08B8E949E8B9C27
:10EC7800949C1A0EE82EFED700D08B9E1A0EE82E12
:10EC8800FED700D01200020E01010C6F0AC10DF16F
:10EC98000BC10EF10D0E0101066F010E0101076F88
:10ECA8000CC108F174EC6BF01200000E0101036F47
:10ECB800899E050E7DEC76F0A9EC77F001010051F4
:10ECC8000101036F898E0101035112001200010135
:10ECD8000F6F01010F514F18D8B4120001D0120064
:10ECE8000EC104F101010F51D3EC47F00FC14FF0F1
:10ECF80012000101016FC9CF00F19E96C69E01C1A5
:10ED0800C9FFC6BE120002D0120000D09EB6120083
:10ED1800FDD7120012000001616FC9CF60F09E9606
:10ED2800C69E61C0C9FFC6BE120002D0120000D044
:10ED38009EB61200FDD7120012000101036F0001F8
:10ED4800BB51D8B41200000E0101016F020E006F12
:10ED580003C102F177EC59F01200120052C020F101
:10ED6800200E0101176F010E0101186F010E01013C
:10ED7800196F010E01011A6F98EC48F01200010199
:10ED8800066F01010651010B0001D46F0101065104
:10ED98000E0B0101056F0101055147EC77F01200D8
:10EDA800D08EF290F28CF196F1920F015A9F0F01DA
:10EDB8005A9D0F015A9B0F015A99F286F190F28ED3
:10EDC80012000001636F0001BB51D8B41200000E9D
:10EDD8000001616F020E606F63C062F004EC5AF0CC
:10EDE80012001200000162510201CD270001635197
:10EDF8000201CE23000164510201CF2300016551B5
:10EE08000201D02312002A8C02020CC177643277E7
:10EE1800623238F81180E938380700000507090C14
:10EE2800F2004000D8800101046F0001D551D8A438
:10EE380004D00001C151D8B4120001010451A1EC61
:10EE480076F0120012000101006F01010051020D5D
:10EE5800000EF324D96E020EF420DA6E000EDE6E78
:10EE6800000EDD6E12000001646F0001D551D8A4B8
:10EE780004D00001C151D8B4120000016451E5EC7E
:10EE880076F0120012000101046F0301EA51F00B41
:10EE9800010104110301EA6FEAC302F1340ECCEC5C
:10EEA80074F01200010E0101E06FBAEC78F004C1B1
:10EEB80000F105C101F106C102F1C6EC72F01200C1
:10EEC800200E99EC56F0400E99EC56F021EC78F0B3
:10EED80018EC75F0600E99EC56F012000101015122
:10EEE800030B756E00C174FF7F9C7F9E7F8000F0CE
:10EEF80000F07350120012000101006F00C1C7F149
:10EF0800010100510101D8A41200010E0101F16FA5
:10EF1800120012008B9C949C1A0EE82EFED700D08B
:10EF2800949E8B8E1A0EE82EFED700D0948C120079
:10EF38003C0EE2EC75F00101056F010105A102D05C
:10EF4800010E1200000E12001200C9CF02F19E96A7
:10EF5800000EC96E00D09EA6FED7C9CF00F10101F0
:10EF6800016B1200C9CF62F09E96000EC96E00D0E8
:10EF78009EA6FED7C9CF60F00001616B12000101A7
:10EF8800046F04C1B7F004C1EDF3EDC302F13A0E0A
:10EF9800CCEC74F012000101006F01010051010175
:10EFA800D8B402D093961200938612001200010181
:10EFB800006F010100510101D8B402D08A84120007
:10EFC8008A941200120089848992A9EC77F000C112
:10EFD80003F1898201010351120012000101026F3D
:10EFE80089848992010102517DEC76F089821200B0
:10EFF8005128D8B402D0512A02D0000E516E515077
:10F008001200120000D059EC76F00101046F0101E2
:10F0180004B1F9D7120000D059EC76F00101046F61
:10F02800010104A3F9D712000101496F48C12CF16D
:10F038000101495143EC25F01200070E0101046F4C
:10F0480004C102F11C0ECCEC74F01200899E060E6D
:10F058007DEC76F0898E0FEC78F0120000C1C9F2D1
:10F0680001C1CAF20201CB6BCC6B120042EC78F002
:10F0780000C102F101C103F112001200D70E010113
:10F08800006F000E0101016F1200120002C100F1B1
:10F0980003C101F172EC77F012001200080101FFC0
:10F0A8003C0101010119FFFFFFFF0101066F01018A
:10F0B800065160EC78F012000101056F010105515D
:10F0C800C3EC77F01200C2A202D0010E1200000EAB
:10F0D80012001200070E0101016F006912001200F0
:10F0E800280EF7EC75F097EC64F012000301EA5172
:10F0F8000E0B120012000101006F00C1EFF11200A7
:10F108000101006F00C1D2F11200B7C100F1B8C10E
:10F1180001F11200D39ED18E030004001200B7C182
:10F1280060F0B8C161F0120077C0B7F178C0B8F1EB
:10F1380012000103FFFFFF00C20100000101EF51AF
:10F14800120012000001B75112001200B2EC78F060
:10F15800120012000001C851120012000001C25131
:10F16800120012000101C7511200120000D07FB234
:10F17800FED712000201D551120012000001C85139
:10F18800120012000001C25112001200FA0E120001
:10F198001200000E12001200C282120002FF0300C9
:04F1A800120012003F
:10FE68000001000A006400E80310270001020304EF
:10FE78000506000100100000010010656D4472695C
:10FE88007665415A2C322E3139382C312E33312CAB
:10FE9800322C312C302C30303030303030302C0097
:10FEA8003C453E4E6F7420416C6C6F7765642074DE
:10FEB8006F2073656E643C2F453E004D6173743A44
:10FEC80020307825303258253032582530325825A0
:10FED800303258200049443A2030782530325825AD
:10FEE800303258253032582530325820003C453EB3
:10FEF80073746279207768696C6520696E743C2F29
:10FF0800453E003C453E476F696E6720746F20543C
:10FF180058313C2F453E003C453E5265637620589B
:10FF28003220444154413C2F453E004669726D776A
:10FF38006172653A2076322E31393820003C453ED0
:10FF4800526563762058322042433C2F453E003CA0
:10FF5800543E476574526566726573683C2F543E1B
:10FF6800003031323334353637383941424344452D
:10FF7800460047726F75703A203078253032582025
:10FF8800003C543E526566726573683C2F543E00CF
:10FF98004E6F64653A203078253032582000436F20
:10FFA800723A202530325820004261743A202530B8
:10FFB8003458200053533A202530325820005070CE
:10FFC800723A2025692000547970653A20003C2F48
:10FFD80044413E003C2F55413E0057445253540083
:10FFE8003C44413E003C55413E0025632000424FC1
:08FFF8005200504F52000000BE
:020000040020DA
:08000000FFFFFFFFFFFFFFFF00
:020000040030CA
:0E0000001D981B36FF8980FF0FC00FE00F40D8
:00000001FF
