:040000000EEF00F00F
:0400080004EF04F00D
:100018000CEF04F086EF03F0000E276E000E036E5F
:10002800000E046E020E056E000E066E010E076EBF
:10003800000E086E000E096E000E0A6E270E0B6E7B
:10004800000E0C6E19EC02F02704D8A42FD1FF0E75
:100058001F6E000E206E000E216E000E226E000E26
:10006800236E000E246E000E256E000E266E000E06
:10007800036EF80E046E000E056E000E066E040E7A
:10008800076E000E086E000E096E000E0A6E1F0E37
:100098000B6E000E0C6E19EC02F0040E036EF80ED7
:1000A800046E000E056E000E066E040E076E000E3E
:1000B800086E000E096E000E0A6E230E0B6E000EFF
:1000C8000C6E19EC02F0000E306E000E286E080E51
:1000D800296E000E2A6E000E2B6E2B5067E12A0443
:1000E800D8B064D001D062D03050010D1B0EF3247B
:1000F800D96E000EF420DA6E000E2824036EF80E76
:100108002920046EFF0E2A20056EFF0E2B20066E96
:1001180036EC03F0DF6E3050010D1B0EF324D96E60
:10012800000EF420DA6EDF50166E16C017F0186A4B
:10013800196A1A6A1750235E1850245A1950255AFA
:100148001A50265A020E306421D030C016F0FD0E27
:100158001626030E1616D8A419D0FD0E166EFF0E1D
:10016800176E3050010D1650F3261750F4221B0E4F
:10017800F324D96E000EF420DA6EDE501F1ADE501A
:10018800201ADE50211ADD50221A00D0302A040E1F
:100198003018D8A402D0000E306E0400010E2826B4
:1001A800000E29222A222B2298D700D01F50201077
:1001B80021102210D8A47AD02350241025102610FC
:1001C800D8A474D0000E016E080E026E000E036EE5
:1001D800000E046EFF0E056EFF0E066E000E076E13
:1001E800000E086EDEEC01F0000E2C6E080E2D6E6F
:1001F800000E2E6E000E2F6E2F5055E12E04D8B033
:1002080052D001D050D0000E2C24036EF80E2D20B1
:10021800046EFF0E2E20056EFF0E2F20066E040EB4
:10022800076E000E086E000E096E000E0A6E1B0E99
:100238000B6E000E0C6E19EC02F02CC001F02DC0F4
:1002480002F02EC003F02FC004F0000E066E040E5C
:10025800056E1B0E076E000E086E5DEC01F00400C3
:100268002CC001F02DC002F02EC003F02FC004F006
:10027800290E056E000E066E000E076E000E086E43
:1002880053EC02F00150021003100410D8A403D05C
:100298006EEC03F000D0040E2C26000E2D222E2228
:1002A8002F22AAD700D0010E120000D0000E120093
:1002B8001200000E0D6E000E0E6E01C012F002C08C
:1002C80013F003C014F004C015F0060E096ED890A0
:1002D8000432033202320132092EF9D7060ED890C1
:1002E8000136023603360436E82EF9D7400E0126C9
:1002F800000E0222032204221250000801240D6E6F
:1003080054D012C00FF013C010F014C011F01FD059
:1003180007C0D9FF08C0DAFFDF500FC0F6FF10C0D2
:10032800F7FF11C0F8FFF56E0C00074A082A010E06
:100338000F26000E1022000E11220506D8A0060670
:1003480005500610D8B407D002D005D000D00D064D
:100358000D28D8A4DDD70FC00AF010C00BF011C0CB
:100368000CF012C00FF013C010F014C011F07F8E03
:100378007F9C7F84F2AE03D0F29E010E0E6E550E66
:100388007E6EAA0E7E6E7F827F940E50D8B403D004
:10039800F28E000E0E6E400E0D6E0A50126E0B504D
:1003A800136E0C50146E156A00D005500610D8A4B0
:1003B800A8D71200000E096E01C00AF002C00BF0A7
:1003C80003C00CF004C00DF025D00CC0F8FF0BC022
:1003D800F7FF0AC0F6FF7F8E7F9C7F847F88F2AE8E
:1003E80003D0F29E010E096E550E7E6EAA0E7E6E29
:1003F8007F820950D8B402D0F28E00D0400E0A2471
:100408000A6E000E0B200B6E000E0C200C6E000EF8
:100418000D200D6E05500A5C06500B5807500C58FD
:1004280008500D58D8A0D1D71200000E0D6E000E3E
:100438000E6E000E0F6E000E106E899E030E5DECA0
:1004480003F005505DEC03F004505DEC03F003503D
:100458005DEC03F0000E0D6E000E0E6E000E0F6EBA
:10046800000E106E10D00D500B24D96E0E500C20BB
:10047800DA6E7BEC03F0DF6E010E0D26000E0E2205
:100488000F22102200D007500D5C08500E5809505A
:100498000F580A501058D8A0E6D7898E1200055078
:1004A800061007100810D8B429D0010E096E07D01D
:1004B800D8900536063607360836092A00D008BE11
:1004C80002D0F6D700D00550015C065002580750FC
:1004D800035808500458D8A009D00550015E0650AA
:1004E800025A0750035A0850045A00D0D8900832CC
:1004F800073206320532092EE6D700D001C001F0D6
:1005080002C002F003C003F004C004F01200036E3E
:100518003F0EC716000EC66E0350C6120250C71211
:1005280005D0C78C15D0C78CC68812D00150000AD8
:10053800D8B4F7D7020AD8B4F6D7010AD8B4F4D792
:1005480007D09486928A0CD094860AD0949608D0C4
:100558000350040AD8B4F5D7010AD8B4F5D7F6D7AA
:100568009488949AC68A1200E3EC02F0000E016E99
:10057800800E026E020E8BEC02F093968A96010EA4
:10058800346E10EC00F000D04CEC03F00009D8A455
:1005980010D093968A86000E026EC80E016E0DEC7E
:1005A80003F09386000E026EC80E016E0DEC03F088
:1005B800F0D79386938600EF04F00EEF00F07C0EE0
:1005C800D36E9B8CD2909B8E200E926EBD0E936E36
:1005D800930E946E860E806E070E816E040E826EE8
:1005E800100E0F015D6F000E0F015C6FF19E0F0181
:1005F8005B810F015B930F015B950F015B970F0107
:100608005B990F015B9B0F015B9D0F015B9FD18085
:1006180012000FD0D00E036ECA0EE82EFED7032E9E
:10062800FCD7F60E0124016EFF0E0220026E0400B4
:1006380000D00250EFE10B0E015CD8A00ED0EAD733
:100648000CD0150E036EC60EE82EFED7032EFCD76F
:1006580000D00106D8A00206040001500210D8A458
:10066800F0D71200000E076E899E030E5DEC03F0B2
:1006780005505DEC03F004505DEC03F003505DECB5
:1006880003F07BEC03F0076E898E0750120012000E
:10069800000EF86E080EF76E000EF66E0800F5CF25
:1006A80001F00128D8A402D0000E1200010E120099
:1006B8001200026EC9CF01F09E96C69E02C0C9FF05
:1006C800C6BE120002D0120000D09EB61200FDD79E
:1006D800120012003450D8B404D09386000E346E41
:1006E800120093968A86010E346E12001200C9CF4A
:1006F80001F09E96000EC96E00D09EA6FED7C95086
:1007080012001200346A336A326A316A000EF86ED7
:060718000001B8EF02F041
:040800002CEF05F0E4
:10080800FACF1CF0FBCF1DF0E9CF1EF03DEF66F0EC
:10081800D8CF8FF0E8CF90F0E0CF91F0FACF92F0F8
:10082800FBCF93F0E9CF94F0EACF95F0E1CF96F0C3
:10083800E2CF97F0D9CF98F0DACF99F0F3CF9AF0CA
:10084800F4CF9BF0F6CF9CF0F7CF9DF0F8CF9EF059
:10085800F5CF9FF0D1D0000E0001A26FF2A08FD08B
:1008680081CFA0F000F0F2900001A0A984D0600E22
:100878000001B719D8A466D00001CC51D8A43AD049
:100888000001C751D8A436D095EC77F00101F06F7C
:10089800040E00016C6F010E27EC5BF06CC077F062
:1008A8006DC078F06CEC77F0D3B606D001D004D0E8
:1008B800010E0101C66F00D048EC77F067EC77F0C5
:1008C8000001A351000160270001A4510001612328
:1008D800000160C062F0000161C063F00001646B58
:1008E800656BBDEC75F0010E0001B56F010E0001DE
:1008F800CC6F41D00001C751D8B409D0E90E00012E
:100908006C6FFE0E00016D6FB2EC34F034D099ECD0
:1009180077F00009D8B409D0230E00016C6FFF0EE0
:1009280000016D6FB2EC34F009D0FD0E00016C6F60
:10093800FE0E00016D6FB2EC34F000D0010E010123
:10094800AB6F19D0800E0001B719D8A406D0010EDC
:100958000001B66FF9EC74F00ED0200E0001B71943
:10096800D8A409D0D30E00016C6FFE0E00016D6F84
:10097800B2EC34F000D0010E0001A26F00D09EBA94
:100988009DAA3ED0A5EC73F00001A16F9E9AABA280
:1009980010D04F0EAB16AC9ACF0E9D1692EC4FF0BE
:1009A800690E00016C6FFF0E00016D6FB2EC34F040
:1009B80023D0ABA409D0580E00016C6FFF0E0001C4
:1009C8006D6FB2EC34F018D0A7A209D0860E0001E2
:1009D8006C6FFE0E00016D6FB2EC34F00DD0000E9E
:1009E8000001616F010E606FA1C062F08AEC59F0DE
:1009F800640E0001CB6F00D0010E0001A26F00D081
:100A08000001A2510001D8A426D79FC0F5FF9EC0BF
:100A1800F8FF9DC0F7FF9CC0F6FF9BC0F4FF9AC08B
:100A2800F3FF99C0DAFF98C0D9FF97C0E2FF96C0DC
:100A3800E1FF95C0EAFF94C0E9FF93C0FBFF92C0B5
:100A4800FAFF91C0E0FF90C0E8FF8FC0D8FF100008
:100A5800E6EF54F0000ED0B6010E0101F36F000E60
:100A6800D0B2010E0201FE6F000ED0B0010E0201DD
:100A7800FD6F000E0101C36FD6EC68F0030E010193
:100A8800016FE80E006FBFEC6FF0030E0101016FFC
:100A9800F00E006F46EC76F00101C96F0101C9291B
:100AA800D8B404D0010E0101B36F00D032EC5CF071
:100AB80006D08A9493865DEC77F032EC5CF00DC139
:100AC800ABF00EC1ACF000D00001ACBFF2D73E0EC7
:100AD8000001AB5D080E0001AC59D8A0EAD72EEC96
:100AE80072F0360E0101016FB00E006FBFEC6FF0AF
:100AF8000101B3510101D8A40ED00001ACBF0BD045
:100B0800870E0001AB5D0B0E0001AC59D8A003D0D5
:100B1800BBEC63F000D0000E0101006F000E010174
:100B2800016F020EF3EC6FF00400CEEC3BF0040012
:100B3800EFC200F10101016B0DEC77F043EC75F0A9
:100B4800010E0001C06F0101F3510101D8A413D0B7
:100B5800E20E0101126FFF0E0101136F4EEC32F02D
:100B6800000E0101016F040E006F060E0101026FF5
:100B7800FDEC58F02CD00201FE510201D8B418D077
:100B88000201FD510201D8A413D0F60E0101126F23
:100B9800FF0E0101136F4EEC32F0000E0101016FE0
:100BA800040E006F070E0101026FFDEC58F00FD024
:100BB8000201FE510201D8A40AD0FA0E0101126FF7
:100BC800FF0E0101136F4EEC32F0D08200D0000E00
:100BD800E2EC67F0CF0E0101126FFF0E0101136FF7
:100BE8004EEC32F0460E0101126FFE0E0101136F3A
:100BF8004EEC32F0F20E0101126FFF0E0101136F7D
:100C0800300E0101B7250101146F0101156B000EAB
:100C180015234EEC32F0B10E0101126FFF0E0101E7
:100C2800136FABC014F1ACC015F14EEC32F0BB0E33
:100C38000101126FFE0E0101136FECC214F10101E4
:100C4800156BEDC216F10101176BEEC218F1010127
:100C5800196BEFC21AF101011B6B4EEC32F0A10EB9
:100C68000101126FFE0E0101136FF8C114F10101A9
:100C7800156BF9C116F10101176BFAC118F10101E1
:100C8800196BFBC11AF101011B6B4EEC32F0980E87
:100C98000101126FFF0E0101136F8DEC77F0030154
:100CA800E76F0301E7510101146F156B4EEC32F049
:100CB8007A0E0101126FFF0E0101136FC8C014F103
:100CC8000101156B4EEC32F0110E0101126FFF0E8F
:100CD8000101136F4EEC32F0A60E0101126FFF0EE8
:100CE8000101136FC9C114F10101156B4EEC32F00B
:100CF800C60E0101126FFF0E0101136F81BA02D0F7
:100D0800010E01D0000E0101146F156B4EEC32F08C
:100D1800EC0E01010F6F020E0101106F73EC72F0FF
:100D28002AEC3DF037EC74F0000E0101276F1E0E1F
:100D3800266F010E0101286F040E73EC6BF0000E94
:100D48000401F76F000E01010C6F000E0D6F020E0B
:100D58000E6F000E0F6F010E0101106F000E116F64
:100D6800000E126F000E136FF70E0101146F040EC0
:100D78000101156F27EC69F00401F705D8A41ED00E
:100D8800000E0401F76F000E0101056F000E066FDB
:100D9800020E076F000E086FF70E0101096F040EAF
:100DA80001010A6F010E01010B6F000E0C6F000E9E
:100DB8000D6F000E0E6F56EC6AF000D0EC0E0101BC
:100DC800066F020E0101076FDB0E0101086F010EAD
:100DD8000101096F040E01010A6F88EC70F0000927
:100DE800D8B403D00400FED700D0ACEC76F0000EE7
:100DF8000001C06F00D00101CC510101D8A409EF56
:100E08000DF0000EFAEC72F00101D7510101D8B4CF
:100E180002D0FF0000D0000E0101D96F04000001CC
:100E2800B451D8B485D00001B751D8B41CD0BFECA8
:100E380073F017C1A0F118C1A1F10101A1510CE192
:100E48001F0E0101A05DD8B007D0000E01014A6F46
:100E5800010E42EC1AF007D0000E01014A6F000E95
:100E680042EC1AF000D00101F4510101D8B426D0A7
:100E7800F80E01010B6F010E01010C6FE80E010164
:100E88000D6F040E01010E6FB6EC40F00301E76F21
:100E98001F0E0301E76112D0F80E0101186F010E51
:100EA8000101196F000E01011A6FE5EC6EF00009DF
:100EB800D8B404D0000E0101F46F00D0000E000178
:100EC800B46F3E0E16EC37F0E30E0101006F010E11
:100ED8000101016F75EC4DF0D4EC49F081EC77F02D
:100EE8000009D8B425D00101F2510101D8B420D0AD
:100EF800010E0001C06FBC0E0101126FFF0E01014F
:100F0800136F15EC77F002C1D9FF03C1DAFFDF5088
:100F18000301E76F0301E7510101146F156B4EECF4
:100F280032F0000E0001C06F000E0101F26F00D018
:100F3800BFEC73F017C1A0F118C1A1F10101A151D3
:100F480005E1070E0101A05DD8A02AD00101A15139
:100F580027E11F0E0101A05DD8B022D00001D051B9
:100F6800D8B41ED0EE0E01010E6F040E01010F6FF2
:100F7800670E0101106F030E0101116FACC112F170
:100F8800000E0101136F010E0101146F000E010123
:100F9800156F91EC43F000D0000E0001D06F00D027
:100FA8000101AB51D8B409D0000E0101AB6F200E7E
:100FB80021EC56F0600E21EC56F00001CC51D8B46B
:100FC8003AD062EC77F000C117F101C118F1040EB4
:100FD80001010C6F010EA1EC5AF00CC119F10DC101
:100FE8001AF142EC77F0010100C11BF1010101C1C6
:100FF8001CF101011D6B1E6B88EC60F017C1ECF44D
:1010080018C1EDF44B0E0401EC5D010E0401ED591D
:10101800D8A011D00001B551D8B40AD00001C751E9
:10102800D8A406D02DEC6BF0000E0001B56F00D0EF
:1010380057EC70F000D0290E01010E6F030E01016C
:101048000F6FE50E0101106F010E0101116FA3EC86
:1010580042F00009D8B452D0290E01012C6F030EBA
:1010680001012D6FE5C12EF1C6C12FF1F0C130F19C
:101078005FEC2CF00009D8B43AD02C0E01010E6FA9
:10108800030E01010F6FA70E0101106F020E01017F
:10109800116FF50E0101126F040E0101136F9EEC22
:1010A8006AF00009D8B423D00B0E0401F46FA70E20
:1010B80001017A6F020E01017B6F0401F451010DE9
:1010C800290EF32401017C6F030EF42001017D6FCA
:1010D8000401F45100080101E52501017E6FF5C402
:1010E8007FF1000E0101806FCEEC13F000D0000EEE
:1010F8000001CC6F000E0101C66F00D0030E010184
:10110800E319D8A414D0030E0101E419D8A40FD010
:10111800000E0101E36F000E0101E46F030E0101EF
:10112800006F010EA8EC77F00101B28944D0020EDD
:101138000101E419D8A40CD0000E0101E46F020EDD
:101148000101006F010EA8EC77F00101B28733D0DE
:101158000101E405D8A40CD0000E0101E46F010ED2
:101168000101006F010EA8EC77F00101B28523D0D0
:10117800020E0101E319D8A40ED0000E0101E36F9D
:10118800B8EC5DF0020E0101006F000EA8EC77F0DC
:101198000101B28310D00101E305D8A40CD0000EE0
:1011A8000101E36F010E0101006F000EA8EC77F05A
:1011B8000101B28100D00001B651D8B42BD0000E85
:1011C8000001B66F800E0001B719D8A411D0010133
:1011D800CB510101D8A405D00101CC510101D8B4EB
:1011E80007D0000E21EC56F0000E0101CB6F10D095
:1011F800800E0001B719D8A40BD00001C751D8A49C
:1012080007D0200E21EC56F0600E21EC56F000D0ED
:10121800040000D0ACA21AD0000E0101016F020E2A
:10122800006FE70E0101026F010E0101036F42EC2E
:1012380054F00009D8B406D00101E75161EC76F00A
:10124800010E01D0000E0101D86F00D0000E01017F
:10125800016F010E006FE70E0101026F010E01011F
:10126800036F42EC54F00009D8B408D0E7C117F175
:10127800010E08EC74F00101AA6F07D00001CB51F0
:10128800D8B403D00001CB0700D00101AA51D8B4CB
:10129800AAD104012851C00B0401F86F0401F845D4
:1012A800E846030B0401F86FED0E0101126FFF0E03
:1012B8000101136F4EEC32F00401F8510401D8A477
:1012C80009D1000E0101AE6F81EC77F00009D8B4A6
:1012D8007ED1270E0101006F040E0101016F020E7D
:1012E8000101026FDB0E0101036F010E0101046FA2
:1012F800000E0101056F040E0101066FC6EC6CF0CB
:101308000009D8B4BDD00A0E0101AC6FDFC167F384
:10131800E0C168F3E1C169F3E2C16AF31D0E03019C
:101328006B6F2B0E03016C6F29C46DF32AC46EF327
:101338002BC46FF32CC470F3010E0001C06F0101C0
:10134800E551FA0F0101E56F000E0101016F020E70
:10135800006F240E0101026FFDEC58F0000E010130
:10136800016F020E006F240E0101026FFDEC58F0B0
:10137800000E0101016F020E006F0101E551040F1B
:101388000101026FFDEC58F0000E0101016F020E21
:10139800006F000E0101026FFDEC58F0000E040111
:1013A800F26F000E0401F66F22D0000E0101016FEA
:1013B800020E006F0401F651010D670EF324D96E79
:1013C800030EF420DA6EDF500101026FFDEC58F0D5
:1013D8000401F651010D670EF324D96E030EF420B3
:1013E800DA6EDF500401F21B0401F62B00D0FF0E69
:1013F8000301E76FFF0E0301E86F0101AC51030120
:10140800E96FEA6B0301E7510301E9270301E8519A
:101418000301EA230401F6510301EB6FEC6B0301AE
:10142800E9510301EB5D0301EC51800A0301ED6F03
:101438000301EA51800A0301ED59D8A0B6D7000E7E
:101448000101016F020E006FF2C402F1FDEC58F0C9
:10145800000E0101016F020E006F0D0E0101026FF7
:10146800FDEC58F0000E0101016F020E006F0A0E2C
:101478000101026FFDEC58F0000E0001C06FA7D00B
:101488000001D751F80F0101AC6F020E0301676F1D
:10149800270E0101006F040E0101016F060E010104
:1014A800026F670E0101036F030E0101046F010E45
:1014B8000101056FACC106F10CEC6AF029C4EEF429
:1014C8002AC4EFF42BC4F0F42CC4F1F4010E00018B
:1014D800D06F7DD0020E0401F819D8A439D0020EBD
:1014E8000101AE6F81EC77F00009D8B470D0290EF5
:1014F80001010E6F040E01010F6FE40E0101106F60
:10150800040E0101116FF30E0101126F040E0101A7
:10151800136F9EEC6AF00009D8B459D02D0E010162
:101528007A6F040E01017B6F310E01017C6F040E8E
:1015380001017D6F0001D751F30F01017E6F280E65
:1015480001017F6F010E0101806FCEEC13F03FD0D7
:101558000401F805D8A43BD004012951D8B41DD002
:101568000001D205D8A404D0020E0001D26F00D029
:10157800290E0101066F040E0101076FBB0E010160
:10158800086F030E0101096F190E01010A6F53EC70
:1015980071F0010E0101D56F1AD00001D205D8A44F
:1015A80004D0030E0001D26F00D0290E0101066F8E
:1015B800040E0101076F9A0E0101086F030E010165
:1015C800096F210E01010A6F53EC71F000D0000E73
:1015D8000101AA6FDC0E0101126FFF0E0101136FEA
:1015E8004EEC32F000D0010ED9EC72F00009D8B4FC
:1015F80017D0050E0101276FA00E266F020E0101FC
:10160800286F0C0E73EC6BF00D0EDEEC75F001011B
:10161800CB510101D8B404D0000E0101CB6F00D02A
:101628000A0ED9EC72F00009D8B420D0F80E0101E6
:10163800066F010E0101076FDB0E0101086F010E35
:101648000101096F040E01010A6F88EC70F00009AE
:10165800D8A40CD0F80E0101186F010E0101196F02
:10166800000E01011A6F17EC5AF000D00B0ED9ECDE
:1016780072F00009D8B415D0000E0201516F000EA7
:10168800506F000E0201536F000E526F000E0201E0
:10169800636F000E626F000E0201656F000E646FCB
:1016A80000D0000ED9EC72F00009D8B404D0000EB6
:1016B8000101B26F00D00B0EE5EC74F00009D8B44C
:1016C8000BD0050E0101276FA00E266F020E010137
:1016D800286F0B0E73EC6BF00A0EE5EC74F000D07B
:1016E8000201455105E10B0E0201445DD8A00CD062
:1016F800070E15EC49F0000E38EC76F0000E0201EA
:10170800456F000E446F00D00101B151D8B40AD022
:10171800000E01010D6F240E0C6F7AEC64F00101CC
:10172800B10700D0000E0101D36F0C0EE5EC74F088
:101738000009D8B40CD0050E0101276FA00E266F42
:10174800020E0101286F0C0E73EC6BF000D0010142
:10175800C751D8B41ED0050E0101276FA00E266F01
:10176800020E0101286F0C0E73EC6BF0000E0101E4
:10177800C76F0001B751D8B40CD00101B0510101B5
:10178800D8A407D0000E0101CB6F0D0EDEEC75F06A
:1017980000D0170ED9EC72F00009D8B40ED0070E9D
:1017A800E2EC67F0000E0101276F0A0E266F020EA9
:1017B8000101286F170E73EC6BF0170EE5EC74F04F
:1017C8000009D8B40BD0000E0101276F0A0E266F4E
:1017D800020E0101286F170E73EC6BF00C0ED9EC9A
:1017E80072F00009D8B40BD0040E0101276FB00EB7
:1017F800266F010E0101286F0D0E73EC6BF00D0EB4
:10180800D9EC72F00009D8B40BD0020E0101276F91
:10181800580E266F010E0101286F0C0E73EC6BF049
:10182800180ED9EC72F00009D8B413D0FA0E0101E1
:10183800C36103D00101C32B00D0000E0101276F43
:101848000A0E266F020E0101286F180E73EC6BF05A
:1018580000D0180EE5EC74F00009D8B40BD0000ED7
:101868000101276F0A0E266F020E0101286F180E5C
:1018780073EC6BF0110ED9EC72F00009D8B406D0F5
:10188800010E0101CE6F59EC2FF000D0100ED9ECEB
:1018980072F00009D8B41DD081EC77F00009D8A403
:1018A80018D00101F5510101D8B404D042EC6DF013
:1018B800000E0CD0F80E0101186F010E0101196F0E
:1018C800010E01011A6F17EC5AF0010E0101F56FB4
:1018D80000D0100EE5EC74F00009D8B40CD0000E5E
:1018E8000101276F1E0E266F010E0101286F100ED1
:1018F80073EC6BF000D00001ACBF08D03E0E0001C5
:10190800AB5D080E0001AC59D8B00BD00101B05145
:101918000101D8B452D00001B751D8B455D04DD038
:1019280053D00101B0510101D8B410D00101B05118
:101938000101D8B439D00001ACBF36D07D0E00010A
:10194800AB5D080E0001AC59D8A02ED0000E0101E5
:10195800B06F010E1DEC6FF0010100510101011182
:10196800D8B404D00CD030D010D02ED00D0E1DEC31
:101978006FF00101005101010111D8B40DD000012F
:10198800B751D8B421D001D01FD00101CB510101EA
:10199800D8A41AD015D018D00001B751D8A414D0A3
:1019A800000EE2EC67F010D00101B0510101D8B48B
:1019B8000BD00001B751D8B407D0010E0101B06FA8
:1019C800010E0101CB6F00D0040E01010C6F000E57
:1019D800F6EC60F00CC140F20DC141F20201405139
:1019E8000201525D0201415102015359D8B009D098
:1019F8000101D951D8A405D040C252F241C253F2D4
:101A080000D043EC50F0FFEF06F0A7EC77F00009A8
:101A1800D8B4FFEF06F05DEC77F0010E0101D76F47
:101A2800FFEF06F02CEF05F02DC121F12EC122F1B8
:101A380034C123F131C106F132C107F133C108F1D4
:101A4800B7EC56F00101246F000E0101256F6CEC14
:101A58003AF00101576F2DC106F12EC107F12FC1D0
:101A680008F130C109F1040E01010A6F53EC71F05D
:101A7800010135510101D8A410D02DC106F12EC1A4
:101A880007F1F40E0101086F020E0101096F040E3F
:101A980001010A6F53EC71F000D0010E01013365AA
:101AA800CBEF13F031C1D9FF32C1DAFFDE04D8A47D
:101AB8001AD0050E0101336516D0F90E0101332540
:101AC8000101006F0101016BFF0E0123000E0101EE
:101AD800036F050E026FD8EC64F00101005101019B
:101AE8000111D8B40CD0000E0101276F0A0E266F21
:101AF800020E0101286F170E73EC6BF000D031C194
:101B0800D9FF32C1DAFFDE04D8A422D1050E0101C3
:101B180033651ED1F90E010133250101006F010162
:101B2800016BFF0E0123000E0101036F050E026F0A
:101B3800D8EC64F00101005101010111D8B402D0C0
:101B480007D100D0000E0101596F010E586FE7D080
:101B5800050E010158250101366F000E01015921BA
:101B68000101376F010133510101386F396B0101F0
:101B780036510101385D01013951800A01013A6F7E
:101B880001013751800A01013A59D8A082D00101D8
:101B980059BF7FD00101595105E1060E0101585D79
:101BA800D8A077D031C100F132C101F158C102F19A
:101BB800400E0101036F010E0101046F000E0101C7
:101BC800056F040E0101066F0CEC6AF0040E0101AA
:101BD80058250101366F000E010159210101376FA7
:101BE8000101365101013125D96E01013751010139
:101BF8003221DA6EDF500101386F050E0101396FAD
:101C08000101D89038330101392FFAD70101385131
:101C1800070B01014C6F040E010158250101366FB5
:101C2800000E010159210101376F010136510101EF
:101C38003125D96E0101375101013221DA6EDF50A9
:101C48001F0B0101546F1E0E0101546506D0000ED2
:101C580001014F6F1F0E4E6F0AD0010E010154256E
:101C680001014E6F01014F6B000E4F2300D0400E53
:101C78000101156F010E0101166F57C117F14EC111
:101C880018F14CC119F1000E01011A6FA8EC1EF0F1
:101C98003CD00101580501015911D8A436D031C1F1
:101CA80000F132C101F1010E0101026FDF0E0101E5
:101CB800036F010E0101046F000E0101056F040E90
:101CC8000101066FC6EC6CF00009D8B41ED02DC116
:101CD8000EF12EC10FF1040E010158250101366FD6
:101CE800000E010159210101376F0101365101012F
:101CF8003125D96E0101375101013221DA6EDF50E9
:101D08000101106F3DEC67F000D0050E0101582568
:101D18000101586F000E010159210101596F01019C
:101D280033510101366F376B010136510101585D9E
:101D380001015951800A0101386F01013751800AA8
:101D480001013859D8B0CBEF13F002D7CBEF13F01D
:101D580031C1D9FF32C1DAFF020EDE18D8A423D070
:101D6800010120EE02F03151D9263251DA22DE503B
:101D780002017619D8A4CBEF13F0000E02016D6FA3
:101D8800000E0201A06F020E0201A16F000E0101F8
:101D9800CD6F510E01013461CBEF13F0010E01013B
:101DA800C26FCBEF13F031C1D9FF32C1DAFF020E97
:101DB800DF64CBEF13F00B0E01013365CBEF13F0AB
:101DC800010E0101C76F000E6FEC73F0010120EEE8
:101DD80002F03151D9263251DA22DE500201761949
:101DE800D8A40AD0000E02016D6F000E0201A06F88
:101DF800020E0201A16F00D0010120EE01F0315165
:101E0800D9263251DA22DE5002017619D8A498D1A7
:101E18006E0E0101006F020E0101016F000E01013B
:101E2800026F31C103F132C104F1030E0101056FE4
:101E3800040E0101066FC6EC6CF00009D8B480D11D
:101E4800010120EE01F03151D9263251DA22DF505A
:101E58000101A66F010E0001BD6F2DC106F12EC153
:101E680007F1E80E0101086F020E0101096F040E67
:101E780001010A6F53EC71F0010120EE07F03151B6
:101E8800D9263251DA220101DF51DE18D8A424D034
:101E9800010120EE08F03151D9263251DA22010130
:101EA800E051DE18D8A418D0010120EE09F0315114
:101EB800D9263251DA220101E151DE18D8A40CD01A
:101EC800010120EE0AF03151D9263251DA220101FE
:101ED800E251DE18D8B434D131C1D9FF32C1DAFFAA
:101EE800040EDE18D8B429D101D027D131C100F1B0
:101EF80032C101F1030E0101026FDF0E0101036F10
:101F0800010E0101046F000E0101056F040E0101AD
:101F1800066FC6EC6CF00009D8A40FD101D00DD122
:101F2800010120EE0BF03151D9263251DA2202019B
:101F3800A251DE5CD8B003D0000E1200FED0CFC292
:101F480050F1D0C251F1D1C252F1D2C253F131C1D4
:101F580000F132C101F1070E0101026F440E0101C7
:101F6800036F010E0101046F000E0101056F040EDD
:101F78000101066F0CEC6AF0440E01010B6F010EB3
:101F880001010C6F500E01010D6F010E01010E6F62
:101F9800B6EC40F001014D6F01015569500E010189
:101FA800066F010E0101076FDB0E0101086F010EBC
:101FB8000101096F040E01010A6F88EC70F0000935
:101FC800D8A40AD0500E01010E6F010E01010F6F47
:101FD80004EC6DF00101556F6E0E0101066F020EE3
:101FE8000101076FF00E0101086F020E0101096F70
:101FF800040E01010A6F53EC71F076C2EFF1D7ECD1
:1020080076F00201766F040E0201776F060E020168
:102018006D6F000E0201A06F020E0201A16F31C1A7
:1020280000F132C101F1030E0101026F720E0101CC
:10203800036F020E0101046F000E0101056F040E0B
:102048000101066F0CEC6AF0DF0E0101066F010E4C
:102058000101076F6E0E0101086F020E0101096F81
:10206800040E01010A6F53EC71F0000E0201A26F19
:102078001D0E0201786F2B0E0201796F440E0101CB
:10208800006F010E0101016F000E0101026F780E51
:102098000101036F020E0101046F020E0101056FB9
:1020A800040E0101066F0CEC6AF0500E0101006F7E
:1020B800010E0101016F000E0101026F780E01018E
:1020C800036F020E0101046F060E0101056F040E75
:1020D8000101066F0CEC6AF02DC100F12EC101F16F
:1020E800000E0101026F780E0101036F020E01015B
:1020F800046F0A0E0101056F040E0101066F0CEC56
:102108006AF04DC186F255C187F201015551060D9D
:10211800040EF326000EF422BD0EF324D96E0B0E26
:10212800F420DA6EDF500F0B0201886F110E0201E6
:102138009E6F000E0101CD6F00D0000E120000D07E
:1021480002016D51D8A408D00001BD51D8A404D013
:1021580002019F51D8B44ED0720E0101066F020ED3
:102168000101076F030E010131250101086F000EFF
:10217800010132210101096F040E01010A6F88EC87
:1021880070F00009D8B433D002016D51D8B42FD003
:102198000001BD51D8A42BD002019F51D8A427D04B
:1021A800010120EE01F03151D9263251DA22010124
:1021B800EF51DE18D8A41ED0F00E0101006F020EF8
:1021C8000101016F000E0101026F31C103F132C13B
:1021D80004F1030E0101056F040E0101066FC6EC40
:1021E8006CF00009D8B406D0000E120003D0000E1F
:1021F800120000D0010120EE07F03151D9263251EA
:10220800DA220101DF51DE18D8A424D0010120EE22
:1022180008F03151D9263251DA220101E051DE1895
:10222800D8A418D0010120EE09F03151D926325135
:10223800DA220101E151DE18D8A40CD0010120EE08
:102248000AF03151D9263251DA220101E251DE1861
:10225800D8B4D0D0010120EE0BF03151D92632513B
:10226800DA221F0EDE18D8A402D0000E12006E0E5D
:102278000101066F020E0101076FF00E0101086FE0
:10228800020E0101096F040E01010A6F53EC71F08F
:1022980076C2EFF1010120EE01F03151D926325119
:1022A800DA22DF500201766F31C1D9FF32C1DAFF7D
:1022B800DF500201776F060E02016D6F000E0201FA
:1022C800A06F020E0201A16F31C100F132C101F10C
:1022D800070E0101026F720E0101036F020E010168
:1022E800046F000E0101056F040E0101066F0CEC6E
:1022F8006AF031C100F132C101F1030E0101026F30
:102308006E0E0101036F020E0101046F000E010140
:10231800056F040E0101066F0CEC6AF0010120EE56
:102328000BF03151D9263251DA22DF500101366FD4
:10233800010136290201A26F31C100F132C101F158
:102348000C0E0101026F780E0101036F020E0101EC
:10235800046F000E0101056F01013351F40F0101F3
:10236800066F0CEC6AF001013351F40F02019E6F05
:10237800000E0101CD6F010120EE01F03151D92687
:102388003251DA22DF500101A66F010E0001BD6F44
:102398002DC106F12EC107F1E80E0101086F020EEA
:1023A8000101096F040E01010A6F53EC71F02DC190
:1023B80021F12EC122F134C123F1010E0101246F54
:1023C800010E0101256F6CEC3AF00101576F6E0E9A
:1023D8000101156F020E0101166F57C117F1A2C254
:1023E80018F1000E0101196F010E01011A6FA8EC16
:1023F8001EF0CDD16E0E0101066F020E0101076FAE
:10240800F00E0101086F020E0101096F040E0101AF
:102418000A6F53EC71F076C2EFF1010120EE01F082
:102428003151D9263251DA22DF500201766F31C19B
:10243800D9FF32C1DAFFDF500201776F000E0201C7
:102448006D6F000E0201A06F020E0201A16F31C173
:1024580000F132C101F1070E0101026F720E010194
:10246800036F020E0101046F000E0101056F040ED7
:102478000101066F0CEC6AF031C100F132C101F1C3
:10248800030E0101026F6E0E0101036F020E0101BE
:10249800046F000E0101056F040E0101066F0CECBC
:1024A8006AF031C100F132C101F1030E0101026F7E
:1024B8002FC103F130C104F1000E0101056F040EB4
:1024C8000101066F0CEC6AF0010120EE0BF03151AE
:1024D800D9263251DA22DF500101366F010136293F
:1024E8000201A26F31C100F132C101F10C0E0101EC
:1024F800026F780E0101036F020E0101046F000ED6
:102508000101056F01013351F40F0101066F0CEC55
:102518006AF001013351F40F02019E6F010120EEB0
:1025280001F03151D9263251DA22DF500101A66F6C
:10253800010E0001BD6F2DC106F12EC107F1E80E95
:102548000101086F020E0101096F040E01010A6FF3
:1025580053EC71F0000E0101CD6F2DC121F12EC198
:1025680022F134C123F1010E0101246F010E010192
:10257800256F6CEC3AF00101576F6E0E0101156F73
:10258800020E0101166F57C117F1A2C218F1000E11
:102598000101196F010E01011A6FA8EC1EF0090E56
:1025A80002017719D8A405D0020179512DEC77F0F2
:1025B800EED002017839E842070B0101566F01019C
:1025C80056510101D8B41ED00101B751D8B41AD060
:1025D8000D0E010131250101006F000E01013221AC
:1025E8000101016FF30E010133250101026F0101A1
:1025F800036BFF0E032356C104F12BEC5FF0010EB1
:102608001200C5D0010156510101D8A409D0010119
:10261800B751D8A405D0F3D703D0F1D71200B7D05B
:10262800020178511F0B0C0AD8B4E9D7020178517E
:102638001F0B1E0AD8A407D002017951D8A403D0D1
:10264800DED71200A4D0D3C248F1D4C249F1D5C212
:102658004AF1D6C24BF131C100F132C101F1070E86
:102668000101026F3B0E0101036F010E0101046FAE
:10267800000E0101056F040E0101066F0CEC6AF0F3
:102688003B0E01010B6F010E01010C6F480E010199
:102698000D6F010E01010E6FB6EC40F001013F69AC
:1026A800480E0101066F010E0101076FDB0E0101E3
:1026B800086F010E0101096F040E01010A6F88EC11
:1026C80070F00009D8A40AD0480E01010E6F010E5F
:1026D80001010F6F04EC6DF001013F6F6E0E0101F7
:1026E800066F020E0101076FF00E0101086F020E5E
:1026F8000101096F040E01010A6F53EC71F076C2F3
:10270800EFF1D7EC76F00201766F040E0201776FD5
:10271800060E02016D6F000E0201A06F020E02018B
:10272800A16F31C100F132C101F1030E0101026F45
:10273800720E0101036F020E0101046F000E010108
:10274800056F040E0101066F0CEC6AF0DF0E010143
:10275800066F010E0101076F6E0E0101086F020E70
:102768000101096F040E01010A6F53EC71F0000EAC
:102778000201A26F1D0E0201786F2C0E0201796F03
:10278800020E02019E6F000E0101CD6F00D0000EF7
:10279800120012007AC12DF17BC12EF1930E0101B6
:1027A8002F6F010E0101306F7CC131F17DC132F113
:1027B8007EC133F17FC134F180C135F118EC0DF0E1
:1027C8000009D8B41200000E0101916F010120EE3A
:1027D8000CF07C51D9267D51DA22DF501F0B010104
:1027E800926F010198691B0E010192650BD00101DE
:1027F80020EE0DF07C51D9267D51DA22DF500101FF
:10280800986F00D0000E01018A6F0C0E01017C2523
:102818000101006F000E01017D210101016F020E0F
:102828000101026F0C0E01017C250101036F000EEE
:1028380001017D210101046F060E0101056F040EDF
:102848000101066FC6EC6CF00009D8B426D00C0E56
:1028580001017C250101006F000E01017D210101AC
:10286800016F060E0101026F0C0E01017C250101AA
:10287800036F000E01017D210101046F0A0E0101A1
:10288800056F040E0101066FC6EC6CF00009D8B4A0
:1028980004D0010E01018A6F00D08AC199F1000E9F
:1028A80001018B6F0C0E01017C250101006F000EE8
:1028B80001017D210101016F030E0101026F0C0E60
:1028C80001017C250101036F000E01017D21010139
:1028D800046F070E0101056F040E0101066FC6ECB7
:1028E8006CF00009D8B426D00C0E01017C2501013A
:1028F800006F000E01017D210101016F070E01012A
:10290800026F0C0E01017C250101036F000E01010D
:102918007D210101046F0B0E0101056F040E0101F9
:10292800066FC6EC6CF00009D8B404D0010E0101A2
:102938008B6F00D08BC18CF1C2EF18F0DFEF18F06D
:102948001AD0DFEF18F0190E01017E19D8A4DFEFB5
:1029580018F00D0E01017C250101186F000E010110
:102968007D210101196F000E01011A6FE5EC6EF06F
:10297800DFEF18F046D0010E0101916FDFEF18F07C
:10298800010120EE0EF07C51D9267D51DA22410E4C
:10299800DE18D8A4DFEF18F0010120EE0FF07C510B
:1029A800D9267D51DA22530EDE18D8A4DFEF18F0AD
:1029B800010120EE10F07C51D9267D51DA22460E15
:1029C800DE18D8A4F8D3D40E0101066F030E010156
:1029D800076F110E01017C250101086F000E01012E
:1029E8007D210101096F0B0E01010A6F88EC70F05F
:1029F8000009D8B4E0D3000E0101CE6F59EC2FF0D6
:102A0800DAD301019851030AD8B4B5D7290AD8B442
:102A1800B7D7D1D306D1010199510101D8B4CBD38D
:102A28000E0E01017C250101186F000E01017D21A8
:102A38000101196F000E01011A6FE5EC6EF0BBD3AE
:102A480001018C510101D8B417D00F0E01017C256A
:102A58000101206F000E01017D210101216F01019B
:102A680020EE0EF07C51D9267D51DA22DF5001018B
:102A7800226F08EC4CF09FD3930E0101186F010EE2
:102A88000101196F2D0E01011A6F010120EE01F0ED
:102A98007C51D9267D51DA22DF5001011B6F51ECA0
:102AA80072F089D301018C510101D8B417D00F0EEF
:102AB80001017C2501010E6F000E01017D2101013C
:102AC8000F6F010120EE0EF07C51D9267D51DA22DC
:102AD800DF500101106FD2EC46F06DD3930E010167
:102AE800186F010E0101196F2D0E01011A6F0101F6
:102AF80020EE01F07C51D9267D51DA22DF50010108
:102B08001B6F51EC72F057D3010199510101D8A400
:102B180052D301D050D3930E0101186F010E010159
:102B2800196F2D0E01011A6F010120EE01F07C5181
:102B3800D9267D51DA22DF5001011B6F51EC72F06A
:102B48003AD3010199510101D8B435D30E0E0101D0
:102B58007C250101186F000E01017D210101196F0B
:102B68000BEC72F028D3010120EE0EF07C51D9262F
:102B78007D51DA22520EDE18D8A419D0010120EEB8
:102B88000FF07C51D9267D51DA22530EDE18D8A4D5
:102B98000ED0010120EE10F07C51D9267D51DA22A9
:102BA800490EDE18D8A403D01DEC77F004D3930E99
:102BB8000101186F010E0101196F2D0E01011A6F25
:102BC800010120EE01F07C51D9267D51DA22DF5037
:102BD80001011B6F51EC72F0EED201019951010114
:102BE800D8B4E9D20E0E01017C250101186F000E40
:102BF80001017D210101196FB4EC70F0DCD20101F3
:102C080099510101D8B4D7D20E0E01017C250101DA
:102C18001A6F000E01017D2101011B6F34EC68F071
:102C2800CAD201019851000AD8B4F5D6040AD8B41A
:102C3800C2D2240AD8B404D7010AD8B433D7030AB5
:102C4800D8B462D7010AD8B47CD7070AD8B48BD7CE
:102C5800010AD8B4C2D70B0AD8B4D1D7ACD26DD236
:102C68000E0E01017C2501012F6F000E01017D214F
:102C78000101306F07EC39F0930E0101186F010E56
:102C88000101196F0BEC72F096D27CC100F17DC185
:102C980001F10E0E0101026FF80E0101036F010E22
:102CA8000101046F000E0101056F040E0101066F9A
:102CB8000CEC6AF00D0E01017C250101186F000E65
:102CC80001017D210101196FB4EC70F074D27CC14F
:102CD80000F17DC101F10E0E0101026F7CC103F10B
:102CE8007DC104F1170E0101056F040E0101066F85
:102CF800C6EC6CF00009D8B499D07CC100F17DC154
:102D080001F1170E0101026F7CC103F17DC104F1CD
:102D1800200E0101056F040E0101066FC6EC6CF070
:102D28000009D8B483D07CC100F17DC101F1120E35
:102D38000101026F7CC103F17DC104F11B0E010189
:102D4800056F040E0101066FC6EC6CF00009D8B4DB
:102D58006DD07CC100F17DC101F11B0E0101026F34
:102D68007CC103F17DC104F1240E0101056F040E3D
:102D78000101066FC6EC6CF00009D8B457D0010108
:102D880020EE1FF07C51D9267D51DA22010110EE88
:102D980016F07C51E1267D51E222DE50E618D8A4D7
:102DA80045D0010120EE28F07C51D9267D51DA2248
:102DB800010110EE1FF07C51E1267D51E222DE5028
:102DC800E618D8A433D00E0E01017C2501012A6F24
:102DD800000E01017D2101012B6F120E01017C25DE
:102DE80001012C6F000E01017D2101012D6F0101F0
:102DF80020EE16F07C51D9267D51DA22DF500101F0
:102E08002E6FDEEC70F0930E0101186F010E0101B8
:102E1800196F0E0E01017C2501011A6F000E0101C8
:102E28007D2101011B6F4EEC4BF0C5D1930E0101C2
:102E3800186F010E0101196F2D0E01011A6F0101A2
:102E480020EE01F07C51D9267D51DA22DF500101B4
:102E58001B6F51EC72F0AFD10E0E01017C25010100
:102E68000E6F000E01017D2101010F6F8CEC65F0E2
:102E7800930E0101186F010E0101196F010E010176
:102E88001A6FE5EC6EF097D1010120EE0EF07C513F
:102E9800D9267D51DA22520EDE18D8A48CD1010130
:102EA80020EE0FF07C51D9267D51DA22530EDE1820
:102EB800D8A481D1010120EE10F07C51D9267D5192
:102EC800DA22540EDE18D8A476D1FF0074D101019D
:102ED80020EE0EF07C51D9267D51DA22530EDE18F1
:102EE800D8A469D1010120EE0FF07C51D9267D517B
:102EF800DA22460EDE18D8A45ED1010120EE10F0C9
:102F08007C51D9267D51DA22540EDE18D8A453D12B
:102F1800930E01011A6F010E01011B6F85EC68F019
:102F2800010120EE11F07C51D9267D51DA22DF50C3
:102F38000101ED6F150E0101276F7C0E266F000E43
:102F48000101286F110E73EC6BF035D1010120EEF1
:102F58000EF07C51D9267D51DA22530EDE18D8A402
:102F680058D0010120EE0FF07C51D9267D51DA228C
:102F7800520EDE18D8A44DD0010120EE10F07C517D
:102F8800D9267D51DA22460EDE18D8A442D0010196
:102F980020EE11F07C51D9267D51DA22040EDF6033
:102FA80038D0010120EE11F07C51D9267D51DA226A
:102FB800DF500101896F010120EE12F07C51D92602
:102FC8007D51DA22DF500101816F01018151010138
:102FD8008E6F8F6B01018E5101018F6F8E6B010116
:102FE80020EE13F07C51D9267D51DA22DF50010101
:102FF800816F0101815101018E27000E8F238EC13F
:1030080026F18FC127F189C128F1010E73EC6BF00D
:10301800D2D0930E0101186F010E0101196F2D0E08
:1030280001011A6F010120EE01F07C51D9267D5172
:10303800DA22DF5001011B6F51EC72F0BCD00101A4
:1030480020EE0EF07C51D9267D51DA22DF50D809C6
:103058000101886F88C102F13C0E8AEC73F0ABD095
:10306800010199510101D8B4A6D0010120EE1BF04D
:103078007C51D9267D51DA22DF500101816F01018F
:10308800815101019E6F9F6B01019E5101019F6F4C
:103098009E6B010120EE1AF07C51D9267D51DA226F
:1030A800DF500101816F0101815101019E27000E4E
:1030B8009F23260E01019E5D090E01019F59D8A08C
:1030C80006D0000E01019F6F000E9E6F74D00101A3
:1030D80020EE1CF07C51D9267D51DA22DF50010107
:1030E800ED6F0E0E01017C250101186F000E010124
:1030F8007D210101196FACEC6EF0010120EE1DF08D
:103108007C51D9267D51DA22DF500101E66F1E0E6F
:1031180001017C250101066F000E01017D210101DD
:10312800076FD40E0101086F030E0101096F0B0E22
:1031380001010A6F53EC71F03ED001019851040A65
:10314800D8B48ED7270AD8B48BD5060AD8B49DD55B
:10315800030AD8B4BCD5010AD8B47ED60F0AD8B4AD
:1031680093D6010AD8B427D0030AD8B4B0D66A0ACD
:10317800D8B4ECD6BE0AD8B462D71DD0010192519A
:10318800000AD8B418D0020AD8B4BFEF14F0060A5F
:10319800D8B411D0080AD8B4A7EF14F0100AD8B4DC
:1031A8000AD0010AD8B42DD4030AD8B43AD5010AF2
:1031B800D8B4C3D700D0010191510101D8A420D0BF
:1031C8000C0E01017C250101496F000E01017D21D2
:1031D80001014A6F7FC14BF1930E01014C6F010E43
:1031E80001014D6F92C14EF198C14FF101017E511D
:1031F800F40F0101506F8BEC3FF00101916F00D08B
:10320800010191510101D8B41200E80E0101126FB9
:10321800FF0E0101136F4EEC32F00101AE51D8A43C
:1032280023D1010E0001C06F01017E51FD0F010184
:103238008D6F000E0101016F020E006F240E010157
:10324800026FFDEC58F0000E0101016F020E006FD5
:10325800240E0101026FFDEC58F0000E0101016F10
:10326800020E006F8DC102F1FDEC58F0000E010155
:10327800016F020E006F000E0101026FFDEC58F0A5
:10328800000E0101906F000E0101016F020E006F28
:10329800010120EE03F07C51D9267D51DA22DF505E
:1032A8000101026FFDEC58F0010120EE03F07C51A2
:1032B800D9267D51DA22DF500101901B000E010151
:1032C800016F020E006F010120EE04F07C51D92637
:1032D8007D51DA22DF500101026FFDEC58F0010147
:1032E80020EE04F07C51D9267D51DA22DF5001010D
:1032F800901B000E0101016F020E006F010120EE0C
:1033080005F07C51D9267D51DA22DF500101026F88
:10331800FDEC58F0010120EE05F07C51D9267D51D5
:10332800DA22DF500101901B000E0101016F020E2D
:10333800006F010120EE06F07C51D9267D51DA227A
:10334800DF500101026FFDEC58F0010120EE06F09C
:103358007C51D9267D51DA22DF500101901B000EE5
:103368000101976F38D0000E0101016F020E006F46
:10337800010197510101816F826B0C0E01018127B8
:10338800000E82230101815101017C25D96E0101C2
:10339800825101017D21DA6EDF500101026FFDECDF
:1033A80058F0010197510101816F826B0C0E0101E8
:1033B8008127000E82230101815101017C25D96EEC
:1033C8000101825101017D21DA6EDF500101901B5C
:1033D8000101972B00D0F70E0101816FFF0E01014B
:1033E800826F01018D510101836F846B010181514D
:1033F80001018327010182510101842301019751B1
:103408000101856F866B010183510101855D010111
:103418008651800A0101876F01018451800A0101E8
:103428008759D8A0A0D7000E0101016F020E006FC6
:1034380090C102F1FDEC58F0000E0101016F020E7F
:10344800006F0D0E0101026FFDEC58F0000E010136
:10345800016F020E006F0A0E0101026FFDEC58F0B9
:10346800000E0001C06F00D0D60E0101126FFF0ED2
:103478000101136F4EEC32F01200120001015A6F75
:1034880002016D51D8A414D00001BD51D8A410D0A8
:1034980002019F51D8A40CD001014A05D8A408D034
:1034A800010E0101486F01015A51F3EC76F008D082
:1034B800000E0101486F01015A51F3EC76F000D07B
:1034C800B20E01015B6F040E01015C6F91EC77F0A5
:1034D8000009D8A416D0DFC20CF1E0C20DF17AECD5
:1034E80064F0010E01010C250201366F000E010186
:1034F8000D210201376F000E0201E26F000EE16F2D
:1035080000D079EC77F00009D8B4DED002019F51E1
:10351800D8B47BD001015A510101D8B476D0000E3D
:1035280002019F6F5BC1D9FF5CC1DAFF77C2DFFF81
:10353800010120EE01F05B51D9265C51DA2276C2F6
:10354800DFFF010120EE02F05B51D9265C51DA223F
:10355800A6C1DFFF6E0E0101006F020E0101016FAF
:10356800000E0101026F5BC103F15CC104F1030E9F
:103578000101056F040E0101066F0CEC6AF0720E72
:103588000101006F020E0101016F000E0101026FBF
:103598005BC103F15CC104F1070E0101056F040E64
:1035A8000101066F0CEC6AF0010120EE0BF05B5193
:1035B800D9265C51DA22A2C2DFFF780E0101006F22
:1035C800020E0101016F000E0101026F5BC103F1E0
:1035D8005CC104F10C0E0101056F9EC206F10CECF2
:1035E8006AF0DB0E0101326F010E0101336FA70E85
:1035F8000101346F040E0101356F02019E510C0F59
:103608000101366FA3EC5FF05BD002013651020175
:10361800E11956E1020137510201E219D8A450D04C
:1036280001015A510101D8B442D081EC77F0000968
:10363800D8B43DD00101EA51D8B427D062EC29F0C2
:103648000101516FDB0E0101326F010E0101336F71
:10365800A70E0101346F040E0101356F51C136F117
:10366800A3EC5FF00009D8A42BD001D029D0020127
:10367800DF510201365D0201E05102013759D8B02D
:103688001FD00201364B372B1BD0DB0E0101326FE6
:10369800010E0101336FA70E0101346F040E010101
:1036A800356F000E0101366FA3EC5FF009D06B0E89
:1036B8000101126FFE0E0101136F4EEC32F000D0C3
:1036C8000201E14BE22BDBD2CBC256F1CCC257F15F
:1036D800CDC258F1CEC259F10101CD51D8A4C1D003
:1036E8000101CD2B0201A051D8A4B8D0010E0201CE
:1036F8006D65C5D2720E01010B6F020E01010C6FD0
:10370800560E01010D6F010E01010E6FB6EC40F06F
:103718000101526F0001BD51D8B416D0560E0101F7
:10372800066F010E0101076FE80E0101086F020E16
:103738000101096F040E01010A6F88EC70F000099D
:10374800D8A49DD201D09BD2A1C20CF101010D6B6E
:103758007AEC64F001010C510201A06F01015A5189
:103768000101D8B48CD202016D070201A12B1F0EF2
:103778000101526184D25BC1D9FF5CC1DAFF77C213
:10378800DFFF010120EE01F05B51D9265C51DA22FE
:1037980076C2DFFF010120EE02F05B51D9265C51B1
:1037A800DA22A6C1DFFF6E0E0101006F020E0101D1
:1037B800016F000E0101026F5BC103F15CC104F1EE
:1037C800030E0101056F040E0101066F0CEC6AF08F
:1037D800720E0101006F020E0101016F000E01015E
:1037E800026F5BC103F15CC104F1070E0101056FB3
:1037F800040E0101066F0CEC6AF0010120EE0BF0DB
:103808005B51D9265C51DA22A2C2DFFF780E010192
:10381800006F020E0101016F000E0101026F5BC112
:1038280003F15CC104F10C0E0101056F9EC206F1A3
:103838000CEC6AF0560E0101326F010E0101336F74
:10384800A70E0101346F040E0101356F02019E516C
:103858000C0F0101366FA3EC5FF011D20201A00733
:103868000ED20101CD05D8A4E8D00001BD51D8B4CD
:10387800E4D00101CD2B720E01010B6F020E010184
:103888000C6F560E01010D6F010E01010E6FB6ECA3
:1038980040F00101536F010E02016D659CD0560E78
:1038A8000101066F010E0101076FE80E0101086FA3
:1038B800020E0101096F040E01010A6F88EC70F015
:1038C8000009D8B488D0000E02016D6F000E020105
:1038D800A06F020E0201A16F01015A510101D8B473
:1038E800CED11F0E01015361CAD1000E0001BD6F78
:1038F8005BC1D9FF5CC1DAFF77C2DFFF010120EEAF
:1039080001F05B51D9265C51DA2276C2DFFF010152
:1039180020EE02F05B51D9265C51DA22A6C1DFFF06
:103928006E0E0101006F020E0101016F000E010110
:10393800026F5BC103F15CC104F1030E0101056F65
:10394800040E0101066F0CEC6AF0720E0101006FA3
:10395800020E0101016F000E0101026F5BC103F14C
:103968005CC104F1070E0101056F040E0101066F29
:103978000CEC6AF0010120EE0BF05B51D9265C518A
:10398800DA22A2C2DFFF780E0101006F020E0101E8
:10399800016F000E0101026F5BC103F15CC104F10C
:1039A8000C0E0101056F9EC206F10CEC6AF0560E72
:1039B8000101326F010E0101336FA70E0101346F4F
:1039C800040E0101356F02019E510C0F0101366F83
:1039D800A3EC5FF054D1000E0001BD6F5BC1D9FFAD
:1039E8005CC1DAFF020EDF6E010120EE01F05B51CF
:1039F800D9265C51DA22000EDF6E010120EE02F0BA
:103A08005B51D9265C51DA22A6C1DFFF01015A5168
:103A18000101D8B434D1E80E0101326F020E010160
:103A2800336FA70E0101346F040E0101356F030EC9
:103A38000101366FA3EC5FF022D1020E0101CD65C2
:103A48001BD102016D05D8A413D1720E01010B6FB1
:103A5800020E01010C6F560E01010D6F010E0101DE
:103A68000E6FB6EC40F00101546F01015569560E16
:103A78000101066F010E0101076FDB0E0101086FDE
:103A8800010E0101096F040E01010A6F88EC70F044
:103A98000009D8A40BD0560E01010E6F010E0101CA
:103AA8000F6F04EC6DF00101556F00D0040E020198
:103AB8007719D8B414D06E0E0101066F020E0101F9
:103AC800076FDF0E0101086F010E0101096F040E77
:103AD80001010A6F88EC70F00009D8B40AD0000E12
:103AE80002016D6F000E0201A06F020E0201A16FAC
:103AF800BFD06E0E0101066F020E0101076FDF0EC7
:103B08000101086F010E0101096F040E01010A6F1E
:103B180088EC70F00009D8A4ABD001D0A9D06E0E03
:103B28000101066F020E0101076FF00E0101086F17
:103B3800020E0101096F040E01010A6F53EC71F0C6
:103B480076C2EFF1D7EC76F00201766F040E02012F
:103B5800776F060E02016D6F000E0201A06F020E54
:103B68000201A16F720E0101066F020E0101076FBB
:103B78004D0E0101086F010E0101096F040E0101CC
:103B88000A6F53EC71F06E0E0101066F020E01010F
:103B9800076F720E0101086F020E0101096F040E12
:103BA80001010A6F53EC71F0DF0E0101066F010E7F
:103BB8000101076F6E0E0101086F020E0101096F06
:103BC800040E01010A6F53EC71F0000E0201A26F9E
:103BD8001D0E0201786F2B0E0201796F4D0E010147
:103BE800006F010E0101016F000E0101026F780ED6
:103BF8000101036F020E0101046F020E0101056F3E
:103C0800040E0101066F0CEC6AF0560E0101006FFC
:103C1800010E0101016F000E0101026F780E010112
:103C2800036F020E0101046F060E0101056F040EF9
:103C38000101066F0CEC6AF054C182F255C183F29F
:103C480001015551060D040EF326000EF422BD0E97
:103C5800F324D96E0B0EF420DA6EDF500F0B02013D
:103C6800846F0D0E02019E6F000E0101CD6F00D012
:103C7800000E0101CD6F03D00101CD2B00D091ECD6
:103C880077F00009D8A40CD00101B52B020E010170
:103C9800B56506D056EC48F0000E0101B56F00D0AE
:103CA8000101A82B0101E9510101A85DD8A03FD06D
:103CB8000101A751020DC90EF324D96E090EF42093
:103CC800DA6EDF38E832E832030B0009D8B422D0C4
:103CD800010E01014B6F0101A751020DC90EF3241A
:103CE800D96E090EF420DA6EDF3801014C6F4C33BF
:103CF8004C31030B4C6F01014B5101014C5F010129
:103D08004C3B4C374C37DF5001014C193F0B4C19D9
:103D1800DF6E00D00101A72BF90E0101A76503D0C2
:103D2800000E0101A76F000E0101A86F00D0070E59
:103D3800D9EC72F00009D8B412002AEC3DF0010E5B
:103D48000101EA6F1200120015C106F116C107F150
:103D5800DF0E0101086F010E0101096F040E010158
:103D68000A6F88EC70F00009D8A4120001D0120084
:103D780001011729D8B4120001D01200030E010165
:103D8800086F01011751060D050EF326000EF422E7
:103D9800BD0EF324D96E0B0EF420DA6EDF5041EC21
:103DA80045F00101196151D0030E0101086F0101AD
:103DB8001751060D050EF326000EF422BD0EF3244E
:103DC800D96E0B0EF420DA6EDF5041EC45F001019C
:103DD8001B6F01011751060D040EF326000EF42285
:103DE800BD0EF324D96E0B0EF420DA6EDF380F0BFC
:103DF800D8EC73F001011B5DD8B012D00101175146
:103E0800060D040EF326000EF422BD0EF324D96E1F
:103E18000B0EF420DA6EDF380F0BD8EC73F03AD0C3
:103E2800030E0101086F01011751060D050EF32657
:103E3800000EF422BD0EF324D96E0B0EF420DA6EB8
:103E4800DF5041EC45F026D02BD001011751060D6B
:103E5800040EF326000EF422BD0EF324D96E0B0EC9
:103E6800F420DA6EDF380F0BD8EC73F0010119611A
:103E780014D001011751060D040EF326000EF4228A
:103E8800BD0EF324D96E0B0EF420DA6EDF380F0B5B
:103E9800D8EC73F001011F6F03D019C11FF100D0D6
:103EA800000E0101206FF90E0101206501D06BD2CF
:103EB80015C104F116C105F10101205137EC5DF07F
:103EC8000009D8B45DD201012051020DC90EF324B6
:103ED800D96E090EF420DA6EDF503F0BEAEC66F07B
:103EE80001011C6F01012051020D010EF326000E85
:103EF800F422C90EF324D96E090EF420DA6EDF38E5
:103F0800E832070B01011B6F01011C5101011B5D08
:103F1800D8B019D01CC11BF101012051020D010EAE
:103F2800F326000EF422C90EF324D96E090EF420EC
:103F3800DA6E01011B3B1B47DF5001011B191F0BE8
:103F48001B19DF6E00D001011A510101D8B42DD020
:103F580001012051020D010EF326000EF422C90EB4
:103F6800F324D96E090EF420DA6EDF500101181916
:103F7800E00B1819DF6E01012051020DC90EF32460
:103F8800D96E090EF420DA6EDF5001011719C00B43
:103F98001719DF6E01012051020DC90EF324D96EE5
:103FA800090EF420DA6EC00EDF1201012051020D55
:103FB800C90EF324D96E090EF420DA6EDF503F0BD8
:103FC80001011719D8A444D01FC11BF101012051C8
:103FD800020D010EF326000EF422C90EF324D96E49
:103FE800090EF420DA6E01011B3B1B47DF5001016B
:103FF8001B191F0B1B19DF6E01012051020D010E49
:10400800F326000EF422C90EF324D96E090EF4200B
:10401800DA6EDF501F0B01011819D8B405D0010161
:10402800175191EC74F000D001012051020D010EDE
:10403800F326000EF422C90EF324D96E090EF420DB
:10404800DA6EDF5001011819E00B1819DF6E120043
:1040580001012051020DC90EF324D96E090EF42076
:10406800DA6EDF38E832E832030B0009D8A4120010
:1040780001012051020D010EF326000EF422C90E93
:10408800F324D96E090EF420DA6EDF38E832070B14
:10409800070AD8A43BD001012051020D010EF326D6
:1040A800000EF422C90EF324D96E090EF420DA6E3C
:1040B800DF5001011819E00B1819DF6E01012051BA
:1040C800020DC90EF324D96E090EF420DA6EDF5002
:1040D80001011719C00B1719DF6E1FC11BF1010170
:1040E8002051020D010EF326000EF422C90EF3240E
:1040F800D96E090EF420DA6E01011B3B1B47DF5015
:1041080001011B191F0B1B19DF6E12000101205141
:10411800020D010EF326000EF422C90EF324D96E07
:10412800090EF420DA6EDF501F0B0101186145D02B
:1041380001011F510001D85DD8A0120001012051D2
:10414800020D010EF326000EF422C90EF324D96ED7
:10415800090EF420DA6EDF5001011819E00B181966
:10416800DF6E01012051020DC90EF324D96E090E2C
:10417800F420DA6EDF5001011719C00B1719DF6E32
:104188001FC11BF101012051020D010EF326000E83
:10419800F422C90EF324D96E090EF420DA6E010157
:1041A8001B3B1B47DF5001011B191F0B1B19DF6E3F
:1041B8000101175191EC74F0120001012051020D18
:1041C800010EF326000EF422C90EF324D96E090E4F
:1041D800F420DA6EDF501F0B01011819D8A461D042
:1041E80001012051020D010EF326000EF422C90E22
:1041F800F324D96E090EF420DA6EDF38E832070BA3
:1042080001011F61120001012051020D010EF32668
:10421800000EF422C90EF324D96E090EF420DA6ECA
:10422800DF38E832070B0001D86112000101205184
:10423800020D010EF326000EF422C90EF324D96EE6
:10424800090EF420DA6EDF5001011819E00B181975
:10425800DF6E01012051020DC90EF324D96E090E3B
:10426800F420DA6EDF5001011719C00B1719DF6E41
:104278001FC11BF101012051020D010EF326000E92
:10428800F422C90EF324D96E090EF420DA6E010166
:104298001B3B1B47DF5001011B191F0B1B19DF6E4E
:1042A800120001012051020D010EF326000EF42226
:1042B800C90EF324D96E090EF420DA6EDF501F0BF5
:1042C80001011B6F0101185101011B5DD8B01200DB
:1042D8000001D85101011F5DD8B012000101205121
:1042E800020D010EF326000EF422C90EF324D96E36
:1042F800090EF420DA6EDF38E832070B0001D861C6
:10430800120001012051020D010EF326000EF422C5
:10431800C90EF324D96E090EF420DA6EDF500101BC
:104328001819E00B1819DF6E01012051020DC90E92
:10433800F324D96E090EF420DA6EDF500101171943
:10434800C00B1719DF6E1FC11BF101012051020DAF
:10435800010EF326000EF422C90EF324D96E090EBD
:10436800F420DA6E01011B3B1B47DF5001011B19CA
:104378001F0B1B19DF6E0101175191EC74F012002D
:104388000101202B90D51F0E0101186160D0000E8D
:1043980001011E6FF90E01011E6501D058D0DB0E18
:1043A8000101046F010E0101056F01011E5137EC77
:1043B8005DF00009D8B447D015C107F116C108F15E
:1043C80001011E51E6EC6AF001011E51020D010EB9
:1043D800F326000EF422C90EF324D96E090EF42038
:1043E800DA6EDF5001011819E00B1819DF6E0101B0
:1043F8001E51020DC90EF324D96E090EF420DA6E8F
:10440800DF5001011719C00B1719DF6E1FC11BF10F
:1044180001011E51020D010EF326000EF422C90EF1
:10442800F324D96E090EF420DA6E01011B3B1B47F9
:10443800DF5001011B191F0B1B19DF6E01011751FA
:1044480091EC74F0120001011E2BA4D700D01F0EAE
:10445800010118611200AEC01DF1F90E01011D65C0
:1044680002D01200120001011D51020D010EF326A7
:10447800000EF422C90EF324D96E090EF420DA6E68
:10448800DF501F0B1F0AD8B40ED001011D51020DB9
:10449800C90EF324D96E090EF420DA6EDF503F0BF3
:1044A8003F0AD8A454D015C107F116C108F100017C
:1044B800AE51E6EC6AF00001AE51020D010EF32692
:1044C800000EF422C90EF324D96E090EF420DA6E18
:1044D800DF5001011819E00B1819DF6E0001AE5109
:1044E800020DC90EF324D96E090EF420DA6EDF50DE
:1044F80001011719C00B1719DF6E1FC11BF100014D
:10450800AE51020D010EF326000EF422C90EF3245B
:10451800D96E090EF420DA6E01011B3B1B47DF50F0
:1045280001011B191F0B1B19DF6E0001AE51020D93
:10453800C90EF324D96E090EF420DA6E3F0EDF1689
:104548000101175191EC74F01DC1AEF01200F90E83
:1045580001011D19D8A404D0000E0001AE6F00D0CF
:1045680001011D2BF90E01011D657DD712001200F6
:104578001200000E4F6E000E506E000E0001B16F5B
:10458800000E0001BB6F020ED9EC72F00009D8B41E
:1045980035D1010E4F6E0001B22B020E0001B21987
:1045A800D8A4FBD0000E0001B26FF7D0000E0001B6
:1045B800B16F000E0101276F1E0E266F000E01015C
:1045C800286F020E73EC6BF019D1010E0001B16F68
:1045D800000E0101276F1E0E266F000E0101286FC5
:1045E800020E73EC6BF00AD10001B205D8A404D016
:1045F800010E0001B16F00D0000E0101276F400EBF
:10460800266F000E0101286F020E73EC6BF0F6D0D6
:104618000001B205D8A404D0010E0001B16F00D08A
:10462800000E0101276F7D0E266F000E0101286F15
:10463800020E73EC6BF0E2D000D00001B205D8A4F2
:1046480004D0010E0001B16F00D0000E0101276FE8
:10465800FA0E266F000E0101286F020E73EC6BF044
:10466800CDD00001B205D8A404D0010E0001B16F6D
:1046780000D0010E0101276FF40E266F000E010114
:10468800286F020E73EC6BF0B9D00001B205D8A404
:1046980004D0010E0001B16F00D0030E0101276F95
:1046A800E80E266F000E0101286F020E73EC6BF006
:1046B800A5D00001B205D8A404D0010E0001B16F45
:1046C80000D0090E0101276FC40E266F000E0101EC
:1046D800286F020E73EC6BF091D00001B205D8A4DC
:1046E80004D0010E0001B16F00D0130E0101276F35
:1046F800880E266F000E0101286F020E73EC6BF016
:104708007DD00001B205D8A421D0010E0001B16FFF
:104718003950D8A40DD0000E0101276F500E266F16
:10472800000E0101286F020E73EC6BF0010E0CD025
:10473800090E0101276F740E266F000E0101286F04
:10474800020E73EC6BF0000E396E58D03950D8B4A5
:104758000CD0000E0101276F500E266F000E0101CC
:10476800286F020E73EC6BF049D0090E0101276F18
:10477800740E266F000E0101286F020E73EC6BF0A9
:104788003DD0000E0101276F1E0E266F000E01019D
:10479800286F020E73EC6BF031D00001B051000AA3
:1047A800D8B404D7010AD8B410D7030AD8B41CD790
:1047B800010AD8B42DD7070AD8B43FD7010AD8B40C
:1047C80050D7030AD8B461D70D0AD8B436D7070A28
:1047D800D8B433D7010AD8B430D7030AD8B42DD700
:1047E800010AD8B42AD71F0AD8B463D7010AD8B4A3
:1047F80074D7030AD8B485D7C4D700D0030ED9EC30
:1048080072F00009D8B435D1010E506E0001B32BF7
:10481800020E0001B319D8A4FBD0000E0001B36F3B
:10482800F7D0000E0001BB6F000E0101276F1E0EAE
:10483800266F000E0101286F030E73EC6BF019D17F
:10484800010E0001BB6F000E0101276F1E0E266FBF
:10485800000E0101286F030E73EC6BF00AD1000102
:10486800B305D8A404D0010E0001BB6F00D0000E20
:104878000101276F400E266F000E0101286F030EFD
:1048880073EC6BF0F6D00001B305D8A404D0010E88
:104898000001BB6F00D0000E0101276F7D0E266F4F
:1048A800000E0101286F030E73EC6BF0E2D000D00C
:1048B8000001B305D8A404D0010E0001BB6F00D0DD
:1048C800000E0101276FFA0E266F000E0101286FF6
:1048D800030E73EC6BF0CDD00001B305D8A404D05F
:1048E800010E0001BB6F00D0010E0101276FF40E0D
:1048F800266F000E0101286F030E73EC6BF0B9D020
:104908000001B305D8A404D0010E0001BB6F00D08C
:10491800030E0101276FE80E266F000E0101286FB4
:10492800030E73EC6BF0A5D00001B305D8A404D036
:10493800010E0001BB6F00D0090E0101276FC40EE4
:10494800266F000E0101286F030E73EC6BF091D0F7
:104958000001B305D8A404D0010E0001BB6F00D03C
:10496800130E0101276F880E266F000E0101286FB4
:10497800030E73EC6BF07DD00001B305D8A421D0F1
:10498800010E0001BB6F3C50D8A40DD0000E0101F0
:10499800276F500E266F000E0101286F030E73EC6F
:1049A8006BF0010E0CD0090E0101276F740E266FF3
:1049B800000E0101286F030E73EC6BF0000E3C6EC5
:1049C80058D03C50D8B40CD0000E0101276F500EBF
:1049D800266F000E0101286F030E73EC6BF049D0AF
:1049E800090E0101276F740E266F000E0101286F52
:1049F800030E73EC6BF03DD0000E0101276F1E0E05
:104A0800266F000E0101286F030E73EC6BF031D096
:104A18000001BA51000AD8B404D7010AD8B410D793
:104A2800030AD8B41CD7010AD8B42DD7070AD8B4BA
:104A38003FD7010AD8B450D7030AD8B461D70D0AB2
:104A4800D8B436D7070AD8B433D7010AD8B430D780
:104A5800030AD8B42DD7010AD8B42AD71F0AD8B464
:104A680063D7010AD8B474D7030AD8B485D7C4D792
:104A780000D0090E0001B019D8A40CD05050D8B4F9
:104A880009D00001B3510001D8A404D0010E0001DF
:104A9800B16F00D00A0E0001BA19D8A40CD04F503B
:104AA800D8B409D00001B2510001D8A404D0010E35
:104AB8000001BB6F00D0080E0001B019D8A40CD0BB
:104AC8005050D8B409D00001BB510001D8B404D06B
:104AD800010E0001B16F00D0070E0001BA19D8A469
:104AE8000CD04F50D8B409D00001B1510001D8B44E
:104AF80004D0010E0001BB6F00D00001BB510001C2
:104B0800D8B40DD03B50D8B402D03B0600D0000139
:104B1800B9510001D8B403D00001B90700D0000191
:104B2800B1510001D8B40DD03850D8B402D03806ED
:104B380000D00001AF510001D8B403D00001AF0785
:104B480000D00001AF510001D8B403D0000E00011D
:104B5800B16F0001B9510001D8B403D0000E0001B3
:104B6800BB6F3850D8B424D035D022D00A0E0001FB
:104B7800AF6F0001AF51040F13D00A0E0001AF6FE1
:104B88000001AF51030F0CD00A0E0001AF6F0001F6
:104B9800AF51020F05D00A0E0001AF6F0001AF2917
:104BA800386E18D00A0E0001AF6FAFC038F012D0BF
:104BB8000001B0510B0AD8B4D9D7070AD8B4DDD749
:104BC800010AD8B4E1D7030AD8B4E5D7010AD8B4A2
:104BD800E9D700D03B50D8B424D035D022D00A0E23
:104BE8000001B96F0001B951040F13D00A0E00017A
:104BF800B96F0001B951030F0CD00A0E0001B96F4B
:104C08000001B951020F05D00A0E0001B96F000169
:104C1800B9293B6E18D00A0E0001B96FB9C03BF034
:104C280012D00001BA510B0AD8B4D9D7070AD8B4A0
:104C3800DDD7010AD8B4E1D7030AD8B4E5D7010A09
:104C4800D8B4E9D700D00001B151A0EC76F000014A
:104C5800BB5194EC76F012000101416F0101B4518F
:104C6800D8A404D00101D251D8B44AD2800E000190
:104C7800B719D8B459D02CC00DF12DC00EF1E3C22C
:104C88000FF1E4C210F153EC6FF001010D51010175
:104C98000E11D8A413D0000E01010E6F0001C551EA
:104CA800010D000EF324D96E070EF420DA6EDF50E2
:104CB80031EC75F0010E0001C16F27D02CC10EF147
:104CC800C5C000F10101016BC5C102F10101036B0F
:104CD800C90E0101046F000E056F000E066F000E6D
:104CE800076F71EC6EF0000E01010025D96E070EFA
:104CF80001010121DA6EDF5031EC75F0000E000180
:104D0800C16F000E0101AF6F00D0020E0101D21970
:104D1800D8A406D0010E0101B46F000E0101D26FB4
:104D2800000E0101CF6F2BD0020E0101D219D8A4B9
:104D380007D0010E0101B46F000E0101D26F1FD020
:104D48000101CF2B010E0101CF6519D0F25000D01F
:104D5800070E15EC49F0000E0101B46F000E0101B9
:104D6800D26F010E0101EC6F000E0101016F040EFC
:104D7800006F030E0101026FFDEC58F000D02C0407
:104D88002D10D8A407D0010E476EA3C034F0A4C0DC
:104D980035F000D0080ED9EC72F00009D8B408D06C
:104DA8000101C051D8B404D0010E0101C86F00D070
:104DB800080EE5EC74F00009D8B42ED00101C051FA
:104DC800D8A41CD0F1C10CF101010D6B7AEC64F090
:104DD80001010C510101C16F0101C151000801011C
:104DE800F1250101C06FC1C126F10101276B010E38
:104DF8000101286F080E73EC6BF00ED0C0C126F1CC
:104E08000101276B010E0101286F080E73EC6BF08E
:104E1800000E0101C06F00D00101B6510101D8A4F4
:104E280006D00201465102014711D8B442D100010F
:104E3800C151D8B43ED1010141510101D8B439D191
:104E480048C22DF149C22EF101012D1F2E1F2D4BF5
:104E58002E2B040E01010C6F010EA1EC5AF001017A
:104E68002D5101010C250101466F01012E5101014F
:104E78000D210101476F46C12DF147C12EF10101F6
:104E88002D1F2E1F2D4B2E2B2DC144F12EC145F168
:104E9800080E0101475DD8A00BD0FE0E0101465D4A
:104EA8000F0E01014759D8B003D00101B62B36D0F7
:104EB800010146290F0E01014759D8A00CD0FD0E5B
:104EC8000101465D170E01014759D8B004D0020E02
:104ED8000101B62723D0080E0101455DD8A00BD0EB
:104EE800FE0E0101445D0F0E01014559D8B003D0F3
:104EF8000101B60713D0010144290F0E01014559DC
:104F0800D8A00CD0FD0E0101445D170E01014559D2
:104F1800D8B004D0020E0101B65F00D0040E010122
:104F28000C6F010EA1EC5AF00CC146F10DC147F10E
:104F3800A3C000F1A4C001F146C102F147C103F1C9
:104F4800000E0101046F000E056F010E066F000EC2
:104F5800076F71EC6EF000C137F101C138F137C14C
:104F680017F138C118F146C219F147C21AF1000EFB
:104F780001011B6F000E1C6F010E1D6F000E1E6FCE
:104F880088EC60F017C142F118C143F142C10DF13C
:104F980043C10EF1070E0101106F0F6953EC6FF05A
:104FA8000DC13DF10EC13EF13DC10DF13EC10EF105
:104FB800040E01010F6F010E6AEC44F001013D512E
:104FC8000101425F01013E510101435B42C1A3F06F
:104FD80043C1A4F042C106F143C107F1070E010124
:104FE800096F086944EC6CF006C12CF007C12DF07C
:104FF800C5C017F10101186BB6C119F101011A6B8F
:10500800C90E01011B6F000E1C6F000E1D6F000EF4
:105018001E6F88EC60F0010117510001C56FB6C121
:105028002FF10101306B000E0101B66F000E020175
:10503800476F000E466F000E02013B6F000E3A6F7D
:105048002C502D10D8A408D0000E2D6E100E2C6EEA
:1050580038C2A3F039C2A4F0070E356E3468020EC8
:105068000101D26F040E01010C6F010EA1EC5AF080
:105078000001A35101010C2501013F6F0001A4515A
:1050880001010D210101406F91EC77F00101316FB1
:105098003FC133F1010140510101326F000E01019E
:1050A800016F040E006F020E0101026FFDEC58F053
:1050B80023D00001C5510101D019D8A40BD001019A
:1050C800B451D8B407D0010141510101D8A414D07A
:1050D80001D012D00101C851D8B40ED07DEC77F0C0
:1050E8000009D8B409D0010141510101D8B404D054
:1050F800000E0101C86F00D00201544B552B4ED051
:10510800060EE5EC74F00009D8B41CD0000E0101BD
:105118000D6F320E0C6F7AEC64F0540E01010C2501
:105128000101396F240E01010D2101013A6F39C1C6
:1051380026F13AC127F1000E0101286F060E73EC23
:105148006BF000D0060ED9EC72F00009D8B40DD07F
:10515800000E01010E6F0101F65131EC75F0000EE1
:105168000201E66F010EE56F00D00201E6510BE186
:10517800330E0201E55DD8B006D08AEC75F0020165
:10518800E54BE62B00D0330E0201E5190201E611CA
:10519800D8A404D00201E54BE62B00D00101D05180
:1051A8000101D8A404D0C80E0101D06F03D00101B9
:1051B800D00700D0050ED9EC72F00009D8A425EC70
:1051C80070F0090EE5EC74F00009D8B44CD089EC05
:1051D80077F001012D6F01012D513E0DF3CF3BF109
:1051E800F4CF3CF13BC108F13CC109F17BEC74F010
:1051F80008C10BF109C10CF10AC10DF1000E010142
:105208000E6F7A0E01010F6F440E0101106FF0EC62
:1052180052F00BC134F10CC135F10DC136F1000E5D
:1052280001010B6F280E01010C6F430E01010D6F78
:1052380034C108F135C109F136C10AF1BFEC4CF0AF
:1052480008C117F109C118F10AC119F147EC52F068
:1052580017C126F118C127F1010E0101286F090EA7
:1052680073EC6BF000D0090ED9EC72F00009D8B4D9
:1052780017D0070E15EC49F0000E0101B46F000EAF
:105288000101D26F010E0101EC6F000E0101016FE7
:10529800040E006F050E0101026FFDEC58F000D0FE
:1052A8000F0ED9EC72F00009D8B404D0010E010138
:1052B800EC6F00D00E0ED9EC72F01200000E010156
:1052C800176FB20E0101256F040E0101266F25C16B
:1052D800D9FF26C1DAFF010EDF6E000E0101186F3B
:1052E800060E0101186F010E0101226F010E010166
:1052F800226501D096D00001BF51060DBD0EF324E2
:105308000101066F0B0EF4200101076FDB0E01018E
:10531800086F010E0101096F040E01010A6F88EC84
:1053280070F00009D8A449D00001BF51060D050E40
:10533800F326000EF422BD0EF324D96E0B0EF420D2
:10534800DA6EDE28D8B439D00001BF51060DBD0E83
:10535800F3240101006F0B0EF4200101016F000E10
:105368000101026F25C103F126C104F1010E0101FB
:10537800056F040E0101066F0CEC6AF0010120EEC6
:1053880005F02551D9262651DA22040E0101086FAD
:105398000001BF51060D050EF326000EF422BD0EC6
:1053A800F324E16E0B0EF420E26EE75041EC45F079
:1053B800DF6E010E0101176F03D00101220700D033
:1053C8003E0E0001BF6103D00001BF2B27D0000EA5
:1053D8000001BF6F010117510101D8A422D0DB0ED3
:1053E8000101006F010E0101016F000E0101026F42
:1053F80025C103F126C104F1010E0101056F040E58
:105408000101066F0CEC6AF0010120EE05F0255150
:10541800D9262651DA22FF0EDF6E03D00101222B96
:1054280065D7000E01011C6F000E0101246F000EEC
:105438000101196FBEC016F11AD20001CD51D8B4BE
:10544800FCD001012451010D190EF324D96E030E6D
:10545800F420DA6EDF500101236F1E0E01010C6F7C
:10546800010E01010D6F0101235195EC66F0010E4B
:10547800010124250101006F0101016B000E0123C8
:10548800000E0101036F050E026F37EC73F0010E79
:1054980001010027000E0101012301010051010152
:1054A8002525D96E0101015101012621DA6E1EC19F
:1054B800DFFF010E010124250101006F0101016BCD
:1054C800000E0123000E0101036F050E026F37EC79
:1054D80073F0020E01010027000E010101230101F2
:1054E800005101012525D96E010101510101262133
:1054F800DA6E1FC1DFFF010E010124250101006FD3
:105508000101016B000E0123000E0101036F050E5E
:10551800026F37EC73F0030E01010027000E010142
:1055280001230101005101012525D96E0101015115
:1055380001012621DA6E20C1DFFF010E01012425B9
:105548000101006F0101016B000E0123000E010132
:10555800036F050E026F37EC73F0040E010100278C
:10556800000E010101230101005101012525D96E19
:105578000101015101012621DA6E21C1DFFF01017C
:105588002351020D010EF326000EF422C90EF32456
:10559800D96E090EF420DA6EDF38E832070B010104
:1055A800146F050E0101156F0101D8901437010120
:1055B800152FFAD70101145101011A6F0101235166
:1055C800020D010EF326000EF422C90EF324D96E43
:1055D800090EF420DA6EDF501F0B01011A27010EA5
:1055E800010124250101006F0101016B000E012357
:1055F800000E0101036F050E026F37EC73F0050E04
:1056080001010027000E01010123010100510101E0
:105618002525D96E0101015101012621DA6E1AC131
:10562800DFFF050E01011C270101242B0001CD51CC
:10563800D8B41DD10001CD071AD1DB0E0101046FCA
:10564800010E0101056F0001BE5137EC5DF0000944
:10565800D8A4F8D00001BE51020DC90EF324D96EAA
:10566800090EF420DA6EDF503F0B3F0AD8B4EAD0B7
:105678001E0E01010C6F010E01010D6F0001BE51DC
:1056880095EC66F0010E010124250101006F01016E
:10569800016B000E0123000E0101036F050E026F5E
:1056A80037EC73F0010E01010027000E0101012300
:1056B8000101005101012525D96E010101510101A6
:1056C8002621DA6E1EC1DFFF010E0101242501012A
:1056D800006F0101016B000E0123000E0101036F31
:1056E800050E026F37EC73F0020E01010027000E61
:1056F800010101230101005101012525D96E010194
:10570800015101012621DA6E1FC1DFFF010E0101DF
:1057180024250101006F0101016B000E0123000E19
:105728000101036F050E026F37EC73F0030E0101E0
:105738000027000E01010123010100510101252567
:10574800D96E0101015101012621DA6E20C1DFFF66
:10575800010E010124250101006F0101016B000EFA
:105768000123000E0101036F050E026F37EC73F081
:10577800040E01010027000E01010123010100515F
:1057880001012525D96E0101015101012621DA6E99
:1057980021C1DFFF0001BE51020D010EF326000EEC
:1057A800F422C90EF324D96E090EF420DA6EDF381C
:1057B800E832070B0101146F050E0101156F010195
:1057C800D89014370101152FFAD70101145101019E
:1057D8001B6F0001BE51020D010EF326000EF422CC
:1057E800C90EF324D96E090EF420DA6EDF501F0BB0
:1057F80001011B27010E010124250101006F010190
:10580800016B000E0123000E0101036F050E026FEC
:1058180037EC73F0050E01010027000E010101238A
:105828000101005101012525D96E01010151010134
:105838002621DA6E1BC1DFFF050E01011C270101BD
:10584800242B00D0F90E0001BE6103D00001BE2B4D
:1058580004D0000E0001BE6F00D00001BE5101014E
:105868001619D8A404D0010E0101196F00D0080E32
:105878000101246107D0010119510101D8A402D006
:10588800DCD500D00101185101011C2501011D6F53
:1058980001011D51010DF35001012525D96EF45068
:1058A80001012621DA6EC8C0DFFF01011D2B0101AD
:1058B8001D511200120001012E510101D8B4F2D27B
:1058C800C90E01013061EED22CC1D9FF2DC1DAFF1A
:1058D800DE28D8A456D00101D251D8A452D0010153
:1058E800B451D8B422D0050EE5EC74F00009D8B450
:1058F8008DD2060E01010D6F0E0E0C6F7AEC64F05E
:105908001C0E01010C2501013B6F0C0E01010D213C
:1059180001013C6F3BC126F13CC127F1000E01019A
:10592800286F050E73EC6BF071D20E0EE5EC74F077
:105938000009D8B46BD2050EE5EC74F00009D8B4B0
:105948001CD0060E01010D6F0E0E0C6F7AEC64F080
:105958001C0E01010C2501013D6F0C0E01010D21EA
:1059680001013E6F3DC126F13EC127F1000E010144
:10597800286F050E73EC6BF000D0010E0101B46FB7
:1059880045D2020E01012E6541D2010120EE01F03F
:105998002C51D9262D51DA22DF500101316F010136
:1059A80031510101506F516B010150510101516F8B
:1059B800506B010120EE02F02C51D9262D51DA222C
:1059C800DF500101316F0101315101015027000EF3
:1059D800512350C133F151C134F1040E01010C6F50
:1059E800010EA1EC5AF00CC14CF10DC14DF1A2C150
:1059F80017F1A3C118F14CC119F14DC11AF1FF0EED
:105A080001011B6F070E1C6F000E1D6F000E1E6F2D
:105A180088EC60F017C13FF118C140F1A3C000F154
:105A2800A4C001F14CC102F14DC103F1000E010106
:105A3800046F000E056F010E066F000E076F71EC04
:105A48006EF000C14EF101C14FF14EC146F14FC198
:105A580047F14EC100F14FC101F1000E0101036F82
:105A68003D0E026F000E0101046F000E056F010E5E
:105A7800066F000E076F71EC6EF000C14CF101C1AA
:105A88004DF101012F510101D8B415D04CC100F1DD
:105A98004DC101F1000E0101036F050E026F000EEA
:105AA8000101046F000E056F010E066F000E076FEF
:105AB80071EC6EF014D04CC100F14DC101F1000E33
:105AC8000101036F000E026F000E0101046F000E4A
:105AD800056F010E066F000E076F71EC6EF000C1C6
:105AE8004EF101C14FF150C117F151C118F13FC139
:105AF80019F140C11AF1000E01011B6F000E1C6F55
:105B0800010E1D6F000E1E6F88EC60F017C14CF17E
:105B180018C14DF14CC150F14DC151F14EC131F197
:105B28004FC132F10101311F321F314B322B0101BC
:105B380050510101312501014A6F01015151010103
:105B4800322101014B6F4AC131F14BC132F10101E0
:105B5800311F321F314B322BFF0E0101312501015C
:105B6800486FFF0E010132210101496F2CC1D9FF95
:105B78002DC1DAFF01013051DE18D8A414D0080E67
:105B880001014B5DD8A005D0800E01014B5DD8A066
:105B98000AD0080E0101495DD8A075D0800E010118
:105BA800495DD8B070D00101EC51D8A404D00101EE
:105BB800B451D8A4D4D04EC117F14FC118F150C177
:105BC80019F151C11AF1000E01011B6F000E1C6F73
:105BD800010E1D6F000E1E6F88EC60F017C146F2B3
:105BE80018C147F24EC10DF14FC10EF1070E010168
:105BF800106F0F6953EC6FF00DC131F10EC132F126
:105C080050C10DF151C10EF1070E0101106F0F695E
:105C180053EC6FF001010D1F01010E1F01010D4B27
:105C28000E2B01010D51010131250201486F0101BF
:105C38000E51010132210201496F30C117F10101F2
:105C4800186B2CC1D9FF2DC1DAFFDF500101316F6C
:105C5800010131510101196F1A6BC90E01011B6F46
:105C6800000E1C6F000E1D6F000E1E6F88EC60F09A
:105C7800010117510101B66F010E0101D26F000E2B
:105C88000101B46F6CD00101505101014E5D010159
:105C9800515101014F59D8B047D0800E01014B5DD9
:105CA800D8B042D001014E51000801015025010130
:105CB800456F010145510001A327000EA4234EC1E1
:105CC80031F14FC132F10101311F321F314B322BFB
:105CD800010150510101312502014E6F010151515D
:105CE8000101322102014F6F02014E510201505D44
:105CF80002014F5102015159D8B016D04EC131F1AD
:105D08004FC132F10101311F321F314B322B0101DA
:105D18005051010131250201506F0101515101011A
:105D280032210201516F00D00101B451D8B404D01E
:105D38000101D251D8A404D0010E0101B46F00D0E2
:105D4800010146510201625D010147510201635997
:105D5800D8B005D046C162F247C163F200D089ECE1
:105D680077F00101316F010131513E0DF3CF41F15F
:105D7800F4CF42F141C108F142C109F17BEC74F062
:105D880008C10BF109C10CF10AC10DF1000E0101A6
:105D98000E6F7A0E01010F6F440E0101106FF0ECC7
:105DA80052F00BC135F10CC136F10DC137F1000EBF
:105DB80001010B6F280E01010C6F430E01010D6FDD
:105DC80035C108F136C109F137C10AF1BFEC4CF011
:105DD80008C117F109C118F10AC119F147EC52F0CD
:105DE80017C126F118C127F1010E0101286F090E0C
:105DF80073EC6BF0000E0201556F000E546F030E2A
:105E080001012E6503D0010E120000D089EC77F055
:105E18000101316F010131513E0DF3CF43F1F4CF50
:105E280044F143C108F144C109F17BEC74F008C1A5
:105E38000BF109C10CF10AC10DF1000E01010E6F41
:105E48007A0E01010F6F440E0101106FF0EC52F051
:105E58000BC138F10CC139F10DC13AF1000E010145
:105E68000B6F280E01010C6F430E01010D6F38C135
:105E780008F139C109F13AC10AF1BFEC4CF008C187
:105E880017F109C118F10AC119F147EC52F017C10D
:105E980026F118C127F1010E0101286F090E73ECD4
:105EA8006BF000D0000E12001200000E01016D6FA1
:105EB800000E0001C76F000E0101006F000E95EC87
:105EC80072F0000E526E000E4A6E200E21EC56F053
:105ED800000E0001CC6F000E0101AA6F0101ED5107
:105EE80088EC76F0020E1AEC73F0600E21EC56F096
:105EF800000E01010E6F000E31EC75F0190E010154
:105F0800276F640E266F000E0101286F110E73ECC7
:105F18006BF0000E0101276FB40E266F010E010110
:105F2800286F120E73EC6BF0010E0001C06F0400B5
:105F38000001B451D8B409D0000E0001B46F3E0E70
:105F480016EC37F00101BC2B00D00101AB51D8B4DD
:105F580009D0000E0101AB6F200E21EC56F0600E47
:105F680021EC56F00001B651D8B407D0600E21ECF0
:105F780056F0000E0001B66F00D00001B551D8A44C
:105F880004D00101AA51D8B4C0D1000E0101756F27
:105F9800000E0101786F000E776F000E0101BC6FD3
:105FA8000001B551D8B455D0000E0001B56FB8EC5A
:105FB80076F00101E56FB8EC76F0000E0101736F21
:105FC8001DD001017351010D290EF324D96E030E62
:105FD800F420DA6EB8EC76F0DF6E01017351010D32
:105FE800290EF324D96E030EF420DA6EDF50010176
:105FF80075190101756F0101732B00D0FF0E0101A6
:106008005E6FFF0E01015F6F0101E5510101606FD5
:10601800616B01015E510101602701015F510101BE
:106028006123010173510101626F636B01016051CA
:106038000101625D01016351800A0101646F010180
:106048006151800A01016459D8A0BBD7000E000134
:10605800CC6F0101AA51D8B41DD0000E0101746F94
:106068003A0E0101746501D011D001017451010D7E
:10607800290EF324D96E030EF420DA6EDF500101E5
:1060880075190101756F0101742BEAD7000E010122
:10609800AA6F00D02AC377F10101786B010177510B
:1060A8000101786F776B0301295101017727000EF1
:1060B80078230101CE510101D8B41FD0D00E0101BF
:1060C8005E6FCA0EE82EFED75E2FFCD7D00E0101F8
:1060D8005E6FCA0EE82EFED75E2FFCD7250E010193
:1060E800775D090E01017859D8B0EDD077C11AF162
:1060F80078C11BF1FFEC6BF0E6D0010E01016D6F6A
:10610800010175510101D8A4DED001D0DCD0010114
:106118009A510101771905E101019B510101781993
:10612800D8A4D1D001019A5101019B11D8A42BD038
:10613800000E01016F6F000E706F000E716F000E80
:10614800726F010172511FE1100E0101705D020EA4
:1061580001017159D8B017D001D015D06FC105F120
:1061680070C106F171C107F172C108F165EC74F0F4
:10617800000E01016F27100E7023000E7123000E10
:106188007223DFD700D0000E0101766F370E0101B0
:10619800766501D055D09AC165F19BC166F10101C0
:1061A800676B686B65C100F166C101F167C102F1F7
:1061B80068C103F1380E0101046F000E056F000E6F
:1061C800066F000E076F7FEC6DF00101765101013B
:1061D80000250101696F000E0101012101016A6FAB
:1061E800000E0101022101016B6F000E0101032164
:1061F80001016C6F69C105F16AC106F16BC107F154
:106208006CC108F101017651010D020EF326000E52
:10621800F422290EF3240101096F030EF420010171
:106228000A6F040E01010B6F000E0C6F000E0D6F4C
:10623800000E0E6F56EC6AF0040E01017627A6D701
:1062480001019A4B9B2B01019E5101019A193BE1D7
:1062580001019F5101019B19D8A435D0000E0101FD
:10626800056F000E066F020E076F000E086FE60E30
:106278000101096F010E01010A6F010E01010B6F87
:10628800000E0C6F000E0D6F000E0E6F56EC6AF0CC
:10629800010E0101056F000E066F020E076F000E5A
:1062A800086FD40E0101096F030E01010A6F0B0E6E
:1062B80001010B6F000E0C6F000E0D6F000E0E6FBC
:1062C80056EC6AF000D0030E0101276FE80E266F26
:1062D800000E0101286F110E73EC6BF00101CE5115
:1062E8000101D8B412D00101775101017811D8A465
:1062F8000CD0270E0101276F100E266F000E01012A
:10630800286F110E73EC6BF000D00101CE51010122
:10631800D8A424D0020E0101BC6506D0010E0101EB
:106328006D6F000E0101BC6F01016D510101D8B400
:1063380015D001019E5101019A5D01019F51010192
:106348009B59D8B007D09AC10BF19BC10CF10DEC49
:1063580075F000D0000E01016D6F00D0000E010134
:10636800016F010E006FE70E0101026F010E0101BE
:10637800036F42EC54F00009D8B438D0270E01015D
:106388000C6F040E01010D6FD70E01010E6F000E88
:1063980001010F6F0101E7515FEC3EF00009D8B42D
:1063A80025D004012851C00B01016E6F01016E4513
:1063B800E846030B01016E6F030E01016E19D8A4A4
:1063C80015D0290E0101066F040E0101076F290E71
:1063D8000101086F030E0101096F3B0E01010A6FED
:1063E80053EC71F0010E0101AA6F00D0020ED9EC36
:1063F80072F00009D8B405D0937693B602D08A9685
:1064080000D0110ED9EC72F00009D8A402D017D030
:1064180000D0ACA2FED7720E61EC76F000D0ACA230
:10642800FED7730E61EC76F000D0ACA2FED7740EE6
:1064380061EC76F000D0ACA2FED7FF0000D0020ECF
:10644800E5EC74F00009D8B40BD0000E0101276FF9
:10645800FA0E266F000E0101286F020E73EC6BF026
:10646800110EE5EC74F00009D8B40BD0030E01014D
:10647800276FE80E266F000E0101286F110E73ECCE
:106488006BF0120ED9EC72F00009D8B450D5FF00A9
:106498004ED51200140E0101266F010E0101276F5F
:1064A8004CD2250E01012D19D8B405D001012D516A
:1064B800CEEC75F042D2000E01012C6F000E2B6F4E
:1064C800000E01012A6F07D001012A850101124B34
:1064D800132B01D00BD012C1F6FF13C1F7FF080030
:1064E800F550300AD8B4F0D701D0F5D712C1F6FF6D
:1064F80013C1F7FF0800F55020EC74F0D8A0A5D020
:10650800000E01012C6F000E2B6F00D02BC100F183
:106518002CC101F1000E0101036F0A0E026F37EC66
:1065280073F000C12BF101C12CF1D00E01011C6FD9
:10653800FF0E01011D6F12C1F6FF13C1F7FF08001E
:10654800F55001011E6F1F6B01011C5101011E272F
:1065580001011D5101011F2301011E5101012B27BA
:1065680001011F5101012C230101124B132B12C1F0
:10657800F6FF13C1F7FF0800F55020EC74F0D8A01F
:1065880064D0C4D762D012007FD000D001012A8F16
:106598007BD001012B510101235D01012C51010127
:1065A8002459D8B009D00101235101012B5F010101
:1065B800245101012C5B0AD0000E01012C6F000E42
:1065C8002B6F04D0200ECEEC75F000D001012B0704
:1065D800D8A02C0701012B29F5E101012C29D8B4F9
:1065E8000DD0F0D70BD021C1D9FF22C1DAFFDF507F
:1065F800CEEC75F00101214B222B00D001012307BD
:10660800D8A0240701012329EEE101012429D8B4E7
:1066180094D1E9D792D126C1D9FF27C1DAFFDF503B
:1066280001012D6F020E01012627000E272300D03D
:106638002D0E0101216F010E0101226F000E0101D3
:10664800246F010E236FA5D71FD012C1F6FF13C107
:10665800F7FF0101124B132B0800F5CF2DF10101B3
:106668002D51000AD8B41200580AD8B48FD73B0A63
:10667800D8B4D1D7070AD8B407D00D0AD8B404D0F3
:10668800110AD8B483D7D4D701012ABF19D026C19B
:10669800D9FF27C1DAFFDECF28F1DDCF29F1020EBD
:1066A80001012627000E2723010129AF5DD0030E23
:1066B80001012A130101286D291FD8B0292B54D0B4
:1066C80026C1D9FF27C1DAFFDECF28F1DDCF29F1B6
:1066D800020E01012627000E272346D0010E0101D4
:1066E8002D6F050E01012D19D8B448D001D046D020
:1066F80001012D51020D310EF324F66EFE0EF42029
:10670800F76E0900F5500101285D0900F5500101F7
:106718002959D8A033D001D031D001012D2BE1D790
:106728002DD0010E01012D6F040E01012D19D8B4D1
:1067380025D001D023D001012D51020D3B0EF324A9
:10674800F66EFE0EF420F76E0900F5500101285D83
:106758000900F55001012959D8A010D001D00ED058
:1067680001012D2BE1D70AD001012A51800B000A23
:10677800D8B4B4D7800AD8B4D4D700D001012B51EB
:1067880001012C11D8B40CD02AC11CF1030E01014F
:106798001C17D8B405D001012B07D8A02C0700D0AE
:1067A800800E01012DBF7F0E01011C6F01012B51CD
:1067B80001012D5D01012C51800A01011C59D8B03D
:1067C8000BD001012D5101012B5F000E01012DBFDE
:1067D800FF0E01012C5B06D0000E01012C6F000E8C
:1067E8002B6F00D001012AA520D02AC11CF1030E6D
:1067F80001011C17D8B404D02D0ECEEC75F000D0D2
:1068080001012B5101012C11D8B42FD0300ECEEC40
:1068180075F001012B07D8A02C0701012B510101AC
:106828002C11D8B422D0F2D720D001012B5101016C
:106838002C11D8B40FD0200ECEEC75F001012B0727
:10684800D8A02C0701012B5101012C11D8B402D07A
:10685800F2D700D02AC11CF1030E01011C17D8B4CD
:1068680004D02D0ECEEC75F000D02DC125F15DD0F1
:106878004DD001012551020D310EF324F66EFE0EA6
:10688800F420F76E0900F5CF08F10A00F5CF09F1F9
:1068980028C106F129C107F144EC6CF006C10DF1DD
:1068A80007C10EF1000E0101106F0A0E0F6F53ECB5
:1068B8006FF001010D51300F01012D6F31D028C14A
:1068C80006F129C107F101012551020D3B0EF32400
:1068D800F66EFE0EF420F76E0900F5CF08F10A00F7
:1068E800F5CF09F144EC6CF0010106510F0B0101E1
:1068F800206F01012051010D470EF324F66EFF0EA3
:10690800F420F76E0800F5CF2DF10AD001012A51C5
:10691800800B000AD8B4ADD7800AD8B4D0D700D03D
:1069280001012D51CEEC75F000D0010125070101C0
:106938002529D8B402D0EAD700D012C1F6FF13C176
:10694800F7FF0101124B132B0800F5CF2DF10101C0
:106958002D51D8B41200A5D5120012006E0E0001F8
:10696800786F000E0001796F4CD2250E00017F1957
:10697800D8B405D000017F51EEEC75F042D2000E7C
:1069880000017E6F000E7D6F000E00017C6F07D046
:1069980000017C8500016C4B6D2B01D00BD06CC0C5
:1069A800F6FF6DC0F7FF0800F550300AD8B4F0D7ED
:1069B80001D0F5D76CC0F6FF6DC0F7FF0800F550A1
:1069C8004EEC74F0D8A0A5D0000E00017E6F000E2A
:1069D8007D6F00D07DC060F07EC061F0000E0001C8
:1069E800636F0A0E626F53EC73F060C07DF061C094
:1069F8007EF0D00E00016E6FFF0E00016F6F6CC04D
:106A0800F6FF6DC0F7FF0800F5500001706F716B5D
:106A180000016E510001702700016F5100017123C0
:106A28000001705100017D270001715100017E2392
:106A380000016C4B6D2B6CC0F6FF6DC0F7FF0800B2
:106A4800F5504EEC74F0D8A064D0C4D762D01200D0
:106A58007FD000D000017C8F7BD000017D510001E8
:106A6800755D00017E5100017659D8B009D000014A
:106A7800755100017D5F0001765100017E5B0AD0EF
:106A8800000E00017E6F000E7D6F04D0200EEEEC2C
:106A980075F000D000017D07D8A07E0700017D2990
:106AA800F5E100017E29D8B40DD0F0D70BD073C022
:106AB800D9FF74C0DAFFDF50EEEC75F00001734BBC
:106AC800742B00D000017507D8A07607000175293E
:106AD800EEE100017629D8B494D1E9D792D178C0F3
:106AE800D9FF79C0DAFFDF5000017F6F020E000185
:106AF8007827000E792300D07F0E0001736F000EF7
:106B08000001746F000E0001766F010E756FA5D736
:106B18001FD06CC0F6FF6DC0F7FF00016C4B6D2BEA
:106B28000800F5CF7FF000017F51000AD8B41200A9
:106B3800580AD8B48FD73B0AD8B4D1D7070AD8B4E3
:106B480007D00D0AD8B404D0110AD8B483D7D4D743
:106B580000017CBF19D078C0D9FF79C0DAFFDECF39
:106B68007AF0DDCF7BF0020E00017827000E792342
:106B780000017BAF5DD0030E00017C1300017A6D2C
:106B88007B1FD8B07B2B54D078C0D9FF79C0DAFFEF
:106B9800DECF7AF0DDCF7BF0020E00017827000E01
:106BA800792346D0010E00017F6F050E00017F1981
:106BB800D8B448D001D046D000017F51020D310E23
:106BC800F324F66EFE0EF420F76E0900F55000016E
:106BD8007A5D0900F55000017B59D8A033D001D067
:106BE80031D000017F2BE1D72DD0010E00017F6F3E
:106BF800040E00017F19D8B425D001D023D000019C
:106C08007F51020D3B0EF324F66EFE0EF420F76E54
:106C18000900F55000017A5D0900F55000017B5923
:106C2800D8A010D001D00ED000017F2BE1D70AD018
:106C380000017C51800B000AD8B4B4D7800AD8B4BC
:106C4800D4D700D000017D5100017E11D8B40CD0FA
:106C58007CC06EF0030E00016E17D8B405D0000199
:106C68007D07D8A07E0700D0800E00017FBF7F0E71
:106C780000016E6F00017D5100017F5D00017E51B2
:106C8800800A00016E59D8B00BD000017F51000175
:106C98007D5F000E00017FBFFF0E00017E5B06D006
:106CA800000E00017E6F000E7D6F00D000017CA5F4
:106CB80020D07CC06EF0030E00016E17D8B404D04B
:106CC8002D0EEEEC75F000D000017D5100017E1113
:106CD800D8B42FD0300EEEEC75F000017D07D8A0A7
:106CE8007E0700017D5100017E11D8B422D0F2D771
:106CF80020D000017D5100017E11D8B40FD0200EA4
:106D0800EEEC75F000017D07D8A07E0700017D51EB
:106D180000017E11D8B402D0F2D700D07CC06EF04A
:106D2800030E00016E17D8B404D02D0EEEEC75F0EA
:106D380000D07FC077F05DD04DD000017751020DB3
:106D4800310EF324F66EFE0EF420F76E0900F5CF2F
:106D580062F00A00F5CF63F07AC060F07BC061F0A2
:106D680085EC6CF060C067F061C068F0000E00014F
:106D78006A6F0A0E696F89EC6FF000016751300F76
:106D880000017F6F31D07AC060F07BC061F00001F4
:106D98007751020D3B0EF324F66EFE0EF420F76ECB
:106DA8000900F5CF62F00A00F5CF63F085EC6CF0CE
:106DB800000160510F0B0001726F00017251010D4B
:106DC800470EF324F66EFF0EF420F76E0800F5CF99
:106DD8007FF00AD000017C51800B000AD8B4ADD7EF
:106DE800800AD8B4D0D700D000017F51EEEC75F0FE
:106DF80000D00001770700017729D8B402D0EAD77C
:106E080000D06CC0F6FF6DC0F7FF00016C4B6D2B16
:106E18000800F5CF7FF000017F51D8B41200A5D546
:106E2800120012000101046F0101045101019C25A7
:106E380001019C6F000E01019D2101019D6F000E53
:106E48000101056F180E0101056501D072D001011D
:106E58000551010D000EF324D96E030EF420DA6EED
:106E6800DF50D8A463D001010551020D000EF324B0
:106E7800D96E020EF420DA6E010104510101026F8D
:106E8800036B010E01010227000E0323DE500101EE
:106E9800025DDE5001010359D8B02DD00101055122
:106EA800020D000EF324D96E020EF420DA6EDECF46
:106EB80000F1DDCF01F1010104510101026F036B03
:106EC8000101021F031F024B032B010100510101A5
:106ED8000227010101510101032301010551020D9E
:106EE800000EF324D96E020EF420DA6E02C1DEFF22
:106EF80003C1DDFF1BD001010551020D000EF32473
:106F0800D96E020EF420DA6EDE50DE10D8B40ED040
:106F180001010551020D000EF324D96E020EF42072
:106F2800DA6E010EDE6E000EDD6E00D00101052B5B
:106F380089D7E80E01019C5D030E01019D59D8A077
:106F48001200180E01019C2501019C6FFC0E010125
:106F58009D2101019D6F4D2A000E0101066F180E3B
:106F68000101066501D063D001010651010D000E33
:106F7800F324D96E030EF420DA6EDE04D8A454D0BC
:106F880001010651020D000EF324D96E020EF42001
:106F9800DA6E010EDB5004E1020EDE5CD8A029D0C7
:106FA800FF0E0101006FFF0E0101016F0101065183
:106FB800020D000EF324D96E020EF420DA6EDECF35
:106FC80002F1DDCF03F101010051010102270101A6
:106FD80001510101032301010651020D000EF324A2
:106FE800D96E020EF420DA6E02C1DEFF03C1DDFFA6
:106FF8001BD001010651020D000EF324D96E020EBA
:10700800F420DA6EDE50DE10D8B40ED0010106513D
:10701800020D000EF324D96E020EF420DA6E010E72
:10702800DE6E000EDD6E00D00101062B98D73B0EF8
:107038004D6412004D50C40F4D6E492A000E0101D7
:10704800076F180E0101076501D064D001010751CF
:10705800010D000EF324D96E030EF420DA6E020E31
:10706800DE18D8A454D001010751020D000EF324F4
:10707800D96E020EF420DA6E010EDB5004E1020E26
:10708800DE5CD8A029D0FF0E0101006FFF0E0101C0
:10709800016F01010751020D000EF324D96E020E93
:1070A800F420DA6EDECF02F1DDCF03F101010051E9
:1070B80001010227010101510101032301010751C7
:1070C800020D000EF324D96E020EF420DA6E02C10E
:1070D800DEFF03C1DDFF1BD001010751020D000EC9
:1070E800F324D96E020EF420DA6EDE50DE10D8B426
:1070F8000ED001010751020D000EF324D96E020EC5
:10710800F420DA6E010EDE6E000EDD6E00D0010195
:10711800072B97D73B0E496412004950C40F496E9C
:10712800000E0101086F180E0101086502D0120057
:10713800120001010851010D000EF324D96E030E4F
:10714800F420DA6E030EDE18D8A454D001010851D9
:10715800020D000EF324D96E020EF420DA6E010E31
:10716800DB5004E1020EDE5CD8A029D0FF0E01013D
:10717800006FFF0E0101016F01010851020D000EA1
:10718800F324D96E020EF420DA6EDECF02F1DDCFE1
:1071980003F101010051010102270101015101011F
:1071A800032301010851020D000EF324D96E020ECB
:1071B800F420DA6E02C1DEFF03C1DDFF1BD001013E
:1071C8000851020D000EF324D96E020EF420DA6E77
:1071D800DE50DE10D8B40ED001010851020D000EA9
:1071E800F324D96E020EF420DA6E010EDE6E000E64
:1071F800DD6E00D00101082B180E0101086599D732
:10720800120012001200010120EE01F02F51D926C0
:107218003051DA222FC1E1FF30C1E2FFDE50E6181B
:10722800D8A41200010120EE02F02F51D9263051C6
:10723800DA22010110EE01F02F51E1263051E2224D
:10724800DE50E618D8A41200010120EE02F02F51FA
:10725800D9263051DA22DE28D8B412002FC1D9FF3E
:1072680030C1DAFFDF500101336F010133A14CD087
:10727800010120EE04F02F51D9263051DA22010104
:1072880010EE03F02F51E1263051E222DE50E618CD
:10729800D8A43AD0010120EE05F02F51D92630515B
:1072A800DA22010110EE04F02F51E1263051E222DA
:1072B800DE50E618D8A428D0010120EE05F02F51A1
:1072C800D9263051DA22DE28D8B41ED085EC77F0E2
:1072D800030E0101016FFD0E006F010120EE03F0A6
:1072E8002F51D9263051DA22DF500101026FC3EC49
:1072F80071F0010120EE03F02F51D9263051DA2226
:10730800DF509BEC75F000D0010133A342D001019E
:1073180020EE07F02F51D9263051DA22010110EE64
:1073280006F02F51E1263051E222DE50E618D8A4AB
:1073380030D0010120EE08F02F51D9263051DA2241
:10734800010110EE07F02F51E1263051E222DE5004
:10735800E618D8A41ED085EC77F0030E0101016F62
:10736800FE0E006F010120EE06F02F51D926305194
:10737800DA22DF500101026FC3EC71F0010120EE47
:1073880006F02F51D9263051DA22DF502DEC71F05A
:1073980000D0010133A54CD0010120EE0AF02F5195
:1073A800D9263051DA22010110EE09F02F51E126D9
:1073B8003051E222DE50E618D8A43AD0010120EE7E
:1073C8000BF02F51D9263051DA22010110EE0AF0C4
:1073D8002F51E1263051E222DE50E618D8A428D0F9
:1073E800010120EE0BF02F51D9263051DA22DE2888
:1073F800D8B41ED085EC77F0030E0101016FFC0EA6
:10740800006F010120EE09F02F51D9263051DA2200
:10741800DF500101026FC3EC71F0010120EE09F0A9
:107428002F51D9263051DA22DF5088EC76F000D07F
:10743800010133A71200010120EE0DF02F51D926CA
:107448003051DA22010110EE0CF02F51E1263051B3
:10745800E222DE50E618D8A41200010120EE0EF058
:107468002F51D9263051DA22010110EE0DF02F519B
:10747800E1263051E222DE50E618D8A412000101BC
:1074880020EE0EF02F51D9263051DA22DE28D8B45A
:10749800120085EC77F0030E0101016FEF0E006F0B
:1074A800010120EE0CF02F51D9263051DA22DF509D
:1074B8000101026FC3EC71F0010120EE0CF02F51B5
:1074C800D9263051DA22DF5053EC77F0120012003F
:1074D800400E0101286F000E0101296F3E0E0101C7
:1074E800296501D0D7D001012951060DBD0EF3241D
:1074F8000101066F0B0EF4200101076F21C108F18D
:1075080022C109F1040E01010A6F88EC70F000092C
:10751800D8B4A0D001012951060D040EF326000E9F
:10752800F422BD0EF324D96E0B0EF420DA6EDF5070
:107538000F0B0F0AD8A440D0010124510101D8B47F
:107548003BD04B2A01012951060D040EF326000EEB
:10755800F422BD0EF324D96E0B0EF420DA6EDF9000
:10756800DF92DF94DF9623C100F101012951C8ECB5
:1075780061F0020E01012419D8B41AD0030E0101DA
:10758800086F0101235141EC45F00101266F21C12B
:1075980015F122C116F129C117F1010E0101186F69
:1075A80026C119F1000E01011A6FA8EC1EF000D0D7
:1075B8000101295112006BD001012951060D040E59
:1075C800F326000EF422BD0EF324D96E0B0EF42020
:1075D800DA6EDF500F0B0F0AD8B439D001012951E8
:1075E800060D040EF326000EF422BD0EF324D96E08
:1075F8000B0EF420DA6EDF90DF92DF94DF9623C162
:1076080000F101012951C8EC61F0020E01012419B1
:10761800D8B4CED7030E0101086F0101235141EC04
:1076280045F00101266F21C115F122C116F129C1CA
:1076380017F1010E0101186F26C119F1000E0101A1
:107648001A6FA8EC1EF0B4D7B3D7120020D0FF0EE3
:1076580012001DD001012951060DBD0EF3240101B0
:10766800066F0B0EF4200101076FDB0E0101086F96
:10767800010E0101096F040E01010A6F88EC70F018
:107688000009D8B404D029C128F104D000D00101E0
:10769800292B24D73E0E0101286521D0000E0101B7
:1076A800276F3E0E0101276501D019D0010127512E
:1076B800060D040EF326000EF422BD0EF324D96E37
:1076C8000B0EF420DA6EDF500F0B0F0AD8A403D08C
:1076D80027C128F104D00101272BE3D700D03F0EA2
:1076E8000101286154D0010124510101D8B44FD0BF
:1076F80021C106F122C107F101012851060DBD0E75
:10770800F3240101086F0B0EF4200101096F040E28
:1077180001010A6F53EC71F001012851060D040EA6
:10772800F326000EF422BD0EF324D96E0B0EF420BE
:10773800DA6EDF90DF92DF94DF9623C100F101015A
:107748002851C8EC61F04B2A020E01012419D8B463
:107758001AD0030E0101086F0101235141EC45F0D5
:107768000101266F21C115F122C116F128C117F1B7
:10777800010E0101186F26C119F1000E01011A6FDF
:10778800A8EC1EF000D001012851120000D0FF0E15
:1077980012001200030E0101016F006946EC76F039
:1077A8000101156F01011505D8A440D0000E010193
:1077B8001A6F000E196F01011ABF0AD0F00E0101ED
:1077C800195D030E01011A59D8B011D001D00FD09C
:1077D80085EC77F019C100F11AC101F1FF0E010122
:1077E800026FC3EC71F00101194B1A2BE4D7030E99
:1077F80001011A6FF40E196F01011ABF07D0040EA8
:1078080001011A5DD8B012D001D010D085EC77F004
:1078180019C100F11AC101F1FF0E0101026FC3EC99
:1078280071F00101194B1A2BE7D700D0010E0101A5
:10783800156504D001011529D8A40CD085EC77F082
:10784800030E0101016F0069020E0101026FC3EC12
:1078580071F000D0000E0101166F030E01011665CC
:1078680001D018D001011651010DF80EF324D96E7C
:10787800010EF420DA6EE80E010116250101006FF1
:107888000101016B030E012346EC76F0DF6E010166
:10789800162BE3D70101F829D8A419D00101F92939
:1078A800D8A415D00101FA29D8A411D00101FB29C7
:1078B800D8A40DD0000E0101F86F000E0101F96F78
:1078C800000E0101FA6F020E0101FB6F00D0030EDA
:1078D8000101016FEF0E006F46EC76F00101146FA5
:1078E80001011429D8A404D0080E0101146F00D096
:1078F8000101145153EC77F00201EC29D8A451D0BE
:107908000201ED29D8A44DD00201EE29D8A449D00E
:107918000201EF29D8A445D0899E4B0E55EC75F08D
:10792800000E55EC75F0000E55EC75F0000E55EC98
:1079380075F0000E55EC75F0000E0101176F2BD095
:107948002ED06EEC76F0010100510101136F030E89
:10795800010117651ED0FC0E0101076FFF0E010122
:10796800086F010117510101096F0A6B01010751E5
:10797800010109270101085101010A23EC0E010147
:107988000925D96E020E01010A21DA6E13C1DFFF43
:1079980000D00101172B070E01011765D2D7898E78
:1079A80000D0000E0101186F070E0101186501D003
:1079B80018D001011851010D0B0EF324D96E010ED8
:1079C800F420DA6EF40E010118250101006F01019F
:1079D800016B030E012346EC76F0DF6E0101182BD4
:1079E800E3D70B0E0101006F010E0101016F75EC69
:1079F80069F0030E0101016FFD0E006F46EC76F091
:107A0800FF0AD8B40BD001D009D0030E0101016FD1
:107A1800FD0E006F46EC76F09BEC75F0030E01014D
:107A2800016FFE0E006F46EC76F0FF0AD8A403D073
:107A38000001C8691200030E0101016FFE0E006FFC
:107A480046EC76F00001C86F12001200000E01012A
:107A5800126F000E116F010112BF0AD001011251FD
:107A680006E13F0E0101115DD8B082D001D080D06F
:107A7800DB0E0101066F010E0101076F11C100F154
:107A880012C101F1000E0101036F060E026F37ECFF
:107A980073F0BD0E010100250101086F0B0E0101F5
:107AA80001210101096F040E01010A6F53EC71F005
:107AB80011C100F112C101F1000E0101036F060EA0
:107AC800026F37EC73F0040E01010027000E01016C
:107AD8000123BD0E01010025D96E0B0E0101012104
:107AE800DA6EDF80DF82DF84DF8611C100F112C128
:107AF80001F1000E0101036F060E026F37EC73F0FF
:107B0800040E01010027000E01010123BD0E010131
:107B18000025D96E0B0E01010121DA6EDF88DF8A9C
:107B2800DF8CDF8E11C100F112C101F1000E0101DD
:107B3800036F060E026F37EC73F0050E0101002784
:107B4800000E01010123BD0E01010025D96E0B0EA7
:107B580001010121DA6EFF0EDF6E0101114B122BBC
:107B6800010112BF85D70101125102E17AD700D075
:107B7800000E02016D6F000E0101126F000E116FF1
:107B8800010112BF0AD00101125166E1FA0E01018A
:107B9800115DD8B061D001D05FD011C10FF112C111
:107BA80010F1D89001010F371037010E01010F278E
:107BB800000E1023C90E01010F25D96E090E01010F
:107BC8001021DA6EDF80DF82DF84DF86DF88DB0E5C
:107BD8000101076F010E0101086F01011151E6EC67
:107BE8006AF011C10FF112C110F1D89001010F37DD
:107BF8001037010E01010F27000E1023C90E0101D5
:107C08000F25D96E090E01011021DA6EDF8ADF8C8B
:107C1800DF8ED89001011135D96E01011235DA6E67
:107C2800C90ED926090EDA22DF80DF82DF84DF86DB
:107C3800DF88DF8AD89001011135D96E010112352C
:107C4800DA6EC90ED926090EDA223F0EDF160101B7
:107C5800114B122B95D700D0DB0E0101066F010ED8
:107C68000101076FF00E0101086F020E0101096F93
:107C7800040E01010A6F53EC71F00101EF69000E67
:107C88000201766F030E0201776F000E02019E6FEC
:107C9800000E0201A06F020E0201A16F000E020188
:107CA800A26F010E0101EA6F000E0101D96F000EEB
:107CB8000101C76F12000101166F0101EE510101A8
:107CC800D8B42BD0240E01011619D8A422D0010152
:107CD800D12B020E0101D119D8A416D1000E010131
:107CE800EE6F010E0101B96F000E0101B86F000EB1
:107CF8000101BA6F000E0101BB6F010E486E000E44
:107D08000001C26F000E0101D16F000E0101CA6FA0
:107D1800FBD0000E0101D16FF7D04850D8B4DED0A7
:107D28000101B9510101D8B407D016C1CAF0000E3B
:107D38000101B96F010E06D00101B8510101D8B493
:107D480004D0000E0101B86F5DD00001C2510101DD
:107D5800106F116BFE0E0101126FFF0E0101136F00
:107D68000001CA510101146F156B01011251010183
:107D780014270101135101011523010110510101BB
:107D880014190FE10101115101011519D8A409D0E5
:107D98000D0E01011619D8A435D0010E0101BA6FD4
:107DA80031D00001C2510101106F116BFF0E0101AA
:107DB800126FFF0E0101136F0001CA510101146F08
:107DC800156B010112510101142701011351010121
:107DD800152301011051010114190FE1010111517D
:107DE80001011519D8A409D00A0E01011619D8A441
:107DF80009D0010E0101BB6F05D001011651010127
:107E0800CA1B00D00001C251010DC00EF324D96E67
:107E1800050EF420DA6E16C1DFFF0001C22B000147
:107E2800C2510001CA19D8A43CD0000E486E0EC138
:107E3800D9FF0FC1DAFFC2C0DFFFC00E0101066F14
:107E4800050E0101076F0CC108F10DC109F1C2C08F
:107E58000AF153EC71F0010E0101EE6F000E010101
:107E6800D16F0101CA510101D8B405D0000E01013A
:107E7800CA6F000E12000101BA510101D8B40BD02B
:107E88000101BB510101D8B406D0000E0101CA6F2F
:107E9800010E120039D0000E0101CA6F1CD0120069
:107EA80033D03E0E0001C2652FD0010E0101EE6FE6
:107EB800000E0101D16F000E0001C26F000E01011A
:107EC800B96F000E0101B86F000E0101BA6F000E04
:107ED8000101BB6FE0D7000E120016D0010E0101A0
:107EE800EE6F000E0101D16F000E0101CA6F000E86
:107EF8000101B96F000E0101BA6F000E0101BB6FDD
:107F0800000E0101B86F00D0000E120012001E0E04
:107F180001014E19D8A451D001014F05D8A4EED0C3
:107F2800350E0101126FFF0E0101136F4EEC32F096
:107F3800020E010149250101186F000E01014A21B5
:107F48000101196F000E01011A6F17EC5AF0020EA9
:107F5800010149250101066F000E01014A210101B5
:107F6800076FA30E0101086F020E0101096F040ECD
:107F780001010A6F53EC71F0030E0101276FE80E3F
:107F8800266F000E0101286F040E73EC6BF0000ED3
:107F9800E5EC74F00009D8B40CD0130E0101276F7A
:107FA800880E266F000E0101286F000E73EC6BF02F
:107FB80000D0010E0001B06FA1D01F0E01014E19B3
:107FC800D8A48DD0410E01014F19D8A497D0010E25
:107FD8000001D26F49C100F14AC101F1020E01014D
:107FE800026F580E0101036F010E0101046F000EAC
:107FF8000101056F01015051FE0F0101066F0CECE4
:108008006AF0000E0101796F16D0000E0101016FB0
:10801800020E006F01017951010D580EF324D96E3B
:10802800010EF420DA6EDF500101026FFDEC58F00A
:108038000101792B00D0FE0E0101516FFF0E0101E5
:10804800526F010150510101536F546B010151519D
:1080580001015327010152510101542301017951B2
:108068000101556F566B010153510101555D010125
:108078005651800A0101576F01015451800A0101CC
:108088005759D8A0C2D7400E01015819D8A436D0E4
:10809800550E01015919D8A431D0500E01015A19B1
:1080A800D8A42CD0440E01015B19D8A427D0410EC6
:1080B80001015C19D8A422D0540E01015D19D8A47D
:1080C8001DD0450E01015E19D8A418D0400E01013B
:1080D8005F19D8A413D0040E0001D26F0FD001018C
:1080E8004E05D8A40BD0890E0101126FFF0E0101B5
:1080F800136F4EEC32F0010E120000D04CC1D9FFC4
:108108004DC1DAFFDF50D8A42AD0010120EE01F0DA
:108118004C51D9264D51DA22DF50D8A420D0010184
:1081280020EE02F04C51D9264D51DA22DF50D8A466
:1081380016D0010120EE03F04C51D9264D51DA2218
:10814800100EDF600CD0010E0101276F2C0E266F78
:10815800010E0101286F130E73EC6BF000D0000EB6
:1081680012001200000E0101126F000E116F0101C2
:1081780012BF0AD00101125106E1FA0E0101115D88
:10818800D8B0E8D001D0E6D00BC104F10CC105F19C
:108198000101115137EC5DF00009D8B4D0D011C1FC
:1081A8000FF112C110F1D89001010F371037010EED
:1081B80001010F27000E1023C90E01010F25D96EEA
:1081C800090E01011021DA6EDF501F0B1F0AD8B407
:1081D800A6D0D89001011135D96E01011235DA6E99
:1081E800C90ED926090EDA22DF503F0B01010F6FA5
:1081F80001010F51060DBD0EF324D96E0B0EF420AC
:10820800DA6E0DC1E1FF0EC1E2FFDFCFE7FFD890C4
:1082180001011135D96E01011235DA6EC90ED92660
:10822800090EDA22DF503F0B01010F6F01010F51D8
:10823800060D010EF326000EF422BD0EF324D96EAE
:108248000B0EF420DA6E010110EE01F00D51E1265B
:108258000E51E222DFCFE7FFD89001011135D96E28
:1082680001011235DA6EC90ED926090EDA22DF505D
:108278003F0B01010F6F01010F51060D020EF3268E
:10828800000EF422BD0EF324D96E0B0EF420DA6E24
:10829800010110EE02F00D51E1260E51E222DFCF6E
:1082A800E7FFD89001011135D96E01011235DA6E58
:1082B800C90ED926090EDA22DF503F0B01010F6FD4
:1082C80001010F51060D030EF326000EF422BD0E18
:1082D800F324D96E0B0EF420DA6E010110EE03F0D0
:1082E8000D51E1260E51E222DFCFE7FF11C10FF158
:1082F80012C110F1D89001010F371037010E01019A
:108308000F27000E1023C90E01010F25D96E090E83
:1083180001011021DA6EDF501F0B120010D0D89027
:1083280001011135D96E01011235DA6EC90ED9264F
:10833800090EDA223F0EDF161F0E120000D00101CF
:10834800114B122B010112BF1FD70101125102E17B
:1083580014D700D01F0E12001200000E01010F6F7B
:10836800000E0E6F01010FBF0AD001010F5106E187
:108378003F0E01010E5DD8B0D4D001D0D2D006C1D5
:10838800D9FF07C1DAFF0EC100F10FC101F1000EDC
:108398000101036F060E026F37EC73F0BD0E010189
:1083A8000025E16E0B0E01010121E26EDE50E61898
:1083B800D8A4ACD0010120EE01F00651D92607510E
:1083C800DA220EC100F10FC101F1000E0101036FA5
:1083D800060E026F37EC73F0010E01010027000E44
:1083E80001010123BD0E01010025E16E0B0E010103
:1083F8000121E26EDE50E618D8A488D0010120EEF3
:1084080002F00651D9260751DA220EC100F10FC138
:1084180001F1000E0101036F060E026F37EC73F0D5
:10842800020E01010027000E01010123BD0E01010A
:108438000025E16E0B0E01010121E26EDE50E61807
:10844800D8A464D0010120EE03F00651D9260751C3
:10845800DA220EC100F10FC101F1000E0101036F14
:10846800060E026F37EC73F0030E01010027000EB1
:1084780001010123BD0E01010025E16E0B0E010172
:108488000121E26EDE50E618D8A440D00EC100F1FA
:108498000FC101F1000E0101036F060E026F37ECE8
:1084A80073F0050E01010027000E01010123BD0E26
:1084B80001010025D96E0B0E01010121DA6E08C1F8
:1084C800E1FF09C1E2FFDFCFE7FF0EC100F10FC1F5
:1084D80001F1000E0101036F060E026F37EC73F015
:1084E800040E01010027000E01010123BD0E010148
:1084F8000025D96E0B0E01010121DA6EDF380F0B52
:108508000AC1D9FF0BC1DAFFDF6E120001010E4B61
:108518000F2B01010FBF33D701010F5102E128D7FB
:1085280000D008C1D9FF09C1DAFFFF0EDF6E0AC10A
:10853800D9FF0BC1DAFF0F0EDF6E120012003A509E
:10854800D8B4D9D00101C451D8B410D0000E01015B
:10855800C46F000E0001CE6F000E0001CF6F000E39
:108568003A6E000E0001CC6F000E12000101BF51DF
:10857800D8A40DD0000E0001CE6F000E0001CF6F01
:10858800000E3A6E000E0001CC6F000E12000001C2
:10859800CF51FD0F10C1D9FF11C1DAFFDF6E000EF8
:1085A8000101186F400E0001CF650DD0000E0001CB
:1085B800CE6F000E0001CF6F000E3A6E000E000164
:1085C800CC6F000E1200020E0101196F11D00101CB
:1085D8001951010D800EF324D96E050EF420DA6EC0
:1085E800DF50010118190101186F0101192B00D082
:1085F8000001CF510101195DD8A0E9D70101185137
:108608000101D8B40DD0000E0001CE6F000E00019C
:10861800CF6F000E3A6E000E0001CC6F000E1200F4
:1086280010C1D9FF11C1DAFF3D0EDF640DD0000E75
:108638000001CE6F000E0001CF6F000E3A6E000EE3
:108648000001CC6F000E120010C1D9FF11C1DAFF72
:10865800DF500101126F136BFD0E0101146FFF0E45
:108668000101156F0001CF510101166F176B010150
:1086780014510101162701011551010117230101A8
:1086880012510101161906E10101135101011719CF
:10869800D8B40DD0000E0001CE6F000E0001CF6FD0
:1086A800000E3A6E000E0001CC6F000E1200800E14
:1086B8000101006F050E0101016F020E0101026F39
:1086C8000EC103F10FC104F1000E0101056F10C1C5
:1086D800D9FF11C1DAFFDF500101066F0CEC6AF017
:1086E800000E0001CE6F000E0001CF6F000E3A6E33
:1086F800010E12000FD03A50D8B40CD0000E000171
:10870800CE6F000E0001CF6F000E3A6E000E000112
:10871800CC6F00D0000E1200120002016D51D8A4D7
:10872800D2D002019F51D8A4CED06E0E0101066F9F
:10873800020E0101076FF00E0101086F020E010120
:10874800096F040E01010A6F53EC71F076C2EFF164
:10875800060E02016D6F0EC106F10FC107F1720E10
:108768000101086F020E0101096F040E01010A6F71
:1087780053EC71F0DF0E0101066F010E0101076F66
:108788006E0E0101086F020E0101096F040E01014E
:108798000A6F53EC71F0D7EC76F00201766F000E99
:1087A8000201A26F010115510101D8B402D0040ED3
:1087B80001D0030E0201776F00D0270E010112616C
:1087C80056D00101B751D8B431D00101145101017B
:1087D800D8B42CD0010E010110250101006F000E44
:1087E800010111210101016FFF0E01011225010193
:1087F800026F0101036BFF0E0323ADEC5BF0010177
:10880800166F050E0101176F0101D8901637010187
:10881800172FFAD7010116510201786F10C1D9FF3D
:1088280011C1DAFFDF500201782708D010C1D9FF43
:1088380011C1DAFFDF500201786F00D010C100F1DA
:1088480011C101F1010E0101026F780E0101036FE0
:10885800020E0101046F010E0101056F01011205ED
:108868000101066F0CEC6AF012C19EF200D013C130
:108878009FF2010113510101D8B403D0000E020187
:108888006D6F0001BD51D8A404D0000E0101CD6F59
:1088980018D0720E0101066F020E0101076FE80E73
:1088A8000101086F020E0101096F040E01010A6F30
:1088B80088EC70F00009D8B404D0020E02016D6F84
:1088C80000D0010E1200000E120012000101146FF8
:1088D800000E0101166F000E176F000E186F000EC4
:1088E800196F040E01010F19D8A40BD00DC116F190
:1088F8000EC117F10101000E17BFFF0E186F196F97
:1089080054D001010F510101D8A42FD00DC110F18D
:108918000EC111F1000E010111BFFF0E126F136F8E
:108928000F0ED89001011037113712371337E82E80
:10893800F8D710C100F111C101F112C102F113C140
:1089480003F1E80E0101046F030E056F000E066FB8
:10895800000E076F92EC62F000C116F101C117F129
:1089680002C118F103C119F120D001010F05D8A4E3
:108978001CD00DC110F10EC111F1000E010111BF83
:10898800FF0E126F136F0F0ED890010110371137B9
:1089980012371337E82EF8D710C116F111C117F1A5
:1089A80012C118F113C119F100D016C110F117C185
:1089B80011F118C112F119C113F10101101F111F92
:1089C800121F131F102B000E112312231323FF0E47
:1089D800010110250101166FFF0E0101112101018E
:1089E800176F000E010112210101186F000E01011D
:1089F80013210101196F01011405D8A40BD017C167
:108A0800CFFF16C1CEFF8C0ECD6E9F809E909D80AD
:108A1800CD8000D0030E01011419D8A40AD017C1C3
:108A2800B3FF16C1B2FF8C0EB16EA292A192A082C2
:108A3800B1804250D8A41200010E426E000E01010E
:108A4800156F180E0101156502D012001200010100
:108A58001551020D000EF324D96E020EF420DA6EC1
:108A6800000EDE6E000EDD6E0101152B180E0101E1
:108A78001565EDD71200120012000101116F030EE7
:108A880001010819D8A460D03C0E0101116102D07F
:108A9800000E12D0C30E010111250101006F010162
:108AA800016BFF0E0123000E0101036F050E026F1B
:108AB80060EC61F0010100510101126F00D0010169
:108AC80012510101096F0A6BFF0E01010B6FFF0EB6
:108AD80001010C6F08C10DF1010E01010E6F000EAE
:108AE80001010F6F01010D2B04D0D89001010E3741
:108AF8000F3701010D2FF9D701010B5101010E2785
:108B080001010C5101010F230101095101010E5D01
:108B180001010F51800A0101106F01010A51800AF9
:108B280001011059D8B071D008C109F1010E010135
:108B38000A6F0101092B03D00101D8900A370101FE
:108B4800092FFAD75DD061D0040E01010819D8A405
:108B58005CD0DC0E010111250101006F0101016BE0
:108B6800FF0E0123000E0101036F050E026F60EC7A
:108B780061F0010100510101126F0101125101015F
:108B8800096F0A6BFF0E01010B6FFF0E01010C6FDD
:108B980008C10DF1010E01010E6F000E01010F6FEA
:108BA80001010D2B04D0D89001010E370F370101B8
:108BB8000D2FF9D701010B5101010E2701010C51AD
:108BC80001010F230101095101010E5D01010F513E
:108BD800800A0101106F01010A51800A0101105930
:108BE800D8B013D008C109F1010E01010A6F0101C3
:108BF800092B03D00101D8900A370101092FFAD7B0
:108C080001010A050101126F00D001011251120081
:108C180012000101066F010104510101D8B402D00C
:108C2800200E01D0600E0101056F9AD00101055197
:108C380002090201AB6F630E0201B26F0101065116
:108C48001B0F55D00101055102090201AB6F640EDB
:108C58000201B26F01010651040F49D0210E010132
:108C680006610BD0010105510A090201AB6F650EBF
:108C78000201B26F06C1B3F281D0010105510A09A0
:108C88000201AB6F640E0201B26F01010651190FA8
:108C98002ED074D0010105510A090201AB6F650E8F
:108CA8000201B26F01010651210F21D00C0E010102
:108CB80006610DD00101055102090201AB6F630E77
:108CC8000201B26F01010651040DF350B9D70B0E22
:108CD800010106650FD0190E010106610BD00101D3
:108CE8000551020912D0640E0201B26F11D00201BF
:108CF800B36F44D0180E0101066510D01F0E010194
:108D080006610CD0010105510A090201AB6FEBD7CE
:108D180001010645E846FC0BD00FE9D71E0E0101FC
:108D2800066509D0270E0101066105D00CD0650E35
:108D38000201B26F0ED0260E010106651FD0320E59
:108D4800010106611BD0010105510A090201AB6F3F
:108D5800EED701010645E846FC0B850FC8D70ED0B3
:108D68005450010AD8B462D7030AD8B46BD7010AA1
:108D7800D8B474D7070AD8B48DD798D7ABC202F144
:108D8800000E8AEC73F0B2C202F10E0E8AEC73F098
:108D9800B3C202F1100E8AEC73F0120002016D5199
:108DA800D8A4BBD002019F51D8A4B7D06E0E010140
:108DB800066F020E0101076FF00E0101086F020E27
:108DC8000101096F040E01010A6F53EC71F076C2BC
:108DD800EFF1060E02016D6F000E0201A06F020E88
:108DE8000201A16F0EC106F10FC107F1720E010158
:108DF800086F020E0101096F040E01010A6F53EC9E
:108E080071F0DF0E0101066F010E0101076F6E0E92
:108E18000101086F020E0101096F040E01010A6FBA
:108E280053EC71F0D7EC76F00201766F000E020178
:108E38009F6F1D0E0201786F210E0201796F10C11C
:108E48007AF23F0E02017B6F080E0101116F0101DA
:108E5800105101011103F3CF12F1000E0101136F3C
:108E680046D03F0E0101126121D001011251060DB9
:108E7800BD0EF3240101006F0B0EF4200101016FF8
:108E8800000E0101026F780E0101036F020E01014D
:108E9800046F01011351040DF350060F0101056F12
:108EA800040E0101066F0CEC6AF01CD0DB0E010108
:108EB800006F010E0101016F000E0101026F780EB3
:108EC8000101036F020E0101046F01011351040D2A
:108ED800F350060F0101056F040E0101066F0CEC3B
:108EE8006AF000D00101122B0101132B00D00101FF
:108EF80011510101135DD8A0B4D7030E0201776F99
:108F0800260E02019E6F0001BD51D8A404D0000EA8
:108F18000101CD6F00D0010E1200000E12001200E8
:108F280004004A50D8A4120001D012001AC14AF015
:108F3800000E01011B6FAFD0000E0001C66F0001CB
:108F4800CC51D8A49CD03E0E0101196198D0010ED5
:108F58000001C76F0001CC51D8B404D0000E000145
:108F6800C76F94D0200E21EC56F00201B8510109C8
:108F78000101026F1A0E8AEC73F0800E21EC56F094
:108F880001011951020FCDEC76F00001B851CDEC7A
:108F980076F0000E01011F6F64D001011F51010D11
:108FA800F35001011725D96EF45001011821DA6E2A
:108FB800DF5001011C6F01011F05D8B410D0020E4B
:108FC80001011F19D8B40BD00001C65101011C19A9
:108FD8000001C66F01011C51CDEC76F03FD00101B4
:108FE8001F05D8A42BD0040E01010C6F010EA1ECB3
:108FF8005AF00001A35101010C2501011D6F000168
:10900800A45101010D2101011E6F01011E51CDEC7A
:1090180076F001011E510001C6190001C66F010159
:109028001D510201645D01011E5102016559D8B04C
:1090380015D01DC164F21EC165F210D0020E0101E7
:109048001F19D8A40BD001011D51CDEC76F00001F9
:10905800C65101011D190001C66F00D001011F2B67
:1090680000D00101195101011F5DD8A096D7000158
:10907800C651CDEC76F00400010E4E6E09D03D0EBF
:109088000101196501D002D00001CC514A0600D077
:1090980001011B2B00D001011A5101011B5DD8A051
:1090A8004BD71200000E01010B6F3E0E01010B653C
:1090B80002D01200120001010B51060D040EF32616
:1090C800000EF422BD0EF324D96E0B0EF420DA6ED6
:1090D800DF500F0B0F0AD8B49CD0010E0101086FA6
:1090E80001010B51060D040EF326000EF422BD0EED
:1090F800F324D96E0B0EF420DA6EDF500F0B01014A
:10910800096F0101085101010927DF5001010919FF
:10911800F00B01010919DF6E4B500F0DF3CF00F171
:10912800F4CF01F1000E0101036F400E026F60ECF5
:1091380061F0040E01010027000E01010123010165
:109148000B51060D040EF326000EF422BD0EF32477
:10915800D96E0B0EF420DA6EDF500F0B0101086F89
:10916800096B010100510101085D01010951800AE3
:1091780001010A6F01010151800A01010A59D8B0A1
:1091880012D001010B51060D040EF326000EF42235
:10919800BD0EF324D96E0B0EF420DA6EDF500F0BE0
:1091A8000F0AD8A436D001010B51060D040EF32680
:1091B800000EF422BD0EF324D96E0B0EF420DA6EE5
:1091C800DF80DF82DF84DF8601010B51060D050E8B
:1091D800F326000EF422BD0EF324D96E0B0EF420F4
:1091E800DA6EFF0EDF6E01010B51060D040EF32639
:1091F800000EF422BD0EF324D96E0B0EF420DA6EA5
:10920800DF88DF8ADF8CDF8E4B50D8B402D04B0664
:1092180000D001010B2B3E0E01010B654CD712004B
:10922800120001010C6F000E01010E6F0F015A9917
:10923800000E0001CC6F000E0001D66F000E000179
:10924800CE6F000E0001CF6F000E4C6E000E3A6E0E
:10925800200E0001B76F000E0101BF6F000E000164
:10926800C76F000E4E6E000E526E000E4A6E898653
:10927800050E0101076F260EE82EFED7072FFCD733
:1092880000D08996680E0101076FE40EE82EFED71C
:10929800072FFCD700D0000E0101046F01010C510B
:1092A8000DEC46F0000E01010E6F1F0E01010E6558
:1092B80001D015D001010E51010DAB0EF324D96E6A
:1092C800020EF420DA6EDF500101026F01010E5127
:1092D800020DF3508AEC73F001010E2BE6D7030E52
:1092E8000101016FFC0E006F46EC76F001010D6F75
:1092F80001010D29D8A418D085EC77F0030E0101DF
:10930800016FFC0E006F000E0101026FC3EC71F0DB
:10931800000E88EC76F0D80E0101096F09C102F140
:109328003C0E8AEC73F01ED001010D510101D8A446
:109338000CD0000E88EC76F0D80E01010A6F0AC135
:1093480002F13C0E8AEC73F00DD001010D5188EC4E
:1093580076F0DA0E01010B6F0BC102F13C0E8AECBC
:1093680073F000D0F29600F00F015A8900F081CF17
:1093780008F100F0F290F2860CC153F0150E0101CD
:10938800076FC60EE82EFED7072FFCD700D02AECB1
:1093980076F0010E0001D36F000E0001D56F1200A8
:1093A800040ED9EC72F00009D8B41FD0A30E010145
:1093B800186F020E0101196FC2EC69F00DEC76F01E
:1093C8000101A42B0101D5510101D8B407D0000E29
:1093D8000101D56F000E0101A46F00D00A0E010132
:1093E800A419D8A402D0FF0000D0020E0001D2199F
:1093F800D8B405D0040E0001D219D8A419D0040E8F
:109408000001D219D8A405D00301BD69010E0001DD
:10941800D16F000E0001D26FA30E0101186F020E6A
:109428000101196F000E01011A6F17EC5AF000D0F4
:10943800030E0001D219D8A40CD0000E0001D26F7F
:10944800A30E0101186F020E0101196FC2EC69F039
:1094580000D002013DBF0CD002013D5104E10201E0
:109468003C05D8A005D002013C07D8A03D0700D094
:109478000001B751D8A402D0110E18D002013C51F6
:1094880002013D11D8A418D09EEC71F00009D8B49F
:1094980007D0010E02013D6F2C0E3C6F120E06D054
:1094A800000E02013D6F1E0E3C6F100E0001BA6FD8
:1094B800010E0101BD6F00D00101BE510101D8A408
:1094C8000DD0BDEC22F093B609D00101BD510101C8
:1094D800D8B402D08A8602D08A9600D0130ED9EC6E
:1094E80072F00009D8B404D0000E0001B06F00D0AB
:1094F800130EE5EC74F00009D8B40CD0000E01018D
:10950800276F3C0E266F010E0101286F130E73ECB6
:109518006BF000D0010E0101A56F12001200156E4C
:10952800000E176E000E186E000E196E000E1A6EE1
:10953800040E1018D8A40AD00EC017F00FC018F0E7
:10954800000E18BEFF0E196E1A6E4CD01050D8A41B
:109558002CD00EC011F00FC012F0000E12BEFF0E7C
:10956800136E146E0F0ED890113612361336143649
:10957800E82EF9D711C001F012C002F013C003F0B1
:1095880014C004F0E80E056E030E066E000E076E9A
:10959800000E086EB9EC6BF001C017F002C018F0AD
:1095A80003C019F004C01AF01DD01004D8A41AD0B2
:1095B8000EC011F00FC012F0000E12BEFF0E136E97
:1095C800146E0F0ED8901136123613361436E82E54
:1095D800F9D711C017F012C018F013C019F014C051
:1095E8001AF000D017C011F018C012F019C013F00B
:1095F8001AC014F0111E121E131E141E112A000E7A
:10960800122213221422FF0E1124176EFF0E1220AD
:10961800186E000E1320196E000E14201A6E150411
:10962800D8A40BD018C0CFFF17C0CEFF8C0ECD6EBC
:109638009F809E909D80CD8000D0030E1518D8A4E1
:109648000AD018C0B3FF17C0B2FF8C0EB16EA29239
:10965800A192A082B1804250D8A41200010E426E9D
:10966800000E166E180E166402D012001200165064
:10967800020D000EF324D96E020EF420DA6E000EED
:10968800DE6E000EDD6E162A180E1664F0D7120074
:10969800120012001D0E0101426F1AC10BF11BC10D
:1096A8000CF1430E01010D6F010E01010E6FB6ECB6
:1096B80040F00101476F1D0E01011C6F260E0101CC
:1096C8001D6F1AC100F11BC101F1000E0101026FEB
:1096D8001C0E0101036F010E0101046F020E01014E
:1096E800056F040E0101066F0CEC6AF0430E0101D0
:1096F800006F010E0101016F000E0101026F1C0EC7
:109708000101036F010E0101046F060E0101056FCF
:10971800040E0101066F0CEC6AF047C126F11AC16C
:1097280000F11BC101F1000E0101026F1C0E0101C5
:10973800036F010E0101046F0B0E0101056F040E8A
:109748000101066F0CEC6AF0430E0101006F010E77
:109758000101016F000E0101026F1C0E0101036F70
:10976800010E0101046F0F0E0101056F040E0101C6
:10977800066F0CEC6AF047C12FF11AC100F11BC14A
:1097880001F1000E0101026F1C0E0101036F010EB1
:109798000101046F140E0101056F040E0101066F2B
:1097A8000CEC6AF0430E0101006F010E0101016F1C
:1097B800000E0101026F1C0E0101036F010E010171
:1097C800046F180E0101056F040E0101066F0CEC01
:1097D8006AF047C138F118C10EF119C10FF11C0E1A
:1097E8000101106F010E0101116F42C112F1000E4B
:1097F8000101136F010E0101146F000E0101156FB5
:1098080091EC43F0120012001D0E0101266F200E8C
:109818000101276F22C128F19DEC77F00101296F22
:10982800030E0101556F0101225101015503F3CFC8
:1098380054F1000E0101586F000E576F6DD04C0E99
:109848000101146F010E0101156F500E0101166F11
:10985800010E0101176F560E0101186F010E01016B
:10986800196F0101545135EC5EF04C0E0101006F87
:10987800010E0101016F000E0101026F260E0101A8
:10988800036F010E0101046F01015751090DF350D7
:10989800040F0101056F040E0101066F0CEC6AF05C
:1098A800500E0101006F010E0101016F000E010150
:1098B800026F260E0101036F010E0101046F010101
:1098C8005751090DF350080F0101056F040E0101EE
:1098D800066F0CEC6AF057C100F158C101F1000E97
:1098E8000101036F090E026F37EC73F00C0E0101D2
:1098F8000027000E01010123260E01010025D96E63
:10990800010E01010121DA6E56C1DFFF0101542B5E
:109918000101574B582B00D0010155510101236F0C
:10992800246B010123510101575D01015851800A3F
:109938000101256F01012451800A01012559D8A090
:109948007ED720C10EF121C10FF1260E0101106F43
:10995800010E0101116F260E0101126F000E0101A7
:10996800136F010E0101146F000E0101156F91ECC8
:1099780043F0120012000AC10EF101010F6B106BC7
:109988000101093501010E3701E30F8101010E5173
:109998000101116F01011151D8A40AD0000E010173
:1099A800086F000E0101096F000E01010A6F120015
:1099B8000DC10EF101010F6B106B01010C35010196
:1099C8000E3701E30F8101010E510101166F0101EC
:1099D8001651D8A40AD0000E0101086F000E01012B
:1099E800096F000E01010A6F1200010116517B0F69
:1099F800010111270AC116F101010D510101161BC0
:109A0800800E010116170101098F01010C8FFF0E4D
:109A180001010B17FF0E01010C17000E01010D17B4
:109A2800000E0101126F000E0101136F000E0101FB
:109A3800146F070E0101156F00D0010108A10DD0A8
:109A480001010B510101122701010C5101011323DE
:109A580001010D510101142300D00101D8900A33EE
:109A6800093308330101D8900B370C370D37010142
:109A7800152FE3D700D0090E0101156F00D00101A1
:109A880008A10DD001010B510101122701010C5150
:109A98000101132301010D510101142300D001011B
:109AA800D8900A33093308330101D890143313339B
:109AB80012330101152FE3D700D012C100F113C1F1
:109AC80001F114C102F111C103F116C104F1DDEC79
:109AD80057F000C108F101C109F102C10AF11200F1
:109AE800120000C1D9FF01C1DAFF000EDF6E0101CB
:109AF80020EE01F00051D9260151DA22000EDF6E66
:109B08004350D8A403D04450D8B438D01E0E000116
:109B1800C36103D00001C32B00D01E0E0001C3197E
:109B2800D8A41AD00E0E0001C46516D000C1D9FF02
:109B380001C1DAFF030EDF6E2D0E0001C36F0101B4
:109B480020EE01F00051D9260151DA22030EDF6E12
:109B58002D0E0001C46F0FD01E0E0001C319D8A42A
:109B68000AD000C1D9FF01C1DAFF020EDF6E2D0E47
:109B78000001C36F00D0000E446E13D0010E000127
:109B8800C3650BD01F0E0001C36107D000C1D9FF08
:109B980001C1DAFF010EDF6E00D0000E0001C36FB5
:109BA80000D04550D8A403D04650D8B439D01E0EA2
:109BB8000001C46103D00001C42B00D01E0E0001B7
:109BC800C419D8A41AD00E0E0001C36516D000C15E
:109BD800D9FF01C1DAFF030EDF6E2D0E0001C36F3E
:109BE800010120EE01F00051D9260151DA22030EBD
:109BF80011D02D0E0001C46F10D01E0E0001C41923
:109C0800D8A40BD0010120EE01F00051D926015152
:109C1800DA22020EDF6EEDD700D0000E466E12007B
:109C2800010E0001C4650ED01F0E0001C4610AD0E8
:109C3800010120EE01F00051D9260151DA22010E6E
:109C4800DF6E00D0000E0001C46F120012006EC05B
:109C580072F00001736B746B00016D35000172378F
:109C680001E37381000172510001756F00017551A4
:109C7800D8A40AD0000E00016C6F000E00016D6FB1
:109C8800000E00016E6F120071C072F00001736B5C
:109C9800746B000170350001723701E373810001B4
:109CA800725100017A6F00017A51D8A40AD0000ECF
:109CB80000016C6F000E00016D6F000E00016E6FE9
:109CC800120000017A517B0F000175276EC07AF0EF
:109CD8000001715100017A1B800E00017A17000102
:109CE8006D8F0001708FFF0E00016F17FF0E0001CE
:109CF8007017000E00017117000E0001766F000E3C
:109D08000001776F000E0001786F070E0001796F70
:109D180000D000016CA10DD000016F510001762721
:109D2800000170510001772300017151000178236F
:109D380000D00001D8906E336D336C330001D89099
:109D48006F37703771370001792FE3D700D0090ECC
:109D58000001796F00D000016CA10DD000016F5196
:109D6800000176270001705100017723000171512D
:109D78000001782300D00001D8906E336D336C3326
:109D88000001D8907833773376330001792FE3D701
:109D980000D076C060F077C061F078C062F075C01E
:109DA80063F07AC064F06DEC58F060C06CF061C08C
:109DB8006DF062C06EF0120012000001DC5100016B
:109DC800DB1131E1610E0001D95D090E0001DA599C
:109DD800D8B029D0A786000E0101006F900E016F40
:109DE800D00E026F030E036FD9C00DF1DAC00EF169
:109DF800DBC00FF1DCC010F1040ED89001010D3763
:109E08000E370F371037E82EF8D70DC104F10EC101
:109E180005F10FC106F110C107F192EC62F034D0E0
:109E28006C0E416E6CD00001DC510001DB1137E192
:109E3800810E0001D95D250E0001DA59D8B02FD066
:109E4800000E0101006F900E016FD00E026F030E1D
:109E5800036FD9C00DF1DAC00EF1DBC00FF1DCC021
:109E680010F1060ED89001010D370E370F37103755
:109E7800E82EF8D70DC104F10EC105F10FC106F1A6
:109E880010C107F192EC62F0FF0E010100250201FA
:109E98003E6FFF0E0101012102013F6FC1D7000E85
:109EA8000101006F900E016FD00E026F030E036F59
:109EB800D9C004F1DAC005F1DBC006F1DCC007F156
:109EC80092EC62F0050E07D00101D89003330233FB
:109ED800010101330033E82EF7D7FF0E01010025F9
:109EE80002013E6FFF0E0101012102013F6F000ECA
:109EF80002013F6F220E3E6F7C0E93D700D03EC208
:109F080000F13FC201F14150F9EC6DF0010E000182
:109F1800BC6FAB98AB88AECFDAF112000001DC5110
:109F28000001DB1131E1610E0001D95D090E00016C
:109F3800DA59D8B029D0A786000E0001606F900EBC
:109F4800616FD00E626F030E636FD9C06DF0DAC017
:109F58006EF0DBC06FF0DCC070F0040ED89000012A
:109F68006D376E376F377037E82EF8D76DC064F0ED
:109F78006EC065F06FC066F070C067F0F5EC62F017
:109F880034D06C0E416E6CD00001DC510001DB1145
:109F980037E1810E0001D95D250E0001DA59D8B0EC
:109FA8002FD0000E0001606F900E616FD00E626FAF
:109FB800030E636FD9C06DF0DAC06EF0DBC06FF0CE
:109FC800DCC070F0060ED89000016D376E376F3721
:109FD8007037E82EF8D76DC064F06EC065F06FC0BA
:109FE80066F070C067F0F5EC62F0FF0E00016025C6
:109FF80002013E6FFF0E0001612102013F6FC1D7D0
:10A00800000E0001606F900E616FD00E626F030E3C
:10A01800636FD9C064F0DAC065F0DBC066F0DCC0FD
:10A0280067F0F5EC62F0050E07D00001D8906333B5
:10A038006233000161336033E82EF7D7FF0E000169
:10A04800602502013E6FFF0E0001612102013F6F92
:10A05800000E02013F6F220E3E6F7C0E93D700D098
:10A068003EC260F03FC261F0415035EC6EF0010E27
:10A078000001BC6FAB98AB88AECFDAF112000001DB
:10A08800B451D8A412000001B551D8A4120000019F
:10A09800B651D8A412000001CC51D8A41200000176
:10A0A800C751D8A412000001D051D8A41200010150
:10A0B800D8510101D8A412000001CB51D8A4120034
:10A0C80000D00001D151D8B412000001D105D8A4A4
:10A0D8000DD0020E0001D16F000E0201326F000E8A
:10A0E800336F000E346F000E356F00D0020E000182
:10A0F800D119D8A41200800E0201325DF90E0201B6
:10A108003359FF0E02013459FF0E02013559D8B0F8
:10A11800120032C20CF133C20DF134C20EF135C255
:10A128000FF1800E0101106F000E116F000E126FFB
:10A13800000E136F000E0101146F060E0101156F5A
:10A1480027EC69F0800E01011A6FF90E1B6F010EE2
:10A158001C6F000E1D6F01011A510201321917E11F
:10A1680001011B510201331912E101011C510201C5
:10A1780034190DE101011D5102013519D8A407D088
:10A18800080E01011E6F000E0001D16F03D0800E72
:10A1980001011E6F000E01011F6F12D000D0ACA28A
:10A1A800FED701011F51010D000EF324D96E060ED2
:10A1B800F420DA6EDF5061EC76F001011F2B00D03D
:10A1C80001011E5101011F5DD8A0E9D7800E0201CF
:10A1D8003227000E332334233523120012000001E6
:10A1E800C151D8B4A4D00001CC51D8A4A0D0C5C0C6
:10A1F80000F10101016B000E0101036F000E026FF7
:10A20800C90E0101046F000E056F000E066F000EE7
:10A21800076F71EC6EF00101005101012F6F010110
:10A228002F510101D8A402D0000E1200000E010126
:10A238000E6F01012F51010D000EF324D96E070E88
:10A24800F420DA6EDF5031EC75F0D3A60FD0040E8F
:10A2580001010C6F010EA1EC5AF00001A35101019C
:10A268000C250101306F0001A45114D0040E010126
:10A278000C6F010EA1EC5AF00001A35101010C274B
:10A288000001A45101010D23E60E01010C25010175
:10A29800306FFF0E01010D210101316F00D091ECEB
:10A2A80077F02CC1D9FF2DC1DAFFDF6E010120EE56
:10A2B80002F02C51D9262D51DA2230C1DFFF0101DD
:10A2C80020EE01F02C51D9262D51DA22010131510D
:10A2D800DF6E2CC117F12DC118F101012E51030FAA
:10A2E8000101196F010E01011A6F94EC47F0010189
:10A2F800C051D8A417D0080E1DEC6FF00101005111
:10A308000101C0250101C06FC0C126F10101276B01
:10A31800010E0101286F080E73EC6BF0000E0101AD
:10A32800C06F00D0000E0101C86F010E1200000EB0
:10A338001200120000C1D9FF01C1DAFF1D0EDF6E45
:10A34800010120EE01F00051D9260151DA22230E35
:10A35800DF6E010120EE02F00051D9260151DA2208
:10A36800D5C002F10101023BF00E02174EEC77F066
:10A37800010102250001D325DF6E010120EE03F063
:10A388000051D9260151DA22D5C002F10101023B60
:10A39800F00E02174EEC77F0010102250001D325DB
:10A3A800DF6E010120EE04F00051D9260151DA22B6
:10A3B800D5C002F10101023BF00E02174EEC77F016
:10A3C800010102250001D325DF6E010120EE05F011
:10A3D8000051D9260151DA22C8C0DFFF010120EE61
:10A3E80006F00051D9260151DA22C8C0DFFF010169
:10A3F80020EE07F00051D9260151DA22C8C0DFFF4C
:10A40800010120EE08F00051D9260151DA228DEC25
:10A4180077F0DF6E010120EE09F00051D9260151D5
:10A42800DA228DEC77F0DF6E010120EE0AF00051A0
:10A43800D9260151DA228DEC77F0DF6E010120EE8A
:10A448000BF00051D9260151DA2275EC77F0DF6E56
:10A45800010120EE0CF00051D9260151DA2275ECE9
:10A4680077F0DF6E010120EE0DF00051D926015181
:10A47800DA2275EC77F0DF6E0E0E0101036F010131
:10A4880003511200120019C11BF101011C6B1D6B55
:10A498000101183501011B3701E31C8101011B5122
:10A4A8000101256F01012551D8A40AD0000E010130
:10A4B800176F000E186F000E196F000E1A6F12003A
:10A4C800170E01011B6F17C11CF118C11DF119C12D
:10A4D8001EF101011B2901011F6F05D00101D89050
:10A4E8001E331D331C3301011F2FF8D701011C51E6
:10A4F8000101206F0101188FFF0E01011717FF0ED0
:10A5080001011817000E0101191701011751010166
:10A51800216F010118510101226F01011951010137
:10A52800236F0101246B8E0E0101255F010125AF08
:10A538001BD001012551800A8F0FD8B00BD0000E17
:10A548000101176F000E186F000E196F000E1A6FB9
:10A55800120000D00101D890243323332233213351
:10A568000101253FF7D71FD0170E0101256514D02B
:10A57800000E0101176F000E186F000E196F000E04
:10A588001A6F120009D00101D890213722372337DA
:10A5980024370101250700D0010125510101D8B454
:10A5A80002D0F1D700D0010120510101D8B40AD05E
:10A5B8000101241F231F221F216D000E22232323A4
:10A5C800242300D021C117F122C118F123C119F1A8
:10A5D80024C11AF1120012000DC111F10101126B10
:10A5E800136B01010C350101113701E312810101DF
:10A5F80011510101186F01011851D8A40AD0000E99
:10A6080001010B6F000E01010C6F000E01010D6FAF
:10A61800120010C111F10101126B136B01010F350A
:10A628000101113701E31281010111510101196F73
:10A6380001011951D8A40AD0000E01010B6F000EB8
:10A6480001010C6F000E01010D6F1200000E0101D7
:10A65800156F000E0101166F000E0101176F010141
:10A668001951890F0101185F0DC119F1010110512C
:10A678000101191B800E0101191701010C8FFF0E32
:10A6880001010B17FF0E01010C17000E01010D1738
:10A6980001010F8FFF0E01010E17FF0E01010F17A9
:10A6A800000E01011017180E0101146F00D00101EE
:10A6B800D89015371637173701010E5101010B5D78
:10A6C80001010F5101010C590101105101010D59EE
:10A6D800D8A00ED001010E5101010B5F01010F51ED
:10A6E80001010C5B0101105101010D5B0101158194
:10A6F8000101D8900B370C370D370101142FD7D72C
:10A7080000D015C100F116C101F117C102F118C13D
:10A7180003F119C104F1DDEC57F000C10BF101C1DF
:10A728000CF102C10DF1120012007DC07FF0000192
:10A73800806B816B00017C3500017F3701E38081EC
:10A7480000017F510001896F00018951D8A40AD006
:10A75800000E00017B6F000E7C6F000E7D6F000EF7
:10A768007E6F1200170E00017F6F7BC080F07CC0E7
:10A7780081F07DC082F000017F290001836F05D040
:10A788000001D8908233813380330001832FF8D7BA
:10A79800000180510001846F00017C8FFF0E0001D1
:10A7A8007B17FF0E00017C17000E00017D170001CA
:10A7B8007B510001856F00017C510001866F00010B
:10A7C8007D510001876F0001886B8E0E0001895F43
:10A7D800000189AF1BD000018951800A8F0FD8B0C2
:10A7E8000BD0000E00017B6F000E7C6F000E7D6F9A
:10A7F800000E7E6F120000D00001D8908833873396
:10A80800863385330001893FF7D71FD0170E000123
:10A81800896514D0000E00017B6F000E7C6F000E5E
:10A828007D6F000E7E6F120009D00001D890853729
:10A838008637873788370001890700D0000189519A
:10A848000001D8B402D0F1D700D000018451000132
:10A85800D8B40AD00001881F871F861F856D000E97
:10A8680086238723882300D085C07BF086C07CF0B0
:10A8780087C07DF088C07EF012001200010100053B
:10A8880001010111D8A42FD00001A751301805E10A
:10A898000001A8513118D8B492D03D50D8B402D094
:10A8A800000E1200010E3D6E000E3024D96E050E0A
:10A8B8003120DA6E02C1E1FF03C1E2FFDFCFE7FF1B
:10A8C800304A312A31BE0AD0315004E1800E305C62
:10A8D800D8A004D0000E316E000E306E000E3D6E12
:10A8E800010E12006CD0020E0101001901010111C4
:10A8F800D8A42FD00001A951321805E10001AA51AE
:10A908003318D8B45CD03F50D8B402D0000E12002F
:10A91800010E3F6EC90E3224D96E070E3320DA6E4F
:10A9280002C1E1FF03C1E2FFDFCFE7FF324A332A6A
:10A9380033BE0AD0800E325C010E3358D8A004D042
:10A94800000E336E000E326E000E3F6EC9D7120035
:10A9580036D0040E0101001901010111D8A42FD02D
:10A968000001A5512E1805E10001A6512F18D8B4F1
:10A9780026D03750D8B402D0000E1200010E376E20
:10A98800000E2E24D96E040E2F20DA6E02C1E1FFCC
:10A9980003C1E2FFDFCFE7FF2E4A2F2A2FBE0AD0DE
:10A9A8002F5004E1270E2E5CD8A004D0000E2F6E85
:10A9B800000E2E6E000E376E93D7120000D0000ED8
:10A9C8001200120007EEC9F015EE6EF0EE6AE550BF
:10A9D800E150FCE1E250FAE106EE00F0800EEE6A8A
:10A9E800E806FDE105EE00F010EEFFF0EE6AE55036
:10A9F800E150FCE1E250FAE104EE00F0E40EEE6A08
:10AA0800E806FDE103EE00F0DF0EEE6AE806FDE180
:10AA180002EE00F0AB0EEE6AE806FDE101EE9AF0F8
:10AA28004E0EEE6AE806FDE100EEA3F0350EEE6A82
:10AA3800E806FDE100EE2CF0270EEE6AE806FDE1DF
:10AA48005A0EF66EC40EF76E000EF86E07EE00F0A2
:10AA580010EEC9F00900F5CFEEFFE550E150FAE13C
:10AA6800E20EF66EEE0EF76E000EF86E03EEDFF0F5
:10AA780010EE08F00900F5CFEEFFE550E150FAE1DD
:10AA88000C0EF66EE20EF76E000EF86E02EEABF0EC
:10AA980010EE4DF00900F5CFEEFFE550E150FAE178
:10AAA800860EF66EED0EF76E000EF86E01EEE8F00B
:10AAB80010EE14F00900F5CFEEFFE550E150FAE191
:10AAC800400EF66EEF0EF76E000EF86E00EED8F040
:10AAD80010EE05F00900F5CFEEFFE550E150FAE180
:10AAE800450EF66EEF0EF76E000EF86E00EE53F0A0
:10AAF80010EE04F00900F5CFEEFFE550E150FAE161
:10AB0800000EF86E00012EEF05F00001C151D8A427
:10AB180004D00001CC51D8B403D0000E12008AD062
:10AB28000101AF510101D8A485D0C5C000F10101D0
:10AB3800016B23C102F10101036BC90E0101046F0E
:10AB4800000E056F000E066F000E076F71EC6EF0B9
:10AB5800010100510101246F010124510101D8A410
:10AB680002D0000E1200000E01010E6F01012451E7
:10AB7800010D000EF324D96E070EF420DA6EDF50B3
:10AB880031EC75F0D3A60FD0040E01010C6F010E45
:10AB9800A1EC5AF00001A35101010C250101256F18
:10ABA8000001A45114D0040E01010C6F010EA1EC98
:10ABB8005AF00001A35101010C270001A451010121
:10ABC8000D23E60E01010C250101256FFF0E010181
:10ABD8000D210101266F00D091EC77F020C1D9FF3B
:10ABE80021C1DAFFDF6E010120EE02F02051D926E3
:10ABF8002151DA2225C1DFFF010120EE01F02051A9
:10AC0800D9262151DA2201012651DF6E20C117F120
:10AC180021C118F101012251030F0101196F010E21
:10AC280001011A6F94EC47F0010E0101AF6F010E9C
:10AC3800120000D0000E120012000101056F80D032
:10AC4800000E0101006F010E95EC72F0E40E00D0C9
:10AC580000D0E82EFCD700D000D00201AB511F0B6A
:10AC680080090201AB6FABC202F1000E8AEC73F0EF
:10AC7800800E0001B76F0B0E0101046F620EE82E03
:10AC8800FED7042FFCD700D012000201AB511F0BD6
:10AC980060090201AB6FABC202F1000E8AEC73F0DF
:10ACA800D5C000F1000E95EC72F0600E0001B76F90
:10ACB8001200000E0101006F000E95EC72F0020107
:10ACC800AB511F0B20090201AB6FABC202F1000EA2
:10ACD8008AEC73F0680E0101046FE40EE82EFED7CB
:10ACE800042FFCD700D0200E0001B76F1200000E11
:10ACF8000101006F000E95EC72F00201AB511F0BC1
:10AD080040090201AB6FABC202F1000E8AEC73F08E
:10AD1800400E0001B76F1200000E0101006F000E17
:10AD280095EC72F00201AB511F0B0201AB6F000EE4
:10AD38000001B76FABC202F1000E8AEC73F012008B
:10AD480001010551000AD8B4E7D7200AD8B4B1D711
:10AD5800600AD8B4CCD7200AD8B497D7E00AD8A4C8
:10AD680012006ED7120006C1D9FF07C1DAFFDE0450
:10AD7800D8A489D0050E0101086585D0F90E010116
:10AD880008250101006F0101016BFF0E0123000E70
:10AD98000101036F050E026FD8EC64F00101005148
:10ADA80001010111D8A46FD0FF0E0101096FFF0E38
:10ADB80001010A6F0101085101010B6F0C6B0101C0
:10ADC800095101010B2701010A5101010C2301015D
:10ADD8000B5101010625D96E01010C510101072112
:10ADE800DA6E0001C851DE18D8B420D0FF0E010178
:10ADF800096FFF0E01010A6F0101085101010B6F74
:10AE08000C6B0101095101010B2701010A510101D4
:10AE18000C2301010B5101010625D96E01010C51CA
:10AE280001010721DA6EDE28D8A403D0010E120032
:10AE38002AD00001C829D8A423D0FF0E0101096F28
:10AE4800FF0E01010A6F0101085101010B6F0C6B24
:10AE58000101095101010B2701010A5101010C23CC
:10AE680001010B5101010625D96E01010C510101A7
:10AE78000721DA6EDE28D8B403D0020E120003D000
:10AE8800000E120000D0000E12001200000E000189
:10AE9800C66F3E0E010108611200200E21EC56F02B
:10AEA800800E21EC56F001010851020FCDEC76F02E
:10AEB8000001B851CDEC76F0000E01010A6F21D0E7
:10AEC80001010A51010DF35001010625D96EF45014
:10AED80001010721DA6EDF500001C6190001C66FB3
:10AEE80001010A51010DF35001010625D96EF450F4
:10AEF80001010721DA6EDF50CDEC76F001010A2B53
:10AF080000D00101085101010A5DD8A0D9D700017C
:10AF1800C651CDEC76F000D0ACA2FED7240E61EC81
:10AF280076F000D0ACA2FED7240E61EC76F000D00B
:10AF3800ACA2FED701010851050F61EC76F000D0F4
:10AF4800ACA2FED7C00E61EC76F0000E0101096FCD
:10AF580014D000D0ACA2FED701010951010DF35065
:10AF680001010625D96EF45001010721DA6EDF5080
:10AF780061EC76F00101092B00D0010108510101B3
:10AF8800095DD8B002D0E6D700D0ACA2FED7000148
:10AF9800C65161EC76F000D0ACA2FED70D0E61EC84
:10AFA80076F000D0ACA2FED70A0E61EC76F0120063
:10AFB8001200010103510101D8B408D00101005168
:10AFC8000101011101010211D8A413D0000E0101E1
:10AFD800006F000E0101016F000E0101026F1200E7
:10AFE80008D00101032B0101D8900233013300334B
:10AFF80000D0000E010100150101056F000E0101CE
:10B0080001150101066FFE0E010102150101076F0E
:10B01800010105510101061101010711D8B413D02E
:10B02800E0D711D00101032B010E01010027000E0A
:10B0380001010123000E010102230101D89002330E
:10B048000133003300D0000E010100150101056F26
:10B05800000E010101150101066FFF0E0101021525
:10B068000101076F010105510101061101010711D5
:10B07800D8B40AD0D7D708D0010103070101D89066
:10B0880000370137023700D0010101BF05D0020E99
:10B0980001010361F1D700D0010103B103D001011F
:10B0A800019F00D00101D890033301010351010130
:10B0B8000213010104510101D8B403D00101028F28
:10B0C80000D000C100F101C101F102C102F112007A
:10B0D8001200000163510001D8B408D0000160518A
:10B0E8000001611100016211D8A413D0000E000103
:10B0F800606F000E0001616F000E0001626F1200A8
:10B1080008D00001632B0001D890623361336033AB
:10B1180000D0000E000160150001656F000E0001EF
:10B1280061150001666FFE0E000162150001676F70
:10B13800000165510001661100016711D8B413D0F0
:10B14800E0D711D00001632B010E00016027000E2B
:10B1580000016123000E000162230001D8906233D0
:10B168006133603300D0000E000160150001656F87
:10B17800000E000161150001666FFF0E00016215E7
:10B188000001676F00016551000166110001671138
:10B19800D8B40AD0D7D708D0000163070001D890E7
:10B1A80060376137623700D0000161BF05D0020EF9
:10B1B80000016361F1D700D0000163B103D0000141
:10B1C800619F00D00001D8906333000163510001F2
:10B1D8006213000164510001D8B403D00001628FEA
:10B1E80000D060C060F061C061F062C062F012001F
:10B1F80012000101000501010111D8A427D03E5019
:10B20800D8A4120001D01200010E3E6E000E0001FB
:10B21800A725D96E050E0001A821DA6E02C1DFFF4D
:10B228000001A74BA82B0001A8BF0DD00001A85111
:10B2380005E1800E0001A75DD8A005D0000E000131
:10B24800A86F000EA76F000E3E6E1200020E0101DD
:10B25800001901010111D8A427D04050D8A4120028
:10B2680001D01200010E406EC90E0001A925D96E49
:10B27800070E0001AA21DA6E02C1DFFF0001A94B07
:10B28800AA2B0001AABF0DD0800E0001A95D010EF6
:10B298000001AA59D8A005D0000E0001AA6F000E1F
:10B2A800A96F000E406E1200040E01010019010181
:10B2B8000111D8A412000001AD51D8A4120001D088
:10B2C8001200010E0001AD6F000E0001A525D96E18
:10B2D800040E0001A621DA6E02C1DFFF0001A54BB2
:10B2E800A62B0001A6BF0DD00001A65105E1270E2F
:10B2F8000001A55DD8A005D0000E0001A66F000EC4
:10B30800A56F000E0001AD6F12001200000160056C
:10B3180000016111D8A427D03E50D8A4120001D052
:10B328001200010E3E6E000E0001A725D96E050E13
:10B338000001A821DA6E62C0DFFF0001A74BA82B2D
:10B348000001A8BF0DD00001A85105E1800E000141
:10B35800A75DD8A005D0000E0001A86F000EA76F4A
:10B36800000E3E6E1200020E00016019000161110C
:10B37800D8A427D04050D8A4120001D01200010E42
:10B38800406EC90E0001A925D96E070E0001AA2139
:10B39800DA6E62C0DFFF0001A94BAA2B0001AABF29
:10B3A8000DD0800E0001A95D010E0001AA59D8A098
:10B3B80005D0000E0001AA6F000EA96F000E406EA6
:10B3C8001200040E0001601900016111D8A41200D6
:10B3D8000001AD51D8A4120001D01200010E0001E5
:10B3E800AD6F000E0001A525D96E040E0001A6213F
:10B3F800DA6E62C0DFFF0001A54BA62B0001A6BFD5
:10B408000DD00001A65105E1270E0001A55DD8A0C9
:10B4180005D0000E0001A66F000EA56F000E0001FA
:10B42800AD6F12001200000E0101456FABC01DF197
:10B43800ACC01EF1010E01011F6F18C10BF119C13B
:10B448000CF1210E01010D6F010E01010E6FB6EC1A
:10B4580040F00101206FC8C025F1210E0101066FDF
:10B46800010E0101076F460E0101086F010E01016F
:10B47800096F470E01010A6F010E01010B6FB1EC54
:10B4880041F046C128F147C129F118C10BF119C192
:10B498000CF1E5EC65F001012A6F8DEC77F0010104
:10B4A8002B6F91EC77F001012C6FBBC326F1BCC365
:10B4B80027F1020E0101486F170E0101486501D0FE
:10B4C80020D001014851010DBB0EF324D96E030EA3
:10B4D800F420DA6E0101485101011B6F1C6B0C0E40
:10B4E80001011B27000E1C231F0E01011B25E16E05
:10B4F800010E01011C21E26EDFCFE7FF0101482B9D
:10B50800DBD7240E0101456F18C10EF119C10FF1E7
:10B518001F0E0101106F010E0101116F45C112F1DB
:10B52800000E0101136F010E0101146F000E0101DD
:10B53800156F91EC43F0120012000101126F010126
:10B548001205D8A416D0CECF13F10101146BCFCFBA
:10B5580015F10101166B010115510101166F156BEB
:10B56800010113510101152701011451010116238D
:10B5780000D0030E01011219D8A416D0B2CF13F1CE
:10B588000101146BB3CF15F10101166B01011551BF
:10B598000101166F156B01011351010115270101F6
:10B5A80014510101162300D001010C510101D8A446
:10B5B80035D015C10EF116C10FF101010E1F0F1F75
:10B5C8000E4B0F2BFF0E01010E250101106FFF0E10
:10B5D80001010F210101116F10C100F111C101F129
:10B5E8000101026B036BE80E0101046F030E056F86
:10B5F800000E066F000E076F7FEC6DF0100E07D07F
:10B608000101D89003330233010101330033E82EDE
:10B61800F7D700C10CF101C10DF1120015C10EF1EF
:10B6280016C10FF101010E1F0F1F0E4B0F2BFF0E3E
:10B6380001010E2501010C6FFF0E01010F2101010F
:10B648000D6F120012000001706F00017005D8A480
:10B6580016D0CECF73F00001746BCFCF75F0000118
:10B66800766B000175510001766F756B000173519F
:10B6780000017527000174510001762300D0030EE4
:10B6880000017019D8A416D0B2CF73F00001746B02
:10B69800B3CF75F00001766B000175510001766F2C
:10B6A800756B000173510001752700017451000189
:10B6B800762300D000016C510001D8A435D075C0A4
:10B6C8006EF076C06FF000016E1F6F1F6E4B6F2B10
:10B6D800FF0E00016E250001716FFF0E00016F2142
:10B6E8000001726F71C060F072C061F00001626B9E
:10B6F800636BE80E0001646F030E656F000E666FE2
:10B70800000E676FBCEC6DF0100E07D00001D890EA
:10B7180063336233000161336033E82EF7D760C0CA
:10B728006CF061C06DF0120075C06EF076C06FF0FD
:10B7380000016E1F6F1F6E4B6F2BFF0E00016E25F1
:10B7480000016C6FFF0E00016F2100016D6F120088
:10B7580012000001C9510001D8A404D0010E000153
:10B76800C96F00D0C9C007F1000E01010A6F5DD092
:10B77800000E0101096F000E086F2CD001010A515B
:10B78800010DF35001010025D96EF450010101218A
:10B79800DA6E0001C951010DDF0EF324E16E030ECC
:10B7A800F420E26EE7500101046F01010A51010D16
:10B7B800F35001010025E16EF45001010121E26E10
:10B7C800E7500101042501010A25DF6E0101084B3C
:10B7D800092B00D00001C951010DDF0EF324D96EE9
:10B7E800030EF420DA6EDF50070B0101046F056BBE
:10B7F800010104510101085D01010951800A01019B
:10B80800066F01010551800A01010659D8A0B6D773
:10B818000001C92B070E0001C96504D0000E000104
:10B82800C96F00D001010A2B00D001010A510101A2
:10B83800046F056B010102510101045D010105510D
:10B84800800A0101066F01010351800A01010659AE
:10B85800D8A08ED70101075112001200000E010175
:10B86800116F000E0101106F000E0F6F000E010125
:10B87800136F000E126F000E0101006F040E79ECB9
:10B8880071F0000E0101136F000E126F000E01011E
:10B89800116F090E0101116501D023D0A5EC77F0D5
:10B8A80000D03BEC77F00009D8A4FBD7C4500101C5
:10B8B800106F0F6BC35001010F13040E01011165C6
:10B8C80009D001010F510101122701011051010195
:10B8D800132300D00A0EE82EFED700D00101112B49
:10B8E800D8D712C106F113C107F1000E0101096F83
:10B8F800050E086F44EC6CF006C112F107C113F194
:10B90800020E0101006F040E79EC71F0C29012C1B1
:10B9180000F113C101F1000E0101036F070E026F60
:10B9280037EC73F000C106F101C107F1000E010107
:10B93800096F060E086F44EC6CF006C112F107C1DE
:10B9480013F10101C9510101125F000E0101C9BFC4
:10B95800FF0E0101135B12C10DF113C10EF11200AC
:10B968001200000E0101096F010103AF0DD00101A2
:10B97800031F021F011F006D000E01230223032372
:10B98800010E0101096F00D0010107AF0AD00101C2
:10B99800071F061F051F046D000E05230623072336
:10B9A80000D0010104510101051101010611010135
:10B9B8000711D8B43FD0010E0101086F09D0010169
:10B9C800D89004370537063707370101082B00D010
:10B9D800010107BF02D0F3D700D0010104510101D2
:10B9E800005D0101055101010159010106510101E3
:10B9F80002590101075101010359D8A011D00101D1
:10BA080004510101005F010105510101015B0101C0
:10BA180006510101025B010107510101035B00D0DE
:10BA28000101D89007330633053304330101082F89
:10BA3800D4D700D0010109510101D8B40AD00101BD
:10BA4800031F021F011F006D000E012302230323A1
:10BA580000D000C100F101C101F102C102F103C12E
:10BA680003F1120012000101086FFA0E01010861CA
:10BA780078D008C109F101010A6B09C106F10AC1B0
:10BA880007F10101D890063707370101D89006372A
:10BA9800073706C109F107C10AF104C1D9FF05C179
:10BAA800DAFF09C102F10AC103F125EC77F00101BF
:10BAB800076FDE5001010719D8A451D0010120EE0B
:10BAC80001F00451D9260551DA22010E0101092598
:10BAD8000101026F000E01010A210101036F25EC2B
:10BAE80077F00101076FDE5001010719D8A437D09C
:10BAF800010120EE02F00451D9260551DA22020E86
:10BB0800010109250101026F000E01010A2101014D
:10BB1800036F25EC77F00101076FDE50010107196B
:10BB2800D8A41DD0010120EE03F00451D9260551F7
:10BB3800DA22030E010109250101026F000E01013D
:10BB48000A210101036F25EC77F00101076FDE5030
:10BB580001010719D8A403D0010E120000D0000E6D
:10BB68001200000E12001200010E0001D36F000E29
:10BB7800FEEC75F0000E0001D56FFF0E2DEC71F094
:10BB8800000E88EC76F0080E53EC77F0DBC1F8F184
:10BB9800DCC1F9F1DDC1FAF1DEC1FBF1D3C02FF14F
:10BBA80085EC77F0030E0101016FEF0E006F75EC65
:10BBB80077F00101026FC3EC71F085EC77F0030EAA
:10BBC8000101016FFC0E006F8DEC77F00101026F2F
:10BBD800C3EC71F085EC77F0030E0101016FFD0EE7
:10BBE800006F2FC102F1C3EC71F085EC77F0030E02
:10BBF8000101016FFE0E006FC8C002F1C3EC71F0C5
:10BC080085EC77F0030E0101016FE80E006FFF0E5F
:10BC18000101026FC3EC71F085EC77F0030E0101AE
:10BC2800016FE90E006FFF0E0101026FC3EC71F0A6
:10BC380085EC77F0030E0101016FEA0E006FFF0E2D
:10BC48000101026FC3EC71F085EC77F0030E01017E
:10BC5800016FEB0E006FFF0E0101026FC3EC71F074
:10BC6800120001011F6FFA0E01011F614FD01B0E58
:10BC780001010C6F010E01010D6F01011F5195ECBF
:10BC880066F01B0E0101066F010E0101076F14C15A
:10BC980008F115C109F1040E01010A6F53EC71F0A6
:10BCA80001011F51020DC90EF324D96E090EF420AB
:10BCB800DA6EDF503F0B01011A6F01011A51060DB0
:10BCC800BD0EF3240101066F0B0EF4200101076F6E
:10BCD80016C108F117C109F1040E01010A6F53ECEE
:10BCE80071F001011F51020D010EF326000EF4221E
:10BCF800C90EF324D96E090EF420DA6EDF501F0B3B
:10BD080018C1D9FF19C1DAFFDF6E1200DB0E01017D
:10BD1800066F010E0101076F14C108F115C109F181
:10BD2800040E01010A6F53EC71F0DB0E0101066F7E
:10BD3800010E0101076F16C108F117C109F1040EC0
:10BD480001010A6F53EC71F018C1D9FF19C1DAFF6C
:10BD5800FF0EDF6E1200120001010D6F01010D517F
:10BD6800A6EC74F00DC100F10101016B010106514F
:10BD7800050F0101026FFDEC58F007C108F1060E2E
:10BD880001010827020E0101096F0101082B03D0E8
:10BD98000101D89009370101082FFAD7010109518B
:10BDA80001010A6F0DC100F10101016B0AC102F125
:10BDB800FDEC58F0000E01010B6F000E01010C6F35
:10BDC80025D00DC100F10101016B01010C51010DDC
:10BDD800F35001010425D96EF45001010521DA6EF2
:10BDE800DF500101026FFDEC58F001010C51010D0B
:10BDF800F35001010425D96EF45001010521DA6ED2
:10BE0800DF5001010B1B01010C2B00D00101065171
:10BE180001010C5DD8A0D5D70DC100F10101016B5E
:10BE28000BC102F1FDEC58F00DC100F10101016BED
:10BE38000D0E0101026FFDEC58F00DC100F101017A
:10BE4800016B0A0E0101026FFDEC58F01200000EA2
:10BE580001010A6F5ED0000E0101096F000E086F24
:10BE68002DD001010A51010DF35001010025D96EB1
:10BE7800F45001010121DA6E01010A51010DF3505C
:10BE880001010025E16EF45001010121E26EE75045
:10BE98000101056F01010451010DDF0EF324E16E6C
:10BEA800030EF420E26EE75001010A2500080101A3
:10BEB8000525DF6E0101084B092B00D00101045153
:10BEC800010DDF0EF324D96E030EF420DA6EDF5075
:10BED800070B0101056F066B010105510101085DA2
:10BEE80001010951800A0101076F01010651800A09
:10BEF80001010759D8A0B5D70101042B070E01018C
:10BF0800046504D0000E0101046F00D001010A2B62
:10BF180000D001010A510101056F066B01010251B0
:10BF28000101055D01010651800A0101076F010148
:10BF38000351800A01010759D8A08DD71200030EBA
:10BF4800010134250101386F000E0101352101017D
:10BF5800396F32C106F133C107F190EC67F0010186
:10BF6800376F32C106F133C107F138C108F139C161
:10BF780009F1040E01010A6F53EC71F0DF0E0101A3
:10BF8800066F010E0101076F040E0101382501013A
:10BF9800086F000E010139210101096F040E01012A
:10BFA8000A6F53EC71F0020E0101AE19D8A410D03B
:10BFB80038C104F139C105F101013651080F0101F9
:10BFC800066F000E0101076F020EB0EC5EF000D0A4
:10BFD80032C106F133C107F1DB0E0101086F010E12
:10BFE8000101096F040E01010A6F88EC70F0000965
:10BFF800D8A40ED034C120F135C121F10101365148
:10C00800080F0101226F37C123F189EC55F01200A6
:10C0180034C12CF135C12DF101013651080F010150
:10C028002E6FF3EC50F01200120010C106F111C18E
:10C0380007F10EC108F10FC109F1040E01010A6FE1
:10C0480053EC71F0DF0E0101006F010E0101016F69
:10C05800000E0101026F0EC103F10FC104F1040EBD
:10C068000101056F040E0101066F0CEC6AF0010175
:10C0780020EE08F00E51D9260F51DA22030EDF6E9A
:10C08800010120EE09F00E51D9260F51DA22000ED7
:10C09800DF6E010120EE0AF00E51D9260F51DA2287
:10C0A800000EDF6EDF0E0101006F010E0101016F4E
:10C0B800000E0101026F0EC103F10FC104F10B0E56
:10C0C8000101056F040E0101066F0CEC6AF010C146
:10C0D80000F111C101F1000E0101026F0EC103F15F
:10C0E8000FC104F10F0E0101056F040E0101066F67
:10C0F8000CEC6AF0010120EE13F00E51D9260F5115
:10C10800DA22000EDF6E1200010119510101175DDC
:10C1180001011A5101011859D8B045D0010119512E
:10C1280001011F6F01011A510101206F0101216BEB
:10C138000101226B01011F1F201F211F221F1F2B1E
:10C14800000E2023212322230101175101011F255D
:10C158000101236F01011851010120210101246F00
:10C16800000E010121210101256F000E010122218C
:10C178000101266F01011B51010123250101276FD0
:10C1880001011C51010124210101286F01011D51E8
:10C19800010125210101296F01011E5101012621FB
:10C1A80001012A6F19D019C11FF11AC120F101012B
:10C1B8001F1F201F1F4B202B0101175101011F2793
:10C1C80001011851010120231FC127F120C128F1C5
:10C1D8000101296B2A6B00D027C117F128C118F17A
:10C1E800120012000101126F010112510101D8A4BD
:10C1F8000DD0D6CF13F10101146BD7CF15F111D0A3
:10C20800010115510101166F156B0ED0030E0101C6
:10C218001219D8A412D0B2CF13F10101146BB3CF05
:10C2280015F10101166BECD7010113510101152716
:10C23800010114510101162300D001010C51010123
:10C24800D8A435D015C10EF116C10FF101010E1F8A
:10C258000F1F0E4B0F2BFF0E01010E250101106F52
:10C26800FF0E01010F210101116F10C100F111C171
:10C2780001F10101026B036BE80E0101046F030E6B
:10C28800056F000E066F000E076F7FEC6DF0100E45
:10C2980007D00101D8900333023301010133003381
:10C2A800E82EF7D700C10CF101C10DF1120015C13C
:10C2B8000CF116C10DF11200000E0101056F01010C
:10C2C80003AF09D00101026D031FD8B0032B010E83
:10C2D8000101056F00D0010101AF09D00101006D16
:10C2E800011FD8B0012B010E0101051B00D0000E63
:10C2F8000101076F000E066F0101025101010311D0
:10C30800D8B431D0010E0101046F07D00101D890D3
:10C31800023703370101042B00D0010103BF02D00B
:10C32800F5D700D00101D89006370737010102512F
:10C338000101005D0101035101010159D8A00BD091
:10C34800010102510101005F010103510101015B7B
:10C358000101068100D00101D890033302330101A5
:10C36800042FE0D700D0010105510101D8B406D04F
:10C378000101066D071FD8B0072B00D006C100F1D8
:10C3880007C101F1120012000101026F01010251FF
:10C39800060D050EF326000EF422BD0EF324D96E09
:10C3A8000B0EF420DA6EDE28D8A410D00101025159
:10C3B800060D050EF326000EF422BD0EF324D96EE9
:10C3C8000B0EF420DA6E00C1DFFF120001010251EA
:10C3D800060D050EF326000EF422BD0EF324D96EC9
:10C3E8000B0EF420DA6E01010051DE5CD8B00FD0DC
:10C3F80001010251060D050EF326000EF422BD0EB2
:10C40800F324D96E0B0EF420DA6EDF2A1200010134
:10C418000251060D050EF326000EF422BD0EF3247C
:10C42800D96E0B0EF420DA6EDE500101005DD8B033
:10C43800120001010251060D050EF326000EF4222A
:10C44800BD0EF324D96E0B0EF420DA6EDF0612004F
:10C45800120000010203040A0B0C0D0E1415161726
:10C46800181E1F20212228292A2B2C050607080917
:10C478000F10111213191A1B1C1D23242526272DF2
:10C488002E2F30310031302F2E2D27262524231D25
:10C498001C1B1A19131211100F09080706052C2B5B
:10C4A8002A29282221201F1E18171615140E0D0CD4
:10C4B8000B0A0403020100010203040A0B0C0D0E0F
:10C4C80014151617181E1F20212228292A2B2C057F
:10C4D800060708090F10111213191A1B1C1D232413
:10C4E8002526272D2E2F30310031302F2E2D2726AF
:10C4F8002524231D1C1B1A19131211100F090807D4
:10C5080006052C2B2A29282221201F1E181716154C
:10C51800140E0D0C0B0A040302010000000E0101A9
:10C52800086F000E096F000E0A6F000E0B6F0101F5
:10C538000451010105110101061101010711D8B4C7
:10C5480047D0010E01010C6F09D00101D8900437C2
:10C5580005370637073701010C2B00D0010107BF4B
:10C5680002D0F3D700D00101D890083709370A372D
:10C578000B37010104510101005D01010551010161
:10C588000159010106510101025901010751010137
:10C598000359D8A013D0010104510101005F010122
:10C5A80005510101015B010106510101025B010115
:10C5B80007510101035B0101088100D00101D890F6
:10C5C800073306330533043301010C2FCCD700D0D1
:10C5D80008C100F109C101F10AC102F10BC103F15F
:10C5E8001200000E0001686F000E696F000E6A6F7E
:10C5F800000E6B6F000164510001651100016611A6
:10C6080000016711D8B447D0010E00016C6F09D042
:10C618000001D890643765376637673700016C2B9F
:10C6280000D0000167BF02D0F3D700D00001D89036
:10C63800683769376A376B37000164510001605DFC
:10C6480000016551000161590001665100016259FC
:10C658000001675100016359D8A013D0000164514B
:10C668000001605F000165510001615B00016651D6
:10C678000001625B000167510001635B0001688192
:10C6880000D00001D8906733663365336433000106
:10C698006C2FCCD700D068C060F069C061F06AC068
:10C6A80062F06BC063F012001B6E4750D8B41FD005
:10C6B8001B50D8B40CD0FF0E34240E6EFF0E35205C
:10C6C8000F6E040E106E010E93EC4AF00AD034C0BF
:10C6D8000EF035C00FF0040E106E010E93EC4AF008
:10C6E80000D0070E356E3468000E476E00D0010E7C
:10C6F8000001A3250001A36FF80E0001A421000189
:10C70800A46F2C06D8A02D062C502D10D8A40ED01E
:10C71800000E2D6E100E2C6E38C2A3F039C2A4F094
:10C728007F0E0201396FF00E386F0BD02C042D10DC
:10C73800D8A407D0010E476EA3C034F0A4C035F0CA
:10C7480000D00001C52BC80E0001C56504D0000E3D
:10C758000001C56F00D002013A2904E102013B291A
:10C76800D8B4120002013A4B3B2B12001200000E03
:10C778000101156F000E146F010115BF0AD00101E8
:10C7880015513CE10A0E0101145DD8B037D001D033
:10C7980035D032EC5CF00DC1ABF00EC1ACF000014D
:10C7A800ACBF0ED0230E0001AB5D0C0E0001AC59DE
:10C7B800D8A006D00001AB51DE0F0101C92712D065
:10C7C8000001ACBF08D01C0E0001AB5D0C0E0001CF
:10C7D800AC59D8B007D00001AB5100081C0F0101BB
:10C7E800C95F00D0020E0101016F8A0E006FBFEC15
:10C7F8006FF00101144B152BBFD700D00101C951AF
:10C80800800A9F0FD8A012000101C951800A600F49
:10C81800D8B0120085EC77F0030E0101016FF00E1D
:10C82800006FC9C102F1C3EC71F0120012000001DF
:10C838008E6F8EC0D6F0D6C060F00001616B000E1E
:10C848000001636F070E626F32EC65F00001605102
:10C858000101B16F880E0001D66504D0280E0001D1
:10C86800D66F1200000E00016F6F000E0001706F8E
:10C878003F0E0001716FDA0E00018A6FFF0E000192
:10C888008B6F0001D65100018C6F8D6B00018A51AE
:10C8980000018C2700018B5100018D2300018C1FA2
:10C8A8008D1F8C4B8D2B640E00018C250001686F49
:10C8B800000E00018D210001696FE7EC71F068C07E
:10C8C8006CF069C06DF06AC06EF02BEC4EF06CC075
:10C8D8007BF06DC07CF06EC07DF099EC53F00001E8
:10C8E8007B51280F0001D66F12001200D7C200F149
:10C8F800D8C201F1D9C202F1DAC203F1DBC204F1F4
:10C90800DCC205F1DDC206F1DEC207F17FEC6DF095
:10C9180000C1D7F201C1D8F202C1D9F203C1DAF2DB
:10C92800390E0201D727300ED823000ED923000E66
:10C93800DA23100E01010E6FD7C20FF1D8C210F121
:10C94800D9C211F1DAC212F101010E6701D009D082
:10C95800010112351233113310330F3301010E2F39
:10C96800F3D7FF0E01010F150101006F7F0E0101C2
:10C9780010150101016F000E010111150101026F6F
:10C98800000E010112150101036F0CC104F10DC164
:10C9980005F10101066B076BB5EC5CF000C10CF109
:10C9A80001C10DF112001200000E0101056F010115
:10C9B80001AF09D00101006D011FD8B0012B010E94
:10C9C8000101056F00D0010103AF06D00101026D1E
:10C9D800031FD8B0032B00D001010251010103113C
:10C9E800D8B42BD0010E0101046F07D00101D890F3
:10C9F800023703370101042B00D0010103BF02D025
:10CA0800F5D700D0010102510101005D0101035178
:10CA180001010159D8A009D0010102510101005FAB
:10CA2800010103510101015B00D00101D8900333DA
:10CA380002330101042FE6D700D00101055101019D
:10CA4800D8B406D00101006D011FD8B0012B00D069
:10CA580000C100F101C101F112001200000E000135
:10CA6800656F000161AF09D00001606D611FD8B02A
:10CA7800612B010E0001656F00D0000163AF06D085
:10CA88000001626D631FD8B0632B00D000016251B2
:10CA980000016311D8B42BD0010E0001646F07D0D8
:10CAA8000001D890623763370001642B00D0000181
:10CAB80063BF02D0F5D700D0000162510001605D6C
:10CAC8000001635100016159D8A009D000016251E9
:10CAD8000001605F000163510001615B00D000014B
:10CAE800D890633362330001642FE6D700D0000189
:10CAF80065510001D8B406D00001606D611FD8B03F
:10CB0800612B00D060C060F061C061F012001200BB
:10CB18000EC100F10FC101F1000E0101026F0EC13B
:10CB280003F10FC104F1080E0101056F080E0101A0
:10CB3800066FC6EC6CF00009D8B412000EC100F103
:10CB48000FC101F1080E0101026F0EC103F10FC1FF
:10CB580004F1100E0101056F080E0101066FC6EC05
:10CB68006CF00009D8B41200000E0101106F070E16
:10CB78000101106501D01DD085EC77F0F40E01019C
:10CB880010250101006F0101016B030E0123010152
:10CB9800105101010E25D96E0101000E01010F216E
:10CBA800DA6EDF500101026FC3EC71F00101102B46
:10CBB800DED70EC100F10FC101F175EC69F012006A
:10CBC8001200000E0101106F000E0F6F010110BF5F
:10CBD8000AD0010110514AE1FA0E01010F5DD8B0E7
:10CBE80045D001D043D00BC104F10CC105F10101BE
:10CBF8000F5137EC5DF00009D8B433D00FC10DF1F7
:10CC080010C10EF1D89001010D370E37010E010148
:10CC18000D27000E0E23C90E01010D25D96E090E30
:10CC280001010E21DA6EDF501F0B1F0AD8B419D08C
:10CC38000FC10DF110C10EF1D89001010D370E375B
:10CC4800010E01010D27000E0E23C90E01010D254D
:10CC5800D96E090E01010E21DA6EDF38E832070BB2
:10CC6800120001010F4B102BB1D700D0000E12009B
:10CC78001200EACF1FF0E1CF20F0E2CF21F0D9CFA8
:10CC880022F0DACF23F0F3CF24F0F4CF25F0F6CF5B
:10CC980026F0F7CF27F0F8CF28F0F5CF29F09EB08F
:10CCA8009DA022D09E90F80E2B6E000E2A6E2B505F
:10CCB800CF6ED3B603D0010E516E00D0515058EC50
:10CCC80063F0010E0001B46F0101D32B0001CC51B8
:10CCD800D8B404D00201444B452B06D0000E020103
:10CCE800456F000E446F00D029C0F5FF28C0F8FF3B
:10CCF80027C0F7FF26C0F6FF25C0F4FF24C0F3FFC6
:10CD080023C0DAFF22C0D9FF21C0E2FF20C0E1FF23
:10CD18001FC0EAFF1EC0E9FF1DC0FBFF1CC0FAFFD1
:10CD280011000101106FFA0E010110613ED010C10F
:10CD380011F10101126B11C10EF112C10FF10101C4
:10CD4800D8900E370F370101D8900E370F370EC124
:10CD580011F10FC112F1000E0101136F030E010151
:10CD6800136502D01200120001011351010DF35096
:10CD780001010C25D96EF45001010D21DA6E010173
:10CD88001351010111250101026F000E0101122149
:10CD98000101036F25EC77F0DF6E0101132B030E01
:10CDA80001011365E1D712001200DB0E0101066FC5
:10CDB800010E0101076F0CC108F10DC109F1040E44
:10CDC80001010A6F53EC71F0120012000101146F97
:10CDD800030E0101086F01011451060D050EF3261B
:10CDE800000EF422BD0EF324D96E0B0EF420DA6E79
:10CDF800DF5041EC45F00101136F01011451060D9C
:10CE0800040EF326000EF422BD0EF324D96E0B0E89
:10CE1800F420DA6EDF380F0BD8EC73F00101135DE4
:10CE2800D8B012D001011451060D040EF326000EDD
:10CE3800F422BD0EF324D96E0B0EF420DA6EDF381F
:10CE48000F0BD8EC73F01200030E0101086F0101FB
:10CE58001451060D050EF326000EF422BD0EF32420
:10CE6800D96E0B0EF420DA6EDF5041EC45F012005B
:10CE780012000EC106F10FC107F1DB0E0101086FA8
:10CE8800010E0101096F040E01010A6F88EC70F0B0
:10CE98000009D8A41200000E0101126F3E0E010114
:10CEA800126502D01200120001011251060DBD0ECA
:10CEB800F3240101066F0B0EF4200101076F0EC168
:10CEC80008F10FC109F1040E01010A6F88EC70F036
:10CED8000009D8B418D010C111F101011251060D82
:10CEE800040EF326000EF422BD0EF324D96E0B0EA9
:10CEF800F420DA6E0101113BDF50010111190F0B0B
:10CF08001119DF6E12000101122B3E0E010112658C
:10CF1800CBD7120012001200000E01010E6F000E96
:10CF28000D6F010120EE03F00651D9260751DA22D0
:10CF3800DF500101086F06C1D9FF07C1DAFFDF50D2
:10CF48000101096F0A6B010120EE01F00651D92693
:10CF58000751DA22DF5001010B6F01010B5101016A
:10CF68000927000E0A23010120EE02F00651D926F6
:10CF78000751DA22DF5001010C6F01010C51010148
:10CF88000927000E0A2301010851010109250101A1
:10CF9800006F0101000E01010A210101016F000E5D
:10CFA8000101036FC90E026FD8EC64F000C10DF1E6
:10CFB80001C10EF101010D511200120001012C6F87
:10CFC80001012C5115EC49F0000E0101B46F000E5F
:10CFD8000101D26F010E0101EC6F7F0E0201396F62
:10CFE800F00E386F7F0E0001A46FF00EA36F000ED5
:10CFF8002D6E100E2C6E070E01010E6F0D69040EBA
:10D0080001010F6F010E6AEC44F0010E0001A32527
:10D018000001A36FF80E0001A4210001A46F2C06E3
:10D02800D8A02D06070E356E3468090EDEEC75F0B3
:10D03800000E01010D6F1E0E0C6F7AEC64F05A0E93
:10D0480001010C250101266F000E01010D210101CE
:10D05800276F010E0101286F0E0E73EC6BF01200A2
:10D06800100E0101466F1AC10BF11BC10CF1420EE3
:10D0780001010D6F010E01010E6FB6EC40F01D0E9F
:10D0880001011C6F2E0E01011D6F460E01011E6F5E
:10D09800480E01011F6F430E0101206F010E0101AF
:10D0A8000C6F000E0D6F020E0E6F000E0F6F0B0E41
:10D0B8000101106F000E116F000E126F000E136F3A
:10D0C800210E0101146F010E0101156F27EC69F0A3
:10D0D8001AC10EF11BC10FF11C0E0101106F010ED8
:10D0E8000101116F46C112F1000E0101136F010E0B
:10D0F8000101146F000E0101156F91EC43F012004D
:10D108001200100E0101466F1AC10BF11BC10CF180
:10D11800420E01010D6F010E01010E6FB6EC40F0D9
:10D128001D0E01011C6F2A0E01011D6F410E010128
:10D138001E6F530E01011F6F460E0101206F010E75
:10D1480001010C6F000E0D6F020E0E6F000E0F6FB7
:10D158000B0E0101106F000E116F000E126F000E02
:10D16800136F210E0101146F010E0101156F27ECD9
:10D1780069F01AC10EF11BC10FF11C0E0101106FED
:10D18800010E0101116F46C112F1000E0101136F6A
:10D19800010E0101146F000E0101156F91EC43F0AF
:10D1A800120012007C0ED36E9B8CD2909B8E200EA8
:10D1B800926EBA0E936E930E946E860E806E010E6A
:10D1C800816E040E826E100E0F015D6F000E0F014E
:10D1D8005C6FF19E0F015B910F015B930F015B8503
:10D1E8000F015B970F015B990F015B9B0F015B9D23
:10D1F8000F015B9FD180E1EC4EF0010E0101EA6F57
:10D20800000E0201516F000E506F000E02014F6FA9
:10D21800000E4E6F000E0201636F000E626F000E6B
:10D228000201656F000E646F000E0101B26F02010A
:10D23800A7690201A8690201A9690201AA69000E89
:10D248000101C26F1200000E0101166F000E176F68
:10D25800000E186F000E196F899E030E55EC75F0BD
:10D2680001010E5155EC75F001010D5155EC75F0A9
:10D2780001010C5155EC75F0000E0101166F000EFE
:10D28800176F000E186F000E196F17D00101165195
:10D2980001011425D96E0101175101011521DA6E1A
:10D2A8006EEC76F001010051DF6E010E01011627C8
:10D2B800000E17231823192300D001011051010172
:10D2C800165D0101115101011759010112510101A6
:10D2D80018590101135101011959D8A0D7D7898EBE
:10D2E8001200000E0101036F070E0101036501D052
:10D2F80019D001010351010DF35001010025D96E28
:10D30800F45001010121DA6E01010351010DDF0E14
:10D31800F324E16E030EF420E26EDFCFE7FF010194
:10D32800032BE2D7000E0101036F070E010103650D
:10D3380002D01200120001010351010DF350010146
:10D348000025D96EF45001010121DA6EDE28D8A437
:10D3580009D0070E01010319D8A408D0000E010155
:10D36800B76F04D0010E0101B76F12000101032B42
:10D37800070E01010365DFD712001200000E01013C
:10D38800406F020E01011A6F400E01011B6F400E23
:10D3980001011C6F030E01011D6F040E0101416F95
:10D3A800230E0101416501D017D001014151010D42
:10D3B8009A0EF324D96E030EF420DA6E010141515E
:10D3C800010D1A0EF324E16E010EF420E26EDFCF98
:10D3D800E7FF0101412BE4D7240E0101406F18C17A
:10D3E8000EF119C10FF11A0E0101106F010E0101A2
:10D3F800116F40C112F1000E0101136F010E0101FE
:10D40800146F000E0101156F91EC43F01200120029
:10D41800000E01010D6F3FD0010102510DC107F14E
:10D428000101086B01010727000E082300C109F15B
:10D4380001C10AF101010751010109270101085140
:10D4480001010A2309C1F6FF0AC1F7FF000EF86EB1
:10D45800010105510DC10BF101010C6B01010B27F5
:10D46800000E0C2301010B5101010325D96E0101A6
:10D478000C5101010421DA6E0E0EF76403D0080086
:10D48800F55005D0F6CFE9FFF7CFEAFFEF50DF6E92
:10D4980001010D2B00D00101065101010D5DD8A03D
:10D4A800BBD7120005EC77F0899E020E55EC75F09B
:10D4B8000101075155EC75F00101065155EC75F065
:10D4C8000101055155EC75F0000E01010F6F000EBA
:10D4D800106F000E116F000E126F15D001010F5161
:10D4E80001010925D96E0101105101010A21DA6EE5
:10D4F800DF5055EC75F0010E01010F27000E1023C7
:10D508001123122300D001010B5101010F5D01010C
:10D518000C510101105901010D510101115901016D
:10D528000E5101011259D8A0D9D7898EE1EC76F0B5
:10D5380012001200040E01010E250101066F000EF3
:10D5480001010F210101076F10C108F111C109F193
:10D55800040E01010A6F53EC71F015EC77F002C16B
:10D56800D9FF03C1DAFF12C1E1FF13C1E2FFDFCF28
:10D57800E7FF0EC106F10FC107F1DB0E0101086FCD
:10D58800010E0101096F040E01010A6F88EC70F0A9
:10D598000009D8A412D00EC106F10FC107F1DF0EA1
:10D5A8000101086F010E0101096F040E01010A6FE4
:10D5B80088EC70F00009D8B402D0010E1200000EF9
:10D5C8001200120001010B6FFA0E01010B6112002B
:10D5D8000BC10CF101010D6B0CC109F10DC10AF170
:10D5E8000101D89009370A370101D89009370A375D
:10D5F80009C10CF10AC10DF1000E01010E6F030EF5
:10D6080001010E6502D01200120001010E51010144
:10D618000C250101046F000E01010D210101056FA8
:10D6280001010E51010DF35001010725D96EF45087
:10D6380001010821DA6EDF500101066F1CEC76F05B
:10D6480001010E2B030E01010E65DFD71200120037
:10D658001200B8EC76F00101046F0001CE51D8A495
:10D668001CD001010429D8A403D004C1CFF007D0ED
:10D67800010104290001CF6F0001CF054C6E400E57
:10D688000001CF650AD0400E0001CF6F0001CF0521
:10D698004C6E010E0101C46F00D00001CF51000192
:10D6A800CE5DD8B00ED00001CE51010D800EF3240E
:10D6B800D96E050EF420DA6E04C1DFFF0001CE2B0F
:10D6C80000D00001CF510001CE19D8A412000001EA
:10D6D800CF51D8B41200010E3A6E120012000101A7
:10D6E8002B6F010126291DE101012729D8A419D092
:10D6F80001012B51020D000EF324D96E020EF42005
:10D70800DA6EFF0EDE6EFF0EDD6E01012B51010D8C
:10D71800000EF324D96E030EF420DA6E28C1DFFF61
:10D728001200010E010126250101296F000E0101D9
:10D73800272101012A6F01012B51020D000EF3244C
:10D74800D96E020EF420DA6E29C1DEFF2AC1DDFF90
:10D7580001012B51010D000EF324D96E030EF420A4
:10D76800DA6E28C1DFFF12001200000E096E000EEB
:10D778000A6E000E0B6E000E0C6E05500610071098
:10D788000810D8B42FD0010E0D6E07D0D8900536EA
:10D798000636073608360D2A00D008BE02D0F6D75E
:10D7A80000D0D89009360A360B360C360550015C85
:10D7B800065002580750035808500458D8A00AD0F9
:10D7C8000550015E0650025A0750035A0850045A81
:10D7D800098000D0D89008320732063205320D2E63
:10D7E800E0D700D009C001F00AC002F00BC003F076
:10D7F8000CC004F012003D0E01015D6F1AC11CF14E
:10D808001BC11DF11AC159F11BC15AF101015B6B12
:10D818005C6B59C100F15AC101F15BC102F15CC1F5
:10D8280003F1380E0101046F000E056F000E066F3C
:10D83800000E076F7FEC6DF000C10CF101C10DF116
:10D8480002C10EF103C10FF1380E0101106F000E75
:10D85800116F000E126F000E136F1E0E0101146F70
:10D86800010E0101156F27EC69F01C0E0101066F0E
:10D87800010E0101076F5DC108F14AEC57F0120073
:10D88800000E01010C6F000E0B6F01010851010120
:10D898000911D8B431D0010E01010A6F07D0010176
:10D8A800D8900837093701010A2B00D0010109BFB8
:10D8B80002D0F5D700D00101D8900B370C37010101
:10D8C80008510101065D0101095101010759D8A05C
:10D8D8000BD0010108510101065F01010951010145
:10D8E800075B01010B8100D00101D890093308338F
:10D8F80001010A2FE0D700D00BC106F10CC107F1D6
:10D908001200000E0001666F000E656F0001625183
:10D9180000016311D8B431D0010E0001646F07D043
:10D928000001D890623763370001642B00D00001F2
:10D9380063BF02D0F5D700D00001D89065376637AD
:10D94800000162510001605D0001635100016159ED
:10D95800D8A00BD0000162510001605F0001635143
:10D968000001615B0001658100D00001D89063333C
:10D9780062330001642FE0D700D065C060F066C054
:10D9880061F01200000E01010D6F31D00101055147
:10D998000DC107F10101086B01010727000E0823DB
:10D9A8000101075101010325D96E01010851010147
:10D9B8000421DA6E010102510DC10AF101010B6B5C
:10D9C80001010A27000E0B2301010A51010100255C
:10D9D800E16E01010B5101010121E26EDE50E618F2
:10D9E800D8B402D0000E120001010D2B00D00101A5
:10D9F800065101010D5DD8A0C9D7010E1200120011
:10DA0800000E0101116F000E106F010111BF0AD045
:10DA18000101115130E13F0E0101105DD8B02BD04A
:10DA280001D029D010C100F111C101F1000E01018E
:10DA3800036F060E026F37EC73F0BD0E010100256F
:10DA48000101066F0B0E010101210101076F0EC1D3
:10DA580008F10FC109F1040E01010A6F88EC70F09A
:10DA68000009D8B403D00101105112000101104B74
:10DA7800112BCBD700D0FF0E12001200120E01019D
:10DA88000E6F010E01010F6FF80E0101106F010EEC
:10DA98000101116F19EC60F0000E0101266F460EAE
:10DAA8000101006FFE0E0101016F000E0101026FFE
:10DAB800120E0101036F010E0101046F150E010121
:10DAC800056F240E0101066F0CEC6AF00101B751D5
:10DAD800300F01014B6F120E0101046F010E01019D
:10DAE800056F3A0E0101066F000E0101076F020E65
:10DAF800B0EC5EF01200000E0101086F000E096F15
:10DB0800000E0A6F000E0B6F00D0010100A111D0AA
:10DB180001010451010108270101055101010923EF
:10DB28000101065101010A230101075101010B23DB
:10DB380000D00101D89004370537063707370101AF
:10DB4800D89003330233013300330101005101013E
:10DB580001110101021101010311D8A4D6D708C18E
:10DB680000F109C101F10AC102F10BC103F1120070
:10DB7800000E0001686F000E696F000E6A6F000EDC
:10DB88006B6F00D0000160A111D000016451000149
:10DB980068270001655100016923000166510001F1
:10DBA8006A230001675100016B2300D00001D8905F
:10DBB80064376537663767370001D8906333623357
:10DBC800613360330001605100016111000162118D
:10DBD80000016311D8A4D6D768C060F069C061F0AD
:10DBE8006AC062F06BC063F012000101026F000EA0
:10DBF800AC6E000EAB6E010102A102D0AC8800D061
:10DC0800010102A303D0AC8CAB8C00D0010102A5AA
:10DC180002D0AC8E00D0010102A702D0AB8802D09E
:10DC2800AB8A00D0010102A902D0AC8400D0010166
:10DC380002AB02D0AB8600D0010102AD02D09D8AB2
:10DC480002D09D9A00D0010102AF02D09D8801D078
:10DC58009D9800C1AFFF010101517D6EAC8AAB8E6A
:10DC680012000001626F000EAC6E000EAB6E000178
:10DC780062A102D0AC8800D0000162A303D0AC8CB2
:10DC8800AB8C00D0000162A502D0AC8E00D00001A0
:10DC980062A702D0AB8802D0AB8A00D0000162A98B
:10DCA80002D0AC8400D0000162AB02D0AB8600D0B9
:10DCB800000162AD02D09D8A02D09D9A00D0000179
:10DCC80062AF02D09D8801D09D9860C0AFFF00016F
:10DCD80061517D6EAC8AAB8E1200010102510101C7
:10DCE80000250101086F0101035101010121010112
:10DCF800096F08C10AF109C10BF101010C6B0D6B29
:10DD080010D00101045101010A5F0101055101010F
:10DD18000B5B0101065101010C5B01010751010177
:10DD28000D5B0101045101010A5D01010551010169
:10DD38000B590101065101010C590101075101015B
:10DD48000D59D8B0DED70AC100F10BC101F112009C
:10DD5800060E0101446F18C10BF119C10CF1400EF8
:10DD680001010D6F010E01010E6FB6EC40F01F0EA0
:10DD780001011A6F2A0E01011B6F530E01011C6F5E
:10DD8800460E01011D6F540E01011E6FEDC11FF1FA
:10DD980018C10EF119C10FF11A0E0101106F010E11
:10DDA8000101116F44C112F1000E0101136F010E40
:10DDB8000101146F000E0101156F91EC43F0120080
:10DDC8001200000E01011B6F460E0101006FFE0ECE
:10DDD8000101016F000E0101026F1B0E0101036FAB
:10DDE800010E0101046F010E0101056F240E0101EE
:10DDF800066F0CEC6AF00101B751300F0101406F5A
:10DE080018C10EF119C10FF11B0E0101106F010E9F
:10DE18000101116F260E0101126F000E0101136F2F
:10DE28001AC114F1000E0101156F91EC43F01200B4
:10DE380012000101046F01010451020D000EF324C8
:10DE4800D96E020EF420DA6EDE50DE10D8B418D087
:10DE580001010451020D000EF324D96E020EF420C4
:10DE6800DA6EDECF02F1DDCF03F1FF0E01010225EC
:10DE78000101006FFF0E010103210101016F120072
:10DE880001010451020D000EF324D96E020EF42094
:10DE9800DA6EDECF00F1DDCF01F1120012000101D0
:10DEA8000F5101011011D8B42BD0010E0101116FCF
:10DEB80007D00101D8900F3710370101112B00D07E
:10DEC800010110BF02D0F5D700D001010F510101A7
:10DED8000D5D0101105101010E59D8A009D00101B1
:10DEE8000F5101010D5F0101105101010E5B00D0BE
:10DEF8000101D89010330F330101112FE6D700D05C
:10DF08000DC10DF10EC10EF11200000169510001A1
:10DF18006A11D8B42BD0010E00016B6F07D0000135
:10DF2800D89069376A3700016B2B00D000016ABFAF
:10DF380002D0F5D700D0000169510001675D0001EA
:10DF48006A5100016859D8A009D00001695100013F
:10DF5800675F00016A510001685B00D00001D8903A
:10DF68006A33693300016B2FE6D700D067C067F0CA
:10DF780068C068F0120014D0D00E0101026FCA0EFA
:10DF8800E82EFED7022FFCD7F60E0101002501016D
:10DF9800006FFF0E010101210101016F040000D093
:10DFA80001010151E9E10B0E0101005DD8A010D07B
:10DFB800E3D70ED0150E0101026FC60EE82EFED76C
:10DFC800022FFCD700D001010007D8A001070400E8
:10DFD8000101005101010111D8A4ECD7120001017F
:10DFE800026F3F0EC716000EC66E01010251C6121F
:10DFF80001010151C71205D0C78C16D0C78CC6883D
:10E0080013D001010051000AD8B4F6D7020AD8B4D7
:10E01800F5D7010AD8B4F3D707D09486928A0DD0E1
:10E0280094860BD0949609D001010251040AD8B401
:10E03800F4D7010AD8B4F4D7F5D79488949AC68A45
:10E048001200000E01010E6F0101F65131EC75F05E
:10E05800040E01010C6F010EA1EC5AF00001A3514E
:10E0680001010C250101236F0001A45101010D21BB
:10E078000101246F91EC77F00101206F23C122F197
:10E08800010124510101216F200E0101176F010EBA
:10E098000101186F030E0101196F010E01011A6FBA
:10E0A80094EC47F012002CD04C04D8A405D054ECC2
:10E0B80076F00101BF6F00D00001CF510001CE5DA5
:10E0C800D8B00FD00001CE51010D800EF324D96EC7
:10E0D800050EF420DA6EB8EC76F0DF6E0001CE2B78
:10E0E80000D00001CF510001CE19D8A407D00001FB
:10E0F800CF51D8B403D0010E3A6E00D04C0600D0F0
:10E108004C50D8A4D1D71200000E01010D6F1FD0BA
:10E1180001010D51010DF35001010825D96EF4508C
:10E1280001010921DA6E01010D51010DF3500101C0
:10E138000625E16EF45001010721E26EDE50E61873
:10E14800D8B402D0000E120001010D2B00D001013D
:10E158000A5101010D5DD8A0DBD7010E1200120093
:10E168001D0E01011A6F250E01011B6FF8C11CF16C
:10E17800F9C11DF1FAC11EF1FBC11FF1060E010123
:10E18800406F18C10EF119C10FF11A0E0101106F7D
:10E19800010E0101116F40C112F1000E0101136F50
:10E1A800010E0101146F000E0101156F91EC43F08F
:10E1B800120012002CC121F12DC122F13C0E0101E7
:10E1C800236F010E0101246F010E0101256F6CEC14
:10E1D8003AF02CC10EF12DC10FF104EC6DF00101E4
:10E1E8002F6F2AC115F12BC116F12FC117F12EC1BE
:10E1F80018F1000E0101196F010E01011A6FA8EC48
:10E208001EF012002A8C02020CC177643277623247
:10E2180038F81180E938380700000507090CF200C2
:10E228004000D880FFFFFFFFFFFFFFFFFFFFFFFF5A
:10E23800010000006D4EC641170001000800FF00F4
:10E2480001FFFFFFFFFFFFFFFFFFFFFFFFFFFFFFD4
:10E25800FF0001012C6F000E0101EA6F2CC1C8F00C
:10E26800000E01012E6F3E0E2D6F2DC100F12EC143
:10E2780001F1000E0101036F1E0E026F37EC73F0FF
:10E2880000C12DF101C12EF12DC126F12EC127F1BA
:10E29800000E0101286F070E73EC6BF01200000EE0
:10E2A80001010B6F1BD001010B51010DF35001014E
:10E2B8000625D96EF45001010721DA6E01010B51D0
:10E2C800010DF35001010825E16EF4500101092107
:10E2D800E26EDFCFE7FF01010B2B00D001010A51ED
:10E2E80001010B5DD8A0DFD712000101026F00C148
:10E2F80001F10101013BC15001010119CF0B0119C5
:10E30800C16EC196C190C192C19402C101F10101CF
:10E3180001470147C25001010119830B0119C26E5F
:10E32800C086C088C08AC050F80B0609C06EC08E6F
:10E33800C2801200000E0101016F3E0E010101654D
:10E3480001D01AD001010151060D040EF326000E6A
:10E35800F422BD0EF324D96E0B0EF420DA6EDF50D2
:10E368000F0B0101006F020E0101006102D0010EC6
:10E3780012000101012BE1D7000E12001200000E5D
:10E388000101036F01010151030B756E00C174FF98
:10E3980002C173FF7F9E7F9C7F84000EF2BE010E38
:10E3A8000101036FF29E550E7E6EAA0E7E6E7F826D
:10E3B80000D07FB2FED7010103B102D0F29E01D096
:10E3C800F28E7F941200000E00016B6F000169AF9E
:10E3D80009D00001686D691FD8B0692B010E0001D2
:10E3E8006B6F00D068C060F069C061F00001626BBB
:10E3F8008E0E0001636F6BC064F06DEC58F060C066
:10E4080068F061C069F062C06AF0120012001A0E6A
:10E418000101006F010E0101016F9EEC51F0010135
:10E42800406F18C10EF119C10FF11A0E0101106FDA
:10E43800010E0101116F40C112F1000E0101136FAD
:10E44800010E0101146F000E0101156F91EC43F0EC
:10E458001200120093968A868986050E0101046FC0
:10E46800260EE82EFED7042FFCD700D08996680E1A
:10E478000101046FE40EE82EFED7042FFCD700D06C
:10E4880085EC77F0030E0101016FFE0E006FFF0EA1
:10E498000101026FC3EC71F012001D0E01011C6F27
:10E4A8001AC11DF11BC11EF1030E0101426F18C1F3
:10E4B8000EF119C10FF11C0E0101106F010E0101BF
:10E4C800116F42C112F1000E0101136F010E01011B
:10E4D800146F010E0101156F91EC43F012000FC18A
:10E4E80006F110C107F1DF0E0101086F010E0101ED
:10E4F800096F040E01010A6F53EC71F00101DB6929
:10E508000101DC690101DD690101DE69DF0E01013C
:10E51800066F010E0101076F90EC67F058EC77F079
:10E5280012000101016F010101510101D8B409D0A4
:10E538000001D351D8B413D0899C8B9489801200E0
:10E548000ED0010100510101D8B409D00001D55104
:10E55800D8B405D0898C8B948990120000D0899CFE
:10E568008B84899012000001616F000161510001E4
:10E57800D8B409D00001D351D8B413D0899C8B9456
:10E58800898012000ED0000160510001D8B409D072
:10E598000001D551D8B405D0898C8B94899012008C
:10E5A80000D0899C8B84899012000101026F0101BF
:10E5B8000251020D000EF324D96E020EF420DA6E19
:10E5C800DE04DE10D8A40FD001010251020D000EA6
:10E5D800F324D96E020EF420DA6E000EDE6E000E01
:10E5E800DD6E010E1200000E120012000101006F14
:10E5F800010100510101D8A409D0D59E000ED76EA3
:10E60800000ED66E850ED56ED58E1200030E010152
:10E618000019D8A41200000EB36E000EB26E8C0E54
:10E62800B16EA292A192B180120012000101046F92
:10E6380001010451D8090101056F05C102F13C0E21
:10E648008AEC73F0C80E0101056F05C102F11A0EBC
:10E658008AEC73F0000E0101056F05C102F13E0E50
:10E668008AEC73F012000101005101010203F3CF9B
:10E6780004F1F4CF05F10101005101010303F35046
:10E68800010105270101015101010203F3500101B4
:10E69800052704C100F105C101F1120012000001B3
:10E6A800605100016203F3CF64F0F4CF65F000011C
:10E6B800605100016303F3500001652700016151B7
:10E6C80000016203F3500001652764C060F065C073
:10E6D80061F01200120001012C6F01012C5101019F
:10E6E800D8B404D0010E0101EC6F1200000E010134
:10E6F800EC6F010E0101276F680E266F010E0101F4
:10E70800286F0F0E73EC6BF0120012000101036FFB
:10E7180089940101035155EC75F0E40E00D000D046
:10E72800E82EFCD700D000D00101025155EC75F05D
:10E73800E40E00D000D0E82EFCD700D000D08984A9
:10E748001200F20E0101AD17ABAC07D00101AD917B
:10E75800ABA003D00101AD8100D0ABA402D0010170
:10E76800AD85ABA202D00101AD87AECF60F000014C
:10E77800605112001200000E01010C6F010EA1EC95
:10E788005AF001010C1F01010D1F01010C4B0D2B4B
:10E798003E0E01010C250101176F000E01010D212C
:10E7A8000101186F120012000101006F060E01012D
:10E7B800006102D0000E03D001010051FB0F0101DE
:10E7C800016F070E0101016503D0070E0101016FFA
:10E7D8000101015112001200000E0101056F000E27
:10E7E8000101066F0BD01C0EBBEC74F00101066F23
:10E7F80001010651020B0101056F00D0010105510D
:10E808000101D8B4F0D71200270E01010C6F040ED5
:10E8180001010D6FD70E01010E6F000E01010F6F80
:10E82800010117515FEC3EF00009D8B402D0010E87
:10E838001200000E120012000101026F000E010109
:10E84800016F3A0E0101026108D02F0E0101026525
:10E8580004D0010E0101016F00D001C100F10101D6
:10E86800003112001200000E0101276F010E266F01
:10E87800010E0101286F020E73EC6BF0000E01010E
:10E88800276F010E266F010E0101286F030E73EC2E
:10E898006BF012000001626F000E0001616F3A0E0A
:10E8A8000001626108D02F0E0001626504D0010EDC
:10E8B8000001616F00D061C060F00001603112009A
:10E8C800120005EC77F0899E200E55EC75F00101D9
:10E8D800075155EC75F00101065155EC75F0010131
:10E8E800055155EC75F0898EE1EC76F0120008C1FF
:10E8F80000F109C101F10101026B8E0E0101036FE4
:10E90800000E0101046FDDEC57F000C108F101C1F0
:10E9180009F102C10AF1120012000101006F080E8C
:10E928000001CD6112000001CD51010D190EF32433
:10E93800D96E030EF420DA6E00C1DFFF0001CD2B83
:10E94800120012000101036F03C100F10101016B04
:10E95800240E0101026FFDEC58F003C100F1010122
:10E96800016B240E0101026FFDEC58F01200010149
:10E97800046F89940101045140090101046F0101E8
:10E98800045155EC75F06EEC76F000C103F1898402
:10E9980001010351120012000001646F8994000103
:10E9A800645140090001646F0001645167EC75F01F
:10E9B8007BEC76F060C063F089840001635112003B
:10E9C80012000101026F01010251020D000EF32431
:10E9D800D96E020EF420DA6EDE50DE10D8A402D012
:10E9E800010E1200000E12001200522A52504A184C
:10E9F800D8A41200000E0001C76F000E0001606F5E
:10EA0800000EB7EC72F0000E526E000E4A6E120045
:10EA18001200020E01010D6F0BC10EF10CC10FF1B6
:10EA28000E0E0101066F010E0101076F0DC108F1FD
:10EA38004AEC57F01200000E0101036F899E050E83
:10EA480055EC75F06EEC76F0010100510101036F91
:10EA5800898E010103511200120001010F6F01019B
:10EA68000F515318D8B4120001D012000EC104F18E
:10EA780001010F510DEC46F00FC153F01200D08E7A
:10EA8800F290F28CF196F1920F015A9F0F015A9D64
:10EA98000F015A9B0F015A99F286F190F28E9F9AB4
:10EAA80012000101016FC9CF00F19E96C69E01C1F7
:10EAB800C9FFC6BE120002D0120000D09EB61200D6
:10EAC800FDD7120012000001616FC9CF60F09E9659
:10EAD800C69E61C0C9FFC6BE120002D0120000D097
:10EAE8009EB61200FDD7120012000101036F00014B
:10EAF800BC51D8B41200000E0101016F020E006F64
:10EB080003C102F1FDEC58F01200120056C020F1CA
:10EB1800200E0101176F010E0101186F010E01018E
:10EB2800196F010E01011A6F94EC47F012000101F0
:10EB3800066F01010651010B0001D36F0101065157
:10EB48000E0B0101056F01010551FEEC75F0120075
:10EB58000001636F0001BC51D8B41200000E00011F
:10EB6800616F020E606F63C062F08AEC59F01200A8
:10EB78001200000162510201DB270001635102010A
:10EB8800DC23000164510201DD230001655102010B
:10EB9800DE2312000101046F0001D451D8A404D06F
:10EBA8000001C051D8B412000101045179EC75F08C
:10EBB800120012000101006F01010051020D000E48
:10EBC800F324D96E020EF420DA6E000EDE6E000E0B
:10EBD800DD6E12000001646F0001D451D8A404D086
:10EBE8000001C051D8B4120000016451ACEC75F0BA
:10EBF800120012000101046F0201C551F00B01015E
:10EC080004110201C56FC5C202F1340E8AEC73F01B
:10EC180012000001BC51D8B41200ABA203D0AB98CB
:10EC2800AB881200ABA41200AECF00F112001200A4
:10EC3800010E0101D96F85EC77F004C100F105C11F
:10EC480001F106C102F1C3EC71F01200200E21ECB3
:10EC580056F0400E21EC56F0FCEC76F0F0EC73F038
:10EC6800600E21EC56F012000101006F00C1B4F1F2
:10EC7800010100510101D8A41200010E0101EC6F3D
:10EC88001200120001010151030B756E00C174FFDF
:10EC98007F9C7F9E7F8000F000F07350120012006E
:10ECA8003C0EBBEC74F00101056F010105A102D017
:10ECB800010E1200000E120012000101006FACAC30
:10ECC80006D0AC900101ADA302D0AC8000D000C149
:10ECD800ADFF1200C9CF02F19E96000EC96E00D09A
:10ECE8009EA6FED7C9CF00F10101016B1200C9CF62
:10ECF80062F09E96000EC96E00D09EA6FED7C9CFC0
:10ED080060F00001616B12000101046F04C1B8F0EA
:10ED180004C1C8F2C8C202F13A0E8AEC73F01200BC
:10ED28000101006F010100510101D8B402D093968E
:10ED380012009386120012000101006F01010051B8
:10ED48000101D8B402D08A8412008A9412001200F9
:10ED5800010E0101276F2C0E266F010E0101286F8D
:10ED6800130E73EC6BF01200898489926EEC76F0C6
:10ED780000C103F189820101035112001200010848
:10ED8800010101FF01FFFF3C010101011901FFFF22
:10ED9800FFFF0101026F898489920101025155EC3C
:10EDA80075F0898212005528D8B402D0552A02D0AD
:10EDB800000E556E55501200120000D01FEC75F071
:10EDC8000101046F010104B1F9D7120000D01FEC52
:10EDD80075F00101046F010104A3F9D712000101C4
:10EDE800496F48C12CF10101495130EC26F012005D
:10EDF800070E0101046F04C102F11C0E8AEC73F0C6
:10EE08001200899E060E55EC75F0898EEAEC76F0B4
:10EE1800120000C1D7F201C1D8F20201D96BDA6B36
:10EE280012001DEC77F000C102F101C103F11200DC
:10EE38001200D60E0101006F000E0101016F1200D1
:10EE4800120002C100F103C101F146EC76F0120094
:10EE580012000101066F0101065134EC77F012002F
:10EE68000101056F0101055188EC76F01200C2A27C
:10EE780002D0010E1200000E12001200070E01014E
:10EE8800016F006912001200280ED0EC74F01BEC20
:10EE980064F012000201C5510E0B120012000101AC
:10EEA800006F00C1E9F112000101006F00C1C5F156
:10EEB8001200D39ED18E030004001200A2C100F1FB
:10EEC800A3C101F11200A2C160F0A3C161F0120058
:10EED80077C0A2F178C0A3F11200FFFFFFFFFFFF88
:10EEE800FFFF0101E951120012007DEC77F01200DA
:10EEF80012000001C151120012000101B4511200A8
:10EF0800120000D07FB2FED712000201E3511200B6
:10EF180012000001B851120012000001C551120080
:10EF280012000001C551120012000001C151120067
:10EF38001200FA0E120012000300C2010003FFFFC4
:0AEF4800FF00C28212001200120046
:10FE30000001000A006400E8031027010010000020
:10FE4000010010000100455341333030302C322E78
:10FE50003231352C312E33312C322C302C302C30A9
:10FE60003030303030303030302C003C453E4E6F3A
:10FE70007420416C6C6F77656420746F2073656EBD
:10FE8000643C2F453E003C453E5541525420426162
:10FE9000756472617465204572726F723C2F453EC5
:10FEA000004D6173743A2030782530325825303255
:10FEB000582530325825303258200049443A2030F5
:10FEC0007825303258253032582530325825303296
:10FED0005820003C453E73746279207768696C65F0
:10FEE00020696E743C2F453E003C453E476F696E6D
:10FEF0006720746F205458313C2F453E003C453EEE
:10FF00005265637620583220444154413C2F453E8F
:10FF1000004669726D776172653A2076322E323111
:10FF20003520003C453E52656376205832204243DE
:10FF30003C2F453E003C543E4765745265667265F1
:10FF400073683C2F543E0030313233343536373805
:10FF500039414243444546003C453E5541525420B8
:10FF6000464552523C2F453E003C453E5541525479
:10FF7000204F4552523C2F453E0047726F75703AF4
:10FF80002030782530325820003C543E526566724D
:10FF90006573683C2F543E004E6F64653A2030789C
:10FFA000253032582000436F723A202530325820D5
:10FFB000004261743A2025303458200053533A20CF
:10FFC0002530325820005070723A202569200054A4
:10FFD0007970653A20003C2F44413E003C2F55414A
:10FFE0003E005744525354003C44413E003C55416E
:10FFF0003E0025632000424F5200504F5200000047
:020000040020DA
:08000000FFFFFFFFFFFFFFFF00
:020000040030CA
:0E0000001D981B36FF8980FF0FC00FE00F40D8
:00000001FF
