:04080000EBEF04F026
:10080800FACF1CF0FBCF1DF0E9CF1EF0D1EF64F05A
:10081800D8CF8FF0E8CF90F0E0CF91F0FACF92F0F8
:10082800FBCF93F0E9CF94F0EACF95F0E1CF96F0C3
:10083800E2CF97F0D9CF98F0DACF99F0F3CF9AF0CA
:10084800F4CF9BF0F6CF9CF0F7CF9DF0F8CF9EF059
:10085800F5CF9FF090D0000E0001A16FF2A08FD0CD
:1008680081CFA0F000F0F2900001A0A984D0600E22
:100878000101BC19D8A466D00001CD51D8A43AD042
:100888000001C851D8A436D0E6EC75F00101F16F2B
:10089800040E00016C6F010E9DEC59F06CC077F0EE
:1008A8006DC078F0B9EC75F0D3B606D001D004D09D
:1008B800010E0101D06F00D095EC75F0B4EC75F025
:1008C8000001A251000160270001A351000161232A
:1008D800000160C062F0000161C063F00001646B58
:1008E800656B35EC74F0010E0101B96F010E000162
:1008F800CD6F41D00001C851D8B409D0F90E00011C
:100908006C6FFE0E00016D6F73EC33F034D0EAECBF
:1009180075F00009D8B409D0460E00016C6FFF0EBF
:1009280000016D6F73EC33F009D00D0E00016C6F90
:10093800FF0E00016D6F73EC33F000D0010E010162
:10094800BA6F19D0800E0101BC19D8A406D0010EC7
:100958000101BB6F72EC73F00ED0200E0101BC19BF
:10096800D8A409D0E30E00016C6FFE0E00016D6F74
:1009780073EC33F000D0010E0001A16F00D000012C
:10098800A1510001D8A467D79FC0F5FF9EC0F8FF0A
:100998009DC0F7FF9CC0F6FF9BC0F4FF9AC0F3FF11
:1009A80099C0DAFF98C0D9FF97C0E2FF96C0E1FF6F
:1009B80095C0EAFF94C0E9FF93C0FBFF92C0FAFF1D
:1009C80091C0E0FF90C0E8FF8FC0D8FF100083EF10
:1009D80054F0000ED0B6010E0101F36F000ED0B234
:1009E800010E0201F96F000ED0B0010E0201F86F7E
:1009F800D0CFFAF2E6EC4AF0030E0101016FE80EDF
:100A0800006FF9EC6DF0030E0101016FF00E006F3D
:100A1800A1EC74F00101D46F0101D429D8B404D039
:100A2800010E0101C36F00D0A8EC5AF006D08A94D9
:100A38009386AFEC75F0A8EC5AF00DC1ACF00EC17E
:100A4800ADF000D00001ADBFF2D73E0E0001AC5DA5
:100A5800080E0001AD59D8A0EAD7C2EC70F0360EE6
:100A68000101016FB00E006FF9EC6DF00101C35187
:100A78000101D8A40ED00001ADBF0BD0870E000134
:100A8800AC5D0B0E0001AD59D8A003D04FEC62F05D
:100A980000D0000E0101006F000E0101016F020E6F
:100AA8002DEC6EF00400C8EC37F00400EFC200F142
:100AB8000101016B53EC75F013EC74F0010E0001A9
:100AC800BE6F0101F3510101D8A413D0E30E010157
:100AD800126FFF0E0101136F0FEC31F0000E0101D0
:100AE800016F040E006F060E0101026FFDEC57F056
:100AF8002CD00201F9510201D8B418D00201F851E2
:100B08000201D8A413D0F70E0101126FFF0E0101E4
:100B1800136F0FEC31F0000E0101016F040E006F2E
:100B2800070E0101026FFDEC57F00FD00201F951D9
:100B38000201D8A40AD0FB0E0101126FFF0E0101B9
:100B4800136F0FEC31F0D08200D0000E39EC6CF04E
:100B5800D00E0101126FFF0E0101136F0FEC31F07F
:100B6800710E0101126FFE0E0101136F0FEC31F0CF
:100B7800F30E0101126FFF0E0101136F300E010118
:100B8800C5250101146F0101156B000E15230FEC2B
:100B980031F0B20E0101126FFF0E0101136FACC0EC
:100BA80014F1ADC015F10FEC31F0CB0E0101126F4D
:100BB800FE0E0101136FECC214F10101156BEDC2B9
:100BC80016F10101176BEEC218F10101196BEFC2A2
:100BD8001AF101011B6B0FEC31F0B10E0101126F1C
:100BE800FE0E0101136FF6C114F10101156BF7C177
:100BF80016F10101176BF8C118F10101196BF9C160
:100C08001AF101011B6B0FEC31F0990E0101126F03
:100C1800FF0E0101136FCAEC75F00301D86F0301D1
:100C2800D8510101146F156B0FEC31F07B0E0101E7
:100C3800126FFF0E0101136FC9C014F10101156B8A
:100C48000FEC31F0340E0101126FFF0E0101136F2A
:100C58000FEC31F0A70E0101126FFF0E0101136FA7
:100C6800D4C114F10101156B0FEC31F0C70E01016D
:100C7800126FFF0E0101136F81BA02D0010E01D06D
:100C8800000E0101146F156B0FEC31F0EC0E010131
:100C98000F6F020E0101106F07EC71F065EC3DF06B
:100CA80099EC72F0000E0101276F1E0E266F010EDF
:100CB8000101286F040EF8EC69F0000E0301F26FD1
:100CC800000E0101066F000E076F020E086F000E7E
:100CD800096F010E01010A6F000E0B6F000E0C6FF9
:100CE800000E0D6FF20E01010E6F030E01010F6F62
:100CF80069EC67F00301F205D8A41ED0000E0301C9
:100D0800F26F000E0101056F000E066F020E076FED
:100D1800000E086FF20E0101096F030E01010A6F40
:100D2800010E01010B6F000E0C6F000E0D6F000E0F
:100D38000E6F4EEC68F000D0EC0E0101066F020E4B
:100D48000101076FDE0E0101086F010E0101096F35
:100D5800040E01010A6FF1EC6EF00009D8B403D05B
:100D68000400FED700D0B0EC72F0000E0001BE6F98
:100D780000D00101D7510101D8A41CEF0CF0000EDE
:100D88008EEC71F00001D551D8B402D0FF0000D02C
:100D9800000E0101DD6F04000101B851D8B485D0FF
:100DA8000101BC51D8B41CD039EC72F017C15AF209
:100DB80018C15BF202015B510CE11F0E02015A5D82
:100DC800D8B007D0000E01014A6F010E54EC19F09B
:100DD80007D0000E01014A6F000E54EC19F000D044
:100DE8000101F4510101D8B426D0F60E01010B6FB0
:100DF800010E01010C6FE30E01010D6F030E0101DD
:100E08000E6FD5EC40F00301D86F1F0E0301D861B7
:100E180012D0F60E0101186F010E0101196F000EB4
:100E280001011A6FE8EC6CF00009D8B404D0000E88
:100E38000101F46F00D0000E0101B86F3E0ED7EC2F
:100E480035F0E60E0101006F010E0101016F16EC8D
:100E58004DF0E9EC53F0DAEC75F00009D8B425D080
:100E68000101F2510101D8B420D0010E0001BE6F7A
:100E7800BD0E0101126FFF0E0101136F5BEC75F0DF
:100E880002C1D9FF03C1DAFFDF500301D86F0301A4
:100E9800D8510101146F156B0FEC31F0000E0001F1
:100EA800BE6F000E0101F26F00D039EC72F017C16D
:100EB8005AF218C15BF202015B5105E1070E02010B
:100EC8005A5DD8A02AD002015B5127E11F0E02010A
:100ED8005A5DD8B022D00101D251D8B41ED0E90E43
:100EE80001010E6F030E01010F6F9A0E0101106FC1
:100EF800030E0101116FBDC112F1000E0101136F44
:100F0800010E0101146F000E0101156F8CEC44F005
:100F180000D0000E0101D26F00D00101BA51D8B43F
:100F280009D0000E0101BA6F200EB4EC55F0600E26
:100F3800B4EC55F00001CD51D8B43AD0AAEC75F014
:100F480000C117F101C118F1040E01010C6F010E67
:100F580017EC59F00CC119F10DC11AF18FEC75F0AD
:100F6800010100C11BF1010101C11CF101011D6B4F
:100F78001E6B7FEC5FF017C1E7F318C1E8F34B0E67
:100F88000301E75D010E0301E859D8A011D0010162
:100F9800B951D8B40AD00001C851D8A406D06CEC15
:100FA80069F0000E0101B96F00D091EC6EF000D02D
:100FB8001F0E01010E6F030E01010F6FE90E0101F3
:100FC800106F010E0101116FC2EC42F00009D8B494
:100FD80052D01F0E01012C6F030E01012D6FE9C1C4
:100FE8002EF1D0C12FF1F1C130F176EC2BF00009D0
:100FF800D8B43AD0220E01010E6F030E01010F6F13
:10100800A50E0101106F020E0101116FF00E010112
:10101800126F030E0101136F96EC68F00009D8B443
:1010280023D00B0E0301EF6FA50E01018A6F020E8C
:1010380001018B6F0301EF51010D1F0EF324010114
:101048008C6F030EF42001018D6F0301EF5100082E
:101058000101E92501018E6FF0C38FF1000E010136
:10106800906FF8EC12F000D0000E0001CD6F000E6A
:101078000101D06F00D0030E0101E619D8A414D0E5
:10108800030E0101E719D8A40FD0000E0101E66F85
:10109800000E0101E76F030E0101006F010EF8EC6D
:1010A80075F00101C28944D0020E0101E719D8A4E4
:1010B8000CD0000E0101E76F020E0101006F010E56
:1010C800F8EC75F00101C28733D00101E705D8A417
:1010D8000CD0000E0101E76F010E0101006F010E37
:1010E800F8EC75F00101C28523D0020E0101E61962
:1010F800D8A40ED0000E0101E66FAFEC5CF0020E32
:101108000101006F000EF8EC75F00101C28310D0E8
:101118000101E605D8A40CD0000E0101E66F010E0E
:101128000101006F000EF8EC75F00101C28100D0DA
:101138000101BB51D8B42BD0000E0101BB6F800E4A
:101148000101BC19D8A411D00101D6510101D8A4BC
:1011580005D00101D7510101D8B407D0000EB4EC75
:1011680055F0000E0101D66F10D0800E0101BC1998
:10117800D8A40BD00001C851D8A407D0200EB4ECD5
:1011880055F0600EB4EC55F000D0040000D0000E0D
:101198000101016F010E006FEB0E0101026F010EDC
:1011A8000101036F42EC53F00009D8B408D0EBC139
:1011B80000F1010EF1EC75F00101B76F07D00101E4
:1011C800CE51D8B403D00101CE0700D00101B751E8
:1011D800D8B46BD104012851C00B0301F36F03018C
:1011E800F345E846030B0301F36FEE0E0101126F9E
:1011F800FF0E0101136F0FEC31F00301F3510301EE
:10120800D8A409D1000E0101BE6FDAEC75F000090F
:10121800D8B43FD1270E0101006F040E0101016F00
:10122800020E0101026FDE0E0101036F010E0101C2
:10123800046F000E0101056F040E0101066F06EC34
:101248006BF00009D8B4BDD00A0E0101BD6FE2C130
:101258009AF3E3C19BF3E4C19CF3E5C19DF31D0E32
:1012680003019E6F2B0E03019F6F29C4A0F32AC4AC
:10127800A1F32BC4A2F32CC4A3F3010E0001BE6F8B
:101288000101E951FA0F0101E96F000E0101016F37
:10129800020E006F240E0101026FFDEC57F0000EE4
:1012A8000101016F020E006F240E0101026FFDECB7
:1012B80057F0000E0101016F020E006F0101E951A4
:1012C800040F0101026FFDEC57F0000E0101016FE0
:1012D800020E006F000E0101026FFDEC57F0000EC8
:1012E8000301ED6F000E0301F16F22D0000E010122
:1012F800016F020E006F0301F151010D9A0EF324E4
:10130800D96E030EF420DA6EDF500101026FFDEC96
:1013180057F00301F151010D9A0EF324D96E030E13
:10132800F420DA6EDF500301ED1B0301F12B00D02E
:10133800FF0E0301D86FFF0E0301D96F0101BD51E4
:101348000301DA6FDB6B0301D8510301DA270301CC
:10135800D9510301DB230301F1510301DC6FDD6B7C
:101368000301DA510301DC5D0301DD51800A030149
:10137800DE6F0301DB51800A0301DE59D8A0B6D71E
:10138800000E0101016F020E006FEDC302F1FDECCA
:1013980057F0000E0101016F020E006F0D0E0101E2
:1013A800026FFDEC57F0000E0101016F020E006F95
:1013B8000A0E0101026FFDEC57F0000E0001BE6F2E
:1013C80068D00101E851F80F0101BD6F020E030159
:1013D8009A6F270E0101006F040E0101016F060EBE
:1013E8000101026F9A0E0101036F030E0101046FE0
:1013F800010E0101056FBDC106F104EC68F029C4B6
:10140800E9F32AC4EAF32BC4EBF32CC4ECF3010E82
:101418000101D26F3ED0020E0301F319D8A439D0CE
:10142800020E0101BE6FDAEC75F00009D8B431D0B4
:10143800290E01010E6F040E01010F6FDF0E01016D
:10144800106F030E0101116FEE0E0101126F030EF2
:101458000101136F96EC68F00009D8B41AD02D0E6C
:1014680001018A6F040E01018B6F310E01018C6F2F
:10147800040E01018D6F0101E851F30F01018E6F18
:10148800280E01018F6F010E0101906FF8EC12F028
:1014980000D0000E0101B76FDD0E0101126FFF0EC3
:1014A8000101136F0FEC31F000D0010E6DEC71F0FB
:1014B8000009D8B417D0050E0101276FA00E266FBA
:1014C800020E0101286F0C0EF8EC69F00D0E56ECB7
:1014D80074F00101D6510101D8B404D0000E010105
:1014E800D66F00D00A0E6DEC71F00009D8B420D088
:1014F800F60E0101066F010E0101076FDE0E0101F4
:10150800086F010E0101096F040E01010A6FF1EC69
:101518006EF00009D8A40CD0F60E0101186F010E68
:101528000101196F000E01011A6FB0EC43F000D0F1
:101538000B0E6DEC71F00009D8B415D0000E020145
:10154800476F000E466F000E0201496F000E486F8C
:10155800000E02015D6F000E5C6F000E02015F6FEE
:10156800000E5E6F00D0000E6DEC71F00009D8B46B
:1015780004D0000E0101C26F00D00B0E5EEC73F0B8
:101588000009D8B40BD0050E0101276FA00E266FF5
:10159800020E0101286F0B0EF8EC69F00A0E5EECE2
:1015A80073F000D002013B5105E10B0E02013A5DD8
:1015B800D8A00CD0070E2EEC5CF0000EAFEC74F047
:1015C800000E02013B6F000E3A6F00D00101C151BD
:1015D800D8B40AD0000E01010D6F240E0C6F0EEC6A
:1015E80063F00101C10700D0000E02016C6F0C0E00
:1015F8005EEC73F00009D8B40CD0050E0101276F1A
:10160800A00E266F020E0101286F0C0EF8EC69F08F
:1016180000D00101D151D8B41ED0050E0101276FA9
:10162800A00E266F020E0101286F0C0EF8EC69F06F
:10163800000E0101D16F0101BC51D8B40CD00101D9
:10164800C0510101D8A407D0000E0101D66F0D0EBC
:1016580056EC74F000D00C0E6DEC71F00009D8B4A3
:101668000BD0040E0101276FB00E266F010E010189
:10167800286F0D0EF8EC69F00D0E6DEC71F0000995
:10168800D8B40BD0020E0101276F580E266F010E39
:101698000101286F0C0EF8EC69F0110E6DEC71F079
:1016A8000009D8B406D0010E0101D96F44EC2EF020
:1016B80000D0100E6DEC71F00009D8B41DD0DAEC32
:1016C80075F00009D8A418D00101F5510101D8B46A
:1016D80004D082EC6BF0000E0CD0F60E0101186FEE
:1016E800010E0101196F010E01011A6FB0EC43F0F0
:1016F800010E0101F56F00D0100E5EEC73F00009C9
:10170800D8B40CD0000E0101276F1E0E266F010EF3
:101718000101286F100EF8EC69F000D00001ADBF90
:1017280008D03E0E0001AC5D080E0001AD59D8B0DE
:101738000BD00101C0510101D8B452D00101BC51F4
:10174800D8B455D04DD053D00101C0510101D8B4FF
:1017580010D00101C0510101D8B439D00001ADBF8A
:1017680036D07D0E0001AC5D080E0001AD59D8A041
:101778002ED0000E0101C06F010E57EC6DF0010173
:10178800005101010111D8B404D00CD030D010D0D0
:101798002ED00D0E57EC6DF0010100510101011121
:1017A800D8B40DD00101BC51D8B421D001D01FD07C
:1017B8000101D6510101D8A41AD015D018D00101C1
:1017C800BC51D8A414D0000E39EC6CF010D0010133
:1017D800C0510101D8B40BD00101BC51D8B407D015
:1017E800010E0101C06F010E0101D66F00D0040E79
:1017F80001010C6F000EEDEC5FF00CC138F20DC169
:1018080039F2020138510201485D020139510201E1
:101818004959D8B009D00101DD51D8A405D038C242
:1018280048F239C249F200D047EC6FF0BDEF06F03C
:10183800C2EC6EF00009D8B4BDEF06F0AFEC75F05D
:10184800010E0001D56FBDEF06F0EBEF04F02DC1DE
:1018580021F12EC122F134C123F131C106F132C187
:1018680007F133C108F14AEC56F00101246F000E6C
:101878000101256F03EC3CF00101576F2DC106F102
:101888002EC107F12FC108F130C109F1040E010181
:101898000A6FE7EC6FF0010135510101D8A410D0AF
:1018A8002DC106F12EC107F1F40E0101086F020ED9
:1018B8000101096F040E01010A6FE7EC6FF000D017
:1018C800010E01013365F5EF12F031C1D9FF32C1C4
:1018D800DAFFDE04D8A466D1050E0101336562D1B2
:1018E800F90E010133250101006F0101016BFF0EA3
:1018F8000123000E0101036F050E026F6CEC63F00B
:101908000101005101010111D8A44CD1FF0E0101C0
:10191800366FFF0E0101376F010133510101386F36
:10192800396B010136510101382701013751010195
:1019380039230101385101013125D96E010139518D
:1019480001013221DA6E0001C951DE18D8B424D061
:10195800FF0E0101366FFF0E0101376F0101335190
:101968000101386F396B0101365101013827010136
:101978003751010139230101385101013125D96E4F
:101988000101395101013221DA6EDE28D8A4F5EFC0
:1019980012F002D0F5EF12F0000E0101596F010E9E
:1019A800586FE7D0050E010158250101366F000E6A
:1019B800010159210101376F010133510101386FCC
:1019C800396B010136510101385D01013951800A35
:1019D80001013A6F01013751800A01013A59D8A033
:1019E80082D0010159BF7FD00101595105E1060E8E
:1019F8000101585DD8A077D031C100F132C101F1A1
:101A080058C102F1400E0101036F010E0101046F7C
:101A1800000E0101056F040E0101066F04EC68F069
:101A2800040E010158250101366F000E01015921EC
:101A38000101376F0101365101013125D96E0101CC
:101A4800375101013221DA6EDF500101386F050E7E
:101A58000101396F0101D89038330101392FFAD7C4
:101A680001013851070B01014C6F040E0101582583
:101A78000101366F000E010159210101376F010183
:101A8800365101013125D96E010137510101322149
:101A9800DA6EDF501F0B0101546F1E0E01015465F1
:101AA80006D0000E01014F6F1F0E4E6F0AD0010EB7
:101AB8000101542501014E6F01014F6B000E4F23A8
:101AC80000D0400E0101156F010E0101166F57C1BC
:101AD80017F14EC118F14CC119F1000E01011A6F2E
:101AE800C2EC1DF03CD00101580501015911D8A4E0
:101AF80036D031C100F132C101F1010E0101026F8E
:101B0800E20E0101036F010E0101046F000E0101D5
:101B1800056F040E0101066F06EC6BF00009D8B4DE
:101B28001ED02DC10EF12EC10FF1040E0101582552
:101B38000101366F000E010159210101376F0101C2
:101B4800365101013125D96E010137510101322188
:101B5800DA6EDF500101106FD1EC65F000D0050E90
:101B6800010158250101586F000E01015921010199
:101B7800596F010133510101366F376B010136513D
:101B88000101585D01015951800A0101386F0101B5
:101B98003751800A01013859D8B0F5EF12F002D751
:101BA800F5EF12F031C1D9FF32C1DAFF020EDE18AB
:101BB800D8A423D0010120EE02F03151D9263251A8
:101BC800DA22DE5002017819D8A4F5EF12F0000EDF
:101BD80002016F6F000E0201A26F020E0201A36FD5
:101BE800000E0101D86F510E01013461F5EF12F0BA
:101BF800010E0201686FF5EF12F031C1D9FF32C151
:101C0800DAFF020EDF64F5EF12F00B0E0101336507
:101C1800F5EF12F0010E0101D16F000E03EC72F026
:101C2800010120EE02F03151D9263251DA22DE507C
:101C380002017819D8A40AD0000E02016F6F000EB5
:101C48000201A26F020E0201A36F00D0010120EE73
:101C580001F03151D9263251DA22DE5002017819C9
:101C6800D8A498D1700E0101006F020E0101016F16
:101C7800000E0101026F31C103F132C104F1030EFC
:101C88000101056F040E0101066F06EC6BF00009F7
:101C9800D8B480D1010120EE01F03151D92632515A
:101CA800DA22DF500101B56F010E0001BB6F2DC1B3
:101CB80006F12EC107F1E80E0101086F020E0101BD
:101CC800096F040E01010A6FE7EC6FF0010120EEC5
:101CD80007F03151D9263251DA220101E251DE18DA
:101CE800D8A424D0010120EE08F03151D926325170
:101CF800DA220101E351DE18D8A418D0010120EE40
:101D080009F03151D9263251DA220101E451DE18A5
:101D1800D8A40CD0010120EE0AF03151D926325155
:101D2800DA220101E551DE18D8B434D131C1D9FF26
:101D380032C1DAFF040EDE18D8B429D101D027D178
:101D480031C100F132C101F1030E0101026FE20E4F
:101D58000101036F010E0101046F000E0101056FFF
:101D6800040E0101066F06EC6BF00009D8A40FD130
:101D780001D00DD1010120EE0BF03151D92632519D
:101D8800DA220201A451DE5CD8B003D0000E1200A2
:101D9800FED0CDC250F1CEC251F1CFC252F1D0C265
:101DA80053F131C100F132C101F1070E0101026F97
:101DB800440E0101036F010E0101046F000E0101C1
:101DC800056F040E0101066F04EC68F0440E010172
:101DD8000B6F010E01010C6F500E01010D6F010E0A
:101DE80001010E6FD5EC40F001014D6F01015569FD
:101DF800500E0101066F010E0101076FDE0E010191
:101E0800086F010E0101096F040E01010A6FF1EC60
:101E18006EF00009D8A40AD0500E01010E6F010E11
:101E280001010F6F44EC6BF00101556F700E010159
:101E3800066F020E0101076FF00E0101086F020E16
:101E48000101096F040E01010A6FE7EC6FF078C217
:101E5800E7F21DEC75F00201786F040E0201796F4C
:101E6800060E02016F6F000E0201A26F020E020140
:101E7800A36F31C100F132C101F1030E0101026FFC
:101E8800740E0101036F020E0101046F000E0101BF
:101E9800056F040E0101066F04EC68F0E20E010103
:101EA800066F010E0101076F700E0101086F020E27
:101EB8000101096F040E01010A6FE7EC6FF0000ED3
:101EC8000201A46F1D0E02017A6F2B0E02017B6FB7
:101ED800440E0101006F010E0101016F000E0101A6
:101EE800026F7A0E0101036F020E0101046F020EE8
:101EF8000101056F040E0101066F04EC68F0500E35
:101F08000101006F010E0101016F000E0101026F56
:101F18007A0E0101036F020E0101046F060E010122
:101F2800056F040E0101066F04EC68F02DC100F185
:101F38002EC101F1000E0101026F7A0E0101036F3B
:101F4800020E0101046F0A0E0101056F040E010162
:101F5800066F04EC68F04DC188F255C189F20101A1
:101F68005551060D040EF326000EF422BD0EF3247F
:101F7800D96E0A0EF420DA6EDF500F0B02018A6F59
:101F8800110E0201A06F000E0101D86F00D0000EE3
:101F9800120000D002016F51D8A408D00001BB5133
:101FA800D8A404D00201A151D8B44ED0740E0101B6
:101FB800066F020E0101076F030E010131250101B1
:101FC800086F000E010132210101096F040E0101A1
:101FD8000A6FF1EC6EF00009D8B433D002016F51EA
:101FE800D8B42FD00001BB51D8A42BD00201A151E5
:101FF800D8A427D0010120EE01F03151D926325161
:10200800DA220201E751DE18D8A41ED0F00E010131
:10201800006F020E0101016F000E0101026F31C154
:1020280003F132C104F1030E0101056F040E010131
:10203800066F06EC6BF00009D8B406D0000E12004B
:1020480003D0000E120000D0010120EE07F031513C
:10205800D9263251DA220101E251DE18D8A424D05F
:10206800010120EE08F03151D9263251DA2201015E
:10207800E351DE18D8A418D0010120EE09F031513F
:10208800D9263251DA220101E451DE18D8A40CD045
:10209800010120EE0AF03151D9263251DA2201012C
:1020A800E551DE18D8B4D0D0010120EE0BF0315143
:1020B800D9263251DA221F0EDE18D8A402D0000E1B
:1020C8001200700E0101066F020E0101076FF00E7B
:1020D8000101086F020E0101096F040E01010A6F68
:1020E800E7EC6FF078C2E7F2010120EE01F0315120
:1020F800D9263251DA22DF500201786F31C1D9FF77
:1021080032C1DAFFDF500201796F060E02016F6FEC
:10211800000E0201A26F020E0201A36F31C100F18D
:1021280032C101F1070E0101026F740E0101036F44
:10213800020E0101046F000E0101056F040E01017A
:10214800066F04EC68F031C100F132C101F1030EF1
:102158000101026F700E0101036F020E0101046F8D
:10216800000E0101056F040E0101066F04EC68F012
:10217800010120EE0BF03151D9263251DA22DF501D
:102188000101366F010136290201A46F31C100F146
:1021980032C101F10C0E0101026F7A0E0101036FC9
:1021A800020E0101046F000E0101056F0101335198
:1021B800F40F0101066F04EC68F001013351F40FCC
:1021C8000201A06F000E0101D86F010120EE01F09D
:1021D8003151D9263251DA22DF500101B56F010E93
:1021E8000001BB6F2DC106F12EC107F1E80E0101F8
:1021F800086F020E0101096F040E01010A6FE7EC76
:102208006FF02DC121F12EC122F134C123F1010E4D
:102218000101246F010E0101256F03EC3CF001015F
:10222800576F700E0101156F020E0101166F57C12D
:1022380017F1A4C218F1000E0101196F010E010176
:102248001A6FC2EC1DF0CDD1700E0101066F020E9F
:102258000101076FF00E0101086F020E0101096FFD
:10226800040E01010A6FE7EC6FF078C2E7F2010192
:1022780020EE01F03151D9263251DA22DF50020125
:10228800786F31C1D9FF32C1DAFFDF500201796FAF
:10229800000E02016F6F000E0201A26F020E020112
:1022A800A36F31C100F132C101F1070E0101026FC4
:1022B800740E0101036F020E0101046F000E01018B
:1022C800056F040E0101066F04EC68F031C100F1DE
:1022D80032C101F1030E0101026F700E0101036F9B
:1022E800020E0101046F000E0101056F040E0101C9
:1022F800066F04EC68F031C100F132C101F1030E40
:102308000101026F2FC103F130C104F1000E010178
:10231800056F040E0101066F04EC68F0010120EE60
:102328000BF03151D9263251DA22DF500101366FD4
:10233800010136290201A46F31C100F132C101F156
:102348000C0E0101026F7A0E0101036F020E0101EA
:10235800046F000E0101056F01013351F40F0101F3
:10236800066F04EC68F001013351F40F0201A06F0D
:10237800010120EE01F03151D9263251DA22DF5025
:102388000101B56F010E0001BB6F2DC106F12EC111
:1023980007F1E80E0101086F020E0101096F040E32
:1023A80001010A6FE7EC6FF0000E0101D86F2DC133
:1023B80021F12EC122F134C123F1010E0101246F54
:1023C800010E0101256F03EC3CF00101576F700EFF
:1023D8000101156F020E0101166F57C117F1A4C252
:1023E80018F1000E0101196F010E01011A6FC2ECFC
:1023F8001DF0090E02017919D8A405D002017B51FC
:102408007AEC75F0EED002017A39E842070B010147
:10241800566F010156510101D8B41ED00101C551B2
:10242800D8B41AD00D0E010131250101006F000E3C
:10243800010132210101016FF30E01013325010170
:10244800026F0101036BFF0E032356C104F122EC56
:102458005EF0010E1200C5D0010156510101D8A449
:1024680009D00101C551D8A405D0F3D703D0F1D7BD
:102478001200B7D002017A511F0B0C0AD8B4E9D761
:1024880002017A511F0B1E0AD8A407D002017B5102
:10249800D8A403D0DED71200A4D0D1C248F1D2C24A
:1024A80049F1D3C24AF1D4C24BF131C100F132C172
:1024B80001F1070E0101026F3B0E0101036F010ECE
:1024C8000101046F000E0101056F040E0101066F82
:1024D80004EC68F03B0E01010B6F010E01010C6F5B
:1024E800480E01010D6F010E01010E6FD5EC40F091
:1024F80001013F69480E0101066F010E0101076FD6
:10250800DE0E0101086F010E0101096F040E0101C1
:102518000A6FF1EC6EF00009D8A40AD0480E010148
:102528000E6F010E01010F6F44EC6BF001013F6F5C
:10253800700E0101066F020E0101076FF00E010116
:10254800086F020E0101096F040E01010A6FE7EC22
:102558006FF078C2E7F21DEC75F00201786F040E97
:102568000201796F060E02016F6F000E0201A26F61
:10257800020E0201A36F31C100F132C101F1030E55
:102588000101026F740E0101036F020E0101046F55
:10259800000E0101056F040E0101066F04EC68F0DE
:1025A800E20E0101066F010E0101076F700E0101B5
:1025B800086F020E0101096F040E01010A6FE7ECB2
:1025C8006FF0000E0201A46F1D0E02017A6F2C0E2F
:1025D80002017B6F020E0201A06F000E0101D86F8D
:1025E80000D0000E120012008AC12DF18BC12EF10D
:1025F800A20E01012F6F010E0101306F8CC131F164
:102608008DC132F18EC133F18FC134F190C135F1F2
:102618002BEC0CF00009D8B41200000E0101A06FD9
:10262800010120EE0CF08C51D9268D51DA22DF50B1
:102638001F0B0101A16F0101A7691B0E0101A16513
:102648000BD0010120EE0DF08C51D9268D51DA22E4
:10265800DF500101A76F00D0000E0101996F0C0E29
:1026680001018C250101006F000E01018D2101017E
:10267800016F020E0101026F0C0E01018C25010190
:10268800036F000E01018D210101046F060E010187
:10269800056F040E0101066F06EC6BF00009D8B453
:1026A80026D00C0E01018C250101006F000E0101DE
:1026B8008D210101016F060E0101026F0C0E01014F
:1026C8008C250101036F000E01018D210101046FAA
:1026D8000A0E0101056F040E0101066F06EC6BF08E
:1026E8000009D8B404D0010E0101996F00D099C136
:1026F800A8F1000E01019A6F0C0E01018C25010151
:10270800006F000E01018D210101016F030E01010F
:10271800026F0C0E01018C250101036F000E0101EF
:102728008D210101046F070E0101056F040E0101DF
:10273800066F06EC6BF00009D8B426D00C0E010128
:102748008C250101006F000E01018D210101016F2F
:10275800070E0101026F0C0E01018C250101036FA8
:10276800000E01018D210101046F0B0E0101056F9F
:10277800040E0101066F06EC6BF00009D8B404D012
:10278800010E01019A6F00D09AC19BF1D5EF17F0A5
:10279800F1EF17F01AD0F1EF17F0190E01018E19A9
:1027A800D8A4F1EF17F00D0E01018C250101186F67
:1027B800000E01018D210101196F000E01011A6F30
:1027C800E8EC6CF0F1EF17F044D0010E0101A06FB6
:1027D800F1EF17F0010120EE0EF08C51D9268D5142
:1027E800DA22410EDE18D8A4F8D3010120EE0FF04A
:1027F8008C51D9268D51DA22530EDE18D8A4EDD388
:10280800010120EE10F08C51D9268D51DA22460EA6
:10281800DE18D8A4E2D3CD0E0101066F030E010124
:10282800076F110E01018C250101086F000E0101CF
:102838008D210101096F0B0E01010A6FF1EC6EF099
:102848000009D8B4CAD3000E0101D96F44EC2EF0A8
:10285800C4D30101A751030AD8B4B7D7290AD8B4F9
:10286800B9D7BBD306D10101A8510101D8B4B5D35A
:102878000E0E01018C250101186F000E01018D213A
:102888000101196F000E01011A6FE8EC6CF0A5D375
:1028980001019B510101D8B417D00F0E01018C25FD
:1028A8000101206F000E01018D210101216F01013D
:1028B80020EE0EF08C51D9268D51DA22DF5001011D
:1028C800226FD0EC4DF089D3A20E0101186F010ED2
:1028D8000101196F2D0E01011A6F010120EE01F09F
:1028E8008C51D9268D51DA22DF5001011B6FE5EC9E
:1028F80070F073D301019B510101D8B417D00F0EAA
:1029080001018C2501010E6F000E01018D210101CD
:102918000F6F010120EE0EF08C51D9268D51DA226D
:10292800DF500101106F65EC49F057D3A20E010189
:10293800186F010E0101196F2D0E01011A6F0101A7
:1029480020EE01F08C51D9268D51DA22DF50010199
:102958001B6FE5EC70F041D30101A8510101D8A427
:102968003CD301D03AD3A20E0101186F010E010128
:10297800196F2D0E01011A6F010120EE01F08C5123
:10298800D9268D51DA22DF5001011B6FE5EC70F07A
:1029980024D30101A8510101D8B41FD30E0E01019F
:1029A8008C250101186F000E01018D210101196F9D
:1029B8009FEC70F012D3010120EE0EF08C51D92655
:1029C8008D51DA22520EDE18D8A419D0010120EE5A
:1029D8000FF08C51D9268D51DA22530EDE18D8A467
:1029E8000ED0010120EE10F08C51D9268D51DA223B
:1029F800490EDE18D8A403D063EC75F0EED2A20E0F
:102A08000101186F010E0101196F2D0E01011A6FD6
:102A1800010120EE01F08C51D9268D51DA22DF50C8
:102A280001011B6FE5EC70F0D8D20101A85101013A
:102A3800D8B4D3D20E0E01018C250101186F000EF7
:102A480001018D210101196F1DEC6FF0C6D2010142
:102A5800A8510101D8B4C1D20E0E01018C25010183
:102A6800186F000E01018D210101196F76EC66F0D7
:102A7800B4D20101A751000AD8B4F5D6040AD8B4D3
:102A8800ACD2240AD8B404D7010AD8B433D7030A7D
:102A9800D8B462D7010AD8B47CD7070AD8B48BD780
:102AA800010AD8B4C2D70B0AD8B4D1D796D25BD210
:102AB8000E0E01018C2501012F6F000E01018D21E1
:102AC8000101306F3BEC39F0A20E0101186F010EC5
:102AD8000101196F9FEC70F080D28CC100F18DC19B
:102AE80001F10E0E0101026FF60E0101036F010ED6
:102AF8000101046F000E0101056F040E0101066F4C
:102B080004EC68F00D0E01018C250101186F000E10
:102B180001018D210101196F1DEC6FF05ED28CC18E
:102B280000F18DC101F10E0E0101026F8CC103F19C
:102B38008DC104F1170E0101056F040E0101066F26
:102B480006EC6BF00009D8B499D08CC100F18DC1A6
:102B580001F1170E0101026F8CC103F18DC104F15F
:102B6800200E0101056F040E0101066F06EC6BF0E3
:102B78000009D8B483D08CC100F18DC101F1120EC7
:102B88000101026F8CC103F18DC104F11B0E01011B
:102B9800056F040E0101066F06EC6BF00009D8B44E
:102BA8006DD08CC100F18DC101F11B0E0101026FC6
:102BB8008CC103F18DC104F1240E0101056F040ECF
:102BC8000101066F06EC6BF00009D8B457D001017B
:102BD80020EE1FF08C51D9268D51DA22010110EE1A
:102BE80016F08C51E1268D51E222DE50E618D8A469
:102BF80045D0010120EE28F08C51D9268D51DA22DA
:102C0800010110EE1FF08C51E1268D51E222DE50B9
:102C1800E618D8A433D00E0E01018C2501012A6FC5
:102C2800000E01018D2101012B6F120E01018C256F
:102C380001012C6F000E01018D2101012D6F010191
:102C480020EE16F08C51D9268D51DA22DF50010181
:102C58002E6F71EC6FF0A20E0101186F010E0101C9
:102C6800196F0E0E01018C2501011A6F000E01016A
:102C78008D2101011B6F5CEC4CF0AFD1A20E01015C
:102C8800186F010E0101196F2D0E01011A6F010154
:102C980020EE01F08C51D9268D51DA22DF50010146
:102CA8001B6FE5EC70F099D10E0E01018C25010126
:102CB8000E6F000E01018D2101010F6F20EC64F0F1
:102CC800A20E0101186F010E0101196F010E010119
:102CD8001A6FE8EC6CF081D1010120EE0EF08C51F6
:102CE800D9268D51DA22520EDE18D8A476D10101E8
:102CF80020EE0FF08C51D9268D51DA22530EDE18B2
:102D0800D8A46BD1010120EE10F08C51D9268D5139
:102D1800DA22540EDE18D8A460D1FF005ED101017A
:102D280020EE0EF08C51D9268D51DA22530EDE1882
:102D3800D8A453D1010120EE0FF08C51D9268D5122
:102D4800DA22460EDE18D8A448D1010120EE10F090
:102D58008C51D9268D51DA22540EDE18D8A43DD1D3
:102D6800A20E0101186F010E0101196FC7EC66F080
:102D7800010120EE11F08C51D9268D51DA22DF5055
:102D88000001D76F150E0101276F7C0E266F000E0C
:102D98000101286F110EF8EC69F01FD1010120EE36
:102DA8000EF08C51D9268D51DA22530EDE18D8A494
:102DB80058D0010120EE0FF08C51D9268D51DA221E
:102DC800520EDE18D8A44DD0010120EE10F08C511F
:102DD800D9268D51DA22460EDE18D8A442D0010138
:102DE80020EE11F08C51D9268D51DA22040EDF60C5
:102DF80038D0010120EE11F08C51D9268D51DA22FC
:102E0800DF500101986F010120EE12F08C51D92694
:102E18008D51DA22DF500101916F010191510101B9
:102E28009D6F9E6B01019D5101019E6F9D6B01017C
:102E380020EE13F08C51D9268D51DA22DF50010192
:102E4800916F0101915101019D27000E9E239DC1A3
:102E580026F19EC127F198C128F1010EF8EC69F01E
:102E6800BCD0A20E0101186F010E0101196F2D0EC1
:102E780001011A6F010120EE01F08C51D9268D5104
:102E8800DA22DF5001011B6FE5EC70F0A6D00101DA
:102E9800A8510101D8B4A1D0010120EE1BF08C513A
:102EA800D9268D51DA22DF500101916F010191512C
:102EB8000101B06FB16B0101B0510101B16FB06B8D
:102EC800010120EE1AF08C51D9268D51DA22DF50FB
:102ED8000101916F010191510101B027000EB12349
:102EE8000101B005090E0101B159D8A006D0000EA4
:102EF8000101B16F000EB06F70D0010120EE1CF01F
:102F08008C51D9268D51DA22DF500001D76F0E0E71
:102F180001018C250101186F000E01018D210101AD
:102F2800196FAFEC6CF0010120EE1DF08C51D92621
:102F38008D51DA22DF500101EA6F1E0E01018C2546
:102F48000101066F000E01018D210101076FCD0EF1
:102F58000101086F030E0101096F0B0E01010A6FD1
:102F6800E7EC6FF03AD00101A751040AD8B48FD723
:102F7800270AD8B49DD5060AD8B4AFD5030AD8B461
:102F8800CED5010AD8B490D60F0AD8B4A5D6010A6E
:102F9800D8B423D0030AD8B4C2D66A0AD8B4FED6A5
:102FA8001CD00101A151000AD8B417D0020AD8B424
:102FB8000CD4060AD8B411D0080AD8B4D1EF13F04B
:102FC800100AD8B40AD0010AD8B443D4030AD8B432
:102FD80050D5010AD8B4C7D700D00101A0510101CA
:102FE800D8A420D00C0E01018C250101816F000EA0
:102FF80001018D210101826F8FC183F1A20E0101B0
:10300800846F010E0101856FA1C186F1A7C187F107
:1030180001018E51F40F0101886FA0EC3AF0010113
:10302800A06F00D00101A0510101D8B41200E90E2F
:103038000101126FFF0E0101136F0FEC31F0010156
:10304800BE51D8A423D1010E0001BE6F01018E51DB
:10305800FD0F01019C6F000E0101016F020E006F50
:10306800240E0101026FFDEC57F0000E0101016F03
:10307800020E006F240E0101026FFDEC57F0000EE6
:103088000101016F020E006F9CC102F1FDEC57F0C7
:10309800000E0101016F020E006F000E0101026FA8
:1030A800FDEC57F0000E01019F6F000E0101016F4A
:1030B800020E006F010120EE03F08C51D9268D51CC
:1030C800DA22DF500101026FFDEC57F0010120EE1A
:1030D80003F08C51D9268D51DA22DF5001019F1B54
:1030E800000E0101016F020E006F010120EE04F0D5
:1030F8008C51D9268D51DA22DF500101026FFDEC87
:1031080057F0010120EE04F08C51D9268D51DA22B6
:10311800DF5001019F1B000E0101016F020E006FBD
:10312800010120EE05F08C51D9268D51DA22DF50AD
:103138000101026FFDEC57F0010120EE05F08C5102
:10314800D9268D51DA22DF5001019F1B000E0101A3
:10315800016F020E006F010120EE06F08C51D92696
:103168008D51DA22DF500101026FFDEC57F00101A9
:1031780020EE06F08C51D9268D51DA22DF5001015C
:103188009F1B000E0101A66F38D0000E0101016FD0
:10319800020E006F0101A6510101916F926B0C0E96
:1031A80001019127000E92230101915101018C2503
:1031B800D96E0101925101018D21DA6EDF500101B2
:1031C800026FFDEC57F00101A6510101916F926B5E
:1031D8000C0E01019127000E92230101915101016A
:1031E8008C25D96E0101925101018D21DA6EDF50D3
:1031F80001019F1B0101A62B00D0F70E0101916F61
:10320800FF0E0101926F01019C510101936F946BB4
:103218000101915101019327010192510101942368
:103228000101A6510101956F966B010193510101AE
:10323800955D01019651800A0101976F0101945132
:10324800800A01019759D8A0A0D7000E0101016F8B
:10325800020E006F9FC102F1FDEC57F0000E010154
:10326800016F020E006F0D0E0101026FFDEC57F0A9
:10327800000E0101016F020E006F0A0E0101026FBC
:10328800FDEC57F0000E0001BE6F00D0D70E010113
:10329800126FFF0E0101136F0FEC31F012001200D4
:1032A80001015A6F02016F51D8A414D00001BB511B
:1032B800D8A410D00201A151D8A40CD001014A050C
:1032C800D8A408D0010E0101486F01015A5139EC08
:1032D80075F008D0000E0101486F01015A5139EC10
:1032E80075F000D0680E01015B6F030E01015C6F81
:1032F800D2EC75F00009D8A416D0DDC20CF1DEC2FC
:103308000DF10EEC63F0010E01010C2502012E6F88
:10331800000E01010D2102012F6F000E0201E06F66
:10332800000EDF6F00D0CEEC75F00009D8B4DED007
:103338000201A151D8B47BD001015A510101D8B47E
:1033480076D0000E0201A16F5BC1D9FF5CC1DAFF24
:1033580079C2DFFF010120EE01F05B51D9265C51F3
:10336800DA2278C2DFFF010120EE02F05B51D92694
:103378005C51DA22B5C1DFFF700E0101006F020E49
:103388000101016F000E0101026F5BC103F15CC115
:1033980004F1030E0101056F040E0101066F04EC30
:1033A80068F0740E0101006F020E0101016F000E3A
:1033B8000101026F5BC103F15CC104F1070E010159
:1033C800056F040E0101066F04EC68F0010120EEA0
:1033D8000BF05B51D9265C51DA22A4C2DFFF7A0ECA
:1033E8000101006F020E0101016F000E0101026F61
:1033F8005BC103F15CC104F10C0E0101056FA0C2B1
:1034080006F104EC68F0DE0E0101326F010E0101D5
:10341800336F5D0E0101346F030E0101356F020138
:10342800A0510C0F0101366F9AEC5EF05BD00201DF
:103438002E510201DF1956E102012F510201E01954
:10344800D8A450D001015A510101D8B442D0DAECC5
:1034580075F00009D8B43DD00101EE51D8B427D099
:1034680079EC28F00101516FDE0E0101326F010E77
:103478000101336F5D0E0101346F030E0101356FD9
:1034880051C136F19AEC5EF00009D8A42BD001D0D6
:1034980029D00201DD5102012E5D0201DE51020137
:1034A8002F59D8B01FD002012E4B2F2B1BD0DE0E68
:1034B8000101326F010E0101336F5D0E0101346F9E
:1034C800030E0101356F000E0101366F9AEC5EF0B4
:1034D80009D0960E0101126FFE0E0101136F0FEC59
:1034E80031F000D00201DF4BE02BE3D2C9C256F124
:1034F800CAC257F1CBC258F1CCC259F10101D85117
:10350800D8A4C1D00101D82B0201A251D8A4B8D0A7
:10351800010E02016F65CDD2740E01010B6F020E10
:1035280001010C6F560E01010D6F010E01010E6FA6
:10353800D5EC40F00101526F0001BB51D8B416D050
:10354800560E0101066F010E0101076FE80E010119
:10355800086F020E0101096F040E01010A6FF1ECF8
:103568006EF00009D8A4A5D201D0A3D2A3C20CF151
:1035780001010D6B0EEC63F001010C510201A26F09
:1035880001015A510101D8B494D202016F07020116
:10359800A32B1F0E010152618CD25BC1D9FF5CC104
:1035A800DAFF79C2DFFF010120EE01F05B51D92675
:1035B8005C51DA2278C2DFFF010120EE02F05B5194
:1035C800D9265C51DA22B5C1DFFF700E0101006F08
:1035D800020E0101016F000E0101026F5BC103F1D0
:1035E8005CC104F1030E0101056F040E0101066FB1
:1035F80004EC68F0740E0101006F020E0101016F06
:10360800000E0101026F5BC103F15CC104F1070EFA
:103618000101056F040E0101066F04EC68F0010159
:1036280020EE0BF05B51D9265C51DA22A4C2DFFFF1
:103638007A0E0101006F020E0101016F000E0101F7
:10364800026F5BC103F15CC104F10C0E0101056F4F
:10365800A0C206F104EC68F0560E0101326F010EAB
:103668000101336F5D0E0101346F030E0101356FE7
:103678000201A0510C0F0101366F9AEC5EF019D2CD
:103688000201A20716D20101D805D8A4E8D000018A
:10369800BB51D8B4E4D00101D82B740E01010B6FD3
:1036A800020E01010C6F560E01010D6F010E010192
:1036B8000E6FD5EC40F00101536F010E02016F65EA
:1036C8009CD0560E0101066F010E0101076FE80E2E
:1036D8000101086F020E0101096F040E01010A6F52
:1036E800F1EC6EF00009D8B488D0000E02016F6FBB
:1036F800000E0201A26F020E0201A36F01015A51CE
:103708000101D8B4D6D11F0E01015361D2D1000EE8
:103718000001BB6F5BC1D9FF5CC1DAFF79C2DFFF73
:10372800010120EE01F05B51D9265C51DA2278C202
:10373800DFFF010120EE02F05B51D9265C51DA224D
:10374800B5C1DFFF700E0101006F020E0101016FAC
:10375800000E0101026F5BC103F15CC104F1030EAD
:103768000101056F040E0101066F04EC68F0740E88
:103778000101006F020E0101016F000E0101026FCD
:103788005BC103F15CC104F1070E0101056F040E72
:103798000101066F04EC68F0010120EE0BF05B51AB
:1037A800D9265C51DA22A4C2DFFF7A0E0101006F2C
:1037B800020E0101016F000E0101026F5BC103F1EE
:1037C8005CC104F10C0E0101056FA0C206F104EC06
:1037D80068F0560E0101326F010E0101336F5D0E64
:1037E8000101346F030E0101356F0201A0510C0F66
:1037F8000101366F9AEC5EF05CD1000E0001BB6FE0
:103808005BC1D9FF5CC1DAFF020EDF6E010120EE59
:1038180001F05B51D9265C51DA22000EDF6E0101FE
:1038280020EE02F05B51D9265C51DA22B5C1DFFFE8
:1038380001015A510101D8B43CD1E80E0101326F9F
:10384800020E0101336F5D0E0101346F030E010199
:10385800356F030E0101366F9AEC5EF02AD1020E25
:103868000101D86523D102016F05D8A41BD1210E0F
:103878000101126FFF0E0101136F0FEC31F0740E8E
:1038880001010B6F020E01010C6F560E01010D6F45
:10389800010E01010E6FD5EC40F00101546F0101DA
:1038A8005569560E0101066F010E0101076FDE0E04
:1038B8000101086F010E0101096F040E01010A6F71
:1038C800F1EC6EF00009D8A40BD0560E01010E6F72
:1038D800010E01010F6F44EC6BF00101556F00D030
:1038E800040E02017919D8B414D0700E0101066FC4
:1038F800020E0101076FE20E0101086F010E0101BE
:10390800096F040E01010A6FF1EC6EF00009D8B4DA
:103918000AD0000E02016F6F000E0201A26F020EA4
:103928000201A36FBFD0700E0101066F020E0101E4
:10393800076FE20E0101086F010E0101096F040E05
:1039480001010A6FF1EC6EF00009D8A4ABD001D0E8
:10395800A9D0700E0101066F020E0101076FF00E6B
:103968000101086F020E0101096F040E01010A6FBF
:10397800E7EC6FF078C2E7F21DEC75F00201786FA2
:10398800040E0201796F060E02016F6F000E02012C
:10399800A26F020E0201A36F740E0101066F020EE0
:1039A8000101076F4D0E0101086F010E0101096F3A
:1039B800040E01010A6FE7EC6FF0700E0101066F4B
:1039C800020E0101076F740E0101086F020E01015A
:1039D800096F040E01010A6FE7EC6FF0E20E0101B6
:1039E800066F010E0101076F700E0101086F020ECC
:1039F8000101096F040E01010A6FE7EC6FF0000E78
:103A08000201A46F1D0E02017A6F2B0E02017B6F5B
:103A18004D0E0101006F010E0101016F000E010141
:103A2800026F7A0E0101036F020E0101046F020E8C
:103A38000101056F040E0101066F04EC68F0560ED3
:103A48000101006F010E0101016F000E0101026FFB
:103A58007A0E0101036F020E0101046F060E0101C7
:103A6800056F040E0101066F04EC68F054C184F27E
:103A780055C185F201015551060D040EF326000EBD
:103A8800F422BD0EF324D96E0A0EF420DA6EDF504C
:103A98000F0B0201866F0D0E0201A06F000E0101CF
:103AA800D86F00D0000E0101D86F03D00101D82BC8
:103AB80000D0D2EC75F00009D8A40CD00201642B18
:103AC800020E0201646506D027EC4AF0000E0201DE
:103AD800646F00D00201602B0101ED510201605DAD
:103AE800D8A03FD00101B651020DC90EF324D96EFA
:103AF800080EF420DA6EDF38E832E832030B0009EA
:103B0800D8B422D0010E01014B6F0101B651020D4C
:103B1800C90EF324D96E080EF420DA6EDF380101DD
:103B28004C6F4C334C31030B4C6F01014B5101016D
:103B38004C5F01014C3B4C374C37DF5001014C19AD
:103B48003F0B4C19DF6E00D00101B62BF90E0101B5
:103B5800B66503D0000E0101B66F000E0201606F5A
:103B680000D0070E6DEC71F00009D8B4120065ECB6
:103B78003DF0010E0101EE6F1200120015C106F1B1
:103B880016C107F1E20E0101086F010E0101096F6C
:103B9800040E01010A6FF1EC6EF00009D8A41200BE
:103BA80001D0120001011729D8B4120001D0120067
:103BB800030E0101086F01011751060D050EF326CA
:103BC800000EF422BD0EF324D96E0A0EF420DA6E2C
:103BD800DF5011EC47F00101196151D0030E0101CA
:103BE800086F01011751060D050EF326000EF42289
:103BF800BD0EF324D96E0A0EF420DA6EDF5011ECF4
:103C080047F001011B6F01011751060D040EF32641
:103C1800000EF422BD0EF324D96E0A0EF420DA6EDB
:103C2800DF380F0B52EC72F001011B5DD8B012D0D7
:103C380001011751060D040EF326000EF422BD0EE5
:103C4800F324D96E0A0EF420DA6EDF380F0B52EC2B
:103C580072F03AD0030E0101086F01011751060DE9
:103C6800050EF326000EF422BD0EF324D96E0A0EBB
:103C7800F420DA6EDF5011EC47F026D02BD001018A
:103C88001751060D040EF326000EF422BD0EF32480
:103C9800D96E0A0EF420DA6EDF380F0B52EC72F090
:103CA8000101196114D001011751060D040EF32604
:103CB800000EF422BD0EF324D96E0A0EF420DA6E3B
:103CC800DF380F0B52EC72F001011F6F03D019C1DE
:103CD8001FF100D0000E0101206FF90E01012065CF
:103CE80001D06BD215C104F116C105F101012051B3
:103CF800ADEC5BF00009D8B45DD201012051020D92
:103D0800C90EF324D96E080EF420DA6EDF503F0B8B
:103D18007EEC65F001011C6F01012051020D010EBE
:103D2800F326000EF422C90EF324D96E080EF420EF
:103D3800DA6EDF38E832070B01011B6F01011C51F5
:103D480001011B5DD8B019D01CC11BF10101205124
:103D5800020D010EF326000EF422C90EF324D96ECB
:103D6800080EF420DA6E01011B3B1B47DF500101EE
:103D78001B191F0B1B19DF6E00D001011A5101011D
:103D8800D8B42DD001012051020D010EF326000EEA
:103D9800F422C90EF324D96E080EF420DA6EDF502F
:103DA80001011819E00B1819DF6E01012051020DED
:103DB800C90EF324D96E080EF420DA6EDF50010123
:103DC8001719C00B1719DF6E01012051020DC90E1A
:103DD800F324D96E080EF420DA6EC00EDF1201014A
:103DE8002051020DC90EF324D96E080EF420DA6EA4
:103DF800DF503F0B01011719D8A444D01FC11BF194
:103E080001012051020D010EF326000EF422C90E05
:103E1800F324D96E080EF420DA6E01011B3B1B4710
:103E2800DF5001011B191F0B1B19DF6E0101205107
:103E3800020D010EF326000EF422C90EF324D96EEA
:103E4800080EF420DA6EDF501F0B01011819D8B4E0
:103E580005D0010117510AEC73F000D0010120517F
:103E6800020D010EF326000EF422C90EF324D96EBA
:103E7800080EF420DA6EDF5001011819E00B18194A
:103E8800DF6E120001012051020DC90EF324D96E14
:103E9800080EF420DA6EDF38E832E832030B000946
:103EA800D8A4120001012051020D010EF326000EC4
:103EB800F422C90EF324D96E080EF420DA6EDF3826
:103EC800E832070B070AD8A43BD001012051020DA4
:103ED800010EF326000EF422C90EF324D96E080E43
:103EE800F420DA6EDF5001011819E00B1819DF6EA3
:103EF80001012051020DC90EF324D96E080EF420D9
:103F0800DA6EDF5001011719C00B1719DF6E1FC1D8
:103F18001BF101012051020D010EF326000EF422BF
:103F2800C90EF324D96E080EF420DA6E01011B3B8A
:103F38001B47DF5001011B191F0B1B19DF6E1200F5
:103F480001012051020D010EF326000EF422C90EC4
:103F5800F324D96E080EF420DA6EDF501F0B01012E
:103F6800186145D001011F510001D95DD8A0120088
:103F780001012051020D010EF326000EF422C90E94
:103F8800F324D96E080EF420DA6EDF5001011819F7
:103F9800E00B1819DF6E01012051020DC90EF32440
:103FA800D96E080EF420DA6EDF5001011719C00B24
:103FB8001719DF6E1FC11BF101012051020D010EFF
:103FC800F326000EF422C90EF324D96E080EF4204D
:103FD800DA6E01011B3B1B47DF5001011B191F0B48
:103FE8001B19DF6E010117510AEC73F01200010171
:103FF8002051020D010EF326000EF422C90EF324FF
:10400800D96E080EF420DA6EDF501F0B0101181963
:10401800D8A461D001012051020D010EF326000E33
:10402800F422C90EF324D96E080EF420DA6EDF38B4
:10403800E832070B01011F61120001012051020D36
:10404800010EF326000EF422C90EF324D96E080ED1
:10405800F420DA6EDF38E832070B0001D96112006C
:1040680001012051020D010EF326000EF422C90EA3
:10407800F324D96E080EF420DA6EDF500101181906
:10408800E00B1819DF6E01012051020DC90EF3244F
:10409800D96E080EF420DA6EDF5001011719C00B33
:1040A8001719DF6E1FC11BF101012051020D010E0E
:1040B800F326000EF422C90EF324D96E080EF4205C
:1040C800DA6E01011B3B1B47DF5001011B191F0B57
:1040D8001B19DF6E120001012051020D010EF3269B
:1040E800000EF422C90EF324D96E080EF420DA6EFD
:1040F800DF501F0B01011B6F0101185101011B5DEE
:10410800D8B012000001D95101011F5DD8B01200CA
:1041180001012051020D010EF326000EF422C90EF2
:10412800F324D96E080EF420DA6EDF38E832070B74
:104138000001D961120001012051020D010EF32680
:10414800000EF422C90EF324D96E080EF420DA6E9C
:10415800DF5001011819E00B1819DF6E0101205119
:10416800020DC90EF324D96E080EF420DA6EDF5062
:1041780001011719C00B1719DF6E1FC11BF10101CF
:104188002051020D010EF326000EF422C90EF3246D
:10419800D96E080EF420DA6E01011B3B1B47DF5075
:1041A80001011B191F0B1B19DF6E010117510AECC6
:1041B80073F012000101202B90D51F0E0101186128
:1041C80060D0000E01011E6FF90E01011E6501D0BD
:1041D80058D0DE0E0101046F010E0101056F0101C7
:1041E8001E51ADEC5BF00009D8B447D015C107F1FA
:1041F80016C108F101011E5125EC69F001011E519B
:10420800020D010EF326000EF422C90EF324D96E16
:10421800080EF420DA6EDF5001011819E00B1819A6
:10422800DF6E01011E51020DC90EF324D96E080E6E
:10423800F420DA6EDF5001011719C00B1719DF6E71
:104248001FC11BF101011E51020D010EF326000EC4
:10425800F422C90EF324D96E080EF420DA6E010197
:104268001B3B1B47DF5001011B191F0B1B19DF6E7E
:10427800010117510AEC73F0120001011E2BA4D79B
:1042880000D01F0E010118611200B0C01DF1F90E17
:1042980001011D6502D01200120001011D51020D1D
:1042A800010EF326000EF422C90EF324D96E080E6F
:1042B800F420DA6EDF501F0B1F0AD8B40ED00101AC
:1042C8001D51020DC90EF324D96E080EF420DA6EC2
:1042D800DF503F0B3F0AD8A454D015C107F116C1CF
:1042E80008F10001B05125EC69F00001B051020D50
:1042F800010EF326000EF422C90EF324D96E080E1F
:10430800F420DA6EDF5001011819E00B1819DF6E7E
:104318000001B051020DC90EF324D96E080EF42025
:10432800DA6EDF5001011719C00B1719DF6E1FC1B4
:104338001BF10001B051020D010EF326000EF4220C
:10434800C90EF324D96E080EF420DA6E01011B3B66
:104358001B47DF5001011B191F0B1B19DF6E0001E2
:10436800B051020DC90EF324D96E080EF420DA6E8E
:104378003F0EDF16010117510AEC73F01DC1B0F0B2
:104388001200F90E01011D19D8A404D0000E000175
:10439800B06F00D001011D2BF90E01011D657DD7FD
:1043A800120012001200000E4A6E000E4B6E000E34
:1043B8000001B36F000E0001B96F020E6DEC71F0D1
:1043C8000009D8B435D1010E4A6E0001B42B020E93
:1043D8000001B419D8A4FBD0000E0001B46FF7D0C7
:1043E800000E0001B36F000E0101276F1E0E266F2D
:1043F800000E0101286F020EF8EC69F019D1010EC8
:104408000001B36F000E0101276F1E0E266F000E0C
:104418000101286F020EF8EC69F00AD10001B40519
:10442800D8A404D0010E0001B36F00D0000E010122
:10443800276F400E266F000E0101286F020EF8EC60
:1044480069F0F6D00001B405D8A404D0010E00012B
:10445800B36F00D0000E0101276F7D0E266F000E8E
:104468000101286F020EF8EC69F0E2D000D00001DB
:10447800B405D8A404D0010E0001B36F00D0000E1B
:104488000101276FFA0E266F000E0101286F020E38
:10449800F8EC69F0CDD00001B405D8A404D0010E21
:1044A8000001B36F00D0010E0101276FF40E266FD3
:1044B800000E0101286F020EF8EC69F0B9D0000176
:1044C800B405D8A404D0010E0001B36F00D0030EC8
:1044D8000101276FE80E266F000E0101286F020EFA
:1044E800F8EC69F0A5D00001B405D8A404D0010EF9
:1044F8000001B36F00D0090E0101276FC40E266FAB
:10450800000E0101286F020EF8EC69F091D000014D
:10451800B405D8A404D0010E0001B36F00D0130E67
:104528000101276F880E266F000E0101286F020E09
:10453800F8EC69F07DD00001B405D8A421D0010EB3
:104548000001B36F3850D8A40DD0000E0101276FB9
:10455800500E266F000E0101286F020EF8EC69F06C
:10456800010E0CD0090E0101276F740E266F000E84
:104578000101286F020EF8EC69F0000E386E58D071
:104588003850D8B40CD0000E0101276F500E266F9A
:10459800000E0101286F020EF8EC69F049D0090EEF
:1045A8000101276F740E266F000E0101286F020E9D
:1045B800F8EC69F03DD0000E0101276F1E0E266F42
:1045C800000E0101286F020EF8EC69F031D00001ED
:1045D800B251000AD8B404D7010AD8B410D7030AD4
:1045E800D8B41CD7010AD8B42DD7070AD8B43FD7F6
:1045F800010AD8B450D7030AD8B461D70D0AD8B481
:1046080036D7070AD8B433D7010AD8B430D7030A43
:10461800D8B42DD7010AD8B42AD71F0AD8B463D77B
:10462800010AD8B474D7030AD8B485D7C4D700D040
:10463800030E6DEC71F00009D8B435D1010E4B6E44
:104648000001B52B020E0001B519D8A4FBD0000E4D
:104658000001B56FF7D0000E0001B96F000E01011F
:10466800276F1E0E266F000E0101286F030EF8EC4F
:1046780069F019D1010E0001B96F000E0101276F11
:104688001E0E266F000E0101286F030EF8EC69F06C
:104698000AD10001B505D8A404D0010E0001B96FF4
:1046A80000D0000E0101276F400E266F000E010199
:1046B800286F030EF8EC69F0F6D00001B505D8A410
:1046C80004D0010E0001B96F00D0000E0101276F60
:1046D8007D0E266F000E0101286F030EF8EC69F0BD
:1046E800E2D000D00001B505D8A404D0010E000125
:1046F800B96F00D0000E0101276FFA0E266F000E69
:104708000101286F030EF8EC69F0CDD00001B50562
:10471800D8A404D0010E0001B96F00D0010E010128
:10472800276FF40E266F000E0101286F030EF8ECB8
:1047380069F0B9D00001B505D8A404D0010E000174
:10474800B96F00D0030E0101276FE80E266F000E27
:104758000101286F030EF8EC69F0A5D00001B5053A
:10476800D8A404D0010E0001B96F00D0090E0101D0
:10477800276FC40E266F000E0101286F030EF8EC98
:1047880069F091D00001B505D8A404D0010E00014C
:10479800B96F00D0130E0101276F880E266F000E27
:1047A8000101286F030EF8EC69F07DD00001B50512
:1047B800D8A421D0010E0001B96F3B50D8A40DD068
:1047C800000E0101276F500E266F000E0101286FA1
:1047D800030EF8EC69F0010E0CD0090E0101276FE9
:1047E800740E266F000E0101286F030EF8EC69F0B5
:1047F800000E3B6E58D03B50D8B40CD0000E0101CF
:10480800276F500E266F000E0101286F030EF8EC7B
:1048180069F049D0090E0101276F740E266F000E4A
:104828000101286F030EF8EC69F03DD0000E01017C
:10483800276F1E0E266F000E0101286F030EF8EC7D
:1048480069F031D00001B851000AD8B404D7010A80
:10485800D8B410D7030AD8B41CD7010AD8B42DD7B6
:10486800070AD8B43FD7010AD8B450D7030AD8B436
:1048780061D70D0AD8B436D7070AD8B433D7010A96
:10488800D8B430D7030AD8B42DD7010AD8B42AD758
:104898001F0AD8B463D7010AD8B474D7030AD8B4A6
:1048A80085D7C4D700D0090E0001B219D8A40CD0FE
:1048B8004B50D8B409D00001B5510001D8A404D098
:1048C800010E0001B36F00D00A0E0001B819D8A478
:1048D8000CD04A50D8B409D00001B4510001D8A472
:1048E80004D0010E0001B96F00D0080E0001B21902
:1048F800D8A40CD04B50D8B409D00001B95100014C
:10490800D8B404D0010E0001B36F00D0070E000127
:10491800B819D8A40CD04A50D8B409D00001B35162
:104928000001D8B404D0010E0001B96F00D0000115
:10493800B9510001D8B40DD03A50D8B402D03A06D3
:1049480000D00001B7510001D8B403D00001B70767
:1049580000D00001B3510001D8B40DD03750D8B4FD
:1049680002D0370600D00001B1510001D8B403D0FD
:104978000001B10700D00001B1510001D8B403D043
:10498800000E0001B36F0001B7510001D8B403D085
:10499800000E0001B96F3750D8B424D035D022D0DA
:1049A8000A0E0001B16F0001B151040F13D00A0EB5
:1049B8000001B16F0001B151030F0CD00A0E0001C4
:1049C800B16F0001B151020F05D00A0E0001B16F9D
:1049D8000001B129376E18D00A0E0001B16FB1C0BD
:1049E80037F012D00001B2510B0AD8B4D9D7070A50
:1049F800D8B4DDD7010AD8B4E1D7030AD8B4E5D7CB
:104A0800010AD8B4E9D700D03A50D8B424D035D068
:104A180022D00A0E0001B76F0001B751040F13D05E
:104A28000A0E0001B76F0001B751030F0CD00A0E30
:104A38000001B76F0001B751020F05D00A0E00013F
:104A4800B76F0001B7293A6E18D00A0E0001B76F88
:104A5800B7C03AF012D00001B8510B0AD8B4D9D770
:104A6800070AD8B4DDD7010AD8B4E1D7030AD8B405
:104A7800E5D7010AD8B4E9D700D00001B351FCEC5E
:104A880074F00001B951F0EC74F012000101416FAB
:104A98000101C451D8A404D00101DC51D8B44AD2D0
:104AA800800E0101BC19D8B459D02CC00DF12DC00D
:104AB8000EF1E1C20FF1E2C210F18DEC6DF00101CF
:104AC8000D5101010E11D8A413D0000E01010E6F73
:104AD8000001C551010D000EF324D96E060EF42015
:104AE800DA6EDF50AAEC73F0010E0001BF6F27D019
:104AF8002CC10EF1C5C000F10101016BCFC102F15B
:104B08000101036BC90E0101046F000E056F000E51
:104B1800066F000E076F74EC6CF0000E01010025A3
:104B2800D96E060E01010121DA6EDF50AAEC73F08E
:104B3800000E0001BF6F000E0101BF6F00D0020E12
:104B48000101DC19D8A406D0010E0101C46F000EC2
:104B58000101DC6F000E0101DA6F2BD0020E01019A
:104B6800DC19D8A407D0010E0101C46F000E0101A1
:104B7800DC6F1FD00101DA2B010E0101DA6519D0B3
:104B8800F25000D0070E2EEC5CF0000E0101C46F4D
:104B9800000E0101DC6F010E0101EF6F000E010133
:104BA800016F040E006F030E0101026FFDEC57F058
:104BB80000D02C042D10D8A407D0010E436EA2C03B
:104BC80034F0A3C035F000D0080E6DEC71F0000988
:104BD800D8B408D00101CD51D8B404D0010E0101D8
:104BE800D36F00D0080E5EEC73F00009D8B42ED055
:104BF8000101CD51D8A41CD0D8C00CF101010D6B16
:104C08000EEC63F001010C510001CC6F0001CC5196
:104C180000080001D8250101CD6FCCC026F10101A3
:104C2800276B010E0101286F080EF8EC69F00ED011
:104C3800CDC126F10101276B010E0101286F080E75
:104C4800F8EC69F0000E0101CD6F00D00001C751EA
:104C58000001D8A406D002013C5102013D11D8B48C
:104C680042D10001BF51D8B43ED1010141510101E7
:104C7800D8B439D13EC22DF13FC22EF101012D1F0A
:104C88002E1F2D4B2E2B040E01010C6F010E17EC5D
:104C980059F001012D5101010C250101466F010157
:104CA8002E5101010D210101476F46C12DF147C168
:104CB8002EF101012D1F2E1F2D4B2E2B2DC144F13E
:104CC8002EC145F1080E0101475DD8A00BD0FE0E9C
:104CD8000101465D0F0E01014759D8B003D000010C
:104CE800C72B36D0010146290F0E01014759D8A01C
:104CF8000CD0FD0E0101465D170E01014759D8B0D1
:104D080004D0020E0001C72723D0080E0101455D1B
:104D1800D8A00BD0FE0E0101445D0F0E01014559CC
:104D2800D8B003D00001C70713D0010144290F0EE2
:104D380001014559D8A00CD0FD0E0101445D170EA4
:104D480001014559D8B004D0020E0001C75F00D058
:104D5800040E01010C6F010E17EC59F00CC146F15D
:104D68000DC147F1A2C000F1A3C001F146C102F193
:104D780047C103F1000E0101046F000E056F010E1B
:104D8800066F000E076F74EC6CF000C137F101C1BB
:104D980038F137C117F138C118F13CC219F13DC2D9
:104DA8001AF1000E01011B6F000E1C6F010E1D6F22
:104DB800000E1E6F7FEC5FF017C142F118C143F17E
:104DC80042C10DF143C10EF1070E0101106F0F69C9
:104DD8008DEC6DF00DC13DF10EC13EF13DC10DF1FF
:104DE8003EC10EF1040E01010F6F010E65EC45F096
:104DF80001013D510101425F01013E510101435B47
:104E080042C1A2F043C1A3F042C106F143C107F178
:104E1800070E0101096F086984EC6AF006C12CF0DD
:104E280007C12DF0C5C017F10101186BC7C019F1F2
:104E380001011A6BC90E01011B6F000E1C6F000ED9
:104E48001D6F000E1E6F7FEC5FF00101175100010E
:104E5800C56FC7C02FF10101306B000E0001C76F8D
:104E6800000E02013D6F000E3C6F000E0201336F11
:104E7800000E326F2C502D10D8A408D0000E2D6EC5
:104E8800100E2C6E30C2A2F031C2A3F0070E356EA0
:104E98003468020E0101DC6F040E01010C6F010E73
:104EA80017EC59F00001A25101010C2501013F6FD7
:104EB8000001A35101010D210101406FD2EC75F0F1
:104EC8000101316F3FC133F1010140510101326FDE
:104ED800000E0101016F040E006F020E0101026F46
:104EE800FDEC57F023D00001C5510001D119D8A419
:104EF8000BD00101C451D8B407D0010141510101BF
:104F0800D8A414D001D012D00101D351D8B40ED0F6
:104F1800D6EC75F00009D8B409D00101415101015E
:104F2800D8B404D0000E0101D36F00D002014C4B5D
:104F38004D2B4ED0060E5EEC73F00009D8B41CD091
:104F4800000E01010D6F320E0C6F0EEC63F0540E63
:104F580001010C250101396F240E01010D21010108
:104F68003A6F39C126F13AC127F1000E0101286FC5
:104F7800060EF8EC69F000D0060E6DEC71F0000931
:104F8800D8B40DD0000E01010E6F0001DA51AAEC61
:104F980073F0000E0201E46F010EE36F00D002010E
:104FA800E4510BE1330E0201E35DD8B006D0F1EC19
:104FB80073F00201E34BE42B00D0330E0201E31936
:104FC8000201E411D8A404D00201E34BE42B00D081
:104FD8000001D1510001D8A404D0C80E0001D16F3E
:104FE80003D00001D10700D0050E6DEC71F0000967
:104FF800D8A45FEC6EF0090E5EEC73F00009D8B42B
:105008004CD0E2EC75F001012D6F01012D513E0DE0
:10501800F3CF3BF1F4CF3CF13BC108F13CC109F1BE
:10502800F4EC72F008C10BF109C10CF10AC10DF1E1
:10503800000E01010E6F7A0E01010F6F440E01017F
:10504800106FF0EC51F00BC134F10CC135F10DC10A
:1050580036F1000E01010B6F280E01010C6F430E93
:1050680001010D6F34C108F135C109F136C10AF1EA
:1050780087EC4EF008C117F109C118F10AC119F1FE
:1050880047EC51F017C126F118C127F1010E0101B3
:10509800286F090EF8EC69F000D0090E6DEC71F07C
:1050A8000009D8B417D0070E2EEC5CF0000E0101F1
:1050B800C46F000E0101DC6F010E0101EF6F000EDD
:1050C8000101016F040E006F050E0101026FFDEC76
:1050D80057F000D00F0E6DEC71F00009D8B4120033
:1050E800010E0101EF6F12001200000E0101176F8F
:1050F800680E0101256F030E0101266F25C1D9FF36
:1051080026C1DAFF010EDF6E000E0101186F060ED0
:105118000101186F010E0101226F010E01012265C4
:1051280001D096D00001BD51060DBD0EF32401013A
:10513800066F0A0EF4200101076FDE0E0101086FE9
:10514800010E0101096F040E01010A6FF1EC6EF006
:105158000009D8A449D00001BD51060D050EF3265B
:10516800000EF422BD0EF324D96E0A0EF420DA6E76
:10517800DE28D8B439D00001BD51060DBD0EF32488
:105188000101006F0A0EF4200101016F000E0101F8
:10519800026F25C103F126C104F1010E0101056F5B
:1051A800040E0101066F04EC68F0010120EE05F021
:1051B8002551D9262651DA22040E0101086F000173
:1051C800BD51060D050EF326000EF422BD0EF32484
:1051D800E16E0A0EF420E26EE75011EC47F0DF6E44
:1051E800010E0101176F03D00101220700D03E0E06
:1051F8000001BD6103D00001BD2B27D0000E0001C6
:10520800BD6F010117510101D8A422D0DE0E0101A2
:10521800006F010E0101016F000E0101026F25C12F
:1052280003F126C104F1010E0101056F040E01010D
:10523800066F04EC68F0010120EE05F02551D9262F
:105248002651DA22FF0EDF6E03D00101222B65D72B
:10525800000E01011C6F000E0101246F000E0101F8
:10526800196FBCC016F11AD20001CE51D8B4FCD0C7
:1052780001012451010D170EF324D96E030EF420F9
:10528800DA6EDF500101236F1E0E01010C6F010E53
:1052980001010D6F0101235129EC65F0010E010197
:1052A80024250101006F0101016B000E0123000E8E
:1052B8000101036F050E026FCBEC71F0010E0101C5
:1052C8000027000E010101230101005101012525DC
:1052D800D96E0101015101012621DA6E1EC1DFFFDD
:1052E800010E010124250101006F0101016B000E6F
:1052F8000123000E0101036F050E026FCBEC71F064
:10530800020E01010027000E0101012301010051D5
:1053180001012525D96E0101015101012621DA6E0D
:105328001FC1DFFF010E010124250101006F0101EA
:10533800016B000E0123000E0101036F050E026FC1
:10534800CBEC71F0030E01010027000E01010123CF
:105358000101005101012525D96E01010151010109
:105368002621DA6E20C1DFFF010E0101242501018B
:10537800006F0101016B000E0123000E0101036F94
:10538800050E026FCBEC71F0040E01010027000E30
:10539800010101230101005101012525D96E0101F7
:1053A800015101012621DA6E21C1DFFF01012351DC
:1053B800020D010EF326000EF422C90EF324D96E55
:1053C800080EF420DA6EDF38E832070B0101146F9B
:1053D800050E0101156F0101D89014370101152F31
:1053E800FAD70101145101011A6F01012351020D6D
:1053F800010EF326000EF422C90EF324D96E080E0E
:10540800F420DA6EDF501F0B01011A27010E01018B
:1054180024250101006F0101016B000E0123000E1C
:105428000101036F050E026FCBEC71F0050E01014F
:105438000027000E0101012301010051010125256A
:10544800D96E0101015101012621DA6E1AC1DFFF6F
:10545800050E01011C270101242B0001CE51D8B4EF
:105468001DD10001CE071AD1DE0E0101046F010E15
:105478000101056F0001BC51ADEC5BF00009D8A437
:10548800F8D00001BC51020DC90EF324D96E080EE4
:10549800F420DA6EDF503F0B3F0AD8B4EAD01E0E74
:1054A80001010C6F010E01010D6F0001BC5129ECC7
:1054B80065F0010E010124250101006F0101016B56
:1054C800000E0123000E0101036F050E026FCBECE5
:1054D80071F0010E01010027000E010101230101F5
:1054E800005101012525D96E010101510101262133
:1054F800DA6E1EC1DFFF010E010124250101006FD4
:105508000101016B000E0123000E0101036F050E5E
:10551800026FCBEC71F0020E01010027000E0101B1
:1055280001230101005101012525D96E0101015115
:1055380001012621DA6E1FC1DFFF010E01012425BA
:105548000101006F0101016B000E0123000E010132
:10555800036F050E026FCBEC71F0030E01010027FB
:10556800000E010101230101005101012525D96E19
:105578000101015101012621DA6E20C1DFFF010E70
:10558800010124250101006F0101016B000E0123B7
:10559800000E0101036F050E026FCBEC71F0040ED3
:1055A80001010027000E0101012301010051010141
:1055B8002525D96E0101015101012621DA6E21C18B
:1055C800DFFF0001BC51020D010EF326000EF4228C
:1055D800C90EF324D96E080EF420DA6EDF38E832EB
:1055E800070B0101146F050E0101156F0101D89019
:1055F80014370101152FFAD70101145101011B6F4E
:105608000001BC51020D010EF326000EF422C90E52
:10561800F324D96E080EF420DA6EDF501F0B010157
:105628001B27010E010124250101006F0101016BF7
:10563800000E0123000E0101036F050E026FCBEC73
:1056480071F0050E01010027000E0101012301017F
:10565800005101012525D96E0101015101012621C1
:10566800DA6E1BC1DFFF050E01011C270101242B87
:1056780000D0F90E0001BC6103D00001BC2B04D09E
:10568800000E0001BC6F00D00001BC5101011619C9
:10569800D8A404D0010E0101196F00D0080E010131
:1056A800246107D0010119510101D8A402D0DCD529
:1056B80000D00101185101011C2501011D6F0101D4
:1056C8001D51010DF35001012525D96EF45001013A
:1056D8002621DA6EC9C0DFFF01011D2B01011D5112
:1056E8001200120001012E510101D8B4C6D2C90E10
:1056F80001013061C2D22CC1D9FF2DC1DAFFDE28E9
:10570800D8A42AD00101DC51D8A426D0050E5EEC1D
:1057180073F00009D8B41CD0060E01010D6F0E0EEF
:105728000C6F0EEC63F01C0E01010C2501013B6FA0
:105738000C0E01010D2101013C6F3BC126F13CC15A
:1057480027F1000E0101286F050EF8EC69F000D072
:10575800010E0101C46F45D2020E01012E6541D22E
:10576800010120EE01F02C51D9262D51DA22DF500B
:105778000101316F0101315101014E6F4F6B010180
:105788004E5101014F6F4E6B010120EE02F02C517A
:10579800D9262D51DA22DF500101316F0101315133
:1057A80001014E27000E4F234EC133F14FC134F192
:1057B800040E01010C6F010E17EC59F00CC14AF1EF
:1057C8000DC14BF1B2C117F1B3C118F14AC119F1BA
:1057D8004BC11AF1FF0E01011B6F070E1C6F000E63
:1057E8001D6F000E1E6F7FEC5FF017C13DF118C1F1
:1057F8003EF1A2C000F1A3C001F14AC102F14BC1C0
:1058080003F1000E0101046F000E056F010E066F13
:10581800000E076F74EC6CF000C14CF101C14DF142
:105828004CC144F14DC145F14CC100F14DC101F1EC
:10583800000E0101036F3D0E026F000E0101046F9F
:10584800000E056F010E066F000E076F74EC6CF00A
:1058580000C14AF101C14BF101012F510101D8B436
:1058680015D04AC100F14BC101F1000E0101036FCF
:10587800050E026F000E0101046F000E056F010E88
:10588800066F000E076F74EC6CF014D04AC100F17B
:105898004BC101F1000E0101036F000E026F000EF3
:1058A8000101046F000E056F010E066F000E076FF1
:1058B80074EC6CF000C14CF101C14DF14EC117F10F
:1058C8004FC118F13DC119F13EC11AF1000E010195
:1058D8001B6F000E1C6F010E1D6F000E1E6F7FECFC
:1058E8005FF017C14AF118C14BF14AC14EF14BC1E3
:1058F8004FF14CC131F14DC132F10101311F321F5D
:10590800314B322B01014E51010131250101486F04
:1059180001014F51010132210101496F48C131F1A3
:1059280049C132F10101311F321F314B322BFF0EB9
:10593800010131250101466FFF0E010132210101EC
:10594800476F2CC1D9FF2DC1DAFF01013051DE1894
:10595800D8A414D0080E0101495DD8A005D0800E46
:105968000101495DD8A00AD0080E0101475DD8A001
:1059780075D0800E0101475DD8B070D00101EF519C
:10598800D8A404D00101C451D8A4D4D04CC117F173
:105998004DC118F14EC119F14FC11AF1000E0101A4
:1059A8001B6F000E1C6F010E1D6F000E1E6F7FEC2B
:1059B8005FF017C13CF218C13DF24CC10DF14DC169
:1059C8000EF1070E0101106F0F698DEC6DF00DC11E
:1059D80031F10EC132F14EC10DF14FC10EF1070E7A
:1059E8000101106F0F698DEC6DF001010D1F0101B0
:1059F8000E1F01010D4B0E2B01010D510101312527
:105A080002013E6F01010E510101322102013F6F77
:105A180030C117F10101186B2CC1D9FF2DC1DAFF74
:105A2800DF500101316F010131510101196F1A6B0A
:105A3800C90E01011B6F000E1C6F000E1D6F000EBA
:105A48001E6F7FEC5FF0010117510001C76F010E57
:105A58000101DC6F000E0101C46F6CD001014E51D1
:105A680001014C5D01014F5101014D59D8B047D09A
:105A7800800E0101495DD8B042D001014C510008A7
:105A880001014E250101436F010143510001A22785
:105A9800000EA3234CC131F14DC132F10101311F78
:105AA800321F314B322B01014E51010131250201C8
:105AB800446F01014F51010132210201456F02017A
:105AC80044510201465D0201455102014759D8B0CF
:105AD80016D04CC131F14DC132F10101311F321FD5
:105AE800314B322B01014E51010131250201466F24
:105AF80001014F51010132210201476F00D001011C
:105B0800C451D8B404D00101DC51D8A404D0010E8A
:105B18000101C46F00D00101445102015C5D010123
:105B2800455102015D59D8B005D044C15CF245C168
:105B38005DF200D0E2EC75F00101316F01013151E5
:105B48003E0DF3CF3FF1F4CF40F13FC108F140C122
:105B580009F1F4EC72F008C10BF109C10CF10AC1AA
:105B68000DF1000E01010E6F7A0E01010F6F440E48
:105B78000101106FF0EC51F00BC135F10CC136F199
:105B88000DC137F1000E01010B6F280E01010C6FDA
:105B9800430E01010D6F35C108F136C109F137C156
:105BA8000AF187EC4EF008C117F109C118F10AC1D2
:105BB80019F147EC51F017C126F118C127F1010E70
:105BC8000101286F090EF8EC69F0000E02014D6F13
:105BD800000E4C6F030E01012E6503D0010E12005A
:105BE80000D0E2EC75F00101316F010131513E0D39
:105BF800F3CF41F1F4CF42F141C108F142C109F1BB
:105C0800F4EC72F008C10BF109C10CF10AC10DF1F5
:105C1800000E01010E6F7A0E01010F6F440E010193
:105C2800106FF0EC51F00BC138F10CC139F10DC116
:105C38003AF1000E01010B6F280E01010C6F430EA3
:105C480001010D6F38C108F139C109F13AC10AF1F2
:105C580087EC4EF008C117F109C118F10AC119F112
:105C680047EC51F017C126F118C127F1010E0101C7
:105C7800286F090EF8EC69F000D0000E120012002F
:105C8800000E01015F6F000E0001C86F000E0101D8
:105C9800006F000E29EC71F0000E4D6E000E466E7E
:105CA800200EB4EC55F0000E0001CD6F000E01017E
:105CB800B76F0001D751E4EC74F0020EAEEC71F04E
:105CC800600EB4EC55F0000E01010E6F000EAAEC48
:105CD80073F0190E0101276F640E266F000E010183
:105CE800286F110EF8EC69F0000E0101276F780E8D
:105CF800266F010E0101286F120EF8EC69F0010EF3
:105D08000001BE6F04000101B851D8B409D0000EDB
:105D18000101B86F3E0ED7EC35F00101CA2B00D057
:105D28000101BA51D8B409D0000E0101BA6F200E92
:105D3800B4EC55F0600EB4EC55F00101BB51D8B489
:105D480007D0600EB4EC55F0000E0101BB6F00D017
:105D58000101B951D8A404D00101B751D8B4ACD1CC
:105D6800000E0101676F000E01016A6F000E696F76
:105D7800000E0101CA6F0101B951D8B455D0000E07
:105D88000101B96F08EC75F00101E96F08EC75F0D5
:105D9800000E0101656F1DD001016551010D1F0E37
:105DA800F324D96E030EF420DA6E08EC75F0DF6E7A
:105DB80001016551010D1F0EF324D96E030EF42065
:105DC800DA6EDF50010167190101676F0101652B68
:105DD80000D0FF0E0101546FFF0E0101556F010144
:105DE800E9510101566F576B0101545101015627C2
:105DF8000101555101015723010165510101586FF6
:105E0800596B010156510101585D01015951800A30
:105E180001015A6F01015751800A01015A59D8A04E
:105E2800BBD7000E0001CD6F0101B751D8B41DD00A
:105E3800000E0101666F3A0E0101666501D011D0AE
:105E480001016651010D1F0EF324D96E030EF420D3
:105E5800DA6EDF50010167190101676F0101662BD6
:105E6800EAD7000E0101B76F00D020C369F1010124
:105E78006A6B0101695101016A6F696B03011F5166
:105E880001016927000E6A230101D9510101D8B423
:105E98001CD0D00E0101546FCA0EE82EFED7542F25
:105EA800FCD7D00E0101546FCA0EE82EFED7542F2E
:105EB800FCD7090E01016A5DD8B0DCD069C114F1C4
:105EC8006AC115F120EC6DF0D5D0010E01015F6FAC
:105ED800010167510101D8A4CDD001D0CBD0010177
:105EE800AE510101691905E10101AF5101016A19BA
:105EF800D8A4C0D00101AE510101AF11D8A42BD054
:105F0800000E0101616F000E626F000E636F000EDC
:105F1800646F010164511FE1100E0101625D020E00
:105F280001016359D8B017D001D015D061C105F16E
:105F380062C106F163C107F164C108F1DEEC72F0D9
:105F4800000E01016127100E6223000E6323000E6C
:105F58006423DFD700D0000E0101686F370E0101FE
:105F6800686501D044D0AEC100F1AFC101F1000EA7
:105F78000101036F380E026FCBEC71F00101005183
:105F88000101682501015B6F0101015101015C6F8D
:105F9800000E01015C2301015D6B01015D2301011C
:105FA8005E6B5BC105F15CC106F15DC107F15EC1C5
:105FB80008F101016851010D020EF326000EF422CA
:105FC8001F0EF3240101096F030EF42001010A6F6B
:105FD800040E01010B6F000E0C6F000E0D6F000E0A
:105FE8000E6F4EEC68F0040E01016827B7D7010167
:105FF800AE4BAF2B0101B0510101AE193BE10101DC
:10600800B1510101AF19D8A435D0000E0101056FB7
:10601800000E066F020E076F000E086FEA0E0101F0
:10602800096F010E01010A6F010E01010B6F000ECD
:106038000C6F000E0D6F000E0E6F4EEC68F0010E27
:106048000101056F000E066F020E076F000E086F44
:10605800CD0E0101096F030E01010A6F0B0E01013C
:106068000B6F000E0C6F000E0D6F000E0E6F4EECD6
:1060780068F000D0030E0101276FE80E266F000EAE
:106088000101286F110EF8EC69F00101D9510101E5
:10609800D8B412D00101695101016A11D8A40CD0F9
:1060A800270E0101276F100E266F000E0101286FC1
:1060B800110EF8EC69F000D00101D9510101D8A402
:1060C80024D0020E0101CA6506D0010E01015F6FDE
:1060D800000E0101CA6F01015F510101D8B415D04A
:1060E8000101B0510101AE5D0101B1510101AF598A
:1060F800D8B007D0AEC10AF1AFC10BF186EC73F08E
:1061080000D0000E01015F6F00D0000E0101016F89
:10611800010E006FEB0E0101026F010E0101036F0A
:1061280042EC53F00009D8B438D0270E01010C6FA7
:10613800040E01010D6FE80E01010E6F010E010141
:106148000F6F0101EB519AEC3EF00009D8B425D04D
:1061580004012851C00B0101606F01016045E84648
:10616800030B0101606F030E01016019D8A415D05B
:10617800290E0101066F040E0101076F1F0E0101B0
:10618800086F030E0101096F3B0E01010A6FE7EC6E
:106198006FF0010E0101B76F00D0020E6DEC71F0C7
:1061A8000009D8B405D0937693B602D08A9600D069
:1061B800110E6DEC71F00009D8B402D0FF0000D0C8
:1061C800020E5EEC73F00009D8B40BD0000E01018A
:1061D800276FFA0E266F000E0101286F020EF8ECE9
:1061E80069F0110E5EEC73F00009D8B40BD0030E01
:1061F8000101276FE80E266F000E0101286F110EAE
:10620800F8EC69F0120E6DEC71F00009D8B47AD58B
:10621800FF0078D51200140E0101266F010E01014E
:10622800276F4CD2250E01012D19D8B405D00101D4
:106238002D5146EC74F042D2000E01012C6F000E75
:106248002B6F000E01012A6F07D001012A85010179
:10625800124B132B01D00BD012C1F6FF13C1F7FF5D
:106268000800F550300AD8B4F0D701D0F5D712C1DC
:10627800F6FF13C1F7FF0800F55082EC72F0D8A0C2
:10628800A5D0000E01012C6F000E2B6F00D02BC182
:1062980000F12CC101F1000E0101036F0A0E026F1B
:1062A800CBEC71F000C12BF101C12CF1D00E010132
:1062B8001C6FFF0E01011D6F12C1F6FF13C1F7FF1E
:1062C8000800F55001011E6F1F6B01011C510101EF
:1062D8001E2701011D5101011F2301011E5101014A
:1062E8002B2701011F5101012C230101124B132BF4
:1062F80012C1F6FF13C1F7FF0800F55082EC72F0E7
:10630800D8A064D0C4D762D012007FD000D00101D9
:106318002A8F7BD001012B510101235D01012C51F2
:1063280001012459D8B009D00101235101012B5F83
:106338000101245101012C5B0AD0000E01012C6FD0
:10634800000E2B6F04D0200E46EC74F000D0010133
:106358002B07D8A02C0701012B29F5E101012C29D5
:10636800D8B40DD0F0D70BD021C1D9FF22C1DAFFA4
:10637800DF5046EC74F00101214B222B00D00101C3
:106388002307D8A0240701012329EEE101012429CC
:10639800D8B494D1E9D792D126C1D9FF27C1DAFF61
:1063A800DF5001012D6F020E01012627000E272361
:1063B80000D02D0E0101216F010E0101226F000E88
:1063C8000101246F010E236FA5D71FD012C1F6FF5C
:1063D80013C1F7FF0101124B132B0800F5CF2DF164
:1063E80001012D51000AD8B41200580AD8B48FD729
:1063F8003B0AD8B4D1D7070AD8B407D00D0AD8B405
:1064080004D0110AD8B483D7D4D701012ABF19D030
:1064180026C1D9FF27C1DAFFDECF28F1DDCF29F168
:10642800020E01012627000E2723010129AF5DD0A6
:10643800030E01012A130101286D291FD8B0292B49
:1064480054D026C1D9FF27C1DAFFDECF28F1DDCF2E
:1064580029F1020E01012627000E272346D0010E3E
:1064680001012D6F050E01012D19D8B448D001D0B6
:1064780046D001012D51020D590EF324F66EFE0E81
:10648800F420F76E0900F5500101285D0900F55068
:1064980001012959D8A033D001D031D001012D2BC9
:1064A800E1D72DD0010E01012D6F040E01012D1928
:1064B800D8B425D001D023D001012D51020D630E8F
:1064C800F324F66EFE0EF420F76E0900F550010174
:1064D800285D0900F55001012959D8A010D001D034
:1064E8000ED001012D2BE1D70AD001012A51800BD2
:1064F800000AD8B4B4D7800AD8B4D4D700D00101E0
:106508002B5101012C11D8B40CD02AC11CF1030E57
:1065180001011C17D8B405D001012B07D8A02C07FE
:1065280000D0800E01012DBF7F0E01011C6F0101FB
:106538002B5101012D5D01012C51800A01011C59CB
:10654800D8B00BD001012D5101012B5F000E0101C4
:106558002DBFFF0E01012C5B06D0000E01012C6F30
:10656800000E2B6F00D001012AA520D02AC11CF1F2
:10657800030E01011C17D8B404D02D0E46EC74F09C
:1065880000D001012B5101012C11D8B42FD0300EAD
:1065980046EC74F001012B07D8A02C0701012B5100
:1065A80001012C11D8B422D0F2D720D001012B51EF
:1065B80001012C11D8B40FD0200E46EC74F0010163
:1065C8002B07D8A02C0701012B5101012C11D8B49D
:1065D80002D0F2D700D02AC11CF1030E01011C170A
:1065E800D8B404D02D0E46EC74F000D02DC125F19E
:1065F8005DD04DD001012551020D590EF324F66EE0
:10660800FE0EF420F76E0900F5CF08F10A00F5CF69
:1066180009F128C106F129C107F184EC6AF006C125
:106628000DF107C10EF1000E0101106F0A0E0F6F78
:106638008DEC6DF001010D51300F01012D6F31D03E
:1066480028C106F129C107F101012551020D630E88
:10665800F324F66EFE0EF420F76E0900F5CF08F16C
:106668000A00F5CF09F184EC6AF0010106510F0B1D
:106678000101206F01012051010D6A0EF324F66E0D
:10668800FF0EF420F76E0800F5CF2DF10AD00101B6
:106698002A51800B000AD8B4ADD7800AD8B4D0D715
:1066A80000D001012D5146EC74F000D001012507FE
:1066B80001012529D8B402D0EAD700D012C1F6FFCB
:1066C80013C1F7FF0101124B132B0800F5CF2DF171
:1066D80001012D51D8B41200A5D5120012006E0E7A
:1066E8000001786F000E0001796F4CD2250E000171
:1066F8007F19D8B405D000017F5166EC74F042D2FE
:10670800000E00017E6F000E7D6F000E00017C6F91
:1067180007D000017C8500016C4B6D2B01D00BD09C
:106728006CC0F6FF6DC0F7FF0800F550300AD8B40A
:10673800F0D701D0F5D76CC0F6FF6DC0F7FF0800A1
:10674800F550C7EC72F0D8A0A5D0000E00017E6FFE
:10675800000E7D6F00D07DC060F07EC061F0000E3D
:106768000001636F0A0E626FE7EC71F060C07DF0A4
:1067780061C07EF0D00E00016E6FFF0E00016F6FDA
:106788006CC0F6FF6DC0F7FF0800F5500001706F90
:10679800716B00016E510001702700016F510001FB
:1067A80071230001705100017D2700017151000122
:1067B8007E2300016C4B6D2B6CC0F6FF6DC0F7FF9C
:1067C8000800F550C7EC72F0D8A064D0C4D762D0E6
:1067D80012007FD000D000017C8F7BD000017D515A
:1067E8000001755D00017E5100017659D8B009D0CD
:1067F8000001755100017D5F0001765100017E5B4B
:106808000AD0000E00017E6F000E7D6F04D0200EAE
:1068180066EC74F000D000017D07D8A07E07000167
:106828007D29F5E100017E29D8B40DD0F0D70BD031
:1068380073C0D9FF74C0DAFFDF5066EC74F0000152
:10684800734B742B00D000017507D8A076070001A0
:106858007529EEE100017629D8B494D1E9D792D10F
:1068680078C0D9FF79C0DAFFDF5000017F6F020ED0
:1068780000017827000E792300D07F0E0001736F86
:10688800000E0001746F000E0001766F010E756F27
:10689800A5D71FD06CC0F6FF6DC0F7FF00016C4B89
:1068A8006D2B0800F5CF7FF000017F51000AD8B4A6
:1068B8001200580AD8B48FD73B0AD8B4D1D7070AE0
:1068C800D8B407D00D0AD8B404D0110AD8B483D7E5
:1068D800D4D700017CBF19D078C0D9FF79C0DAFFBE
:1068E800DECF7AF0DDCF7BF0020E00017827000EB4
:1068F800792300017BAF5DD0030E00017C130001FA
:106908007A6D7B1FD8B07B2B54D078C0D9FF79C063
:10691800DAFFDECF7AF0DDCF7BF0020E00017827B8
:10692800000E792346D0010E00017F6F050E00018D
:106938007F19D8B448D001D046D000017F51020D4C
:10694800590EF324F66EFE0EF420F76E0900F5508A
:1069580000017A5D0900F55000017B59D8A033D0B9
:1069680001D031D000017F2BE1D72DD0010E0001DD
:106978007F6F040E00017F19D8B425D001D023D031
:1069880000017F51020D630EF324F66EFE0EF42013
:10699800F76E0900F55000017A5D0900F550000115
:1069A8007B59D8A010D001D00ED000017F2BE1D7A1
:1069B8000AD000017C51800B000AD8B4B4D7800AF1
:1069C800D8B4D4D700D000017D5100017E11D8B4CD
:1069D8000CD07CC06EF0030E00016E17D8B405D041
:1069E80000017D07D8A07E0700D0800E00017FBF80
:1069F8007F0E00016E6F00017D5100017F5D000177
:106A08007E51800A00016E59D8B00BD000017F5129
:106A180000017D5F000E00017FBFFF0E00017E5B5D
:106A280006D0000E00017E6F000E7D6F00D00001C1
:106A38007CA520D07CC06EF0030E00016E17D8B480
:106A480004D02D0E66EC74F000D000017D510001D9
:106A58007E11D8B42FD0300E66EC74F000017D079B
:106A6800D8A07E0700017D5100017E11D8B422D044
:106A7800F2D720D000017D5100017E11D8B40FD08B
:106A8800200E66EC74F000017D07D8A07E07000197
:106A98007D5100017E11D8B402D0F2D700D07CC05D
:106AA8006EF0030E00016E17D8B404D02D0E66ECFC
:106AB80074F000D07FC077F05DD04DD000017751E1
:106AC800020D590EF324F66EFE0EF420F76E09003F
:106AD800F5CF62F00A00F5CF63F07AC060F07BC0B2
:106AE80061F0C5EC6AF060C067F061C068F0000E44
:106AF80000016A6F0A0E696FC3EC6DF000016751FF
:106B0800300F00017F6F31D07AC060F07BC061F038
:106B180000017751020D630EF324F66EFE0EF42089
:106B2800F76E0900F5CF62F00A00F5CF63F0C5EC07
:106B38006AF0000160510F0B0001726F0001725181
:106B4800010D6A0EF324F66EFF0EF420F76E0800AE
:106B5800F5CF7FF00AD000017C51800B000AD8B431
:106B6800ADD7800AD8B4D0D700D000017F5166ECE9
:106B780074F000D00001770700017729D8B402D05B
:106B8800EAD700D06CC0F6FF6DC0F7FF00016C4B70
:106B98006D2B0800F5CF7FF000017F51D8B41200AB
:106BA800A5D5120012000101046F01010451020170
:106BB8004A2502014A6F000E02014B2102014B6F68
:106BC800000E0101056F160E0101056501D072D096
:106BD80001010551010D000EF324D96E030EF420B6
:106BE800DA6EDF50D8A463D001010551020D000E02
:106BF800F324D96E020EF420DA6E0101045101016A
:106C0800026F036B010E01010227000E0323DE5001
:106C18000101025DDE5001010359D8B02DD00101F8
:106C28000551020D000EF324D96E020EF420DA6E1F
:106C3800DECF00F1DDCF01F1010104510101026F46
:106C4800036B0101021F031F024B032B01010051BB
:106C5800010102270101015101010323010105512D
:106C6800020D000EF324D96E020EF420DA6E02C172
:106C7800DEFF03C1DDFF1BD001010551020D000E2F
:106C8800F324D96E020EF420DA6EDE50DE10D8B48A
:106C98000ED001010551020D000EF324D96E020E2B
:106CA800F420DA6E010EDE6E000EDD6E00D00101FA
:106CB800052B89D7E80E02014A5D030E02014B59E4
:106CC800D8A01200180E02014A2502014A6FFC0ED4
:106CD80002014B2102014B6F492A000E0101066F88
:106CE800160E0101066501D063D001010651010DA0
:106CF800000EF324D96E030EF420DA6EDE04D8A455
:106D080054D001010651020D000EF324D96E020E73
:106D1800F420DA6E010EDB5004E1020EDE5CD8A02E
:106D280029D0FF0E0101006FFF0E0101016F010163
:106D38000651020D000EF324D96E020EF420DA6E0D
:106D4800DECF02F1DDCF03F101010051010102277D
:106D5800010101510101032301010651020D000E39
:106D6800F324D96E020EF420DA6E02C1DEFF03C1ED
:106D7800DDFF1BD001010651020D000EF324D96E70
:106D8800020EF420DA6EDE50DE10D8B40ED0010107
:106D98000651020D000EF324D96E020EF420DA6EAD
:106DA800010EDE6E000EDD6E00D00101062B98D7B5
:106DB8003B0E496412004950C40F496E452A000E23
:106DC8000101076F160E0101076501D064D00101AA
:106DD8000751010D000EF324D96E030EF420DA6E6C
:106DE800020EDE18D8A454D001010751020D000E7E
:106DF800F324D96E020EF420DA6E010EDB5004E1A2
:106E0800020EDE5CD8A029D0FF0E0101006FFF0E34
:106E18000101016F01010751020D000EF324D96E23
:106E2800020EF420DA6EDECF02F1DDCF03F10101AC
:106E38000051010102270101015101010323010150
:106E48000751020D000EF324D96E020EF420DA6EFB
:106E580002C1DEFF03C1DDFF1BD001010751020D96
:106E6800000EF324D96E020EF420DA6EDE50DE1026
:106E7800D8B40ED001010751020D000EF324D96ECB
:106E8800020EF420DA6E010EDE6E000EDD6E00D00A
:106E98000101072B97D73B0E456412004550C40FDC
:106EA800456E000E0101086F160E0101086502D03B
:106EB8001200120001010851010D000EF324D96ED1
:106EC800030EF420DA6E030EDE18D8A454D00101A4
:106ED8000851020D000EF324D96E020EF420DA6E6A
:106EE800010EDB5004E1020EDE5CD8A029D0FF0EB3
:106EF8000101006FFF0E0101016F01010851020D30
:106F0800000EF324D96E020EF420DA6EDECF02F101
:106F1800DDCF03F1010100510101022701010151F7
:106F28000101032301010851020D000EF324D96E5B
:106F3800020EF420DA6E02C1DEFF03C1DDFF1BD0B2
:106F480001010851020D000EF324D96E020EF4203F
:106F5800DA6EDE50DE10D8B40ED001010851020DF1
:106F6800000EF324D96E020EF420DA6E010EDE6EE6
:106F7800000EDD6E00D00101082B160E0101086518
:106F880099D7120012001200030E0101016F006967
:106F9800A1EC74F00101156F01011505D8A440D0CA
:106FA800000E01011A6F000E196F01011ABF0AD0F5
:106FB800F00E0101195D030E01011A59D8B011D064
:106FC80001D00FD0DEEC75F019C100F11AC101F142
:106FD800FF0E0101026F57EC70F00101194B1A2BDB
:106FE800E4D7030E01011A6FF40E196F01011ABFDD
:106FF80007D0040E01011A5DD8B012D001D010D00C
:10700800DEEC75F019C100F11AC101F1FF0E0101A2
:10701800026F57EC70F00101194B1A2BE7D700D01B
:10702800010E0101156504D001011529D8A40CD061
:10703800DEEC75F0030E0101016F0069020E01011B
:10704800026F57EC70F000D0000E0101166F030EAE
:107058000101166501D018D001011651010DF60E77
:10706800F324D96E010EF420DA6EE80E010116251C
:107078000101006F0101016B030E0123A1EC74F003
:10708800DF6E0101162BE3D70101F629D8A419D028
:107098000101F729D8A415D00101F829D8A411D0E5
:1070A8000101F929D8A40DD0000E0101F66F000ED8
:1070B8000101F76F000E0101F86F020E0101F96F6F
:1070C80000D0030E0101016FEF0E006FA1EC74F008
:1070D8000101146F01011429D8A404D0080E01017C
:1070E800146F00D001011451A0EC75F00201EC29D5
:1070F800D8A451D00201ED29D8A44DD00201EE291F
:10710800D8A449D00201EF29D8A445D0899E4B0EB6
:10711800BCEC73F0000EBCEC73F0000EBCEC73F02A
:10712800000EBCEC73F0000EBCEC73F0000E010115
:10713800176F2BD02ED0CAEC74F001010051010159
:10714800136F030E010117651ED0FC0E0101076FB6
:10715800FF0E0101086F010117510101096F0A6B48
:1071680001010751010109270101085101010A2301
:10717800EC0E01010925D96E020E01010A21DA6E11
:1071880013C1DFFF00D00101172B070E010117659E
:10719800D2D7898E00D0000E0101186F070E0101A9
:1071A800186501D018D001011851010D0B0EF324F8
:1071B800D96E010EF420DA6EF40E010118250101D2
:1071C800006F0101016B030E0123A1EC74F0DF6E67
:1071D8000101182BE3D70B0E0101006F010E01010D
:1071E800016FB7EC67F0030E0101016FFC0E006F31
:1071F800A1EC74F0FF0AD8A404D0000EE4EC74F0FB
:1072080009D0030E0101016FFC0E006FA1EC74F0B0
:10721800E4EC74F0030E0101016FFD0E006FA1ECA8
:1072280074F0FF0AD8B40BD001D009D0030E0101C5
:10723800016FFD0E006FA1EC74F002EC74F0030E08
:107248000101016FFE0E006FA1EC74F0FF0AD8A4D3
:1072580003D00001C9691200030E0101016FFE0E7F
:10726800006FA1EC74F00001C96F12001200010157
:1072780020EE01F02F51D9263051DA222FC1E1FF3B
:1072880030C1E2FFDE50E618D8A41200010120EE5A
:1072980002F02F51D9263051DA22010110EE01F007
:1072A8002F51E1263051E222DE50E618D8A4120010
:1072B800010120EE02F02F51D9263051DA22DE28C2
:1072C800D8B412002FC1D9FF30C1DAFFDF50010155
:1072D800336F010133A14CD0010120EE04F02F518E
:1072E800D9263051DA22010110EE03F02F51E126A0
:1072F8003051E222DE50E618D8A43AD0010120EE3F
:1073080005F02F51D9263051DA22010110EE04F090
:107318002F51E1263051E222DE50E618D8A428D0B9
:10732800010120EE05F02F51D9263051DA22DE284E
:10733800D8B41ED0DEEC75F0030E0101016FFD0E0E
:10734800006F010120EE03F02F51D9263051DA22C7
:10735800DF500101026F57EC70F0010120EE03F0DD
:107368002F51D9263051DA22DF5002EC74F000D0C8
:10737800010133A342D0010120EE07F02F51D92695
:107388003051DA22010110EE06F02F51E12630517A
:10739800E222DE50E618D8A430D0010120EE08F031
:1073A8002F51D9263051DA22010110EE07F02F5162
:1073B800E1263051E222DE50E618D8A41ED0DEECD9
:1073C80075F0030E0101016FFE0E006F010120EE42
:1073D80006F02F51D9263051DA22DF500101026F11
:1073E80057EC70F0010120EE06F02F51D9263051EC
:1073F800DA22DF50C1EC6FF000D0010133A54CD088
:10740800010120EE0AF02F51D9263051DA2201016C
:1074180010EE09F02F51E1263051E222DE50E61835
:10742800D8A43AD0010120EE0BF02F51D9263051C3
:10743800DA22010110EE0AF02F51E1263051E22242
:10744800DE50E618D8A428D0010120EE0BF02F5109
:10745800D9263051DA22DE28D8B41ED0DEEC75F0F9
:10746800030E0101016FFC0E006F010120EE09F00F
:107478002F51D9263051DA22DF500101026F57EC23
:1074880070F0010120EE09F02F51D9263051DA228F
:10749800DF50E4EC74F000D0010133A712000101C1
:1074A80020EE0DF02F51D9263051DA22010110EECD
:1074B8000CF02F51E1263051E222DE50E618D8A414
:1074C8001200010120EE0EF02F51D9263051DA2298
:1074D800010110EE0DF02F51E1263051E222DE506D
:1074E800E618D8A41200010120EE0EF02F51D9267B
:1074F8003051DA22DE28D8B41200DEEC75F0030E23
:107508000101016FEF0E006F010120EE0CF02F5109
:10751800D9263051DA22DF500101026F57EC70F0A2
:10752800010120EE0CF02F51D9263051DA22DF501C
:10753800A0EC75F01200120053D101018705D8A400
:107548005BD1580E0101126FFF0E0101136F0FEC92
:1075580031F0020E010181250101186F000E0101B1
:1075680082210101196F000E01011A6FB0EC43F07E
:10757800040E5EEC73F00009D8A411D0040E6DEC73
:1075880071F00009D8A40BD0000E0101276F010E7D
:10759800266F000E0101286F040EF8EC69F0000E4A
:1075A8005EEC73F00009D8B40BD0130E0101276FFD
:1075B800880E266F000E0101286F000EF8EC69F0A6
:1075C800010E0101276F2C0E266F010E0101286F95
:1075D800130EF8EC69F0010E0001B26F0DD1440EE4
:1075E80001018719D8A437D0010120EE03F0815199
:1075F800D9268251DA22DF500101896F01018951B0
:107608000001AA6FAB6B0001AA510001AB6FAA6B16
:10761800010120EE02F08151D9268251DA22DF5091
:107628000101896F010189510001AA27000EAB23CE
:10763800AAC000F1ABC001F1000E0101026FC6EC57
:107648003FF084C118F185C119F1000E01011A6FCC
:10765800B0EC43F0D1D0450E01018719D8A4CCD0A5
:10766800010120EE02F08151D9268251DA22DF5041
:107678000101896F010189510101FA6FFB6B010159
:10768800FA51FB6FFA6B010120EE03F08151D92604
:107698008251DA22DF500101896F0101895101010C
:1076A800FA27000EFB23010120EE04F08151D926B0
:1076B8008251DA22DF500101896F010189510101EC
:1076C800FC6FFD6B0101FC51FD6FFC6B010120EEAD
:1076D80005F08151D9268251DA22DF500101896FE4
:1076E800010189510101FC27000EFD23010120EE53
:1076F80006F08151D9268251DA22DF500101896FC3
:10770800010189510101FE6FFF6B0101FE51FF6FFD
:10771800FE6B010120EE07F08151D9268251DA2251
:10772800DF500101896F010189510101FE27000E17
:10773800FF23DEEC75F0030E0101016FEC0E006F04
:10774800FAC102F157EC70F0DEEC75F0030E01019E
:10775800016FED0E006FFBC102F157EC70F0DEEC2B
:1077680075F0030E0101016FEE0E006FFCC102F10E
:1077780057EC70F0DEEC75F0030E0101016FF10EAD
:10778800006FFDC102F157EC70F0DEEC75F0030EEE
:107798000101016FF20E006FFEC102F157EC70F0AB
:1077A800DEEC75F0030E0101016FF30E006FFFC1EF
:1077B80002F157EC70F084C118F185C119F1000E7F
:1077C80001011A6FB0EC43F017D08A0E0101126F55
:1077D800FF0E0101136F0FEC31F0010E12000CD0F7
:1077E80001018651010AD8B4F0D71F0AD8B4A5D62A
:1077F800010AD8B4F4D600D0000E12001200400ED0
:107808000101286F000E0101296F3E0E0101296553
:1078180001D0D7D001012951060DBD0EF324010175
:10782800066F0A0EF4200101076F21C108F122C179
:1078380009F1040E01010A6FF1EC6EF00009D8B4E9
:10784800A0D001012951060D040EF326000EF422E2
:10785800BD0EF324D96E0A0EF420DA6EDF500F0B3A
:107868000F0AD8A440D0010124510101D8B43BD05B
:10787800472A01012951060D040EF326000EF422B1
:10788800BD0EF324D96E0A0EF420DA6EDF90DF9273
:10789800DF94DF9623C100F101012951BFEC60F0AC
:1078A800020E01012419D8B41AD0030E0101086F81
:1078B8000101235111EC47F00101266F21C115F197
:1078C80022C116F129C117F1010E0101186F26C155
:1078D80019F1000E01011A6FC2EC1DF000D0010170
:1078E800295112006BD001012951060D040EF3260F
:1078F800000EF422BD0EF324D96E0A0EF420DA6EBF
:10790800DF500F0B0F0AD8B439D001012951060DE9
:10791800040EF326000EF422BD0EF324D96E0A0ECF
:10792800F420DA6EDF90DF92DF94DF9623C100F156
:1079380001012951BFEC60F0020E01012419D8B4ED
:10794800CED7030E0101086F0101235111EC47F056
:107958000101266F21C115F122C116F129C117F1C4
:10796800010E0101186F26C119F1000E01011A6FED
:10797800C2EC1DF0B4D7B3D7120020D0FF0E12000E
:107988001DD001012951060DBD0EF3240101066F1A
:107998000A0EF4200101076FDE0E0101086F010EC7
:1079A8000101096F040E01010A6FF1EC6EF0000984
:1079B800D8B404D029C128F104D000D00101292B62
:1079C80024D73E0E0101286521D0000E0101276F42
:1079D8003E0E0101276501D019D001012751060D7E
:1079E800040EF326000EF422BD0EF324D96E0A0EFF
:1079F800F420DA6EDF500F0B0F0AD8A403D027C18A
:107A080028F104D00101272BE3D700D03F0E010154
:107A1800286154D0010124510101D8B44FD021C1AB
:107A280006F122C107F101012851060DBD0EF3240C
:107A38000101086F0A0EF4200101096F040E01010B
:107A48000A6FE7EC6FF001012851060D040EF326CA
:107A5800000EF422BD0EF324D96E0A0EF420DA6E5D
:107A6800DF90DF92DF94DF9623C100F101012851F6
:107A7800BFEC60F0472A020E01012419D8B41AD0CD
:107A8800030E0101086F0101235111EC47F00101B8
:107A9800266F21C115F122C116F128C117F1010E77
:107AA8000101186F26C119F1000E01011A6FC2EC0D
:107AB8001DF000D001012851120000D0FF0E120065
:107AC8001200000E0101126F000E116F010112BFAA
:107AD8000AD00101125106E13F0E0101115DD8B033
:107AE80082D001D080D0DE0E0101066F010E0101A7
:107AF800076F11C100F112C101F1000E0101036FFE
:107B0800060E026FCBEC71F0BD0E010100250101DC
:107B1800086F0A0E010101210101096F040E01011C
:107B28000A6FE7EC6FF011C100F112C101F1000E0C
:107B38000101036F060E026FCBEC71F0040E010118
:107B48000027000E01010123BD0E01010025D96E99
:107B58000A0E01010121DA6EDF80DF82DF84DF8611
:107B680011C100F112C101F1000E0101036F060EEF
:107B7800026FCBEC71F0040E01010027000E010129
:107B88000123BD0E01010025D96E0A0E0101012154
:107B9800DA6EDF88DF8ADF8CDF8E11C100F112C157
:107BA80001F1000E0101036F060E026FCBEC71F0BC
:107BB800050E01010027000E01010123BD0E010180
:107BC8000025D96E0A0E01010121DA6EFF0EDF6E63
:107BD8000101114B122B010112BF85D7010112516E
:107BE80002E17AD700D0000E02016F6F000E01018A
:107BF800126F000E116F010112BF0AD0010112515C
:107C080066E1FA0E0101115DD8B061D001D05FD0F4
:107C180011C10FF112C110F1D89001010F371037BF
:107C2800010E01010F27000E1023C90E01010F25B7
:107C3800D96E080E01011021DA6EDF80DF82DF8441
:107C4800DF86DF88DE0E0101076F010E0101086F74
:107C58000101115125EC69F011C10FF112C110F1A8
:107C6800D89001010F371037010E01010F27000EC0
:107C78001023C90E01010F25D96E080E010110212C
:107C8800DA6EDF8ADF8CDF8ED89001011135D96E6C
:107C980001011235DA6EC90ED926080EDA22DF8004
:107CA800DF82DF84DF86DF88DF8AD8900101113523
:107CB800D96E01011235DA6EC90ED926080EDA22FC
:107CC8003F0EDF160101114B122B95D700D0DE0EA7
:107CD8000101066F010E0101076FF00E0101086F27
:107CE800020E0101096F040E01010A6FE7EC6FF043
:107CF8000201E769000E0201786F030E0201796F35
:107D0800000E0201A06F000E0201A26F020E020116
:107D1800A36F000E0201A46F010E0101EE6F000EA9
:107D28000101DD6F000E0101D16F12000101166F14
:107D38000101F0510101D8B42BD0240E010116190C
:107D4800D8A422D00101DB2B020E0101DB19D8A433
:107D580016D1000E0101F06F010E0101C76F000E70
:107D68000101C66F000E0101C86F000E0101C96F45
:107D7800010E446E000E0001C06F000E0101DB6FA2
:107D8800000E02016A6FFBD0000E0101DB6FF7D015
:107D98004450D8B4DED00101C7510101D8B407D08E
:107DA80016C1CBF0000E0101C76F010E06D001010C
:107DB800C6510101D8B404D0000E0101C66F5DD0D0
:107DC8000001C0510101106F116BFE0E0101126F0D
:107DD800FF0E0101136F0001CB510101146F156BE8
:107DE8000101125101011427010113510101152349
:107DF80001011051010114190FE101011151010193
:107E08001519D8A409D00D0E01011619D8A435D01A
:107E1800010E0101C86F31D00001C0510101106F7E
:107E2800116BFF0E0101126FFF0E0101136F0001AC
:107E3800CB510101146F156B010112510101142777
:107E480001011351010115230101105101011419F8
:107E58000FE10101115101011519D8A409D00A0E29
:107E680001011619D8A409D0010E0101C96F05D066
:107E78000101165102016A1B00D00001C051010D19
:107E8800800EF324D96E050EF420DA6E16C1DFFFDA
:107E98000001C02B0001C0510001CB19D8A43CD06F
:107EA800000E446E0EC1D9FF0FC1DAFFC0C0DFFF5C
:107EB800800E0101066F050E0101076F0CC108F164
:107EC8000DC109F1C0C00AF1E7EC6FF0010E010124
:107ED800F06F000E0101DB6F02016A510201D8B494
:107EE80005D0000E02016A6F000E12000101C85190
:107EF8000101D8B40BD00101C9510101D8B406D091
:107F0800000E02016A6F010E120039D0000E020144
:107F18006A6F1CD0120033D03E0E0001C0652FD00E
:107F2800010E0101F06F000E0101DB6F000E000170
:107F3800C06F000E0101C76F000E0101C66F000E71
:107F48000101C86F000E0101C96FE0D7000E1200D1
:107F580016D0010E0101F06F000E0101DB6F000E5B
:107F680002016A6F000E0101C76F000E0101C86FA0
:107F7800000E0101C96F000E0101C66F00D0000E8E
:107F880012001200010101510101076F010107519F
:107F98000F0B0101076F010102510101D8B404D090
:107FA800300E0101072700D000C106F18B9C1A0E84
:107FB800E82EFED700D0000E0101096F2DD030D079
:107FC8008B9E09C103F1400E0101046F000E0101EF
:107FD800056F0101032B04D0010105350533043376
:107FE8000101032FF9D701010451600B01010C6F46
:107FF80001010C510101D8B402D08B8C02D08B9CAA
:1080080000D01A0EE82EFED700D08B8E1A0EE82E5E
:10801800FED700D00101092B060E01010965D0D752
:108028008B9E8B9C1A0EE82EFED700D08B8E1A0ED4
:10803800E82EFED700D08B9E948C1A0EE82EFED721
:1080480000D08B8E1A0EE82EFED700D0000E82BC10
:10805800010E0101086F010108510101D8A437D0B0
:10806800949C000E01010A6F070E01010A6501D0F8
:108078002ED08B9E0AC103F1800E0101046F000E01
:108088000101056F0101032B04D0010105350533FA
:1080980004330101032FF9D7010104510101071528
:1080A80001010C6F01010C510101D8B402D08B8C75
:1080B80002D08B9C00D01A0EE82EFED700D08B8EF3
:1080C8001A0EE82EFED700D001010A2BCDD78B9EC1
:1080D800948C1A0EE82EFED700D08B8E1A0EE82E3E
:1080E800FED700D0000E82BC010E0101086F01010D
:1080F80008510101D8A437D0949C000E01010B6FE0
:10810800070E01010B6501D02ED08B9E0BC103F128
:10811800800E0101046F000E0101056F0101032BA0
:1081280004D001010535053304330101032FF9D7C4
:10813800010104510101061501010C6F01010C51E7
:108148000101D8B402D08B8C02D08B9C00D01A0EBF
:10815800E82EFED700D08B8E1A0EE82EFED700D060
:1081680001010B2BCDD78B9E948C1A0EE82EFED7CF
:1081780000D08B8E1A0EE82EFED700D0000E82BCDF
:10818800010E0101086F949C8B9C8B9E1A0EE82EA1
:10819800FED700D08B8E1A0EE82EFED700D08B8C1F
:1081A8001200000E0101126F000E116F010112BFC3
:1081B8000AD00101125106E1FA0E0101115DD8B091
:1081C800E8D001D0E6D00BC104F10CC105F10101E2
:1081D8001151ADEC5BF00009D8B4D0D011C10FF14A
:1081E80012C110F1D89001010F371037010E0101AB
:1081F8000F27000E1023C90E01010F25D96E080E96
:1082080001011021DA6EDF501F0B1F0AD8B4A6D067
:10821800D89001011135D96E01011235DA6EC90EF7
:10822800D926080EDA22DF503F0B01010F6F01013A
:108238000F51060DBD0EF324D96E0A0EF420DA6E26
:108248000DC1E1FF0EC1E2FFDFCFE7FFD8900101CA
:108258001135D96E01011235DA6EC90ED926080E0C
:10826800DA22DF503F0B01010F6F01010F51060D9C
:10827800010EF326000EF422BD0EF324D96E0A0E69
:10828800F420DA6E010110EE01F00D51E1260E51D5
:10829800E222DFCFE7FFD89001011135D96E010145
:1082A8001235DA6EC90ED926080EDA22DF503F0BD6
:1082B80001010F6F01010F51060D020EF326000E8A
:1082C800F422BD0EF324D96E0A0EF420DA6E0101F1
:1082D80010EE02F00D51E1260E51E222DFCFE7FF4A
:1082E800D89001011135D96E01011235DA6EC90E27
:1082F800D926080EDA22DF503F0B01010F6F01016A
:108308000F51060D030EF326000EF422BD0EF324C2
:10831800D96E0A0EF420DA6E010110EE03F00D5149
:10832800E1260E51E222DFCFE7FF11C10FF112C1A2
:1083380010F1D89001010F371037010E01010F27F6
:10834800000E1023C90E01010F25D96E080E010178
:108358001021DA6EDF501F0B120010D0D8900101E7
:108368001135D96E01011235DA6EC90ED926080EFB
:10837800DA223F0EDF161F0E120000D00101114B4A
:10838800122B010112BF1FD70101125102E114D7AC
:1083980000D01F0E12001200000E01010F6F000E18
:1083A8000E6F01010FBF0AD001010F5106E13F0E08
:1083B80001010E5DD8B0D4D001D0D2D006C1D9FF0A
:1083C80007C1DAFF0EC100F10FC101F1000E010172
:1083D800036F060E026FCBEC71F0BD0E0101002594
:1083E800E16E0A0E01010121E26EDE50E618D8A402
:1083F800ACD0010120EE01F00651D9260751DA224E
:108408000EC100F10FC101F1000E0101036F060E4C
:10841800026FCBEC71F0010E01010027000E010183
:108428000123BD0E01010025E16E0A0E01010121A3
:10843800E26EDE50E618D8A488D0010120EE02F0E2
:108448000651D9260751DA220EC100F10FC101F1F8
:10845800000E0101036F060E026FCBEC71F0020EE5
:1084680001010027000E01010123BD0E01010025B5
:10847800E16E0A0E01010121E26EDE50E618D8A471
:1084880064D0010120EE03F00651D9260751DA2203
:108498000EC100F10FC101F1000E0101036F060EBC
:1084A800026FCBEC71F0030E01010027000E0101F1
:1084B8000123BD0E01010025E16E0A0E0101012113
:1084C800E26EDE50E618D8A440D00EC100F10FC10C
:1084D80001F1000E0101036F060E026FCBEC71F083
:1084E800050E01010027000E01010123BD0E010147
:1084F8000025D96E0A0E01010121DA6E08C1E1FFDB
:1085080009C1E2FFDFCFE7FF0EC100F10FC101F1A2
:10851800000E0101036F060E026FCBEC71F0040E22
:1085280001010027000E01010123BD0E01010025F4
:10853800D96E0A0E01010121DA6EDF380F0B0AC16C
:10854800D9FF0BC1DAFFDF6E120001010E4B0F2BB2
:1085580001010FBF33D701010F5102E128D700D025
:1085680008C1D9FF09C1DAFFFF0EDF6E0AC1D9FFC2
:108578000BC1DAFF0F0EDF6E120012003950D8B4AB
:10858800D9D002016951D8B410D0000E0201696F28
:10859800000E0001CF6F000E0001D06F000E396E83
:1085A800000E0001CD6F000E120002016751D8A421
:1085B8000DD0000E0001CF6F000E0001D06F000E2D
:1085C800396E000E0001CD6F000E12000001D0516F
:1085D800FD0F10C1D9FF11C1DAFFDF6E000E0101D6
:1085E800186F400E0001D0650DD0000E0001CF6F4E
:1085F800000E0001D06F000E396E000E0001CD6F25
:10860800000E1200020E0101196F11D0010119515B
:10861800010DA70EF324D96E040EF420DA6EDF5094
:10862800010118190101186F0101192B00D000016F
:10863800D0510101195DD8A0E9D7010118510101F4
:10864800D8B40DD0000E0001CF6F000E0001D06F1E
:10865800000E396E000E0001CD6F000E120010C121
:10866800D9FF11C1DAFF3D0EDF640DD0000E000105
:10867800CF6F000E0001D06F000E396E000E0001A2
:10868800CD6F000E120010C1D9FF11C1DAFFDF5003
:108698000101126F136BFD0E0101146FFF0E010132
:1086A800156F0001D0510101166F176B01011451AC
:1086B800010116270101155101011723010112516A
:1086C8000101161906E10101135101011719D8B466
:1086D8000DD0000E0001CF6F000E0001D06F000E0C
:1086E800396E000E0001CD6F000E1200A70E0101B9
:1086F800006F040E0101016F020E0101026F0EC12D
:1087080003F10FC104F1000E0101056F10C1D9FF7B
:1087180011C1DAFFDF500101066F04EC68F0000EAA
:108728000001CF6F000E0001D06F000E396E010EF0
:1087380012000FD03950D8B40CD0000E0001CF6F02
:10874800000E0001D06F000E396E000E0001CD6FD3
:1087580000D0000E12001200000E0101806FACC0A4
:108768007CF1ADC07DF1010E0101566F18C10BF10E
:1087780019C10CF1580E01010D6F010E01010E6FA8
:10878800D5EC40F00101576FC9C05CF17CC15DF1C7
:108798007DC15EF1580E0101066F010E0101076FE0
:1087A8007E0E0101086F010E0101096F7F0E0101A4
:1087B8000A6F010E01010B6FD0EC41F07EC15FF131
:1087C8007FC160F118C10BF119C10CF179EC64F0AB
:1087D8000101616FCAEC75F00101626FD2EC75F0AE
:1087E8000101636FD4C01BF101011B3BF00E1B1785
:1087F8009BEC75F001011B250001D2250101646F76
:10880800C2C165F148C266F149C267F146C268F162
:1088180047C269F144C26AF145C26BF15EC26CF1AC
:108828005FC26DF1FAC16EF1FBC16FF181BA02D07E
:10883800010E01D0000E0101706FAAC071F1ABC02A
:1088480072F150C273F151C274F158C275F159C234
:1088580076F1FCC177F1FDC178F1FEC179F1FFC174
:108868007AF1FAC27BF1260E0101806F01011A51DB
:108878000101D8B434D0560E0101006F010E010178
:10888800016F000E0101026F1C0E0101036F010E42
:108898000101046F140E0101056F80C106F104EC9B
:1088A80068F01C0E01010E6F010E01010F6F18C157
:1088B80010F119C111F110EC5FF01C0E0101046FE9
:1088C800010E0101056F01018051140F0101066FAE
:1088D800000E0101076F020EA7EC5DF0120018C12F
:1088E8000EF119C10FF1560E0101106F010E0101B1
:1088F800116F80C112F1000E0101136F010E010109
:10890800146F000E0101156F8CEC44F01200120078
:1089180002016F51D8A4D2D00201A151D8A4CED05F
:10892800700E0101066F020E0101076FF00E0101C2
:10893800086F020E0101096F040E01010A6FE7ECCE
:108948006FF078C2E7F2060E02016F6F0EC106F1F2
:108958000FC107F1740E0101086F020E0101096FC2
:10896800040E01010A6FE7EC6FF0E20E0101066FD9
:10897800010E0101076F700E0101086F020E01015F
:10898800096F040E01010A6FE7EC6FF01DEC75F03A
:108998000201786F000E0201A46F01011551010157
:1089A800D8B402D0040E01D0030E0201796F00D0B2
:1089B800270E0101126156D00101C551D8B431D03A
:1089C800010114510101D8B42CD0010E0101102568
:1089D8000101006F000E010111210101016FFF0E5D
:1089E800010112250101026F0101036BFF0E032330
:1089F80023EC5AF00101166F050E0101176F0101F2
:108A0800D89016370101172FFAD701011651020124
:108A18007A6F10C1D9FF11C1DAFFDF5002017A273E
:108A280008D010C1D9FF11C1DAFFDF5002017A6FF7
:108A380000D010C100F111C101F1010E0101026F56
:108A48007A0E0101036F020E0101046F010E01018C
:108A5800056F010112050101066F04EC68F012C1EF
:108A6800A0F200D013C1A1F2010113510101D8B441
:108A780003D0000E02016F6F0001BB51D8A404D0CF
:108A8800000E0101D86F18D0740E0101066F020E96
:108A98000101076FE80E0101086F020E0101096F5D
:108AA800040E01010A6FF1EC6EF00009D8B404D08D
:108AB800020E02016F6F00D0010E1200000E1200AC
:108AC80012000101146F000E0101166F000E176FDE
:108AD800000E186F000E196F040E01010F19D8A4AB
:108AE8000BD00DC116F10EC117F10101000E17BF11
:108AF800FF0E186F196F54D001010F510101D8A44E
:108B08002FD00DC110F10EC111F1000E010111BFDE
:108B1800FF0E126F136F0F0ED89001011037113727
:108B280012371337E82EF8D710C100F111C101F13F
:108B380012C102F113C103F1E80E0101046F030E23
:108B4800056F000E066F000E076F89EC61F000C11B
:108B580016F101C117F102C118F103C119F120D0B2
:108B680001010F05D8A41CD00DC110F10EC111F1DF
:108B7800000E010111BFFF0E126F136F0F0ED89078
:108B880001011037113712371337E82EF8D710C103
:108B980016F111C117F112C118F113C119F100D062
:108BA80016C110F117C111F118C112F119C113F151
:108BB8000101101F111F121F131F102B000E11236C
:108BC80012231323FF0E010110250101166FFF0E5A
:108BD800010111210101176F000E0101122101018C
:108BE800186F000E010113210101196F010114050D
:108BF800D8A40BD017C1CFFF16C1CEFF8C0ECD6EF7
:108C08009F809E909D80CD8000D0030E0101141995
:108C1800D8A40AD017C1B3FF16C1B2FF8C0EB16E2B
:108C2800A292A192A082B1804050D8A41200010E55
:108C3800406E000E0101156F160E0101156502D078
:108C48001200120001011551020D000EF324D96E15
:108C5800020EF420DA6E000EDE6E000EDD6E0101EB
:108C6800152B160E01011565EDD712001200120022
:108C780001012F6F0101D551D8B404D0000E0101B4
:108C8800D56F1200040E6DEC71F00009D8B47BD0DA
:108C98000101B451010D6B0EF324F66EFE0EF420A3
:108CA800F76E0800F5500009D8A46DD0010E010137
:108CB800B46F69D0A8EC5AF00DC1ACF00EC1ADF09C
:108CC8000001ADBF08D03E0E0001AC5D080E0001EA
:108CD800AD59D8B004D0000E0101B46F12000101E3
:108CE800B42B120018EC67F00DC158F20EC159F2FE
:108CF8000101B42B120001012F510201405D000E49
:108D08004159D8B003D00101B42B120001012F51F1
:108D18000201405F000E415B1200000E0101EC6F82
:108D280001012F510201425D000E4359D8A01200E3
:108D380001D0120001012F510201425F000E435B76
:108D48001200040E5EEC73F00009D8B412002CC1B6
:108D580026F12DC127F12EC128F1040EF8EC69F097
:108D68001200000E0101006F080E0DEC70F00101F9
:108D7800B42B1200B2EC69F00DC150F20EC151F2E1
:108D88000101B42B12000101B451010D6B0EF32443
:108D9800F66EFE0EF420F76E0800F550000AD8B4FF
:108DA800D0D7010AD8B486D7030AD8B49BD7010A0A
:108DB800D8B41200070AD8B41200010AD8B41200B5
:108DC800030AD8B41200010AD8B412000F0AD8B4A2
:108DD80092D7010AD8B41200030AD8B49ED7010A60
:108DE800D8B41200070AD8B41200010AD8B4120085
:108DF800030AD8B41200010AD8B412001F0AD8B462
:108E0800B9D7010AD8B4ADD7030AD8B41200010AF9
:108E1800D8B41200070A120012000101116F030EE4
:108E280001010819D8A460D03C0E0101116102D0DB
:108E3800000E12D0C30E010111250101006F0101BE
:108E4800016BFF0E0123000E0101036F050E026F77
:108E580057EC60F0010100510101126F00D00101CF
:108E680012510101096F0A6BFF0E01010B6FFF0E12
:108E780001010C6F08C10DF1010E01010E6F000E0A
:108E880001010F6F01010D2B04D0D89001010E379D
:108E98000F3701010D2FF9D701010B5101010E27E1
:108EA80001010C5101010F230101095101010E5D5E
:108EB80001010F51800A0101106F01010A51800A56
:108EC80001011059D8B071D008C109F1010E010192
:108ED8000A6F0101092B03D00101D8900A3701015B
:108EE800092FFAD75DD061D0040E01010819D8A462
:108EF8005CD0DC0E010111250101006F0101016B3D
:108F0800FF0E0123000E0101036F050E026F57ECDF
:108F180060F0010100510101126F010112510101BC
:108F2800096F0A6BFF0E01010B6FFF0E01010C6F39
:108F380008C10DF1010E01010E6F000E01010F6F46
:108F480001010D2B04D0D89001010E370F37010114
:108F58000D2FF9D701010B5101010E2701010C5109
:108F680001010F230101095101010E5D01010F519A
:108F7800800A0101106F01010A51800A010110598C
:108F8800D8B013D008C109F1010E01010A6F01011F
:108F9800092B03D00101D8900A370101092FFAD70C
:108FA80001010A050101126F00D0010112511200DE
:108FB80012000101066F010104510101D8B402D069
:108FC800200E01D0600E0101056F9AD001010551F4
:108FD80002090201A96F630E0201B06F0101065177
:108FE8001B0F55D00101055102090201A96F640E3A
:108FF8000201B06F01010651040F49D0210E010191
:1090080006610BD0010105510A090201A96F650E1D
:109018000201B06F06C1B1F281D0010105510A0900
:109028000201A96F640E0201B06F01010651190F08
:109038002ED074D0010105510A090201A96F650EED
:109048000201B06F01010651210F21D00C0E010160
:1090580006610DD00101055102090201A96F630ED5
:109068000201B06F01010651040DF350B9D70B0E80
:10907800010106650FD0190E010106610BD001012F
:109088000551020912D0640E0201B06F11D002011D
:10909800B16F44D0180E0101066510D01F0E0101F2
:1090A80006610CD0010105510A090201A96FEBD72D
:1090B80001010645E846FC0BD00FE9D71E0E010159
:1090C800066509D0270E0101066105D00CD0650E92
:1090D8000201B06F0ED0260E010106651FD0320EB8
:1090E800010106611BD0010105510A090201A96F9E
:1090F800EED701010645E846FC0B850FC8D70ED010
:109108005050010AD8B462D7030AD8B46BD7010A01
:10911800D8B474D7070AD8B48DD798D7A9C202F1A2
:10912800000E1EEC72F0B0C202F10E0E1EEC72F0D0
:10913800B1C202F1100E1EEC72F01200040046508B
:10914800D8A4120001D012001AC146F0000E010185
:109158001B6FB0D0000E0001C66F0001CD51D8A41E
:109168009DD03E0E0101196199D0010E0001C86F12
:109178000001CD51D8B404D0000E0001C86F95D0BD
:10918800200EB4EC55F00201B65101090101026F3D
:109198001A0E1EEC72F0800EB4EC55F00101195154
:1091A800020F13EC75F00001B65113EC75F0000EC8
:1091B80001011F6F64D001011F51010DF35001011E
:1091C8001725D96EF45001011821DA6EDF5001011C
:1091D8001C6F01011F05D8B410D0020E01011F1920
:1091E800D8B40BD00001C65101011C190001C66F8B
:1091F80001011C5113EC75F03FD001011F05D8A4E3
:109208002BD0040E01010C6F010E17EC59F0000170
:10921800A25101010C2501011D6F0001A35101019B
:109228000D2101011E6F01011E5113EC75F00101A2
:109238001E510001C6190001C66F01011D5102012E
:109248005E5D01011E5102015F59D8B015D01DC1E4
:109258005EF21EC15FF210D0020E01011F19D8A4E0
:109268000BD001011D5113EC75F00001C65101012D
:109278001D190001C66F00D001011F2B00D001018C
:10928800195101011F5DD8A096D70001C65113ECF2
:1092980075F00400010E0101D56F09D03D0E0101E2
:1092A800196501D002D00001CD51460600D0010158
:1092B8001B2B00D001011A5101011B5DD8A04AD710
:1092C800120002016F51D8A4BBD00201A151D8A449
:1092D800B7D0700E0101066F020E0101076FF00E84
:1092E8000101086F020E0101096F040E01010A6FE6
:1092F800E7EC6FF078C2E7F2060E02016F6F000E1E
:109308000201A26F020E0201A36F0EC106F10FC186
:1093180007F1740E0101086F020E0101096F040EB6
:1093280001010A6FE7EC6FF0E20E0101066F010E12
:109338000101076F700E0101086F020E0101096F2C
:10934800040E01010A6FE7EC6FF01DEC75F00201E5
:10935800786F000E0201A16F1D0E02017A6F210EB7
:1093680002017B6F10C17CF23F0E02017D6F080E77
:109378000101116F0101105101011103F3CF12F125
:10938800000E0101136F46D03F0E0101126121D07A
:1093980001011251060DBD0EF3240101006F0A0EE2
:1093A800F4200101016F000E0101026F7A0E010124
:1093B800036F020E0101046F01011351040DF350F4
:1093C800060F0101056F040E0101066F04EC68F039
:1093D8001CD0DE0E0101006F010E0101016F000EAD
:1093E8000101026F7A0E0101036F020E0101046F81
:1093F80001011351040DF350060F0101056F040E0E
:109408000101066F04EC68F000D00101122B010184
:10941800132B00D0010111510101135DD8A0B4D75D
:10942800030E0201796F260E0201A06F0001BB51E5
:10943800D8A404D0000E0101D86F00D0010E12008C
:10944800000E12001200000E01010B6F3E0E01010A
:109458000B6502D01200120001010B51060D040E1B
:10946800F326000EF422BD0EF324D96E0A0EF42062
:10947800DA6EDF500F0B0F0AD8B49CD0010E010131
:10948800086F01010B51060D040EF326000EF4229D
:10949800BD0EF324D96E0A0EF420DA6EDF500F0BDE
:1094A8000101096F0101085101010927DF5001017C
:1094B8000919F00B01010919DF6E47500F0DF3CFA1
:1094C80000F1F4CF01F1000E0101036F400E026FAD
:1094D80057EC60F0040E01010027000E0101012382
:1094E80001010B51060D040EF326000EF422BD0EE9
:1094F800F324D96E0A0EF420DA6EDF500F0B010147
:10950800086F096B010100510101085D0101095152
:10951800800A01010A6F01010151800A01010A59FB
:10952800D8B012D001010B51060D040EF326000E1F
:10953800F422BD0EF324D96E0A0EF420DA6EDF5041
:109548000F0B0F0AD8A436D001010B51060D040EDB
:10955800F326000EF422BD0EF324D96E0A0EF42071
:10956800DA6EDF80DF82DF84DF8601010B51060DB2
:10957800050EF326000EF422BD0EF324D96E0A0E52
:10958800F420DA6EFF0EDF6E01010B51060D040E9A
:10959800F326000EF422BD0EF324D96E0A0EF42031
:1095A800DA6EDF88DF8ADF8CDF8E4750D8B402D0CE
:1095B800470600D001010B2B3E0E01010B654CD76D
:1095C800120012007C0ED36E9B8CD2909B8E200EC4
:1095D800926EBB0E936E130E946E860E806E000E06
:1095E800816EC40E826E100E0F015D6F050E0F01A5
:1095F8005C6FF19E0F015B910F015B930F015B851F
:109608000F015B970F015B990F015B9B0F015B9D3E
:109618000F015B9FD180030E0101016FED0E006FFA
:10962800A1EC74F001010D6F01010D510101FA6FF8
:10963800FB6B0101FA51FB6FFA6B030E0101016F1D
:10964800EC0E006FA1EC74F001010D6F01010D51DA
:109658000101FA27000EFB23030E0101016FF10E31
:10966800006FA1EC74F001010D6F01010D510101B2
:10967800FC6FFD6B0101FC51FD6FFC6B030E0101DA
:10968800016FEE0E006FA1EC74F001010D6F010186
:109698000D510101FC27000EFD23030E0101016F8E
:1096A800F30E006FA1EC74F001010D6F01010D5173
:1096B8000101FE6FFF6B0101FE51FF6FFE6B030E90
:1096C8000101016FF20E006FA1EC74F001010D6F42
:1096D80001010D510101FE27000EFF23AAC000F170
:1096E800ABC001F1000E0101026FC6EC3FF0010EA4
:1096F8000101EE6F000E0201476F000E466F000E6B
:109708000201456F000E446F000E02015D6F000EEE
:109718005C6F000E02015F6F000E5E6F000E0101AC
:10972800C26F0201A5690201A6690201A7690201C7
:10973800A869000E0201686F1200156E000E176E00
:10974800000E186E000E196E000E1A6E040E101818
:10975800D8A40AD00EC017F00FC018F0000E18BE1B
:10976800FF0E196E1A6E4CD01050D8A42CD00EC013
:1097780011F00FC012F0000E12BEFF0E136E146E21
:109788000F0ED8901136123613361436E82EF9D744
:1097980011C001F012C002F013C003F014C004F0AD
:1097A800E80E056E030E066E000E076E000E086EBC
:1097B8003EEC6AF001C017F002C018F003C019F0BF
:1097C80004C01AF01DD01004D8A41AD00EC011F08D
:1097D8000FC012F0000E12BEFF0E136E146E0F0EA5
:1097E800D8901136123613361436E82EF9D711C030
:1097F80017F012C018F013C019F014C01AF000D0F6
:1098080017C011F018C012F019C013F01AC014F0E4
:10981800111E121E131E141E112A000E12221322CC
:109828001422FF0E1124176EFF0E1220186E000E60
:109838001320196E000E14201A6E1504D8A40BD02C
:1098480018C0CFFF17C0CEFF8C0ECD6E9F809E90A4
:109858009D80CD8000D0030E1518D8A40AD018C05A
:10986800B3FF17C0B2FF8C0EB16EA292A192A08274
:10987800B1804050D8A41200010E406E000E166E42
:10988800160E166402D0120012001650020D000EB9
:10989800F324D96E020EF420DA6E000EDE6E000E8E
:1098A800DD6E162A160E1664F0D71200120012008A
:1098B8001D0E0101426F1AC10BF11BC10CF1430EC1
:1098C80001010D6F010E01010E6FD5EC40F0010191
:1098D800476F1D0E01011C6F260E01011D6F1AC175
:1098E80000F11BC101F1000E0101026F1C0E010104
:1098F800036F010E0101046F020E0101056F040ED2
:109908000101066F04EC68F0430E0101006F010EBF
:109918000101016F000E0101026F1C0E0101036FAE
:10992800010E0101046F060E0101056F040E01010D
:10993800066F04EC68F047C126F11AC100F11BC19B
:1099480001F1000E0101026F1C0E0101036F010EEF
:109958000101046F0B0E0101056F040E0101066F72
:1099680004EC68F0430E0101006F010E0101016F64
:10997800000E0101026F1C0E0101036F010E0101AF
:10998800046F0F0E0101056F040E0101066F04EC50
:1099980068F047C12FF11AC100F11BC101F1000E97
:1099A8000101026F1C0E0101036F010E0101046F1A
:1099B800140E0101056F040E0101066F04EC68F036
:1099C800430E0101006F010E0101016F000E01013C
:1099D800026F1C0E0101036F010E0101046F180EC6
:1099E8000101056F040E0101066F04EC68F047C120
:1099F80038F118C10EF119C10FF11C0E0101106FD9
:109A0800010E0101116F42C112F1000E0101136F25
:109A1800010E0101146F000E0101156F8CEC44F06A
:109A28001200120000C1D9FF01C1DAFF000EDF6E7B
:109A3800010120EE01F00051D9260151DA22000E71
:109A4800DF6E4150D8A404D00001C151D8B439D038
:109A58001E0E0001C26103D00001C22B00D01E0EF1
:109A68000001C219D8A41AD00E0E0001C46516D080
:109A780000C1D9FF01C1DAFF030EDF6E2D0E000110
:109A8800C26F010120EE01F00051D9260151DA22FE
:109A9800030EDF6E2D0E0001C46F0FD01E0E0001E5
:109AA800C219D8A40AD000C1D9FF01C1DAFF020E39
:109AB800DF6E2D0E0001C26F00D0000E0001C16FD5
:109AC80013D0010E0001C2650BD01F0E0001C26148
:109AD80007D000C1D9FF01C1DAFF010EDF6E00D047
:109AE800000E0001C26F00D04250D8A404D000017B
:109AF800C351D8B43AD01E0E0001C46103D000018E
:109B0800C42B00D01E0E0001C419D8A41AD00E0E02
:109B18000001C26516D000C1D9FF01C1DAFF030EEA
:109B2800DF6E2D0E0001C26F010120EE01F0005121
:109B3800D9260151DA22030E11D02D0E0001C46F6F
:109B480010D01E0E0001C419D8A40BD0010120EEBC
:109B580001F00051D9260151DA22020EDF6EEDD74D
:109B680000D0000E0001C36F1200010E0001C46591
:109B78000ED01F0E0001C4610AD0010120EE01F0D1
:109B88000051D9260151DA22010EDF6E00D0000EF5
:109B98000001C46F120012001D0E0101266F200E75
:109BA8000101276F22C128F1EEEC75F00101296F40
:109BB800030E0101556F0101225101015503F3CF35
:109BC80054F1000E0101586F000E576F6DD04C0E06
:109BD8000101146F010E0101156F500E0101166F7E
:109BE800010E0101176F560E0101186F010E0101D8
:109BF800196F010154512CEC5DF04C0E0101006FFE
:109C0800010E0101016F000E0101026F260E010114
:109C1800036F010E0101046F01015751090DF35043
:109C2800040F0101056F040E0101066F04EC68F0D2
:109C3800500E0101006F010E0101016F000E0101BC
:109C4800026F260E0101036F010E0101046F01016D
:109C58005751090DF350080F0101056F040E01015A
:109C6800066F04EC68F057C100F158C101F1000E0D
:109C78000101036F090E026FCBEC71F00C0E0101AC
:109C88000027000E01010123260E01010025D96ECF
:109C9800010E01010121DA6E56C1DFFF0101542BCB
:109CA8000101574B582B00D0010155510101236F79
:109CB800246B010123510101575D01015851800AAC
:109CC8000101256F01012451800A01012559D8A0FD
:109CD8007ED720C10EF121C10FF1260E0101106FB0
:109CE800010E0101116F260E0101126F000E010114
:109CF800136F010E0101146F000E0101156F8CEC3A
:109D080044F0120012000AC10EF101010F6B106B32
:109D18000101093501010E3701E30F8101010E51DF
:109D28000101116F01011151D8A40AD0000E0101DF
:109D3800086F000E0101096F000E01010A6F120081
:109D48000DC10EF101010F6B106B01010C35010102
:109D58000E3701E30F8101010E510101166F010158
:109D68001651D8A40AD0000E0101086F000E010197
:109D7800096F000E01010A6F1200010116517B0FD5
:109D8800010111270AC116F101010D510101161B2C
:109D9800800E010116170101098F01010C8FFF0EBA
:109DA80001010B17FF0E01010C17000E01010D1721
:109DB800000E0101126F000E0101136F000E010168
:109DC800146F070E0101156F00D0010108A10DD015
:109DD80001010B510101122701010C51010113234B
:109DE80001010D510101142300D00101D8900A335B
:109DF800093308330101D8900B370C370D370101AF
:109E0800152FE3D700D0090E0101156F00D001010D
:109E180008A10DD001010B510101122701010C51BC
:109E28000101132301010D510101142300D0010187
:109E3800D8900A33093308330101D8901433133307
:109E480012330101152FE3D700D012C100F113C15D
:109E580001F114C102F111C103F116C104F1DDECE5
:109E680056F000C108F101C109F102C10AF112005E
:109E780012006EC072F00001736B746B00016D35D7
:109E88000001723701E37381000172510001756F9F
:109E980000017551D8A40AD0000E00016C6F000EA5
:109EA80000016D6F000E00016E6F120071C072F03C
:109EB8000001736B746B000170350001723701E3A8
:109EC80073810001725100017A6F00017A51D8A4A0
:109ED8000AD0000E00016C6F000E00016D6F000EBD
:109EE80000016E6F120000017A517B0F0001752787
:109EF8006EC07AF00001715100017A1B800E0001DA
:109F08007A1700016D8F0001708FFF0E00016F1727
:109F1800FF0E00017017000E00017117000E0001FE
:109F2800766F000E0001776F000E0001786F070E44
:109F38000001796F00D000016CA10DD000016F51B4
:109F4800000176270001705100017723000171514B
:109F58000001782300D00001D8906E336D336C3344
:109F68000001D8906F37703771370001792FE3D728
:109F780000D0090E0001796F00D000016CA10DD04E
:109F880000016F510001762700017051000177230D
:109F9800000171510001782300D00001D8906E3380
:109FA8006D336C330001D890783377337633000102
:109FB800792FE3D700D076C060F077C061F078C021
:109FC80062F075C063F07AC064F06DEC57F060C061
:109FD8006CF061C06DF062C06EF0120012000001FA
:109FE800BF51D8B4A4D00001CD51D8A4A0D0C5C0C9
:109FF80000F10101016B000E0101036F000E026FF9
:10A00800C90E0101046F000E056F000E066F000EE9
:10A01800076F74EC6CF00101005101012F6F010111
:10A028002F510101D8A402D0000E1200000E010128
:10A038000E6F01012F51010D000EF324D96E060E8B
:10A04800F420DA6EDF50AAEC73F0D3A60FD0040E1A
:10A0580001010C6F010E17EC59F00001A25101012A
:10A068000C250101306F0001A35114D0040E010129
:10A078000C6F010E17EC59F00001A25101010C27D9
:10A088000001A35101010D23E60E01010C25010178
:10A09800306FFF0E01010D210101316F00D0D2ECAC
:10A0A80075F02CC1D9FF2DC1DAFFDF6E010120EE5A
:10A0B80002F02C51D9262D51DA2230C1DFFF0101DF
:10A0C80020EE01F02C51D9262D51DA22010131510F
:10A0D800DF6E2CC117F12DC118F101012E51030FAC
:10A0E8000101196F010E01011A6FA2EC48F001017C
:10A0F800CD51D8A417D0080E57EC6DF001010051CE
:10A108000101CD250101CD6FCDC126F10101276BDC
:10A11800010E0101286F080EF8EC69F0000E01012C
:10A12800CD6F00D0000E0101D36F010E1200000E9A
:10A138001200120000C1D9FF01C1DAFF1D0EDF6E47
:10A14800010120EE01F00051D9260151DA22230E37
:10A15800DF6E010120EE02F00051D9260151DA220A
:10A16800D4C002F10101023BF00E02179BEC75F01E
:10A17800010102250001D225DF6E010120EE03F066
:10A188000051D9260151DA22D4C002F10101023B63
:10A19800F00E02179BEC75F0010102250001D22593
:10A1A800DF6E010120EE04F00051D9260151DA22B8
:10A1B800D4C002F10101023BF00E02179BEC75F0CE
:10A1C800010102250001D225DF6E010120EE05F014
:10A1D8000051D9260151DA22C9C0DFFF010120EE62
:10A1E80006F00051D9260151DA22C9C0DFFF01016A
:10A1F80020EE07F00051D9260151DA22C9C0DFFF4D
:10A20800010120EE08F00051D9260151DA22CAECEA
:10A2180075F0DF6E010120EE09F00051D9260151D9
:10A22800DA22CAEC75F0DF6E010120EE0AF0005167
:10A23800D9260151DA22CAEC75F0DF6E010120EE51
:10A248000BF00051D9260151DA22C6EC75F0DF6E09
:10A25800010120EE0CF00051D9260151DA22C6EC9A
:10A2680075F0DF6E010120EE0DF00051D926015185
:10A27800DA22C6EC75F0DF6E0E0E0101036F0101E4
:10A2880003511200120019C11BF101011C6B1D6B57
:10A298000101183501011B3701E31C8101011B5124
:10A2A8000101256F01012551D8A40AD0000E010132
:10A2B800176F000E186F000E196F000E1A6F12003C
:10A2C800170E01011B6F17C11CF118C11DF119C12F
:10A2D8001EF101011B2901011F6F05D00101D89052
:10A2E8001E331D331C3301011F2FF8D701011C51E8
:10A2F8000101206F0101188FFF0E01011717FF0ED2
:10A3080001011817000E0101191701011751010168
:10A31800216F010118510101226F01011951010139
:10A32800236F0101246B8E0E0101255F010125AF0A
:10A338001BD001012551800A8F0FD8B00BD0000E19
:10A348000101176F000E186F000E196F000E1A6FBB
:10A35800120000D00101D890243323332233213353
:10A368000101253FF7D71FD0170E0101256514D02D
:10A37800000E0101176F000E186F000E196F000E06
:10A388001A6F120009D00101D890213722372337DC
:10A3980024370101250700D0010125510101D8B456
:10A3A80002D0F1D700D0010120510101D8B40AD060
:10A3B8000101241F231F221F216D000E22232323A6
:10A3C800242300D021C117F122C118F123C119F1AA
:10A3D80024C11AF1120012000DC111F10101126B12
:10A3E800136B01010C350101113701E312810101E1
:10A3F80011510101186F01011851D8A40AD0000E9B
:10A4080001010B6F000E01010C6F000E01010D6FB1
:10A41800120010C111F10101126B136B01010F350C
:10A428000101113701E31281010111510101196F75
:10A4380001011951D8A40AD0000E01010B6F000EBA
:10A4480001010C6F000E01010D6F1200000E0101D9
:10A45800156F000E0101166F000E0101176F010143
:10A468001951890F0101185F0DC119F1010110512E
:10A478000101191B800E0101191701010C8FFF0E34
:10A4880001010B17FF0E01010C17000E01010D173A
:10A4980001010F8FFF0E01010E17FF0E01010F17AB
:10A4A800000E01011017180E0101146F00D00101F0
:10A4B800D89015371637173701010E5101010B5D7A
:10A4C80001010F5101010C590101105101010D59F0
:10A4D800D8A00ED001010E5101010B5F01010F51EF
:10A4E80001010C5B0101105101010D5B0101158196
:10A4F8000101D8900B370C370D370101142FD7D72E
:10A5080000D015C100F116C101F117C102F118C13F
:10A5180003F119C104F1DDEC56F000C10BF101C1E2
:10A528000CF102C10DF1120012007DC07FF0000194
:10A53800806B816B00017C3500017F3701E38081EE
:10A5480000017F510001896F00018951D8A40AD008
:10A55800000E00017B6F000E7C6F000E7D6F000EF9
:10A568007E6F1200170E00017F6F7BC080F07CC0E9
:10A5780081F07DC082F000017F290001836F05D042
:10A588000001D8908233813380330001832FF8D7BC
:10A59800000180510001846F00017C8FFF0E0001D3
:10A5A8007B17FF0E00017C17000E00017D170001CC
:10A5B8007B510001856F00017C510001866F00010D
:10A5C8007D510001876F0001886B8E0E0001895F45
:10A5D800000189AF1BD000018951800A8F0FD8B0C4
:10A5E8000BD0000E00017B6F000E7C6F000E7D6F9C
:10A5F800000E7E6F120000D00001D8908833873398
:10A60800863385330001893FF7D71FD0170E000125
:10A61800896514D0000E00017B6F000E7C6F000E60
:10A628007D6F000E7E6F120009D00001D89085372B
:10A638008637873788370001890700D0000189519C
:10A648000001D8B402D0F1D700D000018451000134
:10A65800D8B40AD00001881F871F861F856D000E99
:10A6680086238723882300D085C07BF086C07CF0B2
:10A6780087C07DF088C07EF012001200010100053D
:10A6880001010111D8A42FD00001A651301805E10D
:10A698000001A7513118D8B495D03C50D8B402D095
:10A6A800000E1200010E3C6E000E3024D96E050E0D
:10A6B8003120DA6E02C1E1FF03C1E2FFDFCFE7FF1D
:10A6C800304A312A31BE0AD0315004E1800E305C64
:10A6D800D8A004D0000E316E000E306E000E3C6E15
:10A6E800010E12006FD0020E0101001901010111C3
:10A6F800D8A42FD00001A851321805E10001A951B2
:10A708003318D8B45FD03E50D8B402D0000E12002F
:10A71800010E3E6EC90E3224D96E060E3320DA6E53
:10A7280002C1E1FF03C1E2FFDFCFE7FF324A332A6C
:10A7380033BE0AD0800E325C010E3358D8A004D044
:10A74800000E336E000E326E000E3E6EC9D7120038
:10A7580039D0040E0101001901010111D8A432D029
:10A768000001A4512E1805E10001A5512F18D8B4F5
:10A7780029D00001AE51D8B402D0000E1200010E4B
:10A788000001AE6F000E2E24D96E040E2F20DA6E53
:10A7980002C1E1FF03C1E2FFDFCFE7FF2E4A2F2A04
:10A7A8002FBE0AD02F5004E1270E2E5CD8A004D06B
:10A7B800000E2F6E000E2E6E000E0001AE6F90D7A9
:10A7C800120000D0000E12001200000E01012D6FC1
:10A7D8000A0E2C6F010E01012E6F3E0E3CEC46F066
:10A7E800020135BF0CD00201355104E102013405E4
:10A7F800D8A005D002013407D8A0350700D0010140
:10A80800BC51D8A402D0110E18D002013451020153
:10A818003511D8A418D032EC70F00009D8B407D09C
:10A82800010E0201356F2C0E346F120E06D0000E89
:10A838000201356F1E0E346F100E0001B86F010E45
:10A848000101CB6F00D00101CC510101D8A40DD07A
:10A85800D7EC21F093B609D00101CB510101D8B44E
:10A8680002D08A8602D08A9600D0130E6DEC71F061
:10A878000009D8B431D00101FA2904E10101FB290A
:10A88800D8B426D00101FA510201585D0101FB51EB
:10A8980002015959D8B00ED0FCC100F1FDC101F137
:10A8A800000E0101026FC6EC3FF0FCC1AAF0FDC129
:10A8B800ABF00ED0FEC100F1FFC101F1000E0101A5
:10A8C800026FC6EC3FF0FEC1AAF0FFC1ABF000D0AA
:10A8D800000E0001B26F00D0130E5EEC73F0000999
:10A8E800D8B41200000E0101276F3C0E266F010E2E
:10A8F8000101286F130EF8EC69F01200120006EE41
:10A90800C9F015EE6EF0EE6AE550E150FCE1E25058
:10A91800FAE105EE00F0BF0EEE6AE806FDE104EE8E
:10A9280000F0E70EEE6AE806FDE103EE00F0D80E4F
:10A93800EE6AE806FDE102EE00F0A90EEE6AE8060E
:10A94800FDE101EEAEF03E0EEE6AE806FDE100EE36
:10A95800A2F0350EEE6AE806FDE100EE2CF0230EBB
:10A96800EE6AE806FDE1480EF66EC20EF76E000EBE
:10A97800F86E06EE00F010EEC9F00900F5CFEEFF14
:10A98800E550E150FAE1840EF66EEB0EF76E000E1C
:10A99800F86E03EEF4F010EE08F00900F5CFEEFFC4
:10A9A800E550E150FAE1320EF66EDF0EF76E000E5A
:10A9B800F86E02EEA9F010EE4FF00900F5CFEEFFA9
:10A9C800E550E150FAE1E60EF66EEA0EF76E000E7B
:10A9D800F86E01EEECF010EE0EF00900F5CFEEFF88
:10A9E800E550E150FAE1E80EF66EEB0EF76E000E58
:10A9F800F86E00EED7F010EE04F00900F5CFEEFF88
:10AA0800E550E150FAE17C0EF66EEB0EF76E000EA3
:10AA1800F86E00EE4FF010EE08F00900F5CFEEFFEB
:10AA2800E550E150FAE1000EF86E0001EDEF04F098
:10AA38000001BF51D8A404D00001CD51D8B403D02F
:10AA4800000E12008AD00101BF510101D8A485D09F
:10AA5800C5C000F10101016B23C102F10101036BC3
:10AA6800C90E0101046F000E056F000E066F000E7F
:10AA7800076F74EC6CF0010100510101246F0101B2
:10AA880024510101D8A402D0000E1200000E0101C9
:10AA98000E6F01012451010D000EF324D96E060E2C
:10AAA800F420DA6EDF50AAEC73F0D3A60FD0040EB0
:10AAB80001010C6F010E17EC59F00001A2510101C0
:10AAC8000C250101256F0001A35114D0040E0101CA
:10AAD8000C6F010E17EC59F00001A25101010C276F
:10AAE8000001A35101010D23E60E01010C2501010E
:10AAF800256FFF0E01010D210101266F00D0D2EC58
:10AB080075F020C1D9FF21C1DAFFDF6E010120EE07
:10AB180002F02051D9262151DA2225C1DFFF010197
:10AB280020EE01F02051D9262151DA2201012651C7
:10AB3800DF6E20C117F121C118F101012251030F65
:10AB48000101196F010E01011A6FA2EC48F0010E04
:10AB58000101BF6F010E120000D0000E120012009A
:10AB68000101056F80D0000E0101006F010E29EC74
:10AB780071F0E40E00D000D0E82EFCD700D000D051
:10AB88000201A9511F0B80090201A96FA9C202F194
:10AB9800000E1EEC72F0800E0101BC6F0B0E01015D
:10ABA800046F620EE82EFED7042FFCD700D01200E7
:10ABB8000201A9511F0B60090201A96FA9C202F184
:10ABC800000E1EEC72F0D4C000F1000E29EC71F0FA
:10ABD800600E0101BC6F1200000E0101006F000E33
:10ABE80029EC71F00201A9511F0B20090201A96F7C
:10ABF800A9C202F1000E1EEC72F0680E0101046F8A
:10AC0800E40EE82EFED7042FFCD700D0200E010159
:10AC1800BC6F1200000E0101006F000E29EC71F0EC
:10AC28000201A9511F0B40090201A96FA9C202F133
:10AC3800000E1EEC72F0400E0101BC6F1200000EF7
:10AC48000101006F000E29EC71F00201A9511F0BE0
:10AC58000201A96F000E0101BC6FA9C202F1000E2A
:10AC68001EEC72F0120001010551000AD8B4E7D7B2
:10AC7800200AD8B4B1D7600AD8B4CCD7200AD8B43F
:10AC880097D7E00AD8A412006ED7120006C1D9FFE0
:10AC980007C1DAFFDE04D8A489D0050E01010865D2
:10ACA80085D0F90E010108250101006F0101016B32
:10ACB800FF0E0123000E0101036F050E026F6CECFD
:10ACC80063F00101005101010111D8A46FD0FF0EFA
:10ACD8000101096FFF0E01010A6F0101085101010D
:10ACE8000B6F0C6B0101095101010B2701010A517E
:10ACF80001010C2301010B5101010625D96E010147
:10AD08000C5101010721DA6E0001C951DE18D8B4CF
:10AD180020D0FF0E0101096FFF0E01010A6F01012A
:10AD2800085101010B6F0C6B0101095101010B273F
:10AD380001010A5101010C2301010B5101010625F2
:10AD4800D96E01010C5101010721DA6EDE28D8A461
:10AD580003D0010E12002AD00001C929D8A423D09B
:10AD6800FF0E0101096FFF0E01010A6F0101085171
:10AD780001010B6F0C6B0101095101010B27010146
:10AD88000A5101010C2301010B5101010625D96E5D
:10AD980001010C5101010721DA6EDE28D8B403D075
:10ADA800020E120003D0000E120000D0000E120096
:10ADB8001200010103510101D8B408D0010100516A
:10ADC8000101011101010211D8A413D0000E0101E3
:10ADD800006F000E0101016F000E0101026F1200E9
:10ADE80008D00101032B0101D8900233013300334D
:10ADF80000D0000E010100150101056F000E0101D0
:10AE080001150101066FFE0E010102150101076F10
:10AE1800010105510101061101010711D8B413D030
:10AE2800E0D711D00101032B010E01010027000E0C
:10AE380001010123000E010102230101D890023310
:10AE48000133003300D0000E010100150101056F28
:10AE5800000E010101150101066FFF0E0101021527
:10AE68000101076F010105510101061101010711D7
:10AE7800D8B40AD0D7D708D0010103070101D89068
:10AE880000370137023700D0010101BF05D0020E9B
:10AE980001010361F1D700D0010103B103D0010121
:10AEA800019F00D00101D890033301010351010132
:10AEB8000213010104510101D8B403D00101028F2A
:10AEC80000D000C100F101C101F102C102F112007C
:10AED8001200000163510001D8B408D0000160518C
:10AEE8000001611100016211D8A413D0000E000105
:10AEF800606F000E0001616F000E0001626F1200AA
:10AF080008D00001632B0001D890623361336033AD
:10AF180000D0000E000160150001656F000E0001F1
:10AF280061150001666FFE0E000162150001676F72
:10AF3800000165510001661100016711D8B413D0F2
:10AF4800E0D711D00001632B010E00016027000E2D
:10AF580000016123000E000162230001D8906233D2
:10AF68006133603300D0000E000160150001656F89
:10AF7800000E000161150001666FFF0E00016215E9
:10AF88000001676F0001655100016611000167113A
:10AF9800D8B40AD0D7D708D0000163070001D890E9
:10AFA80060376137623700D0000161BF05D0020EFB
:10AFB80000016361F1D700D0000163B103D0000143
:10AFC800619F00D00001D8906333000163510001F4
:10AFD8006213000164510001D8B403D00001628FEC
:10AFE80000D060C060F061C061F062C062F0120021
:10AFF80012000101000501010111D8A427D03D501C
:10B00800D8A4120001D01200010E3D6E000E0001FE
:10B01800A625D96E050E0001A721DA6E02C1DFFF51
:10B028000001A64BA72B0001A7BF0DD00001A75117
:10B0380005E1800E0001A65DD8A005D0000E000134
:10B04800A76F000EA66F000E3D6E1200020E0101E2
:10B05800001901010111D8A427D03F50D8A412002B
:10B0680001D01200010E3F6EC90E0001A825D96E4D
:10B07800060E0001A921DA6E02C1DFFF0001A84B0C
:10B08800A92B0001A9BF0DD0800E0001A85D010EFB
:10B098000001A959D8A005D0000E0001A96F000E23
:10B0A800A86F000E3F6E1200040E01010019010185
:10B0B8000111D8A412000001AF51D8A4120001D088
:10B0C8001200010E0001AF6F000E0001A425D96E19
:10B0D800040E0001A521DA6E02C1DFFF0001A44BB6
:10B0E800A52B0001A5BF0DD00001A55105E1270E34
:10B0F8000001A45DD8A005D0000E0001A56F000EC8
:10B10800A46F000E0001AF6F12001200000160056D
:10B1180000016111D8A427D03D50D8A4120001D055
:10B128001200010E3D6E000E0001A625D96E050E17
:10B138000001A721DA6E62C0DFFF0001A64BA72B32
:10B148000001A7BF0DD00001A75105E1800E000145
:10B15800A65DD8A005D0000E0001A76F000EA66F4F
:10B16800000E3D6E1200020E00016019000161110F
:10B17800D8A427D03F50D8A4120001D01200010E45
:10B188003F6EC90E0001A825D96E060E0001A9213F
:10B19800DA6E62C0DFFF0001A84BA92B0001A9BF2E
:10B1A8000DD0800E0001A85D010E0001A959D8A09C
:10B1B80005D0000E0001A96F000EA86F000E3F6EAB
:10B1C8001200040E0001601900016111D8A41200D8
:10B1D8000001AF51D8A4120001D01200010E0001E5
:10B1E800AF6F000E0001A425D96E040E0001A52141
:10B1F800DA6E62C0DFFF0001A44BA52B0001A5BFDA
:10B208000DD00001A55105E1270E0001A45DD8A0CD
:10B2180005D0000E0001A56F000EA46F000E0001FE
:10B22800AF6F120012000101126F01011205D8A4BC
:10B2380016D0CECF13F10101146BCFCF15F1010158
:10B24800166B010115510101166F156B01011351A0
:10B2580001011527010114510101162300D0030E25
:10B2680001011219D8A416D0B2CF13F10101146B41
:10B27800B3CF15F10101166B010115510101166FCC
:10B28800156B010113510101152701011451010129
:10B29800162300D001010C510101D8A435D015C1E5
:10B2A8000EF116C10FF101010E1F0F1F0E4B0F2BD0
:10B2B800FF0E01010E250101106FFF0E01010F2184
:10B2C8000101116F10C100F111C101F10101026BFF
:10B2D800036BE80E0101046F030E056F000E066F85
:10B2E800000E076FBFEC6BF0100E07D00101D8906D
:10B2F80003330233010101330033E82EF7D700C1CD
:10B308000CF101C10DF1120015C10EF116C10FF1BA
:10B3180001010E1F0F1F0E4B0F2BFF0E01010E25F3
:10B3280001010C6FFF0E01010F2101010D6F1200C9
:10B3380012000001706F00017005D8A416D0CECF9E
:10B3480073F00001746BCFCF75F00001766B0001CC
:10B3580075510001766F756B0001735100017527F7
:10B36800000174510001762300D0030E000170190A
:10B37800D8A416D0B2CF73F00001746BB3CF75F0B8
:10B388000001766B000175510001766F756B000145
:10B39800735100017527000174510001762300D014
:10B3A80000016C510001D8A435D075C06EF076C08C
:10B3B8006FF000016E1F6F1F6E4B6F2BFF0E0001A9
:10B3C8006E250001716FFF0E00016F210001726F81
:10B3D80071C060F072C061F00001626B636BE80ECF
:10B3E8000001646F030E656F000E666F000E676FD5
:10B3F800FCEC6BF0100E07D00001D8906333623379
:10B40800000161336033E82EF7D760C06CF061C08B
:10B418006DF0120075C06EF076C06FF000016E1FFF
:10B428006F1F6E4B6F2BFF0E00016E2500016C6FB6
:10B43800FF0E00016F2100016D6F12001200000164
:10B44800CA510001D8A404D0010E0001CA6F00D06F
:10B45800CAC007F1000E01010A6F5DD0000E01019C
:10B46800096F000E086F2CD001010A51010DF3502D
:10B4780001010025D96EF45001010121DA6E0001A5
:10B48800CA51010DF40EF324E16E030EF420E26EAE
:10B49800E7500101046F01010A51010DF350010148
:10B4A8000025E16EF45001010121E26EE75001012F
:10B4B800042501010A25DF6E0101084B092B00D084
:10B4C8000001CA51010DF40EF324D96E030EF420C5
:10B4D800DA6EDF50070B0101046F056B010104519F
:10B4E8000101085D01010951800A0101066F01018E
:10B4F8000551800A01010659D8A0B6D70001CA2B08
:10B50800070E0001CA6504D0000E0001CA6F00D002
:10B5180001010A2B00D001010A510101046F056BDA
:10B52800010102510101045D01010551800A010177
:10B53800066F01010351800A01010659D8A08ED770
:10B548000101075112001200000E0101116F000ED7
:10B558000101106F000E0F6F000E0101136F000E36
:10B56800126F000E0101006F040E0DEC70F0000E5A
:10B578000101136F000E126F000E0101116F090E09
:10B588000101116501D023D0F6EC75F000D088ECEC
:10B5980075F00009D8A4FBD7C4500101106F0F6BD8
:10B5A800C35001010F13040E0101116509D00101F7
:10B5B8000F5101011227010110510101132300D07D
:10B5C8000A0EE82EFED700D00101112BD8D712C1E0
:10B5D80006F113C107F1000E0101096F050E086F8E
:10B5E80084EC6AF006C112F107C113F1020E0101E1
:10B5F800006F040E0DEC70F0C29012C100F113C17F
:10B6080001F1000E0101036F070E026FCBEC71F020
:10B6180000C106F101C107F1000E0101096F060E14
:10B62800086F84EC6AF006C112F107C113F1010139
:10B63800D4510101125F000E0101D4BFFF0E0101B8
:10B64800135B12C10DF113C10EF112001200000EAE
:10B658000101096F010103AF0DD00101031F021F92
:10B66800011F006D000E012302230323010E0101B7
:10B67800096F00D0010107AF0AD00101071F061F9B
:10B68800051F046D000E05230623072300D00101C2
:10B698000451010105110101061101010711D8B476
:10B6A8003FD0010E0101086F09D00101D89004377D
:10B6B8000537063707370101082B00D0010107BFFE
:10B6C80002D0F3D700D0010104510101005D01014E
:10B6D80005510101015901010651010102590101F8
:10B6E800075101010359D8A011D0010104510101EA
:10B6F800005F010105510101015B010106510101D2
:10B70800025B010107510101035B00D00101D890E0
:10B7180007330633053304330101082FD4D700D08B
:10B72800010109510101D8B40AD00101031F021F08
:10B73800011F006D000E01230223032300D000C166
:10B7480000F101C101F102C102F103C103F11200CC
:10B7580012000101086FFA0E0101086178D008C1D2
:10B7680009F101010A6B09C106F10AC107F10101DA
:10B77800D890063707370101D8900637073706C132
:10B7880009F107C10AF104C1D9FF05C1DAFF09C1EE
:10B7980002F10AC103F16BEC75F00101076FDE508D
:10B7A80001010719D8A451D0010120EE01F004517C
:10B7B800D9260551DA22010E010109250101026F7E
:10B7C800000E01010A210101036F6BEC75F0010104
:10B7D800076FDE5001010719D8A437D0010120EE08
:10B7E80002F00451D9260551DA22020E0101092579
:10B7F8000101026F000E01010A210101036F6BECC8
:10B8080075F00101076FDE5001010719D8A41DD09A
:10B81800010120EE03F00451D9260551DA22030E66
:10B82800010109250101026F000E01010A21010130
:10B83800036F6BEC75F00101076FDE50010107190A
:10B84800D8A403D0010E120000D0000E1200000E82
:10B85800120012000101096F000E01010A6F0F01A9
:10B868005A99000E0001CD6F000E0001D66F000E30
:10B878000001CF6F000E0001D06F000E486E000E61
:10B88800396E200E0101BC6F000E0201676F000EB9
:10B898000001C86F000E0101D56F000E4D6E000E3D
:10B8A800466E8986050E0101076F260EE82EFED723
:10B8B800072FFCD700D08996680E0101076FE40EA8
:10B8C800E82EFED7072FFCD700D0000E0101046F29
:10B8D80001010951DDEC47F0000E01010A6F1F0E4E
:10B8E80001010A6501D015D001010A51010DA90E07
:10B8F800F324D96E020EF420DA6EDF500101026FD4
:10B9080001010A51020DF3501EEC72F001010A2BDD
:10B91800E6D70001B651E4EC74F0F29600F00F019E
:10B928005A8900F081CF08F100F0F290F28609C13F
:10B938004FF0150E0101076FC60EE82EFED7072F30
:10B94800FCD700D093EC74F0010E0001D26F000E0A
:10B958000001D46F1200010E0001D26F000E76ECC8
:10B9680074F0000E0001D46FFF0EC1EC6FF0000EF2
:10B97800E4EC74F0080EA0EC75F0DEC1F6F1DFC15E
:10B98800F7F1E0C1F8F1E1C1F9F1D2C02FF1DEEC35
:10B9980075F0030E0101016FEF0E006FC6EC75F034
:10B9A8000101026F57EC70F0DEEC75F0030E010137
:10B9B800016FFC0E006FCAEC75F00101026F57ECC5
:10B9C80070F0DEEC75F0030E0101016FFD0E006FE3
:10B9D8002FC102F157EC70F0DEEC75F0030E010197
:10B9E800016FFE0E006FC9C002F157EC70F0DEEC7B
:10B9F80075F0030E0101016FE80E006FFF0E0101E3
:10BA0800026F57EC70F0DEEC75F0030E0101016F68
:10BA1800E90E006FFF0E0101026F57EC70F0DEECCB
:10BA280075F0030E0101016FEA0E006FFF0E0101B0
:10BA3800026F57EC70F0DEEC75F0030E0101016F38
:10BA4800EB0E006FFF0E0101026F57EC70F0120051
:10BA580001011F6FFA0E01011F614FD01B0E01017A
:10BA68000C6F010E01010D6F01011F5129EC65F0EA
:10BA78001B0E0101066F010E0101076F14C108F1C9
:10BA880015C109F1040E01010A6FE7EC6FF001011D
:10BA98001F51020DC90EF324D96E080EF420DA6E78
:10BAA800DF503F0B01011A6F01011A51060DBD0E3F
:10BAB800F3240101066F0A0EF4200101076F16C175
:10BAC80008F117C109F1040E01010A6FE7EC6FF0E4
:10BAD80001011F51020D010EF326000EF422C90EBA
:10BAE800F324D96E080EF420DA6EDF501F0B18C14C
:10BAF800D9FF19C1DAFFDF6E1200DE0E0101066FF1
:10BB0800010E0101076F14C108F115C109F1040EF6
:10BB180001010A6FE7EC6FF0DE0E0101066F010EFE
:10BB28000101076F16C108F117C109F1040E0101DF
:10BB38000A6FE7EC6FF018C1D9FF19C1DAFFFF0EE1
:10BB4800DF6E1200120001010D6F01010D511FEC93
:10BB580073F00DC100F10101016B01010651050FE0
:10BB68000101026FFDEC57F007C108F1060E010153
:10BB78000827020E0101096F0101082B03D00101FA
:10BB8800D89009370101082FFAD70101095101019D
:10BB98000A6F0DC100F10101016B0AC102F1FDEC50
:10BBA80057F0000E01010B6F000E01010C6F25D03C
:10BBB8000DC100F10101016B01010C51010DF350A0
:10BBC80001010425D96EF45001010521DA6EDF5018
:10BBD8000101026FFDEC57F001010C51010DF3500A
:10BBE80001010425D96EF45001010521DA6EDF50F8
:10BBF80001010B1B01010C2B00D0010106510101B1
:10BC08000C5DD8A0D5D70DC100F10101016B0BC1A6
:10BC180002F1FDEC57F00DC100F10101016B0D0EB1
:10BC28000101026FFDEC57F00DC100F10101016B3C
:10BC38000A0E0101026FFDEC57F01200000E01011F
:10BC48000A6F5ED0000E0101096F000E086F2DD03B
:10BC580001010A51010DF35001010025D96EF4507C
:10BC680001010121DA6E01010A51010DF3500101B0
:10BC78000025E16EF45001010121E26EE750010157
:10BC8800056F01010451010DF40EF324E16E030E5A
:10BC9800F420E26EE75001010A250008010105259C
:10BCA800DF6E0101084B092B00D001010451010D81
:10BCB800F40EF324D96E030EF420DA6EDF50070B6E
:10BCC8000101056F066B010105510101085D0101C4
:10BCD8000951800A0101076F01010651800A01011B
:10BCE8000759D8A0B5D70101042B070E0101046537
:10BCF80004D0000E0101046F00D001010A2B00D00E
:10BD080001010A510101056F066B01010251010190
:10BD1800055D01010651800A0101076F0101035108
:10BD2800800A01010759D8A08DD71200030E01011E
:10BD380034250101386F000E010135210101396FE9
:10BD480032C106F133C107F124EC66F00101376F07
:10BD580032C106F133C107F138C108F139C109F11F
:10BD6800040E01010A6FE7EC6FF0E20E0101066FA5
:10BD7800010E0101076F040E010138250101086F4A
:10BD8800000E010139210101096F040E01010A6F3A
:10BD9800E7EC6FF0020E0101BE19D8A410D038C12B
:10BDA80004F139C105F101013651080F0101066F8F
:10BDB800000E0101076F020EA7EC5DF000D032C142
:10BDC80006F133C107F1DE0E0101086F010E010112
:10BDD800096F040E01010A6FF1EC6EF00009D8A496
:10BDE8000ED034C120F135C121F101013651080FBF
:10BDF8000101226F37C123F11CEC55F0120034C148
:10BE08002CF135C12DF101013651080F01012E6FBA
:10BE1800F3EC4FF01200120010C106F111C107F146
:10BE28000EC108F10FC109F1040E01010A6FE7EC18
:10BE38006FF0E20E0101006F010E0101016F000EAB
:10BE48000101026F0EC103F10FC104F1040E0101DB
:10BE5800056F040E0101066F04EC68F0010120EE85
:10BE680008F00E51D9260F51DA22030EDF6E0101B8
:10BE780020EE09F00E51D9260F51DA22000EDF6E9E
:10BE8800010120EE0AF00E51D9260F51DA22000ED8
:10BE9800DF6EE20E0101006F010E0101016F000E5D
:10BEA8000101026F0EC103F10FC104F10B0E010174
:10BEB800056F040E0101066F04EC68F010C100F173
:10BEC80011C101F1000E0101026F0EC103F10FC192
:10BED80004F10F0E0101056F040E0101066F04EC59
:10BEE80068F0010120EE13F00E51D9260F51DA2225
:10BEF800000EDF6E1200010119510101175D0101E9
:10BF08001A5101011859D8B045D001011951010140
:10BF18001F6F01011A510101206F0101216B0101FD
:10BF2800226B01011F1F201F211F221F1F2B000E24
:10BF38002023212322230101175101011F2501017B
:10BF4800236F01011851010120210101246F000E06
:10BF5800010121210101256F000E010122210101AA
:10BF6800266F01011B51010123250101276F0101E2
:10BF78001C51010124210101286F01011D510101FA
:10BF880025210101296F01011E510101262101010D
:10BF98002A6F19D019C11FF11AC120F101011F1F01
:10BFA800201F1F4B202B0101175101011F270101E1
:10BFB8001851010120231FC127F120C128F10101D7
:10BFC800296B2A6B00D027C117F128C118F112007C
:10BFD80012000101126F010112510101D8A40DD004
:10BFE800D6CF13F10101146BD7CF15F111D0010190
:10BFF80015510101166F156B0ED0030E01011219B0
:10C00800D8A412D0B2CF13F10101146BB3CF15F13C
:10C018000101166BECD7010113510101152701012C
:10C0280014510101162300D001010C510101D8A4BB
:10C0380035D015C10EF116C10FF101010E1F0F1FEA
:10C048000E4B0F2BFF0E01010E250101106FFF0E85
:10C0580001010F210101116F10C100F111C101F19E
:10C068000101026B036BE80E0101046F030E056FFB
:10C07800000E066F000E076FBFEC6BF0100E07D0B6
:10C088000101D89003330233010101330033E82E54
:10C09800F7D700C10CF101C10DF1120015C10CF167
:10C0A80016C10DF11200000E0101056F010103AF69
:10C0B80009D00101026D031FD8B0032B010E010145
:10C0C800056F00D0010101AF09D00101006D011F0A
:10C0D800D8B0012B010E0101051B00D0000E010193
:10C0E800076F000E066F0101025101010311D8B458
:10C0F80031D0010E0101046F07D00101D890023739
:10C1080003370101042B00D0010103BF02D0F5D78A
:10C1180000D00101D890063707370101025101010B
:10C12800005D0101035101010159D8A00BD00101A3
:10C1380002510101005F010103510101015B01018D
:10C14800068100D00101D890033302330101042F86
:10C15800E0D700D0010105510101D8B406D0010192
:10C16800066D071FD8B0072B00D006C100F107C124
:10C1780001F1120012000101026F01010251060DC6
:10C18800050EF326000EF422BD0EF324D96E0A0E16
:10C19800F420DA6EDE28D8A410D001010251060D71
:10C1A800050EF326000EF422BD0EF324D96E0A0EF6
:10C1B800F420DA6E00C1DFFF120001010251060D02
:10C1C800050EF326000EF422BD0EF324D96E0A0ED6
:10C1D800F420DA6E01010051DE5CD8B00FD0010105
:10C1E8000251060D050EF326000EF422BD0EF324AF
:10C1F800D96E0A0EF420DA6EDF2A1200010102510C
:10C20800060D050EF326000EF422BD0EF324D96E9A
:10C218000A0EF420DA6EDE500101005DD8B012007B
:10C2280001010251060D050EF326000EF422BD0E83
:10C23800F324D96E0A0EF420DA6EDF06120012001B
:10C2480000010203040A0B0C0D0E14151617181E14
:10C258001F20212228292A2B2C05060708090F1040
:10C26800111213191A1B1C1D23242526272D2E2FC6
:10C2780030310031302F2E2D27262524231D1C1B5D
:10C288001A19131211100F09080706052C2B2A2951
:10C29800282221201F1E18171615140E0D0C0B0A24
:10C2A8000403020100010203040A0B0C0D0E14150D
:10C2B8001617181E1F20212228292A2B2C050607AD
:10C2C80008090F10111213191A1B1C1D23242526E7
:10C2D800272D2E2F30310031302F2E2D27262524C3
:10C2E800231D1C1B1A19131211100F090807060524
:10C2F8002C2B2A29282221201F1E18171615140E48
:10C308000D0C0B0A040302010000000E0101086F66
:10C31800000E096F000E0A6F000E0B6F0101045129
:10C32800010105110101061101010711D8B447D017
:10C33800010E01010C6F09D00101D89004370537AF
:10C348000637073701010C2B00D0010107BF02D0C7
:10C35800F3D700D00101D890083709370A370B37CF
:10C36800010104510101005D01010551010101595B
:10C378000101065101010259010107510101035947
:10C38800D8A013D0010104510101005F010105513A
:10C398000101015B010106510101025B0101075125
:10C3A8000101035B0101088100D00101D890073326
:10C3B80006330533043301010C2FCCD700D008C154
:10C3C80000F109C101F10AC102F10BC103F1120028
:10C3D8001B6E4350D8B41FD01B50D8B40CD0FF0EDE
:10C3E80034240E6EFF0E35200F6E040E106E010EF3
:10C3F800A1EC4BF00AD034C00EF035C00FF0040E9B
:10C40800106E010EA1EC4BF000D0070E356E3468AB
:10C41800000E436E00D0010E0001A2250001A26F9C
:10C42800F80E0001A3210001A36F2C06D8A02D0649
:10C438002C502D10D8A40ED0000E2D6E100E2C6E80
:10C4480030C2A2F031C2A3F07F0E0201316FF00EAC
:10C45800306F0BD02C042D10D8A407D0010E436EDA
:10C46800A2C034F0A3C035F000D00001C52BC80E1F
:10C478000001C56504D0000E0001C56F00D002019F
:10C48800322904E102013329D8B412000201324BE7
:10C49800332B12001200000E0101156F000E146FED
:10C4A800010115BF0AD0010115513CE10A0E010135
:10C4B800145DD8B037D001D035D0A8EC5AF00DC1F2
:10C4C800ACF00EC1ADF00001ADBF0ED0230E0001DF
:10C4D800AC5D0C0E0001AD59D8A006D00001AC51DE
:10C4E800DE0F0101D42712D00001ADBF08D01C0E09
:10C4F8000001AC5D0C0E0001AD59D8B007D00001A9
:10C50800AC5100081C0F0101D45F00D0020E0101DC
:10C51800016F8A0E006FF9EC6DF00101144B152BB9
:10C52800BFD700D00101D451800A9F0FD8A01200B4
:10C538000101D451800A600FD8B01200DEEC75F00A
:10C54800030E0101016FF00E006FD4C102F157EC28
:10C5580070F01200120000018E6F8EC0D6F0D6C0A7
:10C5680060F00001616B000E0001636F070E626FDF
:10C57800C6EC63F0000160510101C16F880E000133
:10C58800D66504D0280E0001D66F1200000E0001F7
:10C598006F6F000E0001706F3F0E0001716FDA0EB1
:10C5A80000018A6FFF0E00018B6F0001D651000158
:10C5B8008C6F8D6B00018A5100018C2700018B5113
:10C5C80000018D2300018C1F8D1F8C4B8D2B640E59
:10C5D80000018C250001686F000E00018D2100010B
:10C5E800696F7BEC70F068C06CF069C06DF06AC070
:10C5F8006EF03DEC4FF06CC07BF06DC07CF06EC00F
:10C608007DF099EC52F000017B51280F0001D66FA4
:10C6180012001200D5C200F1D6C201F1D7C202F150
:10C62800D8C203F1D9C204F1DAC205F1DBC206F1BE
:10C63800DCC207F1BFEC6BF000C1D5F201C1D6F244
:10C6480002C1D7F203C1D8F2390E0201D527300E44
:10C65800D623000ED723000ED823100E01010E6F2B
:10C66800D5C20FF1D6C210F1D7C211F1D8C212F15A
:10C6780001010E6701D009D00101123512331133BF
:10C6880010330F3301010E2FF3D7FF0E01010F15E1
:10C698000101006F7F0E010110150101016F000EED
:10C6A800010111150101026F000E010112150101AE
:10C6B800036F0CC104F10DC105F10101066B076B95
:10C6C8002BEC5BF000C10CF101C10DF1120012005E
:10C6D800000E0101056F010101AF09D00101006DD4
:10C6E800011FD8B0012B010E0101056F00D0010117
:10C6F80003AF06D00101026D031FD8B0032B00D091
:10C708000101025101010311D8B42BD0010E01011E
:10C71800046F07D00101D890023703370101042BB9
:10C7280000D0010103BF02D0F5D700D001010251AA
:10C738000101005D0101035101010159D8A009D08F
:10C74800010102510101005F010103510101015B77
:10C7580000D00101D890033302330101042FE6D73A
:10C7680000D0010105510101D8B406D00101006DC6
:10C77800011FD8B0012B00D000C100F101C101F1A7
:10C7880012001200000E0001656F000161AF09D0B0
:10C798000001606D611FD8B0612B010E0001656F4B
:10C7A80000D0000163AF06D00001626D631FD8B0EE
:10C7B800632B00D00001625100016311D8B42BD063
:10C7C800010E0001646F07D00001D890623763370B
:10C7D8000001642B00D0000163BF02D0F5D700D060
:10C7E800000162510001605D00016351000161595F
:10C7F800D8A009D0000162510001605F00016351B7
:10C808000001615B00D00001D890633362330001FE
:10C81800642FE6D700D0000165510001D8B406D0D6
:10C828000001606D611FD8B0612B00D060C060F05E
:10C8380061C061F0120012000EC100F10FC101F1D8
:10C84800000E0101026F0EC103F10FC104F1080EC1
:10C858000101056F080E0101066F06EC6BF0000977
:10C86800D8B412000EC100F10FC101F1080E010188
:10C87800026F0EC103F10FC104F1100E0101056F23
:10C88800080E0101066F06EC6BF00009D8B412001F
:10C89800000E0101106F070E0101106501D01DD0B7
:10C8A800DEEC75F0F40E010110250101006F0101A5
:10C8B800016B030E01230101105101010E25D96EF0
:10C8C8000101000E01010F21DA6EDF500101026F34
:10C8D80057EC70F00101102BDED70EC100F10FC12B
:10C8E80001F1B7EC67F012001200000E0101106FA1
:10C8F800000E0F6F010110BF0AD0010110514AE16B
:10C90800FA0E01010F5DD8B045D001D043D00BC15C
:10C9180004F10CC105F101010F51ADEC5BF0000908
:10C92800D8B433D00FC10DF110C10EF1D890010168
:10C938000D370E37010E01010D27000E0E23C90E0B
:10C9480001010D25D96E080E01010E21DA6EDF50A6
:10C958001F0B1F0AD8B419D00FC10DF110C10EF169
:10C96800D89001010D370E37010E01010D27000E79
:10C978000E23C90E01010D25D96E080E01010E21E5
:10C98800DA6EDF38E832070B120001010F4B102B6B
:10C99800B1D700D0000E12001200EACF1FF0E1CF8D
:10C9A80020F0E2CF21F0D9CF22F0DACF23F0F3CF75
:10C9B80024F0F4CF25F0F6CF26F0F7CF27F0F8CF04
:10C9C80028F0F5CF29F09EB09DA022D09E90F80EB9
:10C9D8002B6E000E2A6E2B50CF6ED3B603D0010EED
:10C9E8004C6E00D04C50ECEC61F0010E0101B86FB8
:10C9F80002016C2B0001CD51D8B404D002013A4B8E
:10CA08003B2B06D0000E02013B6F000E3A6F00D0A0
:10CA180029C0F5FF28C0F8FF27C0F7FF26C0F6FF9A
:10CA280025C0F4FF24C0F3FF23C0DAFF22C0D9FFDA
:10CA380021C0E2FF20C0E1FF1FC0EAFF1EC0E9FFDE
:10CA48001DC0FBFF1CC0FAFF11000101106FFA0E98
:10CA5800010110613ED010C111F10101126B11C129
:10CA68000EF112C10FF10101D8900E370F370101F5
:10CA7800D8900E370F370EC111F10FC112F1000E09
:10CA88000101136F030E0101136502D01200120099
:10CA980001011351010DF35001010C25D96EF45019
:10CAA80001010D21DA6E0101135101011125010166
:10CAB800026F000E010112210101036F6BEC75F08A
:10CAC800DF6E0101132B030E01011365E1D712007C
:10CAD8001200DE0E0101066F010E0101076F0CC185
:10CAE80008F10DC109F1040E01010A6FE7EC6FF0BE
:10CAF800120012000101146F030E0101086F0101F9
:10CB08001451060D050EF326000EF422BD0EF32473
:10CB1800D96E0A0EF420DA6EDF5011EC47F00101ED
:10CB2800136F01011451060D040EF326000EF422B2
:10CB3800BD0EF324D96E0A0EF420DA6EDF380F0B1F
:10CB480052EC72F00101135DD8B012D001011451FA
:10CB5800060D040EF326000EF422BD0EF324D96E42
:10CB68000A0EF420DA6EDF380F0B52EC72F0120066
:10CB7800030E0101086F01011451060D050EF3267D
:10CB8800000EF422BD0EF324D96E0A0EF420DA6EDC
:10CB9800DF5011EC47F0120012000EC106F10FC170
:10CBA80007F1DE0E0101086F010E0101096F040E85
:10CBB80001010A6FF1EC6EF00009D8A41200000E12
:10CBC8000101126F3E0E0101126502D0120012001F
:10CBD80001011251060DBD0EF3240101066F0A0E64
:10CBE800F4200101076F0EC108F10FC109F1040E0D
:10CBF80001010A6FF1EC6EF00009D8B418D010C129
:10CC080011F101011251060D040EF326000EF42253
:10CC1800BD0EF324D96E0A0EF420DA6E0101113B21
:10CC2800DF50010111190F0B1119DF6E12000101FC
:10CC3800122B3E0E01011265CBD712001200120012
:10CC4800000E01010E6F000E0D6F010120EE03F0C2
:10CC58000651D9260751DA22DF500101086F06C1B3
:10CC6800D9FF07C1DAFFDF500101096F0A6B010123
:10CC780020EE01F00651D9260751DA22DF500101D2
:10CC88000B6F01010B5101010927000E0A23010155
:10CC980020EE02F00651D9260751DA22DF500101B1
:10CCA8000C6F01010C5101010927000E0A23010133
:10CCB8000851010109250101006F0101000E010160
:10CCC8000A210101016F000E0101036FC90E026FF5
:10CCD8006CEC63F000C10DF101C10EF101010D51C1
:10CCE80012001200100E0101446F18C10BF119C196
:10CCF8000CF1400E01010D6F010E01010E6FD5EC14
:10CD080040F01D0E01011A6F2E0E01011B6F460E19
:10CD180001011C6F480E01011D6F430E01011E6FBA
:10CD2800010E0101066F000E076F020E086F000E5C
:10CD3800096F0B0E01010A6F000E0B6F000E0C6FCE
:10CD4800000E0D6F1F0E01010E6F010E01010F6F16
:10CD580069EC67F018C10EF119C10FF11A0E010143
:10CD6800106F010E0101116F44C112F1000E010193
:10CD7800136F010E0101146F000E0101156F8CEC89
:10CD880044F012001200100E0101446F18C10BF19B
:10CD980019C10CF1400E01010D6F010E01010E6F5A
:10CDA800D5EC40F01D0E01011A6F2A0E01011B6F10
:10CDB800410E01011C6F530E01011D6F460E01014A
:10CDC8001E6F010E0101066F000E076F020E086F3D
:10CDD800000E096F0B0E01010A6F000E0B6F000E9B
:10CDE8000C6F000E0D6F1F0E01010E6F010E010179
:10CDF8000F6F69EC67F018C10EF119C10FF11A0E27
:10CE08000101106F010E0101116F44C112F1000EF2
:10CE18000101136F010E0101146F000E0101156F5E
:10CE28008CEC44F012001200000E0101106F000E8D
:10CE38000F6F000E0101126F000E116F000E01013D
:10CE4800006F0A0E0DEC70F0000E0101126F000E5B
:10CE5800116F000E0101136F090E0101136501D056
:10CE68001FD0F6EC75F000D088EC75F00009D8A456
:10CE7800FBD7C4500101106F0F6BC35001010F1392
:10CE8800040E0101136509D001010F510101112799
:10CE9800010110510101122300D00101132BDCD72D
:10CEA80011C106F112C107F1000E0101096F050E4B
:10CEB800086F84EC6AF006C111F107C112F111C1C3
:10CEC8000DF112C10EF112001200000E0101106FD7
:10CED800000E116F000E126F000E136F899E030E65
:10CEE800BCEC73F001010851BCEC73F0010107516F
:10CEF800BCEC73F001010651BCEC73F0000E0101AB
:10CF0800106F000E116F000E126F000E136F17D006
:10CF18000101105101010E25D96E010111510101C4
:10CF28000F21DA6ECAEC74F001010051DF6E010EB8
:10CF380001011027000E11231223132300D0010131
:10CF48000A510101105D01010B5101011159010143
:10CF58000C510101125901010D5101011359D8A0B9
:10CF6800D7D7898E1200000E0101036F070E010149
:10CF7800036501D019D001010351010DF3500101DE
:10CF88000025D96EF45001010121DA6E0101035127
:10CF9800010DF40EF324E16E030EF420E26EDFCFF0
:10CFA800E7FF0101032BE2D7000E0101036F070E13
:10CFB8000101036502D01200120001010351010DA5
:10CFC800F35001010025D96EF45001010121DA6EF8
:10CFD800DE28D8A409D0070E01010319D8A408D067
:10CFE800000E0101C56F04D0010E0101C56F1200CA
:10CFF8000101032B070E01010365DFD712001200A0
:10D00800000E01010D6F3FD0010102510DC107F162
:10D018000101086B01010727000E082300C109F16F
:10D0280001C10AF101010751010109270101085154
:10D0380001010A2309C1F6FF0AC1F7FF000EF86EC5
:10D04800010105510DC10BF101010C6B01010B2709
:10D05800000E0C2301010B5101010325D96E0101BA
:10D068000C5101010421DA6E0E0EF76403D008009A
:10D07800F55005D0F6CFE9FFF7CFEAFFEF50DF6EA6
:10D0880001010D2B00D00101065101010D5DD8A051
:10D09800BBD712004BEC75F0899E020EBCEC73F006
:10D0A80001010751BCEC73F001010651BCEC73F0AF
:10D0B80001010551BCEC73F0000E01010F6F000E69
:10D0C800106F000E116F000E126F15D001010F5175
:10D0D80001010925D96E0101105101010A21DA6EF9
:10D0E800DF50BCEC73F0010E01010F27000E102376
:10D0F8001123122300D001010B5101010F5D010121
:10D108000C510101105901010D5101011159010181
:10D118000E5101011259D8A0D9D7898E27EC75F084
:10D1280012001200040E01010E250101066F000E07
:10D1380001010F210101076F10C108F111C109F1A7
:10D14800040E01010A6FE7EC6FF05BEC75F002C1A9
:10D15800D9FF03C1DAFF12C1E1FF13C1E2FFDFCF3C
:10D16800E7FF0EC106F10FC107F1DE0E0101086FDE
:10D17800010E0101096F040E01010A6FF1EC6EF056
:10D188000009D8A412D00EC106F10FC107F1E20EB2
:10D198000101086F010E0101096F040E01010A6FF8
:10D1A800F1EC6EF00009D8B402D0010E1200000EA6
:10D1B80012001200000E0001C66F3E0E0101086148
:10D1C8001200200EB4EC55F0800EB4EC55F00101BD
:10D1D8000851020F13EC75F00001B65113EC75F00D
:10D1E800000E0101096F21D001010951010DF35011
:10D1F80001010625D96EF45001010721DA6EDF50CE
:10D208000001C6190001C66F01010951010DF35053
:10D2180001010625D96EF45001010721DA6EDF50AD
:10D2280013EC75F00101092B00D00101085101012F
:10D23800095DD8A0D9D70001C65113EC75F01200CA
:10D24800120001010B6FFA0E01010B6112000BC1F4
:10D258000CF101010D6B0CC109F10DC10AF10101BD
:10D26800D89009370A370101D89009370A3709C118
:10D278000CF10AC10DF1000E01010E6F030E010140
:10D288000E6502D01200120001010E5101010C2599
:10D298000101046F000E01010D210101056F01015B
:10D2A8000E51010DF35001010725D96EF45001010B
:10D2B8000821DA6EDF500101066F85EC74F0010178
:10D2C8000E2B030E01010E65DFD7120012001200AB
:10D2D80008EC75F00101046F0001CF51D8A41CD0EF
:10D2E80001010429D8A403D004C1D0F007D001015A
:10D2F80004290001D06F0001D005486E400E0001DE
:10D30800D0650AD0400E0001D06F0001D005486EEC
:10D31800010E0201696F00D00001D0510001CF5DFC
:10D32800D8B00ED00001CF51010DA70EF324D96E4D
:10D33800040EF420DA6E04C1DFFF0001CF2B00D009
:10D348000001D0510001CF19D8A412000001D0511A
:10D35800D8B41200010E396E12001200000E01013D
:10D36800106F000E0F6F000E0101126F000E116F8B
:10D37800000E0101136F090E0101136501D01FD0C2
:10D38800F6EC75F000D088EC75F00009D8A4FBD74E
:10D39800C4500101106F0F6BC35001010F13040E2D
:10D3A8000101136509D001010F5101011127010184
:10D3B80010510101122300D00101132BDCD711C138
:10D3C80006F112C107F1000E0101096F050E086F81
:10D3D80084EC6AF006C111F107C112F111C10DF117
:10D3E80012C10EF11200120001012B6F0101262952
:10D3F8001DE101012729D8A419D001012B51020DE3
:10D40800000EF324D96E020EF420DA6EFF0EDE6EE3
:10D41800FF0EDD6E01012B51010D000EF324D96EB4
:10D42800030EF420DA6E28C1DFFF1200010E01019D
:10D4380026250101296F000E0101272101012A6F0C
:10D4480001012B51020D000EF324D96E020EF420B7
:10D45800DA6E29C1DEFF2AC1DDFF01012B51010D62
:10D46800000EF324D96E030EF420DA6E28C1DFFF14
:10D4780012001200000E096E000E0A6E000E0B6EEE
:10D48800000E0C6E0550061007100810D8B42FD0E7
:10D49800010E0D6E07D0D8900536063607360836C9
:10D4A8000D2A00D008BE02D0F6D700D0D890093691
:10D4B8000A360B360C360550015C065002580750E8
:10D4C800035808500458D8A00AD00550015E0650E9
:10D4D800025A0750035A0850045A098000D0D890BD
:10D4E80008320732063205320D2EE0D700D009C0C7
:10D4F80001F00AC002F00BC003F00CC004F01200E7
:10D50800000E01010C6F000E0B6F010108510101A3
:10D518000911D8B431D0010E01010A6F07D00101F9
:10D52800D8900837093701010A2B00D0010109BF3B
:10D5380002D0F5D700D00101D8900B370C37010184
:10D5480008510101065D0101095101010759D8A0DF
:10D558000BD0010108510101065F010109510101C8
:10D56800075B01010B8100D00101D8900933083312
:10D5780001010A2FE0D700D00BC106F10CC107F159
:10D588001200000E0001666F000E656F0001625107
:10D5980000016311D8B431D0010E0001646F07D0C7
:10D5A8000001D890623763370001642B00D0000176
:10D5B80063BF02D0F5D700D00001D8906537663731
:10D5C800000162510001605D000163510001615971
:10D5D800D8A00BD0000162510001605F00016351C7
:10D5E8000001615B0001658100D00001D8906333C0
:10D5F80062330001642FE0D700D065C060F066C0D8
:10D6080061F01200000E01010D6F31D001010551CA
:10D618000DC107F10101086B01010727000E08235E
:10D628000101075101010325D96E010108510101CA
:10D638000421DA6E010102510DC10AF101010B6BDF
:10D6480001010A27000E0B2301010A5101010025DF
:10D65800E16E01010B5101010121E26EDE50E61875
:10D66800D8B402D0000E120001010D2B00D0010128
:10D67800065101010D5DD8A0C9D7010E1200120094
:10D68800000E0101116F000E106F010111BF0AD0C9
:10D698000101115130E13F0E0101105DD8B02BD0CE
:10D6A80001D029D010C100F111C101F1000E010112
:10D6B800036F060E026FCBEC71F0BD0E0101002561
:10D6C8000101066F0A0E010101210101076F0EC158
:10D6D80008F10FC109F1040E01010A6FF1EC6EF0B7
:10D6E8000009D8B403D00101105112000101104BF8
:10D6F800112BCBD700D0FF0E12001200120E010121
:10D708000E6F010E01010F6FF60E0101106F010E71
:10D718000101116F10EC5FF0000E0101266F710E10
:10D728000101006FFE0E0101016F000E0101026F81
:10D73800120E0101036F010E0101046F150E0101A4
:10D74800056F240E0101066F04EC68F00101C55154
:10D75800300F01014B6F120E0101046F010E010120
:10D76800056F3A0E0101066F000E0101076F020EE8
:10D77800A7EC5DF01200000E0101086F000E096FA2
:10D78800000E0A6F000E0B6F00D0010100A111D02E
:10D798000101045101010827010105510101092373
:10D7A8000101065101010A230101075101010B235F
:10D7B80000D00101D8900437053706370737010133
:10D7C800D8900333023301330033010100510101C2
:10D7D80001110101021101010311D8A4D6D708C112
:10D7E80000F109C101F10AC102F10BC103F11200F4
:10D7F800000E0001686F000E696F000E6A6F000E60
:10D808006B6F00D0000160A111D0000164510001CC
:10D818006827000165510001692300016651000174
:10D828006A230001675100016B2300D00001D890E2
:10D8380064376537663767370001D89063336233DA
:10D848006133603300016051000161110001621110
:10D8580000016311D8A4D6D768C060F069C061F030
:10D868006AC062F06BC063F0120001011A6F010117
:10D878001A512EEC5CF0000E0101C46F000E01017C
:10D88800DC6F010E0101EF6F7F0E0201316FF00EA8
:10D89800306F7F0E0001A36FF00EA26F000E2D6E89
:10D8A800100E2C6E070E01010E6F0D69040E01019A
:10D8B8000F6F010E65EC45F0010E0001A225000175
:10D8C800A26FF80E0001A3210001A36F2C06D8A0B7
:10D8D8002D06070E356E3468090E56EC74F01200EA
:10D8E80001010251010100250101086F01010351E5
:10D8F800010101210101096F08C10AF109C10BF1F8
:10D9080001010C6B0D6B10D00101045101010A5F7C
:10D918000101055101010B5B0101065101010C5B7D
:10D928000101075101010D5B0101045101010A5D6B
:10D938000101055101010B590101065101010C5961
:10D948000101075101010D59D8B0DED70AC100F114
:10D958000BC101F11200060E0101446F18C10BF151
:10D9680019C10CF1400E01010D6F010E01010E6F7E
:10D97800D5EC40F01F0E01011A6F2A0E01011B6F32
:10D98800530E01011C6F460E01011D6F540E01015B
:10D998001E6FD7C01FF118C10EF119C10FF11A0E71
:10D9A8000101106F010E0101116F44C112F1000E47
:10D9B8000101136F010E0101146F000E0101156FB3
:10D9C8008CEC44F012001200000E01011B6F710E66
:10D9D8000101006FFE0E0101016F000E0101026FCF
:10D9E8001B0E0101036F010E0101046F010E0101FD
:10D9F800056F240E0101066F04EC68F00101C551A2
:10DA0800300F0101406F18C10EF119C10FF11B0E43
:10DA18000101106F010E0101116F260E0101126F35
:10DA2800000E0101136F1AC114F1000E0101156FE8
:10DA38008CEC44F0120012003D0E0101536F14C12A
:10DA480016F115C117F114C100F115C101F1000E4D
:10DA58000101036F380E026FCBEC71F0010100C1B8
:10DA680006F1010101C107F10101086B096B380ECC
:10DA780001010A6F000E0B6F000E0C6F000E0D6F88
:10DA8800180E01010E6F010E01010F6F69EC67F0AE
:10DA9800160E0101066F010E0101076F53C108F14F
:10DAA800DEEC68F012000101046F01010451020D5F
:10DAB800000EF324D96E020EF420DA6EDE50DE106A
:10DAC800D8B418D001010451020D000EF324D96E08
:10DAD800020EF420DA6EDECF02F1DDCF03F1FF0E85
:10DAE800010102250101006FFF0E0101032101015F
:10DAF800016F120001010451020D000EF324D96ECA
:10DB0800020EF420DA6EDECF00F1DDCF01F1120053
:10DB1800120001010F5101011011D8B42BD0010ED0
:10DB28000101116F07D00101D8900F37103701019B
:10DB3800112B00D0010110BF02D0F5D700D0010190
:10DB48000F5101010D5D0101105101010E59D8A0BD
:10DB580009D001010F5101010D5F010110510101AF
:10DB68000E5B00D00101D89010330F330101112F43
:10DB7800E6D700D00DC10DF10EC10EF11200000163
:10DB8800695100016A11D8B42BD0010E00016B6FE6
:10DB980007D00001D89069376A3700016B2B00D095
:10DBA80000016ABF02D0F5D700D000016951000119
:10DBB800675D00016A5100016859D8A009D00001C9
:10DBC80069510001675F00016A510001685B00D07C
:10DBD8000001D8906A33693300016B2FE6D700D073
:10DBE80067C067F068C068F0120014D0D00E010159
:10DBF800026FCA0EE82EFED7022FFCD7F60E0101DF
:10DC080000250101006FFF0E010101210101016FD3
:10DC1800040000D001010151E9E10B0E0101005D92
:10DC2800D8A010D0E3D70ED0150E0101026FC60E92
:10DC3800E82EFED7022FFCD700D001010007D8A09C
:10DC4800010704000101005101010111D8A4ECD71A
:10DC580012000101026F3F0EC716000EC66E0101C9
:10DC68000251C61201010151C71205D0C78C16D046
:10DC7800C78CC68813D001010051000AD8B4F6D762
:10DC8800020AD8B4F5D7010AD8B4F3D707D09486D6
:10DC9800928A0DD094860BD0949609D00101025136
:10DCA800040AD8B4F4D7010AD8B4F4D7F5D79488BD
:10DCB800949AC68A1200000E01010E6F0001DA5113
:10DCC800AAEC73F0040E01010C6F010E17EC59F069
:10DCD8000001A25101010C250101236F0001A3518C
:10DCE80001010D210101246FD2EC75F00101206FB3
:10DCF80023C122F1010124510101216F200E0101EC
:10DD0800176F010E0101186F030E0101196F010E43
:10DD180001011A6FA2EC48F012002CD04804D8A4D4
:10DD280005D0BDEC74F00201676F00D00001D0513E
:10DD38000001CF5DD8B00FD00001CF51010DA70E63
:10DD4800F324D96E040EF420DA6E08EC75F0DF6E59
:10DD58000001CF2B00D00001D0510001CF19D8A469
:10DD680007D00001D051D8B403D0010E396E00D0CD
:10DD7800480600D04850D8A4D1D712000001D55188
:10DD8800D8A428D0CD909E9081CF0DF100F0F290CC
:10DD9800F2960101BC51D8B404D0000EB4EC55F091
:10DDA80000D089848982C69A000E0101016F000E95
:10DDB800006F010E0101026FC6EC3FF08B8A94964A
:10DDC80094988B968B98949C8B8C949E8B8E8A942B
:10DDD800938600D0010E12001200000E01010D6F93
:10DDE8001FD001010D51010DF35001010825D96E15
:10DDF800F45001010921DA6E01010D51010DF350B2
:10DE080001010625E16EF45001010721E26EDE50A2
:10DE1800E618D8B402D0000E120001010D2B00D074
:10DE280001010A5101010D5DD8A0DBD7010E1200D6
:10DE380012001D0E01011A6F250E01011B6FF6C19C
:10DE48001CF1F7C11DF1F8C11EF1F9C11FF1060E51
:10DE58000101406F18C10EF119C10FF11A0E01012D
:10DE6800106F010E0101116F40C112F1000E010186
:10DE7800136F010E0101146F000E0101156F8CEC78
:10DE880044F0120012000101B851D8A41200010197
:10DE9800B951D8A412000101BB51D8A41200000145
:10DEA800CD51D8A412000001C851D8A41200010114
:10DEB800D251D8A412004E50D8A412000101CE515C
:10DEC800D8A412003650D8A412000101EC51D8B4DD
:10DED8001200AFEC75F0120012002CC121F12DC117
:10DEE80022F13C0E0101236F010E0101246F010E86
:10DEF8000101256F03EC3CF02CC10EF12DC10FF18F
:10DF080044EC6BF001012F6F2AC115F12BC116F1FA
:10DF18002FC117F12EC118F1000E0101196F010E62
:10DF280001011A6FC2EC1DF012002A8C02020CC10A
:10DF380077643277623238F81180E93838070000A0
:10DF48000507090CF2004010DC80FFFFFFFFFFFF10
:10DF5800FFFFFFFFFFFF010000006D4EC6411700E5
:10DF680001000800FF000101FFFFFFFFFFFFFFFFA7
:10DF7800FFFFFFFFFFFFFFFFFF0001012C6F000EF7
:10DF88000101EE6F2CC1C9F0000E01012E6F3E0E8B
:10DF98002D6F2DC100F12EC101F1000E0101036F9B
:10DFA8001E0E026FCBEC71F000C12DF101C12EF1F4
:10DFB8002DC126F12EC127F1000E0101286F070E91
:10DFC800F8EC69F01200000E01010B6F1BD0010183
:10DFD8000B51010DF35001010625D96EF4500101D2
:10DFE8000721DA6E01010B51010DF35001010825DB
:10DFF800E16EF45001010921E26EDFCFE7FF010174
:10E008000B2B00D001010A5101010B5DD8A0DFD70D
:10E0180012000101026F00C101F10101013BC15071
:10E0280001010119CF0B0119C16EC196C190C192AE
:10E03800C19402C101F1010101470147C250010128
:10E048000119830B0119C26EC086C088C08AC050EE
:10E05800F80B0609C06EC08EC2801200000E0101C6
:10E06800016F3E0E0101016501D01AD00101015175
:10E07800060D040EF326000EF422BD0EF324D96E0D
:10E088000A0EF420DA6EDF500F0B0101006F020E4A
:10E098000101006102D0010E12000101012BE1D73C
:10E0A800000E12001200000E0101036F0101015160
:10E0B800030B756E00C174FF02C173FF7F9E7F9CC6
:10E0C8007F84000EF2BE010E0101036FF29E550E11
:10E0D8007E6EAA0E7E6E7F8200D07FB2FED70101CF
:10E0E80003B102D0F29E01D0F28E7F941200000E8E
:10E0F80000016B6F000169AF09D00001686D691FED
:10E10800D8B0692B010E00016B6F00D068C060F0B9
:10E1180069C061F00001626B8E0E0001636F6BC015
:10E1280064F06DEC57F060C068F061C069F062C0DF
:10E138006AF0120012001A0E0101006F010E0101AF
:10E14800016F9EEC50F00101406F18C10EF119C12A
:10E158000FF11A0E0101106F010E0101116F40C17C
:10E1680012F1000E0101136F010E0101146F000E70
:10E178000101156F8CEC44F01200120093968A8608
:10E188008986050E0101046F260EE82EFED7042F9E
:10E19800FCD700D08996680E0101046FE40EE82EC2
:10E1A800FED7042FFCD700D0DEEC75F0030E01017A
:10E1B800016FFE0E006FFF0E0101026F57EC70F049
:10E1C80012001D0E01011C6F1AC11DF11BC11EF1A9
:10E1D800030E0101426F18C10EF119C10FF11C0E97
:10E1E8000101106F010E0101116F42C112F1000E01
:10E1F8000101136F010E0101146F010E0101156F6A
:10E208008CEC44F012000FC106F110C107F1E20EC8
:10E218000101086F010E0101096F040E01010A6F67
:10E22800E7EC6FF00101DE690101DF690101E069D6
:10E238000101E169E20E0101066F010E0101076F9C
:10E2480024EC66F0A5EC75F012000101016F0101E4
:10E2580001510101D8B409D00001D251D8B413D06A
:10E26800899C8B94898012000ED001010051010114
:10E27800D8B409D00001D451D8B405D0898C8B9476
:10E288008990120000D0899C8B848990120000012B
:10E29800616F000161510001D8B409D00001D25169
:10E2A800D8B413D0899C8B94898012000ED00001B9
:10E2B80060510001D8B409D00001D451D8B405D0B8
:10E2C800898C8B948990120000D0899C8B848990CA
:10E2D80012000101026F01010251020D000EF32428
:10E2E800D96E020EF420DA6EDE04DE10D8A40FD048
:10E2F80001010251020D000EF324D96E020EF42022
:10E30800DA6E000EDE6E000EDD6E010E1200000EDB
:10E31800120012000101006F010100510101D8A48F
:10E3280009D0D59E000ED76E000ED66E850ED56E1E
:10E33800D58E1200030E01010019D8A41200000E98
:10E34800B36E000EB26E8C0EB16EA292A192B18025
:10E35800120012000101046F01010451D8090101E2
:10E36800056F05C102F13C0E1EEC72F0C80E0101EA
:10E37800056F05C102F11A0E1EEC72F0000E0101C4
:10E38800056F05C102F13E0E1EEC72F0120001018C
:10E39800005101010203F3CF04F1F4CF05F10101AB
:10E3A800005101010303F350010105270101015147
:10E3B80001010203F3500101052704C100F105C161
:10E3C80001F1120012000001605100016203F3CF55
:10E3D80064F0F4CF65F00001605100016303F3506D
:10E3E800000165270001615100016203F35000013B
:10E3F800652764C060F065C061F012001200010179
:10E408002C6F01012C510101D8B404D0010E010177
:10E41800EF6F1200000E0101EF6F010E0101276F6F
:10E42800680E266F010E0101286F0F0EF8EC69F0D7
:10E43800120012000101036F899401010351BCEC21
:10E4480073F0E40E00D000D0E82EFCD700D000D046
:10E4580001010251BCEC73F0E40E00D000D0E82EAC
:10E46800FCD700D000D089841200000E01010C6F87
:10E47800010E17EC59F001010C1F01010D1F0101DC
:10E488000C4B0D2B3E0E01010C250101176F000EE0
:10E4980001010D210101186F120012000101006F26
:10E4A800060E0101006102D0000E03D001010051E7
:10E4B800FB0F0101016F070E0101016503D0070E73
:10E4C8000101016F0101015112001200000E01014A
:10E4D800056F000E0101066F0BD01C0E34EC73F0B3
:10E4E8000101066F01010651020B0101056F00D001
:10E4F800010105510101D8B4F0D712000101026FE2
:10E50800000E0101016F3A0E0101026108D02F0EC1
:10E518000101026504D0010E0101016F00D001C1A3
:10E5280000F10101003112001200000E0101276FF5
:10E53800010E266F010E0101286F020EF8EC69F03A
:10E54800000E0101276F010E266F010E0101286FD1
:10E55800030EF8EC69F01200000E0101276F010E9E
:10E56800266F000E0101286F040EF8EC69F0000E0A
:10E578000101276F050E266F010E0101286F130E8A
:10E58800F8EC69F012000001626F000E0001616F83
:10E598003A0E0001626108D02F0E0001626504D0B6
:10E5A800010E0001616F00D061C060F000016031B0
:10E5B800120012004BEC75F0899E200EBCEC73F033
:10E5C80001010751BCEC73F001010651BCEC73F07A
:10E5D80001010551BCEC73F0898E27EC75F012002F
:10E5E80008C100F109C101F10101026B8E0E0101A0
:10E5F800036F000E0101046FDDEC56F000C108F155
:10E6080001C109F102C10AF1120012000101006FF3
:10E61800080E0001CE6112000001CE51010D170E47
:10E62800F324D96E030EF420DA6E00C1DFFF000177
:10E63800CE2B120012000101036F03C100F101018A
:10E64800016B240E0101026FFDEC57F003C100F1CC
:10E658000101016B240E0101026FFDEC57F012005D
:10E668000101046F89940101045140090101046FFB
:10E6780001010451BCEC73F0CAEC74F000C103F161
:10E68800898401010351120012000001646F89940A
:10E698000001645140090001646F00016451CEEC2F
:10E6A80073F0D7EC74F060C063F0898400016351A3
:10E6B800120012000101026F01010251020D000E49
:10E6C800F324D96E020EF420DA6EDE50DE10D8A4E0
:10E6D80002D0010E1200000E120012004D2A4D50F9
:10E6E8004618D8A41200000E0001C86F000E0001E1
:10E6F800606F000E4BEC71F0000E4D6E000E466E12
:10E7080012001200020E01010C6F0AC10DF10BC1BB
:10E718000EF10D0E0101066F010E0101076F0CC10C
:10E7280008F1DEEC68F01200000E0101036F899E0B
:10E73800050EBCEC73F0CAEC74F001010051010144
:10E74800036F898E010103511200120001010F6F3E
:10E7580001010F514F18D8B4120001D012000EC198
:10E7680004F101010F51DDEC47F00FC14FF0120029
:10E778000101016FC9CF00F19E96C69E01C1C9FF74
:10E78800C6BE120002D0120000D09EB61200FDD7FD
:10E79800120012000001616FC9CF60F09E96C69EFC
:10E7A80061C0C9FFC6BE120002D0120000D09EB6DA
:10E7B8001200FDD7120012000101036F0001BA51C7
:10E7C800D8B41200000E0101016F020E006F03C1E0
:10E7D80002F1FDEC57F01200120052C020F1200E99
:10E7E8000101176F010E0101186F010E0101196F68
:10E7F800010E01011A6FA2EC48F012000101066F28
:10E8080001010651010B0001D26F010106510E0BE7
:10E818000101056F0101055176EC74F01200D08EEC
:10E82800F290F28CF196F1920F015A9F0F015A9DC6
:10E838000F015A9B0F015A99F286F190F28E12003D
:10E848000001636F0001BA51D8B41200000E000134
:10E85800616F020E606F63C062F08AEC58F01200BC
:10E868001200000162510201D9270001635102011F
:10E87800DA23000164510201DB2300016551020122
:10E88800DC2312000101046F0001D351D8A404D085
:10E898000001BE51D8B4120001010451E0EC73F03C
:10E8A800120012000101006F01010051020D000E5B
:10E8B800F324D96E020EF420DA6E000EDE6E000E1E
:10E8C800DD6E12000001646F0001D351D8A404D09A
:10E8D8000001BE51D8B412000001645124EC74F058
:10E8E800120012000101046F0201C351F00B010173
:10E8F80004110201C36FC3C202F1340E1EEC72F0A0
:10E908001200010E0101DD6FDEEC75F004C100F1AB
:10E9180005C101F106C102F157EC70F01200200E9A
:10E92800B4EC55F0400EB4EC55F042EC75F06AECDE
:10E9380072F0600EB4EC55F0120001010151030BA6
:10E94800756E00C174FF7F9C7F9E7F8000F000F091
:10E958007350120012000101006F00C1C4F10101DF
:10E9680000510101D8A41200010E0101EF6F12003D
:10E9780012003C0E34EC73F00101056F010105A192
:10E9880002D0010E1200000E12001200C9CF02F1CF
:10E998009E96000EC96E00D09EA6FED7C9CF00F184
:10E9A8000101016B1200C9CF62F09E96000EC96E7C
:10E9B80000D09EA6FED7C9CF60F00001616B12009F
:10E9C8000101046F04C1B6F004C1C6F2C6C202F167
:10E9D8003A0E1EEC72F012000101006F01010051A5
:10E9E8000101D8B402D09396120093861200120047
:10E9F8000101006F010100510101D8B402D08A84DD
:10EA080012008A941200120089848992CAEC74F068
:10EA180000C103F1898201010351120012000101B2
:10EA2800026F8984899201010251BCEC73F08982DA
:10EA380012005128D8B402D0512A02D0000E516ECB
:10EA480051501200120000D098EC73F00101046FCD
:10EA5800010104B1F9D7120000D098EC73F001015C
:10EA6800046F010104A3F9D712000101496F48C1DD
:10EA78002CF1010149514AEC25F01200070E010161
:10EA8800046F04C102F11C0E1EEC72F01200899E84
:10EA9800060EBCEC73F0898E30EC75F0120000C1E4
:10EAA800D5F201C1D6F20201D76BD86B120063EC24
:10EAB80075F000C102F101C103F112001200D60E77
:10EAC8000101006F000E0101016F1200120002C166
:10EAD80000F103C101F1A1EC74F012001200010869
:10EAE800010101FF01010101FFFFFFFF0101066FA5
:10EAF8000101065181EC75F012000101056F010159
:10EB08000551E4EC74F01200C2A202D0010E12000A
:10EB1800000E12001200070E0101016F00691200B9
:10EB28001200280E49EC73F0AFEC62F012000201FB
:10EB3800C3510E0B120012000101006F00C1EDF16C
:10EB480012000101006F00C1CFF11200B2C100F143
:10EB5800B3C101F11200D39ED18E0300040012004C
:10EB6800B2C160F0B3C161F0120077C0B2F178C0F1
:10EB7800B3F1120003FFFFFF00C20100FFFFFFFF18
:10EB8800FFFFFFFF0101ED51120012000001B65115
:10EB980012001200D6EC75F0120012000001C551E7
:10EBA800120012000001BF51120012000101C451ED
:10EBB8001200120000D07FB2FED712000201E1510C
:10EBC800120012000001C551120012000001BF51CD
:10EBD80012001200FA0E12001200000E12001200AB
:0AEBE800FF3C0319C2821200120064
:10FE58000001000A006400E80310270100100000F8
:10FE6800010010000111100200656D447269766589
:10FE78002C322E3137372C312E33312C322C302C7A
:10FE8800302C303030303030303030302C003C4581
:10FE98003E4E6F7420416C6C6F77656420746F20E0
:10FEA80073656E643C2F453E004D6173743A203093
:10FEB800782530325825303258253032582530329E
:10FEC80058200049443A20307825303258253032BD
:10FED80058253032582530325820003C453E73743E
:10FEE8006279207768696C6520696E743C2F453E9D
:10FEF800003C453E476F696E6720746F2054583147
:10FF08003C2F453E003C453E5265637620583220E2
:10FF1800444154413C2F453E003C453E4D617820CC
:10FF2800726574726965733C2F453E004669726D4F
:10FF3800776172653A2076322E31373720003C459A
:10FF48003E526563762058322042433C2F453E009E
:10FF58003C543E476574526566726573683C2F541D
:10FF68003E00303132333435363738394142434434
:10FF780045460047726F75703A2030782530325800
:10FF880020003C543E526566726573683C2F543EAF
:10FF9800004E6F64653A203078253032582000438F
:10FFA8006F723A202530325820004261743A202579
:10FFB800303458200053533A20253032582000500E
:10FFC80070723A2025692000547970653A20003C07
:10FFD8002F44413E003C2F55413E00574452535454
:10FFE800003C44413E003C55413E00256320004210
:08FFF8004F5200504F5200006F
:020000040020DA
:08000000FFFFFFFFFFFFFFFF00
:020000040030CA
:0E0000001D981B36FF8980FF0FC00FE00F40D8
:00000001FF
