:10070000ABEF04F0FFFFFFFF4682FACF10F0FBCF04
:1007100011F0D9CF12F0DACF13F0F3CF14F0F4CFF9
:1007200015F0F6CF16F0F7CF17F0F8CF18F0F5CF99
:1007300019F00E0129AB9FEF03F0A1EF03F0ACEF2E
:1007400003F033ABA6EF03F0A8EF03F0ACEF03F038
:10075000E5EC0CF095EF04F0F2ACB1EF03F0B3EF81
:1007600003F095EF04F02CA7B8EF03F0BAEF03F015
:10077000D1EF03F036A7BFEF03F0C1EF03F0D1EFE5
:1007800003F002D8CFEF03F00500FA6E02013451F6
:10079000FD6E3551FE6E3651FF6EFA50120095EF28
:1007A00004F02CA5D6EF03F0D8EF03F0E1EF03F04F
:1007B00036A5DDEF03F0DFEF03F0E1EF03F0C1EF6B
:1007C00003F02DA1E6EF03F0E8EF03F0FFEF03F0F5
:1007D00037A1EDEF03F0EFEF03F0FFEF03F002D8E6
:1007E000FDEF03F00500FA6E0301FA51FD6EFB51B7
:1007F000FE6EFC51FF6EFA50120095EF04F02DA32F
:1008000004EF04F006EF04F01DEF04F037A30BEF44
:1008100004F00DEF04F01DEF04F002D81BEF04F01C
:100820000500FA6E0401ED51FD6EEE51FE6EEF51C2
:10083000FF6EFA50120095EF04F02CA922EF04F09D
:1008400024EF04F03BEF04F036A929EF04F02BEF7E
:1008500004F03BEF04F002D839EF04F00500FA6E23
:100860000401E151FD6EE251FE6EE351FF6EFA505C
:10087000120095EF04F02CAB40EF04F042EF04F0CF
:1008800059EF04F036AB47EF04F049EF04F059EFAD
:1008900004F002D857EF04F00500FA6E0401DE51AF
:1008A000FD6EDF51FE6EE051FF6EFA50120095EFC3
:1008B00004F02DA95EEF04F060EF04F077EF04F090
:1008C00037A965EF04F067EF04F077EF04F002D882
:1008D00075EF04F00500FA6E0401DB51FD6EDC518A
:1008E000FE6EDD51FF6EFA50120095EF04F02DAB55
:1008F0007CEF04F07EEF04F095EF04F037AB83EF6C
:1009000004F085EF04F095EF04F002D893EF04F0C3
:100910000500FA6E0401D851FD6ED951FE6EDA5110
:10092000FF6EFA50120095EF04F019C0F5FF18C0E1
:10093000F8FF17C0F7FF16C0F6FF15C0F4FF14C08C
:10094000F3FF13C0DAFF12C0D9FF11C0FBFF10C0C4
:10095000FAFF46921100778EAEEF04F038EFECF01C
:100960000001606F630E1F6E000E206E000E226E7F
:10097000060E216E00016051610F37ECF6F065C084
:1009800027F0273A0F0E271600016451286E296AB6
:10099000283A293AF00E291628500F0B2912F00E8A
:1009A000281627502824616F000E2920626F61C02D
:1009B00025F062C026F0120002012991020E286F74
:1009C000EAEF04F0B7EC0DF007EF05F0B3EC0DF033
:1009D00007EF05F016C20CF017C20DF022EE06F07C
:1009E00002D8FDEF04F00500FA6EDE50FD6EDE5019
:1009F000FE6EDE50FF6EFA501200020AD8B4E2EF2B
:100A000004F0010AD8B4E2EF04F0E6EF04F01200BB
:100A1000000E0001DD6F000EDC6F000EDB6F330E89
:100A200033EC09F01A500001DC271B50DD23DB2BCF
:100A3000090EDB651EEF05F020EF05F00FEF05F066
:100A4000DCC0D2F0DDC0D3F0000ED56F0A0ED46F3B
:100A500082ECFBF0D2C0DCF0D3C0DDF0DCC0D9F01A
:100A6000DDC0DAF012004FEF05F062C0D9FF63C0BD
:100A7000DAFFDF50286E64C0D9FF65C0DAFF62C0BC
:100A8000E1FF63C0E2FFDFCFE7FF624B632B64C08F
:100A9000D9FF65C0DAFF28C0DFFF644B652B00017A
:100AA0006007D8A06107602906E16129D8A45BEF3F
:100AB00005F05DEF05F035EF05F012001B6E7DEFE0
:100AC00005F01A50D8B467EF05F069EF05F06CEF48
:100AD00005F07C8488EF05F07C9488EF05F01A50CF
:100AE000D8B475EF05F077EF05F07AEF05F07C8864
:100AF00088EF05F07C9888EF05F01B50010AD8B408
:100B000061EF05F0030AD8B46FEF05F088EF05F048
:100B10001200799A4B0E28EC0CF0000E28EC0CF029
:100B2000000E28EC0CF0000E28EC0CF0000E28EC67
:100B30000CF0070E1D6E000E1E6E1D501B24D96E8C
:100B4000000E1C20DA6E000E28EC0CF0DF6E1D0685
:100B50001E2A070E1E64AFEF05F0B1EF05F09DEF02
:100B600005F0798A120062C02BF063C02CF060C0DF
:100B700029F061C02AF0CDEF05F02BC0D9FF2CC0C1
:100B8000DAFFDF50286E2B4A2C2A29C0D9FF2AC051
:100B9000DAFF28C0DFFF294A2A2A00016407D8A00B
:100BA0006507642906E16529D8A4D9EF05F0DBEFD4
:100BB00005F0BDEF05F012000001DE51E25DE66FC9
:100BC000DF51E359E76FDE51E05DE46FDF51E1593A
:100BD000E56FE6C022F0E7C023F0000E256E5A0E46
:100BE000246E73EC0BF022C0D2F023C0D3F0E4C02B
:100BF000D4F0E5C0D5F082ECFBF0D2C0E6F0D3C073
:100C0000E7F00001E6511200000E6A6E000E6B6EF6
:100C1000000E6C6E000E6D6E000E686E000E696E3A
:100C2000000E666E000E0F015F6F000E5D6F000E0E
:100C30005E6F000E596F000E5A6F000E5B6F000E54
:100C4000656E000E586F000E566F1F0E576F840EA4
:100C5000606E5C691200000E1B6E100E1A6E20C0D2
:100C60001CF078EC06F0000E216E48EF06F0110E35
:100C700021241A6E1B6A000E1B2221501E24D96EDD
:100C8000000E1F20DA6EDF501C6E78EC06F0212A71
:100C90002050215CD8A04FEF06F051EF06F037EF5F
:100CA00006F01200000E1B6E100E1A6EE0EC0BF038
:100CB0001E6E000E1F6E6DEF06F01F501C24D96EC5
:100CC000000E1D20DA6E110E1F241A6E1B6A000E14
:100CD0001B22E0EC0BF0DF6E1F2A1E501F5CD8A019
:100CE00074EF06F076EF06F05DEF06F01E5012008E
:100CF000000EF2BE010E1D6E1B50030B756E1AC066
:100D000074FF1CC076FF3F0E77167784F29E550E57
:100D1000786EAA0E786E778277B291EF06F093EF35
:100D200006F08CEF06F0779477503F0B8009776ED2
:100D30001DB002D0F29E01D0F28E12007D9C150EE5
:100D40001B6EC60EE82EFED71B2EFCD700D07D8C66
:100D5000110E1C6E3C0E1B6ECB0EE82EFED71B2E0A
:100D6000FCD71C2EFAD700F0B8EF06F057ECFFF0D6
:100D700074EC0CF00009D8A4C0EF06F0C2EF06F046
:100D8000B6EF06F01200000E0001931B000E941B3C
:100D9000000E951B800E961B8FC07FF090C080F0D8
:100DA00091C081F092C082F093C083F094C084F02F
:100DB00095C085F096C086F00DECA8F07FC08FF04E
:100DC00080C090F081C091F082C092F012000001CA
:100DD000606F630E1F6E000E206E000E226E020EFC
:100DE000216E000160510C0F37ECF6F000016351E9
:100DF000286E276A64512724616F000E2820626FD5
:100E0000D89062336133D8906233613361C025F08A
:100E100062C026F01200200E0201F56112EF07F009
:100E200014EF07F02CEF07F0600E9D25D96EDA6AFB
:100E3000080EDA22DF500E01DD6F02019D2B1F0E1E
:100E40009D6525EF07F027EF07F029EF07F0000E6B
:100E50009D6FF52B2EEF07F00E012D991200200E3D
:100E60000201F36136EF07F038EF07F050EF07F0BB
:100E70009D0EA225D96EDA6A060EDA22DF500E0127
:100E8000EB6F0201A22B1F0EA26549EF07F04BEF9B
:100E900007F04DEF07F0000EA26FF32B52EF07F0B3
:100EA0000E012D911200236E2304D8A45AEF07F0EF
:100EB0005CEF07F064EF07F020C01BF021C01CF0CE
:100EC000C9ECFEF075EF07F0020E2318D8A46BEF03
:100ED00007F06DEF07F075EF07F020C01BF021C0A1
:100EE0001CF022C01DF076EC07F01200000E1F6E01
:100EF0008FEF07F00201F451D8B481EF07F083EFD0
:100F000007F08FEF07F01F501B24D96E000E1C2036
:100F1000DA6EDF501E6E1E50D1ECFDF01F2A1D5000
:100F20001F5CD8A096EF07F098EF07F07AEF07F074
:100F3000120002016F51D8A4A0EF07F0A2EF07F052
:100F4000BBEF07F0010E6F6F000E1A6E1A50020D04
:100F5000000EF324D96E040EF420DA6E000EDE6E5D
:100F6000000EDD6E1A2A220E1A64B9EF07F0BBEFED
:100F700007F0A6EF07F012001C6E1C50020D000EC9
:100F8000F324D96E040EF420DA6EDE04DE10D8A449
:100F9000CCEF07F0CEEF07F0DDEF07F01C50020DAD
:100FA000000EF324D96E040EF420DA6E000EDE6E0D
:100FB000000EDD6E010EDEEF07F0000E1200000ED7
:100FC0001E6EF7EF07F044EC0CF00009D8B4EBEF1D
:100FD00007F0EDEF07F0F7EF07F01E501B24D96E76
:100FE000000E1C20DA6EDF5003ECFEF01E2A1D50AE
:100FF0001E5CD8A0FEEF07F000EF08F0E3EF07F06B
:1010000012000201308D000E1A6E849A1A0EE82E1C
:10101000FED700D0849C1A0EE82EFED700D0848C18
:101020001A0EE82EFED700D0848A1A0EE82EFED7BC
:1010300000D01A2A090E1A6420EF08F022EF08F0F7
:1010400005EF08F0120020EE02F00C50D9260D50EA
:10105000DA22DECF01F0DDCF02F00CC0D9FF0DC0E7
:10106000DAFFDECF03F0DDCF04F0CEEC0BF0000EA4
:10107000076E000E086E000E096E000E0A6E000E5E
:101080000B6E36EC0CF0020E120020EE02F00C504B
:10109000D9260D50DA22DECF01F0DDCF02F00CC0F0
:1010A000D9FF0DC0DAFFDECF03F0DDCF04F0CEECC8
:1010B0000BF0000E076E000E086E000E096E000E9B
:1010C0000A6E000E0B6E36EC0CF0020E1200200EB3
:1010D0000201F4616EEF08F070EF08F086EF08F09F
:1010E000200E9825D96EDA6A080EDA22DF50996E42
:1010F000982B1F0E98657FEF08F081EF08F083EFC3
:1011000008F0000E986FF42B88EF08F00E012C9970
:101110001200F6FFF1FFECFFE7FFE2FFDDFF6400E6
:1011200069006E008200960096005A00500046004A
:101130003C0032003200455341333030302D004501
:101140005341333030302D00455341333030302D52
:1011500000FF000E0201C16FC10E206E020E216E53
:101160009EECDAF0000E0201C26FC20E0001D96FD0
:10117000020EDA6F81ECC7F0000E0201C06FC00EE4
:10118000206E020E216ECFECCBF012001AC020F0C0
:101190001BC021F0D4EF08F020C0D9FF21C0DAFF36
:1011A0001CC0DFFF204A212A1E06D8A01F061E28C9
:1011B00006E11F28D8A4DFEF08F0E1EF08F0CCEF3C
:1011C00008F012001A501B101C101D10D8B4EBEFC1
:1011D00008F0EDEF08F0F5EF08F0000E1A1A000E17
:1011E0001B1A000E1C1A800E1D1A1AC01AF01BC002
:1011F0001BF01CC01CF01DC01DF012001AC01CF01A
:101200001BC01DF006EF09F01C4A1D2A1CC0D9FFA7
:101210001DC0DAFFDF50D8A410EF09F012EF09F07B
:1012200004EF09F01A501C5C1A6E1B501D581B6EFF
:101230001200206E000E1B6E320E1A6E000E1C6E17
:101240001A0E62ECFCF020C0BFF20201BF51D8A41C
:101250002CEF09F02EEF09F032EF09F0000E8CB8F8
:10126000010EA86F12001E6E1EC05FFF608E609C94
:1012700060803CEF09F0040060B041EF09F043EFFB
:1012800009F03BEF09F064501D6E1C6A63501C248A
:101290001A6E000E1D201B6E1200290E0201DB25A6
:1012A000D96EDA6A020EDA22DF501E6EDB516AEC6A
:1012B000F1F00201DB2B060EDB6561EF09F063EF55
:1012C00009F065EF09F0010EDB6F12001C6E000ED5
:1012D0001B6E3A0E1C606FEF09F071EF09F07BEFA7
:1012E00009F02F0E1C6477EF09F079EF09F07BEF1E
:1012F00009F0010E1B6E1BC01AF01A301200030118
:10130000FD51FE11FF11D8B488EF09F08AEF09F002
:1013100097EF09F002D897EF09F00500FA6EFD513A
:10132000FD6EFE51FE6EFF51FF6EFA50120012006C
:10133000A2EF09F0150E1C6EC60EE82EFED71C2E6D
:10134000FCD700D01A06D8A01B061A2806E11B28D5
:10135000D8A4ADEF09F0AFEF09F09AEF09F0120051
:1013600029C060F02AC061F0060E0001626FD890BB
:1013700061336033622FB7EF09F06051256E294465
:10138000E846FC0B266E2B500C0F31ECF0F01200EF
:101390000CC001F00DC002F0000E046E010E036ED1
:1013A000CEEC0BF0000E076E000E086E000E096EFC
:1013B000000E0A6E000E0B6E36EC0CF0040E1200DE
:1013C0000CC001F00DC002F0000E046E020E036EA0
:1013D000CEEC0BF0000E076E000E086E000E096ECC
:1013E000000E0A6E000E0B6E36EC0CF0020E1200B0
:1013F0000CC001F00DC002F0000E046E010E036E71
:10140000CEEC0BF0000E076E000E086E000E096E9B
:10141000000E0A6E000E0B6E36EC0CF0020E12007F
:101420000CC001F00DC002F0000E046E020E036E3F
:10143000CEEC0BF0000E076E000E086E000E096E6B
:10144000000E0A6E000E0B6E36EC0CF0040E12004D
:101450000CC001F00DC002F0000E046E020E036E0F
:10146000CEEC0BF0000E076E000E086E000E096E3B
:10147000000E0A6E000E0B6E36EC0CF0020E12001F
:101480000CC001F00DC002F0000E046E010E036EE0
:10149000CEEC0BF0000E076E000E086E000E096E0B
:1014A000000E0A6E000E0B6E36EC0CF0020E1200EF
:1014B0000CC001F00DC002F0000E046E010E036EB0
:1014C000CEEC0BF0000E076E000E086E000E096EDB
:1014D000000E0A6E000E0B6E36EC0CF0040E1200BD
:1014E0000CC001F00DC002F0000E046E020E036E7F
:1014F000CEEC0BF0000E076E000E086E000E096EAB
:10150000000E0A6E000E0B6E36EC0CF0040E12008C
:10151000F6FFF1FFECFFE7FFE2FFDDFF00191E5AC7
:1015200050001E000101010101010101050A012312
:101530000F180A010203040001030200010302FF65
:101540000BEC0EF0F0EC0BF098EC0BF080EC0CF0E8
:1015500046ECEFF050EC0CF004EC06F038EC0BF03D
:10156000AAECF8F061ECF8F018ECF8F01200010EBB
:101570001A6E020129B3BFEF0AF0C1EF0AF0CBEFF8
:101580000AF029952269E7EC0DF0E1EC0DF0E4ECAE
:101590000DF028C21AF01A501200400E3124D96EF4
:1015A000DA6A080EDA22DCCEDFFF312A1F0E316440
:1015B000DCEF0AF0DEEF0AF0E0EF0AF0000E316E29
:1015C00002019B2B1200800E3224D96EDA6A080EBB
:1015D000DA22EACEDFFF322A1F0E3264F2EF0AF07F
:1015E000F4EF0AF0F6EF0AF0000E326E0201A02BC3
:1015F0001200000E3024D96EDA6A080EDA2298CF73
:10160000DFFF302A1F0E306408EF0BF00AEF0BF0FB
:101610000CEF0BF0000E306E0201962B12001C6EC8
:101620001C50020D000EF324D96E040EF420DA6E65
:10163000DE50DE10D8B41FEF0BF022EF0BF0010EDE
:1016400023EF0BF0000E1200530E0501A46F460E9F
:10165000A56F2C0EA66F320EA76F0D0EA86FA40EED
:101660001B6E050E1C6E050E1D6EDFEC07F01200E2
:10167000560ED66E120ED46E000ED36E0E01339B34
:10168000298B220E1A6E1C0E1B6E000E1C6EFDECBA
:101690000CF08C0ED56E1200799A030E28EC0CF02B
:1016A0001D5028EC0CF01C5028EC0CF01B5028ECC2
:1016B0000CF0000E28EC0CF01F6E798A1F501200FF
:1016C000010E07ECFBF0020E07ECFBF0030E07EC3B
:1016D000FBF0040E07ECFBF0050E07ECFBF0060E2A
:1016E00007ECFBF0120022502402F3CF26F0F4CFD7
:1016F00027F022502502F350272623502402F350CE
:10170000272626C022F027C023F0120064006900BB
:101710006E008200960096005A00500046003C0081
:101720003200320064004200530064002803B80114
:10173000130E0E01196F140E1A6F190E656F1A0E23
:10174000646F400E946E020E956E010E926E83963B
:10175000959A1200020129A7B0EF0BF0B2EF0BF03F
:10176000BBEF0BF01AC023F21BC024F21CC025F201
:101770001DC026F2299712000E01D9BBC2EF0BF053
:10178000C4EF0BF0CDEF0BF0800ED86F080ED96FC1
:10179000000EDA6F9F0ED66FD98B1200020129A7B7
:1017A000D4EF0BF0D6EF0BF0DFEF0BF001C023F21C
:1017B00002C024F203C025F204C026F229971200C9
:1017C0001B50030B756E1AC074FF3F0E771677809F
:1017D00000F000F077503F0B8009776E76501200D2
:1017E000000E0E014C6F000E4D6F000E4E6F000E7E
:1017F0004F6F000E506F000E516F12001A6E1A508C
:10180000020D000EF324D96E040EF420DA6E000EE1
:10181000DE6E000EDD6E120020C01AF021C01BF03B
:1018200022C01CF023C01DF024C01EF0000E43ECAB
:10183000FAF0120020C01AF021C01BF022C01CF0E8
:1018400023C01DF024C01EF0020E43ECFAF012007B
:101850001A6E1AC091FF0E0136A131EF0CF033EF72
:101860000CF02BEF0CF036919150120007C001F0F4
:1018700008C002F009C003F00AC004F00BC005F074
:10188000000E85ECFAF012000201F551D8A44BEFDE
:101890000CF04EEF0CF0010E4FEF0CF0000E1200AA
:1018A000600E0E01436F000E456F000E476F080E6D
:1018B000496F000E486F120002019651D8A463EFE1
:1018C0000CF066EF0CF0010E67EF0CF0000E12004A
:1018D0000201A051D8A46FEF0CF072EF0CF0010ED2
:1018E00073EF0CF0000E120002019B51D8A47BEFA5
:1018F0000CF07EEF0CF0010E7FEF0CF0000E1200EA
:10190000800E0E01D86F080ED96F000EDA6F9F0E91
:10191000D66FD99B1200A1EC0CF01C6E1CB093EF9B
:101920000CF095EF0CF08BEF0CF01200A1EC0CF02A
:101930001C6E1CA29EEF0CF0A0EF0CF096EF0CF0CA
:101940001200799A050E28EC0CF0000E28EC0CF031
:101950001B6E798A1B5012000E01DABDB2EF0CF03B
:10196000B5EF0CF0010EB6EF0CF0000E12001B6E7E
:10197000290E1B24D96EDA6A020EDA221AC0DFFFA2
:101980001200DDEC0CF0799A600E28EC0CF0798AEC
:101990008BEC0CF01200296E240E256E000E266EC4
:1019A000295031ECF0F012002A50256E29C026F0A3
:1019B0002B50610F31ECF0F01200799A060E28ECF2
:1019C0000CF0798A96EC0CF012000E01339B7FEC40
:1019D00009F0010E4BECB9F01200020129812251ED
:1019E0002225C3EC0DF0030E120002012981D880DC
:1019F0002235C3EC0DF0050E12001AC0FDF31BC01A
:101A0000FEF31CC0FFF312001AC0DBF41BC0DCF4B1
:101A10001CC0DDF412001AC0D8F41BC0D9F41CC0DD
:101A2000DAF412001AC0D2F41BC0D3F41CC0D4F4F0
:101A300012001AC0D5F41BC0D6F41CC0D7F4120093
:101A40001AC0CFF41BC0D0F41CC0D1F412001AC0CD
:101A5000FAF31BC0FBF31CC0FCF312001AC0EDF438
:101A60001BC0EEF41CC0EFF412001AC0E7F41BC058
:101A7000E8F41CC0E9F412001AC0EAF41BC0EBF44D
:101A80001CC0ECF412001AC0E4F41BC0E5F41CC046
:101A9000E6F412001AC0E1F41BC0E2F41CC0E3F447
:101AA00012001AC0DEF41BC0DFF41CC0E0F4120008
:101AB0001AC0C9F41BC0CAF41CC0CBF412001AC06F
:101AC000CCF41BC0CDF41CC0CEF412001AC0C6F476
:101AD0001BC0C7F41CC0C8F412001A6E1AB002D0A2
:101AE0007D9801D07D8812001AC034F21BC035F2F7
:101AF0001CC036F212001A6E1AB002D0809001D0CB
:101B000080801200000E02013A6F000E396F120041
:101B100002012993000E286F0E0E12000201299176
:101B2000F6EC0DF0040E120002012993000E286F4E
:101B30000E0E120039C21AF03AC21BF01200000E4B
:101B4000E0ECFFF01200010EE0ECFFF01200CBEC35
:101B50000DF0090E1200CBEC0DF00A0E1200C7ECCE
:101B60000DF0050E1200F9EC0DF0000E1200FCEC69
:101B70000DF0010E1200FCEC0DF0020E1200FCEC58
:101B80000DF0010E1200016E01C0D5FE12000E0113
:101B9000DA9BDA8912000E01DA8BDA8912000E0163
:101BA000E099E08912000E01EE99EE8912000A0117
:101BB000010A010101FF0E012C8512000E01DA81DC
:101BC00012000E012C9512000E01D99B12000E017D
:101BD0003695120098ECFCF012000E0136951200BA
:101BE0000E01368512000E01D55112000E01DA8762
:101BF00012000E01DA8512000E01DA831200CDEC1C
:101C00000AF01200E3EC0AF012009C989C88120083
:101C1000F9EC0AF01200F29A1200050E1200010E01
:101C200012001200120012001200FFFFFFFFFFFF60
:101C3000FFFFFFFFFFFFFFFFFFFFFFFFFFFFFFFFB4
:101C4000FFFFFFFFFFFFFFFFFFFFFFFFFFFFFFFFA4
:101C5000FFFFFFFFFFFFFFFFFFFFFFFFFFFFFFFF94
:101C6000FFFFFFFFFFFFFFFFFFFFFFFFFFFFFFFF84
:10F6D000FFFFFFFFFFFFFFFFFFFFFFFFFFFF002810
:10F6E0001B00EA1900DA1900B4E6019CEF011C1BAB
:10F6F0000006FA017E1B00761B006E1B00661B00D5
:10F700005E1B00561B004E1B00101B00B8090001B9
:10F71000000A006400E80310270100100000010047
:10F7200010024001000000803F1872313FF0FD756B
:10F730003E4758633D58951D3C82C4AE3AA8782197
:10F7400039EF938037A092A7354656153400000054
:10F7500000C4FF7F3F80EFFFBE90E1A93EEC8276C0
:10F76000BE82AD2B3E0E3CC3BD87D1133D4178D345
:10F77000BB40474554412C2531752C2531752C252E
:10F7800031752C2531752C2531752C253033752C90
:10F79000253033752C253033752C253033752C25C9
:10F7A0003033752C253034752C253034752C2530AC
:10F7B00034752C253034752C253034752C25303497
:10F7C000752C253034752C25303375402C2530337D
:10F7D000752C253033750040474554522C54524106
:10F7E0005050453D2533752C2533752C2533752C0C
:10F7F0002533752C414E474C453D2532752C25321D
:10F80000752C2532752C2532752C524154494F3DAB
:10F810002533752C494E4445583D253175005265B8
:10F8200061643A206E6F6E2D766F6C6174696C65E1
:10F8300020766F6C746167652076616C7565202534
:10F84000662C20616E6420766F6C6174696C652033
:10F85000766F6C746167652076616C7565202566CE
:10F86000004054656D70313D2533692054656D70DD
:10F87000323D2533692054656D70413D2533692043
:10F8800054656D70423D2533692048756D413D25B5
:10F8900032752048756D423D25327540004041313A
:10F8A0003D2531752041323D2531752041333D25BF
:10F8B00031752041343D2531752041353D25317567
:10F8C00020400053657420746865206E6F6E2D763D
:10F8D0006F6C6174696C6520766F6C74616765200C
:10F8E000746F203156200A005365742074686520B7
:10F8F000766F6C6174696C6520766F6C7461676596
:10F9000020746F203256200A004044454C41592053
:10F910004558504952454420544F20534554205097
:10F92000415353574F524440004050415353572086
:10F930004D555354204245203120544F2038204308
:10F94000484152400045534149522C534F46543A86
:10F95000253034752C484152443A253034750040E6
:10F960005345544D4F444255534144442C45525203
:10F970004F5240004053455457415348494E544517
:10F98000522C4552524F524000405045524D49531F
:10F9900053494F4E2044454E49454440004053454D
:10F9A000545741534854494D452C4552524F5240AB
:10F9B0000040534554444546494E5445522C455207
:10F9C000524F5240004053455450455243524543D4
:10F9D0002C4552524F5240004053455444454654E2
:10F9E000494D452C4552524F5240004053455446D4
:10F9F000494C54494D452C4552524F5240004053BA
:10FA00004554434F4E54524F4C2C4552524F524046
:10FA10000040434C4541524552524F522C455252A0
:10FA20004F52400040504F534954494F4E5F413D63
:10FA300025317520400040504F534954494F4E5F87
:10FA4000423D253175204000405345544D4F4442BE
:10FA500055534144442C4F4B40004053455457416B
:10FA60005348494E5445522C4F4B40004053455447
:10FA700045474C4143452C4552524F52400040535C
:10FA8000455456414355554D2C4552524F52400016
:10FA90004053455446494C4455522C4552524F52BE
:10FAA00040003031323334353637383941424344FF
:10FAB0004546004057524F4E472050415353574FF1
:10FAC00052444000405345545741534854494D45D2
:10FAD0002C4F4B400040534554444546494E5445F5
:10FAE000522C4F4B40004053455456414C56452CE8
:10FAF0004552524F52400040534554463146494CBE
:10FB00002C4552524F5240004053455446324649CC
:10FB10004C2C4552524F5240004053455452415490
:10FB2000494F2C4552524F52400040534554455284
:10FB3000524F522C4552524F52400040534554466A
:10FB4000314E45542C4552524F524000405345547B
:10FB500046324E45542C4552524F524000253032C9
:10FB6000582530325825303258253032580040530D
:10FB70004554504552435245432C4F4B400040534F
:10FB8000455444454654494D452C4F4B4000405345
:10FB9000455446494C54494D452C4F4B4000405329
:10FBA0004554434F4E54524F4C2C4F4B4000404312
:10FBB0004C4541524552524F522C4F4B40004053FE
:10FBC00045544D4F44452C4552524F5240004046FB
:10FBD000414E31504F532C4552524F5240004046F7
:10FBE000414E32504F532C4552524F5240004054D8
:10FBF000494D454F55542C4552524F5240004050AC
:10FC0000415353572053455420544F2C00405345E3
:10FC1000545245434952432C4F4B400040534554A6
:10FC200045474C4143452C4F4B40004053455456AB
:10FC3000414355554D2C4F4B400040534554464988
:10FC40004C4455522C4F4B400040435320424144BA
:10FC50002C4552524F524000405345544C45442C81
:10FC60004552524F524000405345544143542C4555
:10FC700052524F5240005345544D4F444255534108
:10FC800044442C0053455457415348494E5445521F
:10FC90002C004053455456414C56452C4F4B400088
:10FCA00040534554463146494C2C4F4B400040533D
:10FCB0004554463246494C2C4F4B40004053455426
:10FCC000524154494F2C4F4B4000405345544552EC
:10FCD000524F522C4F4B40004053455446314E45F5
:10FCE000542C4F4B40004053455446324E45542C03
:10FCF0004F4B40004053455446312C4552524F52D1
:10FD000040004053455446322C4552524F52400019
:10FD10004041535049522C4552524F5240004041AD
:10FD200052524F532C4552524F52400040564F4C66
:10FD300045542C4552524F52400040444547495685
:10FD40002C4552524F524000435320474F4F442CB2
:10FD50004F4B0D0A005345545741534854494D45A4
:10FD60002C00534554444546494E5445522C0040BE
:10FD7000435320474F4F442C4F4B40004053455472
:10FD80004D4F44452C4F4B40004046414E31504F63
:10FD9000532C4F4B40004046414E32504F532C4F56
:10FDA0004B40004353204241442C4552524F520095
:10FDB000253258253258253258253258000D0A254B
:10FDC000752F313031310D0A00534554504552439F
:10FDD0005245432C0053455444454654494D452C07
:10FDE0000053455446494C54494D452C0053455405
:10FDF000434F4E54524F4C2C00434C4541524552B8
:10FE0000524F522C0040434F4E4E454354454440C0
:10FE1000004054424C5245432C4F4B400040534508
:10FE2000544C45442C4F4B4000405345544143549F
:10FE30002C4F4B400053545245414D5F4F50454E5F
:10FE4000005345545245434952432C0053455445B1
:10FE5000474C4143452C0053455456414355554D5D
:10FE60002C0053455446494C4455522C0040554EA5
:10FE70004C4F434B454440004053455446312C4F72
:10FE80004B40004053455446322C4F4B40004041BC
:10FE9000535049522C4F4B4000404152524F532C2B
:10FEA0004F4B400040564F4C45542C4F4B40004068
:10FEB00052455345542C4F4B40004044454749560A
:10FEC0002C4F4B4000434F4E4E5F504152414D002E
:10FED000444953434F4E4E454354005345545641B5
:10FEE0004C56452C00534554463146494C2C005342
:10FEF0004554463246494C2C0053455452415449CE
:10FF00004F2C005345544552524F522C00534554E8
:10FF100046314E45542C0053455446324E45542CE0
:10FF20000053455450415353572C004053544F50A5
:10FF30002C4F4B40005345544D4F44452C004641F7
:10FF40004E31504F532C0046414E32504F532C00EF
:10FF500040454E442C4F4B400054424C5245432C9C
:10FF6000005345544C45442C00554E4C4F434B2CAC
:10FF7000005345544143542C00405245414459409C
:10FF800000474F444D4F44450056455253494F4E4C
:10FF90000053455446312C0054424C56312C0053EA
:10FFA000455446322C0054424C56322C0054424C9C
:10FFB00054332C0053455454482C0041535049525B
:10FFC0002C004152524F532C00564F4C45542C009C
:10FFD00044454749562C005550444154450041443E
:10FFE0004D494E00524553455400404F4B40004749
:10FFF0004554410053544F5000474554520000FFB0
:020000040001F9
:100000000A01B06FAB0E1A6E020E1B6E000E1D6E53
:10001000000E1C6E000E1F6E070E1E6EC6EC08F062
:100020000101C3510A01B019D8A419EF80F01BEFE8
:1000300080F058EF8BF0BFC11AF0C0C11BF0350E35
:100040001C6EFF0E1D6E000E1F6E080E1E6E32EC33
:10005000F2F01A501B10D8A430EF80F032EF80F08D
:100060009FEF80F0AB0E0001606F020E616F080E13
:100070000101BF250001626F000E0101C0210001D6
:10008000636F000E656F030E646FB3EC05F0AB0E8B
:10009000286E020E296E97ECEAF028C09CFA29C05F
:1000A0009DFA0A019DBF5DEF80F09D05D8B05BEF22
:1000B00080F05DEF80F092EF80F09CCA42F0AB0ED2
:1000C0000001606F020E616F0C0E0101BF2500017F
:1000D000626F000E0101C0210001636F000E656FA9
:1000E000030E646FB3EC05F0AB0E286E020E296EA2
:1000F00097ECEAF028C09CFA29C09DFA9CCA49F204
:100100009DCA4AF2720E0101006F030E016F7C0E50
:10011000026FFD0E036F2CECA3F0010E02018C6F39
:1001200058EF8BF0720E0101006F030E016FBE0ECF
:10013000026FFB0E036F2CECA3F058EF8BF0BFC1E6
:100140001AF0C0C11BF0710E1C6EFF0E1D6E000E6A
:100150001F6E070E1E6E32ECF2F01A501B10D8A460
:10016000B4EF80F0B6EF80F039EF81F0010120EEBE
:1001700007F0BF51D926C051DA22DF500001EC6FE1
:10018000D00EEC25ED6FEE6BFF0EEE23EE5107E186
:10019000070EED5DD8B0CFEF80F0D1EF80F02CEFFF
:1001A00081F0010120EE07F0BF51D926C051DA22BB
:1001B000DF500001EC6FD00EEC25ED6FEE6BFF0E03
:1001C000EE23ED51EE11D8B4E8EF80F0EAEF80F0C5
:1001D0002CEF81F0010120EE09F0BF51D926C0516A
:1001E000DA22DF500001EC6FD00EEC25ED6FEE6BE4
:1001F000FF0EEE23EE5107E1030EED5DD8B003EFE5
:1002000081F005EF81F02CEF81F0010120EE07F085
:10021000BF51D926C051DA22DF500001EC6FED6BDF
:10022000F90EEC25D96E010EED21DA6E010110EE0A
:1002300009F0BF51E126C051E222E750D00FDF6E36
:10024000720E006F030E016F290E026FFE0E036F18
:100250002CECA3F058EF8BF0720E0101006F030E2F
:10026000016F670E026FFC0E036F2CECA3F058EFCA
:100270008BF0BFC11AF0C0C11BF0D00E1C6EFF0E78
:100280001D6E000E1F6E060E1E6E32ECF2F01A503E
:100290001B10D8A44EEF81F050EF81F0AAEF81F04F
:1002A000010120EE06F0BF51D926C051DA22DF50FD
:1002B0000001EC6FD00EEC25ED6FEE6BFF0EEE2320
:1002C000EE5107E1020EED5DD8B069EF81F06BEF02
:1002D00081F09DEF81F0010120EE07F0BF51D9269A
:1002E000C051DA22DF500001EC6FED6BF90EEC2506
:1002F000D96E010EED21DA6E010110EE09F0BF5149
:10030000E126C051E222E750D00FDF6E20EE06F06A
:10031000BF51D926C051DA22DF50D00F0201C26F7F
:10032000720E0101006F030E016FBA0E026FFE0E16
:10033000036F2CECA3F058EF8BF0720E0101006FED
:10034000030E016F3A0E026FFD0E036F2CECA3F04B
:1003500058EF8BF0BFC11AF0C0C11BF0C20E1C6E6B
:10036000FF0E1D6E000E1F6E060E1E6E32ECF2F0BA
:100370001A501B10D8A4BFEF81F0C1EF81F001EF3C
:1003800082F0010120EE06F0BF51D926C051DA22D9
:10039000DF500001EC6FD00EEC25ED6FEE6BFF0E21
:1003A000EE23EE5107E1020EED5DD8B0DAEF81F0F9
:1003B000DCEF81F0F4EF81F0010120EE06F0BF5197
:1003C000D926C051DA22DF50D00F0201C16F720E60
:1003D0000101006F030E016F990E026FFE0E036F95
:1003E0002CECA3F058EF8BF0720E0101006F030E9E
:1003F000016F1E0E026FFD0E036F2CECA3F058EF81
:100400008BF0BFC11AF0C0C11BF0BB0E1C6EFF0EFB
:100410001D6E000E1F6E060E1E6E32ECF2F01A50AC
:100420001B10D8A416EF82F018EF82F058EF82F07C
:10043000010120EE06F0BF51D926C051DA22DF506B
:100440000001EC6FD00EEC25ED6FEE6BFF0EEE238E
:10045000EE5107E1020EED5DD8B031EF82F033EFDF
:1004600082F04BEF82F0010120EE06F0BF51D92659
:10047000C051DA22DF50D00F0201C06F720E0101AD
:10048000006F030E016F8E0E026FFE0E036F2CECD9
:10049000A3F058EF8BF0720E0101006F030E016F95
:1004A000100E026FFD0E036F2CECA3F058EF8BF0D3
:1004B000BFC11AF0C0C11BF0C90E1C6EFF0E1D6E2D
:1004C000000E1F6E060E1E6E32ECF2F01A501B105C
:1004D000D8A46DEF82F06FEF82F0EBEF82F00101B4
:1004E00020EE06F0BF51D926C051DA22DF500001BC
:1004F000EC6FD00EEC25ED6FEE6BFF0EEE23EE51A0
:1005000007E1020EED5DD8B088EF82F08AEF82F04D
:10051000DEEF82F0AB0E606F020E616F080E01011C
:10052000BF250001626F000E0101C0210001636F51
:10053000000E656F030E646FB3EC05F0AB0E286E12
:10054000020E296E97ECEAF028C07DFA29C07EFAE7
:100550000A017EBFB7EF82F07E5107E1650E7D5D37
:10056000D8B0B5EF82F0B7EF82F0D1EF82F07DCA5C
:100570008FF2010120EE06F0BF51D926C051DA22D8
:10058000DF50D00F02018E6F720E0101006F030E5B
:10059000016FA40E026FFE0E036F2CECA3F058EF58
:1005A0008BF0720E0101006F030E016F2C0E026FB3
:1005B000FD0E036F2CECA3F058EF8BF0720E0101CF
:1005C000006F030E016F2C0E026FFD0E036F2CECFB
:1005D000A3F058EF8BF0BFC11AF0C0C11BF03E0E64
:1005E0001C6EFF0E1D6E000E1F6E080E1E6E32EC8E
:1005F000F2F01A501B10D8A400EF83F002EF83F042
:1006000081EF83F0010120EE08F0BF51D926C051DF
:10061000DA22DF500001EC6FD00EEC25ED6FEE6BAF
:10062000FF0EEE23EE5107E1020EED5DD8B01BEF99
:1006300083F01DEF83F074EF83F0010120EE0AF0E8
:10064000BF51D926C051DA22DF500001EC6FD00E25
:10065000EC25ED6FEE6BFF0EEE23EE5107E1050E7C
:10066000ED5DD8B036EF83F038EF83F074EF83F0B0
:10067000010120EE0AF0BF51D926C051DA22DF5025
:100680000001EC6FD00EEC25ED6FEE6BFF0EEE234C
:10069000ED51EE11D8B44FEF83F051EF83F074EFCA
:1006A00083F0010120EE08F0BF51D926C051DA22B3
:1006B000DF50D00F3A6E20EE0AF0BF51D926C0515C
:1006C000DA22DF50D00F0201AA6F720E0101006F13
:1006D000030E016F890E026FFD0E036F2CECA3F069
:1006E000080E426E58EF8BF0720E0101006F030E80
:1006F000016FCE0E026FFB0E036F2CECA3F058EFD0
:100700008BF0BFC11AF0C0C11BF0470E1C6EFF0E6C
:100710001D6E000E1F6E080E1E6E32ECF2F01A50A7
:100720001B10D8A496EF83F098EF83F015EF84F0B8
:10073000010120EE08F0BF51D926C051DA22DF5066
:100740000001EC6FD00EEC25ED6FEE6BFF0EEE238B
:10075000EE5107E1020EED5DD8B0B1EF83F0B3EFDB
:1007600083F008EF84F0010120EE0AF0BF51D92692
:10077000C051DA22DF500001EC6FD00EEC25ED6F96
:10078000EE6BFF0EEE23EE5107E1050EED5DD8B0E6
:10079000CCEF83F0CEEF83F008EF84F0010120EE80
:1007A0000AF0BF51D926C051DA22DF500001EC6FA8
:1007B000D00EEC25ED6FEE6BFF0EEE23ED51EE113A
:1007C000D8B4E5EF83F0E7EF83F008EF84F00101A0
:1007D00020EE08F0BF51D926C051DA22DF50D00FE9
:1007E000396E20EE0AF0BF51D926C051DA22DF500F
:1007F000D00F0201A96F720E0101006F030E016F8D
:10080000960E026FFD0E036F2CECA3F070EF83F0D9
:10081000720E0101006F030E016FDE0E026FFB0E00
:10082000036F2CECA3F058EF8BF0BFC11AF0C0C1DE
:100830001BF0DB0E1C6EFE0E1D6E000E1F6E090EF1
:100840001E6E32ECF2F01A501B10D8A42AEF84F07E
:100850002CEF84F06CEF84F0010120EE09F0BF5121
:10086000D926C051DA22DF500001EC6FD00EEC2502
:10087000ED6FEE6BFF0EEE23EE5107E1020EED5D24
:10088000D8B045EF84F047EF84F05FEF84F00101CA
:1008900020EE09F0BF51D926C051DA22DF50D00F27
:1008A0006DEC0DF0720E0101006F030E016F920EE0
:1008B000026FFC0E036F2CECA3F058EF8BF0720E5E
:1008C0000101006F030E016FE60E026FFA0E036F57
:1008D0002CECA3F058EF8BF0BFC11AF0C0C11BF095
:1008E000570E1C6EFE0E1D6E000E1F6E0A0E1E6E43
:1008F00032ECF2F01A501B10D8A481EF84F083EF91
:1009000084F0C3EF84F0010120EE0AF0BF51D92634
:10091000C051DA22DF500001EC6FD00EEC25ED6FF4
:10092000EE6BFF0EEE23EE5107E1020EED5DD8B047
:100930009CEF84F09EEF84F0B6EF84F0010120EE8E
:100940000AF0BF51D926C051DA22DF50D00F7BEC1C
:100950000DF0720E0101006F030E016F2B0E026F7E
:10096000FC0E036F2CECA3F058EF8BF0720E01011C
:10097000006F030E016F7E0E026FFA0E036F2CECF8
:10098000A3F058EF8BF0BFC11AF0C0C11BF0F40EFA
:100990001C6EFF0E1D6E000E1F6E040E1E6E32ECDE
:1009A000F2F01A501B10D8A4D8EF84F0DAEF84F0DC
:1009B0003FEF85F0000E0A01B56F000E3A6E000E93
:1009C000396EB50E0001D96F0A0EDA6F81ECC7F0EF
:1009D000B50E206E0A0E216E9EECDAF0B50E206E7A
:1009E0000A0E216ECFECCBF0B50E286E0A0E296EE2
:1009F00026ECEBF03A0E216E000E226E000E236EF6
:100A0000F7ECAEF0390E216E000E226E000E236E52
:100A1000CEECACF0B50E206E0A0E216E000E226EEA
:100A2000000E236E58ECDCF0000E376E37C038F045
:100A300060EC0BF0000E7BEC0DF0000E6DEC0DF099
:100A40000A0E426E000E0001606F000E616F000E14
:100A5000626F000E636F000E656F000E646F000E14
:100A6000CFECDEF0720E0101006F030E016F2B0E52
:100A7000026FFF0E036F2CECA3F058EF8BF0BFC199
:100A80001AF0C0C11BF0910E1C6EFF0E1D6E000E01
:100A90001F6E060E1E6E32ECF2F01A501B10D8A418
:100AA00054EF85F056EF85F0A8EF85F0AB0E00010E
:100AB000606F020E616F060E0101BF250001626FBB
:100AC000000E0101C0210001636F000E656F030E6F
:100AD000646FB3EC05F0AB0E286E020E296E97EC36
:100AE000EAF028C07FFA29C080FA0A0180BF84EFAB
:100AF00085F0805107E1650E7F5DD8B082EF85F00B
:100B000084EF85F09BEF85F07FCA38F0000E1B6EF6
:100B1000510E1A6E38C01CF078EC06F0720E01010E
:100B2000006F030E016F780E026FFE0E036F2CEC48
:100B3000A3F08DEF80F0720E0101006F030E016FC4
:100B4000F40E026FFC0E036F2CECA3F058EF8BF049
:100B5000BFC11AF0C0C11BF09F0E1C6EFF0E1D6EB0
:100B6000000E1F6E060E1E6E32ECF2F01A501B10B5
:100B7000D8A4BDEF85F0BFEF85F011EF86F0AB0E86
:100B80000001606F020E616F060E0101BF250001BA
:100B9000626F000E0101C0210001636F000E656FDE
:100BA000030E646FB3EC05F0AB0E286E020E296ED7
:100BB00097ECEAF028C081FA29C082FA0A0182BFC4
:100BC000EDEF85F0825107E1650E815DD8B0EBEF66
:100BD00085F0EDEF85F004EF86F081CA37F0000E66
:100BE0001B6E520E1A6E37C01CF078EC06F0720EB7
:100BF0000101006F030E016F830E026FFE0E036F83
:100C00002CECA3F08DEF80F0720E0101006F030E4B
:100C1000016F020E026FFD0E036F2CECA3F058EF74
:100C20008BF0BFC11AF0C0C11BF0610E1C6EFF0E2D
:100C30001D6E000E1F6E070E1E6E32ECF2F01A5083
:100C40001B10D8A426EF86F028EF86F0A5EF86F0DB
:100C5000010120EE07F0BF51D926C051DA22DF5042
:100C60000001EC6FD00EEC25ED6FEE6BFF0EEE2366
:100C7000EE5107E1030EED5DD8B041EF86F043EF92
:100C800086F098EF86F0010120EE07F0BF51D926DB
:100C9000C051DA22DF500001EC6FD00EEC25ED6F71
:100CA000EE6BFF0EEE23ED51EE11D8B45AEF86F045
:100CB0005CEF86F098EF86F0010120EE09F0BF515D
:100CC000D926C051DA22DF500001EC6FD00EEC259E
:100CD000ED6FEE6BFF0EEE23EE5107E1020EED5DC0
:100CE000D8B075EF86F077EF86F098EF86F00101C7
:100CF00020EE09F0BF51D926C051DA22DF50D00FC3
:100D00001A6E20EE07F0BF51D926C051DA22DF500B
:100D1000D00F5EEC05F0720E0101006F030E016F43
:100D20001D0E026FFE0E036F2CECA3F058EF8BF03C
:100D3000720E0101006F030E016F580E026FFC0E60
:100D4000036F2CECA3F058EF8BF0BFC11AF0C0C1B9
:100D50001BF0E10E1C6EFD0E1D6E000E1F6E0B0EC5
:100D60001E6E32ECF2F01A501B10D8A4BAEF86F0C7
:100D7000BCEF86F019EF87F0AB0E0001606F020E3A
:100D8000616F0B0E0101BF250001626F000E0101B2
:100D9000C0210001636F000E656F040E646FB3EC39
:100DA00005F0AB0E286E020E296E97ECEAF028C013
:100DB00083FA29C084FA0A01832908E18429D8B476
:100DC000E4EF86F0E6EF86F00CEF87F083CA57F287
:100DD00084CA58F2000E02015C6F000E5B6F000EB9
:100DE0001B6E200E1A6E58C21CF078EC06F0000E36
:100DF0001B6E190E1A6E57C21CF078EC06F0720EBC
:100E00000101006F030E016F8E0E026FFB0E036F68
:100E10002CECA3F08DEF80F0720E0101006F030E39
:100E2000016FEB0E026FF90E036F2CECA3F058EF7D
:100E30008BF0BFC11AF0C0C11BF0840E1C6EFC0EFB
:100E40001D6E000E1F6E0D0E1E6E32ECF2F01A506B
:100E50001B10D8A42EEF87F030EF87F08BEF87F0D0
:100E6000AB0E0001606F020E616F0D0E0101BF2518
:100E70000001626F000E0101C0210001636F000ECE
:100E8000656F040E646FB3EC05F0AB0E286E020EB6
:100E9000296E97ECEAF028C085FA29C086FA0A0183
:100EA000852908E18629D8B458EF87F05AEF87F0F2
:100EB0007EEF87F085CA55F286CA56F2000E1B6E89
:100EC000230E1A6E56C21CF078EC06F0000E1B6E54
:100ED000220E1A6E55C21CF078EC06F0720E01015B
:100EE000006F030E016F5A0E026FFA0E036F2CECA7
:100EF000A3F0020E02018C6F58EF8BF0720E01010D
:100F0000006F030E016F740E026FF90E036F2CEC6D
:100F1000A3F058EF8BF0BFC11AF0C0C11BF0550E03
:100F20001C6EFD0E1D6E000E1F6E0C0E1E6E32EC42
:100F3000F2F01A501B10D8A4A0EF87F0A2EF87F0B0
:100F4000F3EF87F0AB0E0001606F020E616F0C0EC5
:100F50000101BF250001626F000E0101C0210001E7
:100F6000636F000E656F030E646FB3EC05F0AB0E9C
:100F7000286E020E296E97ECEAF028C087FA29C085
:100F800088FA0A0188BFCFEF87F0885106E18729E8
:100F9000D8B0CDEF87F0CFEF87F0E6EF87F087CAC4
:100FA00043F0000E1B6E210E1A6E43C01CF078EC4D
:100FB00006F0720E0101006F030E016FC40E026F86
:100FC000FA0E036F2CECA3F079EF87F0720E01019B
:100FD000006F030E016F9D0E026FF90E036F2CEC74
:100FE000A3F058EF8BF0BFC11AF0C0C11BF0620E26
:100FF0001C6EFD0E1D6E000E1F6E0C0E1E6E32EC72
:10100000F2F01A501B10D8A408EF88F00AEF88F00D
:1010100067EF88F0AB0E0001606F020E616F0C0E7F
:101020000101BF250001626F000E0101C021000116
:10103000636F000E656F040E646FB3EC05F0AB0ECA
:10104000286E020E296E97ECEAF028C089FA29C0B2
:101050008AFA0A01892908E18A29D8B432EF88F08E
:1010600034EF88F05AEF88F089CA53F28ACA54F2F2
:10107000000E0201526F000E516F000E1B6E550ED6
:101080001A6E54C21CF078EC06F0000E1B6E540E63
:101090001A6E53C21CF078EC06F0720E0101006F5C
:1010A000030E016FD50E026FFA0E036F2CECA3F046
:1010B00079EF87F0720E0101006F030E016FB10E20
:1010C000026FF90E036F2CECA3F058EF8BF0BFC149
:1010D0001AF0C0C11BF0D50E1C6EFD0E1D6E000E69
:1010E0001F6E0B0E1E6E32ECF2F01A501B10D8A4BD
:1010F0007CEF88F07EEF88F0CFEF88F0AB0E000138
:10110000606F020E616F0B0E0101BF250001626F5F
:10111000000E0101C0210001636F000E656F030E18
:10112000646FB3EC05F0AB0E286E020E296E97ECDF
:10113000EAF028C08BFA29C08CFA0A018CBFABEF09
:1011400088F08C5106E18B29D8B0A9EF88F0ABEF7D
:1011500088F0C2EF88F08BCAE2F2000E1B6E560ECA
:101160001A6EE2C21CF078EC06F0720E0101006FFC
:10117000030E016F7E0E026FFB0E036F2CECA3F0CB
:1011800079EF87F0720E0101006F030E016FD80E28
:10119000026FF90E036F2CECA3F058EF8BF0BFC178
:1011A0001AF0C0C11BF0E50E1C6EFE0E1D6E000E87
:1011B0001F6E090E1E6E32ECF2F01A501B10D8A4EE
:1011C000E4EF88F0E6EF88F038EF89F0AB0E00012D
:1011D000606F020E616F090E0101BF250001626F91
:1011E000000E0101C0210001636F000E656F030E48
:1011F000646FB3EC05F0AB0E286E020E296E97EC0F
:10120000EAF028C08DFA29C08EFA0A018EBF14EFC9
:1012100089F08E5107E1650E8D5DD8B012EF89F02F
:1012200014EF89F02BEF89F08DCAE6F2000E1B6EE9
:101230003D0E1A6EE6C21CF078EC06F0720E01014B
:10124000006F030E016FA00E026FFC0E036F2CECFB
:10125000A3F058EF8BF0720E0101006F030E016FC7
:10126000F70E026FFA0E036F2CECA3F058EF8BF021
:10127000BFC11AF0C0C11BF0EF0E1C6EFE0E1D6E3A
:10128000000E1F6E090E1E6E32ECF2F01A501B108B
:10129000D8A44DEF89F04FEF89F0A1EF89F0AB0EA4
:1012A0000001606F020E616F090E0101BF25000190
:1012B000626F000E0101C0210001636F000E656FB7
:1012C000030E646FB3EC05F0AB0E286E020E296EB0
:1012D00097ECEAF028C08FFA29C090FA0A0190BF73
:1012E0007DEF89F0905107E1650E8F5DD8B07BEFFF
:1012F00089F07DEF89F094EF89F08FCAE5F2000E56
:101300001B6E3E0E1A6EE5C21CF078EC06F0720EF3
:101310000101006F030E016FAE0E026FFC0E036F32
:101320002CECA3F058EF8BF0720E0101006F030E4E
:10133000016F080E026FFB0E036F2CECA3F058EF49
:101340008BF0BFC11AF0C0C11BF0620E1C6EFE0E06
:101350001D6E000E1F6E0A0E1E6E32ECF2F01A5059
:101360001B10D8A4B6EF89F0B8EF89F010EF8AF01F
:10137000AB0E0001606F020E616F0A0E0101BF2506
:101380000001626F000E0101C0210001636F000EB9
:10139000656F040E646FB3EC05F0AB0E286E020EA1
:1013A000296E97ECEAF028C091FA29C092FA0A0156
:1013B000912908E19229D8B4E0EF89F0E2EF89F0B1
:1013C00003EF8AF091CAD6F292CAD7F2000E1B6ED2
:1013D0003F0E1A6ED7C21CF078EC06F0000E1B6EA2
:1013E000400E1A6ED6C21CF078EC06F0720E0101A7
:1013F000006F030E016F3A0E026FFC0E036F2CECB0
:10140000A3F058EF8BF0720E0101006F030E016F15
:10141000900E026FFA0E036F2CECA3F058EF8BF0D6
:10142000BFC11AF0C0C11BF00D0E1C6EFF0E1D6E69
:10143000000E1F6E090E1E6E32ECF2F01A501B10D9
:10144000D8A425EF8AF027EF8AF079EF8AF0AB0E67
:101450000001606F020E616F090E0101BF250001DE
:10146000626F000E0101C0210001636F000E656F05
:10147000030E646FB3EC05F0AB0E286E020E296EFE
:1014800097ECEAF028C093FA29C094FA0A0194BFB5
:1014900055EF8AF0945107E1650E935DD8B053EF94
:1014A0008AF055EF8AF06CEF8AF093CAE4F2000EEE
:1014B0001B6E410E1A6EE4C21CF078EC06F0720E40
:1014C0000101006F030E016FD80E026FFC0E036F57
:1014D0002CECA3F058EF8BF0720E0101006F030E9D
:1014E000016F3B0E026FFB0E036F2CECA3F058EF65
:1014F0008BF0BFC11AF0C0C11BF0170E1C6EFF0E9F
:101500001D6E000E1F6E090E1E6E32ECF2F01A50A8
:101510001B10D8A48EEF8AF090EF8AF0E2EF8AF0E9
:10152000AB0E0001606F020E616F090E0101BF2555
:101530000001626F000E0101C0210001636F000E07
:10154000656F030E646FB3EC05F0AB0E286E020EF0
:10155000296E97ECEAF028C095FA29C096FA0A019C
:1015600096BFBEEF8AF0965107E1650E955DD8B043
:10157000BCEF8AF0BEEF8AF0D5EF8AF095CAE3F2AD
:10158000000E1B6E420E1A6EE3C21CF078EC06F0E1
:10159000720E0101006F030E016FE60E026FFC0E6A
:1015A000036F2CECA3F058EF8BF0720E0101006F6B
:1015B000030E016F4C0E026FFB0E036F2CECA3F0B9
:1015C00058EF8BF0BFC11AF0C0C11BF0760E1C6E35
:1015D000FC0E1D6E000E1F6E0D0E1E6E32ECF2F034
:1015E0001A501B10D8A4F7EF8AF0F9EF8AF058EFE1
:1015F0008BF0AB0E0001606F020E616F0D0E0101EA
:10160000BF250001626F000E0101C0210001636F60
:10161000000E656F030E646FB3EC05F0AB0E286E21
:10162000020E296E97ECEAF028C09AFA29C09BFABC
:101630000A019BBF24EF8BF09B5108E19A05D8A0CB
:1016400024EF8BF026EF8BF04BEF8BF09BBF34EF4A
:101650008BF09B5107E1F80E9A5DD8B032EF8BF01A
:1016600034EF8BF04BEF8BF09ACA40F0000E1B6EFC
:10167000050E1A6E40C01CF078EC06F0720E0101E7
:10168000006F030E016F480E026FFA0E036F2CEC11
:10169000A3F079EF87F0720E0101006F030E016F66
:1016A0005F0E026FF90E036F2CECA3F058EF8BF076
:1016B000BFC11AF0C0C11BF0690E1C6EFF0E1D6E7B
:1016C000000E1F6E070E1E6E32ECF2F01A501B1049
:1016D000D8A46DEF8BF06FEF8BF0FAEF8BF00B0E61
:1016E000BCEC07F00009D8B478EF8BF07AEF8BF000
:1016F000FAEF8BF0000E1B6E050E1A6E010E1C6EBB
:101700000B0E62ECFCF0720E1C6E030E1D6E52ECA2
:1017100006F00A01996F99510001EC6FED6BC1C1A0
:10172000D9FFC2C1DAFFDF50EE6FF90EEE25EF6F81
:10173000F06BFF0EF023EC51EF1907E1ED51F019BA
:10174000D8A4A5EF8BF0A7EF8BF0EDEF8BF0070E91
:101750000101BF251A6E000EC0211B6E720E1C6E99
:10176000030E1D6E99CA1EF01F6A32ECF2F01A5079
:101770001B10D8A4BEEF8BF0C0EF8BF0EDEF8BF019
:10178000720E0101006F030E016F6D0E026FFE0EEF
:10179000036F2CECA3F0010E0201DF6F070E0101B5
:1017A000BF251A6E000EC0211B6E810E1C6EFF0E2F
:1017B0001D6E000E1F6E070E1E6E32ECF2F01A50F8
:1017C0001B10D8A4E6EF8BF0E8EF8BF0DAEF96F081
:1017D000010E02018A6FDAEF96F0720E0101006FBE
:1017E000030E016FB30E026FFA0E036F2CECA3F021
:1017F000DAEF96F0BFC11AF0C0C11BF0210E1C6ECB
:10180000FF0E1D6E000E1F6E090E1E6E32ECF2F002
:101810001A501B10D8A40FEF8CF011EF8CF047EF8B
:101820008DF00201DF51D8B418EF8CF01AEF8CF074
:10183000A7EF8CF0C1C1D9FFC2C1DAFFDF500001B0
:10184000EC6FF70EEC25ED6FEE6BFF0EEE23EEBFA7
:1018500035EF8CF0EE5107E1090EED5DD8B033EFB6
:101860008CF035EF8CF04AEF8CF0C1C1D9FFC2C1CA
:10187000DAFFDF50EC6FF70EEC25ED6FEE6BFF0E2D
:10188000EE23ED51EE11D8A448EF8CF04AEF8CF026
:1018900057EF8CF0720E0101006F030E016F290EDD
:1018A000026FF90E036F2CECA3F0DAEF96F0720ED4
:1018B0000101006F030E016FFE0E026FFB0E036F3E
:1018C0002CECA3F0800E0001606F030E616F090E17
:1018D0000101BF250001626F000E0101C02100015E
:1018E000636FC1C1D9FFC2C1DAFFDF50EC6FF70EE1
:1018F000EC25646F656BFF0E6523B3EC05F0800E7D
:101900001E6E030E1F6EC1C1D9FFC2C1DAFFDF50C8
:10191000F70F206E2BEC06F0C1C1D9FFC2C1DAFF70
:10192000DF500001EC6FED6B770EEC250101006FCD
:10193000030E0001ED210101016FC10E026FF80ECF
:10194000036F2CECA3F0DAEF96F0DAEF96F0DE51AD
:10195000D8A4ADEF8CF0AFEF8CF0BCEF8CF0720E32
:101960000101006F030E016F090E026FF90E036F84
:101970002CECA3F0DAEF96F0C1C1D9FFC2C1DAFFB7
:10198000DF500001EC6FF70EEC25ED6FEE6BFF0EF4
:10199000EE23EEBFD7EF8CF0EE5107E1090EED5DBF
:1019A000D8B0D5EF8CF0D7EF8CF0ECEF8CF0C1C154
:1019B000D9FFC2C1DAFFDF50EC6FF70EEC25ED6FF7
:1019C000EE6BFF0EEE23ED51EE11D8A4EAEF8CF092
:1019D000ECEF8CF0F9EF8CF0720E0101006F030E4A
:1019E000016F290E026FF90E036F2CECA3F0DAEFF2
:1019F00096F0720E0101006F030E016FFE0E026F72
:101A0000FB0E036F2CECA3F0800E0001606F030E41
:101A1000616F090E0101BF250001626F000E010117
:101A2000C0210001636FC1C1D9FFC2C1DAFFDF501D
:101A3000EC6FF70EEC25646F656BFF0E6523B3EC5E
:101A400005F0800E1E6E030E1F6EC1C1D9FFC2C10C
:101A5000DAFFDF50F70F206E2BEC06F0C1C1D9FF83
:101A6000C2C1DAFFDF500001EC6FED6B770EEC25A1
:101A70000101006F030E0001ED210101016FC10E94
:101A8000026FF80E036F2CECA3F0DAEF96F0020170
:101A9000DF51D8A44EEF8DF050EF8DF05DEF8DF05B
:101AA000720E0101006F030E016F890E026FF90EB5
:101AB000036F2CECA3F0DAEF96F0BFC11AF0C0C1AF
:101AC0001BF0E40E1C6EFF0E1D6E000E1F6E050E49
:101AD0001E6E32ECF2F01A501B10D8A472EF8DF08B
:101AE00074EF8DF09FEF8DF0720E0101006F030E09
:101AF000016FAF0E026FFE0E036F2CECA3F0720E9F
:101B0000206E030E216E720E1A6E030E1B6EFEEC1B
:101B100008F01A50226E0A01B05153EC07F0310E52
:101B20000001ED6FB40EEC6F650EE82EFED7EC2FC2
:101B3000FCD7ED2FFAD700D0FF00DAEF96F0BFC147
:101B40001AF0C0C11BF0D70E1C6EFF0E1D6E000EEA
:101B50001F6E060E1E6E32ECF2F01A501B10D8A447
:101B6000B4EF8DF0B6EF8DF0E9EF8DF07C84720E5E
:101B70000101006F030E016F790E026FFF0E036FFC
:101B80002CECA3F060EC0BF0000E7BEC0DF0000EE3
:101B90006DEC0DF00A01B005D8A4D1EF8DF0D3EFB4
:101BA0008DF0D9EF8DF00E012D93F7ECBEF0DAEF4A
:101BB00096F0020EB019D8A4E0EF8DF0E2EF8DF0B0
:101BC000A5EF8CF00E012D932D9BA4ECC2F0DAEF63
:101BD00096F0BFC11AF0C0C11BF0ED0E1C6EFD0ED9
:101BE0001D6E000E1F6E0B0E1E6E32ECF2F01A50C0
:101BF0001B10D8A4FEEF8DF000EF8EF063EF8EF097
:101C0000010120EE0BF0BF51D926C051DA22DF507E
:101C10000001EC6FD00EEC25ED6FEE6BFF0EEE23A6
:101C2000EE5107E1080EED5DD8B019EF8EF01BEF15
:101C30008EF056EF8EF0010120EE0BF0BF51D92649
:101C4000C051DA22DF500001EC6FD00EEC25ED6FB1
:101C5000EE6BFF0EEE23ED51EE11D8B432EF8EF0A5
:101C600034EF8EF056EF8EF0010120EE0BF0BF51F5
:101C7000D926C051DA22DF50D00F416E000E1B6E04
:101C8000040E1A6E41C01CF078EC06F0720E0101D1
:101C9000006F030E016F9E0E026FFB0E036F2CECA4
:101CA000A3F0010E02018C6FDAEF96F0720E0101C3
:101CB000006F030E016FFE0E026FF90E036F2CEC26
:101CC000A3F0DAEF96F0BFC11AF0C0C11BF0030E0B
:101CD0001C6EFF0E1D6E000E1F6E090E1E6E32EC86
:101CE000F2F01A501B10D8A478EF8EF07AEF8EF035
:101CF000DCEF8EF0010120EE09F0BF51D926C05172
:101D0000DA22DF500001EC6FD00EEC25ED6FEE6BA8
:101D1000FF0EEE23ED51EE11D8B491EF8EF093EF5C
:101D20008EF0ACEF8EF0010120EE09F0BF51D92604
:101D3000C051DA22DF500001EC6FD00EEC25ED6FC0
:101D4000EE6BFF0EEE23ED05EE11D8A4AAEF8EF098
:101D5000ACEF8EF0CFEF8EF0010120EE09F0BF5115
:101D6000D926C051DA22DF50D00F0201886F000E51
:101D70001B6E580E1A6E88C21CF078EC06F0720EBC
:101D80000101006F030E016FCA0E026FFC0E036F9C
:101D90002CECA3F0020E02018C6FDAEF96F0720EBB
:101DA0000101006F030E016F2A0E026FFB0E036F1D
:101DB0002CECA3F0DAEF96F0BFC11AF0C0C11BF013
:101DC000890E1C6EFF0E1D6E000E1F6E070E1E6E1E
:101DD00032ECF2F01A501B10D8A4F1EF8EF0F3EFB2
:101DE0008EF03AEF8FF0E50E0101006F060E016FE5
:101DF000450E026FF90E036F000E056F0A0E046F99
:101E0000A7C206F1076B2CECA3F0720E0101006F64
:101E1000030E016FC10E026FF80E036F2CECA3F0DE
:101E2000730E0001606F030E616FE50E626F060EA8
:101E3000636FE50E1A6E060E1B6EFEEC08F01AC0FC
:101E400064F01BC065F0B3EC05F0E50E1A6E060EEB
:101E50001B6EFEEC08F0730E1A240101006F030ED6
:101E60001B20016FC10E026FF80E036F2CECA3F064
:101E7000DAEF96F0BFC11AF0C0C11BF0EF0E1C6E76
:101E8000FF0E1D6E000E1F6E040E1E6E32ECF2F081
:101E90001A501B10D8A44FEF8FF051EF8FF0BDEF09
:101EA0008FF0EF0E1A6E020E1B6E3E0E1C6E000EB1
:101EB0001D6E98ECFEF00A017B6FEB0E1A6E020E9F
:101EC0001B6E3D0E1C6E000E1D6E98ECFEF00A019E
:101ED0007C6F720E0101006F030E016F710E026FB5
:101EE000F70E036F7BCA04F1056B7CCA06F1076B22
:101EF0003CC008F1096BC3C20AF10B6B3BC00CF18B
:101F00000D6B90C20EF10F6B44C010F1116B45C008
:101F100012F1136B4FC214F150C215F14DC216F1FC
:101F20004EC217F147C218F148C219F145C21AF161
:101F300046C21BF1B8C21CF1B9C21DF1B4C21EF1F8
:101F4000B5C21FF1B6C220F1B7C221F1B2C222F16F
:101F5000B3C223F12DC024F12EC025F15BC226F1BE
:101F60005CC227F159C228F15AC229F13FC02AF1B7
:101F70002B6B2CECA3F0DAEF96F0BFC11AF0C0C1C6
:101F80001BF0F90E1C6EFF0E1D6E000E1F6E040E70
:101F90001E6E32ECF2F01A501B10D8A4D2EF8FF064
:101FA000D4EF8FF01CEF90F0EF0E1A6E020E1B6E46
:101FB0003E0E1C6E000E1D6E98ECFEF00A01796F4D
:101FC000EB0E1A6E020E1B6E3D0E1C6E000E1D6E89
:101FD00098ECFEF00A017A6F720E0101006F030E99
:101FE000016FD70E026FF70E036FEEC304F1EFC35C
:101FF00005F1F0C306F1F1C307F1F2C308F1F3C331
:1020000009F1F4C30AF1F5C30BF1D0C20CF10D6B69
:10201000D1C20EF10F6BD2C210F1116BD3C212F10B
:10202000136B3DC214F13EC215F187C216F1176B56
:102030002CECA3F0DAEF96F0BFC11AF0C0C11BF090
:10204000B40E1C6EFF0E1D6E000E1F6E060E1E6E71
:1020500032ECF2F01A501B10D8A431EF90F033EFAD
:1020600090F0EBEF91F0AB0E0001606F020E616F2C
:10207000070E0101BF250001626F000E0101C021A2
:102080000001636F000E656F020E646FB3EC05F024
:10209000AB0E286E020E296E97ECEAF028C09EFA6D
:1020A00029C09FFA010120EE06F0BF51D926C05188
:1020B000DA222D0EDE18D8A460EF90F062EF90F0D7
:1020C0006FEF90F09ECA22F09FCA23F0FF0E256E9C
:1020D000246873EC0BF022C09EFA23C09FFA9ECABC
:1020E000CBF09FCACCF00CECD2F0CBC047F2CCC006
:1020F00048F2AB0E0001606F020E616F0B0E010122
:10210000BF250001626F000E0101C0210001636F55
:10211000000E656F020E646FB3EC05F0AB0E286E17
:10212000020E296E97ECEAF028C0A0FA29C0A1FAA5
:10213000010120EE0AF0BF51D926C051DA222D0E3E
:10214000DE18D8A4A6EF90F0A8EF90F0B5EF90F0CD
:10215000A0CA22F0A1CA23F0FF0E256E246873ECFA
:102160000BF022C0A0FA23C0A1FAA0CACBF0A1CAEA
:10217000CCF00CECD2F0CBC045F2CCC046F2AB0EAA
:102180000001606F020E616F0F0E0101BF2500019B
:10219000626F000E0101C0210001636F000E656FC8
:1021A000020E646FB3EC05F0AB0E286E020E296EC2
:1021B00097ECEAF028C0A8FA29C0A9FA010120EE9C
:1021C0000EF0BF51D926C051DA222D0EDE18D8A448
:1021D000ECEF90F0EEEF90F0FBEF90F0A8CA22F059
:1021E000A9CA23F0FF0E256E246873EC0BF022C001
:1021F000A8FA23C0A9FAA8CA22F0A9CA23F0000E9F
:10220000256E0A0E246E73EC0BF022C0A8FA23C0D0
:10221000A9FAA8CAB8F2A9CAB9F2AB0E0001606F58
:10222000020E616F130E0101BF250001626F000EE7
:102230000101C0210001636F000E656F020E646F23
:10224000B3EC05F0AB0E286E020E296E97ECEAF0A7
:1022500028C0AAFA29C0ABFA010120EE12F0BF5142
:10226000D926C051DA222D0EDE18D8A43AEF91F00B
:102270003CEF91F049EF91F0AACA22F0ABCA23F0EB
:10228000FF0E256E246873EC0BF022C0AAFA23C05F
:10229000ABFAAACA22F0ABCA23F0000E256E0A0ED2
:1022A000246E73EC0BF022C0AAFA23C0ABFAAACAC0
:1022B000B6F2ABCAB7F2AB0E0001606F020E616FEF
:1022C000160E0101BF250001626F000E0101C02141
:1022D0000001636F000E656F020E646FB3EC05F0D2
:1022E000AB0E286E020E296E97ECEAF028C0B4F20D
:1022F00029C0B5F2AB0E0001606F020E616F190EBE
:102300000101BF250001626F000E0101C021000123
:10231000636F000E656F020E646FB3EC05F0AB0ED9
:10232000286E020E296E97ECEAF028C0B2F229C09E
:10233000B3F20201B451B511D8B4A1EF91F0A3EFFB
:1023400091F0ACEF91F0B251B311D8A4AAEF91F093
:10235000ACEF91F0B0EF91F0000E936FB2EF91F00F
:10236000010E936F720E0101006F030E016F610E7B
:10237000026FF80E036F9ECA04F19FCA05F1A0CA4E
:1023800006F1A1CA07F1A8CA1AF0A9CA1BF0000EEB
:102390001D6E0A0E1C6EF8ECF2F01AC008F11BC09C
:1023A00009F1AACA1AF0ABCA1BF0000E1D6E0A0E84
:1023B0001C6EF8ECF2F01AC00AF11BC00BF1B4C2AB
:1023C0000CF1B5C20DF1B2C20EF1B3C20FF12CEC9B
:1023D000A3F0DAEF96F0BFC11AF0C0C11BF0AD0E4A
:1023E0001C6EFF0E1D6E000E1F6E060E1E6E32EC72
:1023F000F2F01A501B10D8A400EF92F002EF92F006
:102400009EEF92F0000E0A01B36F050EB3650BEF5D
:1024100092F00DEF92F00FEF92F0DAEF96F0AB0E34
:102420000001606F020E616F0A01B351040DF3CF1A
:10243000ECF0F4CFEDF00001EC510101BF250001FB
:10244000EE6FED510101C0210001EF6F070EEE2587
:10245000626F000EEF21636F000E656F020E646FF6
:10246000B3EC05F0AB0E286E020E296E97ECEAF085
:1024700028C0ACFA29C0ADFA0A01B351040DF3CF5C
:10248000ECF0F4CFEDF00001EC510101BF250001AB
:10249000EE6FED510101C0210001EF6F060EEE2538
:1024A000D96E000EEF21DA6E2D0EDE18D8A45BEF88
:1024B00092F05DEF92F06AEF92F0ACCA22F0ADCAF2
:1024C00023F0FF0E256E246873EC0BF022C0ACFAEB
:1024D00023C0ADFA0A01B351020DC40EF324D96E24
:1024E000020EF420DA6EACCADEFFADCADDFFB351D6
:1024F0000001EC6FED6BD890EC37ED37440EEC2516
:102500001A6E000EED211B6EADCA1CF078EC06F0C1
:102510000A01B3510001EC6FED6BD890EC37ED3749
:10252000430EEC251A6E000EED211B6EACCA1CF09A
:1025300078EC06F00A01B32B05EF92F0BFC11AF058
:10254000C0C11BF0980E1C6EFF0E1D6E000E1F6E9C
:10255000060E1E6E32ECF2F01A501B10D8A4B3EF28
:1025600092F0B5EF92F023EF93F0000E0A01B16FF5
:10257000050EB165BEEF92F0C0EF92F0C2EF92F09F
:10258000DAEF96F0AB0E0001606F020E616F0A0188
:10259000B151040DF3CFECF0F4CFEDF00001EC51AC
:1025A0000101BF250001EE6FED510101C0210001C5
:1025B000EF6F060EEE25626F000EEF21636F000EC7
:1025C000656F030E646FB3EC05F0AB0E286E020E60
:1025D000296E97ECEAF028C0A2FA29C0A3FA0A01F2
:1025E000B151020DE20EF324D96E030EF420DA6E1F
:1025F000A2CADEFFA3CADDFFB1510001EC6FED6B93
:10260000D890EC37ED37250EEC251A6E000EED2133
:102610001B6EA3CA1CF078EC06F00A01B151000150
:10262000EC6FED6BD890EC37ED37240EEC251A6E7D
:10263000000EED211B6EA2CA1CF078EC06F00A0118
:10264000B12BB8EF92F0BFC11AF0C0C11BF0A60EBB
:102650001C6EFF0E1D6E000E1F6E060E1E6E32ECFF
:10266000F2F01A501B10D8A438EF93F03AEF93F021
:10267000A8EF93F0000E0A01B26F050EB26543EFAA
:1026800093F045EF93F047EF93F0DAEF96F0AB0E4F
:102690000001606F020E616F0A01B251040DF3CFA9
:1026A000ECF0F4CFEDF00001EC510101BF25000189
:1026B000EE6FED510101C0210001EF6F060EEE2516
:1026C000626F000EEF21636F000E656F030E646F83
:1026D000B3EC05F0AB0E286E020E296E97ECEAF013
:1026E00028C0A4FA29C0A5FA0A01B251020DD60EDB
:1026F000F324D96E030EF420DA6EA4CADEFFA5CA55
:10270000DDFFB2510001EC6FED6BD890EC37ED3787
:10271000310EEC251A6E000EED211B6EA5CA1CF0C1
:1027200078EC06F00A01B2510001EC6FED6BD89025
:10273000EC37ED37300EEC251A6E000EED211B6ED6
:10274000A4CA1CF078EC06F00A01B22B3DEF93F01E
:10275000BFC11AF0C0C11BF0590E1C6EFF0E1D6EDA
:10276000000E1F6E070E1E6E32ECF2F01A501B1098
:10277000D8A4BDEF93F0BFEF93F09AEF94F0000E62
:102780000A01B46F020EB465C8EF93F0CAEF93F07C
:10279000CCEF93F033EF94F0AB0E0001606F020EBC
:1027A000616F0A01B451040DF3CFECF0F4CFEDF0FA
:1027B0000001EC510101BF250001EE6FED51010157
:1027C000C0210001EF6F070EEE25626F000EEF21B2
:1027D000636F000E656F030E646FB3EC05F0AB0E14
:1027E000286E020E296E97ECEAF028C0AEFA29C0D6
:1027F000AFFA0A01B4510001EC6FED6BD890EC37E1
:10280000ED37F00EEC25D96E030EED21DA6EAECA6F
:10281000DEFFAFCADDFF0A01B4510001EC6FED6BC2
:10282000D890EC37ED375A0EEC251A6E000EED21DC
:102830001B6EAFCA1CF078EC06F00A01B45100011F
:10284000EC6FED6BD890EC37ED37590EEC251A6E26
:10285000000EED211B6EAECA1CF078EC06F00A01EA
:10286000B42BC2EF93F0000E0201AD6F000E0A010F
:10287000B46F020EB4653FEF94F041EF94F043EF74
:1028800094F08DEF94F0AB0E0001606F020E616F5B
:102890000A01B451030DF3CFECF0F4CFEDF00001D9
:1028A000EC510101BF250001EE6FED510101C02186
:1028B0000001EF6F130EEE25626F000EEF21636FC4
:1028C000000E656F020E646FB3EC05F0AB0E286E60
:1028D000020E296E97ECEAF028C0AEFA29C0AFFAD2
:1028E000D10E0A01B425D96EDA6A020EDA22AECA16
:1028F000DFFF5F0EB4251A6E1B6A000E1B22D10E7D
:10290000B425D96EDA6A020EDA22DF501C6E78EC3A
:1029100006F00A01B42B39EF94F0720E0101006F3A
:10292000030E016F110E026FFE0E036F2CECA3F06D
:10293000DAEF96F0BFC11AF0C0C11BF0410E1C6E59
:10294000FE0E1D6E000E1F6E0A0E1E6E32ECF2F0B1
:102950001A501B10D8A4AFEF94F0B1EF94F0EDEF44
:1029600094F0AB0E0001606F020E616F0A0E010160
:10297000BF250001626F000E0101C0210001636FDD
:10298000000E656F030E646FB3EC05F0AB0E286E9E
:10299000020E296E97ECEAF028C03DF229C03EF203
:1029A000000E1B6E630E1A6E3EC21CF078EC06F031
:1029B000000E1B6E620E1A6E3DC21CF078EC06F023
:1029C000720E0101006F030E016F0D0E026FFC0EFF
:1029D000036F2CECA3F0DAEF96F0BFC11AF0C0C180
:1029E0001BF0C90E1C6EFD0E1D6E000E1F6E0B0E31
:1029F0001E6E32ECF2F01A501B10D8A402EF95F0C4
:102A000004EF95F04BEF95F0010120EE0BF0BF5174
:102A1000D926C051DA22DF500001EC6FD00EEC2530
:102A2000ED6FEE6BFF0EEE23EE5107E1040EED5D50
:102A3000D8B01DEF95F01FEF95F03EEF95F0010136
:102A400020EE0BF0BF51D926C051DA22DF50D00F53
:102A50002F6E000E1B6E640E1A6E2FC01CF078ECE9
:102A600006F0720E0101006F030E016F6E0E026F11
:102A7000FB0E036F2CECA3F0CAEF8EF0720E010177
:102A8000006F030E016FC50E026FF90E036F2CEC81
:102A9000A3F0DAEF96F0BFC11AF0C0C11BF0F90E37
:102AA0001C6EFE0E1D6E000E1F6E090E1E6E32ECA9
:102AB000F2F01A501B10D8A460EF95F062EF95F079
:102AC000BEEF95F0AB0E0001606F020E616F090E54
:102AD0000101BF250001626F000E0101C02100014C
:102AE000636F000E656F040E646FB3EC05F0AB0E00
:102AF000286E020E296E97ECEAF028C097FA29C0DA
:102B000098FA0A0198BF90EF95F0E90E975D030ED1
:102B10009859D8B08EEF95F090EF95F0B1EF95F011
:102B200097CAD4F20201D56B000E1B6E500E1A6EBE
:102B3000D5C21CF078EC06F0000E1B6E4F0E1A6E1C
:102B4000D4C21CF078EC06F0720E0101006F030E87
:102B5000016FBC0E026FFC0E036F2CECA3F0DAEFDA
:102B600096F0720E0101006F030E016F190E026FD5
:102B7000FB0E036F2CECA3F0DAEF96F0BFC11AF056
:102B8000C0C11BF04C0E1C6EFE0E1D6E000E1F6EA3
:102B90000A0E1E6E32ECF2F01A501B10D8A4D3EFBE
:102BA00095F0D5EF95F034EF96F0010120EE0AF0A4
:102BB000BF51D926C051DA22DF500001EC6FD00E90
:102BC000EC25ED6FEE6BFF0EEE23ED51EE11D8B458
:102BD000ECEF95F0EEEF95F007EF96F0010120EEA7
:102BE0000AF0BF51D926C051DA22DF500001EC6F44
:102BF000D00EEC25ED6FEE6BFF0EEE23ED05EE1122
:102C0000D8A405EF96F007EF96F027EF96F00101B4
:102C100020EE0AF0BF51D926C051DA22DF50D00F82
:102C20000201DD6F000E1B6E3C0E1A6EDDC21CF041
:102C300078EC06F0720E0101006F030E016F1C0E9E
:102C4000026FFC0E036F2CECA3F0DAEF96F0720E1D
:102C50000101006F030E016F6C0E026FFA0E036F1D
:102C60002CECA3F0DAEF96F0BFC11AF0C0C11BF054
:102C7000F90E1C6EFD0E1D6E000E1F6E0B0E1E6EED
:102C800032ECF2F01A501B10D8A449EF96F04BEF3B
:102C900096F0A5EF8CF0AB0E0001606F020E616F35
:102CA0000B0E0101BF250001626F000E0101C02162
:102CB0000001636F000E656F020E646FB3EC05F0E8
:102CC000AB0E286E020E296E97ECEAF028C0A6FA29
:102CD00029C0A7FA0A01A7BF77EF96F0A75109E12B
:102CE000210EA65DD8A077EF96F079EF96F083EFEE
:102CF00096F0630EA619A711D8A481EF96F083EF82
:102D000096F0CFEF96F0630EA619A711D8A48BEF1B
:102D100096F08DEF96F098EF96F0000E0201306F6E
:102D2000000E316F000E326F000E336FC2EF96F05F
:102D3000A6CAECF0010E0001ED6FEE6BEF6BF06BCD
:102D4000EC2BA8EF96F0D890ED37EE37EF37F03751
:102D5000EC2FA3EF96F0ED1DF16FEE1DF26FEF1D5E
:102D6000F36FF01DF46FF151020130170001F251C1
:102D7000020131170001F351020132170001F45131
:102D800002013317720E0101006F030E016FAE0EC8
:102D9000026FFB0E036F2CECA3F0CAEF8EF0720EE5
:102DA0000101006F030E016F110E026FFA0E036F27
:102DB0002CECA3F0720E206E030E216E720E1A6EB2
:102DC000030E1B6EFEEC08F01A50226E0A01B05181
:102DD00053EC07F01200000E0101536F010E446E18
:102DE000010E456E000E386E000E376E17ECBDF00A
:102DF000530E216E010E226E000E236EF7ECAEF024
:102E0000530E216E010E226E000E236ECEECACF03E
:102E1000530E206E010E216E000E226E000E236EE8
:102E200058ECDCF060EC0BF0000E7BEC0DF0000ECB
:102E30006DEC0DF004009EEC06F08082720E010134
:102E4000006F030E016FDE0E026FFF0E036F2CEC9E
:102E5000A3F0720E1E6E030E1F6E050E206E2BEC7D
:102E600006F0000E1B6E040E1A6EE0EC0BF0416EC5
:102E7000080E41603EEF97F040EF97F048EF97F073
:102E80004150D8A446EF97F048EF97F052EF97F0F3
:102E9000010E416E000E1B6E040E1A6E41C01CF036
:102EA00078EC06F0000E1B6E200E1A6EE0EC0BF0B4
:102EB0000001F86FF8510201576F586B5751586F66
:102EC000576B000E1B6E190E1A6EE0EC0BF0000132
:102ED000F86FF85102015713572908E15829D8B45F
:102EE00074EF97F076EF97F07FEF97F05751581106
:102EF000D8A47DEF97F07FEF97F093EF97F0270E30
:102F0000586F0F0E576F000E1B6E200E1A6E58C2B0
:102F10001CF078EC06F0000E1B6E190E1A6E57C2EC
:102F20001CF078EC06F0000E1B6E210E1A6EE0EC21
:102F30000BF0436E4328D8B4A0EF97F0A2EF97F0C0
:102F4000AAEF97F04350D8A4A8EF97F0AAEF97F014
:102F5000B4EF97F0010E436E000E1B6E210E1A6E39
:102F600043C01CF078EC06F00400000E1B6E230E2C
:102F70001A6EE0EC0BF00001F86FF8510201556F8A
:102F8000566B5551566F556B000E1B6E220E1A6E06
:102F9000E0EC0BF00001F86FF851020155135529D0
:102FA00008E15629D8B4D7EF97F0D9EF97F0E2EFC0
:102FB00097F055515611D8A4E0EF97F0E2EF97F053
:102FC000F6EF97F0270E566F0F0E556F000E1B6E23
:102FD000230E1A6E56C21CF078EC06F0000E1B6E23
:102FE000220E1A6E55C21CF078EC06F0000E1B6E15
:102FF000550E1A6EE0EC0BF00001F86FF85102016B
:10300000536F546B5351546F536B000E1B6E540E21
:103010001A6EE0EC0BF00001F86FF8510201531347
:10302000532908E15429D8B418EF98F01AEF98F012
:1030300023EF98F053515411D8A421EF98F023EFC7
:1030400098F037EF98F0270E546F0F0E536F000E65
:103050001B6E550E1A6E270E1C6E78EC06F0000ED5
:103060001B6E540E1A6E0F0E1C6E78EC06F0000EDE
:103070001B6E560E1A6EE0EC0BF00201E26FE229B5
:10308000D8B445EF98F047EF98F04FEF98F0E25141
:10309000D8A44DEF98F04FEF98F059EF98F03C0E10
:1030A000E26F000E1B6E560E1A6EE2C21CF078EC38
:1030B00006F0000E1B6E050E1A6EE0EC0BF0406E73
:1030C0004050D8B466EF98F068EF98F070EF98F041
:1030D000F70E40646EEF98F070EF98F07AEF98F08A
:1030E000010E406E000E1B6E050E1A6E40C01CF0E5
:1030F00078EC06F0040024EE9FF011EE2CF00B0E9D
:10310000DBCFE3FFE806FCE224EE93F011EE38F0AB
:103110000B0EDBCFE3FFE806FCE224EE87F011EEB6
:1031200044F00B0EDBCFE3FFE806FCE2240E0101C6
:10313000546F000E556F050E5565A1EF98F0A3EF83
:1031400098F0A5EF98F025EF99F0010E54251A6E2E
:103150001B6A000E1B22E0EC0BF00001F86FF96B0C
:1031600001015551020DE20EF324D96E030EF42035
:10317000DA6EF8C0DEFFF9C0DDFF5551020DE20E38
:10318000F324D96E030EF420DA6EDE50DD6EDF6AB2
:103190005551020DE20EF324D96E030EF420DA6EBF
:1031A00054C11AF01B6AE0EC0BF00001F86FF85103
:1031B000DE12000EDD1201015551020DE20EF32464
:1031C000D96E030EF420DA6EDE2806E1DE28D8A4DC
:1031D000ECEF98F0EEEF98F01FEF99F05551020DDB
:1031E0002C0EF324D96E010EF420DA6E5551020D27
:1031F000E20EF324E16E030EF420E26EDECFE6FF72
:10320000DDCFE5FF5551020DE20EF324D96E030E1A
:10321000F420DA6EDECF51F1DDCF52F1010E5425EC
:103220001A6E1B6A000E1B2252C11CF078EC06F0CD
:1032300054C11AF01B6A51C11CF078EC06F0020E62
:1032400001015427552B9BEF98F0300E546F000E60
:10325000556F050E55652FEF99F031EF99F033EF6B
:1032600099F0B3EF99F0010E54251A6E1B6A000E07
:103270001B22E0EC0BF00001F86FF96B01015551D6
:10328000020DD60EF324D96E030EF420DA6EF8C0C8
:10329000DEFFF9C0DDFF5551020DD60EF324D96EC5
:1032A000030EF420DA6EDE50DD6EDF6A5551020D3A
:1032B000D60EF324D96E030EF420DA6E54C11AF040
:1032C0001B6AE0EC0BF00001F86FF851DE12000E03
:1032D000DD1201015551020DD60EF324D96E030EF5
:1032E000F420DA6EDE2806E1DE28D8A47AEF99F021
:1032F0007CEF99F0ADEF99F05551020D380EF324A3
:10330000D96E010EF420DA6E5551020DD60EF3245B
:10331000E16E030EF420E26EDECFE6FFDDCFE5FFC7
:103320005551020DD60EF324D96E030EF420DA6E39
:10333000DECF51F1DDCF52F1010E54251A6E1B6A1A
:10334000000E1B2252C11CF078EC06F054C11AF09A
:103350001B6A51C11CF078EC06F0020E01015427E3
:10336000552B29EF99F0430E546F000E556F050E43
:103370005565BDEF99F0BFEF99F0C1EF99F0FDEF02
:1033800099F0010E54251A6E1B6A000E1B22E0EC08
:103390000BF00001F86FF96B01015551020DC40EDD
:1033A000F324D96E020EF420DA6EF8C0DEFFF9C005
:1033B000DDFF5551020DC40EF324D96E020EF42028
:1033C000DA6EDE50DD6EDF6A5551020DC40EF32455
:1033D000D96E020EF420DA6E54C11AF01B6AE0ECCA
:1033E0000BF00001F86FF851DE12000EDD12020E34
:1033F00001015427552BB7EF99F0590E546F000E69
:10340000526F000E516F010E556F030E55650BEF95
:103410009AF00DEF9AF00FEF9AF065EF9AF0010E27
:1034200054251A6E1B6A000E1B22E0EC0BF0000103
:10343000F86FF8510101516F526B5151526F516B3E
:1034400054C11AF01B6AE0EC0BF00001F86FF85160
:1034500001015113512906E15229D8A432EF9AF003
:1034600034EF9AF053EF9AF05551020DEE0EF3241B
:10347000D96E030EF420DA6EDECF51F1DDCF52F1BA
:10348000010E54251A6E1B6A000E1B2252C11CF03D
:1034900078EC06F054C11AF01B6A51C11CF078ECAC
:1034A00006F05FEF9AF05551020DEE0EF324D96E3F
:1034B000030EF420DA6E51C1DEFF52C1DDFF020EB1
:1034C00001015427552B05EF9AF05F0E546F000E43
:1034D000506F010E556F030E556571EF9AF073EF43
:1034E0009AF075EF9AF0A2EF9AF054C11AF01B6AA5
:1034F000E0EC0BF00101506F5029D8A482EF9AF054
:1035000084EF9AF095EF9AF0D00E5525D96EDA6ACD
:10351000020EDA22DF50506F54C11AF01B6A50C1FC
:103520001CF078EC06F09DEF9AF0D00E5525D96E80
:10353000DA6A020EDA2250C1DFFF0101542B552B4B
:103540006BEF9AF0000E1B6E630E1A6EE0EC0BF040
:103550000001F86FF85102013D6F3E6B3D513E6F27
:103560003D6B000E1B6E620E1A6EE0EC0BF000015C
:10357000F86FF85102013D133D2906E13E29D8A418
:10358000C4EF9AF0C6EF9AF0DAEF9AF0000E3E6FB1
:10359000000E3D6F000E1B6E630E1A6E3EC21CF0D5
:1035A00078EC06F0000E1B6E620E1A6E3DC21CF027
:1035B00078EC06F00400000E1B6E640E1A6EE0EC50
:1035C0000BF02F6E030E2F64E8EF9AF0EAEF9AF0FB
:1035D000F4EF9AF0000E2F6E000E1B6E640E1A6E42
:1035E0002FC01CF078EC06F0000E0201876F8751A7
:1035F0002F18D8A4FEEF9AF000EF9BF002EF9BF09B
:10360000010E876FC42906E1C529D8A40AEF9BF0F3
:103610000CEF9BF084EF9BF0C62906E1C729D8A4E4
:1036200014EF9BF016EF9BF084EF9BF0C82906E1A6
:10363000C929D8A41EEF9BF020EF9BF084EF9BF0EC
:10364000CA2906E1CB29D8A428EF9BF02AEF9BF0EA
:1036500084EF9BF0CC2906E1CD29D8A432EF9BF072
:1036600034EF9BF084EF9BF0CE2906E1CF29D8A45C
:103670003CEF9BF03EEF9BF084EF9BF0430E01018B
:10368000546F000E556F050E556549EF9BF04BEFDB
:103690009BF04DEF9BF084EF9BF05551020D440ED3
:1036A000F324D96E010EF420DA6E5551020DC40ECA
:1036B000F324E16E020EF420E26EDECFE6FFDDCFF2
:1036C000E5FF5551020DC40EF324D96E020EF4200D
:1036D000DA6EDECF51F1DDCF52F1010E54251A6EB4
:1036E0001B6A000E1B2252C11CF078EC06F054C17C
:1036F0001AF01B6A51C11CF078EC06F0020E0101B1
:103700005427552B43EF9BF0000E1B6E570E1A6E7D
:10371000E0EC0BF00201A46F000E1B6E580E1A6E47
:10372000E0EC0BF00201886F010E88659AEF9BF0C8
:103730009CEF9BF0A6EF9BF0000E886F000E1B6EB7
:10374000580E1A6E88C21CF078EC06F0000E1B6E44
:103750003C0E1A6EE0EC0BF00201DD6F010EDD6530
:10376000B4EF9BF0B6EF9BF0C0EF9BF0010EDD6F66
:10377000000E1B6E3C0E1A6EDDC21CF078EC06F0DB
:10378000000E1B6E500E1A6EE0EC0BF00001F86F8D
:10379000F8510201D46FD56BD451D56FD46B000EA4
:1037A0001B6E4F0E1A6EE0EC0BF00001F86FF85133
:1037B0000201D413E90ED45D030ED559D8A0E3EF6E
:1037C0009BF0E5EF9BF0F9EF9BF0000ED56F500EEC
:1037D000D46F000E1B6E500E1A6ED5C21CF078EC22
:1037E00006F0000E1B6E4F0E1A6ED4C21CF078EC61
:1037F00006F0000E1B6E3D0E1A6EE0EC0BF002019F
:10380000E66FE629D8A407EF9CF009EF9CF013EFD0
:103810009CF00A0EE66F000E1B6E3D0E1A6EE6C29D
:103820001CF078EC06F0000E1B6E3E0E1A6EE0ECFB
:103830000BF00201E56FE529D8A421EF9CF023EFFE
:103840009CF02DEF9CF0180EE56F000E1B6E3E0EE7
:103850001A6EE5C21CF078EC06F00400000E1B6E38
:103860003F0E1A6EE0EC0BF00001F86FF851020108
:10387000D66FD76BD651D76FD66B000E1B6E400E2E
:103880001A6EE0EC0BF00001F86FF8510201D6134C
:10389000D62908E1D729D8B450EF9CF052EF9CF01C
:1038A0005BEF9CF0D651D711D8A459EF9CF05BEF99
:1038B0009CF06FEF9CF0000ED76F1E0ED66F000EBF
:1038C0001B6E3F0E1A6ED7C21CF078EC06F0000E8D
:1038D0001B6E400E1A6ED6C21CF078EC06F0000E7D
:1038E0001B6E410E1A6EE0EC0BF00201E46FE4294E
:1038F000D8A47DEF9CF07FEF9CF089EF9CF00F0E39
:10390000E46F000E1B6E410E1A6EE4C21CF078ECE0
:1039100006F0000E1B6E420E1A6EE0EC0BF0020178
:10392000E36FE329D8A497EF9CF099EF9CF0A3EF05
:103930009CF0230EE36F000E1B6E420E1A6EE3C264
:103940001CF078EC06F0000E1B6E530E1A6EE0ECC5
:103950000BF00101536F5329D8A4B1EF9CF0B3EFE2
:103960009CF0BDEF9CF00A0E426E000E1B6E530ED3
:103970001A6E42C01CF078EC06F0070E4118D8A46D
:10398000C4EF9CF0C6EF9CF0CAEF9CF0010E426EB3
:10399000010E3F6E0D0E01015319D8A4D2EF9CF019
:1039A000D4EF9CF0D6EF9CF00D0E426E0D0E421837
:1039B000D8A4DDEF9CF0DFEF9CF011EF9DF0000E3E
:1039C0001B6E510E1A6EE0EC0BF0386E640E38640C
:1039D000ECEF9CF0EEEF9CF0F8EF9CF0000E386EF0
:1039E000000E1B6E510E1A6E38C01CF078EC06F0FB
:1039F000000E1B6E520E1A6EE0EC0BF0376E640E6A
:103A0000376405EF9DF007EF9DF011EF9DF0000E7C
:103A1000376E000E1B6E520E1A6E37C01CF078EC1B
:103A200006F004007C907C9212000B0E3F18D8B474
:103A30001CEF9DF01EEF9DF08BEFA0F00C0E3F18D9
:103A4000D8B425EF9DF027EF9DF08BEFA0F0060E88
:103A50003F18D8A42EEF9DF030EF9DF034EF9DF08D
:103A60008BEFA0F08BEFA0F0130EBCEC07F0000979
:103A7000D8B43DEF9DF03FEF9DF08AEF9DF0000E32
:103A80001B6E640E1A6E000E1C6E130E62ECFCF0C0
:103A9000BCECE7F00001D9C0E2F0DAC0E3F0E46B7F
:103AA000E56BE2C01AF0E3C01BF0E4C01CF0E5C017
:103AB0001DF0640E1E6E000E1F6E000E206E000EB6
:103AC000216ECEECFCF01AC0E2F01BC0E3F01CC08B
:103AD000E4F01DC0E5F0E2C060F0E3C061F0E4C0D6
:103AE00062F0E5C063F0FF0E0001646F030E656FC6
:103AF000000E666F000E676FE3ECF6F060C0E2F058
:103B000061C0E3F062C0E4F063C0E5F0E2C02DF014
:103B1000E3C02EF02E5007E10A0E2D5CD8B093EFD3
:103B20009DF095EF9DF078EFA0F0000E2E6E000E48
:103B30002D6E78EFA0F00201DC05D8A4A2EF9DF075
:103B4000A4EF9DF041EF9EF02E5007E1330E2D5C67
:103B5000D8B0ADEF9DF0AFEF9DF0EBEF9DF0000E14
:103B60001B6E1E0E1A6E010E1C6E180E62ECFCF01F
:103B70002DC022F02EC023F0000E256E640E246EA0
:103B800073EC0BF022C0D2F023C0D3F0000E000182
:103B9000D56F320ED46F82ECFBF0D2C0E6F0D3C00A
:103BA000E7F03F04D8A4D7EF9DF0D9EF9DF0E7EF01
:103BB0009DF0020E3464DFEF9DF0E1EF9DF0E7EF42
:103BC0009DF0E6C038F0E6C037F08BEFA0F0010EB4
:103BD000426E8BEFA0F0180EBCEC07F00009D8B4D1
:103BE000F4EF9DF0F6EF9DF032EF9DF0000E1B6EAE
:103BF0001E0E1A6E010E1C6E180E62ECFCF02E509A
:103C000009E1340E2D5CD8A008EF9EF00AEF9EF07B
:103C100020EF9EF02E5007E14C0E2D5CD8B013EF34
:103C20009EF015EF9EF020EF9EF0020E0201DC6F79
:103C3000020E426E000E4A6F000E496F8BEFA0F02D
:103C40002E5009E14D0E2D5CD8A029EF9EF02BEFF0
:103C50009EF032EF9DF02E5007E1650E2D5CD8B03E
:103C600034EF9EF036EF9EF032EF9DF0030E02012E
:103C7000DC6F040E426E000E4A6F000E496F8BEF30
:103C8000A0F0020EDC19D8A448EF9EF04AEF9EF097
:103C9000E2EF9EF02E5009E1340E2D5CD8A053EFD8
:103CA0009EF055EF9EF0A0EF9EF02E5007E14C0ED7
:103CB0002D5CD8B05EEF9EF060EF9EF0A0EF9EF01E
:103CC000000E1B6E1E0E1A6E010E1C6E180E62EC9C
:103CD000FCF0CD0E2D24226EFF0E2E20236E000E42
:103CE000256E640E246E73EC0BF022C0D2F023C05C
:103CF000D3F0000E0001D56F180ED46F82ECFBF0EC
:103D0000D2C0E6F0D3C0E7F0020E3F18D8A48BEF84
:103D10009EF08DEF9EF097EF9EF0020E346493EFCD
:103D20009EF095EF9EF097EF9EF0E1EF9DF0020E72
:103D3000426E000E02014A6F000E496F8BEFA0F039
:103D4000180EBCEC07F00009D8B4A9EF9EF0ABEF59
:103D50009EF08BEFA0F0000E1B6E1E0E1A6E010E71
:103D60001C6E180E62ECFCF02E5007E1330E2D5C39
:103D7000D8B0BDEF9EF0BFEF9EF0CAEF9EF0010EEF
:103D80000201DC6F010E426E000E4A6F000E496F99
:103D90008BEFA0F02E5009E14D0E2D5CD8A0D3EF93
:103DA0009EF0D5EF9EF08BEFA0F02E5007E1650E50
:103DB0002D5CD8B0DEEF9EF0E0EF9EF08BEFA0F030
:103DC00036EF9EF0030EDC19D8A4E9EF9EF0EBEF7E
:103DD0009EF032EF9DF02E5009E14D0E2D5CD8A0E3
:103DE000F4EF9EF0F6EF9EF041EF9FF02E5007E1CA
:103DF000650E2D5CD8B0FFEF9EF001EF9FF041EF14
:103E00009FF0000E1B6E1E0E1A6E010E1C6E180E19
:103E100062ECFCF0B40E2D24226EFF0E2E20236ED9
:103E2000000E256E640E246E73EC0BF022C0D2F0EF
:103E300023C0D3F0000E0001D56F180ED46F82ECB2
:103E4000FBF0D2C0E6F0D3C0E7F0040E3F18D8A4D0
:103E50002CEF9FF02EEF9FF038EF9FF0020E3464AE
:103E600034EF9FF036EF9FF038EF9FF0E1EF9DF0D9
:103E7000040E426E000E02014A6F000E496F8BEF76
:103E8000A0F0180EBCEC07F00009D8B44AEF9FF080
:103E90004CEF9FF032EF9DF0000E1B6E1E0E1A6E5F
:103EA000010E1C6E180E62ECFCF02E5007E1330E72
:103EB0002D5CD8B05EEF9FF060EF9FF062EF9FF057
:103EC000BFEF9EF02E5009E1340E2D5CD8A06BEFB1
:103ED0009FF06DEF9FF032EF9DF02E5007E14C0EFA
:103EE0002D5CD8B076EF9FF078EF9FF032EF9DF029
:103EF00015EF9EF02DC0E6F02EC0E7F03F04D8A4E9
:103F000084EF9FF086EF9FF0E7EF9DF0020E3464A0
:103F10008CEF9FF08EEF9FF0E7EF9DF0E1EF9DF0CB
:103F20000201DC05D8A497EF9FF099EF9FF002EF14
:103F3000A0F02E5007E1330E2D5CD8B0A2EF9FF019
:103F4000A4EF9FF0D8EF9FF0000E1B6E1E0E1A6EAE
:103F5000010E1C6E180E62ECFCF02DC022F02EC07B
:103F600023F0000E256E640E246E73EC0BF022C05D
:103F7000D2F023C0D3F0000E0001D56F320ED46F03
:103F800082ECFBF0D2C0E6F0D3C0E7F03F04D8A447
:103F9000CCEF9FF0CEEF9FF0E7EF9DF0020E346480
:103FA000D4EF9FF0D6EF9FF0E7EF9DF0E1EF9DF0AB
:103FB000180EBCEC07F00009D8B4E1EF9FF0E3EF76
:103FC0009FF08BEFA0F0000E1B6E1E0E1A6E010EFE
:103FD0001C6E180E62ECFCF02E5009E1340E2D5CC4
:103FE000D8A0F5EF9FF0F7EF9FF032EF9DF0020EB3
:103FF0000201DC6F040E426E000E4A6F000E496F24
:104000008BEFA0F0020EDC19D8A409EFA0F00BEFA3
:10401000A0F061EFA0F02E5009E1340E2D5CD8A085
:1040200014EFA0F016EFA0F040EFA0F0000E1B6E12
:104030001E0E1A6E010E1C6E180E62ECFCF02DC0E6
:10404000E0F02EC0E1F0D8900001E037E1379C0E9F
:10405000E025E66FFF0EE121E76F040E3F18D8A4BC
:1040600034EFA0F036EFA0F038EF9FF0020E34648A
:104070003CEFA0F03EEFA0F038EF9FF0E1EF9DF0B5
:10408000180EBCEC07F00009D8B449EFA0F04BEFD4
:10409000A0F08BEFA0F0000E1B6E1E0E1A6E010E2C
:1040A0001C6E180E62ECFCF02E5007E1330E2D5CF6
:1040B000D8B05DEFA0F05FEFA0F032EF9DF0BFEF62
:1040C0009EF0030EDC19D8A468EFA0F06AEFA0F010
:1040D0008BEFA0F0010EDC6F8BEFA0F02DC0E6F0AF
:1040E0002EC0E7F0E6C038F0E6C037F08BEFA0F066
:1040F0004150030AD8B49BEF9DF0070AD8B47AEF79
:104100009FF0010AD8B490EF9FF0020AD8B46EEF86
:10411000A0F08BEFA0F012003E0E1A6E000E1B6E88
:104120003D0E1C6E000E1D6E3C0E1E6E000E1F6EB0
:10413000C30E206E020E216E3B0E226E000E236E09
:10414000E6ECE3F00009D8B4A8EFA0F0AAEFA0F0E5
:104150000AEFA1F0720E0101006F030E016F9D0EB8
:10416000026FF80E036F3EC004F1056B3DC006F10F
:10417000076B3CC008F1096BC3C20AF10B6B3BC073
:104180000CF10D6B2CECA3F0720E1B6E030E1C6E6B
:10419000C9ECFEF0EF0E1A6E020E1B6E3E0E1C6E88
:1041A000000E1D6E98ECFEF00001EA6F720E010128
:1041B000006F030E016F240E026FFA0E036FEAC048
:1041C00004F1056B2CECA3F0720E1B6E030E1C6E3B
:1041D000C9ECFEF0EB0E1A6E020E1B6E3D0E1C6E4D
:1041E000000E1D6E98ECFEF00001EA6F720E0101E8
:1041F000006F030E016F360E026FFA0E036FEAC0F6
:1042000004F1056B2CECA3F0720E1B6E030E1C6EFA
:10421000C9ECFEF0010E0001DF6FB80EDE6F030E79
:10422000E16F280EE06F08EC05F0D9C0E2F0DAC0CB
:10423000E3F0DCEC05F00201906F9151D8B423EF6C
:10424000A1F025EFA1F0E3EFA1F0BBECF3F0050E38
:1042500002018319D8A42FEFA1F031EFA1F033EFC1
:10426000A1F0000E836F000E916FC40E0001D96F94
:10427000070EDA6F1DECCDF002018351020D6E0EB8
:10428000F324D96E040EF420DA6E0001D9C0DEFFEB
:10429000DAC0DDFFA00ED96F070EDA6F1DECCDF08E
:1042A00002018351020D640EF324D96E040EF42032
:1042B000DA6E0001D9C0DEFFDAC0DDFFD90ED96F9A
:1042C000080EDA6F1DECCDF002018351020D5A0E7B
:1042D000F324D96E040EF420DA6E0001D9C0DEFF9B
:1042E000DAC0DDFF000E0201506F000E4F6F000EAE
:1042F0004E6F000E4D6F000E4C6F000E4B6F000E98
:104300000001ED6FED51020D6E0EF324D96E040E17
:10431000F420DA6EDE5002014F27DD5050230001F9
:10432000ED51020D640EF324D96E040EF420DA6E02
:10433000DE5002014D27DD504E230001ED51020DEC
:104340005A0EF324D96E040EF420DA6EDE50020108
:104350004B27DD504C230001ED2B040EED65B3EF30
:10436000A1F0B5EFA1F082EFA1F04FC2D2F050C2A0
:10437000D3F0000ED56F050ED46F82ECFBF0D2C0E7
:104380004FF2D3C050F24DC2D2F04EC2D3F0000E65
:104390000001D56F050ED46F82ECFBF0D2C04DF258
:1043A000D3C04EF24BC2D2F04CC2D3F0000E00018B
:1043B000D56F050ED46F82ECFBF0D2C04BF2D3C0A8
:1043C0004CF20201832B9351D8A4E9EFA1F0EBEF5B
:1043D000A1F020EFA3F0360EB3ECFFF0D9C047F206
:1043E000DAC048F2370EB3ECFFF0D9C045F2DAC0BC
:1043F00046F2070EBCEC07F00009D8B402EFA2F0B9
:1044000004EFA2F020EFA3F0030E1B6EE80E1A6E6D
:10441000000E1C6E070E62ECFCF0B80E0001A86FD7
:10442000020EA96FB40EAA6F020EAB6F440E77ECAA
:10443000CAF0B60E0001A86F020EA96FB20EAA6FE5
:10444000020EAB6F450E77ECCAF0440ECBEC0CF0CD
:10445000450ECBEC0CF0B8C2EEF0B9C2EFF00001A3
:10446000EFBF3EEFA2F0690EEE5D010EEF59D8B03E
:104470003CEFA2F03EEFA2F04CEFA2F0EFAF4AEF1C
:10448000A2F08E0EEE5DFE0EEF59D8B04AEFA2F00C
:104490004CEFA2F057EFA2F00201822B050E8265CD
:1044A00054EFA2F056EFA2F05AEFA2F0308F000EB8
:1044B0000201826FB6C2EEF0B7C2EFF00001EFBFAB
:1044C0006DEFA2F0690EEE5D010EEF59D8B06BEF03
:1044D000A2F06DEFA2F07BEFA2F0EFAF79EFA2F0C8
:1044E0008E0EEE5DFE0EEF59D8B079EFA2F07BEFA5
:1044F000A2F086EFA2F00201812B050E816583EF09
:10450000A2F085EFA2F089EFA2F03181000E020146
:10451000816FB55109E1650EB45DD8A092EFA2F0AC
:1045200094EFA2F09EEFA2F0802B050E80659BEF2A
:10453000A2F09DEFA2F0A0EFA2F03183000E806FF9
:10454000B35109E1650EB25DD8A0A9EFA2F0ABEFBF
:10455000A2F0B5EFA2F07F2B050E7F65B2EFA2F0BF
:10456000B4EFA2F0B7EFA2F03185000E7F6F45C225
:10457000BEF046C2BFF07DECD5F00001BE51020195
:10458000B85D0001EE6FBF510201B9590001EF6F34
:10459000EEC022F0EFC023F0000E256E640E246EF4
:1045A00073EC0BF022C0EBF023C0ECF0EBC0D2F0C8
:1045B000ECC0D3F045C2BEF046C2BFF07DECD5F0F2
:1045C0000001BE510201B65D0001D46FBF5102016E
:1045D000B7590001D56F82ECFBF0D2C0EBF0D3C02D
:1045E000ECF00001EC5109E1650EEB5DD8A0FBEFAA
:1045F000A2F0FDEFA2F002EFA3F0640E0201A66F9D
:1046000004EFA3F0EBC0A6F20001EC5107E11E0E8F
:10461000EB5DD8B00EEFA3F010EFA3F012EFA3F014
:10462000020131870001EC5109E1470EEB5DD8A092
:104630001CEFA3F01EEFA3F020EFA3F002013189DD
:10464000BB0E0001D96F020EDA6FBA0EDB6F020EDD
:10465000DC6F92ECE4F01200040E0001E16F010E39
:10466000E26F8EEFA5F0250EE919D8B43AEFA3F06A
:104670003CEFA3F047EFA3F000C1D9FF01C1DAFF7F
:10468000E9C0DFFF0101004B012B8EEFA5F0000E0A
:10469000E86F000EE76F000EE66F54EFA3F0000125
:1046A000E6850101024B032B02C1F6FF03C1F7FFB0
:1046B000000EF86E0800F550300AD8B44FEFA3F0A2
:1046C00062EFA3F002C1F6FF03C1F7FF000EF86E20
:1046D0000800F55066EC09F0D8A071EFA3F073EF75
:1046E000A3F0B7EFA3F0000E0001E86F000EE76F34
:1046F000E7C022F0E8C023F0000E256E0A0E246EFB
:1047000073EC0BF022C0E7F023C0E8F002C1F6FF23
:1047100003C1F7FF000EF86E0800F5CFDDF0D00EF4
:104720000001DD25DE6FDF6BFF0EDF23DE51E727A3
:10473000DF51E8230101024B032B02C1F6FF03C145
:10474000F7FF000EF86E0800F55066EC09F0D8B0DF
:10475000ACEFA3F0AEEFA3F078EFA3F0B7EFA3F0C8
:10476000E68FDFEFA3F0C00EE613DFEFA3F002C188
:10477000F6FF03C1F7FF0101024B032B000EF86E99
:104780000800F5CFE9F00001E951000AD8B4A3EF21
:10479000A5F0580AD8B4B0EFA3F03C0AD8B4DFEFC4
:1047A000A3F00D0AD8B4DFEFA3F01C0AD8B4B3EF1E
:1047B000A3F00D0AD8B4B0EFA3F08EEFA5F0E6C0D9
:1047C000DDF0C00EDD17D8A4E8EFA3F0EAEFA3F008
:1047D00005EFA4F0E1C0D9FFE2C0DAFFDECFE4F0DC
:1047E000DDCFE5F0020EE127000EE223E5BFFDEF8D
:1047F000A3F0FBEFA3F063EFA4F0030EE613E46D68
:10480000E51FD8B0E52B63EFA4F0E1C0D9FFE2C00B
:10481000DAFFDECFE4F0DDCFE5F0020EE127000E97
:10482000E22363EFA4F0010EE96FE951020D0F0ED0
:10483000F324F66EF70EF420F76EF86A000EF822F5
:104840000900F550E45D0900F550E559D8B02BEFAB
:10485000A4F02DEFA4F02FEFA4F073EFA4F0E92B58
:10486000050EE919D8A437EFA4F039EFA4F015EF3D
:10487000A4F073EFA4F0010EE96FE951020D190ED7
:10488000F324F66EF70EF420F76EF86A000EF822A5
:104890000900F550E45D0900F550E559D8B053EF33
:1048A000A4F055EFA4F057EFA4F073EFA4F0E92BB8
:1048B000040EE919D8A45FEFA4F061EFA4F03DEF76
:1048C000A4F073EFA4F0E651C00B000AD8B413EFC4
:1048D000A4F0800AD8B43BEFA4F0400AD8B413EF98
:1048E000A4F073EFA4F0E751E811D8B47AEFA4F084
:1048F0007CEFA4F08AEFA4F0E6C0DDF0030EDD1734
:10490000D8B485EFA4F087EFA4F08AEFA4F0E7070E
:10491000D8A0E807E951DD6FDE6BE751DD5DDE51C0
:10492000800ADF6FE851800ADF59D8B09AEFA4F00F
:104930009CEFA4F0A2EFA4F0E951E75F000EE85B62
:10494000A6EFA4F0000EE86F000EE76FE6A5ABEF50
:10495000A4F0ADEFA4F0E3EFA4F0E6C0DDF0030EA9
:10496000DD17D8B4B6EFA4F0B8EFA4F0C1EFA4F00F
:1049700000C1D9FF01C1DAFF2D0EDF6E0101004B2E
:10498000012B0001E751E811D8B4C9EFA4F0CBEF37
:10499000A4F016EFA5F000C1D9FF01C1DAFF300E77
:1049A000DF6E0101004B012B0001E707D8A0E807EB
:1049B000E751E811D8A4DFEFA4F0E1EFA4F0CBEFCA
:1049C000A4F016EFA5F0E751E811D8B4EAEFA4F08F
:1049D000ECEFA4F002EFA5F000C1D9FF01C1DAFFAE
:1049E000200EDF6E0101004B012B0001E707D8A06C
:1049F000E807E751E811D8A400EFA5F002EFA5F011
:104A0000ECEFA4F0E6C0DDF0030EDD17D8B40BEF39
:104A1000A5F00DEFA5F016EFA5F000C1D9FF01C17B
:104A2000DAFF2D0EDF6E0101004B012BE9C0E3F030
:104A300084EFA5F0E351020D0F0EF324F66EF70E8E
:104A4000F420F76EF86A000EF8220900F5CFD4F0D2
:104A50000A00F5CFD5F0E4C0D2F0E5C0D3F082EC87
:104A6000FBF0D2C0D9F0D3C0DAF0000E0001DC6F49
:104A70000A0EDB6F38ECFDF00001D951300FE96F01
:104A80007BEFA5F0E4C0D2F0E5C0D3F0E351020D16
:104A9000190EF324F66EF70EF420F76EF86A000E86
:104AA000F8220900F5CFD4F00A00F5CFD5F082EC5A
:104AB000FBF00001D2510F0BE06FA20EE025F66E65
:104AC000F76AFA0EF722F86A000EF8220800F5CF0E
:104AD000E9F07BEFA5F0E651C00B000AD8B41AEF5D
:104AE000A5F0800AD8B442EFA5F0400AD8B41AEF76
:104AF000A5F07BEFA5F000C1D9FF01C1DAFFE9C045
:104B0000DFFF0101004B012B0001E307E329D8A4DB
:104B10008CEFA5F08EEFA5F06BEFA5F002C1F6FFCC
:104B200003C1F7FF0101024B032B000EF86E0800D2
:104B3000F5CFE9F00001E951D8A4A1EFA5F0A3EF6A
:104B4000A5F033EFA3F000C1D9FF01C1DAFF000ED9
:104B5000DF6E1200020157515B5D58515C59D8A0BD
:104B6000B4EFA5F0B6EFA5F0D0EFA5F00C0E3F180E
:104B7000D8B4BDEFA5F0BFEFA5F0D0EFA5F00D0EB6
:104B80003F18D8B4C6EFA5F0C8EFA5F0D0EFA5F058
:104B90000B0E426E42C004F30301056B21EFA6F039
:104BA0005551595D56515A59D8A0D9EFA5F0DBEFB0
:104BB000A5F0F1EFA5F00B0E3F18D8B4E2EFA5F089
:104BC000E4EFA5F0F1EFA5F00D0E3F18D8B4EBEF30
:104BD000A5F0EDEFA5F0F1EFA5F00C0E426ECAEFD7
:104BE000A5F05351515D54515259D8A0FAEFA5F098
:104BF000FCEFA5F021EFA6F00C0E4218D8B403EF9D
:104C0000A6F005EFA6F01EEFA6F00B0E4218D8B4E2
:104C10000CEFA6F00EEFA6F01EEFA6F0060E426E09
:104C200042C004F30301056BE2C249F202014A6B80
:104C3000000E526F000E516F21EFA6F05107D8A061
:104C400052073F504218D8B428EFA6F02AEFA6F03A
:104C5000D5EFA7F0020E3418D8B431EFA6F033EF39
:104C6000A6F0D5EFA7F0000E0001606F000E616F97
:104C7000000E626F000E636F000E656F000E646FB2
:104C8000000ECFECDEF04204D8B449EFA6F04BEFB3
:104C9000A6F051EFA6F03FC0E1F244C036F045C0A7
:104CA00035F00D0E4218D8B458EFA6F05AEFA6F022
:104CB00063EFA6F00D0E3F18D8A461EFA6F063EFE6
:104CC000A6F06BEFA6F0000E1B6E530E1A6E42C0DC
:104CD0001CF078EC06F042C03FF0A9EC08F0D5EFEC
:104CE000A7F0000E02014A6F000E496F020E00018C
:104CF000606F040E616F44C062F045C063F049C24A
:104D000064F04AC265F0010ECFECDEF0346E0CEFB9
:104D1000A8F0030E0001606F030E616F000E626F5A
:104D2000000E636F49C264F04AC265F0010ECFEC19
:104D3000DEF0346E3428D8A4A0EFA6F0A2EFA6F0DF
:104D40000CEFA8F0010E426E42C004F30301056BA4
:104D500036C038F035C037F00CEFA8F0020E000175
:104D6000606F040E616F44C062F045C063F049C2D9
:104D700064F04AC265F0010ECFECDEF0346E3428E8
:104D8000D8A4C5EFA6F0C7EFA6F00CEFA8F0A2EFED
:104D9000A6F0030E0001606F040E616F44C062F064
:104DA00045C063F049C264F04AC265F0010ECFEC21
:104DB000DEF0346E3428D8A4E0EFA6F0E2EFA6F0DF
:104DC0000CEFA8F0A2EFA6F0040E0001606F040E35
:104DD000616F44C062F045C063F049C264F04AC2EA
:104DE00065F0010ECFECDEF0346E3428D8A4FBEF72
:104DF000A6F0FDEFA6F00CEFA8F0A2EFA6F0030ED0
:104E00000001606F030E616F44C062F045C063F043
:104E100049C264F04AC265F0010ECFECDEF0346E98
:104E20003428D8A416EFA7F018EFA7F00CEFA8F0DD
:104E3000A2EFA6F0020E0001606F030E616F44C086
:104E400062F045C063F049C264F04AC265F0010EE9
:104E5000CFECDEF0346E3428D8A431EFA7F033EF76
:104E6000A7F00CEFA8F0A2EFA6F03A0E216E000E0C
:104E7000226EAAC223F0F7ECAEF0FF0AD8A443EFEB
:104E8000A7F045EFA7F04FEFA7F0000E3A6E3A0EED
:104E9000216E000E226EAAC223F0F7ECAEF0390E9E
:104EA000216E000E226EA9C223F0CEECACF0FF0AF8
:104EB000D8A45DEFA7F05FEFA7F00CEFA8F0000E0D
:104EC000396E390E216E000E226EA9C223F0CEEC8F
:104ED000ACF00CEFA8F0010E0201C06FC00E206E06
:104EE000020E216ECFECCBF00001DB6FDB29D8A4E2
:104EF0007CEFA7F07EEFA7F08BEFA7F0E1C242F0C6
:104F000042C004F30301056B000E02015C6F000E4A
:104F10005B6FA8EFA6F00A0EDB6591EFA7F093EFA9
:104F2000A7F00CEFA8F0E1C242F042C004F3030185
:104F3000056B000E02015C6F000E5B6FA8EFA6F020
:104F4000010E0201C16FC10E206E020E216E9EEC99
:104F5000DAF00001DB6FDB29D8A4B1EFA7F0B3EFE3
:104F6000A7F00CEFA8F0E1C242F042C004F3030145
:104F7000056B000E02015A6F000E596F36C038F0F3
:104F800035C037F000F00CEFA8F0000E3A6E000EBE
:104F9000396E000E1A6E010EB7EC0CF0000E1A6E90
:104FA000020EB7EC0CF00CEFA8F03F50000AD8B49A
:104FB00089EFA6F0010AD8B471EFA6F0030AD8B4BD
:104FC0001AEFA7F0010AD8B40CEFA8F0070AD8B47A
:104FD000FFEFA6F0010AD8B4AEEFA6F0030AD8B4EA
:104FE000C9EFA6F0010AD8B4E4EFA6F00F0AD8B4CE
:104FF00035EFA7F0020AD8B40CEFA8F0010AD8B434
:105000006BEFA7F0070AD8B4A0EFA7F0010AD8B455
:10501000C5EFA7F00CEFA8F0120000018251800B41
:105020008B6F825182258D6F81AF19EFA8F01BEF36
:10503000A8F01CEFA8F08D818D51D8B422EFA8F014
:1050400024EFA8F039EFA8F08D29D8A42AEFA8F012
:105050002CEFA8F034EFA8F0000E7F6F000E806FE9
:10506000000E816F000E826F818F000E826F41EF04
:10507000A8F0000E7F6F000E806F000E816F000E93
:10508000826F8651800B8C6F8B518C19D8B44BEF8B
:10509000A8F04DEFA8F04EEFA8F08B8D8651862535
:1050A0008C6F85AF56EFA8F058EFA8F059EFA8F035
:1050B0008C818C51D8B45FEFA8F061EFA8F076EF47
:1050C000A8F08C29D8A467EFA8F069EFA8F071EFD9
:1050D000A8F0000E836F000E846F000E856F000E27
:1050E000866F858F000E866F7EEFA8F0000E836FAF
:1050F000000E846F000E856F000E866F8D518C5DE3
:10510000D8B085EFA8F087EFA8F0AEEFA8F08BAD90
:105110008CEFA8F08EEFA8F090EFA8F0800E8B1B1C
:105120008DC08EF08CC08DF08EC08CF07FC08EF064
:1051300083C07FF08EC083F080C08EF084C080F08A
:105140008EC084F081C08EF085C081F08EC085F065
:1051500082C08EF086C082F08EC086F0000E8E6F08
:105160008D518CC087F0886B875F000E885B88BF8D
:10517000C3EFA8F0885109E11A0E875DD8A0C3EFEC
:10518000A8F0C5EFA8F0FCEFA8F07F5180118111C5
:105190008211D8A4CEEFA8F0D1EFA8F0010ED2EF83
:1051A000A8F0000E8E6F000E7F6F000E806F000E55
:1051B000816F000E826F8CC08DF005EFA9F08EA17B
:1051C000E4EFA8F0E6EFA8F0ECEFA8F0D8908E316D
:1051D00001098E6FEEEFA8F0D8908E337FA1F3EF28
:1051E000A8F0F5EFA8F0F6EFA8F08E8F82358233A5
:1051F000813380337F338D2B8C518D5DD8A003EFAD
:10520000A9F005EFA9F0DFEFA8F08BBD0AEFA9F038
:105210000CEFA9F04CEFA9F08D51D8A412EFA9F032
:1052200014EFA9F01EEFA9F0000E7F6F000E806F43
:10523000000E816F000E826F6DEFAAF083517F2701
:1052400084518023855181238651822382A12BEFB3
:10525000A9F02DEFA9F0D9EFA9F08EA132EFA9F0B6
:1052600034EFA9F03AEFA9F0D8908E3101098E6F92
:105270003CEFA9F0D8908E337FA141EFA9F043EF26
:10528000A9F044EFA9F08E8F8235823381338033C9
:105290007F338D2BD9EFA9F083517F5D84518059E5
:1052A000855181598251800A876F8651800A8759BA
:1052B000D8B05DEFA9F05FEFA9F08AEFA9F07F51B8
:1052C000835D876F80518459886F81518559896FBB
:1052D000825186598A6FFF0E87257F6FFF0E8821C6
:1052E000806FFF0E8921816FFF0E8A21826F800EF1
:1052F0008B1B8E6D8E51D8A480EFA9F082EFA9F0A0
:1053000092EFA9F0010E7F27000E802381238223D4
:1053100092EFA9F083517F5F8451805B8551815B5F
:105320008651825B7F51801181118211D8A49BEF3D
:10533000A9F09DEFA9F0D2EFA9F08E51D8A4A3EF68
:10534000A9F0A5EFA9F0D2EFA9F0000E7F6F000E33
:10535000806F000E816F000E826F6DEFAAF0D89003
:105360007F378037813782378EAFB9EFA9F0BBEF37
:10537000A9F0BCEFA9F07F818EA1C1EFA9F0C3EF26
:10538000A9F0C7EFA9F0D8808E37C9EFA9F0D8905F
:105390008E378D51D8B4CFEFA9F0D1EFA9F0D2EF6D
:1053A000A9F08D0781AFD7EFA9F0D9EFA9F0AFEF42
:1053B000A9F0000E8C6F8EAFE0EFA9F0E2EFA9F03C
:1053C000FAEFA9F08EC087F07F0E8717D8B4EBEF05
:1053D000A9F0EDEFA9F0F1EFA9F0010E8C6FFAEF53
:1053E000A9F07FA1F6EFA9F0F8EFA9F0FAEFA9F084
:1053F000EDEFA9F08C51D8B400EFAAF002EFAAF0BB
:105400002DEFAAF0010E7F27000E80238123822337
:1054100082A10DEFAAF00FEFAAF02DEFAAF07FC046
:1054200087F080C088F081C089F082C08AF08A3518
:105430008A3389338833873387C07FF088C080F010
:1054400089C081F08AC082F08D29D8B42AEFAAF0F1
:105450002CEFAAF02DEFAAF08D2B8D29D8B433EFC5
:10546000AAF035EFAAF03DEFAAF08D51D8A43BEF9A
:10547000AAF03DEFAAF04FEFAAF0000E7F6F000EEA
:10548000806F000E816F000E826F8D51D8A44BEF9C
:10549000AAF04DEFAAF04FEFAAF0000E8B6F8DA18E
:1054A00054EFAAF056EFAAF059EFAAF0818F5AEF05
:1054B000AAF0819FD8908D31826F8BAF62EFAAF0F6
:1054C00064EFAAF065EFAAF0828F7FC07FF080C002
:1054D00080F081C081F082C082F01200226E3EEF27
:1054E000ACF000C338F0CDEFACF002C337F0CDEF35
:1054F000ACF0060E3F18D8B480EFAAF082EFAAF005
:1055000084EFAAF004C342F0040E4218D8B48BEF23
:10551000AAF08DEFAAF096EFAAF0020E4218D8A4D6
:1055200094EFAAF096EFAAF09BEFAAF0000E02010A
:105530004A6F000E496F060E4218D8A4A2EFAAF0D7
:10554000A4EFAAF0CDEFACF0E2C249F202014A6B3F
:10555000CDEFACF006C341F0000E1B6E040E1A6EC8
:1055600041C01CF078EC06F0CDEFACF008C355F26A
:1055700009C356F2000E1B6E230E1A6E56C21CF0A3
:1055800078EC06F0000E1B6E220E1A6E55C21CF04F
:1055900078EC06F0CDEFACF00AC357F20BC358F22B
:1055A000000E1B6E200E1A6E58C21CF078EC06F02E
:1055B000000E1B6E190E1A6E57C21CF078EC06F026
:1055C000CDEFACF02250020D000EF324D96E030E85
:1055D000F420DA6E22501E6E1F6AD8901E361F36D7
:1055E000D60E1E24E16E030E1F20E26EDECFE6FF14
:1055F000DDCFE5FF22501E6E1F6AD8901E361F3683
:10560000D60E1E24D96E030E1F20DA6EDECF20F0D8
:10561000DDCF21F01F0E22241A6E1B6A000E1B2202
:1056200021C01CF078EC06F01E0E22241A6E1B6AB4
:10563000000E1B2220C01CF078EC06F0CDEFACF081
:105640002250020D000EF324D96E030EF420DA6E00
:1056500022501E6E1F6AD8901E361F36BE0E1E24A4
:10566000E16E030E1F20E26EDECFE6FFDDCFE5FF29
:1056700022501E6E1F6AD8901E361F36BE0E1E2484
:10568000D96E030E1F20DA6EDECF20F0DDCF21F0C1
:10569000250E22241A6E1B6A000E1B2221C01CF04C
:1056A00078EC06F0240E22241A6E1B6A000E1B22D0
:1056B00020C01CF078EC06F0CDEFACF024C3DDF296
:1056C000000E1B6E3C0E1A6EDDC21CF078EC06F06C
:1056D000CDEFACF026C3E6F2000E1B6E3D0E1A6E47
:1056E000E6C21CF078EC06F0CDEFACF028C3E5F292
:1056F000000E1B6E3E0E1A6EE5C21CF078EC06F032
:10570000CDEFACF02AC3D6F22BC3D7F2000E1B6E3E
:105710003F0E1A6ED7C21CF078EC06F0000E1B6E1E
:10572000400E1A6ED6C21CF078EC06F0CDEFACF04D
:105730002CC3E4F2000E1B6E410E1A6EE4C21CF084
:1057400078EC06F0CDEFACF02EC3E3F2000E1B6E4A
:10575000420E1A6EE3C21CF078EC06F0CDEFACF00E
:1057600030C343F0000E1B6E210E1A6E43C01CF0B6
:1057700078EC06F0CDEFACF02250020D000EF324D1
:10578000D96E030EF420DA6E22501E6E1F6AD89076
:105790001E361F36920E1E24E16E020E1F20E26E90
:1057A000DECFE6FFDDCFE5FF22501E6E1F6AD890E8
:1057B0001E361F36920E1E24D96E020E1F20DA6E80
:1057C000DECF20F0DDCF21F0380E22241A6E1B6AC6
:1057D000000E1B2221C01CF078EC06F0370E2224AC
:1057E0001A6E1B6A000E1B2220C01CF078EC06F01B
:1057F000CDEFACF03EC3D4F23FC3D5F2000E1B6E2A
:10580000500E1A6ED5C21CF078EC06F0000E1B6E1E
:105810004F0E1A6ED4C21CF078EC06F0CDEFACF04F
:1058200044C353F245C354F2000E1B6E550E1A6E5C
:1058300054C21CF078EC06F0000E1B6E540E1A6E6B
:1058400053C21CF078EC06F0CDEFACF046C3E2F2A8
:10585000000E1B6E560E1A6EE2C21CF078EC06F0BB
:10586000CDEFACF048C3A4F2000E1B6E570E1A6EBB
:10587000A4C21CF078EC06F0CDEFACF02250000A88
:10588000D8B471EFAAF0010AD8B475EFAAF0030AF0
:10589000D8B479EFAAF0010AD8B4AAEFAAF0070A9F
:1058A000D8B4B6EFAAF0010AD8B4CCEFAAF0030A34
:1058B000D8B4E2EFAAF0010AD8B4E2EFAAF00F0AD6
:1058C000D8B4E2EFAAF0010AD8B4E2EFAAF0030AD2
:1058D000D8B4E2EFAAF0010AD8B4E2EFAAF0070ABE
:1058E000D8B420EFABF0010AD8B420EFABF0030A34
:1058F000D8B420EFABF0010AD8B420EFABF01F0A08
:10590000D8B420EFABF0010AD8B420EFABF0030A13
:10591000D8B45EEFABF0010AD8B46AEFABF0070A77
:10592000D8B476EFABF0010AD8B482EFABF0030A3B
:10593000D8B498EFABF0010AD8B4A4EFABF00F0ADB
:10594000D8B4B0EFABF0010AD8B4BCEFABF0030AA7
:10595000D8B4BCEFABF0010AD8B4BCEFABF0070A87
:10596000D8B4BCEFABF0010AD8B4BCEFABF0030A7B
:10597000D8B4BCEFABF0010AD8B4FAEFABF03D0AF3
:10598000D8B410EFACF0010AD8B426EFACF0070A97
:10599000D8B432EFACF0CDEFACF0120021C0D9FF9B
:1059A00022C0DAFFDF50D8A4D8EFACF0DAEFACF0C9
:1059B000D8EFAEF002016051D8B4E1EFACF0E3EF04
:1059C000ACF0D8EFAEF06029D8B4E9EFACF0EBEF73
:1059D000ACF0D8EFAEF0000E606F000E1A6E020E43
:1059E000B7EC0CF0D8EFAEF021C0D9FF22C0DAFF3F
:1059F000DE04D8A4FEEFACF000EFADF0F4EFAEF0B3
:105A00004550D8B406EFADF008EFADF015EFADF0AE
:105A1000000E376E000E1B6E140E1A6E010E1C6EF9
:105A20000D0E62ECFCF0F4EFAEF00D0E6BECFDF041
:105A30001A501B10D8B41FEFADF021EFADF02CEFD2
:105A4000ADF00D0EBCEC07F00009D8B42AEFADF0B4
:105A50002CEFADF030EFADF00201602BF4EFAEF0C3
:105A6000F4EFAEF0EB0E1A6E020E1B6E3D0E1C6EC6
:105A7000000E1D6E98ECFEF0236041EFADF043EF99
:105A8000ADF056EFADF0020E1A6E020EB7EC0CF050
:105A9000020E0201606F000E1B6EB40E1A6E010E34
:105AA0001C6E160E62ECFCF0F4EFAEF0010E1A6EF6
:105AB000020EB7EC0CF0000E1B6E230E1A6E010ED8
:105AC0001C6E140E62ECFCF0EB0E1A6E020E1B6ED6
:105AD0003D0E1C6E000E1D6E98ECFEF0E806D8A47C
:105AE00074EFADF076EFADF079EFADF0010E02019D
:105AF0005F6F030E0201606FF4EFAEF0EB0E1A6EF3
:105B0000020E1B6E3D0E1C6E000E1D6E98ECFEF01C
:105B10002318D8A48EEFADF090EFADF095EFADF077
:105B2000020E02016027F4EFAEF0160EBCEC07F097
:105B30000009D8B49EEFADF0A0EFADF0F4EFAEF0F9
:105B4000000E1A6E020EB7EC0CF021C0D9FF22C075
:105B5000DAFF000EDF6E000E0201606F3083020E6E
:105B6000F6EFAEF0EB0E1A6E020E1B6E3D0E1C6EC3
:105B7000000E1D6E98ECFEF0E806D8B4C2EFADF052
:105B8000C4EFADF0F2EFADF002015F05D8A4CBEFAA
:105B9000ADF0CDEFADF0D9EFADF0000E1B6EB40E51
:105BA0001A6E010E1C6E160E62ECFCF0000E020165
:105BB0005F6F160E0FEC0BF00009D8B4E2EFADF0FA
:105BC000E4EFADF0EDEFADF0000E1B6EB40E1A6E0B
:105BD000010E1C6E160E62ECFCF0140EFEEC0BF0C7
:105BE00010EFAEF0140EBCEC07F00009D8B4FBEFD8
:105BF000ADF0FDEFADF010EFAEF0020E1A6E020E3A
:105C0000B7EC0CF0020E0201606F000E1B6EB40EBA
:105C10001A6E010E1C6E160E62ECFCF0F4EFAEF084
:105C2000040E2318D8A417EFAEF019EFAEF058EF1A
:105C3000AEF0EB0E1A6E020E1B6E3D0E1C6E000EC9
:105C40001D6E98ECFEF0E806D8A429EFAEF02BEF1D
:105C5000AEF03BEFAEF002015F51D8A432EFAEF0F0
:105C600034EFAEF03BEFAEF0020E1A6E020EB7EC60
:105C70000CF02CEFADF0160EBCEC07F00009D8B418
:105C800044EFAEF046EFAEF0F4EFAEF0000E1A6E59
:105C9000020EB7EC0CF021C0D9FF22C0DAFF000ED3
:105CA000DF6E000E0201606F3083030EF6EFAEF080
:105CB000EB0E1A6E020E1B6E3D0E1C6E000E1D6E5C
:105CC00098ECFEF0246E256A2350266E276A010E9A
:105CD0002626000E27222450261807E125502718D3
:105CE000D8A475EFAEF077EFAEF07EEFAEF0020E17
:105CF0001A6E020EB7EC0CF02CEFADF0160EBCECE9
:105D000007F00009D8B487EFAEF089EFAEF0F4EFFA
:105D1000AEF0000E1A6E020EB7EC0CF04BEFAEF0C8
:105D2000EB0E1A6E020E1B6E3D0E1C6E000E1D6EEB
:105D300098ECFEF02318D8A4A0EFAEF0A2EFAEF0DE
:105D4000B1EFAEF0000E1A6E020EB7EC0CF00201CD
:105D50006069140EFEEC0BF0160EFEEC0BF0F4EF87
:105D6000AEF0160EBCEC07F00009D8B4BAEFAEF0F6
:105D7000BCEFAEF0F4EFAEF0000E1A6E020EB7EC10
:105D80000CF021C0D9FF22C0DAFF000EDF6E000E3A
:105D90000201606F3083040EF6EFAEF021C0D9FF30
:105DA00022C0DAFF000EDF6E000E606FF4EFAEF07F
:105DB00002016051000AD8B4F4EFACF0010AD8B483
:105DC00032EFADF0030AD8B47EEFADF0010AD8B4DB
:105DD000B2EFADF0070AD8B490EFAEF0FB0AD8B43A
:105DE000CEEFAEF0F4EFAEF002016051120021C030
:105DF000D9FF22C0DAFFDF50D8A401EFAFF003EFE4
:105E0000AFF001EFB1F002016251D8B40AEFAFF088
:105E10000CEFAFF001EFB1F06229D8B412EFAFF0A0
:105E200014EFAFF001EFB1F0000E626F000E1A6ECA
:105E3000010EB7EC0CF001EFB1F021C0D9FF22C088
:105E4000DAFFDE04D8A427EFAFF029EFAFF01DEFA3
:105E5000B1F04450D8B42FEFAFF031EFAFF03EEFD8
:105E6000AFF0000E386E000E1B6E140E1A6E010E8F
:105E70001C6E0D0E62ECFCF01DEFB1F00D0E6BEC24
:105E8000FDF01A501B10D8B448EFAFF04AEFAFF056
:105E900055EFAFF00D0EBCEC07F00009D8B453EF8E
:105EA000AFF055EFAFF059EFAFF00201622B1DEFED
:105EB000B1F01DEFB1F0EF0E1A6E020E1B6E3E0E2A
:105EC0001C6E000E1D6E98ECFEF023606AEFAFF0C2
:105ED0006CEFAFF07FEFAFF0020E1A6E010EB7EC71
:105EE0000CF0020E0201626F000E1B6EB40E1A6EF1
:105EF000010E1C6E150E62ECFCF01DEFB1F0010EF0
:105F00001A6E010EB7EC0CF0000E1B6E230E1A6E0B
:105F1000010E1C6E0F0E62ECFCF0EF0E1A6E020EFC
:105F20001B6E3E0E1C6E000E1D6E98ECFEF0E80619
:105F3000D8A49DEFAFF09FEFAFF0A2EFAFF0010E4E
:105F40000201616F030E0201626F1DEFB1F0EF0EEF
:105F50001A6E020E1B6E3E0E1C6E000E1D6E98EC2D
:105F6000FEF02318D8A4B7EFAFF0B9EFAFF0BEEF53
:105F7000AFF0020E020162271DEFB1F0150EBCEC6E
:105F800007F00009D8B4C7EFAFF0C9EFAFF01DEFCD
:105F9000B1F0000E1A6E010EB7EC0CF021C0D9FF63
:105FA00022C0DAFF000EDF6E000E0201626F308148
:105FB000020E1FEFB1F0EF0E1A6E020E1B6E3E0EB8
:105FC0001C6E000E1D6E98ECFEF0E806D8B4EBEFE8
:105FD000AFF0EDEFAFF01BEFB0F002016105D8A418
:105FE000F4EFAFF0F6EFAFF002EFB0F0000E1B6E83
:105FF000B40E1A6E010E1C6E150E62ECFCF0000E53
:106000000201616F150E0FEC0BF00009D8B40BEF15
:10601000B0F00DEFB0F016EFB0F0000E1B6EB40E46
:106020001A6E010E1C6E150E62ECFCF00F0EFEECEB
:106030000BF039EFB0F00F0EBCEC07F00009D8B44C
:1060400024EFB0F026EFB0F039EFB0F0020E1A6E88
:10605000010EB7EC0CF0020E0201626F000E1B6E17
:10606000B40E1A6E010E1C6E150E62ECFCF01DEFE4
:10607000B1F0040E2318D8A440EFB0F042EFB0F016
:1060800081EFB0F0EF0E1A6E020E1B6E3E0E1C6E0C
:10609000000E1D6E98ECFEF0E806D8A452EFB0F0AA
:1060A00054EFB0F064EFB0F002016151D8A45BEF9F
:1060B000B0F05DEFB0F064EFB0F0020E1A6E010EBA
:1060C000B7EC0CF055EFAFF0150EBCEC07F0000983
:1060D000D8B46DEFB0F06FEFB0F01DEFB1F0000E7F
:1060E0001A6E010EB7EC0CF021C0D9FF22C0DAFF06
:1060F000000EDF6E000E0201626F3081030E1FEF93
:10610000B1F0EF0E1A6E020E1B6E3E0E1C6E000EEC
:106110001D6E98ECFEF0246E256A2350266E276AC9
:10612000010E2626000E27222450261807E12550AE
:106130002718D8A49EEFB0F0A0EFB0F0A7EFB0F012
:10614000020E1A6E010EB7EC0CF055EFAFF0150E03
:10615000BCEC07F00009D8B4B0EFB0F0B2EFB0F08B
:106160001DEFB1F0000E1A6E010EB7EC0CF074EFDB
:10617000B0F0EF0E1A6E020E1B6E3E0E1C6E000E7D
:106180001D6E98ECFEF02318D8A4C9EFB0F0CBEF49
:10619000B0F0DAEFB0F0000E1A6E010EB7EC0CF0B2
:1061A000020162690F0EFEEC0BF0150EFEEC0BF017
:1061B0001DEFB1F0150EBCEC07F00009D8B4E3EF09
:1061C000B0F0E5EFB0F01DEFB1F0000E1A6E010E69
:1061D000B7EC0CF021C0D9FF22C0DAFF000EDF6E51
:1061E000000E0201626F3081040E1FEFB1F021C07A
:1061F000D9FF22C0DAFF000EDF6E000E626F1DEFC6
:10620000B1F002016251000AD8B41DEFAFF0010AEB
:10621000D8B45BEFAFF0030AD8B4A7EFAFF0010A30
:10622000D8B4DBEFAFF0070AD8B4B9EFB0F0FB0A8F
:10623000D8B4F7EFB0F01DEFB1F0020162511200D7
:10624000000E0101006F000E016F000E026F000EC4
:10625000036F240E046F240E056F1D0E066F400E93
:10626000076F0201A751D8A438EFB1F03AEFB1F0AF
:106270003CEFB1F0630EA76FA7C208F1000E010159
:10628000286F89B446EFB1F04BEFB1F00001D96B44
:10629000D92B4DEFB1F00001D96BD95189B653EF2D
:1062A000B1F057EFB1F0DA6BDA2B59EFB1F0000132
:1062B000DA6BDAC0DBF0DC6BDB27000EDC23DB51B2
:1062C000DC11D8B466EFB1F068EFB1F06AEFB1F06D
:1062D0000101288F89B06FEFB1F074EFB1F00001C8
:1062E000D96BD92B76EFB1F00001D96BD95189B2B6
:1062F0007CEFB1F080EFB1F0DA6BDA2B82EFB1F026
:106300000001DA6BDAC0DBF0DC6BDB27000EDC238C
:10631000DB51DC11D8B48FEFB1F091EFB1F093EF16
:10632000B1F00101288D8AB898EFB1F09DEFB1F07E
:106330000001D96BD92B9FEFB1F00001D96BD95176
:106340008ABAA5EFB1F0A9EFB1F0DA6BDA2BABEFB7
:10635000B1F00001DA6BDAC0DBF0DC6BDB27000E9A
:10636000DC23DB51DC11D8B4B8EFB1F0BAEFB1F0F7
:10637000BCEFB1F00101288B8AB4C1EFB1F0C6EFD8
:10638000B1F00001D96BD92BC8EFB1F00001D96B86
:10639000D9518AB6CEEFB1F0D2EFB1F0DA6BDA2B89
:1063A000D4EFB1F00001DA6BDAC0DBF0DC6BDB2795
:1063B000000EDC23DB51DC11D8B4E1EFB1F0E3EFE8
:1063C000B1F0E5EFB1F0010128898AB0EAEFB1F050
:1063D000EFEFB1F00001D96BD92BF1EFB1F0000173
:1063E000D96BD9518AB2F7EFB1F0FBEFB1F0DA6BAC
:1063F000DA2BFDEFB1F00001DA6BDAC0DBF0DC6B19
:10640000DB27000EDC23DB51DC11D8B40AEFB2F03D
:106410000CEFB2F00EEFB2F0010128878BB013EF52
:10642000B2F018EFB2F00001D96BD92B1AEFB2F02D
:106430000001D96BD9518BB220EFB2F024EFB2F04A
:10644000DA6BDA2B26EFB2F00001DA6BDAC0DBF0A0
:10645000DC6BDB27000EDC23DB51DC11D8B433EF1F
:10646000B2F035EFB2F037EFB2F0010128858DA818
:106470003CEFB2F03EEFB2F040EFB2F00101288302
:1064800090A045EFB2F047EFB2F049EFB2F0010152
:10649000288128C109F10A0E01010A6F0F0E0201BD
:1064A000571909E1270E5819D8B459EFB2F05BEF2C
:1064B000B2F070EFB2F05B51575D0001D26F020194
:1064C0005C5158590001D36F000ED56F0A0ED46F7E
:1064D00082ECFBF00001D25101010B6F7FEFB2F0B3
:1064E00057C2D2F058C2D3F0000E0001D56F0A0E89
:1064F000D46F82ECFBF00001D25101010B6F8ECF03
:106500000CF150C228F12841E842C00BC00B0D6FBE
:106510004FC228F1D8902833D89028333F0E28173F
:1065200028510D274FC228F1283B28372837C00EA5
:106530002817C00E281728C10EF14EC228F1283B9B
:10654000F00E2817300E281728510E274DC228F1BB
:10655000283B0F0E28170F0E281728510E274DC263
:1065600028F1283BF00E2817F00E281728C10FF14C
:1065700047C2BEF048C2BFF07DECD5F0BEC026F1E8
:10658000BFC027F127C128F10101D8902837D89042
:1065900028370C0E281728510F2726C128F1283B31
:1065A00028332833030E2817030E281728510F27E6
:1065B00026C128F1D8902837D8902837FC0E281704
:1065C00028C110F145C2BEF046C2BFF07DECD5F047
:1065D000BEC026F1BFC027F127C128F1030E01017B
:1065E00028172851102741C011F126C112F1BBC252
:1065F00013F14BC214F14CC215F1B8C216F1B9C275
:1066000017F1B6C218F1B7C219F1B4C228F128C106
:106610001AF1B2C228F128C11BF144C01CF145C0D7
:106620001DF12DC01EF13FC01FF1000E256F000EA1
:10663000286F28510001D96FDA6B040ED927000E9C
:10664000DA23040ED925D96E010EDA21DA6EDF5075
:106650000101251B282B170E286531EFB3F033EF0E
:10666000B3F019EFB3F025C120F10D0E216F0A0E22
:10667000226F040E1B6E010E1C6E1F0E1D6E76EC3B
:1066800007F0120000019251800B9B6F92519225EE
:10669000A16F91AF4EEFB3F050EFB3F051EFB3F005
:1066A000A181A151D8B457EFB3F059EFB3F06CEF1B
:1066B000B3F0A129D8A45FEFB3F061EFB3F069EFB5
:1066C000B3F0000E8F6F000E906F000E916F000EF2
:1066D000926F918F74EFB3F0000E8F6F000E906F7A
:1066E000000E916F000E926F9651800B9B1B96517E
:1066F00096259C6F95AF7FEFB3F081EFB3F082EFFB
:10670000B3F09C819C51D8B488EFB3F08AEFB3F01A
:106710009DEFB3F09C29D8A490EFB3F092EFB3F0C3
:106720009AEFB3F0000E936F000E946F000E956F0A
:10673000000E966F958FA5EFB3F0000E936F000ECD
:10674000946F000E956F000E966F9C51D8B4ABEF0E
:10675000B3F0ADEFB3F0B5EFB3F0A151D8A4B3EF00
:10676000B3F0B5EFB3F0BFEFB3F0000E8F6F000ED4
:10677000906F000E916F000E926F57EFB5F095512C
:106780008F03F3CFA6F0F4CFA7F0A6519D6F9E6BB9
:106790009F6BA06BA751A26FA36BA46BA56B9451C9
:1067A0009003F3CFA6F0F4CFA7F0A6519D27000EDB
:1067B0009E239F23A023A751A227000EA323A42337
:1067C000A52393519103F3CFA6F0F4CFA7F0A651E0
:1067D0009D27000E9E239F23A023A751A227000ED2
:1067E000A323A423A5239FC0A0F09EC09FF09DC01B
:1067F0009EF09D6B93519003F3CFA6F0F4CFA7F0DA
:10680000A6519D27A7519E23000E9F23000EA02373
:1068100094518F03F3CFA6F0F4CFA7F0A6519D2794
:10682000A7519E23000E9F23000EA0239FC0A0F01F
:106830009EC09FF09DC09EF09D6B93518F03F3CF40
:10684000A6F0F4CFA7F0A6519D27A7519E23000ED6
:106850009F23000EA02395519003F3CFA6F0F4CF11
:10686000A7F0A651A227A751A323000EA423000E30
:10687000A52394519103F3CFA6F0F4CFA7F0A6512E
:10688000A227A751A323000EA423000EA5239551F0
:106890009103F3CFA6F0F4CFA7F0A651976FA751BD
:1068A000986F996B9A6B99C09AF098C099F097C0BD
:1068B00098F0976B9751A2279851A3239951A4233D
:1068C0009A51A5239DC097F09EC098F09FC099F063
:1068D000A0C09AF0190E72EFB4F0D8909A339933A1
:1068E00098339733E82E6DEFB4F09751A227985163
:1068F000A3239951A4239A51A5239FC0A0F09EC021
:106900009FF09DC09EF09D6B9C51A1C097F0986B2D
:106910009727000E9823820E9725A66FFF0E9821C9
:10692000A76FA8EFB4F0D890A237A337A437A53744
:10693000A0AF9DEFB4F09FEFB4F0A0EFB4F0A28150
:10694000D8909D379E379F37A037A607D8A0A707B6
:10695000A4AFADEFB4F0AFEFB4F093EFB4F0000E2E
:106960009C6FA0AFB6EFB4F0B8EFB4F0DCEFB4F0CA
:10697000FF0E9D15976FFF0E9E15986FFF0E9F15CA
:10698000996F7F0EA0159A6F9751981199119A11CE
:10699000D8B4CDEFB4F0CFEFB4F0D3EFB4F0010E34
:1069A0009C6FDCEFB4F0A2A1D8EFB4F0DAEFB4F052
:1069B000DCEFB4F0CFEFB4F09C51D8B4E2EFB4F018
:1069C000E4EFB4F008EFB5F0010EA227000EA32308
:1069D000A423A523A5A1EFEFB4F0F1EFB4F008EFE5
:1069E000B5F0A2C097F0A3C098F0A4C099F0A5C0DC
:1069F0009AF09A359A3399339833973397C0A2F027
:106A000098C0A3F099C0A4F09AC0A5F0A64BA72BFC
:106A1000A7BF13EFB5F0A75108E1A629D8A013EF3F
:106A2000B5F015EFB5F01FEFB5F0000EA26F000E38
:106A3000A36F800EA46F7F0EA56F4DEFB5F0A7BFBB
:106A40002CEFB5F0A75106E1A605D8B02AEFB5F0B6
:106A50002CEFB5F038EFB5F0000EA26F000EA36F6B
:106A6000000EA46F000EA56F000E9B6F4DEFB5F0EA
:106A7000A6C0A1F0FF0EA217FF0EA3177F0EA4174A
:106A8000000EA517A1A147EFB5F049EFB5F04AEF09
:106A9000B5F0A48FD890A131A56F9B51A513A2C0CA
:106AA0008FF0A3C090F0A4C091F0A5C092F01200A6
:106AB00001011B6F000E01010F6F000E106F000E21
:106AC000116F000E126F000E1C6F000E1D6F000E76
:106AD0001E6F000E1F6F000E066F000E076F000E78
:106AE000086F000E096F000E0A6F000E0B6F000E8C
:106AF0000C6F000E0D6F45C2D9F046C2DAF050ECB3
:106B0000E0F0D9C004F1DAC005F104C124F005C1F8
:106B100025F0266A276A000E7CECDBF024C066F0C4
:106B200025C067F026C068F027C069F0000E00019C
:106B30006A6F000E6B6FC80E6C6F420E6D6FD6ECF5
:106B4000C0F066C01CF167C01DF168C01EF169C0CD
:106B50001FF1D4C224F0D5C225F0266A276A000EA0
:106B60007CECDBF024C066F025C067F026C068F03E
:106B700027C069F0000E00016A6F000E6B6FC80E2F
:106B80006C6F420E6D6FD6ECC0F066C00FF167C03F
:106B900010F168C011F169C012F102018751D8B437
:106BA000D4EFB5F0D6EFB5F09EEFB6F03DC224F0CD
:106BB0003EC225F0266A276A000E7CECDBF024C07A
:106BC00066F025C067F026C068F027C069F0000EA7
:106BD00000016A6F000E6B6FC80E6C6F420E6D6F16
:106BE000D6ECC0F066C006F167C007F168C008F1D6
:106BF00069C009F102018751020DEE0EF324D96E2E
:106C0000030EF420DA6EDECFEEF0DDCFEFF0EEC053
:106C100024F0EFC025F0266A276A000E7CECDBF03A
:106C200024C066F025C067F026C068F027C069F070
:106C3000000E00016A6F000E6B6FC80E6C6F420E83
:106C40006D6FD6ECC0F066C00AF167C00BF168C08A
:106C50000CF169C00DF10FC193F010C194F011C196
:106C600095F012C196F001011B51246E256A266A27
:106C7000276A000E7CECDBF024C08FF025C090F07A
:106C800026C091F027C092F042ECB3F08FC013F110
:106C900090C014F191C015F192C016F11CC193F08F
:106CA0001DC194F01EC195F01FC196F013C18FF065
:106CB00014C190F015C191F016C192F042ECB3F0FE
:106CC0008FC017F190C018F191C019F192C01AF15C
:106CD00006C193F007C194F008C195F009C196F080
:106CE00017C18FF018C190F019C191F01AC192F03C
:106CF00042ECB3F08FC000F190C001F191C002F1FD
:106D000092C003F100C18FF001C190F002C191F077
:106D100003C192F00AC193F00BC194F00CC195F03D
:106D20000DC196F042ECB3F08FC01CF190C01DF184
:106D300091C01EF192C01FF131EFB7F00FC193F077
:106D400010C194F011C195F012C196F001011B51D0
:106D5000246E256A266A276A000E7CECDBF024C0CC
:106D60008FF025C090F026C091F027C092F042EC41
:106D7000B3F08FC013F190C014F191C015F192C01F
:106D800016F11CC193F01DC194F01EC195F01FC1F6
:106D900096F013C18FF014C190F015C191F016C197
:106DA00092F042ECB3F08FC017F190C018F191C08F
:106DB00019F192C01AF117C18FF018C190F019C1E2
:106DC00091F01AC192F00201DD51246E256A266A03
:106DD000276A000E7CECDBF024C093F025C094F011
:106DE00026C095F027C096F042ECB3F08FC01CF19E
:106DF00090C01DF191C01EF192C01FF11CC11AF08C
:106E00001DC11BF01EC11CF01FC11DF0000E1E6E27
:106E1000000E1F6E200E206E410E216EC4ECEDF0B0
:106E2000D8B015EFB7F017EFB7F031EFB7F00201B8
:106E3000DD51D8B41EEFB7F020EFB7F031EFB7F067
:106E400001011B51D8B427EFB7F029EFB7F031EFAC
:106E5000B7F0000E1C6F000E1D6F200E1E6F410E4E
:106E60001F6F000E1A6E000E1B6EC80E1C6E420EB7
:106E70001D6E1CC11EF01DC11FF01EC120F01FC1E0
:106E800021F0C4ECEDF0D8B048EFB7F04AEFB7F01E
:106E900053EFB7F0000E01011C6F000E1D6FC80EFE
:106EA0001E6F420E1F6F1CC11AF01DC11BF01EC1C8
:106EB0001CF01FC11DF041ECEDF01A5001010E6FE6
:106EC0000E511200000E0101BC6F000EBB6F000ED0
:106ED000BE6F000EBD6F000EAD6F000EAE6F000EE8
:106EE000AF6F000EB06F000EB36F000EB46F000EE8
:106EF000B56F000EB66F000EB76F000EB86F000EC4
:106F0000B96F000EBA6F000EBE6F000EBD6F070E98
:106F10001B6ED00E1A6E000E1C6E040E62ECFCF09E
:106F2000F20E0101BD5D030EBE59D8B09AEFB7F065
:106F30009CEFB7F0A0EFB7F0800EB16FC7EFB7F0DE
:106F4000080EB16FC7EFB7F0040068EC0CF0000951
:106F5000D8B4ADEFB7F0AFEFB7F0C7EFB7F028ECAC
:106F6000FFF00001EA6F2C0E0101BB25D96E010E66
:106F7000BC21DA6EEAC0DFFFBB4BBC2B070E1B6ED9
:106F8000D00E1A6E000E1C6E040E62ECFCF00101B5
:106F9000B151BB5D000EBC59D8B0D1EFB7F0D3EF03
:106FA000B7F0DEEFB7F0040EBCEC07F00009D8B480
:106FB000DCEFB7F0DEEFB7F0A4EFB7F0040E0FECA4
:106FC0000BF00009D8B4E7EFB7F0E9EFB7F0FFEF47
:106FD000B7F0720E0101006F030E016FEE0E026F2B
:106FE000FB0E036F2CECA3F0720E1D6E030E1E6ED3
:106FF00039ECF9F0000E0201946F52EFB8F0040E74
:10700000FEEC0BF0000E0101BC6F000EBB6F7CB4F8
:107010000CEFB8F00FEFB8F0010E10EFB8F0000E63
:10702000FF0A0001EA6FEA47EA477C50EA19FB0BC6
:10703000EA197C6EF20E0101BD5D030EBE59D8B097
:1070400024EFB8F026EFB8F044EFB8F0ADC11DF072
:10705000AEC11EF0AFC11FF0B0C120F02C0E216EEA
:10706000010E226E800E236E000E246E000E256E21
:10707000000E266EF2ECF8F01DC0ADF11EC0AEF1B0
:107080001FC0AFF120C0B0F10101BD4BBE2BF30E0C
:10709000BD5D030EBE59D8A050EFB8F052EFB8F066
:1070A00087EFB7F07C94720E0101006F030E016F41
:1070B000BD0E026FFD0E036FBDC104F1BEC105F12F
:1070C0002CECA3F0720E1D6E030E1E6E39ECF9F05F
:1070D000010E1D6EF90E1E6E010E1F6E000E206E4B
:1070E0002C0E216E010E226E040E236E000E246EF5
:1070F000000E256E000E266EF2ECF8F0050E1D6EE9
:10710000F90E1E6E010E1F6E000E206E300E216EE7
:10711000010E226E040E236E000E246E000E256EEC
:10712000000E266EF2ECF8F0010E1B6EF90E1C6ECE
:10713000010E1D6E000E1E6E040E1F6E000E206EE0
:10714000000E216E000E226EB30E236E010E246E11
:10715000BDECFBF0050E1B6EF90E1C6E010E1D6ED4
:10716000000E1E6E040E1F6E000E206E000E216EAD
:10717000000E226EB70E236E010E246EBDECFBF0E6
:107180000400B3C120F0B4C121F0B5C122F0B6C1F2
:1071900023F0B7C124F0B8C125F0B9C126F0BAC1B7
:1071A00027F0B1ECEBF00009D8B4D9EFB8F0DBEF81
:1071B000B8F024EFB9F0720E0101006F030E016FF9
:1071C000480E026FFD0E036F2CECA3F0720E1D6EC5
:1071D000030E1E6E39ECF9F00400190E0001EB6F7E
:1071E0005A0EEA6FB10EE82EFED7EA2FFCD7EB2F2E
:1071F000FAD700D0010E0101B26F000E1D6EF90E1C
:107200001E6E010E1F6E000E206EB20E216E010E5C
:10721000226E010E236E000E246E000E256E000EEF
:10722000266EF2ECF8F00400190E0001EB6F5A0E16
:10723000EA6FB10EE82EFED7EA2FFCD7EB2FFAD774
:1072400000D0FF004AEFB9F0000E0201946F720EF9
:107250000101006F030E016FA30E026FFD0E036F9D
:107260002CECA3F0720E1D6E030E1E6E39ECF9F0BD
:107270000400C1EC0CF00400190E0001EB6F5A0E73
:10728000EA6FB10EE82EFED7EA2FFCD7EB2FFAD724
:1072900000D0FF001200056E055002013B253B6F38
:1072A000000E3C213C6F05503927000E3A23000E9A
:1072B000066E000E0624D96EDA6A070EDA22DF5057
:1072C000D8A465EFB9F067EFB9F0BCEFB9F006509C
:1072D000020D000EF324D96E040EF420DA6E055070
:1072E000036E046A010E0326000E0422DE50035CC6
:1072F000DE500458D8B07FEFB9F081EFB9F09FEFBE
:10730000B9F00650020D000EF324D96E040EF420DD
:10731000DA6EDECF01F0DDCF02F00550015E000E27
:10732000025A0650020D000EF324D96E040EF4200A
:10733000DA6E01C0DEFF02C0DDFFBCEFB9F006501F
:10734000020D000EF324D96E040EF420DA6EDE5026
:10735000DE10D8B4AEEFB9F0B0EFB9F0BCEFB9F0D1
:107360000650020D000EF324D96E040EF420DA6EDE
:10737000010EDE6E000EDD6E062A220E0664C3EFDD
:10738000B9F0C5EFB9F059EFB9F0E80E02013B5D75
:10739000030E3C59D8A0CFEFB9F0D1EFB9F031EFDF
:1073A000BBF0180E3B253B6FFC0E3C213C6F712B54
:1073B000000E076E000E0724D96EDA6A070EDA2275
:1073C000DE04D8A4E6EFB9F0E8EFB9F039EFBAF08F
:1073D0000750020D000EF324D96E040EF420DA6E6D
:1073E000010EDB5009E1020EDE5CD8A0FAEFB9F025
:1073F000FCEFB9F01CEFBAF00750020D000EF324B9
:10740000D96E040EF420DA6EDECF01F0DDCF02F08B
:10741000FF0E0124036EFF0E0220046E0750020DC2
:10742000000EF324D96E040EF420DA6E03C0DEFFE2
:1074300004C0DDFF39EFBAF00750020D000EF3244F
:10744000D96E040EF420DA6EDE50DE10D8B42BEFC5
:10745000BAF02DEFBAF039EFBAF00750020D000E76
:10746000F324D96E040EF420DA6E010EDE6E000EE7
:10747000DD6E072A220E076440EFBAF042EFBAF041
:10748000DAEFB9F03B0E0201716549EFBAF04BEF4C
:10749000BAF031EFBBF07151C40F716F702B000E59
:1074A000086E000E0824D96EDA6A070EDA22020E80
:1074B000DE18D8A45EEFBAF060EFBAF0B1EFBAF020
:1074C0000850020D000EF324D96E040EF420DA6E7B
:1074D000010EDB5009E1020EDE5CD8A072EFBAF0BB
:1074E00074EFBAF094EFBAF00850020D000EF324D6
:1074F000D96E040EF420DA6EDECF01F0DDCF02F09B
:10750000FF0E0124036EFF0E0220046E0850020DD0
:10751000000EF324D96E040EF420DA6E03C0DEFFF1
:1075200004C0DDFFB1EFBAF00850020D000EF324E5
:10753000D96E040EF420DA6EDE50DE10D8B4A3EF5C
:10754000BAF0A5EFBAF0B1EFBAF00850020D000E94
:10755000F324D96E040EF420DA6E010EDE6E000EF6
:10756000DD6E082A220E0864B8EFBAF0BAEFBAF05E
:1075700051EFBAF03B0E02017065C1EFBAF0C3EFF4
:10758000BAF031EFBBF07051C40F706F000E096E8E
:10759000000E0924D96EDA6A070EDA22030EDE180D
:1075A000D8A4D5EFBAF0D7EFBAF028EFBBF0095066
:1075B000020D000EF324D96E040EF420DA6E010ED3
:1075C000DB5009E1020EDE5CD8A0E9EFBAF0EBEF88
:1075D000BAF00BEFBBF00950020D000EF324D96E88
:1075E000040EF420DA6EDECF01F0DDCF02F0FF0EE4
:1075F0000124036EFF0E0220046E0950020D000EDE
:10760000F324D96E040EF420DA6E03C0DEFF04C04A
:10761000DDFF28EFBBF00950020D000EF324D96EF8
:10762000040EF420DA6EDE50DE10D8B41AEFBBF090
:107630001CEFBBF028EFBBF00950020D000EF32445
:10764000D96E040EF420DA6E010EDE6E000EDD6ED1
:10765000092A220E09642FEFBBF031EFBBF0C8EF0F
:10766000BAF0120068C0B8F069C0B9F000016D0549
:10767000D8B03DEFBBF03FEFBBF016EFBDF0000E12
:10768000B66F010EB76F6C51B625D96E6D51B7212B
:10769000DA6E000EDF6E000EBF6F000EBE6F000EC2
:1076A000776F000E766FFF0E6A25786FFF0E6B21E5
:1076B000796F760E716F000E726FD890BE35D96EED
:1076C000BF35DA6ED890D936DA367151D926725173
:1076D000DA22DECFBAF0DDCFBBF0BEC071F0BFC0A2
:1076E00072F0D89071377237D89071377237020EB6
:1076F0007127000E7223760E7125D96E000E72214D
:10770000DA6EDECFBCF0DDCFBDF0BE07D8A0BF077C
:10771000BAC0C0F0BBC0C1F0BCC0C2F0BDC0C3F0B5
:10772000B6C060F0B7C061F0000E1D6E020E1C6E98
:10773000C251C0251A6EC351C1211B6EF8ECF2F084
:107740001AC022F01BC023F06CC024F06DC025F0DD
:1077500073EC0BF022500001B825626F2350B92161
:10776000636F6CC064F06DC065F0B3EC05F0BCEF06
:10777000BBF00001C04BC12BC0C022F0C1C023F040
:107780006CC024F06DC025F073EC0BF022500001AA
:10779000B825286E2350B921296EB6C02AF0B7C08B
:1077A0002BF002D8DEEFBBF00500FA6E6E51FD6ED5
:1077B0006F51FE6E7051FF6EFA50120029BEE3EF5A
:1077C000BBF0E5EFBBF0B9EFBBF0EBEFBBF00001B6
:1077D000C207D8A0C307B6C028F0B7C029F0C2C0FE
:1077E00022F0C3C023F06CC024F06DC025F073EC10
:1077F0000BF022500001B8252A6E2350B9212B6EC0
:1078000002D80DEFBCF00500FA6E6E51FD6E6F519F
:10781000FE6E7051FF6EFA50120029BE12EFBCF0DE
:1078200014EFBCF0E7EFBBF00001C051C25DC351E3
:10783000800A716FC151800A7159D8A022EFBCF043
:1078400024EFBCF052EFBCF06CC060F06DC061F092
:10785000C0C022F0C1C023F06CC024F06DC025F080
:1078600073EC0BF022500001B825626F2350B92150
:10787000636FC2C022F0C3C023F06CC024F06DC09F
:1078800025F073EC0BF022500001B825646F2350F3
:10789000B921656F33EC05F00001C04BC12BC20765
:1078A000D8A0C307C051C25DC351800A716FC151D6
:1078B000800A7159D8B05FEFBCF061EFBCF0BCEF4B
:1078C000BBF0C051BC5D716FC151BD59726FBA51EF
:1078D000C25D736FBB51C359746F7151735D745145
:1078E000800A756F7251800A7559D8B07AEFBCF072
:1078F0007CEFBCF0BFEFBCF0BC51C05DC151800A51
:10790000716FBD51800A7159D8B089EFBCF08BEF0F
:10791000BCF0B9EFBCF0BE4BBF2B760E716F000E02
:10792000726FD890BE35D96EBF35DA6ED890D93621
:10793000DA367151D9267251DA22C0C0DEFFC1C0D9
:10794000DDFFBEC071F0BFC072F0D89071377237E2
:10795000D89071377237020E7127000E7223760E9F
:107960007125D96E000E7221DA6EBCC0DEFFBDC07B
:10797000DDFFC2C0BCF0C3C0BDF000EFBDF0C2511E
:10798000BA5DBB51800A716FC351800A7159D8B07A
:10799000CCEFBCF0CEEFBCF0FCEFBCF0BE4BBF2B8D
:1079A000760E716F000E726FD890BE35D96EBF35EE
:1079B000DA6ED890D936DA367151D9267251DA2278
:1079C000BAC0DEFFBBC0DDFFBEC071F0BFC072F049
:1079D000D89071377237D89071377237020E71278D
:1079E000000E7223760E7125D96E000E7221DA6EAA
:1079F000C2C0DEFFC3C0DDFFC0C0BAF0C1C0BBF073
:107A0000BC51BA5DBB51800A716FBD51800A71597A
:107A1000D8A00DEFBDF00FEFBDF088EFBBF0BFBFFA
:107A200016EFBDF014EFBDF059EFBBF0120038C0F7
:107A3000F0F037C0F1F00C0E3F18D8B422EFBDF0D3
:107A400024EFBDF056EFBDF00B0E3F18D8B42BEF6E
:107A5000BDF02DEFBDF056EFBDF00A0E3F18D8B4C3
:107A600034EFBDF036EFBDF043EFBDF00D0E3F1823
:107A7000D8B43DEFBDF03FEFBDF043EFBDF038505F
:107A800058ECB5F0386E060E3F18D8A44AEFBDF09A
:107A90004CEFBDF056EFBDF01E0E386052EFBDF05A
:107AA00054EFBDF056EFBDF01E0E386E385044183E
:107AB000D8B45DEFBDF05FEFBDF067EFBDF03A50B9
:107AC000D8B465EFBDF067EFBDF078EFBDF038508A
:107AD0004418D8B46EEFBDF070EFBDF010EFBEF0FB
:107AE0003850D8A476EFBDF078EFBDF010EFBEF0BF
:107AF00038500001F46FF56BF66BF76B0201A705C8
:107B0000D8A485EFBDF087EFBDF0C5EFBDF0F4C0A0
:107B10001AF0F5C01BF0F6C01CF0F7C01DF0FF0E08
:107B20001E6E0F0E1F6E000E206E000E216ECEEC2C
:107B3000FCF01AC060F01BC061F01CC062F01DC0F8
:107B400063F0640E0001646F000E656F000E666FD7
:107B5000000E676FE3ECF6F060C0F4F061C0F5F082
:107B600062C0F6F063C0F7F0F4C029F0F5C02AF067
:107B7000010E2B6ED4EC0CF0010EB0EC04F025C01D
:107B8000F2F026C0F3F001EFBEF0F4C01AF0F5C039
:107B90001BF0F6C01CF0F7C01DF0FF0E1E6E030EAA
:107BA0001F6E000E206E000E216ECEECFCF01AC08F
:107BB00060F01BC061F01CC062F01DC063F0640E79
:107BC0000001646F000E656F000E666F000E676F38
:107BD000E3ECF6F060C0F4F061C0F5F062C0F6F0DE
:107BE00063C0F7F0F4C029F0F5C02AF0010E2B6E47
:107BF000B0EC09F0010EE7EC06F025C0F2F026C06B
:107C0000F3F00001F451F21907E1F551F319D8A48A
:107C10000CEFBEF00EEFBEF010EFBEF038C044F037
:107C20000C0E3F18D8B417EFBEF019EFBEF038EFC6
:107C3000BEF00B0E3F18D8B420EFBEF022EFBEF01E
:107C400038EFBEF00A0E3F18D8B429EFBEF02BEF84
:107C5000BEF038EFBEF00D0E3F18D8B432EFBEF0D4
:107C600034EFBEF038EFBEF03750DDECD0F0376EB9
:107C700037504518D8B43FEFBEF041EFBEF049EFA2
:107C8000BEF03950D8B447EFBEF049EFBEF05AEF1E
:107C9000BEF037504518D8B450EFBEF052EFBEF0EA
:107CA000F2EFBEF03750D8A458EFBEF05AEFBEF056
:107CB000F2EFBEF037500001F46FF56BF66BF76B27
:107CC0000201A705D8A467EFBEF069EFBEF0A7EFE9
:107CD000BEF0F4C01AF0F5C01BF0F6C01CF0F7C0FF
:107CE0001DF0FF0E1E6E0F0E1F6E000E206E000E9A
:107CF000216ECEECFCF01AC060F01BC061F01CC01D
:107D000062F01DC063F0640E0001646F000E656FC9
:107D1000000E666F000E676FE3ECF6F060C0F4F0E3
:107D200061C0F5F062C0F6F063C0F7F0F4C029F06E
:107D3000F5C02AF0020E2B6ED4EC0CF0020EB0EC63
:107D400004F025C0F2F026C0F3F0E3EFBEF0F4C07B
:107D50001AF0F5C01BF0F6C01CF0F7C01DF0FF0EC6
:107D60001E6E030E1F6E000E206E000E216ECEECF6
:107D7000FCF01AC060F01BC061F01CC062F01DC0B6
:107D800063F0640E0001646F000E656F000E666F95
:107D9000000E676FE3ECF6F060C0F4F061C0F5F040
:107DA00062C0F6F063C0F7F0F4C029F0F5C02AF025
:107DB000020E2B6EB0EC09F0020EE7EC06F025C0C7
:107DC000F2F026C0F3F00001F451F21907E1F55189
:107DD000F319D8A4EEEFBEF0F0EFBEF0F2EFBEF074
:107DE00037C045F0F0C038F0F1C037F01200000E97
:107DF0000101BB6F000EBA6F000EBD6F000EBC6FAD
:107E0000000EAD6F000EAE6F000EAF6F000EB06FC4
:107E1000000EB26F000EB36F000EB46F000EB56FA0
:107E2000000EB66F000EB76F000EB86F000EB96F80
:107E3000000EBD6F000EBC6F070E1B6ED00E1A6ECB
:107E4000000E1C6E040E62ECFCF04AEFBFF0040062
:107E500074EC0CF00009D8B430EFBFF032EFBFF093
:107E60004AEFBFF057ECFFF00001EA6F2C0E010162
:107E7000BA25D96E010EBB21DA6EEAC0DFFFBA4B1C
:107E8000BB2B070E1B6ED00E1A6E000E1C6E040E5E
:107E900062ECFCF00101BB5107E1800EBA5DD8B085
:107EA00054EFBFF056EFBFF061EFBFF0040EBCEC33
:107EB00007F00009D8B45FEFBFF061EFBFF027EF24
:107EC000BFF0040E0FEC0BF00009D8B46AEFBFF05E
:107ED0006CEFBFF07FEFBFF0720E0101006F030E79
:107EE000016FEE0E026FFB0E036F2CECA3F0720E0F
:107EF0001B6E030E1C6EC9ECFEF0EFEFBFF0040E1C
:107F0000FEEC0BF0000E0101BB6F000EBA6F7CB4EB
:107F10008CEFBFF08FEFBFF0010E90EFBFF0000EBF
:107F2000FF0A0001EA6FEA47EA477C50EA19FB0BB7
:107F3000EA197C6EF20E0101BC5D030EBD59D8B08A
:107F4000A4EFBFF0A6EFBFF0D1EFBFF0ADC11DF0C1
:107F5000AEC11EF0AFC11FF0B0C120F02C0E216EDB
:107F6000010E226E800E236E000E246E000E256E12
:107F7000000E266EF2ECF8F01DC0ADF11EC0AEF1A1
:107F80001FC0AFF120C0B0F1720E0101006F030EEF
:107F9000016FEA0E026FFF0E036F2CECA3F0DBEF14
:107FA000BFF0720E006F030E016F500E026FFF0ED6
:107FB000036F2CECA3F0720E1B6E030E1C6EC9EC4B
:107FC000FEF00101BC4BBD2BF30EBC5D030EBD5991
:107FD000D8A0EDEFBFF0EFEFBFF01CEFBFF0010E48
:107FE0001D6EF90E1E6E010E1F6E000E206E2C0E01
:107FF000216E010E226E040E236E000E246E000E02
:10800000256E000E266EF2ECF8F0050E1D6EF90ED0
:108010001E6E010E1F6E000E206E300E216E010EC0
:10802000226E040E236E000E246E000E256E000ECE
:10803000266EF2ECF8F0010E1B6EF90E1C6E010EAE
:108040001D6E000E1E6E040E1F6E000E206E000EC2
:10805000216E000E226EB20E236E010E246EBDEC58
:10806000FBF0050E1B6EF90E1C6E010E1D6E000E50
:108070001E6E040E1F6E000E206E000E216E000E8E
:10808000226EB60E236E010E246EBDECFBF00400D2
:10809000B2C120F0B3C121F0B4C122F0B5C123F0C8
:1080A000B6C124F0B7C125F0B8C126F0B9C127F098
:1080B000B1ECEBF00009D8B460EFC0F062EFC0F0B3
:1080C000ABEFC0F0720E0101006F030E016F6F0E77
:1080D000026FFD0E036F2CECA3F0720E1B6E030EED
:1080E0001C6EC9ECFEF00400190E0001EB6F5A0E75
:1080F000EA6FB10EE82EFED7EA2FFCD7EB2FFAD7A6
:1081000000D0010E0101B16F000E1D6EF90E1E6E42
:10811000010E1F6E000E206EB10E216E010E226E3A
:10812000010E236E000E246E000E256E000E266ECC
:10813000F2ECF8F00400190E0001EB6F5A0EEA6F32
:10814000B10EE82EFED7EA2FFCD7EB2FFAD700D0DE
:10815000FF00CEEFC0F0720E0101006F030E016F41
:10816000490E026FFC0E036F2CECA3F0720E1B6E17
:10817000030E1C6EC9ECFEF00400C1EC0CF0040010
:10818000190E0001EB6F5A0EEA6FB10EE82EFED702
:10819000EA2FFCD7EB2FFAD700D0FF00440ECBEC30
:1081A0000CF0450ECBEC0CF07C94120000016951F0
:1081B000800B766F695169257D6F68AFE2EFC0F083
:1081C000E4EFC0F0E5EFC0F07D817D51D8B4EBEF76
:1081D000C0F0EDEFC0F002EFC1F07D29D8A4F3EFBD
:1081E000C0F0F5EFC0F0FDEFC0F0000E666F000EBE
:1081F000676F000E686F000E696F688F000E696F01
:108200000AEFC1F0000E666F000E676F000E686F18
:10821000000E696F6D51800B761B6D516D257E6F61
:108220006CAF15EFC1F017EFC1F018EFC1F07E8110
:108230007E51D8B41EEFC1F020EFC1F035EFC1F090
:108240007E29D8A426EFC1F028EFC1F030EFC1F0AD
:10825000000E6A6F000E6B6F000E6C6F000E6D6F7C
:108260006C8F000E6D6F3DEFC1F0000E6A6F000E57
:108270006B6F000E6C6F000E6D6F6A516B116C119D
:108280006D11D8A446EFC1F048EFC1F060EFC1F026
:10829000000E666F000E676F000E686F000E696F4C
:1082A000800E68137F0E69137651691366C066F0FD
:1082B00067C067F068C068F069C069F0A3EFC2F0FA
:1082C0007D51D8A466EFC1F068EFC1F072EFC1F044
:1082D000000E666F000E676F000E686F000E696F0C
:1082E000A3EFC2F07E517DC06EF06F6B6E5F000E2B
:1082F0006F5B7F0E6E25776F000E6F21786F66C003
:1083000072F067C073F068C074F069C075F0000E59
:10831000666F000E676F000E686F000E696F000ECB
:10832000796F000E7A6F000E7B6F000E7C6F000E6F
:108330007E6FD3EFC1F07E51D8B4A1EFC1F0A3EFAF
:10834000C1F0BAEFC1F0D890723773377437753710
:10835000D89066376737683769377CAFB2EFC1F0BE
:10836000B4EFC1F0B5EFC1F06681D89079377A37B4
:108370007B377C376A51725D6B5173596C517459FC
:108380006D517559D8A0C7EFC1F0C9EFC1F0D2EF58
:10839000C1F07C8D6A51725F6B51735B6C51745B81
:1083A0006D51755B7E2B190E7E65D9EFC1F0DBEF49
:1083B000C1F09BEFC1F07251731174117511D8B4F3
:1083C000E4EFC1F0E6EFC1F0FEEFC1F07981FEEF1E
:1083D000C1F0D89066376737683769377CAFF3EFFD
:1083E000C1F0F5EFC1F0F6EFC1F06681D8907937B2
:1083F0007A377B377C377707D8A0780768AF03EFE9
:10840000C2F005EFC2F0E9EFC1F0000E7E6F7CAF65
:108410000CEFC2F00EEFC2F032EFC2F0FF0E791592
:108420006E6FFF0E7A156F6FFF0E7B15706F7F0EEC
:108430007C15716F6E516F1170117111D8B423EFEB
:10844000C2F025EFC2F029EFC2F0010E7E6F32EFCD
:10845000C2F066A12EEFC2F030EFC2F032EFC2F0F0
:1084600025EFC2F07E51D8B438EFC2F03AEFC2F037
:108470005EEFC2F0010E6627000E672368236923B2
:1084800069A145EFC2F047EFC2F05EEFC2F066C0EF
:108490006EF067C06FF068C070F069C071F0713540
:1084A000713370336F336E336EC066F06FC067F038
:1084B00070C068F071C069F0774B782B78BF69EFB6
:1084C000C2F0785108E17729D8A069EFC2F06BEFCC
:1084D000C2F076EFC2F0000E786F7769000E666F1B
:1084E000000E676F000E686F000E696F78BF83EF34
:1084F000C2F0785106E17705D8B081EFC2F083EF82
:10850000C2F091EFC2F0000E786F000E776F000E90
:10851000666F000E676F000E686F000E696F000EC9
:10852000766F77C07DF07DA198EFC2F09AEFC2F030
:108530009DEFC2F0688F9EEFC2F0689FD8907D31AA
:10854000696F54EFC1F01200000E0101BC6F000E04
:10855000BB6F000EBE6F000EBD6F000EAD6F000E44
:10856000AE6F000EAF6F000EB06F000EB36F000E57
:10857000B46F000EB56F000EB66F000EB76F000E31
:10858000B86F000EB96F000EBA6F000EBE6F000E0E
:10859000BD6F070E1B6ED00E1A6E000E1C6E040E01
:1085A00062ECFCF0F20E0101BD5D030EBE59D8B0C5
:1085B000DCEFC2F0DEEFC2F0E2EFC2F0800EB16F8E
:1085C00009EFC3F0080EB16F09EFC3F004005CECD3
:1085D0000CF00009D8B4EFEFC2F0F1EFC2F009EFF0
:1085E000C3F0F9ECFEF00001EA6F2C0E0101BB258F
:1085F000D96E010EBC21DA6EEAC0DFFFBB4BBC2B8B
:10860000070E1B6ED00E1A6E000E1C6E040E62EC6E
:10861000FCF00101B151BB5D000EBC59D8B013EFA5
:10862000C3F015EFC3F020EFC3F0040EBCEC07F06D
:108630000009D8B41EEFC3F020EFC3F0E6EFC2F09C
:10864000040E0FEC0BF00009D8B429EFC3F02BEFA8
:10865000C3F02DEFC3F080EFC3F0040EFEEC0BF07F
:10866000000E0101BC6F000EBB6F7CB43AEFC3F08B
:108670003DEFC3F0010E3EEFC3F0000EFF0A000114
:10868000EA6FEA47EA477C50EA19FB0BEA197C6E6D
:10869000F20E0101BD5D030EBE59D8B052EFC3F01A
:1086A00054EFC3F072EFC3F0ADC11DF0AEC11EF0C8
:1086B000AFC11FF0B0C120F02C0E216E010E226E52
:1086C000800E236E000E246E000E256E000E266EA8
:1086D000F2ECF8F01DC0ADF11EC0AEF11FC0AFF15D
:1086E00020C0B0F10101BD4BBE2BF30EBD5D030EEA
:1086F000BE59D8A07EEFC3F080EFC3F0C9EFC2F03F
:108700007C94010E1D6EF90E1E6E010E1F6E000E82
:10871000206E2C0E216E010E226E040E236E000EB2
:10872000246E000E256E000E266EF2ECF8F0050E9B
:108730001D6EF90E1E6E010E1F6E000E206E300EA5
:10874000216E010E226E040E236E000E246E000EAA
:10875000256E000E266EF2ECF8F0010E1B6EF90E7F
:108760001C6E010E1D6E000E1E6E040E1F6E000E9E
:10877000206E000E216E000E226EB30E236E010ECF
:10878000246EBDECFBF0050E1B6EF90E1C6E010E87
:108790001D6E000E1E6E040E1F6E000E206E000E6B
:1087A000216E000E226EB70E236E010E246EBDECFC
:1087B000FBF00400B3C120F0B4C121F0B5C122F038
:1087C000B6C123F0B7C124F0B8C125F0B9C126F075
:1087D000BAC127F0B1ECEBF00009D8B4F2EFC3F066
:1087E000F4EFC3F02CEFC4F00400190E0001EB6F9E
:1087F0005A0EEA6FB10EE82EFED7EA2FFCD7EB2F08
:10880000FAD700D0010E0101B26F000E1D6EF90EF5
:108810001E6E010E1F6E000E206EB20E216E010E36
:10882000226E010E236E000E246E000E256E000EC9
:10883000266EF2ECF8F00400190E0001EB6F5A0EF0
:10884000EA6FB10EE82EFED7EA2FFCD7EB2FFAD74E
:1088500000D0FF004FEFC4F0720E0101006F030E55
:10886000016FA30E026FFD0E036F2CECA3F0720ECE
:108870001D6E030E1E6E39ECF9F00400C1EC0CF015
:108880000400190E0001EB6F5A0EEA6FB10EE82ECC
:10889000FED7EA2FFCD7EB2FFAD700D0FF00010E4E
:1088A0001A6E010E5EEC05F012000201E7510001A4
:1088B000D36FD26B0201E8510001D2250501006F90
:1088C0000201000E0001D3210501016F0201E951EF
:1088D0000001D36FD26B0201EA510001D2250501DC
:1088E000026F0201000E0001D3210501036FEF0E9C
:1088F0001A6E020E1B6E3E0E1C6E000E1D6E98EC64
:10890000FEF00001D46FEB0E1A6E020E1B6E3D0ED0
:108910001C6E000E1D6E98ECFEF00001D56FD4C0E9
:1089200004F50501056BD5C006F5076B0201C351BF
:10893000020DF3CFD2F03B50040DF3500001D225CD
:108940003C240401476F90C208F50501096B44C03F
:108950000AF50B6B45C00CF50D6B4FC20EF550C2FE
:108960000FF54DC210F54EC211F547C2BEF048C218
:10897000BFF07DECD5F0BEC012F5BFC013F545C207
:10898000BEF046C2BFF07DECD5F0BEC014F5BFC04E
:1089900015F5B8C216F5B9C217F5B4C218F5B5C2C7
:1089A00019F5B6C21AF5B7C21BF5B2C21CF5B3C2AF
:1089B0001DF52DC01EF52EC01FF55BC220F55CC253
:1089C00021F53FC022F50501236B59C224F55AC297
:1089D00025F502018851D8B4F0EFC4F0F2EFC4F0ED
:1089E00013EFC5F031510001D36FD26B020130514A
:1089F0000001D2250501266F000E0001D3210501DB
:108A0000276F020133510001D36FD26B0201325143
:108A10000001D2250501286F000E0001D3210501B8
:108A2000296F1CEFC5F0000E0501276F000E266FA1
:108A3000000E296F000E286FA7C22AF52B6BA6C265
:108A40002CF52D6B45501E0DF3CFA5F2A5C22EF5CA
:108A50002F6B38C000F30301016B37C002F3036BC7
:108A600042C004F3056B41C006F3076B55C208F31F
:108A700056C209F357C20AF358C20BF3000E0001A5
:108A8000D66FD651020DE20EF324D96E030EF420F8
:108A9000DA6ED651D26FD36BD890D237D3370C0E53
:108AA000D225E16E030ED321E26EDECFE6FFDDCFED
:108AB000E5FFD62B050ED66560EFC5F062EFC5F079
:108AC00041EFC5F0000ED66FD651020DD60EF3243D
:108AD000D96E030EF420DA6ED651D26FD36BD890D4
:108AE000D237D337180ED225E16E030ED321E26EB2
:108AF000DECFE6FFDDCFE5FFD62B050ED66583EF93
:108B0000C5F085EFC5F064EFC5F0DDC224F30301C5
:108B1000256BE6C226F3276BE5C228F3296BD6C284
:108B20002AF3D7C22BF3E4C22CF32D6BE3C22EF34E
:108B30002F6B43C030F3316B000E0001D66FD6515E
:108B4000020DC40EF324D96E020EF420DA6ED65153
:108B5000D26FD36BD890D237D337320ED225E16E95
:108B6000030ED321E26EDECFE6FFDDCFE5FFD62B8D
:108B7000050ED665BEEFC5F0C0EFC5F09FEFC5F09E
:108B8000D4C23EF3D5C23FF302018851D8B4CBEF33
:108B9000C5F0CDEFC5F0EEEFC5F031510001D36F58
:108BA000D26B020130510001D2250301406F000E4B
:108BB0000001D3210301416F020133510001D36F42
:108BC000D26B020132510001D2250301426F000E27
:108BD0000001D3210301436FF7EFC5F0000E03013D
:108BE000416F000E406F000E436F000E426F53C284
:108BF00044F354C245F3E2C246F3476BA4C248F3C0
:108C0000496B120074EC0CF00009D8B40AEFC6F0FE
:108C10000CEFC6F0E9EFC6F057ECFFF00001F66F7D
:108C2000F6C066F0820E676F090E686FBD0E696F41
:108C3000020E6A6F250E6B6F250E10ECE1F0000935
:108C4000D8B425EFC6F027EFC6F0C0EFC6F0820E0D
:108C50001A6E090E1B6ED30E1C6EFE0E1D6E000EDC
:108C60001F6E070E1E6E32ECF2F01A501B10D8A4C5
:108C70003CEFC6F03EEFC6F040EFC6F0B1EFC6F0F5
:108C8000820E1A6E090E1B6ED00E1C6EFE0E1D6E2D
:108C9000000E1F6E0A0E1E6E32ECF2F01A501B1000
:108CA000D8A455EFC6F057EFC6F065EFC6F07C9834
:108CB00002018A05D8A45FEFC6F061EFC6F0B1EFFC
:108CC000C6F0010EDF6FB1EFC6F0820E1A6E090E0C
:108CD0001B6EC50E1C6EFE0E1D6E000E1F6E0A0E64
:108CE0001E6E32ECF2F01A501B10D8B47AEFC6F0B8
:108CF0007CEFC6F093EFC6F0820E1A6E090E1B6E63
:108D0000350E1C6EFE0E1D6E000E1F6E0B0E1E6EBF
:108D100032ECF2F01A501B10D8A491EFC6F093EF8A
:108D2000C6F0B1EFC6F0000E1B6E050E1A6E000EF7
:108D30001C6E0B0E62ECFCF07C88720E0101006F61
:108D4000030E016F050E026FFE0E036F2CECA3F0F5
:108D5000720E1B6E030E1C6EC9ECFEF0010E0201BA
:108D60008B6F720E206E030E216E720E1A6E030E42
:108D70001B6EFEEC08F01A50226E010E53EC07F049
:108D8000F6C066F0820E0001676F090E686FBD0EB7
:108D9000696F020E6A6F400E6B6F400E10ECE1F0CF
:108DA0000009D8B4D6EFC6F0D8EFC6F0E9EFC6F0A8
:108DB000820E0101BF6F090EC06FBD0EC16F020EA2
:108DC000C26F41C0C3F1010E00EC80F0040E19EC3B
:108DD00009F05CEC0CF00009D8B4F1EFC6F0F3EF49
:108DE000C6F01FEFC7F0F9ECFEF00001F66FF6C019
:108DF00066F0000E676F0A0E686FBC0E696F020E98
:108E00006A6F400E6B6F400E55ECE8F00009D8B465
:108E10000CEFC7F00EEFC7F01FEFC7F0000E010117
:108E2000BF6F0A0EC06FBC0EC16F020EC26F41C091
:108E3000C3F1020E00EC80F0030E19EC09F0120EE3
:108E4000BCEC07F00009D8B428EFC7F02AEFC7F050
:108E500063EFC7F0F6C066F0230E0001676F070EE0
:108E6000686FBE0E696F020E6A6F010E6B6F405025
:108E7000BDECECF0F50E0001716F000E726F79EC35
:108E8000E9F0060AD8A447EFC7F049EFC7F063EF4F
:108E9000C7F0060E4118D8B450EFC7F052EFC7F034
:108EA0005CEFC7F0030E0001F519D8A45AEFC7F024
:108EB0005CEFC7F063EFC7F00001F5516EECAAF06C
:108EC000030E19EC09F068EC0CF00009D8B46BEF54
:108ED000C7F06DEFC7F080EFC7F028ECFFF000019E
:108EE000F66FF6C066F0230E676F070E686FBE0E52
:108EF000696F020E6A6F000E6B6F4050BDECECF0B4
:108F00001200D9C0D9FFDAC0DAFFDF50D8A48BEF46
:108F1000C7F08DEFC7F0DAEFC8F0000E02016C6FFA
:108F2000DAEFC8F0D9C0D9FFDAC0DAFFDE04D8A47E
:108F30009CEFC7F09EEFC7F0FEEFC8F002016C2B6C
:108F4000FEEFC8F0000E1B6EB40E1A6E010E1C6E02
:108F5000060E62ECFCF03B04D8B4B1EFC7F0B3EFFF
:108F6000C7F09EEFC7F0020E1A6E050EB7EC0CF0BC
:108F70009EEFC7F03B04D8A4C0EFC7F0C2EFC7F024
:108F8000D4EFC7F0000E1B6EB40E1A6E010E1C6EED
:108F9000060E62ECFCF0010E1A6E050EB7EC0CF03A
:108FA00082EC0DF09EEFC7F0060EBCEC07F0000956
:108FB000D8B4DDEFC7F0DFEFC7F0FEEFC8F0000E6A
:108FC0001A6E050EB7EC0CF0000E02016B6F000E6E
:108FD0006C6FD9C0D9FFDAC0DAFF000EDF6EFEEF8A
:108FE000C8F0020E3B18D8A4F8EFC7F0FAEFC7F0AC
:108FF00023EFC8F09AEC0DF01AC037F21BC038F21C
:1090000037C2D2F038C2D3F0000E0001D56F050E82
:10901000D46F82ECFBF0D2C037F2D3C038F2020E2C
:109020001A6E050EB7EC0CF037C21AF038C21BF0FE
:10903000000E1C6E050E62ECFCF002016C2B000EA3
:109040006B6FFEEFC8F0060EBCEC07F00009D8B459
:109050002CEFC8F02EEFC8F0FEEFC8F0000E1A6E2D
:10906000050EB7EC0CF0E4EFC7F0050EBCEC07F012
:109070000009D8B43EEFC8F040EFC8F0FEEFC8F0EA
:1090800002016B2B000E1A6E050EB7EC0CF0000EF1
:109090001B6E0F0E1A6E010E1C6E050E62ECFCF0BC
:1090A0009EEFC7F0050EBCEC07F00009D8B45BEFEB
:1090B000C8F05DEFC8F0FEEFC8F0020E1A6E050EA4
:1090C000B7EC0CF0050E02016B6169EFC8F06BEFB5
:1090D000C8F078EFC8F037C21AF038C21BF0000EA3
:1090E0001C6E050E62ECFCF002016C07FEEFC8F08E
:1090F000D89037351A6E38351B6E000E1C6E060E72
:1091000062ECFCF09EEFC7F03B04D8A48AEFC8F0F5
:109110008CEFC8F09EEFC8F0010E1A6E050EB7EC8A
:109120000CF0D890020137351A6E38351B6E000EE0
:109130001C6E060E62ECFCF09EEFC7F0060EBCEC57
:1091400007F00009D8B4A7EFC8F0A9EFC8F0FEEF08
:10915000C8F0000E1A6E050EB7EC0CF0E4EFC7F085
:10916000030E3B18D8A4B7EFC8F0B9EFC8F0C8EFAA
:10917000C8F0000E1A6E050EB7EC0CF0000E0201DE
:109180006B6F000E6C6F060EFEEC0BF0E9EFC7F094
:10919000060EBCEC07F00009D8B4D1EFC8F0D3EF4D
:1091A000C8F0FEEFC8F0000E1A6E050EB7EC0CF01A
:1091B000E4EFC7F002016C51000AD8B492EFC7F097
:1091C000010AD8B4A2EFC7F0030AD8B4BAEFC7F0C7
:1091D000010AD8B4F1EFC7F0070AD8B435EFC8F0E8
:1091E000010AD8B452EFC8F0030AD8B484EFC8F02B
:1091F000010AD8B4B0EFC8F0FEEFC8F01200C0C04A
:109200001AF0C1C01BF0C2C01CF0C3C01DF0000E9C
:109210001E6E000E1F6E000E206E000E216E8EEC74
:10922000F6F0D8A016EFC9F018EFC9F023EFC9F097
:10923000000E0001C06F000EC16F800EC26F3F0EA6
:10924000C36F76EFCAF0180E1A6E720E1B6E310ED7
:109250001C6E440E1D6EC0C01EF0C1C01FF0C2C007
:1092600020F0C3C021F0C4ECEDF0D8B03AEFC9F063
:109270003CEFC9F04CEFC9F0000E03016D6F220EF8
:109280006C6FFF0E0001C06FFF0EC16F7F0EC26FCB
:109290007F0EC36F76EFCAF0C0C01AF0C1C01BF0DA
:1092A000C2C01CF0C3C01DF0870E1E6E480E1F6E9C
:1092B0003A0E206EC40E216EC4ECEDF0D8B063EF10
:1092C000C9F065EFC9F075EFC9F0000E03016D6FCD
:1092D000220E6C6F000E0001C06F000EC16F000EF9
:1092E000C26F000EC36F76EFCAF00001C3BF7BEF01
:1092F000C9F07EEFC9F0010E7FEFC9F0000ECA6F12
:10930000CA51D8B486EFC9F088EFC9F09AEFC9F016
:10931000C0C01AF0C1C01BF0C2C01CF0C3C01DF019
:10932000E2EC08F01AC0C0F01BC0C1F01CC0C2F0D3
:109330001DC0C3F0C0C08FF0C1C090F0C2C091F09A
:10934000C3C092F03B0E0001936FAA0E946FB80E4B
:10935000956F3F0E966F42ECB3F08FC0C0F090C097
:10936000C1F091C0C2F092C0C3F0C0C08FF0C1C0C4
:1093700090F0C2C091F0C3C092F0E1ECE5F08FC074
:10938000C4F090C0C5F091C0C6F092C0C7F0C4C090
:109390001AF0C5C01BF0C6C01CF0C7C01DF041ECE0
:1093A000EDF01AC0C8F01BC0C9F0C0C08FF0C1C03A
:1093B00090F0C2C091F0C3C092F0C8C024F0C9C000
:1093C00025F0000E25BEFF0E266E276E010E7CECEA
:1093D000DBF024C093F025C094F026C095F027C0A0
:1093E00096F0C3EC06F08FC0C0F090C0C1F091C001
:1093F000C2F092C0C3F0C0C0A8F0C1C0A9F0C2C002
:10940000AAF0C3C0ABF0250E0001AC6FF70EAD6F34
:10941000000EAF6F090EAE6F46ECEEF0A8C0B8F0CC
:10942000A9C0B9F0AAC0BAF0ABC0BBF0C8C0BCF0CC
:10943000C9C0BDF083ECE6F0B8C0C0F0B9C0C1F05F
:10944000BAC0C2F0BBC0C3F00001CA51D8B42BEF00
:10945000CAF02DEFCAF06EEFCAF0C0C01AF0C1C05A
:109460001BF0C2C01CF0C3C01DF0FF0E1E6EFF0E2D
:109470001F6E7F0E206E7F0E216E8EECF6F0D8A050
:1094800044EFCAF046EFCAF051EFCAF0000E0001F7
:10949000C06F000EC16F000EC26F000EC36F76EF7B
:1094A000CAF0000E0001666F000E676F800E686FD5
:1094B0003F0E696FC0C06AF0C1C06BF0C2C06CF0F3
:1094C000C3C06DF0D6ECC0F066C0C0F067C0C1F09C
:1094D00068C0C2F069C0C3F076EFCAF0C0C0C0F087
:1094E000C1C0C1F0C2C0C2F0C3C0C3F012000001CD
:1094F000B06F20EEB1F0050EDE6AE806FDE2B10EB7
:109500001F6E000E206E000E226E060E216E0001F0
:10951000B05137ECF6F0B1C0B7F00001B86BB751FD
:10952000B86FB76BB251B713B10E1A6E000E1B6E47
:10953000000E1D6E020E1C6E82ECF7F00001B319D6
:10954000D8B4A5EFCAF0A7EFCAF0B9EFCAF0A8C027
:10955000D9FFA9C0DAFFFF0EDE6E7F0EDD6EAAC056
:10956000D9FFABC0DAFFFF0EDE6EFF0EDD6ECEEF71
:10957000CBF0B4C0B9F0BA6BB951BA6FB96BB55191
:10958000B913B40E1A6E000E1B6E000E1D6E020E85
:109590001C6E82ECF7F00001B619D8B4D2EFCAF015
:1095A000D4EFCAF0D6EFCAF0A7EFCAF0B7C024F0E4
:1095B000B8C025F0266A276A000E7CECDBF024C0D8
:1095C000BFF025C0C0F026C0C1F027C0C2F0BFC0A8
:1095D0008FF0C0C090F0C1C091F0C2C092F0000EF8
:1095E0000001936F000E946F2F0E956F430E966FD0
:1095F00042ECB3F08FC0BFF090C0C0F091C0C1F09A
:1096000092C0C2F0BFC066F0C0C067F0C1C068F0D1
:10961000C2C069F0000E00016A6FFF0E6B6F7F0E13
:109620006C6F470E6D6FD6ECC0F066C0BFF067C0C0
:10963000C0F068C0C1F069C0C2F0BFC07FF0C0C058
:1096400080F0C1C081F0C2C082F0000E0001836FC3
:10965000000E846F340E856FC20E866F0DECA8F07D
:109660007FC0BFF080C0C0F081C0C1F082C0C2F036
:10967000BFC064F3C0C065F3C1C066F3C2C067F386
:1096800064C38FF065C390F066C391F067C392F036
:10969000000E0001936F000E946F200E956F410E27
:1096A000966F42ECB3F08FC0ACF090C0ADF091C0BB
:1096B000AEF092C0AFF0ACC01AF0ADC01BF0AEC0BF
:1096C0001CF0AFC01DF041ECEDF0A8C0D9FFA9C05F
:1096D000DAFF1AC0DEFF1BC0DDFFB9C024F0BAC03C
:1096E00025F0266A276A000E7CECDBF024C0BBF074
:1096F00025C0BCF026C0BDF027C0BEF0BBC08FF0B7
:10970000BCC090F0BDC091F0BEC092F0000E000150
:10971000936F000E946FC80E956F420E966F42ECD9
:10972000B3F08FC0BBF090C0BCF091C0BDF092C050
:10973000BEF0BBC066F0BCC067F0BDC068F0BEC084
:1097400069F0000E00016A6FFF0E6B6F7F0E6C6F89
:10975000470E6D6FD6ECC0F066C0BBF067C0BCF0C2
:1097600068C0BDF069C0BEF0BBC068F3BCC069F39F
:10977000BDC06AF3BEC06BF368C31AF069C31BF0C7
:109780006AC31CF06BC31DF041ECEDF0AAC0D9FF19
:10979000ABC0DAFF1AC0DEFF1BC0DDFF120020C025
:1097A000D9FF21C0DAFFDF50D8A4D9EFCBF0DBEF2F
:1097B000CBF0FEEFCCF002016951D8B4E2EFCBF070
:1097C000E4EFCBF0FEEFCCF0000E696F8090000E5E
:1097D0001A6E030EB7EC0CF0FEEFCCF020C0D9FFF0
:1097E00021C0DAFFDE04D8A4F8EFCBF0FAEFCBF01B
:1097F0001AEFCDF0692B000E686F000E1B6E140E71
:109800001A6E010E1C6E0D0E62ECFCF01AEFCDF01C
:10981000E6C238F0E5C237F00D0EBCEC07F00009E7
:10982000D8B415EFCCF017EFCCF01AEFCDF0020161
:10983000692B1AEFCDF08080000E1B6E210E1A6E80
:10984000010E1C6E060E62ECFCF0D6C21AF0D7C2F6
:109850001BF0010E1C6E100E62ECFCF03C50D8A404
:1098600034EFCCF036EFCCF03AEFCCF00201692BBC
:109870003DEFCCF0020E02016927010E1A6E030EB5
:10988000B7EC0CF01AEFCDF03C04D8A44AEFCCF0C2
:109890004CEFCCF054EFCCF0020E6927000E676F4E
:1098A00067C268F21AEFCDF0060EBCEC07F00009B3
:1098B000D8B45DEFCCF05FEFCCF01AEFCDF0000E36
:1098C0001A6E030EB7EC0CF08090000E0201696F67
:1098D00020C0D9FF21C0DAFF000EDF6E660E1CEF3C
:1098E000CDF03C50D8A477EFCCF079EFCCF07CEF02
:1098F000CCF0692B4EEFCCF0060EBCEC07F0000963
:10990000D8B485EFCCF087EFCCF01AEFCDF0000E95
:109910001A6E030EB7EC0CF08090000E0201696F16
:1099200020C0D9FF21C0DAFF000EDF6E670E1CEFEA
:10993000CDF03C50D8A49FEFCCF0A1EFCCF0AEEF2F
:10994000CCF06751D8A4A7EFCCF0A9EFCCF0AEEFE4
:10995000CCF0682B010E676FB8EFCCF03C04D8A4B4
:10996000B4EFCCF0B6EFCCF0B8EFCCF0000E676FF0
:10997000030E6819D8A4BFEFCCF0C1EFCCF0E1EF33
:10998000CCF0100EBCEC07F00009D8B4CAEFCCF054
:10999000CCEFCCF01AEFCDF08090000E1A6E030ED3
:1099A000B7EC0CF0000E0201696F060EFEEC0BF036
:1099B00020C0D9FF21C0DAFF000EDF6EFF0E1CEFC2
:1099C000CDF0060EBCEC07F00009D8B4EAEFCCF0FD
:1099D000ECEFCCF01AEFCDF0000E1A6E030EB7ECE0
:1099E0000CF08090000E0201696F20C0D9FF21C0E9
:1099F000DAFF000EDF6E680E1CEFCDF00201695138
:109A0000000AD8B4EEEFCBF0010AD8B408EFCCF0DE
:109A1000030AD8B41BEFCCF0010AD8B444EFCCF061
:109A2000070AD8B471EFCCF0010AD8B499EFCCF0A2
:109A30001AEFCDF0020169511200000E0001DF6F34
:109A4000000EDE6FD9C068F0DAC069F0000E6B6FEF
:109A5000120E6A6F000E6D6F020E6C6F8C0E6E6FC1
:109A6000F60E6F6F010E706F32ECBBF0000E00014E
:109A7000DD6FDD51020DF3CFDBF0F4CFDCF0DB5115
:109A8000D925D96EDC51DA21DA6EDE50DE27DD50C1
:109A9000DF23DD2B040EDD6550EFCDF052EFCDF06E
:109AA00039EFCDF0DEC0D2F0DFC0D3F0000ED56FBD
:109AB000050ED46F82ECFBF0D2C0DEF0D3C0DFF035
:109AC0000201A705D8A467EFCDF069EFCDF0F1EF63
:109AD000CDF0090E0001DE5D020EDF59D8A073EF54
:109AE000CDF075EFCDF07BEFCDF0090EDE5F020E0D
:109AF000DF5B7FEFCDF0000EDF6F000EDE6FDEC0AC
:109B000024F0DFC025F0266A276A000E7CECDBF02B
:109B100024C0E0F025C0E1F026C0E2F027C0E3F069
:109B2000E0C066F0E1C067F0E2C068F0E3C069F051
:109B3000000E00016A6F800E6B6FFB0E6C6F430EA0
:109B40006D6FD6ECC0F066C0E0F067C0E1F068C0B1
:109B5000E2F069C0E3F0E0C08FF0E1C090F0E2C055
:109B600091F0E3C092F0000E0001936F000E946F2D
:109B7000A00E956F410E966F42ECB3F08FC0E0F0EF
:109B800090C0E1F091C0E2F092C0E3F0E0C08FF04D
:109B9000E1C090F0E2C091F0E3C092F0000E00014D
:109BA000936F000E946FC80E956F420E966F42EC45
:109BB000B3F08FC0E0F090C0E1F091C0E2F092C04D
:109BC000E3F0E0C01AF0E1C01BF0E2C01CF0E3C01B
:109BD0001DF041ECEDF01AC0DEF01BC0DFF064EFC9
:109BE000CEF0DEC024F0DFC025F0266A276A000E22
:109BF0007CECDBF024C0E0F025C0E1F026C0E2F010
:109C000027C0E3F0E0C08FF0E1C090F0E2C091F037
:109C1000E3C092F0550E0001936FC10E946F280EB1
:109C2000956F3C0E966F42ECB3F08FC0E0F090C0A1
:109C3000E1F091C0E2F092C0E3F0E0C08FF0E1C04B
:109C400090F0E2C091F0E3C092F0A40E0001936F97
:109C5000700E946F9D0E956F3F0E966FC3EC06F0DD
:109C60008FC0E0F090C0E1F091C0E2F092C0E3F06C
:109C70000001E3BF40EFCEF03EEFCEF048EFCEF074
:109C8000000EE06F000EE16F000EE26F000EE36F5A
:109C9000E0C08FF0E1C090F0E2C091F0E3C092F03C
:109CA000000E936F000E946FC80E956F420E966F64
:109CB00042ECB3F08FC0E0F090C0E1F091C0E2F070
:109CC00092C0E3F0E1EFCDF0DEC0D9F0DFC0DAF012
:109CD0001200000E00016B6F000E6A6F000E676FBE
:109CE000000E666F000E696F000E686F000E6D6FDC
:109CF000000E6C6F25C764F0656B6451656F646B13
:109D0000070126510001641327C76AF06B6B6A5183
:109D10006B6F6A6B0701285100016A1340C000F69F
:109D2000020E0601016F6AC060F06BC061F00001B5
:109D3000D89061336033D89061336033D890613309
:109D400060336051696F6A51070B686F6851D8B40E
:109D5000ACEFCEF0AEEFCEF0AFEFCEF0692B69C036
:109D600002F664C06CF0030E706F69C06EF06E5145
:109D7000D8A4BDEFCEF0BFEFCEF0C1EFCEF04FEFE5
:109D8000CFF0010E6E65C7EFCEF0C9EFCEF00AEF4F
:109D9000CFF0000E6F6F460E6C25D96EDA6A040E96
:109DA000DA22DF50D8B4D7EFCEF0D9EFCEF0DDEF26
:109DB000CEF0010E6D6FDFEFCEF0000E6D6F7D0EF9
:109DC0007061E5EFCEF0E7EFCEF0FCEFCEF06FC0C4
:109DD00060F06DC061F0602BF0EFCEF0D89061378D
:109DE000602FEEEFCEF0000E00017025D96EDA6A1A
:109DF000060EDA226151DF1A6C2B6F2B080E6F19D9
:109E0000D8A405EFCFF007EFCFF0CBEFCEF0702B5B
:109E10004CEFCFF0000E6F6F41EFCFF0460E6C2588
:109E2000D96EDA6A040EDA22DF50D8B41AEFCFF016
:109E30001CEFCFF020EFCFF0010E6D6F22EFCFF0CF
:109E4000000E6D6F7D0E706128EFCFF02AEFCFF01E
:109E50003FEFCFF06FC060F06DC061F0602B33EF6B
:109E6000CFF0D8906137602F31EFCFF0000E0001B6
:109E70007025D96EDA6A060EDA226151DF1A6C2B70
:109E80006F2B68516F19D8A448EFCFF04AEFCFF08D
:109E90000EEFCFF007EFCFF06E07B7EFCEF07051B7
:109EA000020FBEECEFF01AC066F01BC067F00001B5
:109EB0007051606F616B010E6027000E612361BFFE
:109EC0006DEFCFF0615107E17D0E605DD8B06BEFB3
:109ED000CFF06DEFCFF0A2EFCFF0000E7025D96E6E
:109EE000DA6A060EDA226751DF6E010E7025D96E2E
:109EF000DA6A060EDA2266C0DFFF000E6E6F8CEFA4
:109F0000CFF0000E6E25D96EDA6A060EDA22DF5027
:109F100035ECFEF000016E2B6E51606F616B70517D
:109F2000626F636B030E6227000E63236051621938
:109F300007E161516319D8A4A0EFCFF0A2EFCFF0F1
:109F400081EFCFF01200000E00016B6F000E6A6F00
:109F5000000E676F000E666F000E696F000E686F6F
:109F6000000E6D6F000E6C6F25C764F0656B645159
:109F7000656F646B070126510001641327C76AF0FF
:109F80006B6B6A516B6F6A6B0701285100016A1392
:109F900040C000F6010E0601016F6AC060F06BC0A0
:109FA00061F00001D89061336033D8906133603341
:109FB000D890613360336051696F6A51070B686FE5
:109FC0006851D8B4E6EFCFF0E8EFCFF0E9EFCFF08B
:109FD000692B69C002F664C06CF0030E706F69C033
:109FE0006EF06E51D8A4F7EFCFF0F9EFCFF0FBEFA2
:109FF000CFF089EFD0F0010E6E6501EFD0F003EFE6
:10A00000D0F044EFD0F0000E6F6F500E6C25D96E7B
:10A01000DA6A040EDA22DF50D8B411EFD0F013EF71
:10A02000D0F017EFD0F0010E6D6F19EFD0F0000EE9
:10A030006D6F7D0E70611FEFD0F021EFD0F036EF25
:10A04000D0F06FC060F06DC061F0602B2AEFD0F0EF
:10A05000D8906137602F28EFD0F0000E00017025F6
:10A06000D96EDA6A060EDA226151DF1A6C2B6F2B79
:10A07000080E6F19D8A43FEFD0F041EFD0F005EFF4
:10A08000D0F0702B86EFD0F0000E6F6F7BEFD0F02A
:10A09000500E6C25D96EDA6A040EDA22DF50D8B47D
:10A0A00054EFD0F056EFD0F05AEFD0F0010E6D6FB4
:10A0B0005CEFD0F0000E6D6F7D0E706162EFD0F03E
:10A0C00064EFD0F079EFD0F06FC060F06DC061F058
:10A0D000602B6DEFD0F0D8906137602F6BEFD0F030
:10A0E000000E00017025D96EDA6A060EDA2261517F
:10A0F000DF1A6C2B6F2B68516F19D8A482EFD0F048
:10A1000084EFD0F048EFD0F041EFD0F06E07F1EFE0
:10A11000CFF07051020FBEECEFF01AC066F01BC01A
:10A1200067F000017051606F616B010E6027000ED7
:10A13000612361BFA7EFD0F0615107E17D0E605D43
:10A14000D8B0A5EFD0F0A7EFD0F0DCEFD0F0000E44
:10A150007025D96EDA6A060EDA226751DF6E010EBB
:10A160007025D96EDA6A060EDA2266C0DFFF000EAD
:10A170006E6FC6EFD0F0000E6E25D96EDA6A060E4D
:10A18000DA22DF5035ECFEF000016E2B6E51606F6D
:10A19000616B7051626F636B030E6227000E632365
:10A1A0006051621907E161516319D8A4DAEFD0F068
:10A1B000DCEFD0F0BBEFD0F012000101046F000E15
:10A1C0000101106F000E116F000E126F000E136F61
:10A1D000000E076F000E086F000E096F000E0A6F69
:10A1E000000E0B6F000E0C6F000E0D6F000E0E6F49
:10A1F00045C2D9F046C2DAF090ECDFF0D9C005F1E3
:10A20000DAC006F105C124F006C125F0266A276AE6
:10A21000000E7CECDBF024C066F025C067F026C0A1
:10A2200068F027C069F0000E00016A6F000E6B6FC6
:10A23000C80E6C6F420E6D6FD6ECC0F066C010F1A8
:10A2400067C011F168C012F169C013F10101045136
:10A25000246E256A266A276A000E7CECDBF024C097
:10A260008FF025C090F026C091F027C092F010C169
:10A2700093F011C194F012C195F013C196F042EC25
:10A28000B3F08FC010F190C011F191C012F192C0E3
:10A2900013F102018751D8B450EFD1F052EFD1F051
:10A2A000DBEFD1F03DC224F03EC225F0266A276ADA
:10A2B000000E7CECDBF024C066F025C067F026C001
:10A2C00068F027C069F0000E00016A6F000E6B6F26
:10A2D000C80E6C6F420E6D6FD6ECC0F066C007F111
:10A2E00067C008F168C009F169C00AF1020187512D
:10A2F000020DEE0EF324D96E030EF420DA6EDECFDB
:10A30000EEF0DDCFEFF0EEC024F0EFC025F0266ACE
:10A31000276A000E7CECDBF024C066F025C067F0F5
:10A3200026C068F027C069F0000E00016A6F000EB9
:10A330006B6FC80E6C6F420E6D6FD6ECC0F066C0CE
:10A340000BF167C00CF168C00DF169C00EF107C1D7
:10A3500093F008C194F009C195F00AC196F010C1BC
:10A360008FF011C190F012C191F013C192F042EC44
:10A37000B3F08FC000F190C001F191C002F192C022
:10A3800003F100C18FF001C190F002C191F003C14F
:10A3900092F00BC193F00CC194F00DC195F00EC179
:10A3A00096F042ECB3F08FC010F190C011F191C063
:10A3B00012F192C013F1000E1A6E000E1B6EC80E41
:10A3C0001C6E420E1D6E10C11EF011C11FF012C195
:10A3D00020F013C121F0C4ECEDF0D8B0F2EFD1F0D1
:10A3E000F4EFD1F0FDEFD1F0000E0101106F000E7F
:10A3F000116FC80E126F420E136F10C11AF011C107
:10A400001BF012C11CF013C11DF041ECEDF01A500D
:10A4100001010F6F0F511200CBC022F0CCC023F00E
:10A42000000E256E0A0E246E73EC0BF022C0D9F0DC
:10A4300023C0DAF0D9C024F0DAC025F0000E25BE22
:10A44000FF0E266E276E010E7CECDBF024C0DDF0E3
:10A4500025C0DEF026C0DFF027C0E0F0000E0001CE
:10A460006A6F000E6B6F200E6C6F410E6D6FDDC05A
:10A4700066F0DEC067F0DFC068F0E0C069F0D6ECDF
:10A48000C0F066C07FF067C080F068C081F069C02E
:10A4900082F0330E0001836F930E846F880E856FF8
:10A4A000430E866F0DECA8F07FC0CDF080C0CEF0DB
:10A4B00081C0CFF082C0D0F0000E0001936FE00E9B
:10A4C000946F760E956F450E966F0F0E836FCF0EBD
:10A4D000846F5B0E856FBB0E866FCDC06AF0CEC0F9
:10A4E0006BF0CFC06CF0D0C06DF0000E666F000E48
:10A4F000676F800E686F3F0E696FD6ECC0F066C064
:10A500007FF067C080F068C081F069C082F00DEC18
:10A51000A8F07FC08FF080C090F081C091F082C021
:10A5200092F042ECB3F08FC0D1F090C0D2F091C065
:10A53000D3F092C0D4F0D1C0C0F0D2C0C1F0D3C02B
:10A54000C2F0D4C0C3F0FFECC8F0C0C0D5F0C1C0A9
:10A55000D6F0C2C0D7F0C3C0D8F0D5C08FF0D6C0F7
:10A5600090F0D7C091F0D8C092F0000E0001936F28
:10A57000400E946F1C0E956F460E966F42ECB3F032
:10A580008FC0E1F090C0E2F091C0E3F092C0E4F03F
:10A59000000E0001666FE80E676F000E686F470ED1
:10A5A000696F000E836F400E846F1C0E856F460E20
:10A5B000866FE1C07FF0E2C080F0E3C081F0E4C0CC
:10A5C00082F00DECA8F07FC06AF080C06BF081C013
:10A5D0006CF082C06DF0D6ECC0F066C0DDF067C0F4
:10A5E000DEF068C0DFF069C0E0F0000E0001936F9C
:10A5F000C00E946F7F0E956F440E966FDDC08FF086
:10A60000DEC090F0DFC091F0E0C092F042ECB3F019
:10A610008FC066F090C067F091C068F092C069F09A
:10A62000330E00016A6F330E6B6F530E6C6F400E6A
:10A630006D6FD6ECC0F066C0E1F067C0E2F068C0B4
:10A64000E3F069C0E4F0E1C01AF0E2C01BF0E3C03F
:10A650001CF0E4C01DF041ECEDF01AC0DBF01BC0B3
:10A66000DCF0DBC0CBF0DCC0CCF012000001BE2976
:10A67000030EBF59D8A03FEFD3F041EFD3F047EF1F
:10A68000D3F0000EBF6F640EBE6F59EFD4F0330EDF
:10A69000936F330E946F530E956F400E966FBEC03E
:10A6A00024F0BFC025F0266A276A000E7CECDBF0A0
:10A6B00024C08FF025C090F026C091F027C092F002
:10A6C00042ECB3F08FC066F090C067F091C068F0C4
:10A6D00092C069F0000E00016A6FC00E6B6F7F0EB2
:10A6E0006C6F440E6D6FD6ECC0F066C0CEF067C0E4
:10A6F000CFF068C0D0F069C0D1F0CEC06AF0CFC052
:10A700006BF0D0C06CF0D1C06DF0000E0001666F30
:10A71000E80E676F000E686F470E696FD6ECC0F0E9
:10A7200066C07FF067C080F068C081F069C082F0C9
:10A73000000E0001836F400E846F1C0E856FC60EE5
:10A74000866F0DECA8F07FC0C0F080C0C1F081C062
:10A75000C2F082C0C3F0000E00016A6F400E6B6F42
:10A760001C0E6C6F460E6D6FC0C066F0C1C067F006
:10A77000C2C068F0C3C069F0D6ECC0F066C0B8F0E3
:10A7800067C0B9F068C0BAF069C0BBF031ECDDF069
:10A79000B8C0C8F0B9C0C9F0BAC0CAF0BBC0CBF0ED
:10A7A000000E0001666F000E676F800E686F3F0E2F
:10A7B000696F0F0E836FCF0E846F5B0E856F3B0E3C
:10A7C000866F2C0E936FBB0E946F840E956F390EAF
:10A7D000966FC8C08FF0C9C090F0CAC091F0CBC0CE
:10A7E00092F042ECB3F08FC07FF090C080F091C047
:10A7F00081F092C082F00DECA8F07FC06AF080C0BA
:10A800006BF081C06CF082C06DF0D6ECC0F066C019
:10A81000C4F067C0C5F068C0C6F069C0C7F0330EA9
:10A820000001836F930E846F880E856FC30E866F51
:10A83000C4C07FF0C5C080F0C6C081F0C7C082F040
:10A840000DECA8F07FC08FF080C090F081C091F037
:10A8500082C092F0000E0001936F000E946F200EE4
:10A86000956F410E966F42ECB3F08FC0CEF090C062
:10A87000CFF091C0D0F092C0D1F0CEC01AF0CFC0CE
:10A880001BF0D0C01CF0D1C01DF041ECEDF01AC09F
:10A89000CCF01BC0CDF0CCC01AF0CDC01BF0000E28
:10A8A0001D6E0A0E1C6EF8ECF2F01AC0BEF01BC052
:10A8B000BFF01200000E0001DB6F000EDA6F000E19
:10A8C000D96F1F0E33EC09F01A500001DA271B5024
:10A8D000DB23D92B090ED96570EFD4F072EFD4F0D9
:10A8E00061EFD4F0DAC0D2F0DBC0D3F0000ED56F48
:10A8F0000A0ED46F82ECFBF0D2C0DAF0D3C0DBF0EA
:10A900000001DB5109E1400EDA5DD8A08AEFD4F0F6
:10A910008CEFD4F09AEFD4F0DB5107E17B0EDA5DD7
:10A92000D8B095EFD4F097EFD4F09AEFD4F0010EB1
:10A930007CEFD5F0DB5109E19D0EDA5DD8A0A3EFE5
:10A94000D4F0A5EFD4F0B3EFD4F0DB5107E1D80E8B
:10A95000DA5DD8B0AEEFD4F0B0EFD4F0B3EFD4F00E
:10A96000020E7CEFD5F0DB5109E1FA0EDA5DD8A0DA
:10A97000BCEFD4F0BEEFD4F0CCEFD4F0350EDA5DFE
:10A98000010EDB59D8B0C7EFD4F0C9EFD4F0CCEF4B
:10A99000D4F0030E7CEFD5F0570EDA5D010EDB59D3
:10A9A000D8A0D5EFD4F0D7EFD4F0E5EFD4F0920EE5
:10A9B000DA5D010EDB59D8B0E0EFD4F0E2EFD4F06D
:10A9C000E5EFD4F0040E7CEFD5F0B40EDA5D010EA5
:10A9D000DB59D8A0EEEFD4F0F0EFD4F0FEEFD4F0D6
:10A9E000EF0EDA5D010EDB59D8B0F9EFD4F0FBEFD2
:10A9F000D4F0FEEFD4F0050E7CEFD5F0110EDA5D49
:10AA0000020EDB59D8A007EFD5F009EFD5F017EF0C
:10AA1000D5F04C0EDA5D020EDB59D8B012EFD5F04E
:10AA200014EFD5F017EFD5F0060E7CEFD5F06E0ED3
:10AA3000DA5D020EDB59D8A020EFD5F022EFD5F079
:10AA400030EFD5F0A90EDA5D020EDB59D8B02BEF4E
:10AA5000D5F02DEFD5F030EFD5F0070E7CEFD5F027
:10AA6000CB0EDA5D020EDB59D8A039EFD5F03BEF03
:10AA7000D5F049EFD5F0060EDA5D030EDB59D8B0FC
:10AA800044EFD5F046EFD5F049EFD5F0080E7CEF56
:10AA9000D5F0280EDA5D030EDB59D8A052EFD5F0C1
:10AAA00054EFD5F062EFD5F0630EDA5D030EDB599B
:10AAB000D8B05DEFD5F05FEFD5F062EFD5F0090EBD
:10AAC0007CEFD5F0850EDA5D030EDB59D8A06BEF75
:10AAD000D5F06DEFD5F07BEFD5F0C00EDA5D030E4B
:10AAE000DB59D8B076EFD5F078EFD5F07BEFD5F025
:10AAF0000A0E7CEFD5F0630E12000001BE29030E92
:10AB0000BF59D8A086EFD5F088EFD5F08EEFD5F0FD
:10AB1000000EBF6F640EBE6F96EFD6F0330E936FCC
:10AB2000330E946F530E956F400E966FBEC024F097
:10AB3000BFC025F0266A276A000E7CECDBF024C03B
:10AB40008FF025C090F026C091F027C092F042EC23
:10AB5000B3F08FC066F090C067F091C068F092C00B
:10AB600069F0000E00016A6FC00E6B6F7F0E6C6F94
:10AB7000440E6D6FD6ECC0F066C0CEF067C0CFF06B
:10AB800068C0D0F069C0D1F0CEC06AF0CFC06BF021
:10AB9000D0C06CF0D1C06DF0000E0001666FE80E01
:10ABA000676F000E686F470E696FD6ECC0F066C025
:10ABB0007FF067C080F068C081F069C082F0000E4D
:10ABC0000001836F400E846F1C0E856FC60E866F6A
:10ABD0000DECA8F07FC0C0F080C0C1F081C0C2F011
:10ABE00082C0C3F0000E00016A6F400E6B6F1C0E36
:10ABF0006C6F460E6D6FC0C066F0C1C067F0C2C01A
:10AC000068F0C3C069F0D6ECC0F066C0B8F067C0A9
:10AC1000B9F068C0BAF069C0BBF031ECDDF0B8C083
:10AC2000C8F0B9C0C9F0BAC0CAF0BBC0CBF0000EC2
:10AC30000001666F000E676F800E686F3F0E696FD0
:10AC40000F0E836FCF0E846F5B0E856F3B0E866F8A
:10AC50002C0E936FBB0E946F840E956F390E966F0A
:10AC6000C8C08FF0C9C090F0CAC091F0CBC092F0BC
:10AC700042ECB3F08FC07FF090C080F091C081F0C3
:10AC800092C082F00DECA8F07FC06AF080C06BF03B
:10AC900081C06CF082C06DF0D6ECC0F066C0C4F02C
:10ACA00067C0C5F068C0C6F069C0C7F0330E0001C8
:10ACB000836F930E846F880E856FC30E866FC4C03A
:10ACC0007FF0C5C080F0C6C081F0C7C082F00DEC37
:10ACD000A8F07FC08FF080C090F081C091F082C05A
:10ACE00092F0000E0001936F000E946F200E956F8E
:10ACF000410E966F42ECB3F08FC0CEF090C0CFF013
:10AD000091C0D0F092C0D1F0CEC01AF0CFC01BF0ED
:10AD1000D0C01CF0D1C01DF041ECEDF01AC0CCF059
:10AD20001BC0CDF0CCC0BEF0CDC0BFF01200A0EC77
:10AD30000AF0F28EF28C0400000E0001FC6F7C849D
:10AD40007C88000E1B6E320E1A6E98EC09F07C9413
:10AD50007C98000E1B6E320E1A6E98EC09F0000102
:10AD6000FC2B090EFC65B7EFD6F0B9EFD6F09FEFDC
:10AD7000D6F00400000E88ECF5F09EECFDF05AECE5
:10AD8000D4F00201A76F99EC07F0EBEC96F0040009
:10AD9000E70E286E020E296EF5ECFBF00201E85179
:10ADA000E7C2FAF00001FB6BFA27000EFB23020159
:10ADB000E9510001FA27000EFB230201EA510001CC
:10ADC000FA251A6E0201000E0001FB211B6E000E17
:10ADD0001D6E080E1C6EF8ECF2F01A500201896F1D
:10ADE00055ECC4F00F0E0201571909E1270E58194E
:10ADF000D8B4FDEFD6F0FFEFD6F013EFD7F08951BE
:10AE00005727000E58230F0E571907E1270E581920
:10AE1000D8A40DEFD7F00FEFD7F013EFD7F0270E30
:10AE2000586F0E0E576F0F0E551909E1270E561960
:10AE3000D8B41DEFD7F01FEFD7F033EFD7F089511B
:10AE40005527000E56230F0E551907E1270E5619E8
:10AE5000D8A42DEFD7F02FEFD7F033EFD7F0270E90
:10AE6000566F0E0E556F3AECE3F0720E1C6E030E29
:10AE70001D6E52EC06F0720E1A6E030E1B6E810EE2
:10AE80001C6EFF0E1D6E000E1F6E070E1E6E32EC46
:10AE9000F2F01A501B10D8A450EFD7F052EFD7F0B1
:10AEA00057EFD7F0010E02018A6F010EDF6F000E1F
:10AEB0001B6E1E0E1A6E000E1C6E070E62ECFCF06E
:10AEC000000E1B6E050E1A6E020E1C6E0A0E62EC50
:10AED000FCF0000E1B6E050E1A6E010E1C6E030EAA
:10AEE00062ECFCF0000E1B6E0A0E1A6E010E1C6E58
:10AEF0000C0E62ECFCF0000E1B6E640E1A6E000E5F
:10AF00001C6E130E62ECFCF0010E1A6E010E5EEC6C
:10AF100005F0040002ECC6F0120E0FEC0BF0000975
:10AF2000D8B495EFD7F097EFD7F089EFD7F0ADEC25
:10AF3000D7F02CECFCF015EC9DF08CECA0F0AAEC1A
:10AF4000A5F04DEC09F017ECBDF0C8ECEEF036ECD6
:10AF5000F7F089EFD7F0AEEF04F0110EBCEC07F07C
:10AF60000009D8B4B6EFD7F0B8EFD7F016EFD8F0A5
:10AF7000000E1B6E3C0E1A6E010E1C6E110E62EC62
:10AF8000FCF0EB0E1A6E020E1B6E3D0E1C6E000ED8
:10AF90001D6E98ECFEF02C6E040E2C18D8A4D3EF86
:10AFA000D7F0D5EFD7F0FAEFD7F04550D8B4DBEFB4
:10AFB000D7F0DDEFD7F0FAEFD7F00F0E02015719F7
:10AFC00009E1270E5819D8B4E8EFD7F0EAEFD7F027
:10AFD000ECEFD7F05B4B5C2B0F0E551909E1270EF8
:10AFE0005619D8B4F6EFD7F0F8EFD7F0FAEFD7F05C
:10AFF000594B5A2BC40E02013F5D090E4059D8B07F
:10B0000004EFD8F006EFD8F008EFD8F03F4B402B14
:10B010000F0E531909E1270E5419D8B412EFD8F0C6
:10B0200014EFD8F016EFD8F0514B522B110E0FEC55
:10B030000BF00009D8B41FEFD8F021EFD8F02AEFB9
:10B04000D8F0000E1B6E3C0E1A6E010E1C6E110E17
:10B0500062ECFCF0030EBCEC07F00009D8B433EF4F
:10B06000D8F035EFD8F041EFD8F0030E1B6EE80EA4
:10B070001A6E000E1C6E030E62ECFCF0010E020153
:10B08000916F1C0E0FEC0BF00009D8B44AEFD8F00A
:10B090004CEFD8F055EFD8F0070E1B6ED00E1A6E9D
:10B0A000000E1C6E1C0E62ECFCF01C0EBCEC07F0DB
:10B0B0000009D8B45EEFD8F060EFD8F06BEFD8F0AD
:10B0C00055ECC4F0070E1B6ED00E1A6E000E1C6EEF
:10B0D0001C0E62ECFCF00A0EBCEC07F00009D8B4C0
:10B0E00074EFD8F076EFD8F079EFD8F0000E0201C7
:10B0F000DE6F010EBCEC07F00009D8B482EFD8F087
:10B1000084EFD8F092EFD8F0000E1B6E080E1A6E86
:10B11000000E1C6E020E62ECFCF0000E1A6E010EA8
:10B120005EEC05F0020EBCEC07F00009D8B49BEF12
:10B13000D8F09DEFD8F0ABEFD8F0000E1B6E010EEB
:10B140001A6E000E1C6E010E62ECFCF0010E1A6EFF
:10B15000010E5EEC05F0BF0E206E020E216EA8C23D
:10B1600022F0E0ECF5F01200000E0001656F000E19
:10B17000646F030E686F000E616F000E606F000E4B
:10B18000676F000E666F25C762F0636B6251636F75
:10B19000626B070126510001621327C764F0656BDB
:10B1A0006451656F646B070128510001641340C04E
:10B1B00000F6030E0601016F0001645164250601CB
:10B1C000026F62C066F063C067F05AEFD9F0685151
:10B1D0002A6E2B6A020E2A26000E2B222BBEFAEFB5
:10B1E000D8F02B5009E17D0E2A5CD8A0FAEFD8F0F8
:10B1F000FCEFD8F0FEEFD8F0A8EFD9F0D890663584
:10B20000D96E6735DA6E000ED926030EDA22DE52C9
:10B21000DE04D8A00EEFD9F010EFD9F03DEFD9F051
:10B22000000E6825D96EDA6A060EDA22D8906635E5
:10B23000E16E6735E26E000EE126030EE222E6CFF4
:10B240002AF0E5CF2BF02BC02AF02B6A2A50DF6EB4
:10B25000682BD8906635D96E6735DA6E000ED92620
:10B26000030EDA22000E6825E16EE26A060EE22283
:10B27000DFCFE7FF682B58EFD9F0000E6825D96EB5
:10B28000DA6A060EDA22000EDF6E682BD890663579
:10B29000D96E6735DA6E000ED926030EDA22000E5B
:10B2A0006825E16EE26A060EE222DFCFE7FF682B37
:10B2B000664B672B0001645162252A6E655163213C
:10B2C0002B6E2A50665D2B506759D8A06AEFD9F0D3
:10B2D0006CEFD9F0E7EFD8F06851020FBEECEFF059
:10B2E0001AC060F01BC061F0000E00016825D96E25
:10B2F000DA6A060EDA226151DF6E682B000E6825CD
:10B30000D96EDA6A060EDA2260C0DFFF682B000E03
:10B31000676F000E666F99EFD9F0000E6625D96E43
:10B32000060E6721DA6EDF5035ECFEF00001664B49
:10B33000672B68512A6E2B6A66512A1807E16751FC
:10B340002B18D8A4A6EFD9F0A8EFD9F08DEFD9F03B
:10B350001200000E0001656F000E646F030E686F2F
:10B36000000E616F000E606F000E676F000E666F5B
:10B3700025C762F0636B6251636F626B07012651F0
:10B380000001621327C764F0656B6451656F646BDD
:10B39000070128510001641340C000F6040E0601A5
:10B3A000016F0001645164250601026F62C066F0FE
:10B3B00063C067F04FEFDAF068512A6E2B6A020E15
:10B3C0002A26000E2B222BBEEFEFD9F02B5009E1DD
:10B3D0007D0E2A5CD8A0EFEFD9F0F1EFD9F0F3EFB2
:10B3E000D9F09DEFDAF0D8906635D96E6735DA6E10
:10B3F000000ED926050EDA22DE52DE04D8A003EFB5
:10B40000DAF005EFDAF032EFDAF0000E6825D96EE7
:10B41000DA6A060EDA22D8906635E16E6735E26E9A
:10B42000000EE126050EE222E6CF2AF0E5CF2BF052
:10B430002BC02AF02B6A2A50DF6E682BD890663515
:10B44000D96E6735DA6E000ED926050EDA22000EA7
:10B450006825E16EE26A060EE222DFCFE7FF682B85
:10B460004DEFDAF0000E6825D96EDA6A060EDA22A0
:10B47000000EDF6E682BD8906635D96E6735DA6EB0
:10B48000000ED926050EDA22000E6825E16EE26A6A
:10B49000060EE222DFCFE7FF682B664B672B000129
:10B4A000645162252A6E655163212B6E2A50665DB8
:10B4B0002B506759D8A05FEFDAF061EFDAF0DCEFDC
:10B4C000D9F06851020FBEECEFF01AC060F01BC05B
:10B4D00061F0000E00016825D96EDA6A060EDA22E4
:10B4E0006151DF6E682B000E6825D96EDA6A060E90
:10B4F000DA2260C0DFFF682B000E676F000E666FF8
:10B500008EEFDAF0000E6625D96E060E6721DA6E30
:10B51000DF5035ECFEF00001664B672B68512A6E58
:10B520002B6A66512A1807E167512B18D8A49BEFA4
:10B53000DAF09DEFDAF082EFDAF0120020C0D9FFE6
:10B5400021C0DAFFDF50D8A4A8EFDAF0AAEFDAF0D2
:10B550005DEFDBF002016A51D8B4B1EFDAF0B3EF7E
:10B56000DAF05DEFDBF0000E6A6F000E6DEC0DF0AF
:10B57000000E1A6E040EB7EC0CF05DEFDBF020C08D
:10B58000D9FF21C0DAFFDE04D8A4C9EFDAF0CBEF8F
:10B59000DAF079EFDBF06A2B000E1B6E140E1A6ED8
:10B5A000010E1C6E0D0E62ECFCF079EFDBF0E4C2D4
:10B5B00038F0E3C237F00D0EBCEC07F00009D8B448
:10B5C000E4EFDAF0E6EFDAF079EFDBF002016A2B74
:10B5D00079EFDBF0010E6DEC0DF0010E1A6E040E2A
:10B5E000B7EC0CF043C01AF01B6A010E1C6E170E6C
:10B5F00062ECFCF0E6EFDAF0170EBCEC07F00009A5
:10B60000D8B405EFDBF007EFDBF079EFDBF0000EED
:10B610006DEC0DF0000E1A6E040EB7EC0CF002018A
:10B620006A2B000E1B6E080E1A6E020E1C6E170E91
:10B6300062ECFCF079EFDBF0170EBCEC07F00009D0
:10B64000D8B425EFDBF027EFDBF079EFDBF0010E6C
:10B650006DEC0DF0010E1A6E040EB7EC0CF0020149
:10B660006A2B4350030DF3CF1AF0F4CF1BF0010EF9
:10B670001C6E170E62ECFCF079EFDBF0170EBCECE1
:10B6800007F00009D8B447EFDBF049EFDBF079EFC2
:10B69000DBF0000E6DEC0DF0000E1A6E040EB7EC30
:10B6A0000CF0000E02016A6F20C0D9FF21C0DAFF42
:10B6B000000EDF6EFF0E7BEFDBF002016A51000A25
:10B6C000D8B4BFEFDAF0010AD8B4D7EFDAF0030A42
:10B6D000D8B4EAEFDAF0010AD8B4FCEFDAF0070ADE
:10B6E000D8B41CEFDBF0010AD8B43EEFDBF079EF01
:10B6F000DBF002016A5112000001606F000160512D
:10B70000D8B485EFDBF087EFDBF0A9EFDBF027BEE5
:10B710008EEFDBF08CEFDBF0A9EFDBF024C028F03C
:10B7200025C029F026C02AF027C02BF0281E291E8C
:10B730002A1E2B1E282A000E29222A222B2228C04C
:10B7400062F029C063F02AC064F02BC065F0B1EF4D
:10B75000DBF024C062F025C063F026C064F027C08F
:10B7600065F02450251026102710D8A4BAEFDBF07E
:10B77000BCEFDBF0C6EFDBF0000E246E000E256E92
:10B78000000E266E000E276E57EFDCF0960E616FEE
:10B79000D0EFDBF0612BD8906533643363336233D1
:10B7A000000E6215286E000E6315296E000E6415DA
:10B7B0002A6EFE0E65152B6E285029102A102B10AC
:10B7C000D8A4E5EFDBF0E7EFDBF0CAEFDBF0F5EF55
:10B7D000DBF0612B010E6227000E632364236523D7
:10B7E000D8906533643363336233000E6215286E7C
:10B7F000000E6315296E000E64152A6EFF0E651586
:10B800002B6E285029102A102B10D8A40AEFDCF038
:10B810000CEFDCF0E9EFDBF014EFDCF06107D8901F
:10B82000623763376437653764BF19EFDCF01BEFAD
:10B83000DCF023EFDCF0020E616121EFDCF023EF9E
:10B84000DCF00EEFDCF061B128EFDCF02AEFDCF089
:10B850002BEFDCF0649FD890613361C028F0296A37
:10B860002A6A2B6A28C02BF02A6A296A286A28507B
:10B870006213295063132A5064132B5065136051CF
:10B88000D8B445EFDCF047EFDCF04FEFDCF027BE3B
:10B890004EEFDCF04CEFDCF04FEFDCF0658F62C078
:10B8A00024F063C025F064C026F065C027F01200C4
:10B8B00020C0D9FF21C0DAFFDF50D8A462EFDCF04E
:10B8C00064EFDCF020EFDDF002015E51D8B46BEFE5
:10B8D000DCF06DEFDCF020EFDDF0000E5E6F000EAF
:10B8E0001A6E060EB7EC0CF020EFDDF020C0D9FF89
:10B8F00021C0DAFFDE04D8A480EFDCF082EFDCF0B8
:10B9000030EFDDF002015E2B30EFDDF02250231826
:10B91000D8A48DEFDCF08FEFDCF09AEFDCF0000EB6
:10B9200002015E6F20C0D9FF21C0DAFF000EDF6E7A
:10B9300030EFDDF02250235CD8B0A1EFDCF0A3EFB4
:10B94000DCF0ADEFDCF0020E1A6E060EB7EC0CF078
:10B95000000E02015D6FB5EFDCF0010E1A6E060EEF
:10B96000B7EC0CF0010E02015D6F000E1B6EB40E01
:10B970001A6E010E1C6E060E62ECFCF082EFDCF01B
:10B980005D51D8A4C6EFDCF0C8EFDCF0F0EFDCF0DE
:10B990002250235CD8A0CFEFDCF0D1EFDCF0DEEF5B
:10B9A000DCF0000E1A6E060EB7EC0CF0000E020171
:10B9B0005E6F060EFEEC0BF092EFDCF0060EBCECB8
:10B9C00007F00009D8B4E7EFDCF0E9EFDCF030EF86
:10B9D000DDF0000E1A6E060EB7EC0CF08FEFDCF007
:10B9E0005D05D8A4F6EFDCF0F8EFDCF030EFDDF029
:10B9F0002350225CD8A0FFEFDCF001EFDDF00EEF6A
:10BA0000DDF0000E1A6E060EB7EC0CF0000E02010F
:10BA10005E6F060EFEEC0BF092EFDCF0060EBCEC57
:10BA200007F00009D8B417EFDDF019EFDDF030EFC3
:10BA3000DDF0000E1A6E060EB7EC0CF08FEFDCF0A6
:10BA400002015E51000AD8B476EFDCF0010AD8B4E6
:10BA500086EFDCF0030AD8B4C0EFDCF030EFDDF0A5
:10BA600012000001BBBF39EFDDF037EFDDF049EF29
:10BA7000DDF0000E03016D6F210E6C6F000E0001F2
:10BA8000B86F000EB96F000EBA6F000EBB6F05EFF6
:10BA9000DEF0B8C01AF0B9C01BF0BAC01CF0BBC0D1
:10BAA0001DF0000E1E6E000E1F6E000E206E000EAA
:10BAB000216E8EECF6F0D8A060EFDDF062EFDDF0E5
:10BAC00072EFDDF0000E03016D6F220E6C6F000E41
:10BAD0000001B86F000EB96F000EBA6F000EBB6F99
:10BAE00005EFDEF0000E0001936F000E946F000E64
:10BAF000956F400E966FBC0E2A6E000E2B6EB8C06E
:10BB000026F0B9C027F0BAC028F0BBC029F0CEECAF
:10BB1000F1F026C08FF027C090F028C091F029C026
:10BB200092F042ECB3F08FC07FF090C080F091C0F3
:10BB300081F092C082F0000E0001836F000E846FCE
:10BB4000800E856FBF0E866F0DECA8F07FC0B8F039
:10BB500080C0B9F081C0BAF082C0BBF00001BC0760
:10BB6000D8A0BD07B8C0A8F0B9C0A9F0BAC0AAF063
:10BB7000BBC0ABF04D0EAC6FF70EAD6F000EAF6FEC
:10BB8000080EAE6F46ECEEF0A8C0B8F0A9C0B9F050
:10BB9000AAC0BAF0ABC0BBF0180E0001936F720ED2
:10BBA000946F310E956F3F0E966FBCC024F0BDC0F0
:10BBB00025F0000E25BEFF0E266E276E010E7CECD2
:10BBC000DBF024C08FF025C090F026C091F027C094
:10BBD00092F042ECB3F08FC07FF090C080F091C043
:10BBE00081F092C082F0B8C083F0B9C084F0BAC0CE
:10BBF00085F0BBC086F00DECA8F07FC0B8F080C027
:10BC0000B9F081C0BAF082C0BBF01200240E01016D
:10BC1000006F240E016F260E026F400E036F000EA0
:10BC20002B6F000E046F000E056F000E066F000EE6
:10BC3000076FBAC208F130C209F131C20AF132C24B
:10BC40000BF133C20CF140C00DF147C2BEF048C247
:10BC5000BFF07DECD5F0BEC029F1BFC02AF129C1EB
:10BC60000EF12AC10FF145C2BEF046C2BFF07DEC15
:10BC7000D5F0BEC029F1BFC02AF129C110F12AC1F7
:10BC800011F102015951555D0001D26F02015A5163
:10BC900056590001D36F000ED56F0A0ED46F82EC97
:10BCA000FBF00001D2510101126F43C013F10201F8
:10BCB0005151535D0001D26F02015251545900019C
:10BCC000D36F000ED56F0A0ED46F82ECFBF000012B
:10BCD000D2510101146FE2C215F187C216F1D00EE4
:10BCE00002018725D96EDA6A020EDA22DF500101DD
:10BCF000176F000E186F000E196F000E1A6F000EEE
:10BD00001B6F000E1C6F000E1D6F000E1E6F000ECD
:10BD10001F6F000E206F030E216F88C222F14FC2E9
:10BD20002BF12BC123F13FC2D2F040C2D3F0000E61
:10BD30000001D56F0A0ED46F82ECFBF00001D251E6
:10BD40000101246F000E286F000E2B6F2B51000194
:10BD5000D96FDA6B040ED927000EDA23000ED9252D
:10BD6000D96E010EDA21DA6EDF500101281B2B2B70
:10BD7000200E2B65BEEFDEF0C0EFDEF0A6EFDEF0AA
:10BD800028C125F10D0E266F0A0E276F000E1B6EBF
:10BD9000010E1C6E280E1D6E76EC07F01200286E48
:10BDA0002850D8A4D6EFDEF0D8EFDEF071EFDFF048
:10BDB000000E0201666F71EFDFF02804D8A4E3EFF4
:10BDC000DEF0E5EFDEF08DEFDFF00201662B8DEFA8
:10BDD000DFF0010E3A6E010E396E662B62C065F21D
:10BDE00063C064F2010E1B6E2C0E1A6E010E1C6EE7
:10BDF0001B0E62ECFCF08DEFDFF03A0E216E000EB0
:10BE0000226E60C023F0F7ECAEF0390E216E000E0A
:10BE1000226E61C023F0CEECACF03A50D8A413EF00
:10BE2000DFF015EFDFF028EFDFF03950D8A41BEF7B
:10BE3000DFF01DEFDFF028EFDFF00201662B65C2B7
:10BE400038F064C237F01B0EFEEC0BF08DEFDFF024
:10BE50001B0EBCEC07F00009D8B431EFDFF033EF74
:10BE6000DFF08DEFDFF03A50D8B439EFDFF03BEF81
:10BE7000DFF03FEFDFF002013081000E3A6E395003
:10BE8000D8B445EFDFF047EFDFF0E5EFDEF0020179
:10BE90003083000E396EE5EFDEF00001645165116C
:10BEA000D8B455EFDFF057EFDFF08DEFDFF064C06F
:10BEB0001AF065C01BF0020E1C6E0E0E62ECFCF058
:10BEC000E5EFDEF00E0EBCEC07F00009D8B46BEF26
:10BED000DFF06DEFDFF08DEFDFF0020166698DEFCF
:10BEE000DFF002016651000AD8B4DDEFDEF0010A8E
:10BEF000D8B4E9EFDEF0030AD8B4FDEFDEF0010AB2
:10BF0000D8B44DEFDFF0070AD8B462EFDFF0FB0AD8
:10BF1000D8B48DEFDFF08DEFDFF002016651120033
:10BF2000D9C0BEF0DAC0BFF036ECD3F0BEC0EBF043
:10BF3000BFC0ECF0000E0001ED6FED51020DC40E1C
:10BF4000F324D96E020EF420DA6EEB51DE5CDE5083
:10BF5000800ADD6FEC51800ADD59D8B0B2EFDFF016
:10BF6000B4EFDFF0B6EFDFF0BFEFDFF0ED2B050E43
:10BF7000ED65BDEFDFF0BFEFDFF09DEFDFF0ED51DE
:10BF8000D8A4C5EFDFF0C7EFDFF0CDEFDFF0000E94
:10BF9000DA6F640ED96F4FEFE0F0ED51DB6FDC6BC1
:10BFA000D890DB37DC37C20EDB25D96E020EDC21E0
:10BFB000DA6EDECFDDF0DDCFDEF0EB51DD5DE76F79
:10BFC000EC51DE59E86FED51DB6FDC6BD890DB375D
:10BFD000DC37D40EDB25D96E030EDC21DA6EDECF22
:10BFE000DDF0DDCFDEF0ED51020DD60EF324D96E7B
:10BFF000030EF420DA6EDECFDFF0DDCFE0F0DD51AE
:10C00000DF5D226EDE51E059236EE7C024F0E8C008
:10C0100025F073EC0BF022C0D2F023C0D3F0000166
:10C02000ED51020DC40EF324D96E020EF420DA6E27
:10C03000DECFE1F0DDCFE2F0ED51E36FE46BD890BD
:10C04000E337E437C20EE325D96E020EE421DA6E3F
:10C05000DECFE5F0DDCFE6F0E151E55DD46FE251F2
:10C06000E659D56F82ECFBF0D2C0E9F0D3C0EAF01C
:10C070000001ED51DB6FDC6BD890DB37DC37D40E81
:10C08000DB25D96E030EDC21DA6EDECFDDF0DDCFED
:10C09000DEF0E951DD25D96FEA51DE21DA6F1200B9
:10C0A000D9C0BEF0DAC0BFF036ECD3F0BEC0EBF0C2
:10C0B000BFC0ECF0000E0001ED6FED51020DC40E9B
:10C0C000F324D96E020EF420DA6EEB51DE5CDE5002
:10C0D000800ADD6FEC51800ADD59D8B072EFE0F0D4
:10C0E00074EFE0F076EFE0F07FEFE0F0ED2B050E7F
:10C0F000ED657DEFE0F07FEFE0F05DEFE0F0ED511A
:10C10000D8A485EFE0F087EFE0F08DEFE0F0000ECF
:10C11000DA6F640ED96F0FEFE1F0ED51DB6FDC6B7E
:10C12000D890DB37DC37C20EDB25D96E020EDC215E
:10C13000DA6EDECFDDF0DDCFDEF0EB51DD5DE76FF7
:10C14000EC51DE59E86FED51020DE20EF324D96E89
:10C15000030EF420DA6EDECFDBF0DDCFDCF0ED5144
:10C16000DD6FDE6BD890DD37DE37E00EDD25D96E72
:10C17000030EDE21DA6EDECFDFF0DDCFE0F0DB5143
:10C18000DF5D226EDC51E059236EE7C024F0E8C089
:10C1900025F073EC0BF022C0D2F023C0D3F00001E5
:10C1A000ED51020DC40EF324D96E020EF420DA6EA6
:10C1B000DECFE1F0DDCFE2F0ED51E36FE46BD8903C
:10C1C000E337E437C20EE325D96E020EE421DA6EBE
:10C1D000DECFE5F0DDCFE6F0E151E55DD46FE25171
:10C1E000E659D56F82ECFBF0D2C0E9F0D3C0EAF09B
:10C1F0000001ED51DB6FDC6BD890DB37DC37E00EF4
:10C20000DB25D96E030EDC21DA6EDECFDDF0DDCF6B
:10C21000DEF0E951DD5DD96FEA51DE59DA6F1200C7
:10C2200000016C6F080EBCEC07F00009D8B41BEFDE
:10C23000E1F01DEFE1F024EFE1F0010E0201DA6F11
:10C24000000E776F000E7A6F02017A51D8B42BEF8F
:10C25000E1F02DEFE1F03AEFE1F0745100016C19DB
:10C26000D8B435EFE1F037EFE1F03AEFE1F0000E4E
:10C27000CCEFE1F00201DA51D8B441EFE1F043EF45
:10C28000E1F061EFE1F000016C516619D8A44BEFC9
:10C29000E1F04DEFE1F037EFE1F0000E1B6E640EC0
:10C2A0001A6E000E1C6E080E62ECFCF06CC074F28C
:10C2B000000E0201DA6F010E7A6F000E776F37EF12
:10C2C000E1F07A51D8B467EFE1F069EFE1F0C6EF41
:10C2D000E1F000016B516619D8A471EFE1F073EF42
:10C2E000E1F0A0EFE1F0A00E02017725D96EDA6A45
:10C2F000080EDA2266C0DFFF69C0D9FF6AC0DAFF24
:10C3000077C2DFFF67C060F068C061F0A00E000177
:10C31000626F080E636F010E020177250001646FE2
:10C32000656B000E6523B3EC05F0010E0201DA6FB8
:10C33000000E7A6F080EFEEC0BF0010ECCEFE1F070
:10C34000000E1B6E640E1A6E000E1C6E080E62EC60
:10C35000FCF0A00E02017725D96EDA6A080EDA2207
:10C3600066C0DFFF772B360E7765B9EFE1F0BBEFE4
:10C37000E1F037EFE1F0010EDA6F000E776F000E9B
:10C380007A6F080EFEEC0BF037EFE1F0010EDA6F7A
:10C39000000E7A6F37EFE1F01200000E2B6E000EE8
:10C3A0002A6E070E296ED00E286E09EFE2F0040007
:10C3B000150E1B6EC60EE82EFED71B2EFCD700D026
:10C3C0002806D8A0290674EC0CF00009D8B4EBEFCD
:10C3D000E1F0EDEFE1F009EFE2F057ECFFF01B6E5A
:10C3E0001E0E2A24D96E000E2B20DA6E1BC0DFFF32
:10C3F0002A4A2B2A2B5009E10A0E2A5CD8A003EF07
:10C40000E2F005EFE2F009EFE2F0000E2B6E000E15
:10C410002A6E28502910D8B410EFE2F012EFE2F0A3
:10C420007BEFE2F0FB0E2A241B6EFF0E2B201C6E0E
:10C430001E0E1B24D96E000E1C20DA6E430EDE1871
:10C44000D8B425EFE2F027EFE2F07BEFE2F0FC0E4C
:10C450002A241B6EFF0E2B201C6E1E0E1B24D96E71
:10C46000000E1C20DA6E4D0EDE18D8B43AEFE2F062
:10C470003CEFE2F07BEFE2F0FD0E2A241B6EFF0E94
:10C480002B201C6E1E0E1B24D96E000E1C20DA6E93
:10C49000440EDE18D8B44FEFE2F051EFE2F07BEF3C
:10C4A000E2F0FE0E2A241B6EFF0E2B201C6E1E0EC9
:10C4B0001B24D96E000E1C20DA6E3E0EDE18D8B496
:10C4C00064EFE2F066EFE2F07BEFE2F0FF0E2A2489
:10C4D0001B6EFF0E2B201C6E1E0E1B24D96E000E31
:10C4E0001C20DA6E200EDE18D8A479EFE2F07BEF84
:10C4F000E2F0D7EFE1F028502910D8B482EFE2F053
:10C5000084EFE2F087EFE2F0010E88EFE2F0000E38
:10C510001200000E0001A36F000EA26F2D0E050188
:10C52000A46F2D0EA56F2D0EA66F0D0EA76FA40E76
:10C530001B6E050E1C6E040E1D6EDFEC07F0010E67
:10C540000001A16FF40EA06FD9EFE2F0150E1F6E7F
:10C55000C60EE82EFED71F2EFCD700D00001A00784
:10C56000D8A0A10774EC0CF00009D8B4BAEFE2F03F
:10C57000BCEFE2F0D9EFE2F057ECFFF01F6E600E77
:10C580000001A225D96E000EA321DA6E1FC0DFFFC5
:10C59000A24BA32BA35109E1400EA25DD8A0D3EF7B
:10C5A000E2F0D5EFE2F0D9EFE2F0000EA36F000E5B
:10C5B000A26F0001A051A111D8B4E1EFE2F0E3EFC6
:10C5C000E2F039EFE3F0FC0EA2251F6EFF0EA3216F
:10C5D000206E600E1F24D96E000E2020DA6E450EEC
:10C5E000DE18D8B4F6EFE2F0F8EFE2F039EFE3F05E
:10C5F000FD0EA2251F6EFF0EA321206E600E1F24CC
:10C60000D96E000E2020DA6E4E0EDE18D8B40BEF75
:10C61000E3F00DEFE3F039EFE3F0FE0EA2251F6E1D
:10C62000FF0EA321206E600E1F24D96E000E202065
:10C63000DA6E440EDE18D8B420EFE3F022EFE3F018
:10C6400039EFE3F0FF0EA2251F6EFF0EA321206E2F
:10C65000600E1F24D96E000E2020DA6E0D0EDE183B
:10C66000D8A435EFE3F037EFE3F0A6EFE2F039EFCF
:10C67000E3F0120024EEB4F011EE53F0080EDBCF1D
:10C68000E3FFE806FCE247EFE3F057ECFFF074EC61
:10C690000CF00009D8A44FEFE3F051EFE3F045EFC1
:10C6A000E3F067ECFEF024EC0BF00400310E000127
:10C6B000EB6FB40EEA6F650EE82EFED7EA2FFCD7BB
:10C6C000EB2FFAD700D0040068EFE3F057ECFFF04F
:10C6D00074EC0CF00009D8A470EFE3F072EFE3F013
:10C6E00066EFE3F067ECFEF00400000E0101766FE8
:10C6F000080E756F76C170F1080E716F5C0E006FD9
:10C70000010E016F650E026FFB0E036F70C104F125
:10C71000056B71C106F1076B2CECA3F05C0E0001F8
:10C72000786F010E796F040E7A6F01ECFAF0040055
:10C730005C0E1A6E010E1B6E530E1C6E010E1D6EEA
:10C74000000E1F6E080E1E6E7DECF9F0000E01014A
:10C75000646F2C0E006F010E016F5D0E026FFB0EF9
:10C76000036FE7C204F1056BE8C206F1076BE9C28B
:10C7700008F1096BEAC20AF10B6B2CECA3F05C0E1A
:10C780001A6E010E1B6E2C0E1C6E010E1D6E86ECB9
:10C79000FFF004005C0E0001786F010E796F100E3F
:10C7A0007A6FBFECF9F0040089ECE2F0090E0001A9
:10C7B000EB6F1E0EEA6FE40EE82EFED7EA2FFCD7D1
:10C7C000EB2FFAD700F09EEC06F01200000E256E5B
:10C7D000000E8EB0010E266ED89026368EB2F3EF84
:10C7E000E3F0F6EFE3F0010EF7EFE3F0000E26269C
:10C7F0001AC0D9FF1BC0DAFF2650DE18D8B403EFE9
:10C80000E4F005EFE4F006EFE4F025801AC0D9FF6C
:10C810001BC0DAFF26C0DFFF000E8EB4010E266EAD
:10C82000D89026368EB617EFE4F01AEFE4F0010E3A
:10C830001BEFE4F0000E26261CC0D9FF1DC0DAFF56
:10C840002650DE18D8B427EFE4F029EFE4F02AEF01
:10C85000E4F025821CC0D9FF1DC0DAFF26C0DFFF2F
:10C86000000E8DBE010E266E1EC0D9FF1FC0DAFF5E
:10C870002650DE18D8B43FEFE4F041EFE4F042EF89
:10C88000E4F025841EC0D9FF1FC0DAFF26C0DFFFF9
:10C89000000E8EB8010E266ED89026368EBA53EF53
:10C8A000E4F056EFE4F0010E57EFE4F0000E262618
:10C8B00020C0D9FF21C0DAFF2650DE18D8B463EFBC
:10C8C000E4F065EFE4F066EFE4F0258620C0D9FFE0
:10C8D00021C0DAFF26C0DFFF000E8EBC010E266EDF
:10C8E000D89026368EBE77EFE4F07AEFE4F0010EB2
:10C8F0007BEFE4F0000E262622C0D9FF23C0DAFF2A
:10C900002650DE18D8B487EFE4F089EFE4F08AEF20
:10C91000E4F0258822C0D9FF23C0DAFF26C0DFFF5C
:10C9200025501200060E33EC09F002017B51020D76
:10C93000D10EF324D96E060EF420DA6E1AC0DEFF93
:10C940001BC0DDFF070E33EC09F002017B51020D25
:10C95000BD0EF324D96E060EF420DA6E1AC0DEFF87
:10C960001BC0DDFF7B2B0A0E7B19D8A4BAEFE4F0C5
:10C97000BCEFE4F0BEEFE4F0000E7B6F000E0001B0
:10C98000DF6F000EDE6F000EDD6FDD51020DD10E88
:10C99000F324D96E060EF420DA6EDE50DE27DD5069
:10C9A000DF23DD2B090EDD65D8EFE4F0DAEFE4F0EC
:10C9B000C5EFE4F0DEC022F0DFC023F0000E256EEC
:10C9C0000A0E246E73EC0BF022C0DEF023C0DFF001
:10C9D000DEC0D2F0DFC0D3F0030E0001D56FD46902
:10C9E00082ECFBF0D2C0DEF0D3C0DFF0D9C0D9FFBB
:10C9F000DAC0DAFFDEC0DFFF000E0001DF6F000EDD
:10CA0000DE6F000EDD6FDD51020DBD0EF324D96E19
:10CA1000060EF420DA6EDE50DE27DD50DF23DD2B3C
:10CA2000090EDD6516EFE5F018EFE5F003EFE5F030
:10CA3000DEC022F0DFC023F0000E256E0A0E246E49
:10CA400073EC0BF022C0DEF023C0DFF0DEC0D2F0CA
:10CA5000DFC0D3F0030E0001D56FD46982ECFBF088
:10CA6000D2C0DEF0D3C0DFF0DBC0D9FFDCC0DAFF1C
:10CA7000DEC0DFFF1200000E0001606F000E616F6C
:10CA8000000E776F000E766F050E756FDC0E746FFB
:10CA900076EFE5F07407D8A07507150E1B6EC60E6D
:10CAA000E82EFED71B2EFCD700D074EC0CF000094A
:10CAB000D8B45DEFE5F05FEFE5F076EFE5F057EC29
:10CAC000FFF01B6E600E00017725D96EDA6A000E4A
:10CAD000DA221BC0DFFF772B130E776572EFE5F0CC
:10CAE00074EFE5F076EFE5F0000E776F000174511A
:10CAF0007511D8B47EEFE5F080EFE5F0C7EFE5F013
:10CB0000FF0E77251B6E1C6AFF0E1C22600E1B2475
:10CB1000D96E000E1C20DA6E0A0EDE18D8A493EF30
:10CB2000E5F095EFE5F04AEFE5F0C7EFE5F04F0EE1
:10CB30006119D8A49EEFE5F0A0EFE5F0D4EFE5F0A1
:10CB40004B0E6219D8A4A7EFE5F0A9EFE5F0D4EFFA
:10CB5000E5F0010E766FD4EFE5F0720E6119D8A4FE
:10CB6000B4EFE5F0B6EFE5F0D4EFE5F0720E621940
:10CB7000D8A4BDEFE5F0BFEFE5F0D4EFE5F0000E8F
:10CB8000766FD4EFE5F000017651E0EFE5F060510B
:10CB9000410AD8B497EFE5F0040AD8B4ADEFE5F058
:10CBA000C3EFE5F057ECFFF074EC0CF00009D8A4EB
:10CBB000DCEFE5F0DEEFE5F0D2EFE5F0C3EFE5F016
:10CBC00012008FC026F090C027F091C028F092C0CC
:10CBD00029F0970E2A6E000E2B6ECEECF1F00001BC
:10CBE00098BFF7EFE5F0F5EFE5F012EFE6F092BF52
:10CBF000FEEFE5F0FCEFE5F008EFE6F0000E8F6FDA
:10CC0000000E906F800E916FBF0E926F82EFE6F074
:10CC1000000E8F6F000E906F000E916F000E926FDE
:10CC200082EFE6F0985109E11D0E975DD8A01BEF49
:10CC3000E6F01DEFE6F027EFE6F08FC08FF090C032
:10CC400090F091C091F092C092F082EFE6F08FC028
:10CC50001AF090C01BF091C01CF092C01DF041EC86
:10CC6000EDF01AC024F01BC025F01CC026F01DC03A
:10CC700027F0010E7CECDBF024C093F025C094F08B
:10CC800026C095F027C096F08FC01AF090C01BF018
:10CC900091C01CF092C01DF093C01EF094C01FF014
:10CCA00095C020F096C021F0C4ECEDF0D8B05BEF59
:10CCB000E6F05DEFE6F07AEFE6F093C07FF094C027
:10CCC00080F095C081F096C082F0000E0001836F65
:10CCD000000E846F800E856FBF0E866F0DECA8F07E
:10CCE0007FC08FF080C090F081C091F082C092F040
:10CCF00082EFE6F093C08FF094C090F095C091F071
:10CD000096C092F01200B8C01AF0B9C01BF0BAC0B9
:10CD10001CF0BBC01DF0000E1E6E000E1F6E000E3C
:10CD2000206E000E216E8EECF6F0D8A09AEFE6F0A1
:10CD30009CEFE6F0A7EFE6F0000E0001B86F000EE2
:10CD4000B96F000EBA6F000EBB6F22EFE7F0000163
:10CD5000BB517F0BBE6FBF6BD890BE37BF37BE5184
:10CD6000BC27BF51BD23BABFB8EFE6F0BCEFE6F079
:10CD7000BE6BBE2BBEEFE6F00001BE6BBE51BC2702
:10CD8000000EBD23BDBFC9EFE6F0C7EFE6F0D9EF57
:10CD9000E6F0000E03016D6F220E6C6F000E0001B5
:10CDA000B86F000EB96F000EBA6F000EBB6F22EFA6
:10CDB000E7F0BDBFE2EFE6F0BD05D8A0E2EFE6F098
:10CDC000E4EFE6F005EFE7F0000E03016D6F220ED1
:10CDD0006C6F0001BBBFF1EFE6F0EFEFE6F0FBEFA9
:10CDE000E6F0FF0EB86FFF0EB96F7F0EBA6FFF0E41
:10CDF000BB6F22EFE7F0FF0EB86FFF0EB96F7F0E2B
:10CE0000BA6F7F0EBB6F22EFE7F0BD35BD31BF6F4C
:10CE1000BC31BE6FBB51BE19800BBE19BB6FBCC00D
:10CE2000BEF0010EBE17BE33BE33BA51BE197F0B22
:10CE3000BE19BA6FB8C0B8F0B9C0B9F0BAC0BAF08C
:10CE4000BBC0BBF01200000E0001636F000E626FEA
:10CE5000000E6F6F000E6E6F000E696F000E686F30
:10CE6000000E656F000E646F000E676F000E666F38
:10CE7000000E6D6F000E6C6F000E6B6F000E6A6F10
:10CE800025C76EF06F6B6E516F6F6E6B0701265189
:10CE900000016E1326C760F0616B25C762F0636BFB
:10CEA00027C768F0696B6851696F686B0701285183
:10CEB0000001681328C764F0656B27C766F0676BCD
:10CEC0006F5107E10A0E6E5DD8B069EFE7F06BEFC6
:10CED000E7F0BBEFE7F068516911D8B472EFE7F003
:10CEE00074EFE7F07EEFE7F0500E6E25D96E040E7A
:10CEF0006F21DA6EFF0EDF6E86EFE7F0500E6E25C3
:10CF0000D96E040E6F21DA6E000EDF6E40C000F69F
:10CF1000020E0601016F60C003F662C002F666C031
:10CF200004F664C005F6080EBEECEFF01AC06AF015
:10CF30001BC06BF000016B510601066F6AC007F65B
:10CF4000000E00016D6F000E6C6F000E6C25D96E27
:10CF5000060E6D21DA6EDF5035ECFEF000016C4BF1
:10CF60006D2B090E6C196D11D8A4B9EFE7F0BBEF6A
:10CF7000E7F0A5EFE7F01200000E0001DE6F000EF3
:10CF8000DD6F000EDF6F320E33EC09F01A50000136
:10CF9000DD271B50DE23DF2B090EDF65D2EFE7F024
:10CFA000D4EFE7F0C3EFE7F0DDC0D2F0DEC0D3F09E
:10CFB000000ED56F0A0ED46F82ECFBF0D2C0DDF00C
:10CFC000D3C0DEF0040E0001DE5DD8A0EAEFE7F08A
:10CFD000ECEFE7F0EFEFE7F0030EDE6FDD69020143
:10CFE0007C51020D000EF324D96E090EF420DA6E86
:10CFF000DDC0DEFFDEC0DDFF7C2B280E7C19D8A44F
:10D0000004EFE8F006EFE8F008EFE8F0000E7C6FC0
:10D01000000E0001DE6F000EDD6F000EDF6FDF51CE
:10D02000020D000EF324D96E090EF420DA6EDE52E2
:10D03000040EDE5CD8A01FEFE8F021EFE8F02DEF42
:10D04000E8F0DF51020D000EF324D96E090EF42032
:10D05000DA6EFF0EDE6E030EDD6EDF51020D000E86
:10D06000F324D96E090EF420DA6EDE50DD27DD5090
:10D07000DE23DF2B270EDF6540EFE8F042EFE8F01C
:10D080000FEFE8F0DDC0D2F0DEC0D3F0000ED56FB8
:10D09000280ED46F82ECFBF0D2C0DDF0D3C0DEF0FE
:10D0A000DDC0D9F0DEC0DAF0120000016C6F0201C1
:10D0B0007951D8B45EEFE8F060EFE8F06DEFE8F09A
:10D0C000735100016C19D8B468EFE8F06AEFE8F02A
:10D0D0006DEFE8F0000EE7EFE8F00201D951D8B4A7
:10D0E00074EFE8F076EFE8F08BEFE8F000016C51B8
:10D0F0006619D8A47EEFE8F080EFE8F06AEFE8F078
:10D100006CC073F2000E0201D96F010E796F000E30
:10D11000766F6AEFE8F07951D8B491EFE8F093EFC9
:10D12000E8F0E1EFE8F000016B516619D8A49BEF3D
:10D13000E8F09DEFE8F0C7EFE8F0C20E02017625B7
:10D14000D96EDA6A090EDA2266C0DFFF69C0D9FF3C
:10D150006AC0DAFF76C2DFFF67C060F068C061F0C6
:10D16000C20E0001626F090E636F010E0201762587
:10D170000001646F656B000E6523B3EC05F0010ED2
:10D180000201D96F000E796F010EE7EFE8F0C20ED1
:10D1900002017625D96EDA6A090EDA2266C0DFFF4F
:10D1A000762B360E7665D7EFE8F0D9EFE8F06AEF28
:10D1B000E8F0010ED96F000E766F000E796F6AEFFE
:10D1C000E8F0010ED96F000E796F6AEFE8F01200F7
:10D1D0001D6E24682568000E216E000E206E000E64
:10D1E000236E000E226E000E276E000E266E28EFB4
:10D1F000E9F0230E2624D96E070E2720DA6EDF50C1
:10D200001A6E1A50241A000E236E080E226E24A0E5
:10D210000CEFE9F00EEFE9F017EFE9F0D8902532C6
:10D220002432010E241AA00E251A1AEFE9F0D89024
:10D23000253224322206D8A0230622502310D8A457
:10D2400024EFE9F026EFE9F007EFE9F0264A272A74
:10D25000FE0E1D241A6E1B6AFF0E1B221A50265C3E
:10D260002750800A1C6E1B50800A1C58D8A03BEF28
:10D27000E9F03DEFE9F0F9EFE8F024501E6E1F6A87
:10D2800024C01AF025C01BF01BC01AF01B6A1A50EC
:10D29000206E216A230E2624D96E070E2720DA6E0F
:10D2A000DF501A6E1B6A1E501A1807E11F501B1818
:10D2B000D8A45DEFE9F05FEFE9F077EFE9F0240E35
:10D2C0002624D96E070E2720DA6EDF501A6E1B6AED
:10D2D00020501A1807E121501B18D8A472EFE9F06A
:10D2E00074EFE9F077EFE9F0010E78EFE9F0000E66
:10D2F0001200405007012319D8A481EFE9F083EF11
:10D30000E9F0F5EFE9F00201BE51E8ECE8F00009C0
:10D31000D8B48DEFE9F08FEFE9F0F5EFE9F07C801C
:10D320007C8207012405D8A498EFE9F09AEFE9F090
:10D330009EEFE9F0A3ECCFF0F5EFE9F0020E24192F
:10D34000D8A4A5EFE9F0A7EFE9F0ABEFE9F069ECBD
:10D35000CEF0F5EFE9F0030E2419D8A4B2EFE9F00E
:10D36000B4EFE9F0B8EFE9F0B4ECD8F0F5EFE9F09C
:10D37000040E2419D8A4BFEFE9F0C1EFE9F0C5EF1E
:10D38000E9F0A9ECD9F0F5EFE9F0050E2419D8A4DD
:10D39000CCEFE9F0CEEFE9F0D2EFE9F023ECE7F0E3
:10D3A000F5EFE9F0060E2419D8A4D9EFE9F0DBEF88
:10D3B000E9F0E4EFE9F008ECEAF071C0D9FF72C0DF
:10D3C000DAFFDF6EF5EFE9F0EE0E2419D8A4EBEFEB
:10D3D000E9F0EDEFE9F0F2EFE9F0010E0201946FF0
:10D3E000F5EFE9F0000E0601006F0E012DB1FBEF25
:10D3F000E9F0FDEFE9F0F5EFE9F0000E1B6E010E2C
:10D400001A6E98EC09F07C907C920701245112006E
:10D41000000E0001636F000E626F000E6F6F000E52
:10D420006E6F000E696F000E686F000E656F000E64
:10D43000646F000E676F000E666F000E6B6F000E5C
:10D440006A6F000E6D6F000E6C6F25C76EF06F6B0C
:10D450006E516F6F6E6B0701265100016E1326C768
:10D4600060F0616B25C762F0636B27C768F0696B7A
:10D470006851696F686B070128510001681328C75C
:10D4800064F0656B27C766F0676B6F5107E1320E7A
:10D490006E5DD8B04EEFEAF050EFEAF095EFEAF0AB
:10D4A000D8906E35D96E6F35DA6E000ED926030E20
:10D4B000DA2268C0DEFF69C0DDFF40C000F6060E5C
:10D4C0000601016F60C003F662C002F666C004F692
:10D4D00064C005F6080EBEECEFF01AC06AF01BC07F
:10D4E0006BF000016B510601066F6AC007F6000E73
:10D4F00000016D6F000E6C6F000E6C25D96E060E6C
:10D500006D21DA6EDF5035ECFEF000016C4B6D2BB7
:10D51000090E6C196D11D8A490EFEAF092EFEAF0C1
:10D520007CEFEAF06E5196EFEAF0FF0E12009BEFEF
:10D53000EAF0284A292A28C0D9FF29C0DAFF200E9C
:10D54000DE18D8B4A6EFEAF0A8EFEAF099EFEAF017
:10D5500028C0D9FF29C0DAFF090EDE18D8B4B3EF0E
:10D56000EAF0B5EFEAF099EFEAF0000E0001626F21
:10D57000000E616F000E606F28C0D9FF29C0DAFF6E
:10D580002D0EDE18D8A4C7EFEAF0C9EFEAF0CEEF0F
:10D59000EAF0602B284A292AFCEFEAF028C0D9FFDC
:10D5A00029C0DAFF2B0EDE18D8A4D9EFEAF0DBEFA2
:10D5B000EAF0FCEFEAF0284A292AFCEFEAF061C021
:10D5C00022F062C023F0000E256E0A0E246E73EC6A
:10D5D0000BF028C0D9FF29C0DAFFDF502A6E2A508D
:10D5E0002226000E2322D00E22240001616FFF0E9E
:10D5F0002320626FDBEFEAF028C0D9FF29C0DAFFF1
:10D60000DF5066EC09F0D8B008EFEBF00AEFEBF072
:10D61000DFEFEAF000016051D8B411EFEBF013EF47
:10D62000EBF021EFEBF061C02AF062C02BF02A1E74
:10D630002B1E2A4A2B2A2AC028F02BC029F025EFBE
:10D64000EBF061C028F062C029F0120028C0D9FFB9
:10D6500029C0DAFFDF50D8A430EFEBF032EFEBF067
:10D6600098EFEBF0000E0201636F98EFEBF028C02B
:10D67000D9FF29C0DAFFDE04D8A441EFEBF043EF75
:10D68000EBF0B0EFEBF00201632BB0EFEBF0010E2B
:10D690003A6E040EAA6F010E396E020EA96F43EFA7
:10D6A000EBF03A0E216E000E226EAAC223F0F7ECC8
:10D6B000AEF0390E216E000E226EA9C223F0CEEC20
:10D6C000ACF03A50D8A467EFEBF069EFEBF0B0EFB5
:10D6D000EBF03950D8A46FEFEBF071EFEBF0B0EF57
:10D6E000EBF043EFEBF0320E386E320E376E000E79
:10D6F0001B6E0A0E1A6E020E1C6E0E0E62ECFCF011
:10D7000043EFEBF00E0EBCEC07F00009D8B48BEF42
:10D71000EBF08DEFEBF0B0EFEBF028C0D9FF29C0B4
:10D72000DAFF000EDF6E000E0201636FB0EFEBF068
:10D7300002016351000AD8B437EFEBF0010AD8B404
:10D7400047EFEBF0030AD8B451EFEBF0010AD8B47D
:10D7500073EFEBF0070AD8B482EFEBF0B0EFEBF029
:10D760001200000E0001686F000E646F000E656FFE
:10D77000000E666F000E676F600E6825D96EDA6A5C
:10D78000000EDA2264C01BF065C01CF066C01DF0FC
:10D7900067C01EF04CEC0BF0DF6E600E00016825D8
:10D7A000D96EDA6A000EDA22DF50286E28C029F01E
:10D7B0002A6A2B6A2C6A2950245E2A50255A2B503B
:10D7C000265A2C50275A020E6865E9EFEBF0EBEF72
:10D7D000EBF0FCEFEBF0030E6819D8A4F2EFEBF0DE
:10D7E000F4EFEBF0FCEFEBF06051201A6151211ADD
:10D7F0006251221A6351231A682B040E6819D8A4A7
:10D8000004EFECF006EFECF008EFECF0000E686FC0
:10D810000400010E00016427000E652366236723C0
:10D8200067510BE1F90E655D010E6659D8A01BEF3B
:10D83000ECF01DEFECF0BCEFEBF0205021102210CB
:10D840002310D8A426EFECF028EFECF036EFECF044
:10D850002450251026102710D8A431EFECF033EF18
:10D86000ECF036EFECF0010E37EFECF0000E1200AA
:10D87000120EF66E110EF76E000EF86E04EE87F0C3
:10D8800010EE3FF00900F5CFEEFFE550E150FAE170
:10D890000C0EF66E170EF76E000EF86E03EED6F055
:10D8A00010EE24F00900F5CFEEFFE550E150FAE16B
:10D8B000100EF66E150EF76E000EF86E02EEC4F046
:10D8C00010EE2FF00900F5CFEEFFE550E150FAE140
:10D8D000AE0EF66E1B0EF76E000EF86E00EE3FF009
:10D8E00010EE07F00900F5CFEEFFE550E150FAE148
:10D8F0000AEE00F0790EEE6AE806FDE109EE00F0AE
:10D90000FB0EEE6AE806FDE108EE00F0FD0EEE6AA1
:10D91000E806FDE107EE00F0E80EEE6AE806FDE13C
:10D9200006EE00F010EEFFF0EE6AE550E150FCE18B
:10D93000E250FAE105EE00F0F90EEE6AE806FDE1CC
:10D9400004EE00F0870EEE6AE806FDE103EE00F05B
:10D95000D60EEE6AE806FDE102EE00F0C40EEE6AB5
:10D96000E806FDE100EE2DF0120EEE6AE806FDE19C
:10D9700046904692000197EFD6F000016C6F0001CF
:10D980006B51D8B4C6EFECF0C8EFECF0E4EFECF07C
:10D9900069C0D9FF6AC0DAFF75C2DFFF67C060F0F7
:10D9A00068C061F0400E626F0A0E636F75C264F06A
:10D9B000656BB3EC05F0010E0201D86F000E786FB5
:10D9C000000E756F40EFEDF00201D851D8B4EBEFC7
:10D9D000ECF0EDEFECF00FEFEDF000016C5166199B
:10D9E000D8A4F5EFECF0F7EFECF040EFEDF0000E1F
:10D9F0000201756F000E1B6E020E1A6E000E1C6E79
:10DA0000120E62ECFCF06CC072F2000E0201D86FD4
:10DA1000010E786F66C040FA752B40EFEDF078513B
:10DA2000D8B415EFEDF017EFEDF03AEFEDF0000E92
:10DA30001B6E020E1A6E000E1C6E120E62ECFCF0D3
:10DA4000400E02017525D96EDA6A0A0EDA2266C026
:10DA5000DFFF752B120E756530EFEDF032EFEDF054
:10DA600040EFEDF0010ED86F000E756F000E786F6D
:10DA700040EFEDF0010ED86F000E786F000E756F5D
:10DA800012001C341D34236E2350D8A44AEFEDF04D
:10DA90004CEFEDF056EFEDF0000E1A6E000E1B6E1F
:10DAA000000E1C6E000E1D6EC3EFEDF01AC01EF0CE
:10DAB0001BC01FF01CC020F01DC021F0200E66EF1F
:10DAC000EDF0D890213220321F321E32E82E61EF65
:10DAD000EDF01E50226E1C8EFF0E1A16FF0E1B1646
:10DAE000FF0E1C16000E1D16960E235E23BE7DEF44
:10DAF000EDF07BEFEDF093EFEDF02350800A970F00
:10DB0000D8B085EFEDF087EFEDF089EFEDF04CEF59
:10DB1000EDF0D8901D321C321B321A32233E89EFB1
:10DB2000EDF0ABEFEDF01F0E236499EFEDF09BEFFE
:10DB3000EDF0A3EFEDF04CEFEDF0D8901A361B3678
:10DB40001C361D3623062350D8A4A9EFEDF0ABEF09
:10DB5000EDF09DEFEDF02250D8B4B1EFEDF0B3EF62
:10DB6000EDF0BBEFEDF01D1E1C1E1B1E1A6C000E0F
:10DB70001B221C221D221AC01AF01BC01BF01CC045
:10DB80001CF01DC01DF01200000E1A14226E000EB3
:10DB90001B14236E800E1C14246E7F0E1D14256E24
:10DBA0002250231024102510D8A4D9EFEDF0DBEF7C
:10DBB000EDF0E3EFEDF0000E1A6E000E1B6E000E9E
:10DBC0001C6E000E1D6E000E1E14226E000E1F1421
:10DBD000236E800E2014246E7F0E2114256E225099
:10DBE000231024102510D8A4F8EFEDF0FAEFEDF093
:10DBF00002EFEEF0000E1E6E000E1F6E000E206E85
:10DC0000000E216E1DAE07EFEEF009EFEEF012EF01
:10DC1000EEF01A6C1B1ED8B01B2A1C1ED8B01C2A92
:10DC2000800E1D5621AE17EFEEF019EFEEF022EF49
:10DC3000EEF01E6C1F1ED8B01F2A201ED8B0202A5E
:10DC4000800E2156000E1A1A000E1B1A000E1C1A06
:10DC5000800E1D1A000E1E1A000E1F1A000E201A2A
:10DC6000800E211A1E501A5C1F501B5820501C5841
:10DC700021501D58D8B03FEFEEF041EFEEF044EFE9
:10DC8000EEF0D89045EFEEF0D8801200AEC0B0F0C4
:10DC9000AFC0B1F00001D890B037B137D890B037ED
:10DCA000B137B051AC25B26FB151AD21B36FB2C035
:10DCB000F6FFB3C0F7FF000EF86E0900F5CFB4F021
:10DCC0000900F5CFB5F00900F5CFB6F00A00F5CFA1
:10DCD000B7F0B5EFEEF0B4C093F0B5C094F0B6C0B5
:10DCE00095F0B7C096F0A8C08FF0A9C090F0AAC078
:10DCF00091F0ABC092F042ECB3F08FC07FF090C0D7
:10DD000080F091C081F092C082F00001AE07D8A0EF
:10DD1000AF07AEC0B0F0AFC0B1F0D890B037B137F8
:10DD2000D890B037B137B051AC25B26FB151AD21F9
:10DD3000B36FB2C0F6FFB3C0F7FF000EF86E090074
:10DD4000F5CF83F00900F5CF84F00900F5CF85F019
:10DD50000A00F5CF86F00DECA8F07FC0B4F080C0CB
:10DD6000B5F081C0B6F082C0B7F00001AE51AF117E
:10DD7000D8A4BDEFEEF0BFEFEEF06BEFEEF0B4C065
:10DD8000A8F0B5C0A9F0B6C0AAF0B7C0ABF01200B9
:10DD90002F5002018719D8A4D0EFEEF0D2EFEEF0A9
:10DDA000D4EFEEF045EFEFF0D00E2F24D96EDA6A03
:10DDB000020EDA229051DE5CD8B0E1EFEEF0E3EF34
:10DDC000EEF0EAEFEEF0020E1A6E060EB7EC0CF073
:10DDD000FEEFEEF0D00E2F24D96EDA6A020EDA22B0
:10DDE000DE50905DD8B0F7EFEEF0F9EFEEF0FEEF19
:10DDF000EEF0010E1A6E060EB7EC0CF0D00E2F24CA
:10DE0000D96EDA6A020EDA22DF501C6E1D6A0A0E23
:10DE10001C26000E1D22020190511E6E1F6A1C500E
:10DE20001E5C1F50800A206E1D50800A2058D8B0FA
:10DE30001CEFEFF01EEFEFF045EFEFF090511C6E8E
:10DE40001D6AD00E2F24D96EDA6A020EDA22DF5054
:10DE50001E6EF60E1E241F6E206AFF0E20221C501E
:10DE60001F5C2050800A216E1D50800A2158D8B0B6
:10DE70003CEFEFF03EEFEFF045EFEFF02FC087F211
:10DE8000000E1A6E060EB7EC0CF01200000E7D6E3E
:10DE9000010E7C6E200E796E000E7E6E000E7A6E84
:10DEA000000E7F6E000E7B6E040E806E8A0E856EF5
:10DEB0008668D00E816EDF0E876EC00E826E080EF1
:10DEC000886EB00E836EE80E846E800E0E01A76F12
:10DED000C00E9A6F000EAF6FBC69000EB46FD00E0B
:10DEE000926F000EA66F000EB36F000EAE6F000EA5
:10DEF000996F000EBB6F000E916F000EA16F000EA8
:10DF0000C06F000EAD6F000EB26F000E906F000E6E
:10DF1000BA6F000E986F000EBF6F000EA06F000E5C
:10DF2000A56F8F6997699F69A469AC69B169B9697F
:10DF3000BE698E6996699E69A369AB69B069B86963
:10DF4000BD69130E196F1D0E1D6F190E656F140E2E
:10DF5000746F100E726F1A0E646F1B0E706F140EBA
:10DF60001A6F1E0E1C6F170E0F6F1C0E6F6F0C0EAC
:10DF7000686F230E176F210E136F12001F6E286833
:10DF80002968000E216E000E206E000E276E000E16
:10DF9000266E000E256E000E246EFEEFEFF0000ED2
:10DFA0002424D96E060E2520DA6EDF501C6E1C501C
:10DFB000281A000E276E080E266E28A0E2EFEFF05A
:10DFC000E4EFEFF0EDEFEFF0D89029322832010EB8
:10DFD000281AA00E291AF0EFEFF0D8902932283233
:10DFE0002606D8A0270626502710D8A4FAEFEFF06F
:10DFF000FCEFEFF0DDEFEFF0244A252AFE0E1F24A0
:10E000001C6E1D6AFF0E1D221C50245C2550800AC8
:10E010001E6E1D50800A1E58D8A011EFF0F013EFAD
:10E02000F0F0CFEFEFF028501D6E1C6A1CC022F0FC
:10E030001DC023F028C01CF029C01DF01DC01CF01D
:10E040001D6A1C50206E216A20502212215023127A
:10E0500022C028F023C029F028C01AF029C01BF0E4
:10E060001200286E050E336E3FEFF0F0150E276E8E
:10E07000C60EE82EFED7272EFCD700D03306285038
:10E08000D2ECF4F00009D8A448EFF0F04AEFF0F039
:10E0900052EFF0F03350D8A450EFF0F052EFF0F020
:10E0A00036EFF0F0B00E206E140E216E000E226ED0
:10E0B000260E236E000E246E0CEC0CF0250E1A6E4C
:10E0C000000E1B6E000E1D6E010E1C6EAAEC0BF0F6
:10E0D000000E206E000E216E000E226E000E236ECA
:10E0E000000E246E1AEC0CF09FEC0DF0050E336E52
:10E0F00083EFF0F0150E276EC60EE82EFED7272E02
:10E10000FCD700D03306B7EC0AF0E806D8A48BEFB2
:10E11000F0F08DEFF0F095EFF0F03350D8A493EFDE
:10E12000F0F095EFF0F07AEFF0F03350D8A49BEFD9
:10E13000F0F09DEFF0F09FEFF0F001EC08F012002E
:10E14000640E3124D96EDA6A050EDA22000EDF6E13
:10E150000E01E0A5AEEFF0F0B0EFF0F0C6EFF0F09A
:10E16000640E3124D96EDA6A050EDA220501DF82E7
:10E1700002D8C6EFF0F00500FA6E0401D551FD6E2D
:10E18000D651FE6ED751FF6EFA5012000E01E0A379
:10E19000CCEFF0F0CEEFF0F0E4EFF0F0640E3124CD
:10E1A000D96EDA6A050EDA220501DF8402D8E4EFBF
:10E1B000F0F00500FA6E0401D251FD6ED351FE6EEF
:10E1C000D451FF6EFA501200640E3124D96EDA6A0F
:10E1D000050EDA22DF50D8B4F0EFF0F0F2EFF0F0F5
:10E1E00002EFF1F002D800EFF1F00500FA6E040141
:10E1F000CF51FD6ED051FE6ED151FF6EFA5012001C
:10E2000004EFF1F0CDEC0AF01200840E3224D96E46
:10E21000DA6A050EDA22000EDF6E0E01EEA513EFAC
:10E22000F1F015EFF1F02BEFF1F0840E3224D96EFE
:10E23000DA6A050EDA220501DF8202D82BEFF1F04F
:10E240000500FA6E0401EA51FD6EEB51FE6EEC51D1
:10E25000FF6EFA5012000E01EEA331EFF1F033EF32
:10E26000F1F049EFF1F0840E3224D96EDA6A050E2E
:10E27000DA220501DF8402D849EFF1F00500FA6ED9
:10E280000401E751FD6EE851FE6EE951FF6EFA5050
:10E290001200840E3224D96EDA6A050EDA22DF50BB
:10E2A000D8B455EFF1F057EFF1F067EFF1F002D885
:10E2B00065EFF1F00500FA6E0401E451FD6EE551E1
:10E2C000FE6EE651FF6EFA50120069EFF1F0E3ECDA
:10E2D0000AF01200236EC7ECFAF0206E1E50D8B47C
:10E2E00074EFF1F076EFF1F0BEEFF1F0000E226E78
:10E2F000000E216E20A07FEFF1F081EFF1F082EFB0
:10E30000F1F0222AD8902032212A050E21648BEFC9
:10E31000F1F08DEFF1F07AEFF1F0020E226493EF5D
:10E32000F1F095EFF1F097EFF1F0CDEFF1F0020E93
:10E330002218D8A49EEFF1F0A0EFF1F0ADEFF1F0CC
:10E34000C7ECFAF01F6E030E1F64A9EFF1F0ABEFFC
:10E35000F1F0ADEFF1F0CDEFF1F0BEEFF1F02350C1
:10E3600019ECF4F0CDEFF1F0235076ECF4F0CDEFB2
:10E37000F1F0235007ECFBF0CDEFF1F01E50000A56
:10E38000D8B4B9EFF1F0010AD8B4AFEFF1F0030A55
:10E39000D8B4B4EFF1F0CDEFF1F0120026C01AF0CE
:10E3A00027C01BF028C01CF029C01DF0000E1E6EF7
:10E3B000000E1F6E000E206E000E216E8EECF6F029
:10E3C000D8A0E5EFF1F0E7EFF1F0F9EFF1F02AC0B6
:10E3D000D9FF2BC0DAFF000EDE6E000EDD6E000EE0
:10E3E000266E000E276E000E286E000E296E31EF8D
:10E3F000F2F029507F0B0001606F616BD89060379D
:10E4000061372AC0D9FF2BC0DAFF60C0DEFF61C0D0
:10E41000DDFF28BE0EEFF2F012EFF2F0606B602B22
:10E4200014EFF2F00001606B60512AC0D9FF2BC0DD
:10E43000DAFFDE12000EDD122AC0D9FF2BC0DAFF90
:10E44000820EDE26FF0EDD222950800B3F09296E49
:10E45000289E26C026F027C027F028C028F029C013
:10E4600029F0120083EFF2F01AC0D9FF1BC0DAFFC7
:10E47000DF50D8B43EEFF2F040EFF2F05FEFF2F091
:10E480001AC0D9FF1BC0DAFFDF50206E1CC0F6FF98
:10E490001DC0F7FF000EF86E0D0EF76403D00800E4
:10E4A000F55005D0F6CFE9FFF7CFEAFFEF5020187F
:10E4B000D8B45DEFF2F05FEFF2F07FEFF2F01AC048
:10E4C000D9FF1BC0DAFFDF50206E1CC0F6FF1DC055
:10E4D000F7FF000EF86E0D0EF76403D00800F5503C
:10E4E00005D0F6CFE9FFF7CFEAFFEF50216E2150BC
:10E4F000205C1A6E1B6AD8A01B0694EFF2F01A4A31
:10E500001B2A1C4A1D2A1E06D8A01F061E2806E12B
:10E510001F28D8A48EEFF2F090EFF2F034EFF2F073
:10E52000000E1B6E000E1A6E12007D0E3024D96E86
:10E53000DA6A060EDA22000EDF6E9CA4A2EFF2F079
:10E54000A4EFF2F0BAEFF2F07D0E3024D96EDA6A61
:10E55000060EDA220601DF8202D8BAEFF2F00500D9
:10E56000FA6E0401CC51FD6ECD51FE6ECE51FF6EA0
:10E57000FA5012009CA2BFEFF2F0C1EFF2F0D7EF19
:10E58000F2F07D0E3024D96EDA6A060EDA22060128
:10E59000DF8402D8D7EFF2F00500FA6E0401C9510A
:10E5A000FD6ECA51FE6ECB51FF6EFA5012007D0E09
:10E5B0003024D96EDA6A060EDA22DF50D8B4E3EFDF
:10E5C000F2F0E5EFF2F0F5EFF2F002D8F3EFF2F04F
:10E5D0000500FA6E0401C651FD6EC751FE6EC851AA
:10E5E000FF6EFA501200F7EFF2F0F9EC0AF01200A9
:10E5F000000E1F6E1DBE01EFF3F0FFEFF2F007EF0C
:10E60000F3F01C6C1D1ED8B01D2A010E1F6E1BBE20
:10E610000EEFF3F00CEFF3F014EFF3F01A6C1B1E97
:10E62000D8B01B2A010E1F1A000E216E000E206E9C
:10E630001C501D10D8B41FEFF3F021EFF3F049EF99
:10E64000F3F0010E1E6E29EFF3F0D8901C361D3644
:10E650001E2A1DAE2EEFF3F030EFF3F025EFF3F0AE
:10E66000D890203621361C501A5C1D501B58D8A05B
:10E670003CEFF3F03EEFF3F043EFF3F01C501A5E83
:10E680001D501B5A2080D8901D321C321E2E30EF98
:10E69000F3F01F50D8B44FEFF3F051EFF3F055EF14
:10E6A000F3F0206C211ED8B0212A20C01AF021C01E
:10E6B0001BF01200ACEC0CF00009D8B462EFF3F0E0
:10E6C00064EFF3F097EFF3F072EFF3F0BFEC0DF0BF
:10E6D000BAEFF3F0BBEC0DF0BAEFF3F0B3EC0DF0E2
:10E6E000BAEFF3F018C20CF019C20DF022EE09F0E7
:10E6F00002D885EFF3F00500FA6EDE50FD6EDE50B5
:10E70000FE6EDE50FF6EFA501200010AD8B46EEFB2
:10E71000F3F0030AD8B466EFF3F0010AD8B46AEF55
:10E72000F3F0070AD8B46EEFF3F06EEFF3F00201E6
:10E73000299123C2D9FF24C2DAFF234B242BDF50B7
:10E74000C3EC0DF002012507D8A02607255126119C
:10E75000D8A4ADEFF3F0AFEFF3F0B5EFF3F0000EA8
:10E760000F6E060E0E6EB9EFF3F0000E0F6E030E75
:10E770000E6E0E501200000E216E000E206E000E66
:10E780001B6E010E1A6E000E1C6E040E62ECFCF085
:10E79000040EBCEC07F00009D8B4D1EFF3F0D3EFCE
:10E7A000F3F0C8EFF3F0300E33EC09F0D8902034DA
:10E7B000D96E2134DA6EC40ED926070EDA221AC0B9
:10E7C000DEFF1BC0DDFF310E33EC09F0D8902034A2
:10E7D000D96E2134DA6EA00ED926070EDA221AC0BD
:10E7E000DEFF1BC0DDFF340E33EC09F0D89020347F
:10E7F000D96E2134DA6ED90ED926080EDA221AC063
:10E80000DEFF1BC0DDFF000E1B6E010E1A6E000E38
:10E810001C6E040E62ECFCF0204A212A120E201815
:10E820002110D8A416EFF4F018EFF4F0C8EFF3F0CD
:10E8300012001D6E290E1D24D96EDA6A020EDA222C
:10E84000020EDE18D8A427EFF4F029EFF4F052EF0F
:10E85000F4F01D5007ECFBF0150E1C6E4B0E1B6EFA
:10E86000BE0EE82EFED71B2EFCD71C2EFAD700D0EA
:10E8700052EFF4F0798679946DEFF4F07982799023
:10E880006DEFF4F07A8A7A986DEFF4F07A867A94E4
:10E890006DEFF4F07A827A906DEFF4F07B827B90EA
:10E8A0006DEFF4F01D50010AD8B43AEFF4F0030A0A
:10E8B000D8B43EEFF4F0010AD8B442EFF4F0070AFE
:10E8C000D8B446EFF4F0010AD8B44AEFF4F0030AE2
:10E8D000D8B44EEFF4F06DEFF4F0290E1D24D96E8C
:10E8E000DA6A020EDA22010EDF6E12001D6E290EA8
:10E8F0001D24D96EDA6A020EDA22DE04D8A483EF70
:10E90000F4F085EFF4F0AEEFF4F01D5007ECFBF0FF
:10E91000150E1C6E4B0E1B6EBE0EE82EFED71B2E68
:10E92000FCD71C2EFAD700D0AEEFF4F0799679849C
:10E93000C9EFF4F079927980C9EFF4F07A9A7A8885
:10E94000C9EFF4F07A967A84C9EFF4F07A927A807B
:10E95000C9EFF4F07B927B80C9EFF4F01D50010AFF
:10E96000D8B496EFF4F0030AD8B49AEFF4F0010AA1
:10E97000D8B49EEFF4F0070AD8B4A2EFF4F0010A7D
:10E98000D8B4A6EFF4F0030AD8B4AAEFF4F0C9EFB4
:10E99000F4F0290E1D24D96EDA6A020EDA22020E74
:10E9A000DF6E12001D6E010E1E6E020129B5DBEF37
:10E9B000F4F0DDEFF4F02BEFF5F01DC022F2299317
:10E9C000298529910E0E276F010E216FF40E206FFD
:10E9D00029871E0E006F1C0E016F000E026F000EC5
:10E9E000126F000E136F1E0E036F1C0E046F000ECD
:10E9F000056F000E146F000E156F1E0E066F1C0EB5
:10EA0000076F000E086F000E166F000E176F1E0EB8
:10EA1000096F1C0E0A6F000E0B6F000E186F000EB0
:10EA2000196F1A0E0C6F1C0E0D6F000E0E6F000E7C
:10EA30001A6F000E1B6FD40E1A6E1B0E1B6E000E8B
:10EA40001C6E74EC0DF0E7EC0DF0BCEC0BF0DBECA5
:10EA50000DF0000E1E6E1E501200000E246E000EF1
:10EA6000256E000E266E000E276E799A9F0E28ECFA
:10EA70000CF0000E28EC0CF01F6E24501F10206EBE
:10EA80002550216E2650226E2750236E22C023F07F
:10EA900021C022F020C021F0206A20C024F021C033
:10EAA00025F022C026F023C027F0000E28EC0CF041
:10EAB0001F6E24501F10206E2550216E2650226E8E
:10EAC0002750236E22C023F021C022F020C021F065
:10EAD000206A20C024F021C025F022C026F023C0E7
:10EAE00027F0000E28EC0CF01F6E24501F10246E2F
:10EAF0002550256E2650266E2750276E798A24C011
:10EB00001BF025C01CF026C01DF027C01EF012000F
:10EB10001B6E95BA8EEFF5F090EFF5F0DFEFF5F0A4
:10EB20001B50040D010EF326000EF422210EF324D7
:10EB3000F66EF70EF420F76EF86A000EF822080061
:10EB4000F5CF94FF1B50040D210EF324F66EF70E43
:10EB5000F420F76EF86A000EF8220800F5CF95FF52
:10EB6000000E966E1B50040D020EF326000EF422CA
:10EB7000210EF324F66EF70EF420F76EF86A000EFD
:10EB8000F8220800F5CF92FF1B50040D030EF32668
:10EB9000000EF422210EF324F66EF70EF420F76E29
:10EBA000F86A000EF8220800F5CF1AF01A461A4645
:10EBB0001A4683501A18F70B1A18836E958A12009A
:10EBC00020C0D9FF21C0DAFFDF50236E2350D8A424
:10EBD000ECEFF5F0EEEFF5F0F0EFF5F036EFF6F0E4
:10EBE000190EBCEC07F00009D8B4F9EFF5F0FBEF13
:10EBF000F5F00AEFF6F0000E1B6E320E1A6E000EE4
:10EC00001C6E1A0E62ECFCF02306000E1A6E020E49
:10EC10005EEC05F01A0EBCEC07F00009D8B413EF57
:10EC2000F6F015EFF6F023EFF6F0000E1B6E640E13
:10EC30001A6E000E1C6E190E62ECFCF0010E1A6EBC
:10EC4000020E5EEC05F020C0D9FF21C0DAFF23C020
:10EC5000DFFF2350D8A42FEFF6F031EFF6F036EFB8
:10EC6000F6F022C01AF0020E5EEC05F01200246EDF
:10EC7000050E336E45EFF6F0150E236EC60EE82E28
:10EC8000FED7232EFCD700D033062450D2ECF4F06C
:10EC90000009D8A44EEFF6F050EFF6F058EFF6F07A
:10ECA0003350D8A456EFF6F058EFF6F03CEFF6F0FC
:10ECB0001FC01AF020C01BF021C01CF022C01DF0A4
:10ECC000AAEC0BF0A3EC0DF0050E336E71EFF6F02D
:10ECD000150E236EC60EE82EFED7232EFCD700D0CD
:10ECE0003306B7EC0AF0E806D8A479EFF6F07BEF2C
:10ECF000F6F083EFF6F03350D8A481EFF6F083EF0F
:10ED0000F6F068EFF6F03350D8A489EFF6F08BEF09
:10ED1000F6F08DEFF6F001EC08F01200000E1A1478
:10ED2000226E000E1B14236E800E1C14246E7F0EA8
:10ED30001D14256E2250231024102510D8A4A3EFF3
:10ED4000F6F0A5EFF6F0ADEFF6F0000E1A6E000E3D
:10ED50001B6E000E1C6E000E1D6E000E1E14226E29
:10ED6000000E1F14236E800E2014246E7F0E2114BB
:10ED7000256E2250231024102510D8A4C2EFF6F0DF
:10ED8000C4EFF6F0CCEFF6F0000E1E6E000E1F6E14
:10ED9000000E206E000E216E1E501A180FE11F503B
:10EDA0001B180CE120501C1809E121501D18D8B483
:10EDB000DCEFF6F0DEEFF6F0E1EFF6F0D890E2EF00
:10EDC000F6F0D8801200000E266E000E276E000EA0
:10EDD000286E000E296E00016451651166116711DD
:10EDE000D8B4F5EFF6F0F7EFF6F02DEFF7F0010EEF
:10EDF0002A6E01EFF7F0D8906437653766376737CA
:10EE00002A2A67AF06EFF7F008EFF7F0FBEFF6F00E
:10EE1000D89026362736283629366451605D6551EC
:10EE200061596651625967516359D8A01AEFF7F0DA
:10EE30001CEFF7F025EFF7F06451605F6551615BFF
:10EE40006651625B6751635B2680D8906733663397
:10EE5000653364332A2E08EFF7F026C060F027C030
:10EE600061F028C062F029C063F012000C0EBCEC07
:10EE700007F00009D8B43FEFF7F041EFF7F065EF86
:10EE8000F7F0000E1B6E050E1A6E010E1C6E0C0EB6
:10EE900062ECFCF002018651D8A451EFF7F053EF79
:10EEA000F7F059EFF7F0010E866F20ECB1F065EF47
:10EEB000F7F08605D8A45FEFF7F061EFF7F065EFA4
:10EEC000F7F0000E866F06ECDEF002018C05D8A488
:10EED0006CEFF7F06EEFF7F074EFF7F0000E8C6F59
:10EEE00020ECB1F081EFF7F0020E8C19D8A47BEF83
:10EEF000F7F07DEFF7F081EFF7F0000E8C6F06EC86
:10EF0000DEF01200310E206E27681CC021F01DC0FB
:10EF100022F0C3EFF7F01AC0D9FF1BC0DAFFDF50B1
:10EF2000271A1A4A1B2A000E246E080E236EB7EF0A
:10EF3000F7F027BE9EEFF7F0A0EFF7F0A7EFF7F09E
:10EF4000D8902734256E266A2636B2EFF7F0205087
:10EF500027C01EF01F6AD8901E361F361E18256E59
:10EF60001F50266E25C027F02306D8A02406235064
:10EF70002410D8A4BEEFF7F0C0EFF7F099EFF7F048
:10EF80002106D8A0220621502210D8A4CAEFF7F0FB
:10EF9000CCEFF7F08BEFF7F027501200F3EC0DF009
:10EFA00023C2D9FF24C2DAFFDF6E0201234B242BD8
:10EFB0002507D8A0260725512611D8B4E2EFF7F08F
:10EFC000E4EFF7F0E9EFF7F0C7EC0DF0050E17EFFF
:10EFD000F8F02987F4EFF7F0A7EC0DF017EFF8F051
:10EFE000ABEC0DF017EFF8F012C20CF013C20DF0FD
:10EFF00002D805EFF8F00500FA6E0051FD6E0151E0
:10F00000FE6E0251FF6EFA501200010AD8B4F0EF02
:10F01000F7F0030AD8B4ECEFF7F0010AD8B4ECEF3C
:10F02000F7F0070AD8B4F0EFF7F0F0EFF7F01200BE
:10F030000E012D9B400E1A6EE10E1B6E010E1C6E12
:10F040000BEC0DF00E012D99160E1A6E0E0E1B6EA6
:10F05000000E1C6E04EC0DF0080E0E01E26F900E17
:10F06000E06F240EE16F8A0EDE6F000EDF6F240E5C
:10F070001A6E1C0E1B6E000E1C6E19EC0DF09E0E0F
:10F080001A6E1B0E1B6E000E1C6E12EC0DF0FE0EA7
:10F090001A6E1B0E1B6E000E1C6E20EC0DF0000E87
:10F0A00002019A6F000E9E6F000E9D6F200EF56F8D
:10F0B000000E316E000E9C6F000E9B6F0E012D8BAB
:10F0C00012000E012D930A0E1A6EE20E1B6E010E37
:10F0D0001C6E2EEC0DF00E012D915E0E1A6E0E0EB2
:10F0E0001B6E000E1C6E27EC0DF0080E0E01F06F6B
:10F0F000900EEE6F240EEF6F400EEC6F030EED6F6F
:10F10000260E1A6E1C0E1B6E000E1C6E3CEC0DF0D3
:10F11000A60E1A6E1B0E1B6E000E1C6E35EC0DF04B
:10F12000040E1A6E1C0E1B6E000E1C6E43EC0DF0CE
:10F13000000E02019F6F000EA36F000EA26F200E43
:10F14000F36F000E326E000EA16F000EA06F0E0165
:10F150002D8312000E012C9B2A0E1A6EE50E1B6EDB
:10F16000010E1C6E51EC0DF00E012C99CE0E1A6E94
:10F17000100E1B6E000E1C6E4AEC0DF0080E9E6EFB
:10F18000900E9C6E240E9D6E8A0E9A6E000E9B6EE3
:10F19000280E1A6E1C0E1B6E000E1C6E5FEC0DF01E
:10F1A0000A0E1A6E1C0E1B6E000E1C6E58EC0DF033
:10F1B000100E1A6E1C0E1B6E000E1C6E66EC0DF00F
:10F1C000000E0201956F000E996F000E986F200ED1
:10F1D000F46F000E306E000E976F000E966F0E01EA
:10F1E0002C8B1200DDEC0CF0799A020E28EC0CF05E
:10F1F0001F5028EC0CF01E5028EC0CF01D5028EC91
:10F200000CF0000E276E000E286E000E296E000E08
:10F210002A6E1AEFF9F027502124D96E28502220A7
:10F22000DA6EDF5028EC0CF0010E2726000E2822A3
:10F2300029222A222350275C245028582550295857
:10F2400026502A58D8A027EFF9F029EFF9F00BEF54
:10F25000F9F0798A8BEC0CF01D5027241D6E1E509E
:10F2600028201E6E1F5029201F6E20502A20206E3D
:10F270001200000E206E7C807C821DC0D9FF1EC053
:10F28000DAFFDF501F6E5AEFF9F00201F351D8B4E4
:10F290004CEFF9F04EEFF9F05AEFF9F01F5035EC62
:10F2A000FEF0202A20501D24D96E000E1E20DA6E9A
:10F2B000DF501F6E1F50D8B460EFF9F062EFF9F025
:10F2C0006AEFF9F0630E206468EFF9F06AEFF9F085
:10F2D00045EFF9F0200E0201F319D8A472EFF9F00E
:10F2E00074EFF9F06AEFF9F0000E1B6E020E1A6E61
:10F2F00098EC09F07C907C9212001AC020F01BC0A0
:10F3000021F09EEFF9F01E06D8A01F061CC0D9FF01
:10F310001DC0DAFF1C4A1D2A20C0E1FF21C0E2FF08
:10F32000204A212ADFCFE7FFE750D8A49AEFF9F06F
:10F330009CEFF9F09EEFF9F0B1EFF9F01E501F10BD
:10F34000D8A4A5EFF9F0A7EFF9F083EFF9F0B1EF4A
:10F35000F9F020C0D9FF21C0DAFF000EDF6E204A8D
:10F36000212A1E06D8A01F061E2806E11F28D8A4A1
:10F37000BCEFF9F0BEEFF9F0A9EFF9F01200530E6F
:10F380000501A46F4E0EA56F2C0EA66F000E000196
:10F390007C6FDAEFF9F07C517825D96E000E792177
:10F3A000DA6EA70E7C25E16EE26A050EE222DFCF5F
:10F3B000E7FF7C2B7A517C5DD8A0E1EFF9F0E3EF19
:10F3C000F9F0CBEFF9F07C51030F7C6FA40E7C2594
:10F3D000D96EDA6A050EDA220D0EDF6E7C2BA40ED2
:10F3E0001B6E050E1C6E7A51040F1D6EDFEC07F0CC
:10F3F0003BECE5F000017B6FCDECE1F000017B51CF
:10F400001200530E0501A46F520EA56F2C0EA66FAD
:10F41000000E00017C6F1CEFFAF07C517825D96E4C
:10F42000000E7921DA6EA70E7C25E16EE26A050EE8
:10F43000E222DFCFE7FF7C2B7A517C5DD8A023EF5F
:10F44000FAF025EFFAF00DEFFAF07C51030F7C6F24
:10F45000A40E7C25D96EDA6A050EDA220D0EDF6E57
:10F460007C2BA40E1B6E050E1C6E7A51040F1D6EB4
:10F47000DFEC07F03BECE5F000017B6FCDECE1F059
:10F4800000017B5112001F6E1A501B101C10D8B4C3
:10F490004CEFFAF04EEFFAF06AEFFAF01F50030D5E
:10F4A000000EF324D96E020EF420DA6E1AC0DEFFCD
:10F4B0001BC0DEFF1CC0DEFF1F50020D120EF32426
:10F4C000D96E020EF420DA6E1DC0DEFF1EC0DDFF15
:10F4D00084EFFAF01F50030D000EF324D96E020ED4
:10F4E000F420DA6E1E0EDE6E1C0EDE6E000EDE6E78
:10F4F0001F50020D120EF324D96E020EF420DA6EA4
:10F50000000EDE6E000EDD6E1200066E015002105F
:10F510000310D8B48EEFFAF090EFFAF0ACEFFAF0F7
:10F520000650030D000EF324D96E020EF420DA6E9D
:10F5300001C0DEFF02C0DEFF03C0DEFF0650020D89
:10F54000120EF324D96E020EF420DA6E04C0DEFF30
:10F5500005C0DDFFC6EFFAF00650030D000EF324E0
:10F56000D96E020EF420DA6E1E0EDE6E1C0EDE6EFA
:10F57000000EDE6E0650020D120EF324D96E020E3E
:10F58000F420DA6E000EDE6E000EDD6E1200000E4C
:10F590001A6E02012A51D8B4D0EFFAF0D2EFFAF085
:10F5A000D3EFFAF01A2A2B51D8B4D9EFFAF0DBEFE7
:10F5B000FAF0DDEFFAF0020E1A262C51D8B4E3EF80
:10F5C000FAF0E5EFFAF0E7EFFAF0040E1A262D5103
:10F5D000D8B4EDEFFAF0EFEFFAF0F1EFFAF0080E31
:10F5E0001A262E51D8B4F7EFFAF0F9EFFAF0FBEF44
:10F5F000FAF0100E1A262F51D8B401EFFBF003EFEA
:10F60000FBF005EFFBF0200E1A261A5012001A6EBE
:10F6100022EFFBF0799679943DEFFBF079927990A7
:10F620003DEFFBF07A9A7A983DEFFBF07A967A9468
:10F630003DEFFBF07A927A903DEFFBF07B927B906E
:10F640003DEFFBF01A50010AD8B40AEFFBF0030AB1
:10F65000D8B40EEFFBF0010AD8B412EFFBF0070AA2
:10F66000D8B416EFFBF0010AD8B41AEFFBF0030A86
:10F67000D8B41EEFFBF03DEFFBF0290E1A24D96E33
:10F68000DA6A020EDA22000EDF6E120028C0D9FFFD
:10F6900029C0DAFFDECF64F0DDCF65F02AC0D9FFE4
:10F6A0002BC0DAFFDECF66F0DDCF67F000016651D8
:10F6B000645D6551800A606F6751800A6059D8A007
:10F6C00064EFFBF067EFFBF0010E68EFFBF0000E5C
:10F6D000616F626B6451665D6751800A636F65514B
:10F6E000800A6359D8A077EFFBF07AEFFBF0010EA8
:10F6F0007BEFFBF0000E615D286E6251D8A06205C1
:10F70000296E1200000E0001D86F000ED76FD45181
:10F71000D511D8B48EEFFBF090EFFBF0B8EFFBF013
:10F72000010ED66F98EFFBF0D890D437D537D62B93
:10F73000D5AF9DEFFBF09FEFFBF094EFFBF0D8907F
:10F74000D737D837D451D25DD551D359D8A0ABEFE4
:10F75000FBF0ADEFFBF0B2EFFBF0D451D25FD5512F
:10F76000D35BD781D890D533D433D62F9FEFFBF01E
:10F77000D7C0D2F0D8C0D3F01200799A030E28EC8B
:10F780000CF01D5028EC0CF01C5028EC0CF01B5019
:10F7900028EC0CF0000E256E000E266E000E276E73
:10F7A000000E286EE4EFFBF025502324D96E26507E
:10F7B0002420DA6E000E28EC0CF0DF6E010E2526F8
:10F7C000000E2622272228221F50255C2050265872
:10F7D0002150275822502858D8A0F1EFFBF0F3EF22
:10F7E000FBF0D4EFFBF0798A12002DECF5F0120E4D
:10F7F0001B180BE1300E1C1808E1EF0E1D181E102F
:10F80000D8A405EFFCF007EFFCF00DEFFCF0600E64
:10F810001B6E000E1C6E89EC05F028C0D9FF29C0B4
:10F82000DAFF63C0DFFF20EE01F02850D92629500F
:10F83000DA2262C0DFFF20EE02F02850D9262950DC
:10F84000DA2261C0DFFF20EE03F02850D9262950CC
:10F85000DA2260C0DFFF120002019451D8B433EF06
:10F86000FCF035EFFCF037EFFCF062ECB7F0060E81
:10F870004118D8A43EEFFCF040EFFCF061EFFCF043
:10F880000B0E3F18D8B447EFFCF049EFFCF061EFE6
:10F89000FCF00C0E3F18D8B450EFFCF052EFFCF027
:10F8A00061EFFCF0060E3F18D8B459EFFCF05BEFA7
:10F8B000FCF061EFFCF000C338F002C337F004C382
:10F8C00042F012001F6E1A2806E11B28D8A46BEF25
:10F8D000FCF06DEFFCF083EFFCF01F50020D000E0A
:10F8E000F324D96E040EF420DA6EFF0EDE6EFF0EE6
:10F8F000DD6E000E1F24D96EDA6A070EDA221CC0F4
:10F90000DFFF97EFFCF0010E1A241D6E000E1B2086
:10F910001E6E1F50020D000EF324D96E040EF4204B
:10F92000DA6E1DC0DEFF1EC0DDFF79EFFCF01200B5
:10F93000EDEC0DF0020129A1A0EFFCF0A2EFFCF02C
:10F94000AFEFFCF0ACEC0CF00009D8B4AAEFFCF07F
:10F95000ACEFFCF0AFEFFCF00F0E0201276F0201DD
:10F960002751030DDF0EF324F66EF60EF420F76E2A
:10F97000F86A000EF82202D8CBEFFCF00500FA6E10
:10F980000900F550FD6E0900F550FE6E0900F550B6
:10F99000FF6EFA5012000201276F1200000E226E55
:10F9A000000E236E000E246E000E256E1AA0DBEFF3
:10F9B000FCF0DDEFFCF0E5EFFCF01E5022261F50BE
:10F9C00023222050242221502522D8901E361F3673
:10F9D00020362136D8901D321C321B321A321A5072
:10F9E0001B101C101D10D8A4F8EFFCF0FAEFFCF06F
:10F9F000D6EFFCF022C01AF023C01BF024C01CF08C
:10FA000025C01DF012000201298714EFFDF0B7ECAC
:10FA10000DF037EFFDF0F0EC0DF0030E37EFFDF0D9
:10FA2000B3EC0DF037EFFDF012C20CF013C20DF085
:10FA300002D825EFFDF00500FA6E0051FD6E015170
:10FA4000FE6E0251FF6EFA501200010AD8B410EF98
:10FA5000FDF0030AD8B407EFFDF0010AD8B407EFB0
:10FA6000FDF0070AD8B40BEFFDF010EFFDF0120027
:10FA70000001DB51DC11D8B440EFFDF042EFFDF0A6
:10FA800066EFFDF0010E2C6E4AEFFDF0D890DB37EB
:10FA9000DC372C2ADCAF4FEFFDF051EFFDF046EFE5
:10FAA000FDF0DB51D95DDC51DA59D8A05AEFFDF0F9
:10FAB0005CEFFDF060EFFDF0DB51D95FDC51DA5B0C
:10FAC000D890DC33DB332C2E51EFFDF0D9C0D9F0C8
:10FAD000DAC0DAF012001E6E1E50020D000EF32482
:10FAE000D96E040EF420DA6EDE50DE10D8B47BEF4F
:10FAF000FDF07DEFFDF091EFFDF01E50020D000EC8
:10FB0000F324D96E040EF420DA6EDECF1CF0DDCFC4
:10FB10001DF0FF0E1C241A6EFF0E1D201B6E9DEFA4
:10FB2000FDF01E50020D000EF324D96E040EF420D9
:10FB3000DA6EDECF1AF0DDCF1BF01200000E1B6E66
:10FB4000F90E1C6E010E1D6E000E1E6E4CEC0BF0BD
:10FB5000206E2004D8A4AFEFFDF0B1EFFDF0BAEFB6
:10FB6000FDF07C840400C1EC0CF004007C94FF00E8
:10FB7000D0EFFDF0000E1B6E000E1C6E000E1D6E11
:10FB8000000E1E6E4CEC0BF0FF0AD8B4CAEFFDF06D
:10FB9000CCEFFDF0D0EFFDF00400C1EC0CF0040060
:10FBA00012001A6ED5EFFDF004000201F451D8B432
:10FBB000DCEFFDF0DEEFFDF0D4EFFDF00E012CB92F
:10FBC000E4EFFDF0E6EFFDF0EAEFFDF01AC099FF7B
:10FBD00000EFFEF02C99200E02019925D96EDA6A09
:10FBE000080EDA221AC0DFFF992B1F0E9965FBEF72
:10FBF000FDF0FDEFFDF0FFEFFDF0000E996FF40753
:10FC00000E012C8912001A6E07EFFEF004000201AB
:10FC1000F551D8B40EEFFEF010EFFEF006EFFEF057
:10FC20000E012DB916EFFEF018EFFEF01CEFFEF0FE
:10FC30001AC0DDFE32EFFEF02D99600E02019E2506
:10FC4000D96EDA6A080EDA221AC0DFFF9E2B1F0E69
:10FC50009E652DEFFEF02FEFFEF031EFFEF0000E6F
:10FC60009E6FF5070E012D8912001A6E39EFFEF016
:10FC700004000201F351D8B440EFFEF042EFFEF071
:10FC800038EFFEF00E012DB148EFFEF04AEFFEF026
:10FC90004EEFFEF01AC0EBFE64EFFEF02D919D0ECC
:10FCA0000201A325D96EDA6A060EDA221AC0DFFF36
:10FCB000A32B1F0EA3655FEFFEF061EFFEF063EF75
:10FCC000FEF0000EA36FF3070E012D811200000E4F
:10FCD00003ECFEF0240E0501A46F240EA56F240E84
:10FCE000A66F0400310E0001616FB40E606F650EE7
:10FCF000E82EFED7602FFCD7612FFAD700D0310E47
:10FD00000001616FB40E606F650EE82EFED7602FA4
:10FD1000FCD7612FFAD700D00400A40E1B6E050E8D
:10FD20001C6E030E1D6EDFEC07F0CDECE1F012004F
:10FD3000000E206E1CC0D9FF1DC0DAFFDF5002018B
:10FD40006E6F20501A24D96E000E1B20DA6EDF5021
:10FD50006E6F1CC0D9FF1DC0DAFF20501A24E16E5F
:10FD6000000E1B20E26EDE50E618D8A4BAEFFEF0BB
